{
  "address": "0xE7e2b154cB360D5Ab258700D51d5f62990A5d71C",
  "abi": [
    {
      "inputs": [
        {
          "internalType": "address",
          "name": "_troveManager",
          "type": "address"
        },
        {
          "internalType": "address",
          "name": "_sortedTroves",
          "type": "address"
        }
      ],
      "stateMutability": "nonpayable",
      "type": "constructor"
    },
    {
      "inputs": [],
      "name": "SortedTroves",
      "outputs": [
        {
          "internalType": "contract ISortedTroves",
          "name": "",
          "type": "address"
        }
      ],
      "stateMutability": "view",
      "type": "function"
    },
    {
      "inputs": [],
      "name": "TroveManager",
      "outputs": [
        {
          "internalType": "contract ITroveManager",
          "name": "",
          "type": "address"
        }
      ],
      "stateMutability": "view",
      "type": "function"
    },
    {
      "inputs": [
        {
          "internalType": "address",
          "name": "_of",
          "type": "address"
        },
        {
          "internalType": "uint256",
          "name": "_acc",
          "type": "uint256"
        },
        {
          "internalType": "uint256",
          "name": "_iterations",
          "type": "uint256"
        }
      ],
      "name": "getDebtInFront",
      "outputs": [
        {
          "internalType": "address",
          "name": "next",
          "type": "address"
        },
        {
          "internalType": "uint256",
          "name": "debt",
          "type": "uint256"
        }
      ],
      "stateMutability": "view",
      "type": "function"
    }
  ],
  "transactionHash": "0x6e97aae45268a0fbe24185cf1bf180e891fa9434a4bf7115984eaa36a1eb7e27",
  "args": [
    "0x5719459B37bB156BFa54dfE997D0286062DCcC36",
    "0xB7ee07b4a2A6F02941C6682DF2754389cfDdde03"
  ],
  "numDeployments": 1,
  "solcInputHash": "a75545a951a38cfe44fb5cd4c7742549",
  "bytecode": "0x608060405234801561001057600080fd5b506040516102c03803806102c08339818101604052604081101561003357600080fd5b508051602090910151600080546001600160a01b039384166001600160a01b031991821617909155600180549390921692169190911790556102468061007a6000396000f3fe608060405234801561001057600080fd5b50600436106100415760003560e01c806369a0281814610046578063b15c40001461006a578063c3d2af6914610072575b600080fd5b61004e6100c7565b604080516001600160a01b039092168252519081900360200190f35b61004e6100d6565b6100a46004803603606081101561008857600080fd5b506001600160a01b0381351690602081013590604001356100e5565b604080516001600160a01b03909316835260208301919091528051918290030190f35b6000546001600160a01b031681565b6001546001600160a01b031681565b828260005b838110801561010157506001600160a01b03831615155b15610207576001546040805163765e015960e01b81526001600160a01b0386811660048301529151919092169163765e0159916024808301926020929190829003018186803b15801561015357600080fd5b505afa158015610167573d6000803e3d6000fd5b505050506040513d602081101561017d57600080fd5b50516000546040805163d66a255360e01b81526001600160a01b038085166004830152915193965091169163d66a255391602480820192602092909190829003018186803b1580156101ce57600080fd5b505afa1580156101e2573d6000803e3d6000fd5b505050506040513d60208110156101f857600080fd5b505191909101906001016100ea565b5093509391505056fea2646970667358221220507a3734fe775ca91f6d0e933a62bfd215e7dab197163fe7092a46311cae136564736f6c63430007060033",
  "devdoc": {
    "kind": "dev",
    "methods": {
      "getDebtInFront(address,uint256,uint256)": {
        "params": {
          "_acc": "Accumulated sum used in subsequent calls, 0 for first call",
          "_iterations": "Maximum number of troves to traverse",
          "_of": "Address of the trove owner"
        },
        "returns": {
          "debt": "Accumulated debt to be used in the subsequent call",
          "next": "Trove owner address to be used in the subsequent call, address(0) at the end of list"
        }
      }
    },
    "version": 1
  },
  "userdoc": {
    "kind": "user",
    "methods": {
      "getDebtInFront(address,uint256,uint256)": {
        "notice": "Returns the debt in front of the users trove in the sorted list"
      }
    },
    "version": 1
  },
  "storageLayout": {
    "storage": [
      {
        "astId": 1209,
        "contract": "contracts/USDFCView.sol:USDFCView",
        "label": "TroveManager",
        "offset": 0,
        "slot": "0",
        "type": "t_contract(ITroveManager)1201"
      },
      {
        "astId": 1211,
        "contract": "contracts/USDFCView.sol:USDFCView",
        "label": "SortedTroves",
        "offset": 0,
        "slot": "1",
        "type": "t_contract(ISortedTroves)546"
      }
    ],
    "types": {
      "t_contract(ISortedTroves)546": {
        "encoding": "inplace",
        "label": "contract ISortedTroves",
        "numberOfBytes": "20"
      },
      "t_contract(ITroveManager)1201": {
        "encoding": "inplace",
        "label": "contract ITroveManager",
        "numberOfBytes": "20"
      }
    }
  }
}