{
  "_format": "hh-sol-artifact-1",
  "contractName": "ActivePoolTester",
  "sourceName": "contracts/TestContracts/ActivePoolTester.sol",
  "abi": [
    {
      "anonymous": false,
      "inputs": [
        {
          "indexed": false,
          "internalType": "address",
          "name": "_newActivePoolAddress",
          "type": "address"
        }
      ],
      "name": "ActivePoolAddressChanged",
      "type": "event"
    },
    {
      "anonymous": false,
      "inputs": [
        {
          "indexed": false,
          "internalType": "uint256",
          "name": "_debt",
          "type": "uint256"
        }
      ],
      "name": "ActivePoolDebtUpdated",
      "type": "event"
    },
    {
      "anonymous": false,
      "inputs": [
        {
          "indexed": false,
          "internalType": "uint256",
          "name": "_FIL",
          "type": "uint256"
        }
      ],
      "name": "ActivePoolFILBalanceUpdated",
      "type": "event"
    },
    {
      "anonymous": false,
      "inputs": [
        {
          "indexed": false,
          "internalType": "address",
          "name": "_newBorrowerOperationsAddress",
          "type": "address"
        }
      ],
      "name": "BorrowerOperationsAddressChanged",
      "type": "event"
    },
    {
      "anonymous": false,
      "inputs": [
        {
          "indexed": false,
          "internalType": "uint256",
          "name": "_newBalance",
          "type": "uint256"
        }
      ],
      "name": "DebtTokenBalanceUpdated",
      "type": "event"
    },
    {
      "anonymous": false,
      "inputs": [
        {
          "indexed": false,
          "internalType": "address",
          "name": "_newDefaultPoolAddress",
          "type": "address"
        }
      ],
      "name": "DefaultPoolAddressChanged",
      "type": "event"
    },
    {
      "anonymous": false,
      "inputs": [
        {
          "indexed": false,
          "internalType": "uint256",
          "name": "_newBalance",
          "type": "uint256"
        }
      ],
      "name": "FILBalanceUpdated",
      "type": "event"
    },
    {
      "anonymous": false,
      "inputs": [
        {
          "indexed": false,
          "internalType": "address",
          "name": "_to",
          "type": "address"
        },
        {
          "indexed": false,
          "internalType": "uint256",
          "name": "_amount",
          "type": "uint256"
        }
      ],
      "name": "FILSent",
      "type": "event"
    },
    {
      "anonymous": false,
      "inputs": [
        {
          "indexed": true,
          "internalType": "address",
          "name": "previousOwner",
          "type": "address"
        },
        {
          "indexed": true,
          "internalType": "address",
          "name": "newOwner",
          "type": "address"
        }
      ],
      "name": "OwnershipTransferred",
      "type": "event"
    },
    {
      "anonymous": false,
      "inputs": [
        {
          "indexed": false,
          "internalType": "address",
          "name": "_newStabilityPoolAddress",
          "type": "address"
        }
      ],
      "name": "StabilityPoolAddressChanged",
      "type": "event"
    },
    {
      "anonymous": false,
      "inputs": [
        {
          "indexed": false,
          "internalType": "address",
          "name": "_newTroveManagerAddress",
          "type": "address"
        }
      ],
      "name": "TroveManagerAddressChanged",
      "type": "event"
    },
    {
      "inputs": [],
      "name": "NAME",
      "outputs": [
        {
          "internalType": "string",
          "name": "",
          "type": "string"
        }
      ],
      "stateMutability": "view",
      "type": "function"
    },
    {
      "inputs": [],
      "name": "borrowerOperationsAddress",
      "outputs": [
        {
          "internalType": "address",
          "name": "",
          "type": "address"
        }
      ],
      "stateMutability": "view",
      "type": "function"
    },
    {
      "inputs": [
        {
          "internalType": "uint256",
          "name": "_amount",
          "type": "uint256"
        }
      ],
      "name": "decreaseDebt",
      "outputs": [],
      "stateMutability": "nonpayable",
      "type": "function"
    },
    {
      "inputs": [],
      "name": "defaultPoolAddress",
      "outputs": [
        {
          "internalType": "address",
          "name": "",
          "type": "address"
        }
      ],
      "stateMutability": "view",
      "type": "function"
    },
    {
      "inputs": [],
      "name": "getDebt",
      "outputs": [
        {
          "internalType": "uint256",
          "name": "",
          "type": "uint256"
        }
      ],
      "stateMutability": "view",
      "type": "function"
    },
    {
      "inputs": [],
      "name": "getFIL",
      "outputs": [
        {
          "internalType": "uint256",
          "name": "",
          "type": "uint256"
        }
      ],
      "stateMutability": "view",
      "type": "function"
    },
    {
      "inputs": [
        {
          "internalType": "uint256",
          "name": "_amount",
          "type": "uint256"
        }
      ],
      "name": "increaseDebt",
      "outputs": [],
      "stateMutability": "nonpayable",
      "type": "function"
    },
    {
      "inputs": [
        {
          "internalType": "address",
          "name": "_borrowerOperationsAddress",
          "type": "address"
        },
        {
          "internalType": "address",
          "name": "_troveManagerAddress",
          "type": "address"
        },
        {
          "internalType": "address",
          "name": "_stabilityPoolAddress",
          "type": "address"
        },
        {
          "internalType": "address",
          "name": "_defaultPoolAddress",
          "type": "address"
        }
      ],
      "name": "initialize",
      "outputs": [],
      "stateMutability": "nonpayable",
      "type": "function"
    },
    {
      "inputs": [],
      "name": "owner",
      "outputs": [
        {
          "internalType": "address",
          "name": "",
          "type": "address"
        }
      ],
      "stateMutability": "view",
      "type": "function"
    },
    {
      "inputs": [],
      "name": "renounceOwnership",
      "outputs": [],
      "stateMutability": "nonpayable",
      "type": "function"
    },
    {
      "inputs": [
        {
          "internalType": "address",
          "name": "_account",
          "type": "address"
        },
        {
          "internalType": "uint256",
          "name": "_amount",
          "type": "uint256"
        }
      ],
      "name": "sendFIL",
      "outputs": [],
      "stateMutability": "nonpayable",
      "type": "function"
    },
    {
      "inputs": [],
      "name": "stabilityPoolAddress",
      "outputs": [
        {
          "internalType": "address",
          "name": "",
          "type": "address"
        }
      ],
      "stateMutability": "view",
      "type": "function"
    },
    {
      "inputs": [
        {
          "internalType": "address",
          "name": "newOwner",
          "type": "address"
        }
      ],
      "name": "transferOwnership",
      "outputs": [],
      "stateMutability": "nonpayable",
      "type": "function"
    },
    {
      "inputs": [],
      "name": "troveManagerAddress",
      "outputs": [
        {
          "internalType": "address",
          "name": "",
          "type": "address"
        }
      ],
      "stateMutability": "view",
      "type": "function"
    },
    {
      "inputs": [
        {
          "internalType": "uint256",
          "name": "_amount",
          "type": "uint256"
        }
      ],
      "name": "unprotectedIncreaseDebt",
      "outputs": [],
      "stateMutability": "nonpayable",
      "type": "function"
    },
    {
      "inputs": [],
      "name": "unprotectedPayable",
      "outputs": [],
      "stateMutability": "payable",
      "type": "function"
    },
    {
      "stateMutability": "payable",
      "type": "receive"
    }
  ],
  "bytecode": "0x608060405234801561001057600080fd5b50610fdc806100206000396000f3fe6080604052600436106100d65760003560e01c8063a3f4df7e1161007a578063a3f4df7e14610254578063aac1846f146102de578063b7f8cf9b146102f3578063c5c3937e14610308578063f2fde38b1461031d578063f3af7c3b14610350578063f7a7c8b814610358578063f8c8765e1461038257610129565b80628063a51461012e5780630b622ab21461016957806314a6bf0f1461019a5780632a7ba1f7146101c15780632b7c7b11146101eb5780635a4d28bb14610215578063715018a61461022a5780638da5cb5b1461023f57610129565b36610129576100e36103cd565b6069546100f0903461042d565b606981905560408051918252517f2536de1d7bbba20957818a5226a7b6c5b54fffc650060e673fa6d8850ddd4e979181900360200190a1005b600080fd5b34801561013a57600080fd5b506101676004803603604081101561015157600080fd5b506001600160a01b03813516906020013561048e565b005b34801561017557600080fd5b5061017e6105c9565b604080516001600160a01b039092168252519081900360200190f35b3480156101a657600080fd5b506101af6105d8565b60408051918252519081900360200190f35b3480156101cd57600080fd5b50610167600480360360208110156101e457600080fd5b50356105de565b3480156101f757600080fd5b506101676004803603602081101561020e57600080fd5b503561062d565b34801561022157600080fd5b5061017e610642565b34801561023657600080fd5b50610167610651565b34801561024b57600080fd5b5061017e6106fd565b34801561026057600080fd5b5061026961070c565b6040805160208082528351818301528351919283929083019185019080838360005b838110156102a357818101518382015260200161028b565b50505050905090810190601f1680156102d05780820380516001836020036101000a031916815260200191505b509250505060405180910390f35b3480156102ea57600080fd5b5061017e610732565b3480156102ff57600080fd5b5061017e610741565b34801561031457600080fd5b506101af610750565b34801561032957600080fd5b506101676004803603602081101561034057600080fd5b50356001600160a01b0316610756565b610167610859565b34801561036457600080fd5b506101676004803603602081101561037b57600080fd5b503561086b565b34801561038e57600080fd5b50610167600480360360808110156103a557600080fd5b506001600160a01b03813581169160208101358216916040820135811691606001351661087e565b6065546001600160a01b03163314806103f057506068546001600160a01b031633145b61042b5760405162461bcd60e51b8152600401808060200182810382526031815260200180610f566031913960400191505060405180910390fd5b565b600082820183811015610487576040805162461bcd60e51b815260206004820152601b60248201527f536166654d6174683a206164646974696f6e206f766572666c6f770000000000604482015290519081900360640190fd5b9392505050565b610496610938565b6069546104a390826109ab565b606981905560408051918252517f2536de1d7bbba20957818a5226a7b6c5b54fffc650060e673fa6d8850ddd4e979181900360200190a1604080516001600160a01b03841681526020810183905281517f3b2482b1bf6e751427503c9a8bf79e4dba3e6519259e2220428c2f326cc79c14929181900390910190a16040516000906001600160a01b0384169083908381818185875af1925050503d8060008114610569576040519150601f19603f3d011682016040523d82523d6000602084013e61056e565b606091505b50509050806105c4576040805162461bcd60e51b815260206004820152601e60248201527f416374697665506f6f6c3a2073656e64696e672046494c206661696c65640000604482015290519081900360640190fd5b505050565b6067546001600160a01b031681565b606a5490565b6105e6610938565b606a546105f390826109ab565b606a81905560408051918252517f13193833722dafec703db5d698ec64bbad69b90300d7ef30037df03a1412d5089181900360200190a150565b610635610a08565b606a546105f3908261042d565b6066546001600160a01b031681565b610659610a66565b6001600160a01b031661066a6106fd565b6001600160a01b0316146106c5576040805162461bcd60e51b815260206004820181905260248201527f4f776e61626c653a2063616c6c6572206973206e6f7420746865206f776e6572604482015290519081900360640190fd5b6033546040516000916001600160a01b031690600080516020610f87833981519152908390a3603380546001600160a01b0319169055565b6033546001600160a01b031690565b6040518060400160405280600a8152602001691058dd1a5d99541bdbdb60b21b81525081565b6068546001600160a01b031681565b6065546001600160a01b031681565b60695490565b61075e610a66565b6001600160a01b031661076f6106fd565b6001600160a01b0316146107ca576040805162461bcd60e51b815260206004820181905260248201527f4f776e61626c653a2063616c6c6572206973206e6f7420746865206f776e6572604482015290519081900360640190fd5b6001600160a01b03811661080f5760405162461bcd60e51b8152600401808060200182810382526026815260200180610eaf6026913960400191505060405180910390fd5b6033546040516001600160a01b03808416921690600080516020610f8783398151915290600090a3603380546001600160a01b0319166001600160a01b0392909216919091179055565b606954610866903461042d565b606955565b606a54610878908261042d565b606a5550565b600054610100900460ff16806108975750610897610a6a565b806108a5575060005460ff16155b6108e05760405162461bcd60e51b815260040180806020018281038252602e815260200180610ed5602e913960400191505060405180910390fd5b600054610100900460ff1615801561090b576000805460ff1961ff0019909116610100171660011790555b610913610a7b565b61091f85858585610b2d565b8015610931576000805461ff00191690555b5050505050565b6065546001600160a01b031633148061095b57506066546001600160a01b031633145b8061097057506067546001600160a01b031633145b61042b5760405162461bcd60e51b8152600401808060200182810382526053815260200180610f036053913960600191505060405180910390fd5b600082821115610a02576040805162461bcd60e51b815260206004820152601e60248201527f536166654d6174683a207375627472616374696f6e206f766572666c6f770000604482015290519081900360640190fd5b50900390565b6065546001600160a01b0316331480610a2b57506066546001600160a01b031633145b61042b5760405162461bcd60e51b8152600401808060200182810382526041815260200180610e6e6041913960600191505060405180910390fd5b3390565b6000610a7530610c85565b15905090565b600054610100900460ff1680610a945750610a94610a6a565b80610aa2575060005460ff16155b610add5760405162461bcd60e51b815260040180806020018281038252602e815260200180610ed5602e913960400191505060405180910390fd5b600054610100900460ff16158015610b08576000805460ff1961ff0019909116610100171660011790555b610b10610c8b565b610b18610d2b565b8015610b2a576000805461ff00191690555b50565b610b3684610e12565b610b3f83610e12565b610b4882610e12565b610b5181610e12565b606580546001600160a01b038087166001600160a01b031992831681179093556066805487831690841617905560678054868316908416179055606880549185169190921617905560408051918252517f3ca631ffcd2a9b5d9ae18543fc82f58eb4ca33af9e6ab01b7a8e95331e6ed9859181900360200190a1604080516001600160a01b038516815290517f143219c9e69b09e07e095fcc889b43d8f46ca892bba65f08dc3a0050869a56789181900360200190a1604080516001600160a01b038416815290517f82966d27eea39b038ee0fa30cd16532bb24f6e65d31cb58fb227aa5766cdcc7f9181900360200190a1604080516001600160a01b038316815290517f5ee0cae2f063ed938bb55046f6a932fb6ae792bf43624806bb90abe68a50be9b9181900360200190a150505050565b3b151590565b600054610100900460ff1680610ca45750610ca4610a6a565b80610cb2575060005460ff16155b610ced5760405162461bcd60e51b815260040180806020018281038252602e815260200180610ed5602e913960400191505060405180910390fd5b600054610100900460ff16158015610b18576000805460ff1961ff0019909116610100171660011790558015610b2a576000805461ff001916905550565b600054610100900460ff1680610d445750610d44610a6a565b80610d52575060005460ff16155b610d8d5760405162461bcd60e51b815260040180806020018281038252602e815260200180610ed5602e913960400191505060405180910390fd5b600054610100900460ff16158015610db8576000805460ff1961ff0019909116610100171660011790555b6000610dc2610a66565b603380546001600160a01b0319166001600160a01b03831690811790915560405191925090600090600080516020610f87833981519152908290a3508015610b2a576000805461ff001916905550565b6001600160a01b038116610b2a576040805162461bcd60e51b815260206004820152601e60248201527f4163636f756e742063616e6e6f74206265207a65726f20616464726573730000604482015290519081900360640190fdfe416374697665506f6f6c3a2043616c6c6572206973206e65697468657220426f72726f7765724f7065726174696f6e73206e6f722054726f76654d616e616765724f776e61626c653a206e6577206f776e657220697320746865207a65726f2061646472657373496e697469616c697a61626c653a20636f6e747261637420697320616c726561647920696e697469616c697a6564416374697665506f6f6c3a2043616c6c6572206973206e65697468657220426f72726f7765724f7065726174696f6e73206e6f722054726f76654d616e61676572206e6f722053746162696c697479506f6f6c416374697665506f6f6c3a2043616c6c6572206973206e65697468657220424f206e6f722044656661756c7420506f6f6c8be0079c531659141344cd1fd0a4f28419497f9722a3daafe3b4186f6b6457e0a264697066735822122090676964a0f8c1bfade83b39cc90d3e2a0ac01bcd24395ea528573e0ec4d326664736f6c63430007060033",
  "linkReferences": {},
  "deployedLinkReferences": {}
}