{
  "_format": "hh-sol-artifact-1",
  "contractName": "ActivePool",
  "sourceName": "contracts/ActivePool.sol",
  "abi": [
    {
      "anonymous": false,
      "inputs": [
        {
          "indexed": false,
          "internalType": "address",
          "name": "_newActivePoolAddress",
          "type": "address"
        }
      ],
      "name": "ActivePoolAddressChanged",
      "type": "event"
    },
    {
      "anonymous": false,
      "inputs": [
        {
          "indexed": false,
          "internalType": "uint256",
          "name": "_debt",
          "type": "uint256"
        }
      ],
      "name": "ActivePoolDebtUpdated",
      "type": "event"
    },
    {
      "anonymous": false,
      "inputs": [
        {
          "indexed": false,
          "internalType": "uint256",
          "name": "_FIL",
          "type": "uint256"
        }
      ],
      "name": "ActivePoolFILBalanceUpdated",
      "type": "event"
    },
    {
      "anonymous": false,
      "inputs": [
        {
          "indexed": false,
          "internalType": "address",
          "name": "_newBorrowerOperationsAddress",
          "type": "address"
        }
      ],
      "name": "BorrowerOperationsAddressChanged",
      "type": "event"
    },
    {
      "anonymous": false,
      "inputs": [
        {
          "indexed": false,
          "internalType": "uint256",
          "name": "_newBalance",
          "type": "uint256"
        }
      ],
      "name": "DebtTokenBalanceUpdated",
      "type": "event"
    },
    {
      "anonymous": false,
      "inputs": [
        {
          "indexed": false,
          "internalType": "address",
          "name": "_newDefaultPoolAddress",
          "type": "address"
        }
      ],
      "name": "DefaultPoolAddressChanged",
      "type": "event"
    },
    {
      "anonymous": false,
      "inputs": [
        {
          "indexed": false,
          "internalType": "address",
          "name": "_to",
          "type": "address"
        },
        {
          "indexed": false,
          "internalType": "uint256",
          "name": "_amount",
          "type": "uint256"
        }
      ],
      "name": "EtherSent",
      "type": "event"
    },
    {
      "anonymous": false,
      "inputs": [
        {
          "indexed": false,
          "internalType": "uint256",
          "name": "_newBalance",
          "type": "uint256"
        }
      ],
      "name": "FILBalanceUpdated",
      "type": "event"
    },
    {
      "anonymous": false,
      "inputs": [
        {
          "indexed": true,
          "internalType": "address",
          "name": "previousOwner",
          "type": "address"
        },
        {
          "indexed": true,
          "internalType": "address",
          "name": "newOwner",
          "type": "address"
        }
      ],
      "name": "OwnershipTransferred",
      "type": "event"
    },
    {
      "anonymous": false,
      "inputs": [
        {
          "indexed": false,
          "internalType": "address",
          "name": "_newStabilityPoolAddress",
          "type": "address"
        }
      ],
      "name": "StabilityPoolAddressChanged",
      "type": "event"
    },
    {
      "anonymous": false,
      "inputs": [
        {
          "indexed": false,
          "internalType": "address",
          "name": "_newTroveManagerAddress",
          "type": "address"
        }
      ],
      "name": "TroveManagerAddressChanged",
      "type": "event"
    },
    {
      "inputs": [],
      "name": "NAME",
      "outputs": [
        {
          "internalType": "string",
          "name": "",
          "type": "string"
        }
      ],
      "stateMutability": "view",
      "type": "function"
    },
    {
      "inputs": [],
      "name": "borrowerOperationsAddress",
      "outputs": [
        {
          "internalType": "address",
          "name": "",
          "type": "address"
        }
      ],
      "stateMutability": "view",
      "type": "function"
    },
    {
      "inputs": [
        {
          "internalType": "uint256",
          "name": "_amount",
          "type": "uint256"
        }
      ],
      "name": "decreaseDebt",
      "outputs": [],
      "stateMutability": "nonpayable",
      "type": "function"
    },
    {
      "inputs": [],
      "name": "defaultPoolAddress",
      "outputs": [
        {
          "internalType": "address",
          "name": "",
          "type": "address"
        }
      ],
      "stateMutability": "view",
      "type": "function"
    },
    {
      "inputs": [],
      "name": "getDebt",
      "outputs": [
        {
          "internalType": "uint256",
          "name": "",
          "type": "uint256"
        }
      ],
      "stateMutability": "view",
      "type": "function"
    },
    {
      "inputs": [],
      "name": "getFIL",
      "outputs": [
        {
          "internalType": "uint256",
          "name": "",
          "type": "uint256"
        }
      ],
      "stateMutability": "view",
      "type": "function"
    },
    {
      "inputs": [
        {
          "internalType": "uint256",
          "name": "_amount",
          "type": "uint256"
        }
      ],
      "name": "increaseDebt",
      "outputs": [],
      "stateMutability": "nonpayable",
      "type": "function"
    },
    {
      "inputs": [],
      "name": "isOwner",
      "outputs": [
        {
          "internalType": "bool",
          "name": "",
          "type": "bool"
        }
      ],
      "stateMutability": "view",
      "type": "function"
    },
    {
      "inputs": [],
      "name": "owner",
      "outputs": [
        {
          "internalType": "address",
          "name": "",
          "type": "address"
        }
      ],
      "stateMutability": "view",
      "type": "function"
    },
    {
      "inputs": [
        {
          "internalType": "address",
          "name": "_account",
          "type": "address"
        },
        {
          "internalType": "uint256",
          "name": "_amount",
          "type": "uint256"
        }
      ],
      "name": "sendFIL",
      "outputs": [],
      "stateMutability": "nonpayable",
      "type": "function"
    },
    {
      "inputs": [
        {
          "internalType": "address",
          "name": "_borrowerOperationsAddress",
          "type": "address"
        },
        {
          "internalType": "address",
          "name": "_troveManagerAddress",
          "type": "address"
        },
        {
          "internalType": "address",
          "name": "_stabilityPoolAddress",
          "type": "address"
        },
        {
          "internalType": "address",
          "name": "_defaultPoolAddress",
          "type": "address"
        }
      ],
      "name": "setAddresses",
      "outputs": [],
      "stateMutability": "nonpayable",
      "type": "function"
    },
    {
      "inputs": [],
      "name": "stabilityPoolAddress",
      "outputs": [
        {
          "internalType": "address",
          "name": "",
          "type": "address"
        }
      ],
      "stateMutability": "view",
      "type": "function"
    },
    {
      "inputs": [],
      "name": "troveManagerAddress",
      "outputs": [
        {
          "internalType": "address",
          "name": "",
          "type": "address"
        }
      ],
      "stateMutability": "view",
      "type": "function"
    },
    {
      "stateMutability": "payable",
      "type": "receive"
    }
  ],
  "bytecode": "0x608060405234801561001057600080fd5b50600080546001600160a01b0319163390811782556040519091907f8be0079c531659141344cd1fd0a4f28419497f9722a3daafe3b4186f6b6457e0908290a3610bbc8061005f6000396000f3fe6080604052600436106100b55760003560e01c80635a4d28bb1161006f5780635a4d28bb146102455780638da5cb5b1461025a5780638f32d59b1461026f578063a3f4df7e14610298578063aac1846f14610322578063b7f8cf9b14610337578063c5c3937e1461034c5761010e565b80628063a5146101135780630b622ab21461014e57806314a6bf0f1461017f5780632a7ba1f7146101a65780632b7c7b11146101d05780634a945f8d146101fa5761010e565b3661010e576100c2610361565b6005546100d5903463ffffffff6103c116565b600581905560408051918252517f2536de1d7bbba20957818a5226a7b6c5b54fffc650060e673fa6d8850ddd4e979181900360200190a1005b600080fd5b34801561011f57600080fd5b5061014c6004803603604081101561013657600080fd5b506001600160a01b038135169060200135610422565b005b34801561015a57600080fd5b50610163610563565b604080516001600160a01b039092168252519081900360200190f35b34801561018b57600080fd5b50610194610572565b60408051918252519081900360200190f35b3480156101b257600080fd5b5061014c600480360360208110156101c957600080fd5b5035610578565b3480156101dc57600080fd5b5061014c600480360360208110156101f357600080fd5b50356105cd565b34801561020657600080fd5b5061014c6004803603608081101561021d57600080fd5b506001600160a01b0381358116916020810135821691604082013581169160600135166105e8565b34801561025157600080fd5b506101636107a1565b34801561026657600080fd5b506101636107b0565b34801561027b57600080fd5b506102846107bf565b604080519115158252519081900360200190f35b3480156102a457600080fd5b506102ad6107d0565b6040805160208082528351818301528351919283929083019185019080838360005b838110156102e75781810151838201526020016102cf565b50505050905090810190601f1680156103145780820380516001836020036101000a031916815260200191505b509250505060405180910390f35b34801561032e57600080fd5b506101636107f6565b34801561034357600080fd5b50610163610805565b34801561035857600080fd5b50610194610814565b6001546001600160a01b031633148061038457506004546001600160a01b031633145b6103bf5760405162461bcd60e51b8152600401808060200182810382526031815260200180610b566031913960400191505060405180910390fd5b565b60008282018381101561041b576040805162461bcd60e51b815260206004820152601b60248201527f536166654d6174683a206164646974696f6e206f766572666c6f770000000000604482015290519081900360640190fd5b9392505050565b61042a61081a565b60055461043d908263ffffffff61088d16565b600581905560408051918252517f2536de1d7bbba20957818a5226a7b6c5b54fffc650060e673fa6d8850ddd4e979181900360200190a1604080516001600160a01b03841681526020810183905281517f6109e2559dfa766aaec7118351d48a523f0a4157f49c8d68749c8ac41318ad12929181900390910190a16040516000906001600160a01b0384169083908381818185875af1925050503d8060008114610503576040519150601f19603f3d011682016040523d82523d6000602084013e610508565b606091505b505090508061055e576040805162461bcd60e51b815260206004820152601e60248201527f416374697665506f6f6c3a2073656e64696e672046494c206661696c65640000604482015290519081900360640190fd5b505050565b6003546001600160a01b031681565b60065490565b61058061081a565b600654610593908263ffffffff61088d16565b600681905560408051918252517f13193833722dafec703db5d698ec64bbad69b90300d7ef30037df03a1412d5089181900360200190a150565b6105d56108cf565b600654610593908263ffffffff6103c116565b6105f06107bf565b610641576040805162461bcd60e51b815260206004820181905260248201527f4f776e61626c653a2063616c6c6572206973206e6f7420746865206f776e6572604482015290519081900360640190fd5b61064a8461092d565b6106538361092d565b61065c8261092d565b6106658161092d565b600180546001600160a01b038087166001600160a01b031992831681179093556002805487831690841617905560038054868316908416179055600480549185169190921617905560408051918252517f3ca631ffcd2a9b5d9ae18543fc82f58eb4ca33af9e6ab01b7a8e95331e6ed9859181900360200190a1604080516001600160a01b038516815290517f143219c9e69b09e07e095fcc889b43d8f46ca892bba65f08dc3a0050869a56789181900360200190a1604080516001600160a01b038416815290517f82966d27eea39b038ee0fa30cd16532bb24f6e65d31cb58fb227aa5766cdcc7f9181900360200190a1604080516001600160a01b038316815290517f5ee0cae2f063ed938bb55046f6a932fb6ae792bf43624806bb90abe68a50be9b9181900360200190a161079b6109e0565b50505050565b6002546001600160a01b031681565b6000546001600160a01b031690565b6000546001600160a01b0316331490565b6040518060400160405280600a8152602001691058dd1a5d99541bdbdb60b21b81525081565b6004546001600160a01b031681565b6001546001600160a01b031681565b60055490565b6001546001600160a01b031633148061083d57506002546001600160a01b031633145b8061085257506003546001600160a01b031633145b6103bf5760405162461bcd60e51b8152600401808060200182810382526053815260200180610b036053913960600191505060405180910390fd5b600061041b83836040518060400160405280601e81526020017f536166654d6174683a207375627472616374696f6e206f766572666c6f770000815250610a2a565b6001546001600160a01b03163314806108f257506002546001600160a01b031633145b6103bf5760405162461bcd60e51b8152600401808060200182810382526041815260200180610ac26041913960600191505060405180910390fd5b6001600160a01b038116610988576040805162461bcd60e51b815260206004820152601e60248201527f4163636f756e742063616e6e6f74206265207a65726f20616464726573730000604482015290519081900360640190fd5b803b806109dc576040805162461bcd60e51b815260206004820181905260248201527f4163636f756e7420636f64652073697a652063616e6e6f74206265207a65726f604482015290519081900360640190fd5b5050565b600080546040516001600160a01b03909116907f8be0079c531659141344cd1fd0a4f28419497f9722a3daafe3b4186f6b6457e0908390a3600080546001600160a01b0319169055565b60008184841115610ab95760405162461bcd60e51b81526004018080602001828103825283818151815260200191508051906020019080838360005b83811015610a7e578181015183820152602001610a66565b50505050905090810190601f168015610aab5780820380516001836020036101000a031916815260200191505b509250505060405180910390fd5b50505090039056fe416374697665506f6f6c3a2043616c6c6572206973206e65697468657220426f72726f7765724f7065726174696f6e73206e6f722054726f76654d616e61676572416374697665506f6f6c3a2043616c6c6572206973206e65697468657220426f72726f7765724f7065726174696f6e73206e6f722054726f76654d616e61676572206e6f722053746162696c697479506f6f6c416374697665506f6f6c3a2043616c6c6572206973206e65697468657220424f206e6f722044656661756c7420506f6f6ca264697066735822122071695cace1c0539e467aeeabb93529518a2620b6dfdeff6c766d1382a40886f964736f6c634300060b0033",
  "linkReferences": {},
  "deployedLinkReferences": {}
}