{
  "_format": "hh-sol-artifact-1",
  "contractName": "ActivePoolTester",
  "sourceName": "contracts/TestContracts/ActivePoolTester.sol",
  "abi": [
    {
      "anonymous": false,
      "inputs": [
        {
          "indexed": false,
          "internalType": "address",
          "name": "_newActivePoolAddress",
          "type": "address"
        }
      ],
      "name": "ActivePoolAddressChanged",
      "type": "event"
    },
    {
      "anonymous": false,
      "inputs": [
        {
          "indexed": false,
          "internalType": "uint256",
          "name": "_debt",
          "type": "uint256"
        }
      ],
      "name": "ActivePoolDebtUpdated",
      "type": "event"
    },
    {
      "anonymous": false,
      "inputs": [
        {
          "indexed": false,
          "internalType": "uint256",
          "name": "_FIL",
          "type": "uint256"
        }
      ],
      "name": "ActivePoolFILBalanceUpdated",
      "type": "event"
    },
    {
      "anonymous": false,
      "inputs": [
        {
          "indexed": false,
          "internalType": "address",
          "name": "_newBorrowerOperationsAddress",
          "type": "address"
        }
      ],
      "name": "BorrowerOperationsAddressChanged",
      "type": "event"
    },
    {
      "anonymous": false,
      "inputs": [
        {
          "indexed": false,
          "internalType": "uint256",
          "name": "_newBalance",
          "type": "uint256"
        }
      ],
      "name": "DebtTokenBalanceUpdated",
      "type": "event"
    },
    {
      "anonymous": false,
      "inputs": [
        {
          "indexed": false,
          "internalType": "address",
          "name": "_newDefaultPoolAddress",
          "type": "address"
        }
      ],
      "name": "DefaultPoolAddressChanged",
      "type": "event"
    },
    {
      "anonymous": false,
      "inputs": [
        {
          "indexed": false,
          "internalType": "address",
          "name": "_to",
          "type": "address"
        },
        {
          "indexed": false,
          "internalType": "uint256",
          "name": "_amount",
          "type": "uint256"
        }
      ],
      "name": "FILSent",
      "type": "event"
    },
    {
      "anonymous": false,
      "inputs": [
        {
          "indexed": true,
          "internalType": "address",
          "name": "previousOwner",
          "type": "address"
        },
        {
          "indexed": true,
          "internalType": "address",
          "name": "newOwner",
          "type": "address"
        }
      ],
      "name": "OwnershipTransferred",
      "type": "event"
    },
    {
      "anonymous": false,
      "inputs": [
        {
          "indexed": false,
          "internalType": "address",
          "name": "_newStabilityPoolAddress",
          "type": "address"
        }
      ],
      "name": "StabilityPoolAddressChanged",
      "type": "event"
    },
    {
      "anonymous": false,
      "inputs": [
        {
          "indexed": false,
          "internalType": "address",
          "name": "_newTroveManagerAddress",
          "type": "address"
        }
      ],
      "name": "TroveManagerAddressChanged",
      "type": "event"
    },
    {
      "inputs": [],
      "name": "NAME",
      "outputs": [
        {
          "internalType": "string",
          "name": "",
          "type": "string"
        }
      ],
      "stateMutability": "view",
      "type": "function"
    },
    {
      "inputs": [],
      "name": "borrowerOperationsAddress",
      "outputs": [
        {
          "internalType": "address",
          "name": "",
          "type": "address"
        }
      ],
      "stateMutability": "view",
      "type": "function"
    },
    {
      "inputs": [
        {
          "internalType": "uint256",
          "name": "_amount",
          "type": "uint256"
        }
      ],
      "name": "decreaseDebt",
      "outputs": [],
      "stateMutability": "nonpayable",
      "type": "function"
    },
    {
      "inputs": [],
      "name": "defaultPoolAddress",
      "outputs": [
        {
          "internalType": "address",
          "name": "",
          "type": "address"
        }
      ],
      "stateMutability": "view",
      "type": "function"
    },
    {
      "inputs": [],
      "name": "getDebt",
      "outputs": [
        {
          "internalType": "uint256",
          "name": "",
          "type": "uint256"
        }
      ],
      "stateMutability": "view",
      "type": "function"
    },
    {
      "inputs": [],
      "name": "getFIL",
      "outputs": [
        {
          "internalType": "uint256",
          "name": "",
          "type": "uint256"
        }
      ],
      "stateMutability": "view",
      "type": "function"
    },
    {
      "inputs": [
        {
          "internalType": "uint256",
          "name": "_amount",
          "type": "uint256"
        }
      ],
      "name": "increaseDebt",
      "outputs": [],
      "stateMutability": "nonpayable",
      "type": "function"
    },
    {
      "inputs": [
        {
          "internalType": "address",
          "name": "_borrowerOperationsAddress",
          "type": "address"
        },
        {
          "internalType": "address",
          "name": "_troveManagerAddress",
          "type": "address"
        },
        {
          "internalType": "address",
          "name": "_stabilityPoolAddress",
          "type": "address"
        },
        {
          "internalType": "address",
          "name": "_defaultPoolAddress",
          "type": "address"
        }
      ],
      "name": "initialize",
      "outputs": [],
      "stateMutability": "nonpayable",
      "type": "function"
    },
    {
      "inputs": [],
      "name": "owner",
      "outputs": [
        {
          "internalType": "address",
          "name": "",
          "type": "address"
        }
      ],
      "stateMutability": "view",
      "type": "function"
    },
    {
      "inputs": [],
      "name": "renounceOwnership",
      "outputs": [],
      "stateMutability": "nonpayable",
      "type": "function"
    },
    {
      "inputs": [
        {
          "internalType": "address",
          "name": "_account",
          "type": "address"
        },
        {
          "internalType": "uint256",
          "name": "_amount",
          "type": "uint256"
        }
      ],
      "name": "sendFIL",
      "outputs": [],
      "stateMutability": "nonpayable",
      "type": "function"
    },
    {
      "inputs": [],
      "name": "stabilityPoolAddress",
      "outputs": [
        {
          "internalType": "address",
          "name": "",
          "type": "address"
        }
      ],
      "stateMutability": "view",
      "type": "function"
    },
    {
      "inputs": [
        {
          "internalType": "address",
          "name": "newOwner",
          "type": "address"
        }
      ],
      "name": "transferOwnership",
      "outputs": [],
      "stateMutability": "nonpayable",
      "type": "function"
    },
    {
      "inputs": [],
      "name": "troveManagerAddress",
      "outputs": [
        {
          "internalType": "address",
          "name": "",
          "type": "address"
        }
      ],
      "stateMutability": "view",
      "type": "function"
    },
    {
      "inputs": [
        {
          "internalType": "uint256",
          "name": "_amount",
          "type": "uint256"
        }
      ],
      "name": "unprotectedIncreaseDebt",
      "outputs": [],
      "stateMutability": "nonpayable",
      "type": "function"
    },
    {
      "inputs": [],
      "name": "unprotectedPayable",
      "outputs": [],
      "stateMutability": "payable",
      "type": "function"
    },
    {
      "stateMutability": "payable",
      "type": "receive"
    }
  ],
  "bytecode": "0x608060405234801561001057600080fd5b50600054610100900460ff168061002a575061002a6100b6565b80610038575060005460ff16155b6100735760405162461bcd60e51b815260040180806020018281038252602e815260200180611131602e913960400191505060405180910390fd5b600054610100900460ff1615801561009e576000805460ff1961ff0019909116610100171660011790555b80156100b0576000805461ff00191690555b506100d7565b60006100cb306100d160201b61097d1760201c565b15905090565b3b151590565b61104b806100e66000396000f3fe6080604052600436106100d65760003560e01c8063a3f4df7e1161007a578063a3f4df7e14610254578063aac1846f146102de578063b7f8cf9b146102f3578063c5c3937e14610308578063f2fde38b1461031d578063f3af7c3b14610350578063f7a7c8b814610358578063f8c8765e1461038257610129565b80628063a51461012e5780630b622ab21461016957806314a6bf0f1461019a5780632a7ba1f7146101c15780632b7c7b11146101eb5780635a4d28bb14610215578063715018a61461022a5780638da5cb5b1461023f57610129565b36610129576100e36103cd565b6069546100f0903461042d565b606981905560408051918252517f2536de1d7bbba20957818a5226a7b6c5b54fffc650060e673fa6d8850ddd4e979181900360200190a1005b600080fd5b34801561013a57600080fd5b506101676004803603604081101561015157600080fd5b506001600160a01b03813516906020013561048e565b005b34801561017557600080fd5b5061017e61060e565b604080516001600160a01b039092168252519081900360200190f35b3480156101a657600080fd5b506101af61061d565b60408051918252519081900360200190f35b3480156101cd57600080fd5b50610167600480360360208110156101e457600080fd5b5035610623565b3480156101f757600080fd5b506101676004803603602081101561020e57600080fd5b5035610672565b34801561022157600080fd5b5061017e610687565b34801561023657600080fd5b50610167610696565b34801561024b57600080fd5b5061017e610742565b34801561026057600080fd5b50610269610751565b6040805160208082528351818301528351919283929083019185019080838360005b838110156102a357818101518382015260200161028b565b50505050905090810190601f1680156102d05780820380516001836020036101000a031916815260200191505b509250505060405180910390f35b3480156102ea57600080fd5b5061017e610777565b3480156102ff57600080fd5b5061017e610786565b34801561031457600080fd5b506101af610795565b34801561032957600080fd5b506101676004803603602081101561034057600080fd5b50356001600160a01b031661079b565b61016761089e565b34801561036457600080fd5b506101676004803603602081101561037b57600080fd5b50356108b0565b34801561038e57600080fd5b50610167600480360360808110156103a557600080fd5b506001600160a01b0381358116916020810135821691604082013581169160600135166108c3565b6065546001600160a01b03163314806103f057506068546001600160a01b031633145b61042b5760405162461bcd60e51b8152600401808060200182810382526031815260200180610fc56031913960400191505060405180910390fd5b565b600082820183811015610487576040805162461bcd60e51b815260206004820152601b60248201527f536166654d6174683a206164646974696f6e206f766572666c6f770000000000604482015290519081900360640190fd5b9392505050565b6001600160a01b0382166104d35760405162461bcd60e51b815260040180806020018281038252602a815260200180610f1a602a913960400191505060405180910390fd5b6104db610983565b6069546104e890826109f6565b606981905560408051918252517f2536de1d7bbba20957818a5226a7b6c5b54fffc650060e673fa6d8850ddd4e979181900360200190a1604080516001600160a01b03841681526020810183905281517f3b2482b1bf6e751427503c9a8bf79e4dba3e6519259e2220428c2f326cc79c14929181900390910190a16040516000906001600160a01b0384169083908381818185875af1925050503d80600081146105ae576040519150601f19603f3d011682016040523d82523d6000602084013e6105b3565b606091505b5050905080610609576040805162461bcd60e51b815260206004820152601e60248201527f416374697665506f6f6c3a2073656e64696e672046494c206661696c65640000604482015290519081900360640190fd5b505050565b6067546001600160a01b031681565b606a5490565b61062b610983565b606a5461063890826109f6565b606a81905560408051918252517f13193833722dafec703db5d698ec64bbad69b90300d7ef30037df03a1412d5089181900360200190a150565b61067a610a53565b606a54610638908261042d565b6066546001600160a01b031681565b61069e610ab1565b6001600160a01b03166106af610742565b6001600160a01b03161461070a576040805162461bcd60e51b815260206004820181905260248201527f4f776e61626c653a2063616c6c6572206973206e6f7420746865206f776e6572604482015290519081900360640190fd5b6033546040516000916001600160a01b031690600080516020610ff6833981519152908390a3603380546001600160a01b0319169055565b6033546001600160a01b031690565b6040518060400160405280600a8152602001691058dd1a5d99541bdbdb60b21b81525081565b6068546001600160a01b031681565b6065546001600160a01b031681565b60695490565b6107a3610ab1565b6001600160a01b03166107b4610742565b6001600160a01b03161461080f576040805162461bcd60e51b815260206004820181905260248201527f4f776e61626c653a2063616c6c6572206973206e6f7420746865206f776e6572604482015290519081900360640190fd5b6001600160a01b0381166108545760405162461bcd60e51b8152600401808060200182810382526026815260200180610ef46026913960400191505060405180910390fd5b6033546040516001600160a01b03808416921690600080516020610ff683398151915290600090a3603380546001600160a01b0319166001600160a01b0392909216919091179055565b6069546108ab903461042d565b606955565b606a546108bd908261042d565b606a5550565b600054610100900460ff16806108dc57506108dc610ab5565b806108ea575060005460ff16155b6109255760405162461bcd60e51b815260040180806020018281038252602e815260200180610f44602e913960400191505060405180910390fd5b600054610100900460ff16158015610950576000805460ff1961ff0019909116610100171660011790555b610958610ac6565b61096485858585610b78565b8015610976576000805461ff00191690555b5050505050565b3b151590565b6065546001600160a01b03163314806109a657506066546001600160a01b031633145b806109bb57506067546001600160a01b031633145b61042b5760405162461bcd60e51b8152600401808060200182810382526053815260200180610f726053913960600191505060405180910390fd5b600082821115610a4d576040805162461bcd60e51b815260206004820152601e60248201527f536166654d6174683a207375627472616374696f6e206f766572666c6f770000604482015290519081900360640190fd5b50900390565b6065546001600160a01b0316331480610a7657506066546001600160a01b031633145b61042b5760405162461bcd60e51b8152600401808060200182810382526041815260200180610eb36041913960600191505060405180910390fd5b3390565b6000610ac03061097d565b15905090565b600054610100900460ff1680610adf5750610adf610ab5565b80610aed575060005460ff16155b610b285760405162461bcd60e51b815260040180806020018281038252602e815260200180610f44602e913960400191505060405180910390fd5b600054610100900460ff16158015610b53576000805460ff1961ff0019909116610100171660011790555b610b5b610cd0565b610b63610d70565b8015610b75576000805461ff00191690555b50565b610b8184610e57565b610b8a83610e57565b610b9382610e57565b610b9c81610e57565b606580546001600160a01b038087166001600160a01b031992831681179093556066805487831690841617905560678054868316908416179055606880549185169190921617905560408051918252517f3ca631ffcd2a9b5d9ae18543fc82f58eb4ca33af9e6ab01b7a8e95331e6ed9859181900360200190a1604080516001600160a01b038516815290517f143219c9e69b09e07e095fcc889b43d8f46ca892bba65f08dc3a0050869a56789181900360200190a1604080516001600160a01b038416815290517f82966d27eea39b038ee0fa30cd16532bb24f6e65d31cb58fb227aa5766cdcc7f9181900360200190a1604080516001600160a01b038316815290517f5ee0cae2f063ed938bb55046f6a932fb6ae792bf43624806bb90abe68a50be9b9181900360200190a150505050565b600054610100900460ff1680610ce95750610ce9610ab5565b80610cf7575060005460ff16155b610d325760405162461bcd60e51b815260040180806020018281038252602e815260200180610f44602e913960400191505060405180910390fd5b600054610100900460ff16158015610b63576000805460ff1961ff0019909116610100171660011790558015610b75576000805461ff001916905550565b600054610100900460ff1680610d895750610d89610ab5565b80610d97575060005460ff16155b610dd25760405162461bcd60e51b815260040180806020018281038252602e815260200180610f44602e913960400191505060405180910390fd5b600054610100900460ff16158015610dfd576000805460ff1961ff0019909116610100171660011790555b6000610e07610ab1565b603380546001600160a01b0319166001600160a01b03831690811790915560405191925090600090600080516020610ff6833981519152908290a3508015610b75576000805461ff001916905550565b6001600160a01b038116610b75576040805162461bcd60e51b815260206004820152601e60248201527f4163636f756e742063616e6e6f74206265207a65726f20616464726573730000604482015290519081900360640190fdfe416374697665506f6f6c3a2043616c6c6572206973206e65697468657220426f72726f7765724f7065726174696f6e73206e6f722054726f76654d616e616765724f776e61626c653a206e6577206f776e657220697320746865207a65726f2061646472657373416374697665506f6f6c3a206163636f756e742063616e6e6f74206265207a65726f2061646472657373496e697469616c697a61626c653a20636f6e747261637420697320616c726561647920696e697469616c697a6564416374697665506f6f6c3a2043616c6c6572206973206e65697468657220426f72726f7765724f7065726174696f6e73206e6f722054726f76654d616e61676572206e6f722053746162696c697479506f6f6c416374697665506f6f6c3a2043616c6c6572206973206e65697468657220424f206e6f722044656661756c7420506f6f6c8be0079c531659141344cd1fd0a4f28419497f9722a3daafe3b4186f6b6457e0a26469706673582212207e9c97adba7e92a40341ef7e1c5b88cc73bd43f5248ab35496a7f2ce331c3b2364736f6c63430007060033496e697469616c697a61626c653a20636f6e747261637420697320616c726561647920696e697469616c697a6564",
  "linkReferences": {},
  "deployedLinkReferences": {}
}