{
  "_format": "hh-sol-artifact-1",
  "contractName": "ActivePool",
  "sourceName": "contracts/ActivePool.sol",
  "abi": [
    {
      "anonymous": false,
      "inputs": [
        {
          "indexed": false,
          "internalType": "address",
          "name": "_newActivePoolAddress",
          "type": "address"
        }
      ],
      "name": "ActivePoolAddressChanged",
      "type": "event"
    },
    {
      "anonymous": false,
      "inputs": [
        {
          "indexed": false,
          "internalType": "uint256",
          "name": "_debt",
          "type": "uint256"
        }
      ],
      "name": "ActivePoolDebtUpdated",
      "type": "event"
    },
    {
      "anonymous": false,
      "inputs": [
        {
          "indexed": false,
          "internalType": "uint256",
          "name": "_FIL",
          "type": "uint256"
        }
      ],
      "name": "ActivePoolFILBalanceUpdated",
      "type": "event"
    },
    {
      "anonymous": false,
      "inputs": [
        {
          "indexed": false,
          "internalType": "address",
          "name": "_newBorrowerOperationsAddress",
          "type": "address"
        }
      ],
      "name": "BorrowerOperationsAddressChanged",
      "type": "event"
    },
    {
      "anonymous": false,
      "inputs": [
        {
          "indexed": false,
          "internalType": "uint256",
          "name": "_newBalance",
          "type": "uint256"
        }
      ],
      "name": "DebtTokenBalanceUpdated",
      "type": "event"
    },
    {
      "anonymous": false,
      "inputs": [
        {
          "indexed": false,
          "internalType": "address",
          "name": "_newDefaultPoolAddress",
          "type": "address"
        }
      ],
      "name": "DefaultPoolAddressChanged",
      "type": "event"
    },
    {
      "anonymous": false,
      "inputs": [
        {
          "indexed": false,
          "internalType": "uint256",
          "name": "_newBalance",
          "type": "uint256"
        }
      ],
      "name": "FILBalanceUpdated",
      "type": "event"
    },
    {
      "anonymous": false,
      "inputs": [
        {
          "indexed": false,
          "internalType": "address",
          "name": "_to",
          "type": "address"
        },
        {
          "indexed": false,
          "internalType": "uint256",
          "name": "_amount",
          "type": "uint256"
        }
      ],
      "name": "FILSent",
      "type": "event"
    },
    {
      "anonymous": false,
      "inputs": [
        {
          "indexed": true,
          "internalType": "address",
          "name": "previousOwner",
          "type": "address"
        },
        {
          "indexed": true,
          "internalType": "address",
          "name": "newOwner",
          "type": "address"
        }
      ],
      "name": "OwnershipTransferred",
      "type": "event"
    },
    {
      "anonymous": false,
      "inputs": [
        {
          "indexed": false,
          "internalType": "address",
          "name": "_newStabilityPoolAddress",
          "type": "address"
        }
      ],
      "name": "StabilityPoolAddressChanged",
      "type": "event"
    },
    {
      "anonymous": false,
      "inputs": [
        {
          "indexed": false,
          "internalType": "address",
          "name": "_newTroveManagerAddress",
          "type": "address"
        }
      ],
      "name": "TroveManagerAddressChanged",
      "type": "event"
    },
    {
      "inputs": [],
      "name": "NAME",
      "outputs": [
        {
          "internalType": "string",
          "name": "",
          "type": "string"
        }
      ],
      "stateMutability": "view",
      "type": "function"
    },
    {
      "inputs": [],
      "name": "borrowerOperationsAddress",
      "outputs": [
        {
          "internalType": "address",
          "name": "",
          "type": "address"
        }
      ],
      "stateMutability": "view",
      "type": "function"
    },
    {
      "inputs": [
        {
          "internalType": "uint256",
          "name": "_amount",
          "type": "uint256"
        }
      ],
      "name": "decreaseDebt",
      "outputs": [],
      "stateMutability": "nonpayable",
      "type": "function"
    },
    {
      "inputs": [],
      "name": "defaultPoolAddress",
      "outputs": [
        {
          "internalType": "address",
          "name": "",
          "type": "address"
        }
      ],
      "stateMutability": "view",
      "type": "function"
    },
    {
      "inputs": [],
      "name": "getDebt",
      "outputs": [
        {
          "internalType": "uint256",
          "name": "",
          "type": "uint256"
        }
      ],
      "stateMutability": "view",
      "type": "function"
    },
    {
      "inputs": [],
      "name": "getFIL",
      "outputs": [
        {
          "internalType": "uint256",
          "name": "",
          "type": "uint256"
        }
      ],
      "stateMutability": "view",
      "type": "function"
    },
    {
      "inputs": [
        {
          "internalType": "uint256",
          "name": "_amount",
          "type": "uint256"
        }
      ],
      "name": "increaseDebt",
      "outputs": [],
      "stateMutability": "nonpayable",
      "type": "function"
    },
    {
      "inputs": [
        {
          "internalType": "address",
          "name": "_borrowerOperationsAddress",
          "type": "address"
        },
        {
          "internalType": "address",
          "name": "_troveManagerAddress",
          "type": "address"
        },
        {
          "internalType": "address",
          "name": "_stabilityPoolAddress",
          "type": "address"
        },
        {
          "internalType": "address",
          "name": "_defaultPoolAddress",
          "type": "address"
        }
      ],
      "name": "initialize",
      "outputs": [],
      "stateMutability": "nonpayable",
      "type": "function"
    },
    {
      "inputs": [],
      "name": "owner",
      "outputs": [
        {
          "internalType": "address",
          "name": "",
          "type": "address"
        }
      ],
      "stateMutability": "view",
      "type": "function"
    },
    {
      "inputs": [],
      "name": "renounceOwnership",
      "outputs": [],
      "stateMutability": "nonpayable",
      "type": "function"
    },
    {
      "inputs": [
        {
          "internalType": "address",
          "name": "_account",
          "type": "address"
        },
        {
          "internalType": "uint256",
          "name": "_amount",
          "type": "uint256"
        }
      ],
      "name": "sendFIL",
      "outputs": [],
      "stateMutability": "nonpayable",
      "type": "function"
    },
    {
      "inputs": [],
      "name": "stabilityPoolAddress",
      "outputs": [
        {
          "internalType": "address",
          "name": "",
          "type": "address"
        }
      ],
      "stateMutability": "view",
      "type": "function"
    },
    {
      "inputs": [
        {
          "internalType": "address",
          "name": "newOwner",
          "type": "address"
        }
      ],
      "name": "transferOwnership",
      "outputs": [],
      "stateMutability": "nonpayable",
      "type": "function"
    },
    {
      "inputs": [],
      "name": "troveManagerAddress",
      "outputs": [
        {
          "internalType": "address",
          "name": "",
          "type": "address"
        }
      ],
      "stateMutability": "view",
      "type": "function"
    },
    {
      "stateMutability": "payable",
      "type": "receive"
    }
  ],
  "bytecode": "0x608060405234801561001057600080fd5b50610f6f806100206000396000f3fe6080604052600436106100c05760003560e01c80638da5cb5b1161006f5780638da5cb5b14610229578063a3f4df7e1461023e578063aac1846f146102c8578063b7f8cf9b146102dd578063c5c3937e146102f2578063f2fde38b14610307578063f8c8765e1461033a57610113565b80628063a5146101185780630b622ab21461015357806314a6bf0f146101845780632a7ba1f7146101ab5780632b7c7b11146101d55780635a4d28bb146101ff578063715018a61461021457610113565b36610113576100cd610385565b6069546100da90346103e5565b606981905560408051918252517f2536de1d7bbba20957818a5226a7b6c5b54fffc650060e673fa6d8850ddd4e979181900360200190a1005b600080fd5b34801561012457600080fd5b506101516004803603604081101561013b57600080fd5b506001600160a01b038135169060200135610446565b005b34801561015f57600080fd5b50610168610581565b604080516001600160a01b039092168252519081900360200190f35b34801561019057600080fd5b50610199610590565b60408051918252519081900360200190f35b3480156101b757600080fd5b50610151600480360360208110156101ce57600080fd5b5035610596565b3480156101e157600080fd5b50610151600480360360208110156101f857600080fd5b50356105e5565b34801561020b57600080fd5b506101686105fa565b34801561022057600080fd5b50610151610609565b34801561023557600080fd5b506101686106b5565b34801561024a57600080fd5b506102536106c4565b6040805160208082528351818301528351919283929083019185019080838360005b8381101561028d578181015183820152602001610275565b50505050905090810190601f1680156102ba5780820380516001836020036101000a031916815260200191505b509250505060405180910390f35b3480156102d457600080fd5b506101686106ea565b3480156102e957600080fd5b506101686106f9565b3480156102fe57600080fd5b50610199610708565b34801561031357600080fd5b506101516004803603602081101561032a57600080fd5b50356001600160a01b031661070e565b34801561034657600080fd5b506101516004803603608081101561035d57600080fd5b506001600160a01b038135811691602081013582169160408201358116916060013516610811565b6065546001600160a01b03163314806103a857506068546001600160a01b031633145b6103e35760405162461bcd60e51b8152600401808060200182810382526031815260200180610ee96031913960400191505060405180910390fd5b565b60008282018381101561043f576040805162461bcd60e51b815260206004820152601b60248201527f536166654d6174683a206164646974696f6e206f766572666c6f770000000000604482015290519081900360640190fd5b9392505050565b61044e6108cb565b60695461045b908261093e565b606981905560408051918252517f2536de1d7bbba20957818a5226a7b6c5b54fffc650060e673fa6d8850ddd4e979181900360200190a1604080516001600160a01b03841681526020810183905281517f3b2482b1bf6e751427503c9a8bf79e4dba3e6519259e2220428c2f326cc79c14929181900390910190a16040516000906001600160a01b0384169083908381818185875af1925050503d8060008114610521576040519150601f19603f3d011682016040523d82523d6000602084013e610526565b606091505b505090508061057c576040805162461bcd60e51b815260206004820152601e60248201527f416374697665506f6f6c3a2073656e64696e672046494c206661696c65640000604482015290519081900360640190fd5b505050565b6067546001600160a01b031681565b606a5490565b61059e6108cb565b606a546105ab908261093e565b606a81905560408051918252517f13193833722dafec703db5d698ec64bbad69b90300d7ef30037df03a1412d5089181900360200190a150565b6105ed61099b565b606a546105ab90826103e5565b6066546001600160a01b031681565b6106116109f9565b6001600160a01b03166106226106b5565b6001600160a01b03161461067d576040805162461bcd60e51b815260206004820181905260248201527f4f776e61626c653a2063616c6c6572206973206e6f7420746865206f776e6572604482015290519081900360640190fd5b6033546040516000916001600160a01b031690600080516020610f1a833981519152908390a3603380546001600160a01b0319169055565b6033546001600160a01b031690565b6040518060400160405280600a8152602001691058dd1a5d99541bdbdb60b21b81525081565b6068546001600160a01b031681565b6065546001600160a01b031681565b60695490565b6107166109f9565b6001600160a01b03166107276106b5565b6001600160a01b031614610782576040805162461bcd60e51b815260206004820181905260248201527f4f776e61626c653a2063616c6c6572206973206e6f7420746865206f776e6572604482015290519081900360640190fd5b6001600160a01b0381166107c75760405162461bcd60e51b8152600401808060200182810382526026815260200180610e426026913960400191505060405180910390fd5b6033546040516001600160a01b03808416921690600080516020610f1a83398151915290600090a3603380546001600160a01b0319166001600160a01b0392909216919091179055565b600054610100900460ff168061082a575061082a6109fd565b80610838575060005460ff16155b6108735760405162461bcd60e51b815260040180806020018281038252602e815260200180610e68602e913960400191505060405180910390fd5b600054610100900460ff1615801561089e576000805460ff1961ff0019909116610100171660011790555b6108a6610a0e565b6108b285858585610ac0565b80156108c4576000805461ff00191690555b5050505050565b6065546001600160a01b03163314806108ee57506066546001600160a01b031633145b8061090357506067546001600160a01b031633145b6103e35760405162461bcd60e51b8152600401808060200182810382526053815260200180610e966053913960600191505060405180910390fd5b600082821115610995576040805162461bcd60e51b815260206004820152601e60248201527f536166654d6174683a207375627472616374696f6e206f766572666c6f770000604482015290519081900360640190fd5b50900390565b6065546001600160a01b03163314806109be57506066546001600160a01b031633145b6103e35760405162461bcd60e51b8152600401808060200182810382526041815260200180610e016041913960600191505060405180910390fd5b3390565b6000610a0830610c18565b15905090565b600054610100900460ff1680610a275750610a276109fd565b80610a35575060005460ff16155b610a705760405162461bcd60e51b815260040180806020018281038252602e815260200180610e68602e913960400191505060405180910390fd5b600054610100900460ff16158015610a9b576000805460ff1961ff0019909116610100171660011790555b610aa3610c1e565b610aab610cbe565b8015610abd576000805461ff00191690555b50565b610ac984610da5565b610ad283610da5565b610adb82610da5565b610ae481610da5565b606580546001600160a01b038087166001600160a01b031992831681179093556066805487831690841617905560678054868316908416179055606880549185169190921617905560408051918252517f3ca631ffcd2a9b5d9ae18543fc82f58eb4ca33af9e6ab01b7a8e95331e6ed9859181900360200190a1604080516001600160a01b038516815290517f143219c9e69b09e07e095fcc889b43d8f46ca892bba65f08dc3a0050869a56789181900360200190a1604080516001600160a01b038416815290517f82966d27eea39b038ee0fa30cd16532bb24f6e65d31cb58fb227aa5766cdcc7f9181900360200190a1604080516001600160a01b038316815290517f5ee0cae2f063ed938bb55046f6a932fb6ae792bf43624806bb90abe68a50be9b9181900360200190a150505050565b3b151590565b600054610100900460ff1680610c375750610c376109fd565b80610c45575060005460ff16155b610c805760405162461bcd60e51b815260040180806020018281038252602e815260200180610e68602e913960400191505060405180910390fd5b600054610100900460ff16158015610aab576000805460ff1961ff0019909116610100171660011790558015610abd576000805461ff001916905550565b600054610100900460ff1680610cd75750610cd76109fd565b80610ce5575060005460ff16155b610d205760405162461bcd60e51b815260040180806020018281038252602e815260200180610e68602e913960400191505060405180910390fd5b600054610100900460ff16158015610d4b576000805460ff1961ff0019909116610100171660011790555b6000610d556109f9565b603380546001600160a01b0319166001600160a01b03831690811790915560405191925090600090600080516020610f1a833981519152908290a3508015610abd576000805461ff001916905550565b6001600160a01b038116610abd576040805162461bcd60e51b815260206004820152601e60248201527f4163636f756e742063616e6e6f74206265207a65726f20616464726573730000604482015290519081900360640190fdfe416374697665506f6f6c3a2043616c6c6572206973206e65697468657220426f72726f7765724f7065726174696f6e73206e6f722054726f76654d616e616765724f776e61626c653a206e6577206f776e657220697320746865207a65726f2061646472657373496e697469616c697a61626c653a20636f6e747261637420697320616c726561647920696e697469616c697a6564416374697665506f6f6c3a2043616c6c6572206973206e65697468657220426f72726f7765724f7065726174696f6e73206e6f722054726f76654d616e61676572206e6f722053746162696c697479506f6f6c416374697665506f6f6c3a2043616c6c6572206973206e65697468657220424f206e6f722044656661756c7420506f6f6c8be0079c531659141344cd1fd0a4f28419497f9722a3daafe3b4186f6b6457e0a26469706673582212208b12696f8d409a3b61aefec81e98777d13e19a2bf0e5fb58fcaa5cd8db72ffa964736f6c63430007060033",
  "linkReferences": {},
  "deployedLinkReferences": {}
}