{
  "_format": "hh-sol-artifact-1",
  "contractName": "BorrowerOperations",
  "sourceName": "contracts/BorrowerOperations.sol",
  "abi": [
    {
      "inputs": [
        {
          "internalType": "uint256",
          "name": "_gasCompensation",
          "type": "uint256"
        },
        {
          "internalType": "uint256",
          "name": "_minNetDebt",
          "type": "uint256"
        }
      ],
      "stateMutability": "nonpayable",
      "type": "constructor"
    },
    {
      "anonymous": false,
      "inputs": [
        {
          "indexed": false,
          "internalType": "address",
          "name": "_activePoolAddress",
          "type": "address"
        }
      ],
      "name": "ActivePoolAddressChanged",
      "type": "event"
    },
    {
      "anonymous": false,
      "inputs": [
        {
          "indexed": false,
          "internalType": "address",
          "name": "_collSurplusPoolAddress",
          "type": "address"
        }
      ],
      "name": "CollSurplusPoolAddressChanged",
      "type": "event"
    },
    {
      "anonymous": false,
      "inputs": [
        {
          "indexed": false,
          "internalType": "address",
          "name": "_debtTokenAddress",
          "type": "address"
        }
      ],
      "name": "DebtTokenAddressChanged",
      "type": "event"
    },
    {
      "anonymous": false,
      "inputs": [
        {
          "indexed": true,
          "internalType": "address",
          "name": "_borrower",
          "type": "address"
        },
        {
          "indexed": false,
          "internalType": "uint256",
          "name": "_debtTokenFee",
          "type": "uint256"
        }
      ],
      "name": "DebtTokenBorrowingFeePaid",
      "type": "event"
    },
    {
      "anonymous": false,
      "inputs": [
        {
          "indexed": false,
          "internalType": "address",
          "name": "_defaultPoolAddress",
          "type": "address"
        }
      ],
      "name": "DefaultPoolAddressChanged",
      "type": "event"
    },
    {
      "anonymous": false,
      "inputs": [
        {
          "indexed": false,
          "internalType": "address",
          "name": "_gasPoolAddress",
          "type": "address"
        }
      ],
      "name": "GasPoolAddressChanged",
      "type": "event"
    },
    {
      "anonymous": false,
      "inputs": [
        {
          "indexed": true,
          "internalType": "address",
          "name": "previousOwner",
          "type": "address"
        },
        {
          "indexed": true,
          "internalType": "address",
          "name": "newOwner",
          "type": "address"
        }
      ],
      "name": "OwnershipTransferred",
      "type": "event"
    },
    {
      "anonymous": false,
      "inputs": [
        {
          "indexed": false,
          "internalType": "address",
          "name": "_newPriceFeedAddress",
          "type": "address"
        }
      ],
      "name": "PriceFeedAddressChanged",
      "type": "event"
    },
    {
      "anonymous": false,
      "inputs": [
        {
          "indexed": false,
          "internalType": "address",
          "name": "_protocolTokenStakingAddress",
          "type": "address"
        }
      ],
      "name": "ProtocolTokenStakingAddressChanged",
      "type": "event"
    },
    {
      "anonymous": false,
      "inputs": [
        {
          "indexed": false,
          "internalType": "address",
          "name": "_sortedTrovesAddress",
          "type": "address"
        }
      ],
      "name": "SortedTrovesAddressChanged",
      "type": "event"
    },
    {
      "anonymous": false,
      "inputs": [
        {
          "indexed": false,
          "internalType": "address",
          "name": "_stabilityPoolAddress",
          "type": "address"
        }
      ],
      "name": "StabilityPoolAddressChanged",
      "type": "event"
    },
    {
      "anonymous": false,
      "inputs": [
        {
          "indexed": true,
          "internalType": "address",
          "name": "_borrower",
          "type": "address"
        },
        {
          "indexed": false,
          "internalType": "uint256",
          "name": "arrayIndex",
          "type": "uint256"
        }
      ],
      "name": "TroveCreated",
      "type": "event"
    },
    {
      "anonymous": false,
      "inputs": [
        {
          "indexed": false,
          "internalType": "address",
          "name": "_newTroveManagerAddress",
          "type": "address"
        }
      ],
      "name": "TroveManagerAddressChanged",
      "type": "event"
    },
    {
      "anonymous": false,
      "inputs": [
        {
          "indexed": true,
          "internalType": "address",
          "name": "_borrower",
          "type": "address"
        },
        {
          "indexed": false,
          "internalType": "uint256",
          "name": "_debt",
          "type": "uint256"
        },
        {
          "indexed": false,
          "internalType": "uint256",
          "name": "_coll",
          "type": "uint256"
        },
        {
          "indexed": false,
          "internalType": "uint256",
          "name": "stake",
          "type": "uint256"
        },
        {
          "indexed": false,
          "internalType": "enum IBorrowerOperations.BorrowerOperation",
          "name": "operation",
          "type": "uint8"
        }
      ],
      "name": "TroveUpdated",
      "type": "event"
    },
    {
      "inputs": [],
      "name": "BORROWING_FEE_FLOOR",
      "outputs": [
        {
          "internalType": "uint256",
          "name": "",
          "type": "uint256"
        }
      ],
      "stateMutability": "view",
      "type": "function"
    },
    {
      "inputs": [],
      "name": "CCR",
      "outputs": [
        {
          "internalType": "uint256",
          "name": "",
          "type": "uint256"
        }
      ],
      "stateMutability": "view",
      "type": "function"
    },
    {
      "inputs": [],
      "name": "DECIMAL_PRECISION",
      "outputs": [
        {
          "internalType": "uint256",
          "name": "",
          "type": "uint256"
        }
      ],
      "stateMutability": "view",
      "type": "function"
    },
    {
      "inputs": [],
      "name": "GAS_COMPENSATION",
      "outputs": [
        {
          "internalType": "uint256",
          "name": "",
          "type": "uint256"
        }
      ],
      "stateMutability": "view",
      "type": "function"
    },
    {
      "inputs": [],
      "name": "MCR",
      "outputs": [
        {
          "internalType": "uint256",
          "name": "",
          "type": "uint256"
        }
      ],
      "stateMutability": "view",
      "type": "function"
    },
    {
      "inputs": [],
      "name": "MIN_NET_DEBT",
      "outputs": [
        {
          "internalType": "uint256",
          "name": "",
          "type": "uint256"
        }
      ],
      "stateMutability": "view",
      "type": "function"
    },
    {
      "inputs": [],
      "name": "NAME",
      "outputs": [
        {
          "internalType": "string",
          "name": "",
          "type": "string"
        }
      ],
      "stateMutability": "view",
      "type": "function"
    },
    {
      "inputs": [],
      "name": "PERCENT_DIVISOR",
      "outputs": [
        {
          "internalType": "uint256",
          "name": "",
          "type": "uint256"
        }
      ],
      "stateMutability": "view",
      "type": "function"
    },
    {
      "inputs": [],
      "name": "_100pct",
      "outputs": [
        {
          "internalType": "uint256",
          "name": "",
          "type": "uint256"
        }
      ],
      "stateMutability": "view",
      "type": "function"
    },
    {
      "inputs": [],
      "name": "activePool",
      "outputs": [
        {
          "internalType": "contract IActivePool",
          "name": "",
          "type": "address"
        }
      ],
      "stateMutability": "view",
      "type": "function"
    },
    {
      "inputs": [
        {
          "internalType": "address",
          "name": "_upperHint",
          "type": "address"
        },
        {
          "internalType": "address",
          "name": "_lowerHint",
          "type": "address"
        }
      ],
      "name": "addColl",
      "outputs": [],
      "stateMutability": "payable",
      "type": "function"
    },
    {
      "inputs": [
        {
          "internalType": "uint256",
          "name": "_maxFeePercentage",
          "type": "uint256"
        },
        {
          "internalType": "uint256",
          "name": "_collWithdrawal",
          "type": "uint256"
        },
        {
          "internalType": "uint256",
          "name": "_debtTokenChange",
          "type": "uint256"
        },
        {
          "internalType": "bool",
          "name": "_isDebtIncrease",
          "type": "bool"
        },
        {
          "internalType": "address",
          "name": "_upperHint",
          "type": "address"
        },
        {
          "internalType": "address",
          "name": "_lowerHint",
          "type": "address"
        }
      ],
      "name": "adjustTrove",
      "outputs": [],
      "stateMutability": "payable",
      "type": "function"
    },
    {
      "inputs": [],
      "name": "claimCollateral",
      "outputs": [],
      "stateMutability": "nonpayable",
      "type": "function"
    },
    {
      "inputs": [],
      "name": "closeTrove",
      "outputs": [],
      "stateMutability": "nonpayable",
      "type": "function"
    },
    {
      "inputs": [],
      "name": "collSurplusPool",
      "outputs": [
        {
          "internalType": "contract ICollSurplusPool",
          "name": "",
          "type": "address"
        }
      ],
      "stateMutability": "view",
      "type": "function"
    },
    {
      "inputs": [],
      "name": "debtToken",
      "outputs": [
        {
          "internalType": "contract IDebtToken",
          "name": "",
          "type": "address"
        }
      ],
      "stateMutability": "view",
      "type": "function"
    },
    {
      "inputs": [],
      "name": "defaultPool",
      "outputs": [
        {
          "internalType": "contract IDefaultPool",
          "name": "",
          "type": "address"
        }
      ],
      "stateMutability": "view",
      "type": "function"
    },
    {
      "inputs": [],
      "name": "gasPoolAddress",
      "outputs": [
        {
          "internalType": "address",
          "name": "",
          "type": "address"
        }
      ],
      "stateMutability": "view",
      "type": "function"
    },
    {
      "inputs": [
        {
          "internalType": "uint256",
          "name": "_debt",
          "type": "uint256"
        }
      ],
      "name": "getCompositeDebt",
      "outputs": [
        {
          "internalType": "uint256",
          "name": "",
          "type": "uint256"
        }
      ],
      "stateMutability": "view",
      "type": "function"
    },
    {
      "inputs": [],
      "name": "getEntireSystemColl",
      "outputs": [
        {
          "internalType": "uint256",
          "name": "entireSystemColl",
          "type": "uint256"
        }
      ],
      "stateMutability": "view",
      "type": "function"
    },
    {
      "inputs": [],
      "name": "getEntireSystemDebt",
      "outputs": [
        {
          "internalType": "uint256",
          "name": "entireSystemDebt",
          "type": "uint256"
        }
      ],
      "stateMutability": "view",
      "type": "function"
    },
    {
      "inputs": [
        {
          "internalType": "address",
          "name": "_troveManagerAddress",
          "type": "address"
        },
        {
          "internalType": "address",
          "name": "_activePoolAddress",
          "type": "address"
        },
        {
          "internalType": "address",
          "name": "_defaultPoolAddress",
          "type": "address"
        },
        {
          "internalType": "address",
          "name": "_stabilityPoolAddress",
          "type": "address"
        },
        {
          "internalType": "address",
          "name": "_gasPoolAddress",
          "type": "address"
        },
        {
          "internalType": "address",
          "name": "_collSurplusPoolAddress",
          "type": "address"
        },
        {
          "internalType": "address",
          "name": "_priceFeedAddress",
          "type": "address"
        },
        {
          "internalType": "address",
          "name": "_sortedTrovesAddress",
          "type": "address"
        },
        {
          "internalType": "address",
          "name": "_debtTokenAddress",
          "type": "address"
        },
        {
          "internalType": "address",
          "name": "_protocolTokenStakingAddress",
          "type": "address"
        }
      ],
      "name": "initialize",
      "outputs": [],
      "stateMutability": "nonpayable",
      "type": "function"
    },
    {
      "inputs": [
        {
          "internalType": "address",
          "name": "_borrower",
          "type": "address"
        },
        {
          "internalType": "address",
          "name": "_upperHint",
          "type": "address"
        },
        {
          "internalType": "address",
          "name": "_lowerHint",
          "type": "address"
        }
      ],
      "name": "moveFILGainToTrove",
      "outputs": [],
      "stateMutability": "payable",
      "type": "function"
    },
    {
      "inputs": [
        {
          "internalType": "uint256",
          "name": "_maxFeePercentage",
          "type": "uint256"
        },
        {
          "internalType": "uint256",
          "name": "_debtTokenAmount",
          "type": "uint256"
        },
        {
          "internalType": "address",
          "name": "_upperHint",
          "type": "address"
        },
        {
          "internalType": "address",
          "name": "_lowerHint",
          "type": "address"
        }
      ],
      "name": "openTrove",
      "outputs": [],
      "stateMutability": "payable",
      "type": "function"
    },
    {
      "inputs": [],
      "name": "owner",
      "outputs": [
        {
          "internalType": "address",
          "name": "",
          "type": "address"
        }
      ],
      "stateMutability": "view",
      "type": "function"
    },
    {
      "inputs": [],
      "name": "priceFeed",
      "outputs": [
        {
          "internalType": "contract IPriceFeed",
          "name": "",
          "type": "address"
        }
      ],
      "stateMutability": "view",
      "type": "function"
    },
    {
      "inputs": [],
      "name": "protocolTokenStaking",
      "outputs": [
        {
          "internalType": "contract IProtocolTokenStaking",
          "name": "",
          "type": "address"
        }
      ],
      "stateMutability": "view",
      "type": "function"
    },
    {
      "inputs": [],
      "name": "protocolTokenStakingAddress",
      "outputs": [
        {
          "internalType": "address",
          "name": "",
          "type": "address"
        }
      ],
      "stateMutability": "view",
      "type": "function"
    },
    {
      "inputs": [],
      "name": "renounceOwnership",
      "outputs": [],
      "stateMutability": "nonpayable",
      "type": "function"
    },
    {
      "inputs": [
        {
          "internalType": "uint256",
          "name": "_debtTokenAmount",
          "type": "uint256"
        },
        {
          "internalType": "address",
          "name": "_upperHint",
          "type": "address"
        },
        {
          "internalType": "address",
          "name": "_lowerHint",
          "type": "address"
        }
      ],
      "name": "repayDebtToken",
      "outputs": [],
      "stateMutability": "nonpayable",
      "type": "function"
    },
    {
      "inputs": [],
      "name": "sortedTroves",
      "outputs": [
        {
          "internalType": "contract ISortedTroves",
          "name": "",
          "type": "address"
        }
      ],
      "stateMutability": "view",
      "type": "function"
    },
    {
      "inputs": [],
      "name": "stabilityPoolAddress",
      "outputs": [
        {
          "internalType": "address",
          "name": "",
          "type": "address"
        }
      ],
      "stateMutability": "view",
      "type": "function"
    },
    {
      "inputs": [
        {
          "internalType": "address",
          "name": "newOwner",
          "type": "address"
        }
      ],
      "name": "transferOwnership",
      "outputs": [],
      "stateMutability": "nonpayable",
      "type": "function"
    },
    {
      "inputs": [],
      "name": "troveManager",
      "outputs": [
        {
          "internalType": "contract ITroveManager",
          "name": "",
          "type": "address"
        }
      ],
      "stateMutability": "view",
      "type": "function"
    },
    {
      "inputs": [
        {
          "internalType": "uint256",
          "name": "_collWithdrawal",
          "type": "uint256"
        },
        {
          "internalType": "address",
          "name": "_upperHint",
          "type": "address"
        },
        {
          "internalType": "address",
          "name": "_lowerHint",
          "type": "address"
        }
      ],
      "name": "withdrawColl",
      "outputs": [],
      "stateMutability": "nonpayable",
      "type": "function"
    },
    {
      "inputs": [
        {
          "internalType": "uint256",
          "name": "_maxFeePercentage",
          "type": "uint256"
        },
        {
          "internalType": "uint256",
          "name": "_debtTokenAmount",
          "type": "uint256"
        },
        {
          "internalType": "address",
          "name": "_upperHint",
          "type": "address"
        },
        {
          "internalType": "address",
          "name": "_lowerHint",
          "type": "address"
        }
      ],
      "name": "withdrawDebtToken",
      "outputs": [],
      "stateMutability": "nonpayable",
      "type": "function"
    }
  ],
  "bytecode": "0x60c060405234801561001057600080fd5b5060405161423d38038061423d8339818101604052604081101561003357600080fd5b508051602090910151608082905260a08190526141a361009a60003980610c4f52806128525280612d3b5280613a695250806109f05280610b545280610b935280610c2b5280611604528061243b52806131bb52806131e5528061399552506141a36000f3fe6080604052600436106101cf5760003560e01c8063741bef1a116100f8578063ae91875411610090578063ae9187541461059b578063c306b378146105b0578063c6a6cf201461062e578063cda775f914610676578063e54524231461068b578063f2fde38b146106a0578063f8d89898146106d3578063f92d3433146106e8578063fe9d0323146106fd576101cf565b8063741bef1a14610459578063794e57241461046e578063795d26c3146104835780637f7dde4a14610498578063860665b3146104ad578063887105d3146104e75780638da5cb5b146104fc578063a20baee614610444578063a3f4df7e14610511576101cf565b80634ff814431161016b5780634ff81443146103105780635530273c1461033a5780635733d58f1461037b57806357aae46b1461039057806362a0d799146103a557806368647db1146103ec5780636f0b0c1c1461041a578063715018a61461042f57806372fe25aa14610444576101cf565b80630802c78a146101d45780630b622ab2146102175780630e43d8ce146102485780630e704d5014610280578063139f2e8c146102955780631bf43555146102bc5780633cc74225146102d15780633d83908a146102e65780634870dd9a146102fb575b600080fd5b3480156101e057600080fd5b50610215600480360360608110156101f757600080fd5b508035906001600160a01b0360208201358116916040013516610712565b005b34801561022357600080fd5b5061022c610777565b604080516001600160a01b039092168252519081900360200190f35b6102156004803603606081101561025e57600080fd5b506001600160a01b038135811691602081013582169160409091013516610786565b34801561028c57600080fd5b506102156107a5565b3480156102a157600080fd5b506102aa610c29565b60408051918252519081900360200190f35b3480156102c857600080fd5b506102aa610c4d565b3480156102dd57600080fd5b5061022c610c71565b3480156102f257600080fd5b5061022c610c80565b34801561030757600080fd5b506102aa610c8f565b34801561031c57600080fd5b506102aa6004803603602081101561033357600080fd5b5035610c94565b34801561034657600080fd5b506102156004803603606081101561035d57600080fd5b508035906001600160a01b0360208201358116916040013516610ca5565b34801561038757600080fd5b506102aa610d00565b34801561039c57600080fd5b5061022c610d0c565b3480156103b157600080fd5b50610215600480360360808110156103c857600080fd5b508035906020810135906001600160a01b0360408201358116916060013516610d1b565b6102156004803603604081101561040257600080fd5b506001600160a01b0381358116916020013516610d82565b34801561042657600080fd5b50610215610de6565b34801561043b57600080fd5b50610215610e4c565b34801561045057600080fd5b506102aa610ef8565b34801561046557600080fd5b5061022c610f04565b34801561047a57600080fd5b506102aa610f13565b34801561048f57600080fd5b506102aa610f1f565b3480156104a457600080fd5b5061022c61101a565b610215600480360360808110156104c357600080fd5b508035906020810135906001600160a01b0360408201358116916060013516611029565b3480156104f357600080fd5b506102aa6116ca565b34801561050857600080fd5b5061022c611786565b34801561051d57600080fd5b50610526611795565b6040805160208082528351818301528351919283929083019185019080838360005b83811015610560578181015183820152602001610548565b50505050905090810190601f16801561058d5780820380516001836020036101000a031916815260200191505b509250505060405180910390f35b3480156105a757600080fd5b5061022c6117c3565b3480156105bc57600080fd5b5061021560048036036101408110156105d457600080fd5b506001600160a01b038135811691602081013582169160408201358116916060810135821691608082013581169160a081013582169160c082013581169160e08101358216916101008201358116916101200135166117d2565b610215600480360360c081101561064457600080fd5b5080359060208101359060408101359060608101351515906001600160a01b03608082013581169160a00135166118bf565b34801561068257600080fd5b5061022c611926565b34801561069757600080fd5b5061022c611935565b3480156106ac57600080fd5b50610215600480360360208110156106c357600080fd5b50356001600160a01b0316611944565b3480156106df57600080fd5b5061022c611a47565b3480156106f457600080fd5b506102aa611a56565b34801561070957600080fd5b5061022c611a61565b60026066541415610758576040805162461bcd60e51b815260206004820152601f6024820152600080516020613ca6833981519152604482015290519081900360640190fd5b600260665561076d3360008581868682611a70565b5050600160665550565b6099546001600160a01b031681565b61078e612043565b6107a083600080600086866000611a70565b505050565b600260665414156107eb576040805162461bcd60e51b815260206004820152601f6024820152600080516020613ca6833981519152604482015290519081900360640190fd5b6002606655609854600054609f546001600160a01b03928316929182169116610814833361208e565b609c5460408051630fdb11cf60e01b815290516000926001600160a01b031691630fdb11cf91600480830192602092919082900301818787803b15801561085a57600080fd5b505af115801561086e573d6000803e3d6000fd5b505050506040513d602081101561088457600080fd5b505190506108918161214a565b60408051630b07655760e01b815233600482015290516001600160a01b03861691630b07655791602480830192600092919082900301818387803b1580156108d857600080fd5b505af11580156108ec573d6000803e3d6000fd5b505050506000846001600160a01b031663480cd578336040518263ffffffff1660e01b815260040180826001600160a01b0316815260200191505060206040518083038186803b15801561093f57600080fd5b505afa158015610953573d6000803e3d6000fd5b505050506040513d602081101561096957600080fd5b50516040805163d66a255360e01b815233600482015290519192506000916001600160a01b0388169163d66a2553916024808301926020929190829003018186803b1580156109b757600080fd5b505afa1580156109cb573d6000803e3d6000fd5b505050506040513d60208110156109e157600080fd5b50519050610a198433610a14847f0000000000000000000000000000000000000000000000000000000000000000612192565b6121ef565b6000610a2a836000846000886122a6565b9050610a3581612319565b60408051631fc5750960e31b815233600482015290516001600160a01b0389169163fe2ba84891602480830192600092919082900301818387803b158015610a7c57600080fd5b505af1158015610a90573d6000803e3d6000fd5b5050604080516365e89c5760e11b815233600482015290516001600160a01b038b16935063cbd138ae9250602480830192600092919082900301818387803b158015610adb57600080fd5b505af1158015610aef573d6000803e3d6000fd5b50505050336001600160a01b0316600080516020613f3d8339815191526000806000600160405180858152602001848152602001838152602001826002811115610b3557fe5b815260200194505050505060405180910390a2610b7d868633610b78867f0000000000000000000000000000000000000000000000000000000000000000612192565b612360565b609a54610bb790879087906001600160a01b03167f0000000000000000000000000000000000000000000000000000000000000000612360565b60408051628063a560e01b81523360048201526024810185905290516001600160a01b03881691628063a591604480830192600092919082900301818387803b158015610c0357600080fd5b505af1158015610c17573d6000803e3d6000fd5b50506001606655505050505050505050565b7f000000000000000000000000000000000000000000000000000000000000000081565b7f000000000000000000000000000000000000000000000000000000000000000081565b6001546001600160a01b031681565b6098546001600160a01b031681565b60c881565b6000610c9f82612433565b92915050565b60026066541415610ceb576040805162461bcd60e51b815260206004820152601f6024820152600080516020613ca6833981519152604482015290519081900360640190fd5b600260665561076d3384600080868682611a70565b6714d1120d7b16000081565b609e546001600160a01b031681565b60026066541415610d61576040805162461bcd60e51b815260206004820152601f6024820152600080516020613ca6833981519152604482015290519081900360640190fd5b6002606655610d7733600085600186868a611a70565b505060016066555050565b60026066541415610dc8576040805162461bcd60e51b815260206004820152601f6024820152600080516020613ca6833981519152604482015290519081900360640190fd5b6002606655610ddd3360008080868682611a70565b50506001606655565b609b546040805163b32beb5b60e01b815233600482015290516001600160a01b039092169163b32beb5b9160248082019260009290919082900301818387803b158015610e3257600080fd5b505af1158015610e46573d6000803e3d6000fd5b50505050565b610e5461245f565b6001600160a01b0316610e65611786565b6001600160a01b031614610ec0576040805162461bcd60e51b815260206004820181905260248201527f4f776e61626c653a2063616c6c6572206973206e6f7420746865206f776e6572604482015290519081900360640190fd5b6034546040516000916001600160a01b031690600080516020613eef833981519152908390a3603480546001600160a01b0319169055565b670de0b6b3a764000081565b609c546001600160a01b031681565b670f43fc2c04ee000081565b60008054604080516314a6bf0f60e01b8152905183926001600160a01b0316916314a6bf0f916004808301926020929190829003018186803b158015610f6457600080fd5b505afa158015610f78573d6000803e3d6000fd5b505050506040513d6020811015610f8e57600080fd5b5051600154604080516314a6bf0f60e01b815290519293506000926001600160a01b03909216916314a6bf0f91600480820192602092909190829003018186803b158015610fdb57600080fd5b505afa158015610fef573d6000803e3d6000fd5b505050506040513d602081101561100557600080fd5b505190506110138282612463565b9250505090565b6000546001600160a01b031681565b6002606654141561106f576040805162461bcd60e51b815260206004820152601f6024820152600080516020613ca6833981519152604482015290519081900360640190fd5b600260665561107d836124c4565b604080516060810182526098546001600160a01b03908116825260005481166020830152609f5416918101919091526110b4613bf6565b609c60009054906101000a90046001600160a01b03166001600160a01b0316630fdb11cf6040518163ffffffff1660e01b8152600401602060405180830381600087803b15801561110457600080fd5b505af1158015611118573d6000803e3d6000fd5b505050506040513d602081101561112e57600080fd5b505180825260009061113f90612500565b905061114b878261251d565b825161115790336125cd565b60408201869052806111925761117783600001518460400151888a6126a0565b60208301819052604083015161118c91612463565b60408301525b61119f8260400151612850565b6111ac8260400151612433565b606083018190526111b957fe5b6111cc34836060015184600001516128af565b608083015260608201516111e19034906128e1565b60a083015280156111fe576111f98260800151612910565b611231565b61120b8260800151612957565b60006112243460018560600151600187600001516122a6565b905061122f81612319565b505b825160408051635d6b480f60e01b81523360048201526001602482015290516001600160a01b0390921691635d6b480f9160448082019260009290919082900301818387803b15801561128357600080fd5b505af1158015611297573d6000803e3d6000fd5b50508451604080516372423c1760e01b815233600482015234602482015290516001600160a01b0390921693506372423c1792506044808201926020929091908290030181600087803b1580156112ed57600080fd5b505af1158015611301573d6000803e3d6000fd5b505050506040513d602081101561131757600080fd5b50508251606083015160408051639976cf4560e01b81523360048201526024810192909252516001600160a01b0390921691639976cf45916044808201926020929091908290030181600087803b15801561137157600080fd5b505af1158015611385573d6000803e3d6000fd5b505050506040513d602081101561139b57600080fd5b50508251604080516382fe3eb960e01b815233600482015290516001600160a01b03909216916382fe3eb99160248082019260009290919082900301818387803b1580156113e857600080fd5b505af11580156113fc573d6000803e3d6000fd5b5050505082600001516001600160a01b03166318f2817a336040518263ffffffff1660e01b815260040180826001600160a01b03168152602001915050602060405180830381600087803b15801561145357600080fd5b505af1158015611467573d6000803e3d6000fd5b505050506040513d602081101561147d57600080fd5b505160c083015260a0805490830151604080516346f7cf8760e01b815233600482015260248101929092526001600160a01b038881166044840152878116606484015290519216916346f7cf879160848082019260009290919082900301818387803b1580156114ec57600080fd5b505af1158015611500573d6000803e3d6000fd5b5050505082600001516001600160a01b03166315d549f1336040518263ffffffff1660e01b815260040180826001600160a01b03168152602001915050602060405180830381600087803b15801561155757600080fd5b505af115801561156b573d6000803e3d6000fd5b505050506040513d602081101561158157600080fd5b505160e08301819052604080519182525133917f59cfd0cd754bc5748b6770e94a4ffa5f678d885cb899dcfadc5734edb97c67ab919081900360200190a26115cd83602001513461299e565b6115e68360200151846040015133898660400151612a2e565b60208301516040840151609a546116299291906001600160a01b03167f000000000000000000000000000000000000000000000000000000000000000080612a2e565b336001600160a01b0316600080516020613f3d8339815191528360600151348560c0015160006040518085815260200184815260200183815260200182600281111561167157fe5b815260200194505050505060405180910390a2602080830151604080519182525133927fefe9137e0c60d14b7f57a84d5b68f55a648dd9fa7b01747d4ec305a3c8974c01928290030190a2505060016066555050505050565b60008054604080516362e1c9bf60e11b8152905183926001600160a01b03169163c5c3937e916004808301926020929190829003018186803b15801561170f57600080fd5b505afa158015611723573d6000803e3d6000fd5b505050506040513d602081101561173957600080fd5b5051600154604080516362e1c9bf60e11b815290519293506000926001600160a01b039092169163c5c3937e91600480820192602092909190829003018186803b158015610fdb57600080fd5b6034546001600160a01b031690565b60405180604001604052806012815260200171426f72726f7765724f7065726174696f6e7360701b81525081565b60a0546001600160a01b031681565b600154600160a81b900460ff16806117ed57506117ed612b02565b806118025750600154600160a01b900460ff16155b61183d5760405162461bcd60e51b815260040180806020018281038252602e815260200180613ddf602e913960400191505060405180910390fd5b600154600160a81b900460ff16158015611874576001805460ff60a01b1960ff60a81b19909116600160a81b1716600160a01b1790555b61187c612b13565b611884612bdb565b61188e8a8a612c85565b61189e8b89898989898989612d37565b80156118b2576001805460ff60a81b191690555b5050505050505050505050565b60026066541415611905576040805162461bcd60e51b815260206004820152601f6024820152600080516020613ca6833981519152604482015290519081900360640190fd5b60026066556119193386868686868c611a70565b5050600160665550505050565b609b546001600160a01b031681565b609d546001600160a01b031681565b61194c61245f565b6001600160a01b031661195d611786565b6001600160a01b0316146119b8576040805162461bcd60e51b815260206004820181905260248201527f4f776e61626c653a2063616c6c6572206973206e6f7420746865206f776e6572604482015290519081900360640190fd5b6001600160a01b0381166119fd5760405162461bcd60e51b8152600401808060200182810382526026815260200180613cc66026913960400191505060405180910390fd5b6034546040516001600160a01b03808416921690600080516020613eef83398151915290600090a3603480546001600160a01b0319166001600160a01b0392909216919091179055565b609f546001600160a01b031681565b6611c37937e0800081565b609a546001600160a01b031681565b604080516060810182526098546001600160a01b03908116825260005481166020830152609f541691810191909152611aa7613c3b565b609c60009054906101000a90046001600160a01b03166001600160a01b0316630fdb11cf6040518163ffffffff1660e01b8152600401602060405180830381600087803b158015611af757600080fd5b505af1158015611b0b573d6000803e3d6000fd5b505050506040513d6020811015611b2157600080fd5b5051808252600090611b3290612500565b90508615611b4d57611b44848261251d565b611b4d88613016565b611b5689613055565b611b60898961309b565b8251611b6c908b61208e565b336001600160a01b038b161480611ba257506099546001600160a01b031633148015611b985750600034115b8015611ba2575087155b611ba857fe5b82600001516001600160a01b0316630b0765578b6040518263ffffffff1660e01b815260040180826001600160a01b03168152602001915050600060405180830381600087803b158015611bfb57600080fd5b505af1158015611c0f573d6000803e3d6000fd5b50505050611c1d348a6130ed565b15156060840152602083015260408201889052868015611c3b575080155b15611c7057611c54836000015184604001518a876126a0565b61012083018190526040830151611c6a91612463565b60408301525b82600001516001600160a01b031663d66a25538b6040518263ffffffff1660e01b815260040180826001600160a01b0316815260200191505060206040518083038186803b158015611cc157600080fd5b505afa158015611cd5573d6000803e3d6000fd5b505050506040513d6020811015611ceb57600080fd5b505160808301528251604080516309019aaf60e31b81526001600160a01b038d811660048301529151919092169163480cd578916024808301926020929190829003018186803b158015611d3e57600080fd5b505afa158015611d52573d6000803e3d6000fd5b505050506040513d6020811015611d6857600080fd5b505160a0830181905260808301518351611d839291906128af565b8260c0018181525050611db38260a0015183608001518460200151856060015186604001518c886000015161310c565b60e083015260a0820151891115611dc657fe5b611dd2818a898561313f565b86158015611de05750600088115b15611e2d57611e08611e038360400151611dfd85608001516131b3565b90612192565b612850565b611e1a826080015183604001516131df565b611e2d83604001518b84604001516121ef565b611e4b83600001518b8460200151856060015186604001518c613247565b610140840152610160830152825160408051630c7940bd60e11b81526001600160a01b038d81166004830152915191909216916318f2817a9160248083019260209291908290030181600087803b158015611ea557600080fd5b505af1158015611eb9573d6000803e3d6000fd5b505050506040513d6020811015611ecf57600080fd5b505161018083015260a08201516080830151602084015160608501516040860151600094611f03949093909290918d613483565b60a0546040805163015f109360e51b81526001600160a01b038f81166004830152602482018590528b811660448301528a811660648301529151939450911691632be212609160848082019260009290919082900301818387803b158015611f6a57600080fd5b505af1158015611f7e573d6000803e3d6000fd5b505050508a6001600160a01b0316600080516020613f3d833981519152846101400151856101600151866101800151600260405180858152602001848152602001838152602001826002811115611fd157fe5b815260200194505050505060405180910390a2610120830151604080519182525133917fefe9137e0c60d14b7f57a84d5b68f55a648dd9fa7b01747d4ec305a3c8974c01919081900360200190a26118b28460200151856040015133866020015187606001518e8e8a604001516134b4565b6099546001600160a01b0316331461208c5760405162461bcd60e51b81526004018080602001828103825260298152602001806140a06029913960400191505060405180910390fd5b565b6000826001600160a01b03166321e37801836040518263ffffffff1660e01b815260040180826001600160a01b0316815260200191505060206040518083038186803b1580156120dd57600080fd5b505afa1580156120f1573d6000803e3d6000fd5b505050506040513d602081101561210757600080fd5b50519050600181146107a05760405162461bcd60e51b815260040180806020018281038252602e815260200180613f0f602e913960400191505060405180910390fd5b61215381612500565b1561218f5760405162461bcd60e51b8152600401808060200182810382526039815260200180613d6f6039913960400191505060405180910390fd5b50565b6000828211156121e9576040805162461bcd60e51b815260206004820152601e60248201527f536166654d6174683a207375627472616374696f6e206f766572666c6f770000604482015290519081900360640190fd5b50900390565b80836001600160a01b03166370a08231846040518263ffffffff1660e01b815260040180826001600160a01b0316815260200191505060206040518083038186803b15801561223d57600080fd5b505afa158015612251573d6000803e3d6000fd5b505050506040513d602081101561226757600080fd5b505110156107a05760405162461bcd60e51b815260040180806020018281038252603f815260200180613f9b603f913960400191505060405180910390fd5b6000806122b16116ca565b905060006122bd610f1f565b9050866122d3576122ce8289612192565b6122dd565b6122dd8289612463565b9150846122f3576122ee8187612192565b6122fd565b6122fd8187612463565b9050600061230c8383876128af565b9998505050505050505050565b6714d1120d7b16000081101561218f5760405162461bcd60e51b8152600401808060200182810382526049815260200180613ea66049913960600191505060405180910390fd5b836001600160a01b0316632a7ba1f7826040518263ffffffff1660e01b815260040180828152602001915050600060405180830381600087803b1580156123a657600080fd5b505af11580156123ba573d6000803e3d6000fd5b50505050826001600160a01b0316639dc29fac83836040518363ffffffff1660e01b815260040180836001600160a01b0316815260200182815260200192505050600060405180830381600087803b15801561241557600080fd5b505af1158015612429573d6000803e3d6000fd5b5050505050505050565b6000610c9f827f0000000000000000000000000000000000000000000000000000000000000000612463565b3390565b6000828201838110156124bd576040805162461bcd60e51b815260206004820152601b60248201527f536166654d6174683a206164646974696f6e206f766572666c6f770000000000604482015290519081900360640190fd5b9392505050565b8061218f5760405162461bcd60e51b815260040180806020018281038252602d815260200180613d19602d913960400191505060405180910390fd5b60008061250c83613565565b6714d1120d7b160000119392505050565b801561256f57670de0b6b3a764000082111561256a5760405162461bcd60e51b8152600401808060200182810382526032815260200180613e0d6032913960400191505060405180910390fd5b6125c9565b6611c37937e08000821080159061258e5750670de0b6b3a76400008211155b6125c95760405162461bcd60e51b81526004018080602001828103825260308152602001806140c96030913960400191505060405180910390fd5b5050565b6000826001600160a01b03166321e37801836040518263ffffffff1660e01b815260040180826001600160a01b0316815260200191505060206040518083038186803b15801561261c57600080fd5b505afa158015612630573d6000803e3d6000fd5b505050506040513d602081101561264657600080fd5b5051905060018114156107a0576040805162461bcd60e51b815260206004820152601c60248201527f426f72726f7765724f70733a2054726f76652069732061637469766500000000604482015290519081900360640190fd5b6000846001600160a01b0316635dba4c4a6040518163ffffffff1660e01b8152600401600060405180830381600087803b1580156126dd57600080fd5b505af11580156126f1573d6000803e3d6000fd5b505050506000856001600160a01b031663631203b0856040518263ffffffff1660e01b81526004018082815260200191505060206040518083038186803b15801561273b57600080fd5b505afa15801561274f573d6000803e3d6000fd5b505050506040513d602081101561276557600080fd5b50519050612774818585613591565b609d54604080516358caad6960e11b81526004810184905290516001600160a01b039092169163b1955ad29160248082019260009290919082900301818387803b1580156127c157600080fd5b505af11580156127d5573d6000803e3d6000fd5b5050609e54604080516340c10f1960e01b81526001600160a01b03928316600482015260248101869052905191891693506340c10f19925060448082019260009290919082900301818387803b15801561282e57600080fd5b505af1158015612842573d6000803e3d6000fd5b509298975050505050505050565b7f000000000000000000000000000000000000000000000000000000000000000081101561218f5760405162461bcd60e51b815260040180806020018281038252603a815260200180614023603a913960400191505060405180910390fd5b600082156128d65760006128cd846128c78786613600565b90613659565b91506124bd9050565b506000199392505050565b6000811561290757612900826128c78568056bc75e2d63100000613600565b9050610c9f565b50600019610c9f565b6714d1120d7b16000081101561218f5760405162461bcd60e51b8152600401808060200182810382526037815260200180613da86037913960400191505060405180910390fd5b670f43fc2c04ee000081101561218f5760405162461bcd60e51b8152600401808060200182810382526049815260200180613fda6049913960600191505060405180910390fd5b6040516000906001600160a01b0384169083908381818185875af1925050503d80600081146129e9576040519150601f19603f3d011682016040523d82523d6000602084013e6129ee565b606091505b50509050806107a05760405162461bcd60e51b815260040180806020018281038252602d815260200180613cec602d913960400191505060405180910390fd5b846001600160a01b0316632b7c7b11826040518263ffffffff1660e01b815260040180828152602001915050600060405180830381600087803b158015612a7457600080fd5b505af1158015612a88573d6000803e3d6000fd5b50505050836001600160a01b03166340c10f1984846040518363ffffffff1660e01b815260040180836001600160a01b0316815260200182815260200192505050600060405180830381600087803b158015612ae357600080fd5b505af1158015612af7573d6000803e3d6000fd5b505050505050505050565b6000612b0d306136c0565b15905090565b600154600160a81b900460ff1680612b2e5750612b2e612b02565b80612b435750600154600160a01b900460ff16155b612b7e5760405162461bcd60e51b815260040180806020018281038252602e815260200180613ddf602e913960400191505060405180910390fd5b600154600160a81b900460ff16158015612bb5576001805460ff60a01b1960ff60a81b19909116600160a81b1716600160a01b1790555b612bbd6136c6565b612bc561377d565b801561218f576001805460ff60a81b1916905550565b600154600160a81b900460ff1680612bf65750612bf6612b02565b80612c0b5750600154600160a01b900460ff16155b612c465760405162461bcd60e51b815260040180806020018281038252602e815260200180613ddf602e913960400191505060405180910390fd5b600154600160a81b900460ff16158015612c7d576001805460ff60a01b1960ff60a81b19909116600160a81b1716600160a01b1790555b612bc561387b565b612c8e82613938565b612c9781613938565b600080546001600160a01b038085166001600160a01b03199283168117909355600180549185169190921617905560408051918252517f78f058b189175430c48dc02699e3a0031ea4ff781536dc2fab847de4babdd8829181900360200190a1604080516001600160a01b038316815290517f5ee0cae2f063ed938bb55046f6a932fb6ae792bf43624806bb90abe68a50be9b9181900360200190a15050565b60007f000000000000000000000000000000000000000000000000000000000000000011612d6157fe5b612d6a88613938565b612d7387613938565b612d7c86613938565b612d8585613938565b612d8e84613938565b612d9783613938565b612da082613938565b612da981613938565b612db288613993565b609880546001600160a01b03199081166001600160a01b038b81169182179093556099805483168b8516179055609a805483168a8516179055609b80548316898516179055609c8054831688851617905560a080548316878516179055609f80548316868516179055609e805483169385169384179055609d8054909216909217905560408051918252517f143219c9e69b09e07e095fcc889b43d8f46ca892bba65f08dc3a0050869a5678916020908290030190a1604080516001600160a01b038916815290517f82966d27eea39b038ee0fa30cd16532bb24f6e65d31cb58fb227aa5766cdcc7f9181900360200190a1604080516001600160a01b038816815290517fcfb07d791fcafc032b35837b50eb84b74df518cf4cc287e8084f47630fa70fa09181900360200190a1604080516001600160a01b038716815290517fe67f36a6e961157d6eff83b91f3af5a62131ceb6f04954ef74f51c1c05e7f88d9181900360200190a1604080516001600160a01b038616815290517f8c537274438aa850a330284665d81a85dd38267d09e4050d416bfc94142db2649181900360200190a1604080516001600160a01b038516815290517f65f4cf077bc01e4742eb5ad98326f6e95b63548ea24b17f8d5e823111fe788009181900360200190a1604080516001600160a01b038416815290517f112220fa8dbe96141556e0dc3d74dd95075b323f4f297616048e02d82d7017159181900360200190a1604080516001600160a01b038316815290517ff81a824d1d9030c0365252fb96daf0565f9c2007c88e13001379dda7f06d5d5c9181900360200190a15050505050505050565b6000811161218f5760405162461bcd60e51b81526004018080602001828103825260378152602001806140f96037913960400191505060405180910390fd5b341580613060575080155b61218f5760405162461bcd60e51b8152600401808060200182810382526029815260200180613d466029913960400191505060405180910390fd5b341515806130a857508115155b806130b257508015155b6125c95760405162461bcd60e51b8152600401808060200182810382526046815260200180613e3f6046913960600191505060405180910390fd5b600080831561310157508290506001613105565b8291505b9250929050565b600080600061311f8a8a8a8a8a8a613b37565b9150915060006131308383876128af565b9b9a5050505050505050505050565b83156131785761314e83613b7a565b8115613173576131618160e00151612910565b6131738160e001518260c00151613bb7565b610e46565b6131858160e00151612957565b6131a28160200151826060015183604001518585600001516122a6565b6101008201819052610e4690612319565b6000610c9f827f0000000000000000000000000000000000000000000000000000000000000000612192565b613209827f0000000000000000000000000000000000000000000000000000000000000000612192565b8111156125c95760405162461bcd60e51b815260040180806020018281038252604381526020018061405d6043913960600191505060405180910390fd5b6000806000856132d957886001600160a01b031663d3d6f84389896040518363ffffffff1660e01b815260040180836001600160a01b0316815260200182815260200192505050602060405180830381600087803b1580156132a857600080fd5b505af11580156132bc573d6000803e3d6000fd5b505050506040513d60208110156132d257600080fd5b505161335d565b886001600160a01b03166372423c1789896040518363ffffffff1660e01b815260040180836001600160a01b0316815260200182815260200192505050602060405180830381600087803b15801561333057600080fd5b505af1158015613344573d6000803e3d6000fd5b505050506040513d602081101561335a57600080fd5b50515b90506000846133ee57896001600160a01b03166312610e928a886040518363ffffffff1660e01b815260040180836001600160a01b0316815260200182815260200192505050602060405180830381600087803b1580156133bd57600080fd5b505af11580156133d1573d6000803e3d6000fd5b505050506040513d60208110156133e757600080fd5b5051613472565b896001600160a01b0316639976cf458a886040518363ffffffff1660e01b815260040180836001600160a01b0316815260200182815260200192505050602060405180830381600087803b15801561344557600080fd5b505af1158015613459573d6000803e3d6000fd5b505050506040513d602081101561346f57600080fd5b50515b919a91995090975050505050505050565b6000806000613496898989898989613b37565b9150915060006134a683836128e1565b9a9950505050505050505050565b81156134cc576134c78888888685612a2e565b6134d8565b6134d888888886612360565b83156134ed576134e8888661299e565b612429565b876001600160a01b0316628063a587876040518363ffffffff1660e01b815260040180836001600160a01b0316815260200182815260200192505050600060405180830381600087803b15801561354357600080fd5b505af1158015613557573d6000803e3d6000fd5b505050505050505050505050565b6000806135706116ca565b9050600061357c610f1f565b90506135898282866128af565b949350505050565b60006135a9836128c786670de0b6b3a7640000613600565b905081811115610e46576040805162461bcd60e51b815260206004820152601d60248201527f4665652065786365656465642070726f7669646564206d6178696d756d000000604482015290519081900360640190fd5b60008261360f57506000610c9f565b8282028284828161361c57fe5b04146124bd5760405162461bcd60e51b8152600401808060200182810382526021815260200180613e856021913960400191505060405180910390fd5b60008082116136af576040805162461bcd60e51b815260206004820152601a60248201527f536166654d6174683a206469766973696f6e206279207a65726f000000000000604482015290519081900360640190fd5b8183816136b857fe5b049392505050565b3b151590565b600154600160a81b900460ff16806136e157506136e1612b02565b806136f65750600154600160a01b900460ff16155b6137315760405162461bcd60e51b815260040180806020018281038252602e815260200180613ddf602e913960400191505060405180910390fd5b600154600160a81b900460ff16158015612bc5576001805460ff60a01b1960ff60a81b19909116600160a81b1716600160a01b179055801561218f576001805460ff60a81b1916905550565b600154600160a81b900460ff16806137985750613798612b02565b806137ad5750600154600160a01b900460ff16155b6137e85760405162461bcd60e51b815260040180806020018281038252602e815260200180613ddf602e913960400191505060405180910390fd5b600154600160a81b900460ff1615801561381f576001805460ff60a01b1960ff60a81b19909116600160a81b1716600160a01b1790555b600061382961245f565b603480546001600160a01b0319166001600160a01b03831690811790915560405191925090600090600080516020613eef833981519152908290a350801561218f576001805460ff60a81b1916905550565b600154600160a81b900460ff16806138965750613896612b02565b806138ab5750600154600160a01b900460ff16155b6138e65760405162461bcd60e51b815260040180806020018281038252602e815260200180613ddf602e913960400191505060405180910390fd5b600154600160a81b900460ff1615801561391d576001805460ff60a01b1960ff60a81b19909116600160a81b1716600160a01b1790555b6001606655801561218f576001805460ff60a81b1916905550565b6001600160a01b03811661218f576040805162461bcd60e51b815260206004820152601e60248201527f4163636f756e742063616e6e6f74206265207a65726f20616464726573730000604482015290519081900360640190fd5b7f0000000000000000000000000000000000000000000000000000000000000000816001600160a01b031663139f2e8c6040518163ffffffff1660e01b815260040160206040518083038186803b1580156139ed57600080fd5b505afa158015613a01573d6000803e3d6000fd5b505050506040513d6020811015613a1757600080fd5b505114613a67576040805162461bcd60e51b815260206004820152601960248201527808e82a6be869e9aa08a9ca682a8929e9c40dad2e6dac2e8c6d603b1b604482015290519081900360640190fd5b7f0000000000000000000000000000000000000000000000000000000000000000816001600160a01b0316631bf435556040518163ffffffff1660e01b815260040160206040518083038186803b158015613ac157600080fd5b505afa158015613ad5573d6000803e3d6000fd5b505050506040513d6020811015613aeb57600080fd5b50511461218f576040805162461bcd60e51b815260206004820152601560248201527409a929cbe9c8aa8be888a84a840dad2e6dac2e8c6d605b1b604482015290519081900360640190fd5b600080878786613b5057613b4b8a89612192565b613b5a565b613b5a8a89612463565b915084613b7057613b6b8987612192565b613472565b6134728987612463565b801561218f5760405162461bcd60e51b815260040180806020018281038252603e815260200180613f5d603e913960400191505060405180910390fd5b808210156125c95760405162461bcd60e51b815260040180806020018281038252603e815260200180614130603e913960400191505060405180910390fd5b60405180610100016040528060008152602001600081526020016000815260200160008152602001600081526020016000815260200160008152602001600081525090565b604051806101a00160405280600081526020016000815260200160008152602001600015158152602001600081526020016000815260200160008152602001600081526020016000815260200160008152602001600081526020016000815260200160008152509056fe5265656e7472616e637947756172643a207265656e7472616e742063616c6c004f776e61626c653a206e6577206f776e657220697320746865207a65726f2061646472657373426f72726f7765724f70733a2053656e64696e672046494c20746f20416374697665506f6f6c206661696c6564426f72726f7765724f70733a20416d6f756e74206d7573742062652067726561746572207468616e207a65726f426f72726f7765724f70733a2043616e6e6f7420776974686472617720616e642061646420636f6c6c426f72726f7765724f70733a204f7065726174696f6e206e6f74207065726d697474656420647572696e67205265636f76657279204d6f6465426f72726f7765724f70733a204f7065726174696f6e206d757374206c656176652074726f7665207769746820494352203e3d20434352496e697469616c697a61626c653a20636f6e747261637420697320616c726561647920696e697469616c697a65644d6178206665652070657263656e74616765206d757374206c657373207468616e206f7220657175616c20746f2031303025426f72726f7765724f70733a205468657265206d75737420626520656974686572206120636f6c6c61746572616c206368616e6765206f7220612064656274206368616e6765536166654d6174683a206d756c7469706c69636174696f6e206f766572666c6f77426f72726f7765724f70733a20416e206f7065726174696f6e207468617420776f756c6420726573756c7420696e20544352203c20434352206973206e6f74207065726d69747465648be0079c531659141344cd1fd0a4f28419497f9722a3daafe3b4186f6b6457e0426f72726f7765724f70733a2054726f766520646f6573206e6f74206578697374206f7220697320636c6f736564c3770d654ed33aeea6bf11ac8ef05d02a6a04ed4686dd2f624d853bbec43cc8b426f72726f7765724f70733a20436f6c6c61746572616c207769746864726177616c206e6f74207065726d6974746564205265636f76657279204d6f6465426f72726f7765724f70733a2043616c6c657220646f65736e74206861766520656e6f75676820746f6b656e7320746f206d616b652072657061796d656e74426f72726f7765724f70733a20416e206f7065726174696f6e207468617420776f756c6420726573756c7420696e20494352203c204d4352206973206e6f74207065726d6974746564426f72726f7765724f70733a2054726f76652773206e65742064656274206d7573742062652067726561746572207468616e206d696e696d756d426f72726f7765724f70733a20416d6f756e7420726570616964206d757374206e6f74206265206c6172676572207468616e207468652054726f766527732064656274426f72726f7765724f70733a2043616c6c6572206973206e6f742053746162696c69747920506f6f6c4d6178206665652070657263656e74616765206d757374206265206265747765656e20302e352520616e642031303025426f72726f7765724f70733a204465627420696e637265617365207265717569726573206e6f6e2d7a65726f20646562744368616e6765426f72726f7765724f70733a2043616e6e6f7420646563726561736520796f75722054726f766527732049435220696e205265636f76657279204d6f6465a2646970667358221220d574325d771a9983f579637eeec8642f4ba37c2401202d934d01f1839d0c08f864736f6c63430007060033",
  "linkReferences": {},
  "deployedLinkReferences": {}
}