{
  "_format": "hh-sol-artifact-1",
  "contractName": "BorrowerOperationsTester",
  "sourceName": "contracts/TestContracts/BorrowerOperationsTester.sol",
  "abi": [
    {
      "inputs": [
        {
          "internalType": "uint256",
          "name": "_gasCompensation",
          "type": "uint256"
        },
        {
          "internalType": "uint256",
          "name": "_minNetDebt",
          "type": "uint256"
        }
      ],
      "stateMutability": "nonpayable",
      "type": "constructor"
    },
    {
      "anonymous": false,
      "inputs": [
        {
          "indexed": false,
          "internalType": "address",
          "name": "_activePoolAddress",
          "type": "address"
        }
      ],
      "name": "ActivePoolAddressChanged",
      "type": "event"
    },
    {
      "anonymous": false,
      "inputs": [
        {
          "indexed": false,
          "internalType": "address",
          "name": "_collSurplusPoolAddress",
          "type": "address"
        }
      ],
      "name": "CollSurplusPoolAddressChanged",
      "type": "event"
    },
    {
      "anonymous": false,
      "inputs": [
        {
          "indexed": false,
          "internalType": "address",
          "name": "_debtTokenAddress",
          "type": "address"
        }
      ],
      "name": "DebtTokenAddressChanged",
      "type": "event"
    },
    {
      "anonymous": false,
      "inputs": [
        {
          "indexed": true,
          "internalType": "address",
          "name": "_borrower",
          "type": "address"
        },
        {
          "indexed": false,
          "internalType": "uint256",
          "name": "_debtTokenFee",
          "type": "uint256"
        }
      ],
      "name": "DebtTokenBorrowingFeePaid",
      "type": "event"
    },
    {
      "anonymous": false,
      "inputs": [
        {
          "indexed": false,
          "internalType": "address",
          "name": "_defaultPoolAddress",
          "type": "address"
        }
      ],
      "name": "DefaultPoolAddressChanged",
      "type": "event"
    },
    {
      "anonymous": false,
      "inputs": [
        {
          "indexed": false,
          "internalType": "address",
          "name": "_gasPoolAddress",
          "type": "address"
        }
      ],
      "name": "GasPoolAddressChanged",
      "type": "event"
    },
    {
      "anonymous": false,
      "inputs": [
        {
          "indexed": true,
          "internalType": "address",
          "name": "previousOwner",
          "type": "address"
        },
        {
          "indexed": true,
          "internalType": "address",
          "name": "newOwner",
          "type": "address"
        }
      ],
      "name": "OwnershipTransferred",
      "type": "event"
    },
    {
      "anonymous": false,
      "inputs": [
        {
          "indexed": false,
          "internalType": "address",
          "name": "_newPriceFeedAddress",
          "type": "address"
        }
      ],
      "name": "PriceFeedAddressChanged",
      "type": "event"
    },
    {
      "anonymous": false,
      "inputs": [
        {
          "indexed": false,
          "internalType": "address",
          "name": "_protocolTokenStakingAddress",
          "type": "address"
        }
      ],
      "name": "ProtocolTokenStakingAddressChanged",
      "type": "event"
    },
    {
      "anonymous": false,
      "inputs": [
        {
          "indexed": false,
          "internalType": "address",
          "name": "_sortedTrovesAddress",
          "type": "address"
        }
      ],
      "name": "SortedTrovesAddressChanged",
      "type": "event"
    },
    {
      "anonymous": false,
      "inputs": [
        {
          "indexed": false,
          "internalType": "address",
          "name": "_stabilityPoolAddress",
          "type": "address"
        }
      ],
      "name": "StabilityPoolAddressChanged",
      "type": "event"
    },
    {
      "anonymous": false,
      "inputs": [
        {
          "indexed": true,
          "internalType": "address",
          "name": "_borrower",
          "type": "address"
        },
        {
          "indexed": false,
          "internalType": "uint256",
          "name": "arrayIndex",
          "type": "uint256"
        }
      ],
      "name": "TroveCreated",
      "type": "event"
    },
    {
      "anonymous": false,
      "inputs": [
        {
          "indexed": false,
          "internalType": "address",
          "name": "_newTroveManagerAddress",
          "type": "address"
        }
      ],
      "name": "TroveManagerAddressChanged",
      "type": "event"
    },
    {
      "anonymous": false,
      "inputs": [
        {
          "indexed": true,
          "internalType": "address",
          "name": "_borrower",
          "type": "address"
        },
        {
          "indexed": false,
          "internalType": "uint256",
          "name": "_debt",
          "type": "uint256"
        },
        {
          "indexed": false,
          "internalType": "uint256",
          "name": "_coll",
          "type": "uint256"
        },
        {
          "indexed": false,
          "internalType": "uint256",
          "name": "stake",
          "type": "uint256"
        },
        {
          "indexed": false,
          "internalType": "enum IBorrowerOperations.BorrowerOperation",
          "name": "operation",
          "type": "uint8"
        }
      ],
      "name": "TroveUpdated",
      "type": "event"
    },
    {
      "inputs": [],
      "name": "BORROWING_FEE_FLOOR",
      "outputs": [
        {
          "internalType": "uint256",
          "name": "",
          "type": "uint256"
        }
      ],
      "stateMutability": "view",
      "type": "function"
    },
    {
      "inputs": [],
      "name": "CCR",
      "outputs": [
        {
          "internalType": "uint256",
          "name": "",
          "type": "uint256"
        }
      ],
      "stateMutability": "view",
      "type": "function"
    },
    {
      "inputs": [],
      "name": "DECIMAL_PRECISION",
      "outputs": [
        {
          "internalType": "uint256",
          "name": "",
          "type": "uint256"
        }
      ],
      "stateMutability": "view",
      "type": "function"
    },
    {
      "inputs": [],
      "name": "GAS_COMPENSATION",
      "outputs": [
        {
          "internalType": "uint256",
          "name": "",
          "type": "uint256"
        }
      ],
      "stateMutability": "view",
      "type": "function"
    },
    {
      "inputs": [],
      "name": "MCR",
      "outputs": [
        {
          "internalType": "uint256",
          "name": "",
          "type": "uint256"
        }
      ],
      "stateMutability": "view",
      "type": "function"
    },
    {
      "inputs": [],
      "name": "MIN_NET_DEBT",
      "outputs": [
        {
          "internalType": "uint256",
          "name": "",
          "type": "uint256"
        }
      ],
      "stateMutability": "view",
      "type": "function"
    },
    {
      "inputs": [],
      "name": "NAME",
      "outputs": [
        {
          "internalType": "string",
          "name": "",
          "type": "string"
        }
      ],
      "stateMutability": "view",
      "type": "function"
    },
    {
      "inputs": [],
      "name": "PERCENT_DIVISOR",
      "outputs": [
        {
          "internalType": "uint256",
          "name": "",
          "type": "uint256"
        }
      ],
      "stateMutability": "view",
      "type": "function"
    },
    {
      "inputs": [],
      "name": "_100pct",
      "outputs": [
        {
          "internalType": "uint256",
          "name": "",
          "type": "uint256"
        }
      ],
      "stateMutability": "view",
      "type": "function"
    },
    {
      "inputs": [],
      "name": "activePool",
      "outputs": [
        {
          "internalType": "contract IActivePool",
          "name": "",
          "type": "address"
        }
      ],
      "stateMutability": "view",
      "type": "function"
    },
    {
      "inputs": [
        {
          "internalType": "address",
          "name": "_upperHint",
          "type": "address"
        },
        {
          "internalType": "address",
          "name": "_lowerHint",
          "type": "address"
        }
      ],
      "name": "addColl",
      "outputs": [],
      "stateMutability": "payable",
      "type": "function"
    },
    {
      "inputs": [
        {
          "internalType": "uint256",
          "name": "_maxFeePercentage",
          "type": "uint256"
        },
        {
          "internalType": "uint256",
          "name": "_collWithdrawal",
          "type": "uint256"
        },
        {
          "internalType": "uint256",
          "name": "_debtTokenChange",
          "type": "uint256"
        },
        {
          "internalType": "bool",
          "name": "_isDebtIncrease",
          "type": "bool"
        },
        {
          "internalType": "address",
          "name": "_upperHint",
          "type": "address"
        },
        {
          "internalType": "address",
          "name": "_lowerHint",
          "type": "address"
        }
      ],
      "name": "adjustTrove",
      "outputs": [],
      "stateMutability": "payable",
      "type": "function"
    },
    {
      "inputs": [
        {
          "internalType": "address",
          "name": "_borrower",
          "type": "address"
        },
        {
          "internalType": "uint256",
          "name": "_collWithdrawal",
          "type": "uint256"
        },
        {
          "internalType": "uint256",
          "name": "_debtChange",
          "type": "uint256"
        },
        {
          "internalType": "bool",
          "name": "_isDebtIncrease",
          "type": "bool"
        },
        {
          "internalType": "address",
          "name": "_upperHint",
          "type": "address"
        },
        {
          "internalType": "address",
          "name": "_lowerHint",
          "type": "address"
        }
      ],
      "name": "callInternalAdjustLoan",
      "outputs": [],
      "stateMutability": "nonpayable",
      "type": "function"
    },
    {
      "inputs": [],
      "name": "claimCollateral",
      "outputs": [],
      "stateMutability": "nonpayable",
      "type": "function"
    },
    {
      "inputs": [],
      "name": "closeTrove",
      "outputs": [],
      "stateMutability": "nonpayable",
      "type": "function"
    },
    {
      "inputs": [],
      "name": "debtToken",
      "outputs": [
        {
          "internalType": "contract IDebtToken",
          "name": "",
          "type": "address"
        }
      ],
      "stateMutability": "view",
      "type": "function"
    },
    {
      "inputs": [],
      "name": "defaultPool",
      "outputs": [
        {
          "internalType": "contract IDefaultPool",
          "name": "",
          "type": "address"
        }
      ],
      "stateMutability": "view",
      "type": "function"
    },
    {
      "inputs": [
        {
          "internalType": "uint256",
          "name": "_debt",
          "type": "uint256"
        }
      ],
      "name": "getCompositeDebt",
      "outputs": [
        {
          "internalType": "uint256",
          "name": "",
          "type": "uint256"
        }
      ],
      "stateMutability": "view",
      "type": "function"
    },
    {
      "inputs": [],
      "name": "getEntireSystemColl",
      "outputs": [
        {
          "internalType": "uint256",
          "name": "entireSystemColl",
          "type": "uint256"
        }
      ],
      "stateMutability": "view",
      "type": "function"
    },
    {
      "inputs": [],
      "name": "getEntireSystemDebt",
      "outputs": [
        {
          "internalType": "uint256",
          "name": "entireSystemDebt",
          "type": "uint256"
        }
      ],
      "stateMutability": "view",
      "type": "function"
    },
    {
      "inputs": [
        {
          "internalType": "uint256",
          "name": "_coll",
          "type": "uint256"
        },
        {
          "internalType": "uint256",
          "name": "_debt",
          "type": "uint256"
        },
        {
          "internalType": "uint256",
          "name": "_collChange",
          "type": "uint256"
        },
        {
          "internalType": "bool",
          "name": "isCollIncrease",
          "type": "bool"
        },
        {
          "internalType": "uint256",
          "name": "_debtChange",
          "type": "uint256"
        },
        {
          "internalType": "bool",
          "name": "isDebtIncrease",
          "type": "bool"
        },
        {
          "internalType": "uint256",
          "name": "_price",
          "type": "uint256"
        }
      ],
      "name": "getNewICRFromTroveChange",
      "outputs": [
        {
          "internalType": "uint256",
          "name": "",
          "type": "uint256"
        }
      ],
      "stateMutability": "pure",
      "type": "function"
    },
    {
      "inputs": [
        {
          "internalType": "uint256",
          "name": "_collChange",
          "type": "uint256"
        },
        {
          "internalType": "bool",
          "name": "isCollIncrease",
          "type": "bool"
        },
        {
          "internalType": "uint256",
          "name": "_debtChange",
          "type": "uint256"
        },
        {
          "internalType": "bool",
          "name": "isDebtIncrease",
          "type": "bool"
        },
        {
          "internalType": "uint256",
          "name": "_price",
          "type": "uint256"
        }
      ],
      "name": "getNewTCRFromTroveChange",
      "outputs": [
        {
          "internalType": "uint256",
          "name": "",
          "type": "uint256"
        }
      ],
      "stateMutability": "view",
      "type": "function"
    },
    {
      "inputs": [
        {
          "internalType": "uint256",
          "name": "_coll",
          "type": "uint256"
        },
        {
          "internalType": "uint256",
          "name": "_price",
          "type": "uint256"
        }
      ],
      "name": "getUSDValue",
      "outputs": [
        {
          "internalType": "uint256",
          "name": "",
          "type": "uint256"
        }
      ],
      "stateMutability": "pure",
      "type": "function"
    },
    {
      "inputs": [
        {
          "internalType": "address",
          "name": "_troveManagerAddress",
          "type": "address"
        },
        {
          "internalType": "address",
          "name": "_activePoolAddress",
          "type": "address"
        },
        {
          "internalType": "address",
          "name": "_defaultPoolAddress",
          "type": "address"
        },
        {
          "internalType": "address",
          "name": "_stabilityPoolAddress",
          "type": "address"
        },
        {
          "internalType": "address",
          "name": "_gasPoolAddress",
          "type": "address"
        },
        {
          "internalType": "address",
          "name": "_collSurplusPoolAddress",
          "type": "address"
        },
        {
          "internalType": "address",
          "name": "_priceFeedAddress",
          "type": "address"
        },
        {
          "internalType": "address",
          "name": "_sortedTrovesAddress",
          "type": "address"
        },
        {
          "internalType": "address",
          "name": "_debtTokenAddress",
          "type": "address"
        },
        {
          "internalType": "address",
          "name": "_protocolTokenStakingAddress",
          "type": "address"
        }
      ],
      "name": "initialize",
      "outputs": [],
      "stateMutability": "nonpayable",
      "type": "function"
    },
    {
      "inputs": [
        {
          "internalType": "address",
          "name": "_borrower",
          "type": "address"
        },
        {
          "internalType": "address",
          "name": "_upperHint",
          "type": "address"
        },
        {
          "internalType": "address",
          "name": "_lowerHint",
          "type": "address"
        }
      ],
      "name": "moveFILGainToTrove",
      "outputs": [],
      "stateMutability": "payable",
      "type": "function"
    },
    {
      "inputs": [
        {
          "internalType": "uint256",
          "name": "_maxFeePercentage",
          "type": "uint256"
        },
        {
          "internalType": "uint256",
          "name": "_debtTokenAmount",
          "type": "uint256"
        },
        {
          "internalType": "address",
          "name": "_upperHint",
          "type": "address"
        },
        {
          "internalType": "address",
          "name": "_lowerHint",
          "type": "address"
        }
      ],
      "name": "openTrove",
      "outputs": [],
      "stateMutability": "payable",
      "type": "function"
    },
    {
      "inputs": [],
      "name": "owner",
      "outputs": [
        {
          "internalType": "address",
          "name": "",
          "type": "address"
        }
      ],
      "stateMutability": "view",
      "type": "function"
    },
    {
      "inputs": [],
      "name": "priceFeed",
      "outputs": [
        {
          "internalType": "contract IPriceFeed",
          "name": "",
          "type": "address"
        }
      ],
      "stateMutability": "view",
      "type": "function"
    },
    {
      "inputs": [],
      "name": "protocolTokenStaking",
      "outputs": [
        {
          "internalType": "contract IProtocolTokenStaking",
          "name": "",
          "type": "address"
        }
      ],
      "stateMutability": "view",
      "type": "function"
    },
    {
      "inputs": [],
      "name": "protocolTokenStakingAddress",
      "outputs": [
        {
          "internalType": "address",
          "name": "",
          "type": "address"
        }
      ],
      "stateMutability": "view",
      "type": "function"
    },
    {
      "inputs": [],
      "name": "renounceOwnership",
      "outputs": [],
      "stateMutability": "nonpayable",
      "type": "function"
    },
    {
      "inputs": [
        {
          "internalType": "uint256",
          "name": "_debtTokenAmount",
          "type": "uint256"
        },
        {
          "internalType": "address",
          "name": "_upperHint",
          "type": "address"
        },
        {
          "internalType": "address",
          "name": "_lowerHint",
          "type": "address"
        }
      ],
      "name": "repayDebtToken",
      "outputs": [],
      "stateMutability": "nonpayable",
      "type": "function"
    },
    {
      "inputs": [],
      "name": "sortedTroves",
      "outputs": [
        {
          "internalType": "contract ISortedTroves",
          "name": "",
          "type": "address"
        }
      ],
      "stateMutability": "view",
      "type": "function"
    },
    {
      "inputs": [
        {
          "internalType": "address",
          "name": "newOwner",
          "type": "address"
        }
      ],
      "name": "transferOwnership",
      "outputs": [],
      "stateMutability": "nonpayable",
      "type": "function"
    },
    {
      "inputs": [],
      "name": "troveManager",
      "outputs": [
        {
          "internalType": "contract ITroveManager",
          "name": "",
          "type": "address"
        }
      ],
      "stateMutability": "view",
      "type": "function"
    },
    {
      "inputs": [
        {
          "internalType": "uint256",
          "name": "_collWithdrawal",
          "type": "uint256"
        },
        {
          "internalType": "address",
          "name": "_upperHint",
          "type": "address"
        },
        {
          "internalType": "address",
          "name": "_lowerHint",
          "type": "address"
        }
      ],
      "name": "withdrawColl",
      "outputs": [],
      "stateMutability": "nonpayable",
      "type": "function"
    },
    {
      "inputs": [
        {
          "internalType": "uint256",
          "name": "_maxFeePercentage",
          "type": "uint256"
        },
        {
          "internalType": "uint256",
          "name": "_debtTokenAmount",
          "type": "uint256"
        },
        {
          "internalType": "address",
          "name": "_upperHint",
          "type": "address"
        },
        {
          "internalType": "address",
          "name": "_lowerHint",
          "type": "address"
        }
      ],
      "name": "withdrawDebtToken",
      "outputs": [],
      "stateMutability": "nonpayable",
      "type": "function"
    },
    {
      "stateMutability": "payable",
      "type": "receive"
    }
  ],
  "bytecode": "0x60c060405234801561001057600080fd5b50604051613f3b380380613f3b8339818101604052604081101561003357600080fd5b508051602090910151608082905260a0819052613ea161009a60003980610ca3528061274c5280612ad352806137f0525080610a495280610bad5280610bec5280610c7f528061155e52806123225280612fc45280612fee528061371c5250613ea16000f3fe6080604052600436106101ee5760003560e01c8063715018a6116101135780638da5cb5b116100ab578063c6a6cf201161006f578063c6a6cf201461075e578063e5452423146107a6578063f2fde38b146107bb578063f8d89898146107ee578063f92d343314610803576101f5565b80638da5cb5b1461062c578063a20baee61461052e578063a3f4df7e14610641578063ae918754146106cb578063c306b378146106e0576101f5565b8063715018a61461051957806372fe25aa1461052e578063741bef1a14610543578063794e572414610558578063795d26c31461056d5780637f7dde4a14610582578063860665b31461059757806387eb305d146105d1578063887105d314610617576101f5565b80634ff81443116101865780634ff814431461037857806351584ca4146103a25780635530273c146103f45780635733d58f1461043557806357aae46b1461044a57806362a0d7991461045f57806368647db1146104a65780636f0b0c1c146104d45780636f30d212146104e9576101f5565b80630802c78a146101fa5780630e43d8ce1461023d5780630e704d5014610275578063139f2e8c1461028a5780631bf43555146102b15780632cdcd722146102c65780633cc742251461031d5780633d83908a1461034e5780634870dd9a14610363576101f5565b366101f557005b600080fd5b34801561020657600080fd5b5061023b6004803603606081101561021d57600080fd5b508035906001600160a01b0360208201358116916040013516610818565b005b61023b6004803603606081101561025357600080fd5b506001600160a01b03813581169160208101358216916040909101351661082f565b34801561028157600080fd5b5061023b610849565b34801561029657600080fd5b5061029f610c7d565b60408051918252519081900360200190f35b3480156102bd57600080fd5b5061029f610ca1565b3480156102d257600080fd5b5061023b600480360360c08110156102e957600080fd5b506001600160a01b0381358116916020810135916040820135916060810135151591608082013581169160a0013516610cc5565b34801561032957600080fd5b50610332610cdd565b604080516001600160a01b039092168252519081900360200190f35b34801561035a57600080fd5b50610332610cec565b34801561036f57600080fd5b5061029f610cfb565b34801561038457600080fd5b5061029f6004803603602081101561039b57600080fd5b5035610d00565b3480156103ae57600080fd5b5061029f600480360360e08110156103c557600080fd5b50803590602081013590604081013590606081013515159060808101359060a081013515159060c00135610d11565b34801561040057600080fd5b5061023b6004803603606081101561041757600080fd5b508035906001600160a01b0360208201358116916040013516610d2e565b34801561044157600080fd5b5061029f610d3f565b34801561045657600080fd5b50610332610d4b565b34801561046b57600080fd5b5061023b6004803603608081101561048257600080fd5b508035906020810135906001600160a01b0360408201358116916060013516610d5a565b61023b600480360360408110156104bc57600080fd5b506001600160a01b0381358116916020013516610d71565b3480156104e057600080fd5b5061023b610d87565b3480156104f557600080fd5b5061029f6004803603604081101561050c57600080fd5b5080359060200135610de7565b34801561052557600080fd5b5061023b610dfa565b34801561053a57600080fd5b5061029f610ea6565b34801561054f57600080fd5b50610332610eb2565b34801561056457600080fd5b5061029f610ec1565b34801561057957600080fd5b5061029f610ecd565b34801561058e57600080fd5b50610332610fc8565b61023b600480360360808110156105ad57600080fd5b508035906020810135906001600160a01b0360408201358116916060013516610fd7565b3480156105dd57600080fd5b5061029f600480360360a08110156105f457600080fd5b50803590602081013515159060408101359060608101351515906080013561161f565b34801561062357600080fd5b5061029f611638565b34801561063857600080fd5b506103326116f4565b34801561064d57600080fd5b50610656611703565b6040805160208082528351818301528351919283929083019185019080838360005b83811015610690578181015183820152602001610678565b50505050905090810190601f1680156106bd5780820380516001836020036101000a031916815260200191505b509250505060405180910390f35b3480156106d757600080fd5b50610332611731565b3480156106ec57600080fd5b5061023b600480360361014081101561070457600080fd5b506001600160a01b038135811691602081013582169160408201358116916060810135821691608082013581169160a081013582169160c082013581169160e0810135821691610100820135811691610120013516611740565b61023b600480360360c081101561077457600080fd5b5080359060208101359060408101359060608101351515906001600160a01b03608082013581169160a001351661181c565b3480156107b257600080fd5b5061033261182b565b3480156107c757600080fd5b5061023b600480360360208110156107de57600080fd5b50356001600160a01b031661183a565b3480156107fa57600080fd5b5061033261193d565b34801561080f57600080fd5b5061029f61194c565b61082a33600085600086866000611957565b505050565b610837611f2a565b61082a83600080600086866000611957565b606754600054606d546001600160a01b0392831692918216911661086d8333611f75565b60025460408051630fdb11cf60e01b815290516000926001600160a01b031691630fdb11cf91600480830192602092919082900301818787803b1580156108b357600080fd5b505af11580156108c7573d6000803e3d6000fd5b505050506040513d60208110156108dd57600080fd5b505190506108ea81612031565b60408051630b07655760e01b815233600482015290516001600160a01b03861691630b07655791602480830192600092919082900301818387803b15801561093157600080fd5b505af1158015610945573d6000803e3d6000fd5b505050506000846001600160a01b031663480cd578336040518263ffffffff1660e01b815260040180826001600160a01b0316815260200191505060206040518083038186803b15801561099857600080fd5b505afa1580156109ac573d6000803e3d6000fd5b505050506040513d60208110156109c257600080fd5b50516040805163d66a255360e01b815233600482015290519192506000916001600160a01b0388169163d66a2553916024808301926020929190829003018186803b158015610a1057600080fd5b505afa158015610a24573d6000803e3d6000fd5b505050506040513d6020811015610a3a57600080fd5b50519050610a728433610a6d847f0000000000000000000000000000000000000000000000000000000000000000612079565b6120d6565b6000610a838360008460008861218d565b9050610a8e81612200565b60408051631fc5750960e31b815233600482015290516001600160a01b0389169163fe2ba84891602480830192600092919082900301818387803b158015610ad557600080fd5b505af1158015610ae9573d6000803e3d6000fd5b5050604080516365e89c5760e11b815233600482015290516001600160a01b038b16935063cbd138ae9250602480830192600092919082900301818387803b158015610b3457600080fd5b505af1158015610b48573d6000803e3d6000fd5b50505050336001600160a01b0316600080516020613c3b8339815191526000806000600160405180858152602001848152602001838152602001826002811115610b8e57fe5b815260200194505050505060405180910390a2610bd6868633610bd1867f0000000000000000000000000000000000000000000000000000000000000000612079565b612247565b606954610c1090879087906001600160a01b03167f0000000000000000000000000000000000000000000000000000000000000000612247565b60408051628063a560e01b81523360048201526024810185905290516001600160a01b03881691628063a591604480830192600092919082900301818387803b158015610c5c57600080fd5b505af1158015610c70573d6000803e3d6000fd5b5050505050505050505050565b7f000000000000000000000000000000000000000000000000000000000000000081565b7f000000000000000000000000000000000000000000000000000000000000000081565b610cd58686868686866000611957565b505050505050565b6001546001600160a01b031681565b6067546001600160a01b031681565b60c881565b6000610d0b8261231a565b92915050565b6000610d2288888888888888612346565b98975050505050505050565b61082a338460008086866000611957565b6714d1120d7b16000081565b606c546001600160a01b031681565b610d6b33600085600186868a611957565b50505050565b610d8333600080600086866000611957565b5050565b606a546040805163b32beb5b60e01b815233600482015290516001600160a01b039092169163b32beb5b9160248082019260009290919082900301818387803b158015610dd357600080fd5b505af1158015610d6b573d6000803e3d6000fd5b6000610df38383612379565b9392505050565b610e026123a0565b6001600160a01b0316610e136116f4565b6001600160a01b031614610e6e576040805162461bcd60e51b815260206004820181905260248201527f4f776e61626c653a2063616c6c6572206973206e6f7420746865206f776e6572604482015290519081900360640190fd5b6035546040516000916001600160a01b031690600080516020613bed833981519152908390a3603580546001600160a01b0319169055565b670de0b6b3a764000081565b6002546001600160a01b031681565b670f43fc2c04ee000081565b60008054604080516314a6bf0f60e01b8152905183926001600160a01b0316916314a6bf0f916004808301926020929190829003018186803b158015610f1257600080fd5b505afa158015610f26573d6000803e3d6000fd5b505050506040513d6020811015610f3c57600080fd5b5051600154604080516314a6bf0f60e01b815290519293506000926001600160a01b03909216916314a6bf0f91600480820192602092909190829003018186803b158015610f8957600080fd5b505afa158015610f9d573d6000803e3d6000fd5b505050506040513d6020811015610fb357600080fd5b50519050610fc182826123a4565b9250505090565b6000546001600160a01b031681565b604080516060810182526067546001600160a01b03908116825260005481166020830152606d54169181019190915261100e61393a565b600260009054906101000a90046001600160a01b03166001600160a01b0316630fdb11cf6040518163ffffffff1660e01b8152600401602060405180830381600087803b15801561105e57600080fd5b505af1158015611072573d6000803e3d6000fd5b505050506040513d602081101561108857600080fd5b5051808252600090611099906123fe565b90506110a5878261241b565b82516110b190336124c7565b60408201869052806110ec576110d183600001518460400151888a61259a565b6020830181905260408301516110e6916123a4565b60408301525b6110f9826040015161274a565b611106826040015161231a565b6060830181905261111357fe5b61112634836060015184600001516127a9565b6080830152606082015161113b9034906127d5565b60a08301528015611158576111538260800151612804565b61118b565b611165826080015161284b565b600061117e34600185606001516001876000015161218d565b905061118981612200565b505b825160408051635d6b480f60e01b81523360048201526001602482015290516001600160a01b0390921691635d6b480f9160448082019260009290919082900301818387803b1580156111dd57600080fd5b505af11580156111f1573d6000803e3d6000fd5b50508451604080516372423c1760e01b815233600482015234602482015290516001600160a01b0390921693506372423c1792506044808201926020929091908290030181600087803b15801561124757600080fd5b505af115801561125b573d6000803e3d6000fd5b505050506040513d602081101561127157600080fd5b50508251606083015160408051639976cf4560e01b81523360048201526024810192909252516001600160a01b0390921691639976cf45916044808201926020929091908290030181600087803b1580156112cb57600080fd5b505af11580156112df573d6000803e3d6000fd5b505050506040513d60208110156112f557600080fd5b50508251604080516382fe3eb960e01b815233600482015290516001600160a01b03909216916382fe3eb99160248082019260009290919082900301818387803b15801561134257600080fd5b505af1158015611356573d6000803e3d6000fd5b5050505082600001516001600160a01b03166318f2817a336040518263ffffffff1660e01b815260040180826001600160a01b03168152602001915050602060405180830381600087803b1580156113ad57600080fd5b505af11580156113c1573d6000803e3d6000fd5b505050506040513d60208110156113d757600080fd5b505160c0830152606e5460a0830151604080516346f7cf8760e01b815233600482015260248101929092526001600160a01b038881166044840152878116606484015290519216916346f7cf879160848082019260009290919082900301818387803b15801561144657600080fd5b505af115801561145a573d6000803e3d6000fd5b5050505082600001516001600160a01b03166315d549f1336040518263ffffffff1660e01b815260040180826001600160a01b03168152602001915050602060405180830381600087803b1580156114b157600080fd5b505af11580156114c5573d6000803e3d6000fd5b505050506040513d60208110156114db57600080fd5b505160e08301819052604080519182525133917f59cfd0cd754bc5748b6770e94a4ffa5f678d885cb899dcfadc5734edb97c67ab919081900360200190a2611527836020015134612892565b6115408360200151846040015133898660400151612922565b602083015160408401516069546115839291906001600160a01b03167f000000000000000000000000000000000000000000000000000000000000000080612922565b336001600160a01b0316600080516020613c3b8339815191528360600151348560c001516000604051808581526020018481526020018381526020018260028111156115cb57fe5b815260200194505050505060405180910390a2602080830151604080519182525133927fefe9137e0c60d14b7f57a84d5b68f55a648dd9fa7b01747d4ec305a3c8974c01928290030190a250505050505050565b600061162e868686868661218d565b9695505050505050565b60008054604080516362e1c9bf60e11b8152905183926001600160a01b03169163c5c3937e916004808301926020929190829003018186803b15801561167d57600080fd5b505afa158015611691573d6000803e3d6000fd5b505050506040513d60208110156116a757600080fd5b5051600154604080516362e1c9bf60e11b815290519293506000926001600160a01b039092169163c5c3937e91600480820192602092909190829003018186803b158015610f8957600080fd5b6035546001600160a01b031690565b60405180604001604052806012815260200171426f72726f7765724f7065726174696f6e7360701b81525081565b606e546001600160a01b031681565b600254600160a81b900460ff168061175b575061175b6129f6565b806117705750600254600160a01b900460ff16155b6117ab5760405162461bcd60e51b815260040180806020018281038252602e815260200180613add602e913960400191505060405180910390fd5b600254600160a81b900460ff161580156117e2576002805460ff60a01b1960ff60a81b19909116600160a81b1716600160a01b1790555b6117ea612a07565b6117fc8b8b8b8b8b8b8b8b8b8b612acf565b8015610c70576002805460ff60a81b191690555050505050505050505050565b610cd53386868686868c611957565b606b546001600160a01b031681565b6118426123a0565b6001600160a01b03166118536116f4565b6001600160a01b0316146118ae576040805162461bcd60e51b815260206004820181905260248201527f4f776e61626c653a2063616c6c6572206973206e6f7420746865206f776e6572604482015290519081900360640190fd5b6001600160a01b0381166118f35760405162461bcd60e51b81526004018080602001828103825260268152602001806139ea6026913960400191505060405180910390fd5b6035546040516001600160a01b03808416921690600080516020613bed83398151915290600090a3603580546001600160a01b0319166001600160a01b0392909216919091179055565b606d546001600160a01b031681565b6611c37937e0800081565b604080516060810182526067546001600160a01b03908116825260005481166020830152606d54169181019190915261198e61397f565b600260009054906101000a90046001600160a01b03166001600160a01b0316630fdb11cf6040518163ffffffff1660e01b8152600401602060405180830381600087803b1580156119de57600080fd5b505af11580156119f2573d6000803e3d6000fd5b505050506040513d6020811015611a0857600080fd5b5051808252600090611a19906123fe565b90508615611a3457611a2b848261241b565b611a3488612e52565b611a3d89612e91565b611a478989612ed7565b8251611a53908b611f75565b336001600160a01b038b161480611a8957506068546001600160a01b031633148015611a7f5750600034115b8015611a89575087155b611a8f57fe5b82600001516001600160a01b0316630b0765578b6040518263ffffffff1660e01b815260040180826001600160a01b03168152602001915050600060405180830381600087803b158015611ae257600080fd5b505af1158015611af6573d6000803e3d6000fd5b50505050611b04348a612f29565b15156060840152602083015260408201889052868015611b22575080155b15611b5757611b3b836000015184604001518a8761259a565b61012083018190526040830151611b51916123a4565b60408301525b82600001516001600160a01b031663d66a25538b6040518263ffffffff1660e01b815260040180826001600160a01b0316815260200191505060206040518083038186803b158015611ba857600080fd5b505afa158015611bbc573d6000803e3d6000fd5b505050506040513d6020811015611bd257600080fd5b505160808301528251604080516309019aaf60e31b81526001600160a01b038d811660048301529151919092169163480cd578916024808301926020929190829003018186803b158015611c2557600080fd5b505afa158015611c39573d6000803e3d6000fd5b505050506040513d6020811015611c4f57600080fd5b505160a0830181905260808301518351611c6a9291906127a9565b8260c0018181525050611c9a8260a0015183608001518460200151856060015186604001518c8860000151612346565b60e083015260a0820151891115611cad57fe5b611cb9818a8985612f48565b86158015611cc75750600088115b15611d1457611cef611cea8360400151611ce48560800151612fbc565b90612079565b61274a565b611d0182608001518360400151612fe8565b611d1483604001518b84604001516120d6565b611d3283600001518b8460200151856060015186604001518c613050565b610140840152610160830152825160408051630c7940bd60e11b81526001600160a01b038d81166004830152915191909216916318f2817a9160248083019260209291908290030181600087803b158015611d8c57600080fd5b505af1158015611da0573d6000803e3d6000fd5b505050506040513d6020811015611db657600080fd5b505161018083015260a08201516080830151602084015160608501516040860151600094611dea949093909290918d61328c565b606e546040805163015f109360e51b81526001600160a01b038f81166004830152602482018590528b811660448301528a811660648301529151939450911691632be212609160848082019260009290919082900301818387803b158015611e5157600080fd5b505af1158015611e65573d6000803e3d6000fd5b505050508a6001600160a01b0316600080516020613c3b833981519152846101400151856101600151866101800151600260405180858152602001848152602001838152602001826002811115611eb857fe5b815260200194505050505060405180910390a2610120830151604080519182525133917fefe9137e0c60d14b7f57a84d5b68f55a648dd9fa7b01747d4ec305a3c8974c01919081900360200190a2610c708460200151856040015133866020015187606001518e8e8a604001516132bd565b6068546001600160a01b03163314611f735760405162461bcd60e51b8152600401808060200182810382526029815260200180613d9e6029913960400191505060405180910390fd5b565b6000826001600160a01b03166321e37801836040518263ffffffff1660e01b815260040180826001600160a01b0316815260200191505060206040518083038186803b158015611fc457600080fd5b505afa158015611fd8573d6000803e3d6000fd5b505050506040513d6020811015611fee57600080fd5b505190506001811461082a5760405162461bcd60e51b815260040180806020018281038252602e815260200180613c0d602e913960400191505060405180910390fd5b61203a816123fe565b156120765760405162461bcd60e51b8152600401808060200182810382526039815260200180613a6d6039913960400191505060405180910390fd5b50565b6000828211156120d0576040805162461bcd60e51b815260206004820152601e60248201527f536166654d6174683a207375627472616374696f6e206f766572666c6f770000604482015290519081900360640190fd5b50900390565b80836001600160a01b03166370a08231846040518263ffffffff1660e01b815260040180826001600160a01b0316815260200191505060206040518083038186803b15801561212457600080fd5b505afa158015612138573d6000803e3d6000fd5b505050506040513d602081101561214e57600080fd5b5051101561082a5760405162461bcd60e51b815260040180806020018281038252603f815260200180613c99603f913960400191505060405180910390fd5b600080612198611638565b905060006121a4610ecd565b9050866121ba576121b58289612079565b6121c4565b6121c482896123a4565b9150846121da576121d58187612079565b6121e4565b6121e481876123a4565b905060006121f38383876127a9565b9998505050505050505050565b6714d1120d7b1600008110156120765760405162461bcd60e51b8152600401808060200182810382526049815260200180613ba46049913960600191505060405180910390fd5b836001600160a01b0316632a7ba1f7826040518263ffffffff1660e01b815260040180828152602001915050600060405180830381600087803b15801561228d57600080fd5b505af11580156122a1573d6000803e3d6000fd5b50505050826001600160a01b0316639dc29fac83836040518363ffffffff1660e01b815260040180836001600160a01b0316815260200182815260200192505050600060405180830381600087803b1580156122fc57600080fd5b505af1158015612310573d6000803e3d6000fd5b5050505050505050565b6000610d0b827f00000000000000000000000000000000000000000000000000000000000000006123a4565b60008060006123598a8a8a8a8a8a61336e565b91509150600061236a8383876127a9565b9b9a5050505050505050505050565b600080612398670de0b6b3a764000061239285876133b1565b9061340a565b949350505050565b3390565b600082820183811015610df3576040805162461bcd60e51b815260206004820152601b60248201527f536166654d6174683a206164646974696f6e206f766572666c6f770000000000604482015290519081900360640190fd5b60008061240a83613471565b6714d1120d7b160000119392505050565b801561246d57670de0b6b3a76400008211156124685760405162461bcd60e51b8152600401808060200182810382526032815260200180613b0b6032913960400191505060405180910390fd5b610d83565b6611c37937e08000821080159061248c5750670de0b6b3a76400008211155b610d835760405162461bcd60e51b8152600401808060200182810382526030815260200180613dc76030913960400191505060405180910390fd5b6000826001600160a01b03166321e37801836040518263ffffffff1660e01b815260040180826001600160a01b0316815260200191505060206040518083038186803b15801561251657600080fd5b505afa15801561252a573d6000803e3d6000fd5b505050506040513d602081101561254057600080fd5b50519050600181141561082a576040805162461bcd60e51b815260206004820152601c60248201527f426f72726f7765724f70733a2054726f76652069732061637469766500000000604482015290519081900360640190fd5b6000846001600160a01b0316635dba4c4a6040518163ffffffff1660e01b8152600401600060405180830381600087803b1580156125d757600080fd5b505af11580156125eb573d6000803e3d6000fd5b505050506000856001600160a01b031663631203b0856040518263ffffffff1660e01b81526004018082815260200191505060206040518083038186803b15801561263557600080fd5b505afa158015612649573d6000803e3d6000fd5b505050506040513d602081101561265f57600080fd5b5051905061266e818585613495565b606b54604080516358caad6960e11b81526004810184905290516001600160a01b039092169163b1955ad29160248082019260009290919082900301818387803b1580156126bb57600080fd5b505af11580156126cf573d6000803e3d6000fd5b5050606c54604080516340c10f1960e01b81526001600160a01b03928316600482015260248101869052905191891693506340c10f19925060448082019260009290919082900301818387803b15801561272857600080fd5b505af115801561273c573d6000803e3d6000fd5b509298975050505050505050565b7f00000000000000000000000000000000000000000000000000000000000000008110156120765760405162461bcd60e51b815260040180806020018281038252603a815260200180613d21603a913960400191505060405180910390fd5b600082156127ca5760006127c18461239287866133b1565b9150610df39050565b506000199392505050565b600081156127fb576127f4826123928568056bc75e2d631000006133b1565b9050610d0b565b50600019610d0b565b6714d1120d7b1600008110156120765760405162461bcd60e51b8152600401808060200182810382526037815260200180613aa66037913960400191505060405180910390fd5b670f43fc2c04ee00008110156120765760405162461bcd60e51b8152600401808060200182810382526049815260200180613cd86049913960600191505060405180910390fd5b6040516000906001600160a01b0384169083908381818185875af1925050503d80600081146128dd576040519150601f19603f3d011682016040523d82523d6000602084013e6128e2565b606091505b505090508061082a5760405162461bcd60e51b815260040180806020018281038252602d815260200180613a10602d913960400191505060405180910390fd5b846001600160a01b0316632b7c7b11826040518263ffffffff1660e01b815260040180828152602001915050600060405180830381600087803b15801561296857600080fd5b505af115801561297c573d6000803e3d6000fd5b50505050836001600160a01b03166340c10f1984846040518363ffffffff1660e01b815260040180836001600160a01b0316815260200182815260200192505050600060405180830381600087803b1580156129d757600080fd5b505af11580156129eb573d6000803e3d6000fd5b505050505050505050565b6000612a0130613504565b15905090565b600254600160a81b900460ff1680612a225750612a226129f6565b80612a375750600254600160a01b900460ff16155b612a725760405162461bcd60e51b815260040180806020018281038252602e815260200180613add602e913960400191505060405180910390fd5b600254600160a81b900460ff16158015612aa9576002805460ff60a01b1960ff60a81b19909116600160a81b1716600160a01b1790555b612ab161350a565b612ab96135c1565b8015612076576002805460ff60a81b1916905550565b60007f000000000000000000000000000000000000000000000000000000000000000011612af957fe5b612b028a6136bf565b612b0b896136bf565b612b14886136bf565b612b1d876136bf565b612b26866136bf565b612b2f856136bf565b612b38846136bf565b612b41836136bf565b612b4a826136bf565b612b53816136bf565b612b5c8a61371a565b606780546001600160a01b03199081166001600160a01b038d81169182179093556000805483168d85161790556001805483168c85161790556068805483168b85161790556069805483168a8516179055606a80548316898516179055600280548316888516179055606e80548316878516179055606d80548316868516179055606c805483169385169384179055606b8054909216909217905560408051918252517f143219c9e69b09e07e095fcc889b43d8f46ca892bba65f08dc3a0050869a5678916020908290030190a1604080516001600160a01b038b16815290517f78f058b189175430c48dc02699e3a0031ea4ff781536dc2fab847de4babdd8829181900360200190a1604080516001600160a01b038a16815290517f5ee0cae2f063ed938bb55046f6a932fb6ae792bf43624806bb90abe68a50be9b9181900360200190a1604080516001600160a01b038916815290517f82966d27eea39b038ee0fa30cd16532bb24f6e65d31cb58fb227aa5766cdcc7f9181900360200190a1604080516001600160a01b038816815290517fcfb07d791fcafc032b35837b50eb84b74df518cf4cc287e8084f47630fa70fa09181900360200190a1604080516001600160a01b038716815290517fe67f36a6e961157d6eff83b91f3af5a62131ceb6f04954ef74f51c1c05e7f88d9181900360200190a1604080516001600160a01b038616815290517f8c537274438aa850a330284665d81a85dd38267d09e4050d416bfc94142db2649181900360200190a1604080516001600160a01b038516815290517f65f4cf077bc01e4742eb5ad98326f6e95b63548ea24b17f8d5e823111fe788009181900360200190a1604080516001600160a01b038416815290517f112220fa8dbe96141556e0dc3d74dd95075b323f4f297616048e02d82d7017159181900360200190a1604080516001600160a01b038316815290517ff81a824d1d9030c0365252fb96daf0565f9c2007c88e13001379dda7f06d5d5c9181900360200190a150505050505050505050565b600081116120765760405162461bcd60e51b8152600401808060200182810382526037815260200180613df76037913960400191505060405180910390fd5b341580612e9c575080155b6120765760405162461bcd60e51b8152600401808060200182810382526030815260200180613a3d6030913960400191505060405180910390fd5b34151580612ee457508115155b80612eee57508015155b610d835760405162461bcd60e51b8152600401808060200182810382526046815260200180613b3d6046913960600191505060405180910390fd5b6000808315612f3d57508290506001612f41565b8291505b9250929050565b8315612f8157612f57836138be565b8115612f7c57612f6a8160e00151612804565b612f7c8160e001518260c001516138fb565b610d6b565b612f8e8160e0015161284b565b612fab81602001518260600151836040015185856000015161218d565b6101008201819052610d6b90612200565b6000610d0b827f0000000000000000000000000000000000000000000000000000000000000000612079565b613012827f0000000000000000000000000000000000000000000000000000000000000000612079565b811115610d835760405162461bcd60e51b8152600401808060200182810382526043815260200180613d5b6043913960600191505060405180910390fd5b6000806000856130e257886001600160a01b031663d3d6f84389896040518363ffffffff1660e01b815260040180836001600160a01b0316815260200182815260200192505050602060405180830381600087803b1580156130b157600080fd5b505af11580156130c5573d6000803e3d6000fd5b505050506040513d60208110156130db57600080fd5b5051613166565b886001600160a01b03166372423c1789896040518363ffffffff1660e01b815260040180836001600160a01b0316815260200182815260200192505050602060405180830381600087803b15801561313957600080fd5b505af115801561314d573d6000803e3d6000fd5b505050506040513d602081101561316357600080fd5b50515b90506000846131f757896001600160a01b03166312610e928a886040518363ffffffff1660e01b815260040180836001600160a01b0316815260200182815260200192505050602060405180830381600087803b1580156131c657600080fd5b505af11580156131da573d6000803e3d6000fd5b505050506040513d60208110156131f057600080fd5b505161327b565b896001600160a01b0316639976cf458a886040518363ffffffff1660e01b815260040180836001600160a01b0316815260200182815260200192505050602060405180830381600087803b15801561324e57600080fd5b505af1158015613262573d6000803e3d6000fd5b505050506040513d602081101561327857600080fd5b50515b919a91995090975050505050505050565b600080600061329f89898989898961336e565b9150915060006132af83836127d5565b9a9950505050505050505050565b81156132d5576132d08888888685612922565b6132e1565b6132e188888886612247565b83156132f6576132f18886612892565b612310565b876001600160a01b0316628063a587876040518363ffffffff1660e01b815260040180836001600160a01b0316815260200182815260200192505050600060405180830381600087803b15801561334c57600080fd5b505af1158015613360573d6000803e3d6000fd5b505050505050505050505050565b600080878786613387576133828a89612079565b613391565b6133918a896123a4565b9150846133a7576133a28987612079565b61327b565b61327b89876123a4565b6000826133c057506000610d0b565b828202828482816133cd57fe5b0414610df35760405162461bcd60e51b8152600401808060200182810382526021815260200180613b836021913960400191505060405180910390fd5b6000808211613460576040805162461bcd60e51b815260206004820152601a60248201527f536166654d6174683a206469766973696f6e206279207a65726f000000000000604482015290519081900360640190fd5b81838161346957fe5b049392505050565b60008061347c611638565b90506000613488610ecd565b90506123988282866127a9565b60006134ad8361239286670de0b6b3a76400006133b1565b905081811115610d6b576040805162461bcd60e51b815260206004820152601d60248201527f4665652065786365656465642070726f7669646564206d6178696d756d000000604482015290519081900360640190fd5b3b151590565b600254600160a81b900460ff168061352557506135256129f6565b8061353a5750600254600160a01b900460ff16155b6135755760405162461bcd60e51b815260040180806020018281038252602e815260200180613add602e913960400191505060405180910390fd5b600254600160a81b900460ff16158015612ab9576002805460ff60a01b1960ff60a81b19909116600160a81b1716600160a01b1790558015612076576002805460ff60a81b1916905550565b600254600160a81b900460ff16806135dc57506135dc6129f6565b806135f15750600254600160a01b900460ff16155b61362c5760405162461bcd60e51b815260040180806020018281038252602e815260200180613add602e913960400191505060405180910390fd5b600254600160a81b900460ff16158015613663576002805460ff60a01b1960ff60a81b19909116600160a81b1716600160a01b1790555b600061366d6123a0565b603580546001600160a01b0319166001600160a01b03831690811790915560405191925090600090600080516020613bed833981519152908290a3508015612076576002805460ff60a81b1916905550565b6001600160a01b038116612076576040805162461bcd60e51b815260206004820152601e60248201527f4163636f756e742063616e6e6f74206265207a65726f20616464726573730000604482015290519081900360640190fd5b7f0000000000000000000000000000000000000000000000000000000000000000816001600160a01b031663139f2e8c6040518163ffffffff1660e01b815260040160206040518083038186803b15801561377457600080fd5b505afa158015613788573d6000803e3d6000fd5b505050506040513d602081101561379e57600080fd5b5051146137ee576040805162461bcd60e51b815260206004820152601960248201527808e82a6be869e9aa08a9ca682a8929e9c40dad2e6dac2e8c6d603b1b604482015290519081900360640190fd5b7f0000000000000000000000000000000000000000000000000000000000000000816001600160a01b0316631bf435556040518163ffffffff1660e01b815260040160206040518083038186803b15801561384857600080fd5b505afa15801561385c573d6000803e3d6000fd5b505050506040513d602081101561387257600080fd5b505114612076576040805162461bcd60e51b815260206004820152601560248201527409a929cbe9c8aa8be888a84a840dad2e6dac2e8c6d605b1b604482015290519081900360640190fd5b80156120765760405162461bcd60e51b815260040180806020018281038252603e815260200180613c5b603e913960400191505060405180910390fd5b80821015610d835760405162461bcd60e51b815260040180806020018281038252603e815260200180613e2e603e913960400191505060405180910390fd5b60405180610100016040528060008152602001600081526020016000815260200160008152602001600081526020016000815260200160008152602001600081525090565b604051806101a00160405280600081526020016000815260200160008152602001600015158152602001600081526020016000815260200160008152602001600081526020016000815260200160008152602001600081526020016000815260200160008152509056fe4f776e61626c653a206e6577206f776e657220697320746865207a65726f2061646472657373426f72726f7765724f70733a2053656e64696e672046494c20746f20416374697665506f6f6c206661696c6564426f72726f7765724f7065726174696f6e733a2043616e6e6f7420776974686472617720616e642061646420636f6c6c426f72726f7765724f70733a204f7065726174696f6e206e6f74207065726d697474656420647572696e67205265636f76657279204d6f6465426f72726f7765724f70733a204f7065726174696f6e206d757374206c656176652074726f7665207769746820494352203e3d20434352496e697469616c697a61626c653a20636f6e747261637420697320616c726561647920696e697469616c697a65644d6178206665652070657263656e74616765206d757374206c657373207468616e206f7220657175616c20746f2031303025426f72726f7765724f70733a205468657265206d75737420626520656974686572206120636f6c6c61746572616c206368616e6765206f7220612064656274206368616e6765536166654d6174683a206d756c7469706c69636174696f6e206f766572666c6f77426f72726f7765724f70733a20416e206f7065726174696f6e207468617420776f756c6420726573756c7420696e20544352203c20434352206973206e6f74207065726d69747465648be0079c531659141344cd1fd0a4f28419497f9722a3daafe3b4186f6b6457e0426f72726f7765724f70733a2054726f766520646f6573206e6f74206578697374206f7220697320636c6f736564c3770d654ed33aeea6bf11ac8ef05d02a6a04ed4686dd2f624d853bbec43cc8b426f72726f7765724f70733a20436f6c6c61746572616c207769746864726177616c206e6f74207065726d6974746564205265636f76657279204d6f6465426f72726f7765724f70733a2043616c6c657220646f65736e74206861766520656e6f75676820746f6b656e7320746f206d616b652072657061796d656e74426f72726f7765724f70733a20416e206f7065726174696f6e207468617420776f756c6420726573756c7420696e20494352203c204d4352206973206e6f74207065726d6974746564426f72726f7765724f70733a2054726f76652773206e65742064656274206d7573742062652067726561746572207468616e206d696e696d756d426f72726f7765724f70733a20416d6f756e7420726570616964206d757374206e6f74206265206c6172676572207468616e207468652054726f766527732064656274426f72726f7765724f70733a2043616c6c6572206973206e6f742053746162696c69747920506f6f6c4d6178206665652070657263656e74616765206d757374206265206265747765656e20302e352520616e642031303025426f72726f7765724f70733a204465627420696e637265617365207265717569726573206e6f6e2d7a65726f20646562744368616e6765426f72726f7765724f70733a2043616e6e6f7420646563726561736520796f75722054726f766527732049435220696e205265636f76657279204d6f6465a2646970667358221220593cfdbff97154fb9479c00c4f02a98b7280612007a804e4f3241f212e56f0dc64736f6c63430007060033",
  "linkReferences": {},
  "deployedLinkReferences": {}
}