{
  "_format": "hh-sol-artifact-1",
  "contractName": "BorrowerOperationsTester",
  "sourceName": "contracts/TestContracts/BorrowerOperationsTester.sol",
  "abi": [
    {
      "inputs": [
        {
          "internalType": "uint256",
          "name": "_gasCompensation",
          "type": "uint256"
        },
        {
          "internalType": "uint256",
          "name": "_minNetDebt",
          "type": "uint256"
        }
      ],
      "stateMutability": "nonpayable",
      "type": "constructor"
    },
    {
      "anonymous": false,
      "inputs": [
        {
          "indexed": false,
          "internalType": "address",
          "name": "_activePoolAddress",
          "type": "address"
        }
      ],
      "name": "ActivePoolAddressChanged",
      "type": "event"
    },
    {
      "anonymous": false,
      "inputs": [
        {
          "indexed": false,
          "internalType": "address",
          "name": "_collSurplusPoolAddress",
          "type": "address"
        }
      ],
      "name": "CollSurplusPoolAddressChanged",
      "type": "event"
    },
    {
      "anonymous": false,
      "inputs": [
        {
          "indexed": false,
          "internalType": "address",
          "name": "_debtTokenAddress",
          "type": "address"
        }
      ],
      "name": "DebtTokenAddressChanged",
      "type": "event"
    },
    {
      "anonymous": false,
      "inputs": [
        {
          "indexed": true,
          "internalType": "address",
          "name": "_borrower",
          "type": "address"
        },
        {
          "indexed": false,
          "internalType": "uint256",
          "name": "_debtTokenFee",
          "type": "uint256"
        }
      ],
      "name": "DebtTokenBorrowingFeePaid",
      "type": "event"
    },
    {
      "anonymous": false,
      "inputs": [
        {
          "indexed": false,
          "internalType": "address",
          "name": "_defaultPoolAddress",
          "type": "address"
        }
      ],
      "name": "DefaultPoolAddressChanged",
      "type": "event"
    },
    {
      "anonymous": false,
      "inputs": [
        {
          "indexed": false,
          "internalType": "address",
          "name": "_gasPoolAddress",
          "type": "address"
        }
      ],
      "name": "GasPoolAddressChanged",
      "type": "event"
    },
    {
      "anonymous": false,
      "inputs": [
        {
          "indexed": true,
          "internalType": "address",
          "name": "previousOwner",
          "type": "address"
        },
        {
          "indexed": true,
          "internalType": "address",
          "name": "newOwner",
          "type": "address"
        }
      ],
      "name": "OwnershipTransferred",
      "type": "event"
    },
    {
      "anonymous": false,
      "inputs": [
        {
          "indexed": false,
          "internalType": "address",
          "name": "_newPriceFeedAddress",
          "type": "address"
        }
      ],
      "name": "PriceFeedAddressChanged",
      "type": "event"
    },
    {
      "anonymous": false,
      "inputs": [
        {
          "indexed": false,
          "internalType": "address",
          "name": "_protocolTokenStakingAddress",
          "type": "address"
        }
      ],
      "name": "ProtocolTokenStakingAddressChanged",
      "type": "event"
    },
    {
      "anonymous": false,
      "inputs": [
        {
          "indexed": false,
          "internalType": "address",
          "name": "_sortedTrovesAddress",
          "type": "address"
        }
      ],
      "name": "SortedTrovesAddressChanged",
      "type": "event"
    },
    {
      "anonymous": false,
      "inputs": [
        {
          "indexed": false,
          "internalType": "address",
          "name": "_stabilityPoolAddress",
          "type": "address"
        }
      ],
      "name": "StabilityPoolAddressChanged",
      "type": "event"
    },
    {
      "anonymous": false,
      "inputs": [
        {
          "indexed": true,
          "internalType": "address",
          "name": "_borrower",
          "type": "address"
        },
        {
          "indexed": false,
          "internalType": "uint256",
          "name": "arrayIndex",
          "type": "uint256"
        }
      ],
      "name": "TroveCreated",
      "type": "event"
    },
    {
      "anonymous": false,
      "inputs": [
        {
          "indexed": false,
          "internalType": "address",
          "name": "_newTroveManagerAddress",
          "type": "address"
        }
      ],
      "name": "TroveManagerAddressChanged",
      "type": "event"
    },
    {
      "anonymous": false,
      "inputs": [
        {
          "indexed": true,
          "internalType": "address",
          "name": "_borrower",
          "type": "address"
        },
        {
          "indexed": false,
          "internalType": "uint256",
          "name": "_debt",
          "type": "uint256"
        },
        {
          "indexed": false,
          "internalType": "uint256",
          "name": "_coll",
          "type": "uint256"
        },
        {
          "indexed": false,
          "internalType": "uint256",
          "name": "stake",
          "type": "uint256"
        },
        {
          "indexed": false,
          "internalType": "enum IBorrowerOperations.BorrowerOperation",
          "name": "operation",
          "type": "uint8"
        }
      ],
      "name": "TroveUpdated",
      "type": "event"
    },
    {
      "inputs": [],
      "name": "BORROWING_FEE_FLOOR",
      "outputs": [
        {
          "internalType": "uint256",
          "name": "",
          "type": "uint256"
        }
      ],
      "stateMutability": "view",
      "type": "function"
    },
    {
      "inputs": [],
      "name": "CCR",
      "outputs": [
        {
          "internalType": "uint256",
          "name": "",
          "type": "uint256"
        }
      ],
      "stateMutability": "view",
      "type": "function"
    },
    {
      "inputs": [],
      "name": "DECIMAL_PRECISION",
      "outputs": [
        {
          "internalType": "uint256",
          "name": "",
          "type": "uint256"
        }
      ],
      "stateMutability": "view",
      "type": "function"
    },
    {
      "inputs": [],
      "name": "GAS_COMPENSATION",
      "outputs": [
        {
          "internalType": "uint256",
          "name": "",
          "type": "uint256"
        }
      ],
      "stateMutability": "view",
      "type": "function"
    },
    {
      "inputs": [],
      "name": "MCR",
      "outputs": [
        {
          "internalType": "uint256",
          "name": "",
          "type": "uint256"
        }
      ],
      "stateMutability": "view",
      "type": "function"
    },
    {
      "inputs": [],
      "name": "MIN_NET_DEBT",
      "outputs": [
        {
          "internalType": "uint256",
          "name": "",
          "type": "uint256"
        }
      ],
      "stateMutability": "view",
      "type": "function"
    },
    {
      "inputs": [],
      "name": "NAME",
      "outputs": [
        {
          "internalType": "string",
          "name": "",
          "type": "string"
        }
      ],
      "stateMutability": "view",
      "type": "function"
    },
    {
      "inputs": [],
      "name": "PERCENT_DIVISOR",
      "outputs": [
        {
          "internalType": "uint256",
          "name": "",
          "type": "uint256"
        }
      ],
      "stateMutability": "view",
      "type": "function"
    },
    {
      "inputs": [],
      "name": "_100pct",
      "outputs": [
        {
          "internalType": "uint256",
          "name": "",
          "type": "uint256"
        }
      ],
      "stateMutability": "view",
      "type": "function"
    },
    {
      "inputs": [],
      "name": "activePool",
      "outputs": [
        {
          "internalType": "contract IActivePool",
          "name": "",
          "type": "address"
        }
      ],
      "stateMutability": "view",
      "type": "function"
    },
    {
      "inputs": [
        {
          "internalType": "address",
          "name": "_upperHint",
          "type": "address"
        },
        {
          "internalType": "address",
          "name": "_lowerHint",
          "type": "address"
        }
      ],
      "name": "addColl",
      "outputs": [],
      "stateMutability": "payable",
      "type": "function"
    },
    {
      "inputs": [
        {
          "internalType": "uint256",
          "name": "_maxFeePercentage",
          "type": "uint256"
        },
        {
          "internalType": "uint256",
          "name": "_collWithdrawal",
          "type": "uint256"
        },
        {
          "internalType": "uint256",
          "name": "_debtTokenChange",
          "type": "uint256"
        },
        {
          "internalType": "bool",
          "name": "_isDebtIncrease",
          "type": "bool"
        },
        {
          "internalType": "address",
          "name": "_upperHint",
          "type": "address"
        },
        {
          "internalType": "address",
          "name": "_lowerHint",
          "type": "address"
        }
      ],
      "name": "adjustTrove",
      "outputs": [],
      "stateMutability": "payable",
      "type": "function"
    },
    {
      "inputs": [
        {
          "internalType": "address",
          "name": "_borrower",
          "type": "address"
        },
        {
          "internalType": "uint256",
          "name": "_collWithdrawal",
          "type": "uint256"
        },
        {
          "internalType": "uint256",
          "name": "_debtChange",
          "type": "uint256"
        },
        {
          "internalType": "bool",
          "name": "_isDebtIncrease",
          "type": "bool"
        },
        {
          "internalType": "address",
          "name": "_upperHint",
          "type": "address"
        },
        {
          "internalType": "address",
          "name": "_lowerHint",
          "type": "address"
        }
      ],
      "name": "callInternalAdjustLoan",
      "outputs": [],
      "stateMutability": "nonpayable",
      "type": "function"
    },
    {
      "inputs": [],
      "name": "claimCollateral",
      "outputs": [],
      "stateMutability": "nonpayable",
      "type": "function"
    },
    {
      "inputs": [],
      "name": "closeTrove",
      "outputs": [],
      "stateMutability": "nonpayable",
      "type": "function"
    },
    {
      "inputs": [],
      "name": "debtToken",
      "outputs": [
        {
          "internalType": "contract IDebtToken",
          "name": "",
          "type": "address"
        }
      ],
      "stateMutability": "view",
      "type": "function"
    },
    {
      "inputs": [],
      "name": "defaultPool",
      "outputs": [
        {
          "internalType": "contract IDefaultPool",
          "name": "",
          "type": "address"
        }
      ],
      "stateMutability": "view",
      "type": "function"
    },
    {
      "inputs": [
        {
          "internalType": "uint256",
          "name": "_debt",
          "type": "uint256"
        }
      ],
      "name": "getCompositeDebt",
      "outputs": [
        {
          "internalType": "uint256",
          "name": "",
          "type": "uint256"
        }
      ],
      "stateMutability": "view",
      "type": "function"
    },
    {
      "inputs": [],
      "name": "getEntireSystemColl",
      "outputs": [
        {
          "internalType": "uint256",
          "name": "entireSystemColl",
          "type": "uint256"
        }
      ],
      "stateMutability": "view",
      "type": "function"
    },
    {
      "inputs": [],
      "name": "getEntireSystemDebt",
      "outputs": [
        {
          "internalType": "uint256",
          "name": "entireSystemDebt",
          "type": "uint256"
        }
      ],
      "stateMutability": "view",
      "type": "function"
    },
    {
      "inputs": [
        {
          "internalType": "uint256",
          "name": "_coll",
          "type": "uint256"
        },
        {
          "internalType": "uint256",
          "name": "_debt",
          "type": "uint256"
        },
        {
          "internalType": "uint256",
          "name": "_collChange",
          "type": "uint256"
        },
        {
          "internalType": "bool",
          "name": "isCollIncrease",
          "type": "bool"
        },
        {
          "internalType": "uint256",
          "name": "_debtChange",
          "type": "uint256"
        },
        {
          "internalType": "bool",
          "name": "isDebtIncrease",
          "type": "bool"
        },
        {
          "internalType": "uint256",
          "name": "_price",
          "type": "uint256"
        }
      ],
      "name": "getNewICRFromTroveChange",
      "outputs": [
        {
          "internalType": "uint256",
          "name": "",
          "type": "uint256"
        }
      ],
      "stateMutability": "pure",
      "type": "function"
    },
    {
      "inputs": [
        {
          "internalType": "uint256",
          "name": "_collChange",
          "type": "uint256"
        },
        {
          "internalType": "bool",
          "name": "isCollIncrease",
          "type": "bool"
        },
        {
          "internalType": "uint256",
          "name": "_debtChange",
          "type": "uint256"
        },
        {
          "internalType": "bool",
          "name": "isDebtIncrease",
          "type": "bool"
        },
        {
          "internalType": "uint256",
          "name": "_price",
          "type": "uint256"
        }
      ],
      "name": "getNewTCRFromTroveChange",
      "outputs": [
        {
          "internalType": "uint256",
          "name": "",
          "type": "uint256"
        }
      ],
      "stateMutability": "view",
      "type": "function"
    },
    {
      "inputs": [
        {
          "internalType": "uint256",
          "name": "_coll",
          "type": "uint256"
        },
        {
          "internalType": "uint256",
          "name": "_price",
          "type": "uint256"
        }
      ],
      "name": "getUSDValue",
      "outputs": [
        {
          "internalType": "uint256",
          "name": "",
          "type": "uint256"
        }
      ],
      "stateMutability": "pure",
      "type": "function"
    },
    {
      "inputs": [],
      "name": "isOwner",
      "outputs": [
        {
          "internalType": "bool",
          "name": "",
          "type": "bool"
        }
      ],
      "stateMutability": "view",
      "type": "function"
    },
    {
      "inputs": [
        {
          "internalType": "address",
          "name": "_borrower",
          "type": "address"
        },
        {
          "internalType": "address",
          "name": "_upperHint",
          "type": "address"
        },
        {
          "internalType": "address",
          "name": "_lowerHint",
          "type": "address"
        }
      ],
      "name": "moveFILGainToTrove",
      "outputs": [],
      "stateMutability": "payable",
      "type": "function"
    },
    {
      "inputs": [
        {
          "internalType": "uint256",
          "name": "_maxFeePercentage",
          "type": "uint256"
        },
        {
          "internalType": "uint256",
          "name": "_debtTokenAmount",
          "type": "uint256"
        },
        {
          "internalType": "address",
          "name": "_upperHint",
          "type": "address"
        },
        {
          "internalType": "address",
          "name": "_lowerHint",
          "type": "address"
        }
      ],
      "name": "openTrove",
      "outputs": [],
      "stateMutability": "payable",
      "type": "function"
    },
    {
      "inputs": [],
      "name": "owner",
      "outputs": [
        {
          "internalType": "address",
          "name": "",
          "type": "address"
        }
      ],
      "stateMutability": "view",
      "type": "function"
    },
    {
      "inputs": [],
      "name": "priceFeed",
      "outputs": [
        {
          "internalType": "contract IPriceFeed",
          "name": "",
          "type": "address"
        }
      ],
      "stateMutability": "view",
      "type": "function"
    },
    {
      "inputs": [],
      "name": "protocolTokenStaking",
      "outputs": [
        {
          "internalType": "contract IProtocolTokenStaking",
          "name": "",
          "type": "address"
        }
      ],
      "stateMutability": "view",
      "type": "function"
    },
    {
      "inputs": [],
      "name": "protocolTokenStakingAddress",
      "outputs": [
        {
          "internalType": "address",
          "name": "",
          "type": "address"
        }
      ],
      "stateMutability": "view",
      "type": "function"
    },
    {
      "inputs": [
        {
          "internalType": "uint256",
          "name": "_debtTokenAmount",
          "type": "uint256"
        },
        {
          "internalType": "address",
          "name": "_upperHint",
          "type": "address"
        },
        {
          "internalType": "address",
          "name": "_lowerHint",
          "type": "address"
        }
      ],
      "name": "repayDebtToken",
      "outputs": [],
      "stateMutability": "nonpayable",
      "type": "function"
    },
    {
      "inputs": [
        {
          "internalType": "address",
          "name": "_troveManagerAddress",
          "type": "address"
        },
        {
          "internalType": "address",
          "name": "_activePoolAddress",
          "type": "address"
        },
        {
          "internalType": "address",
          "name": "_defaultPoolAddress",
          "type": "address"
        },
        {
          "internalType": "address",
          "name": "_stabilityPoolAddress",
          "type": "address"
        },
        {
          "internalType": "address",
          "name": "_gasPoolAddress",
          "type": "address"
        },
        {
          "internalType": "address",
          "name": "_collSurplusPoolAddress",
          "type": "address"
        },
        {
          "internalType": "address",
          "name": "_priceFeedAddress",
          "type": "address"
        },
        {
          "internalType": "address",
          "name": "_sortedTrovesAddress",
          "type": "address"
        },
        {
          "internalType": "address",
          "name": "_debtTokenAddress",
          "type": "address"
        },
        {
          "internalType": "address",
          "name": "_protocolTokenStakingAddress",
          "type": "address"
        }
      ],
      "name": "setAddresses",
      "outputs": [],
      "stateMutability": "nonpayable",
      "type": "function"
    },
    {
      "inputs": [],
      "name": "sortedTroves",
      "outputs": [
        {
          "internalType": "contract ISortedTroves",
          "name": "",
          "type": "address"
        }
      ],
      "stateMutability": "view",
      "type": "function"
    },
    {
      "inputs": [],
      "name": "troveManager",
      "outputs": [
        {
          "internalType": "contract ITroveManager",
          "name": "",
          "type": "address"
        }
      ],
      "stateMutability": "view",
      "type": "function"
    },
    {
      "inputs": [
        {
          "internalType": "uint256",
          "name": "_collWithdrawal",
          "type": "uint256"
        },
        {
          "internalType": "address",
          "name": "_upperHint",
          "type": "address"
        },
        {
          "internalType": "address",
          "name": "_lowerHint",
          "type": "address"
        }
      ],
      "name": "withdrawColl",
      "outputs": [],
      "stateMutability": "nonpayable",
      "type": "function"
    },
    {
      "inputs": [
        {
          "internalType": "uint256",
          "name": "_maxFeePercentage",
          "type": "uint256"
        },
        {
          "internalType": "uint256",
          "name": "_debtTokenAmount",
          "type": "uint256"
        },
        {
          "internalType": "address",
          "name": "_upperHint",
          "type": "address"
        },
        {
          "internalType": "address",
          "name": "_lowerHint",
          "type": "address"
        }
      ],
      "name": "withdrawDebtToken",
      "outputs": [],
      "stateMutability": "nonpayable",
      "type": "function"
    },
    {
      "stateMutability": "payable",
      "type": "receive"
    }
  ],
  "bytecode": "0x60c060405234801561001057600080fd5b50604051613b8d380380613b8d8339818101604052604081101561003357600080fd5b508051602090910151608082905260a0819052600380546001600160a01b03191633908117909155604051839183916000907f8be0079c531659141344cd1fd0a4f28419497f9722a3daafe3b4186f6b6457e0908290a35050505060805160a051613aa56100e860003980610c695280610daa528061261c5280612b03525080610a0f5280610b735280610bb25280610c455280611865528061244052806125485280612f1f5280612f495250613aa56000f3fe6080604052600436106101d35760003560e01c80636f30d212116100f85780638da5cb5b116100905780638da5cb5b1461067a5780638f32d59b1461068f578063a20baee61461057c578063a3f4df7e146106b8578063ae91875414610742578063c6a6cf2014610757578063e54524231461079f578063f8d89898146107b4578063f92d3433146107c9576101da565b80636f30d2121461054c57806372fe25aa1461057c578063741bef1a14610591578063794e5724146105a6578063795d26c3146105bb5780637f7dde4a146105d0578063860665b3146105e557806387eb305d1461061f578063887105d314610665576101da565b80634ff814431161016b5780634ff814431461035d57806351584ca4146103875780635530273c146103d95780635733d58f1461041a57806357aae46b1461042f57806362a0d7991461044457806368647db11461048b5780636c37a4af146104b95780636f0b0c1c14610537576101da565b80630802c78a146101df5780630e43d8ce146102225780630e704d501461025a578063139f2e8c1461026f5780631bf43555146102965780632cdcd722146102ab5780633cc74225146103025780633d83908a146103335780634870dd9a14610348576101da565b366101da57005b600080fd5b3480156101eb57600080fd5b506102206004803603606081101561020257600080fd5b508035906001600160a01b03602082013581169160400135166107de565b005b6102206004803603606081101561023857600080fd5b506001600160a01b0381358116916020810135821691604090910135166107f5565b34801561026657600080fd5b5061022061080f565b34801561027b57600080fd5b50610284610c43565b60408051918252519081900360200190f35b3480156102a257600080fd5b50610284610c67565b3480156102b757600080fd5b50610220600480360360c08110156102ce57600080fd5b506001600160a01b0381358116916020810135916040820135916060810135151591608082013581169160a0013516610c8b565b34801561030e57600080fd5b50610317610ca3565b604080516001600160a01b039092168252519081900360200190f35b34801561033f57600080fd5b50610317610cb2565b34801561035457600080fd5b50610284610cc1565b34801561036957600080fd5b506102846004803603602081101561038057600080fd5b5035610cc6565b34801561039357600080fd5b50610284600480360360e08110156103aa57600080fd5b50803590602081013590604081013590606081013515159060808101359060a081013515159060c00135610cd7565b3480156103e557600080fd5b50610220600480360360608110156103fc57600080fd5b508035906001600160a01b0360208201358116916040013516610cf4565b34801561042657600080fd5b50610284610d05565b34801561043b57600080fd5b50610317610d11565b34801561045057600080fd5b506102206004803603608081101561046757600080fd5b508035906020810135906001600160a01b0360408201358116916060013516610d20565b610220600480360360408110156104a157600080fd5b506001600160a01b0381358116916020013516610d37565b3480156104c557600080fd5b5061022060048036036101408110156104dd57600080fd5b506001600160a01b038135811691602081013582169160408201358116916060810135821691608082013581169160a081013582169160c082013581169160e0810135821691610100820135811691610120013516610d4d565b34801561054357600080fd5b5061022061113a565b34801561055857600080fd5b506102846004803603604081101561056f57600080fd5b508035906020013561119a565b34801561058857600080fd5b506102846111ad565b34801561059d57600080fd5b506103176111b9565b3480156105b257600080fd5b506102846111c8565b3480156105c757600080fd5b506102846111d4565b3480156105dc57600080fd5b506103176112cf565b610220600480360360808110156105fb57600080fd5b508035906020810135906001600160a01b03604082013581169160600135166112de565b34801561062b57600080fd5b50610284600480360360a081101561064257600080fd5b508035906020810135151590604081013590606081013515159060800135611926565b34801561067157600080fd5b5061028461193f565b34801561068657600080fd5b506103176119fb565b34801561069b57600080fd5b506106a4611a0a565b604080519115158252519081900360200190f35b3480156106c457600080fd5b506106cd611a1b565b6040805160208082528351818301528351919283929083019185019080838360005b838110156107075781810151838201526020016106ef565b50505050905090810190601f1680156107345780820380516001836020036101000a031916815260200191505b509250505060405180910390f35b34801561074e57600080fd5b50610317611a49565b610220600480360360c081101561076d57600080fd5b5080359060208101359060408101359060608101351515906001600160a01b03608082013581169160a0013516611a58565b3480156107ab57600080fd5b50610317611a67565b3480156107c057600080fd5b50610317611a76565b3480156107d557600080fd5b50610284611a85565b6107f033600085600086866000611a90565b505050565b6107fd612063565b6107f083600080600086866000611a90565b600454600054600a546001600160a01b0392831692918216911661083383336120ae565b60025460408051630fdb11cf60e01b815290516000926001600160a01b031691630fdb11cf91600480830192602092919082900301818787803b15801561087957600080fd5b505af115801561088d573d6000803e3d6000fd5b505050506040513d60208110156108a357600080fd5b505190506108b08161216a565b60408051630b07655760e01b815233600482015290516001600160a01b03861691630b07655791602480830192600092919082900301818387803b1580156108f757600080fd5b505af115801561090b573d6000803e3d6000fd5b505050506000846001600160a01b031663480cd578336040518263ffffffff1660e01b815260040180826001600160a01b0316815260200191505060206040518083038186803b15801561095e57600080fd5b505afa158015610972573d6000803e3d6000fd5b505050506040513d602081101561098857600080fd5b50516040805163d66a255360e01b815233600482015290519192506000916001600160a01b0388169163d66a2553916024808301926020929190829003018186803b1580156109d657600080fd5b505afa1580156109ea573d6000803e3d6000fd5b505050506040513d6020811015610a0057600080fd5b50519050610a388433610a33847f00000000000000000000000000000000000000000000000000000000000000006121b2565b6121f4565b6000610a49836000846000886122ab565b9050610a548161231e565b60408051631fc5750960e31b815233600482015290516001600160a01b0389169163fe2ba84891602480830192600092919082900301818387803b158015610a9b57600080fd5b505af1158015610aaf573d6000803e3d6000fd5b5050604080516365e89c5760e11b815233600482015290516001600160a01b038b16935063cbd138ae9250602480830192600092919082900301818387803b158015610afa57600080fd5b505af1158015610b0e573d6000803e3d6000fd5b50505050336001600160a01b031660008051602061383f8339815191526000806000600160405180858152602001848152602001838152602001826002811115610b5457fe5b815260200194505050505060405180910390a2610b9c868633610b97867f00000000000000000000000000000000000000000000000000000000000000006121b2565b612365565b600654610bd690879087906001600160a01b03167f0000000000000000000000000000000000000000000000000000000000000000612365565b60408051628063a560e01b81523360048201526024810185905290516001600160a01b03881691628063a591604480830192600092919082900301818387803b158015610c2257600080fd5b505af1158015610c36573d6000803e3d6000fd5b5050505050505050505050565b7f000000000000000000000000000000000000000000000000000000000000000081565b7f000000000000000000000000000000000000000000000000000000000000000081565b610c9b8686868686866000611a90565b505050505050565b6001546001600160a01b031681565b6004546001600160a01b031681565b60c881565b6000610cd182612438565b92915050565b6000610ce888888888888888612464565b98975050505050505050565b6107f0338460008086866000611a90565b6714d1120d7b16000081565b6009546001600160a01b031681565b610d3133600085600186868a611a90565b50505050565b610d4933600080600086866000611a90565b5050565b610d55611a0a565b610da6576040805162461bcd60e51b815260206004820181905260248201527f4f776e61626c653a2063616c6c6572206973206e6f7420746865206f776e6572604482015290519081900360640190fd5b60007f000000000000000000000000000000000000000000000000000000000000000011610dd057fe5b610dd98a612497565b610de289612497565b610deb88612497565b610df487612497565b610dfd86612497565b610e0685612497565b610e0f84612497565b610e1883612497565b610e2182612497565b610e2a81612497565b610e338a612546565b610e3c87612546565b600480546001600160a01b03199081166001600160a01b038d81169182179093556000805483168d85161790556001805483168c85161790556005805483168b85161790556006805483168a8516179055600780548316898516179055600280548316888516179055600b80548316878516179055600a80548316868516179055600980548316938516938417905560088054909216909217905560408051918252517f143219c9e69b09e07e095fcc889b43d8f46ca892bba65f08dc3a0050869a5678916020908290030190a1604080516001600160a01b038b16815290517f78f058b189175430c48dc02699e3a0031ea4ff781536dc2fab847de4babdd8829181900360200190a1604080516001600160a01b038a16815290517f5ee0cae2f063ed938bb55046f6a932fb6ae792bf43624806bb90abe68a50be9b9181900360200190a1604080516001600160a01b038916815290517f82966d27eea39b038ee0fa30cd16532bb24f6e65d31cb58fb227aa5766cdcc7f9181900360200190a1604080516001600160a01b038816815290517fcfb07d791fcafc032b35837b50eb84b74df518cf4cc287e8084f47630fa70fa09181900360200190a1604080516001600160a01b038716815290517fe67f36a6e961157d6eff83b91f3af5a62131ceb6f04954ef74f51c1c05e7f88d9181900360200190a1604080516001600160a01b038616815290517f8c537274438aa850a330284665d81a85dd38267d09e4050d416bfc94142db2649181900360200190a1604080516001600160a01b038516815290517f65f4cf077bc01e4742eb5ad98326f6e95b63548ea24b17f8d5e823111fe788009181900360200190a1604080516001600160a01b038416815290517f112220fa8dbe96141556e0dc3d74dd95075b323f4f297616048e02d82d7017159181900360200190a1604080516001600160a01b038316815290517ff81a824d1d9030c0365252fb96daf0565f9c2007c88e13001379dda7f06d5d5c9181900360200190a161112e6126ea565b50505050505050505050565b6007546040805163b32beb5b60e01b815233600482015290516001600160a01b039092169163b32beb5b9160248082019260009290919082900301818387803b15801561118657600080fd5b505af1158015610d31573d6000803e3d6000fd5b60006111a68383612734565b9392505050565b670de0b6b3a764000081565b6002546001600160a01b031681565b670f43fc2c04ee000081565b60008054604080516314a6bf0f60e01b8152905183926001600160a01b0316916314a6bf0f916004808301926020929190829003018186803b15801561121957600080fd5b505afa15801561122d573d6000803e3d6000fd5b505050506040513d602081101561124357600080fd5b5051600154604080516314a6bf0f60e01b815290519293506000926001600160a01b03909216916314a6bf0f91600480820192602092909190829003018186803b15801561129057600080fd5b505afa1580156112a4573d6000803e3d6000fd5b505050506040513d60208110156112ba57600080fd5b505190506112c8828261275b565b9250505090565b6000546001600160a01b031681565b604080516060810182526004546001600160a01b03908116825260005481166020830152600a5416918101919091526113156135b2565b600260009054906101000a90046001600160a01b03166001600160a01b0316630fdb11cf6040518163ffffffff1660e01b8152600401602060405180830381600087803b15801561136557600080fd5b505af1158015611379573d6000803e3d6000fd5b505050506040513d602081101561138f57600080fd5b50518082526000906113a0906127b5565b90506113ac87826127d2565b82516113b8903361287e565b60408201869052806113f3576113d883600001518460400151888a612951565b6020830181905260408301516113ed9161275b565b60408301525b6114008260400151612b01565b61140d8260400151612438565b6060830181905261141a57fe5b61142d3483606001518460000151612b60565b60808301526060820151611442903490612b8c565b60a0830152801561145f5761145a8260800151612bbb565b611492565b61146c8260800151612c02565b60006114853460018560600151600187600001516122ab565b90506114908161231e565b505b825160408051635d6b480f60e01b81523360048201526001602482015290516001600160a01b0390921691635d6b480f9160448082019260009290919082900301818387803b1580156114e457600080fd5b505af11580156114f8573d6000803e3d6000fd5b50508451604080516372423c1760e01b815233600482015234602482015290516001600160a01b0390921693506372423c1792506044808201926020929091908290030181600087803b15801561154e57600080fd5b505af1158015611562573d6000803e3d6000fd5b505050506040513d602081101561157857600080fd5b50508251606083015160408051639976cf4560e01b81523360048201526024810192909252516001600160a01b0390921691639976cf45916044808201926020929091908290030181600087803b1580156115d257600080fd5b505af11580156115e6573d6000803e3d6000fd5b505050506040513d60208110156115fc57600080fd5b50508251604080516382fe3eb960e01b815233600482015290516001600160a01b03909216916382fe3eb99160248082019260009290919082900301818387803b15801561164957600080fd5b505af115801561165d573d6000803e3d6000fd5b5050505082600001516001600160a01b03166318f2817a336040518263ffffffff1660e01b815260040180826001600160a01b03168152602001915050602060405180830381600087803b1580156116b457600080fd5b505af11580156116c8573d6000803e3d6000fd5b505050506040513d60208110156116de57600080fd5b505160c0830152600b5460a0830151604080516346f7cf8760e01b815233600482015260248101929092526001600160a01b038881166044840152878116606484015290519216916346f7cf879160848082019260009290919082900301818387803b15801561174d57600080fd5b505af1158015611761573d6000803e3d6000fd5b5050505082600001516001600160a01b03166315d549f1336040518263ffffffff1660e01b815260040180826001600160a01b03168152602001915050602060405180830381600087803b1580156117b857600080fd5b505af11580156117cc573d6000803e3d6000fd5b505050506040513d60208110156117e257600080fd5b505160e08301819052604080519182525133917f59cfd0cd754bc5748b6770e94a4ffa5f678d885cb899dcfadc5734edb97c67ab919081900360200190a261182e836020015134612c49565b6118478360200151846040015133898660400151612cd9565b6020830151604084015160065461188a9291906001600160a01b03167f000000000000000000000000000000000000000000000000000000000000000080612cd9565b336001600160a01b031660008051602061383f8339815191528360600151348560c001516000604051808581526020018481526020018381526020018260028111156118d257fe5b815260200194505050505060405180910390a2602080830151604080519182525133927fefe9137e0c60d14b7f57a84d5b68f55a648dd9fa7b01747d4ec305a3c8974c01928290030190a250505050505050565b600061193586868686866122ab565b9695505050505050565b60008054604080516362e1c9bf60e11b8152905183926001600160a01b03169163c5c3937e916004808301926020929190829003018186803b15801561198457600080fd5b505afa158015611998573d6000803e3d6000fd5b505050506040513d60208110156119ae57600080fd5b5051600154604080516362e1c9bf60e11b815290519293506000926001600160a01b039092169163c5c3937e91600480820192602092909190829003018186803b15801561129057600080fd5b6003546001600160a01b031690565b6003546001600160a01b0316331490565b60405180604001604052806012815260200171426f72726f7765724f7065726174696f6e7360701b81525081565b600b546001600160a01b031681565b610c9b3386868686868c611a90565b6008546001600160a01b031681565b600a546001600160a01b031681565b6611c37937e0800081565b604080516060810182526004546001600160a01b03908116825260005481166020830152600a541691810191909152611ac76135f7565b600260009054906101000a90046001600160a01b03166001600160a01b0316630fdb11cf6040518163ffffffff1660e01b8152600401602060405180830381600087803b158015611b1757600080fd5b505af1158015611b2b573d6000803e3d6000fd5b505050506040513d6020811015611b4157600080fd5b5051808252600090611b52906127b5565b90508615611b6d57611b6484826127d2565b611b6d88612dad565b611b7689612dec565b611b808989612e32565b8251611b8c908b6120ae565b336001600160a01b038b161480611bc257506005546001600160a01b031633148015611bb85750600034115b8015611bc2575087155b611bc857fe5b82600001516001600160a01b0316630b0765578b6040518263ffffffff1660e01b815260040180826001600160a01b03168152602001915050600060405180830381600087803b158015611c1b57600080fd5b505af1158015611c2f573d6000803e3d6000fd5b50505050611c3d348a612e84565b15156060840152602083015260408201889052868015611c5b575080155b15611c9057611c74836000015184604001518a87612951565b61012083018190526040830151611c8a9161275b565b60408301525b82600001516001600160a01b031663d66a25538b6040518263ffffffff1660e01b815260040180826001600160a01b0316815260200191505060206040518083038186803b158015611ce157600080fd5b505afa158015611cf5573d6000803e3d6000fd5b505050506040513d6020811015611d0b57600080fd5b505160808301528251604080516309019aaf60e31b81526001600160a01b038d811660048301529151919092169163480cd578916024808301926020929190829003018186803b158015611d5e57600080fd5b505afa158015611d72573d6000803e3d6000fd5b505050506040513d6020811015611d8857600080fd5b505160a0830181905260808301518351611da3929190612b60565b8260c0018181525050611dd38260a0015183608001518460200151856060015186604001518c8860000151612464565b60e083015260a0820151891115611de657fe5b611df2818a8985612ea3565b86158015611e005750600088115b15611e4d57611e28611e238360400151611e1d8560800151612f17565b906121b2565b612b01565b611e3a82608001518360400151612f43565b611e4d83604001518b84604001516121f4565b611e6b83600001518b8460200151856060015186604001518c612fab565b610140840152610160830152825160408051630c7940bd60e11b81526001600160a01b038d81166004830152915191909216916318f2817a9160248083019260209291908290030181600087803b158015611ec557600080fd5b505af1158015611ed9573d6000803e3d6000fd5b505050506040513d6020811015611eef57600080fd5b505161018083015260a08201516080830151602084015160608501516040860151600094611f23949093909290918d6131e7565b600b546040805163015f109360e51b81526001600160a01b038f81166004830152602482018590528b811660448301528a811660648301529151939450911691632be212609160848082019260009290919082900301818387803b158015611f8a57600080fd5b505af1158015611f9e573d6000803e3d6000fd5b505050508a6001600160a01b031660008051602061383f833981519152846101400151856101600151866101800151600260405180858152602001848152602001838152602001826002811115611ff157fe5b815260200194505050505060405180910390a2610120830151604080519182525133917fefe9137e0c60d14b7f57a84d5b68f55a648dd9fa7b01747d4ec305a3c8974c01919081900360200190a2610c368460200151856040015133866020015187606001518e8e8a60400151613218565b6005546001600160a01b031633146120ac5760405162461bcd60e51b81526004018080602001828103825260298152602001806139a26029913960400191505060405180910390fd5b565b6000826001600160a01b03166321e37801836040518263ffffffff1660e01b815260040180826001600160a01b0316815260200191505060206040518083038186803b1580156120fd57600080fd5b505afa158015612111573d6000803e3d6000fd5b505050506040513d602081101561212757600080fd5b50519050600181146107f05760405162461bcd60e51b815260040180806020018281038252602e815260200180613811602e913960400191505060405180910390fd5b612173816127b5565b156121af5760405162461bcd60e51b81526004018080602001828103825260398152602001806136bf6039913960400191505060405180910390fd5b50565b60006111a683836040518060400160405280601e81526020017f536166654d6174683a207375627472616374696f6e206f766572666c6f7700008152506132c9565b80836001600160a01b03166370a08231846040518263ffffffff1660e01b815260040180826001600160a01b0316815260200191505060206040518083038186803b15801561224257600080fd5b505afa158015612256573d6000803e3d6000fd5b505050506040513d602081101561226c57600080fd5b505110156107f05760405162461bcd60e51b815260040180806020018281038252603f81526020018061389d603f913960400191505060405180910390fd5b6000806122b661193f565b905060006122c26111d4565b9050866122d8576122d382896121b2565b6122e2565b6122e2828961275b565b9150846122f8576122f381876121b2565b612302565b612302818761275b565b90506000612311838387612b60565b9998505050505050505050565b6714d1120d7b1600008110156121af5760405162461bcd60e51b81526004018080602001828103825260498152602001806137c86049913960600191505060405180910390fd5b836001600160a01b0316632a7ba1f7826040518263ffffffff1660e01b815260040180828152602001915050600060405180830381600087803b1580156123ab57600080fd5b505af11580156123bf573d6000803e3d6000fd5b50505050826001600160a01b0316639dc29fac83836040518363ffffffff1660e01b815260040180836001600160a01b0316815260200182815260200192505050600060405180830381600087803b15801561241a57600080fd5b505af115801561242e573d6000803e3d6000fd5b5050505050505050565b6000610cd1827f000000000000000000000000000000000000000000000000000000000000000061275b565b60008060006124778a8a8a8a8a8a613360565b915091506000612488838387612b60565b9b9a5050505050505050505050565b6001600160a01b0381166124f2576040805162461bcd60e51b815260206004820152601e60248201527f4163636f756e742063616e6e6f74206265207a65726f20616464726573730000604482015290519081900360640190fd5b803b80610d49576040805162461bcd60e51b815260206004820181905260248201527f4163636f756e7420636f64652073697a652063616e6e6f74206265207a65726f604482015290519081900360640190fd5b7f0000000000000000000000000000000000000000000000000000000000000000816001600160a01b031663139f2e8c6040518163ffffffff1660e01b815260040160206040518083038186803b1580156125a057600080fd5b505afa1580156125b4573d6000803e3d6000fd5b505050506040513d60208110156125ca57600080fd5b50511461261a576040805162461bcd60e51b815260206004820152601960248201527808e82a6be869e9aa08a9ca682a8929e9c40dad2e6dac2e8c6d603b1b604482015290519081900360640190fd5b7f0000000000000000000000000000000000000000000000000000000000000000816001600160a01b0316631bf435556040518163ffffffff1660e01b815260040160206040518083038186803b15801561267457600080fd5b505afa158015612688573d6000803e3d6000fd5b505050506040513d602081101561269e57600080fd5b5051146121af576040805162461bcd60e51b815260206004820152601560248201527409a929cbe9c8aa8be888a84a840dad2e6dac2e8c6d605b1b604482015290519081900360640190fd5b6003546040516000916001600160a01b0316907f8be0079c531659141344cd1fd0a4f28419497f9722a3daafe3b4186f6b6457e0908390a3600380546001600160a01b0319169055565b600080612753670de0b6b3a764000061274d85876133a3565b906133fc565b949350505050565b6000828201838110156111a6576040805162461bcd60e51b815260206004820152601b60248201527f536166654d6174683a206164646974696f6e206f766572666c6f770000000000604482015290519081900360640190fd5b6000806127c18361343e565b6714d1120d7b160000119392505050565b801561282457670de0b6b3a764000082111561281f5760405162461bcd60e51b815260040180806020018281038252603281526020018061372f6032913960400191505060405180910390fd5b610d49565b6611c37937e0800082108015906128435750670de0b6b3a76400008211155b610d495760405162461bcd60e51b81526004018080602001828103825260308152602001806139cb6030913960400191505060405180910390fd5b6000826001600160a01b03166321e37801836040518263ffffffff1660e01b815260040180826001600160a01b0316815260200191505060206040518083038186803b1580156128cd57600080fd5b505afa1580156128e1573d6000803e3d6000fd5b505050506040513d60208110156128f757600080fd5b5051905060018114156107f0576040805162461bcd60e51b815260206004820152601c60248201527f426f72726f7765724f70733a2054726f76652069732061637469766500000000604482015290519081900360640190fd5b6000846001600160a01b0316635dba4c4a6040518163ffffffff1660e01b8152600401600060405180830381600087803b15801561298e57600080fd5b505af11580156129a2573d6000803e3d6000fd5b505050506000856001600160a01b031663631203b0856040518263ffffffff1660e01b81526004018082815260200191505060206040518083038186803b1580156129ec57600080fd5b505afa158015612a00573d6000803e3d6000fd5b505050506040513d6020811015612a1657600080fd5b50519050612a25818585613462565b600854604080516358caad6960e11b81526004810184905290516001600160a01b039092169163b1955ad29160248082019260009290919082900301818387803b158015612a7257600080fd5b505af1158015612a86573d6000803e3d6000fd5b5050600954604080516340c10f1960e01b81526001600160a01b03928316600482015260248101869052905191891693506340c10f19925060448082019260009290919082900301818387803b158015612adf57600080fd5b505af1158015612af3573d6000803e3d6000fd5b509298975050505050505050565b7f00000000000000000000000000000000000000000000000000000000000000008110156121af5760405162461bcd60e51b815260040180806020018281038252603a815260200180613925603a913960400191505060405180910390fd5b60008215612b81576000612b788461274d87866133a3565b91506111a69050565b506000199392505050565b60008115612bb257612bab8261274d8568056bc75e2d631000006133a3565b9050610cd1565b50600019610cd1565b6714d1120d7b1600008110156121af5760405162461bcd60e51b81526004018080602001828103825260378152602001806136f86037913960400191505060405180910390fd5b670f43fc2c04ee00008110156121af5760405162461bcd60e51b81526004018080602001828103825260498152602001806138dc6049913960600191505060405180910390fd5b6040516000906001600160a01b0384169083908381818185875af1925050503d8060008114612c94576040519150601f19603f3d011682016040523d82523d6000602084013e612c99565b606091505b50509050806107f05760405162461bcd60e51b815260040180806020018281038252602d815260200180613662602d913960400191505060405180910390fd5b846001600160a01b0316632b7c7b11826040518263ffffffff1660e01b815260040180828152602001915050600060405180830381600087803b158015612d1f57600080fd5b505af1158015612d33573d6000803e3d6000fd5b50505050836001600160a01b03166340c10f1984846040518363ffffffff1660e01b815260040180836001600160a01b0316815260200182815260200192505050600060405180830381600087803b158015612d8e57600080fd5b505af1158015612da2573d6000803e3d6000fd5b505050505050505050565b600081116121af5760405162461bcd60e51b81526004018080602001828103825260378152602001806139fb6037913960400191505060405180910390fd5b341580612df7575080155b6121af5760405162461bcd60e51b815260040180806020018281038252603081526020018061368f6030913960400191505060405180910390fd5b34151580612e3f57508115155b80612e4957508015155b610d495760405162461bcd60e51b81526004018080602001828103825260468152602001806137616046913960600191505060405180910390fd5b6000808315612e9857508290506001612e9c565b8291505b9250929050565b8315612edc57612eb2836134d1565b8115612ed757612ec58160e00151612bbb565b612ed78160e001518260c0015161350e565b610d31565b612ee98160e00151612c02565b612f068160200151826060015183604001518585600001516122ab565b6101008201819052610d319061231e565b6000610cd1827f00000000000000000000000000000000000000000000000000000000000000006121b2565b612f6d827f00000000000000000000000000000000000000000000000000000000000000006121b2565b811115610d495760405162461bcd60e51b815260040180806020018281038252604381526020018061395f6043913960600191505060405180910390fd5b60008060008561303d57886001600160a01b031663d3d6f84389896040518363ffffffff1660e01b815260040180836001600160a01b0316815260200182815260200192505050602060405180830381600087803b15801561300c57600080fd5b505af1158015613020573d6000803e3d6000fd5b505050506040513d602081101561303657600080fd5b50516130c1565b886001600160a01b03166372423c1789896040518363ffffffff1660e01b815260040180836001600160a01b0316815260200182815260200192505050602060405180830381600087803b15801561309457600080fd5b505af11580156130a8573d6000803e3d6000fd5b505050506040513d60208110156130be57600080fd5b50515b905060008461315257896001600160a01b03166312610e928a886040518363ffffffff1660e01b815260040180836001600160a01b0316815260200182815260200192505050602060405180830381600087803b15801561312157600080fd5b505af1158015613135573d6000803e3d6000fd5b505050506040513d602081101561314b57600080fd5b50516131d6565b896001600160a01b0316639976cf458a886040518363ffffffff1660e01b815260040180836001600160a01b0316815260200182815260200192505050602060405180830381600087803b1580156131a957600080fd5b505af11580156131bd573d6000803e3d6000fd5b505050506040513d60208110156131d357600080fd5b50515b919a91995090975050505050505050565b60008060006131fa898989898989613360565b91509150600061320a8383612b8c565b9a9950505050505050505050565b81156132305761322b8888888685612cd9565b61323c565b61323c88888886612365565b83156132515761324c8886612c49565b61242e565b876001600160a01b0316628063a587876040518363ffffffff1660e01b815260040180836001600160a01b0316815260200182815260200192505050600060405180830381600087803b1580156132a757600080fd5b505af11580156132bb573d6000803e3d6000fd5b505050505050505050505050565b600081848411156133585760405162461bcd60e51b81526004018080602001828103825283818151815260200191508051906020019080838360005b8381101561331d578181015183820152602001613305565b50505050905090810190601f16801561334a5780820380516001836020036101000a031916815260200191505b509250505060405180910390fd5b505050900390565b600080878786613379576133748a896121b2565b613383565b6133838a8961275b565b9150846133995761339489876121b2565b6131d6565b6131d6898761275b565b6000826133b257506000610cd1565b828202828482816133bf57fe5b04146111a65760405162461bcd60e51b81526004018080602001828103825260218152602001806137a76021913960400191505060405180910390fd5b60006111a683836040518060400160405280601a81526020017f536166654d6174683a206469766973696f6e206279207a65726f00000000000081525061354d565b60008061344961193f565b905060006134556111d4565b9050612753828286612b60565b600061347a8361274d86670de0b6b3a76400006133a3565b905081811115610d31576040805162461bcd60e51b815260206004820152601d60248201527f4665652065786365656465642070726f7669646564206d6178696d756d000000604482015290519081900360640190fd5b80156121af5760405162461bcd60e51b815260040180806020018281038252603e81526020018061385f603e913960400191505060405180910390fd5b80821015610d495760405162461bcd60e51b815260040180806020018281038252603e815260200180613a32603e913960400191505060405180910390fd5b6000818361359c5760405162461bcd60e51b815260206004820181815283516024840152835190928392604490910191908501908083836000831561331d578181015183820152602001613305565b5060008385816135a857fe5b0495945050505050565b60405180610100016040528060008152602001600081526020016000815260200160008152602001600081526020016000815260200160008152602001600081525090565b604051806101a00160405280600081526020016000815260200160008152602001600015158152602001600081526020016000815260200160008152602001600081526020016000815260200160008152602001600081526020016000815260200160008152509056fe426f72726f7765724f70733a2053656e64696e672046494c20746f20416374697665506f6f6c206661696c6564426f72726f7765724f7065726174696f6e733a2043616e6e6f7420776974686472617720616e642061646420636f6c6c426f72726f7765724f70733a204f7065726174696f6e206e6f74207065726d697474656420647572696e67205265636f76657279204d6f6465426f72726f7765724f70733a204f7065726174696f6e206d757374206c656176652074726f7665207769746820494352203e3d204343524d6178206665652070657263656e74616765206d757374206c657373207468616e206f7220657175616c20746f2031303025426f72726f7765724f70733a205468657265206d75737420626520656974686572206120636f6c6c61746572616c206368616e6765206f7220612064656274206368616e6765536166654d6174683a206d756c7469706c69636174696f6e206f766572666c6f77426f72726f7765724f70733a20416e206f7065726174696f6e207468617420776f756c6420726573756c7420696e20544352203c20434352206973206e6f74207065726d6974746564426f72726f7765724f70733a2054726f766520646f6573206e6f74206578697374206f7220697320636c6f736564c3770d654ed33aeea6bf11ac8ef05d02a6a04ed4686dd2f624d853bbec43cc8b426f72726f7765724f70733a20436f6c6c61746572616c207769746864726177616c206e6f74207065726d6974746564205265636f76657279204d6f6465426f72726f7765724f70733a2043616c6c657220646f65736e74206861766520656e6f75676820746f6b656e7320746f206d616b652072657061796d656e74426f72726f7765724f70733a20416e206f7065726174696f6e207468617420776f756c6420726573756c7420696e20494352203c204d4352206973206e6f74207065726d6974746564426f72726f7765724f70733a2054726f76652773206e65742064656274206d7573742062652067726561746572207468616e206d696e696d756d426f72726f7765724f70733a20416d6f756e7420726570616964206d757374206e6f74206265206c6172676572207468616e207468652054726f766527732064656274426f72726f7765724f70733a2043616c6c6572206973206e6f742053746162696c69747920506f6f6c4d6178206665652070657263656e74616765206d757374206265206265747765656e20302e352520616e642031303025426f72726f7765724f70733a204465627420696e637265617365207265717569726573206e6f6e2d7a65726f20646562744368616e6765426f72726f7765724f70733a2043616e6e6f7420646563726561736520796f75722054726f766527732049435220696e205265636f76657279204d6f6465a264697066735822122010c49c6be696d77e920725f3fa7e03a6fc85ff62d3f6e5f065f09a1bffd16b8b64736f6c63430007060033",
  "linkReferences": {},
  "deployedLinkReferences": {}
}