{
  "_format": "hh-sol-artifact-1",
  "contractName": "BorrowerOperations",
  "sourceName": "contracts/BorrowerOperations.sol",
  "abi": [
    {
      "anonymous": false,
      "inputs": [
        {
          "indexed": false,
          "internalType": "address",
          "name": "_activePoolAddress",
          "type": "address"
        }
      ],
      "name": "ActivePoolAddressChanged",
      "type": "event"
    },
    {
      "anonymous": false,
      "inputs": [
        {
          "indexed": false,
          "internalType": "address",
          "name": "_collSurplusPoolAddress",
          "type": "address"
        }
      ],
      "name": "CollSurplusPoolAddressChanged",
      "type": "event"
    },
    {
      "anonymous": false,
      "inputs": [
        {
          "indexed": false,
          "internalType": "address",
          "name": "_debtTokenAddress",
          "type": "address"
        }
      ],
      "name": "DebtTokenAddressChanged",
      "type": "event"
    },
    {
      "anonymous": false,
      "inputs": [
        {
          "indexed": true,
          "internalType": "address",
          "name": "_borrower",
          "type": "address"
        },
        {
          "indexed": false,
          "internalType": "uint256",
          "name": "_debtTokenFee",
          "type": "uint256"
        }
      ],
      "name": "DebtTokenBorrowingFeePaid",
      "type": "event"
    },
    {
      "anonymous": false,
      "inputs": [
        {
          "indexed": false,
          "internalType": "address",
          "name": "_defaultPoolAddress",
          "type": "address"
        }
      ],
      "name": "DefaultPoolAddressChanged",
      "type": "event"
    },
    {
      "anonymous": false,
      "inputs": [
        {
          "indexed": false,
          "internalType": "address",
          "name": "_gasPoolAddress",
          "type": "address"
        }
      ],
      "name": "GasPoolAddressChanged",
      "type": "event"
    },
    {
      "anonymous": false,
      "inputs": [
        {
          "indexed": false,
          "internalType": "address",
          "name": "_lqtyStakingAddress",
          "type": "address"
        }
      ],
      "name": "LQTYStakingAddressChanged",
      "type": "event"
    },
    {
      "anonymous": false,
      "inputs": [
        {
          "indexed": true,
          "internalType": "address",
          "name": "previousOwner",
          "type": "address"
        },
        {
          "indexed": true,
          "internalType": "address",
          "name": "newOwner",
          "type": "address"
        }
      ],
      "name": "OwnershipTransferred",
      "type": "event"
    },
    {
      "anonymous": false,
      "inputs": [
        {
          "indexed": false,
          "internalType": "address",
          "name": "_newPriceFeedAddress",
          "type": "address"
        }
      ],
      "name": "PriceFeedAddressChanged",
      "type": "event"
    },
    {
      "anonymous": false,
      "inputs": [
        {
          "indexed": false,
          "internalType": "address",
          "name": "_sortedTrovesAddress",
          "type": "address"
        }
      ],
      "name": "SortedTrovesAddressChanged",
      "type": "event"
    },
    {
      "anonymous": false,
      "inputs": [
        {
          "indexed": false,
          "internalType": "address",
          "name": "_stabilityPoolAddress",
          "type": "address"
        }
      ],
      "name": "StabilityPoolAddressChanged",
      "type": "event"
    },
    {
      "anonymous": false,
      "inputs": [
        {
          "indexed": true,
          "internalType": "address",
          "name": "_borrower",
          "type": "address"
        },
        {
          "indexed": false,
          "internalType": "uint256",
          "name": "arrayIndex",
          "type": "uint256"
        }
      ],
      "name": "TroveCreated",
      "type": "event"
    },
    {
      "anonymous": false,
      "inputs": [
        {
          "indexed": false,
          "internalType": "address",
          "name": "_newTroveManagerAddress",
          "type": "address"
        }
      ],
      "name": "TroveManagerAddressChanged",
      "type": "event"
    },
    {
      "anonymous": false,
      "inputs": [
        {
          "indexed": true,
          "internalType": "address",
          "name": "_borrower",
          "type": "address"
        },
        {
          "indexed": false,
          "internalType": "uint256",
          "name": "_debt",
          "type": "uint256"
        },
        {
          "indexed": false,
          "internalType": "uint256",
          "name": "_coll",
          "type": "uint256"
        },
        {
          "indexed": false,
          "internalType": "uint256",
          "name": "stake",
          "type": "uint256"
        },
        {
          "indexed": false,
          "internalType": "enum BorrowerOperations.BorrowerOperation",
          "name": "operation",
          "type": "uint8"
        }
      ],
      "name": "TroveUpdated",
      "type": "event"
    },
    {
      "inputs": [],
      "name": "BORROWING_FEE_FLOOR",
      "outputs": [
        {
          "internalType": "uint256",
          "name": "",
          "type": "uint256"
        }
      ],
      "stateMutability": "view",
      "type": "function"
    },
    {
      "inputs": [],
      "name": "CCR",
      "outputs": [
        {
          "internalType": "uint256",
          "name": "",
          "type": "uint256"
        }
      ],
      "stateMutability": "view",
      "type": "function"
    },
    {
      "inputs": [],
      "name": "DECIMAL_PRECISION",
      "outputs": [
        {
          "internalType": "uint256",
          "name": "",
          "type": "uint256"
        }
      ],
      "stateMutability": "view",
      "type": "function"
    },
    {
      "inputs": [],
      "name": "GAS_COMPENSATION",
      "outputs": [
        {
          "internalType": "uint256",
          "name": "",
          "type": "uint256"
        }
      ],
      "stateMutability": "view",
      "type": "function"
    },
    {
      "inputs": [],
      "name": "MCR",
      "outputs": [
        {
          "internalType": "uint256",
          "name": "",
          "type": "uint256"
        }
      ],
      "stateMutability": "view",
      "type": "function"
    },
    {
      "inputs": [],
      "name": "MIN_NET_DEBT",
      "outputs": [
        {
          "internalType": "uint256",
          "name": "",
          "type": "uint256"
        }
      ],
      "stateMutability": "view",
      "type": "function"
    },
    {
      "inputs": [],
      "name": "NAME",
      "outputs": [
        {
          "internalType": "string",
          "name": "",
          "type": "string"
        }
      ],
      "stateMutability": "view",
      "type": "function"
    },
    {
      "inputs": [],
      "name": "PERCENT_DIVISOR",
      "outputs": [
        {
          "internalType": "uint256",
          "name": "",
          "type": "uint256"
        }
      ],
      "stateMutability": "view",
      "type": "function"
    },
    {
      "inputs": [],
      "name": "_100pct",
      "outputs": [
        {
          "internalType": "uint256",
          "name": "",
          "type": "uint256"
        }
      ],
      "stateMutability": "view",
      "type": "function"
    },
    {
      "inputs": [],
      "name": "activePool",
      "outputs": [
        {
          "internalType": "contract IActivePool",
          "name": "",
          "type": "address"
        }
      ],
      "stateMutability": "view",
      "type": "function"
    },
    {
      "inputs": [
        {
          "internalType": "address",
          "name": "_upperHint",
          "type": "address"
        },
        {
          "internalType": "address",
          "name": "_lowerHint",
          "type": "address"
        }
      ],
      "name": "addColl",
      "outputs": [],
      "stateMutability": "payable",
      "type": "function"
    },
    {
      "inputs": [
        {
          "internalType": "uint256",
          "name": "_maxFeePercentage",
          "type": "uint256"
        },
        {
          "internalType": "uint256",
          "name": "_collWithdrawal",
          "type": "uint256"
        },
        {
          "internalType": "uint256",
          "name": "_debtTokenChange",
          "type": "uint256"
        },
        {
          "internalType": "bool",
          "name": "_isDebtIncrease",
          "type": "bool"
        },
        {
          "internalType": "address",
          "name": "_upperHint",
          "type": "address"
        },
        {
          "internalType": "address",
          "name": "_lowerHint",
          "type": "address"
        }
      ],
      "name": "adjustTrove",
      "outputs": [],
      "stateMutability": "payable",
      "type": "function"
    },
    {
      "inputs": [],
      "name": "claimCollateral",
      "outputs": [],
      "stateMutability": "nonpayable",
      "type": "function"
    },
    {
      "inputs": [],
      "name": "closeTrove",
      "outputs": [],
      "stateMutability": "nonpayable",
      "type": "function"
    },
    {
      "inputs": [],
      "name": "debtToken",
      "outputs": [
        {
          "internalType": "contract IDebtToken",
          "name": "",
          "type": "address"
        }
      ],
      "stateMutability": "view",
      "type": "function"
    },
    {
      "inputs": [],
      "name": "defaultPool",
      "outputs": [
        {
          "internalType": "contract IDefaultPool",
          "name": "",
          "type": "address"
        }
      ],
      "stateMutability": "view",
      "type": "function"
    },
    {
      "inputs": [
        {
          "internalType": "uint256",
          "name": "_debt",
          "type": "uint256"
        }
      ],
      "name": "getCompositeDebt",
      "outputs": [
        {
          "internalType": "uint256",
          "name": "",
          "type": "uint256"
        }
      ],
      "stateMutability": "pure",
      "type": "function"
    },
    {
      "inputs": [],
      "name": "getEntireSystemColl",
      "outputs": [
        {
          "internalType": "uint256",
          "name": "entireSystemColl",
          "type": "uint256"
        }
      ],
      "stateMutability": "view",
      "type": "function"
    },
    {
      "inputs": [],
      "name": "getEntireSystemDebt",
      "outputs": [
        {
          "internalType": "uint256",
          "name": "entireSystemDebt",
          "type": "uint256"
        }
      ],
      "stateMutability": "view",
      "type": "function"
    },
    {
      "inputs": [],
      "name": "isOwner",
      "outputs": [
        {
          "internalType": "bool",
          "name": "",
          "type": "bool"
        }
      ],
      "stateMutability": "view",
      "type": "function"
    },
    {
      "inputs": [],
      "name": "lqtyStaking",
      "outputs": [
        {
          "internalType": "contract ILQTYStaking",
          "name": "",
          "type": "address"
        }
      ],
      "stateMutability": "view",
      "type": "function"
    },
    {
      "inputs": [],
      "name": "lqtyStakingAddress",
      "outputs": [
        {
          "internalType": "address",
          "name": "",
          "type": "address"
        }
      ],
      "stateMutability": "view",
      "type": "function"
    },
    {
      "inputs": [
        {
          "internalType": "address",
          "name": "_borrower",
          "type": "address"
        },
        {
          "internalType": "address",
          "name": "_upperHint",
          "type": "address"
        },
        {
          "internalType": "address",
          "name": "_lowerHint",
          "type": "address"
        }
      ],
      "name": "moveFILGainToTrove",
      "outputs": [],
      "stateMutability": "payable",
      "type": "function"
    },
    {
      "inputs": [
        {
          "internalType": "uint256",
          "name": "_maxFeePercentage",
          "type": "uint256"
        },
        {
          "internalType": "uint256",
          "name": "_debtTokenAmount",
          "type": "uint256"
        },
        {
          "internalType": "address",
          "name": "_upperHint",
          "type": "address"
        },
        {
          "internalType": "address",
          "name": "_lowerHint",
          "type": "address"
        }
      ],
      "name": "openTrove",
      "outputs": [],
      "stateMutability": "payable",
      "type": "function"
    },
    {
      "inputs": [],
      "name": "owner",
      "outputs": [
        {
          "internalType": "address",
          "name": "",
          "type": "address"
        }
      ],
      "stateMutability": "view",
      "type": "function"
    },
    {
      "inputs": [],
      "name": "priceFeed",
      "outputs": [
        {
          "internalType": "contract IPriceFeed",
          "name": "",
          "type": "address"
        }
      ],
      "stateMutability": "view",
      "type": "function"
    },
    {
      "inputs": [
        {
          "internalType": "uint256",
          "name": "_debtTokenAmount",
          "type": "uint256"
        },
        {
          "internalType": "address",
          "name": "_upperHint",
          "type": "address"
        },
        {
          "internalType": "address",
          "name": "_lowerHint",
          "type": "address"
        }
      ],
      "name": "repayDebtToken",
      "outputs": [],
      "stateMutability": "nonpayable",
      "type": "function"
    },
    {
      "inputs": [
        {
          "internalType": "address",
          "name": "_troveManagerAddress",
          "type": "address"
        },
        {
          "internalType": "address",
          "name": "_activePoolAddress",
          "type": "address"
        },
        {
          "internalType": "address",
          "name": "_defaultPoolAddress",
          "type": "address"
        },
        {
          "internalType": "address",
          "name": "_stabilityPoolAddress",
          "type": "address"
        },
        {
          "internalType": "address",
          "name": "_gasPoolAddress",
          "type": "address"
        },
        {
          "internalType": "address",
          "name": "_collSurplusPoolAddress",
          "type": "address"
        },
        {
          "internalType": "address",
          "name": "_priceFeedAddress",
          "type": "address"
        },
        {
          "internalType": "address",
          "name": "_sortedTrovesAddress",
          "type": "address"
        },
        {
          "internalType": "address",
          "name": "_debtTokenAddress",
          "type": "address"
        },
        {
          "internalType": "address",
          "name": "_lqtyStakingAddress",
          "type": "address"
        }
      ],
      "name": "setAddresses",
      "outputs": [],
      "stateMutability": "nonpayable",
      "type": "function"
    },
    {
      "inputs": [],
      "name": "sortedTroves",
      "outputs": [
        {
          "internalType": "contract ISortedTroves",
          "name": "",
          "type": "address"
        }
      ],
      "stateMutability": "view",
      "type": "function"
    },
    {
      "inputs": [],
      "name": "troveManager",
      "outputs": [
        {
          "internalType": "contract ITroveManager",
          "name": "",
          "type": "address"
        }
      ],
      "stateMutability": "view",
      "type": "function"
    },
    {
      "inputs": [
        {
          "internalType": "uint256",
          "name": "_collWithdrawal",
          "type": "uint256"
        },
        {
          "internalType": "address",
          "name": "_upperHint",
          "type": "address"
        },
        {
          "internalType": "address",
          "name": "_lowerHint",
          "type": "address"
        }
      ],
      "name": "withdrawColl",
      "outputs": [],
      "stateMutability": "nonpayable",
      "type": "function"
    },
    {
      "inputs": [
        {
          "internalType": "uint256",
          "name": "_maxFeePercentage",
          "type": "uint256"
        },
        {
          "internalType": "uint256",
          "name": "_debtTokenAmount",
          "type": "uint256"
        },
        {
          "internalType": "address",
          "name": "_upperHint",
          "type": "address"
        },
        {
          "internalType": "address",
          "name": "_lowerHint",
          "type": "address"
        }
      ],
      "name": "withdrawDebtToken",
      "outputs": [],
      "stateMutability": "nonpayable",
      "type": "function"
    }
  ],
  "bytecode": "0x608060405234801561001057600080fd5b50600380546001600160a01b031916339081179091556040516000907f8be0079c531659141344cd1fd0a4f28419497f9722a3daafe3b4186f6b6457e0908290a3613730806100606000396000f3fe6080604052600436106101a35760003560e01c8063741bef1a116100e25780638f32d59b116100855780638f32d59b14610539578063a20baee614610457578063a3a6401714610562578063a3f4df7e14610577578063ae91875414610601578063c6a6cf2014610616578063f8d898981461065e578063f92d343314610673576101a3565b8063741bef1a1461046c578063761ab22c14610481578063794e572414610496578063795d26c3146104ab5780637f7dde4a146104c0578063860665b3146104d5578063887105d31461050f5780638da5cb5b14610524576101a3565b80634ff814431161014a5780634ff81443146102cf5780635530273c146102f95780635733d58f1461033a57806362a0d7991461034f57806368647db1146103965780636c37a4af146103c45780636f0b0c1c1461044257806372fe25aa14610457576101a3565b80630802c78a146101a85780630e43d8ce146101eb5780630e704d5014610223578063139f2e8c146102385780631bf435551461025f5780633cc74225146102745780633d83908a146102a55780634870dd9a146102ba575b600080fd5b3480156101b457600080fd5b506101e9600480360360608110156101cb57600080fd5b508035906001600160a01b0360208201358116916040013516610688565b005b6101e96004803603606081101561020157600080fd5b506001600160a01b03813581169160208101358216916040909101351661069f565b34801561022f57600080fd5b506101e96106b9565b34801561024457600080fd5b5061024d610ab2565b60408051918252519081900360200190f35b34801561026b57600080fd5b5061024d610abf565b34801561028057600080fd5b50610289610acc565b604080516001600160a01b039092168252519081900360200190f35b3480156102b157600080fd5b50610289610adb565b3480156102c657600080fd5b5061024d610aea565b3480156102db57600080fd5b5061024d600480360360208110156102f257600080fd5b5035610aef565b34801561030557600080fd5b506101e96004803603606081101561031c57600080fd5b508035906001600160a01b0360208201358116916040013516610b00565b34801561034657600080fd5b5061024d610b11565b34801561035b57600080fd5b506101e96004803603608081101561037257600080fd5b508035906020810135906001600160a01b0360408201358116916060013516610b1d565b6101e9600480360360408110156103ac57600080fd5b506001600160a01b0381358116916020013516610b34565b3480156103d057600080fd5b506101e960048036036101408110156103e857600080fd5b506001600160a01b038135811691602081013582169160408201358116916060810135821691608082013581169160a081013582169160c082013581169160e0810135821691610100820135811691610120013516610b4a565b34801561044e57600080fd5b506101e9610efb565b34801561046357600080fd5b5061024d610f5b565b34801561047857600080fd5b50610289610f67565b34801561048d57600080fd5b50610289610f76565b3480156104a257600080fd5b5061024d610f85565b3480156104b757600080fd5b5061024d610f91565b3480156104cc57600080fd5b50610289611092565b6101e9600480360360808110156104eb57600080fd5b508035906020810135906001600160a01b03604082013581169160600135166110a1565b34801561051b57600080fd5b5061024d6116d6565b34801561053057600080fd5b50610289611792565b34801561054557600080fd5b5061054e6117a1565b604080519115158252519081900360200190f35b34801561056e57600080fd5b506102896117b2565b34801561058357600080fd5b5061058c6117c1565b6040805160208082528351818301528351919283929083019185019080838360005b838110156105c65781810151838201526020016105ae565b50505050905090810190601f1680156105f35780820380516001836020036101000a031916815260200191505b509250505060405180910390f35b34801561060d57600080fd5b506102896117ef565b6101e9600480360360c081101561062c57600080fd5b5080359060208101359060408101359060608101351515906001600160a01b03608082013581169160a00135166117fe565b34801561066a57600080fd5b50610289611815565b34801561067f57600080fd5b5061024d611824565b61069a3360008560008686600061182f565b505050565b6106a7611e2c565b61069a8360008060008686600061182f565b600454600054600a546001600160a01b039283169291821691166106dd8333611e77565b60025460408051630fdb11cf60e01b815290516000926001600160a01b031691630fdb11cf91600480830192602092919082900301818787803b15801561072357600080fd5b505af1158015610737573d6000803e3d6000fd5b505050506040513d602081101561074d57600080fd5b5051905061075a81611f3c565b60408051630b07655760e01b815233600482015290516001600160a01b03861691630b07655791602480830192600092919082900301818387803b1580156107a157600080fd5b505af11580156107b5573d6000803e3d6000fd5b5050604080516309019aaf60e31b81523360048201529051600093506001600160a01b038816925063480cd57891602480820192602092909190829003018186803b15801561080357600080fd5b505afa158015610817573d6000803e3d6000fd5b505050506040513d602081101561082d57600080fd5b50516040805163d66a255360e01b815233600482015290519192506000916001600160a01b0388169163d66a2553916024808301926020929190829003018186803b15801561087b57600080fd5b505afa15801561088f573d6000803e3d6000fd5b505050506040513d60208110156108a557600080fd5b505190506108cc84336108c784680ad78ebc5ac620000063ffffffff611f8416565b611fcd565b60006108dd8360008460008861208d565b90506108e881612118565b60408051631fc5750960e31b815233600482015290516001600160a01b0389169163fe2ba84891602480830192600092919082900301818387803b15801561092f57600080fd5b505af1158015610943573d6000803e3d6000fd5b5050604080516365e89c5760e11b815233600482015290516001600160a01b038b16935063cbd138ae9250602480830192600092919082900301818387803b15801561098e57600080fd5b505af11580156109a2573d6000803e3d6000fd5b50505050336001600160a01b03166000805160206134ca83398151915260008060006001604051808581526020018481526020018381526020018260028111156109e857fe5b60ff16815260200194505050505060405180910390a2610a22868633610a1d86680ad78ebc5ac620000063ffffffff611f8416565b61215f565b600654610a4590879087906001600160a01b0316680ad78ebc5ac620000061215f565b60408051628063a560e01b81523360048201526024810185905290516001600160a01b03881691628063a591604480830192600092919082900301818387803b158015610a9157600080fd5b505af1158015610aa5573d6000803e3d6000fd5b5050505050505050505050565b680ad78ebc5ac620000081565b686194049f30f720000081565b6001546001600160a01b031681565b6004546001600160a01b031681565b60c881565b6000610afa8261223b565b92915050565b61069a33846000808686600061182f565b6714d1120d7b16000081565b610b2e33600085600186868a61182f565b50505050565b610b463360008060008686600061182f565b5050565b610b526117a1565b610ba3576040805162461bcd60e51b815260206004820181905260248201527f4f776e61626c653a2063616c6c6572206973206e6f7420746865206f776e6572604482015290519081900360640190fd5b610bac8a612256565b610bb589612256565b610bbe88612256565b610bc787612256565b610bd086612256565b610bd985612256565b610be284612256565b610beb83612256565b610bf482612256565b610bfd81612256565b600480546001600160a01b03199081166001600160a01b038d81169182179093556000805483168d85161790556001805483168c85161790556005805483168b85161790556006805483168a8516179055600780548316898516179055600280548316888516179055600b80548316878516179055600a80548316868516179055600980548316938516938417905560088054909216909217905560408051918252517f143219c9e69b09e07e095fcc889b43d8f46ca892bba65f08dc3a0050869a5678916020908290030190a1604080516001600160a01b038b16815290517f78f058b189175430c48dc02699e3a0031ea4ff781536dc2fab847de4babdd8829181900360200190a1604080516001600160a01b038a16815290517f5ee0cae2f063ed938bb55046f6a932fb6ae792bf43624806bb90abe68a50be9b9181900360200190a1604080516001600160a01b038916815290517f82966d27eea39b038ee0fa30cd16532bb24f6e65d31cb58fb227aa5766cdcc7f9181900360200190a1604080516001600160a01b038816815290517fcfb07d791fcafc032b35837b50eb84b74df518cf4cc287e8084f47630fa70fa09181900360200190a1604080516001600160a01b038716815290517fe67f36a6e961157d6eff83b91f3af5a62131ceb6f04954ef74f51c1c05e7f88d9181900360200190a1604080516001600160a01b038616815290517f8c537274438aa850a330284665d81a85dd38267d09e4050d416bfc94142db2649181900360200190a1604080516001600160a01b038516815290517f65f4cf077bc01e4742eb5ad98326f6e95b63548ea24b17f8d5e823111fe788009181900360200190a1604080516001600160a01b038416815290517f112220fa8dbe96141556e0dc3d74dd95075b323f4f297616048e02d82d7017159181900360200190a1604080516001600160a01b038316815290517f756ebc192164c295bba134b5aacd72cc7aff8098a670d1f0a5f6b3a0b4ce67079181900360200190a1610eef612305565b50505050505050505050565b6007546040805163b32beb5b60e01b815233600482015290516001600160a01b039092169163b32beb5b9160248082019260009290919082900301818387803b158015610f4757600080fd5b505af1158015610b2e573d6000803e3d6000fd5b670de0b6b3a764000081565b6002546001600160a01b031681565b6009546001600160a01b031681565b670f43fc2c04ee000081565b60008054604080516314a6bf0f60e01b8152905183926001600160a01b0316916314a6bf0f916004808301926020929190829003018186803b158015610fd657600080fd5b505afa158015610fea573d6000803e3d6000fd5b505050506040513d602081101561100057600080fd5b5051600154604080516314a6bf0f60e01b815290519293506000926001600160a01b03909216916314a6bf0f91600480820192602092909190829003018186803b15801561104d57600080fd5b505afa158015611061573d6000803e3d6000fd5b505050506040513d602081101561107757600080fd5b5051905061108b828263ffffffff61234f16565b9250505090565b6000546001600160a01b031681565b6110a961321d565b50604080516060810182526004546001600160a01b03908116825260005481166020830152600a5416918101919091526110e161323d565b600260009054906101000a90046001600160a01b03166001600160a01b0316630fdb11cf6040518163ffffffff1660e01b8152600401602060405180830381600087803b15801561113157600080fd5b505af1158015611145573d6000803e3d6000fd5b505050506040513d602081101561115b57600080fd5b505180825260009061116c906123a9565b905061117887826123c6565b82516111849033612472565b60408201869052806111c5576111a483600001518460400151888a61254e565b6020830181905260408301516111bf9163ffffffff61234f16565b60408301525b6111d282604001516126fe565b6111df826040015161223b565b606083018190526111ec57fe5b6111ff3483606001518460000151612746565b60808301526060820151611214903490612784565b60a083015280156112315761122c82608001516127b9565b611264565b61123e8260800151612800565b600061125734600185606001516001876000015161208d565b905061126281612118565b505b825160408051635d6b480f60e01b81523360048201526001602482015290516001600160a01b0390921691635d6b480f9160448082019260009290919082900301818387803b1580156112b657600080fd5b505af11580156112ca573d6000803e3d6000fd5b50508451604080516372423c1760e01b815233600482015234602482015290516001600160a01b0390921693506372423c1792506044808201926020929091908290030181600087803b15801561132057600080fd5b505af1158015611334573d6000803e3d6000fd5b505050506040513d602081101561134a57600080fd5b50508251606083015160408051639976cf4560e01b81523360048201526024810192909252516001600160a01b0390921691639976cf45916044808201926020929091908290030181600087803b1580156113a457600080fd5b505af11580156113b8573d6000803e3d6000fd5b505050506040513d60208110156113ce57600080fd5b50508251604080516382fe3eb960e01b815233600482015290516001600160a01b03909216916382fe3eb99160248082019260009290919082900301818387803b15801561141b57600080fd5b505af115801561142f573d6000803e3d6000fd5b5050845160408051630c7940bd60e11b815233600482015290516001600160a01b0390921693506318f2817a92506024808201926020929091908290030181600087803b15801561147f57600080fd5b505af1158015611493573d6000803e3d6000fd5b505050506040513d60208110156114a957600080fd5b505160c0830152600b5460a0830151604080516346f7cf8760e01b815233600482015260248101929092526001600160a01b038881166044840152878116606484015290519216916346f7cf879160848082019260009290919082900301818387803b15801561151857600080fd5b505af115801561152c573d6000803e3d6000fd5b50508451604080516315d549f160e01b815233600482015290516001600160a01b0390921693506315d549f192506024808201926020929091908290030181600087803b15801561157c57600080fd5b505af1158015611590573d6000803e3d6000fd5b505050506040513d60208110156115a657600080fd5b505160e08301819052604080519182525133917f59cfd0cd754bc5748b6770e94a4ffa5f678d885cb899dcfadc5734edb97c67ab919081900360200190a26115f2836020015134612847565b61160b83602001518460400151338986604001516128d7565b602083015160408401516006546116379291906001600160a01b0316680ad78ebc5ac6200000806128d7565b336001600160a01b03166000805160206134ca8339815191528360600151348560c0015160006040518085815260200184815260200183815260200182600281111561167f57fe5b60ff16815260200194505050505060405180910390a2602080830151604080519182525133927fefe9137e0c60d14b7f57a84d5b68f55a648dd9fa7b01747d4ec305a3c8974c01928290030190a250505050505050565b60008054604080516362e1c9bf60e11b8152905183926001600160a01b03169163c5c3937e916004808301926020929190829003018186803b15801561171b57600080fd5b505afa15801561172f573d6000803e3d6000fd5b505050506040513d602081101561174557600080fd5b5051600154604080516362e1c9bf60e11b815290519293506000926001600160a01b039092169163c5c3937e91600480820192602092909190829003018186803b15801561104d57600080fd5b6003546001600160a01b031690565b6003546001600160a01b0316331490565b6008546001600160a01b031681565b60405180604001604052806012815260200171426f72726f7765724f7065726174696f6e7360701b81525081565b600b546001600160a01b031681565b61180d3386868686868c61182f565b505050505050565b600a546001600160a01b031681565b6611c37937e0800081565b61183761321d565b50604080516060810182526004546001600160a01b03908116825260005481166020830152600a54169181019190915261186f613282565b600260009054906101000a90046001600160a01b03166001600160a01b0316630fdb11cf6040518163ffffffff1660e01b8152600401602060405180830381600087803b1580156118bf57600080fd5b505af11580156118d3573d6000803e3d6000fd5b505050506040513d60208110156118e957600080fd5b50518082526000906118fa906123a9565b905086156119155761190c84826123c6565b611915886129b4565b61191e896129f3565b6119288989612a39565b8251611934908b611e77565b336001600160a01b038b16148061196a57506005546001600160a01b0316331480156119605750600034115b801561196a575087155b61197057fe5b82600001516001600160a01b0316630b0765578b6040518263ffffffff1660e01b815260040180826001600160a01b03166001600160a01b03168152602001915050600060405180830381600087803b1580156119cc57600080fd5b505af11580156119e0573d6000803e3d6000fd5b505050506119ee348a612a8b565b15156060840152602083015260408201889052868015611a0c575080155b15611a4757611a25836000015184604001518a8761254e565b61012083018190526040830151611a419163ffffffff61234f16565b60408301525b82600001516001600160a01b031663d66a25538b6040518263ffffffff1660e01b815260040180826001600160a01b03166001600160a01b0316815260200191505060206040518083038186803b158015611aa157600080fd5b505afa158015611ab5573d6000803e3d6000fd5b505050506040513d6020811015611acb57600080fd5b505160808301528251604080516309019aaf60e31b81526001600160a01b038d811660048301529151919092169163480cd578916024808301926020929190829003018186803b158015611b1e57600080fd5b505afa158015611b32573d6000803e3d6000fd5b505050506040513d6020811015611b4857600080fd5b505160a0830181905260808301518351611b63929190612746565b8260c0018181525050611b938260a0015183608001518460200151856060015186604001518c8860000151612aaa565b60e083015260a0820151891115611ba657fe5b611bb2818a8985612add565b86158015611bc05750600088115b15611c1357611bee611be98360400151611bdd8560800151612b51565b9063ffffffff611f8416565b6126fe565b611c0082608001518360400151612b6c565b611c1383604001518b8460400151611fcd565b611c3183600001518b8460200151856060015186604001518c612bc3565b610140840152610160830152825160408051630c7940bd60e11b81526001600160a01b038d81166004830152915191909216916318f2817a9160248083019260209291908290030181600087803b158015611c8b57600080fd5b505af1158015611c9f573d6000803e3d6000fd5b505050506040513d6020811015611cb557600080fd5b505161018083015260a08201516080830151602084015160608501516040860151600094611ce9949093909290918d612e23565b600b546040805163015f109360e51b81526001600160a01b038f81166004830152602482018590528b811660448301528a811660648301529151939450911691632be212609160848082019260009290919082900301818387803b158015611d5057600080fd5b505af1158015611d64573d6000803e3d6000fd5b505050508a6001600160a01b03166000805160206134ca833981519152846101400151856101600151866101800151600260405180858152602001848152602001838152602001826002811115611db757fe5b60ff16815260200194505050505060405180910390a2610120830151604080519182525133917fefe9137e0c60d14b7f57a84d5b68f55a648dd9fa7b01747d4ec305a3c8974c01919081900360200190a2610aa58460200151856040015133866020015187606001518e8e8a60400151612e54565b6005546001600160a01b03163314611e755760405162461bcd60e51b815260040180806020018281038252602981526020018061362d6029913960400191505060405180910390fd5b565b6000826001600160a01b03166321e37801836040518263ffffffff1660e01b815260040180826001600160a01b03166001600160a01b0316815260200191505060206040518083038186803b158015611ecf57600080fd5b505afa158015611ee3573d6000803e3d6000fd5b505050506040513d6020811015611ef957600080fd5b505190506001811461069a5760405162461bcd60e51b815260040180806020018281038252602e81526020018061349c602e913960400191505060405180910390fd5b611f45816123a9565b15611f815760405162461bcd60e51b815260040180806020018281038252603981526020018061334a6039913960400191505060405180910390fd5b50565b6000611fc683836040518060400160405280601e81526020017f536166654d6174683a207375627472616374696f6e206f766572666c6f770000815250612f0e565b9392505050565b80836001600160a01b03166370a08231846040518263ffffffff1660e01b815260040180826001600160a01b03166001600160a01b0316815260200191505060206040518083038186803b15801561202457600080fd5b505afa158015612038573d6000803e3d6000fd5b505050506040513d602081101561204e57600080fd5b5051101561069a5760405162461bcd60e51b815260040180806020018281038252603f815260200180613528603f913960400191505060405180910390fd5b6000806120986116d6565b905060006120a4610f91565b9050866120c0576120bb828963ffffffff611f8416565b6120d0565b6120d0828963ffffffff61234f16565b9150846120ec576120e7818763ffffffff611f8416565b6120fc565b6120fc818763ffffffff61234f16565b9050600061210b838387612746565b9998505050505050505050565b6714d1120d7b160000811015611f815760405162461bcd60e51b81526004018080602001828103825260498152602001806134536049913960600191505060405180910390fd5b836001600160a01b0316632a7ba1f7826040518263ffffffff1660e01b815260040180828152602001915050600060405180830381600087803b1580156121a557600080fd5b505af11580156121b9573d6000803e3d6000fd5b50505050826001600160a01b0316639dc29fac83836040518363ffffffff1660e01b815260040180836001600160a01b03166001600160a01b0316815260200182815260200192505050600060405180830381600087803b15801561221d57600080fd5b505af1158015612231573d6000803e3d6000fd5b5050505050505050565b6000610afa82680ad78ebc5ac620000063ffffffff61234f16565b6001600160a01b0381166122b1576040805162461bcd60e51b815260206004820152601e60248201527f4163636f756e742063616e6e6f74206265207a65726f20616464726573730000604482015290519081900360640190fd5b803b80610b46576040805162461bcd60e51b815260206004820181905260248201527f4163636f756e7420636f64652073697a652063616e6e6f74206265207a65726f604482015290519081900360640190fd5b6003546040516000916001600160a01b0316907f8be0079c531659141344cd1fd0a4f28419497f9722a3daafe3b4186f6b6457e0908390a3600380546001600160a01b0319169055565b600082820183811015611fc6576040805162461bcd60e51b815260206004820152601b60248201527f536166654d6174683a206164646974696f6e206f766572666c6f770000000000604482015290519081900360640190fd5b6000806123b583612fa5565b6714d1120d7b160000119392505050565b801561241857670de0b6b3a76400008211156124135760405162461bcd60e51b81526004018080602001828103825260328152602001806133ba6032913960400191505060405180910390fd5b610b46565b6611c37937e0800082108015906124375750670de0b6b3a76400008211155b610b465760405162461bcd60e51b81526004018080602001828103825260308152602001806136566030913960400191505060405180910390fd5b6000826001600160a01b03166321e37801836040518263ffffffff1660e01b815260040180826001600160a01b03166001600160a01b0316815260200191505060206040518083038186803b1580156124ca57600080fd5b505afa1580156124de573d6000803e3d6000fd5b505050506040513d60208110156124f457600080fd5b50519050600181141561069a576040805162461bcd60e51b815260206004820152601c60248201527f426f72726f7765724f70733a2054726f76652069732061637469766500000000604482015290519081900360640190fd5b6000846001600160a01b0316635dba4c4a6040518163ffffffff1660e01b8152600401600060405180830381600087803b15801561258b57600080fd5b505af115801561259f573d6000803e3d6000fd5b505050506000856001600160a01b031663631203b0856040518263ffffffff1660e01b81526004018082815260200191505060206040518083038186803b1580156125e957600080fd5b505afa1580156125fd573d6000803e3d6000fd5b505050506040513d602081101561261357600080fd5b50519050612622818585612fd1565b600854604080516358caad6960e11b81526004810184905290516001600160a01b039092169163b1955ad29160248082019260009290919082900301818387803b15801561266f57600080fd5b505af1158015612683573d6000803e3d6000fd5b5050600954604080516340c10f1960e01b81526001600160a01b03928316600482015260248101869052905191891693506340c10f19925060448082019260009290919082900301818387803b1580156126dc57600080fd5b505af11580156126f0573d6000803e3d6000fd5b509298975050505050505050565b686194049f30f7200000811015611f815760405162461bcd60e51b815260040180806020018281038252603a8152602001806135b0603a913960400191505060405180910390fd5b6000821561277957600061277084612764878663ffffffff61304616565b9063ffffffff61309f16565b9150611fc69050565b506000199392505050565b600081156127b0576127a9826127648568056bc75e2d6310000063ffffffff61304616565b9050610afa565b50600019610afa565b6714d1120d7b160000811015611f815760405162461bcd60e51b81526004018080602001828103825260378152602001806133836037913960400191505060405180910390fd5b670f43fc2c04ee0000811015611f815760405162461bcd60e51b81526004018080602001828103825260498152602001806135676049913960600191505060405180910390fd5b6040516000906001600160a01b0384169083908381818185875af1925050503d8060008114612892576040519150601f19603f3d011682016040523d82523d6000602084013e612897565b606091505b505090508061069a5760405162461bcd60e51b815260040180806020018281038252602d8152602001806132ed602d913960400191505060405180910390fd5b846001600160a01b0316632b7c7b11826040518263ffffffff1660e01b815260040180828152602001915050600060405180830381600087803b15801561291d57600080fd5b505af1158015612931573d6000803e3d6000fd5b50505050836001600160a01b03166340c10f1984846040518363ffffffff1660e01b815260040180836001600160a01b03166001600160a01b0316815260200182815260200192505050600060405180830381600087803b15801561299557600080fd5b505af11580156129a9573d6000803e3d6000fd5b505050505050505050565b60008111611f815760405162461bcd60e51b81526004018080602001828103825260378152602001806136866037913960400191505060405180910390fd5b3415806129fe575080155b611f815760405162461bcd60e51b815260040180806020018281038252603081526020018061331a6030913960400191505060405180910390fd5b34151580612a4657508115155b80612a5057508015155b610b465760405162461bcd60e51b81526004018080602001828103825260468152602001806133ec6046913960600191505060405180910390fd5b6000808315612a9f57508290506001612aa3565b8291505b9250929050565b6000806000612abd8a8a8a8a8a8a6130e1565b915091506000612ace838387612746565b9b9a5050505050505050505050565b8315612b1657612aec8361313c565b8115612b1157612aff8160e001516127b9565b612b118160e001518260c00151613179565b610b2e565b612b238160e00151612800565b612b4081602001518260600151836040015185856000015161208d565b6101008201819052610b2e90612118565b6000610afa82680ad78ebc5ac620000063ffffffff611f8416565b612b8582680ad78ebc5ac620000063ffffffff611f8416565b811115610b465760405162461bcd60e51b81526004018080602001828103825260438152602001806135ea6043913960600191505060405180910390fd5b600080600085612c5e57886001600160a01b031663d3d6f84389896040518363ffffffff1660e01b815260040180836001600160a01b03166001600160a01b0316815260200182815260200192505050602060405180830381600087803b158015612c2d57600080fd5b505af1158015612c41573d6000803e3d6000fd5b505050506040513d6020811015612c5757600080fd5b5051612ceb565b886001600160a01b03166372423c1789896040518363ffffffff1660e01b815260040180836001600160a01b03166001600160a01b0316815260200182815260200192505050602060405180830381600087803b158015612cbe57600080fd5b505af1158015612cd2573d6000803e3d6000fd5b505050506040513d6020811015612ce857600080fd5b50515b9050600084612d8557896001600160a01b03166312610e928a886040518363ffffffff1660e01b815260040180836001600160a01b03166001600160a01b0316815260200182815260200192505050602060405180830381600087803b158015612d5457600080fd5b505af1158015612d68573d6000803e3d6000fd5b505050506040513d6020811015612d7e57600080fd5b5051612e12565b896001600160a01b0316639976cf458a886040518363ffffffff1660e01b815260040180836001600160a01b03166001600160a01b0316815260200182815260200192505050602060405180830381600087803b158015612de557600080fd5b505af1158015612df9573d6000803e3d6000fd5b505050506040513d6020811015612e0f57600080fd5b50515b919a91995090975050505050505050565b6000806000612e368989898989896130e1565b915091506000612e468383612784565b9a9950505050505050505050565b8115612e6c57612e6788888886856128d7565b612e78565b612e788888888661215f565b8315612e8d57612e888886612847565b612231565b876001600160a01b0316628063a587876040518363ffffffff1660e01b815260040180836001600160a01b03166001600160a01b0316815260200182815260200192505050600060405180830381600087803b158015612eec57600080fd5b505af1158015612f00573d6000803e3d6000fd5b505050505050505050505050565b60008184841115612f9d5760405162461bcd60e51b81526004018080602001828103825283818151815260200191508051906020019080838360005b83811015612f62578181015183820152602001612f4a565b50505050905090810190601f168015612f8f5780820380516001836020036101000a031916815260200191505b509250505060405180910390fd5b505050900390565b600080612fb06116d6565b90506000612fbc610f91565b9050612fc9828286612746565b949350505050565b6000612fef8361276486670de0b6b3a764000063ffffffff61304616565b905081811115610b2e576040805162461bcd60e51b815260206004820152601d60248201527f4665652065786365656465642070726f7669646564206d6178696d756d000000604482015290519081900360640190fd5b60008261305557506000610afa565b8282028284828161306257fe5b0414611fc65760405162461bcd60e51b81526004018080602001828103825260218152602001806134326021913960400191505060405180910390fd5b6000611fc683836040518060400160405280601a81526020017f536166654d6174683a206469766973696f6e206279207a65726f0000000000008152506131b8565b600080878786613100576130fb8a8963ffffffff611f8416565b613110565b6131108a8963ffffffff61234f16565b91508461312c57613127898763ffffffff611f8416565b612e12565b612e12898763ffffffff61234f16565b8015611f815760405162461bcd60e51b815260040180806020018281038252603e8152602001806134ea603e913960400191505060405180910390fd5b80821015610b465760405162461bcd60e51b815260040180806020018281038252603e8152602001806136bd603e913960400191505060405180910390fd5b600081836132075760405162461bcd60e51b8152602060048201818152835160248401528351909283926044909101919085019080838360008315612f62578181015183820152602001612f4a565b50600083858161321357fe5b0495945050505050565b604080516060810182526000808252602082018190529181019190915290565b60405180610100016040528060008152602001600081526020016000815260200160008152602001600081526020016000815260200160008152602001600081525090565b604051806101a00160405280600081526020016000815260200160008152602001600015158152602001600081526020016000815260200160008152602001600081526020016000815260200160008152602001600081526020016000815260200160008152509056fe426f72726f7765724f70733a2053656e64696e672046494c20746f20416374697665506f6f6c206661696c6564426f72726f7765724f7065726174696f6e733a2043616e6e6f7420776974686472617720616e642061646420636f6c6c426f72726f7765724f70733a204f7065726174696f6e206e6f74207065726d697474656420647572696e67205265636f76657279204d6f6465426f72726f7765724f70733a204f7065726174696f6e206d757374206c656176652074726f7665207769746820494352203e3d204343524d6178206665652070657263656e74616765206d757374206c657373207468616e206f7220657175616c20746f2031303025426f72726f7765724f70733a205468657265206d75737420626520656974686572206120636f6c6c61746572616c206368616e6765206f7220612064656274206368616e6765536166654d6174683a206d756c7469706c69636174696f6e206f766572666c6f77426f72726f7765724f70733a20416e206f7065726174696f6e207468617420776f756c6420726573756c7420696e20544352203c20434352206973206e6f74207065726d6974746564426f72726f7765724f70733a2054726f766520646f6573206e6f74206578697374206f7220697320636c6f736564c3770d654ed33aeea6bf11ac8ef05d02a6a04ed4686dd2f624d853bbec43cc8b426f72726f7765724f70733a20436f6c6c61746572616c207769746864726177616c206e6f74207065726d6974746564205265636f76657279204d6f6465426f72726f7765724f70733a2043616c6c657220646f65736e74206861766520656e6f75676820746f6b656e7320746f206d616b652072657061796d656e74426f72726f7765724f70733a20416e206f7065726174696f6e207468617420776f756c6420726573756c7420696e20494352203c204d4352206973206e6f74207065726d6974746564426f72726f7765724f70733a2054726f76652773206e65742064656274206d7573742062652067726561746572207468616e206d696e696d756d426f72726f7765724f70733a20416d6f756e7420726570616964206d757374206e6f74206265206c6172676572207468616e207468652054726f766527732064656274426f72726f7765724f70733a2043616c6c6572206973206e6f742053746162696c69747920506f6f6c4d6178206665652070657263656e74616765206d757374206265206265747765656e20302e352520616e642031303025426f72726f7765724f70733a204465627420696e637265617365207265717569726573206e6f6e2d7a65726f20646562744368616e6765426f72726f7765724f70733a2043616e6e6f7420646563726561736520796f75722054726f766527732049435220696e205265636f76657279204d6f6465a26469706673582212204fda169136483eae6eec126b8f65c0ce051d6775784264950e0c91dbf7a6576864736f6c634300060b0033",
  "linkReferences": {},
  "deployedLinkReferences": {}
}