{
  "_format": "hh-sol-artifact-1",
  "contractName": "BorrowerOperations",
  "sourceName": "contracts/BorrowerOperations.sol",
  "abi": [
    {
      "inputs": [
        {
          "internalType": "uint256",
          "name": "_gasCompensation",
          "type": "uint256"
        },
        {
          "internalType": "uint256",
          "name": "_minNetDebt",
          "type": "uint256"
        }
      ],
      "stateMutability": "nonpayable",
      "type": "constructor"
    },
    {
      "anonymous": false,
      "inputs": [
        {
          "indexed": false,
          "internalType": "address",
          "name": "_activePoolAddress",
          "type": "address"
        }
      ],
      "name": "ActivePoolAddressChanged",
      "type": "event"
    },
    {
      "anonymous": false,
      "inputs": [
        {
          "indexed": false,
          "internalType": "address",
          "name": "_collSurplusPoolAddress",
          "type": "address"
        }
      ],
      "name": "CollSurplusPoolAddressChanged",
      "type": "event"
    },
    {
      "anonymous": false,
      "inputs": [
        {
          "indexed": false,
          "internalType": "address",
          "name": "_debtTokenAddress",
          "type": "address"
        }
      ],
      "name": "DebtTokenAddressChanged",
      "type": "event"
    },
    {
      "anonymous": false,
      "inputs": [
        {
          "indexed": true,
          "internalType": "address",
          "name": "_borrower",
          "type": "address"
        },
        {
          "indexed": false,
          "internalType": "uint256",
          "name": "_debtTokenFee",
          "type": "uint256"
        }
      ],
      "name": "DebtTokenBorrowingFeePaid",
      "type": "event"
    },
    {
      "anonymous": false,
      "inputs": [
        {
          "indexed": false,
          "internalType": "address",
          "name": "_defaultPoolAddress",
          "type": "address"
        }
      ],
      "name": "DefaultPoolAddressChanged",
      "type": "event"
    },
    {
      "anonymous": false,
      "inputs": [
        {
          "indexed": false,
          "internalType": "address",
          "name": "_gasPoolAddress",
          "type": "address"
        }
      ],
      "name": "GasPoolAddressChanged",
      "type": "event"
    },
    {
      "anonymous": false,
      "inputs": [
        {
          "indexed": true,
          "internalType": "address",
          "name": "previousOwner",
          "type": "address"
        },
        {
          "indexed": true,
          "internalType": "address",
          "name": "newOwner",
          "type": "address"
        }
      ],
      "name": "OwnershipTransferred",
      "type": "event"
    },
    {
      "anonymous": false,
      "inputs": [
        {
          "indexed": false,
          "internalType": "address",
          "name": "_newPriceFeedAddress",
          "type": "address"
        }
      ],
      "name": "PriceFeedAddressChanged",
      "type": "event"
    },
    {
      "anonymous": false,
      "inputs": [
        {
          "indexed": false,
          "internalType": "address",
          "name": "_protocolTokenStakingAddress",
          "type": "address"
        }
      ],
      "name": "ProtocolTokenStakingAddressChanged",
      "type": "event"
    },
    {
      "anonymous": false,
      "inputs": [
        {
          "indexed": false,
          "internalType": "address",
          "name": "_sortedTrovesAddress",
          "type": "address"
        }
      ],
      "name": "SortedTrovesAddressChanged",
      "type": "event"
    },
    {
      "anonymous": false,
      "inputs": [
        {
          "indexed": false,
          "internalType": "address",
          "name": "_stabilityPoolAddress",
          "type": "address"
        }
      ],
      "name": "StabilityPoolAddressChanged",
      "type": "event"
    },
    {
      "anonymous": false,
      "inputs": [
        {
          "indexed": true,
          "internalType": "address",
          "name": "_borrower",
          "type": "address"
        },
        {
          "indexed": false,
          "internalType": "uint256",
          "name": "arrayIndex",
          "type": "uint256"
        }
      ],
      "name": "TroveCreated",
      "type": "event"
    },
    {
      "anonymous": false,
      "inputs": [
        {
          "indexed": false,
          "internalType": "address",
          "name": "_newTroveManagerAddress",
          "type": "address"
        }
      ],
      "name": "TroveManagerAddressChanged",
      "type": "event"
    },
    {
      "anonymous": false,
      "inputs": [
        {
          "indexed": true,
          "internalType": "address",
          "name": "_borrower",
          "type": "address"
        },
        {
          "indexed": false,
          "internalType": "uint256",
          "name": "_debt",
          "type": "uint256"
        },
        {
          "indexed": false,
          "internalType": "uint256",
          "name": "_coll",
          "type": "uint256"
        },
        {
          "indexed": false,
          "internalType": "uint256",
          "name": "stake",
          "type": "uint256"
        },
        {
          "indexed": false,
          "internalType": "enum IBorrowerOperations.BorrowerOperation",
          "name": "operation",
          "type": "uint8"
        }
      ],
      "name": "TroveUpdated",
      "type": "event"
    },
    {
      "inputs": [],
      "name": "BORROWING_FEE_FLOOR",
      "outputs": [
        {
          "internalType": "uint256",
          "name": "",
          "type": "uint256"
        }
      ],
      "stateMutability": "view",
      "type": "function"
    },
    {
      "inputs": [],
      "name": "CCR",
      "outputs": [
        {
          "internalType": "uint256",
          "name": "",
          "type": "uint256"
        }
      ],
      "stateMutability": "view",
      "type": "function"
    },
    {
      "inputs": [],
      "name": "DECIMAL_PRECISION",
      "outputs": [
        {
          "internalType": "uint256",
          "name": "",
          "type": "uint256"
        }
      ],
      "stateMutability": "view",
      "type": "function"
    },
    {
      "inputs": [],
      "name": "GAS_COMPENSATION",
      "outputs": [
        {
          "internalType": "uint256",
          "name": "",
          "type": "uint256"
        }
      ],
      "stateMutability": "view",
      "type": "function"
    },
    {
      "inputs": [],
      "name": "MCR",
      "outputs": [
        {
          "internalType": "uint256",
          "name": "",
          "type": "uint256"
        }
      ],
      "stateMutability": "view",
      "type": "function"
    },
    {
      "inputs": [],
      "name": "MIN_NET_DEBT",
      "outputs": [
        {
          "internalType": "uint256",
          "name": "",
          "type": "uint256"
        }
      ],
      "stateMutability": "view",
      "type": "function"
    },
    {
      "inputs": [],
      "name": "NAME",
      "outputs": [
        {
          "internalType": "string",
          "name": "",
          "type": "string"
        }
      ],
      "stateMutability": "view",
      "type": "function"
    },
    {
      "inputs": [],
      "name": "PERCENT_DIVISOR",
      "outputs": [
        {
          "internalType": "uint256",
          "name": "",
          "type": "uint256"
        }
      ],
      "stateMutability": "view",
      "type": "function"
    },
    {
      "inputs": [],
      "name": "_100pct",
      "outputs": [
        {
          "internalType": "uint256",
          "name": "",
          "type": "uint256"
        }
      ],
      "stateMutability": "view",
      "type": "function"
    },
    {
      "inputs": [],
      "name": "activePool",
      "outputs": [
        {
          "internalType": "contract IActivePool",
          "name": "",
          "type": "address"
        }
      ],
      "stateMutability": "view",
      "type": "function"
    },
    {
      "inputs": [
        {
          "internalType": "address",
          "name": "_upperHint",
          "type": "address"
        },
        {
          "internalType": "address",
          "name": "_lowerHint",
          "type": "address"
        }
      ],
      "name": "addColl",
      "outputs": [],
      "stateMutability": "payable",
      "type": "function"
    },
    {
      "inputs": [
        {
          "internalType": "uint256",
          "name": "_maxFeePercentage",
          "type": "uint256"
        },
        {
          "internalType": "uint256",
          "name": "_collWithdrawal",
          "type": "uint256"
        },
        {
          "internalType": "uint256",
          "name": "_debtTokenChange",
          "type": "uint256"
        },
        {
          "internalType": "bool",
          "name": "_isDebtIncrease",
          "type": "bool"
        },
        {
          "internalType": "address",
          "name": "_upperHint",
          "type": "address"
        },
        {
          "internalType": "address",
          "name": "_lowerHint",
          "type": "address"
        }
      ],
      "name": "adjustTrove",
      "outputs": [],
      "stateMutability": "payable",
      "type": "function"
    },
    {
      "inputs": [],
      "name": "claimCollateral",
      "outputs": [],
      "stateMutability": "nonpayable",
      "type": "function"
    },
    {
      "inputs": [],
      "name": "closeTrove",
      "outputs": [],
      "stateMutability": "nonpayable",
      "type": "function"
    },
    {
      "inputs": [],
      "name": "debtToken",
      "outputs": [
        {
          "internalType": "contract IDebtToken",
          "name": "",
          "type": "address"
        }
      ],
      "stateMutability": "view",
      "type": "function"
    },
    {
      "inputs": [],
      "name": "defaultPool",
      "outputs": [
        {
          "internalType": "contract IDefaultPool",
          "name": "",
          "type": "address"
        }
      ],
      "stateMutability": "view",
      "type": "function"
    },
    {
      "inputs": [
        {
          "internalType": "uint256",
          "name": "_debt",
          "type": "uint256"
        }
      ],
      "name": "getCompositeDebt",
      "outputs": [
        {
          "internalType": "uint256",
          "name": "",
          "type": "uint256"
        }
      ],
      "stateMutability": "view",
      "type": "function"
    },
    {
      "inputs": [],
      "name": "getEntireSystemColl",
      "outputs": [
        {
          "internalType": "uint256",
          "name": "entireSystemColl",
          "type": "uint256"
        }
      ],
      "stateMutability": "view",
      "type": "function"
    },
    {
      "inputs": [],
      "name": "getEntireSystemDebt",
      "outputs": [
        {
          "internalType": "uint256",
          "name": "entireSystemDebt",
          "type": "uint256"
        }
      ],
      "stateMutability": "view",
      "type": "function"
    },
    {
      "inputs": [
        {
          "internalType": "address",
          "name": "_troveManagerAddress",
          "type": "address"
        },
        {
          "internalType": "address",
          "name": "_activePoolAddress",
          "type": "address"
        },
        {
          "internalType": "address",
          "name": "_defaultPoolAddress",
          "type": "address"
        },
        {
          "internalType": "address",
          "name": "_stabilityPoolAddress",
          "type": "address"
        },
        {
          "internalType": "address",
          "name": "_gasPoolAddress",
          "type": "address"
        },
        {
          "internalType": "address",
          "name": "_collSurplusPoolAddress",
          "type": "address"
        },
        {
          "internalType": "address",
          "name": "_priceFeedAddress",
          "type": "address"
        },
        {
          "internalType": "address",
          "name": "_sortedTrovesAddress",
          "type": "address"
        },
        {
          "internalType": "address",
          "name": "_debtTokenAddress",
          "type": "address"
        },
        {
          "internalType": "address",
          "name": "_protocolTokenStakingAddress",
          "type": "address"
        }
      ],
      "name": "initialize",
      "outputs": [],
      "stateMutability": "nonpayable",
      "type": "function"
    },
    {
      "inputs": [
        {
          "internalType": "address",
          "name": "_borrower",
          "type": "address"
        },
        {
          "internalType": "address",
          "name": "_upperHint",
          "type": "address"
        },
        {
          "internalType": "address",
          "name": "_lowerHint",
          "type": "address"
        }
      ],
      "name": "moveFILGainToTrove",
      "outputs": [],
      "stateMutability": "payable",
      "type": "function"
    },
    {
      "inputs": [
        {
          "internalType": "uint256",
          "name": "_maxFeePercentage",
          "type": "uint256"
        },
        {
          "internalType": "uint256",
          "name": "_debtTokenAmount",
          "type": "uint256"
        },
        {
          "internalType": "address",
          "name": "_upperHint",
          "type": "address"
        },
        {
          "internalType": "address",
          "name": "_lowerHint",
          "type": "address"
        }
      ],
      "name": "openTrove",
      "outputs": [],
      "stateMutability": "payable",
      "type": "function"
    },
    {
      "inputs": [],
      "name": "owner",
      "outputs": [
        {
          "internalType": "address",
          "name": "",
          "type": "address"
        }
      ],
      "stateMutability": "view",
      "type": "function"
    },
    {
      "inputs": [],
      "name": "priceFeed",
      "outputs": [
        {
          "internalType": "contract IPriceFeed",
          "name": "",
          "type": "address"
        }
      ],
      "stateMutability": "view",
      "type": "function"
    },
    {
      "inputs": [],
      "name": "protocolTokenStaking",
      "outputs": [
        {
          "internalType": "contract IProtocolTokenStaking",
          "name": "",
          "type": "address"
        }
      ],
      "stateMutability": "view",
      "type": "function"
    },
    {
      "inputs": [],
      "name": "protocolTokenStakingAddress",
      "outputs": [
        {
          "internalType": "address",
          "name": "",
          "type": "address"
        }
      ],
      "stateMutability": "view",
      "type": "function"
    },
    {
      "inputs": [],
      "name": "renounceOwnership",
      "outputs": [],
      "stateMutability": "nonpayable",
      "type": "function"
    },
    {
      "inputs": [
        {
          "internalType": "uint256",
          "name": "_debtTokenAmount",
          "type": "uint256"
        },
        {
          "internalType": "address",
          "name": "_upperHint",
          "type": "address"
        },
        {
          "internalType": "address",
          "name": "_lowerHint",
          "type": "address"
        }
      ],
      "name": "repayDebtToken",
      "outputs": [],
      "stateMutability": "nonpayable",
      "type": "function"
    },
    {
      "inputs": [],
      "name": "sortedTroves",
      "outputs": [
        {
          "internalType": "contract ISortedTroves",
          "name": "",
          "type": "address"
        }
      ],
      "stateMutability": "view",
      "type": "function"
    },
    {
      "inputs": [
        {
          "internalType": "address",
          "name": "newOwner",
          "type": "address"
        }
      ],
      "name": "transferOwnership",
      "outputs": [],
      "stateMutability": "nonpayable",
      "type": "function"
    },
    {
      "inputs": [],
      "name": "troveManager",
      "outputs": [
        {
          "internalType": "contract ITroveManager",
          "name": "",
          "type": "address"
        }
      ],
      "stateMutability": "view",
      "type": "function"
    },
    {
      "inputs": [
        {
          "internalType": "uint256",
          "name": "_collWithdrawal",
          "type": "uint256"
        },
        {
          "internalType": "address",
          "name": "_upperHint",
          "type": "address"
        },
        {
          "internalType": "address",
          "name": "_lowerHint",
          "type": "address"
        }
      ],
      "name": "withdrawColl",
      "outputs": [],
      "stateMutability": "nonpayable",
      "type": "function"
    },
    {
      "inputs": [
        {
          "internalType": "uint256",
          "name": "_maxFeePercentage",
          "type": "uint256"
        },
        {
          "internalType": "uint256",
          "name": "_debtTokenAmount",
          "type": "uint256"
        },
        {
          "internalType": "address",
          "name": "_upperHint",
          "type": "address"
        },
        {
          "internalType": "address",
          "name": "_lowerHint",
          "type": "address"
        }
      ],
      "name": "withdrawDebtToken",
      "outputs": [],
      "stateMutability": "nonpayable",
      "type": "function"
    }
  ],
  "bytecode": "0x60c060405234801561001057600080fd5b50604051613d6a380380613d6a8339818101604052604081101561003357600080fd5b508051602090910151608082905260a0819052613cd061009a60003980610b3d528061253a52806128c752806135dc5250806108e35280610a475280610a865280610b1952806113b052806121635280612deb5280612e1552806135085250613cd06000f3fe6080604052600436106101ae5760003560e01c806372fe25aa116100ed578063a20baee611610090578063a20baee61461040e578063a3f4df7e146104db578063ae91875414610565578063c306b3781461057a578063c6a6cf20146105f8578063e545242314610640578063f2fde38b14610655578063f8d8989814610688578063f92d34331461069d576101ae565b806372fe25aa1461040e578063741bef1a14610423578063794e572414610438578063795d26c31461044d5780637f7dde4a14610462578063860665b314610477578063887105d3146104b15780638da5cb5b146104c6576101ae565b80634ff81443116101555780634ff81443146102da5780635530273c146103045780635733d58f1461034557806357aae46b1461035a57806362a0d7991461036f57806368647db1146103b65780636f0b0c1c146103e4578063715018a6146103f9576101ae565b80630802c78a146101b35780630e43d8ce146101f65780630e704d501461022e578063139f2e8c146102435780631bf435551461026a5780633cc742251461027f5780633d83908a146102b05780634870dd9a146102c5575b600080fd5b3480156101bf57600080fd5b506101f4600480360360608110156101d657600080fd5b508035906001600160a01b03602082013581169160400135166106b2565b005b6101f46004803603606081101561020c57600080fd5b506001600160a01b0381358116916020810135821691604090910135166106c9565b34801561023a57600080fd5b506101f46106e3565b34801561024f57600080fd5b50610258610b17565b60408051918252519081900360200190f35b34801561027657600080fd5b50610258610b3b565b34801561028b57600080fd5b50610294610b5f565b604080516001600160a01b039092168252519081900360200190f35b3480156102bc57600080fd5b50610294610b6e565b3480156102d157600080fd5b50610258610b7d565b3480156102e657600080fd5b50610258600480360360208110156102fd57600080fd5b5035610b82565b34801561031057600080fd5b506101f46004803603606081101561032757600080fd5b508035906001600160a01b0360208201358116916040013516610b93565b34801561035157600080fd5b50610258610ba4565b34801561036657600080fd5b50610294610bb0565b34801561037b57600080fd5b506101f46004803603608081101561039257600080fd5b508035906020810135906001600160a01b0360408201358116916060013516610bbf565b6101f4600480360360408110156103cc57600080fd5b506001600160a01b0381358116916020013516610bd6565b3480156103f057600080fd5b506101f4610bec565b34801561040557600080fd5b506101f4610c4c565b34801561041a57600080fd5b50610258610cf8565b34801561042f57600080fd5b50610294610d04565b34801561044457600080fd5b50610258610d13565b34801561045957600080fd5b50610258610d1f565b34801561046e57600080fd5b50610294610e1a565b6101f46004803603608081101561048d57600080fd5b508035906020810135906001600160a01b0360408201358116916060013516610e29565b3480156104bd57600080fd5b50610258611471565b3480156104d257600080fd5b5061029461152d565b3480156104e757600080fd5b506104f061153c565b6040805160208082528351818301528351919283929083019185019080838360005b8381101561052a578181015183820152602001610512565b50505050905090810190601f1680156105575780820380516001836020036101000a031916815260200191505b509250505060405180910390f35b34801561057157600080fd5b5061029461156a565b34801561058657600080fd5b506101f4600480360361014081101561059e57600080fd5b506001600160a01b038135811691602081013582169160408201358116916060810135821691608082013581169160a081013582169160c082013581169160e0810135821691610100820135811691610120013516611579565b6101f4600480360360c081101561060e57600080fd5b5080359060208101359060408101359060608101351515906001600160a01b03608082013581169160a0013516611655565b34801561064c57600080fd5b5061029461166c565b34801561066157600080fd5b506101f46004803603602081101561067857600080fd5b50356001600160a01b031661167b565b34801561069457600080fd5b5061029461177e565b3480156106a957600080fd5b5061025861178d565b6106c433600085600086866000611798565b505050565b6106d1611d6b565b6106c483600080600086866000611798565b606754600054606d546001600160a01b039283169291821691166107078333611db6565b60025460408051630fdb11cf60e01b815290516000926001600160a01b031691630fdb11cf91600480830192602092919082900301818787803b15801561074d57600080fd5b505af1158015610761573d6000803e3d6000fd5b505050506040513d602081101561077757600080fd5b5051905061078481611e72565b60408051630b07655760e01b815233600482015290516001600160a01b03861691630b07655791602480830192600092919082900301818387803b1580156107cb57600080fd5b505af11580156107df573d6000803e3d6000fd5b505050506000846001600160a01b031663480cd578336040518263ffffffff1660e01b815260040180826001600160a01b0316815260200191505060206040518083038186803b15801561083257600080fd5b505afa158015610846573d6000803e3d6000fd5b505050506040513d602081101561085c57600080fd5b50516040805163d66a255360e01b815233600482015290519192506000916001600160a01b0388169163d66a2553916024808301926020929190829003018186803b1580156108aa57600080fd5b505afa1580156108be573d6000803e3d6000fd5b505050506040513d60208110156108d457600080fd5b5051905061090c8433610907847f0000000000000000000000000000000000000000000000000000000000000000611eba565b611f17565b600061091d83600084600088611fce565b905061092881612041565b60408051631fc5750960e31b815233600482015290516001600160a01b0389169163fe2ba84891602480830192600092919082900301818387803b15801561096f57600080fd5b505af1158015610983573d6000803e3d6000fd5b5050604080516365e89c5760e11b815233600482015290516001600160a01b038b16935063cbd138ae9250602480830192600092919082900301818387803b1580156109ce57600080fd5b505af11580156109e2573d6000803e3d6000fd5b50505050336001600160a01b0316600080516020613a6a8339815191526000806000600160405180858152602001848152602001838152602001826002811115610a2857fe5b815260200194505050505060405180910390a2610a70868633610a6b867f0000000000000000000000000000000000000000000000000000000000000000611eba565b612088565b606954610aaa90879087906001600160a01b03167f0000000000000000000000000000000000000000000000000000000000000000612088565b60408051628063a560e01b81523360048201526024810185905290516001600160a01b03881691628063a591604480830192600092919082900301818387803b158015610af657600080fd5b505af1158015610b0a573d6000803e3d6000fd5b5050505050505050505050565b7f000000000000000000000000000000000000000000000000000000000000000081565b7f000000000000000000000000000000000000000000000000000000000000000081565b6001546001600160a01b031681565b6067546001600160a01b031681565b60c881565b6000610b8d8261215b565b92915050565b6106c4338460008086866000611798565b6714d1120d7b16000081565b606c546001600160a01b031681565b610bd033600085600186868a611798565b50505050565b610be833600080600086866000611798565b5050565b606a546040805163b32beb5b60e01b815233600482015290516001600160a01b039092169163b32beb5b9160248082019260009290919082900301818387803b158015610c3857600080fd5b505af1158015610bd0573d6000803e3d6000fd5b610c54612187565b6001600160a01b0316610c6561152d565b6001600160a01b031614610cc0576040805162461bcd60e51b815260206004820181905260248201527f4f776e61626c653a2063616c6c6572206973206e6f7420746865206f776e6572604482015290519081900360640190fd5b6035546040516000916001600160a01b031690600080516020613a1c833981519152908390a3603580546001600160a01b0319169055565b670de0b6b3a764000081565b6002546001600160a01b031681565b670f43fc2c04ee000081565b60008054604080516314a6bf0f60e01b8152905183926001600160a01b0316916314a6bf0f916004808301926020929190829003018186803b158015610d6457600080fd5b505afa158015610d78573d6000803e3d6000fd5b505050506040513d6020811015610d8e57600080fd5b5051600154604080516314a6bf0f60e01b815290519293506000926001600160a01b03909216916314a6bf0f91600480820192602092909190829003018186803b158015610ddb57600080fd5b505afa158015610def573d6000803e3d6000fd5b505050506040513d6020811015610e0557600080fd5b50519050610e13828261218b565b9250505090565b6000546001600160a01b031681565b604080516060810182526067546001600160a01b03908116825260005481166020830152606d541691810191909152610e60613769565b600260009054906101000a90046001600160a01b03166001600160a01b0316630fdb11cf6040518163ffffffff1660e01b8152600401602060405180830381600087803b158015610eb057600080fd5b505af1158015610ec4573d6000803e3d6000fd5b505050506040513d6020811015610eda57600080fd5b5051808252600090610eeb906121ec565b9050610ef78782612209565b8251610f0390336122b5565b6040820186905280610f3e57610f2383600001518460400151888a612388565b602083018190526040830151610f389161218b565b60408301525b610f4b8260400151612538565b610f58826040015161215b565b60608301819052610f6557fe5b610f783483606001518460000151612597565b60808301526060820151610f8d9034906125c9565b60a08301528015610faa57610fa582608001516125f8565b610fdd565b610fb7826080015161263f565b6000610fd0346001856060015160018760000151611fce565b9050610fdb81612041565b505b825160408051635d6b480f60e01b81523360048201526001602482015290516001600160a01b0390921691635d6b480f9160448082019260009290919082900301818387803b15801561102f57600080fd5b505af1158015611043573d6000803e3d6000fd5b50508451604080516372423c1760e01b815233600482015234602482015290516001600160a01b0390921693506372423c1792506044808201926020929091908290030181600087803b15801561109957600080fd5b505af11580156110ad573d6000803e3d6000fd5b505050506040513d60208110156110c357600080fd5b50508251606083015160408051639976cf4560e01b81523360048201526024810192909252516001600160a01b0390921691639976cf45916044808201926020929091908290030181600087803b15801561111d57600080fd5b505af1158015611131573d6000803e3d6000fd5b505050506040513d602081101561114757600080fd5b50508251604080516382fe3eb960e01b815233600482015290516001600160a01b03909216916382fe3eb99160248082019260009290919082900301818387803b15801561119457600080fd5b505af11580156111a8573d6000803e3d6000fd5b5050505082600001516001600160a01b03166318f2817a336040518263ffffffff1660e01b815260040180826001600160a01b03168152602001915050602060405180830381600087803b1580156111ff57600080fd5b505af1158015611213573d6000803e3d6000fd5b505050506040513d602081101561122957600080fd5b505160c0830152606e5460a0830151604080516346f7cf8760e01b815233600482015260248101929092526001600160a01b038881166044840152878116606484015290519216916346f7cf879160848082019260009290919082900301818387803b15801561129857600080fd5b505af11580156112ac573d6000803e3d6000fd5b5050505082600001516001600160a01b03166315d549f1336040518263ffffffff1660e01b815260040180826001600160a01b03168152602001915050602060405180830381600087803b15801561130357600080fd5b505af1158015611317573d6000803e3d6000fd5b505050506040513d602081101561132d57600080fd5b505160e08301819052604080519182525133917f59cfd0cd754bc5748b6770e94a4ffa5f678d885cb899dcfadc5734edb97c67ab919081900360200190a2611379836020015134612686565b6113928360200151846040015133898660400151612716565b602083015160408401516069546113d59291906001600160a01b03167f000000000000000000000000000000000000000000000000000000000000000080612716565b336001600160a01b0316600080516020613a6a8339815191528360600151348560c0015160006040518085815260200184815260200183815260200182600281111561141d57fe5b815260200194505050505060405180910390a2602080830151604080519182525133927fefe9137e0c60d14b7f57a84d5b68f55a648dd9fa7b01747d4ec305a3c8974c01928290030190a250505050505050565b60008054604080516362e1c9bf60e11b8152905183926001600160a01b03169163c5c3937e916004808301926020929190829003018186803b1580156114b657600080fd5b505afa1580156114ca573d6000803e3d6000fd5b505050506040513d60208110156114e057600080fd5b5051600154604080516362e1c9bf60e11b815290519293506000926001600160a01b039092169163c5c3937e91600480820192602092909190829003018186803b158015610ddb57600080fd5b6035546001600160a01b031690565b60405180604001604052806012815260200171426f72726f7765724f7065726174696f6e7360701b81525081565b606e546001600160a01b031681565b600254600160a81b900460ff168061159457506115946127ea565b806115a95750600254600160a01b900460ff16155b6115e45760405162461bcd60e51b815260040180806020018281038252602e81526020018061390c602e913960400191505060405180910390fd5b600254600160a81b900460ff1615801561161b576002805460ff60a01b1960ff60a81b19909116600160a81b1716600160a01b1790555b6116236127fb565b6116358b8b8b8b8b8b8b8b8b8b6128c3565b8015610b0a576002805460ff60a81b191690555050505050505050505050565b6116643386868686868c611798565b505050505050565b606b546001600160a01b031681565b611683612187565b6001600160a01b031661169461152d565b6001600160a01b0316146116ef576040805162461bcd60e51b815260206004820181905260248201527f4f776e61626c653a2063616c6c6572206973206e6f7420746865206f776e6572604482015290519081900360640190fd5b6001600160a01b0381166117345760405162461bcd60e51b81526004018080602001828103825260268152602001806138196026913960400191505060405180910390fd5b6035546040516001600160a01b03808416921690600080516020613a1c83398151915290600090a3603580546001600160a01b0319166001600160a01b0392909216919091179055565b606d546001600160a01b031681565b6611c37937e0800081565b604080516060810182526067546001600160a01b03908116825260005481166020830152606d5416918101919091526117cf6137ae565b600260009054906101000a90046001600160a01b03166001600160a01b0316630fdb11cf6040518163ffffffff1660e01b8152600401602060405180830381600087803b15801561181f57600080fd5b505af1158015611833573d6000803e3d6000fd5b505050506040513d602081101561184957600080fd5b505180825260009061185a906121ec565b905086156118755761186c8482612209565b61187588612c46565b61187e89612c85565b6118888989612ccb565b8251611894908b611db6565b336001600160a01b038b1614806118ca57506068546001600160a01b0316331480156118c05750600034115b80156118ca575087155b6118d057fe5b82600001516001600160a01b0316630b0765578b6040518263ffffffff1660e01b815260040180826001600160a01b03168152602001915050600060405180830381600087803b15801561192357600080fd5b505af1158015611937573d6000803e3d6000fd5b50505050611945348a612d1d565b15156060840152602083015260408201889052868015611963575080155b156119985761197c836000015184604001518a87612388565b610120830181905260408301516119929161218b565b60408301525b82600001516001600160a01b031663d66a25538b6040518263ffffffff1660e01b815260040180826001600160a01b0316815260200191505060206040518083038186803b1580156119e957600080fd5b505afa1580156119fd573d6000803e3d6000fd5b505050506040513d6020811015611a1357600080fd5b505160808301528251604080516309019aaf60e31b81526001600160a01b038d811660048301529151919092169163480cd578916024808301926020929190829003018186803b158015611a6657600080fd5b505afa158015611a7a573d6000803e3d6000fd5b505050506040513d6020811015611a9057600080fd5b505160a0830181905260808301518351611aab929190612597565b8260c0018181525050611adb8260a0015183608001518460200151856060015186604001518c8860000151612d3c565b60e083015260a0820151891115611aee57fe5b611afa818a8985612d6f565b86158015611b085750600088115b15611b5557611b30611b2b8360400151611b258560800151612de3565b90611eba565b612538565b611b4282608001518360400151612e0f565b611b5583604001518b8460400151611f17565b611b7383600001518b8460200151856060015186604001518c612e77565b610140840152610160830152825160408051630c7940bd60e11b81526001600160a01b038d81166004830152915191909216916318f2817a9160248083019260209291908290030181600087803b158015611bcd57600080fd5b505af1158015611be1573d6000803e3d6000fd5b505050506040513d6020811015611bf757600080fd5b505161018083015260a08201516080830151602084015160608501516040860151600094611c2b949093909290918d6130b3565b606e546040805163015f109360e51b81526001600160a01b038f81166004830152602482018590528b811660448301528a811660648301529151939450911691632be212609160848082019260009290919082900301818387803b158015611c9257600080fd5b505af1158015611ca6573d6000803e3d6000fd5b505050508a6001600160a01b0316600080516020613a6a833981519152846101400151856101600151866101800151600260405180858152602001848152602001838152602001826002811115611cf957fe5b815260200194505050505060405180910390a2610120830151604080519182525133917fefe9137e0c60d14b7f57a84d5b68f55a648dd9fa7b01747d4ec305a3c8974c01919081900360200190a2610b0a8460200151856040015133866020015187606001518e8e8a604001516130e4565b6068546001600160a01b03163314611db45760405162461bcd60e51b8152600401808060200182810382526029815260200180613bcd6029913960400191505060405180910390fd5b565b6000826001600160a01b03166321e37801836040518263ffffffff1660e01b815260040180826001600160a01b0316815260200191505060206040518083038186803b158015611e0557600080fd5b505afa158015611e19573d6000803e3d6000fd5b505050506040513d6020811015611e2f57600080fd5b50519050600181146106c45760405162461bcd60e51b815260040180806020018281038252602e815260200180613a3c602e913960400191505060405180910390fd5b611e7b816121ec565b15611eb75760405162461bcd60e51b815260040180806020018281038252603981526020018061389c6039913960400191505060405180910390fd5b50565b600082821115611f11576040805162461bcd60e51b815260206004820152601e60248201527f536166654d6174683a207375627472616374696f6e206f766572666c6f770000604482015290519081900360640190fd5b50900390565b80836001600160a01b03166370a08231846040518263ffffffff1660e01b815260040180826001600160a01b0316815260200191505060206040518083038186803b158015611f6557600080fd5b505afa158015611f79573d6000803e3d6000fd5b505050506040513d6020811015611f8f57600080fd5b505110156106c45760405162461bcd60e51b815260040180806020018281038252603f815260200180613ac8603f913960400191505060405180910390fd5b600080611fd9611471565b90506000611fe5610d1f565b905086611ffb57611ff68289611eba565b612005565b612005828961218b565b91508461201b576120168187611eba565b612025565b612025818761218b565b90506000612034838387612597565b9998505050505050505050565b6714d1120d7b160000811015611eb75760405162461bcd60e51b81526004018080602001828103825260498152602001806139d36049913960600191505060405180910390fd5b836001600160a01b0316632a7ba1f7826040518263ffffffff1660e01b815260040180828152602001915050600060405180830381600087803b1580156120ce57600080fd5b505af11580156120e2573d6000803e3d6000fd5b50505050826001600160a01b0316639dc29fac83836040518363ffffffff1660e01b815260040180836001600160a01b0316815260200182815260200192505050600060405180830381600087803b15801561213d57600080fd5b505af1158015612151573d6000803e3d6000fd5b5050505050505050565b6000610b8d827f000000000000000000000000000000000000000000000000000000000000000061218b565b3390565b6000828201838110156121e5576040805162461bcd60e51b815260206004820152601b60248201527f536166654d6174683a206164646974696f6e206f766572666c6f770000000000604482015290519081900360640190fd5b9392505050565b6000806121f883613195565b6714d1120d7b160000119392505050565b801561225b57670de0b6b3a76400008211156122565760405162461bcd60e51b815260040180806020018281038252603281526020018061393a6032913960400191505060405180910390fd5b610be8565b6611c37937e08000821080159061227a5750670de0b6b3a76400008211155b610be85760405162461bcd60e51b8152600401808060200182810382526030815260200180613bf66030913960400191505060405180910390fd5b6000826001600160a01b03166321e37801836040518263ffffffff1660e01b815260040180826001600160a01b0316815260200191505060206040518083038186803b15801561230457600080fd5b505afa158015612318573d6000803e3d6000fd5b505050506040513d602081101561232e57600080fd5b5051905060018114156106c4576040805162461bcd60e51b815260206004820152601c60248201527f426f72726f7765724f70733a2054726f76652069732061637469766500000000604482015290519081900360640190fd5b6000846001600160a01b0316635dba4c4a6040518163ffffffff1660e01b8152600401600060405180830381600087803b1580156123c557600080fd5b505af11580156123d9573d6000803e3d6000fd5b505050506000856001600160a01b031663631203b0856040518263ffffffff1660e01b81526004018082815260200191505060206040518083038186803b15801561242357600080fd5b505afa158015612437573d6000803e3d6000fd5b505050506040513d602081101561244d57600080fd5b5051905061245c8185856131c1565b606b54604080516358caad6960e11b81526004810184905290516001600160a01b039092169163b1955ad29160248082019260009290919082900301818387803b1580156124a957600080fd5b505af11580156124bd573d6000803e3d6000fd5b5050606c54604080516340c10f1960e01b81526001600160a01b03928316600482015260248101869052905191891693506340c10f19925060448082019260009290919082900301818387803b15801561251657600080fd5b505af115801561252a573d6000803e3d6000fd5b509298975050505050505050565b7f0000000000000000000000000000000000000000000000000000000000000000811015611eb75760405162461bcd60e51b815260040180806020018281038252603a815260200180613b50603a913960400191505060405180910390fd5b600082156125be5760006125b5846125af8786613230565b90613289565b91506121e59050565b506000199392505050565b600081156125ef576125e8826125af8568056bc75e2d63100000613230565b9050610b8d565b50600019610b8d565b6714d1120d7b160000811015611eb75760405162461bcd60e51b81526004018080602001828103825260378152602001806138d56037913960400191505060405180910390fd5b670f43fc2c04ee0000811015611eb75760405162461bcd60e51b8152600401808060200182810382526049815260200180613b076049913960600191505060405180910390fd5b6040516000906001600160a01b0384169083908381818185875af1925050503d80600081146126d1576040519150601f19603f3d011682016040523d82523d6000602084013e6126d6565b606091505b50509050806106c45760405162461bcd60e51b815260040180806020018281038252602d81526020018061383f602d913960400191505060405180910390fd5b846001600160a01b0316632b7c7b11826040518263ffffffff1660e01b815260040180828152602001915050600060405180830381600087803b15801561275c57600080fd5b505af1158015612770573d6000803e3d6000fd5b50505050836001600160a01b03166340c10f1984846040518363ffffffff1660e01b815260040180836001600160a01b0316815260200182815260200192505050600060405180830381600087803b1580156127cb57600080fd5b505af11580156127df573d6000803e3d6000fd5b505050505050505050565b60006127f5306132f0565b15905090565b600254600160a81b900460ff168061281657506128166127ea565b8061282b5750600254600160a01b900460ff16155b6128665760405162461bcd60e51b815260040180806020018281038252602e81526020018061390c602e913960400191505060405180910390fd5b600254600160a81b900460ff1615801561289d576002805460ff60a01b1960ff60a81b19909116600160a81b1716600160a01b1790555b6128a56132f6565b6128ad6133ad565b8015611eb7576002805460ff60a81b1916905550565b60007f0000000000000000000000000000000000000000000000000000000000000000116128ed57fe5b6128f68a6134ab565b6128ff896134ab565b612908886134ab565b612911876134ab565b61291a866134ab565b612923856134ab565b61292c846134ab565b612935836134ab565b61293e826134ab565b612947816134ab565b6129508a613506565b606780546001600160a01b03199081166001600160a01b038d81169182179093556000805483168d85161790556001805483168c85161790556068805483168b85161790556069805483168a8516179055606a80548316898516179055600280548316888516179055606e80548316878516179055606d80548316868516179055606c805483169385169384179055606b8054909216909217905560408051918252517f143219c9e69b09e07e095fcc889b43d8f46ca892bba65f08dc3a0050869a5678916020908290030190a1604080516001600160a01b038b16815290517f78f058b189175430c48dc02699e3a0031ea4ff781536dc2fab847de4babdd8829181900360200190a1604080516001600160a01b038a16815290517f5ee0cae2f063ed938bb55046f6a932fb6ae792bf43624806bb90abe68a50be9b9181900360200190a1604080516001600160a01b038916815290517f82966d27eea39b038ee0fa30cd16532bb24f6e65d31cb58fb227aa5766cdcc7f9181900360200190a1604080516001600160a01b038816815290517fcfb07d791fcafc032b35837b50eb84b74df518cf4cc287e8084f47630fa70fa09181900360200190a1604080516001600160a01b038716815290517fe67f36a6e961157d6eff83b91f3af5a62131ceb6f04954ef74f51c1c05e7f88d9181900360200190a1604080516001600160a01b038616815290517f8c537274438aa850a330284665d81a85dd38267d09e4050d416bfc94142db2649181900360200190a1604080516001600160a01b038516815290517f65f4cf077bc01e4742eb5ad98326f6e95b63548ea24b17f8d5e823111fe788009181900360200190a1604080516001600160a01b038416815290517f112220fa8dbe96141556e0dc3d74dd95075b323f4f297616048e02d82d7017159181900360200190a1604080516001600160a01b038316815290517ff81a824d1d9030c0365252fb96daf0565f9c2007c88e13001379dda7f06d5d5c9181900360200190a150505050505050505050565b60008111611eb75760405162461bcd60e51b8152600401808060200182810382526037815260200180613c266037913960400191505060405180910390fd5b341580612c90575080155b611eb75760405162461bcd60e51b815260040180806020018281038252603081526020018061386c6030913960400191505060405180910390fd5b34151580612cd857508115155b80612ce257508015155b610be85760405162461bcd60e51b815260040180806020018281038252604681526020018061396c6046913960600191505060405180910390fd5b6000808315612d3157508290506001612d35565b8291505b9250929050565b6000806000612d4f8a8a8a8a8a8a6136aa565b915091506000612d60838387612597565b9b9a5050505050505050505050565b8315612da857612d7e836136ed565b8115612da357612d918160e001516125f8565b612da38160e001518260c0015161372a565b610bd0565b612db58160e0015161263f565b612dd2816020015182606001518360400151858560000151611fce565b6101008201819052610bd090612041565b6000610b8d827f0000000000000000000000000000000000000000000000000000000000000000611eba565b612e39827f0000000000000000000000000000000000000000000000000000000000000000611eba565b811115610be85760405162461bcd60e51b8152600401808060200182810382526043815260200180613b8a6043913960600191505060405180910390fd5b600080600085612f0957886001600160a01b031663d3d6f84389896040518363ffffffff1660e01b815260040180836001600160a01b0316815260200182815260200192505050602060405180830381600087803b158015612ed857600080fd5b505af1158015612eec573d6000803e3d6000fd5b505050506040513d6020811015612f0257600080fd5b5051612f8d565b886001600160a01b03166372423c1789896040518363ffffffff1660e01b815260040180836001600160a01b0316815260200182815260200192505050602060405180830381600087803b158015612f6057600080fd5b505af1158015612f74573d6000803e3d6000fd5b505050506040513d6020811015612f8a57600080fd5b50515b905060008461301e57896001600160a01b03166312610e928a886040518363ffffffff1660e01b815260040180836001600160a01b0316815260200182815260200192505050602060405180830381600087803b158015612fed57600080fd5b505af1158015613001573d6000803e3d6000fd5b505050506040513d602081101561301757600080fd5b50516130a2565b896001600160a01b0316639976cf458a886040518363ffffffff1660e01b815260040180836001600160a01b0316815260200182815260200192505050602060405180830381600087803b15801561307557600080fd5b505af1158015613089573d6000803e3d6000fd5b505050506040513d602081101561309f57600080fd5b50515b919a91995090975050505050505050565b60008060006130c68989898989896136aa565b9150915060006130d683836125c9565b9a9950505050505050505050565b81156130fc576130f78888888685612716565b613108565b61310888888886612088565b831561311d576131188886612686565b612151565b876001600160a01b0316628063a587876040518363ffffffff1660e01b815260040180836001600160a01b0316815260200182815260200192505050600060405180830381600087803b15801561317357600080fd5b505af1158015613187573d6000803e3d6000fd5b505050505050505050505050565b6000806131a0611471565b905060006131ac610d1f565b90506131b9828286612597565b949350505050565b60006131d9836125af86670de0b6b3a7640000613230565b905081811115610bd0576040805162461bcd60e51b815260206004820152601d60248201527f4665652065786365656465642070726f7669646564206d6178696d756d000000604482015290519081900360640190fd5b60008261323f57506000610b8d565b8282028284828161324c57fe5b04146121e55760405162461bcd60e51b81526004018080602001828103825260218152602001806139b26021913960400191505060405180910390fd5b60008082116132df576040805162461bcd60e51b815260206004820152601a60248201527f536166654d6174683a206469766973696f6e206279207a65726f000000000000604482015290519081900360640190fd5b8183816132e857fe5b049392505050565b3b151590565b600254600160a81b900460ff168061331157506133116127ea565b806133265750600254600160a01b900460ff16155b6133615760405162461bcd60e51b815260040180806020018281038252602e81526020018061390c602e913960400191505060405180910390fd5b600254600160a81b900460ff161580156128ad576002805460ff60a01b1960ff60a81b19909116600160a81b1716600160a01b1790558015611eb7576002805460ff60a81b1916905550565b600254600160a81b900460ff16806133c857506133c86127ea565b806133dd5750600254600160a01b900460ff16155b6134185760405162461bcd60e51b815260040180806020018281038252602e81526020018061390c602e913960400191505060405180910390fd5b600254600160a81b900460ff1615801561344f576002805460ff60a01b1960ff60a81b19909116600160a81b1716600160a01b1790555b6000613459612187565b603580546001600160a01b0319166001600160a01b03831690811790915560405191925090600090600080516020613a1c833981519152908290a3508015611eb7576002805460ff60a81b1916905550565b6001600160a01b038116611eb7576040805162461bcd60e51b815260206004820152601e60248201527f4163636f756e742063616e6e6f74206265207a65726f20616464726573730000604482015290519081900360640190fd5b7f0000000000000000000000000000000000000000000000000000000000000000816001600160a01b031663139f2e8c6040518163ffffffff1660e01b815260040160206040518083038186803b15801561356057600080fd5b505afa158015613574573d6000803e3d6000fd5b505050506040513d602081101561358a57600080fd5b5051146135da576040805162461bcd60e51b815260206004820152601960248201527808e82a6be869e9aa08a9ca682a8929e9c40dad2e6dac2e8c6d603b1b604482015290519081900360640190fd5b7f0000000000000000000000000000000000000000000000000000000000000000816001600160a01b0316631bf435556040518163ffffffff1660e01b815260040160206040518083038186803b15801561363457600080fd5b505afa158015613648573d6000803e3d6000fd5b505050506040513d602081101561365e57600080fd5b505114611eb7576040805162461bcd60e51b815260206004820152601560248201527409a929cbe9c8aa8be888a84a840dad2e6dac2e8c6d605b1b604482015290519081900360640190fd5b6000808787866136c3576136be8a89611eba565b6136cd565b6136cd8a8961218b565b9150846136e3576136de8987611eba565b6130a2565b6130a2898761218b565b8015611eb75760405162461bcd60e51b815260040180806020018281038252603e815260200180613a8a603e913960400191505060405180910390fd5b80821015610be85760405162461bcd60e51b815260040180806020018281038252603e815260200180613c5d603e913960400191505060405180910390fd5b60405180610100016040528060008152602001600081526020016000815260200160008152602001600081526020016000815260200160008152602001600081525090565b604051806101a00160405280600081526020016000815260200160008152602001600015158152602001600081526020016000815260200160008152602001600081526020016000815260200160008152602001600081526020016000815260200160008152509056fe4f776e61626c653a206e6577206f776e657220697320746865207a65726f2061646472657373426f72726f7765724f70733a2053656e64696e672046494c20746f20416374697665506f6f6c206661696c6564426f72726f7765724f7065726174696f6e733a2043616e6e6f7420776974686472617720616e642061646420636f6c6c426f72726f7765724f70733a204f7065726174696f6e206e6f74207065726d697474656420647572696e67205265636f76657279204d6f6465426f72726f7765724f70733a204f7065726174696f6e206d757374206c656176652074726f7665207769746820494352203e3d20434352496e697469616c697a61626c653a20636f6e747261637420697320616c726561647920696e697469616c697a65644d6178206665652070657263656e74616765206d757374206c657373207468616e206f7220657175616c20746f2031303025426f72726f7765724f70733a205468657265206d75737420626520656974686572206120636f6c6c61746572616c206368616e6765206f7220612064656274206368616e6765536166654d6174683a206d756c7469706c69636174696f6e206f766572666c6f77426f72726f7765724f70733a20416e206f7065726174696f6e207468617420776f756c6420726573756c7420696e20544352203c20434352206973206e6f74207065726d69747465648be0079c531659141344cd1fd0a4f28419497f9722a3daafe3b4186f6b6457e0426f72726f7765724f70733a2054726f766520646f6573206e6f74206578697374206f7220697320636c6f736564c3770d654ed33aeea6bf11ac8ef05d02a6a04ed4686dd2f624d853bbec43cc8b426f72726f7765724f70733a20436f6c6c61746572616c207769746864726177616c206e6f74207065726d6974746564205265636f76657279204d6f6465426f72726f7765724f70733a2043616c6c657220646f65736e74206861766520656e6f75676820746f6b656e7320746f206d616b652072657061796d656e74426f72726f7765724f70733a20416e206f7065726174696f6e207468617420776f756c6420726573756c7420696e20494352203c204d4352206973206e6f74207065726d6974746564426f72726f7765724f70733a2054726f76652773206e65742064656274206d7573742062652067726561746572207468616e206d696e696d756d426f72726f7765724f70733a20416d6f756e7420726570616964206d757374206e6f74206265206c6172676572207468616e207468652054726f766527732064656274426f72726f7765724f70733a2043616c6c6572206973206e6f742053746162696c69747920506f6f6c4d6178206665652070657263656e74616765206d757374206265206265747765656e20302e352520616e642031303025426f72726f7765724f70733a204465627420696e637265617365207265717569726573206e6f6e2d7a65726f20646562744368616e6765426f72726f7765724f70733a2043616e6e6f7420646563726561736520796f75722054726f766527732049435220696e205265636f76657279204d6f6465a2646970667358221220bc34d6f51c91f1e82c0430b06d9f4322c02baaebe831cfb9f24bbc789cea1b6a64736f6c63430007060033",
  "linkReferences": {},
  "deployedLinkReferences": {}
}