{
  "_format": "hh-sol-artifact-1",
  "contractName": "BorrowerWrappersScript",
  "sourceName": "contracts/Proxy/BorrowerWrappersScript.sol",
  "abi": [
    {
      "inputs": [
        {
          "internalType": "address",
          "name": "_borrowerOperationsAddress",
          "type": "address"
        },
        {
          "internalType": "address",
          "name": "_troveManagerAddress",
          "type": "address"
        },
        {
          "internalType": "address",
          "name": "_protocolTokenStakingAddress",
          "type": "address"
        }
      ],
      "stateMutability": "nonpayable",
      "type": "constructor"
    },
    {
      "inputs": [],
      "name": "NAME",
      "outputs": [
        {
          "internalType": "string",
          "name": "",
          "type": "string"
        }
      ],
      "stateMutability": "view",
      "type": "function"
    },
    {
      "inputs": [
        {
          "internalType": "address",
          "name": "_upperHint",
          "type": "address"
        },
        {
          "internalType": "address",
          "name": "_lowerHint",
          "type": "address"
        }
      ],
      "name": "addColl",
      "outputs": [],
      "stateMutability": "payable",
      "type": "function"
    },
    {
      "inputs": [
        {
          "internalType": "uint256",
          "name": "_maxFee",
          "type": "uint256"
        },
        {
          "internalType": "uint256",
          "name": "_collWithdrawal",
          "type": "uint256"
        },
        {
          "internalType": "uint256",
          "name": "_debtChange",
          "type": "uint256"
        },
        {
          "internalType": "bool",
          "name": "isDebtIncrease",
          "type": "bool"
        },
        {
          "internalType": "address",
          "name": "_upperHint",
          "type": "address"
        },
        {
          "internalType": "address",
          "name": "_lowerHint",
          "type": "address"
        }
      ],
      "name": "adjustTrove",
      "outputs": [],
      "stateMutability": "payable",
      "type": "function"
    },
    {
      "inputs": [],
      "name": "claimCollateral",
      "outputs": [],
      "stateMutability": "nonpayable",
      "type": "function"
    },
    {
      "inputs": [
        {
          "internalType": "uint256",
          "name": "_maxFee",
          "type": "uint256"
        },
        {
          "internalType": "uint256",
          "name": "_debtTokenAmount",
          "type": "uint256"
        },
        {
          "internalType": "address",
          "name": "_upperHint",
          "type": "address"
        },
        {
          "internalType": "address",
          "name": "_lowerHint",
          "type": "address"
        }
      ],
      "name": "claimCollateralAndOpenTrove",
      "outputs": [],
      "stateMutability": "payable",
      "type": "function"
    },
    {
      "inputs": [
        {
          "internalType": "uint256",
          "name": "_maxFee",
          "type": "uint256"
        },
        {
          "internalType": "address",
          "name": "_upperHint",
          "type": "address"
        },
        {
          "internalType": "address",
          "name": "_lowerHint",
          "type": "address"
        }
      ],
      "name": "claimSPRewardsAndRecycle",
      "outputs": [],
      "stateMutability": "nonpayable",
      "type": "function"
    },
    {
      "inputs": [
        {
          "internalType": "uint256",
          "name": "_maxFee",
          "type": "uint256"
        },
        {
          "internalType": "address",
          "name": "_upperHint",
          "type": "address"
        },
        {
          "internalType": "address",
          "name": "_lowerHint",
          "type": "address"
        }
      ],
      "name": "claimStakingGainsAndRecycle",
      "outputs": [],
      "stateMutability": "nonpayable",
      "type": "function"
    },
    {
      "inputs": [],
      "name": "closeTrove",
      "outputs": [],
      "stateMutability": "nonpayable",
      "type": "function"
    },
    {
      "inputs": [
        {
          "internalType": "uint256",
          "name": "_maxFee",
          "type": "uint256"
        },
        {
          "internalType": "uint256",
          "name": "_debtTokenAmount",
          "type": "uint256"
        },
        {
          "internalType": "address",
          "name": "_upperHint",
          "type": "address"
        },
        {
          "internalType": "address",
          "name": "_lowerHint",
          "type": "address"
        }
      ],
      "name": "openTrove",
      "outputs": [],
      "stateMutability": "payable",
      "type": "function"
    },
    {
      "inputs": [
        {
          "internalType": "uint256",
          "name": "_amount",
          "type": "uint256"
        },
        {
          "internalType": "address",
          "name": "_upperHint",
          "type": "address"
        },
        {
          "internalType": "address",
          "name": "_lowerHint",
          "type": "address"
        }
      ],
      "name": "repayDebtToken",
      "outputs": [],
      "stateMutability": "nonpayable",
      "type": "function"
    },
    {
      "inputs": [
        {
          "internalType": "uint256",
          "name": "_tokenAmount",
          "type": "uint256"
        }
      ],
      "name": "stake",
      "outputs": [],
      "stateMutability": "nonpayable",
      "type": "function"
    },
    {
      "inputs": [
        {
          "internalType": "address",
          "name": "_recipient",
          "type": "address"
        },
        {
          "internalType": "uint256",
          "name": "_amount",
          "type": "uint256"
        }
      ],
      "name": "transferFIL",
      "outputs": [
        {
          "internalType": "bool",
          "name": "",
          "type": "bool"
        }
      ],
      "stateMutability": "nonpayable",
      "type": "function"
    },
    {
      "inputs": [
        {
          "internalType": "uint256",
          "name": "_amount",
          "type": "uint256"
        },
        {
          "internalType": "address",
          "name": "_upperHint",
          "type": "address"
        },
        {
          "internalType": "address",
          "name": "_lowerHint",
          "type": "address"
        }
      ],
      "name": "withdrawColl",
      "outputs": [],
      "stateMutability": "nonpayable",
      "type": "function"
    },
    {
      "inputs": [
        {
          "internalType": "uint256",
          "name": "_maxFee",
          "type": "uint256"
        },
        {
          "internalType": "uint256",
          "name": "_amount",
          "type": "uint256"
        },
        {
          "internalType": "address",
          "name": "_upperHint",
          "type": "address"
        },
        {
          "internalType": "address",
          "name": "_lowerHint",
          "type": "address"
        }
      ],
      "name": "withdrawDebtToken",
      "outputs": [],
      "stateMutability": "nonpayable",
      "type": "function"
    }
  ],
  "bytecode": "0x6101806040523480156200001257600080fd5b5060405162001dff38038062001dff833981810160405260608110156200003857600080fd5b508051602082015160409092015190919080836200005681620003d9565b60601b6001600160601b0319166080526200007181620003d9565b60601b6001600160601b03191660a0526200008c82620003d9565b6000829050806001600160a01b031660c0816001600160a01b031660601b815250506000816001600160a01b031663048c661d6040518163ffffffff1660e01b815260040160206040518083038186803b158015620000ea57600080fd5b505afa158015620000ff573d6000803e3d6000fd5b505050506040513d60208110156200011657600080fd5b505190506200012581620003d9565b806001600160a01b031660e0816001600160a01b031660601b815250506000826001600160a01b031663741bef1a6040518163ffffffff1660e01b815260040160206040518083038186803b1580156200017e57600080fd5b505afa15801562000193573d6000803e3d6000fd5b505050506040513d6020811015620001aa57600080fd5b50519050620001b981620003d9565b806001600160a01b0316610100816001600160a01b031660601b815250506000836001600160a01b031663f8d898986040518163ffffffff1660e01b815260040160206040518083038186803b1580156200021357600080fd5b505afa15801562000228573d6000803e3d6000fd5b505050506040513d60208110156200023f57600080fd5b505190506200024e81620003d9565b806001600160a01b0316610120816001600160a01b031660601b815250506000846001600160a01b0316631a465fe16040518163ffffffff1660e01b815260040160206040518083038186803b158015620002a857600080fd5b505afa158015620002bd573d6000803e3d6000fd5b505050506040513d6020811015620002d457600080fd5b50519050620002e381620003d9565b806001600160a01b0316610140816001600160a01b031660601b815250506000856001600160a01b031663e54524236040518163ffffffff1660e01b815260040160206040518083038186803b1580156200033d57600080fd5b505afa15801562000352573d6000803e3d6000fd5b505050506040513d60208110156200036957600080fd5b505190506001600160a01b0387811690821614620003b95760405162461bcd60e51b815260040180806020018281038252603a81526020018062001dc5603a913960400191505060405180910390fd5b60601b6001600160601b0319166101605250620004389650505050505050565b6001600160a01b03811662000435576040805162461bcd60e51b815260206004820152601e60248201527f4163636f756e742063616e6e6f74206265207a65726f20616464726573730000604482015290519081900360640190fd5b50565b60805160601c60a05160601c60c05160601c60e05160601c6101005160601c6101205160601c6101405160601c6101605160601c6118ae6200051760003980610a405280610fb052806112dd52508061073852806108525280610f18528061122e525080610e80528061102c5250806115645250806107d052806109cc52806111cf525080611487528061161652806116a6525080610d2952508061042652806104cb528061054552806105db528061068d52806109395280610aca5280610b785280610bf85280610c535280610def528061113052506118ae6000f3fe6080604052600436106100bd5760003560e01c80636f0b0c1c1161006f5780636f0b0c1c1461024b578063860665b314610260578063a3f4df7e1461029a578063a694fc3a14610324578063c6a6cf201461034e578063d08eb01b14610396578063dc7fa401146103d7576100bd565b80630802c78a146100c25780630e704d5014610105578063233a2e391461011a5780635530273c1461015457806358c9d9771461019557806362a0d799146101d657806368647db11461021d575b600080fd5b3480156100ce57600080fd5b50610103600480360360608110156100e557600080fd5b508035906001600160a01b0360208201358116916040013516610424565b005b34801561011157600080fd5b506101036104c9565b6101036004803603608081101561013057600080fd5b508035906020810135906001600160a01b036040820135811691606001351661053e565b34801561016057600080fd5b506101036004803603606081101561017757600080fd5b508035906001600160a01b036020820135811691604001351661068b565b3480156101a157600080fd5b50610103600480360360608110156101b857600080fd5b508035906001600160a01b0360208201358116916040013516610713565b3480156101e257600080fd5b50610103600480360360808110156101f957600080fd5b508035906020810135906001600160a01b0360408201358116916060013516610ac8565b6101036004803603604081101561023357600080fd5b506001600160a01b0381358116916020013516610b76565b34801561025757600080fd5b50610103610bf6565b6101036004803603608081101561027657600080fd5b508035906020810135906001600160a01b0360408201358116916060013516610c51565b3480156102a657600080fd5b506102af610cf5565b6040805160208082528351818301528351919283929083019185019080838360005b838110156102e95781810151838201526020016102d1565b50505050905090810190601f1680156103165780820380516001836020036101000a031916815260200191505b509250505060405180910390f35b34801561033057600080fd5b506101036004803603602081101561034757600080fd5b5035610d27565b610103600480360360c081101561036457600080fd5b5080359060208101359060408101359060608101351515906001600160a01b03608082013581169160a0013516610da8565b3480156103a257600080fd5b50610103600480360360608110156103b957600080fd5b508035906001600160a01b0360208201358116916040013516610e5b565b3480156103e357600080fd5b50610410600480360360408110156103fa57600080fd5b506001600160a01b038135169060200135611368565b604080519115158252519081900360200190f35b7f00000000000000000000000000000000000000000000000000000000000000006001600160a01b0316630802c78a8484846040518463ffffffff1660e01b815260040180848152602001836001600160a01b03168152602001826001600160a01b031681526020019350505050600060405180830381600087803b1580156104ac57600080fd5b505af11580156104c0573d6000803e3d6000fd5b50505050505050565b7f00000000000000000000000000000000000000000000000000000000000000006001600160a01b0316630e704d506040518163ffffffff1660e01b8152600401600060405180830381600087803b15801561052457600080fd5b505af1158015610538573d6000803e3d6000fd5b50505050565b60004790507f00000000000000000000000000000000000000000000000000000000000000006001600160a01b0316636f0b0c1c6040518163ffffffff1660e01b8152600401600060405180830381600087803b15801561059e57600080fd5b505af11580156105b2573d6000803e3d6000fd5b5047925050508181116105c157fe5b60006105d7346105d184866113c7565b90611424565b90507f00000000000000000000000000000000000000000000000000000000000000006001600160a01b031663860665b382898989896040518663ffffffff1660e01b815260040180858152602001848152602001836001600160a01b03168152602001826001600160a01b031681526020019450505050506000604051808303818588803b15801561066957600080fd5b505af115801561067d573d6000803e3d6000fd5b505050505050505050505050565b7f00000000000000000000000000000000000000000000000000000000000000006001600160a01b0316635530273c8484846040518463ffffffff1660e01b815260040180848152602001836001600160a01b03168152602001826001600160a01b031681526020019350505050600060405180830381600087803b1580156104ac57600080fd5b604080516370a0823160e01b8152306004820152905147916000916001600160a01b037f000000000000000000000000000000000000000000000000000000000000000016916370a08231916024808301926020929190829003018186803b15801561077e57600080fd5b505afa158015610792573d6000803e3d6000fd5b505050506040513d60208110156107a857600080fd5b505160408051632e54bf9560e01b815260006004820181905291519293506001600160a01b037f00000000000000000000000000000000000000000000000000000000000000001692632e54bf959260248084019391929182900301818387803b15801561081557600080fd5b505af1158015610829573d6000803e3d6000fd5b5050604080516370a0823160e01b81523060048201529051479350600092506001600160a01b037f000000000000000000000000000000000000000000000000000000000000000016916370a08231916024808301926020929190829003018186803b15801561089857600080fd5b505afa1580156108ac573d6000803e3d6000fd5b505050506040513d60208110156108c257600080fd5b5051905060006108d283866113c7565b90508015610a2a576108e330611485565b60006108ee8261155f565b60408051630635367960e51b8152600481018c905260006024820181905260448201849052600160648301526001600160a01b038c811660848401528b811660a484015292519394507f00000000000000000000000000000000000000000000000000000000000000009092169263c6a6cf2092869260c4808201939182900301818588803b15801561098057600080fd5b505af1158015610994573d6000803e3d6000fd5b50505050506000811115610a285760408051635f788d6560e01b81526004810183905260006024820181905291516001600160a01b037f00000000000000000000000000000000000000000000000000000000000000001692635f788d65926044808201939182900301818387803b158015610a0f57600080fd5b505af1158015610a23573d6000803e3d6000fd5b505050505b505b6000610a3683866113c7565b90508015610abd577f00000000000000000000000000000000000000000000000000000000000000006001600160a01b031663a694fc3a826040518263ffffffff1660e01b815260040180828152602001915050600060405180830381600087803b158015610aa457600080fd5b505af1158015610ab8573d6000803e3d6000fd5b505050505b505050505050505050565b7f00000000000000000000000000000000000000000000000000000000000000006001600160a01b03166362a0d799858585856040518563ffffffff1660e01b815260040180858152602001848152602001836001600160a01b03168152602001826001600160a01b03168152602001945050505050600060405180830381600087803b158015610b5857600080fd5b505af1158015610b6c573d6000803e3d6000fd5b5050505050505050565b7f00000000000000000000000000000000000000000000000000000000000000006001600160a01b03166368647db13484846040518463ffffffff1660e01b815260040180836001600160a01b03168152602001826001600160a01b03168152602001925050506000604051808303818588803b1580156104ac57600080fd5b7f00000000000000000000000000000000000000000000000000000000000000006001600160a01b0316636f0b0c1c6040518163ffffffff1660e01b8152600401600060405180830381600087803b15801561052457600080fd5b7f00000000000000000000000000000000000000000000000000000000000000006001600160a01b031663860665b334868686866040518663ffffffff1660e01b815260040180858152602001848152602001836001600160a01b03168152602001826001600160a01b031681526020019450505050506000604051808303818588803b158015610ce157600080fd5b505af1158015610abd573d6000803e3d6000fd5b60405180604001604052806016815260200175109bdc9c9bddd95c95dc985c1c195c9cd4d8dc9a5c1d60521b81525081565b7f00000000000000000000000000000000000000000000000000000000000000006001600160a01b031663a694fc3a826040518263ffffffff1660e01b815260040180828152602001915050600060405180830381600087803b158015610d8d57600080fd5b505af1158015610da1573d6000803e3d6000fd5b5050505050565b60408051630635367960e51b815260048101889052602481018790526044810186905284151560648201526001600160a01b03848116608483015283811660a483015291517f00000000000000000000000000000000000000000000000000000000000000009092169163c6a6cf2091349160c480830192600092919082900301818588803b158015610e3a57600080fd5b505af1158015610e4e573d6000803e3d6000fd5b5050505050505050505050565b604080516370a0823160e01b8152306004820152905147916000916001600160a01b037f000000000000000000000000000000000000000000000000000000000000000016916370a08231916024808301926020929190829003018186803b158015610ec657600080fd5b505afa158015610eda573d6000803e3d6000fd5b505050506040513d6020811015610ef057600080fd5b5051604080516370a0823160e01b815230600482015290519192506000916001600160a01b037f000000000000000000000000000000000000000000000000000000000000000016916370a08231916024808301926020929190829003018186803b158015610f5e57600080fd5b505afa158015610f72573d6000803e3d6000fd5b505050506040513d6020811015610f8857600080fd5b5051604080516305c2fbcf60e31b815260006004820181905291519293506001600160a01b037f00000000000000000000000000000000000000000000000000000000000000001692632e17de789260248084019391929182900301818387803b158015610ff557600080fd5b505af1158015611009573d6000803e3d6000fd5b50505050600061102284476113c790919063ffffffff16565b905060006110c9847f00000000000000000000000000000000000000000000000000000000000000006001600160a01b03166370a08231306040518263ffffffff1660e01b815260040180826001600160a01b0316815260200191505060206040518083038186803b15801561109757600080fd5b505afa1580156110ab573d6000803e3d6000fd5b505050506040513d60208110156110c157600080fd5b5051906113c7565b905060008215611191576110dc30611485565b6110e58361155f565b60408051630635367960e51b8152600481018c905260006024820181905260448201849052600160648301526001600160a01b038c811660848401528b811660a484015292519394507f00000000000000000000000000000000000000000000000000000000000000009092169263c6a6cf2092879260c4808201939182900301818588803b15801561117757600080fd5b505af115801561118b573d6000803e3d6000fd5b50505050505b600061119d8383611424565b9050801561135c5760408051635f788d6560e01b81526004810183905260006024820181905291516001600160a01b037f00000000000000000000000000000000000000000000000000000000000000001692635f788d65926044808201939182900301818387803b15801561121257600080fd5b505af1158015611226573d6000803e3d6000fd5b5050505060007f00000000000000000000000000000000000000000000000000000000000000006001600160a01b03166370a08231306040518263ffffffff1660e01b815260040180826001600160a01b0316815260200191505060206040518083038186803b15801561129957600080fd5b505afa1580156112ad573d6000803e3d6000fd5b505050506040513d60208110156112c357600080fd5b5051905060006112d382886113c7565b9050801561067d577f00000000000000000000000000000000000000000000000000000000000000006001600160a01b031663a694fc3a826040518263ffffffff1660e01b815260040180828152602001915050600060405180830381600087803b15801561134157600080fd5b505af1158015611355573d6000803e3d6000fd5b5050505050505b50505050505050505050565b60405160009081906001600160a01b0385169084908381818185875af1925050503d80600081146113b5576040519150601f19603f3d011682016040523d82523d6000602084013e6113ba565b606091505b5090925050505b92915050565b60008282111561141e576040805162461bcd60e51b815260206004820152601e60248201527f536166654d6174683a207375627472616374696f6e206f766572666c6f770000604482015290519081900360640190fd5b50900390565b60008282018381101561147e576040805162461bcd60e51b815260206004820152601b60248201527f536166654d6174683a206164646974696f6e206f766572666c6f770000000000604482015290519081900360640190fd5b9392505050565b7f00000000000000000000000000000000000000000000000000000000000000006001600160a01b03166321e37801826040518263ffffffff1660e01b815260040180826001600160a01b0316815260200191505060206040518083038186803b1580156114f257600080fd5b505afa158015611506573d6000803e3d6000fd5b505050506040513d602081101561151c57600080fd5b505160011461155c5760405162461bcd60e51b81526004018080602001828103825260388152602001806118206038913960400191505060405180910390fd5b50565b6000807f00000000000000000000000000000000000000000000000000000000000000006001600160a01b0316630fdb11cf6040518163ffffffff1660e01b8152600401602060405180830381600087803b1580156115bd57600080fd5b505af11580156115d1573d6000803e3d6000fd5b505050506040513d60208110156115e757600080fd5b505160408051630d293c7160e41b81523060048201526024810183905290519192506000916001600160a01b037f0000000000000000000000000000000000000000000000000000000000000000169163d293c710916044808301926020929190829003018186803b15801561165c57600080fd5b505afa158015611670573d6000803e3d6000fd5b505050506040513d602081101561168657600080fd5b5051905060006116a08261169a878661175f565b906117b8565b905060007f00000000000000000000000000000000000000000000000000000000000000006001600160a01b03166366ca4a216040518163ffffffff1660e01b815260040160206040518083038186803b1580156116fd57600080fd5b505afa158015611711573d6000803e3d6000fd5b505050506040513d602081101561172757600080fd5b505190506000611754611742670de0b6b3a764000084611424565b61169a85670de0b6b3a764000061175f565b979650505050505050565b60008261176e575060006113c1565b8282028284828161177b57fe5b041461147e5760405162461bcd60e51b81526004018080602001828103825260218152602001806118586021913960400191505060405180910390fd5b600080821161180e576040805162461bcd60e51b815260206004820152601a60248201527f536166654d6174683a206469766973696f6e206279207a65726f000000000000604482015290519081900360640190fd5b81838161181757fe5b04939250505056fe426f72726f77657257726170706572735363726970743a2063616c6c6572206d757374206861766520616e206163746976652074726f7665536166654d6174683a206d756c7469706c69636174696f6e206f766572666c6f77a2646970667358221220157f4841be928da01c2225b0cc48e784048823e063788a003309f160e6427e8964736f6c63430007060033426f72726f77657257726170706572735363726970743a2057726f6e672050726f746f636f6c546f6b656e5374616b696e672061646472657373",
  "linkReferences": {},
  "deployedLinkReferences": {}
}