{
  "_format": "hh-sol-artifact-1",
  "contractName": "BorrowerOperations",
  "sourceName": "contracts/BorrowerOperations.sol",
  "abi": [
    {
      "inputs": [
        {
          "internalType": "uint256",
          "name": "_gasCompensation",
          "type": "uint256"
        },
        {
          "internalType": "uint256",
          "name": "_minNetDebt",
          "type": "uint256"
        }
      ],
      "stateMutability": "nonpayable",
      "type": "constructor"
    },
    {
      "anonymous": false,
      "inputs": [
        {
          "indexed": false,
          "internalType": "address",
          "name": "_activePoolAddress",
          "type": "address"
        }
      ],
      "name": "ActivePoolAddressChanged",
      "type": "event"
    },
    {
      "anonymous": false,
      "inputs": [
        {
          "indexed": false,
          "internalType": "address",
          "name": "_collSurplusPoolAddress",
          "type": "address"
        }
      ],
      "name": "CollSurplusPoolAddressChanged",
      "type": "event"
    },
    {
      "anonymous": false,
      "inputs": [
        {
          "indexed": false,
          "internalType": "address",
          "name": "_debtTokenAddress",
          "type": "address"
        }
      ],
      "name": "DebtTokenAddressChanged",
      "type": "event"
    },
    {
      "anonymous": false,
      "inputs": [
        {
          "indexed": true,
          "internalType": "address",
          "name": "_borrower",
          "type": "address"
        },
        {
          "indexed": false,
          "internalType": "uint256",
          "name": "_debtTokenFee",
          "type": "uint256"
        }
      ],
      "name": "DebtTokenBorrowingFeePaid",
      "type": "event"
    },
    {
      "anonymous": false,
      "inputs": [
        {
          "indexed": false,
          "internalType": "address",
          "name": "_defaultPoolAddress",
          "type": "address"
        }
      ],
      "name": "DefaultPoolAddressChanged",
      "type": "event"
    },
    {
      "anonymous": false,
      "inputs": [
        {
          "indexed": false,
          "internalType": "address",
          "name": "_gasPoolAddress",
          "type": "address"
        }
      ],
      "name": "GasPoolAddressChanged",
      "type": "event"
    },
    {
      "anonymous": false,
      "inputs": [
        {
          "indexed": true,
          "internalType": "address",
          "name": "previousOwner",
          "type": "address"
        },
        {
          "indexed": true,
          "internalType": "address",
          "name": "newOwner",
          "type": "address"
        }
      ],
      "name": "OwnershipTransferred",
      "type": "event"
    },
    {
      "anonymous": false,
      "inputs": [
        {
          "indexed": false,
          "internalType": "address",
          "name": "_newPriceFeedAddress",
          "type": "address"
        }
      ],
      "name": "PriceFeedAddressChanged",
      "type": "event"
    },
    {
      "anonymous": false,
      "inputs": [
        {
          "indexed": false,
          "internalType": "address",
          "name": "_protocolTokenStakingAddress",
          "type": "address"
        }
      ],
      "name": "ProtocolTokenStakingAddressChanged",
      "type": "event"
    },
    {
      "anonymous": false,
      "inputs": [
        {
          "indexed": false,
          "internalType": "address",
          "name": "_sortedTrovesAddress",
          "type": "address"
        }
      ],
      "name": "SortedTrovesAddressChanged",
      "type": "event"
    },
    {
      "anonymous": false,
      "inputs": [
        {
          "indexed": false,
          "internalType": "address",
          "name": "_stabilityPoolAddress",
          "type": "address"
        }
      ],
      "name": "StabilityPoolAddressChanged",
      "type": "event"
    },
    {
      "anonymous": false,
      "inputs": [
        {
          "indexed": true,
          "internalType": "address",
          "name": "_borrower",
          "type": "address"
        },
        {
          "indexed": false,
          "internalType": "uint256",
          "name": "arrayIndex",
          "type": "uint256"
        }
      ],
      "name": "TroveCreated",
      "type": "event"
    },
    {
      "anonymous": false,
      "inputs": [
        {
          "indexed": false,
          "internalType": "address",
          "name": "_newTroveManagerAddress",
          "type": "address"
        }
      ],
      "name": "TroveManagerAddressChanged",
      "type": "event"
    },
    {
      "anonymous": false,
      "inputs": [
        {
          "indexed": true,
          "internalType": "address",
          "name": "_borrower",
          "type": "address"
        },
        {
          "indexed": false,
          "internalType": "uint256",
          "name": "_debt",
          "type": "uint256"
        },
        {
          "indexed": false,
          "internalType": "uint256",
          "name": "_coll",
          "type": "uint256"
        },
        {
          "indexed": false,
          "internalType": "uint256",
          "name": "stake",
          "type": "uint256"
        },
        {
          "indexed": false,
          "internalType": "enum IBorrowerOperations.BorrowerOperation",
          "name": "operation",
          "type": "uint8"
        }
      ],
      "name": "TroveUpdated",
      "type": "event"
    },
    {
      "inputs": [],
      "name": "BORROWING_FEE_FLOOR",
      "outputs": [
        {
          "internalType": "uint256",
          "name": "",
          "type": "uint256"
        }
      ],
      "stateMutability": "view",
      "type": "function"
    },
    {
      "inputs": [],
      "name": "CCR",
      "outputs": [
        {
          "internalType": "uint256",
          "name": "",
          "type": "uint256"
        }
      ],
      "stateMutability": "view",
      "type": "function"
    },
    {
      "inputs": [],
      "name": "DECIMAL_PRECISION",
      "outputs": [
        {
          "internalType": "uint256",
          "name": "",
          "type": "uint256"
        }
      ],
      "stateMutability": "view",
      "type": "function"
    },
    {
      "inputs": [],
      "name": "GAS_COMPENSATION",
      "outputs": [
        {
          "internalType": "uint256",
          "name": "",
          "type": "uint256"
        }
      ],
      "stateMutability": "view",
      "type": "function"
    },
    {
      "inputs": [],
      "name": "MCR",
      "outputs": [
        {
          "internalType": "uint256",
          "name": "",
          "type": "uint256"
        }
      ],
      "stateMutability": "view",
      "type": "function"
    },
    {
      "inputs": [],
      "name": "MIN_NET_DEBT",
      "outputs": [
        {
          "internalType": "uint256",
          "name": "",
          "type": "uint256"
        }
      ],
      "stateMutability": "view",
      "type": "function"
    },
    {
      "inputs": [],
      "name": "NAME",
      "outputs": [
        {
          "internalType": "string",
          "name": "",
          "type": "string"
        }
      ],
      "stateMutability": "view",
      "type": "function"
    },
    {
      "inputs": [],
      "name": "PERCENT_DIVISOR",
      "outputs": [
        {
          "internalType": "uint256",
          "name": "",
          "type": "uint256"
        }
      ],
      "stateMutability": "view",
      "type": "function"
    },
    {
      "inputs": [],
      "name": "_100pct",
      "outputs": [
        {
          "internalType": "uint256",
          "name": "",
          "type": "uint256"
        }
      ],
      "stateMutability": "view",
      "type": "function"
    },
    {
      "inputs": [],
      "name": "activePool",
      "outputs": [
        {
          "internalType": "contract IActivePool",
          "name": "",
          "type": "address"
        }
      ],
      "stateMutability": "view",
      "type": "function"
    },
    {
      "inputs": [
        {
          "internalType": "address",
          "name": "_upperHint",
          "type": "address"
        },
        {
          "internalType": "address",
          "name": "_lowerHint",
          "type": "address"
        }
      ],
      "name": "addColl",
      "outputs": [],
      "stateMutability": "payable",
      "type": "function"
    },
    {
      "inputs": [
        {
          "internalType": "uint256",
          "name": "_maxFeePercentage",
          "type": "uint256"
        },
        {
          "internalType": "uint256",
          "name": "_collWithdrawal",
          "type": "uint256"
        },
        {
          "internalType": "uint256",
          "name": "_debtTokenChange",
          "type": "uint256"
        },
        {
          "internalType": "bool",
          "name": "_isDebtIncrease",
          "type": "bool"
        },
        {
          "internalType": "address",
          "name": "_upperHint",
          "type": "address"
        },
        {
          "internalType": "address",
          "name": "_lowerHint",
          "type": "address"
        }
      ],
      "name": "adjustTrove",
      "outputs": [],
      "stateMutability": "payable",
      "type": "function"
    },
    {
      "inputs": [],
      "name": "claimCollateral",
      "outputs": [],
      "stateMutability": "nonpayable",
      "type": "function"
    },
    {
      "inputs": [],
      "name": "closeTrove",
      "outputs": [],
      "stateMutability": "nonpayable",
      "type": "function"
    },
    {
      "inputs": [],
      "name": "collSurplusPool",
      "outputs": [
        {
          "internalType": "contract ICollSurplusPool",
          "name": "",
          "type": "address"
        }
      ],
      "stateMutability": "view",
      "type": "function"
    },
    {
      "inputs": [],
      "name": "debtToken",
      "outputs": [
        {
          "internalType": "contract IDebtToken",
          "name": "",
          "type": "address"
        }
      ],
      "stateMutability": "view",
      "type": "function"
    },
    {
      "inputs": [],
      "name": "defaultPool",
      "outputs": [
        {
          "internalType": "contract IDefaultPool",
          "name": "",
          "type": "address"
        }
      ],
      "stateMutability": "view",
      "type": "function"
    },
    {
      "inputs": [],
      "name": "gasPoolAddress",
      "outputs": [
        {
          "internalType": "address",
          "name": "",
          "type": "address"
        }
      ],
      "stateMutability": "view",
      "type": "function"
    },
    {
      "inputs": [
        {
          "internalType": "uint256",
          "name": "_debt",
          "type": "uint256"
        }
      ],
      "name": "getCompositeDebt",
      "outputs": [
        {
          "internalType": "uint256",
          "name": "",
          "type": "uint256"
        }
      ],
      "stateMutability": "view",
      "type": "function"
    },
    {
      "inputs": [],
      "name": "getEntireSystemColl",
      "outputs": [
        {
          "internalType": "uint256",
          "name": "entireSystemColl",
          "type": "uint256"
        }
      ],
      "stateMutability": "view",
      "type": "function"
    },
    {
      "inputs": [],
      "name": "getEntireSystemDebt",
      "outputs": [
        {
          "internalType": "uint256",
          "name": "entireSystemDebt",
          "type": "uint256"
        }
      ],
      "stateMutability": "view",
      "type": "function"
    },
    {
      "inputs": [
        {
          "internalType": "address",
          "name": "_troveManagerAddress",
          "type": "address"
        },
        {
          "internalType": "address",
          "name": "_activePoolAddress",
          "type": "address"
        },
        {
          "internalType": "address",
          "name": "_defaultPoolAddress",
          "type": "address"
        },
        {
          "internalType": "address",
          "name": "_stabilityPoolAddress",
          "type": "address"
        },
        {
          "internalType": "address",
          "name": "_gasPoolAddress",
          "type": "address"
        },
        {
          "internalType": "address",
          "name": "_collSurplusPoolAddress",
          "type": "address"
        },
        {
          "internalType": "address",
          "name": "_priceFeedAddress",
          "type": "address"
        },
        {
          "internalType": "address",
          "name": "_sortedTrovesAddress",
          "type": "address"
        },
        {
          "internalType": "address",
          "name": "_debtTokenAddress",
          "type": "address"
        },
        {
          "internalType": "address",
          "name": "_protocolTokenStakingAddress",
          "type": "address"
        }
      ],
      "name": "initialize",
      "outputs": [],
      "stateMutability": "nonpayable",
      "type": "function"
    },
    {
      "inputs": [
        {
          "internalType": "address",
          "name": "_borrower",
          "type": "address"
        },
        {
          "internalType": "address",
          "name": "_upperHint",
          "type": "address"
        },
        {
          "internalType": "address",
          "name": "_lowerHint",
          "type": "address"
        }
      ],
      "name": "moveFILGainToTrove",
      "outputs": [],
      "stateMutability": "payable",
      "type": "function"
    },
    {
      "inputs": [
        {
          "internalType": "uint256",
          "name": "_maxFeePercentage",
          "type": "uint256"
        },
        {
          "internalType": "uint256",
          "name": "_debtTokenAmount",
          "type": "uint256"
        },
        {
          "internalType": "address",
          "name": "_upperHint",
          "type": "address"
        },
        {
          "internalType": "address",
          "name": "_lowerHint",
          "type": "address"
        }
      ],
      "name": "openTrove",
      "outputs": [],
      "stateMutability": "payable",
      "type": "function"
    },
    {
      "inputs": [],
      "name": "owner",
      "outputs": [
        {
          "internalType": "address",
          "name": "",
          "type": "address"
        }
      ],
      "stateMutability": "view",
      "type": "function"
    },
    {
      "inputs": [],
      "name": "priceFeed",
      "outputs": [
        {
          "internalType": "contract IPriceFeed",
          "name": "",
          "type": "address"
        }
      ],
      "stateMutability": "view",
      "type": "function"
    },
    {
      "inputs": [],
      "name": "protocolTokenStaking",
      "outputs": [
        {
          "internalType": "contract IProtocolTokenStaking",
          "name": "",
          "type": "address"
        }
      ],
      "stateMutability": "view",
      "type": "function"
    },
    {
      "inputs": [],
      "name": "protocolTokenStakingAddress",
      "outputs": [
        {
          "internalType": "address",
          "name": "",
          "type": "address"
        }
      ],
      "stateMutability": "view",
      "type": "function"
    },
    {
      "inputs": [],
      "name": "renounceOwnership",
      "outputs": [],
      "stateMutability": "nonpayable",
      "type": "function"
    },
    {
      "inputs": [
        {
          "internalType": "uint256",
          "name": "_debtTokenAmount",
          "type": "uint256"
        },
        {
          "internalType": "address",
          "name": "_upperHint",
          "type": "address"
        },
        {
          "internalType": "address",
          "name": "_lowerHint",
          "type": "address"
        }
      ],
      "name": "repayDebtToken",
      "outputs": [],
      "stateMutability": "nonpayable",
      "type": "function"
    },
    {
      "inputs": [],
      "name": "sortedTroves",
      "outputs": [
        {
          "internalType": "contract ISortedTroves",
          "name": "",
          "type": "address"
        }
      ],
      "stateMutability": "view",
      "type": "function"
    },
    {
      "inputs": [],
      "name": "stabilityPoolAddress",
      "outputs": [
        {
          "internalType": "address",
          "name": "",
          "type": "address"
        }
      ],
      "stateMutability": "view",
      "type": "function"
    },
    {
      "inputs": [
        {
          "internalType": "address",
          "name": "newOwner",
          "type": "address"
        }
      ],
      "name": "transferOwnership",
      "outputs": [],
      "stateMutability": "nonpayable",
      "type": "function"
    },
    {
      "inputs": [],
      "name": "troveManager",
      "outputs": [
        {
          "internalType": "contract ITroveManager",
          "name": "",
          "type": "address"
        }
      ],
      "stateMutability": "view",
      "type": "function"
    },
    {
      "inputs": [
        {
          "internalType": "uint256",
          "name": "_collWithdrawal",
          "type": "uint256"
        },
        {
          "internalType": "address",
          "name": "_upperHint",
          "type": "address"
        },
        {
          "internalType": "address",
          "name": "_lowerHint",
          "type": "address"
        }
      ],
      "name": "withdrawColl",
      "outputs": [],
      "stateMutability": "nonpayable",
      "type": "function"
    },
    {
      "inputs": [
        {
          "internalType": "uint256",
          "name": "_maxFeePercentage",
          "type": "uint256"
        },
        {
          "internalType": "uint256",
          "name": "_debtTokenAmount",
          "type": "uint256"
        },
        {
          "internalType": "address",
          "name": "_upperHint",
          "type": "address"
        },
        {
          "internalType": "address",
          "name": "_lowerHint",
          "type": "address"
        }
      ],
      "name": "withdrawDebtToken",
      "outputs": [],
      "stateMutability": "nonpayable",
      "type": "function"
    }
  ],
  "bytecode": "0x60c06040523480156200001157600080fd5b50604051620042c2380380620042c2833981810160405260408110156200003757600080fd5b508051602090910151608082905260a0819052603254610100900460ff168062000066575062000066620000fa565b8062000075575060325460ff16155b620000b25760405162461bcd60e51b815260040180806020018281038252602e81526020018062004294602e913960400191505060405180910390fd5b603254610100900460ff16158015620000de576032805460ff1961ff0019909116610100171660011790555b8015620000f1576032805461ff00191690555b5050506200011e565b600062000112306200011860201b62001a591760201c565b15905090565b3b151590565b60805160a05161411b6200017960003980610c4f52806128415280612cfe52806139e15250806109f05280610b545280610b935280610c2b5280611604528061242a528061317e52806131a8528061390d525061411b6000f3fe6080604052600436106101cf5760003560e01c8063741bef1a116100f8578063ae91875411610090578063ae9187541461059b578063c306b378146105b0578063c6a6cf201461062e578063cda775f914610676578063e54524231461068b578063f2fde38b146106a0578063f8d89898146106d3578063f92d3433146106e8578063fe9d0323146106fd576101cf565b8063741bef1a14610459578063794e57241461046e578063795d26c3146104835780637f7dde4a14610498578063860665b3146104ad578063887105d3146104e75780638da5cb5b146104fc578063a20baee614610444578063a3f4df7e14610511576101cf565b80634ff814431161016b5780634ff81443146103105780635530273c1461033a5780635733d58f1461037b57806357aae46b1461039057806362a0d799146103a557806368647db1146103ec5780636f0b0c1c1461041a578063715018a61461042f57806372fe25aa14610444576101cf565b80630802c78a146101d45780630b622ab2146102175780630e43d8ce146102485780630e704d5014610280578063139f2e8c146102955780631bf43555146102bc5780633cc74225146102d15780633d83908a146102e65780634870dd9a146102fb575b600080fd5b3480156101e057600080fd5b50610215600480360360608110156101f757600080fd5b508035906001600160a01b0360208201358116916040013516610712565b005b34801561022357600080fd5b5061022c610777565b604080516001600160a01b039092168252519081900360200190f35b6102156004803603606081101561025e57600080fd5b506001600160a01b038135811691602081013582169160409091013516610786565b34801561028c57600080fd5b506102156107a5565b3480156102a157600080fd5b506102aa610c29565b60408051918252519081900360200190f35b3480156102c857600080fd5b506102aa610c4d565b3480156102dd57600080fd5b5061022c610c71565b3480156102f257600080fd5b5061022c610c80565b34801561030757600080fd5b506102aa610c8f565b34801561031c57600080fd5b506102aa6004803603602081101561033357600080fd5b5035610c94565b34801561034657600080fd5b506102156004803603606081101561035d57600080fd5b508035906001600160a01b0360208201358116916040013516610ca5565b34801561038757600080fd5b506102aa610d00565b34801561039c57600080fd5b5061022c610d0c565b3480156103b157600080fd5b50610215600480360360808110156103c857600080fd5b508035906020810135906001600160a01b0360408201358116916060013516610d1b565b6102156004803603604081101561040257600080fd5b506001600160a01b0381358116916020013516610d82565b34801561042657600080fd5b50610215610de6565b34801561043b57600080fd5b50610215610e4c565b34801561045057600080fd5b506102aa610ef8565b34801561046557600080fd5b5061022c610f04565b34801561047a57600080fd5b506102aa610f13565b34801561048f57600080fd5b506102aa610f1f565b3480156104a457600080fd5b5061022c61101a565b610215600480360360808110156104c357600080fd5b508035906020810135906001600160a01b0360408201358116916060013516611029565b3480156104f357600080fd5b506102aa6116ca565b34801561050857600080fd5b5061022c611786565b34801561051d57600080fd5b50610526611795565b6040805160208082528351818301528351919283929083019185019080838360005b83811015610560578181015183820152602001610548565b50505050905090810190601f16801561058d5780820380516001836020036101000a031916815260200191505b509250505060405180910390f35b3480156105a757600080fd5b5061022c6117c3565b3480156105bc57600080fd5b5061021560048036036101408110156105d457600080fd5b506001600160a01b038135811691602081013582169160408201358116916060810135821691608082013581169160a081013582169160c082013581169160e08101358216916101008201358116916101200135166117d2565b610215600480360360c081101561064457600080fd5b5080359060208101359060408101359060608101351515906001600160a01b03608082013581169160a00135166118a8565b34801561068257600080fd5b5061022c61190f565b34801561069757600080fd5b5061022c61191e565b3480156106ac57600080fd5b50610215600480360360208110156106c357600080fd5b50356001600160a01b031661192d565b3480156106df57600080fd5b5061022c611a30565b3480156106f457600080fd5b506102aa611a3f565b34801561070957600080fd5b5061022c611a4a565b60026097541415610758576040805162461bcd60e51b815260206004820152601f6024820152600080516020613c1e833981519152604482015290519081900360640190fd5b600260975561076d3360008581868682611a5f565b5050600160975550565b60ca546001600160a01b031681565b61078e612032565b6107a083600080600086866000611a5f565b505050565b600260975414156107eb576040805162461bcd60e51b815260206004820152601f6024820152600080516020613c1e833981519152604482015290519081900360640190fd5b600260975560c95460005460d0546001600160a01b03928316929182169116610814833361207d565b60cd5460408051630fdb11cf60e01b815290516000926001600160a01b031691630fdb11cf91600480830192602092919082900301818787803b15801561085a57600080fd5b505af115801561086e573d6000803e3d6000fd5b505050506040513d602081101561088457600080fd5b5051905061089181612139565b60408051630b07655760e01b815233600482015290516001600160a01b03861691630b07655791602480830192600092919082900301818387803b1580156108d857600080fd5b505af11580156108ec573d6000803e3d6000fd5b505050506000846001600160a01b031663480cd578336040518263ffffffff1660e01b815260040180826001600160a01b0316815260200191505060206040518083038186803b15801561093f57600080fd5b505afa158015610953573d6000803e3d6000fd5b505050506040513d602081101561096957600080fd5b50516040805163d66a255360e01b815233600482015290519192506000916001600160a01b0388169163d66a2553916024808301926020929190829003018186803b1580156109b757600080fd5b505afa1580156109cb573d6000803e3d6000fd5b505050506040513d60208110156109e157600080fd5b50519050610a198433610a14847f0000000000000000000000000000000000000000000000000000000000000000612181565b6121de565b6000610a2a83600084600088612295565b9050610a3581612308565b60408051631fc5750960e31b815233600482015290516001600160a01b0389169163fe2ba84891602480830192600092919082900301818387803b158015610a7c57600080fd5b505af1158015610a90573d6000803e3d6000fd5b5050604080516365e89c5760e11b815233600482015290516001600160a01b038b16935063cbd138ae9250602480830192600092919082900301818387803b158015610adb57600080fd5b505af1158015610aef573d6000803e3d6000fd5b50505050336001600160a01b0316600080516020613eb58339815191526000806000600160405180858152602001848152602001838152602001826002811115610b3557fe5b815260200194505050505060405180910390a2610b7d868633610b78867f0000000000000000000000000000000000000000000000000000000000000000612181565b61234f565b60cb54610bb790879087906001600160a01b03167f000000000000000000000000000000000000000000000000000000000000000061234f565b60408051628063a560e01b81523360048201526024810185905290516001600160a01b03881691628063a591604480830192600092919082900301818387803b158015610c0357600080fd5b505af1158015610c17573d6000803e3d6000fd5b50506001609755505050505050505050565b7f000000000000000000000000000000000000000000000000000000000000000081565b7f000000000000000000000000000000000000000000000000000000000000000081565b6001546001600160a01b031681565b60c9546001600160a01b031681565b60c881565b6000610c9f82612422565b92915050565b60026097541415610ceb576040805162461bcd60e51b815260206004820152601f6024820152600080516020613c1e833981519152604482015290519081900360640190fd5b600260975561076d3384600080868682611a5f565b6714d1120d7b16000081565b60cf546001600160a01b031681565b60026097541415610d61576040805162461bcd60e51b815260206004820152601f6024820152600080516020613c1e833981519152604482015290519081900360640190fd5b6002609755610d7733600085600186868a611a5f565b505060016097555050565b60026097541415610dc8576040805162461bcd60e51b815260206004820152601f6024820152600080516020613c1e833981519152604482015290519081900360640190fd5b6002609755610ddd3360008080868682611a5f565b50506001609755565b60cc546040805163b32beb5b60e01b815233600482015290516001600160a01b039092169163b32beb5b9160248082019260009290919082900301818387803b158015610e3257600080fd5b505af1158015610e46573d6000803e3d6000fd5b50505050565b610e5461244e565b6001600160a01b0316610e65611786565b6001600160a01b031614610ec0576040805162461bcd60e51b815260206004820181905260248201527f4f776e61626c653a2063616c6c6572206973206e6f7420746865206f776e6572604482015290519081900360640190fd5b6065546040516000916001600160a01b031690600080516020613e67833981519152908390a3606580546001600160a01b0319169055565b670de0b6b3a764000081565b60cd546001600160a01b031681565b670f43fc2c04ee000081565b60008054604080516314a6bf0f60e01b8152905183926001600160a01b0316916314a6bf0f916004808301926020929190829003018186803b158015610f6457600080fd5b505afa158015610f78573d6000803e3d6000fd5b505050506040513d6020811015610f8e57600080fd5b5051600154604080516314a6bf0f60e01b815290519293506000926001600160a01b03909216916314a6bf0f91600480820192602092909190829003018186803b158015610fdb57600080fd5b505afa158015610fef573d6000803e3d6000fd5b505050506040513d602081101561100557600080fd5b505190506110138282612452565b9250505090565b6000546001600160a01b031681565b6002609754141561106f576040805162461bcd60e51b815260206004820152601f6024820152600080516020613c1e833981519152604482015290519081900360640190fd5b600260975561107d836124b3565b6040805160608101825260c9546001600160a01b0390811682526000548116602083015260d05416918101919091526110b4613b6e565b60cd60009054906101000a90046001600160a01b03166001600160a01b0316630fdb11cf6040518163ffffffff1660e01b8152600401602060405180830381600087803b15801561110457600080fd5b505af1158015611118573d6000803e3d6000fd5b505050506040513d602081101561112e57600080fd5b505180825260009061113f906124ef565b905061114b878261250c565b825161115790336125bc565b60408201869052806111925761117783600001518460400151888a61268f565b60208301819052604083015161118c91612452565b60408301525b61119f826040015161283f565b6111ac8260400151612422565b606083018190526111b957fe5b6111cc348360600151846000015161289e565b608083015260608201516111e19034906128d0565b60a083015280156111fe576111f982608001516128ff565b611231565b61120b8260800151612946565b6000611224346001856060015160018760000151612295565b905061122f81612308565b505b825160408051635d6b480f60e01b81523360048201526001602482015290516001600160a01b0390921691635d6b480f9160448082019260009290919082900301818387803b15801561128357600080fd5b505af1158015611297573d6000803e3d6000fd5b50508451604080516372423c1760e01b815233600482015234602482015290516001600160a01b0390921693506372423c1792506044808201926020929091908290030181600087803b1580156112ed57600080fd5b505af1158015611301573d6000803e3d6000fd5b505050506040513d602081101561131757600080fd5b50508251606083015160408051639976cf4560e01b81523360048201526024810192909252516001600160a01b0390921691639976cf45916044808201926020929091908290030181600087803b15801561137157600080fd5b505af1158015611385573d6000803e3d6000fd5b505050506040513d602081101561139b57600080fd5b50508251604080516382fe3eb960e01b815233600482015290516001600160a01b03909216916382fe3eb99160248082019260009290919082900301818387803b1580156113e857600080fd5b505af11580156113fc573d6000803e3d6000fd5b5050505082600001516001600160a01b03166318f2817a336040518263ffffffff1660e01b815260040180826001600160a01b03168152602001915050602060405180830381600087803b15801561145357600080fd5b505af1158015611467573d6000803e3d6000fd5b505050506040513d602081101561147d57600080fd5b505160c083015260d15460a0830151604080516346f7cf8760e01b815233600482015260248101929092526001600160a01b038881166044840152878116606484015290519216916346f7cf879160848082019260009290919082900301818387803b1580156114ec57600080fd5b505af1158015611500573d6000803e3d6000fd5b5050505082600001516001600160a01b03166315d549f1336040518263ffffffff1660e01b815260040180826001600160a01b03168152602001915050602060405180830381600087803b15801561155757600080fd5b505af115801561156b573d6000803e3d6000fd5b505050506040513d602081101561158157600080fd5b505160e08301819052604080519182525133917f59cfd0cd754bc5748b6770e94a4ffa5f678d885cb899dcfadc5734edb97c67ab919081900360200190a26115cd83602001513461298d565b6115e68360200151846040015133898660400151612a1d565b6020830151604084015160cb546116299291906001600160a01b03167f000000000000000000000000000000000000000000000000000000000000000080612a1d565b336001600160a01b0316600080516020613eb58339815191528360600151348560c0015160006040518085815260200184815260200183815260200182600281111561167157fe5b815260200194505050505060405180910390a2602080830151604080519182525133927fefe9137e0c60d14b7f57a84d5b68f55a648dd9fa7b01747d4ec305a3c8974c01928290030190a2505060016097555050505050565b60008054604080516362e1c9bf60e11b8152905183926001600160a01b03169163c5c3937e916004808301926020929190829003018186803b15801561170f57600080fd5b505afa158015611723573d6000803e3d6000fd5b505050506040513d602081101561173957600080fd5b5051600154604080516362e1c9bf60e11b815290519293506000926001600160a01b039092169163c5c3937e91600480820192602092909190829003018186803b158015610fdb57600080fd5b6065546001600160a01b031690565b60405180604001604052806012815260200171426f72726f7765724f7065726174696f6e7360701b81525081565b60d1546001600160a01b031681565b603254610100900460ff16806117eb57506117eb612af1565b806117f9575060325460ff16155b6118345760405162461bcd60e51b815260040180806020018281038252602e815260200180613d57602e913960400191505060405180910390fd5b603254610100900460ff1615801561185f576032805460ff1961ff0019909116610100171660011790555b611867612b02565b61186f612bb3565b6118798a8a612c48565b6118898b89898989898989612cfa565b801561189b576032805461ff00191690555b5050505050505050505050565b600260975414156118ee576040805162461bcd60e51b815260206004820152601f6024820152600080516020613c1e833981519152604482015290519081900360640190fd5b60026097556119023386868686868c611a5f565b5050600160975550505050565b60cc546001600160a01b031681565b60ce546001600160a01b031681565b61193561244e565b6001600160a01b0316611946611786565b6001600160a01b0316146119a1576040805162461bcd60e51b815260206004820181905260248201527f4f776e61626c653a2063616c6c6572206973206e6f7420746865206f776e6572604482015290519081900360640190fd5b6001600160a01b0381166119e65760405162461bcd60e51b8152600401808060200182810382526026815260200180613c3e6026913960400191505060405180910390fd5b6065546040516001600160a01b03808416921690600080516020613e6783398151915290600090a3606580546001600160a01b0319166001600160a01b0392909216919091179055565b60d0546001600160a01b031681565b6611c37937e0800081565b60cb546001600160a01b031681565b3b151590565b6040805160608101825260c9546001600160a01b0390811682526000548116602083015260d0541691810191909152611a96613bb3565b60cd60009054906101000a90046001600160a01b03166001600160a01b0316630fdb11cf6040518163ffffffff1660e01b8152600401602060405180830381600087803b158015611ae657600080fd5b505af1158015611afa573d6000803e3d6000fd5b505050506040513d6020811015611b1057600080fd5b5051808252600090611b21906124ef565b90508615611b3c57611b33848261250c565b611b3c88612fd9565b611b4589613018565b611b4f898961305e565b8251611b5b908b61207d565b336001600160a01b038b161480611b91575060ca546001600160a01b031633148015611b875750600034115b8015611b91575087155b611b9757fe5b82600001516001600160a01b0316630b0765578b6040518263ffffffff1660e01b815260040180826001600160a01b03168152602001915050600060405180830381600087803b158015611bea57600080fd5b505af1158015611bfe573d6000803e3d6000fd5b50505050611c0c348a6130b0565b15156060840152602083015260408201889052868015611c2a575080155b15611c5f57611c43836000015184604001518a8761268f565b61012083018190526040830151611c5991612452565b60408301525b82600001516001600160a01b031663d66a25538b6040518263ffffffff1660e01b815260040180826001600160a01b0316815260200191505060206040518083038186803b158015611cb057600080fd5b505afa158015611cc4573d6000803e3d6000fd5b505050506040513d6020811015611cda57600080fd5b505160808301528251604080516309019aaf60e31b81526001600160a01b038d811660048301529151919092169163480cd578916024808301926020929190829003018186803b158015611d2d57600080fd5b505afa158015611d41573d6000803e3d6000fd5b505050506040513d6020811015611d5757600080fd5b505160a0830181905260808301518351611d7292919061289e565b8260c0018181525050611da28260a0015183608001518460200151856060015186604001518c88600001516130cf565b60e083015260a0820151891115611db557fe5b611dc1818a8985613102565b86158015611dcf5750600088115b15611e1c57611df7611df28360400151611dec8560800151613176565b90612181565b61283f565b611e09826080015183604001516131a2565b611e1c83604001518b84604001516121de565b611e3a83600001518b8460200151856060015186604001518c61320a565b610140840152610160830152825160408051630c7940bd60e11b81526001600160a01b038d81166004830152915191909216916318f2817a9160248083019260209291908290030181600087803b158015611e9457600080fd5b505af1158015611ea8573d6000803e3d6000fd5b505050506040513d6020811015611ebe57600080fd5b505161018083015260a08201516080830151602084015160608501516040860151600094611ef2949093909290918d613446565b60d1546040805163015f109360e51b81526001600160a01b038f81166004830152602482018590528b811660448301528a811660648301529151939450911691632be212609160848082019260009290919082900301818387803b158015611f5957600080fd5b505af1158015611f6d573d6000803e3d6000fd5b505050508a6001600160a01b0316600080516020613eb5833981519152846101400151856101600151866101800151600260405180858152602001848152602001838152602001826002811115611fc057fe5b815260200194505050505060405180910390a2610120830151604080519182525133917fefe9137e0c60d14b7f57a84d5b68f55a648dd9fa7b01747d4ec305a3c8974c01919081900360200190a261189b8460200151856040015133866020015187606001518e8e8a60400151613477565b60ca546001600160a01b0316331461207b5760405162461bcd60e51b81526004018080602001828103825260298152602001806140186029913960400191505060405180910390fd5b565b6000826001600160a01b03166321e37801836040518263ffffffff1660e01b815260040180826001600160a01b0316815260200191505060206040518083038186803b1580156120cc57600080fd5b505afa1580156120e0573d6000803e3d6000fd5b505050506040513d60208110156120f657600080fd5b50519050600181146107a05760405162461bcd60e51b815260040180806020018281038252602e815260200180613e87602e913960400191505060405180910390fd5b612142816124ef565b1561217e5760405162461bcd60e51b8152600401808060200182810382526039815260200180613ce76039913960400191505060405180910390fd5b50565b6000828211156121d8576040805162461bcd60e51b815260206004820152601e60248201527f536166654d6174683a207375627472616374696f6e206f766572666c6f770000604482015290519081900360640190fd5b50900390565b80836001600160a01b03166370a08231846040518263ffffffff1660e01b815260040180826001600160a01b0316815260200191505060206040518083038186803b15801561222c57600080fd5b505afa158015612240573d6000803e3d6000fd5b505050506040513d602081101561225657600080fd5b505110156107a05760405162461bcd60e51b815260040180806020018281038252603f815260200180613f13603f913960400191505060405180910390fd5b6000806122a06116ca565b905060006122ac610f1f565b9050866122c2576122bd8289612181565b6122cc565b6122cc8289612452565b9150846122e2576122dd8187612181565b6122ec565b6122ec8187612452565b905060006122fb83838761289e565b9998505050505050505050565b6714d1120d7b16000081101561217e5760405162461bcd60e51b8152600401808060200182810382526049815260200180613e1e6049913960600191505060405180910390fd5b836001600160a01b0316632a7ba1f7826040518263ffffffff1660e01b815260040180828152602001915050600060405180830381600087803b15801561239557600080fd5b505af11580156123a9573d6000803e3d6000fd5b50505050826001600160a01b0316639dc29fac83836040518363ffffffff1660e01b815260040180836001600160a01b0316815260200182815260200192505050600060405180830381600087803b15801561240457600080fd5b505af1158015612418573d6000803e3d6000fd5b5050505050505050565b6000610c9f827f0000000000000000000000000000000000000000000000000000000000000000612452565b3390565b6000828201838110156124ac576040805162461bcd60e51b815260206004820152601b60248201527f536166654d6174683a206164646974696f6e206f766572666c6f770000000000604482015290519081900360640190fd5b9392505050565b8061217e5760405162461bcd60e51b815260040180806020018281038252602d815260200180613c91602d913960400191505060405180910390fd5b6000806124fb83613528565b6714d1120d7b160000119392505050565b801561255e57670de0b6b3a76400008211156125595760405162461bcd60e51b8152600401808060200182810382526032815260200180613d856032913960400191505060405180910390fd5b6125b8565b6611c37937e08000821080159061257d5750670de0b6b3a76400008211155b6125b85760405162461bcd60e51b81526004018080602001828103825260308152602001806140416030913960400191505060405180910390fd5b5050565b6000826001600160a01b03166321e37801836040518263ffffffff1660e01b815260040180826001600160a01b0316815260200191505060206040518083038186803b15801561260b57600080fd5b505afa15801561261f573d6000803e3d6000fd5b505050506040513d602081101561263557600080fd5b5051905060018114156107a0576040805162461bcd60e51b815260206004820152601c60248201527f426f72726f7765724f70733a2054726f76652069732061637469766500000000604482015290519081900360640190fd5b6000846001600160a01b0316635dba4c4a6040518163ffffffff1660e01b8152600401600060405180830381600087803b1580156126cc57600080fd5b505af11580156126e0573d6000803e3d6000fd5b505050506000856001600160a01b031663631203b0856040518263ffffffff1660e01b81526004018082815260200191505060206040518083038186803b15801561272a57600080fd5b505afa15801561273e573d6000803e3d6000fd5b505050506040513d602081101561275457600080fd5b50519050612763818585613554565b60ce54604080516358caad6960e11b81526004810184905290516001600160a01b039092169163b1955ad29160248082019260009290919082900301818387803b1580156127b057600080fd5b505af11580156127c4573d6000803e3d6000fd5b505060cf54604080516340c10f1960e01b81526001600160a01b03928316600482015260248101869052905191891693506340c10f19925060448082019260009290919082900301818387803b15801561281d57600080fd5b505af1158015612831573d6000803e3d6000fd5b509298975050505050505050565b7f000000000000000000000000000000000000000000000000000000000000000081101561217e5760405162461bcd60e51b815260040180806020018281038252603a815260200180613f9b603a913960400191505060405180910390fd5b600082156128c55760006128bc846128b687866135c3565b9061361c565b91506124ac9050565b506000199392505050565b600081156128f6576128ef826128b68568056bc75e2d631000006135c3565b9050610c9f565b50600019610c9f565b6714d1120d7b16000081101561217e5760405162461bcd60e51b8152600401808060200182810382526037815260200180613d206037913960400191505060405180910390fd5b670f43fc2c04ee000081101561217e5760405162461bcd60e51b8152600401808060200182810382526049815260200180613f526049913960600191505060405180910390fd5b6040516000906001600160a01b0384169083908381818185875af1925050503d80600081146129d8576040519150601f19603f3d011682016040523d82523d6000602084013e6129dd565b606091505b50509050806107a05760405162461bcd60e51b815260040180806020018281038252602d815260200180613c64602d913960400191505060405180910390fd5b846001600160a01b0316632b7c7b11826040518263ffffffff1660e01b815260040180828152602001915050600060405180830381600087803b158015612a6357600080fd5b505af1158015612a77573d6000803e3d6000fd5b50505050836001600160a01b03166340c10f1984846040518363ffffffff1660e01b815260040180836001600160a01b0316815260200182815260200192505050600060405180830381600087803b158015612ad257600080fd5b505af1158015612ae6573d6000803e3d6000fd5b505050505050505050565b6000612afc30611a59565b15905090565b603254610100900460ff1680612b1b5750612b1b612af1565b80612b29575060325460ff16155b612b645760405162461bcd60e51b815260040180806020018281038252602e815260200180613d57602e913960400191505060405180910390fd5b603254610100900460ff16158015612b8f576032805460ff1961ff0019909116610100171660011790555b612b97613683565b612b9f613723565b801561217e576032805461ff001916905550565b603254610100900460ff1680612bcc5750612bcc612af1565b80612bda575060325460ff16155b612c155760405162461bcd60e51b815260040180806020018281038252602e815260200180613d57602e913960400191505060405180910390fd5b603254610100900460ff16158015612c40576032805460ff1961ff0019909116610100171660011790555b612b9f61380a565b612c51826138b0565b612c5a816138b0565b600080546001600160a01b038085166001600160a01b03199283168117909355600180549185169190921617905560408051918252517f78f058b189175430c48dc02699e3a0031ea4ff781536dc2fab847de4babdd8829181900360200190a1604080516001600160a01b038316815290517f5ee0cae2f063ed938bb55046f6a932fb6ae792bf43624806bb90abe68a50be9b9181900360200190a15050565b60007f000000000000000000000000000000000000000000000000000000000000000011612d2457fe5b612d2d886138b0565b612d36876138b0565b612d3f866138b0565b612d48856138b0565b612d51846138b0565b612d5a836138b0565b612d63826138b0565b612d6c816138b0565b612d758861390b565b60c980546001600160a01b03199081166001600160a01b038b811691821790935560ca805483168b851617905560cb805483168a851617905560cc8054831689851617905560cd8054831688851617905560d18054831687851617905560d08054831686851617905560cf80548316938516938417905560ce8054909216909217905560408051918252517f143219c9e69b09e07e095fcc889b43d8f46ca892bba65f08dc3a0050869a5678916020908290030190a1604080516001600160a01b038916815290517f82966d27eea39b038ee0fa30cd16532bb24f6e65d31cb58fb227aa5766cdcc7f9181900360200190a1604080516001600160a01b038816815290517fcfb07d791fcafc032b35837b50eb84b74df518cf4cc287e8084f47630fa70fa09181900360200190a1604080516001600160a01b038716815290517fe67f36a6e961157d6eff83b91f3af5a62131ceb6f04954ef74f51c1c05e7f88d9181900360200190a1604080516001600160a01b038616815290517f8c537274438aa850a330284665d81a85dd38267d09e4050d416bfc94142db2649181900360200190a1604080516001600160a01b038516815290517f65f4cf077bc01e4742eb5ad98326f6e95b63548ea24b17f8d5e823111fe788009181900360200190a1604080516001600160a01b038416815290517f112220fa8dbe96141556e0dc3d74dd95075b323f4f297616048e02d82d7017159181900360200190a1604080516001600160a01b038316815290517ff81a824d1d9030c0365252fb96daf0565f9c2007c88e13001379dda7f06d5d5c9181900360200190a15050505050505050565b6000811161217e5760405162461bcd60e51b81526004018080602001828103825260378152602001806140716037913960400191505060405180910390fd5b341580613023575080155b61217e5760405162461bcd60e51b8152600401808060200182810382526029815260200180613cbe6029913960400191505060405180910390fd5b3415158061306b57508115155b8061307557508015155b6125b85760405162461bcd60e51b8152600401808060200182810382526046815260200180613db76046913960600191505060405180910390fd5b60008083156130c4575082905060016130c8565b8291505b9250929050565b60008060006130e28a8a8a8a8a8a613aaf565b9150915060006130f383838761289e565b9b9a5050505050505050505050565b831561313b5761311183613af2565b8115613136576131248160e001516128ff565b6131368160e001518260c00151613b2f565b610e46565b6131488160e00151612946565b613165816020015182606001518360400151858560000151612295565b6101008201819052610e4690612308565b6000610c9f827f0000000000000000000000000000000000000000000000000000000000000000612181565b6131cc827f0000000000000000000000000000000000000000000000000000000000000000612181565b8111156125b85760405162461bcd60e51b8152600401808060200182810382526043815260200180613fd56043913960600191505060405180910390fd5b60008060008561329c57886001600160a01b031663d3d6f84389896040518363ffffffff1660e01b815260040180836001600160a01b0316815260200182815260200192505050602060405180830381600087803b15801561326b57600080fd5b505af115801561327f573d6000803e3d6000fd5b505050506040513d602081101561329557600080fd5b5051613320565b886001600160a01b03166372423c1789896040518363ffffffff1660e01b815260040180836001600160a01b0316815260200182815260200192505050602060405180830381600087803b1580156132f357600080fd5b505af1158015613307573d6000803e3d6000fd5b505050506040513d602081101561331d57600080fd5b50515b90506000846133b157896001600160a01b03166312610e928a886040518363ffffffff1660e01b815260040180836001600160a01b0316815260200182815260200192505050602060405180830381600087803b15801561338057600080fd5b505af1158015613394573d6000803e3d6000fd5b505050506040513d60208110156133aa57600080fd5b5051613435565b896001600160a01b0316639976cf458a886040518363ffffffff1660e01b815260040180836001600160a01b0316815260200182815260200192505050602060405180830381600087803b15801561340857600080fd5b505af115801561341c573d6000803e3d6000fd5b505050506040513d602081101561343257600080fd5b50515b919a91995090975050505050505050565b6000806000613459898989898989613aaf565b91509150600061346983836128d0565b9a9950505050505050505050565b811561348f5761348a8888888685612a1d565b61349b565b61349b8888888661234f565b83156134b0576134ab888661298d565b612418565b876001600160a01b0316628063a587876040518363ffffffff1660e01b815260040180836001600160a01b0316815260200182815260200192505050600060405180830381600087803b15801561350657600080fd5b505af115801561351a573d6000803e3d6000fd5b505050505050505050505050565b6000806135336116ca565b9050600061353f610f1f565b905061354c82828661289e565b949350505050565b600061356c836128b686670de0b6b3a76400006135c3565b905081811115610e46576040805162461bcd60e51b815260206004820152601d60248201527f4665652065786365656465642070726f7669646564206d6178696d756d000000604482015290519081900360640190fd5b6000826135d257506000610c9f565b828202828482816135df57fe5b04146124ac5760405162461bcd60e51b8152600401808060200182810382526021815260200180613dfd6021913960400191505060405180910390fd5b6000808211613672576040805162461bcd60e51b815260206004820152601a60248201527f536166654d6174683a206469766973696f6e206279207a65726f000000000000604482015290519081900360640190fd5b81838161367b57fe5b049392505050565b603254610100900460ff168061369c575061369c612af1565b806136aa575060325460ff16155b6136e55760405162461bcd60e51b815260040180806020018281038252602e815260200180613d57602e913960400191505060405180910390fd5b603254610100900460ff16158015612b9f576032805460ff1961ff001990911661010017166001179055801561217e576032805461ff001916905550565b603254610100900460ff168061373c575061373c612af1565b8061374a575060325460ff16155b6137855760405162461bcd60e51b815260040180806020018281038252602e815260200180613d57602e913960400191505060405180910390fd5b603254610100900460ff161580156137b0576032805460ff1961ff0019909116610100171660011790555b60006137ba61244e565b606580546001600160a01b0319166001600160a01b03831690811790915560405191925090600090600080516020613e67833981519152908290a350801561217e576032805461ff001916905550565b603254610100900460ff16806138235750613823612af1565b80613831575060325460ff16155b61386c5760405162461bcd60e51b815260040180806020018281038252602e815260200180613d57602e913960400191505060405180910390fd5b603254610100900460ff16158015613897576032805460ff1961ff0019909116610100171660011790555b6001609755801561217e576032805461ff001916905550565b6001600160a01b03811661217e576040805162461bcd60e51b815260206004820152601e60248201527f4163636f756e742063616e6e6f74206265207a65726f20616464726573730000604482015290519081900360640190fd5b7f0000000000000000000000000000000000000000000000000000000000000000816001600160a01b031663139f2e8c6040518163ffffffff1660e01b815260040160206040518083038186803b15801561396557600080fd5b505afa158015613979573d6000803e3d6000fd5b505050506040513d602081101561398f57600080fd5b5051146139df576040805162461bcd60e51b815260206004820152601960248201527808e82a6be869e9aa08a9ca682a8929e9c40dad2e6dac2e8c6d603b1b604482015290519081900360640190fd5b7f0000000000000000000000000000000000000000000000000000000000000000816001600160a01b0316631bf435556040518163ffffffff1660e01b815260040160206040518083038186803b158015613a3957600080fd5b505afa158015613a4d573d6000803e3d6000fd5b505050506040513d6020811015613a6357600080fd5b50511461217e576040805162461bcd60e51b815260206004820152601560248201527409a929cbe9c8aa8be888a84a840dad2e6dac2e8c6d605b1b604482015290519081900360640190fd5b600080878786613ac857613ac38a89612181565b613ad2565b613ad28a89612452565b915084613ae857613ae38987612181565b613435565b6134358987612452565b801561217e5760405162461bcd60e51b815260040180806020018281038252603e815260200180613ed5603e913960400191505060405180910390fd5b808210156125b85760405162461bcd60e51b815260040180806020018281038252603e8152602001806140a8603e913960400191505060405180910390fd5b60405180610100016040528060008152602001600081526020016000815260200160008152602001600081526020016000815260200160008152602001600081525090565b604051806101a00160405280600081526020016000815260200160008152602001600015158152602001600081526020016000815260200160008152602001600081526020016000815260200160008152602001600081526020016000815260200160008152509056fe5265656e7472616e637947756172643a207265656e7472616e742063616c6c004f776e61626c653a206e6577206f776e657220697320746865207a65726f2061646472657373426f72726f7765724f70733a2053656e64696e672046494c20746f20416374697665506f6f6c206661696c6564426f72726f7765724f70733a20416d6f756e74206d7573742062652067726561746572207468616e207a65726f426f72726f7765724f70733a2043616e6e6f7420776974686472617720616e642061646420636f6c6c426f72726f7765724f70733a204f7065726174696f6e206e6f74207065726d697474656420647572696e67205265636f76657279204d6f6465426f72726f7765724f70733a204f7065726174696f6e206d757374206c656176652074726f7665207769746820494352203e3d20434352496e697469616c697a61626c653a20636f6e747261637420697320616c726561647920696e697469616c697a65644d6178206665652070657263656e74616765206d757374206c657373207468616e206f7220657175616c20746f2031303025426f72726f7765724f70733a205468657265206d75737420626520656974686572206120636f6c6c61746572616c206368616e6765206f7220612064656274206368616e6765536166654d6174683a206d756c7469706c69636174696f6e206f766572666c6f77426f72726f7765724f70733a20416e206f7065726174696f6e207468617420776f756c6420726573756c7420696e20544352203c20434352206973206e6f74207065726d69747465648be0079c531659141344cd1fd0a4f28419497f9722a3daafe3b4186f6b6457e0426f72726f7765724f70733a2054726f766520646f6573206e6f74206578697374206f7220697320636c6f736564c3770d654ed33aeea6bf11ac8ef05d02a6a04ed4686dd2f624d853bbec43cc8b426f72726f7765724f70733a20436f6c6c61746572616c207769746864726177616c206e6f74207065726d6974746564205265636f76657279204d6f6465426f72726f7765724f70733a2043616c6c657220646f65736e74206861766520656e6f75676820746f6b656e7320746f206d616b652072657061796d656e74426f72726f7765724f70733a20416e206f7065726174696f6e207468617420776f756c6420726573756c7420696e20494352203c204d4352206973206e6f74207065726d6974746564426f72726f7765724f70733a2054726f76652773206e65742064656274206d7573742062652067726561746572207468616e206d696e696d756d426f72726f7765724f70733a20416d6f756e7420726570616964206d757374206e6f74206265206c6172676572207468616e207468652054726f766527732064656274426f72726f7765724f70733a2043616c6c6572206973206e6f742053746162696c69747920506f6f6c4d6178206665652070657263656e74616765206d757374206265206265747765656e20302e352520616e642031303025426f72726f7765724f70733a204465627420696e637265617365207265717569726573206e6f6e2d7a65726f20646562744368616e6765426f72726f7765724f70733a2043616e6e6f7420646563726561736520796f75722054726f766527732049435220696e205265636f76657279204d6f6465a2646970667358221220745cdb68ab7f3e35941f7f660c590e1e122412beb5ff604cce49f6dffda9389b64736f6c63430007060033496e697469616c697a61626c653a20636f6e747261637420697320616c726561647920696e697469616c697a6564",
  "linkReferences": {},
  "deployedLinkReferences": {}
}