{
  "_format": "hh-sol-artifact-1",
  "contractName": "BorrowerOperationsTester",
  "sourceName": "contracts/TestContracts/BorrowerOperationsTester.sol",
  "abi": [
    {
      "inputs": [
        {
          "internalType": "uint256",
          "name": "_gasCompensation",
          "type": "uint256"
        },
        {
          "internalType": "uint256",
          "name": "_minNetDebt",
          "type": "uint256"
        }
      ],
      "stateMutability": "nonpayable",
      "type": "constructor"
    },
    {
      "anonymous": false,
      "inputs": [
        {
          "indexed": false,
          "internalType": "address",
          "name": "_activePoolAddress",
          "type": "address"
        }
      ],
      "name": "ActivePoolAddressChanged",
      "type": "event"
    },
    {
      "anonymous": false,
      "inputs": [
        {
          "indexed": false,
          "internalType": "address",
          "name": "_collSurplusPoolAddress",
          "type": "address"
        }
      ],
      "name": "CollSurplusPoolAddressChanged",
      "type": "event"
    },
    {
      "anonymous": false,
      "inputs": [
        {
          "indexed": false,
          "internalType": "address",
          "name": "_debtTokenAddress",
          "type": "address"
        }
      ],
      "name": "DebtTokenAddressChanged",
      "type": "event"
    },
    {
      "anonymous": false,
      "inputs": [
        {
          "indexed": true,
          "internalType": "address",
          "name": "_borrower",
          "type": "address"
        },
        {
          "indexed": false,
          "internalType": "uint256",
          "name": "_debtTokenFee",
          "type": "uint256"
        }
      ],
      "name": "DebtTokenBorrowingFeePaid",
      "type": "event"
    },
    {
      "anonymous": false,
      "inputs": [
        {
          "indexed": false,
          "internalType": "address",
          "name": "_defaultPoolAddress",
          "type": "address"
        }
      ],
      "name": "DefaultPoolAddressChanged",
      "type": "event"
    },
    {
      "anonymous": false,
      "inputs": [
        {
          "indexed": false,
          "internalType": "address",
          "name": "_gasPoolAddress",
          "type": "address"
        }
      ],
      "name": "GasPoolAddressChanged",
      "type": "event"
    },
    {
      "anonymous": false,
      "inputs": [
        {
          "indexed": true,
          "internalType": "address",
          "name": "previousOwner",
          "type": "address"
        },
        {
          "indexed": true,
          "internalType": "address",
          "name": "newOwner",
          "type": "address"
        }
      ],
      "name": "OwnershipTransferred",
      "type": "event"
    },
    {
      "anonymous": false,
      "inputs": [
        {
          "indexed": false,
          "internalType": "address",
          "name": "_newPriceFeedAddress",
          "type": "address"
        }
      ],
      "name": "PriceFeedAddressChanged",
      "type": "event"
    },
    {
      "anonymous": false,
      "inputs": [
        {
          "indexed": false,
          "internalType": "address",
          "name": "_protocolTokenStakingAddress",
          "type": "address"
        }
      ],
      "name": "ProtocolTokenStakingAddressChanged",
      "type": "event"
    },
    {
      "anonymous": false,
      "inputs": [
        {
          "indexed": false,
          "internalType": "address",
          "name": "_sortedTrovesAddress",
          "type": "address"
        }
      ],
      "name": "SortedTrovesAddressChanged",
      "type": "event"
    },
    {
      "anonymous": false,
      "inputs": [
        {
          "indexed": false,
          "internalType": "address",
          "name": "_stabilityPoolAddress",
          "type": "address"
        }
      ],
      "name": "StabilityPoolAddressChanged",
      "type": "event"
    },
    {
      "anonymous": false,
      "inputs": [
        {
          "indexed": true,
          "internalType": "address",
          "name": "_borrower",
          "type": "address"
        },
        {
          "indexed": false,
          "internalType": "uint256",
          "name": "arrayIndex",
          "type": "uint256"
        }
      ],
      "name": "TroveCreated",
      "type": "event"
    },
    {
      "anonymous": false,
      "inputs": [
        {
          "indexed": false,
          "internalType": "address",
          "name": "_newTroveManagerAddress",
          "type": "address"
        }
      ],
      "name": "TroveManagerAddressChanged",
      "type": "event"
    },
    {
      "anonymous": false,
      "inputs": [
        {
          "indexed": true,
          "internalType": "address",
          "name": "_borrower",
          "type": "address"
        },
        {
          "indexed": false,
          "internalType": "uint256",
          "name": "_debt",
          "type": "uint256"
        },
        {
          "indexed": false,
          "internalType": "uint256",
          "name": "_coll",
          "type": "uint256"
        },
        {
          "indexed": false,
          "internalType": "uint256",
          "name": "stake",
          "type": "uint256"
        },
        {
          "indexed": false,
          "internalType": "enum IBorrowerOperations.BorrowerOperation",
          "name": "operation",
          "type": "uint8"
        }
      ],
      "name": "TroveUpdated",
      "type": "event"
    },
    {
      "inputs": [],
      "name": "BORROWING_FEE_FLOOR",
      "outputs": [
        {
          "internalType": "uint256",
          "name": "",
          "type": "uint256"
        }
      ],
      "stateMutability": "view",
      "type": "function"
    },
    {
      "inputs": [],
      "name": "CCR",
      "outputs": [
        {
          "internalType": "uint256",
          "name": "",
          "type": "uint256"
        }
      ],
      "stateMutability": "view",
      "type": "function"
    },
    {
      "inputs": [],
      "name": "DECIMAL_PRECISION",
      "outputs": [
        {
          "internalType": "uint256",
          "name": "",
          "type": "uint256"
        }
      ],
      "stateMutability": "view",
      "type": "function"
    },
    {
      "inputs": [],
      "name": "GAS_COMPENSATION",
      "outputs": [
        {
          "internalType": "uint256",
          "name": "",
          "type": "uint256"
        }
      ],
      "stateMutability": "view",
      "type": "function"
    },
    {
      "inputs": [],
      "name": "MCR",
      "outputs": [
        {
          "internalType": "uint256",
          "name": "",
          "type": "uint256"
        }
      ],
      "stateMutability": "view",
      "type": "function"
    },
    {
      "inputs": [],
      "name": "MIN_NET_DEBT",
      "outputs": [
        {
          "internalType": "uint256",
          "name": "",
          "type": "uint256"
        }
      ],
      "stateMutability": "view",
      "type": "function"
    },
    {
      "inputs": [],
      "name": "NAME",
      "outputs": [
        {
          "internalType": "string",
          "name": "",
          "type": "string"
        }
      ],
      "stateMutability": "view",
      "type": "function"
    },
    {
      "inputs": [],
      "name": "PERCENT_DIVISOR",
      "outputs": [
        {
          "internalType": "uint256",
          "name": "",
          "type": "uint256"
        }
      ],
      "stateMutability": "view",
      "type": "function"
    },
    {
      "inputs": [],
      "name": "_100pct",
      "outputs": [
        {
          "internalType": "uint256",
          "name": "",
          "type": "uint256"
        }
      ],
      "stateMutability": "view",
      "type": "function"
    },
    {
      "inputs": [],
      "name": "activePool",
      "outputs": [
        {
          "internalType": "contract IActivePool",
          "name": "",
          "type": "address"
        }
      ],
      "stateMutability": "view",
      "type": "function"
    },
    {
      "inputs": [
        {
          "internalType": "address",
          "name": "_upperHint",
          "type": "address"
        },
        {
          "internalType": "address",
          "name": "_lowerHint",
          "type": "address"
        }
      ],
      "name": "addColl",
      "outputs": [],
      "stateMutability": "payable",
      "type": "function"
    },
    {
      "inputs": [
        {
          "internalType": "uint256",
          "name": "_maxFeePercentage",
          "type": "uint256"
        },
        {
          "internalType": "uint256",
          "name": "_collWithdrawal",
          "type": "uint256"
        },
        {
          "internalType": "uint256",
          "name": "_debtTokenChange",
          "type": "uint256"
        },
        {
          "internalType": "bool",
          "name": "_isDebtIncrease",
          "type": "bool"
        },
        {
          "internalType": "address",
          "name": "_upperHint",
          "type": "address"
        },
        {
          "internalType": "address",
          "name": "_lowerHint",
          "type": "address"
        }
      ],
      "name": "adjustTrove",
      "outputs": [],
      "stateMutability": "payable",
      "type": "function"
    },
    {
      "inputs": [
        {
          "internalType": "address",
          "name": "_borrower",
          "type": "address"
        },
        {
          "internalType": "uint256",
          "name": "_collWithdrawal",
          "type": "uint256"
        },
        {
          "internalType": "uint256",
          "name": "_debtChange",
          "type": "uint256"
        },
        {
          "internalType": "bool",
          "name": "_isDebtIncrease",
          "type": "bool"
        },
        {
          "internalType": "address",
          "name": "_upperHint",
          "type": "address"
        },
        {
          "internalType": "address",
          "name": "_lowerHint",
          "type": "address"
        }
      ],
      "name": "callInternalAdjustLoan",
      "outputs": [],
      "stateMutability": "nonpayable",
      "type": "function"
    },
    {
      "inputs": [],
      "name": "claimCollateral",
      "outputs": [],
      "stateMutability": "nonpayable",
      "type": "function"
    },
    {
      "inputs": [],
      "name": "closeTrove",
      "outputs": [],
      "stateMutability": "nonpayable",
      "type": "function"
    },
    {
      "inputs": [],
      "name": "collSurplusPool",
      "outputs": [
        {
          "internalType": "contract ICollSurplusPool",
          "name": "",
          "type": "address"
        }
      ],
      "stateMutability": "view",
      "type": "function"
    },
    {
      "inputs": [],
      "name": "debtToken",
      "outputs": [
        {
          "internalType": "contract IDebtToken",
          "name": "",
          "type": "address"
        }
      ],
      "stateMutability": "view",
      "type": "function"
    },
    {
      "inputs": [],
      "name": "defaultPool",
      "outputs": [
        {
          "internalType": "contract IDefaultPool",
          "name": "",
          "type": "address"
        }
      ],
      "stateMutability": "view",
      "type": "function"
    },
    {
      "inputs": [],
      "name": "gasPoolAddress",
      "outputs": [
        {
          "internalType": "address",
          "name": "",
          "type": "address"
        }
      ],
      "stateMutability": "view",
      "type": "function"
    },
    {
      "inputs": [
        {
          "internalType": "uint256",
          "name": "_debt",
          "type": "uint256"
        }
      ],
      "name": "getCompositeDebt",
      "outputs": [
        {
          "internalType": "uint256",
          "name": "",
          "type": "uint256"
        }
      ],
      "stateMutability": "view",
      "type": "function"
    },
    {
      "inputs": [],
      "name": "getEntireSystemColl",
      "outputs": [
        {
          "internalType": "uint256",
          "name": "entireSystemColl",
          "type": "uint256"
        }
      ],
      "stateMutability": "view",
      "type": "function"
    },
    {
      "inputs": [],
      "name": "getEntireSystemDebt",
      "outputs": [
        {
          "internalType": "uint256",
          "name": "entireSystemDebt",
          "type": "uint256"
        }
      ],
      "stateMutability": "view",
      "type": "function"
    },
    {
      "inputs": [
        {
          "internalType": "uint256",
          "name": "_coll",
          "type": "uint256"
        },
        {
          "internalType": "uint256",
          "name": "_debt",
          "type": "uint256"
        },
        {
          "internalType": "uint256",
          "name": "_collChange",
          "type": "uint256"
        },
        {
          "internalType": "bool",
          "name": "isCollIncrease",
          "type": "bool"
        },
        {
          "internalType": "uint256",
          "name": "_debtChange",
          "type": "uint256"
        },
        {
          "internalType": "bool",
          "name": "isDebtIncrease",
          "type": "bool"
        },
        {
          "internalType": "uint256",
          "name": "_price",
          "type": "uint256"
        }
      ],
      "name": "getNewICRFromTroveChange",
      "outputs": [
        {
          "internalType": "uint256",
          "name": "",
          "type": "uint256"
        }
      ],
      "stateMutability": "pure",
      "type": "function"
    },
    {
      "inputs": [
        {
          "internalType": "uint256",
          "name": "_collChange",
          "type": "uint256"
        },
        {
          "internalType": "bool",
          "name": "isCollIncrease",
          "type": "bool"
        },
        {
          "internalType": "uint256",
          "name": "_debtChange",
          "type": "uint256"
        },
        {
          "internalType": "bool",
          "name": "isDebtIncrease",
          "type": "bool"
        },
        {
          "internalType": "uint256",
          "name": "_price",
          "type": "uint256"
        }
      ],
      "name": "getNewTCRFromTroveChange",
      "outputs": [
        {
          "internalType": "uint256",
          "name": "",
          "type": "uint256"
        }
      ],
      "stateMutability": "view",
      "type": "function"
    },
    {
      "inputs": [
        {
          "internalType": "uint256",
          "name": "_coll",
          "type": "uint256"
        },
        {
          "internalType": "uint256",
          "name": "_price",
          "type": "uint256"
        }
      ],
      "name": "getUSDValue",
      "outputs": [
        {
          "internalType": "uint256",
          "name": "",
          "type": "uint256"
        }
      ],
      "stateMutability": "pure",
      "type": "function"
    },
    {
      "inputs": [
        {
          "internalType": "address",
          "name": "_troveManagerAddress",
          "type": "address"
        },
        {
          "internalType": "address",
          "name": "_activePoolAddress",
          "type": "address"
        },
        {
          "internalType": "address",
          "name": "_defaultPoolAddress",
          "type": "address"
        },
        {
          "internalType": "address",
          "name": "_stabilityPoolAddress",
          "type": "address"
        },
        {
          "internalType": "address",
          "name": "_gasPoolAddress",
          "type": "address"
        },
        {
          "internalType": "address",
          "name": "_collSurplusPoolAddress",
          "type": "address"
        },
        {
          "internalType": "address",
          "name": "_priceFeedAddress",
          "type": "address"
        },
        {
          "internalType": "address",
          "name": "_sortedTrovesAddress",
          "type": "address"
        },
        {
          "internalType": "address",
          "name": "_debtTokenAddress",
          "type": "address"
        },
        {
          "internalType": "address",
          "name": "_protocolTokenStakingAddress",
          "type": "address"
        }
      ],
      "name": "initialize",
      "outputs": [],
      "stateMutability": "nonpayable",
      "type": "function"
    },
    {
      "inputs": [
        {
          "internalType": "address",
          "name": "_borrower",
          "type": "address"
        },
        {
          "internalType": "address",
          "name": "_upperHint",
          "type": "address"
        },
        {
          "internalType": "address",
          "name": "_lowerHint",
          "type": "address"
        }
      ],
      "name": "moveFILGainToTrove",
      "outputs": [],
      "stateMutability": "payable",
      "type": "function"
    },
    {
      "inputs": [
        {
          "internalType": "uint256",
          "name": "_maxFeePercentage",
          "type": "uint256"
        },
        {
          "internalType": "uint256",
          "name": "_debtTokenAmount",
          "type": "uint256"
        },
        {
          "internalType": "address",
          "name": "_upperHint",
          "type": "address"
        },
        {
          "internalType": "address",
          "name": "_lowerHint",
          "type": "address"
        }
      ],
      "name": "openTrove",
      "outputs": [],
      "stateMutability": "payable",
      "type": "function"
    },
    {
      "inputs": [],
      "name": "owner",
      "outputs": [
        {
          "internalType": "address",
          "name": "",
          "type": "address"
        }
      ],
      "stateMutability": "view",
      "type": "function"
    },
    {
      "inputs": [],
      "name": "priceFeed",
      "outputs": [
        {
          "internalType": "contract IPriceFeed",
          "name": "",
          "type": "address"
        }
      ],
      "stateMutability": "view",
      "type": "function"
    },
    {
      "inputs": [],
      "name": "protocolTokenStaking",
      "outputs": [
        {
          "internalType": "contract IProtocolTokenStaking",
          "name": "",
          "type": "address"
        }
      ],
      "stateMutability": "view",
      "type": "function"
    },
    {
      "inputs": [],
      "name": "protocolTokenStakingAddress",
      "outputs": [
        {
          "internalType": "address",
          "name": "",
          "type": "address"
        }
      ],
      "stateMutability": "view",
      "type": "function"
    },
    {
      "inputs": [],
      "name": "renounceOwnership",
      "outputs": [],
      "stateMutability": "nonpayable",
      "type": "function"
    },
    {
      "inputs": [
        {
          "internalType": "uint256",
          "name": "_debtTokenAmount",
          "type": "uint256"
        },
        {
          "internalType": "address",
          "name": "_upperHint",
          "type": "address"
        },
        {
          "internalType": "address",
          "name": "_lowerHint",
          "type": "address"
        }
      ],
      "name": "repayDebtToken",
      "outputs": [],
      "stateMutability": "nonpayable",
      "type": "function"
    },
    {
      "inputs": [],
      "name": "sortedTroves",
      "outputs": [
        {
          "internalType": "contract ISortedTroves",
          "name": "",
          "type": "address"
        }
      ],
      "stateMutability": "view",
      "type": "function"
    },
    {
      "inputs": [],
      "name": "stabilityPoolAddress",
      "outputs": [
        {
          "internalType": "address",
          "name": "",
          "type": "address"
        }
      ],
      "stateMutability": "view",
      "type": "function"
    },
    {
      "inputs": [
        {
          "internalType": "address",
          "name": "newOwner",
          "type": "address"
        }
      ],
      "name": "transferOwnership",
      "outputs": [],
      "stateMutability": "nonpayable",
      "type": "function"
    },
    {
      "inputs": [],
      "name": "troveManager",
      "outputs": [
        {
          "internalType": "contract ITroveManager",
          "name": "",
          "type": "address"
        }
      ],
      "stateMutability": "view",
      "type": "function"
    },
    {
      "inputs": [
        {
          "internalType": "uint256",
          "name": "_collWithdrawal",
          "type": "uint256"
        },
        {
          "internalType": "address",
          "name": "_upperHint",
          "type": "address"
        },
        {
          "internalType": "address",
          "name": "_lowerHint",
          "type": "address"
        }
      ],
      "name": "withdrawColl",
      "outputs": [],
      "stateMutability": "nonpayable",
      "type": "function"
    },
    {
      "inputs": [
        {
          "internalType": "uint256",
          "name": "_maxFeePercentage",
          "type": "uint256"
        },
        {
          "internalType": "uint256",
          "name": "_debtTokenAmount",
          "type": "uint256"
        },
        {
          "internalType": "address",
          "name": "_upperHint",
          "type": "address"
        },
        {
          "internalType": "address",
          "name": "_lowerHint",
          "type": "address"
        }
      ],
      "name": "withdrawDebtToken",
      "outputs": [],
      "stateMutability": "nonpayable",
      "type": "function"
    },
    {
      "stateMutability": "payable",
      "type": "receive"
    }
  ],
  "bytecode": "0x60c06040523480156200001157600080fd5b50604051620044d1380380620044d1833981810160405260408110156200003757600080fd5b508051602090910151608082905260a081905260325482908290610100900460ff16806200006a57506200006a62000100565b8062000079575060325460ff16155b620000b65760405162461bcd60e51b815260040180806020018281038252602e815260200180620044a3602e913960400191505060405180910390fd5b603254610100900460ff16158015620000e2576032805460ff1961ff0019909116610100171660011790555b8015620000f5576032805461ff00191690555b505050505062000124565b600062000118306200011e60201b62001c501760201c565b15905090565b3b151590565b60805160a0516143246200017f60003980610de55280612a8b5280612f425280613c2d525080610b865280610cea5280610d295280610dc152806117e25280612621528061338f52806133b95280613b5952506143246000f3fe60806040526004361061023f5760003560e01c806372fe25aa1161012e578063a3f4df7e116100ab578063e54524231161006f578063e545242314610821578063f2fde38b14610836578063f8d8989814610869578063f92d34331461087e578063fe9d03231461089357610246565b8063a3f4df7e146106a7578063ae91875414610731578063c306b37814610746578063c6a6cf20146107c4578063cda775f91461080c57610246565b8063860665b3116100f2578063860665b3146105fd57806387eb305d14610637578063887105d31461067d5780638da5cb5b14610692578063a20baee61461059457610246565b806372fe25aa14610594578063741bef1a146105a9578063794e5724146105be578063795d26c3146105d35780637f7dde4a146105e857610246565b80634ff81443116101bc57806362a0d7991161018057806362a0d799146104c557806368647db11461050c5780636f0b0c1c1461053a5780636f30d2121461054f578063715018a61461057f57610246565b80634ff81443146103de57806351584ca4146104085780635530273c1461045a5780635733d58f1461049b57806357aae46b146104b057610246565b80631bf43555116102035780631bf43555146103335780632cdcd722146103485780633cc742251461039f5780633d83908a146103b45780634870dd9a146103c957610246565b80630802c78a1461024b5780630b622ab21461028e5780630e43d8ce146102bf5780630e704d50146102f7578063139f2e8c1461030c57610246565b3661024657005b600080fd5b34801561025757600080fd5b5061028c6004803603606081101561026e57600080fd5b508035906001600160a01b03602082013581169160400135166108a8565b005b34801561029a57600080fd5b506102a361090d565b604080516001600160a01b039092168252519081900360200190f35b61028c600480360360608110156102d557600080fd5b506001600160a01b03813581169160208101358216916040909101351661091c565b34801561030357600080fd5b5061028c61093b565b34801561031857600080fd5b50610321610dbf565b60408051918252519081900360200190f35b34801561033f57600080fd5b50610321610de3565b34801561035457600080fd5b5061028c600480360360c081101561036b57600080fd5b506001600160a01b0381358116916020810135916040820135916060810135151591608082013581169160a0013516610e07565b3480156103ab57600080fd5b506102a3610e1f565b3480156103c057600080fd5b506102a3610e2e565b3480156103d557600080fd5b50610321610e3d565b3480156103ea57600080fd5b506103216004803603602081101561040157600080fd5b5035610e42565b34801561041457600080fd5b50610321600480360360e081101561042b57600080fd5b50803590602081013590604081013590606081013515159060808101359060a081013515159060c00135610e53565b34801561046657600080fd5b5061028c6004803603606081101561047d57600080fd5b508035906001600160a01b0360208201358116916040013516610e70565b3480156104a757600080fd5b50610321610ecb565b3480156104bc57600080fd5b506102a3610ed7565b3480156104d157600080fd5b5061028c600480360360808110156104e857600080fd5b508035906020810135906001600160a01b0360408201358116916060013516610ee6565b61028c6004803603604081101561052257600080fd5b506001600160a01b0381358116916020013516610f4d565b34801561054657600080fd5b5061028c610fb1565b34801561055b57600080fd5b506103216004803603604081101561057257600080fd5b5080359060200135611017565b34801561058b57600080fd5b5061028c61102a565b3480156105a057600080fd5b506103216110d6565b3480156105b557600080fd5b506102a36110e2565b3480156105ca57600080fd5b506103216110f1565b3480156105df57600080fd5b506103216110fd565b3480156105f457600080fd5b506102a36111f8565b61028c6004803603608081101561061357600080fd5b508035906020810135906001600160a01b0360408201358116916060013516611207565b34801561064357600080fd5b50610321600480360360a081101561065a57600080fd5b5080359060208101351515906040810135906060810135151590608001356118a8565b34801561068957600080fd5b506103216118c1565b34801561069e57600080fd5b506102a361197d565b3480156106b357600080fd5b506106bc61198c565b6040805160208082528351818301528351919283929083019185019080838360005b838110156106f65781810151838201526020016106de565b50505050905090810190601f1680156107235780820380516001836020036101000a031916815260200191505b509250505060405180910390f35b34801561073d57600080fd5b506102a36119ba565b34801561075257600080fd5b5061028c600480360361014081101561076a57600080fd5b506001600160a01b038135811691602081013582169160408201358116916060810135821691608082013581169160a081013582169160c082013581169160e08101358216916101008201358116916101200135166119c9565b61028c600480360360c08110156107da57600080fd5b5080359060208101359060408101359060608101351515906001600160a01b03608082013581169160a0013516611a9f565b34801561081857600080fd5b506102a3611b06565b34801561082d57600080fd5b506102a3611b15565b34801561084257600080fd5b5061028c6004803603602081101561085957600080fd5b50356001600160a01b0316611b24565b34801561087557600080fd5b506102a3611c27565b34801561088a57600080fd5b50610321611c36565b34801561089f57600080fd5b506102a3611c41565b600260975414156108ee576040805162461bcd60e51b815260206004820152601f6024820152600080516020613e27833981519152604482015290519081900360640190fd5b60026097556109033360008581868682611c56565b5050600160975550565b60ca546001600160a01b031681565b610924612229565b61093683600080600086866000611c56565b505050565b60026097541415610981576040805162461bcd60e51b815260206004820152601f6024820152600080516020613e27833981519152604482015290519081900360640190fd5b600260975560c95460005460d0546001600160a01b039283169291821691166109aa8333612274565b60cd5460408051630fdb11cf60e01b815290516000926001600160a01b031691630fdb11cf91600480830192602092919082900301818787803b1580156109f057600080fd5b505af1158015610a04573d6000803e3d6000fd5b505050506040513d6020811015610a1a57600080fd5b50519050610a2781612330565b60408051630b07655760e01b815233600482015290516001600160a01b03861691630b07655791602480830192600092919082900301818387803b158015610a6e57600080fd5b505af1158015610a82573d6000803e3d6000fd5b505050506000846001600160a01b031663480cd578336040518263ffffffff1660e01b815260040180826001600160a01b0316815260200191505060206040518083038186803b158015610ad557600080fd5b505afa158015610ae9573d6000803e3d6000fd5b505050506040513d6020811015610aff57600080fd5b50516040805163d66a255360e01b815233600482015290519192506000916001600160a01b0388169163d66a2553916024808301926020929190829003018186803b158015610b4d57600080fd5b505afa158015610b61573d6000803e3d6000fd5b505050506040513d6020811015610b7757600080fd5b50519050610baf8433610baa847f0000000000000000000000000000000000000000000000000000000000000000612378565b6123d5565b6000610bc08360008460008861248c565b9050610bcb816124ff565b60408051631fc5750960e31b815233600482015290516001600160a01b0389169163fe2ba84891602480830192600092919082900301818387803b158015610c1257600080fd5b505af1158015610c26573d6000803e3d6000fd5b5050604080516365e89c5760e11b815233600482015290516001600160a01b038b16935063cbd138ae9250602480830192600092919082900301818387803b158015610c7157600080fd5b505af1158015610c85573d6000803e3d6000fd5b50505050336001600160a01b03166000805160206140be8339815191526000806000600160405180858152602001848152602001838152602001826002811115610ccb57fe5b815260200194505050505060405180910390a2610d13868633610d0e867f0000000000000000000000000000000000000000000000000000000000000000612378565b612546565b60cb54610d4d90879087906001600160a01b03167f0000000000000000000000000000000000000000000000000000000000000000612546565b60408051628063a560e01b81523360048201526024810185905290516001600160a01b03881691628063a591604480830192600092919082900301818387803b158015610d9957600080fd5b505af1158015610dad573d6000803e3d6000fd5b50506001609755505050505050505050565b7f000000000000000000000000000000000000000000000000000000000000000081565b7f000000000000000000000000000000000000000000000000000000000000000081565b610e178686868686866000611c56565b505050505050565b6001546001600160a01b031681565b60c9546001600160a01b031681565b60c881565b6000610e4d82612619565b92915050565b6000610e6488888888888888612645565b98975050505050505050565b60026097541415610eb6576040805162461bcd60e51b815260206004820152601f6024820152600080516020613e27833981519152604482015290519081900360640190fd5b60026097556109033384600080868682611c56565b6714d1120d7b16000081565b60cf546001600160a01b031681565b60026097541415610f2c576040805162461bcd60e51b815260206004820152601f6024820152600080516020613e27833981519152604482015290519081900360640190fd5b6002609755610f4233600085600186868a611c56565b505060016097555050565b60026097541415610f93576040805162461bcd60e51b815260206004820152601f6024820152600080516020613e27833981519152604482015290519081900360640190fd5b6002609755610fa83360008080868682611c56565b50506001609755565b60cc546040805163b32beb5b60e01b815233600482015290516001600160a01b039092169163b32beb5b9160248082019260009290919082900301818387803b158015610ffd57600080fd5b505af1158015611011573d6000803e3d6000fd5b50505050565b60006110238383612678565b9392505050565b61103261269f565b6001600160a01b031661104361197d565b6001600160a01b03161461109e576040805162461bcd60e51b815260206004820181905260248201527f4f776e61626c653a2063616c6c6572206973206e6f7420746865206f776e6572604482015290519081900360640190fd5b6065546040516000916001600160a01b031690600080516020614070833981519152908390a3606580546001600160a01b0319169055565b670de0b6b3a764000081565b60cd546001600160a01b031681565b670f43fc2c04ee000081565b60008054604080516314a6bf0f60e01b8152905183926001600160a01b0316916314a6bf0f916004808301926020929190829003018186803b15801561114257600080fd5b505afa158015611156573d6000803e3d6000fd5b505050506040513d602081101561116c57600080fd5b5051600154604080516314a6bf0f60e01b815290519293506000926001600160a01b03909216916314a6bf0f91600480820192602092909190829003018186803b1580156111b957600080fd5b505afa1580156111cd573d6000803e3d6000fd5b505050506040513d60208110156111e357600080fd5b505190506111f182826126a3565b9250505090565b6000546001600160a01b031681565b6002609754141561124d576040805162461bcd60e51b815260206004820152601f6024820152600080516020613e27833981519152604482015290519081900360640190fd5b600260975561125b836126fd565b6040805160608101825260c9546001600160a01b0390811682526000548116602083015260d0541691810191909152611292613d77565b60cd60009054906101000a90046001600160a01b03166001600160a01b0316630fdb11cf6040518163ffffffff1660e01b8152600401602060405180830381600087803b1580156112e257600080fd5b505af11580156112f6573d6000803e3d6000fd5b505050506040513d602081101561130c57600080fd5b505180825260009061131d90612739565b90506113298782612756565b82516113359033612806565b60408201869052806113705761135583600001518460400151888a6128d9565b60208301819052604083015161136a916126a3565b60408301525b61137d8260400151612a89565b61138a8260400151612619565b6060830181905261139757fe5b6113aa3483606001518460000151612ae8565b608083015260608201516113bf903490612b14565b60a083015280156113dc576113d78260800151612b43565b61140f565b6113e98260800151612b8a565b600061140234600185606001516001876000015161248c565b905061140d816124ff565b505b825160408051635d6b480f60e01b81523360048201526001602482015290516001600160a01b0390921691635d6b480f9160448082019260009290919082900301818387803b15801561146157600080fd5b505af1158015611475573d6000803e3d6000fd5b50508451604080516372423c1760e01b815233600482015234602482015290516001600160a01b0390921693506372423c1792506044808201926020929091908290030181600087803b1580156114cb57600080fd5b505af11580156114df573d6000803e3d6000fd5b505050506040513d60208110156114f557600080fd5b50508251606083015160408051639976cf4560e01b81523360048201526024810192909252516001600160a01b0390921691639976cf45916044808201926020929091908290030181600087803b15801561154f57600080fd5b505af1158015611563573d6000803e3d6000fd5b505050506040513d602081101561157957600080fd5b50508251604080516382fe3eb960e01b815233600482015290516001600160a01b03909216916382fe3eb99160248082019260009290919082900301818387803b1580156115c657600080fd5b505af11580156115da573d6000803e3d6000fd5b5050505082600001516001600160a01b03166318f2817a336040518263ffffffff1660e01b815260040180826001600160a01b03168152602001915050602060405180830381600087803b15801561163157600080fd5b505af1158015611645573d6000803e3d6000fd5b505050506040513d602081101561165b57600080fd5b505160c083015260d15460a0830151604080516346f7cf8760e01b815233600482015260248101929092526001600160a01b038881166044840152878116606484015290519216916346f7cf879160848082019260009290919082900301818387803b1580156116ca57600080fd5b505af11580156116de573d6000803e3d6000fd5b5050505082600001516001600160a01b03166315d549f1336040518263ffffffff1660e01b815260040180826001600160a01b03168152602001915050602060405180830381600087803b15801561173557600080fd5b505af1158015611749573d6000803e3d6000fd5b505050506040513d602081101561175f57600080fd5b505160e08301819052604080519182525133917f59cfd0cd754bc5748b6770e94a4ffa5f678d885cb899dcfadc5734edb97c67ab919081900360200190a26117ab836020015134612bd1565b6117c48360200151846040015133898660400151612c61565b6020830151604084015160cb546118079291906001600160a01b03167f000000000000000000000000000000000000000000000000000000000000000080612c61565b336001600160a01b03166000805160206140be8339815191528360600151348560c0015160006040518085815260200184815260200183815260200182600281111561184f57fe5b815260200194505050505060405180910390a2602080830151604080519182525133927fefe9137e0c60d14b7f57a84d5b68f55a648dd9fa7b01747d4ec305a3c8974c01928290030190a2505060016097555050505050565b60006118b7868686868661248c565b9695505050505050565b60008054604080516362e1c9bf60e11b8152905183926001600160a01b03169163c5c3937e916004808301926020929190829003018186803b15801561190657600080fd5b505afa15801561191a573d6000803e3d6000fd5b505050506040513d602081101561193057600080fd5b5051600154604080516362e1c9bf60e11b815290519293506000926001600160a01b039092169163c5c3937e91600480820192602092909190829003018186803b1580156111b957600080fd5b6065546001600160a01b031690565b60405180604001604052806012815260200171426f72726f7765724f7065726174696f6e7360701b81525081565b60d1546001600160a01b031681565b603254610100900460ff16806119e257506119e2612d35565b806119f0575060325460ff16155b611a2b5760405162461bcd60e51b815260040180806020018281038252602e815260200180613f60602e913960400191505060405180910390fd5b603254610100900460ff16158015611a56576032805460ff1961ff0019909116610100171660011790555b611a5e612d46565b611a66612df7565b611a708a8a612e8c565b611a808b89898989898989612f3e565b8015611a92576032805461ff00191690555b5050505050505050505050565b60026097541415611ae5576040805162461bcd60e51b815260206004820152601f6024820152600080516020613e27833981519152604482015290519081900360640190fd5b6002609755611af93386868686868c611c56565b5050600160975550505050565b60cc546001600160a01b031681565b60ce546001600160a01b031681565b611b2c61269f565b6001600160a01b0316611b3d61197d565b6001600160a01b031614611b98576040805162461bcd60e51b815260206004820181905260248201527f4f776e61626c653a2063616c6c6572206973206e6f7420746865206f776e6572604482015290519081900360640190fd5b6001600160a01b038116611bdd5760405162461bcd60e51b8152600401808060200182810382526026815260200180613e476026913960400191505060405180910390fd5b6065546040516001600160a01b0380841692169060008051602061407083398151915290600090a3606580546001600160a01b0319166001600160a01b0392909216919091179055565b60d0546001600160a01b031681565b6611c37937e0800081565b60cb546001600160a01b031681565b3b151590565b6040805160608101825260c9546001600160a01b0390811682526000548116602083015260d0541691810191909152611c8d613dbc565b60cd60009054906101000a90046001600160a01b03166001600160a01b0316630fdb11cf6040518163ffffffff1660e01b8152600401602060405180830381600087803b158015611cdd57600080fd5b505af1158015611cf1573d6000803e3d6000fd5b505050506040513d6020811015611d0757600080fd5b5051808252600090611d1890612739565b90508615611d3357611d2a8482612756565b611d338861321d565b611d3c8961325c565b611d4689896132a2565b8251611d52908b612274565b336001600160a01b038b161480611d88575060ca546001600160a01b031633148015611d7e5750600034115b8015611d88575087155b611d8e57fe5b82600001516001600160a01b0316630b0765578b6040518263ffffffff1660e01b815260040180826001600160a01b03168152602001915050600060405180830381600087803b158015611de157600080fd5b505af1158015611df5573d6000803e3d6000fd5b50505050611e03348a6132f4565b15156060840152602083015260408201889052868015611e21575080155b15611e5657611e3a836000015184604001518a876128d9565b61012083018190526040830151611e50916126a3565b60408301525b82600001516001600160a01b031663d66a25538b6040518263ffffffff1660e01b815260040180826001600160a01b0316815260200191505060206040518083038186803b158015611ea757600080fd5b505afa158015611ebb573d6000803e3d6000fd5b505050506040513d6020811015611ed157600080fd5b505160808301528251604080516309019aaf60e31b81526001600160a01b038d811660048301529151919092169163480cd578916024808301926020929190829003018186803b158015611f2457600080fd5b505afa158015611f38573d6000803e3d6000fd5b505050506040513d6020811015611f4e57600080fd5b505160a0830181905260808301518351611f69929190612ae8565b8260c0018181525050611f998260a0015183608001518460200151856060015186604001518c8860000151612645565b60e083015260a0820151891115611fac57fe5b611fb8818a8985613313565b86158015611fc65750600088115b1561201357611fee611fe98360400151611fe38560800151613387565b90612378565b612a89565b612000826080015183604001516133b3565b61201383604001518b84604001516123d5565b61203183600001518b8460200151856060015186604001518c61341b565b610140840152610160830152825160408051630c7940bd60e11b81526001600160a01b038d81166004830152915191909216916318f2817a9160248083019260209291908290030181600087803b15801561208b57600080fd5b505af115801561209f573d6000803e3d6000fd5b505050506040513d60208110156120b557600080fd5b505161018083015260a082015160808301516020840151606085015160408601516000946120e9949093909290918d613657565b60d1546040805163015f109360e51b81526001600160a01b038f81166004830152602482018590528b811660448301528a811660648301529151939450911691632be212609160848082019260009290919082900301818387803b15801561215057600080fd5b505af1158015612164573d6000803e3d6000fd5b505050508a6001600160a01b03166000805160206140be8339815191528461014001518561016001518661018001516002604051808581526020018481526020018381526020018260028111156121b757fe5b815260200194505050505060405180910390a2610120830151604080519182525133917fefe9137e0c60d14b7f57a84d5b68f55a648dd9fa7b01747d4ec305a3c8974c01919081900360200190a2611a928460200151856040015133866020015187606001518e8e8a60400151613688565b60ca546001600160a01b031633146122725760405162461bcd60e51b81526004018080602001828103825260298152602001806142216029913960400191505060405180910390fd5b565b6000826001600160a01b03166321e37801836040518263ffffffff1660e01b815260040180826001600160a01b0316815260200191505060206040518083038186803b1580156122c357600080fd5b505afa1580156122d7573d6000803e3d6000fd5b505050506040513d60208110156122ed57600080fd5b50519050600181146109365760405162461bcd60e51b815260040180806020018281038252602e815260200180614090602e913960400191505060405180910390fd5b61233981612739565b156123755760405162461bcd60e51b8152600401808060200182810382526039815260200180613ef06039913960400191505060405180910390fd5b50565b6000828211156123cf576040805162461bcd60e51b815260206004820152601e60248201527f536166654d6174683a207375627472616374696f6e206f766572666c6f770000604482015290519081900360640190fd5b50900390565b80836001600160a01b03166370a08231846040518263ffffffff1660e01b815260040180826001600160a01b0316815260200191505060206040518083038186803b15801561242357600080fd5b505afa158015612437573d6000803e3d6000fd5b505050506040513d602081101561244d57600080fd5b505110156109365760405162461bcd60e51b815260040180806020018281038252603f81526020018061411c603f913960400191505060405180910390fd5b6000806124976118c1565b905060006124a36110fd565b9050866124b9576124b48289612378565b6124c3565b6124c382896126a3565b9150846124d9576124d48187612378565b6124e3565b6124e381876126a3565b905060006124f2838387612ae8565b9998505050505050505050565b6714d1120d7b1600008110156123755760405162461bcd60e51b81526004018080602001828103825260498152602001806140276049913960600191505060405180910390fd5b836001600160a01b0316632a7ba1f7826040518263ffffffff1660e01b815260040180828152602001915050600060405180830381600087803b15801561258c57600080fd5b505af11580156125a0573d6000803e3d6000fd5b50505050826001600160a01b0316639dc29fac83836040518363ffffffff1660e01b815260040180836001600160a01b0316815260200182815260200192505050600060405180830381600087803b1580156125fb57600080fd5b505af115801561260f573d6000803e3d6000fd5b5050505050505050565b6000610e4d827f00000000000000000000000000000000000000000000000000000000000000006126a3565b60008060006126588a8a8a8a8a8a613739565b915091506000612669838387612ae8565b9b9a5050505050505050505050565b600080612697670de0b6b3a7640000612691858761377c565b906137d5565b949350505050565b3390565b600082820183811015611023576040805162461bcd60e51b815260206004820152601b60248201527f536166654d6174683a206164646974696f6e206f766572666c6f770000000000604482015290519081900360640190fd5b806123755760405162461bcd60e51b815260040180806020018281038252602d815260200180613e9a602d913960400191505060405180910390fd5b6000806127458361383c565b6714d1120d7b160000119392505050565b80156127a857670de0b6b3a76400008211156127a35760405162461bcd60e51b8152600401808060200182810382526032815260200180613f8e6032913960400191505060405180910390fd5b612802565b6611c37937e0800082108015906127c75750670de0b6b3a76400008211155b6128025760405162461bcd60e51b815260040180806020018281038252603081526020018061424a6030913960400191505060405180910390fd5b5050565b6000826001600160a01b03166321e37801836040518263ffffffff1660e01b815260040180826001600160a01b0316815260200191505060206040518083038186803b15801561285557600080fd5b505afa158015612869573d6000803e3d6000fd5b505050506040513d602081101561287f57600080fd5b505190506001811415610936576040805162461bcd60e51b815260206004820152601c60248201527f426f72726f7765724f70733a2054726f76652069732061637469766500000000604482015290519081900360640190fd5b6000846001600160a01b0316635dba4c4a6040518163ffffffff1660e01b8152600401600060405180830381600087803b15801561291657600080fd5b505af115801561292a573d6000803e3d6000fd5b505050506000856001600160a01b031663631203b0856040518263ffffffff1660e01b81526004018082815260200191505060206040518083038186803b15801561297457600080fd5b505afa158015612988573d6000803e3d6000fd5b505050506040513d602081101561299e57600080fd5b505190506129ad818585613860565b60ce54604080516358caad6960e11b81526004810184905290516001600160a01b039092169163b1955ad29160248082019260009290919082900301818387803b1580156129fa57600080fd5b505af1158015612a0e573d6000803e3d6000fd5b505060cf54604080516340c10f1960e01b81526001600160a01b03928316600482015260248101869052905191891693506340c10f19925060448082019260009290919082900301818387803b158015612a6757600080fd5b505af1158015612a7b573d6000803e3d6000fd5b509298975050505050505050565b7f00000000000000000000000000000000000000000000000000000000000000008110156123755760405162461bcd60e51b815260040180806020018281038252603a8152602001806141a4603a913960400191505060405180910390fd5b60008215612b09576000612b0084612691878661377c565b91506110239050565b506000199392505050565b60008115612b3a57612b33826126918568056bc75e2d6310000061377c565b9050610e4d565b50600019610e4d565b6714d1120d7b1600008110156123755760405162461bcd60e51b8152600401808060200182810382526037815260200180613f296037913960400191505060405180910390fd5b670f43fc2c04ee00008110156123755760405162461bcd60e51b815260040180806020018281038252604981526020018061415b6049913960600191505060405180910390fd5b6040516000906001600160a01b0384169083908381818185875af1925050503d8060008114612c1c576040519150601f19603f3d011682016040523d82523d6000602084013e612c21565b606091505b50509050806109365760405162461bcd60e51b815260040180806020018281038252602d815260200180613e6d602d913960400191505060405180910390fd5b846001600160a01b0316632b7c7b11826040518263ffffffff1660e01b815260040180828152602001915050600060405180830381600087803b158015612ca757600080fd5b505af1158015612cbb573d6000803e3d6000fd5b50505050836001600160a01b03166340c10f1984846040518363ffffffff1660e01b815260040180836001600160a01b0316815260200182815260200192505050600060405180830381600087803b158015612d1657600080fd5b505af1158015612d2a573d6000803e3d6000fd5b505050505050505050565b6000612d4030611c50565b15905090565b603254610100900460ff1680612d5f5750612d5f612d35565b80612d6d575060325460ff16155b612da85760405162461bcd60e51b815260040180806020018281038252602e815260200180613f60602e913960400191505060405180910390fd5b603254610100900460ff16158015612dd3576032805460ff1961ff0019909116610100171660011790555b612ddb6138cf565b612de361396f565b8015612375576032805461ff001916905550565b603254610100900460ff1680612e105750612e10612d35565b80612e1e575060325460ff16155b612e595760405162461bcd60e51b815260040180806020018281038252602e815260200180613f60602e913960400191505060405180910390fd5b603254610100900460ff16158015612e84576032805460ff1961ff0019909116610100171660011790555b612de3613a56565b612e9582613afc565b612e9e81613afc565b600080546001600160a01b038085166001600160a01b03199283168117909355600180549185169190921617905560408051918252517f78f058b189175430c48dc02699e3a0031ea4ff781536dc2fab847de4babdd8829181900360200190a1604080516001600160a01b038316815290517f5ee0cae2f063ed938bb55046f6a932fb6ae792bf43624806bb90abe68a50be9b9181900360200190a15050565b60007f000000000000000000000000000000000000000000000000000000000000000011612f6857fe5b612f7188613afc565b612f7a87613afc565b612f8386613afc565b612f8c85613afc565b612f9584613afc565b612f9e83613afc565b612fa782613afc565b612fb081613afc565b612fb988613b57565b60c980546001600160a01b03199081166001600160a01b038b811691821790935560ca805483168b851617905560cb805483168a851617905560cc8054831689851617905560cd8054831688851617905560d18054831687851617905560d08054831686851617905560cf80548316938516938417905560ce8054909216909217905560408051918252517f143219c9e69b09e07e095fcc889b43d8f46ca892bba65f08dc3a0050869a5678916020908290030190a1604080516001600160a01b038916815290517f82966d27eea39b038ee0fa30cd16532bb24f6e65d31cb58fb227aa5766cdcc7f9181900360200190a1604080516001600160a01b038816815290517fcfb07d791fcafc032b35837b50eb84b74df518cf4cc287e8084f47630fa70fa09181900360200190a1604080516001600160a01b038716815290517fe67f36a6e961157d6eff83b91f3af5a62131ceb6f04954ef74f51c1c05e7f88d9181900360200190a1604080516001600160a01b038616815290517f8c537274438aa850a330284665d81a85dd38267d09e4050d416bfc94142db2649181900360200190a1604080516001600160a01b038516815290517f65f4cf077bc01e4742eb5ad98326f6e95b63548ea24b17f8d5e823111fe788009181900360200190a1604080516001600160a01b038416815290517f112220fa8dbe96141556e0dc3d74dd95075b323f4f297616048e02d82d7017159181900360200190a1604080516001600160a01b038316815290517ff81a824d1d9030c0365252fb96daf0565f9c2007c88e13001379dda7f06d5d5c9181900360200190a15050505050505050565b600081116123755760405162461bcd60e51b815260040180806020018281038252603781526020018061427a6037913960400191505060405180910390fd5b341580613267575080155b6123755760405162461bcd60e51b8152600401808060200182810382526029815260200180613ec76029913960400191505060405180910390fd5b341515806132af57508115155b806132b957508015155b6128025760405162461bcd60e51b8152600401808060200182810382526046815260200180613fc06046913960600191505060405180910390fd5b60008083156133085750829050600161330c565b8291505b9250929050565b831561334c5761332283613cfb565b8115613347576133358160e00151612b43565b6133478160e001518260c00151613d38565b611011565b6133598160e00151612b8a565b61337681602001518260600151836040015185856000015161248c565b6101008201819052611011906124ff565b6000610e4d827f0000000000000000000000000000000000000000000000000000000000000000612378565b6133dd827f0000000000000000000000000000000000000000000000000000000000000000612378565b8111156128025760405162461bcd60e51b81526004018080602001828103825260438152602001806141de6043913960600191505060405180910390fd5b6000806000856134ad57886001600160a01b031663d3d6f84389896040518363ffffffff1660e01b815260040180836001600160a01b0316815260200182815260200192505050602060405180830381600087803b15801561347c57600080fd5b505af1158015613490573d6000803e3d6000fd5b505050506040513d60208110156134a657600080fd5b5051613531565b886001600160a01b03166372423c1789896040518363ffffffff1660e01b815260040180836001600160a01b0316815260200182815260200192505050602060405180830381600087803b15801561350457600080fd5b505af1158015613518573d6000803e3d6000fd5b505050506040513d602081101561352e57600080fd5b50515b90506000846135c257896001600160a01b03166312610e928a886040518363ffffffff1660e01b815260040180836001600160a01b0316815260200182815260200192505050602060405180830381600087803b15801561359157600080fd5b505af11580156135a5573d6000803e3d6000fd5b505050506040513d60208110156135bb57600080fd5b5051613646565b896001600160a01b0316639976cf458a886040518363ffffffff1660e01b815260040180836001600160a01b0316815260200182815260200192505050602060405180830381600087803b15801561361957600080fd5b505af115801561362d573d6000803e3d6000fd5b505050506040513d602081101561364357600080fd5b50515b919a91995090975050505050505050565b600080600061366a898989898989613739565b91509150600061367a8383612b14565b9a9950505050505050505050565b81156136a05761369b8888888685612c61565b6136ac565b6136ac88888886612546565b83156136c1576136bc8886612bd1565b61260f565b876001600160a01b0316628063a587876040518363ffffffff1660e01b815260040180836001600160a01b0316815260200182815260200192505050600060405180830381600087803b15801561371757600080fd5b505af115801561372b573d6000803e3d6000fd5b505050505050505050505050565b6000808787866137525761374d8a89612378565b61375c565b61375c8a896126a3565b9150846137725761376d8987612378565b613646565b61364689876126a3565b60008261378b57506000610e4d565b8282028284828161379857fe5b04146110235760405162461bcd60e51b81526004018080602001828103825260218152602001806140066021913960400191505060405180910390fd5b600080821161382b576040805162461bcd60e51b815260206004820152601a60248201527f536166654d6174683a206469766973696f6e206279207a65726f000000000000604482015290519081900360640190fd5b81838161383457fe5b049392505050565b6000806138476118c1565b905060006138536110fd565b9050612697828286612ae8565b60006138788361269186670de0b6b3a764000061377c565b905081811115611011576040805162461bcd60e51b815260206004820152601d60248201527f4665652065786365656465642070726f7669646564206d6178696d756d000000604482015290519081900360640190fd5b603254610100900460ff16806138e857506138e8612d35565b806138f6575060325460ff16155b6139315760405162461bcd60e51b815260040180806020018281038252602e815260200180613f60602e913960400191505060405180910390fd5b603254610100900460ff16158015612de3576032805460ff1961ff0019909116610100171660011790558015612375576032805461ff001916905550565b603254610100900460ff16806139885750613988612d35565b80613996575060325460ff16155b6139d15760405162461bcd60e51b815260040180806020018281038252602e815260200180613f60602e913960400191505060405180910390fd5b603254610100900460ff161580156139fc576032805460ff1961ff0019909116610100171660011790555b6000613a0661269f565b606580546001600160a01b0319166001600160a01b03831690811790915560405191925090600090600080516020614070833981519152908290a3508015612375576032805461ff001916905550565b603254610100900460ff1680613a6f5750613a6f612d35565b80613a7d575060325460ff16155b613ab85760405162461bcd60e51b815260040180806020018281038252602e815260200180613f60602e913960400191505060405180910390fd5b603254610100900460ff16158015613ae3576032805460ff1961ff0019909116610100171660011790555b60016097558015612375576032805461ff001916905550565b6001600160a01b038116612375576040805162461bcd60e51b815260206004820152601e60248201527f4163636f756e742063616e6e6f74206265207a65726f20616464726573730000604482015290519081900360640190fd5b7f0000000000000000000000000000000000000000000000000000000000000000816001600160a01b031663139f2e8c6040518163ffffffff1660e01b815260040160206040518083038186803b158015613bb157600080fd5b505afa158015613bc5573d6000803e3d6000fd5b505050506040513d6020811015613bdb57600080fd5b505114613c2b576040805162461bcd60e51b815260206004820152601960248201527808e82a6be869e9aa08a9ca682a8929e9c40dad2e6dac2e8c6d603b1b604482015290519081900360640190fd5b7f0000000000000000000000000000000000000000000000000000000000000000816001600160a01b0316631bf435556040518163ffffffff1660e01b815260040160206040518083038186803b158015613c8557600080fd5b505afa158015613c99573d6000803e3d6000fd5b505050506040513d6020811015613caf57600080fd5b505114612375576040805162461bcd60e51b815260206004820152601560248201527409a929cbe9c8aa8be888a84a840dad2e6dac2e8c6d605b1b604482015290519081900360640190fd5b80156123755760405162461bcd60e51b815260040180806020018281038252603e8152602001806140de603e913960400191505060405180910390fd5b808210156128025760405162461bcd60e51b815260040180806020018281038252603e8152602001806142b1603e913960400191505060405180910390fd5b60405180610100016040528060008152602001600081526020016000815260200160008152602001600081526020016000815260200160008152602001600081525090565b604051806101a00160405280600081526020016000815260200160008152602001600015158152602001600081526020016000815260200160008152602001600081526020016000815260200160008152602001600081526020016000815260200160008152509056fe5265656e7472616e637947756172643a207265656e7472616e742063616c6c004f776e61626c653a206e6577206f776e657220697320746865207a65726f2061646472657373426f72726f7765724f70733a2053656e64696e672046494c20746f20416374697665506f6f6c206661696c6564426f72726f7765724f70733a20416d6f756e74206d7573742062652067726561746572207468616e207a65726f426f72726f7765724f70733a2043616e6e6f7420776974686472617720616e642061646420636f6c6c426f72726f7765724f70733a204f7065726174696f6e206e6f74207065726d697474656420647572696e67205265636f76657279204d6f6465426f72726f7765724f70733a204f7065726174696f6e206d757374206c656176652074726f7665207769746820494352203e3d20434352496e697469616c697a61626c653a20636f6e747261637420697320616c726561647920696e697469616c697a65644d6178206665652070657263656e74616765206d757374206c657373207468616e206f7220657175616c20746f2031303025426f72726f7765724f70733a205468657265206d75737420626520656974686572206120636f6c6c61746572616c206368616e6765206f7220612064656274206368616e6765536166654d6174683a206d756c7469706c69636174696f6e206f766572666c6f77426f72726f7765724f70733a20416e206f7065726174696f6e207468617420776f756c6420726573756c7420696e20544352203c20434352206973206e6f74207065726d69747465648be0079c531659141344cd1fd0a4f28419497f9722a3daafe3b4186f6b6457e0426f72726f7765724f70733a2054726f766520646f6573206e6f74206578697374206f7220697320636c6f736564c3770d654ed33aeea6bf11ac8ef05d02a6a04ed4686dd2f624d853bbec43cc8b426f72726f7765724f70733a20436f6c6c61746572616c207769746864726177616c206e6f74207065726d6974746564205265636f76657279204d6f6465426f72726f7765724f70733a2043616c6c657220646f65736e74206861766520656e6f75676820746f6b656e7320746f206d616b652072657061796d656e74426f72726f7765724f70733a20416e206f7065726174696f6e207468617420776f756c6420726573756c7420696e20494352203c204d4352206973206e6f74207065726d6974746564426f72726f7765724f70733a2054726f76652773206e65742064656274206d7573742062652067726561746572207468616e206d696e696d756d426f72726f7765724f70733a20416d6f756e7420726570616964206d757374206e6f74206265206c6172676572207468616e207468652054726f766527732064656274426f72726f7765724f70733a2043616c6c6572206973206e6f742053746162696c69747920506f6f6c4d6178206665652070657263656e74616765206d757374206265206265747765656e20302e352520616e642031303025426f72726f7765724f70733a204465627420696e637265617365207265717569726573206e6f6e2d7a65726f20646562744368616e6765426f72726f7765724f70733a2043616e6e6f7420646563726561736520796f75722054726f766527732049435220696e205265636f76657279204d6f6465a26469706673582212209f276f6364b3d5b2968315914905c0d1f207bc3688e6bf4209729ec5dde4800464736f6c63430007060033496e697469616c697a61626c653a20636f6e747261637420697320616c726561647920696e697469616c697a6564",
  "linkReferences": {},
  "deployedLinkReferences": {}
}