{
  "_format": "hh-sol-artifact-1",
  "contractName": "BorrowerOperationsScript",
  "sourceName": "contracts/Proxy/BorrowerOperationsScript.sol",
  "abi": [
    {
      "inputs": [
        {
          "internalType": "contract IBorrowerOperations",
          "name": "_borrowerOperations",
          "type": "address"
        }
      ],
      "stateMutability": "nonpayable",
      "type": "constructor"
    },
    {
      "inputs": [
        {
          "internalType": "address",
          "name": "_upperHint",
          "type": "address"
        },
        {
          "internalType": "address",
          "name": "_lowerHint",
          "type": "address"
        }
      ],
      "name": "addColl",
      "outputs": [],
      "stateMutability": "payable",
      "type": "function"
    },
    {
      "inputs": [
        {
          "internalType": "uint256",
          "name": "_maxFee",
          "type": "uint256"
        },
        {
          "internalType": "uint256",
          "name": "_collWithdrawal",
          "type": "uint256"
        },
        {
          "internalType": "uint256",
          "name": "_debtChange",
          "type": "uint256"
        },
        {
          "internalType": "bool",
          "name": "isDebtIncrease",
          "type": "bool"
        },
        {
          "internalType": "address",
          "name": "_upperHint",
          "type": "address"
        },
        {
          "internalType": "address",
          "name": "_lowerHint",
          "type": "address"
        }
      ],
      "name": "adjustTrove",
      "outputs": [],
      "stateMutability": "payable",
      "type": "function"
    },
    {
      "inputs": [],
      "name": "claimCollateral",
      "outputs": [],
      "stateMutability": "nonpayable",
      "type": "function"
    },
    {
      "inputs": [],
      "name": "closeTrove",
      "outputs": [],
      "stateMutability": "nonpayable",
      "type": "function"
    },
    {
      "inputs": [
        {
          "internalType": "uint256",
          "name": "_maxFee",
          "type": "uint256"
        },
        {
          "internalType": "uint256",
          "name": "_debtTokenAmount",
          "type": "uint256"
        },
        {
          "internalType": "address",
          "name": "_upperHint",
          "type": "address"
        },
        {
          "internalType": "address",
          "name": "_lowerHint",
          "type": "address"
        }
      ],
      "name": "openTrove",
      "outputs": [],
      "stateMutability": "payable",
      "type": "function"
    },
    {
      "inputs": [
        {
          "internalType": "uint256",
          "name": "_amount",
          "type": "uint256"
        },
        {
          "internalType": "address",
          "name": "_upperHint",
          "type": "address"
        },
        {
          "internalType": "address",
          "name": "_lowerHint",
          "type": "address"
        }
      ],
      "name": "repayDebtToken",
      "outputs": [],
      "stateMutability": "nonpayable",
      "type": "function"
    },
    {
      "inputs": [
        {
          "internalType": "uint256",
          "name": "_amount",
          "type": "uint256"
        },
        {
          "internalType": "address",
          "name": "_upperHint",
          "type": "address"
        },
        {
          "internalType": "address",
          "name": "_lowerHint",
          "type": "address"
        }
      ],
      "name": "withdrawColl",
      "outputs": [],
      "stateMutability": "nonpayable",
      "type": "function"
    },
    {
      "inputs": [
        {
          "internalType": "uint256",
          "name": "_maxFee",
          "type": "uint256"
        },
        {
          "internalType": "uint256",
          "name": "_amount",
          "type": "uint256"
        },
        {
          "internalType": "address",
          "name": "_upperHint",
          "type": "address"
        },
        {
          "internalType": "address",
          "name": "_lowerHint",
          "type": "address"
        }
      ],
      "name": "withdrawDebtToken",
      "outputs": [],
      "stateMutability": "nonpayable",
      "type": "function"
    }
  ],
  "bytecode": "0x60a060405234801561001057600080fd5b5060405161081e38038061081e8339818101604052602081101561003357600080fd5b505161003e81610053565b60601b6001600160601b031916608052610106565b6001600160a01b0381166100ae576040805162461bcd60e51b815260206004820152601e60248201527f4163636f756e742063616e6e6f74206265207a65726f20616464726573730000604482015290519081900360640190fd5b803b80610102576040805162461bcd60e51b815260206004820181905260248201527f4163636f756e7420636f64652073697a652063616e6e6f74206265207a65726f604482015290519081900360640190fd5b5050565b60805160601c6106d86101466000398061021752806102bc528061033152806103b9528061046752806104e75280610542528061063652506106d86000f3fe60806040526004361061006b5760003560e01c80630802c78a146100705780630e704d50146100b35780635530273c146100c857806362a0d7991461010957806368647db1146101505780636f0b0c1c1461017e578063860665b314610193578063c6a6cf20146101cd575b600080fd5b34801561007c57600080fd5b506100b16004803603606081101561009357600080fd5b508035906001600160a01b0360208201358116916040013516610215565b005b3480156100bf57600080fd5b506100b16102ba565b3480156100d457600080fd5b506100b1600480360360608110156100eb57600080fd5b508035906001600160a01b036020820135811691604001351661032f565b34801561011557600080fd5b506100b16004803603608081101561012c57600080fd5b508035906020810135906001600160a01b03604082013581169160600135166103b7565b6100b16004803603604081101561016657600080fd5b506001600160a01b0381358116916020013516610465565b34801561018a57600080fd5b506100b16104e5565b6100b1600480360360808110156101a957600080fd5b508035906020810135906001600160a01b0360408201358116916060013516610540565b6100b1600480360360c08110156101e357600080fd5b5080359060208101359060408101359060608101351515906001600160a01b03608082013581169160a00135166105ef565b7f00000000000000000000000000000000000000000000000000000000000000006001600160a01b0316630802c78a8484846040518463ffffffff1660e01b815260040180848152602001836001600160a01b03168152602001826001600160a01b031681526020019350505050600060405180830381600087803b15801561029d57600080fd5b505af11580156102b1573d6000803e3d6000fd5b50505050505050565b7f00000000000000000000000000000000000000000000000000000000000000006001600160a01b0316630e704d506040518163ffffffff1660e01b8152600401600060405180830381600087803b15801561031557600080fd5b505af1158015610329573d6000803e3d6000fd5b50505050565b7f00000000000000000000000000000000000000000000000000000000000000006001600160a01b0316635530273c8484846040518463ffffffff1660e01b815260040180848152602001836001600160a01b03168152602001826001600160a01b031681526020019350505050600060405180830381600087803b15801561029d57600080fd5b7f00000000000000000000000000000000000000000000000000000000000000006001600160a01b03166362a0d799858585856040518563ffffffff1660e01b815260040180858152602001848152602001836001600160a01b03168152602001826001600160a01b03168152602001945050505050600060405180830381600087803b15801561044757600080fd5b505af115801561045b573d6000803e3d6000fd5b5050505050505050565b7f00000000000000000000000000000000000000000000000000000000000000006001600160a01b03166368647db13484846040518463ffffffff1660e01b815260040180836001600160a01b03168152602001826001600160a01b03168152602001925050506000604051808303818588803b15801561029d57600080fd5b7f00000000000000000000000000000000000000000000000000000000000000006001600160a01b0316636f0b0c1c6040518163ffffffff1660e01b8152600401600060405180830381600087803b15801561031557600080fd5b7f00000000000000000000000000000000000000000000000000000000000000006001600160a01b031663860665b334868686866040518663ffffffff1660e01b815260040180858152602001848152602001836001600160a01b03168152602001826001600160a01b031681526020019450505050506000604051808303818588803b1580156105d057600080fd5b505af11580156105e4573d6000803e3d6000fd5b505050505050505050565b60408051630635367960e51b815260048101889052602481018790526044810186905284151560648201526001600160a01b03848116608483015283811660a483015291517f00000000000000000000000000000000000000000000000000000000000000009092169163c6a6cf2091349160c480830192600092919082900301818588803b15801561068157600080fd5b505af1158015610695573d6000803e3d6000fd5b505050505050505050505056fea26469706673582212204eb2ed687a41e60407d5f235838407d1de6ce1a8332a5c3bbc2db05860a6843b64736f6c63430007060033",
  "linkReferences": {},
  "deployedLinkReferences": {}
}