{
  "_format": "hh-sol-artifact-1",
  "contractName": "CollSurplusPool",
  "sourceName": "contracts/CollSurplusPool.sol",
  "abi": [
    {
      "anonymous": false,
      "inputs": [
        {
          "indexed": false,
          "internalType": "address",
          "name": "_newActivePoolAddress",
          "type": "address"
        }
      ],
      "name": "ActivePoolAddressChanged",
      "type": "event"
    },
    {
      "anonymous": false,
      "inputs": [
        {
          "indexed": false,
          "internalType": "address",
          "name": "_newBorrowerOperationsAddress",
          "type": "address"
        }
      ],
      "name": "BorrowerOperationsAddressChanged",
      "type": "event"
    },
    {
      "anonymous": false,
      "inputs": [
        {
          "indexed": true,
          "internalType": "address",
          "name": "_account",
          "type": "address"
        },
        {
          "indexed": false,
          "internalType": "uint256",
          "name": "_newBalance",
          "type": "uint256"
        }
      ],
      "name": "CollBalanceUpdated",
      "type": "event"
    },
    {
      "anonymous": false,
      "inputs": [
        {
          "indexed": false,
          "internalType": "uint256",
          "name": "_newBalance",
          "type": "uint256"
        }
      ],
      "name": "CollSurplusPoolFILBalanceUpdated",
      "type": "event"
    },
    {
      "anonymous": false,
      "inputs": [
        {
          "indexed": false,
          "internalType": "address",
          "name": "_to",
          "type": "address"
        },
        {
          "indexed": false,
          "internalType": "uint256",
          "name": "_amount",
          "type": "uint256"
        }
      ],
      "name": "FILSent",
      "type": "event"
    },
    {
      "anonymous": false,
      "inputs": [
        {
          "indexed": true,
          "internalType": "address",
          "name": "previousOwner",
          "type": "address"
        },
        {
          "indexed": true,
          "internalType": "address",
          "name": "newOwner",
          "type": "address"
        }
      ],
      "name": "OwnershipTransferred",
      "type": "event"
    },
    {
      "anonymous": false,
      "inputs": [
        {
          "indexed": false,
          "internalType": "address",
          "name": "_newTroveManagerAddress",
          "type": "address"
        }
      ],
      "name": "TroveManagerAddressChanged",
      "type": "event"
    },
    {
      "inputs": [],
      "name": "NAME",
      "outputs": [
        {
          "internalType": "string",
          "name": "",
          "type": "string"
        }
      ],
      "stateMutability": "view",
      "type": "function"
    },
    {
      "inputs": [
        {
          "internalType": "address",
          "name": "_account",
          "type": "address"
        },
        {
          "internalType": "uint256",
          "name": "_amount",
          "type": "uint256"
        }
      ],
      "name": "accountSurplus",
      "outputs": [],
      "stateMutability": "nonpayable",
      "type": "function"
    },
    {
      "inputs": [],
      "name": "activePoolAddress",
      "outputs": [
        {
          "internalType": "address",
          "name": "",
          "type": "address"
        }
      ],
      "stateMutability": "view",
      "type": "function"
    },
    {
      "inputs": [],
      "name": "borrowerOperationsAddress",
      "outputs": [
        {
          "internalType": "address",
          "name": "",
          "type": "address"
        }
      ],
      "stateMutability": "view",
      "type": "function"
    },
    {
      "inputs": [
        {
          "internalType": "address",
          "name": "_account",
          "type": "address"
        }
      ],
      "name": "claimColl",
      "outputs": [],
      "stateMutability": "nonpayable",
      "type": "function"
    },
    {
      "inputs": [
        {
          "internalType": "address",
          "name": "_account",
          "type": "address"
        }
      ],
      "name": "getCollateral",
      "outputs": [
        {
          "internalType": "uint256",
          "name": "",
          "type": "uint256"
        }
      ],
      "stateMutability": "view",
      "type": "function"
    },
    {
      "inputs": [],
      "name": "getFIL",
      "outputs": [
        {
          "internalType": "uint256",
          "name": "",
          "type": "uint256"
        }
      ],
      "stateMutability": "view",
      "type": "function"
    },
    {
      "inputs": [
        {
          "internalType": "address",
          "name": "_borrowerOperationsAddress",
          "type": "address"
        },
        {
          "internalType": "address",
          "name": "_troveManagerAddress",
          "type": "address"
        },
        {
          "internalType": "address",
          "name": "_activePoolAddress",
          "type": "address"
        }
      ],
      "name": "initialize",
      "outputs": [],
      "stateMutability": "nonpayable",
      "type": "function"
    },
    {
      "inputs": [],
      "name": "owner",
      "outputs": [
        {
          "internalType": "address",
          "name": "",
          "type": "address"
        }
      ],
      "stateMutability": "view",
      "type": "function"
    },
    {
      "inputs": [],
      "name": "renounceOwnership",
      "outputs": [],
      "stateMutability": "nonpayable",
      "type": "function"
    },
    {
      "inputs": [
        {
          "internalType": "address",
          "name": "newOwner",
          "type": "address"
        }
      ],
      "name": "transferOwnership",
      "outputs": [],
      "stateMutability": "nonpayable",
      "type": "function"
    },
    {
      "inputs": [],
      "name": "troveManagerAddress",
      "outputs": [
        {
          "internalType": "address",
          "name": "",
          "type": "address"
        }
      ],
      "stateMutability": "view",
      "type": "function"
    },
    {
      "stateMutability": "payable",
      "type": "receive"
    }
  ],
  "bytecode": "0x608060405234801561001057600080fd5b50610f2f806100206000396000f3fe6080604052600436106100ab5760003560e01c8063b08bc72211610064578063b08bc72214610268578063b32beb5b1461027d578063b7f8cf9b146102b0578063c0c53b8b146102c5578063c5c3937e1461030a578063f2fde38b1461031f576100fe565b80633f10abab146101035780635a4d28bb1461013e578063715018a61461016f5780638da5cb5b146101845780639b56d6c914610199578063a3f4df7e146101de576100fe565b366100fe576100b8610352565b6068546100c5903461039d565b606881905560408051918252517f81820527813530604904e6d74fb6803f3a63006b7777d54c5d2d046dc8f201bd9181900360200190a1005b600080fd5b34801561010f57600080fd5b5061013c6004803603604081101561012657600080fd5b506001600160a01b0381351690602001356103fe565b005b34801561014a57600080fd5b50610153610484565b604080516001600160a01b039092168252519081900360200190f35b34801561017b57600080fd5b5061013c610493565b34801561019057600080fd5b5061015361053f565b3480156101a557600080fd5b506101cc600480360360208110156101bc57600080fd5b50356001600160a01b031661054e565b60408051918252519081900360200190f35b3480156101ea57600080fd5b506101f3610569565b6040805160208082528351818301528351919283929083019185019080838360005b8381101561022d578181015183820152602001610215565b50505050905090810190601f16801561025a5780820380516001836020036101000a031916815260200191505b509250505060405180910390f35b34801561027457600080fd5b50610153610594565b34801561028957600080fd5b5061013c600480360360208110156102a057600080fd5b50356001600160a01b03166105a3565b3480156102bc57600080fd5b50610153610737565b3480156102d157600080fd5b5061013c600480360360608110156102e857600080fd5b506001600160a01b038135811691602081013582169160409091013516610746565b34801561031657600080fd5b506101cc6107fe565b34801561032b57600080fd5b5061013c6004803603602081101561034257600080fd5b50356001600160a01b0316610804565b6067546001600160a01b0316331461039b5760405162461bcd60e51b815260040180806020018281038252602a815260200180610e02602a913960400191505060405180910390fd5b565b6000828201838110156103f7576040805162461bcd60e51b815260206004820152601b60248201527f536166654d6174683a206164646974696f6e206f766572666c6f770000000000604482015290519081900360640190fd5b9392505050565b610406610907565b6001600160a01b038216600090815260696020526040812054610429908361039d565b6001600160a01b0384166000818152606960209081526040918290208490558151848152915193945091927ff0393a34d05e6567686ad4e097f9d9d2781565957394f1f0d984e5d8e6378f20929181900390910190a2505050565b6066546001600160a01b031681565b61049b610950565b6001600160a01b03166104ac61053f565b6001600160a01b031614610507576040805162461bcd60e51b815260206004820181905260248201527f4f776e61626c653a2063616c6c6572206973206e6f7420746865206f776e6572604482015290519081900360640190fd5b6033546040516000916001600160a01b031690600080516020610e7d833981519152908390a3603380546001600160a01b0319169055565b6033546001600160a01b031690565b6001600160a01b031660009081526069602052604090205490565b6040518060400160405280600f81526020016e10dbdb1b14dd5c9c1b1d5cd41bdbdb608a1b81525081565b6067546001600160a01b031681565b6105ab610954565b6001600160a01b038116600090815260696020526040902054806106005760405162461bcd60e51b8152600401808060200182810382526031815260200180610dab6031913960400191505060405180910390fd5b6001600160a01b03821660008181526069602090815260408083208390558051928352517ff0393a34d05e6567686ad4e097f9d9d2781565957394f1f0d984e5d8e6378f209281900390910190a260685461065b908261099d565b606855604080516001600160a01b03841681526020810183905281517f3b2482b1bf6e751427503c9a8bf79e4dba3e6519259e2220428c2f326cc79c14929181900390910190a16040516000906001600160a01b0384169083908381818185875af1925050503d80600081146106ed576040519150601f19603f3d011682016040523d82523d6000602084013e6106f2565b606091505b50509050806107325760405162461bcd60e51b8152600401808060200182810382526023815260200180610e2c6023913960400191505060405180910390fd5b505050565b6065546001600160a01b031681565b600054610100900460ff168061075f575061075f6109fa565b8061076d575060005460ff16155b6107a85760405162461bcd60e51b815260040180806020018281038252602e815260200180610e4f602e913960400191505060405180910390fd5b600054610100900460ff161580156107d3576000805460ff1961ff0019909116610100171660011790555b6107db610a0b565b6107e6848484610abd565b80156107f8576000805461ff00191690555b50505050565b60685490565b61080c610950565b6001600160a01b031661081d61053f565b6001600160a01b031614610878576040805162461bcd60e51b815260206004820181905260248201527f4f776e61626c653a2063616c6c6572206973206e6f7420746865206f776e6572604482015290519081900360640190fd5b6001600160a01b0381166108bd5760405162461bcd60e51b8152600401808060200182810382526026815260200180610ddc6026913960400191505060405180910390fd5b6033546040516001600160a01b03808416921690600080516020610e7d83398151915290600090a3603380546001600160a01b0319166001600160a01b0392909216919091179055565b6066546001600160a01b0316331461039b5760405162461bcd60e51b815260040180806020018281038252602b815260200180610ecf602b913960400191505060405180910390fd5b3390565b6065546001600160a01b0316331461039b5760405162461bcd60e51b8152600401808060200182810382526032815260200180610e9d6032913960400191505060405180910390fd5b6000828211156109f4576040805162461bcd60e51b815260206004820152601e60248201527f536166654d6174683a207375627472616374696f6e206f766572666c6f770000604482015290519081900360640190fd5b50900390565b6000610a0530610bc2565b15905090565b600054610100900460ff1680610a245750610a246109fa565b80610a32575060005460ff16155b610a6d5760405162461bcd60e51b815260040180806020018281038252602e815260200180610e4f602e913960400191505060405180910390fd5b600054610100900460ff16158015610a98576000805460ff1961ff0019909116610100171660011790555b610aa0610bc8565b610aa8610c68565b8015610aba576000805461ff00191690555b50565b610ac683610d4f565b610acf82610d4f565b610ad881610d4f565b606580546001600160a01b038086166001600160a01b0319928316811790935560668054868316908416179055606780549185169190921617905560408051918252517f3ca631ffcd2a9b5d9ae18543fc82f58eb4ca33af9e6ab01b7a8e95331e6ed9859181900360200190a1604080516001600160a01b038416815290517f143219c9e69b09e07e095fcc889b43d8f46ca892bba65f08dc3a0050869a56789181900360200190a1604080516001600160a01b038316815290517f78f058b189175430c48dc02699e3a0031ea4ff781536dc2fab847de4babdd8829181900360200190a1505050565b3b151590565b600054610100900460ff1680610be15750610be16109fa565b80610bef575060005460ff16155b610c2a5760405162461bcd60e51b815260040180806020018281038252602e815260200180610e4f602e913960400191505060405180910390fd5b600054610100900460ff16158015610aa8576000805460ff1961ff0019909116610100171660011790558015610aba576000805461ff001916905550565b600054610100900460ff1680610c815750610c816109fa565b80610c8f575060005460ff16155b610cca5760405162461bcd60e51b815260040180806020018281038252602e815260200180610e4f602e913960400191505060405180910390fd5b600054610100900460ff16158015610cf5576000805460ff1961ff0019909116610100171660011790555b6000610cff610950565b603380546001600160a01b0319166001600160a01b03831690811790915560405191925090600090600080516020610e7d833981519152908290a3508015610aba576000805461ff001916905550565b6001600160a01b038116610aba576040805162461bcd60e51b815260206004820152601e60248201527f4163636f756e742063616e6e6f74206265207a65726f20616464726573730000604482015290519081900360640190fdfe436f6c6c537572706c7573506f6f6c3a204e6f20636f6c6c61746572616c20617661696c61626c6520746f20636c61696d4f776e61626c653a206e6577206f776e657220697320746865207a65726f2061646472657373436f6c6c537572706c7573506f6f6c3a2043616c6c6572206973206e6f742041637469766520506f6f6c436f6c6c537572706c7573506f6f6c3a2073656e64696e672046494c206661696c6564496e697469616c697a61626c653a20636f6e747261637420697320616c726561647920696e697469616c697a65648be0079c531659141344cd1fd0a4f28419497f9722a3daafe3b4186f6b6457e0436f6c6c537572706c7573506f6f6c3a2043616c6c6572206973206e6f7420426f72726f776572204f7065726174696f6e73436f6c6c537572706c7573506f6f6c3a2043616c6c6572206973206e6f742054726f76654d616e61676572a26469706673582212208dcf5dd5c17f21306c7bd7f5250933d411224d137b12bb6fd928947b9aeb460464736f6c63430007060033",
  "linkReferences": {},
  "deployedLinkReferences": {}
}