{
  "_format": "hh-sol-artifact-1",
  "contractName": "CollSurplusPool",
  "sourceName": "contracts/CollSurplusPool.sol",
  "abi": [
    {
      "anonymous": false,
      "inputs": [
        {
          "indexed": false,
          "internalType": "address",
          "name": "_newActivePoolAddress",
          "type": "address"
        }
      ],
      "name": "ActivePoolAddressChanged",
      "type": "event"
    },
    {
      "anonymous": false,
      "inputs": [
        {
          "indexed": false,
          "internalType": "address",
          "name": "_newBorrowerOperationsAddress",
          "type": "address"
        }
      ],
      "name": "BorrowerOperationsAddressChanged",
      "type": "event"
    },
    {
      "anonymous": false,
      "inputs": [
        {
          "indexed": true,
          "internalType": "address",
          "name": "_account",
          "type": "address"
        },
        {
          "indexed": false,
          "internalType": "uint256",
          "name": "_newBalance",
          "type": "uint256"
        }
      ],
      "name": "CollBalanceUpdated",
      "type": "event"
    },
    {
      "anonymous": false,
      "inputs": [
        {
          "indexed": false,
          "internalType": "address",
          "name": "_to",
          "type": "address"
        },
        {
          "indexed": false,
          "internalType": "uint256",
          "name": "_amount",
          "type": "uint256"
        }
      ],
      "name": "FILSent",
      "type": "event"
    },
    {
      "anonymous": false,
      "inputs": [
        {
          "indexed": true,
          "internalType": "address",
          "name": "previousOwner",
          "type": "address"
        },
        {
          "indexed": true,
          "internalType": "address",
          "name": "newOwner",
          "type": "address"
        }
      ],
      "name": "OwnershipTransferred",
      "type": "event"
    },
    {
      "anonymous": false,
      "inputs": [
        {
          "indexed": false,
          "internalType": "address",
          "name": "_newTroveManagerAddress",
          "type": "address"
        }
      ],
      "name": "TroveManagerAddressChanged",
      "type": "event"
    },
    {
      "inputs": [],
      "name": "NAME",
      "outputs": [
        {
          "internalType": "string",
          "name": "",
          "type": "string"
        }
      ],
      "stateMutability": "view",
      "type": "function"
    },
    {
      "inputs": [
        {
          "internalType": "address",
          "name": "_account",
          "type": "address"
        },
        {
          "internalType": "uint256",
          "name": "_amount",
          "type": "uint256"
        }
      ],
      "name": "accountSurplus",
      "outputs": [],
      "stateMutability": "nonpayable",
      "type": "function"
    },
    {
      "inputs": [],
      "name": "activePoolAddress",
      "outputs": [
        {
          "internalType": "address",
          "name": "",
          "type": "address"
        }
      ],
      "stateMutability": "view",
      "type": "function"
    },
    {
      "inputs": [],
      "name": "borrowerOperationsAddress",
      "outputs": [
        {
          "internalType": "address",
          "name": "",
          "type": "address"
        }
      ],
      "stateMutability": "view",
      "type": "function"
    },
    {
      "inputs": [
        {
          "internalType": "address",
          "name": "_account",
          "type": "address"
        }
      ],
      "name": "claimColl",
      "outputs": [],
      "stateMutability": "nonpayable",
      "type": "function"
    },
    {
      "inputs": [
        {
          "internalType": "address",
          "name": "_account",
          "type": "address"
        }
      ],
      "name": "getCollateral",
      "outputs": [
        {
          "internalType": "uint256",
          "name": "",
          "type": "uint256"
        }
      ],
      "stateMutability": "view",
      "type": "function"
    },
    {
      "inputs": [],
      "name": "getFIL",
      "outputs": [
        {
          "internalType": "uint256",
          "name": "",
          "type": "uint256"
        }
      ],
      "stateMutability": "view",
      "type": "function"
    },
    {
      "inputs": [
        {
          "internalType": "address",
          "name": "_borrowerOperationsAddress",
          "type": "address"
        },
        {
          "internalType": "address",
          "name": "_troveManagerAddress",
          "type": "address"
        },
        {
          "internalType": "address",
          "name": "_activePoolAddress",
          "type": "address"
        }
      ],
      "name": "initialize",
      "outputs": [],
      "stateMutability": "nonpayable",
      "type": "function"
    },
    {
      "inputs": [],
      "name": "owner",
      "outputs": [
        {
          "internalType": "address",
          "name": "",
          "type": "address"
        }
      ],
      "stateMutability": "view",
      "type": "function"
    },
    {
      "inputs": [],
      "name": "renounceOwnership",
      "outputs": [],
      "stateMutability": "nonpayable",
      "type": "function"
    },
    {
      "inputs": [
        {
          "internalType": "address",
          "name": "newOwner",
          "type": "address"
        }
      ],
      "name": "transferOwnership",
      "outputs": [],
      "stateMutability": "nonpayable",
      "type": "function"
    },
    {
      "inputs": [],
      "name": "troveManagerAddress",
      "outputs": [
        {
          "internalType": "address",
          "name": "",
          "type": "address"
        }
      ],
      "stateMutability": "view",
      "type": "function"
    },
    {
      "stateMutability": "payable",
      "type": "receive"
    }
  ],
  "bytecode": "0x608060405234801561001057600080fd5b50610efb806100206000396000f3fe6080604052600436106100ab5760003560e01c8063b08bc72211610064578063b08bc72214610234578063b32beb5b14610249578063b7f8cf9b1461027c578063c0c53b8b14610291578063c5c3937e146102d6578063f2fde38b146102eb576100ca565b80633f10abab146100cf5780635a4d28bb1461010a578063715018a61461013b5780638da5cb5b146101505780639b56d6c914610165578063a3f4df7e146101aa576100ca565b366100ca576100b861031e565b6068546100c59034610369565b606855005b600080fd5b3480156100db57600080fd5b50610108600480360360408110156100f257600080fd5b506001600160a01b0381351690602001356103ca565b005b34801561011657600080fd5b5061011f610450565b604080516001600160a01b039092168252519081900360200190f35b34801561014757600080fd5b5061010861045f565b34801561015c57600080fd5b5061011f61050b565b34801561017157600080fd5b506101986004803603602081101561018857600080fd5b50356001600160a01b031661051a565b60408051918252519081900360200190f35b3480156101b657600080fd5b506101bf610535565b6040805160208082528351818301528351919283929083019185019080838360005b838110156101f95781810151838201526020016101e1565b50505050905090810190601f1680156102265780820380516001836020036101000a031916815260200191505b509250505060405180910390f35b34801561024057600080fd5b5061011f610560565b34801561025557600080fd5b506101086004803603602081101561026c57600080fd5b50356001600160a01b031661056f565b34801561028857600080fd5b5061011f610703565b34801561029d57600080fd5b50610108600480360360608110156102b457600080fd5b506001600160a01b038135811691602081013582169160409091013516610712565b3480156102e257600080fd5b506101986107ca565b3480156102f757600080fd5b506101086004803603602081101561030e57600080fd5b50356001600160a01b03166107d0565b6067546001600160a01b031633146103675760405162461bcd60e51b815260040180806020018281038252602a815260200180610dce602a913960400191505060405180910390fd5b565b6000828201838110156103c3576040805162461bcd60e51b815260206004820152601b60248201527f536166654d6174683a206164646974696f6e206f766572666c6f770000000000604482015290519081900360640190fd5b9392505050565b6103d26108d3565b6001600160a01b0382166000908152606960205260408120546103f59083610369565b6001600160a01b0384166000818152606960209081526040918290208490558151848152915193945091927ff0393a34d05e6567686ad4e097f9d9d2781565957394f1f0d984e5d8e6378f20929181900390910190a2505050565b6066546001600160a01b031681565b61046761091c565b6001600160a01b031661047861050b565b6001600160a01b0316146104d3576040805162461bcd60e51b815260206004820181905260248201527f4f776e61626c653a2063616c6c6572206973206e6f7420746865206f776e6572604482015290519081900360640190fd5b6033546040516000916001600160a01b031690600080516020610e49833981519152908390a3603380546001600160a01b0319169055565b6033546001600160a01b031690565b6001600160a01b031660009081526069602052604090205490565b6040518060400160405280600f81526020016e10dbdb1b14dd5c9c1b1d5cd41bdbdb608a1b81525081565b6067546001600160a01b031681565b610577610920565b6001600160a01b038116600090815260696020526040902054806105cc5760405162461bcd60e51b8152600401808060200182810382526031815260200180610d776031913960400191505060405180910390fd5b6001600160a01b03821660008181526069602090815260408083208390558051928352517ff0393a34d05e6567686ad4e097f9d9d2781565957394f1f0d984e5d8e6378f209281900390910190a26068546106279082610969565b606855604080516001600160a01b03841681526020810183905281517f3b2482b1bf6e751427503c9a8bf79e4dba3e6519259e2220428c2f326cc79c14929181900390910190a16040516000906001600160a01b0384169083908381818185875af1925050503d80600081146106b9576040519150601f19603f3d011682016040523d82523d6000602084013e6106be565b606091505b50509050806106fe5760405162461bcd60e51b8152600401808060200182810382526023815260200180610df86023913960400191505060405180910390fd5b505050565b6065546001600160a01b031681565b600054610100900460ff168061072b575061072b6109c6565b80610739575060005460ff16155b6107745760405162461bcd60e51b815260040180806020018281038252602e815260200180610e1b602e913960400191505060405180910390fd5b600054610100900460ff1615801561079f576000805460ff1961ff0019909116610100171660011790555b6107a76109d7565b6107b2848484610a89565b80156107c4576000805461ff00191690555b50505050565b60685490565b6107d861091c565b6001600160a01b03166107e961050b565b6001600160a01b031614610844576040805162461bcd60e51b815260206004820181905260248201527f4f776e61626c653a2063616c6c6572206973206e6f7420746865206f776e6572604482015290519081900360640190fd5b6001600160a01b0381166108895760405162461bcd60e51b8152600401808060200182810382526026815260200180610da86026913960400191505060405180910390fd5b6033546040516001600160a01b03808416921690600080516020610e4983398151915290600090a3603380546001600160a01b0319166001600160a01b0392909216919091179055565b6066546001600160a01b031633146103675760405162461bcd60e51b815260040180806020018281038252602b815260200180610e9b602b913960400191505060405180910390fd5b3390565b6065546001600160a01b031633146103675760405162461bcd60e51b8152600401808060200182810382526032815260200180610e696032913960400191505060405180910390fd5b6000828211156109c0576040805162461bcd60e51b815260206004820152601e60248201527f536166654d6174683a207375627472616374696f6e206f766572666c6f770000604482015290519081900360640190fd5b50900390565b60006109d130610b8e565b15905090565b600054610100900460ff16806109f057506109f06109c6565b806109fe575060005460ff16155b610a395760405162461bcd60e51b815260040180806020018281038252602e815260200180610e1b602e913960400191505060405180910390fd5b600054610100900460ff16158015610a64576000805460ff1961ff0019909116610100171660011790555b610a6c610b94565b610a74610c34565b8015610a86576000805461ff00191690555b50565b610a9283610d1b565b610a9b82610d1b565b610aa481610d1b565b606580546001600160a01b038086166001600160a01b0319928316811790935560668054868316908416179055606780549185169190921617905560408051918252517f3ca631ffcd2a9b5d9ae18543fc82f58eb4ca33af9e6ab01b7a8e95331e6ed9859181900360200190a1604080516001600160a01b038416815290517f143219c9e69b09e07e095fcc889b43d8f46ca892bba65f08dc3a0050869a56789181900360200190a1604080516001600160a01b038316815290517f78f058b189175430c48dc02699e3a0031ea4ff781536dc2fab847de4babdd8829181900360200190a1505050565b3b151590565b600054610100900460ff1680610bad5750610bad6109c6565b80610bbb575060005460ff16155b610bf65760405162461bcd60e51b815260040180806020018281038252602e815260200180610e1b602e913960400191505060405180910390fd5b600054610100900460ff16158015610a74576000805460ff1961ff0019909116610100171660011790558015610a86576000805461ff001916905550565b600054610100900460ff1680610c4d5750610c4d6109c6565b80610c5b575060005460ff16155b610c965760405162461bcd60e51b815260040180806020018281038252602e815260200180610e1b602e913960400191505060405180910390fd5b600054610100900460ff16158015610cc1576000805460ff1961ff0019909116610100171660011790555b6000610ccb61091c565b603380546001600160a01b0319166001600160a01b03831690811790915560405191925090600090600080516020610e49833981519152908290a3508015610a86576000805461ff001916905550565b6001600160a01b038116610a86576040805162461bcd60e51b815260206004820152601e60248201527f4163636f756e742063616e6e6f74206265207a65726f20616464726573730000604482015290519081900360640190fdfe436f6c6c537572706c7573506f6f6c3a204e6f20636f6c6c61746572616c20617661696c61626c6520746f20636c61696d4f776e61626c653a206e6577206f776e657220697320746865207a65726f2061646472657373436f6c6c537572706c7573506f6f6c3a2043616c6c6572206973206e6f742041637469766520506f6f6c436f6c6c537572706c7573506f6f6c3a2073656e64696e672046494c206661696c6564496e697469616c697a61626c653a20636f6e747261637420697320616c726561647920696e697469616c697a65648be0079c531659141344cd1fd0a4f28419497f9722a3daafe3b4186f6b6457e0436f6c6c537572706c7573506f6f6c3a2043616c6c6572206973206e6f7420426f72726f776572204f7065726174696f6e73436f6c6c537572706c7573506f6f6c3a2043616c6c6572206973206e6f742054726f76654d616e61676572a26469706673582212204b6da6db103f159bccd0cc662b4e5e4c553fbcdad1a4a0d83372d710f42ff9c864736f6c63430007060033",
  "linkReferences": {},
  "deployedLinkReferences": {}
}