{
  "_format": "hh-sol-artifact-1",
  "contractName": "CommunityIssuance",
  "sourceName": "contracts/ProtocolToken/CommunityIssuance.sol",
  "abi": [
    {
      "anonymous": false,
      "inputs": [
        {
          "indexed": true,
          "internalType": "address",
          "name": "previousOwner",
          "type": "address"
        },
        {
          "indexed": true,
          "internalType": "address",
          "name": "newOwner",
          "type": "address"
        }
      ],
      "name": "OwnershipTransferred",
      "type": "event"
    },
    {
      "anonymous": false,
      "inputs": [
        {
          "indexed": false,
          "internalType": "address",
          "name": "_protocolTokenAddress",
          "type": "address"
        }
      ],
      "name": "ProtocolTokenAddressChanged",
      "type": "event"
    },
    {
      "anonymous": false,
      "inputs": [
        {
          "indexed": false,
          "internalType": "uint256",
          "name": "_protocolTokenSupplyCap",
          "type": "uint256"
        }
      ],
      "name": "ProtocolTokenSupplyCapUpdated",
      "type": "event"
    },
    {
      "anonymous": false,
      "inputs": [
        {
          "indexed": false,
          "internalType": "address",
          "name": "_stabilityPoolAddress",
          "type": "address"
        }
      ],
      "name": "StabilityPoolAddressChanged",
      "type": "event"
    },
    {
      "anonymous": false,
      "inputs": [
        {
          "indexed": false,
          "internalType": "uint256",
          "name": "_totalProtocolTokenIssued",
          "type": "uint256"
        }
      ],
      "name": "TotalProtocolTokenIssuedUpdated",
      "type": "event"
    },
    {
      "inputs": [],
      "name": "DECIMAL_PRECISION",
      "outputs": [
        {
          "internalType": "uint256",
          "name": "",
          "type": "uint256"
        }
      ],
      "stateMutability": "view",
      "type": "function"
    },
    {
      "inputs": [],
      "name": "ISSUANCE_FACTOR",
      "outputs": [
        {
          "internalType": "uint256",
          "name": "",
          "type": "uint256"
        }
      ],
      "stateMutability": "view",
      "type": "function"
    },
    {
      "inputs": [],
      "name": "NAME",
      "outputs": [
        {
          "internalType": "string",
          "name": "",
          "type": "string"
        }
      ],
      "stateMutability": "view",
      "type": "function"
    },
    {
      "inputs": [
        {
          "internalType": "address",
          "name": "_protocolTokenAddress",
          "type": "address"
        },
        {
          "internalType": "address",
          "name": "_stabilityPoolAddress",
          "type": "address"
        }
      ],
      "name": "initialize",
      "outputs": [],
      "stateMutability": "nonpayable",
      "type": "function"
    },
    {
      "inputs": [],
      "name": "issueProtocolToken",
      "outputs": [
        {
          "internalType": "uint256",
          "name": "",
          "type": "uint256"
        }
      ],
      "stateMutability": "nonpayable",
      "type": "function"
    },
    {
      "inputs": [],
      "name": "owner",
      "outputs": [
        {
          "internalType": "address",
          "name": "",
          "type": "address"
        }
      ],
      "stateMutability": "view",
      "type": "function"
    },
    {
      "inputs": [],
      "name": "protocolToken",
      "outputs": [
        {
          "internalType": "contract IProtocolToken",
          "name": "",
          "type": "address"
        }
      ],
      "stateMutability": "view",
      "type": "function"
    },
    {
      "inputs": [],
      "name": "protocolTokenSupplyCap",
      "outputs": [
        {
          "internalType": "uint256",
          "name": "",
          "type": "uint256"
        }
      ],
      "stateMutability": "view",
      "type": "function"
    },
    {
      "inputs": [],
      "name": "renounceOwnership",
      "outputs": [],
      "stateMutability": "nonpayable",
      "type": "function"
    },
    {
      "inputs": [
        {
          "internalType": "address",
          "name": "_account",
          "type": "address"
        },
        {
          "internalType": "uint256",
          "name": "_amount",
          "type": "uint256"
        }
      ],
      "name": "sendProtocolToken",
      "outputs": [],
      "stateMutability": "nonpayable",
      "type": "function"
    },
    {
      "inputs": [],
      "name": "stabilityPoolAddress",
      "outputs": [
        {
          "internalType": "address",
          "name": "",
          "type": "address"
        }
      ],
      "stateMutability": "view",
      "type": "function"
    },
    {
      "inputs": [],
      "name": "supplyStartTime",
      "outputs": [
        {
          "internalType": "uint256",
          "name": "",
          "type": "uint256"
        }
      ],
      "stateMutability": "view",
      "type": "function"
    },
    {
      "inputs": [],
      "name": "totalProtocolTokenIssued",
      "outputs": [
        {
          "internalType": "uint256",
          "name": "",
          "type": "uint256"
        }
      ],
      "stateMutability": "view",
      "type": "function"
    },
    {
      "inputs": [
        {
          "internalType": "address",
          "name": "newOwner",
          "type": "address"
        }
      ],
      "name": "transferOwnership",
      "outputs": [],
      "stateMutability": "nonpayable",
      "type": "function"
    },
    {
      "inputs": [],
      "name": "updateProtocolTokenSupplyCap",
      "outputs": [],
      "stateMutability": "nonpayable",
      "type": "function"
    }
  ],
  "bytecode": "0x608060405234801561001057600080fd5b50610f4a806100206000396000f3fe608060405234801561001057600080fd5b50600436106100d55760003560e01c8063715018a611610087578063715018a6146101685780638352d6361461017057806384e638aa1461019c5780638da5cb5b146101a45780639e954ef2146101ac578063a20baee6146101b4578063a3f4df7e146101bc578063f2fde38b14610239576100d5565b80630b622ab2146100da5780630fc83da3146100fe5780631a465fe11461011857806324b40ed0146101205780632eee8bc91461012857806332254b9714610130578063485cc9551461013a575b600080fd5b6100e261025f565b604080516001600160a01b039092168252519081900360200190f35b61010661026e565b60408051918252519081900360200190f35b6100e261027a565b610106610289565b61010661028f565b61013861031c565b005b6101386004803603604081101561015057600080fd5b506001600160a01b038135811691602001351661047d565b610138610538565b6101386004803603604081101561018657600080fd5b506001600160a01b0381351690602001356105d2565b610106610660565b6100e2610666565b610106610675565b61010661067b565b6101c4610687565b6040805160208082528351818301528351919283929083019185019080838360005b838110156101fe5781810151838201526020016101e6565b50505050905090810190601f16801561022b5780820380516001836020036101000a031916815260200191505b509250505060405180910390f35b6101386004803603602081101561024f57600080fd5b50356001600160a01b03166106b4565b6067546001600160a01b031681565b670de0b5809a6f939881565b6066546001600160a01b031681565b60695481565b60006102996107a5565b60006102c1670de0b6b3a76400006102bb6102b26107f0565b60655490610854565b906108b6565b905060006102da6068548361091d90919063ffffffff16565b60688390556040805184815290519192507f253095657378f12e31b9de23bbea40cddbab765dfd86c80f26d4d52cf9d7b76a919081900360200190a191505090565b61032461097a565b6001600160a01b0316610335610666565b6001600160a01b03161461037e576040805162461bcd60e51b81526020600482018190526024820152600080516020610eb2833981519152604482015290519081900360640190fd5b606654604080516370a0823160e01b815230600482015290516000926001600160a01b0316916370a08231916024808301926020929190829003018186803b1580156103c957600080fd5b505afa1580156103dd573d6000803e3d6000fd5b505050506040513d60208110156103f357600080fd5b50516065549091508114156104395760405162461bcd60e51b8152600401808060200182810382526029815260200180610e3a6029913960400191505060405180910390fd5b60658190556000606855426069556040805182815290517f81d8ce7b1678eb5b4be89cd9c81f76087c8e38f41ead97760ed2561beff0d85c9181900360200190a150565b600054610100900460ff1680610496575061049661097e565b806104a4575060005460ff16155b6104df5760405162461bcd60e51b815260040180806020018281038252602e815260200180610e63602e913960400191505060405180910390fd5b600054610100900460ff1615801561050a576000805460ff1961ff0019909116610100171660011790555b61051261098f565b61051c8383610a41565b60006065558015610533576000805461ff00191690555b505050565b61054061097a565b6001600160a01b0316610551610666565b6001600160a01b03161461059a576040805162461bcd60e51b81526020600482018190526024820152600080516020610eb2833981519152604482015290519081900360640190fd5b6033546040516000916001600160a01b031690600080516020610ed2833981519152908390a3603380546001600160a01b0319169055565b6105da6107a5565b6066546040805163a9059cbb60e01b81526001600160a01b038581166004830152602482018590529151919092169163a9059cbb9160448083019260209291908290030181600087803b15801561063057600080fd5b505af1158015610644573d6000803e3d6000fd5b505050506040513d602081101561065a57600080fd5b50505050565b60655481565b6033546001600160a01b031690565b60685481565b670de0b6b3a764000081565b60405180604001604052806011815260200170436f6d6d756e69747949737375616e636560781b81525081565b6106bc61097a565b6001600160a01b03166106cd610666565b6001600160a01b031614610716576040805162461bcd60e51b81526020600482018190526024820152600080516020610eb2833981519152604482015290519081900360640190fd5b6001600160a01b03811661075b5760405162461bcd60e51b8152600401808060200182810382526026815260200180610e146026913960400191505060405180910390fd5b6033546040516001600160a01b03808416921690600080516020610ed283398151915290600090a3603380546001600160a01b0319166001600160a01b0392909216919091179055565b6067546001600160a01b031633146107ee5760405162461bcd60e51b8152600401808060200182810382526023815260200180610ef26023913960400191505060405180910390fd5b565b60008061080d603c6102bb6069544261091d90919063ffffffff16565b90506000610823670de0b5809a6f939883610af3565b90506000610839670de0b6b3a76400008361091d565b9050670de0b6b3a764000081111561084d57fe5b9250505090565b600082610863575060006108b0565b8282028284828161087057fe5b04146108ad5760405162461bcd60e51b8152600401808060200182810382526021815260200180610e916021913960400191505060405180910390fd5b90505b92915050565b600080821161090c576040805162461bcd60e51b815260206004820152601a60248201527f536166654d6174683a206469766973696f6e206279207a65726f000000000000604482015290519081900360640190fd5b81838161091557fe5b049392505050565b600082821115610974576040805162461bcd60e51b815260206004820152601e60248201527f536166654d6174683a207375627472616374696f6e206f766572666c6f770000604482015290519081900360640190fd5b50900390565b3390565b600061098930610b9c565b15905090565b600054610100900460ff16806109a857506109a861097e565b806109b6575060005460ff16155b6109f15760405162461bcd60e51b815260040180806020018281038252602e815260200180610e63602e913960400191505060405180910390fd5b600054610100900460ff16158015610a1c576000805460ff1961ff0019909116610100171660011790555b610a24610ba2565b610a2c610c42565b8015610a3e576000805461ff00191690555b50565b610a4a82610d29565b610a5381610d29565b606680546001600160a01b038085166001600160a01b03199283168117909355606780549185169190921617905560408051918252517f7b0c6ae24561d189fc90b337cbc97aa15d085bef32931237a762e3e528b285b49181900360200190a1604080516001600160a01b038316815290517f82966d27eea39b038ee0fa30cd16532bb24f6e65d31cb58fb227aa5766cdcc7f9181900360200190a15050565b6000631f540500821115610b0957631f54050091505b81610b1d5750670de0b6b3a76400006108b0565b670de0b6b3a764000083835b6001811115610b885760028106610b5857610b448283610d84565b9150610b518160026108b6565b9050610b83565b610b628284610d84565b9250610b6e8283610d84565b9150610b8060026102bb83600161091d565b90505b610b29565b610b928284610d84565b9695505050505050565b3b151590565b600054610100900460ff1680610bbb5750610bbb61097e565b80610bc9575060005460ff16155b610c045760405162461bcd60e51b815260040180806020018281038252602e815260200180610e63602e913960400191505060405180910390fd5b600054610100900460ff16158015610a2c576000805460ff1961ff0019909116610100171660011790558015610a3e576000805461ff001916905550565b600054610100900460ff1680610c5b5750610c5b61097e565b80610c69575060005460ff16155b610ca45760405162461bcd60e51b815260040180806020018281038252602e815260200180610e63602e913960400191505060405180910390fd5b600054610100900460ff16158015610ccf576000805460ff1961ff0019909116610100171660011790555b6000610cd961097a565b603380546001600160a01b0319166001600160a01b03831690811790915560405191925090600090600080516020610ed2833981519152908290a3508015610a3e576000805461ff001916905550565b6001600160a01b038116610a3e576040805162461bcd60e51b815260206004820152601e60248201527f4163636f756e742063616e6e6f74206265207a65726f20616464726573730000604482015290519081900360640190fd5b600080610d918484610854565b9050610db1670de0b6b3a76400006102bb836706f05b59d3b20000610db9565b949350505050565b6000828201838110156108ad576040805162461bcd60e51b815260206004820152601b60248201527f536166654d6174683a206164646974696f6e206f766572666c6f770000000000604482015290519081900360640190fdfe4f776e61626c653a206e6577206f776e657220697320746865207a65726f2061646472657373436f6d6d756e69747949737375616e63653a20737570706c7920636170206e6f74206368616e676564496e697469616c697a61626c653a20636f6e747261637420697320616c726561647920696e697469616c697a6564536166654d6174683a206d756c7469706c69636174696f6e206f766572666c6f774f776e61626c653a2063616c6c6572206973206e6f7420746865206f776e65728be0079c531659141344cd1fd0a4f28419497f9722a3daafe3b4186f6b6457e0436f6d6d756e69747949737375616e63653a2063616c6c6572206973206e6f74205350a26469706673582212205ef05da21de25962d6ce6ffe3ad8f5f83bb272d26b5999237483736212b8d57f64736f6c63430007060033",
  "linkReferences": {},
  "deployedLinkReferences": {}
}