{
  "_format": "hh-sol-artifact-1",
  "contractName": "CommunityIssuanceTester",
  "sourceName": "contracts/TestContracts/CommunityIssuanceTester.sol",
  "abi": [
    {
      "anonymous": false,
      "inputs": [
        {
          "indexed": true,
          "internalType": "address",
          "name": "previousOwner",
          "type": "address"
        },
        {
          "indexed": true,
          "internalType": "address",
          "name": "newOwner",
          "type": "address"
        }
      ],
      "name": "OwnershipTransferred",
      "type": "event"
    },
    {
      "anonymous": false,
      "inputs": [
        {
          "indexed": false,
          "internalType": "address",
          "name": "_protocolTokenAddress",
          "type": "address"
        }
      ],
      "name": "ProtocolTokenAddressSet",
      "type": "event"
    },
    {
      "anonymous": false,
      "inputs": [
        {
          "indexed": false,
          "internalType": "address",
          "name": "_stabilityPoolAddress",
          "type": "address"
        }
      ],
      "name": "StabilityPoolAddressSet",
      "type": "event"
    },
    {
      "anonymous": false,
      "inputs": [
        {
          "indexed": false,
          "internalType": "uint256",
          "name": "_totalProtocolTokenIssued",
          "type": "uint256"
        }
      ],
      "name": "TotalProtocolTokenIssuedUpdated",
      "type": "event"
    },
    {
      "inputs": [],
      "name": "DECIMAL_PRECISION",
      "outputs": [
        {
          "internalType": "uint256",
          "name": "",
          "type": "uint256"
        }
      ],
      "stateMutability": "view",
      "type": "function"
    },
    {
      "inputs": [],
      "name": "ISSUANCE_FACTOR",
      "outputs": [
        {
          "internalType": "uint256",
          "name": "",
          "type": "uint256"
        }
      ],
      "stateMutability": "view",
      "type": "function"
    },
    {
      "inputs": [],
      "name": "NAME",
      "outputs": [
        {
          "internalType": "string",
          "name": "",
          "type": "string"
        }
      ],
      "stateMutability": "view",
      "type": "function"
    },
    {
      "inputs": [],
      "name": "SECONDS_IN_ONE_MINUTE",
      "outputs": [
        {
          "internalType": "uint256",
          "name": "",
          "type": "uint256"
        }
      ],
      "stateMutability": "view",
      "type": "function"
    },
    {
      "inputs": [],
      "name": "deploymentTime",
      "outputs": [
        {
          "internalType": "uint256",
          "name": "",
          "type": "uint256"
        }
      ],
      "stateMutability": "view",
      "type": "function"
    },
    {
      "inputs": [],
      "name": "getCumulativeIssuanceFraction",
      "outputs": [
        {
          "internalType": "uint256",
          "name": "",
          "type": "uint256"
        }
      ],
      "stateMutability": "view",
      "type": "function"
    },
    {
      "inputs": [],
      "name": "isOwner",
      "outputs": [
        {
          "internalType": "bool",
          "name": "",
          "type": "bool"
        }
      ],
      "stateMutability": "view",
      "type": "function"
    },
    {
      "inputs": [],
      "name": "issueProtocolToken",
      "outputs": [
        {
          "internalType": "uint256",
          "name": "",
          "type": "uint256"
        }
      ],
      "stateMutability": "nonpayable",
      "type": "function"
    },
    {
      "inputs": [
        {
          "internalType": "uint256",
          "name": "_amount",
          "type": "uint256"
        }
      ],
      "name": "obtainProtocolToken",
      "outputs": [],
      "stateMutability": "nonpayable",
      "type": "function"
    },
    {
      "inputs": [],
      "name": "owner",
      "outputs": [
        {
          "internalType": "address",
          "name": "",
          "type": "address"
        }
      ],
      "stateMutability": "view",
      "type": "function"
    },
    {
      "inputs": [],
      "name": "protocolToken",
      "outputs": [
        {
          "internalType": "contract IProtocolToken",
          "name": "",
          "type": "address"
        }
      ],
      "stateMutability": "view",
      "type": "function"
    },
    {
      "inputs": [],
      "name": "protocolTokenSupplyCap",
      "outputs": [
        {
          "internalType": "uint256",
          "name": "",
          "type": "uint256"
        }
      ],
      "stateMutability": "view",
      "type": "function"
    },
    {
      "inputs": [
        {
          "internalType": "address",
          "name": "_account",
          "type": "address"
        },
        {
          "internalType": "uint256",
          "name": "_amount",
          "type": "uint256"
        }
      ],
      "name": "sendProtocolToken",
      "outputs": [],
      "stateMutability": "nonpayable",
      "type": "function"
    },
    {
      "inputs": [
        {
          "internalType": "address",
          "name": "_protocolTokenAddress",
          "type": "address"
        },
        {
          "internalType": "address",
          "name": "_stabilityPoolAddress",
          "type": "address"
        }
      ],
      "name": "setAddresses",
      "outputs": [],
      "stateMutability": "nonpayable",
      "type": "function"
    },
    {
      "inputs": [],
      "name": "stabilityPoolAddress",
      "outputs": [
        {
          "internalType": "address",
          "name": "",
          "type": "address"
        }
      ],
      "stateMutability": "view",
      "type": "function"
    },
    {
      "inputs": [],
      "name": "totalProtocolTokenIssued",
      "outputs": [
        {
          "internalType": "uint256",
          "name": "",
          "type": "uint256"
        }
      ],
      "stateMutability": "view",
      "type": "function"
    },
    {
      "inputs": [],
      "name": "unprotectedIssueProtocolToken",
      "outputs": [
        {
          "internalType": "uint256",
          "name": "",
          "type": "uint256"
        }
      ],
      "stateMutability": "nonpayable",
      "type": "function"
    }
  ],
  "bytecode": "0x60a060405234801561001057600080fd5b50600080546001600160a01b0319163390811782556040519091907f8be0079c531659141344cd1fd0a4f28419497f9722a3daafe3b4186f6b6457e0908290a342608052608051610c3c6100736000398061064752806107405250610c3c6000f3fe608060405234801561001057600080fd5b50600436106100eb5760003560e01c80638f32d59b116100925780638f32d59b1461018457806390107afe146101a05780639d5b044d146101ce5780639e954ef2146101d6578063a20baee6146101de578063a3f4df7e146101e6578063e1ceeae714610263578063ecda10f51461026b578063f8543bb314610273576100eb565b80630b622ab2146100f05780630fc83da3146101145780631a465fe11461012e5780632eee8bc91461013657806361ec893d1461013e5780638352d6361461014657806384e638aa146101745780638da5cb5b1461017c575b600080fd5b6100f8610290565b604080516001600160a01b039092168252519081900360200190f35b61011c61029f565b60408051918252519081900360200190f35b6100f86102ab565b61011c6102ba565b61011c610350565b6101726004803603604081101561015c57600080fd5b506001600160a01b038135169060200135610355565b005b61011c6103e3565b6100f86103f2565b61018c610401565b604080519115158252519081900360200190f35b610172600480360360408110156101b657600080fd5b506001600160a01b0381358116916020013516610412565b61011c6105b8565b61011c6105c7565b61011c6105cd565b6101ee6105d9565b6040805160208082528351818301528351919283929083019185019080838360005b83811015610228578181015183820152602001610210565b50505050905090810190601f1680156102555780820380516001836020036101000a031916815260200191505b509250505060405180910390f35b61011c610606565b61011c610645565b6101726004803603602081101561028957600080fd5b5035610669565b6002546001600160a01b031681565b670de0b5809a6f939881565b6001546001600160a01b031681565b60006102c46106e7565b60006102f5670de0b6b3a76400006102ef6102dd610732565b6a1a784379d99db420000000906107ab565b9061080d565b9050600061030e6003548361084f90919063ffffffff16565b60038390556040805184815290519192507f253095657378f12e31b9de23bbea40cddbab765dfd86c80f26d4d52cf9d7b76a919081900360200190a191505090565b603c81565b61035d6106e7565b6001546040805163a9059cbb60e01b81526001600160a01b038581166004830152602482018590529151919092169163a9059cbb9160448083019260209291908290030181600087803b1580156103b357600080fd5b505af11580156103c7573d6000803e3d6000fd5b505050506040513d60208110156103dd57600080fd5b50505050565b6a1a784379d99db42000000081565b6000546001600160a01b031690565b6000546001600160a01b0316331490565b61041a610401565b61046b576040805162461bcd60e51b815260206004820181905260248201527f4f776e61626c653a2063616c6c6572206973206e6f7420746865206f776e6572604482015290519081900360640190fd5b61047482610891565b61047d81610891565b600180546001600160a01b038085166001600160a01b0319928316179283905560028054858316931692909217909155604080516370a0823160e01b81523060048201529051600093909216916370a0823191602480820192602092909190829003018186803b1580156104f057600080fd5b505afa158015610504573d6000803e3d6000fd5b505050506040513d602081101561051a57600080fd5b505190506a1a784379d99db42000000081101561053357fe5b604080516001600160a01b038516815290517f8b70fff6eb19dda13b7b98f7e1b6aff53cc8a27c0ffe6282cc22727fdcd4e2319181900360200190a1604080516001600160a01b038416815290517f45c53611bc8ba9e11f4f8173bda9e3faf89c395ddb83f9a55230b156828db3159181900360200190a16105b3610944565b505050565b60006105c2610732565b905090565b60035481565b670de0b6b3a764000081565b60405180604001604052806011815260200170436f6d6d756e69747949737375616e636560781b81525081565b600080610620670de0b6b3a76400006102ef6102dd610732565b905060006106396003548361084f90919063ffffffff16565b60039290925550905090565b7f000000000000000000000000000000000000000000000000000000000000000081565b6001546040805163a9059cbb60e01b81523360048201526024810184905290516001600160a01b039092169163a9059cbb916044808201926020929091908290030181600087803b1580156106bd57600080fd5b505af11580156106d1573d6000803e3d6000fd5b505050506040513d60208110156105b357600080fd5b6002546001600160a01b031633146107305760405162461bcd60e51b8152600401808060200182810382526023815260200180610be46023913960400191505060405180910390fd5b565b600080610764603c6102ef427f000000000000000000000000000000000000000000000000000000000000000061084f565b9050600061077a670de0b5809a6f93988361098e565b90506000610790670de0b6b3a76400008361084f565b9050670de0b6b3a76400008111156107a457fe5b9250505090565b6000826107ba57506000610807565b828202828482816107c757fe5b04146108045760405162461bcd60e51b8152600401808060200182810382526021815260200180610bc36021913960400191505060405180910390fd5b90505b92915050565b600061080483836040518060400160405280601a81526020017f536166654d6174683a206469766973696f6e206279207a65726f000000000000815250610a37565b600061080483836040518060400160405280601e81526020017f536166654d6174683a207375627472616374696f6e206f766572666c6f770000815250610ad9565b6001600160a01b0381166108ec576040805162461bcd60e51b815260206004820152601e60248201527f4163636f756e742063616e6e6f74206265207a65726f20616464726573730000604482015290519081900360640190fd5b803b80610940576040805162461bcd60e51b815260206004820181905260248201527f4163636f756e7420636f64652073697a652063616e6e6f74206265207a65726f604482015290519081900360640190fd5b5050565b600080546040516001600160a01b03909116907f8be0079c531659141344cd1fd0a4f28419497f9722a3daafe3b4186f6b6457e0908390a3600080546001600160a01b0319169055565b6000631f5405008211156109a457631f54050091505b816109b85750670de0b6b3a7640000610807565b670de0b6b3a764000083835b6001811115610a2357600281066109f3576109df8283610b33565b91506109ec81600261080d565b9050610a1e565b6109fd8284610b33565b9250610a098283610b33565b9150610a1b60026102ef83600161084f565b90505b6109c4565b610a2d8284610b33565b9695505050505050565b60008183610ac35760405162461bcd60e51b81526004018080602001828103825283818151815260200191508051906020019080838360005b83811015610a88578181015183820152602001610a70565b50505050905090810190601f168015610ab55780820380516001836020036101000a031916815260200191505b509250505060405180910390fd5b506000838581610acf57fe5b0495945050505050565b60008184841115610b2b5760405162461bcd60e51b8152602060048201818152835160248401528351909283926044909101919085019080838360008315610a88578181015183820152602001610a70565b505050900390565b600080610b4084846107ab565b9050610b60670de0b6b3a76400006102ef836706f05b59d3b20000610b68565b949350505050565b600082820183811015610804576040805162461bcd60e51b815260206004820152601b60248201527f536166654d6174683a206164646974696f6e206f766572666c6f770000000000604482015290519081900360640190fdfe536166654d6174683a206d756c7469706c69636174696f6e206f766572666c6f77436f6d6d756e69747949737375616e63653a2063616c6c6572206973206e6f74205350a26469706673582212203eed8dcdb2b7493fd4d9ede40bff32147a7038c29573f68c1e28388df2218f6a64736f6c63430007060033",
  "linkReferences": {},
  "deployedLinkReferences": {}
}