{
  "_format": "hh-sol-artifact-1",
  "contractName": "CommunityIssuance",
  "sourceName": "contracts/ProtocolToken/CommunityIssuance.sol",
  "abi": [
    {
      "anonymous": false,
      "inputs": [
        {
          "indexed": true,
          "internalType": "address",
          "name": "previousOwner",
          "type": "address"
        },
        {
          "indexed": true,
          "internalType": "address",
          "name": "newOwner",
          "type": "address"
        }
      ],
      "name": "OwnershipTransferred",
      "type": "event"
    },
    {
      "anonymous": false,
      "inputs": [
        {
          "indexed": false,
          "internalType": "address",
          "name": "_protocolTokenAddress",
          "type": "address"
        }
      ],
      "name": "ProtocolTokenAddressSet",
      "type": "event"
    },
    {
      "anonymous": false,
      "inputs": [
        {
          "indexed": false,
          "internalType": "uint256",
          "name": "_protocolTokenSupplyCap",
          "type": "uint256"
        }
      ],
      "name": "ProtocolTokenSupplyCapUpdated",
      "type": "event"
    },
    {
      "anonymous": false,
      "inputs": [
        {
          "indexed": false,
          "internalType": "address",
          "name": "_stabilityPoolAddress",
          "type": "address"
        }
      ],
      "name": "StabilityPoolAddressSet",
      "type": "event"
    },
    {
      "anonymous": false,
      "inputs": [
        {
          "indexed": false,
          "internalType": "uint256",
          "name": "_totalProtocolTokenIssued",
          "type": "uint256"
        }
      ],
      "name": "TotalProtocolTokenIssuedUpdated",
      "type": "event"
    },
    {
      "inputs": [],
      "name": "DECIMAL_PRECISION",
      "outputs": [
        {
          "internalType": "uint256",
          "name": "",
          "type": "uint256"
        }
      ],
      "stateMutability": "view",
      "type": "function"
    },
    {
      "inputs": [],
      "name": "ISSUANCE_FACTOR",
      "outputs": [
        {
          "internalType": "uint256",
          "name": "",
          "type": "uint256"
        }
      ],
      "stateMutability": "view",
      "type": "function"
    },
    {
      "inputs": [],
      "name": "NAME",
      "outputs": [
        {
          "internalType": "string",
          "name": "",
          "type": "string"
        }
      ],
      "stateMutability": "view",
      "type": "function"
    },
    {
      "inputs": [],
      "name": "SECONDS_IN_ONE_MINUTE",
      "outputs": [
        {
          "internalType": "uint256",
          "name": "",
          "type": "uint256"
        }
      ],
      "stateMutability": "view",
      "type": "function"
    },
    {
      "inputs": [
        {
          "internalType": "address",
          "name": "_protocolTokenAddress",
          "type": "address"
        },
        {
          "internalType": "address",
          "name": "_stabilityPoolAddress",
          "type": "address"
        }
      ],
      "name": "initialize",
      "outputs": [],
      "stateMutability": "nonpayable",
      "type": "function"
    },
    {
      "inputs": [],
      "name": "issueProtocolToken",
      "outputs": [
        {
          "internalType": "uint256",
          "name": "",
          "type": "uint256"
        }
      ],
      "stateMutability": "nonpayable",
      "type": "function"
    },
    {
      "inputs": [],
      "name": "owner",
      "outputs": [
        {
          "internalType": "address",
          "name": "",
          "type": "address"
        }
      ],
      "stateMutability": "view",
      "type": "function"
    },
    {
      "inputs": [],
      "name": "protocolToken",
      "outputs": [
        {
          "internalType": "contract IProtocolToken",
          "name": "",
          "type": "address"
        }
      ],
      "stateMutability": "view",
      "type": "function"
    },
    {
      "inputs": [],
      "name": "protocolTokenSupplyCap",
      "outputs": [
        {
          "internalType": "uint256",
          "name": "",
          "type": "uint256"
        }
      ],
      "stateMutability": "view",
      "type": "function"
    },
    {
      "inputs": [],
      "name": "renounceOwnership",
      "outputs": [],
      "stateMutability": "nonpayable",
      "type": "function"
    },
    {
      "inputs": [
        {
          "internalType": "address",
          "name": "_account",
          "type": "address"
        },
        {
          "internalType": "uint256",
          "name": "_amount",
          "type": "uint256"
        }
      ],
      "name": "sendProtocolToken",
      "outputs": [],
      "stateMutability": "nonpayable",
      "type": "function"
    },
    {
      "inputs": [],
      "name": "stabilityPoolAddress",
      "outputs": [
        {
          "internalType": "address",
          "name": "",
          "type": "address"
        }
      ],
      "stateMutability": "view",
      "type": "function"
    },
    {
      "inputs": [],
      "name": "supplyStartTime",
      "outputs": [
        {
          "internalType": "uint256",
          "name": "",
          "type": "uint256"
        }
      ],
      "stateMutability": "view",
      "type": "function"
    },
    {
      "inputs": [],
      "name": "totalProtocolTokenIssued",
      "outputs": [
        {
          "internalType": "uint256",
          "name": "",
          "type": "uint256"
        }
      ],
      "stateMutability": "view",
      "type": "function"
    },
    {
      "inputs": [
        {
          "internalType": "address",
          "name": "newOwner",
          "type": "address"
        }
      ],
      "name": "transferOwnership",
      "outputs": [],
      "stateMutability": "nonpayable",
      "type": "function"
    },
    {
      "inputs": [],
      "name": "updateProtocolTokenSupplyCap",
      "outputs": [],
      "stateMutability": "nonpayable",
      "type": "function"
    }
  ],
  "bytecode": "0x608060405234801561001057600080fd5b50610f62806100206000396000f3fe608060405234801561001057600080fd5b50600436106100e05760003560e01c8063715018a611610087578063715018a61461017b5780638352d6361461018357806384e638aa146101af5780638da5cb5b146101b75780639e954ef2146101bf578063a20baee6146101c7578063a3f4df7e146101cf578063f2fde38b1461024c576100e0565b80630b622ab2146100e55780630fc83da3146101095780631a465fe11461012357806324b40ed01461012b5780632eee8bc91461013357806332254b971461013b578063485cc9551461014557806361ec893d14610173575b600080fd5b6100ed610272565b604080516001600160a01b039092168252519081900360200190f35b610111610281565b60408051918252519081900360200190f35b6100ed61028d565b61011161029c565b6101116102a2565b61014361032f565b005b6101436004803603604081101561015b57600080fd5b506001600160a01b0381358116916020013516610490565b61011161054b565b610143610550565b6101436004803603604081101561019957600080fd5b506001600160a01b0381351690602001356105ea565b610111610678565b6100ed61067e565b61011161068d565b610111610693565b6101d761069f565b6040805160208082528351818301528351919283929083019185019080838360005b838110156102115781810151838201526020016101f9565b50505050905090810190601f16801561023e5780820380516001836020036101000a031916815260200191505b509250505060405180910390f35b6101436004803603602081101561026257600080fd5b50356001600160a01b03166106cc565b6067546001600160a01b031681565b670de0b5809a6f939881565b6066546001600160a01b031681565b60695481565b60006102ac6107bd565b60006102d4670de0b6b3a76400006102ce6102c5610808565b6065549061086c565b906108ce565b905060006102ed6068548361093590919063ffffffff16565b60688390556040805184815290519192507f253095657378f12e31b9de23bbea40cddbab765dfd86c80f26d4d52cf9d7b76a919081900360200190a191505090565b610337610992565b6001600160a01b031661034861067e565b6001600160a01b031614610391576040805162461bcd60e51b81526020600482018190526024820152600080516020610eca833981519152604482015290519081900360640190fd5b606654604080516370a0823160e01b815230600482015290516000926001600160a01b0316916370a08231916024808301926020929190829003018186803b1580156103dc57600080fd5b505afa1580156103f0573d6000803e3d6000fd5b505050506040513d602081101561040657600080fd5b505160655490915081141561044c5760405162461bcd60e51b8152600401808060200182810382526029815260200180610e526029913960400191505060405180910390fd5b60658190556000606855426069556040805182815290517f81d8ce7b1678eb5b4be89cd9c81f76087c8e38f41ead97760ed2561beff0d85c9181900360200190a150565b600054610100900460ff16806104a957506104a9610996565b806104b7575060005460ff16155b6104f25760405162461bcd60e51b815260040180806020018281038252602e815260200180610e7b602e913960400191505060405180910390fd5b600054610100900460ff1615801561051d576000805460ff1961ff0019909116610100171660011790555b6105256109a7565b61052f8383610a59565b60006065558015610546576000805461ff00191690555b505050565b603c81565b610558610992565b6001600160a01b031661056961067e565b6001600160a01b0316146105b2576040805162461bcd60e51b81526020600482018190526024820152600080516020610eca833981519152604482015290519081900360640190fd5b6033546040516000916001600160a01b031690600080516020610eea833981519152908390a3603380546001600160a01b0319169055565b6105f26107bd565b6066546040805163a9059cbb60e01b81526001600160a01b038581166004830152602482018590529151919092169163a9059cbb9160448083019260209291908290030181600087803b15801561064857600080fd5b505af115801561065c573d6000803e3d6000fd5b505050506040513d602081101561067257600080fd5b50505050565b60655481565b6033546001600160a01b031690565b60685481565b670de0b6b3a764000081565b60405180604001604052806011815260200170436f6d6d756e69747949737375616e636560781b81525081565b6106d4610992565b6001600160a01b03166106e561067e565b6001600160a01b03161461072e576040805162461bcd60e51b81526020600482018190526024820152600080516020610eca833981519152604482015290519081900360640190fd5b6001600160a01b0381166107735760405162461bcd60e51b8152600401808060200182810382526026815260200180610e2c6026913960400191505060405180910390fd5b6033546040516001600160a01b03808416921690600080516020610eea83398151915290600090a3603380546001600160a01b0319166001600160a01b0392909216919091179055565b6067546001600160a01b031633146108065760405162461bcd60e51b8152600401808060200182810382526023815260200180610f0a6023913960400191505060405180910390fd5b565b600080610825603c6102ce6069544261093590919063ffffffff16565b9050600061083b670de0b5809a6f939883610b0b565b90506000610851670de0b6b3a764000083610935565b9050670de0b6b3a764000081111561086557fe5b9250505090565b60008261087b575060006108c8565b8282028284828161088857fe5b04146108c55760405162461bcd60e51b8152600401808060200182810382526021815260200180610ea96021913960400191505060405180910390fd5b90505b92915050565b6000808211610924576040805162461bcd60e51b815260206004820152601a60248201527f536166654d6174683a206469766973696f6e206279207a65726f000000000000604482015290519081900360640190fd5b81838161092d57fe5b049392505050565b60008282111561098c576040805162461bcd60e51b815260206004820152601e60248201527f536166654d6174683a207375627472616374696f6e206f766572666c6f770000604482015290519081900360640190fd5b50900390565b3390565b60006109a130610bb4565b15905090565b600054610100900460ff16806109c057506109c0610996565b806109ce575060005460ff16155b610a095760405162461bcd60e51b815260040180806020018281038252602e815260200180610e7b602e913960400191505060405180910390fd5b600054610100900460ff16158015610a34576000805460ff1961ff0019909116610100171660011790555b610a3c610bba565b610a44610c5a565b8015610a56576000805461ff00191690555b50565b610a6282610d41565b610a6b81610d41565b606680546001600160a01b038085166001600160a01b03199283168117909355606780549185169190921617905560408051918252517f8b70fff6eb19dda13b7b98f7e1b6aff53cc8a27c0ffe6282cc22727fdcd4e2319181900360200190a1604080516001600160a01b038316815290517f45c53611bc8ba9e11f4f8173bda9e3faf89c395ddb83f9a55230b156828db3159181900360200190a15050565b6000631f540500821115610b2157631f54050091505b81610b355750670de0b6b3a76400006108c8565b670de0b6b3a764000083835b6001811115610ba05760028106610b7057610b5c8283610d9c565b9150610b698160026108ce565b9050610b9b565b610b7a8284610d9c565b9250610b868283610d9c565b9150610b9860026102ce836001610935565b90505b610b41565b610baa8284610d9c565b9695505050505050565b3b151590565b600054610100900460ff1680610bd35750610bd3610996565b80610be1575060005460ff16155b610c1c5760405162461bcd60e51b815260040180806020018281038252602e815260200180610e7b602e913960400191505060405180910390fd5b600054610100900460ff16158015610a44576000805460ff1961ff0019909116610100171660011790558015610a56576000805461ff001916905550565b600054610100900460ff1680610c735750610c73610996565b80610c81575060005460ff16155b610cbc5760405162461bcd60e51b815260040180806020018281038252602e815260200180610e7b602e913960400191505060405180910390fd5b600054610100900460ff16158015610ce7576000805460ff1961ff0019909116610100171660011790555b6000610cf1610992565b603380546001600160a01b0319166001600160a01b03831690811790915560405191925090600090600080516020610eea833981519152908290a3508015610a56576000805461ff001916905550565b6001600160a01b038116610a56576040805162461bcd60e51b815260206004820152601e60248201527f4163636f756e742063616e6e6f74206265207a65726f20616464726573730000604482015290519081900360640190fd5b600080610da9848461086c565b9050610dc9670de0b6b3a76400006102ce836706f05b59d3b20000610dd1565b949350505050565b6000828201838110156108c5576040805162461bcd60e51b815260206004820152601b60248201527f536166654d6174683a206164646974696f6e206f766572666c6f770000000000604482015290519081900360640190fdfe4f776e61626c653a206e6577206f776e657220697320746865207a65726f2061646472657373436f6d6d756e69747949737375616e63653a20737570706c7920636170206e6f74206368616e676564496e697469616c697a61626c653a20636f6e747261637420697320616c726561647920696e697469616c697a6564536166654d6174683a206d756c7469706c69636174696f6e206f766572666c6f774f776e61626c653a2063616c6c6572206973206e6f7420746865206f776e65728be0079c531659141344cd1fd0a4f28419497f9722a3daafe3b4186f6b6457e0436f6d6d756e69747949737375616e63653a2063616c6c6572206973206e6f74205350a264697066735822122094f2a70470a6a881cfe5e003b2c160b68ed750ea9b98cafa4736a47e32b13cf564736f6c63430007060033",
  "linkReferences": {},
  "deployedLinkReferences": {}
}