{
  "_format": "hh-sol-artifact-1",
  "contractName": "CommunityIssuance",
  "sourceName": "contracts/ProtocolToken/CommunityIssuance.sol",
  "abi": [
    {
      "inputs": [],
      "stateMutability": "nonpayable",
      "type": "constructor"
    },
    {
      "anonymous": false,
      "inputs": [
        {
          "indexed": true,
          "internalType": "address",
          "name": "previousOwner",
          "type": "address"
        },
        {
          "indexed": true,
          "internalType": "address",
          "name": "newOwner",
          "type": "address"
        }
      ],
      "name": "OwnershipTransferred",
      "type": "event"
    },
    {
      "anonymous": false,
      "inputs": [
        {
          "indexed": false,
          "internalType": "address",
          "name": "_protocolTokenAddress",
          "type": "address"
        }
      ],
      "name": "ProtocolTokenAddressSet",
      "type": "event"
    },
    {
      "anonymous": false,
      "inputs": [
        {
          "indexed": false,
          "internalType": "address",
          "name": "_stabilityPoolAddress",
          "type": "address"
        }
      ],
      "name": "StabilityPoolAddressSet",
      "type": "event"
    },
    {
      "anonymous": false,
      "inputs": [
        {
          "indexed": false,
          "internalType": "uint256",
          "name": "_totalProtocolTokenIssued",
          "type": "uint256"
        }
      ],
      "name": "TotalProtocolTokenIssuedUpdated",
      "type": "event"
    },
    {
      "inputs": [],
      "name": "DECIMAL_PRECISION",
      "outputs": [
        {
          "internalType": "uint256",
          "name": "",
          "type": "uint256"
        }
      ],
      "stateMutability": "view",
      "type": "function"
    },
    {
      "inputs": [],
      "name": "ISSUANCE_FACTOR",
      "outputs": [
        {
          "internalType": "uint256",
          "name": "",
          "type": "uint256"
        }
      ],
      "stateMutability": "view",
      "type": "function"
    },
    {
      "inputs": [],
      "name": "NAME",
      "outputs": [
        {
          "internalType": "string",
          "name": "",
          "type": "string"
        }
      ],
      "stateMutability": "view",
      "type": "function"
    },
    {
      "inputs": [],
      "name": "SECONDS_IN_ONE_MINUTE",
      "outputs": [
        {
          "internalType": "uint256",
          "name": "",
          "type": "uint256"
        }
      ],
      "stateMutability": "view",
      "type": "function"
    },
    {
      "inputs": [],
      "name": "deploymentTime",
      "outputs": [
        {
          "internalType": "uint256",
          "name": "",
          "type": "uint256"
        }
      ],
      "stateMutability": "view",
      "type": "function"
    },
    {
      "inputs": [
        {
          "internalType": "address",
          "name": "_protocolTokenAddress",
          "type": "address"
        },
        {
          "internalType": "address",
          "name": "_stabilityPoolAddress",
          "type": "address"
        }
      ],
      "name": "initialize",
      "outputs": [],
      "stateMutability": "nonpayable",
      "type": "function"
    },
    {
      "inputs": [],
      "name": "issueProtocolToken",
      "outputs": [
        {
          "internalType": "uint256",
          "name": "",
          "type": "uint256"
        }
      ],
      "stateMutability": "nonpayable",
      "type": "function"
    },
    {
      "inputs": [],
      "name": "owner",
      "outputs": [
        {
          "internalType": "address",
          "name": "",
          "type": "address"
        }
      ],
      "stateMutability": "view",
      "type": "function"
    },
    {
      "inputs": [],
      "name": "protocolToken",
      "outputs": [
        {
          "internalType": "contract IProtocolToken",
          "name": "",
          "type": "address"
        }
      ],
      "stateMutability": "view",
      "type": "function"
    },
    {
      "inputs": [],
      "name": "protocolTokenSupplyCap",
      "outputs": [
        {
          "internalType": "uint256",
          "name": "",
          "type": "uint256"
        }
      ],
      "stateMutability": "view",
      "type": "function"
    },
    {
      "inputs": [],
      "name": "renounceOwnership",
      "outputs": [],
      "stateMutability": "nonpayable",
      "type": "function"
    },
    {
      "inputs": [
        {
          "internalType": "address",
          "name": "_account",
          "type": "address"
        },
        {
          "internalType": "uint256",
          "name": "_amount",
          "type": "uint256"
        }
      ],
      "name": "sendProtocolToken",
      "outputs": [],
      "stateMutability": "nonpayable",
      "type": "function"
    },
    {
      "inputs": [],
      "name": "stabilityPoolAddress",
      "outputs": [
        {
          "internalType": "address",
          "name": "",
          "type": "address"
        }
      ],
      "stateMutability": "view",
      "type": "function"
    },
    {
      "inputs": [],
      "name": "totalProtocolTokenIssued",
      "outputs": [
        {
          "internalType": "uint256",
          "name": "",
          "type": "uint256"
        }
      ],
      "stateMutability": "view",
      "type": "function"
    },
    {
      "inputs": [
        {
          "internalType": "address",
          "name": "newOwner",
          "type": "address"
        }
      ],
      "name": "transferOwnership",
      "outputs": [],
      "stateMutability": "nonpayable",
      "type": "function"
    }
  ],
  "bytecode": "0x60a060405234801561001057600080fd5b5042608052608051610e096100346000398061057352806106f15250610e096000f3fe608060405234801561001057600080fd5b50600436106100d55760003560e01c80638352d636116100875780638352d6361461016857806384e638aa146101945780638da5cb5b1461019c5780639e954ef2146101a4578063a20baee6146101ac578063a3f4df7e146101b4578063ecda10f514610231578063f2fde38b14610239576100d5565b80630b622ab2146100da5780630fc83da3146100fe5780631a465fe1146101185780632eee8bc914610120578063485cc9551461012857806361ec893d14610158578063715018a614610160575b600080fd5b6100e261025f565b604080516001600160a01b039092168252519081900360200190f35b61010661026e565b60408051918252519081900360200190f35b6100e261027a565b610106610289565b6101566004803603604081101561013e57600080fd5b506001600160a01b038135811691602001351661031f565b005b6101066103d5565b6101566103da565b6101566004803603604081101561017e57600080fd5b506001600160a01b038135169060200135610486565b610106610514565b6100e2610523565b610106610532565b610106610538565b6101bc610544565b6040805160208082528351818301528351919283929083019185019080838360005b838110156101f65781810151838201526020016101de565b50505050905090810190601f1680156102235780820380516001836020036101000a031916815260200191505b509250505060405180910390f35b610106610571565b6101566004803603602081101561024f57600080fd5b50356001600160a01b0316610595565b6066546001600160a01b031681565b670de0b5809a6f939881565b6065546001600160a01b031681565b6000610293610698565b60006102c4670de0b6b3a76400006102be6102ac6106e3565b6a1a784379d99db4200000009061075c565b906107be565b905060006102dd6067548361082590919063ffffffff16565b60678390556040805184815290519192507f253095657378f12e31b9de23bbea40cddbab765dfd86c80f26d4d52cf9d7b76a919081900360200190a191505090565b600054610100900460ff16806103385750610338610882565b80610346575060005460ff16155b6103815760405162461bcd60e51b815260040180806020018281038252602e815260200180610d42602e913960400191505060405180910390fd5b600054610100900460ff161580156103ac576000805460ff1961ff0019909116610100171660011790555b6103b4610893565b6103be8383610945565b80156103d0576000805461ff00191690555b505050565b603c81565b6103e26109f7565b6001600160a01b03166103f3610523565b6001600160a01b03161461044e576040805162461bcd60e51b815260206004820181905260248201527f4f776e61626c653a2063616c6c6572206973206e6f7420746865206f776e6572604482015290519081900360640190fd5b6033546040516000916001600160a01b031690600080516020610d91833981519152908390a3603380546001600160a01b0319169055565b61048e610698565b6065546040805163a9059cbb60e01b81526001600160a01b038581166004830152602482018590529151919092169163a9059cbb9160448083019260209291908290030181600087803b1580156104e457600080fd5b505af11580156104f8573d6000803e3d6000fd5b505050506040513d602081101561050e57600080fd5b50505050565b6a1a784379d99db42000000081565b6033546001600160a01b031690565b60675481565b670de0b6b3a764000081565b60405180604001604052806011815260200170436f6d6d756e69747949737375616e636560781b81525081565b7f000000000000000000000000000000000000000000000000000000000000000081565b61059d6109f7565b6001600160a01b03166105ae610523565b6001600160a01b031614610609576040805162461bcd60e51b815260206004820181905260248201527f4f776e61626c653a2063616c6c6572206973206e6f7420746865206f776e6572604482015290519081900360640190fd5b6001600160a01b03811661064e5760405162461bcd60e51b8152600401808060200182810382526026815260200180610d1c6026913960400191505060405180910390fd5b6033546040516001600160a01b03808416921690600080516020610d9183398151915290600090a3603380546001600160a01b0319166001600160a01b0392909216919091179055565b6066546001600160a01b031633146106e15760405162461bcd60e51b8152600401808060200182810382526023815260200180610db16023913960400191505060405180910390fd5b565b600080610715603c6102be427f0000000000000000000000000000000000000000000000000000000000000000610825565b9050600061072b670de0b5809a6f9398836109fb565b90506000610741670de0b6b3a764000083610825565b9050670de0b6b3a764000081111561075557fe5b9250505090565b60008261076b575060006107b8565b8282028284828161077857fe5b04146107b55760405162461bcd60e51b8152600401808060200182810382526021815260200180610d706021913960400191505060405180910390fd5b90505b92915050565b6000808211610814576040805162461bcd60e51b815260206004820152601a60248201527f536166654d6174683a206469766973696f6e206279207a65726f000000000000604482015290519081900360640190fd5b81838161081d57fe5b049392505050565b60008282111561087c576040805162461bcd60e51b815260206004820152601e60248201527f536166654d6174683a207375627472616374696f6e206f766572666c6f770000604482015290519081900360640190fd5b50900390565b600061088d30610aa4565b15905090565b600054610100900460ff16806108ac57506108ac610882565b806108ba575060005460ff16155b6108f55760405162461bcd60e51b815260040180806020018281038252602e815260200180610d42602e913960400191505060405180910390fd5b600054610100900460ff16158015610920576000805460ff1961ff0019909116610100171660011790555b610928610aaa565b610930610b4a565b8015610942576000805461ff00191690555b50565b61094e82610c31565b61095781610c31565b606580546001600160a01b038085166001600160a01b03199283168117909355606680549185169190921617905560408051918252517f8b70fff6eb19dda13b7b98f7e1b6aff53cc8a27c0ffe6282cc22727fdcd4e2319181900360200190a1604080516001600160a01b038316815290517f45c53611bc8ba9e11f4f8173bda9e3faf89c395ddb83f9a55230b156828db3159181900360200190a15050565b3390565b6000631f540500821115610a1157631f54050091505b81610a255750670de0b6b3a76400006107b8565b670de0b6b3a764000083835b6001811115610a905760028106610a6057610a4c8283610c8c565b9150610a598160026107be565b9050610a8b565b610a6a8284610c8c565b9250610a768283610c8c565b9150610a8860026102be836001610825565b90505b610a31565b610a9a8284610c8c565b9695505050505050565b3b151590565b600054610100900460ff1680610ac35750610ac3610882565b80610ad1575060005460ff16155b610b0c5760405162461bcd60e51b815260040180806020018281038252602e815260200180610d42602e913960400191505060405180910390fd5b600054610100900460ff16158015610930576000805460ff1961ff0019909116610100171660011790558015610942576000805461ff001916905550565b600054610100900460ff1680610b635750610b63610882565b80610b71575060005460ff16155b610bac5760405162461bcd60e51b815260040180806020018281038252602e815260200180610d42602e913960400191505060405180910390fd5b600054610100900460ff16158015610bd7576000805460ff1961ff0019909116610100171660011790555b6000610be16109f7565b603380546001600160a01b0319166001600160a01b03831690811790915560405191925090600090600080516020610d91833981519152908290a3508015610942576000805461ff001916905550565b6001600160a01b038116610942576040805162461bcd60e51b815260206004820152601e60248201527f4163636f756e742063616e6e6f74206265207a65726f20616464726573730000604482015290519081900360640190fd5b600080610c99848461075c565b9050610cb9670de0b6b3a76400006102be836706f05b59d3b20000610cc1565b949350505050565b6000828201838110156107b5576040805162461bcd60e51b815260206004820152601b60248201527f536166654d6174683a206164646974696f6e206f766572666c6f770000000000604482015290519081900360640190fdfe4f776e61626c653a206e6577206f776e657220697320746865207a65726f2061646472657373496e697469616c697a61626c653a20636f6e747261637420697320616c726561647920696e697469616c697a6564536166654d6174683a206d756c7469706c69636174696f6e206f766572666c6f778be0079c531659141344cd1fd0a4f28419497f9722a3daafe3b4186f6b6457e0436f6d6d756e69747949737375616e63653a2063616c6c6572206973206e6f74205350a26469706673582212207f85b11c6151cbac49c39bf94131dbc1345bb5897c756701886cecdf47571df864736f6c63430007060033",
  "linkReferences": {},
  "deployedLinkReferences": {}
}