{
  "_format": "hh-sol-artifact-1",
  "contractName": "CommunityIssuance",
  "sourceName": "contracts/ProtocolToken/CommunityIssuance.sol",
  "abi": [
    {
      "inputs": [],
      "stateMutability": "nonpayable",
      "type": "constructor"
    },
    {
      "anonymous": false,
      "inputs": [
        {
          "indexed": true,
          "internalType": "address",
          "name": "previousOwner",
          "type": "address"
        },
        {
          "indexed": true,
          "internalType": "address",
          "name": "newOwner",
          "type": "address"
        }
      ],
      "name": "OwnershipTransferred",
      "type": "event"
    },
    {
      "anonymous": false,
      "inputs": [
        {
          "indexed": false,
          "internalType": "address",
          "name": "_protocolTokenAddress",
          "type": "address"
        }
      ],
      "name": "ProtocolTokenAddressSet",
      "type": "event"
    },
    {
      "anonymous": false,
      "inputs": [
        {
          "indexed": false,
          "internalType": "address",
          "name": "_stabilityPoolAddress",
          "type": "address"
        }
      ],
      "name": "StabilityPoolAddressSet",
      "type": "event"
    },
    {
      "anonymous": false,
      "inputs": [
        {
          "indexed": false,
          "internalType": "uint256",
          "name": "_totalProtocolTokenIssued",
          "type": "uint256"
        }
      ],
      "name": "TotalProtocolTokenIssuedUpdated",
      "type": "event"
    },
    {
      "inputs": [],
      "name": "DECIMAL_PRECISION",
      "outputs": [
        {
          "internalType": "uint256",
          "name": "",
          "type": "uint256"
        }
      ],
      "stateMutability": "view",
      "type": "function"
    },
    {
      "inputs": [],
      "name": "ISSUANCE_FACTOR",
      "outputs": [
        {
          "internalType": "uint256",
          "name": "",
          "type": "uint256"
        }
      ],
      "stateMutability": "view",
      "type": "function"
    },
    {
      "inputs": [],
      "name": "NAME",
      "outputs": [
        {
          "internalType": "string",
          "name": "",
          "type": "string"
        }
      ],
      "stateMutability": "view",
      "type": "function"
    },
    {
      "inputs": [],
      "name": "SECONDS_IN_ONE_MINUTE",
      "outputs": [
        {
          "internalType": "uint256",
          "name": "",
          "type": "uint256"
        }
      ],
      "stateMutability": "view",
      "type": "function"
    },
    {
      "inputs": [],
      "name": "deploymentTime",
      "outputs": [
        {
          "internalType": "uint256",
          "name": "",
          "type": "uint256"
        }
      ],
      "stateMutability": "view",
      "type": "function"
    },
    {
      "inputs": [],
      "name": "isOwner",
      "outputs": [
        {
          "internalType": "bool",
          "name": "",
          "type": "bool"
        }
      ],
      "stateMutability": "view",
      "type": "function"
    },
    {
      "inputs": [],
      "name": "issueProtocolToken",
      "outputs": [
        {
          "internalType": "uint256",
          "name": "",
          "type": "uint256"
        }
      ],
      "stateMutability": "nonpayable",
      "type": "function"
    },
    {
      "inputs": [],
      "name": "owner",
      "outputs": [
        {
          "internalType": "address",
          "name": "",
          "type": "address"
        }
      ],
      "stateMutability": "view",
      "type": "function"
    },
    {
      "inputs": [],
      "name": "protocolToken",
      "outputs": [
        {
          "internalType": "contract IProtocolToken",
          "name": "",
          "type": "address"
        }
      ],
      "stateMutability": "view",
      "type": "function"
    },
    {
      "inputs": [],
      "name": "protocolTokenSupplyCap",
      "outputs": [
        {
          "internalType": "uint256",
          "name": "",
          "type": "uint256"
        }
      ],
      "stateMutability": "view",
      "type": "function"
    },
    {
      "inputs": [
        {
          "internalType": "address",
          "name": "_account",
          "type": "address"
        },
        {
          "internalType": "uint256",
          "name": "_amount",
          "type": "uint256"
        }
      ],
      "name": "sendProtocolToken",
      "outputs": [],
      "stateMutability": "nonpayable",
      "type": "function"
    },
    {
      "inputs": [
        {
          "internalType": "address",
          "name": "_protocolTokenAddress",
          "type": "address"
        },
        {
          "internalType": "address",
          "name": "_stabilityPoolAddress",
          "type": "address"
        }
      ],
      "name": "setAddresses",
      "outputs": [],
      "stateMutability": "nonpayable",
      "type": "function"
    },
    {
      "inputs": [],
      "name": "stabilityPoolAddress",
      "outputs": [
        {
          "internalType": "address",
          "name": "",
          "type": "address"
        }
      ],
      "stateMutability": "view",
      "type": "function"
    },
    {
      "inputs": [],
      "name": "totalProtocolTokenIssued",
      "outputs": [
        {
          "internalType": "uint256",
          "name": "",
          "type": "uint256"
        }
      ],
      "stateMutability": "view",
      "type": "function"
    }
  ],
  "bytecode": "0x60a060405234801561001057600080fd5b50600080546001600160a01b0319163390811782556040519091907f8be0079c531659141344cd1fd0a4f28419497f9722a3daafe3b4186f6b6457e0908290a342608052608051610b22610073600039806105ab52806106265250610b226000f3fe608060405234801561001057600080fd5b50600436106100ca5760003560e01c80638da5cb5b1161007c5780638da5cb5b1461015b5780638f32d59b1461016357806390107afe1461017f5780639e954ef2146101ad578063a20baee6146101b5578063a3f4df7e146101bd578063ecda10f51461023a576100ca565b80630b622ab2146100cf5780630fc83da3146100f35780631a465fe11461010d5780632eee8bc91461011557806361ec893d1461011d5780638352d6361461012557806384e638aa14610153575b600080fd5b6100d7610242565b604080516001600160a01b039092168252519081900360200190f35b6100fb610251565b60408051918252519081900360200190f35b6100d761025d565b6100fb61026c565b6100fb610302565b6101516004803603604081101561013b57600080fd5b506001600160a01b038135169060200135610307565b005b6100fb610395565b6100d76103a4565b61016b6103b3565b604080519115158252519081900360200190f35b6101516004803603604081101561019557600080fd5b506001600160a01b03813581169160200135166103c4565b6100fb61056a565b6100fb610570565b6101c561057c565b6040805160208082528351818301528351919283929083019185019080838360005b838110156101ff5781810151838201526020016101e7565b50505050905090810190601f16801561022c5780820380516001836020036101000a031916815260200191505b509250505060405180910390f35b6100fb6105a9565b6002546001600160a01b031681565b670de0b5809a6f939881565b6001546001600160a01b031681565b60006102766105cd565b60006102a7670de0b6b3a76400006102a161028f610618565b6a1a784379d99db42000000090610691565b906106f3565b905060006102c06003548361073590919063ffffffff16565b60038390556040805184815290519192507f253095657378f12e31b9de23bbea40cddbab765dfd86c80f26d4d52cf9d7b76a919081900360200190a191505090565b603c81565b61030f6105cd565b6001546040805163a9059cbb60e01b81526001600160a01b038581166004830152602482018590529151919092169163a9059cbb9160448083019260209291908290030181600087803b15801561036557600080fd5b505af1158015610379573d6000803e3d6000fd5b505050506040513d602081101561038f57600080fd5b50505050565b6a1a784379d99db42000000081565b6000546001600160a01b031690565b6000546001600160a01b0316331490565b6103cc6103b3565b61041d576040805162461bcd60e51b815260206004820181905260248201527f4f776e61626c653a2063616c6c6572206973206e6f7420746865206f776e6572604482015290519081900360640190fd5b61042682610777565b61042f81610777565b600180546001600160a01b038085166001600160a01b0319928316179283905560028054858316931692909217909155604080516370a0823160e01b81523060048201529051600093909216916370a0823191602480820192602092909190829003018186803b1580156104a257600080fd5b505afa1580156104b6573d6000803e3d6000fd5b505050506040513d60208110156104cc57600080fd5b505190506a1a784379d99db4200000008110156104e557fe5b604080516001600160a01b038516815290517f8b70fff6eb19dda13b7b98f7e1b6aff53cc8a27c0ffe6282cc22727fdcd4e2319181900360200190a1604080516001600160a01b038416815290517f45c53611bc8ba9e11f4f8173bda9e3faf89c395ddb83f9a55230b156828db3159181900360200190a161056561082a565b505050565b60035481565b670de0b6b3a764000081565b60405180604001604052806011815260200170436f6d6d756e69747949737375616e636560781b81525081565b7f000000000000000000000000000000000000000000000000000000000000000081565b6002546001600160a01b031633146106165760405162461bcd60e51b8152600401808060200182810382526023815260200180610aca6023913960400191505060405180910390fd5b565b60008061064a603c6102a1427f0000000000000000000000000000000000000000000000000000000000000000610735565b90506000610660670de0b5809a6f939883610874565b90506000610676670de0b6b3a764000083610735565b9050670de0b6b3a764000081111561068a57fe5b9250505090565b6000826106a0575060006106ed565b828202828482816106ad57fe5b04146106ea5760405162461bcd60e51b8152600401808060200182810382526021815260200180610aa96021913960400191505060405180910390fd5b90505b92915050565b60006106ea83836040518060400160405280601a81526020017f536166654d6174683a206469766973696f6e206279207a65726f00000000000081525061091d565b60006106ea83836040518060400160405280601e81526020017f536166654d6174683a207375627472616374696f6e206f766572666c6f7700008152506109bf565b6001600160a01b0381166107d2576040805162461bcd60e51b815260206004820152601e60248201527f4163636f756e742063616e6e6f74206265207a65726f20616464726573730000604482015290519081900360640190fd5b803b80610826576040805162461bcd60e51b815260206004820181905260248201527f4163636f756e7420636f64652073697a652063616e6e6f74206265207a65726f604482015290519081900360640190fd5b5050565b600080546040516001600160a01b03909116907f8be0079c531659141344cd1fd0a4f28419497f9722a3daafe3b4186f6b6457e0908390a3600080546001600160a01b0319169055565b6000631f54050082111561088a57631f54050091505b8161089e5750670de0b6b3a76400006106ed565b670de0b6b3a764000083835b600181111561090957600281066108d9576108c58283610a19565b91506108d28160026106f3565b9050610904565b6108e38284610a19565b92506108ef8283610a19565b915061090160026102a1836001610735565b90505b6108aa565b6109138284610a19565b9695505050505050565b600081836109a95760405162461bcd60e51b81526004018080602001828103825283818151815260200191508051906020019080838360005b8381101561096e578181015183820152602001610956565b50505050905090810190601f16801561099b5780820380516001836020036101000a031916815260200191505b509250505060405180910390fd5b5060008385816109b557fe5b0495945050505050565b60008184841115610a115760405162461bcd60e51b815260206004820181815283516024840152835190928392604490910191908501908083836000831561096e578181015183820152602001610956565b505050900390565b600080610a268484610691565b9050610a46670de0b6b3a76400006102a1836706f05b59d3b20000610a4e565b949350505050565b6000828201838110156106ea576040805162461bcd60e51b815260206004820152601b60248201527f536166654d6174683a206164646974696f6e206f766572666c6f770000000000604482015290519081900360640190fdfe536166654d6174683a206d756c7469706c69636174696f6e206f766572666c6f77436f6d6d756e69747949737375616e63653a2063616c6c6572206973206e6f74205350a26469706673582212208d731a5724bebefe147ccb238e0df161a0e21dc2da2466ae6b2745eda0e2a38e64736f6c63430007060033",
  "linkReferences": {},
  "deployedLinkReferences": {}
}