{
  "_format": "hh-sol-artifact-1",
  "contractName": "CommunityIssuanceTester",
  "sourceName": "contracts/TestContracts/CommunityIssuanceTester.sol",
  "abi": [
    {
      "anonymous": false,
      "inputs": [
        {
          "indexed": true,
          "internalType": "address",
          "name": "previousOwner",
          "type": "address"
        },
        {
          "indexed": true,
          "internalType": "address",
          "name": "newOwner",
          "type": "address"
        }
      ],
      "name": "OwnershipTransferred",
      "type": "event"
    },
    {
      "anonymous": false,
      "inputs": [
        {
          "indexed": false,
          "internalType": "address",
          "name": "_protocolTokenAddress",
          "type": "address"
        }
      ],
      "name": "ProtocolTokenAddressChanged",
      "type": "event"
    },
    {
      "anonymous": false,
      "inputs": [
        {
          "indexed": false,
          "internalType": "uint256",
          "name": "_protocolTokenSupplyCap",
          "type": "uint256"
        }
      ],
      "name": "ProtocolTokenSupplyCapUpdated",
      "type": "event"
    },
    {
      "anonymous": false,
      "inputs": [
        {
          "indexed": false,
          "internalType": "address",
          "name": "_stabilityPoolAddress",
          "type": "address"
        }
      ],
      "name": "StabilityPoolAddressChanged",
      "type": "event"
    },
    {
      "anonymous": false,
      "inputs": [
        {
          "indexed": false,
          "internalType": "uint256",
          "name": "_totalProtocolTokenIssued",
          "type": "uint256"
        }
      ],
      "name": "TotalProtocolTokenIssuedUpdated",
      "type": "event"
    },
    {
      "inputs": [],
      "name": "DECIMAL_PRECISION",
      "outputs": [
        {
          "internalType": "uint256",
          "name": "",
          "type": "uint256"
        }
      ],
      "stateMutability": "view",
      "type": "function"
    },
    {
      "inputs": [],
      "name": "ISSUANCE_FACTOR",
      "outputs": [
        {
          "internalType": "uint256",
          "name": "",
          "type": "uint256"
        }
      ],
      "stateMutability": "view",
      "type": "function"
    },
    {
      "inputs": [],
      "name": "NAME",
      "outputs": [
        {
          "internalType": "string",
          "name": "",
          "type": "string"
        }
      ],
      "stateMutability": "view",
      "type": "function"
    },
    {
      "inputs": [],
      "name": "getCumulativeIssuanceFraction",
      "outputs": [
        {
          "internalType": "uint256",
          "name": "",
          "type": "uint256"
        }
      ],
      "stateMutability": "view",
      "type": "function"
    },
    {
      "inputs": [
        {
          "internalType": "address",
          "name": "_protocolTokenAddress",
          "type": "address"
        },
        {
          "internalType": "address",
          "name": "_stabilityPoolAddress",
          "type": "address"
        }
      ],
      "name": "initialize",
      "outputs": [],
      "stateMutability": "nonpayable",
      "type": "function"
    },
    {
      "inputs": [],
      "name": "issueProtocolToken",
      "outputs": [
        {
          "internalType": "uint256",
          "name": "",
          "type": "uint256"
        }
      ],
      "stateMutability": "nonpayable",
      "type": "function"
    },
    {
      "inputs": [
        {
          "internalType": "uint256",
          "name": "_amount",
          "type": "uint256"
        }
      ],
      "name": "obtainProtocolToken",
      "outputs": [],
      "stateMutability": "nonpayable",
      "type": "function"
    },
    {
      "inputs": [],
      "name": "owner",
      "outputs": [
        {
          "internalType": "address",
          "name": "",
          "type": "address"
        }
      ],
      "stateMutability": "view",
      "type": "function"
    },
    {
      "inputs": [],
      "name": "protocolToken",
      "outputs": [
        {
          "internalType": "contract IProtocolToken",
          "name": "",
          "type": "address"
        }
      ],
      "stateMutability": "view",
      "type": "function"
    },
    {
      "inputs": [],
      "name": "protocolTokenSupplyCap",
      "outputs": [
        {
          "internalType": "uint256",
          "name": "",
          "type": "uint256"
        }
      ],
      "stateMutability": "view",
      "type": "function"
    },
    {
      "inputs": [],
      "name": "renounceOwnership",
      "outputs": [],
      "stateMutability": "nonpayable",
      "type": "function"
    },
    {
      "inputs": [
        {
          "internalType": "address",
          "name": "_account",
          "type": "address"
        },
        {
          "internalType": "uint256",
          "name": "_amount",
          "type": "uint256"
        }
      ],
      "name": "sendProtocolToken",
      "outputs": [],
      "stateMutability": "nonpayable",
      "type": "function"
    },
    {
      "inputs": [],
      "name": "stabilityPoolAddress",
      "outputs": [
        {
          "internalType": "address",
          "name": "",
          "type": "address"
        }
      ],
      "stateMutability": "view",
      "type": "function"
    },
    {
      "inputs": [],
      "name": "supplyStartTime",
      "outputs": [
        {
          "internalType": "uint256",
          "name": "",
          "type": "uint256"
        }
      ],
      "stateMutability": "view",
      "type": "function"
    },
    {
      "inputs": [],
      "name": "totalProtocolTokenIssued",
      "outputs": [
        {
          "internalType": "uint256",
          "name": "",
          "type": "uint256"
        }
      ],
      "stateMutability": "view",
      "type": "function"
    },
    {
      "inputs": [
        {
          "internalType": "address",
          "name": "newOwner",
          "type": "address"
        }
      ],
      "name": "transferOwnership",
      "outputs": [],
      "stateMutability": "nonpayable",
      "type": "function"
    },
    {
      "inputs": [],
      "name": "unprotectedIssueProtocolToken",
      "outputs": [
        {
          "internalType": "uint256",
          "name": "",
          "type": "uint256"
        }
      ],
      "stateMutability": "nonpayable",
      "type": "function"
    },
    {
      "inputs": [],
      "name": "updateProtocolTokenSupplyCap",
      "outputs": [],
      "stateMutability": "nonpayable",
      "type": "function"
    }
  ],
  "bytecode": "0x608060405234801561001057600080fd5b50611064806100206000396000f3fe608060405234801561001057600080fd5b50600436106100f65760003560e01c806384e638aa1161009257806384e638aa146101bd5780638da5cb5b146101c55780639d5b044d146101cd5780639e954ef2146101d5578063a20baee6146101dd578063a3f4df7e146101e5578063e1ceeae714610262578063f2fde38b1461026a578063f8543bb314610290576100f6565b80630b622ab2146100fb5780630fc83da31461011f5780631a465fe11461013957806324b40ed0146101415780632eee8bc91461014957806332254b9714610151578063485cc9551461015b578063715018a6146101895780638352d63614610191575b600080fd5b6101036102ad565b604080516001600160a01b039092168252519081900360200190f35b6101276102bc565b60408051918252519081900360200190f35b6101036102c8565b6101276102d7565b6101276102dd565b61015961036a565b005b6101596004803603604081101561017157600080fd5b506001600160a01b03813581169160200135166104cb565b610159610586565b610159600480360360408110156101a757600080fd5b506001600160a01b038135169060200135610620565b6101276106ae565b6101036106b4565b6101276106c3565b6101276106d2565b6101276106d8565b6101ed6106e4565b6040805160208082528351818301528351919283929083019185019080838360005b8381101561022757818101518382015260200161020f565b50505050905090810190601f1680156102545780820380516001836020036101000a031916815260200191505b509250505060405180910390f35b610127610711565b6101596004803603602081101561028057600080fd5b50356001600160a01b0316610750565b610159600480360360208110156102a657600080fd5b5035610841565b6067546001600160a01b031681565b670de0b5809a6f939881565b6066546001600160a01b031681565b60695481565b60006102e76108bf565b600061030f670de0b6b3a764000061030961030061090a565b6065549061096e565b906109d0565b9050600061032860685483610a3790919063ffffffff16565b60688390556040805184815290519192507f253095657378f12e31b9de23bbea40cddbab765dfd86c80f26d4d52cf9d7b76a919081900360200190a191505090565b610372610a94565b6001600160a01b03166103836106b4565b6001600160a01b0316146103cc576040805162461bcd60e51b81526020600482018190526024820152600080516020610fcc833981519152604482015290519081900360640190fd5b606654604080516370a0823160e01b815230600482015290516000926001600160a01b0316916370a08231916024808301926020929190829003018186803b15801561041757600080fd5b505afa15801561042b573d6000803e3d6000fd5b505050506040513d602081101561044157600080fd5b50516065549091508114156104875760405162461bcd60e51b8152600401808060200182810382526029815260200180610f546029913960400191505060405180910390fd5b60658190556000606855426069556040805182815290517f81d8ce7b1678eb5b4be89cd9c81f76087c8e38f41ead97760ed2561beff0d85c9181900360200190a150565b600054610100900460ff16806104e457506104e4610a98565b806104f2575060005460ff16155b61052d5760405162461bcd60e51b815260040180806020018281038252602e815260200180610f7d602e913960400191505060405180910390fd5b600054610100900460ff16158015610558576000805460ff1961ff0019909116610100171660011790555b610560610aa9565b61056a8383610b5b565b60006065558015610581576000805461ff00191690555b505050565b61058e610a94565b6001600160a01b031661059f6106b4565b6001600160a01b0316146105e8576040805162461bcd60e51b81526020600482018190526024820152600080516020610fcc833981519152604482015290519081900360640190fd5b6033546040516000916001600160a01b031690600080516020610fec833981519152908390a3603380546001600160a01b0319169055565b6106286108bf565b6066546040805163a9059cbb60e01b81526001600160a01b038581166004830152602482018590529151919092169163a9059cbb9160448083019260209291908290030181600087803b15801561067e57600080fd5b505af1158015610692573d6000803e3d6000fd5b505050506040513d60208110156106a857600080fd5b50505050565b60655481565b6033546001600160a01b031690565b60006106cd61090a565b905090565b60685481565b670de0b6b3a764000081565b60405180604001604052806011815260200170436f6d6d756e69747949737375616e636560781b81525081565b60008061072b670de0b6b3a764000061030961030061090a565b9050600061074460685483610a3790919063ffffffff16565b60689290925550905090565b610758610a94565b6001600160a01b03166107696106b4565b6001600160a01b0316146107b2576040805162461bcd60e51b81526020600482018190526024820152600080516020610fcc833981519152604482015290519081900360640190fd5b6001600160a01b0381166107f75760405162461bcd60e51b8152600401808060200182810382526026815260200180610f2e6026913960400191505060405180910390fd5b6033546040516001600160a01b03808416921690600080516020610fec83398151915290600090a3603380546001600160a01b0319166001600160a01b0392909216919091179055565b6066546040805163a9059cbb60e01b81523360048201526024810184905290516001600160a01b039092169163a9059cbb916044808201926020929091908290030181600087803b15801561089557600080fd5b505af11580156108a9573d6000803e3d6000fd5b505050506040513d602081101561058157600080fd5b6067546001600160a01b031633146109085760405162461bcd60e51b815260040180806020018281038252602381526020018061100c6023913960400191505060405180910390fd5b565b600080610927603c61030960695442610a3790919063ffffffff16565b9050600061093d670de0b5809a6f939883610c0d565b90506000610953670de0b6b3a764000083610a37565b9050670de0b6b3a764000081111561096757fe5b9250505090565b60008261097d575060006109ca565b8282028284828161098a57fe5b04146109c75760405162461bcd60e51b8152600401808060200182810382526021815260200180610fab6021913960400191505060405180910390fd5b90505b92915050565b6000808211610a26576040805162461bcd60e51b815260206004820152601a60248201527f536166654d6174683a206469766973696f6e206279207a65726f000000000000604482015290519081900360640190fd5b818381610a2f57fe5b049392505050565b600082821115610a8e576040805162461bcd60e51b815260206004820152601e60248201527f536166654d6174683a207375627472616374696f6e206f766572666c6f770000604482015290519081900360640190fd5b50900390565b3390565b6000610aa330610cb6565b15905090565b600054610100900460ff1680610ac25750610ac2610a98565b80610ad0575060005460ff16155b610b0b5760405162461bcd60e51b815260040180806020018281038252602e815260200180610f7d602e913960400191505060405180910390fd5b600054610100900460ff16158015610b36576000805460ff1961ff0019909116610100171660011790555b610b3e610cbc565b610b46610d5c565b8015610b58576000805461ff00191690555b50565b610b6482610e43565b610b6d81610e43565b606680546001600160a01b038085166001600160a01b03199283168117909355606780549185169190921617905560408051918252517f7b0c6ae24561d189fc90b337cbc97aa15d085bef32931237a762e3e528b285b49181900360200190a1604080516001600160a01b038316815290517f82966d27eea39b038ee0fa30cd16532bb24f6e65d31cb58fb227aa5766cdcc7f9181900360200190a15050565b6000631f540500821115610c2357631f54050091505b81610c375750670de0b6b3a76400006109ca565b670de0b6b3a764000083835b6001811115610ca25760028106610c7257610c5e8283610e9e565b9150610c6b8160026109d0565b9050610c9d565b610c7c8284610e9e565b9250610c888283610e9e565b9150610c9a6002610309836001610a37565b90505b610c43565b610cac8284610e9e565b9695505050505050565b3b151590565b600054610100900460ff1680610cd55750610cd5610a98565b80610ce3575060005460ff16155b610d1e5760405162461bcd60e51b815260040180806020018281038252602e815260200180610f7d602e913960400191505060405180910390fd5b600054610100900460ff16158015610b46576000805460ff1961ff0019909116610100171660011790558015610b58576000805461ff001916905550565b600054610100900460ff1680610d755750610d75610a98565b80610d83575060005460ff16155b610dbe5760405162461bcd60e51b815260040180806020018281038252602e815260200180610f7d602e913960400191505060405180910390fd5b600054610100900460ff16158015610de9576000805460ff1961ff0019909116610100171660011790555b6000610df3610a94565b603380546001600160a01b0319166001600160a01b03831690811790915560405191925090600090600080516020610fec833981519152908290a3508015610b58576000805461ff001916905550565b6001600160a01b038116610b58576040805162461bcd60e51b815260206004820152601e60248201527f4163636f756e742063616e6e6f74206265207a65726f20616464726573730000604482015290519081900360640190fd5b600080610eab848461096e565b9050610ecb670de0b6b3a7640000610309836706f05b59d3b20000610ed3565b949350505050565b6000828201838110156109c7576040805162461bcd60e51b815260206004820152601b60248201527f536166654d6174683a206164646974696f6e206f766572666c6f770000000000604482015290519081900360640190fdfe4f776e61626c653a206e6577206f776e657220697320746865207a65726f2061646472657373436f6d6d756e69747949737375616e63653a20737570706c7920636170206e6f74206368616e676564496e697469616c697a61626c653a20636f6e747261637420697320616c726561647920696e697469616c697a6564536166654d6174683a206d756c7469706c69636174696f6e206f766572666c6f774f776e61626c653a2063616c6c6572206973206e6f7420746865206f776e65728be0079c531659141344cd1fd0a4f28419497f9722a3daafe3b4186f6b6457e0436f6d6d756e69747949737375616e63653a2063616c6c6572206973206e6f74205350a2646970667358221220e63af639360a371c62374e1b4547f99ebc1ecaadd77998b9a8ce09f24f2cf18864736f6c63430007060033",
  "linkReferences": {},
  "deployedLinkReferences": {}
}