{
  "_format": "hh-sol-artifact-1",
  "contractName": "CommunityIssuanceTester",
  "sourceName": "contracts/TestContracts/CommunityIssuanceTester.sol",
  "abi": [
    {
      "anonymous": false,
      "inputs": [
        {
          "indexed": true,
          "internalType": "address",
          "name": "previousOwner",
          "type": "address"
        },
        {
          "indexed": true,
          "internalType": "address",
          "name": "newOwner",
          "type": "address"
        }
      ],
      "name": "OwnershipTransferred",
      "type": "event"
    },
    {
      "anonymous": false,
      "inputs": [
        {
          "indexed": false,
          "internalType": "address",
          "name": "_protocolTokenAddress",
          "type": "address"
        }
      ],
      "name": "ProtocolTokenAddressSet",
      "type": "event"
    },
    {
      "anonymous": false,
      "inputs": [
        {
          "indexed": false,
          "internalType": "address",
          "name": "_stabilityPoolAddress",
          "type": "address"
        }
      ],
      "name": "StabilityPoolAddressSet",
      "type": "event"
    },
    {
      "anonymous": false,
      "inputs": [
        {
          "indexed": false,
          "internalType": "uint256",
          "name": "_totalProtocolTokenIssued",
          "type": "uint256"
        }
      ],
      "name": "TotalProtocolTokenIssuedUpdated",
      "type": "event"
    },
    {
      "inputs": [],
      "name": "DECIMAL_PRECISION",
      "outputs": [
        {
          "internalType": "uint256",
          "name": "",
          "type": "uint256"
        }
      ],
      "stateMutability": "view",
      "type": "function"
    },
    {
      "inputs": [],
      "name": "ISSUANCE_FACTOR",
      "outputs": [
        {
          "internalType": "uint256",
          "name": "",
          "type": "uint256"
        }
      ],
      "stateMutability": "view",
      "type": "function"
    },
    {
      "inputs": [],
      "name": "NAME",
      "outputs": [
        {
          "internalType": "string",
          "name": "",
          "type": "string"
        }
      ],
      "stateMutability": "view",
      "type": "function"
    },
    {
      "inputs": [],
      "name": "SECONDS_IN_ONE_MINUTE",
      "outputs": [
        {
          "internalType": "uint256",
          "name": "",
          "type": "uint256"
        }
      ],
      "stateMutability": "view",
      "type": "function"
    },
    {
      "inputs": [],
      "name": "deploymentTime",
      "outputs": [
        {
          "internalType": "uint256",
          "name": "",
          "type": "uint256"
        }
      ],
      "stateMutability": "view",
      "type": "function"
    },
    {
      "inputs": [],
      "name": "getCumulativeIssuanceFraction",
      "outputs": [
        {
          "internalType": "uint256",
          "name": "",
          "type": "uint256"
        }
      ],
      "stateMutability": "view",
      "type": "function"
    },
    {
      "inputs": [
        {
          "internalType": "address",
          "name": "_protocolTokenAddress",
          "type": "address"
        },
        {
          "internalType": "address",
          "name": "_stabilityPoolAddress",
          "type": "address"
        }
      ],
      "name": "initialize",
      "outputs": [],
      "stateMutability": "nonpayable",
      "type": "function"
    },
    {
      "inputs": [],
      "name": "issueProtocolToken",
      "outputs": [
        {
          "internalType": "uint256",
          "name": "",
          "type": "uint256"
        }
      ],
      "stateMutability": "nonpayable",
      "type": "function"
    },
    {
      "inputs": [
        {
          "internalType": "uint256",
          "name": "_amount",
          "type": "uint256"
        }
      ],
      "name": "obtainProtocolToken",
      "outputs": [],
      "stateMutability": "nonpayable",
      "type": "function"
    },
    {
      "inputs": [],
      "name": "owner",
      "outputs": [
        {
          "internalType": "address",
          "name": "",
          "type": "address"
        }
      ],
      "stateMutability": "view",
      "type": "function"
    },
    {
      "inputs": [],
      "name": "protocolToken",
      "outputs": [
        {
          "internalType": "contract IProtocolToken",
          "name": "",
          "type": "address"
        }
      ],
      "stateMutability": "view",
      "type": "function"
    },
    {
      "inputs": [],
      "name": "protocolTokenSupplyCap",
      "outputs": [
        {
          "internalType": "uint256",
          "name": "",
          "type": "uint256"
        }
      ],
      "stateMutability": "view",
      "type": "function"
    },
    {
      "inputs": [],
      "name": "renounceOwnership",
      "outputs": [],
      "stateMutability": "nonpayable",
      "type": "function"
    },
    {
      "inputs": [
        {
          "internalType": "address",
          "name": "_account",
          "type": "address"
        },
        {
          "internalType": "uint256",
          "name": "_amount",
          "type": "uint256"
        }
      ],
      "name": "sendProtocolToken",
      "outputs": [],
      "stateMutability": "nonpayable",
      "type": "function"
    },
    {
      "inputs": [],
      "name": "stabilityPoolAddress",
      "outputs": [
        {
          "internalType": "address",
          "name": "",
          "type": "address"
        }
      ],
      "stateMutability": "view",
      "type": "function"
    },
    {
      "inputs": [],
      "name": "totalProtocolTokenIssued",
      "outputs": [
        {
          "internalType": "uint256",
          "name": "",
          "type": "uint256"
        }
      ],
      "stateMutability": "view",
      "type": "function"
    },
    {
      "inputs": [
        {
          "internalType": "address",
          "name": "newOwner",
          "type": "address"
        }
      ],
      "name": "transferOwnership",
      "outputs": [],
      "stateMutability": "nonpayable",
      "type": "function"
    },
    {
      "inputs": [],
      "name": "unprotectedIssueProtocolToken",
      "outputs": [
        {
          "internalType": "uint256",
          "name": "",
          "type": "uint256"
        }
      ],
      "stateMutability": "nonpayable",
      "type": "function"
    }
  ],
  "bytecode": "0x60a060405234801561001057600080fd5b5042608052608051610f236100346000398061060f528061080b5250610f236000f3fe608060405234801561001057600080fd5b50600436106100f65760003560e01c80638da5cb5b116100925780638da5cb5b146101bd5780639d5b044d146101c55780639e954ef2146101cd578063a20baee6146101d5578063a3f4df7e146101dd578063e1ceeae71461025a578063ecda10f514610262578063f2fde38b1461026a578063f8543bb314610290576100f6565b80630b622ab2146100fb5780630fc83da31461011f5780631a465fe1146101395780632eee8bc914610141578063485cc9551461014957806361ec893d14610179578063715018a6146101815780638352d6361461018957806384e638aa146101b5575b600080fd5b6101036102ad565b604080516001600160a01b039092168252519081900360200190f35b6101276102bc565b60408051918252519081900360200190f35b6101036102c8565b6101276102d7565b6101776004803603604081101561015f57600080fd5b506001600160a01b038135811691602001351661036d565b005b610127610423565b610177610428565b6101776004803603604081101561019f57600080fd5b506001600160a01b0381351690602001356104d4565b610127610562565b610103610571565b610127610580565b61012761058f565b610127610595565b6101e56105a1565b6040805160208082528351818301528351919283929083019185019080838360005b8381101561021f578181015183820152602001610207565b50505050905090810190601f16801561024c5780820380516001836020036101000a031916815260200191505b509250505060405180910390f35b6101276105ce565b61012761060d565b6101776004803603602081101561028057600080fd5b50356001600160a01b0316610631565b610177600480360360208110156102a657600080fd5b5035610734565b6066546001600160a01b031681565b670de0b5809a6f939881565b6065546001600160a01b031681565b60006102e16107b2565b6000610312670de0b6b3a764000061030c6102fa6107fd565b6a1a784379d99db42000000090610876565b906108d8565b9050600061032b6067548361093f90919063ffffffff16565b60678390556040805184815290519192507f253095657378f12e31b9de23bbea40cddbab765dfd86c80f26d4d52cf9d7b76a919081900360200190a191505090565b600054610100900460ff1680610386575061038661099c565b80610394575060005460ff16155b6103cf5760405162461bcd60e51b815260040180806020018281038252602e815260200180610e5c602e913960400191505060405180910390fd5b600054610100900460ff161580156103fa576000805460ff1961ff0019909116610100171660011790555b6104026109ad565b61040c8383610a5f565b801561041e576000805461ff00191690555b505050565b603c81565b610430610b11565b6001600160a01b0316610441610571565b6001600160a01b03161461049c576040805162461bcd60e51b815260206004820181905260248201527f4f776e61626c653a2063616c6c6572206973206e6f7420746865206f776e6572604482015290519081900360640190fd5b6033546040516000916001600160a01b031690600080516020610eab833981519152908390a3603380546001600160a01b0319169055565b6104dc6107b2565b6065546040805163a9059cbb60e01b81526001600160a01b038581166004830152602482018590529151919092169163a9059cbb9160448083019260209291908290030181600087803b15801561053257600080fd5b505af1158015610546573d6000803e3d6000fd5b505050506040513d602081101561055c57600080fd5b50505050565b6a1a784379d99db42000000081565b6033546001600160a01b031690565b600061058a6107fd565b905090565b60675481565b670de0b6b3a764000081565b60405180604001604052806011815260200170436f6d6d756e69747949737375616e636560781b81525081565b6000806105e8670de0b6b3a764000061030c6102fa6107fd565b905060006106016067548361093f90919063ffffffff16565b60679290925550905090565b7f000000000000000000000000000000000000000000000000000000000000000081565b610639610b11565b6001600160a01b031661064a610571565b6001600160a01b0316146106a5576040805162461bcd60e51b815260206004820181905260248201527f4f776e61626c653a2063616c6c6572206973206e6f7420746865206f776e6572604482015290519081900360640190fd5b6001600160a01b0381166106ea5760405162461bcd60e51b8152600401808060200182810382526026815260200180610e366026913960400191505060405180910390fd5b6033546040516001600160a01b03808416921690600080516020610eab83398151915290600090a3603380546001600160a01b0319166001600160a01b0392909216919091179055565b6065546040805163a9059cbb60e01b81523360048201526024810184905290516001600160a01b039092169163a9059cbb916044808201926020929091908290030181600087803b15801561078857600080fd5b505af115801561079c573d6000803e3d6000fd5b505050506040513d602081101561041e57600080fd5b6066546001600160a01b031633146107fb5760405162461bcd60e51b8152600401808060200182810382526023815260200180610ecb6023913960400191505060405180910390fd5b565b60008061082f603c61030c427f000000000000000000000000000000000000000000000000000000000000000061093f565b90506000610845670de0b5809a6f939883610b15565b9050600061085b670de0b6b3a76400008361093f565b9050670de0b6b3a764000081111561086f57fe5b9250505090565b600082610885575060006108d2565b8282028284828161089257fe5b04146108cf5760405162461bcd60e51b8152600401808060200182810382526021815260200180610e8a6021913960400191505060405180910390fd5b90505b92915050565b600080821161092e576040805162461bcd60e51b815260206004820152601a60248201527f536166654d6174683a206469766973696f6e206279207a65726f000000000000604482015290519081900360640190fd5b81838161093757fe5b049392505050565b600082821115610996576040805162461bcd60e51b815260206004820152601e60248201527f536166654d6174683a207375627472616374696f6e206f766572666c6f770000604482015290519081900360640190fd5b50900390565b60006109a730610bbe565b15905090565b600054610100900460ff16806109c657506109c661099c565b806109d4575060005460ff16155b610a0f5760405162461bcd60e51b815260040180806020018281038252602e815260200180610e5c602e913960400191505060405180910390fd5b600054610100900460ff16158015610a3a576000805460ff1961ff0019909116610100171660011790555b610a42610bc4565b610a4a610c64565b8015610a5c576000805461ff00191690555b50565b610a6882610d4b565b610a7181610d4b565b606580546001600160a01b038085166001600160a01b03199283168117909355606680549185169190921617905560408051918252517f8b70fff6eb19dda13b7b98f7e1b6aff53cc8a27c0ffe6282cc22727fdcd4e2319181900360200190a1604080516001600160a01b038316815290517f45c53611bc8ba9e11f4f8173bda9e3faf89c395ddb83f9a55230b156828db3159181900360200190a15050565b3390565b6000631f540500821115610b2b57631f54050091505b81610b3f5750670de0b6b3a76400006108d2565b670de0b6b3a764000083835b6001811115610baa5760028106610b7a57610b668283610da6565b9150610b738160026108d8565b9050610ba5565b610b848284610da6565b9250610b908283610da6565b9150610ba2600261030c83600161093f565b90505b610b4b565b610bb48284610da6565b9695505050505050565b3b151590565b600054610100900460ff1680610bdd5750610bdd61099c565b80610beb575060005460ff16155b610c265760405162461bcd60e51b815260040180806020018281038252602e815260200180610e5c602e913960400191505060405180910390fd5b600054610100900460ff16158015610a4a576000805460ff1961ff0019909116610100171660011790558015610a5c576000805461ff001916905550565b600054610100900460ff1680610c7d5750610c7d61099c565b80610c8b575060005460ff16155b610cc65760405162461bcd60e51b815260040180806020018281038252602e815260200180610e5c602e913960400191505060405180910390fd5b600054610100900460ff16158015610cf1576000805460ff1961ff0019909116610100171660011790555b6000610cfb610b11565b603380546001600160a01b0319166001600160a01b03831690811790915560405191925090600090600080516020610eab833981519152908290a3508015610a5c576000805461ff001916905550565b6001600160a01b038116610a5c576040805162461bcd60e51b815260206004820152601e60248201527f4163636f756e742063616e6e6f74206265207a65726f20616464726573730000604482015290519081900360640190fd5b600080610db38484610876565b9050610dd3670de0b6b3a764000061030c836706f05b59d3b20000610ddb565b949350505050565b6000828201838110156108cf576040805162461bcd60e51b815260206004820152601b60248201527f536166654d6174683a206164646974696f6e206f766572666c6f770000000000604482015290519081900360640190fdfe4f776e61626c653a206e6577206f776e657220697320746865207a65726f2061646472657373496e697469616c697a61626c653a20636f6e747261637420697320616c726561647920696e697469616c697a6564536166654d6174683a206d756c7469706c69636174696f6e206f766572666c6f778be0079c531659141344cd1fd0a4f28419497f9722a3daafe3b4186f6b6457e0436f6d6d756e69747949737375616e63653a2063616c6c6572206973206e6f74205350a264697066735822122016080cba4c203476b5ae20398614646b6443573baa276e82ce797812a99bedef64736f6c63430007060033",
  "linkReferences": {},
  "deployedLinkReferences": {}
}