{
  "_format": "hh-sol-artifact-1",
  "contractName": "CommunityIssuanceTester",
  "sourceName": "contracts/TestContracts/CommunityIssuanceTester.sol",
  "abi": [
    {
      "anonymous": false,
      "inputs": [
        {
          "indexed": true,
          "internalType": "address",
          "name": "previousOwner",
          "type": "address"
        },
        {
          "indexed": true,
          "internalType": "address",
          "name": "newOwner",
          "type": "address"
        }
      ],
      "name": "OwnershipTransferred",
      "type": "event"
    },
    {
      "anonymous": false,
      "inputs": [
        {
          "indexed": false,
          "internalType": "address",
          "name": "_protocolTokenAddress",
          "type": "address"
        }
      ],
      "name": "ProtocolTokenAddressChanged",
      "type": "event"
    },
    {
      "anonymous": false,
      "inputs": [
        {
          "indexed": false,
          "internalType": "uint256",
          "name": "_protocolTokenSupplyCap",
          "type": "uint256"
        }
      ],
      "name": "ProtocolTokenSupplyCapUpdated",
      "type": "event"
    },
    {
      "anonymous": false,
      "inputs": [
        {
          "indexed": false,
          "internalType": "address",
          "name": "_stabilityPoolAddress",
          "type": "address"
        }
      ],
      "name": "StabilityPoolAddressChanged",
      "type": "event"
    },
    {
      "anonymous": false,
      "inputs": [
        {
          "indexed": false,
          "internalType": "uint256",
          "name": "_totalProtocolTokenIssued",
          "type": "uint256"
        }
      ],
      "name": "TotalProtocolTokenIssuedUpdated",
      "type": "event"
    },
    {
      "inputs": [],
      "name": "DECIMAL_PRECISION",
      "outputs": [
        {
          "internalType": "uint256",
          "name": "",
          "type": "uint256"
        }
      ],
      "stateMutability": "view",
      "type": "function"
    },
    {
      "inputs": [],
      "name": "ISSUANCE_FACTOR",
      "outputs": [
        {
          "internalType": "uint256",
          "name": "",
          "type": "uint256"
        }
      ],
      "stateMutability": "view",
      "type": "function"
    },
    {
      "inputs": [],
      "name": "NAME",
      "outputs": [
        {
          "internalType": "string",
          "name": "",
          "type": "string"
        }
      ],
      "stateMutability": "view",
      "type": "function"
    },
    {
      "inputs": [],
      "name": "SECONDS_IN_ONE_MINUTE",
      "outputs": [
        {
          "internalType": "uint256",
          "name": "",
          "type": "uint256"
        }
      ],
      "stateMutability": "view",
      "type": "function"
    },
    {
      "inputs": [],
      "name": "getCumulativeIssuanceFraction",
      "outputs": [
        {
          "internalType": "uint256",
          "name": "",
          "type": "uint256"
        }
      ],
      "stateMutability": "view",
      "type": "function"
    },
    {
      "inputs": [
        {
          "internalType": "address",
          "name": "_protocolTokenAddress",
          "type": "address"
        },
        {
          "internalType": "address",
          "name": "_stabilityPoolAddress",
          "type": "address"
        }
      ],
      "name": "initialize",
      "outputs": [],
      "stateMutability": "nonpayable",
      "type": "function"
    },
    {
      "inputs": [],
      "name": "issueProtocolToken",
      "outputs": [
        {
          "internalType": "uint256",
          "name": "",
          "type": "uint256"
        }
      ],
      "stateMutability": "nonpayable",
      "type": "function"
    },
    {
      "inputs": [
        {
          "internalType": "uint256",
          "name": "_amount",
          "type": "uint256"
        }
      ],
      "name": "obtainProtocolToken",
      "outputs": [],
      "stateMutability": "nonpayable",
      "type": "function"
    },
    {
      "inputs": [],
      "name": "owner",
      "outputs": [
        {
          "internalType": "address",
          "name": "",
          "type": "address"
        }
      ],
      "stateMutability": "view",
      "type": "function"
    },
    {
      "inputs": [],
      "name": "protocolToken",
      "outputs": [
        {
          "internalType": "contract IProtocolToken",
          "name": "",
          "type": "address"
        }
      ],
      "stateMutability": "view",
      "type": "function"
    },
    {
      "inputs": [],
      "name": "protocolTokenSupplyCap",
      "outputs": [
        {
          "internalType": "uint256",
          "name": "",
          "type": "uint256"
        }
      ],
      "stateMutability": "view",
      "type": "function"
    },
    {
      "inputs": [],
      "name": "renounceOwnership",
      "outputs": [],
      "stateMutability": "nonpayable",
      "type": "function"
    },
    {
      "inputs": [
        {
          "internalType": "address",
          "name": "_account",
          "type": "address"
        },
        {
          "internalType": "uint256",
          "name": "_amount",
          "type": "uint256"
        }
      ],
      "name": "sendProtocolToken",
      "outputs": [],
      "stateMutability": "nonpayable",
      "type": "function"
    },
    {
      "inputs": [],
      "name": "stabilityPoolAddress",
      "outputs": [
        {
          "internalType": "address",
          "name": "",
          "type": "address"
        }
      ],
      "stateMutability": "view",
      "type": "function"
    },
    {
      "inputs": [],
      "name": "supplyStartTime",
      "outputs": [
        {
          "internalType": "uint256",
          "name": "",
          "type": "uint256"
        }
      ],
      "stateMutability": "view",
      "type": "function"
    },
    {
      "inputs": [],
      "name": "totalProtocolTokenIssued",
      "outputs": [
        {
          "internalType": "uint256",
          "name": "",
          "type": "uint256"
        }
      ],
      "stateMutability": "view",
      "type": "function"
    },
    {
      "inputs": [
        {
          "internalType": "address",
          "name": "newOwner",
          "type": "address"
        }
      ],
      "name": "transferOwnership",
      "outputs": [],
      "stateMutability": "nonpayable",
      "type": "function"
    },
    {
      "inputs": [],
      "name": "unprotectedIssueProtocolToken",
      "outputs": [
        {
          "internalType": "uint256",
          "name": "",
          "type": "uint256"
        }
      ],
      "stateMutability": "nonpayable",
      "type": "function"
    },
    {
      "inputs": [],
      "name": "updateProtocolTokenSupplyCap",
      "outputs": [],
      "stateMutability": "nonpayable",
      "type": "function"
    }
  ],
  "bytecode": "0x608060405234801561001057600080fd5b5061108c806100206000396000f3fe608060405234801561001057600080fd5b50600436106101115760003560e01c80638352d636116100ad578063a20baee611610071578063a20baee614610200578063a3f4df7e14610208578063e1ceeae714610285578063f2fde38b1461028d578063f8543bb3146102b357610111565b80638352d636146101b457806384e638aa146101e05780638da5cb5b146101e85780639d5b044d146101f05780639e954ef2146101f857610111565b80630b622ab2146101165780630fc83da31461013a5780631a465fe11461015457806324b40ed01461015c5780632eee8bc91461016457806332254b971461016c578063485cc9551461017657806361ec893d146101a4578063715018a6146101ac575b600080fd5b61011e6102d0565b604080516001600160a01b039092168252519081900360200190f35b6101426102df565b60408051918252519081900360200190f35b61011e6102eb565b6101426102fa565b610142610300565b61017461038d565b005b6101746004803603604081101561018c57600080fd5b506001600160a01b03813581169160200135166104ee565b6101426105a9565b6101746105ae565b610174600480360360408110156101ca57600080fd5b506001600160a01b038135169060200135610648565b6101426106d6565b61011e6106dc565b6101426106eb565b6101426106fa565b610142610700565b61021061070c565b6040805160208082528351818301528351919283929083019185019080838360005b8381101561024a578181015183820152602001610232565b50505050905090810190601f1680156102775780820380516001836020036101000a031916815260200191505b509250505060405180910390f35b610142610739565b610174600480360360208110156102a357600080fd5b50356001600160a01b0316610778565b610174600480360360208110156102c957600080fd5b5035610869565b6067546001600160a01b031681565b670de0b5809a6f939881565b6066546001600160a01b031681565b60695481565b600061030a6108e7565b6000610332670de0b6b3a764000061032c610323610932565b60655490610996565b906109f8565b9050600061034b60685483610a5f90919063ffffffff16565b60688390556040805184815290519192507f253095657378f12e31b9de23bbea40cddbab765dfd86c80f26d4d52cf9d7b76a919081900360200190a191505090565b610395610abc565b6001600160a01b03166103a66106dc565b6001600160a01b0316146103ef576040805162461bcd60e51b81526020600482018190526024820152600080516020610ff4833981519152604482015290519081900360640190fd5b606654604080516370a0823160e01b815230600482015290516000926001600160a01b0316916370a08231916024808301926020929190829003018186803b15801561043a57600080fd5b505afa15801561044e573d6000803e3d6000fd5b505050506040513d602081101561046457600080fd5b50516065549091508114156104aa5760405162461bcd60e51b8152600401808060200182810382526029815260200180610f7c6029913960400191505060405180910390fd5b60658190556000606855426069556040805182815290517f81d8ce7b1678eb5b4be89cd9c81f76087c8e38f41ead97760ed2561beff0d85c9181900360200190a150565b600054610100900460ff16806105075750610507610ac0565b80610515575060005460ff16155b6105505760405162461bcd60e51b815260040180806020018281038252602e815260200180610fa5602e913960400191505060405180910390fd5b600054610100900460ff1615801561057b576000805460ff1961ff0019909116610100171660011790555b610583610ad1565b61058d8383610b83565b600060655580156105a4576000805461ff00191690555b505050565b603c81565b6105b6610abc565b6001600160a01b03166105c76106dc565b6001600160a01b031614610610576040805162461bcd60e51b81526020600482018190526024820152600080516020610ff4833981519152604482015290519081900360640190fd5b6033546040516000916001600160a01b031690600080516020611014833981519152908390a3603380546001600160a01b0319169055565b6106506108e7565b6066546040805163a9059cbb60e01b81526001600160a01b038581166004830152602482018590529151919092169163a9059cbb9160448083019260209291908290030181600087803b1580156106a657600080fd5b505af11580156106ba573d6000803e3d6000fd5b505050506040513d60208110156106d057600080fd5b50505050565b60655481565b6033546001600160a01b031690565b60006106f5610932565b905090565b60685481565b670de0b6b3a764000081565b60405180604001604052806011815260200170436f6d6d756e69747949737375616e636560781b81525081565b600080610753670de0b6b3a764000061032c610323610932565b9050600061076c60685483610a5f90919063ffffffff16565b60689290925550905090565b610780610abc565b6001600160a01b03166107916106dc565b6001600160a01b0316146107da576040805162461bcd60e51b81526020600482018190526024820152600080516020610ff4833981519152604482015290519081900360640190fd5b6001600160a01b03811661081f5760405162461bcd60e51b8152600401808060200182810382526026815260200180610f566026913960400191505060405180910390fd5b6033546040516001600160a01b0380841692169060008051602061101483398151915290600090a3603380546001600160a01b0319166001600160a01b0392909216919091179055565b6066546040805163a9059cbb60e01b81523360048201526024810184905290516001600160a01b039092169163a9059cbb916044808201926020929091908290030181600087803b1580156108bd57600080fd5b505af11580156108d1573d6000803e3d6000fd5b505050506040513d60208110156105a457600080fd5b6067546001600160a01b031633146109305760405162461bcd60e51b81526004018080602001828103825260238152602001806110346023913960400191505060405180910390fd5b565b60008061094f603c61032c60695442610a5f90919063ffffffff16565b90506000610965670de0b5809a6f939883610c35565b9050600061097b670de0b6b3a764000083610a5f565b9050670de0b6b3a764000081111561098f57fe5b9250505090565b6000826109a5575060006109f2565b828202828482816109b257fe5b04146109ef5760405162461bcd60e51b8152600401808060200182810382526021815260200180610fd36021913960400191505060405180910390fd5b90505b92915050565b6000808211610a4e576040805162461bcd60e51b815260206004820152601a60248201527f536166654d6174683a206469766973696f6e206279207a65726f000000000000604482015290519081900360640190fd5b818381610a5757fe5b049392505050565b600082821115610ab6576040805162461bcd60e51b815260206004820152601e60248201527f536166654d6174683a207375627472616374696f6e206f766572666c6f770000604482015290519081900360640190fd5b50900390565b3390565b6000610acb30610cde565b15905090565b600054610100900460ff1680610aea5750610aea610ac0565b80610af8575060005460ff16155b610b335760405162461bcd60e51b815260040180806020018281038252602e815260200180610fa5602e913960400191505060405180910390fd5b600054610100900460ff16158015610b5e576000805460ff1961ff0019909116610100171660011790555b610b66610ce4565b610b6e610d84565b8015610b80576000805461ff00191690555b50565b610b8c82610e6b565b610b9581610e6b565b606680546001600160a01b038085166001600160a01b03199283168117909355606780549185169190921617905560408051918252517f7b0c6ae24561d189fc90b337cbc97aa15d085bef32931237a762e3e528b285b49181900360200190a1604080516001600160a01b038316815290517f82966d27eea39b038ee0fa30cd16532bb24f6e65d31cb58fb227aa5766cdcc7f9181900360200190a15050565b6000631f540500821115610c4b57631f54050091505b81610c5f5750670de0b6b3a76400006109f2565b670de0b6b3a764000083835b6001811115610cca5760028106610c9a57610c868283610ec6565b9150610c938160026109f8565b9050610cc5565b610ca48284610ec6565b9250610cb08283610ec6565b9150610cc2600261032c836001610a5f565b90505b610c6b565b610cd48284610ec6565b9695505050505050565b3b151590565b600054610100900460ff1680610cfd5750610cfd610ac0565b80610d0b575060005460ff16155b610d465760405162461bcd60e51b815260040180806020018281038252602e815260200180610fa5602e913960400191505060405180910390fd5b600054610100900460ff16158015610b6e576000805460ff1961ff0019909116610100171660011790558015610b80576000805461ff001916905550565b600054610100900460ff1680610d9d5750610d9d610ac0565b80610dab575060005460ff16155b610de65760405162461bcd60e51b815260040180806020018281038252602e815260200180610fa5602e913960400191505060405180910390fd5b600054610100900460ff16158015610e11576000805460ff1961ff0019909116610100171660011790555b6000610e1b610abc565b603380546001600160a01b0319166001600160a01b03831690811790915560405191925090600090600080516020611014833981519152908290a3508015610b80576000805461ff001916905550565b6001600160a01b038116610b80576040805162461bcd60e51b815260206004820152601e60248201527f4163636f756e742063616e6e6f74206265207a65726f20616464726573730000604482015290519081900360640190fd5b600080610ed38484610996565b9050610ef3670de0b6b3a764000061032c836706f05b59d3b20000610efb565b949350505050565b6000828201838110156109ef576040805162461bcd60e51b815260206004820152601b60248201527f536166654d6174683a206164646974696f6e206f766572666c6f770000000000604482015290519081900360640190fdfe4f776e61626c653a206e6577206f776e657220697320746865207a65726f2061646472657373436f6d6d756e69747949737375616e63653a20737570706c7920636170206e6f74206368616e676564496e697469616c697a61626c653a20636f6e747261637420697320616c726561647920696e697469616c697a6564536166654d6174683a206d756c7469706c69636174696f6e206f766572666c6f774f776e61626c653a2063616c6c6572206973206e6f7420746865206f776e65728be0079c531659141344cd1fd0a4f28419497f9722a3daafe3b4186f6b6457e0436f6d6d756e69747949737375616e63653a2063616c6c6572206973206e6f74205350a2646970667358221220f464d170e8558aada869f2f0630261c641403ce90955f460589d9879b58e130564736f6c63430007060033",
  "linkReferences": {},
  "deployedLinkReferences": {}
}