{
  "_format": "hh-sol-artifact-1",
  "contractName": "DebtToken",
  "sourceName": "contracts/DebtToken.sol",
  "abi": [
    {
      "inputs": [
        {
          "internalType": "address",
          "name": "_troveManagerAddress",
          "type": "address"
        },
        {
          "internalType": "address",
          "name": "_stabilityPoolAddress",
          "type": "address"
        },
        {
          "internalType": "address",
          "name": "_borrowerOperationsAddress",
          "type": "address"
        }
      ],
      "stateMutability": "nonpayable",
      "type": "constructor"
    },
    {
      "anonymous": false,
      "inputs": [
        {
          "indexed": true,
          "internalType": "address",
          "name": "owner",
          "type": "address"
        },
        {
          "indexed": true,
          "internalType": "address",
          "name": "spender",
          "type": "address"
        },
        {
          "indexed": false,
          "internalType": "uint256",
          "name": "value",
          "type": "uint256"
        }
      ],
      "name": "Approval",
      "type": "event"
    },
    {
      "anonymous": false,
      "inputs": [
        {
          "indexed": false,
          "internalType": "address",
          "name": "_newBorrowerOperationsAddress",
          "type": "address"
        }
      ],
      "name": "BorrowerOperationsAddressChanged",
      "type": "event"
    },
    {
      "anonymous": false,
      "inputs": [
        {
          "indexed": false,
          "internalType": "address",
          "name": "_newStabilityPoolAddress",
          "type": "address"
        }
      ],
      "name": "StabilityPoolAddressChanged",
      "type": "event"
    },
    {
      "anonymous": false,
      "inputs": [
        {
          "indexed": true,
          "internalType": "address",
          "name": "from",
          "type": "address"
        },
        {
          "indexed": true,
          "internalType": "address",
          "name": "to",
          "type": "address"
        },
        {
          "indexed": false,
          "internalType": "uint256",
          "name": "value",
          "type": "uint256"
        }
      ],
      "name": "Transfer",
      "type": "event"
    },
    {
      "anonymous": false,
      "inputs": [
        {
          "indexed": false,
          "internalType": "address",
          "name": "_troveManagerAddress",
          "type": "address"
        }
      ],
      "name": "TroveManagerAddressChanged",
      "type": "event"
    },
    {
      "inputs": [
        {
          "internalType": "address",
          "name": "owner",
          "type": "address"
        },
        {
          "internalType": "address",
          "name": "spender",
          "type": "address"
        }
      ],
      "name": "allowance",
      "outputs": [
        {
          "internalType": "uint256",
          "name": "",
          "type": "uint256"
        }
      ],
      "stateMutability": "view",
      "type": "function"
    },
    {
      "inputs": [
        {
          "internalType": "address",
          "name": "spender",
          "type": "address"
        },
        {
          "internalType": "uint256",
          "name": "amount",
          "type": "uint256"
        }
      ],
      "name": "approve",
      "outputs": [
        {
          "internalType": "bool",
          "name": "",
          "type": "bool"
        }
      ],
      "stateMutability": "nonpayable",
      "type": "function"
    },
    {
      "inputs": [
        {
          "internalType": "address",
          "name": "account",
          "type": "address"
        }
      ],
      "name": "balanceOf",
      "outputs": [
        {
          "internalType": "uint256",
          "name": "",
          "type": "uint256"
        }
      ],
      "stateMutability": "view",
      "type": "function"
    },
    {
      "inputs": [],
      "name": "borrowerOperationsAddress",
      "outputs": [
        {
          "internalType": "address",
          "name": "",
          "type": "address"
        }
      ],
      "stateMutability": "view",
      "type": "function"
    },
    {
      "inputs": [
        {
          "internalType": "address",
          "name": "_account",
          "type": "address"
        },
        {
          "internalType": "uint256",
          "name": "_amount",
          "type": "uint256"
        }
      ],
      "name": "burn",
      "outputs": [],
      "stateMutability": "nonpayable",
      "type": "function"
    },
    {
      "inputs": [],
      "name": "decimals",
      "outputs": [
        {
          "internalType": "uint8",
          "name": "",
          "type": "uint8"
        }
      ],
      "stateMutability": "pure",
      "type": "function"
    },
    {
      "inputs": [
        {
          "internalType": "address",
          "name": "spender",
          "type": "address"
        },
        {
          "internalType": "uint256",
          "name": "subtractedValue",
          "type": "uint256"
        }
      ],
      "name": "decreaseAllowance",
      "outputs": [
        {
          "internalType": "bool",
          "name": "",
          "type": "bool"
        }
      ],
      "stateMutability": "nonpayable",
      "type": "function"
    },
    {
      "inputs": [],
      "name": "domainSeparator",
      "outputs": [
        {
          "internalType": "bytes32",
          "name": "",
          "type": "bytes32"
        }
      ],
      "stateMutability": "view",
      "type": "function"
    },
    {
      "inputs": [
        {
          "internalType": "address",
          "name": "spender",
          "type": "address"
        },
        {
          "internalType": "uint256",
          "name": "addedValue",
          "type": "uint256"
        }
      ],
      "name": "increaseAllowance",
      "outputs": [
        {
          "internalType": "bool",
          "name": "",
          "type": "bool"
        }
      ],
      "stateMutability": "nonpayable",
      "type": "function"
    },
    {
      "inputs": [
        {
          "internalType": "address",
          "name": "_account",
          "type": "address"
        },
        {
          "internalType": "uint256",
          "name": "_amount",
          "type": "uint256"
        }
      ],
      "name": "mint",
      "outputs": [],
      "stateMutability": "nonpayable",
      "type": "function"
    },
    {
      "inputs": [],
      "name": "name",
      "outputs": [
        {
          "internalType": "string",
          "name": "",
          "type": "string"
        }
      ],
      "stateMutability": "pure",
      "type": "function"
    },
    {
      "inputs": [
        {
          "internalType": "address",
          "name": "owner",
          "type": "address"
        }
      ],
      "name": "nonces",
      "outputs": [
        {
          "internalType": "uint256",
          "name": "",
          "type": "uint256"
        }
      ],
      "stateMutability": "view",
      "type": "function"
    },
    {
      "inputs": [
        {
          "internalType": "address",
          "name": "owner",
          "type": "address"
        },
        {
          "internalType": "address",
          "name": "spender",
          "type": "address"
        },
        {
          "internalType": "uint256",
          "name": "amount",
          "type": "uint256"
        },
        {
          "internalType": "uint256",
          "name": "deadline",
          "type": "uint256"
        },
        {
          "internalType": "uint8",
          "name": "v",
          "type": "uint8"
        },
        {
          "internalType": "bytes32",
          "name": "r",
          "type": "bytes32"
        },
        {
          "internalType": "bytes32",
          "name": "s",
          "type": "bytes32"
        }
      ],
      "name": "permit",
      "outputs": [],
      "stateMutability": "nonpayable",
      "type": "function"
    },
    {
      "inputs": [],
      "name": "permitTypeHash",
      "outputs": [
        {
          "internalType": "bytes32",
          "name": "",
          "type": "bytes32"
        }
      ],
      "stateMutability": "pure",
      "type": "function"
    },
    {
      "inputs": [
        {
          "internalType": "address",
          "name": "_poolAddress",
          "type": "address"
        },
        {
          "internalType": "address",
          "name": "_receiver",
          "type": "address"
        },
        {
          "internalType": "uint256",
          "name": "_amount",
          "type": "uint256"
        }
      ],
      "name": "returnFromPool",
      "outputs": [],
      "stateMutability": "nonpayable",
      "type": "function"
    },
    {
      "inputs": [
        {
          "internalType": "address",
          "name": "_sender",
          "type": "address"
        },
        {
          "internalType": "address",
          "name": "_poolAddress",
          "type": "address"
        },
        {
          "internalType": "uint256",
          "name": "_amount",
          "type": "uint256"
        }
      ],
      "name": "sendToPool",
      "outputs": [],
      "stateMutability": "nonpayable",
      "type": "function"
    },
    {
      "inputs": [],
      "name": "stabilityPoolAddress",
      "outputs": [
        {
          "internalType": "address",
          "name": "",
          "type": "address"
        }
      ],
      "stateMutability": "view",
      "type": "function"
    },
    {
      "inputs": [],
      "name": "symbol",
      "outputs": [
        {
          "internalType": "string",
          "name": "",
          "type": "string"
        }
      ],
      "stateMutability": "pure",
      "type": "function"
    },
    {
      "inputs": [],
      "name": "totalSupply",
      "outputs": [
        {
          "internalType": "uint256",
          "name": "",
          "type": "uint256"
        }
      ],
      "stateMutability": "view",
      "type": "function"
    },
    {
      "inputs": [
        {
          "internalType": "address",
          "name": "recipient",
          "type": "address"
        },
        {
          "internalType": "uint256",
          "name": "amount",
          "type": "uint256"
        }
      ],
      "name": "transfer",
      "outputs": [
        {
          "internalType": "bool",
          "name": "",
          "type": "bool"
        }
      ],
      "stateMutability": "nonpayable",
      "type": "function"
    },
    {
      "inputs": [
        {
          "internalType": "address",
          "name": "sender",
          "type": "address"
        },
        {
          "internalType": "address",
          "name": "recipient",
          "type": "address"
        },
        {
          "internalType": "uint256",
          "name": "amount",
          "type": "uint256"
        }
      ],
      "name": "transferFrom",
      "outputs": [
        {
          "internalType": "bool",
          "name": "",
          "type": "bool"
        }
      ],
      "stateMutability": "nonpayable",
      "type": "function"
    },
    {
      "inputs": [],
      "name": "troveManagerAddress",
      "outputs": [
        {
          "internalType": "address",
          "name": "",
          "type": "address"
        }
      ],
      "stateMutability": "view",
      "type": "function"
    },
    {
      "inputs": [],
      "name": "version",
      "outputs": [
        {
          "internalType": "string",
          "name": "",
          "type": "string"
        }
      ],
      "stateMutability": "pure",
      "type": "function"
    }
  ],
  "bytecode": "0x6101606040523480156200001257600080fd5b506040516200189c3803806200189c833981810160405260608110156200003857600080fd5b5080516020820151604090920151909190620000548362000234565b6200005f8262000234565b6200006a8162000234565b6001600160601b0319606084901b1661010052604080516001600160a01b038516815290517f143219c9e69b09e07e095fcc889b43d8f46ca892bba65f08dc3a0050869a56789181900360200190a16001600160601b0319606083901b1661012052604080516001600160a01b038416815290517f82966d27eea39b038ee0fa30cd16532bb24f6e65d31cb58fb227aa5766cdcc7f9181900360200190a16001600160601b0319606082901b1661014052604080516001600160a01b038316815290517f3ca631ffcd2a9b5d9ae18543fc82f58eb4ca33af9e6ab01b7a8e95331e6ed9859181900360200190a1604080518082018252601a81527f55534420666f722046696c65636f696e20436f6d6d756e697479000000000000602091820152815180830190925260018252603160f81b9101527fc0412597c9d60cbc3de18204991e00bf2f567b025e527ce64b3713f7afab420760c08190527fc89efdaa54c0f20c7adf612882df0950f5a951637e0307cdcb4c672f298b8bc660e0819052620001f5620002e9565b60a052620002257f8b73c3c69bb8fe3d512ecc4cf759cc79239f7b179b0ffacaa9a75d522b39400f8383620002ed565b60805250620003519350505050565b6001600160a01b03811662000290576040805162461bcd60e51b815260206004820152601e60248201527f4163636f756e742063616e6e6f74206265207a65726f20616464726573730000604482015290519081900360640190fd5b803b80620002e5576040805162461bcd60e51b815260206004820181905260248201527f4163636f756e7420636f64652073697a652063616e6e6f74206265207a65726f604482015290519081900360640190fd5b5050565b4690565b6000838383620002fc620002e9565b3060405160200180868152602001858152602001848152602001838152602001826001600160a01b03168152602001955050505050506040516020818303038152906040528051906020012090509392505050565b60805160a05160c05160e0516101005160601c6101205160601c6101405160601c6114bc620003e06000398061076a5280610d5a5280610ed05280610fbf5250806105365280610b4c5280610cdf5280611024528061113652508061067a5280610b1a5280610d1c5280610ff1525080610a62525080610a415250806109c75250806109f752506114bc6000f3fe608060405234801561001057600080fd5b506004361061014d5760003560e01c80635a4d28bb116100c3578063a9059cbb1161007c578063a9059cbb146103f5578063b7f8cf9b14610421578063bb997bac14610429578063d505accf1461045f578063dd62ed3e146104b0578063f698da25146104de5761014d565b80635a4d28bb1461034157806370a08231146103495780637ecebe001461036f57806395d89b41146103955780639dc29fac1461039d578063a457c2d7146103c95761014d565b806320c582be1161011557806320c582be1461025557806323b872dd1461028d578063313ce567146102c357806339509351146102e157806340c10f191461030d57806354fd4d50146103395761014d565b806306fdde0314610152578063095ea7b3146101cf5780630b622ab21461020f57806310ce43bd1461023357806318160ddd1461024d575b600080fd5b61015a6104e6565b6040805160208082528351818301528351919283929083019185019080838360005b8381101561019457818101518382015260200161017c565b50505050905090810190601f1680156101c15780820380516001836020036101000a031916815260200191505b509250505060405180910390f35b6101fb600480360360408110156101e557600080fd5b506001600160a01b03813516906020013561051e565b604080519115158252519081900360200190f35b610217610534565b604080516001600160a01b039092168252519081900360200190f35b61023b610558565b60408051918252519081900360200190f35b61023b61057c565b61028b6004803603606081101561026b57600080fd5b506001600160a01b03813581169160208101359091169060400135610582565b005b6101fb600480360360608110156102a357600080fd5b506001600160a01b0381358116916020810135909116906040013561059a565b6102cb61060c565b6040805160ff9092168252519081900360200190f35b6101fb600480360360408110156102f757600080fd5b506001600160a01b038135169060200135610611565b61028b6004803603604081101561032357600080fd5b506001600160a01b038135169060200135610647565b61015a61065d565b610217610678565b61023b6004803603602081101561035f57600080fd5b50356001600160a01b031661069c565b61023b6004803603602081101561038557600080fd5b50356001600160a01b03166106b7565b61015a6106d2565b61028b600480360360408110156103b357600080fd5b506001600160a01b0381351690602001356106f1565b6101fb600480360360408110156103df57600080fd5b506001600160a01b038135169060200135610703565b6101fb6004803603604081101561040b57600080fd5b506001600160a01b038135169060200135610752565b610217610768565b61028b6004803603606081101561043f57600080fd5b506001600160a01b0381358116916020810135909116906040013561078c565b61028b600480360360e081101561047557600080fd5b506001600160a01b03813581169160208101359091169060408101359060608101359060ff6080820135169060a08101359060c00135610794565b61023b600480360360408110156104c657600080fd5b506001600160a01b0381358116916020013516610998565b61023b6109c3565b60408051808201909152601a81527f55534420666f722046696c65636f696e20436f6d6d756e69747900000000000060208201525b90565b600061052b338484610a8d565b50600192915050565b7f000000000000000000000000000000000000000000000000000000000000000081565b7f6e71edae12b1b97f4d1f60370fef10105fa2faae0126114a169c64845d6126c990565b60005490565b61058a610b0f565b610595838383610bab565b505050565b60006105a583610c81565b6105b0848484610bab565b61060284336105fd856040518060600160405280602881526020016113df602891396001600160a01b038a1660009081526003602090815260408083203384529091529020549190610dcd565b610a8d565b5060019392505050565b601290565b3360008181526003602090815260408083206001600160a01b0387168452909152812054909161052b9185906105fd9086610e64565b61064f610ec5565b6106598282610f2c565b5050565b6040805180820190915260018152603160f81b602082015290565b7f000000000000000000000000000000000000000000000000000000000000000081565b6001600160a01b031660009081526002602052604090205490565b6001600160a01b031660009081526001602052604090205490565b604080518082019091526005815264555344464360d81b602082015290565b6106f9610fb4565b6106598282611081565b600061052b33846105fd85604051806060016040528060258152602001611462602591393360009081526003602090815260408083206001600160a01b038d1684529091529020549190610dcd565b600061075d83610c81565b61052b338484610bab565b7f000000000000000000000000000000000000000000000000000000000000000081565b61058a61112b565b428410156107e9576040805162461bcd60e51b815260206004820152601b60248201527f44656274546f6b656e3a206578706972656420646561646c696e650000000000604482015290519081900360640190fd5b60006107f36109c3565b6001600160a01b03808a166000818152600160208181526040808420805480850190915581517f6e71edae12b1b97f4d1f60370fef10105fa2faae0126114a169c64845d6126c98185015280830196909652958e166060860152608085018d905260a085019590955260c08085018c90528551808603909101815260e08501865280519082012061190160f01b6101008601526101028501969096526101228085019690965284518085039096018652610142840180865286519682019690962095839052610162840180865286905260ff8a166101828501526101a284018990526101c284018890529351949550909390926101e2808401939192601f1981019281900390910190855afa158015610910573d6000803e3d6000fd5b505050602060405103519050886001600160a01b0316816001600160a01b031614610982576040805162461bcd60e51b815260206004820152601c60248201527f44656274546f6b656e3a20696e76616c6964207369676e617475726500000000604482015290519081900360640190fd5b61098d898989610a8d565b505050505050505050565b6001600160a01b03918216600090815260036020908152604080832093909416825291909152205490565b60007f00000000000000000000000000000000000000000000000000000000000000006109ee611192565b1415610a1b57507f000000000000000000000000000000000000000000000000000000000000000061051b565b610a867f8b73c3c69bb8fe3d512ecc4cf759cc79239f7b179b0ffacaa9a75d522b39400f7f00000000000000000000000000000000000000000000000000000000000000007f0000000000000000000000000000000000000000000000000000000000000000611196565b905061051b565b6001600160a01b038316610a9d57fe5b6001600160a01b038216610aad57fe5b6001600160a01b03808416600081815260036020908152604080832094871680845294825291829020859055815185815291517f8c5be1e5ebec7d5bd14f71427d1e84f3dd0314c0f7b2291e5b200ac8c7c3b9259281900390910190a3505050565b336001600160a01b037f0000000000000000000000000000000000000000000000000000000000000000161480610b6e5750336001600160a01b037f000000000000000000000000000000000000000000000000000000000000000016145b610ba95760405162461bcd60e51b815260040180806020018281038252603b815260200180611427603b913960400191505060405180910390fd5b565b6001600160a01b038316610bbb57fe5b6001600160a01b038216610bcb57fe5b610c0881604051806060016040528060268152602001611336602691396001600160a01b0386166000908152600260205260409020549190610dcd565b6001600160a01b038085166000908152600260205260408082209390935590841681522054610c379082610e64565b6001600160a01b03808416600081815260026020908152604091829020949094558051858152905191939287169260008051602061140783398151915292918290030190a3505050565b6001600160a01b03811615801590610ca257506001600160a01b0381163014155b610cdd5760405162461bcd60e51b815260040180806020018281038252605981526020018061135c6059913960600191505060405180910390fd5b7f00000000000000000000000000000000000000000000000000000000000000006001600160a01b0316816001600160a01b031614158015610d5157507f00000000000000000000000000000000000000000000000000000000000000006001600160a01b0316816001600160a01b031614155b8015610d8f57507f00000000000000000000000000000000000000000000000000000000000000006001600160a01b0316816001600160a01b031614155b610dca5760405162461bcd60e51b815260040180806020018281038252605c8152602001806112af605c913960600191505060405180910390fd5b50565b60008184841115610e5c5760405162461bcd60e51b81526004018080602001828103825283818151815260200191508051906020019080838360005b83811015610e21578181015183820152602001610e09565b50505050905090810190601f168015610e4e5780820380516001836020036101000a031916815260200191505b509250505060405180910390fd5b505050900390565b600082820183811015610ebe576040805162461bcd60e51b815260206004820152601b60248201527f536166654d6174683a206164646974696f6e206f766572666c6f770000000000604482015290519081900360640190fd5b9392505050565b336001600160a01b037f00000000000000000000000000000000000000000000000000000000000000001614610ba95760405162461bcd60e51b815260040180806020018281038252602b81526020018061130b602b913960400191505060405180910390fd5b6001600160a01b038216610f3c57fe5b600054610f499082610e64565b60009081556001600160a01b038316815260026020526040902054610f6e9082610e64565b6001600160a01b03831660008181526002602090815260408083209490945583518581529351929391926000805160206114078339815191529281900390910190a35050565b336001600160a01b037f00000000000000000000000000000000000000000000000000000000000000001614806110135750336001600160a01b037f000000000000000000000000000000000000000000000000000000000000000016145b806110465750336001600160a01b037f000000000000000000000000000000000000000000000000000000000000000016145b610ba95760405162461bcd60e51b815260040180806020018281038252605281526020018061125d6052913960600191505060405180910390fd5b6001600160a01b03821661109157fe5b6110ce8160405180606001604052806022815260200161123b602291396001600160a01b0385166000908152600260205260409020549190610dcd565b6001600160a01b038316600090815260026020526040812091909155546110f590826111f8565b60009081556040805183815290516001600160a01b03851691600080516020611407833981519152919081900360200190a35050565b336001600160a01b037f00000000000000000000000000000000000000000000000000000000000000001614610ba95760405162461bcd60e51b815260040180806020018281038252602a8152602001806113b5602a913960400191505060405180910390fd5b4690565b60008383836111a3611192565b3060405160200180868152602001858152602001848152602001838152602001826001600160a01b03168152602001955050505050506040516020818303038152906040528051906020012090509392505050565b6000610ebe83836040518060400160405280601e81526020017f536166654d6174683a207375627472616374696f6e206f766572666c6f770000815250610dcd56fe45524332303a206275726e20616d6f756e7420657863656564732062616c616e636544656274546f6b656e3a2043616c6c6572206973206e65697468657220426f72726f7765724f7065726174696f6e73206e6f722054726f76654d616e61676572206e6f722053746162696c697479506f6f6c44656274546f6b656e3a2043616e6e6f74207472616e7366657220746f6b656e73206469726563746c7920746f207468652053746162696c697479506f6f6c2c2054726f76654d616e61676572206f7220426f72726f7765724f707344656274546f6b656e3a2043616c6c6572206973206e6f7420426f72726f7765724f7065726174696f6e7345524332303a207472616e7366657220616d6f756e7420657863656564732062616c616e636544656274546f6b656e3a2043616e6e6f74207472616e7366657220746f6b656e73206469726563746c7920746f20746865204465627420746f6b656e20636f6e7472616374206f7220746865207a65726f206164647265737344656274546f6b656e3a2043616c6c6572206973206e6f74207468652053746162696c697479506f6f6c45524332303a207472616e7366657220616d6f756e74206578636565647320616c6c6f77616e6365ddf252ad1be2c89b69c2b068fc378daa952ba7f163c4a11628f55a4df523b3ef44656274546f6b656e3a2043616c6c6572206973206e6569746865722054726f76654d616e61676572206e6f722053746162696c697479506f6f6c45524332303a2064656372656173656420616c6c6f77616e63652062656c6f77207a65726fa26469706673582212209d4f00224603506422621ce099e821827f50879b2f32fe80909f974365d79c5f64736f6c63430007060033",
  "linkReferences": {},
  "deployedLinkReferences": {}
}