{
  "_format": "hh-sol-artifact-1",
  "contractName": "DebtToken",
  "sourceName": "contracts/DebtToken.sol",
  "abi": [
    {
      "inputs": [],
      "stateMutability": "nonpayable",
      "type": "constructor"
    },
    {
      "anonymous": false,
      "inputs": [
        {
          "indexed": true,
          "internalType": "address",
          "name": "owner",
          "type": "address"
        },
        {
          "indexed": true,
          "internalType": "address",
          "name": "spender",
          "type": "address"
        },
        {
          "indexed": false,
          "internalType": "uint256",
          "name": "value",
          "type": "uint256"
        }
      ],
      "name": "Approval",
      "type": "event"
    },
    {
      "anonymous": false,
      "inputs": [
        {
          "indexed": false,
          "internalType": "address",
          "name": "_newBorrowerOperationsAddress",
          "type": "address"
        }
      ],
      "name": "BorrowerOperationsAddressChanged",
      "type": "event"
    },
    {
      "anonymous": false,
      "inputs": [
        {
          "indexed": true,
          "internalType": "address",
          "name": "previousOwner",
          "type": "address"
        },
        {
          "indexed": true,
          "internalType": "address",
          "name": "newOwner",
          "type": "address"
        }
      ],
      "name": "OwnershipTransferred",
      "type": "event"
    },
    {
      "anonymous": false,
      "inputs": [
        {
          "indexed": false,
          "internalType": "address",
          "name": "_newStabilityPoolAddress",
          "type": "address"
        }
      ],
      "name": "StabilityPoolAddressChanged",
      "type": "event"
    },
    {
      "anonymous": false,
      "inputs": [
        {
          "indexed": true,
          "internalType": "address",
          "name": "from",
          "type": "address"
        },
        {
          "indexed": true,
          "internalType": "address",
          "name": "to",
          "type": "address"
        },
        {
          "indexed": false,
          "internalType": "uint256",
          "name": "value",
          "type": "uint256"
        }
      ],
      "name": "Transfer",
      "type": "event"
    },
    {
      "anonymous": false,
      "inputs": [
        {
          "indexed": false,
          "internalType": "address",
          "name": "_troveManagerAddress",
          "type": "address"
        }
      ],
      "name": "TroveManagerAddressChanged",
      "type": "event"
    },
    {
      "inputs": [
        {
          "internalType": "address",
          "name": "_owner",
          "type": "address"
        },
        {
          "internalType": "address",
          "name": "_spender",
          "type": "address"
        }
      ],
      "name": "allowance",
      "outputs": [
        {
          "internalType": "uint256",
          "name": "",
          "type": "uint256"
        }
      ],
      "stateMutability": "view",
      "type": "function"
    },
    {
      "inputs": [
        {
          "internalType": "address",
          "name": "_spender",
          "type": "address"
        },
        {
          "internalType": "uint256",
          "name": "_amount",
          "type": "uint256"
        }
      ],
      "name": "approve",
      "outputs": [
        {
          "internalType": "bool",
          "name": "",
          "type": "bool"
        }
      ],
      "stateMutability": "nonpayable",
      "type": "function"
    },
    {
      "inputs": [
        {
          "internalType": "address",
          "name": "_account",
          "type": "address"
        }
      ],
      "name": "balanceOf",
      "outputs": [
        {
          "internalType": "uint256",
          "name": "",
          "type": "uint256"
        }
      ],
      "stateMutability": "view",
      "type": "function"
    },
    {
      "inputs": [],
      "name": "borrowerOperationsAddress",
      "outputs": [
        {
          "internalType": "address",
          "name": "",
          "type": "address"
        }
      ],
      "stateMutability": "view",
      "type": "function"
    },
    {
      "inputs": [
        {
          "internalType": "address",
          "name": "_account",
          "type": "address"
        },
        {
          "internalType": "uint256",
          "name": "_amount",
          "type": "uint256"
        }
      ],
      "name": "burn",
      "outputs": [],
      "stateMutability": "nonpayable",
      "type": "function"
    },
    {
      "inputs": [],
      "name": "decimals",
      "outputs": [
        {
          "internalType": "uint8",
          "name": "",
          "type": "uint8"
        }
      ],
      "stateMutability": "pure",
      "type": "function"
    },
    {
      "inputs": [],
      "name": "domainSeparator",
      "outputs": [
        {
          "internalType": "bytes32",
          "name": "",
          "type": "bytes32"
        }
      ],
      "stateMutability": "view",
      "type": "function"
    },
    {
      "inputs": [
        {
          "internalType": "address",
          "name": "_troveManagerAddress",
          "type": "address"
        },
        {
          "internalType": "address",
          "name": "_stabilityPoolAddress",
          "type": "address"
        },
        {
          "internalType": "address",
          "name": "_borrowerOperationsAddress",
          "type": "address"
        }
      ],
      "name": "initialize",
      "outputs": [],
      "stateMutability": "nonpayable",
      "type": "function"
    },
    {
      "inputs": [
        {
          "internalType": "address",
          "name": "_account",
          "type": "address"
        },
        {
          "internalType": "uint256",
          "name": "_amount",
          "type": "uint256"
        }
      ],
      "name": "mint",
      "outputs": [],
      "stateMutability": "nonpayable",
      "type": "function"
    },
    {
      "inputs": [],
      "name": "name",
      "outputs": [
        {
          "internalType": "string",
          "name": "",
          "type": "string"
        }
      ],
      "stateMutability": "pure",
      "type": "function"
    },
    {
      "inputs": [
        {
          "internalType": "address",
          "name": "_owner",
          "type": "address"
        }
      ],
      "name": "nonces",
      "outputs": [
        {
          "internalType": "uint256",
          "name": "",
          "type": "uint256"
        }
      ],
      "stateMutability": "view",
      "type": "function"
    },
    {
      "inputs": [],
      "name": "owner",
      "outputs": [
        {
          "internalType": "address",
          "name": "",
          "type": "address"
        }
      ],
      "stateMutability": "view",
      "type": "function"
    },
    {
      "inputs": [
        {
          "internalType": "address",
          "name": "_owner",
          "type": "address"
        },
        {
          "internalType": "address",
          "name": "_spender",
          "type": "address"
        },
        {
          "internalType": "uint256",
          "name": "_amount",
          "type": "uint256"
        },
        {
          "internalType": "uint256",
          "name": "_deadline",
          "type": "uint256"
        },
        {
          "internalType": "uint8",
          "name": "_v",
          "type": "uint8"
        },
        {
          "internalType": "bytes32",
          "name": "_r",
          "type": "bytes32"
        },
        {
          "internalType": "bytes32",
          "name": "_s",
          "type": "bytes32"
        }
      ],
      "name": "permit",
      "outputs": [],
      "stateMutability": "nonpayable",
      "type": "function"
    },
    {
      "inputs": [],
      "name": "permitTypeHash",
      "outputs": [
        {
          "internalType": "bytes32",
          "name": "",
          "type": "bytes32"
        }
      ],
      "stateMutability": "pure",
      "type": "function"
    },
    {
      "inputs": [],
      "name": "renounceOwnership",
      "outputs": [],
      "stateMutability": "nonpayable",
      "type": "function"
    },
    {
      "inputs": [
        {
          "internalType": "address",
          "name": "_poolAddress",
          "type": "address"
        },
        {
          "internalType": "address",
          "name": "_receiver",
          "type": "address"
        },
        {
          "internalType": "uint256",
          "name": "_amount",
          "type": "uint256"
        }
      ],
      "name": "returnFromPool",
      "outputs": [],
      "stateMutability": "nonpayable",
      "type": "function"
    },
    {
      "inputs": [
        {
          "internalType": "address",
          "name": "_sender",
          "type": "address"
        },
        {
          "internalType": "address",
          "name": "_poolAddress",
          "type": "address"
        },
        {
          "internalType": "uint256",
          "name": "_amount",
          "type": "uint256"
        }
      ],
      "name": "sendToPool",
      "outputs": [],
      "stateMutability": "nonpayable",
      "type": "function"
    },
    {
      "inputs": [],
      "name": "stabilityPoolAddress",
      "outputs": [
        {
          "internalType": "address",
          "name": "",
          "type": "address"
        }
      ],
      "stateMutability": "view",
      "type": "function"
    },
    {
      "inputs": [],
      "name": "symbol",
      "outputs": [
        {
          "internalType": "string",
          "name": "",
          "type": "string"
        }
      ],
      "stateMutability": "pure",
      "type": "function"
    },
    {
      "inputs": [],
      "name": "totalSupply",
      "outputs": [
        {
          "internalType": "uint256",
          "name": "",
          "type": "uint256"
        }
      ],
      "stateMutability": "view",
      "type": "function"
    },
    {
      "inputs": [
        {
          "internalType": "address",
          "name": "_recipient",
          "type": "address"
        },
        {
          "internalType": "uint256",
          "name": "_amount",
          "type": "uint256"
        }
      ],
      "name": "transfer",
      "outputs": [
        {
          "internalType": "bool",
          "name": "",
          "type": "bool"
        }
      ],
      "stateMutability": "nonpayable",
      "type": "function"
    },
    {
      "inputs": [
        {
          "internalType": "address",
          "name": "_sender",
          "type": "address"
        },
        {
          "internalType": "address",
          "name": "_recipient",
          "type": "address"
        },
        {
          "internalType": "uint256",
          "name": "_amount",
          "type": "uint256"
        }
      ],
      "name": "transferFrom",
      "outputs": [
        {
          "internalType": "bool",
          "name": "",
          "type": "bool"
        }
      ],
      "stateMutability": "nonpayable",
      "type": "function"
    },
    {
      "inputs": [
        {
          "internalType": "address",
          "name": "newOwner",
          "type": "address"
        }
      ],
      "name": "transferOwnership",
      "outputs": [],
      "stateMutability": "nonpayable",
      "type": "function"
    },
    {
      "inputs": [],
      "name": "troveManagerAddress",
      "outputs": [
        {
          "internalType": "address",
          "name": "",
          "type": "address"
        }
      ],
      "stateMutability": "view",
      "type": "function"
    },
    {
      "inputs": [],
      "name": "version",
      "outputs": [
        {
          "internalType": "string",
          "name": "",
          "type": "string"
        }
      ],
      "stateMutability": "pure",
      "type": "function"
    }
  ],
  "bytecode": "0x60806040523480156200001157600080fd5b50600054610100900460ff16806200002e57506200002e620000c0565b806200003d575060005460ff16155b6200007a5760405162461bcd60e51b815260040180806020018281038252602e81526020018062001cd0602e913960400191505060405180910390fd5b600054610100900460ff16158015620000a6576000805460ff1961ff0019909116610100171660011790555b8015620000b9576000805461ff00191690555b50620000e4565b6000620000d830620000de60201b62000bf11760201c565b15905090565b3b151590565b611bdc80620000f46000396000f3fe608060405234801561001057600080fd5b50600436106101635760003560e01c8063715018a6116100ce578063b7f8cf9b11610087578063b7f8cf9b146103ef578063bb997bac146103f7578063c0c53b8b1461042d578063d505accf14610465578063dd62ed3e146104b6578063f2fde38b146104e4578063f698da251461050a57610163565b8063715018a6146103595780637ecebe00146103615780638da5cb5b1461038757806395d89b411461038f5780639dc29fac14610397578063a9059cbb146103c357610163565b806323b872dd1161012057806323b872dd146102a3578063313ce567146102d957806340c10f19146102f757806354fd4d50146103235780635a4d28bb1461032b57806370a082311461033357610163565b806306fdde0314610168578063095ea7b3146101e55780630b622ab21461022557806310ce43bd1461024957806318160ddd1461026357806320c582be1461026b575b600080fd5b610170610512565b6040805160208082528351818301528351919283929083019185019080838360005b838110156101aa578181015183820152602001610192565b50505050905090810190601f1680156101d75780820380516001836020036101000a031916815260200191505b509250505060405180910390f35b610211600480360360408110156101fb57600080fd5b506001600160a01b038135169060200135610547565b604080519115158252519081900360200190f35b61022d61055d565b604080516001600160a01b039092168252519081900360200190f35b61025161056c565b60408051918252519081900360200190f35b610251610590565b6102a16004803603606081101561028157600080fd5b506001600160a01b03813581169160208101359091169060400135610596565b005b610211600480360360608110156102b957600080fd5b506001600160a01b038135811691602081013590911690604001356105ae565b6102e1610620565b6040805160ff9092168252519081900360200190f35b6102a16004803603604081101561030d57600080fd5b506001600160a01b038135169060200135610625565b61017061063b565b61022d610656565b6102516004803603602081101561034957600080fd5b50356001600160a01b0316610665565b6102a1610680565b6102516004803603602081101561037757600080fd5b50356001600160a01b031661072c565b61022d610747565b610170610756565b6102a1600480360360408110156103ad57600080fd5b506001600160a01b038135169060200135610775565b610211600480360360408110156103d957600080fd5b506001600160a01b038135169060200135610787565b61022d61079d565b6102a16004803603606081101561040d57600080fd5b506001600160a01b038135811691602081013590911690604001356107ac565b6102a16004803603606081101561044357600080fd5b506001600160a01b0381358116916020810135821691604090910135166107b4565b6102a1600480360360e081101561047b57600080fd5b506001600160a01b03813581169160208101359091169060408101359060608101359060ff6080820135169060a08101359060c0013561086c565b610251600480360360408110156104cc57600080fd5b506001600160a01b0381358116916020013516610a6e565b6102a1600480360360208110156104fa57600080fd5b50356001600160a01b0316610a99565b610251610b9c565b60408051808201909152601a81527955534420666f722046696c65636f696e20436f6d6d756e69747960301b60208201525b90565b6000610554338484610bf7565b50600192915050565b606e546001600160a01b031681565b7f6e71edae12b1b97f4d1f60370fef10105fa2faae0126114a169c64845d6126c990565b60655490565b61059e610ce3565b6105a9838383610d43565b505050565b60006105b983610e83565b6105c4848484610d43565b610616843361061185604051806060016040528060288152602001611a9a602891396001600160a01b038a166000908152606c602090815260408083203384529091529020549190610f63565b610bf7565b5060019392505050565b601290565b61062d610ffa565b6106378282611043565b5050565b6040805180820190915260018152603160f81b602082015290565b606d546001600160a01b031681565b6001600160a01b03166000908152606b602052604090205490565b610688611117565b6001600160a01b0316610699610747565b6001600160a01b0316146106f4576040805162461bcd60e51b815260206004820181905260248201527f4f776e61626c653a2063616c6c6572206973206e6f7420746865206f776e6572604482015290519081900360640190fd5b6033546040516000916001600160a01b031690600080516020611ac2833981519152908390a3603380546001600160a01b0319169055565b6001600160a01b03166000908152606a602052604090205490565b6033546001600160a01b031690565b604080518082019091526005815264555344464360d81b602082015290565b61077d61111b565b610637828261118e565b600061079283610e83565b610554338484610d43565b606f546001600160a01b031681565b61059e61126c565b600054610100900460ff16806107cd57506107cd6112b5565b806107db575060005460ff16155b6108165760405162461bcd60e51b815260040180806020018281038252602e815260200180611a42602e913960400191505060405180910390fd5b600054610100900460ff16158015610841576000805460ff1961ff0019909116610100171660011790555b6108496112c6565b610854848484611377565b8015610866576000805461ff00191690555b50505050565b428410156108c1576040805162461bcd60e51b815260206004820152601b60248201527f44656274546f6b656e3a206578706972656420646561646c696e650000000000604482015290519081900360640190fd5b60006108cb610b9c565b6001600160a01b03808a166000818152606a602090815260408083208054600180820190925582517f6e71edae12b1b97f4d1f60370fef10105fa2faae0126114a169c64845d6126c98186015280840196909652958e166060860152608085018d905260a085019590955260c08085018c90528151808603909101815260e08501825280519083012061190160f01b6101008601526101028501969096526101228085019690965280518085039096018652610142840180825286519683019690962095839052610162840180825286905260ff8a166101828501526101a284018990526101c284018890525194955090936101e280840193601f198301929081900390910190855afa1580156109e6573d6000803e3d6000fd5b505050602060405103519050886001600160a01b0316816001600160a01b031614610a58576040805162461bcd60e51b815260206004820152601c60248201527f44656274546f6b656e3a20696e76616c6964207369676e617475726500000000604482015290519081900360640190fd5b610a63898989610bf7565b505050505050505050565b6001600160a01b039182166000908152606c6020908152604080832093909416825291909152205490565b610aa1611117565b6001600160a01b0316610ab2610747565b6001600160a01b031614610b0d576040805162461bcd60e51b815260206004820181905260248201527f4f776e61626c653a2063616c6c6572206973206e6f7420746865206f776e6572604482015290519081900360640190fd5b6001600160a01b038116610b525760405162461bcd60e51b81526004018080602001828103825260268152602001806118a26026913960400191505060405180910390fd5b6033546040516001600160a01b03808416921690600080516020611ac283398151915290600090a3603380546001600160a01b0319166001600160a01b0392909216919091179055565b6000606754610ba9611556565b1415610bb85750606654610544565b610bea7f8b73c3c69bb8fe3d512ecc4cf759cc79239f7b179b0ffacaa9a75d522b39400f60001b60685460695461155a565b9050610544565b3b151590565b6001600160a01b038316610c3c5760405162461bcd60e51b8152600401808060200182810382526024815260200180611b486024913960400191505060405180910390fd5b6001600160a01b038216610c815760405162461bcd60e51b81526004018080602001828103825260228152602001806118c86022913960400191505060405180910390fd5b6001600160a01b038084166000818152606c6020908152604080832094871680845294825291829020859055815185815291517f8c5be1e5ebec7d5bd14f71427d1e84f3dd0314c0f7b2291e5b200ac8c7c3b9259281900390910190a3505050565b606d546001600160a01b0316331480610d065750606e546001600160a01b031633145b610d415760405162461bcd60e51b815260040180806020018281038252603b815260200180611b6c603b913960400191505060405180910390fd5b565b6001600160a01b038316610d885760405162461bcd60e51b8152600401808060200182810382526025815260200180611b236025913960400191505060405180910390fd5b6001600160a01b038216610dcd5760405162461bcd60e51b815260040180806020018281038252602381526020018061185d6023913960400191505060405180910390fd5b610e0a816040518060600160405280602681526020016119c3602691396001600160a01b0386166000908152606b60205260409020549190610f63565b6001600160a01b038085166000908152606b60205260408082209390935590841681522054610e3990826115bc565b6001600160a01b038084166000818152606b60209081526040918290209490945580518581529051919392871692600080516020611ae283398151915292918290030190a3505050565b6001600160a01b03811615801590610ea457506001600160a01b0381163014155b610edf5760405162461bcd60e51b81526004018080602001828103825260598152602001806119e96059913960600191505060405180910390fd5b606e546001600160a01b03828116911614801590610f0b5750606d546001600160a01b03828116911614155b8015610f255750606f546001600160a01b03828116911614155b610f605760405162461bcd60e51b815260040180806020018281038252605c81526020018061193c605c913960600191505060405180910390fd5b50565b60008184841115610ff25760405162461bcd60e51b81526004018080602001828103825283818151815260200191508051906020019080838360005b83811015610fb7578181015183820152602001610f9f565b50505050905090810190601f168015610fe45780820380516001836020036101000a031916815260200191505b509250505060405180910390fd5b505050900390565b606f546001600160a01b03163314610d415760405162461bcd60e51b815260040180806020018281038252602b815260200180611998602b913960400191505060405180910390fd5b6001600160a01b03821661109e576040805162461bcd60e51b815260206004820152601f60248201527f45524332303a206d696e7420746f20746865207a65726f206164647265737300604482015290519081900360640190fd5b6065546110ab90826115bc565b6065556001600160a01b0382166000908152606b60205260409020546110d190826115bc565b6001600160a01b0383166000818152606b60209081526040808320949094558351858152935192939192600080516020611ae28339815191529281900390910190a35050565b3390565b606f546001600160a01b031633148061113e5750606d546001600160a01b031633145b806111535750606e546001600160a01b031633145b610d415760405162461bcd60e51b81526004018080602001828103825260528152602001806118ea6052913960600191505060405180910390fd5b6001600160a01b0382166111d35760405162461bcd60e51b8152600401808060200182810382526021815260200180611b026021913960400191505060405180910390fd5b61121081604051806060016040528060228152602001611880602291396001600160a01b0385166000908152606b60205260409020549190610f63565b6001600160a01b0383166000908152606b6020526040902055606554611236908261161d565b6065556040805182815290516000916001600160a01b03851691600080516020611ae28339815191529181900360200190a35050565b606e546001600160a01b03163314610d415760405162461bcd60e51b815260040180806020018281038252602a815260200180611a70602a913960400191505060405180910390fd5b60006112c030610bf1565b15905090565b600054610100900460ff16806112df57506112df6112b5565b806112ed575060005460ff16155b6113285760405162461bcd60e51b815260040180806020018281038252602e815260200180611a42602e913960400191505060405180910390fd5b600054610100900460ff16158015611353576000805460ff1961ff0019909116610100171660011790555b61135b61167a565b61136361171a565b8015610f60576000805461ff001916905550565b61138083611801565b61138982611801565b61139281611801565b606d80546001600160a01b0385166001600160a01b0319909116811790915560408051918252517f143219c9e69b09e07e095fcc889b43d8f46ca892bba65f08dc3a0050869a56789181900360200190a1606e80546001600160a01b0384166001600160a01b0319909116811790915560408051918252517f82966d27eea39b038ee0fa30cd16532bb24f6e65d31cb58fb227aa5766cdcc7f9181900360200190a1606f80546001600160a01b0383166001600160a01b0319909116811790915560408051918252517f3ca631ffcd2a9b5d9ae18543fc82f58eb4ca33af9e6ab01b7a8e95331e6ed9859181900360200190a1604080518082018252601a81527955534420666f722046696c65636f696e20436f6d6d756e69747960301b602091820152815180830190925260018252603160f81b9101527fc0412597c9d60cbc3de18204991e00bf2f567b025e527ce64b3713f7afab420760688190557fc89efdaa54c0f20c7adf612882df0950f5a951637e0307cdcb4c672f298b8bc6606981905561151e611556565b60675561154c7f8b73c3c69bb8fe3d512ecc4cf759cc79239f7b179b0ffacaa9a75d522b39400f838361155a565b6066555050505050565b4690565b6000838383611567611556565b3060405160200180868152602001858152602001848152602001838152602001826001600160a01b03168152602001955050505050506040516020818303038152906040528051906020012090509392505050565b600082820183811015611616576040805162461bcd60e51b815260206004820152601b60248201527f536166654d6174683a206164646974696f6e206f766572666c6f770000000000604482015290519081900360640190fd5b9392505050565b600082821115611674576040805162461bcd60e51b815260206004820152601e60248201527f536166654d6174683a207375627472616374696f6e206f766572666c6f770000604482015290519081900360640190fd5b50900390565b600054610100900460ff168061169357506116936112b5565b806116a1575060005460ff16155b6116dc5760405162461bcd60e51b815260040180806020018281038252602e815260200180611a42602e913960400191505060405180910390fd5b600054610100900460ff16158015611363576000805460ff1961ff0019909116610100171660011790558015610f60576000805461ff001916905550565b600054610100900460ff168061173357506117336112b5565b80611741575060005460ff16155b61177c5760405162461bcd60e51b815260040180806020018281038252602e815260200180611a42602e913960400191505060405180910390fd5b600054610100900460ff161580156117a7576000805460ff1961ff0019909116610100171660011790555b60006117b1611117565b603380546001600160a01b0319166001600160a01b03831690811790915560405191925090600090600080516020611ac2833981519152908290a3508015610f60576000805461ff001916905550565b6001600160a01b038116610f60576040805162461bcd60e51b815260206004820152601e60248201527f4163636f756e742063616e6e6f74206265207a65726f20616464726573730000604482015290519081900360640190fdfe45524332303a207472616e7366657220746f20746865207a65726f206164647265737345524332303a206275726e20616d6f756e7420657863656564732062616c616e63654f776e61626c653a206e6577206f776e657220697320746865207a65726f206164647265737345524332303a20617070726f766520746f20746865207a65726f206164647265737344656274546f6b656e3a2043616c6c6572206973206e65697468657220426f72726f7765724f7065726174696f6e73206e6f722054726f76654d616e61676572206e6f722053746162696c697479506f6f6c44656274546f6b656e3a2043616e6e6f74207472616e7366657220746f6b656e73206469726563746c7920746f207468652053746162696c697479506f6f6c2c2054726f76654d616e61676572206f7220426f72726f7765724f707344656274546f6b656e3a2043616c6c6572206973206e6f7420426f72726f7765724f7065726174696f6e7345524332303a207472616e7366657220616d6f756e7420657863656564732062616c616e636544656274546f6b656e3a2043616e6e6f74207472616e7366657220746f6b656e73206469726563746c7920746f20746865204465627420746f6b656e20636f6e7472616374206f7220746865207a65726f2061646472657373496e697469616c697a61626c653a20636f6e747261637420697320616c726561647920696e697469616c697a656444656274546f6b656e3a2043616c6c6572206973206e6f74207468652053746162696c697479506f6f6c45524332303a207472616e7366657220616d6f756e74206578636565647320616c6c6f77616e63658be0079c531659141344cd1fd0a4f28419497f9722a3daafe3b4186f6b6457e0ddf252ad1be2c89b69c2b068fc378daa952ba7f163c4a11628f55a4df523b3ef45524332303a206275726e2066726f6d20746865207a65726f206164647265737345524332303a207472616e736665722066726f6d20746865207a65726f206164647265737345524332303a20617070726f76652066726f6d20746865207a65726f206164647265737344656274546f6b656e3a2043616c6c6572206973206e6569746865722054726f76654d616e61676572206e6f722053746162696c697479506f6f6ca26469706673582212202df4f022056a05226eb32bddfaa2b0ae493ef6e2b6fbd6162a24eb318d04731964736f6c63430007060033496e697469616c697a61626c653a20636f6e747261637420697320616c726561647920696e697469616c697a6564",
  "linkReferences": {},
  "deployedLinkReferences": {}
}