{
  "_format": "hh-sol-artifact-1",
  "contractName": "DebtToken",
  "sourceName": "contracts/DebtToken.sol",
  "abi": [
    {
      "inputs": [
        {
          "internalType": "address",
          "name": "_troveManagerAddress",
          "type": "address"
        },
        {
          "internalType": "address",
          "name": "_stabilityPoolAddress",
          "type": "address"
        },
        {
          "internalType": "address",
          "name": "_borrowerOperationsAddress",
          "type": "address"
        }
      ],
      "stateMutability": "nonpayable",
      "type": "constructor"
    },
    {
      "anonymous": false,
      "inputs": [
        {
          "indexed": true,
          "internalType": "address",
          "name": "owner",
          "type": "address"
        },
        {
          "indexed": true,
          "internalType": "address",
          "name": "spender",
          "type": "address"
        },
        {
          "indexed": false,
          "internalType": "uint256",
          "name": "value",
          "type": "uint256"
        }
      ],
      "name": "Approval",
      "type": "event"
    },
    {
      "anonymous": false,
      "inputs": [
        {
          "indexed": false,
          "internalType": "address",
          "name": "_newBorrowerOperationsAddress",
          "type": "address"
        }
      ],
      "name": "BorrowerOperationsAddressChanged",
      "type": "event"
    },
    {
      "anonymous": false,
      "inputs": [
        {
          "indexed": false,
          "internalType": "address",
          "name": "_newStabilityPoolAddress",
          "type": "address"
        }
      ],
      "name": "StabilityPoolAddressChanged",
      "type": "event"
    },
    {
      "anonymous": false,
      "inputs": [
        {
          "indexed": true,
          "internalType": "address",
          "name": "from",
          "type": "address"
        },
        {
          "indexed": true,
          "internalType": "address",
          "name": "to",
          "type": "address"
        },
        {
          "indexed": false,
          "internalType": "uint256",
          "name": "value",
          "type": "uint256"
        }
      ],
      "name": "Transfer",
      "type": "event"
    },
    {
      "anonymous": false,
      "inputs": [
        {
          "indexed": false,
          "internalType": "address",
          "name": "_troveManagerAddress",
          "type": "address"
        }
      ],
      "name": "TroveManagerAddressChanged",
      "type": "event"
    },
    {
      "inputs": [
        {
          "internalType": "address",
          "name": "owner",
          "type": "address"
        },
        {
          "internalType": "address",
          "name": "spender",
          "type": "address"
        }
      ],
      "name": "allowance",
      "outputs": [
        {
          "internalType": "uint256",
          "name": "",
          "type": "uint256"
        }
      ],
      "stateMutability": "view",
      "type": "function"
    },
    {
      "inputs": [
        {
          "internalType": "address",
          "name": "spender",
          "type": "address"
        },
        {
          "internalType": "uint256",
          "name": "amount",
          "type": "uint256"
        }
      ],
      "name": "approve",
      "outputs": [
        {
          "internalType": "bool",
          "name": "",
          "type": "bool"
        }
      ],
      "stateMutability": "nonpayable",
      "type": "function"
    },
    {
      "inputs": [
        {
          "internalType": "address",
          "name": "account",
          "type": "address"
        }
      ],
      "name": "balanceOf",
      "outputs": [
        {
          "internalType": "uint256",
          "name": "",
          "type": "uint256"
        }
      ],
      "stateMutability": "view",
      "type": "function"
    },
    {
      "inputs": [],
      "name": "borrowerOperationsAddress",
      "outputs": [
        {
          "internalType": "address",
          "name": "",
          "type": "address"
        }
      ],
      "stateMutability": "view",
      "type": "function"
    },
    {
      "inputs": [
        {
          "internalType": "address",
          "name": "_account",
          "type": "address"
        },
        {
          "internalType": "uint256",
          "name": "_amount",
          "type": "uint256"
        }
      ],
      "name": "burn",
      "outputs": [],
      "stateMutability": "nonpayable",
      "type": "function"
    },
    {
      "inputs": [],
      "name": "decimals",
      "outputs": [
        {
          "internalType": "uint8",
          "name": "",
          "type": "uint8"
        }
      ],
      "stateMutability": "view",
      "type": "function"
    },
    {
      "inputs": [
        {
          "internalType": "address",
          "name": "spender",
          "type": "address"
        },
        {
          "internalType": "uint256",
          "name": "subtractedValue",
          "type": "uint256"
        }
      ],
      "name": "decreaseAllowance",
      "outputs": [
        {
          "internalType": "bool",
          "name": "",
          "type": "bool"
        }
      ],
      "stateMutability": "nonpayable",
      "type": "function"
    },
    {
      "inputs": [],
      "name": "domainSeparator",
      "outputs": [
        {
          "internalType": "bytes32",
          "name": "",
          "type": "bytes32"
        }
      ],
      "stateMutability": "view",
      "type": "function"
    },
    {
      "inputs": [
        {
          "internalType": "address",
          "name": "spender",
          "type": "address"
        },
        {
          "internalType": "uint256",
          "name": "addedValue",
          "type": "uint256"
        }
      ],
      "name": "increaseAllowance",
      "outputs": [
        {
          "internalType": "bool",
          "name": "",
          "type": "bool"
        }
      ],
      "stateMutability": "nonpayable",
      "type": "function"
    },
    {
      "inputs": [
        {
          "internalType": "address",
          "name": "_account",
          "type": "address"
        },
        {
          "internalType": "uint256",
          "name": "_amount",
          "type": "uint256"
        }
      ],
      "name": "mint",
      "outputs": [],
      "stateMutability": "nonpayable",
      "type": "function"
    },
    {
      "inputs": [],
      "name": "name",
      "outputs": [
        {
          "internalType": "string",
          "name": "",
          "type": "string"
        }
      ],
      "stateMutability": "view",
      "type": "function"
    },
    {
      "inputs": [
        {
          "internalType": "address",
          "name": "owner",
          "type": "address"
        }
      ],
      "name": "nonces",
      "outputs": [
        {
          "internalType": "uint256",
          "name": "",
          "type": "uint256"
        }
      ],
      "stateMutability": "view",
      "type": "function"
    },
    {
      "inputs": [
        {
          "internalType": "address",
          "name": "owner",
          "type": "address"
        },
        {
          "internalType": "address",
          "name": "spender",
          "type": "address"
        },
        {
          "internalType": "uint256",
          "name": "amount",
          "type": "uint256"
        },
        {
          "internalType": "uint256",
          "name": "deadline",
          "type": "uint256"
        },
        {
          "internalType": "uint8",
          "name": "v",
          "type": "uint8"
        },
        {
          "internalType": "bytes32",
          "name": "r",
          "type": "bytes32"
        },
        {
          "internalType": "bytes32",
          "name": "s",
          "type": "bytes32"
        }
      ],
      "name": "permit",
      "outputs": [],
      "stateMutability": "nonpayable",
      "type": "function"
    },
    {
      "inputs": [],
      "name": "permitTypeHash",
      "outputs": [
        {
          "internalType": "bytes32",
          "name": "",
          "type": "bytes32"
        }
      ],
      "stateMutability": "view",
      "type": "function"
    },
    {
      "inputs": [
        {
          "internalType": "address",
          "name": "_poolAddress",
          "type": "address"
        },
        {
          "internalType": "address",
          "name": "_receiver",
          "type": "address"
        },
        {
          "internalType": "uint256",
          "name": "_amount",
          "type": "uint256"
        }
      ],
      "name": "returnFromPool",
      "outputs": [],
      "stateMutability": "nonpayable",
      "type": "function"
    },
    {
      "inputs": [
        {
          "internalType": "address",
          "name": "_sender",
          "type": "address"
        },
        {
          "internalType": "address",
          "name": "_poolAddress",
          "type": "address"
        },
        {
          "internalType": "uint256",
          "name": "_amount",
          "type": "uint256"
        }
      ],
      "name": "sendToPool",
      "outputs": [],
      "stateMutability": "nonpayable",
      "type": "function"
    },
    {
      "inputs": [],
      "name": "stabilityPoolAddress",
      "outputs": [
        {
          "internalType": "address",
          "name": "",
          "type": "address"
        }
      ],
      "stateMutability": "view",
      "type": "function"
    },
    {
      "inputs": [],
      "name": "symbol",
      "outputs": [
        {
          "internalType": "string",
          "name": "",
          "type": "string"
        }
      ],
      "stateMutability": "view",
      "type": "function"
    },
    {
      "inputs": [],
      "name": "totalSupply",
      "outputs": [
        {
          "internalType": "uint256",
          "name": "",
          "type": "uint256"
        }
      ],
      "stateMutability": "view",
      "type": "function"
    },
    {
      "inputs": [
        {
          "internalType": "address",
          "name": "recipient",
          "type": "address"
        },
        {
          "internalType": "uint256",
          "name": "amount",
          "type": "uint256"
        }
      ],
      "name": "transfer",
      "outputs": [
        {
          "internalType": "bool",
          "name": "",
          "type": "bool"
        }
      ],
      "stateMutability": "nonpayable",
      "type": "function"
    },
    {
      "inputs": [
        {
          "internalType": "address",
          "name": "sender",
          "type": "address"
        },
        {
          "internalType": "address",
          "name": "recipient",
          "type": "address"
        },
        {
          "internalType": "uint256",
          "name": "amount",
          "type": "uint256"
        }
      ],
      "name": "transferFrom",
      "outputs": [
        {
          "internalType": "bool",
          "name": "",
          "type": "bool"
        }
      ],
      "stateMutability": "nonpayable",
      "type": "function"
    },
    {
      "inputs": [],
      "name": "troveManagerAddress",
      "outputs": [
        {
          "internalType": "address",
          "name": "",
          "type": "address"
        }
      ],
      "stateMutability": "view",
      "type": "function"
    },
    {
      "inputs": [],
      "name": "version",
      "outputs": [
        {
          "internalType": "string",
          "name": "",
          "type": "string"
        }
      ],
      "stateMutability": "view",
      "type": "function"
    }
  ],
  "bytecode": "0x6101606040523480156200001257600080fd5b50604051620018f2380380620018f2833981810160405260608110156200003857600080fd5b50805160208201516040909201519091906200005d836001600160e01b036200023816565b62000071826001600160e01b036200023816565b62000085816001600160e01b036200023816565b6001600160601b0319606084901b1661010052604080516001600160a01b038516815290517f143219c9e69b09e07e095fcc889b43d8f46ca892bba65f08dc3a0050869a56789181900360200190a16001600160601b0319606083901b1661012052604080516001600160a01b038416815290517f82966d27eea39b038ee0fa30cd16532bb24f6e65d31cb58fb227aa5766cdcc7f9181900360200190a16001600160601b0319606082901b1661014052604080516001600160a01b038316815290517f3ca631ffcd2a9b5d9ae18543fc82f58eb4ca33af9e6ab01b7a8e95331e6ed9859181900360200190a16000604051806060016040528060218152602001620018d16021913980516020918201206040805180820190915260018152603160f81b92019190915260c08190527fc89efdaa54c0f20c7adf612882df0950f5a951637e0307cdcb4c672f298b8bc660e0819052909150620001f06001600160e01b03620002ed16565b60a052620002297f8b73c3c69bb8fe3d512ecc4cf759cc79239f7b179b0ffacaa9a75d522b39400f83836001600160e01b03620002f116565b60805250620003529350505050565b6001600160a01b03811662000294576040805162461bcd60e51b815260206004820152601e60248201527f4163636f756e742063616e6e6f74206265207a65726f20616464726573730000604482015290519081900360640190fd5b803b80620002e9576040805162461bcd60e51b815260206004820181905260248201527f4163636f756e7420636f64652073697a652063616e6e6f74206265207a65726f604482015290519081900360640190fd5b5050565b4690565b6000838383620003096001600160e01b03620002ed16565b6040805160208082019690965280820194909452606084019290925260808301523060a0808401919091528151808403909101815260c090920190528051910120949350505050565b60805160a05160c05160e0516101005160601c6101205160601c6101405160601c6114f0620003e1600039806107655280610d615280610ed75280610fd252508061051f5280610b475280610ce65280611037528061115552508061066f5280610b155280610d235280611004525080610a5d525080610a3c5250806109c25250806109f252506114f06000f3fe608060405234801561001057600080fd5b506004361061014d5760003560e01c80635a4d28bb116100c3578063a9059cbb1161007c578063a9059cbb146103f5578063b7f8cf9b14610421578063bb997bac14610429578063d505accf1461045f578063dd62ed3e146104b0578063f698da25146104de5761014d565b80635a4d28bb1461034157806370a08231146103495780637ecebe001461036f57806395d89b41146103955780639dc29fac1461039d578063a457c2d7146103c95761014d565b806320c582be1161011557806320c582be1461025557806323b872dd1461028d578063313ce567146102c357806339509351146102e157806340c10f191461030d57806354fd4d50146103395761014d565b806306fdde0314610152578063095ea7b3146101cf5780630b622ab21461020f57806310ce43bd1461023357806318160ddd1461024d575b600080fd5b61015a6104e6565b6040805160208082528351818301528351919283929083019185019080838360005b8381101561019457818101518382015260200161017c565b50505050905090810190601f1680156101c15780820380516001836020036101000a031916815260200191505b509250505060405180910390f35b6101fb600480360360408110156101e557600080fd5b506001600160a01b038135169060200135610507565b604080519115158252519081900360200190f35b61021761051d565b604080516001600160a01b039092168252519081900360200190f35b61023b610541565b60408051918252519081900360200190f35b61023b610565565b61028b6004803603606081101561026b57600080fd5b506001600160a01b0381358116916020810135909116906040013561056b565b005b6101fb600480360360608110156102a357600080fd5b506001600160a01b03813581169160208101359091169060400135610583565b6102cb6105fb565b6040805160ff9092168252519081900360200190f35b6101fb600480360360408110156102f757600080fd5b506001600160a01b038135169060200135610600565b61028b6004803603604081101561032357600080fd5b506001600160a01b03813516906020013561063c565b61015a610652565b61021761066d565b61023b6004803603602081101561035f57600080fd5b50356001600160a01b0316610691565b61023b6004803603602081101561038557600080fd5b50356001600160a01b03166106ac565b61015a6106c7565b61028b600480360360408110156103b357600080fd5b506001600160a01b0381351690602001356106e6565b6101fb600480360360408110156103df57600080fd5b506001600160a01b0381351690602001356106f8565b6101fb6004803603604081101561040b57600080fd5b506001600160a01b03813516906020013561074d565b610217610763565b61028b6004803603606081101561043f57600080fd5b506001600160a01b03813581169160208101359091169060400135610787565b61028b600480360360e081101561047557600080fd5b506001600160a01b03813581169160208101359091169060408101359060608101359060ff6080820135169060a08101359060c0013561078f565b61023b600480360360408110156104c657600080fd5b506001600160a01b0381358116916020013516610993565b61023b6109be565b606060405180606001604052806021815260200161143a6021913990505b90565b6000610514338484610a88565b50600192915050565b7f000000000000000000000000000000000000000000000000000000000000000081565b7f6e71edae12b1b97f4d1f60370fef10105fa2faae0126114a169c64845d6126c990565b60005490565b610573610b0a565b61057e838383610ba6565b505050565b600061058e83610c88565b610599848484610ba6565b6105f184336105ec856040518060600160405280602881526020016113f2602891396001600160a01b038a166000908152600360209081526040808320338452909152902054919063ffffffff610dd416565b610a88565b5060019392505050565b601290565b3360008181526003602090815260408083206001600160a01b038716845290915281205490916105149185906105ec908663ffffffff610e6b16565b610644610ecc565b61064e8282610f33565b5050565b6040805180820190915260018152603160f81b602082015290565b7f000000000000000000000000000000000000000000000000000000000000000081565b6001600160a01b031660009081526002602052604090205490565b6001600160a01b031660009081526001602052604090205490565b6040805180820190915260058152642aa9a229a360d91b602082015290565b6106ee610fc7565b61064e8282611094565b600061051433846105ec85604051806060016040528060258152602001611496602591393360009081526003602090815260408083206001600160a01b038d168452909152902054919063ffffffff610dd416565b600061075883610c88565b610514338484610ba6565b7f000000000000000000000000000000000000000000000000000000000000000081565b61057361114a565b428410156107e4576040805162461bcd60e51b815260206004820152601b60248201527f44656274546f6b656e3a206578706972656420646561646c696e650000000000604482015290519081900360640190fd5b60006107ee6109be565b6001600160a01b03808a166000818152600160208181526040808420805480850190915581517f6e71edae12b1b97f4d1f60370fef10105fa2faae0126114a169c64845d6126c98185015280830196909652958e166060860152608085018d905260a085019590955260c08085018c90528551808603909101815260e08501865280519082012061190160f01b6101008601526101028501969096526101228085019690965284518085039096018652610142840180865286519682019690962095839052610162840180865286905260ff8a166101828501526101a284018990526101c284018890529351949550909390926101e2808401939192601f1981019281900390910190855afa15801561090b573d6000803e3d6000fd5b505050602060405103519050886001600160a01b0316816001600160a01b03161461097d576040805162461bcd60e51b815260206004820152601c60248201527f44656274546f6b656e3a20696e76616c6964207369676e617475726500000000604482015290519081900360640190fd5b610988898989610a88565b505050505050505050565b6001600160a01b03918216600090815260036020908152604080832093909416825291909152205490565b60007f00000000000000000000000000000000000000000000000000000000000000006109e96111b1565b1415610a1657507f0000000000000000000000000000000000000000000000000000000000000000610504565b610a817f8b73c3c69bb8fe3d512ecc4cf759cc79239f7b179b0ffacaa9a75d522b39400f7f00000000000000000000000000000000000000000000000000000000000000007f00000000000000000000000000000000000000000000000000000000000000006111b5565b9050610504565b6001600160a01b038316610a9857fe5b6001600160a01b038216610aa857fe5b6001600160a01b03808416600081815260036020908152604080832094871680845294825291829020859055815185815291517f8c5be1e5ebec7d5bd14f71427d1e84f3dd0314c0f7b2291e5b200ac8c7c3b9259281900390910190a3505050565b336001600160a01b037f0000000000000000000000000000000000000000000000000000000000000000161480610b695750336001600160a01b037f000000000000000000000000000000000000000000000000000000000000000016145b610ba45760405162461bcd60e51b815260040180806020018281038252603b81526020018061145b603b913960400191505060405180910390fd5b565b6001600160a01b038316610bb657fe5b6001600160a01b038216610bc657fe5b610c0981604051806060016040528060268152602001611349602691396001600160a01b038616600090815260026020526040902054919063ffffffff610dd416565b6001600160a01b038085166000908152600260205260408082209390935590841681522054610c3e908263ffffffff610e6b16565b6001600160a01b03808416600081815260026020908152604091829020949094558051858152905191939287169260008051602061141a83398151915292918290030190a3505050565b6001600160a01b03811615801590610ca957506001600160a01b0381163014155b610ce45760405162461bcd60e51b815260040180806020018281038252605981526020018061136f6059913960600191505060405180910390fd5b7f00000000000000000000000000000000000000000000000000000000000000006001600160a01b0316816001600160a01b031614158015610d5857507f00000000000000000000000000000000000000000000000000000000000000006001600160a01b0316816001600160a01b031614155b8015610d9657507f00000000000000000000000000000000000000000000000000000000000000006001600160a01b0316816001600160a01b031614155b610dd15760405162461bcd60e51b815260040180806020018281038252605c8152602001806112c2605c913960600191505060405180910390fd5b50565b60008184841115610e635760405162461bcd60e51b81526004018080602001828103825283818151815260200191508051906020019080838360005b83811015610e28578181015183820152602001610e10565b50505050905090810190601f168015610e555780820380516001836020036101000a031916815260200191505b509250505060405180910390fd5b505050900390565b600082820183811015610ec5576040805162461bcd60e51b815260206004820152601b60248201527f536166654d6174683a206164646974696f6e206f766572666c6f770000000000604482015290519081900360640190fd5b9392505050565b336001600160a01b037f00000000000000000000000000000000000000000000000000000000000000001614610ba45760405162461bcd60e51b815260040180806020018281038252602b81526020018061131e602b913960400191505060405180910390fd5b6001600160a01b038216610f4357fe5b600054610f56908263ffffffff610e6b16565b60009081556001600160a01b038316815260026020526040902054610f81908263ffffffff610e6b16565b6001600160a01b038316600081815260026020908152604080832094909455835185815293519293919260008051602061141a8339815191529281900390910190a35050565b336001600160a01b037f00000000000000000000000000000000000000000000000000000000000000001614806110265750336001600160a01b037f000000000000000000000000000000000000000000000000000000000000000016145b806110595750336001600160a01b037f000000000000000000000000000000000000000000000000000000000000000016145b610ba45760405162461bcd60e51b81526004018080602001828103825260528152602001806112706052913960600191505060405180910390fd5b6001600160a01b0382166110a457fe5b6110e78160405180606001604052806022815260200161124e602291396001600160a01b038516600090815260026020526040902054919063ffffffff610dd416565b6001600160a01b03831660009081526002602052604081209190915554611114908263ffffffff61120b16565b60009081556040805183815290516001600160a01b0385169160008051602061141a833981519152919081900360200190a35050565b336001600160a01b037f00000000000000000000000000000000000000000000000000000000000000001614610ba45760405162461bcd60e51b815260040180806020018281038252602a8152602001806113c8602a913960400191505060405180910390fd5b4690565b60008383836111c26111b1565b6040805160208082019690965280820194909452606084019290925260808301523060a0808401919091528151808403909101815260c090920190528051910120949350505050565b6000610ec583836040518060400160405280601e81526020017f536166654d6174683a207375627472616374696f6e206f766572666c6f770000815250610dd456fe45524332303a206275726e20616d6f756e7420657863656564732062616c616e636544656274546f6b656e3a2043616c6c6572206973206e65697468657220426f72726f7765724f7065726174696f6e73206e6f722054726f76654d616e61676572206e6f722053746162696c697479506f6f6c44656274546f6b656e3a2043616e6e6f74207472616e7366657220746f6b656e73206469726563746c7920746f207468652053746162696c697479506f6f6c2c2054726f76654d616e61676572206f7220426f72726f7765724f707344656274546f6b656e3a2043616c6c6572206973206e6f7420426f72726f7765724f7065726174696f6e7345524332303a207472616e7366657220616d6f756e7420657863656564732062616c616e636544656274546f6b656e3a2043616e6e6f74207472616e7366657220746f6b656e73206469726563746c7920746f20746865204465627420746f6b656e20636f6e7472616374206f7220746865207a65726f206164647265737344656274546f6b656e3a2043616c6c6572206973206e6f74207468652053746162696c697479506f6f6c45524332303a207472616e7366657220616d6f756e74206578636565647320616c6c6f77616e6365ddf252ad1be2c89b69c2b068fc378daa952ba7f163c4a11628f55a4df523b3ef55534420537461626c65636f696e206261636b65642062792046696c65636f696e44656274546f6b656e3a2043616c6c6572206973206e6569746865722054726f76654d616e61676572206e6f722053746162696c697479506f6f6c45524332303a2064656372656173656420616c6c6f77616e63652062656c6f77207a65726fa2646970667358221220517dae80d25d2ec6e7eb718bd9e663e60ec0f355aef8930464d2afe6025023c564736f6c634300060b003355534420537461626c65636f696e206261636b65642062792046696c65636f696e",
  "linkReferences": {},
  "deployedLinkReferences": {}
}