{
  "_format": "hh-sol-artifact-1",
  "contractName": "DebtTokenCaller",
  "sourceName": "contracts/TestContracts/DebtTokenCaller.sol",
  "abi": [
    {
      "inputs": [
        {
          "internalType": "address",
          "name": "_account",
          "type": "address"
        },
        {
          "internalType": "uint256",
          "name": "_amount",
          "type": "uint256"
        }
      ],
      "name": "debtTokenBurn",
      "outputs": [],
      "stateMutability": "nonpayable",
      "type": "function"
    },
    {
      "inputs": [
        {
          "internalType": "address",
          "name": "_account",
          "type": "address"
        },
        {
          "internalType": "uint256",
          "name": "_amount",
          "type": "uint256"
        }
      ],
      "name": "debtTokenMint",
      "outputs": [],
      "stateMutability": "nonpayable",
      "type": "function"
    },
    {
      "inputs": [
        {
          "internalType": "address",
          "name": "_poolAddress",
          "type": "address"
        },
        {
          "internalType": "address",
          "name": "_receiver",
          "type": "address"
        },
        {
          "internalType": "uint256",
          "name": "_amount",
          "type": "uint256"
        }
      ],
      "name": "debtTokenReturnFromPool",
      "outputs": [],
      "stateMutability": "nonpayable",
      "type": "function"
    },
    {
      "inputs": [
        {
          "internalType": "address",
          "name": "_sender",
          "type": "address"
        },
        {
          "internalType": "address",
          "name": "_poolAddress",
          "type": "address"
        },
        {
          "internalType": "uint256",
          "name": "_amount",
          "type": "uint256"
        }
      ],
      "name": "debtTokenSendToPool",
      "outputs": [],
      "stateMutability": "nonpayable",
      "type": "function"
    },
    {
      "inputs": [
        {
          "internalType": "contract IDebtToken",
          "name": "_debtToken",
          "type": "address"
        }
      ],
      "name": "setDebtToken",
      "outputs": [],
      "stateMutability": "nonpayable",
      "type": "function"
    }
  ],
  "bytecode": "0x608060405234801561001057600080fd5b50610331806100206000396000f3fe608060405234801561001057600080fd5b50600436106100575760003560e01c8063450757871461005c57806377b5b6b51461008a578063868dfea6146100c0578063971eaa7d146100f65780639b345d7514610122575b600080fd5b6100886004803603604081101561007257600080fd5b506001600160a01b038135169060200135610148565b005b610088600480360360608110156100a057600080fd5b506001600160a01b038135811691602081013590911690604001356101b6565b610088600480360360608110156100d657600080fd5b506001600160a01b0381358116916020810135909116906040013561022d565b6100886004803603604081101561010c57600080fd5b506001600160a01b038135169060200135610287565b6100886004803603602081101561013857600080fd5b50356001600160a01b03166102d9565b6000805460408051632770a7eb60e21b81526001600160a01b0386811660048301526024820186905291519190921692639dc29fac926044808201939182900301818387803b15801561019a57600080fd5b505af11580156101ae573d6000803e3d6000fd5b505050505050565b6000805460408051631062c15f60e11b81526001600160a01b038781166004830152868116602483015260448201869052915191909216926320c582be926064808201939182900301818387803b15801561021057600080fd5b505af1158015610224573d6000803e3d6000fd5b50505050505050565b6000805460408051632ee65eeb60e21b81526001600160a01b0387811660048301528681166024830152604482018690529151919092169263bb997bac926064808201939182900301818387803b15801561021057600080fd5b60008054604080516340c10f1960e01b81526001600160a01b03868116600483015260248201869052915191909216926340c10f19926044808201939182900301818387803b15801561019a57600080fd5b600080546001600160a01b0319166001600160a01b039290921691909117905556fea26469706673582212203103b73120b11e22f1c429c5b5b89f4d5bfab0b0753649e0e03aef45d0c4102464736f6c63430007060033",
  "linkReferences": {},
  "deployedLinkReferences": {}
}