{
  "_format": "hh-sol-artifact-1",
  "contractName": "DebtTokenTester",
  "sourceName": "contracts/TestContracts/DebtTokenTester.sol",
  "abi": [
    {
      "anonymous": false,
      "inputs": [
        {
          "indexed": true,
          "internalType": "address",
          "name": "owner",
          "type": "address"
        },
        {
          "indexed": true,
          "internalType": "address",
          "name": "spender",
          "type": "address"
        },
        {
          "indexed": false,
          "internalType": "uint256",
          "name": "value",
          "type": "uint256"
        }
      ],
      "name": "Approval",
      "type": "event"
    },
    {
      "anonymous": false,
      "inputs": [
        {
          "indexed": false,
          "internalType": "address",
          "name": "_newBorrowerOperationsAddress",
          "type": "address"
        }
      ],
      "name": "BorrowerOperationsAddressChanged",
      "type": "event"
    },
    {
      "anonymous": false,
      "inputs": [
        {
          "indexed": true,
          "internalType": "address",
          "name": "previousOwner",
          "type": "address"
        },
        {
          "indexed": true,
          "internalType": "address",
          "name": "newOwner",
          "type": "address"
        }
      ],
      "name": "OwnershipTransferred",
      "type": "event"
    },
    {
      "anonymous": false,
      "inputs": [
        {
          "indexed": false,
          "internalType": "address",
          "name": "_newStabilityPoolAddress",
          "type": "address"
        }
      ],
      "name": "StabilityPoolAddressChanged",
      "type": "event"
    },
    {
      "anonymous": false,
      "inputs": [
        {
          "indexed": true,
          "internalType": "address",
          "name": "from",
          "type": "address"
        },
        {
          "indexed": true,
          "internalType": "address",
          "name": "to",
          "type": "address"
        },
        {
          "indexed": false,
          "internalType": "uint256",
          "name": "value",
          "type": "uint256"
        }
      ],
      "name": "Transfer",
      "type": "event"
    },
    {
      "anonymous": false,
      "inputs": [
        {
          "indexed": false,
          "internalType": "address",
          "name": "_troveManagerAddress",
          "type": "address"
        }
      ],
      "name": "TroveManagerAddressChanged",
      "type": "event"
    },
    {
      "inputs": [
        {
          "internalType": "address",
          "name": "_owner",
          "type": "address"
        },
        {
          "internalType": "address",
          "name": "_spender",
          "type": "address"
        }
      ],
      "name": "allowance",
      "outputs": [
        {
          "internalType": "uint256",
          "name": "",
          "type": "uint256"
        }
      ],
      "stateMutability": "view",
      "type": "function"
    },
    {
      "inputs": [
        {
          "internalType": "address",
          "name": "_spender",
          "type": "address"
        },
        {
          "internalType": "uint256",
          "name": "_amount",
          "type": "uint256"
        }
      ],
      "name": "approve",
      "outputs": [
        {
          "internalType": "bool",
          "name": "",
          "type": "bool"
        }
      ],
      "stateMutability": "nonpayable",
      "type": "function"
    },
    {
      "inputs": [
        {
          "internalType": "address",
          "name": "_account",
          "type": "address"
        }
      ],
      "name": "balanceOf",
      "outputs": [
        {
          "internalType": "uint256",
          "name": "",
          "type": "uint256"
        }
      ],
      "stateMutability": "view",
      "type": "function"
    },
    {
      "inputs": [],
      "name": "borrowerOperationsAddress",
      "outputs": [
        {
          "internalType": "address",
          "name": "",
          "type": "address"
        }
      ],
      "stateMutability": "view",
      "type": "function"
    },
    {
      "inputs": [
        {
          "internalType": "address",
          "name": "_account",
          "type": "address"
        },
        {
          "internalType": "uint256",
          "name": "_amount",
          "type": "uint256"
        }
      ],
      "name": "burn",
      "outputs": [],
      "stateMutability": "nonpayable",
      "type": "function"
    },
    {
      "inputs": [
        {
          "internalType": "address",
          "name": "owner",
          "type": "address"
        },
        {
          "internalType": "address",
          "name": "spender",
          "type": "address"
        },
        {
          "internalType": "uint256",
          "name": "amount",
          "type": "uint256"
        }
      ],
      "name": "callInternalApprove",
      "outputs": [
        {
          "internalType": "bool",
          "name": "",
          "type": "bool"
        }
      ],
      "stateMutability": "nonpayable",
      "type": "function"
    },
    {
      "inputs": [],
      "name": "decimals",
      "outputs": [
        {
          "internalType": "uint8",
          "name": "",
          "type": "uint8"
        }
      ],
      "stateMutability": "pure",
      "type": "function"
    },
    {
      "inputs": [],
      "name": "domainSeparator",
      "outputs": [
        {
          "internalType": "bytes32",
          "name": "",
          "type": "bytes32"
        }
      ],
      "stateMutability": "view",
      "type": "function"
    },
    {
      "inputs": [],
      "name": "getChainId",
      "outputs": [
        {
          "internalType": "uint256",
          "name": "chainID",
          "type": "uint256"
        }
      ],
      "stateMutability": "pure",
      "type": "function"
    },
    {
      "inputs": [
        {
          "internalType": "address",
          "name": "owner",
          "type": "address"
        },
        {
          "internalType": "address",
          "name": "spender",
          "type": "address"
        },
        {
          "internalType": "uint256",
          "name": "amount",
          "type": "uint256"
        },
        {
          "internalType": "uint256",
          "name": "nonce",
          "type": "uint256"
        },
        {
          "internalType": "uint256",
          "name": "deadline",
          "type": "uint256"
        }
      ],
      "name": "getDigest",
      "outputs": [
        {
          "internalType": "bytes32",
          "name": "",
          "type": "bytes32"
        }
      ],
      "stateMutability": "view",
      "type": "function"
    },
    {
      "inputs": [
        {
          "internalType": "address",
          "name": "_troveManagerAddress",
          "type": "address"
        },
        {
          "internalType": "address",
          "name": "_stabilityPoolAddress",
          "type": "address"
        },
        {
          "internalType": "address",
          "name": "_borrowerOperationsAddress",
          "type": "address"
        }
      ],
      "name": "initialize",
      "outputs": [],
      "stateMutability": "nonpayable",
      "type": "function"
    },
    {
      "inputs": [
        {
          "internalType": "address",
          "name": "_account",
          "type": "address"
        },
        {
          "internalType": "uint256",
          "name": "_amount",
          "type": "uint256"
        }
      ],
      "name": "mint",
      "outputs": [],
      "stateMutability": "nonpayable",
      "type": "function"
    },
    {
      "inputs": [],
      "name": "name",
      "outputs": [
        {
          "internalType": "string",
          "name": "",
          "type": "string"
        }
      ],
      "stateMutability": "pure",
      "type": "function"
    },
    {
      "inputs": [
        {
          "internalType": "address",
          "name": "_owner",
          "type": "address"
        }
      ],
      "name": "nonces",
      "outputs": [
        {
          "internalType": "uint256",
          "name": "",
          "type": "uint256"
        }
      ],
      "stateMutability": "view",
      "type": "function"
    },
    {
      "inputs": [],
      "name": "owner",
      "outputs": [
        {
          "internalType": "address",
          "name": "",
          "type": "address"
        }
      ],
      "stateMutability": "view",
      "type": "function"
    },
    {
      "inputs": [
        {
          "internalType": "address",
          "name": "_owner",
          "type": "address"
        },
        {
          "internalType": "address",
          "name": "_spender",
          "type": "address"
        },
        {
          "internalType": "uint256",
          "name": "_amount",
          "type": "uint256"
        },
        {
          "internalType": "uint256",
          "name": "_deadline",
          "type": "uint256"
        },
        {
          "internalType": "uint8",
          "name": "_v",
          "type": "uint8"
        },
        {
          "internalType": "bytes32",
          "name": "_r",
          "type": "bytes32"
        },
        {
          "internalType": "bytes32",
          "name": "_s",
          "type": "bytes32"
        }
      ],
      "name": "permit",
      "outputs": [],
      "stateMutability": "nonpayable",
      "type": "function"
    },
    {
      "inputs": [],
      "name": "permitTypeHash",
      "outputs": [
        {
          "internalType": "bytes32",
          "name": "",
          "type": "bytes32"
        }
      ],
      "stateMutability": "pure",
      "type": "function"
    },
    {
      "inputs": [
        {
          "internalType": "bytes32",
          "name": "digest",
          "type": "bytes32"
        },
        {
          "internalType": "uint8",
          "name": "v",
          "type": "uint8"
        },
        {
          "internalType": "bytes32",
          "name": "r",
          "type": "bytes32"
        },
        {
          "internalType": "bytes32",
          "name": "s",
          "type": "bytes32"
        }
      ],
      "name": "recoverAddress",
      "outputs": [
        {
          "internalType": "address",
          "name": "",
          "type": "address"
        }
      ],
      "stateMutability": "pure",
      "type": "function"
    },
    {
      "inputs": [],
      "name": "renounceOwnership",
      "outputs": [],
      "stateMutability": "nonpayable",
      "type": "function"
    },
    {
      "inputs": [
        {
          "internalType": "address",
          "name": "_poolAddress",
          "type": "address"
        },
        {
          "internalType": "address",
          "name": "_receiver",
          "type": "address"
        },
        {
          "internalType": "uint256",
          "name": "_amount",
          "type": "uint256"
        }
      ],
      "name": "returnFromPool",
      "outputs": [],
      "stateMutability": "nonpayable",
      "type": "function"
    },
    {
      "inputs": [
        {
          "internalType": "address",
          "name": "_sender",
          "type": "address"
        },
        {
          "internalType": "address",
          "name": "_poolAddress",
          "type": "address"
        },
        {
          "internalType": "uint256",
          "name": "_amount",
          "type": "uint256"
        }
      ],
      "name": "sendToPool",
      "outputs": [],
      "stateMutability": "nonpayable",
      "type": "function"
    },
    {
      "inputs": [],
      "name": "stabilityPoolAddress",
      "outputs": [
        {
          "internalType": "address",
          "name": "",
          "type": "address"
        }
      ],
      "stateMutability": "view",
      "type": "function"
    },
    {
      "inputs": [],
      "name": "symbol",
      "outputs": [
        {
          "internalType": "string",
          "name": "",
          "type": "string"
        }
      ],
      "stateMutability": "pure",
      "type": "function"
    },
    {
      "inputs": [],
      "name": "totalSupply",
      "outputs": [
        {
          "internalType": "uint256",
          "name": "",
          "type": "uint256"
        }
      ],
      "stateMutability": "view",
      "type": "function"
    },
    {
      "inputs": [
        {
          "internalType": "address",
          "name": "_recipient",
          "type": "address"
        },
        {
          "internalType": "uint256",
          "name": "_amount",
          "type": "uint256"
        }
      ],
      "name": "transfer",
      "outputs": [
        {
          "internalType": "bool",
          "name": "",
          "type": "bool"
        }
      ],
      "stateMutability": "nonpayable",
      "type": "function"
    },
    {
      "inputs": [
        {
          "internalType": "address",
          "name": "_sender",
          "type": "address"
        },
        {
          "internalType": "address",
          "name": "_recipient",
          "type": "address"
        },
        {
          "internalType": "uint256",
          "name": "_amount",
          "type": "uint256"
        }
      ],
      "name": "transferFrom",
      "outputs": [
        {
          "internalType": "bool",
          "name": "",
          "type": "bool"
        }
      ],
      "stateMutability": "nonpayable",
      "type": "function"
    },
    {
      "inputs": [
        {
          "internalType": "address",
          "name": "newOwner",
          "type": "address"
        }
      ],
      "name": "transferOwnership",
      "outputs": [],
      "stateMutability": "nonpayable",
      "type": "function"
    },
    {
      "inputs": [],
      "name": "troveManagerAddress",
      "outputs": [
        {
          "internalType": "address",
          "name": "",
          "type": "address"
        }
      ],
      "stateMutability": "view",
      "type": "function"
    },
    {
      "inputs": [
        {
          "internalType": "address",
          "name": "_account",
          "type": "address"
        },
        {
          "internalType": "uint256",
          "name": "_amount",
          "type": "uint256"
        }
      ],
      "name": "unprotectedBurn",
      "outputs": [],
      "stateMutability": "nonpayable",
      "type": "function"
    },
    {
      "inputs": [
        {
          "internalType": "address",
          "name": "_account",
          "type": "address"
        },
        {
          "internalType": "uint256",
          "name": "_amount",
          "type": "uint256"
        }
      ],
      "name": "unprotectedMint",
      "outputs": [],
      "stateMutability": "nonpayable",
      "type": "function"
    },
    {
      "inputs": [
        {
          "internalType": "address",
          "name": "_poolAddress",
          "type": "address"
        },
        {
          "internalType": "address",
          "name": "_receiver",
          "type": "address"
        },
        {
          "internalType": "uint256",
          "name": "_amount",
          "type": "uint256"
        }
      ],
      "name": "unprotectedReturnFromPool",
      "outputs": [],
      "stateMutability": "nonpayable",
      "type": "function"
    },
    {
      "inputs": [
        {
          "internalType": "address",
          "name": "_sender",
          "type": "address"
        },
        {
          "internalType": "address",
          "name": "_poolAddress",
          "type": "address"
        },
        {
          "internalType": "uint256",
          "name": "_amount",
          "type": "uint256"
        }
      ],
      "name": "unprotectedSendToPool",
      "outputs": [],
      "stateMutability": "nonpayable",
      "type": "function"
    },
    {
      "inputs": [],
      "name": "version",
      "outputs": [
        {
          "internalType": "string",
          "name": "",
          "type": "string"
        }
      ],
      "stateMutability": "pure",
      "type": "function"
    }
  ],
  "bytecode": "0x60a06040527f6e71edae12b1b97f4d1f60370fef10105fa2faae0126114a169c64845d6126c960805234801561003457600080fd5b50608051611eba61004f600039806108015250611eba6000f3fe608060405234801561001057600080fd5b50600436106101bb5760003560e01c80635a4d28bb116100fa578063a9059cbb1161009d578063a9059cbb1461055b578063b655c276146103b9578063b7f8cf9b14610587578063bb997bac1461058f578063c0c53b8b146105c5578063d505accf146105fd578063dd62ed3e1461064e578063f2fde38b1461067c578063f698da25146106a2576101bb565b80635a4d28bb1461049157806370a0823114610499578063715018a6146104bf5780637ecebe00146104c75780638428cf83146104ed5780638da5cb5b1461051f57806395d89b41146105275780639dc29fac1461052f576101bb565b8063313ce56711610162578063313ce567146103675780633408e470146103855780633ab605821461038d5780633dc2ea6d146103b957806340c10f19146103ef5780635099f99f1461041b578063519e2cee1461044757806354fd4d5014610489576101bb565b806303d99946146101c057806306fdde031461020a578063095ea7b3146102875780630b622ab2146102b357806310ce43bd146102d757806318160ddd146102f157806320c582be146102f957806323b872dd14610331575b600080fd5b6101f6600480360360608110156101d657600080fd5b506001600160a01b038135811691602081013590911690604001356106aa565b604080519115158252519081900360200190f35b6102126106c1565b6040805160208082528351818301528351919283929083019185019080838360005b8381101561024c578181015183820152602001610234565b50505050905090810190601f1680156102795780820380516001836020036101000a031916815260200191505b509250505060405180910390f35b6101f66004803603604081101561029d57600080fd5b506001600160a01b0381351690602001356106f6565b6102bb61070c565b604080516001600160a01b039092168252519081900360200190f35b6102df61071b565b60408051918252519081900360200190f35b6102df61073f565b61032f6004803603606081101561030f57600080fd5b506001600160a01b03813581169160208101359091169060400135610745565b005b6101f66004803603606081101561034757600080fd5b506001600160a01b0381358116916020810135909116906040013561075d565b61036f6107c5565b6040805160ff9092168252519081900360200190f35b6102df6107ca565b61032f600480360360408110156103a357600080fd5b506001600160a01b0381351690602001356107ce565b61032f600480360360608110156103cf57600080fd5b506001600160a01b0381358116916020810135909116906040013561074d565b61032f6004803603604081101561040557600080fd5b506001600160a01b0381351690602001356107dc565b61032f6004803603604081101561043157600080fd5b506001600160a01b0381351690602001356107e4565b6102df600480360360a081101561045d57600080fd5b506001600160a01b038135811691602081013590911690604081013590606081013590608001356107ee565b6102126108b7565b6102bb6108d2565b6102df600480360360208110156104af57600080fd5b50356001600160a01b03166108e1565b61032f6108fc565b6102df600480360360208110156104dd57600080fd5b50356001600160a01b03166109a8565b6102bb6004803603608081101561050357600080fd5b5080359060ff60208201351690604081013590606001356109c3565b6102bb610a33565b610212610a42565b61032f6004803603604081101561054557600080fd5b506001600160a01b038135169060200135610a61565b6101f66004803603604081101561057157600080fd5b506001600160a01b038135169060200135610a69565b6102bb610a7f565b61032f600480360360608110156105a557600080fd5b506001600160a01b03813581169160208101359091169060400135610a8e565b61032f600480360360608110156105db57600080fd5b506001600160a01b038135811691602081013582169160409091013516610a96565b61032f600480360360e081101561061357600080fd5b506001600160a01b03813581169160208101359091169060408101359060608101359060ff6080820135169060a08101359060c00135610b4e565b6102df6004803603604081101561066457600080fd5b506001600160a01b0381358116916020013516610d50565b61032f6004803603602081101561069257600080fd5b50356001600160a01b0316610d7b565b6102df610e7e565b60006106b7848484610ed3565b5060019392505050565b60408051808201909152601a81527955534420666f722046696c65636f696e20436f6d6d756e69747960301b60208201525b90565b6000610703338484610ed3565b50600192915050565b606e546001600160a01b031681565b7f6e71edae12b1b97f4d1f60370fef10105fa2faae0126114a169c64845d6126c990565b60655490565b61074d610fbf565b61075883838361101f565b505050565b60006107688361115f565b61077384848461101f565b6106b784336107c085604051806060016040528060288152602001611d78602891396001600160a01b038a166000908152606c60209081526040808320338452909152902054919061123f565b610ed3565b601290565b4690565b6107d882826112d6565b5050565b6107e46113b4565b6107d882826113fd565b60006119016107fb610e7e565b604080517f00000000000000000000000000000000000000000000000000000000000000006020808301919091526001600160a01b03808c16838501528a1660608301526080820189905260a0820188905260c08083018890528351808403909101815260e0830184528051908201206001600160f01b031960f09690961b9590951661010083015261010282019390935261012280820194909452815180820390940184526101420190528151910120905095945050505050565b6040805180820190915260018152603160f81b602082015290565b606d546001600160a01b031681565b6001600160a01b03166000908152606b602052604090205490565b6109046114d1565b6001600160a01b0316610915610a33565b6001600160a01b031614610970576040805162461bcd60e51b815260206004820181905260248201527f4f776e61626c653a2063616c6c6572206973206e6f7420746865206f776e6572604482015290519081900360640190fd5b6033546040516000916001600160a01b031690600080516020611da0833981519152908390a3603380546001600160a01b0319169055565b6001600160a01b03166000908152606a602052604090205490565b600060018585858560405160008152602001604052604051808581526020018460ff1681526020018381526020018281526020019450505050506020604051602081039080840390855afa158015610a1f573d6000803e3d6000fd5b5050604051601f1901519695505050505050565b6033546001600160a01b031690565b604080518082019091526005815264555344464360d81b602082015290565b6107ce6114d5565b6000610a748361115f565b61070333848461101f565b606f546001600160a01b031681565b61074d611548565b600054610100900460ff1680610aaf5750610aaf611591565b80610abd575060005460ff16155b610af85760405162461bcd60e51b815260040180806020018281038252602e815260200180611d20602e913960400191505060405180910390fd5b600054610100900460ff16158015610b23576000805460ff1961ff0019909116610100171660011790555b610b2b6115a2565b610b36848484611653565b8015610b48576000805461ff00191690555b50505050565b42841015610ba3576040805162461bcd60e51b815260206004820152601b60248201527f44656274546f6b656e3a206578706972656420646561646c696e650000000000604482015290519081900360640190fd5b6000610bad610e7e565b6001600160a01b03808a166000818152606a602090815260408083208054600180820190925582517f6e71edae12b1b97f4d1f60370fef10105fa2faae0126114a169c64845d6126c98186015280840196909652958e166060860152608085018d905260a085019590955260c08085018c90528151808603909101815260e08501825280519083012061190160f01b6101008601526101028501969096526101228085019690965280518085039096018652610142840180825286519683019690962095839052610162840180825286905260ff8a166101828501526101a284018990526101c284018890525194955090936101e280840193601f198301929081900390910190855afa158015610cc8573d6000803e3d6000fd5b505050602060405103519050886001600160a01b0316816001600160a01b031614610d3a576040805162461bcd60e51b815260206004820152601c60248201527f44656274546f6b656e3a20696e76616c6964207369676e617475726500000000604482015290519081900360640190fd5b610d45898989610ed3565b505050505050505050565b6001600160a01b039182166000908152606c6020908152604080832093909416825291909152205490565b610d836114d1565b6001600160a01b0316610d94610a33565b6001600160a01b031614610def576040805162461bcd60e51b815260206004820181905260248201527f4f776e61626c653a2063616c6c6572206973206e6f7420746865206f776e6572604482015290519081900360640190fd5b6001600160a01b038116610e345760405162461bcd60e51b8152600401808060200182810382526026815260200180611b806026913960400191505060405180910390fd5b6033546040516001600160a01b03808416921690600080516020611da083398151915290600090a3603380546001600160a01b0319166001600160a01b0392909216919091179055565b6000606754610e8b6107ca565b1415610e9a57506066546106f3565b610ecc7f8b73c3c69bb8fe3d512ecc4cf759cc79239f7b179b0ffacaa9a75d522b39400f60001b606854606954611832565b90506106f3565b6001600160a01b038316610f185760405162461bcd60e51b8152600401808060200182810382526024815260200180611e266024913960400191505060405180910390fd5b6001600160a01b038216610f5d5760405162461bcd60e51b8152600401808060200182810382526022815260200180611ba66022913960400191505060405180910390fd5b6001600160a01b038084166000818152606c6020908152604080832094871680845294825291829020859055815185815291517f8c5be1e5ebec7d5bd14f71427d1e84f3dd0314c0f7b2291e5b200ac8c7c3b9259281900390910190a3505050565b606d546001600160a01b0316331480610fe25750606e546001600160a01b031633145b61101d5760405162461bcd60e51b815260040180806020018281038252603b815260200180611e4a603b913960400191505060405180910390fd5b565b6001600160a01b0383166110645760405162461bcd60e51b8152600401808060200182810382526025815260200180611e016025913960400191505060405180910390fd5b6001600160a01b0382166110a95760405162461bcd60e51b8152600401808060200182810382526023815260200180611b3b6023913960400191505060405180910390fd5b6110e681604051806060016040528060268152602001611ca1602691396001600160a01b0386166000908152606b6020526040902054919061123f565b6001600160a01b038085166000908152606b602052604080822093909355908416815220546111159082611894565b6001600160a01b038084166000818152606b60209081526040918290209490945580518581529051919392871692600080516020611dc083398151915292918290030190a3505050565b6001600160a01b0381161580159061118057506001600160a01b0381163014155b6111bb5760405162461bcd60e51b8152600401808060200182810382526059815260200180611cc76059913960600191505060405180910390fd5b606e546001600160a01b038281169116148015906111e75750606d546001600160a01b03828116911614155b80156112015750606f546001600160a01b03828116911614155b61123c5760405162461bcd60e51b815260040180806020018281038252605c815260200180611c1a605c913960600191505060405180910390fd5b50565b600081848411156112ce5760405162461bcd60e51b81526004018080602001828103825283818151815260200191508051906020019080838360005b8381101561129357818101518382015260200161127b565b50505050905090810190601f1680156112c05780820380516001836020036101000a031916815260200191505b509250505060405180910390fd5b505050900390565b6001600160a01b03821661131b5760405162461bcd60e51b8152600401808060200182810382526021815260200180611de06021913960400191505060405180910390fd5b61135881604051806060016040528060228152602001611b5e602291396001600160a01b0385166000908152606b6020526040902054919061123f565b6001600160a01b0383166000908152606b602052604090205560655461137e90826118f5565b6065556040805182815290516000916001600160a01b03851691600080516020611dc08339815191529181900360200190a35050565b606f546001600160a01b0316331461101d5760405162461bcd60e51b815260040180806020018281038252602b815260200180611c76602b913960400191505060405180910390fd5b6001600160a01b038216611458576040805162461bcd60e51b815260206004820152601f60248201527f45524332303a206d696e7420746f20746865207a65726f206164647265737300604482015290519081900360640190fd5b6065546114659082611894565b6065556001600160a01b0382166000908152606b602052604090205461148b9082611894565b6001600160a01b0383166000818152606b60209081526040808320949094558351858152935192939192600080516020611dc08339815191529281900390910190a35050565b3390565b606f546001600160a01b03163314806114f85750606d546001600160a01b031633145b8061150d5750606e546001600160a01b031633145b61101d5760405162461bcd60e51b8152600401808060200182810382526052815260200180611bc86052913960600191505060405180910390fd5b606e546001600160a01b0316331461101d5760405162461bcd60e51b815260040180806020018281038252602a815260200180611d4e602a913960400191505060405180910390fd5b600061159c30611952565b15905090565b600054610100900460ff16806115bb57506115bb611591565b806115c9575060005460ff16155b6116045760405162461bcd60e51b815260040180806020018281038252602e815260200180611d20602e913960400191505060405180910390fd5b600054610100900460ff1615801561162f576000805460ff1961ff0019909116610100171660011790555b611637611958565b61163f6119f8565b801561123c576000805461ff001916905550565b61165c83611adf565b61166582611adf565b61166e81611adf565b606d80546001600160a01b0385166001600160a01b0319909116811790915560408051918252517f143219c9e69b09e07e095fcc889b43d8f46ca892bba65f08dc3a0050869a56789181900360200190a1606e80546001600160a01b0384166001600160a01b0319909116811790915560408051918252517f82966d27eea39b038ee0fa30cd16532bb24f6e65d31cb58fb227aa5766cdcc7f9181900360200190a1606f80546001600160a01b0383166001600160a01b0319909116811790915560408051918252517f3ca631ffcd2a9b5d9ae18543fc82f58eb4ca33af9e6ab01b7a8e95331e6ed9859181900360200190a1604080518082018252601a81527955534420666f722046696c65636f696e20436f6d6d756e69747960301b602091820152815180830190925260018252603160f81b9101527fc0412597c9d60cbc3de18204991e00bf2f567b025e527ce64b3713f7afab420760688190557fc89efdaa54c0f20c7adf612882df0950f5a951637e0307cdcb4c672f298b8bc660698190556117fa6107ca565b6067556118287f8b73c3c69bb8fe3d512ecc4cf759cc79239f7b179b0ffacaa9a75d522b39400f8383611832565b6066555050505050565b600083838361183f6107ca565b3060405160200180868152602001858152602001848152602001838152602001826001600160a01b03168152602001955050505050506040516020818303038152906040528051906020012090509392505050565b6000828201838110156118ee576040805162461bcd60e51b815260206004820152601b60248201527f536166654d6174683a206164646974696f6e206f766572666c6f770000000000604482015290519081900360640190fd5b9392505050565b60008282111561194c576040805162461bcd60e51b815260206004820152601e60248201527f536166654d6174683a207375627472616374696f6e206f766572666c6f770000604482015290519081900360640190fd5b50900390565b3b151590565b600054610100900460ff16806119715750611971611591565b8061197f575060005460ff16155b6119ba5760405162461bcd60e51b815260040180806020018281038252602e815260200180611d20602e913960400191505060405180910390fd5b600054610100900460ff1615801561163f576000805460ff1961ff001990911661010017166001179055801561123c576000805461ff001916905550565b600054610100900460ff1680611a115750611a11611591565b80611a1f575060005460ff16155b611a5a5760405162461bcd60e51b815260040180806020018281038252602e815260200180611d20602e913960400191505060405180910390fd5b600054610100900460ff16158015611a85576000805460ff1961ff0019909116610100171660011790555b6000611a8f6114d1565b603380546001600160a01b0319166001600160a01b03831690811790915560405191925090600090600080516020611da0833981519152908290a350801561123c576000805461ff001916905550565b6001600160a01b03811661123c576040805162461bcd60e51b815260206004820152601e60248201527f4163636f756e742063616e6e6f74206265207a65726f20616464726573730000604482015290519081900360640190fdfe45524332303a207472616e7366657220746f20746865207a65726f206164647265737345524332303a206275726e20616d6f756e7420657863656564732062616c616e63654f776e61626c653a206e6577206f776e657220697320746865207a65726f206164647265737345524332303a20617070726f766520746f20746865207a65726f206164647265737344656274546f6b656e3a2043616c6c6572206973206e65697468657220426f72726f7765724f7065726174696f6e73206e6f722054726f76654d616e61676572206e6f722053746162696c697479506f6f6c44656274546f6b656e3a2043616e6e6f74207472616e7366657220746f6b656e73206469726563746c7920746f207468652053746162696c697479506f6f6c2c2054726f76654d616e61676572206f7220426f72726f7765724f707344656274546f6b656e3a2043616c6c6572206973206e6f7420426f72726f7765724f7065726174696f6e7345524332303a207472616e7366657220616d6f756e7420657863656564732062616c616e636544656274546f6b656e3a2043616e6e6f74207472616e7366657220746f6b656e73206469726563746c7920746f20746865204465627420746f6b656e20636f6e7472616374206f7220746865207a65726f2061646472657373496e697469616c697a61626c653a20636f6e747261637420697320616c726561647920696e697469616c697a656444656274546f6b656e3a2043616c6c6572206973206e6f74207468652053746162696c697479506f6f6c45524332303a207472616e7366657220616d6f756e74206578636565647320616c6c6f77616e63658be0079c531659141344cd1fd0a4f28419497f9722a3daafe3b4186f6b6457e0ddf252ad1be2c89b69c2b068fc378daa952ba7f163c4a11628f55a4df523b3ef45524332303a206275726e2066726f6d20746865207a65726f206164647265737345524332303a207472616e736665722066726f6d20746865207a65726f206164647265737345524332303a20617070726f76652066726f6d20746865207a65726f206164647265737344656274546f6b656e3a2043616c6c6572206973206e6569746865722054726f76654d616e61676572206e6f722053746162696c697479506f6f6ca26469706673582212207fdde1c6c5572915d694fe03702736ed76f29c08cd197f5a736a60858b545e1a64736f6c63430007060033",
  "linkReferences": {},
  "deployedLinkReferences": {}
}