{
  "_format": "hh-sol-artifact-1",
  "contractName": "DefaultPool",
  "sourceName": "contracts/DefaultPool.sol",
  "abi": [
    {
      "anonymous": false,
      "inputs": [
        {
          "indexed": false,
          "internalType": "address",
          "name": "_newActivePoolAddress",
          "type": "address"
        }
      ],
      "name": "ActivePoolAddressChanged",
      "type": "event"
    },
    {
      "anonymous": false,
      "inputs": [
        {
          "indexed": false,
          "internalType": "uint256",
          "name": "_newBalance",
          "type": "uint256"
        }
      ],
      "name": "DebtTokenBalanceUpdated",
      "type": "event"
    },
    {
      "anonymous": false,
      "inputs": [
        {
          "indexed": false,
          "internalType": "address",
          "name": "_newDefaultPoolAddress",
          "type": "address"
        }
      ],
      "name": "DefaultPoolAddressChanged",
      "type": "event"
    },
    {
      "anonymous": false,
      "inputs": [
        {
          "indexed": false,
          "internalType": "uint256",
          "name": "_debt",
          "type": "uint256"
        }
      ],
      "name": "DefaultPoolDebtUpdated",
      "type": "event"
    },
    {
      "anonymous": false,
      "inputs": [
        {
          "indexed": false,
          "internalType": "uint256",
          "name": "_FIL",
          "type": "uint256"
        }
      ],
      "name": "DefaultPoolFILBalanceUpdated",
      "type": "event"
    },
    {
      "anonymous": false,
      "inputs": [
        {
          "indexed": false,
          "internalType": "uint256",
          "name": "_newBalance",
          "type": "uint256"
        }
      ],
      "name": "FILBalanceUpdated",
      "type": "event"
    },
    {
      "anonymous": false,
      "inputs": [
        {
          "indexed": false,
          "internalType": "address",
          "name": "_to",
          "type": "address"
        },
        {
          "indexed": false,
          "internalType": "uint256",
          "name": "_amount",
          "type": "uint256"
        }
      ],
      "name": "FILSent",
      "type": "event"
    },
    {
      "anonymous": false,
      "inputs": [
        {
          "indexed": true,
          "internalType": "address",
          "name": "previousOwner",
          "type": "address"
        },
        {
          "indexed": true,
          "internalType": "address",
          "name": "newOwner",
          "type": "address"
        }
      ],
      "name": "OwnershipTransferred",
      "type": "event"
    },
    {
      "anonymous": false,
      "inputs": [
        {
          "indexed": false,
          "internalType": "address",
          "name": "_newStabilityPoolAddress",
          "type": "address"
        }
      ],
      "name": "StabilityPoolAddressChanged",
      "type": "event"
    },
    {
      "anonymous": false,
      "inputs": [
        {
          "indexed": false,
          "internalType": "address",
          "name": "_newTroveManagerAddress",
          "type": "address"
        }
      ],
      "name": "TroveManagerAddressChanged",
      "type": "event"
    },
    {
      "inputs": [],
      "name": "NAME",
      "outputs": [
        {
          "internalType": "string",
          "name": "",
          "type": "string"
        }
      ],
      "stateMutability": "view",
      "type": "function"
    },
    {
      "inputs": [],
      "name": "activePoolAddress",
      "outputs": [
        {
          "internalType": "address",
          "name": "",
          "type": "address"
        }
      ],
      "stateMutability": "view",
      "type": "function"
    },
    {
      "inputs": [
        {
          "internalType": "uint256",
          "name": "_amount",
          "type": "uint256"
        }
      ],
      "name": "decreaseDebt",
      "outputs": [],
      "stateMutability": "nonpayable",
      "type": "function"
    },
    {
      "inputs": [],
      "name": "getDebt",
      "outputs": [
        {
          "internalType": "uint256",
          "name": "",
          "type": "uint256"
        }
      ],
      "stateMutability": "view",
      "type": "function"
    },
    {
      "inputs": [],
      "name": "getFIL",
      "outputs": [
        {
          "internalType": "uint256",
          "name": "",
          "type": "uint256"
        }
      ],
      "stateMutability": "view",
      "type": "function"
    },
    {
      "inputs": [
        {
          "internalType": "uint256",
          "name": "_amount",
          "type": "uint256"
        }
      ],
      "name": "increaseDebt",
      "outputs": [],
      "stateMutability": "nonpayable",
      "type": "function"
    },
    {
      "inputs": [
        {
          "internalType": "address",
          "name": "_troveManagerAddress",
          "type": "address"
        },
        {
          "internalType": "address",
          "name": "_activePoolAddress",
          "type": "address"
        }
      ],
      "name": "initialize",
      "outputs": [],
      "stateMutability": "nonpayable",
      "type": "function"
    },
    {
      "inputs": [],
      "name": "owner",
      "outputs": [
        {
          "internalType": "address",
          "name": "",
          "type": "address"
        }
      ],
      "stateMutability": "view",
      "type": "function"
    },
    {
      "inputs": [],
      "name": "renounceOwnership",
      "outputs": [],
      "stateMutability": "nonpayable",
      "type": "function"
    },
    {
      "inputs": [
        {
          "internalType": "uint256",
          "name": "_amount",
          "type": "uint256"
        }
      ],
      "name": "sendFILToActivePool",
      "outputs": [],
      "stateMutability": "nonpayable",
      "type": "function"
    },
    {
      "inputs": [
        {
          "internalType": "address",
          "name": "newOwner",
          "type": "address"
        }
      ],
      "name": "transferOwnership",
      "outputs": [],
      "stateMutability": "nonpayable",
      "type": "function"
    },
    {
      "inputs": [],
      "name": "troveManagerAddress",
      "outputs": [
        {
          "internalType": "address",
          "name": "",
          "type": "address"
        }
      ],
      "stateMutability": "view",
      "type": "function"
    },
    {
      "stateMutability": "payable",
      "type": "receive"
    }
  ],
  "bytecode": "0x608060405234801561001057600080fd5b50610d46806100206000396000f3fe6080604052600436106100ab5760003560e01c80638da5cb5b116100645780638da5cb5b146102015780638f7be73014610216578063a3f4df7e14610240578063b08bc722146102ca578063c5c3937e146102df578063f2fde38b146102f4576100fe565b806314a6bf0f146101035780632a7ba1f71461012a5780632b7c7b1114610156578063485cc955146101805780635a4d28bb146101bb578063715018a6146101ec576100fe565b366100fe576100b8610327565b6067546100c59034610372565b606781905560408051918252517f4b2f6ed6b83441c39265015e9ad3fca5c5f8dbc85d6843e4f7db7f9108ab95959181900360200190a1005b600080fd5b34801561010f57600080fd5b506101186103d3565b60408051918252519081900360200190f35b34801561013657600080fd5b506101546004803603602081101561014d57600080fd5b50356103d9565b005b34801561016257600080fd5b506101546004803603602081101561017957600080fd5b5035610428565b34801561018c57600080fd5b50610154600480360360408110156101a357600080fd5b506001600160a01b038135811691602001351661043d565b3480156101c757600080fd5b506101d06104f3565b604080516001600160a01b039092168252519081900360200190f35b3480156101f857600080fd5b50610154610502565b34801561020d57600080fd5b506101d06105ae565b34801561022257600080fd5b506101546004803603602081101561023957600080fd5b50356105bd565b34801561024c57600080fd5b50610255610702565b6040805160208082528351818301528351919283929083019185019080838360005b8381101561028f578181015183820152602001610277565b50505050905090810190601f1680156102bc5780820380516001836020036101000a031916815260200191505b509250505060405180910390f35b3480156102d657600080fd5b506101d0610729565b3480156102eb57600080fd5b50610118610738565b34801561030057600080fd5b506101546004803603602081101561031757600080fd5b50356001600160a01b031661073e565b6066546001600160a01b031633146103705760405162461bcd60e51b8152600401808060200182810382526029815260200180610c496029913960400191505060405180910390fd5b565b6000828201838110156103cc576040805162461bcd60e51b815260206004820152601b60248201527f536166654d6174683a206164646974696f6e206f766572666c6f770000000000604482015290519081900360640190fd5b9392505050565b60685490565b6103e1610841565b6068546103ee908261088a565b606881905560408051918252517fbb6a805312efea216263577adb96966134cba8b860bdaa40afcdc38f4dbcf62e9181900360200190a150565b610430610841565b6068546103ee9082610372565b600054610100900460ff168061045657506104566108e7565b80610464575060005460ff16155b61049f5760405162461bcd60e51b815260040180806020018281038252602e815260200180610c98602e913960400191505060405180910390fd5b600054610100900460ff161580156104ca576000805460ff1961ff0019909116610100171660011790555b6104d26108f8565b6104dc83836109aa565b80156104ee576000805461ff00191690555b505050565b6065546001600160a01b031681565b61050a610a5c565b6001600160a01b031661051b6105ae565b6001600160a01b031614610576576040805162461bcd60e51b815260206004820181905260248201527f4f776e61626c653a2063616c6c6572206973206e6f7420746865206f776e6572604482015290519081900360640190fd5b6033546040516000916001600160a01b031690600080516020610cc6833981519152908390a3603380546001600160a01b0319169055565b6033546001600160a01b031690565b6105c5610841565b6066546067546001600160a01b03909116906105e1908361088a565b606781905560408051918252517f4b2f6ed6b83441c39265015e9ad3fca5c5f8dbc85d6843e4f7db7f9108ab95959181900360200190a1604080516001600160a01b03831681526020810184905281517f3b2482b1bf6e751427503c9a8bf79e4dba3e6519259e2220428c2f326cc79c14929181900390910190a16040516000906001600160a01b0383169084908381818185875af1925050503d80600081146106a7576040519150601f19603f3d011682016040523d82523d6000602084013e6106ac565b606091505b50509050806104ee576040805162461bcd60e51b815260206004820152601f60248201527f44656661756c74506f6f6c3a2073656e64696e672046494c206661696c656400604482015290519081900360640190fd5b6040518060400160405280600b81526020016a111959985d5b1d141bdbdb60aa1b81525081565b6066546001600160a01b031681565b60675490565b610746610a5c565b6001600160a01b03166107576105ae565b6001600160a01b0316146107b2576040805162461bcd60e51b815260206004820181905260248201527f4f776e61626c653a2063616c6c6572206973206e6f7420746865206f776e6572604482015290519081900360640190fd5b6001600160a01b0381166107f75760405162461bcd60e51b8152600401808060200182810382526026815260200180610c726026913960400191505060405180910390fd5b6033546040516001600160a01b03808416921690600080516020610cc683398151915290600090a3603380546001600160a01b0319166001600160a01b0392909216919091179055565b6065546001600160a01b031633146103705760405162461bcd60e51b815260040180806020018281038252602b815260200180610ce6602b913960400191505060405180910390fd5b6000828211156108e1576040805162461bcd60e51b815260206004820152601e60248201527f536166654d6174683a207375627472616374696f6e206f766572666c6f770000604482015290519081900360640190fd5b50900390565b60006108f230610a60565b15905090565b600054610100900460ff168061091157506109116108e7565b8061091f575060005460ff16155b61095a5760405162461bcd60e51b815260040180806020018281038252602e815260200180610c98602e913960400191505060405180910390fd5b600054610100900460ff16158015610985576000805460ff1961ff0019909116610100171660011790555b61098d610a66565b610995610b06565b80156109a7576000805461ff00191690555b50565b6109b382610bed565b6109bc81610bed565b606580546001600160a01b038085166001600160a01b03199283168117909355606680549185169190921617905560408051918252517f143219c9e69b09e07e095fcc889b43d8f46ca892bba65f08dc3a0050869a56789181900360200190a1604080516001600160a01b038316815290517f78f058b189175430c48dc02699e3a0031ea4ff781536dc2fab847de4babdd8829181900360200190a15050565b3390565b3b151590565b600054610100900460ff1680610a7f5750610a7f6108e7565b80610a8d575060005460ff16155b610ac85760405162461bcd60e51b815260040180806020018281038252602e815260200180610c98602e913960400191505060405180910390fd5b600054610100900460ff16158015610995576000805460ff1961ff00199091166101001716600117905580156109a7576000805461ff001916905550565b600054610100900460ff1680610b1f5750610b1f6108e7565b80610b2d575060005460ff16155b610b685760405162461bcd60e51b815260040180806020018281038252602e815260200180610c98602e913960400191505060405180910390fd5b600054610100900460ff16158015610b93576000805460ff1961ff0019909116610100171660011790555b6000610b9d610a5c565b603380546001600160a01b0319166001600160a01b03831690811790915560405191925090600090600080516020610cc6833981519152908290a35080156109a7576000805461ff001916905550565b6001600160a01b0381166109a7576040805162461bcd60e51b815260206004820152601e60248201527f4163636f756e742063616e6e6f74206265207a65726f20616464726573730000604482015290519081900360640190fdfe44656661756c74506f6f6c3a2043616c6c6572206973206e6f742074686520416374697665506f6f6c4f776e61626c653a206e6577206f776e657220697320746865207a65726f2061646472657373496e697469616c697a61626c653a20636f6e747261637420697320616c726561647920696e697469616c697a65648be0079c531659141344cd1fd0a4f28419497f9722a3daafe3b4186f6b6457e044656661756c74506f6f6c3a2043616c6c6572206973206e6f74207468652054726f76654d616e61676572a2646970667358221220f26be006b33e23bf5ecb9d7b9c22d4313d35eabe8d07484fb17fdd9e25c5c26b64736f6c63430007060033",
  "linkReferences": {},
  "deployedLinkReferences": {}
}