{
  "_format": "hh-sol-artifact-1",
  "contractName": "DefaultPoolTester",
  "sourceName": "contracts/TestContracts/DefaultPoolTester.sol",
  "abi": [
    {
      "anonymous": false,
      "inputs": [
        {
          "indexed": false,
          "internalType": "address",
          "name": "_newActivePoolAddress",
          "type": "address"
        }
      ],
      "name": "ActivePoolAddressChanged",
      "type": "event"
    },
    {
      "anonymous": false,
      "inputs": [
        {
          "indexed": false,
          "internalType": "uint256",
          "name": "_newBalance",
          "type": "uint256"
        }
      ],
      "name": "DebtTokenBalanceUpdated",
      "type": "event"
    },
    {
      "anonymous": false,
      "inputs": [
        {
          "indexed": false,
          "internalType": "address",
          "name": "_newDefaultPoolAddress",
          "type": "address"
        }
      ],
      "name": "DefaultPoolAddressChanged",
      "type": "event"
    },
    {
      "anonymous": false,
      "inputs": [
        {
          "indexed": false,
          "internalType": "uint256",
          "name": "_debt",
          "type": "uint256"
        }
      ],
      "name": "DefaultPoolDebtUpdated",
      "type": "event"
    },
    {
      "anonymous": false,
      "inputs": [
        {
          "indexed": false,
          "internalType": "uint256",
          "name": "_FIL",
          "type": "uint256"
        }
      ],
      "name": "DefaultPoolFILBalanceUpdated",
      "type": "event"
    },
    {
      "anonymous": false,
      "inputs": [
        {
          "indexed": false,
          "internalType": "address",
          "name": "_to",
          "type": "address"
        },
        {
          "indexed": false,
          "internalType": "uint256",
          "name": "_amount",
          "type": "uint256"
        }
      ],
      "name": "FILSent",
      "type": "event"
    },
    {
      "anonymous": false,
      "inputs": [
        {
          "indexed": true,
          "internalType": "address",
          "name": "previousOwner",
          "type": "address"
        },
        {
          "indexed": true,
          "internalType": "address",
          "name": "newOwner",
          "type": "address"
        }
      ],
      "name": "OwnershipTransferred",
      "type": "event"
    },
    {
      "anonymous": false,
      "inputs": [
        {
          "indexed": false,
          "internalType": "address",
          "name": "_newStabilityPoolAddress",
          "type": "address"
        }
      ],
      "name": "StabilityPoolAddressChanged",
      "type": "event"
    },
    {
      "anonymous": false,
      "inputs": [
        {
          "indexed": false,
          "internalType": "address",
          "name": "_newTroveManagerAddress",
          "type": "address"
        }
      ],
      "name": "TroveManagerAddressChanged",
      "type": "event"
    },
    {
      "inputs": [],
      "name": "NAME",
      "outputs": [
        {
          "internalType": "string",
          "name": "",
          "type": "string"
        }
      ],
      "stateMutability": "view",
      "type": "function"
    },
    {
      "inputs": [],
      "name": "activePoolAddress",
      "outputs": [
        {
          "internalType": "address",
          "name": "",
          "type": "address"
        }
      ],
      "stateMutability": "view",
      "type": "function"
    },
    {
      "inputs": [
        {
          "internalType": "uint256",
          "name": "_amount",
          "type": "uint256"
        }
      ],
      "name": "decreaseDebt",
      "outputs": [],
      "stateMutability": "nonpayable",
      "type": "function"
    },
    {
      "inputs": [],
      "name": "getDebt",
      "outputs": [
        {
          "internalType": "uint256",
          "name": "",
          "type": "uint256"
        }
      ],
      "stateMutability": "view",
      "type": "function"
    },
    {
      "inputs": [],
      "name": "getFIL",
      "outputs": [
        {
          "internalType": "uint256",
          "name": "",
          "type": "uint256"
        }
      ],
      "stateMutability": "view",
      "type": "function"
    },
    {
      "inputs": [
        {
          "internalType": "uint256",
          "name": "_amount",
          "type": "uint256"
        }
      ],
      "name": "increaseDebt",
      "outputs": [],
      "stateMutability": "nonpayable",
      "type": "function"
    },
    {
      "inputs": [
        {
          "internalType": "address",
          "name": "_troveManagerAddress",
          "type": "address"
        },
        {
          "internalType": "address",
          "name": "_activePoolAddress",
          "type": "address"
        }
      ],
      "name": "initialize",
      "outputs": [],
      "stateMutability": "nonpayable",
      "type": "function"
    },
    {
      "inputs": [],
      "name": "owner",
      "outputs": [
        {
          "internalType": "address",
          "name": "",
          "type": "address"
        }
      ],
      "stateMutability": "view",
      "type": "function"
    },
    {
      "inputs": [],
      "name": "renounceOwnership",
      "outputs": [],
      "stateMutability": "nonpayable",
      "type": "function"
    },
    {
      "inputs": [
        {
          "internalType": "uint256",
          "name": "_amount",
          "type": "uint256"
        }
      ],
      "name": "sendFILToActivePool",
      "outputs": [],
      "stateMutability": "nonpayable",
      "type": "function"
    },
    {
      "inputs": [
        {
          "internalType": "address",
          "name": "newOwner",
          "type": "address"
        }
      ],
      "name": "transferOwnership",
      "outputs": [],
      "stateMutability": "nonpayable",
      "type": "function"
    },
    {
      "inputs": [],
      "name": "troveManagerAddress",
      "outputs": [
        {
          "internalType": "address",
          "name": "",
          "type": "address"
        }
      ],
      "stateMutability": "view",
      "type": "function"
    },
    {
      "inputs": [
        {
          "internalType": "uint256",
          "name": "_amount",
          "type": "uint256"
        }
      ],
      "name": "unprotectedIncreaseDebt",
      "outputs": [],
      "stateMutability": "nonpayable",
      "type": "function"
    },
    {
      "inputs": [],
      "name": "unprotectedPayable",
      "outputs": [],
      "stateMutability": "payable",
      "type": "function"
    },
    {
      "stateMutability": "payable",
      "type": "receive"
    }
  ],
  "bytecode": "0x608060405234801561001057600080fd5b50610db3806100206000396000f3fe6080604052600436106100c15760003560e01c80638f7be7301161006f5780638f7be7301461022c578063a3f4df7e14610256578063b08bc722146102e0578063c5c3937e146102f5578063f2fde38b1461030a578063f3af7c3b1461033d578063f7a7c8b81461034557610114565b806314a6bf0f146101195780632a7ba1f7146101405780632b7c7b111461016c578063485cc955146101965780635a4d28bb146101d1578063715018a6146102025780638da5cb5b1461021757610114565b36610114576100ce61036f565b6067546100db90346103ba565b606781905560408051918252517f4b2f6ed6b83441c39265015e9ad3fca5c5f8dbc85d6843e4f7db7f9108ab95959181900360200190a1005b600080fd5b34801561012557600080fd5b5061012e61041b565b60408051918252519081900360200190f35b34801561014c57600080fd5b5061016a6004803603602081101561016357600080fd5b5035610421565b005b34801561017857600080fd5b5061016a6004803603602081101561018f57600080fd5b5035610470565b3480156101a257600080fd5b5061016a600480360360408110156101b957600080fd5b506001600160a01b0381358116916020013516610485565b3480156101dd57600080fd5b506101e661053b565b604080516001600160a01b039092168252519081900360200190f35b34801561020e57600080fd5b5061016a61054a565b34801561022357600080fd5b506101e66105f6565b34801561023857600080fd5b5061016a6004803603602081101561024f57600080fd5b5035610605565b34801561026257600080fd5b5061026b61074a565b6040805160208082528351818301528351919283929083019185019080838360005b838110156102a557818101518382015260200161028d565b50505050905090810190601f1680156102d25780820380516001836020036101000a031916815260200191505b509250505060405180910390f35b3480156102ec57600080fd5b506101e6610771565b34801561030157600080fd5b5061012e610780565b34801561031657600080fd5b5061016a6004803603602081101561032d57600080fd5b50356001600160a01b0316610786565b61016a610889565b34801561035157600080fd5b5061016a6004803603602081101561036857600080fd5b503561089b565b6066546001600160a01b031633146103b85760405162461bcd60e51b8152600401808060200182810382526029815260200180610cb66029913960400191505060405180910390fd5b565b600082820183811015610414576040805162461bcd60e51b815260206004820152601b60248201527f536166654d6174683a206164646974696f6e206f766572666c6f770000000000604482015290519081900360640190fd5b9392505050565b60685490565b6104296108ae565b60685461043690826108f7565b606881905560408051918252517fbb6a805312efea216263577adb96966134cba8b860bdaa40afcdc38f4dbcf62e9181900360200190a150565b6104786108ae565b60685461043690826103ba565b600054610100900460ff168061049e575061049e610954565b806104ac575060005460ff16155b6104e75760405162461bcd60e51b815260040180806020018281038252602e815260200180610d05602e913960400191505060405180910390fd5b600054610100900460ff16158015610512576000805460ff1961ff0019909116610100171660011790555b61051a610965565b6105248383610a17565b8015610536576000805461ff00191690555b505050565b6065546001600160a01b031681565b610552610ac9565b6001600160a01b03166105636105f6565b6001600160a01b0316146105be576040805162461bcd60e51b815260206004820181905260248201527f4f776e61626c653a2063616c6c6572206973206e6f7420746865206f776e6572604482015290519081900360640190fd5b6033546040516000916001600160a01b031690600080516020610d33833981519152908390a3603380546001600160a01b0319169055565b6033546001600160a01b031690565b61060d6108ae565b6066546067546001600160a01b039091169061062990836108f7565b606781905560408051918252517f4b2f6ed6b83441c39265015e9ad3fca5c5f8dbc85d6843e4f7db7f9108ab95959181900360200190a1604080516001600160a01b03831681526020810184905281517f3b2482b1bf6e751427503c9a8bf79e4dba3e6519259e2220428c2f326cc79c14929181900390910190a16040516000906001600160a01b0383169084908381818185875af1925050503d80600081146106ef576040519150601f19603f3d011682016040523d82523d6000602084013e6106f4565b606091505b5050905080610536576040805162461bcd60e51b815260206004820152601f60248201527f44656661756c74506f6f6c3a2073656e64696e672046494c206661696c656400604482015290519081900360640190fd5b6040518060400160405280600b81526020016a111959985d5b1d141bdbdb60aa1b81525081565b6066546001600160a01b031681565b60675490565b61078e610ac9565b6001600160a01b031661079f6105f6565b6001600160a01b0316146107fa576040805162461bcd60e51b815260206004820181905260248201527f4f776e61626c653a2063616c6c6572206973206e6f7420746865206f776e6572604482015290519081900360640190fd5b6001600160a01b03811661083f5760405162461bcd60e51b8152600401808060200182810382526026815260200180610cdf6026913960400191505060405180910390fd5b6033546040516001600160a01b03808416921690600080516020610d3383398151915290600090a3603380546001600160a01b0319166001600160a01b0392909216919091179055565b60675461089690346103ba565b606755565b6068546108a890826103ba565b60685550565b6065546001600160a01b031633146103b85760405162461bcd60e51b815260040180806020018281038252602b815260200180610d53602b913960400191505060405180910390fd5b60008282111561094e576040805162461bcd60e51b815260206004820152601e60248201527f536166654d6174683a207375627472616374696f6e206f766572666c6f770000604482015290519081900360640190fd5b50900390565b600061095f30610acd565b15905090565b600054610100900460ff168061097e575061097e610954565b8061098c575060005460ff16155b6109c75760405162461bcd60e51b815260040180806020018281038252602e815260200180610d05602e913960400191505060405180910390fd5b600054610100900460ff161580156109f2576000805460ff1961ff0019909116610100171660011790555b6109fa610ad3565b610a02610b73565b8015610a14576000805461ff00191690555b50565b610a2082610c5a565b610a2981610c5a565b606580546001600160a01b038085166001600160a01b03199283168117909355606680549185169190921617905560408051918252517f143219c9e69b09e07e095fcc889b43d8f46ca892bba65f08dc3a0050869a56789181900360200190a1604080516001600160a01b038316815290517f78f058b189175430c48dc02699e3a0031ea4ff781536dc2fab847de4babdd8829181900360200190a15050565b3390565b3b151590565b600054610100900460ff1680610aec5750610aec610954565b80610afa575060005460ff16155b610b355760405162461bcd60e51b815260040180806020018281038252602e815260200180610d05602e913960400191505060405180910390fd5b600054610100900460ff16158015610a02576000805460ff1961ff0019909116610100171660011790558015610a14576000805461ff001916905550565b600054610100900460ff1680610b8c5750610b8c610954565b80610b9a575060005460ff16155b610bd55760405162461bcd60e51b815260040180806020018281038252602e815260200180610d05602e913960400191505060405180910390fd5b600054610100900460ff16158015610c00576000805460ff1961ff0019909116610100171660011790555b6000610c0a610ac9565b603380546001600160a01b0319166001600160a01b03831690811790915560405191925090600090600080516020610d33833981519152908290a3508015610a14576000805461ff001916905550565b6001600160a01b038116610a14576040805162461bcd60e51b815260206004820152601e60248201527f4163636f756e742063616e6e6f74206265207a65726f20616464726573730000604482015290519081900360640190fdfe44656661756c74506f6f6c3a2043616c6c6572206973206e6f742074686520416374697665506f6f6c4f776e61626c653a206e6577206f776e657220697320746865207a65726f2061646472657373496e697469616c697a61626c653a20636f6e747261637420697320616c726561647920696e697469616c697a65648be0079c531659141344cd1fd0a4f28419497f9722a3daafe3b4186f6b6457e044656661756c74506f6f6c3a2043616c6c6572206973206e6f74207468652054726f76654d616e61676572a26469706673582212205eee217230ad037b1a15db2f318940d0bbc08554f9404b38e498ae434af91fc064736f6c63430007060033",
  "linkReferences": {},
  "deployedLinkReferences": {}
}