{
  "_format": "hh-sol-artifact-1",
  "contractName": "EchidnaTester",
  "sourceName": "contracts/TestContracts/EchidnaTester.sol",
  "abi": [
    {
      "inputs": [
        {
          "internalType": "uint256",
          "name": "_gasCompensation",
          "type": "uint256"
        },
        {
          "internalType": "uint256",
          "name": "_minNetDebt",
          "type": "uint256"
        }
      ],
      "stateMutability": "payable",
      "type": "constructor"
    },
    {
      "inputs": [],
      "name": "activePool",
      "outputs": [
        {
          "internalType": "contract ActivePool",
          "name": "",
          "type": "address"
        }
      ],
      "stateMutability": "view",
      "type": "function"
    },
    {
      "inputs": [
        {
          "internalType": "uint256",
          "name": "_i",
          "type": "uint256"
        },
        {
          "internalType": "uint256",
          "name": "_FIL",
          "type": "uint256"
        }
      ],
      "name": "addCollExt",
      "outputs": [],
      "stateMutability": "payable",
      "type": "function"
    },
    {
      "inputs": [
        {
          "internalType": "uint256",
          "name": "_i",
          "type": "uint256"
        },
        {
          "internalType": "uint256",
          "name": "_FIL",
          "type": "uint256"
        },
        {
          "internalType": "address",
          "name": "_upperHint",
          "type": "address"
        },
        {
          "internalType": "address",
          "name": "_lowerHint",
          "type": "address"
        }
      ],
      "name": "addCollRawExt",
      "outputs": [],
      "stateMutability": "payable",
      "type": "function"
    },
    {
      "inputs": [
        {
          "internalType": "uint256",
          "name": "_i",
          "type": "uint256"
        },
        {
          "internalType": "uint256",
          "name": "_FIL",
          "type": "uint256"
        },
        {
          "internalType": "uint256",
          "name": "_collWithdrawal",
          "type": "uint256"
        },
        {
          "internalType": "uint256",
          "name": "_debtChange",
          "type": "uint256"
        },
        {
          "internalType": "bool",
          "name": "_isDebtIncrease",
          "type": "bool"
        }
      ],
      "name": "adjustTroveExt",
      "outputs": [],
      "stateMutability": "payable",
      "type": "function"
    },
    {
      "inputs": [
        {
          "internalType": "uint256",
          "name": "_i",
          "type": "uint256"
        },
        {
          "internalType": "uint256",
          "name": "_FIL",
          "type": "uint256"
        },
        {
          "internalType": "uint256",
          "name": "_collWithdrawal",
          "type": "uint256"
        },
        {
          "internalType": "uint256",
          "name": "_debtChange",
          "type": "uint256"
        },
        {
          "internalType": "bool",
          "name": "_isDebtIncrease",
          "type": "bool"
        },
        {
          "internalType": "address",
          "name": "_upperHint",
          "type": "address"
        },
        {
          "internalType": "address",
          "name": "_lowerHint",
          "type": "address"
        },
        {
          "internalType": "uint256",
          "name": "_maxFee",
          "type": "uint256"
        }
      ],
      "name": "adjustTroveRawExt",
      "outputs": [],
      "stateMutability": "payable",
      "type": "function"
    },
    {
      "inputs": [
        {
          "internalType": "uint256",
          "name": "_i",
          "type": "uint256"
        },
        {
          "internalType": "address",
          "name": "spender",
          "type": "address"
        },
        {
          "internalType": "uint256",
          "name": "amount",
          "type": "uint256"
        }
      ],
      "name": "approveExt",
      "outputs": [
        {
          "internalType": "bool",
          "name": "",
          "type": "bool"
        }
      ],
      "stateMutability": "nonpayable",
      "type": "function"
    },
    {
      "inputs": [
        {
          "internalType": "uint256",
          "name": "_i",
          "type": "uint256"
        },
        {
          "internalType": "address[]",
          "name": "_troveArray",
          "type": "address[]"
        }
      ],
      "name": "batchLiquidateTrovesExt",
      "outputs": [],
      "stateMutability": "nonpayable",
      "type": "function"
    },
    {
      "inputs": [],
      "name": "borrowerOperations",
      "outputs": [
        {
          "internalType": "contract BorrowerOperations",
          "name": "",
          "type": "address"
        }
      ],
      "stateMutability": "view",
      "type": "function"
    },
    {
      "inputs": [
        {
          "internalType": "uint256",
          "name": "_i",
          "type": "uint256"
        }
      ],
      "name": "closeTroveExt",
      "outputs": [],
      "stateMutability": "nonpayable",
      "type": "function"
    },
    {
      "inputs": [],
      "name": "collSurplusPool",
      "outputs": [
        {
          "internalType": "contract CollSurplusPool",
          "name": "",
          "type": "address"
        }
      ],
      "stateMutability": "view",
      "type": "function"
    },
    {
      "inputs": [],
      "name": "debtToken",
      "outputs": [
        {
          "internalType": "contract DebtToken",
          "name": "",
          "type": "address"
        }
      ],
      "stateMutability": "view",
      "type": "function"
    },
    {
      "inputs": [
        {
          "internalType": "uint256",
          "name": "_i",
          "type": "uint256"
        },
        {
          "internalType": "address",
          "name": "spender",
          "type": "address"
        },
        {
          "internalType": "uint256",
          "name": "subtractedValue",
          "type": "uint256"
        }
      ],
      "name": "decreaseAllowanceExt",
      "outputs": [
        {
          "internalType": "bool",
          "name": "",
          "type": "bool"
        }
      ],
      "stateMutability": "nonpayable",
      "type": "function"
    },
    {
      "inputs": [],
      "name": "defaultPool",
      "outputs": [
        {
          "internalType": "contract DefaultPool",
          "name": "",
          "type": "address"
        }
      ],
      "stateMutability": "view",
      "type": "function"
    },
    {
      "inputs": [
        {
          "internalType": "uint256",
          "name": "",
          "type": "uint256"
        }
      ],
      "name": "echidnaProxies",
      "outputs": [
        {
          "internalType": "contract EchidnaProxy",
          "name": "",
          "type": "address"
        }
      ],
      "stateMutability": "view",
      "type": "function"
    },
    {
      "inputs": [],
      "name": "echidna_FIL_balances",
      "outputs": [
        {
          "internalType": "bool",
          "name": "",
          "type": "bool"
        }
      ],
      "stateMutability": "view",
      "type": "function"
    },
    {
      "inputs": [],
      "name": "echidna_canary_active_pool_balance",
      "outputs": [
        {
          "internalType": "bool",
          "name": "",
          "type": "bool"
        }
      ],
      "stateMutability": "view",
      "type": "function"
    },
    {
      "inputs": [],
      "name": "echidna_canary_number_of_troves",
      "outputs": [
        {
          "internalType": "bool",
          "name": "",
          "type": "bool"
        }
      ],
      "stateMutability": "view",
      "type": "function"
    },
    {
      "inputs": [],
      "name": "echidna_debt_token_global_balances",
      "outputs": [
        {
          "internalType": "bool",
          "name": "",
          "type": "bool"
        }
      ],
      "stateMutability": "view",
      "type": "function"
    },
    {
      "inputs": [],
      "name": "echidna_price",
      "outputs": [
        {
          "internalType": "bool",
          "name": "",
          "type": "bool"
        }
      ],
      "stateMutability": "view",
      "type": "function"
    },
    {
      "inputs": [],
      "name": "echidna_trove_properties",
      "outputs": [
        {
          "internalType": "bool",
          "name": "",
          "type": "bool"
        }
      ],
      "stateMutability": "view",
      "type": "function"
    },
    {
      "inputs": [],
      "name": "echidna_troves_order",
      "outputs": [
        {
          "internalType": "bool",
          "name": "",
          "type": "bool"
        }
      ],
      "stateMutability": "view",
      "type": "function"
    },
    {
      "inputs": [],
      "name": "gasPool",
      "outputs": [
        {
          "internalType": "contract GasPool",
          "name": "",
          "type": "address"
        }
      ],
      "stateMutability": "view",
      "type": "function"
    },
    {
      "inputs": [
        {
          "internalType": "uint256",
          "name": "_i",
          "type": "uint256"
        },
        {
          "internalType": "address",
          "name": "spender",
          "type": "address"
        },
        {
          "internalType": "uint256",
          "name": "addedValue",
          "type": "uint256"
        }
      ],
      "name": "increaseAllowanceExt",
      "outputs": [
        {
          "internalType": "bool",
          "name": "",
          "type": "bool"
        }
      ],
      "stateMutability": "nonpayable",
      "type": "function"
    },
    {
      "inputs": [
        {
          "internalType": "uint256",
          "name": "_i",
          "type": "uint256"
        },
        {
          "internalType": "address",
          "name": "_user",
          "type": "address"
        }
      ],
      "name": "liquidateExt",
      "outputs": [],
      "stateMutability": "nonpayable",
      "type": "function"
    },
    {
      "inputs": [
        {
          "internalType": "uint256",
          "name": "_i",
          "type": "uint256"
        },
        {
          "internalType": "uint256",
          "name": "_n",
          "type": "uint256"
        }
      ],
      "name": "liquidateTrovesExt",
      "outputs": [],
      "stateMutability": "nonpayable",
      "type": "function"
    },
    {
      "inputs": [
        {
          "internalType": "uint256",
          "name": "_i",
          "type": "uint256"
        },
        {
          "internalType": "uint256",
          "name": "_FIL",
          "type": "uint256"
        },
        {
          "internalType": "uint256",
          "name": "_debtTokenAmount",
          "type": "uint256"
        }
      ],
      "name": "openTroveExt",
      "outputs": [],
      "stateMutability": "payable",
      "type": "function"
    },
    {
      "inputs": [
        {
          "internalType": "uint256",
          "name": "_i",
          "type": "uint256"
        },
        {
          "internalType": "uint256",
          "name": "_FIL",
          "type": "uint256"
        },
        {
          "internalType": "uint256",
          "name": "_debtTokenAmount",
          "type": "uint256"
        },
        {
          "internalType": "address",
          "name": "_upperHint",
          "type": "address"
        },
        {
          "internalType": "address",
          "name": "_lowerHint",
          "type": "address"
        },
        {
          "internalType": "uint256",
          "name": "_maxFee",
          "type": "uint256"
        }
      ],
      "name": "openTroveRawExt",
      "outputs": [],
      "stateMutability": "payable",
      "type": "function"
    },
    {
      "inputs": [
        {
          "internalType": "uint256",
          "name": "_i",
          "type": "uint256"
        },
        {
          "internalType": "uint256",
          "name": "_amount",
          "type": "uint256"
        },
        {
          "internalType": "address",
          "name": "_frontEndTag",
          "type": "address"
        }
      ],
      "name": "provideToSPExt",
      "outputs": [],
      "stateMutability": "nonpayable",
      "type": "function"
    },
    {
      "inputs": [
        {
          "internalType": "uint256",
          "name": "_i",
          "type": "uint256"
        },
        {
          "internalType": "uint256",
          "name": "_debtTokenAmount",
          "type": "uint256"
        },
        {
          "internalType": "address",
          "name": "_firstRedemptionHint",
          "type": "address"
        },
        {
          "internalType": "address",
          "name": "_upperPartialRedemptionHint",
          "type": "address"
        },
        {
          "internalType": "address",
          "name": "_lowerPartialRedemptionHint",
          "type": "address"
        },
        {
          "internalType": "uint256",
          "name": "_partialRedemptionHintNICR",
          "type": "uint256"
        }
      ],
      "name": "redeemCollateralExt",
      "outputs": [],
      "stateMutability": "nonpayable",
      "type": "function"
    },
    {
      "inputs": [
        {
          "internalType": "uint256",
          "name": "_i",
          "type": "uint256"
        },
        {
          "internalType": "uint256",
          "name": "_amount",
          "type": "uint256"
        },
        {
          "internalType": "address",
          "name": "_upperHint",
          "type": "address"
        },
        {
          "internalType": "address",
          "name": "_lowerHint",
          "type": "address"
        }
      ],
      "name": "repayDebtTokenExt",
      "outputs": [],
      "stateMutability": "nonpayable",
      "type": "function"
    },
    {
      "inputs": [
        {
          "internalType": "uint256",
          "name": "_price",
          "type": "uint256"
        }
      ],
      "name": "setPriceExt",
      "outputs": [],
      "stateMutability": "nonpayable",
      "type": "function"
    },
    {
      "inputs": [],
      "name": "stabilityPool",
      "outputs": [
        {
          "internalType": "contract StabilityPool",
          "name": "",
          "type": "address"
        }
      ],
      "stateMutability": "view",
      "type": "function"
    },
    {
      "inputs": [
        {
          "internalType": "uint256",
          "name": "_i",
          "type": "uint256"
        },
        {
          "internalType": "address",
          "name": "recipient",
          "type": "address"
        },
        {
          "internalType": "uint256",
          "name": "amount",
          "type": "uint256"
        }
      ],
      "name": "transferExt",
      "outputs": [
        {
          "internalType": "bool",
          "name": "",
          "type": "bool"
        }
      ],
      "stateMutability": "nonpayable",
      "type": "function"
    },
    {
      "inputs": [
        {
          "internalType": "uint256",
          "name": "_i",
          "type": "uint256"
        },
        {
          "internalType": "address",
          "name": "sender",
          "type": "address"
        },
        {
          "internalType": "address",
          "name": "recipient",
          "type": "address"
        },
        {
          "internalType": "uint256",
          "name": "amount",
          "type": "uint256"
        }
      ],
      "name": "transferFromExt",
      "outputs": [
        {
          "internalType": "bool",
          "name": "",
          "type": "bool"
        }
      ],
      "stateMutability": "nonpayable",
      "type": "function"
    },
    {
      "inputs": [],
      "name": "troveManager",
      "outputs": [
        {
          "internalType": "contract TroveManager",
          "name": "",
          "type": "address"
        }
      ],
      "stateMutability": "view",
      "type": "function"
    },
    {
      "inputs": [
        {
          "internalType": "uint256",
          "name": "_i",
          "type": "uint256"
        },
        {
          "internalType": "uint256",
          "name": "_amount",
          "type": "uint256"
        },
        {
          "internalType": "address",
          "name": "_upperHint",
          "type": "address"
        },
        {
          "internalType": "address",
          "name": "_lowerHint",
          "type": "address"
        }
      ],
      "name": "withdrawCollExt",
      "outputs": [],
      "stateMutability": "nonpayable",
      "type": "function"
    },
    {
      "inputs": [
        {
          "internalType": "uint256",
          "name": "_i",
          "type": "uint256"
        },
        {
          "internalType": "uint256",
          "name": "_amount",
          "type": "uint256"
        },
        {
          "internalType": "address",
          "name": "_upperHint",
          "type": "address"
        },
        {
          "internalType": "address",
          "name": "_lowerHint",
          "type": "address"
        },
        {
          "internalType": "uint256",
          "name": "_maxFee",
          "type": "uint256"
        }
      ],
      "name": "withdrawDebtTokenExt",
      "outputs": [],
      "stateMutability": "nonpayable",
      "type": "function"
    },
    {
      "inputs": [
        {
          "internalType": "uint256",
          "name": "_i",
          "type": "uint256"
        },
        {
          "internalType": "uint256",
          "name": "_amount",
          "type": "uint256"
        }
      ],
      "name": "withdrawFromSPExt",
      "outputs": [],
      "stateMutability": "nonpayable",
      "type": "function"
    }
  ],
  "bytecode": "0x60806040526040516201656d3803806201656d833981810160405260408110156200002957600080fd5b50805160209091015160405182908290620000449062000b14565b9182526020820152604080519182900301906000f0801580156200006c573d6000803e3d6000fd5b50600360006101000a8154816001600160a01b0302191690836001600160a01b031602179055508181604051620000a39062000b22565b9182526020820152604080519182900301906000f080158015620000cb573d6000803e3d6000fd5b50600480546001600160a01b0319166001600160a01b0392909216919091179055604051620000fa9062000b30565b604051809103906000f08015801562000117573d6000803e3d6000fd5b50600580546001600160a01b0319166001600160a01b0392909216919091179055604051620001469062000b3e565b604051809103906000f08015801562000163573d6000803e3d6000fd5b50600660006101000a8154816001600160a01b0302191690836001600160a01b0316021790555081816040516200019a9062000b4c565b9182526020820152604080519182900301906000f080158015620001c2573d6000803e3d6000fd5b50600780546001600160a01b0319166001600160a01b0392909216919091179055604051620001f19062000b5a565b604051809103906000f0801580156200020e573d6000803e3d6000fd5b50600880546001600160a01b0319166001600160a01b0392831617905560035460075460045460405192841693918216929116906200024d9062000b67565b6001600160a01b03938416815291831660208301529091166040808301919091525190819003606001906000f0801580156200028d573d6000803e3d6000fd5b50600a80546001600160a01b0319166001600160a01b0392909216919091179055604051620002bc9062000b75565b604051809103906000f080158015620002d9573d6000803e3d6000fd5b50600980546001600160a01b0319166001600160a01b0392909216919091179055604051620003089062000b83565b604051809103906000f08015801562000325573d6000803e3d6000fd5b50600b80546001600160a01b0319166001600160a01b0392909216919091179055604051620003549062000b91565b604051809103906000f08015801562000371573d6000803e3d6000fd5b50600c80546001600160a01b0319166001600160a01b03928316179081905560035460048054600554600654600754600854600954600b54600a5460408051631e61717960e21b8152988d1699890199909952958b166024880152938a166044870152918916606486015288166084850152871660a4840152861660c4830152851660e482015292841661010484015260006101248401819052610144840181905290519190931692637985c5e492610164808201939182900301818387803b1580156200043e57600080fd5b505af115801562000453573d6000803e3d6000fd5b505060048054600354600554600654600754600854600954600b54600c54600a5460408051636c37a4af60e01b81526001600160a01b039a8b169c81019c909c5297891660248c015295881660448b015293871660648a01529186166084890152851660a4880152841660c4870152831660e48601528216610104850152600061012485018190529051919092169450636c37a4af93506101448084019382900301818387803b1580156200050757600080fd5b505af11580156200051c573d6000803e3d6000fd5b50506005546004805460035460075460065460408051634a945f8d60e01b81526001600160a01b039586169681019690965292841660248601529083166044850152821660648401525192169350634a945f8d925060848082019260009290919082900301818387803b1580156200059357600080fd5b505af1158015620005a8573d6000803e3d6000fd5b5050600654600354600554604080516348083d7f60e11b81526001600160a01b0393841660048201529183166024830152519190921693506390107afe9250604480830192600092919082900301818387803b1580156200060857600080fd5b505af11580156200061d573d6000803e3d6000fd5b505060075460048054600354600554600a54600c54600b546040805163eaa8ba7f60e01b81526001600160a01b039788169881019890985294861660248801529285166044870152908416606486015283166084850152821660a4840152600060c48401819052905191909316945063eaa8ba7f935060e4808301939282900301818387803b158015620006b057600080fd5b505af1158015620006c5573d6000803e3d6000fd5b50506009546004805460035460055460408051630d8efe5960e21b81526001600160a01b0394851695810195909552918316602485015282166044840152519216935063363bf964925060648082019260009290919082900301818387803b1580156200073157600080fd5b505af115801562000746573d6000803e3d6000fd5b5050600c546003546004805460408051631e6edaf360e31b8152670de0b6b3a7640000938101939093526001600160a01b03938416602484015290831660448301525191909216935063f376d7989250606480830192600092919082900301818387803b158015620007b757600080fd5b505af1158015620007cc573d6000803e3d6000fd5b5050505060005b60648110156200090b57600354600454600754600a546040516001600160a01b03948516949384169392831692909116906200080f9062000b9f565b6001600160a01b039485168152928416602084015290831660408084019190915292166060820152905190819003608001906000f08015801562000857573d6000803e3d6000fd5b50600d82606481106200086657fe5b0180546001600160a01b0319166001600160a01b03929092169190911790556000600d82606481106200089557fe5b01546040516001600160a01b039091169069d3c21bcecceda100000090600081818185875af1925050503d8060008114620008ed576040519150601f19603f3d011682016040523d82523d6000602084013e620008f2565b606091505b50509050806200090157600080fd5b50600101620007d3565b506004805460408051631e5395c960e21b815290516001600160a01b039092169263794e5724928282019260209290829003018186803b1580156200094f57600080fd5b505afa15801562000964573d6000803e3d6000fd5b505050506040513d60208110156200097b57600080fd5b50516000556004805460408051635733d58f60e01b815290516001600160a01b0390921692635733d58f928282019260209290829003018186803b158015620009c357600080fd5b505afa158015620009d8573d6000803e3d6000fd5b505050506040513d6020811015620009ef57600080fd5b505160015560048054604080516304e7cba360e21b815290516001600160a01b039092169263139f2e8c928282019260209290829003018186803b15801562000a3757600080fd5b505afa15801562000a4c573d6000803e3d6000fd5b505050506040513d602081101562000a6357600080fd5b505160025560005462000a7557600080fd5b60006001541162000a8557600080fd5b600b54604080516391b7f5ed60e01b815269021e19e0c9bab2400000600482015290516001600160a01b03909216916391b7f5ed916024808201926020929091908290030181600087803b15801562000add57600080fd5b505af115801562000af2573d6000803e3d6000fd5b505050506040513d602081101562000b0957600080fd5b5062000bad92505050565b615b8c806200333983390190565b6139c68062008ec583390190565b610c03806200c88b83390190565b6109df806200d48e83390190565b613a3b806200de6d83390190565b605c80620118a883390190565b61189c806201190483390190565b610b8780620131a083390190565b61013b8062013d2783390190565b6118d68062013e6283390190565b610e35806201573883390190565b61277c8062000bbd6000396000f3fe6080604052600436106102055760003560e01c80638e4707d311610113578063baf5d65f116100ab578063ecb507941161006f578063ecb5079414610856578063efa83cf91461089d578063f8d89898146108e5578063f9bd9a15146108fa578063fa08b0381461090f57610205565b8063baf5d65f14610734578063c325347f14610764578063cda775f9146107e8578063d21af968146107fd578063e44891271461082657610205565b80638e4707d3146105a257806391a4a426146105e1578063926a547d1461060b5780639606f3fb14610620578063980c55d71461066f5780639cdd0978146106845780639f56ac18146106c3578063a2f5cbdd146106d8578063a3d36834146106ed57610205565b80634e792a30116101a1578063696909361161016557806369690936146104a057806377553ad4146104da5780637c22900e146104ef5780637ca8b028146105385780637f7dde4a1461058d57610205565b80634e792a30146103c357806357285cc5146103fc5780635895ac4e1461041f578063597ec7991461043457806359bed84b1461048b57610205565b8063048c661d1461020a57806304bbf59c1461023b578063119be5d01461028e5780631c6fbd23146102cd5780633ca4afc1146103065780633cc74225146103455780633d83908a1461035a57806340ba2e271461036f5780634557559f14610399575b600080fd5b34801561021657600080fd5b5061021f610924565b604080516001600160a01b039092168252519081900360200190f35b34801561024757600080fd5b5061027a6004803603606081101561025e57600080fd5b508035906001600160a01b036020820135169060400135610933565b604080519115158252519081900360200190f35b34801561029a57600080fd5b5061027a600480360360608110156102b157600080fd5b508035906001600160a01b0360208201351690604001356109d7565b610304600480360360a08110156102e357600080fd5b50803590602081013590604081013590606081013590608001351515610a42565b005b34801561031257600080fd5b506103046004803603606081101561032957600080fd5b50803590602081013590604001356001600160a01b0316610b2a565b34801561035157600080fd5b5061021f610bb1565b34801561036657600080fd5b5061021f610bc0565b34801561037b57600080fd5b506103046004803603602081101561039257600080fd5b5035610bcf565b3480156103a557600080fd5b50610304600480360360208110156103bc57600080fd5b5035610c4f565b3480156103cf57600080fd5b50610304600480360360408110156103e657600080fd5b50803590602001356001600160a01b0316610cd5565b6103046004803603604081101561041257600080fd5b5080359060200135610d54565b34801561042b57600080fd5b5061027a610e07565b610304600480360361010081101561044b57600080fd5b5080359060208101359060408101359060608101359060808101351515906001600160a01b0360a082013581169160c08101359091169060e00135610e9e565b34801561049757600080fd5b5061027a610f4f565b610304600480360360808110156104b657600080fd5b508035906020810135906001600160a01b0360408201358116916060013516611204565b3480156104e657600080fd5b5061021f611294565b3480156104fb57600080fd5b5061027a6004803603608081101561051257600080fd5b508035906001600160a01b036020820135811691604081013590911690606001356112a3565b34801561054457600080fd5b50610304600480360360c081101561055b57600080fd5b508035906020810135906001600160a01b03604082013581169160608101358216916080820135169060a0013561134e565b34801561059957600080fd5b5061021f6113fb565b3480156105ae57600080fd5b5061027a600480360360608110156105c557600080fd5b508035906001600160a01b03602082013516906040013561140a565b3480156105ed57600080fd5b5061021f6004803603602081101561060457600080fd5b5035611475565b34801561061757600080fd5b5061027a611495565b34801561062c57600080fd5b50610304600480360360a081101561064357600080fd5b508035906020810135906001600160a01b036040820135811691606081013590911690608001356118bb565b34801561067b57600080fd5b5061027a611933565b34801561069057600080fd5b5061027a600480360360608110156106a757600080fd5b508035906001600160a01b036020820135169060400135611bf5565b3480156106cf57600080fd5b5061027a611c60565b3480156106e457600080fd5b5061027a611c83565b3480156106f957600080fd5b506103046004803603608081101561071057600080fd5b508035906020810135906001600160a01b0360408201358116916060013516611c98565b34801561074057600080fd5b506103046004803603604081101561075757600080fd5b5080359060200135611d09565b34801561077057600080fd5b506103046004803603604081101561078757600080fd5b813591908101906040810160208201356401000000008111156107a957600080fd5b8201836020820111156107bb57600080fd5b803590602001918460208302840111640100000000831117156107dd57600080fd5b509092509050611d6a565b3480156107f457600080fd5b5061021f611dfb565b6103046004803603606081101561081357600080fd5b5080359060208101359060400135611e0a565b34801561083257600080fd5b506103046004803603604081101561084957600080fd5b5080359060200135611f5b565b34801561086257600080fd5b506103046004803603608081101561087957600080fd5b508035906020810135906001600160a01b0360408201358116916060013516611fbc565b610304600480360360c08110156108b357600080fd5b508035906020810135906040810135906001600160a01b03606082013581169160808101359091169060a0013561202d565b3480156108f157600080fd5b5061021f6120ac565b34801561090657600080fd5b5061027a6120bb565b34801561091b57600080fd5b5061021f6122fc565b6007546001600160a01b031681565b600080606485069050600d816064811061094957fe5b01546040805163d466e4eb60e01b81526001600160a01b038781166004830152602482018790529151919092169163d466e4eb9160448083019260209291908290030181600087803b15801561099e57600080fd5b505af11580156109b2573d6000803e3d6000fd5b505050506040513d60208110156109c857600080fd5b506001925050505b9392505050565b600080606485069050600d81606481106109ed57fe5b01546040805163cf83544f60e01b81526001600160a01b038781166004830152602482018790529151919092169163cf83544f9160448083019260209291908290030181600087803b15801561099e57600080fd5b60006064860690506000600d8260648110610a5957fe5b0154600080546001600160a01b039092169250823191610a7c9083908a9061230b565b9050858515610a9557610a9282886000546123df565b90505b60408051631942d56760e21b815260048101849052602481018a905260448101839052871515606482015260006084820181905260a4820181905260c4820181905291516001600160a01b0387169263650b559c9260e4808201939182900301818387803b158015610b0657600080fd5b505af1158015610b1a573d6000803e3d6000fd5b5050505050505050505050505050565b6000606484069050600d8160648110610b3f57fe5b015460408051634c36240b60e01b8152600481018690526001600160a01b03858116602483015291519190921691634c36240b91604480830192600092919082900301818387803b158015610b9357600080fd5b505af1158015610ba7573d6000803e3d6000fd5b5050505050505050565b6006546001600160a01b031681565b6003546001600160a01b031681565b6000606482069050600d8160648110610be457fe5b0160009054906101000a90046001600160a01b03166001600160a01b0316634903a3dd6040518163ffffffff1660e01b8152600401600060405180830381600087803b158015610c3357600080fd5b505af1158015610c47573d6000803e3d6000fd5b505050505050565b600b54604080516391b7f5ed60e01b81526004810184905290516000926001600160a01b0316916391b7f5ed91602480830192602092919082900301818787803b158015610c9c57600080fd5b505af1158015610cb0573d6000803e3d6000fd5b505050506040513d6020811015610cc657600080fd5b5051905080610cd157fe5b5050565b6000606483069050600d8160648110610cea57fe5b015460408051634d37261f60e01b81526001600160a01b03858116600483015291519190921691634d37261f91602480830192600092919082900301818387803b158015610d3757600080fd5b505af1158015610d4b573d6000803e3d6000fd5b50505050505050565b60006064830690506000600d8260648110610d6b57fe5b0154600080546001600160a01b039092169250823191610d8e908390879061230b565b604080516332e859b960e01b8152600481018390526000602482018190526044820181905291519293506001600160a01b038616926332e859b99260648084019391929182900301818387803b158015610de757600080fd5b505af1158015610dfb573d6000803e3d6000fd5b50505050505050505050565b600080600b60009054906101000a90046001600160a01b03166001600160a01b03166398d5fdca6040518163ffffffff1660e01b815260040160206040518083038186803b158015610e5857600080fd5b505afa158015610e6c573d6000803e3d6000fd5b505050506040513d6020811015610e8257600080fd5b5051905080610e95576000915050610e9b565b60019150505b90565b6000606489069050600d8160648110610eb357fe5b015460408051631942d56760e21b8152600481018b9052602481018a90526044810189905287151560648201526001600160a01b03878116608483015286811660a483015260c482018690529151919092169163650b559c9160e480830192600092919082900301818387803b158015610f2c57600080fd5b505af1158015610f40573d6000803e3d6000fd5b50505050505050505050505050565b600080600c60009054906101000a90046001600160a01b03166001600160a01b0316631e2231436040518163ffffffff1660e01b815260040160206040518083038186803b158015610fa057600080fd5b505afa158015610fb4573d6000803e3d6000fd5b505050506040513d6020811015610fca57600080fd5b5051600c546040805163765e015960e01b81526001600160a01b0380851660048301529151939450600093919092169163765e0159916024808301926020929190829003018186803b15801561101f57600080fd5b505afa158015611033573d6000803e3d6000fd5b505050506040513d602081101561104957600080fd5b505190505b6001600160a01b0382161580159061106e57506001600160a01b03811615155b156111fb576003546040805163b0d8e18160e01b81526001600160a01b0385811660048301529151919092169163b0d8e181916024808301926020929190829003018186803b1580156110c057600080fd5b505afa1580156110d4573d6000803e3d6000fd5b505050506040513d60208110156110ea57600080fd5b50516003546040805163b0d8e18160e01b81526001600160a01b0385811660048301529151919092169163b0d8e181916024808301926020929190829003018186803b15801561113957600080fd5b505afa15801561114d573d6000803e3d6000fd5b505050506040513d602081101561116357600080fd5b5051111561117657600092505050610e9b565b600c546040805163765e015960e01b81526001600160a01b03808516600483015291519394508493919092169163765e0159916024808301926020929190829003018186803b1580156111c857600080fd5b505afa1580156111dc573d6000803e3d6000fd5b505050506040513d60208110156111f257600080fd5b5051905061104e565b60019250505090565b6000606485069050600d816064811061121957fe5b0154604080516332e859b960e01b8152600481018790526001600160a01b0386811660248301528581166044830152915191909216916332e859b991606480830192600092919082900301818387803b15801561127557600080fd5b505af1158015611289573d6000803e3d6000fd5b505050505050505050565b6004546001600160a01b031681565b600080606486069050600d81606481106112b957fe5b015460408051636ca5e76160e11b81526001600160a01b0388811660048301528781166024830152604482018790529151919092169163d94bcec29160648083019260209291908290030181600087803b15801561131657600080fd5b505af115801561132a573d6000803e3d6000fd5b505050506040513d602081101561134057600080fd5b506001979650505050505050565b6000606487069050600d816064811061136357fe5b0154604080516335b1017960e01b8152600481018990526001600160a01b0388811660248301528781166044830152868116606483015260848201869052600060a4830181905260c4830181905292519316926335b101799260e48084019391929182900301818387803b1580156113da57600080fd5b505af11580156113ee573d6000803e3d6000fd5b5050505050505050505050565b6005546001600160a01b031681565b600080606485069050600d816064811061142057fe5b015460408051636628d36160e11b81526001600160a01b038781166004830152602482018790529151919092169163cc51a6c29160448083019260209291908290030181600087803b15801561099e57600080fd5b600d816064811061148557600080fd5b01546001600160a01b0316905081565b600080600a60009054906101000a90046001600160a01b03166001600160a01b03166318160ddd6040518163ffffffff1660e01b815260040160206040518083038186803b1580156114e657600080fd5b505afa1580156114fa573d6000803e3d6000fd5b505050506040513d602081101561151057600080fd5b5051600a54600854604080516370a0823160e01b81526001600160a01b039283166004820152905193945060009391909216916370a08231916024808301926020929190829003018186803b15801561156857600080fd5b505afa15801561157c573d6000803e3d6000fd5b505050506040513d602081101561159257600080fd5b5051600554604080516314a6bf0f60e01b815290519293506000926001600160a01b03909216916314a6bf0f91600480820192602092909190829003018186803b1580156115df57600080fd5b505afa1580156115f3573d6000803e3d6000fd5b505050506040513d602081101561160957600080fd5b5051600654604080516314a6bf0f60e01b815290519293506000926001600160a01b03909216916314a6bf0f91600480820192602092909190829003018186803b15801561165657600080fd5b505afa15801561166a573d6000803e3d6000fd5b505050506040513d602081101561168057600080fd5b50519050818101841461169a576000945050505050610e9b565b60075460408051630d9a6b3560e01b815290516000926001600160a01b031691630d9a6b35916004808301926020929190829003018186803b1580156116df57600080fd5b505afa1580156116f3573d6000803e3d6000fd5b505050506040513d602081101561170957600080fd5b5051600c5460408051631e22314360e01b815290519293506000926001600160a01b0390921691631e22314391600480820192602092909190829003018186803b15801561175657600080fd5b505afa15801561176a573d6000803e3d6000fd5b505050506040513d602081101561178057600080fd5b5051905060005b6001600160a01b0382161561189257600a54604080516370a0823160e01b81526001600160a01b038581166004830152915191909216916370a08231916024808301926020929190829003018186803b1580156117e357600080fd5b505afa1580156117f7573d6000803e3d6000fd5b505050506040513d602081101561180d57600080fd5b5051600c546040805163765e015960e01b81526001600160a01b0386811660048301529151949093019391169163765e0159916024808301926020929190829003018186803b15801561185f57600080fd5b505afa158015611873573d6000803e3d6000fd5b505050506040513d602081101561188957600080fd5b50519150611787565b858184010187116118ad576000975050505050505050610e9b565b600197505050505050505090565b6000606486069050600d81606481106118d057fe5b0154604080516342a7f5eb60e11b8152600481018890526001600160a01b0387811660248301528681166044830152606482018690529151919092169163854febd691608480830192600092919082900301818387803b158015610de757600080fd5b600080600c60009054906101000a90046001600160a01b03166001600160a01b0316631e2231436040518163ffffffff1660e01b815260040160206040518083038186803b15801561198457600080fd5b505afa158015611998573d6000803e3d6000fd5b505050506040513d60208110156119ae57600080fd5b505190505b6001600160a01b03811615610e95576001600354604080516321e3780160e01b81526001600160a01b038581166004830152915191909216916321e37801916024808301926020929190829003018186803b158015611a1157600080fd5b505afa158015611a25573d6000803e3d6000fd5b505050506040513d6020811015611a3b57600080fd5b50516004811115611a4857fe5b6004811115611a5357fe5b14611a62576000915050610e9b565b6002546003546040805163d66a255360e01b81526001600160a01b0385811660048301529151919092169163d66a2553916024808301926020929190829003018186803b158015611ab257600080fd5b505afa158015611ac6573d6000803e3d6000fd5b505050506040513d6020811015611adc57600080fd5b50511015611aee576000915050610e9b565b60035460408051630326771360e51b81526001600160a01b038481166004830152915191909216916364cee260916024808301926020929190829003018186803b158015611b3b57600080fd5b505afa158015611b4f573d6000803e3d6000fd5b505050506040513d6020811015611b6557600080fd5b5051611b75576000915050610e9b565b600c546040805163765e015960e01b81526001600160a01b0384811660048301529151919092169163765e0159916024808301926020929190829003018186803b158015611bc257600080fd5b505afa158015611bd6573d6000803e3d6000fd5b505050506040513d6020811015611bec57600080fd5b505190506119b3565b600080606485069050600d8160648110611c0b57fe5b01546040805163390b5f2760e01b81526001600160a01b038781166004830152602482018790529151919092169163390b5f279160448083019260209291908290030181600087803b15801561099e57600080fd5b6005546000906001600160a01b03163115611c7d57506000610e9b565b50600190565b600060146071541115611c7d57506000610e9b565b6000606485069050600d8160648110611cad57fe5b015460408051633ddd87af60e11b8152600481018790526001600160a01b038681166024830152858116604483015291519190921691637bbb0f5e91606480830192600092919082900301818387803b15801561127557600080fd5b6000606483069050600d8160648110611d1e57fe5b01546040805163f47a1ea760e01b81526004810185905290516001600160a01b039092169163f47a1ea79160248082019260009290919082900301818387803b158015610d3757600080fd5b6000606484069050600d8160648110611d7f57fe5b0154604051634afbac5160e01b8152602060048201818152602483018690526001600160a01b0390931692634afbac5192879287929182916044909101908590850280828437600081840152601f19601f8201169050808301925050509350505050600060405180830381600087803b158015610b9357600080fd5b6009546001600160a01b031681565b60006064840690506000600d8260648110611e2157fe5b01546001546001600160a01b039091169150813190600090611e46908390889061230b565b90506000611e5782876001546123df565b60408051639113473160e01b81526004810185905260248101839052600060448201819052606482018190526084820181905291519293506001600160a01b0387169263911347319260a48084019391929182900301818387803b158015611ebe57600080fd5b505af1158015611ed2573d6000803e3d6000fd5b50505050600360009054906101000a90046001600160a01b03166001600160a01b03166349eefeee6040518163ffffffff1660e01b815260040160206040518083038186803b158015611f2457600080fd5b505afa158015611f38573d6000803e3d6000fd5b505050506040513d6020811015611f4e57600080fd5b50516071819055610ba757fe5b6000606483069050600d8160648110611f7057fe5b01546040805163320d84db60e11b81526004810185905290516001600160a01b039092169163641b09b69160248082019260009290919082900301818387803b158015610d3757600080fd5b6000606485069050600d8160648110611fd157fe5b01546040805163190f7b2360e21b8152600481018790526001600160a01b03868116602483015285811660448301529151919092169163643dec8c91606480830192600092919082900301818387803b15801561127557600080fd5b6000606487069050600d816064811061204257fe5b015460408051639113473160e01b815260048101899052602481018890526001600160a01b0387811660448301528681166064830152608482018690529151919092169163911347319160a480830192600092919082900301818387803b1580156113da57600080fd5b600a546001600160a01b031681565b6003546000906001600160a01b031631156120d857506000610e9b565b6004546001600160a01b031631156120f257506000610e9b565b600560009054906101000a90046001600160a01b03166001600160a01b031663c5c3937e6040518163ffffffff1660e01b815260040160206040518083038186803b15801561214057600080fd5b505afa158015612154573d6000803e3d6000fd5b505050506040513d602081101561216a57600080fd5b50516005546001600160a01b0316311461218657506000610e9b565b600660009054906101000a90046001600160a01b03166001600160a01b031663c5c3937e6040518163ffffffff1660e01b815260040160206040518083038186803b1580156121d457600080fd5b505afa1580156121e8573d6000803e3d6000fd5b505050506040513d60208110156121fe57600080fd5b50516006546001600160a01b0316311461221a57506000610e9b565b600760009054906101000a90046001600160a01b03166001600160a01b031663c5c3937e6040518163ffffffff1660e01b815260040160206040518083038186803b15801561226857600080fd5b505afa15801561227c573d6000803e3d6000fd5b505050506040513d602081101561229257600080fd5b50516007546001600160a01b031631146122ae57506000610e9b565b600a546001600160a01b031631156122c857506000610e9b565b600b546001600160a01b031631156122e257506000610e9b565b600c546001600160a01b03163115611c7d57506000610e9b565b6008546001600160a01b031681565b600080600b60009054906101000a90046001600160a01b03166001600160a01b03166398d5fdca6040518163ffffffff1660e01b815260040160206040518083038186803b15801561235c57600080fd5b505afa158015612370573d6000803e3d6000fd5b505050506040513d602081101561238657600080fd5b505190508061239457600080fd5b60006123b5826123af600254876124bf90919063ffffffff16565b90612521565b90508086116123c357600080fd5b600081870386816123d057fe5b06919091019695505050505050565b600080600b60009054906101000a90046001600160a01b03166001600160a01b03166398d5fdca6040518163ffffffff1660e01b815260040160206040518083038186803b15801561243057600080fd5b505afa158015612444573d6000803e3d6000fd5b505050506040513d602081101561245a57600080fd5b50516002549091508490600090612472908390612563565b905060006124818883866125bd565b9050858110156124b357612499866123af8a876124bf565b91506124b0600254836125e790919063ffffffff16565b92505b50909695505050505050565b6000826124ce5750600061251b565b828202828482816124db57fe5b04146125185760405162461bcd60e51b81526004018080602001828103825260218152602001806127266021913960400191505060405180910390fd5b90505b92915050565b600061251883836040518060400160405280601a81526020017f536166654d6174683a206469766973696f6e206279207a65726f000000000000815250612629565b600082820183811015612518576040805162461bcd60e51b815260206004820152601b60248201527f536166654d6174683a206164646974696f6e206f766572666c6f770000000000604482015290519081900360640190fd5b600082156125de5760006125d5846123af87866124bf565b91506109d09050565b506000196109d0565b600061251883836040518060400160405280601e81526020017f536166654d6174683a207375627472616374696f6e206f766572666c6f7700008152506126cb565b600081836126b55760405162461bcd60e51b81526004018080602001828103825283818151815260200191508051906020019080838360005b8381101561267a578181015183820152602001612662565b50505050905090810190601f1680156126a75780820380516001836020036101000a031916815260200191505b509250505060405180910390fd5b5060008385816126c157fe5b0495945050505050565b6000818484111561271d5760405162461bcd60e51b815260206004820181815283516024840152835190928392604490910191908501908083836000831561267a578181015183820152602001612662565b50505090039056fe536166654d6174683a206d756c7469706c69636174696f6e206f766572666c6f77a264697066735822122019a8d7d916e1c95b639ed4c99a450a1e047000dff08f9b7f338c43099413f6dc64736f6c6343000706003360c06040523480156200001157600080fd5b5060405162005b8c38038062005b8c833981810160405260408110156200003757600080fd5b508051602090910151608082905260a0819052600380546001600160a01b031916339081179091556040516000907f8be0079c531659141344cd1fd0a4f28419497f9722a3daafe3b4186f6b6457e0908290a3505060805160a051615aaa620000e260003980610df15280613c425280614404525080610d6e5280613b6e5280614285528061432a528061436b5280614a6a5280614ebb52806152b352806155d65250615aaa6000f3fe608060405234801561001057600080fd5b506004361061044a5760003560e01c8063756b253e1161023c578063b91af97c11610146578063d5b35635116100c3578063f36b242511610087578063f36b242514610c82578063f59fac2d14610c8a578063f8d8989814610cb0578063f92d343314610665578063fe2ba84814610cb85761044a565b8063d5b3563514610bf4578063d66a255314610c11578063d9a7244414610c37578063e2ac77b014610c54578063e545242314610c7a5761044a565b8063c7b554811161010a578063c7b5548114610b66578063cbd138ae14610b6e578063d293c71014610b94578063d380a37c14610bc0578063d3d6f84314610bc85761044a565b8063b91af97c14610ab4578063bcd3752614610b00578063bf9befb114610b4e578063c35bc55014610b56578063c52861f214610b5e5761044a565b80638f32d59b116101d4578063a3f4df7e11610198578063a3f4df7e146109e4578063ae91875414610a61578063b0d8e18114610a69578063b7f8cf9b14610a8f578063b82f263d14610a975761044a565b80638f32d59b146109a057806396d711ff146109a85780639976cf45146109b0578063a0d8d6bc146109dc578063a20baee6146108995761044a565b8063756b253e146108b1578063794e5724146108ce578063795d26c3146108d65780637985c5e4146108de5780637f7dde4a1461095a578063807d138d1461096257806382fe3eb91461096a578063887105d3146109905780638da5cb5b146109985761044a565b80633cc742251161035857806361ec893d116102d55780636ef64338116102995780636ef643381461080157806372423c171461086d57806372fe25aa1461089957806373098be9146108a1578063741bef1a146108a95761044a565b806361ec893d14610791578063631203b01461079957806364cee260146107b6578063653d46e7146107dc57806366ca4a21146107f95761044a565b80634e443d9e1161031c5780634e443d9e146106fe57806352512eaa1461072f5780635733d58f146107555780635d6b480f1461075d5780635dba4c4a146107895761044a565b80633cc74225146106a3578063477d66cf146106ab578063480cd578146106c85780634870dd9a146106ee57806349eefeee146106f65761044a565b80631bf43555116103e657806326b4d8fd116103aa57806326b4d8fd1461065d57806328d28b5b146106655780632b11551a1461066d5780632f8655681461067557806331eaf05c1461069b5761044a565b80631bf435551461057c5780631e8b1c2b146105845780631f68f20a1461062757806321e378011461062f57806324092669146106555761044a565b8063048c661d1461044f578063071a7541146104735780630b0765571461048d57806312610e92146104b5578063139f2e8c146104e157806315d549f1146104e95780631673c79a1461050f57806318f2817a1461054e5780631a465fe114610574575b600080fd5b610457610cde565b604080516001600160a01b039092168252519081900360200190f35b61047b610ced565b60408051918252519081900360200190f35b6104b3600480360360208110156104a357600080fd5b50356001600160a01b0316610cf2565b005b61047b600480360360408110156104cb57600080fd5b506001600160a01b038135169060200135610d1a565b61047b610d6c565b61047b600480360360208110156104ff57600080fd5b50356001600160a01b0316610d90565b6105356004803603602081101561052557600080fd5b50356001600160a01b0316610db4565b6040805192835260208301919091528051918290030190f35b61047b6004803603602081101561056457600080fd5b50356001600160a01b0316610dcd565b610457610de0565b61047b610def565b6104b36004803603602081101561059a57600080fd5b8101906020810181356401000000008111156105b557600080fd5b8201836020820111156105c757600080fd5b803590602001918460208302840111640100000000831117156105e957600080fd5b919080806020026020016040519081016040528093929190818152602001838360200280828437600092019190915250929550610e13945050505050565b61047b6111a7565b61047b6004803603602081101561064557600080fd5b50356001600160a01b03166111ad565b61047b6111d7565b61047b6111ea565b61047b6111f0565b61047b611201565b6104b36004803603602081101561068b57600080fd5b50356001600160a01b0316611213565b61047b611279565b61045761127f565b61047b600480360360208110156106c157600080fd5b503561128e565b61047b600480360360208110156106de57600080fd5b50356001600160a01b03166112a1565b61047b6112bf565b61047b6112c4565b61071b6004803603602081101561071457600080fd5b50356112ca565b604080519115158252519081900360200190f35b61047b6004803603602081101561074557600080fd5b50356001600160a01b03166112d5565b61047b611389565b6104b36004803603604081101561077357600080fd5b506001600160a01b038135169060200135611395565b6104b36113e1565b61047b611447565b61047b600480360360208110156107af57600080fd5b503561144c565b61047b600480360360208110156107cc57600080fd5b50356001600160a01b0316611459565b6104b3600480360360208110156107f257600080fd5b5035611477565b61047b611814565b6108276004803603602081101561081757600080fd5b50356001600160a01b0316611826565b6040518086815260200185815260200184815260200183600481111561084957fe5b8152602001826001600160801b031681526020019550505050505060405180910390f35b61047b6004803603604081101561088357600080fd5b506001600160a01b038135169060200135611860565b61047b6118b7565b61047b6118c3565b6104576118c9565b610457600480360360208110156108c757600080fd5b50356118d8565b61047b611902565b61047b61190e565b6104b360048036036101608110156108f557600080fd5b506001600160a01b038135811691602081013582169160408201358116916060810135821691608082013581169160a081013582169160c082013581169160e08101358216916101008201358116916101208101358216916101409091013516611a09565b610457611e14565b61047b611e23565b6104b36004803603602081101561098057600080fd5b50356001600160a01b0316611e29565b61047b611e3a565b610457611ef6565b61071b611f05565b61047b611f16565b61047b600480360360408110156109c657600080fd5b506001600160a01b038135169060200135611f1c565b61047b611f49565b6109ec611f4f565b6040805160208082528351818301528351919283929083019185019080838360005b83811015610a26578181015183820152602001610a0e565b50505050905090810190601f168015610a535780820380516001836020036101000a031916815260200191505b509250505060405180910390f35b610457611f77565b61047b60048036036020811015610a7f57600080fd5b50356001600160a01b0316611f86565b610457611fad565b61047b60048036036020811015610aad57600080fd5b5035611fbc565b610ada60048036036020811015610aca57600080fd5b50356001600160a01b0316611fc7565b604080519485526020850193909352838301919091526060830152519081900360800190f35b6104b3600480360360e0811015610b1657600080fd5b508035906001600160a01b03602082013581169160408101358216916060820135169060808101359060a08101359060c0013561201f565b61047b612782565b61047b612788565b61047b61278f565b61047b6127a1565b6104b360048036036020811015610b8457600080fd5b50356001600160a01b03166127ad565b61047b60048036036040811015610baa57600080fd5b506001600160a01b0381351690602001356127c0565b61047b6127df565b61047b60048036036040811015610bde57600080fd5b506001600160a01b0381351690602001356127e5565b61047b60048036036020811015610c0a57600080fd5b5035612815565b61047b60048036036020811015610c2757600080fd5b50356001600160a01b0316612828565b61045760048036036020811015610c4d57600080fd5b5035612843565b61071b60048036036020811015610c6a57600080fd5b50356001600160a01b031661286d565b6104576128cb565b61047b6128da565b61047b60048036036020811015610ca057600080fd5b50356001600160a01b03166128e7565b610457612912565b6104b360048036036020811015610cce57600080fd5b50356001600160a01b0316612921565b6005546001600160a01b031681565b600281565b610cfa612932565b600054600154610d17916001600160a01b0390811691168361297d565b50565b6000610d24612932565b6001600160a01b0383166000908152600e6020526040812054610d479084612a93565b6001600160a01b0385166000908152600e602052604090208190559150505b92915050565b7f000000000000000000000000000000000000000000000000000000000000000081565b6000610d9a612932565b610da382612adc565b6001600160801b031690505b919050565b6014602052600090815260409020805460019091015482565b6000610dd7612932565b610d6682612b76565b6009546001600160a01b031681565b7f000000000000000000000000000000000000000000000000000000000000000081565b8051610e505760405162461bcd60e51b81526004018080602001828103825260368152602001806159306036913960400191505060405180910390fd5b6000546001546005546001600160a01b03928316929182169116610e72615664565b610e7a615695565b600260009054906101000a90046001600160a01b03166001600160a01b0316630fdb11cf6040518163ffffffff1660e01b8152600401602060405180830381600087803b158015610eca57600080fd5b505af1158015610ede573d6000803e3d6000fd5b505050506040513d6020811015610ef457600080fd5b5051825260408051630d9a6b3560e01b815290516001600160a01b03851691630d9a6b35916004808301926020929190829003018186803b158015610f3857600080fd5b505afa158015610f4c573d6000803e3d6000fd5b505050506040513d6020811015610f6257600080fd5b505160208301528151610f7490612c19565b1580156040840152610f9c57610f958585846000015185602001518a612c36565b9050610fb4565b610fb18585846000015185602001518a612e54565b90505b6000816020015111610ff75760405162461bcd60e51b8152600401808060200182810382526022815260200180615a246022913960400191505060405180910390fd5b826001600160a01b031663335525ad82608001518360a001516040518363ffffffff1660e01b81526004018083815260200182815260200192505050600060405180830381600087803b15801561104d57600080fd5b505af1158015611061573d6000803e3d6000fd5b5050505061107985858360c001518460e00151612f16565b610100810151156110f65760075461010082015160408051628063a560e01b81526001600160a01b03938416600482015260248101929092525191871691628063a59160448082019260009290919082900301818387803b1580156110dd57600080fd5b505af11580156110f1573d6000803e3d6000fd5b505050505b611104858260400151613169565b6020810151606083015261010081015160408201518251611130929161112a9190612a93565b90612a93565b608080840182905260608085015160408086015186840151825193845260208401969096528282015291810193909352517f4152c73dd2614c4f9fc35e8c9cf16013cd588c75b49a4c1673ecffdcbcda94039281900390910190a161119f8533836060015184604001516132aa565b505050505050565b600c5481565b6001600160a01b0381166000908152600e602052604081206003015460ff166004811115610d6657fe5b6064670de0b6b3a76400005b0460050281565b60175481565b6103e8670de0b6b3a76400006111e3565b600061120e600c546133a3565b905090565b61121c816133d9565b60408051600180825281830190925260009160208083019080368337019050509050818160008151811061124c57fe5b60200260200101906001600160a01b031690816001600160a01b03168152505061127581610e13565b5050565b60135481565b6001546001600160a01b031681565b6000610d6661129b611814565b83613441565b6001600160a01b03166000908152600e602052604090206001015490565b60c881565b60155490565b6000610d6682612c19565b6001600160a01b03811660009081526014602052604081205460125482906112fd9083612a93565b9050801580611336575060016001600160a01b0385166000908152600e602052604090206003015460ff16600481111561133357fe5b14155b1561134657600092505050610daf565b6001600160a01b0384166000908152600e60205260408120600201549061137f670de0b6b3a76400006113798486613455565b906134ae565b9695505050505050565b6714d1120d7b16000081565b61139d612932565b8060048111156113a957fe5b6001600160a01b0383166000908152600e60205260409020600301805460ff191660018360048111156113d857fe5b02179055505050565b6113e9612932565b60006113f36134f0565b9050670de0b6b3a764000081111561140757fe5b600c8190556040805182815290517fc454ee9b76c52f782a256af821b857ca6e125d1e3333bcede402fec2bed9600c9181900360200190a1610d17613534565b603c81565b6000610d6661129b6128da565b6001600160a01b03166000908152600e602052604090206002015490565b6040805160e081018252600080546001600160a01b0390811683526001548116602084015292820181905260608201819052600b548316608083015260a0820181905260c08201526005549091166114cd615664565b6114d5615695565b600260009054906101000a90046001600160a01b03166001600160a01b0316630fdb11cf6040518163ffffffff1660e01b8152600401602060405180830381600087803b15801561152557600080fd5b505af1158015611539573d6000803e3d6000fd5b505050506040513d602081101561154f57600080fd5b5051825260408051630d9a6b3560e01b815290516001600160a01b03851691630d9a6b35916004808301926020929190829003018186803b15801561159357600080fd5b505afa1580156115a7573d6000803e3d6000fd5b505050506040513d60208110156115bd57600080fd5b5051602083015281516115cf90612c19565b15801560408401526115f6576115ef848360000151846020015188613590565b9050611616565b611613846000015185602001518460000151856020015189613910565b90505b60008160200151116116595760405162461bcd60e51b8152600401808060200182810382526022815260200180615a246022913960400191505060405180910390fd5b826001600160a01b031663335525ad82608001518360a001516040518363ffffffff1660e01b81526004018083815260200182815260200192505050600060405180830381600087803b1580156116af57600080fd5b505af11580156116c3573d6000803e3d6000fd5b505050506116e3846000015185602001518360c001518460e00151612f16565b6101008101511561176257835160075461010083015160408051628063a560e01b81526001600160a01b0393841660048201526024810192909252519190921691628063a591604480830192600092919082900301818387803b15801561174957600080fd5b505af115801561175d573d6000803e3d6000fd5b505050505b61177484600001518260400151613169565b602081015160608301526101008101516040820151825161179a929161112a9190612a93565b608080840182905260608085015160408086015186840151825193845260208401969096528282015291810193909352517f4152c73dd2614c4f9fc35e8c9cf16013cd588c75b49a4c1673ecffdcbcda94039281900390910190a161180d846000015133836060015184604001516132aa565b5050505050565b600061120e6118216134f0565b613a3c565b600e6020526000908152604090208054600182015460028301546003909301549192909160ff81169061010090046001600160801b031685565b600061186a612932565b6001600160a01b0383166000908152600e60205260408120600101546118909084613a63565b6001600160a01b0385166000908152600e6020526040902060010181905591505092915050565b670de0b6b3a764000081565b60125481565b6002546001600160a01b031681565b601581815481106118e857600080fd5b6000918252602090912001546001600160a01b0316905081565b670f43fc2c04ee000081565b60008054604080516314a6bf0f60e01b8152905183926001600160a01b0316916314a6bf0f916004808301926020929190829003018186803b15801561195357600080fd5b505afa158015611967573d6000803e3d6000fd5b505050506040513d602081101561197d57600080fd5b5051600154604080516314a6bf0f60e01b815290519293506000926001600160a01b03909216916314a6bf0f91600480820192602092909190829003018186803b1580156119ca57600080fd5b505afa1580156119de573d6000803e3d6000fd5b505050506040513d60208110156119f457600080fd5b50519050611a028282613a63565b9250505090565b611a11611f05565b611a62576040805162461bcd60e51b815260206004820181905260248201527f4f776e61626c653a2063616c6c6572206973206e6f7420746865206f776e6572604482015290519081900360640190fd5b611a6b8b613abd565b611a748a613abd565b611a7d89613abd565b611a8688613abd565b611a8f87613abd565b611a9886613abd565b611aa185613abd565b611aaa84613abd565b611ab383613abd565b611abc82613abd565b611ac581613abd565b611ace8b613b6c565b611ad788613b6c565b600480546001600160a01b03199081166001600160a01b038e81169182179093556000805483168e85161790556001805483168d85161790556005805483168c85161790556006805483168b85161790556007805483168a8516179055600280548316898516179055600880548316888516179055600b80548316878516179055600980548316868516179055600a805490921692841692909217905560408051918252517f3ca631ffcd2a9b5d9ae18543fc82f58eb4ca33af9e6ab01b7a8e95331e6ed985916020908290030190a1604080516001600160a01b038c16815290517f78f058b189175430c48dc02699e3a0031ea4ff781536dc2fab847de4babdd8829181900360200190a1604080516001600160a01b038b16815290517f5ee0cae2f063ed938bb55046f6a932fb6ae792bf43624806bb90abe68a50be9b9181900360200190a1604080516001600160a01b038a16815290517f82966d27eea39b038ee0fa30cd16532bb24f6e65d31cb58fb227aa5766cdcc7f9181900360200190a1604080516001600160a01b038916815290517fcfb07d791fcafc032b35837b50eb84b74df518cf4cc287e8084f47630fa70fa09181900360200190a1604080516001600160a01b038816815290517fe67f36a6e961157d6eff83b91f3af5a62131ceb6f04954ef74f51c1c05e7f88d9181900360200190a1604080516001600160a01b038716815290517f8c537274438aa850a330284665d81a85dd38267d09e4050d416bfc94142db2649181900360200190a1604080516001600160a01b038616815290517f112220fa8dbe96141556e0dc3d74dd95075b323f4f297616048e02d82d7017159181900360200190a1604080516001600160a01b038516815290517f65f4cf077bc01e4742eb5ad98326f6e95b63548ea24b17f8d5e823111fe788009181900360200190a1604080516001600160a01b038416815290517f7b0c6ae24561d189fc90b337cbc97aa15d085bef32931237a762e3e528b285b49181900360200190a1604080516001600160a01b038316815290517ff81a824d1d9030c0365252fb96daf0565f9c2007c88e13001379dda7f06d5d5c9181900360200190a1611e07613d10565b5050505050505050505050565b6000546001600160a01b031681565b60105481565b611e31612932565b610d1781613d5a565b60008054604080516362e1c9bf60e11b8152905183926001600160a01b03169163c5c3937e916004808301926020929190829003018186803b158015611e7f57600080fd5b505afa158015611e93573d6000803e3d6000fd5b505050506040513d6020811015611ea957600080fd5b5051600154604080516362e1c9bf60e11b815290519293506000926001600160a01b039092169163c5c3937e91600480820192602092909190829003018186803b1580156119ca57600080fd5b6003546001600160a01b031690565b6003546001600160a01b0316331490565b60115481565b6000611f26612932565b6001600160a01b0383166000908152600e6020526040812054610d479084613a63565b60165481565b6040518060400160405280600c81526020016b2a3937bb32a6b0b730b3b2b960a11b81525081565b600b546001600160a01b031681565b6000806000611f9484613dc5565b915091506000611fa48383613e3f565b95945050505050565b6004546001600160a01b031681565b6000610d6682613e6e565b6001600160a01b0381166000908152600e602052604081208054600190910154909180611ff3856128e7565b9150611ffe856112d5565b905061200a8483613a63565b93506120168382613a63565b92509193509193565b6040805160e0810182526000546001600160a01b03908116825260015481166020830152600854811692820192909252600a5482166060820152600b5482166080820152600754821660a082015260065490911660c08201526120806156e1565b61208983613e9a565b612091613ef4565b600260009054906101000a90046001600160a01b03166001600160a01b0316630fdb11cf6040518163ffffffff1660e01b8152600401602060405180830381600087803b1580156120e157600080fd5b505af11580156120f5573d6000803e3d6000fd5b505050506040513d602081101561210b57600080fd5b505160c0820181905261211d90613fb2565b61212689614001565b6121358260400151338b614040565b61213d61190e565b60e0820181905260408084015181516370a0823160e01b815233600482015291516001600160a01b03909116916370a08231916024808301926020929190829003018186803b15801561218f57600080fd5b505afa1580156121a3573d6000803e3d6000fd5b505050506040513d60208110156121b957600080fd5b505111156121c357fe5b888152608082015160c08201516000916121de918b906140f7565b156121ea57508761230b565b82608001516001600160a01b0316634d6228316040518163ffffffff1660e01b815260040160206040518083038186803b15801561222757600080fd5b505afa15801561223b573d6000803e3d6000fd5b505050506040513d602081101561225157600080fd5b505190505b6001600160a01b038116158015906122825750670f43fc2c04ee0000612280828460c001516127c0565b105b1561230b5782608001516001600160a01b031663b72703ac826040518263ffffffff1660e01b815260040180826001600160a01b0316815260200191505060206040518083038186803b1580156122d857600080fd5b505afa1580156122ec573d6000803e3d6000fd5b505050506040513d602081101561230257600080fd5b50519050612256565b846123165760001994505b6001600160a01b0381161580159061232e5750815115155b801561233a5750600085115b1561244d57848060019003955050600083608001516001600160a01b031663b72703ac836040518263ffffffff1660e01b815260040180826001600160a01b0316815260200191505060206040518083038186803b15801561239b57600080fd5b505afa1580156123af573d6000803e3d6000fd5b505050506040513d60208110156123c557600080fd5b5051845160208601519192506123db918461297d565b60006123f4858486600001518760c001518e8e8e614258565b905080604001511561240757505061244d565b8051602085015161241791613a63565b602080860191909152810151604085015161243191613a63565b60408501528051845161244391612a93565b8452509050612316565b60008260400151116124905760405162461bcd60e51b81526004018080602001828103825260298152602001806157d36029913960400191505060405180910390fd5b6124a782604001518360c001518460e0015161454c565b506124b582604001516145e2565b6060830181905260408301516124cc9190866145ef565b82600001516001600160a01b0316628063a5846060015184606001516040518363ffffffff1660e01b815260040180836001600160a01b0316815260200182815260200192505050600060405180830381600087803b15801561252e57600080fd5b505af1158015612542573d6000803e3d6000fd5b5050505082606001516001600160a01b031663c91d2d3883606001516040518263ffffffff1660e01b815260040180828152602001915050600060405180830381600087803b15801561259457600080fd5b505af11580156125a8573d6000803e3d6000fd5b50505050606082015160408301516125bf91612a93565b8260800181815250507f43a3f4082a4dbc33d78e317d2497d3a730bc7fc3574159dcea1056e62e5d9ad88a8360200151846040015185606001516040518085815260200184815260200183815260200182815260200194505050505060405180910390a182604001516001600160a01b0316639dc29fac3384602001516040518363ffffffff1660e01b815260040180836001600160a01b0316815260200182815260200192505050600060405180830381600087803b15801561268257600080fd5b505af1158015612696573d6000803e3d6000fd5b5050505082600001516001600160a01b0316632a7ba1f783602001516040518263ffffffff1660e01b815260040180828152602001915050600060405180830381600087803b1580156126e857600080fd5b505af11580156126fc573d6000803e3d6000fd5b5050505082600001516001600160a01b0316628063a53384608001516040518363ffffffff1660e01b815260040180836001600160a01b0316815260200182815260200192505050600060405180830381600087803b15801561275e57600080fd5b505af1158015612772573d6000803e3d6000fd5b5050505050505050505050505050565b600f5481565b6212750081565b600061120e61279c6134f0565b6133a3565b670ddd4b8c6c7d70d881565b6127b5612932565b610d1781600261465e565b60008060006127ce85613dc5565b91509150600061137f838387614777565b600d5481565b60006127ef612932565b6001600160a01b0383166000908152600e60205260408120600101546118909084612a93565b6000610d6661282261278f565b836147a1565b6001600160a01b03166000908152600e602052604090205490565b60006015828154811061285257fe5b6000918252602090912001546001600160a01b031692915050565b600060016001600160a01b0383166000908152600e602052604090206003015460ff16600481111561289b57fe5b146128a857506000610daf565b506012546001600160a01b03821660009081526014602052604090205410919050565b600a546001600160a01b031681565b600061120e600c54613a3c565b6001600160a01b03811660009081526014602052604081206001015460135482906112fd9083612a93565b6008546001600160a01b031681565b612929612932565b610d17816147fa565b6004546001600160a01b0316331461297b5760405162461bcd60e51b815260040180806020018281038252603b8152602001806158f5603b913960400191505060405180910390fd5b565b6129868161286d565b15612a8e57612994816133d9565b600061299f826112d5565b905060006129ac836128e7565b6001600160a01b0384166000908152600e60205260409020600101549091506129d59083613a63565b6001600160a01b0384166000908152600e60205260409020600181019190915554612a009082613a63565b6001600160a01b0384166000908152600e6020526040902055612a2283613d5a565b612a2e85858385614844565b6001600160a01b0383166000818152600e602090815260408083208054600182015460029092015483519182529381019190915280820192909252606082019290925290516000805160206158d58339815191529181900360800190a250505b505050565b6000612ad583836040518060400160405280601e81526020017f536166654d6174683a207375627472616374696f6e206f766572666c6f770000815250614946565b9392505050565b601580546001808201835560008381527f55f448fdea98c4d29eb340757ef0a66cd03dbb9538908a6a81d96026b71ec47590920180546001600160a01b0319166001600160a01b03861617905591549091612b379190612a93565b6001600160a01b03929092166000908152600e602052604090206003018054610100600160881b0319166101006001600160801b038516021790555090565b6001600160a01b0381166000908152600e60205260408120600101548190612b9d906149dd565b6001600160a01b0384166000908152600e60205260409020600201805490829055600f5491925090612bdb908390612bd59084612a93565b90613a63565b600f81905560408051918252517f6bac5e0eb3c44eb03a60ab11ec3a2c051771616aecadbcfff2630aabae5203829181900360200190a15092915050565b600080612c2583613e6e565b6714d1120d7b160000119392505050565b612c3e615695565b612c46615726565b612c4e615695565b84825260006080830152612c6061190e565b60a0830152612c6d611e3a565b60c0830152600060208301525b835182602001511015612e495783826020015181518110612c9757fe5b6020908102919091018101516001600160a01b0316606084018190526000908152600e909152604090206003015460019060ff166004811115612cd657fe5b14612ce057612e39565b612cee8260600151876127c0565b60408301526080820151612de157670f43fc2c04ee0000826040015110158015612d1757508151155b15612d2157612e39565b6000612d368360c001518460a0015189614777565b9050612d538989856060015186604001518760000151868d614a19565b60808101518451919350612d679190612a93565b8352608082015160a0840151612d7c91612a93565b8360a0018181525050612db182610100015161112a846040015161112a8660a001518860c00151612a9390919063ffffffff16565b60c0840152612dc08483614d57565b9350612dd58360c001518460a0015189614e38565b15608084015250612e39565b81608001518015612dfd5750670f43fc2c04ee00008260400151105b15612e3957612e16888884606001518560000151614e59565b60808101518351919250612e2a9190612a93565b8252612e368382614d57565b92505b6020820180516001019052612c7a565b505095945050505050565b612e5c615695565b612e64615726565b612e6c615695565b848252600060208301525b835182602001511015612e495783826020015181518110612e9457fe5b60209081029190910101516001600160a01b031660608301819052612eb990876127c0565b60408301819052670f43fc2c04ee00001115612f0657612ee3888884606001518560000151614e59565b60808101518351919250612ef79190612a93565b8252612f038382614d57565b92505b6020820180516001019052612e77565b81612f2057613163565b601654600090612f3c90612bd584670de0b6b3a7640000613455565b90506000612f61601754612bd5670de0b6b3a76400008761345590919063ffffffff16565b90506000612f7a600f54846134ae90919063ffffffff16565b90506000612f93600f54846134ae90919063ffffffff16565b9050612fb4612fad600f548461345590919063ffffffff16565b8590612a93565b601655600f54612fd090612fc9908390613455565b8490612a93565b601755601254612fe09083613a63565b601255601354612ff09082613a63565b601381905560125460408051918252602082019290925281517f9f8bc8ab0daf5bceef75ecfd2085d1fcc6548c657ea970d9a23a60610d0737e3929181900390910190a1876001600160a01b0316632a7ba1f7876040518263ffffffff1660e01b815260040180828152602001915050600060405180830381600087803b15801561307a57600080fd5b505af115801561308e573d6000803e3d6000fd5b50505050866001600160a01b0316632b7c7b11876040518263ffffffff1660e01b815260040180828152602001915050600060405180830381600087803b1580156130d857600080fd5b505af11580156130ec573d6000803e3d6000fd5b50505050876001600160a01b0316628063a588876040518363ffffffff1660e01b815260040180836001600160a01b0316815260200182815260200192505050600060405180830381600087803b15801561314657600080fd5b505af115801561315a573d6000803e3d6000fd5b50505050505050505b50505050565b600f546010819055506000826001600160a01b031663c5c3937e6040518163ffffffff1660e01b815260040160206040518083038186803b1580156131ad57600080fd5b505afa1580156131c1573d6000803e3d6000fd5b505050506040513d60208110156131d757600080fd5b5051600154604080516362e1c9bf60e11b815290519293506000926001600160a01b039092169163c5c3937e91600480820192602092909190829003018186803b15801561322457600080fd5b505afa158015613238573d6000803e3d6000fd5b505050506040513d602081101561324e57600080fd5b5051905061326081612bd58486612a93565b601181905560105460408051918252602082019290925281517f51bf4c63ec3cba9d03d43238abbdd979dd91bd16d9895c74ceea9118c7baaf60929181900390910190a150505050565b81156133295760085460065460408051631062c15f60e11b81526001600160a01b039283166004820152868316602482015260448101869052905191909216916320c582be91606480830192600092919082900301818387803b15801561331057600080fd5b505af1158015613324573d6000803e3d6000fd5b505050505b801561316357836001600160a01b0316628063a584836040518363ffffffff1660e01b815260040180836001600160a01b0316815260200182815260200192505050600060405180830381600087803b15801561338557600080fd5b505af1158015613399573d6000803e3d6000fd5b5050505050505050565b6000610d666133cb836103e8670de0b6b3a76400005b04600502613a6390919063ffffffff16565b670de0b6b3a7640000614fd3565b60016001600160a01b0382166000908152600e602052604090206003015460ff16600481111561340557fe5b14610d175760405162461bcd60e51b815260040180806020018281038252602f815260200180615a46602f913960400191505060405180910390fd5b6000612ad5670de0b6b3a764000061137985855b60008261346457506000610d66565b8282028284828161347157fe5b0414612ad55760405162461bcd60e51b81526004018080602001828103825260218152602001806158b46021913960400191505060405180910390fd5b6000612ad583836040518060400160405280601a81526020017f536166654d6174683a206469766973696f6e206279207a65726f000000000000815250614fe9565b6000806134fb61504e565b90506000613511670ddd4b8c6c7d70d88361506a565b9050611a02670de0b6b3a764000061137983600c5461345590919063ffffffff16565b600061354b600d5442612a9390919063ffffffff16565b9050603c8110610d175742600d81905560408051918252517f860f8d2f0c74dd487e89e2883e3b25b8159ce1e1b3433a291cba7b82c508f3bc9181900360200190a150565b613598615695565b6135a0615726565b6135a8615695565b848252600060808301526135ba61190e565b60a08301526135c7611e3a565b8260c001818152505086608001516001600160a01b0316634d6228316040518163ffffffff1660e01b815260040160206040518083038186803b15801561360d57600080fd5b505afa158015613621573d6000803e3d6000fd5b505050506040513d602081101561363757600080fd5b50516001600160a01b039081166060840152608088015160408051631e22314360e01b815290516000939290921691631e22314391600480820192602092909190829003018186803b15801561368c57600080fd5b505afa1580156136a0573d6000803e3d6000fd5b505050506040513d60208110156136b657600080fd5b50516000602085015290505b8483602001511080156136eb5750806001600160a01b031683606001516001600160a01b031614155b1561390557600088608001516001600160a01b031663b72703ac85606001516040518263ffffffff1660e01b815260040180826001600160a01b0316815260200191505060206040518083038186803b15801561374757600080fd5b505afa15801561375b573d6000803e3d6000fd5b505050506040513d602081101561377157600080fd5b5051606085015190915061378590896127c0565b6040850152608084015161387d57670f43fc2c04ee00008460400151101580156137ae57508351155b156137b95750613905565b60006137ce8560c001518660a001518b614777565b8a5160208c01516060880151604089015189519495506137ef94868f614a19565b608081015186519195506138039190612a93565b8552608084015160a086015161381891612a93565b8560a001818152505061384d84610100015161112a866040015161112a8860a001518a60c00151612a9390919063ffffffff16565b60c086015261385c8685614d57565b95506138718560c001518660a001518b614e38565b156080860152506138e7565b836080015180156138995750670f43fc2c04ee00008460400151105b156138e1576138ba89600001518a6020015186606001518760000151614e59565b608081015185519194506138ce9190612a93565b84526138da8584614d57565b94506138e7565b50613905565b6001600160a01b0316606084015260208301805160010190526136c2565b505050949350505050565b613918615695565b613920615726565b613928615695565b600b54858352600060208401526001600160a01b03165b8483602001511015613a3057806001600160a01b0316634d6228316040518163ffffffff1660e01b815260040160206040518083038186803b15801561398457600080fd5b505afa158015613998573d6000803e3d6000fd5b505050506040513d60208110156139ae57600080fd5b50516001600160a01b0316606084018190526139ca90886127c0565b60408401819052670f43fc2c04ee00001115613a1b576139f4898985606001518660000151614e59565b60808101518451919350613a089190612a93565b8352613a148483614d57565b9350613a20565b613a30565b602083018051600101905261393f565b50505095945050505050565b6000610d66613a56836103e8670de0b6b3a76400006133b9565b66b1a2bc2ec50000614fd3565b600082820183811015612ad5576040805162461bcd60e51b815260206004820152601b60248201527f536166654d6174683a206164646974696f6e206f766572666c6f770000000000604482015290519081900360640190fd5b6001600160a01b038116613b18576040805162461bcd60e51b815260206004820152601e60248201527f4163636f756e742063616e6e6f74206265207a65726f20616464726573730000604482015290519081900360640190fd5b803b80611275576040805162461bcd60e51b815260206004820181905260248201527f4163636f756e7420636f64652073697a652063616e6e6f74206265207a65726f604482015290519081900360640190fd5b7f0000000000000000000000000000000000000000000000000000000000000000816001600160a01b031663139f2e8c6040518163ffffffff1660e01b815260040160206040518083038186803b158015613bc657600080fd5b505afa158015613bda573d6000803e3d6000fd5b505050506040513d6020811015613bf057600080fd5b505114613c40576040805162461bcd60e51b815260206004820152601960248201527808e82a6be869e9aa08a9ca682a8929e9c40dad2e6dac2e8c6d603b1b604482015290519081900360640190fd5b7f0000000000000000000000000000000000000000000000000000000000000000816001600160a01b0316631bf435556040518163ffffffff1660e01b815260040160206040518083038186803b158015613c9a57600080fd5b505afa158015613cae573d6000803e3d6000fd5b505050506040513d6020811015613cc457600080fd5b505114610d17576040805162461bcd60e51b815260206004820152601560248201527409a929cbe9c8aa8be888a84a840dad2e6dac2e8c6d605b1b604482015290519081900360640190fd5b6003546040516000916001600160a01b0316907f8be0079c531659141344cd1fd0a4f28419497f9722a3daafe3b4186f6b6457e0908390a3600380546001600160a01b0319169055565b601280546001600160a01b0383166000908152601460209081526040918290209283556013546001909301839055925481519081529283019190915280517fc437f324d85e369394148dd9d62f98f534b382e01ed3dd2eb98138fb6d3ab49a9281900390910190a150565b6000806000613dd3846112d5565b90506000613de0856128e7565b6001600160a01b0386166000908152600e602052604081206001015491925090613e0a9084613a63565b6001600160a01b0387166000908152600e602052604081205491925090613e319084613a63565b919550909350505050915091565b60008115613e6557613e5e826113798568056bc75e2d63100000613455565b9050610d66565b50600019610d66565b600080613e79611e3a565b90506000613e8561190e565b9050613e92828286614777565b949350505050565b6611c37937e080008110801590613eb95750670de0b6b3a76400008111155b610d175760405162461bcd60e51b81526004018080602001828103825260308152602001806159ca6030913960400191505060405180910390fd5b60095460408051631e425be160e11b815290516000926001600160a01b031691633c84b7c2916004808301926020929190829003018186803b158015613f3957600080fd5b505afa158015613f4d573d6000803e3d6000fd5b505050506040513d6020811015613f6357600080fd5b50519050613f748162127500613a63565b421015610d175760405162461bcd60e51b81526004018080602001828103825260408152602001806158746040913960400191505060405180910390fd5b670f43fc2c04ee0000613fc482613e6e565b1015610d175760405162461bcd60e51b815260040180806020018281038252602a8152602001806159fa602a913960400191505060405180910390fd5b60008111610d175760405162461bcd60e51b815260040180806020018281038252602e815260200180615966602e913960400191505060405180910390fd5b80836001600160a01b03166370a08231846040518263ffffffff1660e01b815260040180826001600160a01b0316815260200191505060206040518083038186803b15801561408e57600080fd5b505afa1580156140a2573d6000803e3d6000fd5b505050506040513d60208110156140b857600080fd5b50511015612a8e5760405162461bcd60e51b815260040180806020018281038252604e8152602001806157fc604e913960600191505060405180910390fd5b60006001600160a01b03831615806141855750836001600160a01b0316635dbe47e8846040518263ffffffff1660e01b815260040180826001600160a01b0316815260200191505060206040518083038186803b15801561415757600080fd5b505afa15801561416b573d6000803e3d6000fd5b505050506040513d602081101561418157600080fd5b5051155b806141a05750670f43fc2c04ee000061419e84846127c0565b105b156141ad57506000612ad5565b6000846001600160a01b031663765e0159856040518263ffffffff1660e01b815260040180826001600160a01b0316815260200191505060206040518083038186803b1580156141fc57600080fd5b505afa158015614210573d6000803e3d6000fd5b505050506040513d602081101561422657600080fd5b505190506001600160a01b0381161580611fa45750670f43fc2c04ee000061424e82856127c0565b1095945050505050565b61426061576e565b6001600160a01b0387166000908152600e60205260409020546142ae9087906142a9907f0000000000000000000000000000000000000000000000000000000000000000612a93565b614fd3565b8082526142c990869061137990670de0b6b3a7640000613455565b60208083019190915281516001600160a01b0389166000908152600e90925260408220546142f691612a93565b6020808401516001600160a01b038b166000908152600e9092526040822060010154929350909161432691612a93565b90507f00000000000000000000000000000000000000000000000000000000000000008214156143ea57614359896147fa565b61436489600461465e565b6143908a8a7f000000000000000000000000000000000000000000000000000000000000000084615109565b886001600160a01b03166000805160206158d583398151915260008060006003604051808581526020018481526020018381526020018260038111156143d257fe5b815260200194505050505060405180910390a261453e565b60006143f68284613e3f565b9050848114158061442e57507f000000000000000000000000000000000000000000000000000000000000000061442c846152ab565b105b156144425750506001604083015250614541565b60808b01516040805163015f109360e51b81526001600160a01b038d81166004830152602482018590528a81166044830152898116606483015291519190921691632be2126091608480830192600092919082900301818387803b1580156144a957600080fd5b505af11580156144bd573d6000803e3d6000fd5b5050506001600160a01b038b166000908152600e60205260409020848155600101839055506144eb8a612b76565b506001600160a01b038a166000818152600e6020908152604091829020600201548251878152918201869052818301526003606082015290516000805160206158d58339815191529181900360800190a2505b50505b979650505050505050565b6000806145576134f0565b90506000614569846113798888613455565b9050600061458261457b8360026134ae565b8490613a63565b905061459681670de0b6b3a7640000614fd3565b9050600081116145a257fe5b600c8190556040805182815290517fc454ee9b76c52f782a256af821b857ca6e125d1e3333bcede402fec2bed9600c9181900360200190a161137f613534565b6000610d66612822611201565b60006146078361137986670de0b6b3a7640000613455565b905081811115613163576040805162461bcd60e51b815260206004820152601d60248201527f4665652065786365656465642070726f7669646564206d6178696d756d000000604482015290519081900360640190fd5b600081600481111561466c57fe5b141580156146865750600181600481111561468357fe5b14155b61468c57fe5b601554614698816152d7565b6001600160a01b0383166000908152600e60205260409020600301805483919060ff191660018360048111156146ca57fe5b02179055506001600160a01b0383166000908152600e6020908152604080832060018082018590559084905560149092528220828155015561470c8382615390565b600b5460408051631484968760e11b81526001600160a01b038681166004830152915191909216916329092d0e91602480830192600092919082900301818387803b15801561475a57600080fd5b505af115801561476e573d6000803e3d6000fd5b50505050505050565b6000821561479857600061478f846113798786613455565b9150612ad59050565b50600019612ad5565b6000806147ba670de0b6b3a76400006113798686613455565b9050828110612ad55760405162461bcd60e51b81526004018080602001828103825260368152602001806159946036913960400191505060405180910390fd5b6001600160a01b0381166000908152600e6020526040902060020154600f546148239082612a93565b600f55506001600160a01b03166000908152600e6020526040812060020155565b826001600160a01b0316632a7ba1f7836040518263ffffffff1660e01b815260040180828152602001915050600060405180830381600087803b15801561488a57600080fd5b505af115801561489e573d6000803e3d6000fd5b50505050836001600160a01b0316632b7c7b11836040518263ffffffff1660e01b815260040180828152602001915050600060405180830381600087803b1580156148e857600080fd5b505af11580156148fc573d6000803e3d6000fd5b50505050826001600160a01b0316638f7be730826040518263ffffffff1660e01b815260040180828152602001915050600060405180830381600087803b15801561338557600080fd5b600081848411156149d55760405162461bcd60e51b81526004018080602001828103825283818151815260200191508051906020019080838360005b8381101561499a578181015183820152602001614982565b50505050905090810190601f1680156149c75780820380516001836020036101000a031916815260200191505b509250505060405180910390fd5b505050900390565b600080601154600014156149f2575081610d66565b6000601054116149fe57fe5b612ad56011546113796010548661345590919063ffffffff16565b614a21615695565b614a29615791565b601554600110614a395750614541565b614a4287611fc7565b60408501526020848101919091528401819052908352614a6190615537565b604083018190527f000000000000000000000000000000000000000000000000000000000000000060608401526020830151614a9c91612a93565b8152670de0b6b3a76400008611614b9e57614ac1898983602001518460400151614844565b614aca876147fa565b60006080830181905260a0830152815160c0830152805160e0830152614af187600361465e565b866001600160a01b03166000805160206157b383398151915283600001518460200151600260405180848152602001838152602001826003811115614b3257fe5b8152602001935050505060405180910390a2866001600160a01b03166000805160206158d58339815191526000806000600260405180858152602001848152602001838152602001826003811115614b8657fe5b815260200194505050505060405180910390a2614d4b565b670de0b6b3a764000086118015614bbc5750670f43fc2c04ee000086105b15614c0c57614bd5898983602001518460400151614844565b614bde876147fa565b81518151614bed91908761553e565b60e086015260c085015260a08401526080830152614af187600361465e565b670f43fc2c04ee00008610158015614c2357508386105b8015614c30575081518510155b15614d3a57614c49898983602001518460400151614844565b84614c5057fe5b614c59876147fa565b614c6c8260000151836020015185615598565b9150614c7987600361465e565b61010082015115614cf95760075461010083015160408051633f10abab60e01b81526001600160a01b038b81166004830152602482019390935290519190921691633f10abab91604480830192600092919082900301818387803b158015614ce057600080fd5b505af1158015614cf4573d6000803e3d6000fd5b505050505b866001600160a01b03166000805160206157b383398151915283600001518460a00151600260405180848152602001838152602001826003811115614b3257fe5b614d42615695565b91506145419050565b50979650505050505050565b614d5f615695565b60408083015190840151614d7291613a63565b604082015260608083015190840151614d8a91613a63565b606082015281516020840151614d9f91613a63565b6020808301919091528201518351614db691613a63565b815260808083015190840151614dcb91613a63565b608082015260a08083015190840151614de391613a63565b60a082015260c08083015190840151614dfb91613a63565b60c082015260e08083015190840151614e1391613a63565b60e08201526101008083015190840151614e2c91613a63565b61010082015292915050565b600080614e46858585614777565b6714d1120d7b1600001195945050505050565b614e61615695565b614e69615791565b614e7284611fc7565b60408501908152602085810192835286019290925291845290519051614e9c918891889190614844565b614ea5846147fa565b614eb28260200151615537565b604083018190527f000000000000000000000000000000000000000000000000000000000000000060608401526020830151600091614ef19190612a93565b9050614f028360000151828661553e565b60e087015260c086015260a08501526080840152614f2185600361465e565b846001600160a01b03166000805160206157b383398151915284600001518560200151600160405180848152602001838152602001826003811115614f6257fe5b8152602001935050505060405180910390a2846001600160a01b03166000805160206158d58339815191526000806000600160405180858152602001848152602001838152602001826003811115614fb657fe5b815260200194505050505060405180910390a25050949350505050565b6000818310614fe25781612ad5565b5090919050565b600081836150385760405162461bcd60e51b815260206004820181815283516024840152835190928392604490910191908501908083836000831561499a578181015183820152602001614982565b50600083858161504457fe5b0495945050505050565b600061120e603c611379600d5442612a9390919063ffffffff16565b6000631f54050082111561508057631f54050091505b816150945750670de0b6b3a7640000610d66565b670de0b6b3a764000083835b60018111156150ff57600281066150cf576150bb8283615637565b91506150c88160026134ae565b90506150fa565b6150d98284615637565b92506150e58283615637565b91506150f76002611379836001612a93565b90505b6150a0565b61137f8284615637565b6040808501516006548251632770a7eb60e21b81526001600160a01b039182166004820152602481018690529251911691639dc29fac91604480830192600092919082900301818387803b15801561516057600080fd5b505af1158015615174573d6000803e3d6000fd5b5050505083600001516001600160a01b0316632a7ba1f7836040518263ffffffff1660e01b815260040180828152602001915050600060405180830381600087803b1580156151c257600080fd5b505af11580156151d6573d6000803e3d6000fd5b505050508360a001516001600160a01b0316633f10abab84836040518363ffffffff1660e01b815260040180836001600160a01b0316815260200182815260200192505050600060405180830381600087803b15801561523557600080fd5b505af1158015615249573d6000803e3d6000fd5b5050505083600001516001600160a01b0316628063a58560a00151836040518363ffffffff1660e01b815260040180836001600160a01b0316815260200182815260200192505050600060405180830381600087803b15801561338557600080fd5b6000610d66827f0000000000000000000000000000000000000000000000000000000000000000612a93565b6001811180156153555750600b546040805163de8fa43160e01b815290516001926001600160a01b03169163de8fa431916004808301926020929190829003018186803b15801561532757600080fd5b505afa15801561533b573d6000803e3d6000fd5b505050506040513d602081101561535157600080fd5b5051115b610d175760405162461bcd60e51b815260040180806020018281038252602a81526020018061584a602a913960400191505060405180910390fd5b6001600160a01b0382166000908152600e602052604081206003015460ff16908160048111156153bc57fe5b141580156153d6575060018160048111156153d357fe5b14155b6153dc57fe5b6001600160a01b0383166000908152600e602052604081206003015461010090046001600160801b0316908390615414826001612a93565b905080836001600160801b0316111561542957fe5b60006015828154811061543857fe5b600091825260209091200154601580546001600160a01b03909216925082916001600160801b03871690811061546a57fe5b600091825260208083209190910180546001600160a01b0319166001600160a01b03948516179055918316808252600e83526040918290206003018054610100600160881b0319166101006001600160801b038a169081029190911790915582519182529281019290925280517f02b04ae5f7be9ca7c103293a2aa15f3c339d15d6eda53b721fef7b0e609c831a9281900390910190a1601580548061550c57fe5b600082815260209020810160001990810180546001600160a01b031916905501905550505050505050565b60c8900490565b60008080808415615582576155538786614fd3565b9350615563876113798887613455565b925061556f8785612a93565b915061557b8684612a93565b905061558f565b5060009250829150859050845b93509350935093565b6155a0615695565b8381526020810183905260006155c28361137987670f43fc2c04ee0000613455565b90506155cd81615537565b604083018190527f000000000000000000000000000000000000000000000000000000000000000060608401526080830186905261560c908290612a93565b60a083015261561b8482612a93565b61010083015250600060c0820181905260e08201529392505050565b6000806156448484613455565b9050613e92670de0b6b3a7640000611379836706f05b59d3b20000613a63565b6040518060a00160405280600081526020016000815260200160001515815260200160008152602001600081525090565b6040518061012001604052806000815260200160008152602001600081526020016000815260200160008152602001600081526020016000815260200160008152602001600081525090565b60405180610100016040528060008152602001600081526020016000815260200160008152602001600081526020016000815260200160008152602001600081525090565b6040518060e0016040528060008152602001600081526020016000815260200160006001600160a01b0316815260200160001515815260200160008152602001600081525090565b604051806060016040528060008152602001600081526020016000151581525090565b6040518060600160405280600081526020016000815260200160008152509056feea67486ed7ebe3eea8ab3390efd4a3c8aae48be5bea27df104a8af786c40843454726f76654d616e616765723a20556e61626c6520746f2072656465656d20616e7920616d6f756e7454726f76654d616e616765723a2052657175657374656420726564656d7074696f6e20616d6f756e74206d757374206265203c3d20757365722773206465627420746f6b656e2062616c616e636554726f76654d616e616765723a204f6e6c79206f6e652074726f766520696e207468652073797374656d54726f76654d616e616765723a20526564656d7074696f6e7320617265206e6f7420616c6c6f77656420647572696e6720626f6f747374726170207068617365536166654d6174683a206d756c7469706c69636174696f6e206f766572666c6f77c3770d654ed33aeea6bf11ac8ef05d02a6a04ed4686dd2f624d853bbec43cc8b54726f76654d616e616765723a2043616c6c6572206973206e6f742074686520426f72726f7765724f7065726174696f6e7320636f6e747261637454726f76654d616e616765723a2043616c6c646174612061646472657373206172726179206d757374206e6f7420626520656d70747954726f76654d616e616765723a20416d6f756e74206d7573742062652067726561746572207468616e207a65726f54726f76654d616e616765723a2046656520776f756c642065617420757020616c6c2072657475726e656420636f6c6c61746572616c4d6178206665652070657263656e74616765206d757374206265206265747765656e20302e352520616e64203130302554726f76654d616e616765723a2043616e6e6f742072656465656d207768656e20544352203c204d435254726f76654d616e616765723a206e6f7468696e6720746f206c697175696461746554726f76654d616e616765723a2054726f766520646f6573206e6f74206578697374206f7220697320636c6f736564a26469706673582212208ee3e65ed1b471d1525323ecfa901df649d62ddda64e276ba8e3021d6324cbdc64736f6c6343000706003360c060405234801561001057600080fd5b506040516139c63803806139c68339818101604052604081101561003357600080fd5b508051602090910151608082905260a0819052600380546001600160a01b031916339081179091556040516000907f8be0079c531659141344cd1fd0a4f28419497f9722a3daafe3b4186f6b6457e0908290a3505060805160a0516138e46100e260003980610b135280610c1f528061244152806129015250806108b95280610a1d5280610a5c5280610aef52806116c75280612298528061236d5280612d565280612d8052506138e46000f3fe6080604052600436106101a35760003560e01c806372fe25aa116100e25780638f32d59b116100855780638f32d59b14610539578063a20baee61461046c578063a3f4df7e14610562578063ae918754146105ec578063c6a6cf2014610601578063e545242314610649578063f8d898981461065e578063f92d343314610673576101a3565b806372fe25aa1461046c578063741bef1a14610481578063794e572414610496578063795d26c3146104ab5780637f7dde4a146104c0578063860665b3146104d5578063887105d31461050f5780638da5cb5b14610524576101a3565b80634ff814431161014a5780634ff81443146102cf5780635530273c146102f95780635733d58f1461033a57806357aae46b1461034f57806362a0d7991461036457806368647db1146103ab5780636c37a4af146103d95780636f0b0c1c14610457576101a3565b80630802c78a146101a85780630e43d8ce146101eb5780630e704d5014610223578063139f2e8c146102385780631bf435551461025f5780633cc74225146102745780633d83908a146102a55780634870dd9a146102ba575b600080fd5b3480156101b457600080fd5b506101e9600480360360608110156101cb57600080fd5b508035906001600160a01b0360208201358116916040013516610688565b005b6101e96004803603606081101561020157600080fd5b506001600160a01b03813581169160208101358216916040909101351661069f565b34801561022f57600080fd5b506101e96106b9565b34801561024457600080fd5b5061024d610aed565b60408051918252519081900360200190f35b34801561026b57600080fd5b5061024d610b11565b34801561028057600080fd5b50610289610b35565b604080516001600160a01b039092168252519081900360200190f35b3480156102b157600080fd5b50610289610b44565b3480156102c657600080fd5b5061024d610b53565b3480156102db57600080fd5b5061024d600480360360208110156102f257600080fd5b5035610b58565b34801561030557600080fd5b506101e96004803603606081101561031c57600080fd5b508035906001600160a01b0360208201358116916040013516610b69565b34801561034657600080fd5b5061024d610b7a565b34801561035b57600080fd5b50610289610b86565b34801561037057600080fd5b506101e96004803603608081101561038757600080fd5b508035906020810135906001600160a01b0360408201358116916060013516610b95565b6101e9600480360360408110156103c157600080fd5b506001600160a01b0381358116916020013516610bac565b3480156103e557600080fd5b506101e960048036036101408110156103fd57600080fd5b506001600160a01b038135811691602081013582169160408201358116916060810135821691608082013581169160a081013582169160c082013581169160e0810135821691610100820135811691610120013516610bc2565b34801561046357600080fd5b506101e9610faf565b34801561047857600080fd5b5061024d61100f565b34801561048d57600080fd5b5061028961101b565b3480156104a257600080fd5b5061024d61102a565b3480156104b757600080fd5b5061024d611036565b3480156104cc57600080fd5b50610289611131565b6101e9600480360360808110156104eb57600080fd5b508035906020810135906001600160a01b0360408201358116916060013516611140565b34801561051b57600080fd5b5061024d611788565b34801561053057600080fd5b50610289611844565b34801561054557600080fd5b5061054e611853565b604080519115158252519081900360200190f35b34801561056e57600080fd5b50610577611864565b6040805160208082528351818301528351919283929083019185019080838360005b838110156105b1578181015183820152602001610599565b50505050905090810190601f1680156105de5780820380516001836020036101000a031916815260200191505b509250505060405180910390f35b3480156105f857600080fd5b50610289611892565b6101e9600480360360c081101561061757600080fd5b5080359060208101359060408101359060608101351515906001600160a01b03608082013581169160a00135166118a1565b34801561065557600080fd5b506102896118b8565b34801561066a57600080fd5b506102896118c7565b34801561067f57600080fd5b5061024d6118d6565b61069a336000856000868660006118e1565b505050565b6106a7611eb4565b61069a836000806000868660006118e1565b600454600054600a546001600160a01b039283169291821691166106dd8333611eff565b60025460408051630fdb11cf60e01b815290516000926001600160a01b031691630fdb11cf91600480830192602092919082900301818787803b15801561072357600080fd5b505af1158015610737573d6000803e3d6000fd5b505050506040513d602081101561074d57600080fd5b5051905061075a81611fbb565b60408051630b07655760e01b815233600482015290516001600160a01b03861691630b07655791602480830192600092919082900301818387803b1580156107a157600080fd5b505af11580156107b5573d6000803e3d6000fd5b505050506000846001600160a01b031663480cd578336040518263ffffffff1660e01b815260040180826001600160a01b0316815260200191505060206040518083038186803b15801561080857600080fd5b505afa15801561081c573d6000803e3d6000fd5b505050506040513d602081101561083257600080fd5b50516040805163d66a255360e01b815233600482015290519192506000916001600160a01b0388169163d66a2553916024808301926020929190829003018186803b15801561088057600080fd5b505afa158015610894573d6000803e3d6000fd5b505050506040513d60208110156108aa57600080fd5b505190506108e284336108dd847f0000000000000000000000000000000000000000000000000000000000000000612003565b61204c565b60006108f383600084600088612103565b90506108fe81612176565b60408051631fc5750960e31b815233600482015290516001600160a01b0389169163fe2ba84891602480830192600092919082900301818387803b15801561094557600080fd5b505af1158015610959573d6000803e3d6000fd5b5050604080516365e89c5760e11b815233600482015290516001600160a01b038b16935063cbd138ae9250602480830192600092919082900301818387803b1580156109a457600080fd5b505af11580156109b8573d6000803e3d6000fd5b50505050336001600160a01b031660008051602061367e83398151915260008060006001604051808581526020018481526020018381526020018260028111156109fe57fe5b815260200194505050505060405180910390a2610a46868633610a41867f0000000000000000000000000000000000000000000000000000000000000000612003565b6121bd565b600654610a8090879087906001600160a01b03167f00000000000000000000000000000000000000000000000000000000000000006121bd565b60408051628063a560e01b81523360048201526024810185905290516001600160a01b03881691628063a591604480830192600092919082900301818387803b158015610acc57600080fd5b505af1158015610ae0573d6000803e3d6000fd5b5050505050505050505050565b7f000000000000000000000000000000000000000000000000000000000000000081565b7f000000000000000000000000000000000000000000000000000000000000000081565b6001546001600160a01b031681565b6004546001600160a01b031681565b60c881565b6000610b6382612290565b92915050565b61069a3384600080868660006118e1565b6714d1120d7b16000081565b6009546001600160a01b031681565b610ba633600085600186868a6118e1565b50505050565b610bbe336000806000868660006118e1565b5050565b610bca611853565b610c1b576040805162461bcd60e51b815260206004820181905260248201527f4f776e61626c653a2063616c6c6572206973206e6f7420746865206f776e6572604482015290519081900360640190fd5b60007f000000000000000000000000000000000000000000000000000000000000000011610c4557fe5b610c4e8a6122bc565b610c57896122bc565b610c60886122bc565b610c69876122bc565b610c72866122bc565b610c7b856122bc565b610c84846122bc565b610c8d836122bc565b610c96826122bc565b610c9f816122bc565b610ca88a61236b565b610cb18761236b565b600480546001600160a01b03199081166001600160a01b038d81169182179093556000805483168d85161790556001805483168c85161790556005805483168b85161790556006805483168a8516179055600780548316898516179055600280548316888516179055600b80548316878516179055600a80548316868516179055600980548316938516938417905560088054909216909217905560408051918252517f143219c9e69b09e07e095fcc889b43d8f46ca892bba65f08dc3a0050869a5678916020908290030190a1604080516001600160a01b038b16815290517f78f058b189175430c48dc02699e3a0031ea4ff781536dc2fab847de4babdd8829181900360200190a1604080516001600160a01b038a16815290517f5ee0cae2f063ed938bb55046f6a932fb6ae792bf43624806bb90abe68a50be9b9181900360200190a1604080516001600160a01b038916815290517f82966d27eea39b038ee0fa30cd16532bb24f6e65d31cb58fb227aa5766cdcc7f9181900360200190a1604080516001600160a01b038816815290517fcfb07d791fcafc032b35837b50eb84b74df518cf4cc287e8084f47630fa70fa09181900360200190a1604080516001600160a01b038716815290517fe67f36a6e961157d6eff83b91f3af5a62131ceb6f04954ef74f51c1c05e7f88d9181900360200190a1604080516001600160a01b038616815290517f8c537274438aa850a330284665d81a85dd38267d09e4050d416bfc94142db2649181900360200190a1604080516001600160a01b038516815290517f65f4cf077bc01e4742eb5ad98326f6e95b63548ea24b17f8d5e823111fe788009181900360200190a1604080516001600160a01b038416815290517f112220fa8dbe96141556e0dc3d74dd95075b323f4f297616048e02d82d7017159181900360200190a1604080516001600160a01b038316815290517ff81a824d1d9030c0365252fb96daf0565f9c2007c88e13001379dda7f06d5d5c9181900360200190a1610fa361250f565b50505050505050505050565b6007546040805163b32beb5b60e01b815233600482015290516001600160a01b039092169163b32beb5b9160248082019260009290919082900301818387803b158015610ffb57600080fd5b505af1158015610ba6573d6000803e3d6000fd5b670de0b6b3a764000081565b6002546001600160a01b031681565b670f43fc2c04ee000081565b60008054604080516314a6bf0f60e01b8152905183926001600160a01b0316916314a6bf0f916004808301926020929190829003018186803b15801561107b57600080fd5b505afa15801561108f573d6000803e3d6000fd5b505050506040513d60208110156110a557600080fd5b5051600154604080516314a6bf0f60e01b815290519293506000926001600160a01b03909216916314a6bf0f91600480820192602092909190829003018186803b1580156110f257600080fd5b505afa158015611106573d6000803e3d6000fd5b505050506040513d602081101561111c57600080fd5b5051905061112a8282612559565b9250505090565b6000546001600160a01b031681565b604080516060810182526004546001600160a01b03908116825260005481166020830152600a5416918101919091526111776133f1565b600260009054906101000a90046001600160a01b03166001600160a01b0316630fdb11cf6040518163ffffffff1660e01b8152600401602060405180830381600087803b1580156111c757600080fd5b505af11580156111db573d6000803e3d6000fd5b505050506040513d60208110156111f157600080fd5b5051808252600090611202906125b3565b905061120e87826125d0565b825161121a903361267c565b60408201869052806112555761123a83600001518460400151888a61274f565b60208301819052604083015161124f91612559565b60408301525b61126282604001516128ff565b61126f8260400151612290565b6060830181905261127c57fe5b61128f348360600151846000015161295e565b608083015260608201516112a4903490612990565b60a083015280156112c1576112bc82608001516129bf565b6112f4565b6112ce8260800151612a06565b60006112e7346001856060015160018760000151612103565b90506112f281612176565b505b825160408051635d6b480f60e01b81523360048201526001602482015290516001600160a01b0390921691635d6b480f9160448082019260009290919082900301818387803b15801561134657600080fd5b505af115801561135a573d6000803e3d6000fd5b50508451604080516372423c1760e01b815233600482015234602482015290516001600160a01b0390921693506372423c1792506044808201926020929091908290030181600087803b1580156113b057600080fd5b505af11580156113c4573d6000803e3d6000fd5b505050506040513d60208110156113da57600080fd5b50508251606083015160408051639976cf4560e01b81523360048201526024810192909252516001600160a01b0390921691639976cf45916044808201926020929091908290030181600087803b15801561143457600080fd5b505af1158015611448573d6000803e3d6000fd5b505050506040513d602081101561145e57600080fd5b50508251604080516382fe3eb960e01b815233600482015290516001600160a01b03909216916382fe3eb99160248082019260009290919082900301818387803b1580156114ab57600080fd5b505af11580156114bf573d6000803e3d6000fd5b5050505082600001516001600160a01b03166318f2817a336040518263ffffffff1660e01b815260040180826001600160a01b03168152602001915050602060405180830381600087803b15801561151657600080fd5b505af115801561152a573d6000803e3d6000fd5b505050506040513d602081101561154057600080fd5b505160c0830152600b5460a0830151604080516346f7cf8760e01b815233600482015260248101929092526001600160a01b038881166044840152878116606484015290519216916346f7cf879160848082019260009290919082900301818387803b1580156115af57600080fd5b505af11580156115c3573d6000803e3d6000fd5b5050505082600001516001600160a01b03166315d549f1336040518263ffffffff1660e01b815260040180826001600160a01b03168152602001915050602060405180830381600087803b15801561161a57600080fd5b505af115801561162e573d6000803e3d6000fd5b505050506040513d602081101561164457600080fd5b505160e08301819052604080519182525133917f59cfd0cd754bc5748b6770e94a4ffa5f678d885cb899dcfadc5734edb97c67ab919081900360200190a2611690836020015134612a4d565b6116a98360200151846040015133898660400151612add565b602083015160408401516006546116ec9291906001600160a01b03167f000000000000000000000000000000000000000000000000000000000000000080612add565b336001600160a01b031660008051602061367e8339815191528360600151348560c0015160006040518085815260200184815260200183815260200182600281111561173457fe5b815260200194505050505060405180910390a2602080830151604080519182525133927fefe9137e0c60d14b7f57a84d5b68f55a648dd9fa7b01747d4ec305a3c8974c01928290030190a250505050505050565b60008054604080516362e1c9bf60e11b8152905183926001600160a01b03169163c5c3937e916004808301926020929190829003018186803b1580156117cd57600080fd5b505afa1580156117e1573d6000803e3d6000fd5b505050506040513d60208110156117f757600080fd5b5051600154604080516362e1c9bf60e11b815290519293506000926001600160a01b039092169163c5c3937e91600480820192602092909190829003018186803b1580156110f257600080fd5b6003546001600160a01b031690565b6003546001600160a01b0316331490565b60405180604001604052806012815260200171426f72726f7765724f7065726174696f6e7360701b81525081565b600b546001600160a01b031681565b6118b03386868686868c6118e1565b505050505050565b6008546001600160a01b031681565b600a546001600160a01b031681565b6611c37937e0800081565b604080516060810182526004546001600160a01b03908116825260005481166020830152600a541691810191909152611918613436565b600260009054906101000a90046001600160a01b03166001600160a01b0316630fdb11cf6040518163ffffffff1660e01b8152600401602060405180830381600087803b15801561196857600080fd5b505af115801561197c573d6000803e3d6000fd5b505050506040513d602081101561199257600080fd5b50518082526000906119a3906125b3565b905086156119be576119b584826125d0565b6119be88612bb1565b6119c789612bf0565b6119d18989612c36565b82516119dd908b611eff565b336001600160a01b038b161480611a1357506005546001600160a01b031633148015611a095750600034115b8015611a13575087155b611a1957fe5b82600001516001600160a01b0316630b0765578b6040518263ffffffff1660e01b815260040180826001600160a01b03168152602001915050600060405180830381600087803b158015611a6c57600080fd5b505af1158015611a80573d6000803e3d6000fd5b50505050611a8e348a612c88565b15156060840152602083015260408201889052868015611aac575080155b15611ae157611ac5836000015184604001518a8761274f565b61012083018190526040830151611adb91612559565b60408301525b82600001516001600160a01b031663d66a25538b6040518263ffffffff1660e01b815260040180826001600160a01b0316815260200191505060206040518083038186803b158015611b3257600080fd5b505afa158015611b46573d6000803e3d6000fd5b505050506040513d6020811015611b5c57600080fd5b505160808301528251604080516309019aaf60e31b81526001600160a01b038d811660048301529151919092169163480cd578916024808301926020929190829003018186803b158015611baf57600080fd5b505afa158015611bc3573d6000803e3d6000fd5b505050506040513d6020811015611bd957600080fd5b505160a0830181905260808301518351611bf492919061295e565b8260c0018181525050611c248260a0015183608001518460200151856060015186604001518c8860000151612ca7565b60e083015260a0820151891115611c3757fe5b611c43818a8985612cda565b86158015611c515750600088115b15611c9e57611c79611c748360400151611c6e8560800151612d4e565b90612003565b6128ff565b611c8b82608001518360400151612d7a565b611c9e83604001518b846040015161204c565b611cbc83600001518b8460200151856060015186604001518c612de2565b610140840152610160830152825160408051630c7940bd60e11b81526001600160a01b038d81166004830152915191909216916318f2817a9160248083019260209291908290030181600087803b158015611d1657600080fd5b505af1158015611d2a573d6000803e3d6000fd5b505050506040513d6020811015611d4057600080fd5b505161018083015260a08201516080830151602084015160608501516040860151600094611d74949093909290918d61301e565b600b546040805163015f109360e51b81526001600160a01b038f81166004830152602482018590528b811660448301528a811660648301529151939450911691632be212609160848082019260009290919082900301818387803b158015611ddb57600080fd5b505af1158015611def573d6000803e3d6000fd5b505050508a6001600160a01b031660008051602061367e833981519152846101400151856101600151866101800151600260405180858152602001848152602001838152602001826002811115611e4257fe5b815260200194505050505060405180910390a2610120830151604080519182525133917fefe9137e0c60d14b7f57a84d5b68f55a648dd9fa7b01747d4ec305a3c8974c01919081900360200190a2610ae08460200151856040015133866020015187606001518e8e8a6040015161304f565b6005546001600160a01b03163314611efd5760405162461bcd60e51b81526004018080602001828103825260298152602001806137e16029913960400191505060405180910390fd5b565b6000826001600160a01b03166321e37801836040518263ffffffff1660e01b815260040180826001600160a01b0316815260200191505060206040518083038186803b158015611f4e57600080fd5b505afa158015611f62573d6000803e3d6000fd5b505050506040513d6020811015611f7857600080fd5b505190506001811461069a5760405162461bcd60e51b815260040180806020018281038252602e815260200180613650602e913960400191505060405180910390fd5b611fc4816125b3565b156120005760405162461bcd60e51b81526004018080602001828103825260398152602001806134fe6039913960400191505060405180910390fd5b50565b600061204583836040518060400160405280601e81526020017f536166654d6174683a207375627472616374696f6e206f766572666c6f770000815250613100565b9392505050565b80836001600160a01b03166370a08231846040518263ffffffff1660e01b815260040180826001600160a01b0316815260200191505060206040518083038186803b15801561209a57600080fd5b505afa1580156120ae573d6000803e3d6000fd5b505050506040513d60208110156120c457600080fd5b5051101561069a5760405162461bcd60e51b815260040180806020018281038252603f8152602001806136dc603f913960400191505060405180910390fd5b60008061210e611788565b9050600061211a611036565b9050866121305761212b8289612003565b61213a565b61213a8289612559565b9150846121505761214b8187612003565b61215a565b61215a8187612559565b9050600061216983838761295e565b9998505050505050505050565b6714d1120d7b1600008110156120005760405162461bcd60e51b81526004018080602001828103825260498152602001806136076049913960600191505060405180910390fd5b836001600160a01b0316632a7ba1f7826040518263ffffffff1660e01b815260040180828152602001915050600060405180830381600087803b15801561220357600080fd5b505af1158015612217573d6000803e3d6000fd5b50505050826001600160a01b0316639dc29fac83836040518363ffffffff1660e01b815260040180836001600160a01b0316815260200182815260200192505050600060405180830381600087803b15801561227257600080fd5b505af1158015612286573d6000803e3d6000fd5b5050505050505050565b6000610b63827f0000000000000000000000000000000000000000000000000000000000000000612559565b6001600160a01b038116612317576040805162461bcd60e51b815260206004820152601e60248201527f4163636f756e742063616e6e6f74206265207a65726f20616464726573730000604482015290519081900360640190fd5b803b80610bbe576040805162461bcd60e51b815260206004820181905260248201527f4163636f756e7420636f64652073697a652063616e6e6f74206265207a65726f604482015290519081900360640190fd5b7f0000000000000000000000000000000000000000000000000000000000000000816001600160a01b031663139f2e8c6040518163ffffffff1660e01b815260040160206040518083038186803b1580156123c557600080fd5b505afa1580156123d9573d6000803e3d6000fd5b505050506040513d60208110156123ef57600080fd5b50511461243f576040805162461bcd60e51b815260206004820152601960248201527808e82a6be869e9aa08a9ca682a8929e9c40dad2e6dac2e8c6d603b1b604482015290519081900360640190fd5b7f0000000000000000000000000000000000000000000000000000000000000000816001600160a01b0316631bf435556040518163ffffffff1660e01b815260040160206040518083038186803b15801561249957600080fd5b505afa1580156124ad573d6000803e3d6000fd5b505050506040513d60208110156124c357600080fd5b505114612000576040805162461bcd60e51b815260206004820152601560248201527409a929cbe9c8aa8be888a84a840dad2e6dac2e8c6d605b1b604482015290519081900360640190fd5b6003546040516000916001600160a01b0316907f8be0079c531659141344cd1fd0a4f28419497f9722a3daafe3b4186f6b6457e0908390a3600380546001600160a01b0319169055565b600082820183811015612045576040805162461bcd60e51b815260206004820152601b60248201527f536166654d6174683a206164646974696f6e206f766572666c6f770000000000604482015290519081900360640190fd5b6000806125bf83613197565b6714d1120d7b160000119392505050565b801561262257670de0b6b3a764000082111561261d5760405162461bcd60e51b815260040180806020018281038252603281526020018061356e6032913960400191505060405180910390fd5b610bbe565b6611c37937e0800082108015906126415750670de0b6b3a76400008211155b610bbe5760405162461bcd60e51b815260040180806020018281038252603081526020018061380a6030913960400191505060405180910390fd5b6000826001600160a01b03166321e37801836040518263ffffffff1660e01b815260040180826001600160a01b0316815260200191505060206040518083038186803b1580156126cb57600080fd5b505afa1580156126df573d6000803e3d6000fd5b505050506040513d60208110156126f557600080fd5b50519050600181141561069a576040805162461bcd60e51b815260206004820152601c60248201527f426f72726f7765724f70733a2054726f76652069732061637469766500000000604482015290519081900360640190fd5b6000846001600160a01b0316635dba4c4a6040518163ffffffff1660e01b8152600401600060405180830381600087803b15801561278c57600080fd5b505af11580156127a0573d6000803e3d6000fd5b505050506000856001600160a01b031663631203b0856040518263ffffffff1660e01b81526004018082815260200191505060206040518083038186803b1580156127ea57600080fd5b505afa1580156127fe573d6000803e3d6000fd5b505050506040513d602081101561281457600080fd5b505190506128238185856131c3565b600854604080516358caad6960e11b81526004810184905290516001600160a01b039092169163b1955ad29160248082019260009290919082900301818387803b15801561287057600080fd5b505af1158015612884573d6000803e3d6000fd5b5050600954604080516340c10f1960e01b81526001600160a01b03928316600482015260248101869052905191891693506340c10f19925060448082019260009290919082900301818387803b1580156128dd57600080fd5b505af11580156128f1573d6000803e3d6000fd5b509298975050505050505050565b7f00000000000000000000000000000000000000000000000000000000000000008110156120005760405162461bcd60e51b815260040180806020018281038252603a815260200180613764603a913960400191505060405180910390fd5b6000821561298557600061297c846129768786613232565b9061328b565b91506120459050565b506000199392505050565b600081156129b6576129af826129768568056bc75e2d63100000613232565b9050610b63565b50600019610b63565b6714d1120d7b1600008110156120005760405162461bcd60e51b81526004018080602001828103825260378152602001806135376037913960400191505060405180910390fd5b670f43fc2c04ee00008110156120005760405162461bcd60e51b815260040180806020018281038252604981526020018061371b6049913960600191505060405180910390fd5b6040516000906001600160a01b0384169083908381818185875af1925050503d8060008114612a98576040519150601f19603f3d011682016040523d82523d6000602084013e612a9d565b606091505b505090508061069a5760405162461bcd60e51b815260040180806020018281038252602d8152602001806134a1602d913960400191505060405180910390fd5b846001600160a01b0316632b7c7b11826040518263ffffffff1660e01b815260040180828152602001915050600060405180830381600087803b158015612b2357600080fd5b505af1158015612b37573d6000803e3d6000fd5b50505050836001600160a01b03166340c10f1984846040518363ffffffff1660e01b815260040180836001600160a01b0316815260200182815260200192505050600060405180830381600087803b158015612b9257600080fd5b505af1158015612ba6573d6000803e3d6000fd5b505050505050505050565b600081116120005760405162461bcd60e51b815260040180806020018281038252603781526020018061383a6037913960400191505060405180910390fd5b341580612bfb575080155b6120005760405162461bcd60e51b81526004018080602001828103825260308152602001806134ce6030913960400191505060405180910390fd5b34151580612c4357508115155b80612c4d57508015155b610bbe5760405162461bcd60e51b81526004018080602001828103825260468152602001806135a06046913960600191505060405180910390fd5b6000808315612c9c57508290506001612ca0565b8291505b9250929050565b6000806000612cba8a8a8a8a8a8a6132cd565b915091506000612ccb83838761295e565b9b9a5050505050505050505050565b8315612d1357612ce983613310565b8115612d0e57612cfc8160e001516129bf565b612d0e8160e001518260c0015161334d565b610ba6565b612d208160e00151612a06565b612d3d816020015182606001518360400151858560000151612103565b6101008201819052610ba690612176565b6000610b63827f0000000000000000000000000000000000000000000000000000000000000000612003565b612da4827f0000000000000000000000000000000000000000000000000000000000000000612003565b811115610bbe5760405162461bcd60e51b815260040180806020018281038252604381526020018061379e6043913960600191505060405180910390fd5b600080600085612e7457886001600160a01b031663d3d6f84389896040518363ffffffff1660e01b815260040180836001600160a01b0316815260200182815260200192505050602060405180830381600087803b158015612e4357600080fd5b505af1158015612e57573d6000803e3d6000fd5b505050506040513d6020811015612e6d57600080fd5b5051612ef8565b886001600160a01b03166372423c1789896040518363ffffffff1660e01b815260040180836001600160a01b0316815260200182815260200192505050602060405180830381600087803b158015612ecb57600080fd5b505af1158015612edf573d6000803e3d6000fd5b505050506040513d6020811015612ef557600080fd5b50515b9050600084612f8957896001600160a01b03166312610e928a886040518363ffffffff1660e01b815260040180836001600160a01b0316815260200182815260200192505050602060405180830381600087803b158015612f5857600080fd5b505af1158015612f6c573d6000803e3d6000fd5b505050506040513d6020811015612f8257600080fd5b505161300d565b896001600160a01b0316639976cf458a886040518363ffffffff1660e01b815260040180836001600160a01b0316815260200182815260200192505050602060405180830381600087803b158015612fe057600080fd5b505af1158015612ff4573d6000803e3d6000fd5b505050506040513d602081101561300a57600080fd5b50515b919a91995090975050505050505050565b60008060006130318989898989896132cd565b9150915060006130418383612990565b9a9950505050505050505050565b8115613067576130628888888685612add565b613073565b613073888888866121bd565b8315613088576130838886612a4d565b612286565b876001600160a01b0316628063a587876040518363ffffffff1660e01b815260040180836001600160a01b0316815260200182815260200192505050600060405180830381600087803b1580156130de57600080fd5b505af11580156130f2573d6000803e3d6000fd5b505050505050505050505050565b6000818484111561318f5760405162461bcd60e51b81526004018080602001828103825283818151815260200191508051906020019080838360005b8381101561315457818101518382015260200161313c565b50505050905090810190601f1680156131815780820380516001836020036101000a031916815260200191505b509250505060405180910390fd5b505050900390565b6000806131a2611788565b905060006131ae611036565b90506131bb82828661295e565b949350505050565b60006131db8361297686670de0b6b3a7640000613232565b905081811115610ba6576040805162461bcd60e51b815260206004820152601d60248201527f4665652065786365656465642070726f7669646564206d6178696d756d000000604482015290519081900360640190fd5b60008261324157506000610b63565b8282028284828161324e57fe5b04146120455760405162461bcd60e51b81526004018080602001828103825260218152602001806135e66021913960400191505060405180910390fd5b600061204583836040518060400160405280601a81526020017f536166654d6174683a206469766973696f6e206279207a65726f00000000000081525061338c565b6000808787866132e6576132e18a89612003565b6132f0565b6132f08a89612559565b915084613306576133018987612003565b61300d565b61300d8987612559565b80156120005760405162461bcd60e51b815260040180806020018281038252603e81526020018061369e603e913960400191505060405180910390fd5b80821015610bbe5760405162461bcd60e51b815260040180806020018281038252603e815260200180613871603e913960400191505060405180910390fd5b600081836133db5760405162461bcd60e51b815260206004820181815283516024840152835190928392604490910191908501908083836000831561315457818101518382015260200161313c565b5060008385816133e757fe5b0495945050505050565b60405180610100016040528060008152602001600081526020016000815260200160008152602001600081526020016000815260200160008152602001600081525090565b604051806101a00160405280600081526020016000815260200160008152602001600015158152602001600081526020016000815260200160008152602001600081526020016000815260200160008152602001600081526020016000815260200160008152509056fe426f72726f7765724f70733a2053656e64696e672046494c20746f20416374697665506f6f6c206661696c6564426f72726f7765724f7065726174696f6e733a2043616e6e6f7420776974686472617720616e642061646420636f6c6c426f72726f7765724f70733a204f7065726174696f6e206e6f74207065726d697474656420647572696e67205265636f76657279204d6f6465426f72726f7765724f70733a204f7065726174696f6e206d757374206c656176652074726f7665207769746820494352203e3d204343524d6178206665652070657263656e74616765206d757374206c657373207468616e206f7220657175616c20746f2031303025426f72726f7765724f70733a205468657265206d75737420626520656974686572206120636f6c6c61746572616c206368616e6765206f7220612064656274206368616e6765536166654d6174683a206d756c7469706c69636174696f6e206f766572666c6f77426f72726f7765724f70733a20416e206f7065726174696f6e207468617420776f756c6420726573756c7420696e20544352203c20434352206973206e6f74207065726d6974746564426f72726f7765724f70733a2054726f766520646f6573206e6f74206578697374206f7220697320636c6f736564c3770d654ed33aeea6bf11ac8ef05d02a6a04ed4686dd2f624d853bbec43cc8b426f72726f7765724f70733a20436f6c6c61746572616c207769746864726177616c206e6f74207065726d6974746564205265636f76657279204d6f6465426f72726f7765724f70733a2043616c6c657220646f65736e74206861766520656e6f75676820746f6b656e7320746f206d616b652072657061796d656e74426f72726f7765724f70733a20416e206f7065726174696f6e207468617420776f756c6420726573756c7420696e20494352203c204d4352206973206e6f74207065726d6974746564426f72726f7765724f70733a2054726f76652773206e65742064656274206d7573742062652067726561746572207468616e206d696e696d756d426f72726f7765724f70733a20416d6f756e7420726570616964206d757374206e6f74206265206c6172676572207468616e207468652054726f766527732064656274426f72726f7765724f70733a2043616c6c6572206973206e6f742053746162696c69747920506f6f6c4d6178206665652070657263656e74616765206d757374206265206265747765656e20302e352520616e642031303025426f72726f7765724f70733a204465627420696e637265617365207265717569726573206e6f6e2d7a65726f20646562744368616e6765426f72726f7765724f70733a2043616e6e6f7420646563726561736520796f75722054726f766527732049435220696e205265636f76657279204d6f6465a264697066735822122035965f4a3ad3e09718bd45b1d5e896ae6b0fe1d17d0ca6d0006b39f4fbd8b83864736f6c63430007060033608060405234801561001057600080fd5b50600080546001600160a01b0319163390811782556040519091907f8be0079c531659141344cd1fd0a4f28419497f9722a3daafe3b4186f6b6457e0908290a3610ba48061005f6000396000f3fe6080604052600436106100b55760003560e01c80635a4d28bb1161006f5780635a4d28bb1461023f5780638da5cb5b146102545780638f32d59b14610269578063a3f4df7e14610292578063aac1846f1461031c578063b7f8cf9b14610331578063c5c3937e1461034657610108565b80628063a51461010d5780630b622ab21461014857806314a6bf0f146101795780632a7ba1f7146101a05780632b7c7b11146101ca5780634a945f8d146101f457610108565b36610108576100c261035b565b6005546100cf90346103bb565b600581905560408051918252517f2536de1d7bbba20957818a5226a7b6c5b54fffc650060e673fa6d8850ddd4e979181900360200190a1005b600080fd5b34801561011957600080fd5b506101466004803603604081101561013057600080fd5b506001600160a01b03813516906020013561041c565b005b34801561015457600080fd5b5061015d610557565b604080516001600160a01b039092168252519081900360200190f35b34801561018557600080fd5b5061018e610566565b60408051918252519081900360200190f35b3480156101ac57600080fd5b50610146600480360360208110156101c357600080fd5b503561056c565b3480156101d657600080fd5b50610146600480360360208110156101ed57600080fd5b50356105bb565b34801561020057600080fd5b506101466004803603608081101561021757600080fd5b506001600160a01b0381358116916020810135821691604082013581169160600135166105d0565b34801561024b57600080fd5b5061015d610789565b34801561026057600080fd5b5061015d610798565b34801561027557600080fd5b5061027e6107a7565b604080519115158252519081900360200190f35b34801561029e57600080fd5b506102a76107b8565b6040805160208082528351818301528351919283929083019185019080838360005b838110156102e15781810151838201526020016102c9565b50505050905090810190601f16801561030e5780820380516001836020036101000a031916815260200191505b509250505060405180910390f35b34801561032857600080fd5b5061015d6107de565b34801561033d57600080fd5b5061015d6107ed565b34801561035257600080fd5b5061018e6107fc565b6001546001600160a01b031633148061037e57506004546001600160a01b031633145b6103b95760405162461bcd60e51b8152600401808060200182810382526031815260200180610b3e6031913960400191505060405180910390fd5b565b600082820183811015610415576040805162461bcd60e51b815260206004820152601b60248201527f536166654d6174683a206164646974696f6e206f766572666c6f770000000000604482015290519081900360640190fd5b9392505050565b610424610802565b6005546104319082610875565b600581905560408051918252517f2536de1d7bbba20957818a5226a7b6c5b54fffc650060e673fa6d8850ddd4e979181900360200190a1604080516001600160a01b03841681526020810183905281517f3b2482b1bf6e751427503c9a8bf79e4dba3e6519259e2220428c2f326cc79c14929181900390910190a16040516000906001600160a01b0384169083908381818185875af1925050503d80600081146104f7576040519150601f19603f3d011682016040523d82523d6000602084013e6104fc565b606091505b5050905080610552576040805162461bcd60e51b815260206004820152601e60248201527f416374697665506f6f6c3a2073656e64696e672046494c206661696c65640000604482015290519081900360640190fd5b505050565b6003546001600160a01b031681565b60065490565b610574610802565b6006546105819082610875565b600681905560408051918252517f13193833722dafec703db5d698ec64bbad69b90300d7ef30037df03a1412d5089181900360200190a150565b6105c36108b7565b60065461058190826103bb565b6105d86107a7565b610629576040805162461bcd60e51b815260206004820181905260248201527f4f776e61626c653a2063616c6c6572206973206e6f7420746865206f776e6572604482015290519081900360640190fd5b61063284610915565b61063b83610915565b61064482610915565b61064d81610915565b600180546001600160a01b038087166001600160a01b031992831681179093556002805487831690841617905560038054868316908416179055600480549185169190921617905560408051918252517f3ca631ffcd2a9b5d9ae18543fc82f58eb4ca33af9e6ab01b7a8e95331e6ed9859181900360200190a1604080516001600160a01b038516815290517f143219c9e69b09e07e095fcc889b43d8f46ca892bba65f08dc3a0050869a56789181900360200190a1604080516001600160a01b038416815290517f82966d27eea39b038ee0fa30cd16532bb24f6e65d31cb58fb227aa5766cdcc7f9181900360200190a1604080516001600160a01b038316815290517f5ee0cae2f063ed938bb55046f6a932fb6ae792bf43624806bb90abe68a50be9b9181900360200190a16107836109c8565b50505050565b6002546001600160a01b031681565b6000546001600160a01b031690565b6000546001600160a01b0316331490565b6040518060400160405280600a8152602001691058dd1a5d99541bdbdb60b21b81525081565b6004546001600160a01b031681565b6001546001600160a01b031681565b60055490565b6001546001600160a01b031633148061082557506002546001600160a01b031633145b8061083a57506003546001600160a01b031633145b6103b95760405162461bcd60e51b8152600401808060200182810382526053815260200180610aeb6053913960600191505060405180910390fd5b600061041583836040518060400160405280601e81526020017f536166654d6174683a207375627472616374696f6e206f766572666c6f770000815250610a12565b6001546001600160a01b03163314806108da57506002546001600160a01b031633145b6103b95760405162461bcd60e51b8152600401808060200182810382526041815260200180610aaa6041913960600191505060405180910390fd5b6001600160a01b038116610970576040805162461bcd60e51b815260206004820152601e60248201527f4163636f756e742063616e6e6f74206265207a65726f20616464726573730000604482015290519081900360640190fd5b803b806109c4576040805162461bcd60e51b815260206004820181905260248201527f4163636f756e7420636f64652073697a652063616e6e6f74206265207a65726f604482015290519081900360640190fd5b5050565b600080546040516001600160a01b03909116907f8be0079c531659141344cd1fd0a4f28419497f9722a3daafe3b4186f6b6457e0908390a3600080546001600160a01b0319169055565b60008184841115610aa15760405162461bcd60e51b81526004018080602001828103825283818151815260200191508051906020019080838360005b83811015610a66578181015183820152602001610a4e565b50505050905090810190601f168015610a935780820380516001836020036101000a031916815260200191505b509250505060405180910390fd5b50505090039056fe416374697665506f6f6c3a2043616c6c6572206973206e65697468657220426f72726f7765724f7065726174696f6e73206e6f722054726f76654d616e61676572416374697665506f6f6c3a2043616c6c6572206973206e65697468657220426f72726f7765724f7065726174696f6e73206e6f722054726f76654d616e61676572206e6f722053746162696c697479506f6f6c416374697665506f6f6c3a2043616c6c6572206973206e65697468657220424f206e6f722044656661756c7420506f6f6ca2646970667358221220bafa1403b0e0a835b344ac230e03969baa2c29be292fbc4937f9aeab4af0c75164736f6c63430007060033608060405234801561001057600080fd5b50600080546001600160a01b0319163390811782556040519091907f8be0079c531659141344cd1fd0a4f28419497f9722a3daafe3b4186f6b6457e0908290a36109808061005f6000396000f3fe6080604052600436106100a05760003560e01c80638f32d59b116100645780638f32d59b146101bb5780638f7be730146101e457806390107afe1461020e578063a3f4df7e14610249578063b08bc722146102d3578063c5c3937e146102e8576100f3565b806314a6bf0f146100f85780632a7ba1f71461011f5780632b7c7b111461014b5780635a4d28bb146101755780638da5cb5b146101a6576100f3565b366100f3576100ad6102fd565b6003546100ba9034610348565b600381905560408051918252517f4b2f6ed6b83441c39265015e9ad3fca5c5f8dbc85d6843e4f7db7f9108ab95959181900360200190a1005b600080fd5b34801561010457600080fd5b5061010d6103a9565b60408051918252519081900360200190f35b34801561012b57600080fd5b506101496004803603602081101561014257600080fd5b50356103af565b005b34801561015757600080fd5b506101496004803603602081101561016e57600080fd5b50356103fe565b34801561018157600080fd5b5061018a610413565b604080516001600160a01b039092168252519081900360200190f35b3480156101b257600080fd5b5061018a610422565b3480156101c757600080fd5b506101d0610431565b604080519115158252519081900360200190f35b3480156101f057600080fd5b506101496004803603602081101561020757600080fd5b5035610442565b34801561021a57600080fd5b506101496004803603604081101561023157600080fd5b506001600160a01b038135811691602001351661058c565b34801561025557600080fd5b5061025e61069f565b6040805160208082528351818301528351919283929083019185019080838360005b83811015610298578181015183820152602001610280565b50505050905090810190601f1680156102c55780820380516001836020036101000a031916815260200191505b509250505060405180910390f35b3480156102df57600080fd5b5061018a6106c6565b3480156102f457600080fd5b5061010d6106d5565b6002546001600160a01b031633146103465760405162461bcd60e51b81526004018080602001828103825260298152602001806108f76029913960400191505060405180910390fd5b565b6000828201838110156103a2576040805162461bcd60e51b815260206004820152601b60248201527f536166654d6174683a206164646974696f6e206f766572666c6f770000000000604482015290519081900360640190fd5b9392505050565b60045490565b6103b76106db565b6004546103c49082610724565b600481905560408051918252517fbb6a805312efea216263577adb96966134cba8b860bdaa40afcdc38f4dbcf62e9181900360200190a150565b6104066106db565b6004546103c49082610348565b6001546001600160a01b031681565b6000546001600160a01b031690565b6000546001600160a01b0316331490565b61044a6106db565b6002546003546001600160a01b03909116906104669083610724565b600381905560408051918252517f4b2f6ed6b83441c39265015e9ad3fca5c5f8dbc85d6843e4f7db7f9108ab95959181900360200190a1604080516001600160a01b03831681526020810184905281517f3b2482b1bf6e751427503c9a8bf79e4dba3e6519259e2220428c2f326cc79c14929181900390910190a16040516000906001600160a01b0383169084908381818185875af1925050503d806000811461052c576040519150601f19603f3d011682016040523d82523d6000602084013e610531565b606091505b5050905080610587576040805162461bcd60e51b815260206004820152601f60248201527f44656661756c74506f6f6c3a2073656e64696e672046494c206661696c656400604482015290519081900360640190fd5b505050565b610594610431565b6105e5576040805162461bcd60e51b815260206004820181905260248201527f4f776e61626c653a2063616c6c6572206973206e6f7420746865206f776e6572604482015290519081900360640190fd5b6105ee82610766565b6105f781610766565b600180546001600160a01b038085166001600160a01b03199283168117909355600280549185169190921617905560408051918252517f143219c9e69b09e07e095fcc889b43d8f46ca892bba65f08dc3a0050869a56789181900360200190a1604080516001600160a01b038316815290517f78f058b189175430c48dc02699e3a0031ea4ff781536dc2fab847de4babdd8829181900360200190a161069b610815565b5050565b6040518060400160405280600b81526020016a111959985d5b1d141bdbdb60aa1b81525081565b6002546001600160a01b031681565b60035490565b6001546001600160a01b031633146103465760405162461bcd60e51b815260040180806020018281038252602b815260200180610920602b913960400191505060405180910390fd5b60006103a283836040518060400160405280601e81526020017f536166654d6174683a207375627472616374696f6e206f766572666c6f77000081525061085f565b6001600160a01b0381166107c1576040805162461bcd60e51b815260206004820152601e60248201527f4163636f756e742063616e6e6f74206265207a65726f20616464726573730000604482015290519081900360640190fd5b803b8061069b576040805162461bcd60e51b815260206004820181905260248201527f4163636f756e7420636f64652073697a652063616e6e6f74206265207a65726f604482015290519081900360640190fd5b600080546040516001600160a01b03909116907f8be0079c531659141344cd1fd0a4f28419497f9722a3daafe3b4186f6b6457e0908390a3600080546001600160a01b0319169055565b600081848411156108ee5760405162461bcd60e51b81526004018080602001828103825283818151815260200191508051906020019080838360005b838110156108b357818101518382015260200161089b565b50505050905090810190601f1680156108e05780820380516001836020036101000a031916815260200191505b509250505060405180910390fd5b50505090039056fe44656661756c74506f6f6c3a2043616c6c6572206973206e6f742074686520416374697665506f6f6c44656661756c74506f6f6c3a2043616c6c6572206973206e6f74207468652054726f76654d616e61676572a26469706673582212207cea209ff324c7b9d2d070fd0009c8943d5bef2c5134af9b459dfb56429a7a5d64736f6c6343000706003360c0604052670de0b6b3a764000060105534801561001c57600080fd5b50604051613a3b380380613a3b8339818101604052604081101561003f57600080fd5b508051602090910151608082905260a0819052600380546001600160a01b031916339081179091556040516000907f8be0079c531659141344cd1fd0a4f28419497f9722a3daafe3b4186f6b6457e0908290a3505060805160a05161397a6100c160003980610d155280613183525080610cb652806130af525061397a6000f3fe6080604052600436106102975760003560e01c80637f7dde4a1161015a578063a7a48884116100c1578063df9cd84f1161007a578063df9cd84f1461092a578063eaa8ba7f1461095d578063f8225a10146109c2578063f8d89898146109d7578063f92d3433146109ec578063fc7e286d14610a01576102d8565b8063a7a4888414610857578063a7bfff971461086c578063ae918754146108b8578063c5c3937e146108cd578063ce4b5bbe146108e2578063dae4f5ff146108f7576102d8565b80638f32d59b116101135780638f32d59b1461073f57806395ca53be1461076857806395fb16bb146107a3578063a20baee6146105e3578063a3f4df7e146107b8578063a4e59ac814610842576102d8565b80637f7dde4a1461067d57806382e0a5741461069257806386da0824146106cd578063887105d3146107005780638b8fbd92146107155780638da5cb5b1461072a576102d8565b80634870dd9a116101fe57806372fe25aa116101b757806372fe25aa146105e3578063741bef1a146105f8578063766718081461060d57806377553ad41461063e578063794e572414610653578063795d26c314610668576102d8565b80634870dd9a1461050e578063556be101146105235780635733d58f1461054d5780635d2de642146105625780635f788d651461059557806367e8fb20146105ce576102d8565b8063203aae0a11610250578063203aae0a146103fe57806328a0a04d146104315780632e54bf951461046c578063335525ad146104985780633cc74225146104c85780633d83908a146104f9576102d8565b80630206d7b9146102dd5780630bdfe4e7146103225780630d9a6b3514610355578063139f2e8c1461036a57806316b9d3c51461037f5780631bf43555146103e9576102d8565b366102d8576102a4610a55565b6009546102b19034610aa0565b600981905560408051918252516000805160206137278339815191529181900360200190a1005b600080fd5b3480156102e957600080fd5b506103106004803603602081101561030057600080fd5b50356001600160a01b0316610b03565b60408051918252519081900360200190f35b34801561032e57600080fd5b506103106004803603602081101561034557600080fd5b50356001600160a01b0316610c11565b34801561036157600080fd5b50610310610cae565b34801561037657600080fd5b50610310610cb4565b34801561038b57600080fd5b506103b2600480360360208110156103a257600080fd5b50356001600160a01b0316610cd8565b604080519586526020860194909452848401929092526001600160801b039081166060850152166080830152519081900360a00190f35b3480156103f557600080fd5b50610310610d13565b34801561040a57600080fd5b506103106004803603602081101561042157600080fd5b50356001600160a01b0316610d37565b34801561043d57600080fd5b506103106004803603604081101561045457600080fd5b506001600160801b0381358116916020013516610e08565b34801561047857600080fd5b506104966004803603602081101561048f57600080fd5b5035610e25565b005b3480156104a457600080fd5b50610496600480360360408110156104bb57600080fd5b5080359060200135610f9c565b3480156104d457600080fd5b506104dd611000565b604080516001600160a01b039092168252519081900360200190f35b34801561050557600080fd5b506104dd61100f565b34801561051a57600080fd5b5061031061101e565b34801561052f57600080fd5b506104966004803603602081101561054657600080fd5b5035611023565b34801561055957600080fd5b50610310611098565b34801561056e57600080fd5b506103106004803603602081101561058557600080fd5b50356001600160a01b03166110a4565b3480156105a157600080fd5b50610496600480360360408110156105b857600080fd5b50803590602001356001600160a01b03166110b6565b3480156105da57600080fd5b50610310611225565b3480156105ef57600080fd5b5061031061122b565b34801561060457600080fd5b506104dd611237565b34801561061957600080fd5b50610622611246565b604080516001600160801b039092168252519081900360200190f35b34801561064a57600080fd5b506104dd61125c565b34801561065f57600080fd5b5061031061126b565b34801561067457600080fd5b50610310611277565b34801561068957600080fd5b506104dd611372565b34801561069e57600080fd5b50610310600480360360408110156106b557600080fd5b506001600160801b0381358116916020013516611381565b3480156106d957600080fd5b506103b2600480360360208110156106f057600080fd5b50356001600160a01b031661139e565b34801561070c57600080fd5b506103106113d9565b34801561072157600080fd5b50610310611495565b34801561073657600080fd5b506104dd61149b565b34801561074b57600080fd5b506107546114aa565b604080519115158252519081900360200190f35b34801561077457600080fd5b506104966004803603604081101561078b57600080fd5b506001600160a01b03813581169160200135166114bb565b3480156107af57600080fd5b506104dd6116df565b3480156107c457600080fd5b506107cd6116ee565b6040805160208082528351818301528351919283929083019185019080838360005b838110156108075781810151838201526020016107ef565b50505050905090810190601f1680156108345780820380516001836020036101000a031916815260200191505b509250505060405180910390f35b34801561084e57600080fd5b50610622611717565b34801561086357600080fd5b50610310611726565b34801561087857600080fd5b5061089f6004803603602081101561088f57600080fd5b50356001600160a01b031661172c565b6040805192835290151560208301528051918290030190f35b3480156108c457600080fd5b506104dd611748565b3480156108d957600080fd5b50610310611757565b3480156108ee57600080fd5b5061031061175d565b34801561090357600080fd5b506103106004803603602081101561091a57600080fd5b50356001600160a01b0316611765565b34801561093657600080fd5b506103106004803603602081101561094d57600080fd5b50356001600160a01b03166117f9565b34801561096957600080fd5b50610496600480360360e081101561098057600080fd5b506001600160a01b038135811691602081013582169160408201358116916060810135821691608082013581169160a081013582169160c0909101351661188d565b3480156109ce57600080fd5b50610310611b50565b3480156109e357600080fd5b506104dd611b56565b3480156109f857600080fd5b50610310611b65565b348015610a0d57600080fd5b50610a3460048036036020811015610a2457600080fd5b50356001600160a01b0316611b70565b604080519283526001600160a01b0390911660208301528051918290030190f35b6000546001600160a01b03163314610a9e5760405162461bcd60e51b815260040180806020018281038252602781526020018061363f6027913960400191505060405180910390fd5b565b600082820183811015610afa576040805162461bcd60e51b815260206004820152601b60248201527f536166654d6174683a206164646974696f6e206f766572666c6f770000000000604482015290519081900360640190fd5b90505b92915050565b6001600160a01b0381166000908152600b602052604081205480610b2b576000915050610c0c565b6001600160a01b038084166000908152600b6020526040812060010154909116908115610b70576001600160a01b0382166000908152600d6020526040902054610b7a565b670de0b6b3a76400005b6001600160a01b0386166000908152600c60209081526040808320815160a08101835281548152600182015493810193909352600281015491830191909152600301546001600160801b038082166060840152600160801b909104166080820152919250610c04670de0b6b3a7640000610bfe610bf78886611b92565b8690611c66565b90611cbf565b955050505050505b919050565b6001600160a01b0381166000908152600b602052604081205480610c39576000915050610c0c565b6001600160a01b0383166000908152600c60209081526040808320815160a08101835281548152600182015493810193909352600281015491830191909152600301546001600160801b038082166060840152600160801b90910416608082015290610ca58383611d01565b95945050505050565b600a5490565b7f000000000000000000000000000000000000000000000000000000000000000081565b600f602052600090815260409020805460018201546002830154600390930154919290916001600160801b0380821691600160801b90041685565b7f000000000000000000000000000000000000000000000000000000000000000081565b6001600160a01b0381166000908152600e602052604081205480610d5f576000915050610c0c565b6001600160a01b0383166000908152600d602052604081205490610d8b670de0b6b3a764000083611df1565b6001600160a01b0386166000908152600f60209081526040808320815160a08101835281548152600182015493810193909352600281015491830191909152600301546001600160801b038082166060840152600160801b909104166080820152919250610c04670de0b6b3a7640000610bfe610bf78886611b92565b601260209081526000928352604080842090915290825290205481565b8015610e3357610e33611e33565b336000908152600b6020526040902054610e4c81611ff0565b6008546001600160a01b0316610e6181612032565b6000610e6c33611765565b90506000610e7933610c11565b90506000610e8786836120a6565b90506000610e958684611df1565b336000818152600b60205260409020600101549192506001600160a01b0390911690610ec3908790836120bc565b6000610ece826117f9565b90506000610edc8286611df1565b9050610ee88382612249565b6040805182815233602082015281516001600160a01b038616926000805160206138e1833981519152928290030190a2610f223386612395565b6000610f2e8787611df1565b9050610f3a338261241b565b6040805182815290513391600080516020613666833981519152919081900360200190a26040805189815260208101879052815133926000805160206137a0833981519152928290030190a2610f8f886125a1565b5050505050505050505050565b610fa46126a7565b600a54801580610fb2575082155b15610fbd5750610ffc565b600854610fd2906001600160a01b0316612032565b600080610fe08486856126f0565b91509150610fee82826127b9565b610ff88486612a83565b5050505b5050565b6001546001600160a01b031681565b6005546001600160a01b031681565b60c881565b61102c33612bbb565b61103533612c16565b61103e81612c6c565b336000818152600d60209081526040918290208481556001908101805460ff19169091179055815184815291517f19bc932fb9e16a8b5a1e41be9f4c2de59d5ddd7567b8b81405f532ca00a9880e9281900390910190a250565b6714d1120d7b16000081565b600e6020526000908152604090205481565b6110bf81612cb3565b6110c833612bbb565b6110d182612d1f565b336000908152600b60205260409020546008546001600160a01b03166110f681612032565b81611105576111053384612d5e565b600061111033611765565b9050600061111d33610c11565b9050600061112b8583611df1565b336000818152600b60205260409020600101549192506001600160a01b0390911690611159908690836120bc565b6000611164826117f9565b90506000611172828b610aa0565b905061117e8382612249565b6040805182815233602082015281516001600160a01b038616926000805160206138e1833981519152928290030190a26111b8338b612db8565b60006111c4868c610aa0565b90506111d0338261241b565b6040805182815290513391600080516020613666833981519152919081900360200190a26040805188815260208101879052815133926000805160206137a0833981519152928290030190a2610f8f876125a1565b60155481565b670de0b6b3a764000081565b6002546001600160a01b031681565b601154600160801b90046001600160801b031681565b6004546001600160a01b031681565b670f43fc2c04ee000081565b60008054604080516314a6bf0f60e01b8152905183926001600160a01b0316916314a6bf0f916004808301926020929190829003018186803b1580156112bc57600080fd5b505afa1580156112d0573d6000803e3d6000fd5b505050506040513d60208110156112e657600080fd5b5051600154604080516314a6bf0f60e01b815290519293506000926001600160a01b03909216916314a6bf0f91600480820192602092909190829003018186803b15801561133357600080fd5b505afa158015611347573d6000803e3d6000fd5b505050506040513d602081101561135d57600080fd5b5051905061136b8282610aa0565b9250505090565b6000546001600160a01b031681565b601360209081526000928352604080842090915290825290205481565b600c602052600090815260409020805460018201546002830154600390930154919290916001600160801b0380821691600160801b90041685565b60008054604080516362e1c9bf60e11b8152905183926001600160a01b03169163c5c3937e916004808301926020929190829003018186803b15801561141e57600080fd5b505afa158015611432573d6000803e3d6000fd5b505050506040513d602081101561144857600080fd5b5051600154604080516362e1c9bf60e11b815290519293506000926001600160a01b039092169163c5c3937e91600480820192602092909190829003018186803b15801561133357600080fd5b60105481565b6003546001600160a01b031690565b6003546001600160a01b0316331490565b336000908152600b60205260409020546114d481611ff0565b6114dd33612e7c565b6114e633612f33565b6008546001600160a01b03166114fb81612032565b600061150633611765565b9050600061151333610c11565b905060006115218583611df1565b336000818152600b60205260409020600101549192506001600160a01b039091169061154f908690836120bc565b600061155a826117f9565b9050806115678382612249565b6040805182815233602082015281516001600160a01b038616926000805160206138e1833981519152928290030190a26115a1338661241b565b6040805187815260208101869052815133926000805160206137a0833981519152928290030190a26040805186815290513391600080516020613666833981519152919081900360200190a26009546115fa9087611df1565b600981905560408051918252516000805160206137278339815191529181900360200190a1604080513381526020810188905281517f3b2482b1bf6e751427503c9a8bf79e4dba3e6519259e2220428c2f326cc79c14929181900390910190a16004805460408051630721ec6760e11b815233938101939093526001600160a01b038d811660248501528c811660448501529051911691630e43d8ce91899160648082019260009290919082900301818588803b1580156116ba57600080fd5b505af11580156116ce573d6000803e3d6000fd5b505050505050505050505050505050565b6008546001600160a01b031681565b6040518060400160405280600d81526020016c14dd18589a5b1a5d1e541bdbdb609a1b81525081565b6011546001600160801b031681565b60165481565b600d602052600090815260409020805460019091015460ff1682565b6007546001600160a01b031681565b60095490565b633b9aca0081565b6001600160a01b0381166000908152600b60205260408120548061178d576000915050610c0c565b6001600160a01b0383166000908152600c60209081526040808320815160a08101835281548152600182015493810193909352600281015491830191909152600301546001600160801b038082166060840152600160801b90910416608082015290610ca58383612f7f565b6001600160a01b0381166000908152600e602052604081205480611821576000915050610c0c565b6001600160a01b0383166000908152600f60209081526040808320815160a08101835281548152600182015493810193909352600281015491830191909152600301546001600160801b038082166060840152600160801b90910416608082015290610ca58383611d01565b6118956114aa565b6118e6576040805162461bcd60e51b815260206004820181905260248201527f4f776e61626c653a2063616c6c6572206973206e6f7420746865206f776e6572604482015290519081900360640190fd5b6118ef87612ffe565b6118f886612ffe565b61190185612ffe565b61190a84612ffe565b61191383612ffe565b61191c82612ffe565b61192581612ffe565b61192e876130ad565b611937866130ad565b600480546001600160a01b03199081166001600160a01b038a81169182179093556005805483168a85161790556000805483168985161790556006805483168885161790556007805483168785161790556002805483168685161790556008805490921692841692909217905560408051918252517f3ca631ffcd2a9b5d9ae18543fc82f58eb4ca33af9e6ab01b7a8e95331e6ed985916020908290030190a1604080516001600160a01b038816815290517f143219c9e69b09e07e095fcc889b43d8f46ca892bba65f08dc3a0050869a56789181900360200190a1604080516001600160a01b038716815290517f78f058b189175430c48dc02699e3a0031ea4ff781536dc2fab847de4babdd8829181900360200190a1604080516001600160a01b038616815290517f112220fa8dbe96141556e0dc3d74dd95075b323f4f297616048e02d82d7017159181900360200190a1604080516001600160a01b038516815290517f65f4cf077bc01e4742eb5ad98326f6e95b63548ea24b17f8d5e823111fe788009181900360200190a1604080516001600160a01b038416815290517f8c537274438aa850a330284665d81a85dd38267d09e4050d416bfc94142db2649181900360200190a1604080516001600160a01b038316815290517f3055265812fb8447b9ada4a5d804ec43bd528ec40e89c952bbc7b85dc5ac68119181900360200190a1611b47613251565b50505050505050565b60145481565b6006546001600160a01b031681565b6611c37937e0800081565b600b60205260009081526040902080546001909101546001600160a01b031682565b608081015160608201516040808401516020808601516001600160801b03808716600090815260138452858120918716815292529281205490949392908590611bdb9084611df1565b6001600160801b03808716600090815260136020526040812092935091611c3291633b9aca0091908490611c12908a16600161329b565b6001600160801b0316815260208101919091526040016000205490611cbf565b90506000611c58670de0b6b3a7640000610bfe8681611c518888610aa0565b8f90611c66565b9a9950505050505050505050565b600082611c7557506000610afd565b82820282848281611c8257fe5b0414610afa5760405162461bcd60e51b81526004018080602001828103825260218152602001806137066021913960400191505060405180910390fd5b6000610afa83836040518060400160405280601a81526020017f536166654d6174683a206469766973696f6e206279207a65726f0000000000008152506132eb565b6020810151606082015160808301516011546000939291906001600160801b03600160801b90910481169082161015611d405760009350505050610afd565b6011546000908190611d5b906001600160801b03168561338d565b90506001600160801b038116611d8b57611d8485610bfe6010548b611c6690919063ffffffff16565b9150611dc3565b806001600160801b031660011415611dbe57611d84633b9aca00610bfe87610bfe6010548d611c6690919063ffffffff16565b600091505b611dd188633b9aca00611cbf565b821015611de657600095505050505050610afd565b509695505050505050565b6000610afa83836040518060400160405280601e81526020017f536166654d6174683a207375627472616374696f6e206f766572666c6f7700008152506133e6565b60025460408051630fdb11cf60e01b815290516000926001600160a01b031691630fdb11cf91600480830192602092919082900301818787803b158015611e7957600080fd5b505af1158015611e8d573d6000803e3d6000fd5b505050506040513d6020811015611ea357600080fd5b505160075460408051634d62283160e01b815290519293506000926001600160a01b0390921691634d62283191600480820192602092909190829003018186803b158015611ef057600080fd5b505afa158015611f04573d6000803e3d6000fd5b505050506040513d6020811015611f1a57600080fd5b505160055460408051630d293c7160e41b81526001600160a01b038085166004830152602482018790529151939450600093919092169163d293c710916044808301926020929190829003018186803b158015611f7657600080fd5b505afa158015611f8a573d6000803e3d6000fd5b505050506040513d6020811015611fa057600080fd5b50519050670f43fc2c04ee0000811015611feb5760405162461bcd60e51b81526004018080602001828103825260448152602001806139016044913960600191505060405180910390fd5b505050565b6000811161202f5760405162461bcd60e51b81526004018080602001828103825260308152602001806138b16030913960400191505060405180910390fd5b50565b6000816001600160a01b0316632eee8bc96040518163ffffffff1660e01b8152600401602060405180830381600087803b15801561206f57600080fd5b505af1158015612083573d6000803e3d6000fd5b505050506040513d602081101561209957600080fd5b50519050610ffc81613440565b60008183106120b55781610afa565b5090919050565b6001600160a01b038116156121885760006120d682610d37565b9050836001600160a01b0316638352d63683836040518363ffffffff1660e01b815260040180836001600160a01b0316815260200182815260200192505050600060405180830381600087803b15801561212f57600080fd5b505af1158015612143573d6000803e3d6000fd5b50506040805184815290516001600160a01b03861693507fc3c43b5355673e1ea1a83122d1de4fde0584a9e8796843b3b7b33ed9b1aece0292509081900360200190a2505b600061219383610b03565b9050836001600160a01b0316638352d63684836040518363ffffffff1660e01b815260040180836001600160a01b0316815260200182815260200192505050600060405180830381600087803b1580156121ec57600080fd5b505af1158015612200573d6000803e3d6000fd5b50506040805184815290516001600160a01b03871693507fe57aace4a327c35eab9346657e77499888878556a925f2b460c3f1ce23b093f792509081900360200190a250505050565b6001600160a01b0382166000908152600e60205260409020819055806122d9576001600160a01b0382166000818152600f60209081526040808320838155600181018490556002810184905560030183905580518381529182019290925281517fbb1322f85cc7cc8bac4e172a5bc5dcc0c1959007f9a030032abf9258205f0e45929181900390910190a2610ffc565b6011546010546001600160801b03600160801b80840482166000818152601360209081526040808320978616808452978252808320546001600160a01b038b16808552600f845293829020600181018990556002810182905560030180546001600160801b0319168a17909716958502959095179095558451868152908101849052845192959491927fbb1322f85cc7cc8bac4e172a5bc5dcc0c1959007f9a030032abf9258205f0e45929181900390910190a2505050505050565b8061239f57610ffc565b60065460408051631062c15f60e11b81523060048201526001600160a01b03858116602483015260448201859052915191909216916320c582be91606480830192600092919082900301818387803b1580156123fa57600080fd5b505af115801561240e573d6000803e3d6000fd5b50505050610ffc81613555565b6001600160a01b0382166000908152600b60205260409020819055806124c9576001600160a01b0382166000818152600b60209081526040808320600190810180546001600160a01b0319169055600c83528184208481559081018490556002810184905560030183905580518381529182018390528181019290925290517f2d6cc0bcdf72c9486f6451bde6b80f44066f4558f77f44dbfedbe7d8b295225a9181900360600190a2610ffc565b6011546010546001600160801b03600160801b8084048216600081815260126020908152604080832097861680845297825280832054848452601383528184208985528352818420546001600160a01b038c16808652600c855294839020600181018a90558281556002810182905560030180546001600160801b0319168b179098169686029690961790965580518781529182018690528181018590525192959493927f2d6cc0bcdf72c9486f6451bde6b80f44066f4558f77f44dbfedbe7d8b295225a916060908290030190a250505050505050565b806125ab5761202f565b6009546000906125bb9083611df1565b6009819055604080518281529051919250600080516020613727833981519152919081900360200190a1604080513381526020810184905281517f3b2482b1bf6e751427503c9a8bf79e4dba3e6519259e2220428c2f326cc79c14929181900390910190a1604051600090339084908381818185875af1925050503d8060008114612662576040519150601f19603f3d011682016040523d82523d6000602084013e612667565b606091505b5050905080611feb5760405162461bcd60e51b81526004018080602001828103825260218152602001806138216021913960400191505060405180910390fd5b6005546001600160a01b03163314610a9e5760405162461bcd60e51b81526004018080602001828103825260298152602001806136866029913960400191505060405180910390fd5b600080600061271c601554612716670de0b6b3a764000089611c6690919063ffffffff16565b90610aa0565b90508385111561272857fe5b83851415612745576000601655670de0b6b3a7640000915061278d565b6016546000906127679061276188670de0b6b3a7640000611c66565b90611df1565b905061277860016127168388611cbf565b9250612788816127618588611c66565b601655505b6127978185611cbf565b92506127ad6127a68486611c66565b8290611df1565b60155550935093915050565b6010546000670de0b6b3a76400008311156127d057fe5b60006127e4670de0b6b3a764000085611df1565b6011546001600160801b03600160801b8204811660008181526012602090815260408083209490951680835293905292832054939450909290916128288988611c66565b905060006128368383610aa0565b6001600160801b038086166000818152601260209081526040808320948b16808452948252918290208590558151858152908101929092528181019290925290519192507fe12e2cd2c9afa8069203ca07e7eff1edce4a075686d0736a8e7e0d593597b207919081900360600190a185612967576128be6001600160801b038516600161329b565b601180546001600160801b03908116600160801b938216840217918290556040805193909204168252517fb50f0f59e7cb5b421dc77581c3a9919e3806e076e5fa78a874c3f120cb7d874d916020908290030190a1601180546001600160801b0319169055604080516000815290517f1f9dfc70cd666adb18a39d60a797518f7b4febf4b6e24ef37d44f6e1e7219fbe9181900360200190a1670de0b6b3a76400009650612a35565b633b9aca00612982670de0b6b3a7640000610bfe8b8a611c66565b1015612a1c576129ac670de0b6b3a7640000610bfe633b9aca006129a68c8b611c66565b90611c66565b96506129c26001600160801b038616600161329b565b601180546001600160801b0319166001600160801b0392831617908190556040805191909216815290517f1f9dfc70cd666adb18a39d60a797518f7b4febf4b6e24ef37d44f6e1e7219fbe916020908290030190a1612a35565b612a32670de0b6b3a7640000610bfe8a89611c66565b96505b60008711612a3f57fe5b60108790556040805188815290517fc1a9618cb59ebca77cbdbc2949f126823c407ff13edb285fd0262519a9c18e8c9181900360200190a150505050505050505050565b6000805460408051632a7ba1f760e01b81526004810185905290516001600160a01b03909216928392632a7ba1f792602480820193929182900301818387803b158015612acf57600080fd5b505af1158015612ae3573d6000803e3d6000fd5b50505050612af082613555565b60065460408051632770a7eb60e21b81523060048201526024810185905290516001600160a01b0390921691639dc29fac9160448082019260009290919082900301818387803b158015612b4357600080fd5b505af1158015612b57573d6000803e3d6000fd5b505060408051628063a560e01b81523060048201526024810187905290516001600160a01b0385169350628063a59250604480830192600092919082900301818387803b158015612ba757600080fd5b505af1158015611b47573d6000803e3d6000fd5b6001600160a01b0381166000908152600d602052604090206001015460ff161561202f5760405162461bcd60e51b81526004018080602001828103825260398152602001806137c06039913960400191505060405180910390fd5b6001600160a01b0381166000908152600b60205260409020548015610ffc5760405162461bcd60e51b81526004018080602001828103825260288152602001806137f96028913960400191505060405180910390fd5b670de0b6b3a764000081111561202f5760405162461bcd60e51b81526004018080602001828103825260338152602001806137476033913960400191505060405180910390fd5b6001600160a01b0381166000908152600d602052604090206001015460ff1680612ce457506001600160a01b038116155b61202f5760405162461bcd60e51b81526004018080602001828103825260468152602001806135f96046913960600191505060405180910390fd5b6000811161202f5760405162461bcd60e51b815260040180806020018281038252602681526020018061377a6026913960400191505060405180910390fd5b6001600160a01b038281166000818152600b602052604080822060010180546001600160a01b0319169486169485179055517f094c08e96a8890877a8390b4f967180a7507ad8622244d05fcd0f9f8e086564e9190a35050565b60065460408051632ee65eeb60e21b81526001600160a01b038581166004830152306024830152604482018590529151919092169163bb997bac91606480830192600092919082900301818387803b158015612e1357600080fd5b505af1158015612e27573d6000803e3d6000fd5b5050600a5460009250612e3b915083610aa0565b600a8190556040805182815290519192507f8c9268469ff6265448f46f8119962e815f393b25b87bb55bda5e709a412b85d7919081900360200190a1505050565b600554604080516321e3780160e01b81526001600160a01b038481166004830152915191909216916321e37801916024808301926020929190829003018186803b158015612ec957600080fd5b505afa158015612edd573d6000803e3d6000fd5b505050506040513d6020811015612ef357600080fd5b505160011461202f5760405162461bcd60e51b81526004018080602001828103825260468152602001806138426046913960600191505060405180910390fd5b6000612f3e82611765565b905060008111610ffc5760405162461bcd60e51b81526004018080602001828103825260318152602001806136af6031913960400191505060405180910390fd5b6080810151606082015182516020808501516001600160801b03808616600090815260128452604080822092871682529190935282205491949392918590612fc79084611df1565b6001600160801b03808716600090815260126020526040812092935091611c3291633b9aca0091908490611c12908a16600161329b565b6001600160a01b038116613059576040805162461bcd60e51b815260206004820152601e60248201527f4163636f756e742063616e6e6f74206265207a65726f20616464726573730000604482015290519081900360640190fd5b803b80610ffc576040805162461bcd60e51b815260206004820181905260248201527f4163636f756e7420636f64652073697a652063616e6e6f74206265207a65726f604482015290519081900360640190fd5b7f0000000000000000000000000000000000000000000000000000000000000000816001600160a01b031663139f2e8c6040518163ffffffff1660e01b815260040160206040518083038186803b15801561310757600080fd5b505afa15801561311b573d6000803e3d6000fd5b505050506040513d602081101561313157600080fd5b505114613181576040805162461bcd60e51b815260206004820152601960248201527808e82a6be869e9aa08a9ca682a8929e9c40dad2e6dac2e8c6d603b1b604482015290519081900360640190fd5b7f0000000000000000000000000000000000000000000000000000000000000000816001600160a01b0316631bf435556040518163ffffffff1660e01b815260040160206040518083038186803b1580156131db57600080fd5b505afa1580156131ef573d6000803e3d6000fd5b505050506040513d602081101561320557600080fd5b50511461202f576040805162461bcd60e51b815260206004820152601560248201527409a929cbe9c8aa8be888a84a840dad2e6dac2e8c6d605b1b604482015290519081900360640190fd5b6003546040516000916001600160a01b0316907f8be0079c531659141344cd1fd0a4f28419497f9722a3daafe3b4186f6b6457e0908390a3600380546001600160a01b0319169055565b60008282016001600160801b038085169082161015610afa5760405162461bcd60e51b81526004018080602001828103825260268152602001806136e06026913960400191505060405180910390fd5b600081836133775760405162461bcd60e51b81526004018080602001828103825283818151815260200191508051906020019080838360005b8381101561333c578181015183820152602001613324565b50505050905090810190601f1680156133695780820380516001836020036101000a031916815260200191505b509250505060405180910390fd5b50600083858161338357fe5b0495945050505050565b6000826001600160801b0316826001600160801b031611156133e05760405162461bcd60e51b81526004018080602001828103825260298152602001806138886029913960400191505060405180910390fd5b50900390565b600081848411156134385760405162461bcd60e51b815260206004820181815283516024840152835190928392604490910191908501908083836000831561333c578181015183820152602001613324565b505050900390565b600a5480158061344e575081155b15613459575061202f565b600061346583836135a5565b9050600061347e60105483611c6690919063ffffffff16565b6011546001600160801b03600160801b8204811660009081526013602090815260408083209390941682529190915220549091506134bc9082610aa0565b601180546001600160801b03600160801b808304821660009081526013602081815260408084209686168452958152858320979097559454918204831680825294865283812091909216808352908552908290205482519081529384019290925282810191909152517f2d6127771b164a9cc8827d24b5955db2a77e7a81dac389107ebb8bce9fb649689181900360600190a150505050565b600a546000906135659083611df1565b600a8190556040805182815290519192507f8c9268469ff6265448f46f8119962e815f393b25b87bb55bda5e709a412b85d7919081900360200190a15050565b6000806135c9601454612716670de0b6b3a764000087611c6690919063ffffffff16565b905060006135d78285611cbf565b90506135ed6135e68286611c66565b8390611df1565b60145594935050505056fe53746162696c697479506f6f6c3a20546167206d757374206265206120726567697374657265642066726f6e7420656e642c206f7220746865207a65726f206164647265737353746162696c697479506f6f6c3a2043616c6c6572206973206e6f7420416374697665506f6f6cbce78369dccab09eec1986f4d409ab09ffbb47d65423e5148fcf98411c5111c953746162696c697479506f6f6c3a2043616c6c6572206973206e6f742054726f76654d616e6167657253746162696c697479506f6f6c3a2063616c6c6572206d7573742068617665206e6f6e2d7a65726f2046494c204761696e50726f746f636f6c536166654d6174683132383a206164646974696f6e206f766572666c6f77536166654d6174683a206d756c7469706c69636174696f6e206f766572666c6f77d05c60ff21c33fb1103e848d5310f11270e7db91e1b079c4bdd0c6024f83d6c753746162696c697479506f6f6c3a204b69636b6261636b2072617465206d75737420626520696e2072616e6765205b302c315d53746162696c697479506f6f6c3a20416d6f756e74206d757374206265206e6f6e2d7a65726f69e8bca5591c9a2886b122cc27d391b407b746b724f75b996c37903b868c449753746162696c697479506f6f6c3a206d757374206e6f7420616c7265616479206265206120726567697374657265642066726f6e7420656e6453746162696c697479506f6f6c3a2055736572206d7573742068617665206e6f206465706f73697453746162696c697479506f6f6c3a2073656e64696e672046494c206661696c656453746162696c697479506f6f6c3a2063616c6c6572206d757374206861766520616e206163746976652074726f766520746f2077697468647261772046494c4761696e20746f50726f746f636f6c536166654d6174683132383a207375627472616374696f6e206f766572666c6f7753746162696c697479506f6f6c3a2055736572206d75737420686176652061206e6f6e2d7a65726f206465706f73697499920012339b5a3368d3a04b8606ce412c46ed92b7dcd8602d41fc8862cb8f2553746162696c697479506f6f6c3a2043616e6e6f74207769746864726177207768696c65207468657265206172652074726f766573207769746820494352203c204d4352a2646970667358221220a482509a70b7944c88229389ef2ea2041bd54a4700a6dab09503adac4ff89d2164736f6c634300070600336080604052348015600f57600080fd5b50603f80601d6000396000f3fe6080604052600080fdfea264697066735822122070e3545ed758f007941223033f149da58f1da3558aa3067781c5ab8f8c41e54f64736f6c634300070600336101606040523480156200001257600080fd5b506040516200189c3803806200189c833981810160405260608110156200003857600080fd5b5080516020820151604090920151909190620000548362000234565b6200005f8262000234565b6200006a8162000234565b6001600160601b0319606084901b1661010052604080516001600160a01b038516815290517f143219c9e69b09e07e095fcc889b43d8f46ca892bba65f08dc3a0050869a56789181900360200190a16001600160601b0319606083901b1661012052604080516001600160a01b038416815290517f82966d27eea39b038ee0fa30cd16532bb24f6e65d31cb58fb227aa5766cdcc7f9181900360200190a16001600160601b0319606082901b1661014052604080516001600160a01b038316815290517f3ca631ffcd2a9b5d9ae18543fc82f58eb4ca33af9e6ab01b7a8e95331e6ed9859181900360200190a1604080518082018252601a81527f55534420666f722046696c65636f696e20436f6d6d756e697479000000000000602091820152815180830190925260018252603160f81b9101527fc0412597c9d60cbc3de18204991e00bf2f567b025e527ce64b3713f7afab420760c08190527fc89efdaa54c0f20c7adf612882df0950f5a951637e0307cdcb4c672f298b8bc660e0819052620001f5620002e9565b60a052620002257f8b73c3c69bb8fe3d512ecc4cf759cc79239f7b179b0ffacaa9a75d522b39400f8383620002ed565b60805250620003519350505050565b6001600160a01b03811662000290576040805162461bcd60e51b815260206004820152601e60248201527f4163636f756e742063616e6e6f74206265207a65726f20616464726573730000604482015290519081900360640190fd5b803b80620002e5576040805162461bcd60e51b815260206004820181905260248201527f4163636f756e7420636f64652073697a652063616e6e6f74206265207a65726f604482015290519081900360640190fd5b5050565b4690565b6000838383620002fc620002e9565b3060405160200180868152602001858152602001848152602001838152602001826001600160a01b03168152602001955050505050506040516020818303038152906040528051906020012090509392505050565b60805160a05160c05160e0516101005160601c6101205160601c6101405160601c6114bc620003e06000398061076a5280610d5a5280610ed05280610fbf5250806105365280610b4c5280610cdf5280611024528061113652508061067a5280610b1a5280610d1c5280610ff1525080610a62525080610a415250806109c75250806109f752506114bc6000f3fe608060405234801561001057600080fd5b506004361061014d5760003560e01c80635a4d28bb116100c3578063a9059cbb1161007c578063a9059cbb146103f5578063b7f8cf9b14610421578063bb997bac14610429578063d505accf1461045f578063dd62ed3e146104b0578063f698da25146104de5761014d565b80635a4d28bb1461034157806370a08231146103495780637ecebe001461036f57806395d89b41146103955780639dc29fac1461039d578063a457c2d7146103c95761014d565b806320c582be1161011557806320c582be1461025557806323b872dd1461028d578063313ce567146102c357806339509351146102e157806340c10f191461030d57806354fd4d50146103395761014d565b806306fdde0314610152578063095ea7b3146101cf5780630b622ab21461020f57806310ce43bd1461023357806318160ddd1461024d575b600080fd5b61015a6104e6565b6040805160208082528351818301528351919283929083019185019080838360005b8381101561019457818101518382015260200161017c565b50505050905090810190601f1680156101c15780820380516001836020036101000a031916815260200191505b509250505060405180910390f35b6101fb600480360360408110156101e557600080fd5b506001600160a01b03813516906020013561051e565b604080519115158252519081900360200190f35b610217610534565b604080516001600160a01b039092168252519081900360200190f35b61023b610558565b60408051918252519081900360200190f35b61023b61057c565b61028b6004803603606081101561026b57600080fd5b506001600160a01b03813581169160208101359091169060400135610582565b005b6101fb600480360360608110156102a357600080fd5b506001600160a01b0381358116916020810135909116906040013561059a565b6102cb61060c565b6040805160ff9092168252519081900360200190f35b6101fb600480360360408110156102f757600080fd5b506001600160a01b038135169060200135610611565b61028b6004803603604081101561032357600080fd5b506001600160a01b038135169060200135610647565b61015a61065d565b610217610678565b61023b6004803603602081101561035f57600080fd5b50356001600160a01b031661069c565b61023b6004803603602081101561038557600080fd5b50356001600160a01b03166106b7565b61015a6106d2565b61028b600480360360408110156103b357600080fd5b506001600160a01b0381351690602001356106f1565b6101fb600480360360408110156103df57600080fd5b506001600160a01b038135169060200135610703565b6101fb6004803603604081101561040b57600080fd5b506001600160a01b038135169060200135610752565b610217610768565b61028b6004803603606081101561043f57600080fd5b506001600160a01b0381358116916020810135909116906040013561078c565b61028b600480360360e081101561047557600080fd5b506001600160a01b03813581169160208101359091169060408101359060608101359060ff6080820135169060a08101359060c00135610794565b61023b600480360360408110156104c657600080fd5b506001600160a01b0381358116916020013516610998565b61023b6109c3565b60408051808201909152601a81527f55534420666f722046696c65636f696e20436f6d6d756e69747900000000000060208201525b90565b600061052b338484610a8d565b50600192915050565b7f000000000000000000000000000000000000000000000000000000000000000081565b7f6e71edae12b1b97f4d1f60370fef10105fa2faae0126114a169c64845d6126c990565b60005490565b61058a610b0f565b610595838383610bab565b505050565b60006105a583610c81565b6105b0848484610bab565b61060284336105fd856040518060600160405280602881526020016113df602891396001600160a01b038a1660009081526003602090815260408083203384529091529020549190610dcd565b610a8d565b5060019392505050565b601290565b3360008181526003602090815260408083206001600160a01b0387168452909152812054909161052b9185906105fd9086610e64565b61064f610ec5565b6106598282610f2c565b5050565b6040805180820190915260018152603160f81b602082015290565b7f000000000000000000000000000000000000000000000000000000000000000081565b6001600160a01b031660009081526002602052604090205490565b6001600160a01b031660009081526001602052604090205490565b604080518082019091526005815264555344464360d81b602082015290565b6106f9610fb4565b6106598282611081565b600061052b33846105fd85604051806060016040528060258152602001611462602591393360009081526003602090815260408083206001600160a01b038d1684529091529020549190610dcd565b600061075d83610c81565b61052b338484610bab565b7f000000000000000000000000000000000000000000000000000000000000000081565b61058a61112b565b428410156107e9576040805162461bcd60e51b815260206004820152601b60248201527f44656274546f6b656e3a206578706972656420646561646c696e650000000000604482015290519081900360640190fd5b60006107f36109c3565b6001600160a01b03808a166000818152600160208181526040808420805480850190915581517f6e71edae12b1b97f4d1f60370fef10105fa2faae0126114a169c64845d6126c98185015280830196909652958e166060860152608085018d905260a085019590955260c08085018c90528551808603909101815260e08501865280519082012061190160f01b6101008601526101028501969096526101228085019690965284518085039096018652610142840180865286519682019690962095839052610162840180865286905260ff8a166101828501526101a284018990526101c284018890529351949550909390926101e2808401939192601f1981019281900390910190855afa158015610910573d6000803e3d6000fd5b505050602060405103519050886001600160a01b0316816001600160a01b031614610982576040805162461bcd60e51b815260206004820152601c60248201527f44656274546f6b656e3a20696e76616c6964207369676e617475726500000000604482015290519081900360640190fd5b61098d898989610a8d565b505050505050505050565b6001600160a01b03918216600090815260036020908152604080832093909416825291909152205490565b60007f00000000000000000000000000000000000000000000000000000000000000006109ee611192565b1415610a1b57507f000000000000000000000000000000000000000000000000000000000000000061051b565b610a867f8b73c3c69bb8fe3d512ecc4cf759cc79239f7b179b0ffacaa9a75d522b39400f7f00000000000000000000000000000000000000000000000000000000000000007f0000000000000000000000000000000000000000000000000000000000000000611196565b905061051b565b6001600160a01b038316610a9d57fe5b6001600160a01b038216610aad57fe5b6001600160a01b03808416600081815260036020908152604080832094871680845294825291829020859055815185815291517f8c5be1e5ebec7d5bd14f71427d1e84f3dd0314c0f7b2291e5b200ac8c7c3b9259281900390910190a3505050565b336001600160a01b037f0000000000000000000000000000000000000000000000000000000000000000161480610b6e5750336001600160a01b037f000000000000000000000000000000000000000000000000000000000000000016145b610ba95760405162461bcd60e51b815260040180806020018281038252603b815260200180611427603b913960400191505060405180910390fd5b565b6001600160a01b038316610bbb57fe5b6001600160a01b038216610bcb57fe5b610c0881604051806060016040528060268152602001611336602691396001600160a01b0386166000908152600260205260409020549190610dcd565b6001600160a01b038085166000908152600260205260408082209390935590841681522054610c379082610e64565b6001600160a01b03808416600081815260026020908152604091829020949094558051858152905191939287169260008051602061140783398151915292918290030190a3505050565b6001600160a01b03811615801590610ca257506001600160a01b0381163014155b610cdd5760405162461bcd60e51b815260040180806020018281038252605981526020018061135c6059913960600191505060405180910390fd5b7f00000000000000000000000000000000000000000000000000000000000000006001600160a01b0316816001600160a01b031614158015610d5157507f00000000000000000000000000000000000000000000000000000000000000006001600160a01b0316816001600160a01b031614155b8015610d8f57507f00000000000000000000000000000000000000000000000000000000000000006001600160a01b0316816001600160a01b031614155b610dca5760405162461bcd60e51b815260040180806020018281038252605c8152602001806112af605c913960600191505060405180910390fd5b50565b60008184841115610e5c5760405162461bcd60e51b81526004018080602001828103825283818151815260200191508051906020019080838360005b83811015610e21578181015183820152602001610e09565b50505050905090810190601f168015610e4e5780820380516001836020036101000a031916815260200191505b509250505060405180910390fd5b505050900390565b600082820183811015610ebe576040805162461bcd60e51b815260206004820152601b60248201527f536166654d6174683a206164646974696f6e206f766572666c6f770000000000604482015290519081900360640190fd5b9392505050565b336001600160a01b037f00000000000000000000000000000000000000000000000000000000000000001614610ba95760405162461bcd60e51b815260040180806020018281038252602b81526020018061130b602b913960400191505060405180910390fd5b6001600160a01b038216610f3c57fe5b600054610f499082610e64565b60009081556001600160a01b038316815260026020526040902054610f6e9082610e64565b6001600160a01b03831660008181526002602090815260408083209490945583518581529351929391926000805160206114078339815191529281900390910190a35050565b336001600160a01b037f00000000000000000000000000000000000000000000000000000000000000001614806110135750336001600160a01b037f000000000000000000000000000000000000000000000000000000000000000016145b806110465750336001600160a01b037f000000000000000000000000000000000000000000000000000000000000000016145b610ba95760405162461bcd60e51b815260040180806020018281038252605281526020018061125d6052913960600191505060405180910390fd5b6001600160a01b03821661109157fe5b6110ce8160405180606001604052806022815260200161123b602291396001600160a01b0385166000908152600260205260409020549190610dcd565b6001600160a01b038316600090815260026020526040812091909155546110f590826111f8565b60009081556040805183815290516001600160a01b03851691600080516020611407833981519152919081900360200190a35050565b336001600160a01b037f00000000000000000000000000000000000000000000000000000000000000001614610ba95760405162461bcd60e51b815260040180806020018281038252602a8152602001806113b5602a913960400191505060405180910390fd5b4690565b60008383836111a3611192565b3060405160200180868152602001858152602001848152602001838152602001826001600160a01b03168152602001955050505050506040516020818303038152906040528051906020012090509392505050565b6000610ebe83836040518060400160405280601e81526020017f536166654d6174683a207375627472616374696f6e206f766572666c6f770000815250610dcd56fe45524332303a206275726e20616d6f756e7420657863656564732062616c616e636544656274546f6b656e3a2043616c6c6572206973206e65697468657220426f72726f7765724f7065726174696f6e73206e6f722054726f76654d616e61676572206e6f722053746162696c697479506f6f6c44656274546f6b656e3a2043616e6e6f74207472616e7366657220746f6b656e73206469726563746c7920746f207468652053746162696c697479506f6f6c2c2054726f76654d616e61676572206f7220426f72726f7765724f707344656274546f6b656e3a2043616c6c6572206973206e6f7420426f72726f7765724f7065726174696f6e7345524332303a207472616e7366657220616d6f756e7420657863656564732062616c616e636544656274546f6b656e3a2043616e6e6f74207472616e7366657220746f6b656e73206469726563746c7920746f20746865204465627420746f6b656e20636f6e7472616374206f7220746865207a65726f206164647265737344656274546f6b656e3a2043616c6c6572206973206e6f74207468652053746162696c697479506f6f6c45524332303a207472616e7366657220616d6f756e74206578636565647320616c6c6f77616e6365ddf252ad1be2c89b69c2b068fc378daa952ba7f163c4a11628f55a4df523b3ef44656274546f6b656e3a2043616c6c6572206973206e6569746865722054726f76654d616e61676572206e6f722053746162696c697479506f6f6c45524332303a2064656372656173656420616c6c6f77616e63652062656c6f77207a65726fa26469706673582212209d4f00224603506422621ce099e821827f50879b2f32fe80909f974365d79c5f64736f6c63430007060033608060405234801561001057600080fd5b50600080546001600160a01b0319163390811782556040519091907f8be0079c531659141344cd1fd0a4f28419497f9722a3daafe3b4186f6b6457e0908290a3610b288061005f6000396000f3fe6080604052600436106100a05760003560e01c80639b56d6c9116100645780639b56d6c9146101b3578063a3f4df7e146101f8578063b08bc72214610282578063b32beb5b14610297578063b7f8cf9b146102ca578063c5c3937e146102df576100bf565b8063363bf964146100c45780633f10abab1461010b5780635a4d28bb146101445780638da5cb5b146101755780638f32d59b1461018a576100bf565b366100bf576100ad6102f4565b6004546100ba903461033f565b600455005b600080fd5b3480156100d057600080fd5b50610109600480360360608110156100e757600080fd5b506001600160a01b0381358116916020810135821691604090910135166103a0565b005b34801561011757600080fd5b506101096004803603604081101561012e57600080fd5b506001600160a01b038135169060200135610506565b34801561015057600080fd5b5061015961058c565b604080516001600160a01b039092168252519081900360200190f35b34801561018157600080fd5b5061015961059b565b34801561019657600080fd5b5061019f6105aa565b604080519115158252519081900360200190f35b3480156101bf57600080fd5b506101e6600480360360208110156101d657600080fd5b50356001600160a01b03166105bb565b60408051918252519081900360200190f35b34801561020457600080fd5b5061020d6105d6565b6040805160208082528351818301528351919283929083019185019080838360005b8381101561024757818101518382015260200161022f565b50505050905090810190601f1680156102745780820380516001836020036101000a031916815260200191505b509250505060405180910390f35b34801561028e57600080fd5b50610159610601565b3480156102a357600080fd5b50610109600480360360208110156102ba57600080fd5b50356001600160a01b0316610610565b3480156102d657600080fd5b5061015961079f565b3480156102eb57600080fd5b506101e66107ae565b6003546001600160a01b0316331461033d5760405162461bcd60e51b815260040180806020018281038252602a815260200180610a49602a913960400191505060405180910390fd5b565b600082820183811015610399576040805162461bcd60e51b815260206004820152601b60248201527f536166654d6174683a206164646974696f6e206f766572666c6f770000000000604482015290519081900360640190fd5b9392505050565b6103a86105aa565b6103f9576040805162461bcd60e51b815260206004820181905260248201527f4f776e61626c653a2063616c6c6572206973206e6f7420746865206f776e6572604482015290519081900360640190fd5b610402836107b4565b61040b826107b4565b610414816107b4565b600180546001600160a01b038086166001600160a01b0319928316811790935560028054868316908416179055600380549185169190921617905560408051918252517f3ca631ffcd2a9b5d9ae18543fc82f58eb4ca33af9e6ab01b7a8e95331e6ed9859181900360200190a1604080516001600160a01b038416815290517f143219c9e69b09e07e095fcc889b43d8f46ca892bba65f08dc3a0050869a56789181900360200190a1604080516001600160a01b038316815290517f78f058b189175430c48dc02699e3a0031ea4ff781536dc2fab847de4babdd8829181900360200190a1610501610867565b505050565b61050e6108b1565b6001600160a01b038216600090815260056020526040812054610531908361033f565b6001600160a01b0384166000818152600560209081526040918290208490558151848152915193945091927ff0393a34d05e6567686ad4e097f9d9d2781565957394f1f0d984e5d8e6378f20929181900390910190a2505050565b6002546001600160a01b031681565b6000546001600160a01b031690565b6000546001600160a01b0316331490565b6001600160a01b031660009081526005602052604090205490565b6040518060400160405280600f81526020016e10dbdb1b14dd5c9c1b1d5cd41bdbdb608a1b81525081565b6003546001600160a01b031681565b6106186108fa565b6001600160a01b0381166000908152600560205260409020548061066d5760405162461bcd60e51b8152600401808060200182810382526031815260200180610a186031913960400191505060405180910390fd5b6001600160a01b03821660008181526005602090815260408083208390558051928352517ff0393a34d05e6567686ad4e097f9d9d2781565957394f1f0d984e5d8e6378f209281900390910190a26004546106c89082610943565b600455604080516001600160a01b03841681526020810183905281517f3b2482b1bf6e751427503c9a8bf79e4dba3e6519259e2220428c2f326cc79c14929181900390910190a16040516000906001600160a01b0384169083908381818185875af1925050503d806000811461075a576040519150601f19603f3d011682016040523d82523d6000602084013e61075f565b606091505b50509050806105015760405162461bcd60e51b8152600401808060200182810382526023815260200180610a736023913960400191505060405180910390fd5b6001546001600160a01b031681565b60045490565b6001600160a01b03811661080f576040805162461bcd60e51b815260206004820152601e60248201527f4163636f756e742063616e6e6f74206265207a65726f20616464726573730000604482015290519081900360640190fd5b803b80610863576040805162461bcd60e51b815260206004820181905260248201527f4163636f756e7420636f64652073697a652063616e6e6f74206265207a65726f604482015290519081900360640190fd5b5050565b600080546040516001600160a01b03909116907f8be0079c531659141344cd1fd0a4f28419497f9722a3daafe3b4186f6b6457e0908390a3600080546001600160a01b0319169055565b6002546001600160a01b0316331461033d5760405162461bcd60e51b815260040180806020018281038252602b815260200180610ac8602b913960400191505060405180910390fd5b6001546001600160a01b0316331461033d5760405162461bcd60e51b8152600401808060200182810382526032815260200180610a966032913960400191505060405180910390fd5b600061039983836040518060400160405280601e81526020017f536166654d6174683a207375627472616374696f6e206f766572666c6f77000081525060008184841115610a0f5760405162461bcd60e51b81526004018080602001828103825283818151815260200191508051906020019080838360005b838110156109d45781810151838201526020016109bc565b50505050905090810190601f168015610a015780820380516001836020036101000a031916815260200191505b509250505060405180910390fd5b50505090039056fe436f6c6c537572706c7573506f6f6c3a204e6f20636f6c6c61746572616c20617661696c61626c6520746f20636c61696d436f6c6c537572706c7573506f6f6c3a2043616c6c6572206973206e6f742041637469766520506f6f6c436f6c6c537572706c7573506f6f6c3a2073656e64696e672046494c206661696c6564436f6c6c537572706c7573506f6f6c3a2043616c6c6572206973206e6f7420426f72726f776572204f7065726174696f6e73436f6c6c537572706c7573506f6f6c3a2043616c6c6572206973206e6f742054726f76654d616e61676572a264697066735822122097df8a4549b1d8b271cd58160ed847f8aab31af115b7fb9cb4a6cbf4cfe969c864736f6c634300070600336080604052680ad78ebc5ac620000060005534801561001d57600080fd5b5061010e8061002d6000396000f3fe6080604052348015600f57600080fd5b5060043610603c5760003560e01c80630fdb11cf14604157806391b7f5ed14605957806398d5fdca146087575b600080fd5b6047608d565b60408051918252519081900360200190f35b607360048036036020811015606d57600080fd5b503560ca565b604080519115158252519081900360200190f35b604760d2565b6000805460408051918252517f4d29de21de555af78a62fc82dd4bc05e9ae5b0660a37f04729527e0f22780cd39181900360200190a15060005490565b600055600190565b6000549056fea2646970667358221220c462043fdfe206646a711e713089268bf492c30d6df9a2c0c3fad72b22d0e8d064736f6c63430007060033608060405234801561001057600080fd5b50600080546001600160a01b0319163390811782556040519091907f8be0079c531659141344cd1fd0a4f28419497f9722a3daafe3b4186f6b6457e0908290a36118778061005f6000396000f3fe608060405234801561001057600080fd5b50600436106101375760003560e01c8063681fe70c116100b8578063a3f4df7e1161007c578063a3f4df7e14610373578063b72703ac146103f0578063b7f8cf9b14610416578063babd3d9a1461041e578063de8fa43114610426578063f376d7981461042e57610137565b8063681fe70c146102fb57806373d4a13a14610303578063765e01591461033d5780638da5cb5b146103635780638f32d59b1461036b57610137565b8063416980dc116100ff578063416980dc1461021457806346f7cf87146102775780634d622831146102b35780635dbe47e8146102bb57806363e1d57c146102e157610137565b80631e2231431461013c57806329092d0e146101605780632be21260146101885780633d83908a146101c45780633fce12d5146101cc575b600080fd5b610144610462565b604080516001600160a01b039092168252519081900360200190f35b6101866004803603602081101561017657600080fd5b50356001600160a01b0316610471565b005b6101866004803603608081101561019e57600080fd5b506001600160a01b03813581169160208101359160408201358116916060013516610485565b61014461053a565b610200600480360360608110156101e257600080fd5b508035906001600160a01b0360208201358116916040013516610549565b604080519115158252519081900360200190f35b6102486004803603606081101561022a57600080fd5b508035906001600160a01b036020820135811691604001351661056c565b60405180836001600160a01b03168152602001826001600160a01b031681526020019250505060405180910390f35b6101866004803603608081101561028d57600080fd5b506001600160a01b03813581169160208101359160408201358116916060013516610596565b6101446105ab565b610200600480360360208110156102d157600080fd5b50356001600160a01b03166105ba565b6102e96105d8565b60408051918252519081900360200190f35b6102006105de565b61030b6105e5565b604080516001600160a01b03958616815293909416602084015282840191909152606082015290519081900360800190f35b6101446004803603602081101561035357600080fd5b50356001600160a01b0316610604565b610144610627565b610200610636565b61037b610647565b6040805160208082528351818301528351919283929083019185019080838360005b838110156103b557818101518382015260200161039d565b50505050905090810190601f1680156103e25780820380516001836020036101000a031916815260200191505b509250505060405180910390f35b6101446004803603602081101561040657600080fd5b50356001600160a01b031661066f565b610144610690565b61020061069f565b6102e96106a9565b6101866004803603606081101561044457600080fd5b508035906001600160a01b03602082013581169160400135166106af565b6003546001600160a01b031690565b61047961081d565b61048281610868565b50565b6002546001600160a01b031661049a81610a96565b6104a3856105ba565b6104de5760405162461bcd60e51b815260040180806020018281038252602a81526020018061179c602a913960400191505060405180910390fd5b6000841161051d5760405162461bcd60e51b815260040180806020018281038252602381526020018061181f6023913960400191505060405180910390fd5b61052685610868565b6105338186868686610af2565b5050505050565b6002546001600160a01b031681565b600254600090610564906001600160a01b0316858585610e70565b949350505050565b6002546000908190610589906001600160a01b03168686866110f3565b915091505b935093915050565b6002546001600160a01b031661052681610a96565b6004546001600160a01b031690565b6001600160a01b031660009081526007602052604090205460ff1690565b60055490565b6006541590565b6003546004546005546006546001600160a01b03938416939092169184565b6001600160a01b0390811660009081526007602052604090205461010090041690565b6000546001600160a01b031690565b6000546001600160a01b0316331490565b6040518060400160405280600c81526020016b536f7274656454726f76657360a01b81525081565b6001600160a01b039081166000908152600760205260409020600101541690565b6001546001600160a01b031681565b6005546006541490565b60065490565b6106b7610636565b610708576040805162461bcd60e51b815260206004820181905260248201527f4f776e61626c653a2063616c6c6572206973206e6f7420746865206f776e6572604482015290519081900360640190fd5b6000831161075d576040805162461bcd60e51b815260206004820181905260248201527f536f7274656454726f7665733a2053697a652063616e2774206265207a65726f604482015290519081900360640190fd5b610766826112ce565b61076f816112ce565b6005839055600280546001600160a01b038085166001600160a01b03199283168117909355600180549185169190921617905560408051918252517f143219c9e69b09e07e095fcc889b43d8f46ca892bba65f08dc3a0050869a56789181900360200190a1604080516001600160a01b038316815290517f3ca631ffcd2a9b5d9ae18543fc82f58eb4ca33af9e6ab01b7a8e95331e6ed9859181900360200190a1610818611381565b505050565b6002546001600160a01b031633146108665760405162461bcd60e51b815260040180806020018281038252602c8152602001806117c6602c913960400191505060405180910390fd5b565b610871816105ba565b6108ac5760405162461bcd60e51b815260040180806020018281038252602a81526020018061179c602a913960400191505060405180910390fd5b600654600110156109f2576003546001600160a01b038281169116141561091b576001600160a01b03818116600090815260076020526040808220546003805461010090920485166001600160a01b0319928316179081905590931682529020600101805490911690556109ed565b6004546001600160a01b0382811691161415610982576001600160a01b0380821660009081526007602052604080822060010154600480546001600160a01b03191691851691909117908190559092168152208054610100600160a81b03191690556109ed565b6001600160a01b038082166000908152600760205260408082208054600180830180548716865284862080546101009485900489168502610100600160a81b03199091161790555492549190910485168452919092200180546001600160a01b031916919092161790555b610a0f565b600380546001600160a01b03199081169091556004805490911690555b6001600160a01b038116600090815260076020526040902080546001600160a81b0319168155600190810180546001600160a01b0319169055600654610a54916113cb565b600655604080516001600160a01b038316815290517fcfc24166db4bb677e857cacabd1541fb2b30645021b27c5130419589b84db52b9181900360200190a150565b6001546001600160a01b0316331480610ab75750336001600160a01b038216145b6104825760405162461bcd60e51b815260040180806020018281038252602d8152602001806117f2602d913960400191505060405180910390fd5b610afa61069f565b15610b4c576040805162461bcd60e51b815260206004820152601a60248201527f536f7274656454726f7665733a204c6973742069732066756c6c000000000000604482015290519081900360640190fd5b610b55846105ba565b15610b915760405162461bcd60e51b815260040180806020018281038252602c815260200180611770602c913960400191505060405180910390fd5b6001600160a01b038416610bec576040805162461bcd60e51b815260206004820152601f60248201527f536f7274656454726f7665733a2049642063616e6e6f74206265207a65726f00604482015290519081900360640190fd5b60008311610c2b5760405162461bcd60e51b815260040180806020018281038252602381526020018061181f6023913960400191505060405180910390fd5b8181610c3987868484610e70565b610c4f57610c49878684846110f3565b90925090505b6001600160a01b038087166000908152600760205260409020805460ff191660011790558216158015610c8957506001600160a01b038116155b15610cbe57600380546001600160a01b0388166001600160a01b03199182168117909255600480549091169091179055610e12565b6001600160a01b038216610d3257600380546001600160a01b03888116600081815260076020526040808220805495851661010002610100600160a81b0319909616959095179094558454909216825291902060010180546001600160a01b03199081168317909155825416179055610e12565b6001600160a01b038116610da257600480546001600160a01b0388811660008181526007602052604080822060010180549585166001600160a01b031996871617905585549093168152919091208054610100600160a81b03191661010083021790558254909116179055610e12565b6001600160a01b038087166000818152600760205260408082208054858716610100818102610100600160a81b031993841617845560019384018054988b166001600160a01b0319998a168117909155865284862080549188029190931617909155835291200180549092161790555b600654610e20906001611414565b600655604080516001600160a01b03881681526020810187905281517fe02b43adbee0c123de070a04554a71877a0007e2fc161466299cae3c094fe82f929181900390910190a150505050505050565b60006001600160a01b038316158015610e9057506001600160a01b038216155b15610ea457610e9d6105de565b9050610564565b6001600160a01b038316610f4d576003546001600160a01b038381169116148015610e9d5750846001600160a01b031663b0d8e181836040518263ffffffff1660e01b815260040180826001600160a01b0316815260200191505060206040518083038186803b158015610f1757600080fd5b505afa158015610f2b573d6000803e3d6000fd5b505050506040513d6020811015610f4157600080fd5b50518410159050610564565b6001600160a01b038216610ff6576004546001600160a01b038481169116148015610e9d5750846001600160a01b031663b0d8e181846040518263ffffffff1660e01b815260040180826001600160a01b0316815260200191505060206040518083038186803b158015610fc057600080fd5b505afa158015610fd4573d6000803e3d6000fd5b505050506040513d6020811015610fea57600080fd5b50518411159050610564565b6001600160a01b038381166000908152600760205260409020546101009004811690831614801561109f575083856001600160a01b031663b0d8e181856040518263ffffffff1660e01b815260040180826001600160a01b0316815260200191505060206040518083038186803b15801561107057600080fd5b505afa158015611084573d6000803e3d6000fd5b505050506040513d602081101561109a57600080fd5b505110155b8015610e9d5750846001600160a01b031663b0d8e181836040518263ffffffff1660e01b815260040180826001600160a01b0316815260200191505060206040518083038186803b158015610f1757600080fd5b60008083836001600160a01b0382161561119d57611110826105ba565b15806111935750876001600160a01b031663b0d8e181836040518263ffffffff1660e01b815260040180826001600160a01b0316815260200191505060206040518083038186803b15801561116457600080fd5b505afa158015611178573d6000803e3d6000fd5b505050506040513d602081101561118e57600080fd5b505187115b1561119d57600091505b6001600160a01b03811615611241576111b5816105ba565b15806112385750876001600160a01b031663b0d8e181826040518263ffffffff1660e01b815260040180826001600160a01b0316815260200191505060206040518083038186803b15801561120957600080fd5b505afa15801561121d573d6000803e3d6000fd5b505050506040513d602081101561123357600080fd5b505187105b15611241575060005b6001600160a01b03821615801561125f57506001600160a01b038116155b156112885760035461127d90899089906001600160a01b031661146e565b9350935050506112c5565b6001600160a01b0382166112a15761127d8888836115a6565b6001600160a01b0381166112ba5761127d88888461146e565b61127d88888461146e565b94509492505050565b6001600160a01b038116611329576040805162461bcd60e51b815260206004820152601e60248201527f4163636f756e742063616e6e6f74206265207a65726f20616464726573730000604482015290519081900360640190fd5b803b8061137d576040805162461bcd60e51b815260206004820181905260248201527f4163636f756e7420636f64652073697a652063616e6e6f74206265207a65726f604482015290519081900360640190fd5b5050565b600080546040516001600160a01b03909116907f8be0079c531659141344cd1fd0a4f28419497f9722a3daafe3b4186f6b6457e0908390a3600080546001600160a01b0319169055565b600061140d83836040518060400160405280601e81526020017f536166654d6174683a207375627472616374696f6e206f766572666c6f7700008152506116d8565b9392505050565b60008282018381101561140d576040805162461bcd60e51b815260206004820152601b60248201527f536166654d6174683a206164646974696f6e206f766572666c6f770000000000604482015290519081900360640190fd5b60035460009081906001600160a01b0384811691161480156115085750846001600160a01b031663b0d8e181846040518263ffffffff1660e01b815260040180826001600160a01b0316815260200191505060206040518083038186803b1580156114d857600080fd5b505afa1580156114ec573d6000803e3d6000fd5b505050506040513d602081101561150257600080fd5b50518410155b156115185750600090508161058e565b6001600160a01b038084166000908152600760205260409020548491610100909104165b6001600160a01b0382161580159061155d575061155b87878484610e70565b155b1561159a57506001600160a01b0390811660009081526007602052604080822054610100908190048416808452919092205490929190041661153c565b90969095509350505050565b60045460009081906001600160a01b0384811691161480156116405750846001600160a01b031663b0d8e181846040518263ffffffff1660e01b815260040180826001600160a01b0316815260200191505060206040518083038186803b15801561161057600080fd5b505afa158015611624573d6000803e3d6000fd5b505050506040513d602081101561163a57600080fd5b50518411155b156116505750819050600061058e565b6001600160a01b038084166000908152600760205260409020600101548491165b6001600160a01b03821615801590611692575061169087878385610e70565b155b156116cd57506001600160a01b0390811660009081526007602052604080822060019081015484168084529190922090910154909116611671565b969095509350505050565b600081848411156117675760405162461bcd60e51b81526004018080602001828103825283818151815260200191508051906020019080838360005b8381101561172c578181015183820152602001611714565b50505050905090810190601f1680156117595780820380516001836020036101000a031916815260200191505b509250505060405180910390fd5b50505090039056fe536f7274656454726f7665733a204c69737420616c726561647920636f6e7461696e7320746865206e6f6465536f7274656454726f7665733a204c69737420646f6573206e6f7420636f6e7461696e20746865206964536f7274656454726f7665733a2043616c6c6572206973206e6f74207468652054726f76654d616e61676572536f7274656454726f7665733a2043616c6c6572206973206e65697468657220424f206e6f722054726f76654d536f7274656454726f7665733a204e494352206d75737420626520706f736974697665a2646970667358221220595334a3f0c181ce46d8d24c00751aa365488d6587fb55b73e0f05d0b45de4a364736f6c63430007060033608060405234801561001057600080fd5b50604051610e35380380610e358339818101604052608081101561003357600080fd5b50805160208201516040830151606090930151600080546001600160a01b039485166001600160a01b0319918216179091556001805493851693821693909317909255600280549484169483169490941790935560038054929093169116179055610d92806100a36000396000f3fe6080604052600436106100ed5760003560e01c8063650b559c11610085578063650b559c146103405780637bbb0f5e14610390578063854febd6146103d1578063911347311461041a578063cc51a6c21461045c578063cf83544f14610495578063d466e4eb146104ce578063d94bcec214610507578063f47a1ea71461054a576100f4565b806332e859b9146100f957806335b101791461012f578063390b5f271461018a5780634903a3dd146101d75780634afbac51146101ec5780634c36240b146102695780634d37261f146102a2578063641b09b6146102d5578063643dec8c146102ff576100f4565b366100f457005b600080fd5b61012d6004803603606081101561010f57600080fd5b508035906001600160a01b0360208201358116916040013516610574565b005b34801561013b57600080fd5b5061012d600480360360e081101561015257600080fd5b508035906001600160a01b03602082013581169160408101358216916060820135169060808101359060a08101359060c001356105eb565b34801561019657600080fd5b506101c3600480360360408110156101ad57600080fd5b506001600160a01b038135169060200135610683565b604080519115158252519081900360200190f35b3480156101e357600080fd5b5061012d61070f565b3480156101f857600080fd5b5061012d6004803603602081101561020f57600080fd5b81019060208101813564010000000081111561022a57600080fd5b82018360208201111561023c57600080fd5b8035906020019184602083028401116401000000008311171561025e57600080fd5b509092509050610779565b34801561027557600080fd5b5061012d6004803603604081101561028c57600080fd5b50803590602001356001600160a01b0316610812565b3480156102ae57600080fd5b5061012d600480360360208110156102c557600080fd5b50356001600160a01b0316610867565b3480156102e157600080fd5b5061012d600480360360208110156102f857600080fd5b50356108cd565b34801561030b57600080fd5b5061012d6004803603606081101561032257600080fd5b508035906001600160a01b036020820135811691604001351661091a565b61012d600480360360e081101561035657600080fd5b5080359060208101359060408101359060608101351515906001600160a01b03608082013581169160a08101359091169060c00135610994565b34801561039c57600080fd5b5061012d600480360360608110156103b357600080fd5b508035906001600160a01b0360208201358116916040013516610a2c565b3480156103dd57600080fd5b5061012d600480360360808110156103f457600080fd5b508035906001600160a01b03602082013581169160408101359091169060600135610a89565b61012d600480360360a081101561043057600080fd5b508035906020810135906001600160a01b03604082013581169160608101359091169060800135610aed565b34801561046857600080fd5b506101c36004803603604081101561047f57600080fd5b506001600160a01b038135169060200135610b74565b3480156104a157600080fd5b506101c3600480360360408110156104b857600080fd5b506001600160a01b038135169060200135610bcd565b3480156104da57600080fd5b506101c3600480360360408110156104f157600080fd5b506001600160a01b038135169060200135610c26565b34801561051357600080fd5b506101c36004803603606081101561052a57600080fd5b506001600160a01b03813581169160208101359091169060400135610c7f565b34801561055657600080fd5b5061012d6004803603602081101561056d57600080fd5b5035610d14565b600154604080516368647db160e01b81526001600160a01b0385811660048301528481166024830152915191909216916368647db191869160448082019260009290919082900301818588803b1580156105cd57600080fd5b505af11580156105e1573d6000803e3d6000fd5b5050505050505050565b6000805460408051635e69ba9360e11b8152600481018b90526001600160a01b038a81166024830152898116604483015288811660648301526084820188905260a4820187905260c482018690529151919092169263bcd375269260e4808201939182900301818387803b15801561066257600080fd5b505af1158015610676573d6000803e3d6000fd5b5050505050505050505050565b6003546040805163a9059cbb60e01b81526001600160a01b038581166004830152602482018590529151600093929092169163a9059cbb9160448082019260209290919082900301818787803b1580156106dc57600080fd5b505af11580156106f0573d6000803e3d6000fd5b505050506040513d602081101561070657600080fd5b50519392505050565b600160009054906101000a90046001600160a01b03166001600160a01b0316630e704d506040518163ffffffff1660e01b8152600401600060405180830381600087803b15801561075f57600080fd5b505af1158015610773573d6000803e3d6000fd5b50505050565b600054604051631e8b1c2b60e01b8152602060048201818152602483018590526001600160a01b0390931692631e8b1c2b92869286929182916044909101908590850280828437600081840152601f19601f8201169050808301925050509350505050600060405180830381600087803b1580156107f657600080fd5b505af115801561080a573d6000803e3d6000fd5b505050505050565b60025460408051635f788d6560e01b8152600481018590526001600160a01b03848116602483015291519190921691635f788d6591604480830192600092919082900301818387803b1580156107f657600080fd5b60008054604080516305f0caad60e31b81526001600160a01b03858116600483015291519190921692632f865568926024808201939182900301818387803b1580156108b257600080fd5b505af11580156108c6573d6000803e3d6000fd5b5050505050565b60025460408051632e54bf9560e01b81526004810184905290516001600160a01b0390921691632e54bf959160248082019260009290919082900301818387803b1580156108b257600080fd5b6001546040805163040163c560e11b8152600481018690526001600160a01b038581166024830152848116604483015291519190921691630802c78a91606480830192600092919082900301818387803b15801561097757600080fd5b505af115801561098b573d6000803e3d6000fd5b50505050505050565b60015460408051630635367960e51b815260048101849052602481018990526044810188905286151560648201526001600160a01b03868116608483015285811660a48301529151919092169163c6a6cf20918a9160c48082019260009290919082900301818588803b158015610a0a57600080fd5b505af1158015610a1e573d6000803e3d6000fd5b505050505050505050505050565b6001546040805163154c09cf60e21b8152600481018690526001600160a01b038581166024830152848116604483015291519190921691635530273c91606480830192600092919082900301818387803b15801561097757600080fd5b600154604080516362a0d79960e01b815260048101849052602481018790526001600160a01b0386811660448301528581166064830152915191909216916362a0d79991608480830192600092919082900301818387803b1580156105cd57600080fd5b6001546040805163860665b360e01b815260048101849052602481018790526001600160a01b03868116604483015285811660648301529151919092169163860665b391889160848082019260009290919082900301818588803b158015610b5457600080fd5b505af1158015610b68573d6000803e3d6000fd5b50505050505050505050565b60035460408051633950935160e01b81526001600160a01b038581166004830152602482018590529151600093929092169163395093519160448082019260209290919082900301818787803b1580156106dc57600080fd5b6003546040805163095ea7b360e01b81526001600160a01b038581166004830152602482018590529151600093929092169163095ea7b39160448082019260209290919082900301818787803b1580156106dc57600080fd5b6003546040805163a457c2d760e01b81526001600160a01b038581166004830152602482018590529151600093929092169163a457c2d79160448082019260209290919082900301818787803b1580156106dc57600080fd5b600354604080516323b872dd60e01b81526001600160a01b038681166004830152858116602483015260448201859052915160009392909216916323b872dd9160648082019260209290919082900301818787803b158015610ce057600080fd5b505af1158015610cf4573d6000803e3d6000fd5b505050506040513d6020811015610d0a57600080fd5b5051949350505050565b600080546040805163653d46e760e01b81526004810185905290516001600160a01b039092169263653d46e79260248084019382900301818387803b1580156108b257600080fdfea26469706673582212209b0b4a8d5fb574010ae28bbfe44c5c4b4fec8df08bd8e57bbbaa54b9ede9172864736f6c63430007060033",
  "linkReferences": {},
  "deployedLinkReferences": {}
}