{
  "_format": "hh-sol-artifact-1",
  "contractName": "EchidnaTester",
  "sourceName": "contracts/TestContracts/EchidnaTester.sol",
  "abi": [
    {
      "inputs": [
        {
          "internalType": "uint256",
          "name": "_gasCompensation",
          "type": "uint256"
        },
        {
          "internalType": "uint256",
          "name": "_minNetDebt",
          "type": "uint256"
        }
      ],
      "stateMutability": "payable",
      "type": "constructor"
    },
    {
      "inputs": [],
      "name": "activePool",
      "outputs": [
        {
          "internalType": "contract ActivePool",
          "name": "",
          "type": "address"
        }
      ],
      "stateMutability": "view",
      "type": "function"
    },
    {
      "inputs": [
        {
          "internalType": "uint256",
          "name": "_i",
          "type": "uint256"
        },
        {
          "internalType": "uint256",
          "name": "_FIL",
          "type": "uint256"
        }
      ],
      "name": "addCollExt",
      "outputs": [],
      "stateMutability": "payable",
      "type": "function"
    },
    {
      "inputs": [
        {
          "internalType": "uint256",
          "name": "_i",
          "type": "uint256"
        },
        {
          "internalType": "uint256",
          "name": "_FIL",
          "type": "uint256"
        },
        {
          "internalType": "address",
          "name": "_upperHint",
          "type": "address"
        },
        {
          "internalType": "address",
          "name": "_lowerHint",
          "type": "address"
        }
      ],
      "name": "addCollRawExt",
      "outputs": [],
      "stateMutability": "payable",
      "type": "function"
    },
    {
      "inputs": [
        {
          "internalType": "uint256",
          "name": "_i",
          "type": "uint256"
        },
        {
          "internalType": "uint256",
          "name": "_FIL",
          "type": "uint256"
        },
        {
          "internalType": "uint256",
          "name": "_collWithdrawal",
          "type": "uint256"
        },
        {
          "internalType": "uint256",
          "name": "_debtChange",
          "type": "uint256"
        },
        {
          "internalType": "bool",
          "name": "_isDebtIncrease",
          "type": "bool"
        }
      ],
      "name": "adjustTroveExt",
      "outputs": [],
      "stateMutability": "payable",
      "type": "function"
    },
    {
      "inputs": [
        {
          "internalType": "uint256",
          "name": "_i",
          "type": "uint256"
        },
        {
          "internalType": "uint256",
          "name": "_FIL",
          "type": "uint256"
        },
        {
          "internalType": "uint256",
          "name": "_collWithdrawal",
          "type": "uint256"
        },
        {
          "internalType": "uint256",
          "name": "_debtChange",
          "type": "uint256"
        },
        {
          "internalType": "bool",
          "name": "_isDebtIncrease",
          "type": "bool"
        },
        {
          "internalType": "address",
          "name": "_upperHint",
          "type": "address"
        },
        {
          "internalType": "address",
          "name": "_lowerHint",
          "type": "address"
        },
        {
          "internalType": "uint256",
          "name": "_maxFee",
          "type": "uint256"
        }
      ],
      "name": "adjustTroveRawExt",
      "outputs": [],
      "stateMutability": "payable",
      "type": "function"
    },
    {
      "inputs": [
        {
          "internalType": "uint256",
          "name": "_i",
          "type": "uint256"
        },
        {
          "internalType": "address",
          "name": "spender",
          "type": "address"
        },
        {
          "internalType": "uint256",
          "name": "amount",
          "type": "uint256"
        }
      ],
      "name": "approveExt",
      "outputs": [
        {
          "internalType": "bool",
          "name": "",
          "type": "bool"
        }
      ],
      "stateMutability": "nonpayable",
      "type": "function"
    },
    {
      "inputs": [
        {
          "internalType": "uint256",
          "name": "_i",
          "type": "uint256"
        },
        {
          "internalType": "address[]",
          "name": "_troveArray",
          "type": "address[]"
        }
      ],
      "name": "batchLiquidateTrovesExt",
      "outputs": [],
      "stateMutability": "nonpayable",
      "type": "function"
    },
    {
      "inputs": [],
      "name": "borrowerOperations",
      "outputs": [
        {
          "internalType": "contract BorrowerOperations",
          "name": "",
          "type": "address"
        }
      ],
      "stateMutability": "view",
      "type": "function"
    },
    {
      "inputs": [
        {
          "internalType": "uint256",
          "name": "_i",
          "type": "uint256"
        }
      ],
      "name": "closeTroveExt",
      "outputs": [],
      "stateMutability": "nonpayable",
      "type": "function"
    },
    {
      "inputs": [],
      "name": "collSurplusPool",
      "outputs": [
        {
          "internalType": "contract CollSurplusPool",
          "name": "",
          "type": "address"
        }
      ],
      "stateMutability": "view",
      "type": "function"
    },
    {
      "inputs": [],
      "name": "debtToken",
      "outputs": [
        {
          "internalType": "contract DebtToken",
          "name": "",
          "type": "address"
        }
      ],
      "stateMutability": "view",
      "type": "function"
    },
    {
      "inputs": [],
      "name": "defaultPool",
      "outputs": [
        {
          "internalType": "contract DefaultPool",
          "name": "",
          "type": "address"
        }
      ],
      "stateMutability": "view",
      "type": "function"
    },
    {
      "inputs": [
        {
          "internalType": "uint256",
          "name": "",
          "type": "uint256"
        }
      ],
      "name": "echidnaProxies",
      "outputs": [
        {
          "internalType": "contract EchidnaProxy",
          "name": "",
          "type": "address"
        }
      ],
      "stateMutability": "view",
      "type": "function"
    },
    {
      "inputs": [],
      "name": "echidna_FIL_balances",
      "outputs": [
        {
          "internalType": "bool",
          "name": "",
          "type": "bool"
        }
      ],
      "stateMutability": "view",
      "type": "function"
    },
    {
      "inputs": [],
      "name": "echidna_canary_active_pool_balance",
      "outputs": [
        {
          "internalType": "bool",
          "name": "",
          "type": "bool"
        }
      ],
      "stateMutability": "view",
      "type": "function"
    },
    {
      "inputs": [],
      "name": "echidna_canary_number_of_troves",
      "outputs": [
        {
          "internalType": "bool",
          "name": "",
          "type": "bool"
        }
      ],
      "stateMutability": "view",
      "type": "function"
    },
    {
      "inputs": [],
      "name": "echidna_debt_token_global_balances",
      "outputs": [
        {
          "internalType": "bool",
          "name": "",
          "type": "bool"
        }
      ],
      "stateMutability": "view",
      "type": "function"
    },
    {
      "inputs": [],
      "name": "echidna_price",
      "outputs": [
        {
          "internalType": "bool",
          "name": "",
          "type": "bool"
        }
      ],
      "stateMutability": "view",
      "type": "function"
    },
    {
      "inputs": [],
      "name": "echidna_trove_properties",
      "outputs": [
        {
          "internalType": "bool",
          "name": "",
          "type": "bool"
        }
      ],
      "stateMutability": "view",
      "type": "function"
    },
    {
      "inputs": [],
      "name": "echidna_troves_order",
      "outputs": [
        {
          "internalType": "bool",
          "name": "",
          "type": "bool"
        }
      ],
      "stateMutability": "view",
      "type": "function"
    },
    {
      "inputs": [],
      "name": "gasPool",
      "outputs": [
        {
          "internalType": "contract GasPool",
          "name": "",
          "type": "address"
        }
      ],
      "stateMutability": "view",
      "type": "function"
    },
    {
      "inputs": [
        {
          "internalType": "uint256",
          "name": "_i",
          "type": "uint256"
        },
        {
          "internalType": "address",
          "name": "_user",
          "type": "address"
        }
      ],
      "name": "liquidateExt",
      "outputs": [],
      "stateMutability": "nonpayable",
      "type": "function"
    },
    {
      "inputs": [
        {
          "internalType": "uint256",
          "name": "_i",
          "type": "uint256"
        },
        {
          "internalType": "uint256",
          "name": "_n",
          "type": "uint256"
        }
      ],
      "name": "liquidateTrovesExt",
      "outputs": [],
      "stateMutability": "nonpayable",
      "type": "function"
    },
    {
      "inputs": [
        {
          "internalType": "uint256",
          "name": "_i",
          "type": "uint256"
        },
        {
          "internalType": "uint256",
          "name": "_FIL",
          "type": "uint256"
        },
        {
          "internalType": "uint256",
          "name": "_debtTokenAmount",
          "type": "uint256"
        }
      ],
      "name": "openTroveExt",
      "outputs": [],
      "stateMutability": "payable",
      "type": "function"
    },
    {
      "inputs": [
        {
          "internalType": "uint256",
          "name": "_i",
          "type": "uint256"
        },
        {
          "internalType": "uint256",
          "name": "_FIL",
          "type": "uint256"
        },
        {
          "internalType": "uint256",
          "name": "_debtTokenAmount",
          "type": "uint256"
        },
        {
          "internalType": "address",
          "name": "_upperHint",
          "type": "address"
        },
        {
          "internalType": "address",
          "name": "_lowerHint",
          "type": "address"
        },
        {
          "internalType": "uint256",
          "name": "_maxFee",
          "type": "uint256"
        }
      ],
      "name": "openTroveRawExt",
      "outputs": [],
      "stateMutability": "payable",
      "type": "function"
    },
    {
      "inputs": [
        {
          "internalType": "uint256",
          "name": "_i",
          "type": "uint256"
        },
        {
          "internalType": "uint256",
          "name": "_amount",
          "type": "uint256"
        },
        {
          "internalType": "address",
          "name": "_frontEndTag",
          "type": "address"
        }
      ],
      "name": "provideToSPExt",
      "outputs": [],
      "stateMutability": "nonpayable",
      "type": "function"
    },
    {
      "inputs": [
        {
          "internalType": "uint256",
          "name": "_i",
          "type": "uint256"
        },
        {
          "internalType": "uint256",
          "name": "_debtTokenAmount",
          "type": "uint256"
        },
        {
          "internalType": "address",
          "name": "_firstRedemptionHint",
          "type": "address"
        },
        {
          "internalType": "address",
          "name": "_upperPartialRedemptionHint",
          "type": "address"
        },
        {
          "internalType": "address",
          "name": "_lowerPartialRedemptionHint",
          "type": "address"
        },
        {
          "internalType": "uint256",
          "name": "_partialRedemptionHintNICR",
          "type": "uint256"
        }
      ],
      "name": "redeemCollateralExt",
      "outputs": [],
      "stateMutability": "nonpayable",
      "type": "function"
    },
    {
      "inputs": [
        {
          "internalType": "uint256",
          "name": "_i",
          "type": "uint256"
        },
        {
          "internalType": "uint256",
          "name": "_amount",
          "type": "uint256"
        },
        {
          "internalType": "address",
          "name": "_upperHint",
          "type": "address"
        },
        {
          "internalType": "address",
          "name": "_lowerHint",
          "type": "address"
        }
      ],
      "name": "repayDebtTokenExt",
      "outputs": [],
      "stateMutability": "nonpayable",
      "type": "function"
    },
    {
      "inputs": [
        {
          "internalType": "uint256",
          "name": "_price",
          "type": "uint256"
        }
      ],
      "name": "setPriceExt",
      "outputs": [],
      "stateMutability": "nonpayable",
      "type": "function"
    },
    {
      "inputs": [],
      "name": "stabilityPool",
      "outputs": [
        {
          "internalType": "contract StabilityPool",
          "name": "",
          "type": "address"
        }
      ],
      "stateMutability": "view",
      "type": "function"
    },
    {
      "inputs": [
        {
          "internalType": "uint256",
          "name": "_i",
          "type": "uint256"
        },
        {
          "internalType": "address",
          "name": "recipient",
          "type": "address"
        },
        {
          "internalType": "uint256",
          "name": "amount",
          "type": "uint256"
        }
      ],
      "name": "transferExt",
      "outputs": [
        {
          "internalType": "bool",
          "name": "",
          "type": "bool"
        }
      ],
      "stateMutability": "nonpayable",
      "type": "function"
    },
    {
      "inputs": [
        {
          "internalType": "uint256",
          "name": "_i",
          "type": "uint256"
        },
        {
          "internalType": "address",
          "name": "sender",
          "type": "address"
        },
        {
          "internalType": "address",
          "name": "recipient",
          "type": "address"
        },
        {
          "internalType": "uint256",
          "name": "amount",
          "type": "uint256"
        }
      ],
      "name": "transferFromExt",
      "outputs": [
        {
          "internalType": "bool",
          "name": "",
          "type": "bool"
        }
      ],
      "stateMutability": "nonpayable",
      "type": "function"
    },
    {
      "inputs": [],
      "name": "troveManager",
      "outputs": [
        {
          "internalType": "contract TroveManager",
          "name": "",
          "type": "address"
        }
      ],
      "stateMutability": "view",
      "type": "function"
    },
    {
      "inputs": [
        {
          "internalType": "uint256",
          "name": "_i",
          "type": "uint256"
        },
        {
          "internalType": "uint256",
          "name": "_amount",
          "type": "uint256"
        },
        {
          "internalType": "address",
          "name": "_upperHint",
          "type": "address"
        },
        {
          "internalType": "address",
          "name": "_lowerHint",
          "type": "address"
        }
      ],
      "name": "withdrawCollExt",
      "outputs": [],
      "stateMutability": "nonpayable",
      "type": "function"
    },
    {
      "inputs": [
        {
          "internalType": "uint256",
          "name": "_i",
          "type": "uint256"
        },
        {
          "internalType": "uint256",
          "name": "_amount",
          "type": "uint256"
        },
        {
          "internalType": "address",
          "name": "_upperHint",
          "type": "address"
        },
        {
          "internalType": "address",
          "name": "_lowerHint",
          "type": "address"
        },
        {
          "internalType": "uint256",
          "name": "_maxFee",
          "type": "uint256"
        }
      ],
      "name": "withdrawDebtTokenExt",
      "outputs": [],
      "stateMutability": "nonpayable",
      "type": "function"
    },
    {
      "inputs": [
        {
          "internalType": "uint256",
          "name": "_i",
          "type": "uint256"
        },
        {
          "internalType": "uint256",
          "name": "_amount",
          "type": "uint256"
        }
      ],
      "name": "withdrawFromSPExt",
      "outputs": [],
      "stateMutability": "nonpayable",
      "type": "function"
    }
  ],
  "bytecode": "0x6080604052604051620180d7380380620180d7833981810160405260408110156200002957600080fd5b50805160209091015160405182908290620000449062000b64565b9182526020820152604080519182900301906000f0801580156200006c573d6000803e3d6000fd5b50600360006101000a8154816001600160a01b0302191690836001600160a01b031602179055508181604051620000a39062000b72565b9182526020820152604080519182900301906000f080158015620000cb573d6000803e3d6000fd5b50600480546001600160a01b0319166001600160a01b0392909216919091179055604051620000fa9062000b80565b604051809103906000f08015801562000117573d6000803e3d6000fd5b50600580546001600160a01b0319166001600160a01b0392909216919091179055604051620001469062000b8e565b604051809103906000f08015801562000163573d6000803e3d6000fd5b50600660006101000a8154816001600160a01b0302191690836001600160a01b0316021790555081816040516200019a9062000b9c565b9182526020820152604080519182900301906000f080158015620001c2573d6000803e3d6000fd5b50600780546001600160a01b0319166001600160a01b0392909216919091179055604051620001f19062000baa565b604051809103906000f0801580156200020e573d6000803e3d6000fd5b50600880546001600160a01b0319166001600160a01b03929092169190911790556040516200023d9062000bb8565b604051809103906000f0801580156200025a573d6000803e3d6000fd5b50600a80546001600160a01b0319166001600160a01b0392909216919091179055604051620002899062000bc6565b604051809103906000f080158015620002a6573d6000803e3d6000fd5b50600980546001600160a01b0319166001600160a01b0392909216919091179055604051620002d59062000bd4565b604051809103906000f080158015620002f2573d6000803e3d6000fd5b50600b80546001600160a01b0319166001600160a01b0392909216919091179055604051620003219062000be2565b604051809103906000f0801580156200033e573d6000803e3d6000fd5b50600c80546001600160a01b0319166001600160a01b03928316179081905560035460048054600554600654600754600854600954600b54600a54604080516376902b8360e01b8152988d1699890199909952958b166024880152938a166044870152918916606486015288166084850152871660a4840152861660c4830152851660e4820152928416610104840152600061012484018190526101448401819052905191909316926376902b8392610164808201939182900301818387803b1580156200040b57600080fd5b505af115801562000420573d6000803e3d6000fd5b505060048054600354600554600654600754600854600954600b54600c54600a5460408051631860d66f60e31b81526001600160a01b039a8b169c81019c909c5297891660248c015295881660448b015293871660648a01529186166084890152851660a4880152841660c4870152831660e4860152821661010485015260006101248501819052905191909216945063c306b37893506101448084019382900301818387803b158015620004d457600080fd5b505af1158015620004e9573d6000803e3d6000fd5b50506005546004805460035460075460065460408051637c643b2f60e11b81526001600160a01b03958616968101969096529284166024860152908316604485015282166064840152519216935063f8c8765e925060848082019260009290919082900301818387803b1580156200056057600080fd5b505af115801562000575573d6000803e3d6000fd5b50506006546003546005546040805163485cc95560e01b81526001600160a01b03938416600482015291831660248301525191909216935063485cc9559250604480830192600092919082900301818387803b158015620005d557600080fd5b505af1158015620005ea573d6000803e3d6000fd5b505060075460048054600354600554600a54600c54600b5460408051631ac3b23b60e11b81526001600160a01b039788169881019890985294861660248801529285166044870152908416606486015283166084850152821660a4840152600060c4840181905290519190931694506335876476935060e4808301939282900301818387803b1580156200067d57600080fd5b505af115801562000692573d6000803e3d6000fd5b5050600a54600354600754600480546040805163c0c53b8b60e01b81526001600160a01b0395861693810193909352928416602483015283166044820152905191909216935063c0c53b8b9250606480830192600092919082900301818387803b1580156200070057600080fd5b505af115801562000715573d6000803e3d6000fd5b5050600954600480546003546005546040805163c0c53b8b60e01b81526001600160a01b0394851695810195909552918316602485015282166044840152519216935063c0c53b8b925060648082019260009290919082900301818387803b1580156200078157600080fd5b505af115801562000796573d6000803e3d6000fd5b5050600c546003546004805460408051630b4988fd60e41b8152670de0b6b3a7640000938101939093526001600160a01b03938416602484015290831660448301525191909216935063b4988fd09250606480830192600092919082900301818387803b1580156200080757600080fd5b505af11580156200081c573d6000803e3d6000fd5b5050505060005b60648110156200095b57600354600454600754600a546040516001600160a01b03948516949384169392831692909116906200085f9062000bf0565b6001600160a01b039485168152928416602084015290831660408084019190915292166060820152905190819003608001906000f080158015620008a7573d6000803e3d6000fd5b50600d8260648110620008b657fe5b0180546001600160a01b0319166001600160a01b03929092169190911790556000600d8260648110620008e557fe5b01546040516001600160a01b039091169069d3c21bcecceda100000090600081818185875af1925050503d80600081146200093d576040519150601f19603f3d011682016040523d82523d6000602084013e62000942565b606091505b50509050806200095157600080fd5b5060010162000823565b506004805460408051631e5395c960e21b815290516001600160a01b039092169263794e5724928282019260209290829003018186803b1580156200099f57600080fd5b505afa158015620009b4573d6000803e3d6000fd5b505050506040513d6020811015620009cb57600080fd5b50516000556004805460408051635733d58f60e01b815290516001600160a01b0390921692635733d58f928282019260209290829003018186803b15801562000a1357600080fd5b505afa15801562000a28573d6000803e3d6000fd5b505050506040513d602081101562000a3f57600080fd5b505160015560048054604080516304e7cba360e21b815290516001600160a01b039092169263139f2e8c928282019260209290829003018186803b15801562000a8757600080fd5b505afa15801562000a9c573d6000803e3d6000fd5b505050506040513d602081101562000ab357600080fd5b505160025560005462000ac557600080fd5b60006001541162000ad557600080fd5b600b54604080516391b7f5ed60e01b815269021e19e0c9bab2400000600482015290516001600160a01b03909216916391b7f5ed916024808201926020929091908290030181600087803b15801562000b2d57600080fd5b505af115801562000b42573d6000803e3d6000fd5b505050506040513d602081101562000b5957600080fd5b5062000bfe92505050565b615d8e806200314483390190565b613d6a8062008ed283390190565b610f8f806200cc3c83390190565b610d66806200dbcb83390190565b613dd8806200e93183390190565b61061e806201270983390190565b6119f98062012d2783390190565b610f1b806201472083390190565b61013b806201563b83390190565b611c66806201577683390190565b610cfb80620173dc83390190565b6125368062000c0e6000396000f3fe6080604052600436106101cf5760003560e01c806391a4a426116100f8578063c325347f11610090578063c325347f146106b0578063cda775f914610734578063d21af96814610749578063e448912714610772578063ecb50794146107a2578063efa83cf9146107e9578063f8d8989814610831578063f9bd9a1514610846578063fa08b0381461085b576101cf565b806391a4a4261461052d578063926a547d146105575780639606f3fb1461056c578063980c55d7146105bb5780639cdd0978146105d05780639f56ac181461060f578063a2f5cbdd14610624578063a3d3683414610639578063baf5d65f14610680576101cf565b806357285cc51161016b57806357285cc5146103875780635895ac4e146103aa578063597ec799146103bf57806359bed84b14610416578063696909361461042b57806377553ad4146104655780637c22900e1461047a5780637ca8b028146104c35780637f7dde4a14610518576101cf565b8063048c661d146101d4578063119be5d0146102055780631c6fbd23146102585780633ca4afc1146102915780633cc74225146102d05780633d83908a146102e557806340ba2e27146102fa5780634557559f146103245780634e792a301461034e575b600080fd5b3480156101e057600080fd5b506101e9610870565b604080516001600160a01b039092168252519081900360200190f35b34801561021157600080fd5b506102446004803603606081101561022857600080fd5b508035906001600160a01b03602082013516906040013561087f565b604080519115158252519081900360200190f35b61028f600480360360a081101561026e57600080fd5b50803590602081013590604081013590606081013590608001351515610923565b005b34801561029d57600080fd5b5061028f600480360360608110156102b457600080fd5b50803590602081013590604001356001600160a01b0316610a0b565b3480156102dc57600080fd5b506101e9610a92565b3480156102f157600080fd5b506101e9610aa1565b34801561030657600080fd5b5061028f6004803603602081101561031d57600080fd5b5035610ab0565b34801561033057600080fd5b5061028f6004803603602081101561034757600080fd5b5035610b30565b34801561035a57600080fd5b5061028f6004803603604081101561037157600080fd5b50803590602001356001600160a01b0316610bb6565b61028f6004803603604081101561039d57600080fd5b5080359060200135610c35565b3480156103b657600080fd5b50610244610ce8565b61028f60048036036101008110156103d657600080fd5b5080359060208101359060408101359060608101359060808101351515906001600160a01b0360a082013581169160c08101359091169060e00135610d7f565b34801561042257600080fd5b50610244610e30565b61028f6004803603608081101561044157600080fd5b508035906020810135906001600160a01b03604082013581169160600135166110e5565b34801561047157600080fd5b506101e9611175565b34801561048657600080fd5b506102446004803603608081101561049d57600080fd5b508035906001600160a01b03602082013581169160408101359091169060600135611184565b3480156104cf57600080fd5b5061028f600480360360c08110156104e657600080fd5b508035906020810135906001600160a01b03604082013581169160608101358216916080820135169060a0013561122f565b34801561052457600080fd5b506101e96112dc565b34801561053957600080fd5b506101e96004803603602081101561055057600080fd5b50356112eb565b34801561056357600080fd5b5061024461130b565b34801561057857600080fd5b5061028f600480360360a081101561058f57600080fd5b508035906020810135906001600160a01b03604082013581169160608101359091169060800135611731565b3480156105c757600080fd5b506102446117a9565b3480156105dc57600080fd5b50610244600480360360608110156105f357600080fd5b508035906001600160a01b036020820135169060400135611a6b565b34801561061b57600080fd5b50610244611ad6565b34801561063057600080fd5b50610244611af9565b34801561064557600080fd5b5061028f6004803603608081101561065c57600080fd5b508035906020810135906001600160a01b0360408201358116916060013516611b0e565b34801561068c57600080fd5b5061028f600480360360408110156106a357600080fd5b5080359060200135611b7f565b3480156106bc57600080fd5b5061028f600480360360408110156106d357600080fd5b813591908101906040810160208201356401000000008111156106f557600080fd5b82018360208201111561070757600080fd5b8035906020019184602083028401116401000000008311171561072957600080fd5b509092509050611be0565b34801561074057600080fd5b506101e9611c71565b61028f6004803603606081101561075f57600080fd5b5080359060208101359060400135611c80565b34801561077e57600080fd5b5061028f6004803603604081101561079557600080fd5b5080359060200135611dd1565b3480156107ae57600080fd5b5061028f600480360360808110156107c557600080fd5b508035906020810135906001600160a01b0360408201358116916060013516611e32565b61028f600480360360c08110156107ff57600080fd5b508035906020810135906040810135906001600160a01b03606082013581169160808101359091169060a00135611ea3565b34801561083d57600080fd5b506101e9611f22565b34801561085257600080fd5b50610244611f31565b34801561086757600080fd5b506101e9612172565b6007546001600160a01b031681565b600080606485069050600d816064811061089557fe5b01546040805163cf83544f60e01b81526001600160a01b038781166004830152602482018790529151919092169163cf83544f9160448083019260209291908290030181600087803b1580156108ea57600080fd5b505af11580156108fe573d6000803e3d6000fd5b505050506040513d602081101561091457600080fd5b506001925050505b9392505050565b60006064860690506000600d826064811061093a57fe5b0154600080546001600160a01b03909216925082319161095d9083908a90612181565b9050858515610976576109738288600054612255565b90505b60408051631942d56760e21b815260048101849052602481018a905260448101839052871515606482015260006084820181905260a4820181905260c4820181905291516001600160a01b0387169263650b559c9260e4808201939182900301818387803b1580156109e757600080fd5b505af11580156109fb573d6000803e3d6000fd5b5050505050505050505050505050565b6000606484069050600d8160648110610a2057fe5b015460408051634c36240b60e01b8152600481018690526001600160a01b03858116602483015291519190921691634c36240b91604480830192600092919082900301818387803b158015610a7457600080fd5b505af1158015610a88573d6000803e3d6000fd5b5050505050505050565b6006546001600160a01b031681565b6003546001600160a01b031681565b6000606482069050600d8160648110610ac557fe5b0160009054906101000a90046001600160a01b03166001600160a01b0316634903a3dd6040518163ffffffff1660e01b8152600401600060405180830381600087803b158015610b1457600080fd5b505af1158015610b28573d6000803e3d6000fd5b505050505050565b600b54604080516391b7f5ed60e01b81526004810184905290516000926001600160a01b0316916391b7f5ed91602480830192602092919082900301818787803b158015610b7d57600080fd5b505af1158015610b91573d6000803e3d6000fd5b505050506040513d6020811015610ba757600080fd5b5051905080610bb257fe5b5050565b6000606483069050600d8160648110610bcb57fe5b015460408051634d37261f60e01b81526001600160a01b03858116600483015291519190921691634d37261f91602480830192600092919082900301818387803b158015610c1857600080fd5b505af1158015610c2c573d6000803e3d6000fd5b50505050505050565b60006064830690506000600d8260648110610c4c57fe5b0154600080546001600160a01b039092169250823191610c6f9083908790612181565b604080516332e859b960e01b8152600481018390526000602482018190526044820181905291519293506001600160a01b038616926332e859b99260648084019391929182900301818387803b158015610cc857600080fd5b505af1158015610cdc573d6000803e3d6000fd5b50505050505050505050565b600080600b60009054906101000a90046001600160a01b03166001600160a01b03166398d5fdca6040518163ffffffff1660e01b815260040160206040518083038186803b158015610d3957600080fd5b505afa158015610d4d573d6000803e3d6000fd5b505050506040513d6020811015610d6357600080fd5b5051905080610d76576000915050610d7c565b60019150505b90565b6000606489069050600d8160648110610d9457fe5b015460408051631942d56760e21b8152600481018b9052602481018a90526044810189905287151560648201526001600160a01b03878116608483015286811660a483015260c482018690529151919092169163650b559c9160e480830192600092919082900301818387803b158015610e0d57600080fd5b505af1158015610e21573d6000803e3d6000fd5b50505050505050505050505050565b600080600c60009054906101000a90046001600160a01b03166001600160a01b0316631e2231436040518163ffffffff1660e01b815260040160206040518083038186803b158015610e8157600080fd5b505afa158015610e95573d6000803e3d6000fd5b505050506040513d6020811015610eab57600080fd5b5051600c546040805163765e015960e01b81526001600160a01b0380851660048301529151939450600093919092169163765e0159916024808301926020929190829003018186803b158015610f0057600080fd5b505afa158015610f14573d6000803e3d6000fd5b505050506040513d6020811015610f2a57600080fd5b505190505b6001600160a01b03821615801590610f4f57506001600160a01b03811615155b156110dc576003546040805163b0d8e18160e01b81526001600160a01b0385811660048301529151919092169163b0d8e181916024808301926020929190829003018186803b158015610fa157600080fd5b505afa158015610fb5573d6000803e3d6000fd5b505050506040513d6020811015610fcb57600080fd5b50516003546040805163b0d8e18160e01b81526001600160a01b0385811660048301529151919092169163b0d8e181916024808301926020929190829003018186803b15801561101a57600080fd5b505afa15801561102e573d6000803e3d6000fd5b505050506040513d602081101561104457600080fd5b5051111561105757600092505050610d7c565b600c546040805163765e015960e01b81526001600160a01b03808516600483015291519394508493919092169163765e0159916024808301926020929190829003018186803b1580156110a957600080fd5b505afa1580156110bd573d6000803e3d6000fd5b505050506040513d60208110156110d357600080fd5b50519050610f2f565b60019250505090565b6000606485069050600d81606481106110fa57fe5b0154604080516332e859b960e01b8152600481018790526001600160a01b0386811660248301528581166044830152915191909216916332e859b991606480830192600092919082900301818387803b15801561115657600080fd5b505af115801561116a573d6000803e3d6000fd5b505050505050505050565b6004546001600160a01b031681565b600080606486069050600d816064811061119a57fe5b015460408051636ca5e76160e11b81526001600160a01b0388811660048301528781166024830152604482018790529151919092169163d94bcec29160648083019260209291908290030181600087803b1580156111f757600080fd5b505af115801561120b573d6000803e3d6000fd5b505050506040513d602081101561122157600080fd5b506001979650505050505050565b6000606487069050600d816064811061124457fe5b0154604080516335b1017960e01b8152600481018990526001600160a01b0388811660248301528781166044830152868116606483015260848201869052600060a4830181905260c4830181905292519316926335b101799260e48084019391929182900301818387803b1580156112bb57600080fd5b505af11580156112cf573d6000803e3d6000fd5b5050505050505050505050565b6005546001600160a01b031681565b600d81606481106112fb57600080fd5b01546001600160a01b0316905081565b600080600a60009054906101000a90046001600160a01b03166001600160a01b03166318160ddd6040518163ffffffff1660e01b815260040160206040518083038186803b15801561135c57600080fd5b505afa158015611370573d6000803e3d6000fd5b505050506040513d602081101561138657600080fd5b5051600a54600854604080516370a0823160e01b81526001600160a01b039283166004820152905193945060009391909216916370a08231916024808301926020929190829003018186803b1580156113de57600080fd5b505afa1580156113f2573d6000803e3d6000fd5b505050506040513d602081101561140857600080fd5b5051600554604080516314a6bf0f60e01b815290519293506000926001600160a01b03909216916314a6bf0f91600480820192602092909190829003018186803b15801561145557600080fd5b505afa158015611469573d6000803e3d6000fd5b505050506040513d602081101561147f57600080fd5b5051600654604080516314a6bf0f60e01b815290519293506000926001600160a01b03909216916314a6bf0f91600480820192602092909190829003018186803b1580156114cc57600080fd5b505afa1580156114e0573d6000803e3d6000fd5b505050506040513d60208110156114f657600080fd5b505190508181018414611510576000945050505050610d7c565b60075460408051630d9a6b3560e01b815290516000926001600160a01b031691630d9a6b35916004808301926020929190829003018186803b15801561155557600080fd5b505afa158015611569573d6000803e3d6000fd5b505050506040513d602081101561157f57600080fd5b5051600c5460408051631e22314360e01b815290519293506000926001600160a01b0390921691631e22314391600480820192602092909190829003018186803b1580156115cc57600080fd5b505afa1580156115e0573d6000803e3d6000fd5b505050506040513d60208110156115f657600080fd5b5051905060005b6001600160a01b0382161561170857600a54604080516370a0823160e01b81526001600160a01b038581166004830152915191909216916370a08231916024808301926020929190829003018186803b15801561165957600080fd5b505afa15801561166d573d6000803e3d6000fd5b505050506040513d602081101561168357600080fd5b5051600c546040805163765e015960e01b81526001600160a01b0386811660048301529151949093019391169163765e0159916024808301926020929190829003018186803b1580156116d557600080fd5b505afa1580156116e9573d6000803e3d6000fd5b505050506040513d60208110156116ff57600080fd5b505191506115fd565b85818401018711611723576000975050505050505050610d7c565b600197505050505050505090565b6000606486069050600d816064811061174657fe5b0154604080516342a7f5eb60e11b8152600481018890526001600160a01b0387811660248301528681166044830152606482018690529151919092169163854febd691608480830192600092919082900301818387803b158015610cc857600080fd5b600080600c60009054906101000a90046001600160a01b03166001600160a01b0316631e2231436040518163ffffffff1660e01b815260040160206040518083038186803b1580156117fa57600080fd5b505afa15801561180e573d6000803e3d6000fd5b505050506040513d602081101561182457600080fd5b505190505b6001600160a01b03811615610d76576001600354604080516321e3780160e01b81526001600160a01b038581166004830152915191909216916321e37801916024808301926020929190829003018186803b15801561188757600080fd5b505afa15801561189b573d6000803e3d6000fd5b505050506040513d60208110156118b157600080fd5b505160048111156118be57fe5b60048111156118c957fe5b146118d8576000915050610d7c565b6002546003546040805163d66a255360e01b81526001600160a01b0385811660048301529151919092169163d66a2553916024808301926020929190829003018186803b15801561192857600080fd5b505afa15801561193c573d6000803e3d6000fd5b505050506040513d602081101561195257600080fd5b50511015611964576000915050610d7c565b60035460408051630326771360e51b81526001600160a01b038481166004830152915191909216916364cee260916024808301926020929190829003018186803b1580156119b157600080fd5b505afa1580156119c5573d6000803e3d6000fd5b505050506040513d60208110156119db57600080fd5b50516119eb576000915050610d7c565b600c546040805163765e015960e01b81526001600160a01b0384811660048301529151919092169163765e0159916024808301926020929190829003018186803b158015611a3857600080fd5b505afa158015611a4c573d6000803e3d6000fd5b505050506040513d6020811015611a6257600080fd5b50519050611829565b600080606485069050600d8160648110611a8157fe5b01546040805163390b5f2760e01b81526001600160a01b038781166004830152602482018790529151919092169163390b5f279160448083019260209291908290030181600087803b1580156108ea57600080fd5b6005546000906001600160a01b03163115611af357506000610d7c565b50600190565b600060146071541115611af357506000610d7c565b6000606485069050600d8160648110611b2357fe5b015460408051633ddd87af60e11b8152600481018790526001600160a01b038681166024830152858116604483015291519190921691637bbb0f5e91606480830192600092919082900301818387803b15801561115657600080fd5b6000606483069050600d8160648110611b9457fe5b01546040805163f47a1ea760e01b81526004810185905290516001600160a01b039092169163f47a1ea79160248082019260009290919082900301818387803b158015610c1857600080fd5b6000606484069050600d8160648110611bf557fe5b0154604051634afbac5160e01b8152602060048201818152602483018690526001600160a01b0390931692634afbac5192879287929182916044909101908590850280828437600081840152601f19601f8201169050808301925050509350505050600060405180830381600087803b158015610a7457600080fd5b6009546001600160a01b031681565b60006064840690506000600d8260648110611c9757fe5b01546001546001600160a01b039091169150813190600090611cbc9083908890612181565b90506000611ccd8287600154612255565b60408051639113473160e01b81526004810185905260248101839052600060448201819052606482018190526084820181905291519293506001600160a01b0387169263911347319260a48084019391929182900301818387803b158015611d3457600080fd5b505af1158015611d48573d6000803e3d6000fd5b50505050600360009054906101000a90046001600160a01b03166001600160a01b03166349eefeee6040518163ffffffff1660e01b815260040160206040518083038186803b158015611d9a57600080fd5b505afa158015611dae573d6000803e3d6000fd5b505050506040513d6020811015611dc457600080fd5b50516071819055610a8857fe5b6000606483069050600d8160648110611de657fe5b01546040805163320d84db60e11b81526004810185905290516001600160a01b039092169163641b09b69160248082019260009290919082900301818387803b158015610c1857600080fd5b6000606485069050600d8160648110611e4757fe5b01546040805163190f7b2360e21b8152600481018790526001600160a01b03868116602483015285811660448301529151919092169163643dec8c91606480830192600092919082900301818387803b15801561115657600080fd5b6000606487069050600d8160648110611eb857fe5b015460408051639113473160e01b815260048101899052602481018890526001600160a01b0387811660448301528681166064830152608482018690529151919092169163911347319160a480830192600092919082900301818387803b1580156112bb57600080fd5b600a546001600160a01b031681565b6003546000906001600160a01b03163115611f4e57506000610d7c565b6004546001600160a01b03163115611f6857506000610d7c565b600560009054906101000a90046001600160a01b03166001600160a01b031663c5c3937e6040518163ffffffff1660e01b815260040160206040518083038186803b158015611fb657600080fd5b505afa158015611fca573d6000803e3d6000fd5b505050506040513d6020811015611fe057600080fd5b50516005546001600160a01b03163114611ffc57506000610d7c565b600660009054906101000a90046001600160a01b03166001600160a01b031663c5c3937e6040518163ffffffff1660e01b815260040160206040518083038186803b15801561204a57600080fd5b505afa15801561205e573d6000803e3d6000fd5b505050506040513d602081101561207457600080fd5b50516006546001600160a01b0316311461209057506000610d7c565b600760009054906101000a90046001600160a01b03166001600160a01b031663c5c3937e6040518163ffffffff1660e01b815260040160206040518083038186803b1580156120de57600080fd5b505afa1580156120f2573d6000803e3d6000fd5b505050506040513d602081101561210857600080fd5b50516007546001600160a01b0316311461212457506000610d7c565b600a546001600160a01b0316311561213e57506000610d7c565b600b546001600160a01b0316311561215857506000610d7c565b600c546001600160a01b03163115611af357506000610d7c565b6008546001600160a01b031681565b600080600b60009054906101000a90046001600160a01b03166001600160a01b03166398d5fdca6040518163ffffffff1660e01b815260040160206040518083038186803b1580156121d257600080fd5b505afa1580156121e6573d6000803e3d6000fd5b505050506040513d60208110156121fc57600080fd5b505190508061220a57600080fd5b600061222b826122256002548761233590919063ffffffff16565b90612397565b905080861161223957600080fd5b6000818703868161224657fe5b06919091019695505050505050565b600080600b60009054906101000a90046001600160a01b03166001600160a01b03166398d5fdca6040518163ffffffff1660e01b815260040160206040518083038186803b1580156122a657600080fd5b505afa1580156122ba573d6000803e3d6000fd5b505050506040513d60208110156122d057600080fd5b505160025490915084906000906122e89083906123fe565b905060006122f7888386612458565b9050858110156123295761230f866122258a87612335565b91506123266002548361248290919063ffffffff16565b92505b50909695505050505050565b60008261234457506000612391565b8282028284828161235157fe5b041461238e5760405162461bcd60e51b81526004018080602001828103825260218152602001806124e06021913960400191505060405180910390fd5b90505b92915050565b60008082116123ed576040805162461bcd60e51b815260206004820152601a60248201527f536166654d6174683a206469766973696f6e206279207a65726f000000000000604482015290519081900360640190fd5b8183816123f657fe5b049392505050565b60008282018381101561238e576040805162461bcd60e51b815260206004820152601b60248201527f536166654d6174683a206164646974696f6e206f766572666c6f770000000000604482015290519081900360640190fd5b60008215612479576000612470846122258786612335565b915061091c9050565b5060001961091c565b6000828211156124d9576040805162461bcd60e51b815260206004820152601e60248201527f536166654d6174683a207375627472616374696f6e206f766572666c6f770000604482015290519081900360640190fd5b5090039056fe536166654d6174683a206d756c7469706c69636174696f6e206f766572666c6f77a26469706673582212208c4002ea5c9ec1fcef51bb09adf2f86ab13e9be250b0d38c724051bbcffb6c1564736f6c6343000706003360c06040523480156200001157600080fd5b5060405162005d8e38038062005d8e833981810160405260408110156200003757600080fd5b508051602090910151608082905260a0819052615cfe6200009060003980610e3252806144ca525080610daf528061434b52806143f052806144315280614a995280614eea528061549352806157b65250615cfe6000f3fe608060405234801561001057600080fd5b50600436106104655760003560e01c8063741bef1a11610257578063bcd3752611610146578063d66a2553116100c3578063f36b242511610087578063f36b242514610cc3578063f59fac2d14610ccb578063f8d8989814610cf1578063f92d343314610680578063fe2ba84814610cf957610465565b8063d66a255314610c2c578063d9a7244414610c52578063e2ac77b014610c6f578063e545242314610c95578063f2fde38b14610c9d57610465565b8063cbd138ae1161010a578063cbd138ae14610b89578063d293c71014610baf578063d380a37c14610bdb578063d3d6f84314610be3578063d5b3563514610c0f57610465565b8063bcd3752614610b1b578063bf9befb114610b69578063c35bc55014610b71578063c52861f214610b79578063c7b5548114610b8157610465565b806396d711ff116101d4578063ae91875411610198578063ae91875414610a7c578063b0d8e18114610a84578063b7f8cf9b14610aaa578063b82f263d14610ab2578063b91af97c14610acf57610465565b806396d711ff146109c35780639976cf45146109cb578063a0d8d6bc146109f7578063a20baee6146108bc578063a3f4df7e146109ff57610465565b80637f7dde4a1161021b5780637f7dde4a1461097d578063807d138d1461098557806382fe3eb91461098d578063887105d3146109b35780638da5cb5b146109bb57610465565b8063741bef1a146108cc578063756b253e146108d457806376902b83146108f1578063794e57241461096d578063795d26c31461097557610465565b80633cc742251161037357806361ec893d116102f05780636ef64338116102b45780636ef643381461081c578063715018a61461088857806372423c171461089057806372fe25aa146108bc57806373098be9146108c457610465565b806361ec893d146107ac578063631203b0146107b457806364cee260146107d1578063653d46e7146107f757806366ca4a211461081457610465565b80634e443d9e116103375780634e443d9e1461071957806352512eaa1461074a5780635733d58f146107705780635d6b480f146107785780635dba4c4a146107a457610465565b80633cc74225146106be578063477d66cf146106c6578063480cd578146106e35780634870dd9a1461070957806349eefeee1461071157610465565b80631bf435551161040157806326b4d8fd116103c557806326b4d8fd1461067857806328d28b5b146106805780632b11551a146106885780632f8655681461069057806331eaf05c146106b657610465565b80631bf43555146105975780631e8b1c2b1461059f5780631f68f20a1461064257806321e378011461064a578063240926691461067057610465565b8063048c661d1461046a578063071a75411461048e5780630b076557146104a857806312610e92146104d0578063139f2e8c146104fc57806315d549f1146105045780631673c79a1461052a57806318f2817a146105695780631a465fe11461058f575b600080fd5b610472610d1f565b604080516001600160a01b039092168252519081900360200190f35b610496610d2e565b60408051918252519081900360200190f35b6104ce600480360360208110156104be57600080fd5b50356001600160a01b0316610d33565b005b610496600480360360408110156104e657600080fd5b506001600160a01b038135169060200135610d5b565b610496610dad565b6104966004803603602081101561051a57600080fd5b50356001600160a01b0316610dd1565b6105506004803603602081101561054057600080fd5b50356001600160a01b0316610df5565b6040805192835260208301919091528051918290030190f35b6104966004803603602081101561057f57600080fd5b50356001600160a01b0316610e0e565b610472610e21565b610496610e30565b6104ce600480360360208110156105b557600080fd5b8101906020810181356401000000008111156105d057600080fd5b8201836020820111156105e257600080fd5b8035906020019184602083028401116401000000008311171561060457600080fd5b919080806020026020016040519081016040528093929190818152602001838360200280828437600092019190915250929550610e54945050505050565b6104966111e8565b6104966004803603602081101561066057600080fd5b50356001600160a01b03166111ee565b610496611218565b61049661122b565b610496611231565b610496611242565b6104ce600480360360208110156106a657600080fd5b50356001600160a01b0316611254565b6104966112ba565b6104726112c0565b610496600480360360208110156106dc57600080fd5b50356112cf565b610496600480360360208110156106f957600080fd5b50356001600160a01b03166112e2565b610496611300565b610496611305565b6107366004803603602081101561072f57600080fd5b503561130b565b604080519115158252519081900360200190f35b6104966004803603602081101561076057600080fd5b50356001600160a01b0316611316565b6104966113ca565b6104ce6004803603604081101561078e57600080fd5b506001600160a01b0381351690602001356113d6565b6104ce611422565b610496611488565b610496600480360360208110156107ca57600080fd5b503561148d565b610496600480360360208110156107e757600080fd5b50356001600160a01b031661149a565b6104ce6004803603602081101561080d57600080fd5b50356114b8565b610496611855565b6108426004803603602081101561083257600080fd5b50356001600160a01b0316611867565b6040518086815260200185815260200184815260200183600481111561086457fe5b8152602001826001600160801b031681526020019550505050505060405180910390f35b6104ce6118a1565b610496600480360360408110156108a657600080fd5b506001600160a01b03813516906020013561194d565b6104966119a4565b6104966119b0565b6104726119b6565b610472600480360360208110156108ea57600080fd5b50356119c5565b6104ce600480360361016081101561090857600080fd5b506001600160a01b038135811691602081013582169160408201358116916060810135821691608082013581169160a081013582169160c082013581169160e081013582169161010082013581169161012081013582169161014090910135166119ef565b610496611ace565b610496611ada565b610472611bd5565b610496611be4565b6104ce600480360360208110156109a357600080fd5b50356001600160a01b0316611bea565b610496611bfb565b610472611cb7565b610496611cc6565b610496600480360360408110156109e157600080fd5b506001600160a01b038135169060200135611ccc565b610496611cf9565b610a07611cff565b6040805160208082528351818301528351919283929083019185019080838360005b83811015610a41578181015183820152602001610a29565b50505050905090810190601f168015610a6e5780820380516001836020036101000a031916815260200191505b509250505060405180910390f35b610472611d27565b61049660048036036020811015610a9a57600080fd5b50356001600160a01b0316611d36565b610472611d5d565b61049660048036036020811015610ac857600080fd5b5035611d6c565b610af560048036036020811015610ae557600080fd5b50356001600160a01b0316611d77565b604080519485526020850193909352838301919091526060830152519081900360800190f35b6104ce600480360360e0811015610b3157600080fd5b508035906001600160a01b03602082013581169160408101358216916060820135169060808101359060a08101359060c00135611dcf565b610496612532565b610496612538565b61049661253f565b610496612551565b6104ce60048036036020811015610b9f57600080fd5b50356001600160a01b031661255d565b61049660048036036040811015610bc557600080fd5b506001600160a01b038135169060200135612570565b61049661258f565b61049660048036036040811015610bf957600080fd5b506001600160a01b038135169060200135612595565b61049660048036036020811015610c2557600080fd5b50356125c5565b61049660048036036020811015610c4257600080fd5b50356001600160a01b03166125d8565b61047260048036036020811015610c6857600080fd5b50356125f3565b61073660048036036020811015610c8557600080fd5b50356001600160a01b031661261d565b61047261267b565b6104ce60048036036020811015610cb357600080fd5b50356001600160a01b031661268a565b61049661278d565b61049660048036036020811015610ce157600080fd5b50356001600160a01b031661279a565b6104726127c5565b6104ce60048036036020811015610d0f57600080fd5b50356001600160a01b03166127d4565b6068546001600160a01b031681565b600281565b610d3b6127e5565b600054600154610d58916001600160a01b03908116911683612830565b50565b6000610d656127e5565b6001600160a01b038316600090815260716020526040812054610d889084612946565b6001600160a01b03851660009081526071602052604090208190559150505b92915050565b7f000000000000000000000000000000000000000000000000000000000000000081565b6000610ddb6127e5565b610de4826129a3565b6001600160801b031690505b919050565b6077602052600090815260409020805460019091015482565b6000610e186127e5565b610da782612a3d565b606c546001600160a01b031681565b7f000000000000000000000000000000000000000000000000000000000000000081565b8051610e915760405162461bcd60e51b8152600401808060200182810382526036815260200180615b846036913960400191505060405180910390fd5b6000546001546068546001600160a01b03928316929182169116610eb3615844565b610ebb615875565b600260009054906101000a90046001600160a01b03166001600160a01b0316630fdb11cf6040518163ffffffff1660e01b8152600401602060405180830381600087803b158015610f0b57600080fd5b505af1158015610f1f573d6000803e3d6000fd5b505050506040513d6020811015610f3557600080fd5b5051825260408051630d9a6b3560e01b815290516001600160a01b03851691630d9a6b35916004808301926020929190829003018186803b158015610f7957600080fd5b505afa158015610f8d573d6000803e3d6000fd5b505050506040513d6020811015610fa357600080fd5b505160208301528151610fb590612ae0565b1580156040840152610fdd57610fd68585846000015185602001518a612afd565b9050610ff5565b610ff28585846000015185602001518a612d1b565b90505b60008160200151116110385760405162461bcd60e51b8152600401808060200182810382526022815260200180615c786022913960400191505060405180910390fd5b826001600160a01b031663335525ad82608001518360a001516040518363ffffffff1660e01b81526004018083815260200182815260200192505050600060405180830381600087803b15801561108e57600080fd5b505af11580156110a2573d6000803e3d6000fd5b505050506110ba85858360c001518460e00151612ddd565b6101008101511561113757606a5461010082015160408051628063a560e01b81526001600160a01b03938416600482015260248101929092525191871691628063a59160448082019260009290919082900301818387803b15801561111e57600080fd5b505af1158015611132573d6000803e3d6000fd5b505050505b611145858260400151613027565b6020810151606083015261010081015160408201518251611171929161116b9190612946565b90612946565b608080840182905260608085015160408086015186840151825193845260208401969096528282015291810193909352517f4152c73dd2614c4f9fc35e8c9cf16013cd588c75b49a4c1673ecffdcbcda94039281900390910190a16111e0853383606001518460400151613168565b505050505050565b606f5481565b6001600160a01b03811660009081526071602052604081206003015460ff166004811115610da757fe5b6064670de0b6b3a76400005b0460050281565b607a5481565b6103e8670de0b6b3a7640000611224565b600061124f606f54613261565b905090565b61125d81613297565b60408051600180825281830190925260009160208083019080368337019050509050818160008151811061128d57fe5b60200260200101906001600160a01b031690816001600160a01b0316815250506112b681610e54565b5050565b60765481565b6001546001600160a01b031681565b6000610da76112dc611855565b836132ff565b6001600160a01b031660009081526071602052604090206001015490565b60c881565b60785490565b6000610da782612ae0565b6001600160a01b038116600090815260776020526040812054607554829061133e9083612946565b9050801580611377575060016001600160a01b03851660009081526071602052604090206003015460ff16600481111561137457fe5b14155b1561138757600092505050610df0565b6001600160a01b038416600090815260716020526040812060020154906113c0670de0b6b3a76400006113ba848661331e565b90613377565b9695505050505050565b6714d1120d7b16000081565b6113de6127e5565b8060048111156113ea57fe5b6001600160a01b0383166000908152607160205260409020600301805460ff1916600183600481111561141957fe5b02179055505050565b61142a6127e5565b60006114346133de565b9050670de0b6b3a764000081111561144857fe5b606f8190556040805182815290517fc454ee9b76c52f782a256af821b857ca6e125d1e3333bcede402fec2bed9600c9181900360200190a1610d58613422565b603c81565b6000610da76112dc61278d565b6001600160a01b031660009081526071602052604090206002015490565b6040805160e081018252600080546001600160a01b0390811683526001548116602084015292820181905260608201819052606e548316608083015260a0820181905260c082015260685490911661150e615844565b611516615875565b600260009054906101000a90046001600160a01b03166001600160a01b0316630fdb11cf6040518163ffffffff1660e01b8152600401602060405180830381600087803b15801561156657600080fd5b505af115801561157a573d6000803e3d6000fd5b505050506040513d602081101561159057600080fd5b5051825260408051630d9a6b3560e01b815290516001600160a01b03851691630d9a6b35916004808301926020929190829003018186803b1580156115d457600080fd5b505afa1580156115e8573d6000803e3d6000fd5b505050506040513d60208110156115fe57600080fd5b50516020830152815161161090612ae0565b15801560408401526116375761163084836000015184602001518861347e565b9050611657565b6116548460000151856020015184600001518560200151896137fe565b90505b600081602001511161169a5760405162461bcd60e51b8152600401808060200182810382526022815260200180615c786022913960400191505060405180910390fd5b826001600160a01b031663335525ad82608001518360a001516040518363ffffffff1660e01b81526004018083815260200182815260200192505050600060405180830381600087803b1580156116f057600080fd5b505af1158015611704573d6000803e3d6000fd5b50505050611724846000015185602001518360c001518460e00151612ddd565b610100810151156117a3578351606a5461010083015160408051628063a560e01b81526001600160a01b0393841660048201526024810192909252519190921691628063a591604480830192600092919082900301818387803b15801561178a57600080fd5b505af115801561179e573d6000803e3d6000fd5b505050505b6117b584600001518260400151613027565b60208101516060830152610100810151604082015182516117db929161116b9190612946565b608080840182905260608085015160408086015186840151825193845260208401969096528282015291810193909352517f4152c73dd2614c4f9fc35e8c9cf16013cd588c75b49a4c1673ecffdcbcda94039281900390910190a161184e84600001513383606001518460400151613168565b5050505050565b600061124f6118626133de565b61392a565b60716020526000908152604090208054600182015460028301546003909301549192909160ff81169061010090046001600160801b031685565b6118a9613951565b6001600160a01b03166118ba611cb7565b6001600160a01b031614611915576040805162461bcd60e51b815260206004820181905260248201527f4f776e61626c653a2063616c6c6572206973206e6f7420746865206f776e6572604482015290519081900360640190fd5b6035546040516000916001600160a01b031690600080516020615b09833981519152908390a3603580546001600160a01b0319169055565b60006119576127e5565b6001600160a01b03831660009081526071602052604081206001015461197d9084613955565b6001600160a01b038516600090815260716020526040902060010181905591505092915050565b670de0b6b3a764000081565b60755481565b6002546001600160a01b031681565b607881815481106119d557600080fd5b6000918252602090912001546001600160a01b0316905081565b600254600160a81b900460ff1680611a0a5750611a0a6139af565b80611a1f5750600254600160a01b900460ff16155b611a5a5760405162461bcd60e51b815260040180806020018281038252602e815260200180615a02602e913960400191505060405180910390fd5b600254600160a81b900460ff16158015611a91576002805460ff60a01b1960ff60a81b19909116600160a81b1716600160a01b1790555b611a996139c0565b611aac8c8c8c8c8c8c8c8c8c8c8c613a88565b8015611ac0576002805460ff60a81b191690555b505050505050505050505050565b670f43fc2c04ee000081565b60008054604080516314a6bf0f60e01b8152905183926001600160a01b0316916314a6bf0f916004808301926020929190829003018186803b158015611b1f57600080fd5b505afa158015611b33573d6000803e3d6000fd5b505050506040513d6020811015611b4957600080fd5b5051600154604080516314a6bf0f60e01b815290519293506000926001600160a01b03909216916314a6bf0f91600480820192602092909190829003018186803b158015611b9657600080fd5b505afa158015611baa573d6000803e3d6000fd5b505050506040513d6020811015611bc057600080fd5b50519050611bce8282613955565b9250505090565b6000546001600160a01b031681565b60735481565b611bf26127e5565b610d5881613e20565b60008054604080516362e1c9bf60e11b8152905183926001600160a01b03169163c5c3937e916004808301926020929190829003018186803b158015611c4057600080fd5b505afa158015611c54573d6000803e3d6000fd5b505050506040513d6020811015611c6a57600080fd5b5051600154604080516362e1c9bf60e11b815290519293506000926001600160a01b039092169163c5c3937e91600480820192602092909190829003018186803b158015611b9657600080fd5b6035546001600160a01b031690565b60745481565b6000611cd66127e5565b6001600160a01b038316600090815260716020526040812054610d889084613955565b60795481565b6040518060400160405280600c81526020016b2a3937bb32a6b0b730b3b2b960a11b81525081565b606e546001600160a01b031681565b6000806000611d4484613e8b565b915091506000611d548383613f05565b95945050505050565b6067546001600160a01b031681565b6000610da782613f34565b6001600160a01b03811660009081526071602052604081208054600190910154909180611da38561279a565b9150611dae85611316565b9050611dba8483613955565b9350611dc68382613955565b92509193509193565b6040805160e0810182526000546001600160a01b03908116825260015481166020830152606b54811692820192909252606d5482166060820152606e5482166080820152606a54821660a082015260695490911660c0820152611e306158c1565b611e3983613f60565b611e41613fba565b600260009054906101000a90046001600160a01b03166001600160a01b0316630fdb11cf6040518163ffffffff1660e01b8152600401602060405180830381600087803b158015611e9157600080fd5b505af1158015611ea5573d6000803e3d6000fd5b505050506040513d6020811015611ebb57600080fd5b505160c08201819052611ecd90614078565b611ed6896140c7565b611ee58260400151338b614106565b611eed611ada565b60e0820181905260408084015181516370a0823160e01b815233600482015291516001600160a01b03909116916370a08231916024808301926020929190829003018186803b158015611f3f57600080fd5b505afa158015611f53573d6000803e3d6000fd5b505050506040513d6020811015611f6957600080fd5b50511115611f7357fe5b888152608082015160c0820151600091611f8e918b906141bd565b15611f9a5750876120bb565b82608001516001600160a01b0316634d6228316040518163ffffffff1660e01b815260040160206040518083038186803b158015611fd757600080fd5b505afa158015611feb573d6000803e3d6000fd5b505050506040513d602081101561200157600080fd5b505190505b6001600160a01b038116158015906120325750670f43fc2c04ee0000612030828460c00151612570565b105b156120bb5782608001516001600160a01b031663b72703ac826040518263ffffffff1660e01b815260040180826001600160a01b0316815260200191505060206040518083038186803b15801561208857600080fd5b505afa15801561209c573d6000803e3d6000fd5b505050506040513d60208110156120b257600080fd5b50519050612006565b846120c65760001994505b6001600160a01b038116158015906120de5750815115155b80156120ea5750600085115b156121fd57848060019003955050600083608001516001600160a01b031663b72703ac836040518263ffffffff1660e01b815260040180826001600160a01b0316815260200191505060206040518083038186803b15801561214b57600080fd5b505afa15801561215f573d6000803e3d6000fd5b505050506040513d602081101561217557600080fd5b50518451602086015191925061218b9184612830565b60006121a4858486600001518760c001518e8e8e61431e565b90508060400151156121b75750506121fd565b805160208501516121c791613955565b60208086019190915281015160408501516121e191613955565b6040850152805184516121f391612946565b84525090506120c6565b60008260400151116122405760405162461bcd60e51b81526004018080602001828103825260298152602001806159d96029913960400191505060405180910390fd5b61225782604001518360c001518460e00151614612565b5061226582604001516146a8565b60608301819052604083015161227c9190866146b5565b82600001516001600160a01b0316628063a5846060015184606001516040518363ffffffff1660e01b815260040180836001600160a01b0316815260200182815260200192505050600060405180830381600087803b1580156122de57600080fd5b505af11580156122f2573d6000803e3d6000fd5b5050505082606001516001600160a01b031663c91d2d3883606001516040518263ffffffff1660e01b815260040180828152602001915050600060405180830381600087803b15801561234457600080fd5b505af1158015612358573d6000803e3d6000fd5b505050506060820151604083015161236f91612946565b8260800181815250507f43a3f4082a4dbc33d78e317d2497d3a730bc7fc3574159dcea1056e62e5d9ad88a8360200151846040015185606001516040518085815260200184815260200183815260200182815260200194505050505060405180910390a182604001516001600160a01b0316639dc29fac3384602001516040518363ffffffff1660e01b815260040180836001600160a01b0316815260200182815260200192505050600060405180830381600087803b15801561243257600080fd5b505af1158015612446573d6000803e3d6000fd5b5050505082600001516001600160a01b0316632a7ba1f783602001516040518263ffffffff1660e01b815260040180828152602001915050600060405180830381600087803b15801561249857600080fd5b505af11580156124ac573d6000803e3d6000fd5b5050505082600001516001600160a01b0316628063a53384608001516040518363ffffffff1660e01b815260040180836001600160a01b0316815260200182815260200192505050600060405180830381600087803b15801561250e57600080fd5b505af1158015612522573d6000803e3d6000fd5b5050505050505050505050505050565b60725481565b6212750081565b600061124f61254c6133de565b613261565b670ddd4b8c6c7d70d881565b6125656127e5565b610d58816002614724565b600080600061257e85613e8b565b9150915060006113c083838761483d565b60705481565b600061259f6127e5565b6001600160a01b03831660009081526071602052604081206001015461197d9084612946565b6000610da76125d261253f565b83614867565b6001600160a01b031660009081526071602052604090205490565b60006078828154811061260257fe5b6000918252602090912001546001600160a01b031692915050565b600060016001600160a01b03831660009081526071602052604090206003015460ff16600481111561264b57fe5b1461265857506000610df0565b506075546001600160a01b03821660009081526077602052604090205410919050565b606d546001600160a01b031681565b612692613951565b6001600160a01b03166126a3611cb7565b6001600160a01b0316146126fe576040805162461bcd60e51b815260206004820181905260248201527f4f776e61626c653a2063616c6c6572206973206e6f7420746865206f776e6572604482015290519081900360640190fd5b6001600160a01b0381166127435760405162461bcd60e51b81526004018080602001828103825260268152602001806159b36026913960400191505060405180910390fd5b6035546040516001600160a01b03808416921690600080516020615b0983398151915290600090a3603580546001600160a01b0319166001600160a01b0392909216919091179055565b600061124f606f5461392a565b6001600160a01b038116600090815260776020526040812060010154607654829061133e9083612946565b606b546001600160a01b031681565b6127dc6127e5565b610d58816148c0565b6067546001600160a01b0316331461282e5760405162461bcd60e51b815260040180806020018281038252603b815260200180615b49603b913960400191505060405180910390fd5b565b6128398161261d565b156129415761284781613297565b600061285282611316565b9050600061285f8361279a565b6001600160a01b0384166000908152607160205260409020600101549091506128889083613955565b6001600160a01b03841660009081526071602052604090206001810191909155546128b39082613955565b6001600160a01b0384166000908152607160205260409020556128d583613e20565b6128e18585838561490a565b6001600160a01b0383166000818152607160209081526040808320805460018201546002909201548351918252938101919091528082019290925260608201929092529051600080516020615b298339815191529181900360800190a250505b505050565b60008282111561299d576040805162461bcd60e51b815260206004820152601e60248201527f536166654d6174683a207375627472616374696f6e206f766572666c6f770000604482015290519081900360640190fd5b50900390565b607880546001808201835560008381527f8dc6fb69531d98d70dc0420e638d2dfd04e09e1ec783ede9aac77da9c5a0dac490920180546001600160a01b0319166001600160a01b038616179055915490916129fe9190612946565b6001600160a01b039290921660009081526071602052604090206003018054610100600160881b0319166101006001600160801b038516021790555090565b6001600160a01b0381166000908152607160205260408120600101548190612a6490614a0c565b6001600160a01b038416600090815260716020526040902060020180549082905560725491925090612aa2908390612a9c9084612946565b90613955565b607281905560408051918252517f6bac5e0eb3c44eb03a60ab11ec3a2c051771616aecadbcfff2630aabae5203829181900360200190a15092915050565b600080612aec83613f34565b6714d1120d7b160000119392505050565b612b05615875565b612b0d615906565b612b15615875565b84825260006080830152612b27611ada565b60a0830152612b34611bfb565b60c0830152600060208301525b835182602001511015612d105783826020015181518110612b5e57fe5b6020908102919091018101516001600160a01b03166060840181905260009081526071909152604090206003015460019060ff166004811115612b9d57fe5b14612ba757612d00565b612bb5826060015187612570565b60408301526080820151612ca857670f43fc2c04ee0000826040015110158015612bde57508151155b15612be857612d00565b6000612bfd8360c001518460a001518961483d565b9050612c1a8989856060015186604001518760000151868d614a48565b60808101518451919350612c2e9190612946565b8352608082015160a0840151612c4391612946565b8360a0018181525050612c7882610100015161116b846040015161116b8660a001518860c0015161294690919063ffffffff16565b60c0840152612c878483614d86565b9350612c9c8360c001518460a0015189614e67565b15608084015250612d00565b81608001518015612cc45750670f43fc2c04ee00008260400151105b15612d0057612cdd888884606001518560000151614e88565b60808101518351919250612cf19190612946565b8252612cfd8382614d86565b92505b6020820180516001019052612b41565b505095945050505050565b612d23615875565b612d2b615906565b612d33615875565b848252600060208301525b835182602001511015612d105783826020015181518110612d5b57fe5b60209081029190910101516001600160a01b031660608301819052612d809087612570565b60408301819052670f43fc2c04ee00001115612dcd57612daa888884606001518560000151614e88565b60808101518351919250612dbe9190612946565b8252612dca8382614d86565b92505b6020820180516001019052612d3e565b81612de757613021565b607954600090612e0390612a9c84670de0b6b3a764000061331e565b90506000612e28607a54612a9c670de0b6b3a76400008761331e90919063ffffffff16565b90506000612e416072548461337790919063ffffffff16565b90506000612e5a6072548461337790919063ffffffff16565b9050612e7b612e746072548461331e90919063ffffffff16565b8590612946565b607955607254612e9790612e9090839061331e565b8490612946565b607a55607554612ea79083613955565b607555607654612eb79082613955565b607681905560755460408051918252602082019290925281517f9f8bc8ab0daf5bceef75ecfd2085d1fcc6548c657ea970d9a23a60610d0737e3929181900390910190a1876001600160a01b0316632a7ba1f7876040518263ffffffff1660e01b815260040180828152602001915050600060405180830381600087803b158015612f4157600080fd5b505af1158015612f55573d6000803e3d6000fd5b50505050866001600160a01b0316632b7c7b11876040518263ffffffff1660e01b815260040180828152602001915050600060405180830381600087803b158015612f9f57600080fd5b505af1158015612fb3573d6000803e3d6000fd5b50505050876001600160a01b0316628063a588876040518363ffffffff1660e01b815260040180836001600160a01b0316815260200182815260200192505050600060405180830381600087803b15801561300d57600080fd5b505af1158015611ac0573d6000803e3d6000fd5b50505050565b6072546073819055506000826001600160a01b031663c5c3937e6040518163ffffffff1660e01b815260040160206040518083038186803b15801561306b57600080fd5b505afa15801561307f573d6000803e3d6000fd5b505050506040513d602081101561309557600080fd5b5051600154604080516362e1c9bf60e11b815290519293506000926001600160a01b039092169163c5c3937e91600480820192602092909190829003018186803b1580156130e257600080fd5b505afa1580156130f6573d6000803e3d6000fd5b505050506040513d602081101561310c57600080fd5b5051905061311e81612a9c8486612946565b607481905560735460408051918252602082019290925281517f51bf4c63ec3cba9d03d43238abbdd979dd91bd16d9895c74ceea9118c7baaf60929181900390910190a150505050565b81156131e757606b5460695460408051631062c15f60e11b81526001600160a01b039283166004820152868316602482015260448101869052905191909216916320c582be91606480830192600092919082900301818387803b1580156131ce57600080fd5b505af11580156131e2573d6000803e3d6000fd5b505050505b801561302157836001600160a01b0316628063a584836040518363ffffffff1660e01b815260040180836001600160a01b0316815260200182815260200192505050600060405180830381600087803b15801561324357600080fd5b505af1158015613257573d6000803e3d6000fd5b5050505050505050565b6000610da7613289836103e8670de0b6b3a76400005b0460050261395590919063ffffffff16565b670de0b6b3a7640000615002565b60016001600160a01b03821660009081526071602052604090206003015460ff1660048111156132c357fe5b14610d585760405162461bcd60e51b815260040180806020018281038252602f815260200180615c9a602f913960400191505060405180910390fd5b6000613317670de0b6b3a76400006113ba858561331e565b9392505050565b60008261332d57506000610da7565b8282028284828161333a57fe5b04146133175760405162461bcd60e51b8152600401808060200182810382526021815260200180615ae86021913960400191505060405180910390fd5b60008082116133cd576040805162461bcd60e51b815260206004820152601a60248201527f536166654d6174683a206469766973696f6e206279207a65726f000000000000604482015290519081900360640190fd5b8183816133d657fe5b049392505050565b6000806133e9615018565b905060006133ff670ddd4b8c6c7d70d883615034565b9050611bce670de0b6b3a76400006113ba83606f5461331e90919063ffffffff16565b60006134396070544261294690919063ffffffff16565b9050603c8110610d585742607081905560408051918252517f860f8d2f0c74dd487e89e2883e3b25b8159ce1e1b3433a291cba7b82c508f3bc9181900360200190a150565b613486615875565b61348e615906565b613496615875565b848252600060808301526134a8611ada565b60a08301526134b5611bfb565b8260c001818152505086608001516001600160a01b0316634d6228316040518163ffffffff1660e01b815260040160206040518083038186803b1580156134fb57600080fd5b505afa15801561350f573d6000803e3d6000fd5b505050506040513d602081101561352557600080fd5b50516001600160a01b039081166060840152608088015160408051631e22314360e01b815290516000939290921691631e22314391600480820192602092909190829003018186803b15801561357a57600080fd5b505afa15801561358e573d6000803e3d6000fd5b505050506040513d60208110156135a457600080fd5b50516000602085015290505b8483602001511080156135d95750806001600160a01b031683606001516001600160a01b031614155b156137f357600088608001516001600160a01b031663b72703ac85606001516040518263ffffffff1660e01b815260040180826001600160a01b0316815260200191505060206040518083038186803b15801561363557600080fd5b505afa158015613649573d6000803e3d6000fd5b505050506040513d602081101561365f57600080fd5b505160608501519091506136739089612570565b6040850152608084015161376b57670f43fc2c04ee000084604001511015801561369c57508351155b156136a757506137f3565b60006136bc8560c001518660a001518b61483d565b8a5160208c01516060880151604089015189519495506136dd94868f614a48565b608081015186519195506136f19190612946565b8552608084015160a086015161370691612946565b8560a001818152505061373b84610100015161116b866040015161116b8860a001518a60c0015161294690919063ffffffff16565b60c086015261374a8685614d86565b955061375f8560c001518660a001518b614e67565b156080860152506137d5565b836080015180156137875750670f43fc2c04ee00008460400151105b156137cf576137a889600001518a6020015186606001518760000151614e88565b608081015185519194506137bc9190612946565b84526137c88584614d86565b94506137d5565b506137f3565b6001600160a01b0316606084015260208301805160010190526135b0565b505050949350505050565b613806615875565b61380e615906565b613816615875565b606e54858352600060208401526001600160a01b03165b848360200151101561391e57806001600160a01b0316634d6228316040518163ffffffff1660e01b815260040160206040518083038186803b15801561387257600080fd5b505afa158015613886573d6000803e3d6000fd5b505050506040513d602081101561389c57600080fd5b50516001600160a01b0316606084018190526138b89088612570565b60408401819052670f43fc2c04ee00001115613909576138e2898985606001518660000151614e88565b608081015184519193506138f69190612946565b83526139028483614d86565b935061390e565b61391e565b602083018051600101905261382d565b50505095945050505050565b6000610da7613944836103e8670de0b6b3a7640000613277565b66b1a2bc2ec50000615002565b3390565b600082820183811015613317576040805162461bcd60e51b815260206004820152601b60248201527f536166654d6174683a206164646974696f6e206f766572666c6f770000000000604482015290519081900360640190fd5b60006139ba306150d3565b15905090565b600254600160a81b900460ff16806139db57506139db6139af565b806139f05750600254600160a01b900460ff16155b613a2b5760405162461bcd60e51b815260040180806020018281038252602e815260200180615a02602e913960400191505060405180910390fd5b600254600160a81b900460ff16158015613a62576002805460ff60a01b1960ff60a81b19909116600160a81b1716600160a01b1790555b613a6a6150d9565b613a72615190565b8015610d58576002805460ff60a81b1916905550565b613a918b61528e565b613a9a8a61528e565b613aa38961528e565b613aac8861528e565b613ab58761528e565b613abe8661528e565b613ac78561528e565b613ad08461528e565b613ad98361528e565b613ae28261528e565b613aeb8161528e565b606780546001600160a01b03199081166001600160a01b038e81169182179093556000805483168e85161790556001805483168d85161790556068805483168c85161790556069805483168b8516179055606a805483168a8516179055600280548316898516179055606b80548316888516179055606e80548316878516179055606c80548316868516179055606d805490921692841692909217905560408051918252517f3ca631ffcd2a9b5d9ae18543fc82f58eb4ca33af9e6ab01b7a8e95331e6ed985916020908290030190a1604080516001600160a01b038c16815290517f78f058b189175430c48dc02699e3a0031ea4ff781536dc2fab847de4babdd8829181900360200190a1604080516001600160a01b038b16815290517f5ee0cae2f063ed938bb55046f6a932fb6ae792bf43624806bb90abe68a50be9b9181900360200190a1604080516001600160a01b038a16815290517f82966d27eea39b038ee0fa30cd16532bb24f6e65d31cb58fb227aa5766cdcc7f9181900360200190a1604080516001600160a01b038916815290517fcfb07d791fcafc032b35837b50eb84b74df518cf4cc287e8084f47630fa70fa09181900360200190a1604080516001600160a01b038816815290517fe67f36a6e961157d6eff83b91f3af5a62131ceb6f04954ef74f51c1c05e7f88d9181900360200190a1604080516001600160a01b038716815290517f8c537274438aa850a330284665d81a85dd38267d09e4050d416bfc94142db2649181900360200190a1604080516001600160a01b038616815290517f112220fa8dbe96141556e0dc3d74dd95075b323f4f297616048e02d82d7017159181900360200190a1604080516001600160a01b038516815290517f65f4cf077bc01e4742eb5ad98326f6e95b63548ea24b17f8d5e823111fe788009181900360200190a1604080516001600160a01b038416815290517f7b0c6ae24561d189fc90b337cbc97aa15d085bef32931237a762e3e528b285b49181900360200190a1604080516001600160a01b038316815290517ff81a824d1d9030c0365252fb96daf0565f9c2007c88e13001379dda7f06d5d5c9181900360200190a15050505050505050505050565b607580546001600160a01b0383166000908152607760209081526040918290209283556076546001909301839055925481519081529283019190915280517fc437f324d85e369394148dd9d62f98f534b382e01ed3dd2eb98138fb6d3ab49a9281900390910190a150565b6000806000613e9984611316565b90506000613ea68561279a565b6001600160a01b03861660009081526071602052604081206001015491925090613ed09084613955565b6001600160a01b03871660009081526071602052604081205491925090613ef79084613955565b919550909350505050915091565b60008115613f2b57613f24826113ba8568056bc75e2d6310000061331e565b9050610da7565b50600019610da7565b600080613f3f611bfb565b90506000613f4b611ada565b9050613f5882828661483d565b949350505050565b6611c37937e080008110801590613f7f5750670de0b6b3a76400008111155b610d585760405162461bcd60e51b8152600401808060200182810382526030815260200180615c1e6030913960400191505060405180910390fd5b606c5460408051631e425be160e11b815290516000926001600160a01b031691633c84b7c2916004808301926020929190829003018186803b158015613fff57600080fd5b505afa158015614013573d6000803e3d6000fd5b505050506040513d602081101561402957600080fd5b5051905061403a8162127500613955565b421015610d585760405162461bcd60e51b8152600401808060200182810382526040815260200180615aa86040913960400191505060405180910390fd5b670f43fc2c04ee000061408a82613f34565b1015610d585760405162461bcd60e51b815260040180806020018281038252602a815260200180615c4e602a913960400191505060405180910390fd5b60008111610d585760405162461bcd60e51b815260040180806020018281038252602e815260200180615bba602e913960400191505060405180910390fd5b80836001600160a01b03166370a08231846040518263ffffffff1660e01b815260040180826001600160a01b0316815260200191505060206040518083038186803b15801561415457600080fd5b505afa158015614168573d6000803e3d6000fd5b505050506040513d602081101561417e57600080fd5b505110156129415760405162461bcd60e51b815260040180806020018281038252604e815260200180615a30604e913960600191505060405180910390fd5b60006001600160a01b038316158061424b5750836001600160a01b0316635dbe47e8846040518263ffffffff1660e01b815260040180826001600160a01b0316815260200191505060206040518083038186803b15801561421d57600080fd5b505afa158015614231573d6000803e3d6000fd5b505050506040513d602081101561424757600080fd5b5051155b806142665750670f43fc2c04ee00006142648484612570565b105b1561427357506000613317565b6000846001600160a01b031663765e0159856040518263ffffffff1660e01b815260040180826001600160a01b0316815260200191505060206040518083038186803b1580156142c257600080fd5b505afa1580156142d6573d6000803e3d6000fd5b505050506040513d60208110156142ec57600080fd5b505190506001600160a01b0381161580611d545750670f43fc2c04ee00006143148285612570565b1095945050505050565b61432661594e565b6001600160a01b03871660009081526071602052604090205461437490879061436f907f0000000000000000000000000000000000000000000000000000000000000000612946565b615002565b80825261438f9086906113ba90670de0b6b3a764000061331e565b60208083019190915281516001600160a01b0389166000908152607190925260408220546143bc91612946565b6020808401516001600160a01b038b1660009081526071909252604082206001015492935090916143ec91612946565b90507f00000000000000000000000000000000000000000000000000000000000000008214156144b05761441f896148c0565b61442a896004614724565b6144568a8a7f0000000000000000000000000000000000000000000000000000000000000000846152e9565b886001600160a01b0316600080516020615b29833981519152600080600060036040518085815260200184815260200183815260200182600381111561449857fe5b815260200194505050505060405180910390a2614604565b60006144bc8284613f05565b905084811415806144f457507f00000000000000000000000000000000000000000000000000000000000000006144f28461548b565b105b156145085750506001604083015250614607565b60808b01516040805163015f109360e51b81526001600160a01b038d81166004830152602482018590528a81166044830152898116606483015291519190921691632be2126091608480830192600092919082900301818387803b15801561456f57600080fd5b505af1158015614583573d6000803e3d6000fd5b5050506001600160a01b038b166000908152607160205260409020848155600101839055506145b18a612a3d565b506001600160a01b038a1660008181526071602090815260409182902060020154825187815291820186905281830152600360608201529051600080516020615b298339815191529181900360800190a2505b50505b979650505050505050565b60008061461d6133de565b9050600061462f846113ba888861331e565b90506000614648614641836002613377565b8490613955565b905061465c81670de0b6b3a7640000615002565b90506000811161466857fe5b606f8190556040805182815290517fc454ee9b76c52f782a256af821b857ca6e125d1e3333bcede402fec2bed9600c9181900360200190a16113c0613422565b6000610da76125d2611242565b60006146cd836113ba86670de0b6b3a764000061331e565b905081811115613021576040805162461bcd60e51b815260206004820152601d60248201527f4665652065786365656465642070726f7669646564206d6178696d756d000000604482015290519081900360640190fd5b600081600481111561473257fe5b1415801561474c5750600181600481111561474957fe5b14155b61475257fe5b60785461475e816154b7565b6001600160a01b0383166000908152607160205260409020600301805483919060ff1916600183600481111561479057fe5b02179055506001600160a01b03831660009081526071602090815260408083206001808201859055908490556077909252822082815501556147d28382615570565b606e5460408051631484968760e11b81526001600160a01b038681166004830152915191909216916329092d0e91602480830192600092919082900301818387803b15801561482057600080fd5b505af1158015614834573d6000803e3d6000fd5b50505050505050565b6000821561485e576000614855846113ba878661331e565b91506133179050565b50600019613317565b600080614880670de0b6b3a76400006113ba868661331e565b90508281106133175760405162461bcd60e51b8152600401808060200182810382526036815260200180615be86036913960400191505060405180910390fd5b6001600160a01b0381166000908152607160205260409020600201546072546148e99082612946565b607255506001600160a01b0316600090815260716020526040812060020155565b826001600160a01b0316632a7ba1f7836040518263ffffffff1660e01b815260040180828152602001915050600060405180830381600087803b15801561495057600080fd5b505af1158015614964573d6000803e3d6000fd5b50505050836001600160a01b0316632b7c7b11836040518263ffffffff1660e01b815260040180828152602001915050600060405180830381600087803b1580156149ae57600080fd5b505af11580156149c2573d6000803e3d6000fd5b50505050826001600160a01b0316638f7be730826040518263ffffffff1660e01b815260040180828152602001915050600060405180830381600087803b15801561324357600080fd5b60008060745460001415614a21575081610da7565b600060735411614a2d57fe5b6133176074546113ba6073548661331e90919063ffffffff16565b614a50615875565b614a58615971565b607854600110614a685750614607565b614a7187611d77565b60408501526020848101919091528401819052908352614a9090615717565b604083018190527f000000000000000000000000000000000000000000000000000000000000000060608401526020830151614acb91612946565b8152670de0b6b3a76400008611614bcd57614af089898360200151846040015161490a565b614af9876148c0565b60006080830181905260a0830152815160c0830152805160e0830152614b20876003614724565b866001600160a01b031660008051602061599383398151915283600001518460200151600260405180848152602001838152602001826003811115614b6157fe5b8152602001935050505060405180910390a2866001600160a01b0316600080516020615b298339815191526000806000600260405180858152602001848152602001838152602001826003811115614bb557fe5b815260200194505050505060405180910390a2614d7a565b670de0b6b3a764000086118015614beb5750670f43fc2c04ee000086105b15614c3b57614c0489898360200151846040015161490a565b614c0d876148c0565b81518151614c1c91908761571e565b60e086015260c085015260a08401526080830152614b20876003614724565b670f43fc2c04ee00008610158015614c5257508386105b8015614c5f575081518510155b15614d6957614c7889898360200151846040015161490a565b84614c7f57fe5b614c88876148c0565b614c9b8260000151836020015185615778565b9150614ca8876003614724565b61010082015115614d2857606a5461010083015160408051633f10abab60e01b81526001600160a01b038b81166004830152602482019390935290519190921691633f10abab91604480830192600092919082900301818387803b158015614d0f57600080fd5b505af1158015614d23573d6000803e3d6000fd5b505050505b866001600160a01b031660008051602061599383398151915283600001518460a00151600260405180848152602001838152602001826003811115614b6157fe5b614d71615875565b91506146079050565b50979650505050505050565b614d8e615875565b60408083015190840151614da191613955565b604082015260608083015190840151614db991613955565b606082015281516020840151614dce91613955565b6020808301919091528201518351614de591613955565b815260808083015190840151614dfa91613955565b608082015260a08083015190840151614e1291613955565b60a082015260c08083015190840151614e2a91613955565b60c082015260e08083015190840151614e4291613955565b60e08201526101008083015190840151614e5b91613955565b61010082015292915050565b600080614e7585858561483d565b6714d1120d7b1600001195945050505050565b614e90615875565b614e98615971565b614ea184611d77565b60408501908152602085810192835286019290925291845290519051614ecb91889188919061490a565b614ed4846148c0565b614ee18260200151615717565b604083018190527f000000000000000000000000000000000000000000000000000000000000000060608401526020830151600091614f209190612946565b9050614f318360000151828661571e565b60e087015260c086015260a08501526080840152614f50856003614724565b846001600160a01b031660008051602061599383398151915284600001518560200151600160405180848152602001838152602001826003811115614f9157fe5b8152602001935050505060405180910390a2846001600160a01b0316600080516020615b298339815191526000806000600160405180858152602001848152602001838152602001826003811115614fe557fe5b815260200194505050505060405180910390a25050949350505050565b60008183106150115781613317565b5090919050565b600061124f603c6113ba6070544261294690919063ffffffff16565b6000631f54050082111561504a57631f54050091505b8161505e5750670de0b6b3a7640000610da7565b670de0b6b3a764000083835b60018111156150c95760028106615099576150858283615817565b9150615092816002613377565b90506150c4565b6150a38284615817565b92506150af8283615817565b91506150c160026113ba836001612946565b90505b61506a565b6113c08284615817565b3b151590565b600254600160a81b900460ff16806150f457506150f46139af565b806151095750600254600160a01b900460ff16155b6151445760405162461bcd60e51b815260040180806020018281038252602e815260200180615a02602e913960400191505060405180910390fd5b600254600160a81b900460ff16158015613a72576002805460ff60a01b1960ff60a81b19909116600160a81b1716600160a01b1790558015610d58576002805460ff60a81b1916905550565b600254600160a81b900460ff16806151ab57506151ab6139af565b806151c05750600254600160a01b900460ff16155b6151fb5760405162461bcd60e51b815260040180806020018281038252602e815260200180615a02602e913960400191505060405180910390fd5b600254600160a81b900460ff16158015615232576002805460ff60a01b1960ff60a81b19909116600160a81b1716600160a01b1790555b600061523c613951565b603580546001600160a01b0319166001600160a01b03831690811790915560405191925090600090600080516020615b09833981519152908290a3508015610d58576002805460ff60a81b1916905550565b6001600160a01b038116610d58576040805162461bcd60e51b815260206004820152601e60248201527f4163636f756e742063616e6e6f74206265207a65726f20616464726573730000604482015290519081900360640190fd5b6040808501516069548251632770a7eb60e21b81526001600160a01b039182166004820152602481018690529251911691639dc29fac91604480830192600092919082900301818387803b15801561534057600080fd5b505af1158015615354573d6000803e3d6000fd5b5050505083600001516001600160a01b0316632a7ba1f7836040518263ffffffff1660e01b815260040180828152602001915050600060405180830381600087803b1580156153a257600080fd5b505af11580156153b6573d6000803e3d6000fd5b505050508360a001516001600160a01b0316633f10abab84836040518363ffffffff1660e01b815260040180836001600160a01b0316815260200182815260200192505050600060405180830381600087803b15801561541557600080fd5b505af1158015615429573d6000803e3d6000fd5b5050505083600001516001600160a01b0316628063a58560a00151836040518363ffffffff1660e01b815260040180836001600160a01b0316815260200182815260200192505050600060405180830381600087803b15801561324357600080fd5b6000610da7827f0000000000000000000000000000000000000000000000000000000000000000612946565b6001811180156155355750606e546040805163de8fa43160e01b815290516001926001600160a01b03169163de8fa431916004808301926020929190829003018186803b15801561550757600080fd5b505afa15801561551b573d6000803e3d6000fd5b505050506040513d602081101561553157600080fd5b5051115b610d585760405162461bcd60e51b815260040180806020018281038252602a815260200180615a7e602a913960400191505060405180910390fd5b6001600160a01b03821660009081526071602052604081206003015460ff169081600481111561559c57fe5b141580156155b6575060018160048111156155b357fe5b14155b6155bc57fe5b6001600160a01b03831660009081526071602052604081206003015461010090046001600160801b03169083906155f4826001612946565b905080836001600160801b0316111561560957fe5b60006078828154811061561857fe5b600091825260209091200154607880546001600160a01b03909216925082916001600160801b03871690811061564a57fe5b600091825260208083209190910180546001600160a01b0319166001600160a01b03948516179055918316808252607183526040918290206003018054610100600160881b0319166101006001600160801b038a169081029190911790915582519182529281019290925280517f02b04ae5f7be9ca7c103293a2aa15f3c339d15d6eda53b721fef7b0e609c831a9281900390910190a160788054806156ec57fe5b600082815260209020810160001990810180546001600160a01b031916905501905550505050505050565b60c8900490565b60008080808415615762576157338786615002565b9350615743876113ba888761331e565b925061574f8785612946565b915061575b8684612946565b905061576f565b5060009250829150859050845b93509350935093565b615780615875565b8381526020810183905260006157a2836113ba87670f43fc2c04ee000061331e565b90506157ad81615717565b604083018190527f00000000000000000000000000000000000000000000000000000000000000006060840152608083018690526157ec908290612946565b60a08301526157fb8482612946565b61010083015250600060c0820181905260e08201529392505050565b600080615824848461331e565b9050613f58670de0b6b3a76400006113ba836706f05b59d3b20000613955565b6040518060a00160405280600081526020016000815260200160001515815260200160008152602001600081525090565b6040518061012001604052806000815260200160008152602001600081526020016000815260200160008152602001600081526020016000815260200160008152602001600081525090565b60405180610100016040528060008152602001600081526020016000815260200160008152602001600081526020016000815260200160008152602001600081525090565b6040518060e0016040528060008152602001600081526020016000815260200160006001600160a01b0316815260200160001515815260200160008152602001600081525090565b604051806060016040528060008152602001600081526020016000151581525090565b6040518060600160405280600081526020016000815260200160008152509056feea67486ed7ebe3eea8ab3390efd4a3c8aae48be5bea27df104a8af786c4084344f776e61626c653a206e6577206f776e657220697320746865207a65726f206164647265737354726f76654d616e616765723a20556e61626c6520746f2072656465656d20616e7920616d6f756e74496e697469616c697a61626c653a20636f6e747261637420697320616c726561647920696e697469616c697a656454726f76654d616e616765723a2052657175657374656420726564656d7074696f6e20616d6f756e74206d757374206265203c3d20757365722773206465627420746f6b656e2062616c616e636554726f76654d616e616765723a204f6e6c79206f6e652074726f766520696e207468652073797374656d54726f76654d616e616765723a20526564656d7074696f6e7320617265206e6f7420616c6c6f77656420647572696e6720626f6f747374726170207068617365536166654d6174683a206d756c7469706c69636174696f6e206f766572666c6f778be0079c531659141344cd1fd0a4f28419497f9722a3daafe3b4186f6b6457e0c3770d654ed33aeea6bf11ac8ef05d02a6a04ed4686dd2f624d853bbec43cc8b54726f76654d616e616765723a2043616c6c6572206973206e6f742074686520426f72726f7765724f7065726174696f6e7320636f6e747261637454726f76654d616e616765723a2043616c6c646174612061646472657373206172726179206d757374206e6f7420626520656d70747954726f76654d616e616765723a20416d6f756e74206d7573742062652067726561746572207468616e207a65726f54726f76654d616e616765723a2046656520776f756c642065617420757020616c6c2072657475726e656420636f6c6c61746572616c4d6178206665652070657263656e74616765206d757374206265206265747765656e20302e352520616e64203130302554726f76654d616e616765723a2043616e6e6f742072656465656d207768656e20544352203c204d435254726f76654d616e616765723a206e6f7468696e6720746f206c697175696461746554726f76654d616e616765723a2054726f766520646f6573206e6f74206578697374206f7220697320636c6f736564a2646970667358221220f9f60ce79b38ee4cff920f4a265724b1187ccfef700ab60a07202bf2066593fe64736f6c6343000706003360c060405234801561001057600080fd5b50604051613d6a380380613d6a8339818101604052604081101561003357600080fd5b508051602090910151608082905260a0819052613cd061009a60003980610b3d528061253a52806128c752806135dc5250806108e35280610a475280610a865280610b1952806113b052806121635280612deb5280612e1552806135085250613cd06000f3fe6080604052600436106101ae5760003560e01c806372fe25aa116100ed578063a20baee611610090578063a20baee61461040e578063a3f4df7e146104db578063ae91875414610565578063c306b3781461057a578063c6a6cf20146105f8578063e545242314610640578063f2fde38b14610655578063f8d8989814610688578063f92d34331461069d576101ae565b806372fe25aa1461040e578063741bef1a14610423578063794e572414610438578063795d26c31461044d5780637f7dde4a14610462578063860665b314610477578063887105d3146104b15780638da5cb5b146104c6576101ae565b80634ff81443116101555780634ff81443146102da5780635530273c146103045780635733d58f1461034557806357aae46b1461035a57806362a0d7991461036f57806368647db1146103b65780636f0b0c1c146103e4578063715018a6146103f9576101ae565b80630802c78a146101b35780630e43d8ce146101f65780630e704d501461022e578063139f2e8c146102435780631bf435551461026a5780633cc742251461027f5780633d83908a146102b05780634870dd9a146102c5575b600080fd5b3480156101bf57600080fd5b506101f4600480360360608110156101d657600080fd5b508035906001600160a01b03602082013581169160400135166106b2565b005b6101f46004803603606081101561020c57600080fd5b506001600160a01b0381358116916020810135821691604090910135166106c9565b34801561023a57600080fd5b506101f46106e3565b34801561024f57600080fd5b50610258610b17565b60408051918252519081900360200190f35b34801561027657600080fd5b50610258610b3b565b34801561028b57600080fd5b50610294610b5f565b604080516001600160a01b039092168252519081900360200190f35b3480156102bc57600080fd5b50610294610b6e565b3480156102d157600080fd5b50610258610b7d565b3480156102e657600080fd5b50610258600480360360208110156102fd57600080fd5b5035610b82565b34801561031057600080fd5b506101f46004803603606081101561032757600080fd5b508035906001600160a01b0360208201358116916040013516610b93565b34801561035157600080fd5b50610258610ba4565b34801561036657600080fd5b50610294610bb0565b34801561037b57600080fd5b506101f46004803603608081101561039257600080fd5b508035906020810135906001600160a01b0360408201358116916060013516610bbf565b6101f4600480360360408110156103cc57600080fd5b506001600160a01b0381358116916020013516610bd6565b3480156103f057600080fd5b506101f4610bec565b34801561040557600080fd5b506101f4610c4c565b34801561041a57600080fd5b50610258610cf8565b34801561042f57600080fd5b50610294610d04565b34801561044457600080fd5b50610258610d13565b34801561045957600080fd5b50610258610d1f565b34801561046e57600080fd5b50610294610e1a565b6101f46004803603608081101561048d57600080fd5b508035906020810135906001600160a01b0360408201358116916060013516610e29565b3480156104bd57600080fd5b50610258611471565b3480156104d257600080fd5b5061029461152d565b3480156104e757600080fd5b506104f061153c565b6040805160208082528351818301528351919283929083019185019080838360005b8381101561052a578181015183820152602001610512565b50505050905090810190601f1680156105575780820380516001836020036101000a031916815260200191505b509250505060405180910390f35b34801561057157600080fd5b5061029461156a565b34801561058657600080fd5b506101f4600480360361014081101561059e57600080fd5b506001600160a01b038135811691602081013582169160408201358116916060810135821691608082013581169160a081013582169160c082013581169160e0810135821691610100820135811691610120013516611579565b6101f4600480360360c081101561060e57600080fd5b5080359060208101359060408101359060608101351515906001600160a01b03608082013581169160a0013516611655565b34801561064c57600080fd5b5061029461166c565b34801561066157600080fd5b506101f46004803603602081101561067857600080fd5b50356001600160a01b031661167b565b34801561069457600080fd5b5061029461177e565b3480156106a957600080fd5b5061025861178d565b6106c433600085600086866000611798565b505050565b6106d1611d6b565b6106c483600080600086866000611798565b606754600054606d546001600160a01b039283169291821691166107078333611db6565b60025460408051630fdb11cf60e01b815290516000926001600160a01b031691630fdb11cf91600480830192602092919082900301818787803b15801561074d57600080fd5b505af1158015610761573d6000803e3d6000fd5b505050506040513d602081101561077757600080fd5b5051905061078481611e72565b60408051630b07655760e01b815233600482015290516001600160a01b03861691630b07655791602480830192600092919082900301818387803b1580156107cb57600080fd5b505af11580156107df573d6000803e3d6000fd5b505050506000846001600160a01b031663480cd578336040518263ffffffff1660e01b815260040180826001600160a01b0316815260200191505060206040518083038186803b15801561083257600080fd5b505afa158015610846573d6000803e3d6000fd5b505050506040513d602081101561085c57600080fd5b50516040805163d66a255360e01b815233600482015290519192506000916001600160a01b0388169163d66a2553916024808301926020929190829003018186803b1580156108aa57600080fd5b505afa1580156108be573d6000803e3d6000fd5b505050506040513d60208110156108d457600080fd5b5051905061090c8433610907847f0000000000000000000000000000000000000000000000000000000000000000611eba565b611f17565b600061091d83600084600088611fce565b905061092881612041565b60408051631fc5750960e31b815233600482015290516001600160a01b0389169163fe2ba84891602480830192600092919082900301818387803b15801561096f57600080fd5b505af1158015610983573d6000803e3d6000fd5b5050604080516365e89c5760e11b815233600482015290516001600160a01b038b16935063cbd138ae9250602480830192600092919082900301818387803b1580156109ce57600080fd5b505af11580156109e2573d6000803e3d6000fd5b50505050336001600160a01b0316600080516020613a6a8339815191526000806000600160405180858152602001848152602001838152602001826002811115610a2857fe5b815260200194505050505060405180910390a2610a70868633610a6b867f0000000000000000000000000000000000000000000000000000000000000000611eba565b612088565b606954610aaa90879087906001600160a01b03167f0000000000000000000000000000000000000000000000000000000000000000612088565b60408051628063a560e01b81523360048201526024810185905290516001600160a01b03881691628063a591604480830192600092919082900301818387803b158015610af657600080fd5b505af1158015610b0a573d6000803e3d6000fd5b5050505050505050505050565b7f000000000000000000000000000000000000000000000000000000000000000081565b7f000000000000000000000000000000000000000000000000000000000000000081565b6001546001600160a01b031681565b6067546001600160a01b031681565b60c881565b6000610b8d8261215b565b92915050565b6106c4338460008086866000611798565b6714d1120d7b16000081565b606c546001600160a01b031681565b610bd033600085600186868a611798565b50505050565b610be833600080600086866000611798565b5050565b606a546040805163b32beb5b60e01b815233600482015290516001600160a01b039092169163b32beb5b9160248082019260009290919082900301818387803b158015610c3857600080fd5b505af1158015610bd0573d6000803e3d6000fd5b610c54612187565b6001600160a01b0316610c6561152d565b6001600160a01b031614610cc0576040805162461bcd60e51b815260206004820181905260248201527f4f776e61626c653a2063616c6c6572206973206e6f7420746865206f776e6572604482015290519081900360640190fd5b6035546040516000916001600160a01b031690600080516020613a1c833981519152908390a3603580546001600160a01b0319169055565b670de0b6b3a764000081565b6002546001600160a01b031681565b670f43fc2c04ee000081565b60008054604080516314a6bf0f60e01b8152905183926001600160a01b0316916314a6bf0f916004808301926020929190829003018186803b158015610d6457600080fd5b505afa158015610d78573d6000803e3d6000fd5b505050506040513d6020811015610d8e57600080fd5b5051600154604080516314a6bf0f60e01b815290519293506000926001600160a01b03909216916314a6bf0f91600480820192602092909190829003018186803b158015610ddb57600080fd5b505afa158015610def573d6000803e3d6000fd5b505050506040513d6020811015610e0557600080fd5b50519050610e13828261218b565b9250505090565b6000546001600160a01b031681565b604080516060810182526067546001600160a01b03908116825260005481166020830152606d541691810191909152610e60613769565b600260009054906101000a90046001600160a01b03166001600160a01b0316630fdb11cf6040518163ffffffff1660e01b8152600401602060405180830381600087803b158015610eb057600080fd5b505af1158015610ec4573d6000803e3d6000fd5b505050506040513d6020811015610eda57600080fd5b5051808252600090610eeb906121ec565b9050610ef78782612209565b8251610f0390336122b5565b6040820186905280610f3e57610f2383600001518460400151888a612388565b602083018190526040830151610f389161218b565b60408301525b610f4b8260400151612538565b610f58826040015161215b565b60608301819052610f6557fe5b610f783483606001518460000151612597565b60808301526060820151610f8d9034906125c9565b60a08301528015610faa57610fa582608001516125f8565b610fdd565b610fb7826080015161263f565b6000610fd0346001856060015160018760000151611fce565b9050610fdb81612041565b505b825160408051635d6b480f60e01b81523360048201526001602482015290516001600160a01b0390921691635d6b480f9160448082019260009290919082900301818387803b15801561102f57600080fd5b505af1158015611043573d6000803e3d6000fd5b50508451604080516372423c1760e01b815233600482015234602482015290516001600160a01b0390921693506372423c1792506044808201926020929091908290030181600087803b15801561109957600080fd5b505af11580156110ad573d6000803e3d6000fd5b505050506040513d60208110156110c357600080fd5b50508251606083015160408051639976cf4560e01b81523360048201526024810192909252516001600160a01b0390921691639976cf45916044808201926020929091908290030181600087803b15801561111d57600080fd5b505af1158015611131573d6000803e3d6000fd5b505050506040513d602081101561114757600080fd5b50508251604080516382fe3eb960e01b815233600482015290516001600160a01b03909216916382fe3eb99160248082019260009290919082900301818387803b15801561119457600080fd5b505af11580156111a8573d6000803e3d6000fd5b5050505082600001516001600160a01b03166318f2817a336040518263ffffffff1660e01b815260040180826001600160a01b03168152602001915050602060405180830381600087803b1580156111ff57600080fd5b505af1158015611213573d6000803e3d6000fd5b505050506040513d602081101561122957600080fd5b505160c0830152606e5460a0830151604080516346f7cf8760e01b815233600482015260248101929092526001600160a01b038881166044840152878116606484015290519216916346f7cf879160848082019260009290919082900301818387803b15801561129857600080fd5b505af11580156112ac573d6000803e3d6000fd5b5050505082600001516001600160a01b03166315d549f1336040518263ffffffff1660e01b815260040180826001600160a01b03168152602001915050602060405180830381600087803b15801561130357600080fd5b505af1158015611317573d6000803e3d6000fd5b505050506040513d602081101561132d57600080fd5b505160e08301819052604080519182525133917f59cfd0cd754bc5748b6770e94a4ffa5f678d885cb899dcfadc5734edb97c67ab919081900360200190a2611379836020015134612686565b6113928360200151846040015133898660400151612716565b602083015160408401516069546113d59291906001600160a01b03167f000000000000000000000000000000000000000000000000000000000000000080612716565b336001600160a01b0316600080516020613a6a8339815191528360600151348560c0015160006040518085815260200184815260200183815260200182600281111561141d57fe5b815260200194505050505060405180910390a2602080830151604080519182525133927fefe9137e0c60d14b7f57a84d5b68f55a648dd9fa7b01747d4ec305a3c8974c01928290030190a250505050505050565b60008054604080516362e1c9bf60e11b8152905183926001600160a01b03169163c5c3937e916004808301926020929190829003018186803b1580156114b657600080fd5b505afa1580156114ca573d6000803e3d6000fd5b505050506040513d60208110156114e057600080fd5b5051600154604080516362e1c9bf60e11b815290519293506000926001600160a01b039092169163c5c3937e91600480820192602092909190829003018186803b158015610ddb57600080fd5b6035546001600160a01b031690565b60405180604001604052806012815260200171426f72726f7765724f7065726174696f6e7360701b81525081565b606e546001600160a01b031681565b600254600160a81b900460ff168061159457506115946127ea565b806115a95750600254600160a01b900460ff16155b6115e45760405162461bcd60e51b815260040180806020018281038252602e81526020018061390c602e913960400191505060405180910390fd5b600254600160a81b900460ff1615801561161b576002805460ff60a01b1960ff60a81b19909116600160a81b1716600160a01b1790555b6116236127fb565b6116358b8b8b8b8b8b8b8b8b8b6128c3565b8015610b0a576002805460ff60a81b191690555050505050505050505050565b6116643386868686868c611798565b505050505050565b606b546001600160a01b031681565b611683612187565b6001600160a01b031661169461152d565b6001600160a01b0316146116ef576040805162461bcd60e51b815260206004820181905260248201527f4f776e61626c653a2063616c6c6572206973206e6f7420746865206f776e6572604482015290519081900360640190fd5b6001600160a01b0381166117345760405162461bcd60e51b81526004018080602001828103825260268152602001806138196026913960400191505060405180910390fd5b6035546040516001600160a01b03808416921690600080516020613a1c83398151915290600090a3603580546001600160a01b0319166001600160a01b0392909216919091179055565b606d546001600160a01b031681565b6611c37937e0800081565b604080516060810182526067546001600160a01b03908116825260005481166020830152606d5416918101919091526117cf6137ae565b600260009054906101000a90046001600160a01b03166001600160a01b0316630fdb11cf6040518163ffffffff1660e01b8152600401602060405180830381600087803b15801561181f57600080fd5b505af1158015611833573d6000803e3d6000fd5b505050506040513d602081101561184957600080fd5b505180825260009061185a906121ec565b905086156118755761186c8482612209565b61187588612c46565b61187e89612c85565b6118888989612ccb565b8251611894908b611db6565b336001600160a01b038b1614806118ca57506068546001600160a01b0316331480156118c05750600034115b80156118ca575087155b6118d057fe5b82600001516001600160a01b0316630b0765578b6040518263ffffffff1660e01b815260040180826001600160a01b03168152602001915050600060405180830381600087803b15801561192357600080fd5b505af1158015611937573d6000803e3d6000fd5b50505050611945348a612d1d565b15156060840152602083015260408201889052868015611963575080155b156119985761197c836000015184604001518a87612388565b610120830181905260408301516119929161218b565b60408301525b82600001516001600160a01b031663d66a25538b6040518263ffffffff1660e01b815260040180826001600160a01b0316815260200191505060206040518083038186803b1580156119e957600080fd5b505afa1580156119fd573d6000803e3d6000fd5b505050506040513d6020811015611a1357600080fd5b505160808301528251604080516309019aaf60e31b81526001600160a01b038d811660048301529151919092169163480cd578916024808301926020929190829003018186803b158015611a6657600080fd5b505afa158015611a7a573d6000803e3d6000fd5b505050506040513d6020811015611a9057600080fd5b505160a0830181905260808301518351611aab929190612597565b8260c0018181525050611adb8260a0015183608001518460200151856060015186604001518c8860000151612d3c565b60e083015260a0820151891115611aee57fe5b611afa818a8985612d6f565b86158015611b085750600088115b15611b5557611b30611b2b8360400151611b258560800151612de3565b90611eba565b612538565b611b4282608001518360400151612e0f565b611b5583604001518b8460400151611f17565b611b7383600001518b8460200151856060015186604001518c612e77565b610140840152610160830152825160408051630c7940bd60e11b81526001600160a01b038d81166004830152915191909216916318f2817a9160248083019260209291908290030181600087803b158015611bcd57600080fd5b505af1158015611be1573d6000803e3d6000fd5b505050506040513d6020811015611bf757600080fd5b505161018083015260a08201516080830151602084015160608501516040860151600094611c2b949093909290918d6130b3565b606e546040805163015f109360e51b81526001600160a01b038f81166004830152602482018590528b811660448301528a811660648301529151939450911691632be212609160848082019260009290919082900301818387803b158015611c9257600080fd5b505af1158015611ca6573d6000803e3d6000fd5b505050508a6001600160a01b0316600080516020613a6a833981519152846101400151856101600151866101800151600260405180858152602001848152602001838152602001826002811115611cf957fe5b815260200194505050505060405180910390a2610120830151604080519182525133917fefe9137e0c60d14b7f57a84d5b68f55a648dd9fa7b01747d4ec305a3c8974c01919081900360200190a2610b0a8460200151856040015133866020015187606001518e8e8a604001516130e4565b6068546001600160a01b03163314611db45760405162461bcd60e51b8152600401808060200182810382526029815260200180613bcd6029913960400191505060405180910390fd5b565b6000826001600160a01b03166321e37801836040518263ffffffff1660e01b815260040180826001600160a01b0316815260200191505060206040518083038186803b158015611e0557600080fd5b505afa158015611e19573d6000803e3d6000fd5b505050506040513d6020811015611e2f57600080fd5b50519050600181146106c45760405162461bcd60e51b815260040180806020018281038252602e815260200180613a3c602e913960400191505060405180910390fd5b611e7b816121ec565b15611eb75760405162461bcd60e51b815260040180806020018281038252603981526020018061389c6039913960400191505060405180910390fd5b50565b600082821115611f11576040805162461bcd60e51b815260206004820152601e60248201527f536166654d6174683a207375627472616374696f6e206f766572666c6f770000604482015290519081900360640190fd5b50900390565b80836001600160a01b03166370a08231846040518263ffffffff1660e01b815260040180826001600160a01b0316815260200191505060206040518083038186803b158015611f6557600080fd5b505afa158015611f79573d6000803e3d6000fd5b505050506040513d6020811015611f8f57600080fd5b505110156106c45760405162461bcd60e51b815260040180806020018281038252603f815260200180613ac8603f913960400191505060405180910390fd5b600080611fd9611471565b90506000611fe5610d1f565b905086611ffb57611ff68289611eba565b612005565b612005828961218b565b91508461201b576120168187611eba565b612025565b612025818761218b565b90506000612034838387612597565b9998505050505050505050565b6714d1120d7b160000811015611eb75760405162461bcd60e51b81526004018080602001828103825260498152602001806139d36049913960600191505060405180910390fd5b836001600160a01b0316632a7ba1f7826040518263ffffffff1660e01b815260040180828152602001915050600060405180830381600087803b1580156120ce57600080fd5b505af11580156120e2573d6000803e3d6000fd5b50505050826001600160a01b0316639dc29fac83836040518363ffffffff1660e01b815260040180836001600160a01b0316815260200182815260200192505050600060405180830381600087803b15801561213d57600080fd5b505af1158015612151573d6000803e3d6000fd5b5050505050505050565b6000610b8d827f000000000000000000000000000000000000000000000000000000000000000061218b565b3390565b6000828201838110156121e5576040805162461bcd60e51b815260206004820152601b60248201527f536166654d6174683a206164646974696f6e206f766572666c6f770000000000604482015290519081900360640190fd5b9392505050565b6000806121f883613195565b6714d1120d7b160000119392505050565b801561225b57670de0b6b3a76400008211156122565760405162461bcd60e51b815260040180806020018281038252603281526020018061393a6032913960400191505060405180910390fd5b610be8565b6611c37937e08000821080159061227a5750670de0b6b3a76400008211155b610be85760405162461bcd60e51b8152600401808060200182810382526030815260200180613bf66030913960400191505060405180910390fd5b6000826001600160a01b03166321e37801836040518263ffffffff1660e01b815260040180826001600160a01b0316815260200191505060206040518083038186803b15801561230457600080fd5b505afa158015612318573d6000803e3d6000fd5b505050506040513d602081101561232e57600080fd5b5051905060018114156106c4576040805162461bcd60e51b815260206004820152601c60248201527f426f72726f7765724f70733a2054726f76652069732061637469766500000000604482015290519081900360640190fd5b6000846001600160a01b0316635dba4c4a6040518163ffffffff1660e01b8152600401600060405180830381600087803b1580156123c557600080fd5b505af11580156123d9573d6000803e3d6000fd5b505050506000856001600160a01b031663631203b0856040518263ffffffff1660e01b81526004018082815260200191505060206040518083038186803b15801561242357600080fd5b505afa158015612437573d6000803e3d6000fd5b505050506040513d602081101561244d57600080fd5b5051905061245c8185856131c1565b606b54604080516358caad6960e11b81526004810184905290516001600160a01b039092169163b1955ad29160248082019260009290919082900301818387803b1580156124a957600080fd5b505af11580156124bd573d6000803e3d6000fd5b5050606c54604080516340c10f1960e01b81526001600160a01b03928316600482015260248101869052905191891693506340c10f19925060448082019260009290919082900301818387803b15801561251657600080fd5b505af115801561252a573d6000803e3d6000fd5b509298975050505050505050565b7f0000000000000000000000000000000000000000000000000000000000000000811015611eb75760405162461bcd60e51b815260040180806020018281038252603a815260200180613b50603a913960400191505060405180910390fd5b600082156125be5760006125b5846125af8786613230565b90613289565b91506121e59050565b506000199392505050565b600081156125ef576125e8826125af8568056bc75e2d63100000613230565b9050610b8d565b50600019610b8d565b6714d1120d7b160000811015611eb75760405162461bcd60e51b81526004018080602001828103825260378152602001806138d56037913960400191505060405180910390fd5b670f43fc2c04ee0000811015611eb75760405162461bcd60e51b8152600401808060200182810382526049815260200180613b076049913960600191505060405180910390fd5b6040516000906001600160a01b0384169083908381818185875af1925050503d80600081146126d1576040519150601f19603f3d011682016040523d82523d6000602084013e6126d6565b606091505b50509050806106c45760405162461bcd60e51b815260040180806020018281038252602d81526020018061383f602d913960400191505060405180910390fd5b846001600160a01b0316632b7c7b11826040518263ffffffff1660e01b815260040180828152602001915050600060405180830381600087803b15801561275c57600080fd5b505af1158015612770573d6000803e3d6000fd5b50505050836001600160a01b03166340c10f1984846040518363ffffffff1660e01b815260040180836001600160a01b0316815260200182815260200192505050600060405180830381600087803b1580156127cb57600080fd5b505af11580156127df573d6000803e3d6000fd5b505050505050505050565b60006127f5306132f0565b15905090565b600254600160a81b900460ff168061281657506128166127ea565b8061282b5750600254600160a01b900460ff16155b6128665760405162461bcd60e51b815260040180806020018281038252602e81526020018061390c602e913960400191505060405180910390fd5b600254600160a81b900460ff1615801561289d576002805460ff60a01b1960ff60a81b19909116600160a81b1716600160a01b1790555b6128a56132f6565b6128ad6133ad565b8015611eb7576002805460ff60a81b1916905550565b60007f0000000000000000000000000000000000000000000000000000000000000000116128ed57fe5b6128f68a6134ab565b6128ff896134ab565b612908886134ab565b612911876134ab565b61291a866134ab565b612923856134ab565b61292c846134ab565b612935836134ab565b61293e826134ab565b612947816134ab565b6129508a613506565b606780546001600160a01b03199081166001600160a01b038d81169182179093556000805483168d85161790556001805483168c85161790556068805483168b85161790556069805483168a8516179055606a80548316898516179055600280548316888516179055606e80548316878516179055606d80548316868516179055606c805483169385169384179055606b8054909216909217905560408051918252517f143219c9e69b09e07e095fcc889b43d8f46ca892bba65f08dc3a0050869a5678916020908290030190a1604080516001600160a01b038b16815290517f78f058b189175430c48dc02699e3a0031ea4ff781536dc2fab847de4babdd8829181900360200190a1604080516001600160a01b038a16815290517f5ee0cae2f063ed938bb55046f6a932fb6ae792bf43624806bb90abe68a50be9b9181900360200190a1604080516001600160a01b038916815290517f82966d27eea39b038ee0fa30cd16532bb24f6e65d31cb58fb227aa5766cdcc7f9181900360200190a1604080516001600160a01b038816815290517fcfb07d791fcafc032b35837b50eb84b74df518cf4cc287e8084f47630fa70fa09181900360200190a1604080516001600160a01b038716815290517fe67f36a6e961157d6eff83b91f3af5a62131ceb6f04954ef74f51c1c05e7f88d9181900360200190a1604080516001600160a01b038616815290517f8c537274438aa850a330284665d81a85dd38267d09e4050d416bfc94142db2649181900360200190a1604080516001600160a01b038516815290517f65f4cf077bc01e4742eb5ad98326f6e95b63548ea24b17f8d5e823111fe788009181900360200190a1604080516001600160a01b038416815290517f112220fa8dbe96141556e0dc3d74dd95075b323f4f297616048e02d82d7017159181900360200190a1604080516001600160a01b038316815290517ff81a824d1d9030c0365252fb96daf0565f9c2007c88e13001379dda7f06d5d5c9181900360200190a150505050505050505050565b60008111611eb75760405162461bcd60e51b8152600401808060200182810382526037815260200180613c266037913960400191505060405180910390fd5b341580612c90575080155b611eb75760405162461bcd60e51b815260040180806020018281038252603081526020018061386c6030913960400191505060405180910390fd5b34151580612cd857508115155b80612ce257508015155b610be85760405162461bcd60e51b815260040180806020018281038252604681526020018061396c6046913960600191505060405180910390fd5b6000808315612d3157508290506001612d35565b8291505b9250929050565b6000806000612d4f8a8a8a8a8a8a6136aa565b915091506000612d60838387612597565b9b9a5050505050505050505050565b8315612da857612d7e836136ed565b8115612da357612d918160e001516125f8565b612da38160e001518260c0015161372a565b610bd0565b612db58160e0015161263f565b612dd2816020015182606001518360400151858560000151611fce565b6101008201819052610bd090612041565b6000610b8d827f0000000000000000000000000000000000000000000000000000000000000000611eba565b612e39827f0000000000000000000000000000000000000000000000000000000000000000611eba565b811115610be85760405162461bcd60e51b8152600401808060200182810382526043815260200180613b8a6043913960600191505060405180910390fd5b600080600085612f0957886001600160a01b031663d3d6f84389896040518363ffffffff1660e01b815260040180836001600160a01b0316815260200182815260200192505050602060405180830381600087803b158015612ed857600080fd5b505af1158015612eec573d6000803e3d6000fd5b505050506040513d6020811015612f0257600080fd5b5051612f8d565b886001600160a01b03166372423c1789896040518363ffffffff1660e01b815260040180836001600160a01b0316815260200182815260200192505050602060405180830381600087803b158015612f6057600080fd5b505af1158015612f74573d6000803e3d6000fd5b505050506040513d6020811015612f8a57600080fd5b50515b905060008461301e57896001600160a01b03166312610e928a886040518363ffffffff1660e01b815260040180836001600160a01b0316815260200182815260200192505050602060405180830381600087803b158015612fed57600080fd5b505af1158015613001573d6000803e3d6000fd5b505050506040513d602081101561301757600080fd5b50516130a2565b896001600160a01b0316639976cf458a886040518363ffffffff1660e01b815260040180836001600160a01b0316815260200182815260200192505050602060405180830381600087803b15801561307557600080fd5b505af1158015613089573d6000803e3d6000fd5b505050506040513d602081101561309f57600080fd5b50515b919a91995090975050505050505050565b60008060006130c68989898989896136aa565b9150915060006130d683836125c9565b9a9950505050505050505050565b81156130fc576130f78888888685612716565b613108565b61310888888886612088565b831561311d576131188886612686565b612151565b876001600160a01b0316628063a587876040518363ffffffff1660e01b815260040180836001600160a01b0316815260200182815260200192505050600060405180830381600087803b15801561317357600080fd5b505af1158015613187573d6000803e3d6000fd5b505050505050505050505050565b6000806131a0611471565b905060006131ac610d1f565b90506131b9828286612597565b949350505050565b60006131d9836125af86670de0b6b3a7640000613230565b905081811115610bd0576040805162461bcd60e51b815260206004820152601d60248201527f4665652065786365656465642070726f7669646564206d6178696d756d000000604482015290519081900360640190fd5b60008261323f57506000610b8d565b8282028284828161324c57fe5b04146121e55760405162461bcd60e51b81526004018080602001828103825260218152602001806139b26021913960400191505060405180910390fd5b60008082116132df576040805162461bcd60e51b815260206004820152601a60248201527f536166654d6174683a206469766973696f6e206279207a65726f000000000000604482015290519081900360640190fd5b8183816132e857fe5b049392505050565b3b151590565b600254600160a81b900460ff168061331157506133116127ea565b806133265750600254600160a01b900460ff16155b6133615760405162461bcd60e51b815260040180806020018281038252602e81526020018061390c602e913960400191505060405180910390fd5b600254600160a81b900460ff161580156128ad576002805460ff60a01b1960ff60a81b19909116600160a81b1716600160a01b1790558015611eb7576002805460ff60a81b1916905550565b600254600160a81b900460ff16806133c857506133c86127ea565b806133dd5750600254600160a01b900460ff16155b6134185760405162461bcd60e51b815260040180806020018281038252602e81526020018061390c602e913960400191505060405180910390fd5b600254600160a81b900460ff1615801561344f576002805460ff60a01b1960ff60a81b19909116600160a81b1716600160a01b1790555b6000613459612187565b603580546001600160a01b0319166001600160a01b03831690811790915560405191925090600090600080516020613a1c833981519152908290a3508015611eb7576002805460ff60a81b1916905550565b6001600160a01b038116611eb7576040805162461bcd60e51b815260206004820152601e60248201527f4163636f756e742063616e6e6f74206265207a65726f20616464726573730000604482015290519081900360640190fd5b7f0000000000000000000000000000000000000000000000000000000000000000816001600160a01b031663139f2e8c6040518163ffffffff1660e01b815260040160206040518083038186803b15801561356057600080fd5b505afa158015613574573d6000803e3d6000fd5b505050506040513d602081101561358a57600080fd5b5051146135da576040805162461bcd60e51b815260206004820152601960248201527808e82a6be869e9aa08a9ca682a8929e9c40dad2e6dac2e8c6d603b1b604482015290519081900360640190fd5b7f0000000000000000000000000000000000000000000000000000000000000000816001600160a01b0316631bf435556040518163ffffffff1660e01b815260040160206040518083038186803b15801561363457600080fd5b505afa158015613648573d6000803e3d6000fd5b505050506040513d602081101561365e57600080fd5b505114611eb7576040805162461bcd60e51b815260206004820152601560248201527409a929cbe9c8aa8be888a84a840dad2e6dac2e8c6d605b1b604482015290519081900360640190fd5b6000808787866136c3576136be8a89611eba565b6136cd565b6136cd8a8961218b565b9150846136e3576136de8987611eba565b6130a2565b6130a2898761218b565b8015611eb75760405162461bcd60e51b815260040180806020018281038252603e815260200180613a8a603e913960400191505060405180910390fd5b80821015610be85760405162461bcd60e51b815260040180806020018281038252603e815260200180613c5d603e913960400191505060405180910390fd5b60405180610100016040528060008152602001600081526020016000815260200160008152602001600081526020016000815260200160008152602001600081525090565b604051806101a00160405280600081526020016000815260200160008152602001600015158152602001600081526020016000815260200160008152602001600081526020016000815260200160008152602001600081526020016000815260200160008152509056fe4f776e61626c653a206e6577206f776e657220697320746865207a65726f2061646472657373426f72726f7765724f70733a2053656e64696e672046494c20746f20416374697665506f6f6c206661696c6564426f72726f7765724f7065726174696f6e733a2043616e6e6f7420776974686472617720616e642061646420636f6c6c426f72726f7765724f70733a204f7065726174696f6e206e6f74207065726d697474656420647572696e67205265636f76657279204d6f6465426f72726f7765724f70733a204f7065726174696f6e206d757374206c656176652074726f7665207769746820494352203e3d20434352496e697469616c697a61626c653a20636f6e747261637420697320616c726561647920696e697469616c697a65644d6178206665652070657263656e74616765206d757374206c657373207468616e206f7220657175616c20746f2031303025426f72726f7765724f70733a205468657265206d75737420626520656974686572206120636f6c6c61746572616c206368616e6765206f7220612064656274206368616e6765536166654d6174683a206d756c7469706c69636174696f6e206f766572666c6f77426f72726f7765724f70733a20416e206f7065726174696f6e207468617420776f756c6420726573756c7420696e20544352203c20434352206973206e6f74207065726d69747465648be0079c531659141344cd1fd0a4f28419497f9722a3daafe3b4186f6b6457e0426f72726f7765724f70733a2054726f766520646f6573206e6f74206578697374206f7220697320636c6f736564c3770d654ed33aeea6bf11ac8ef05d02a6a04ed4686dd2f624d853bbec43cc8b426f72726f7765724f70733a20436f6c6c61746572616c207769746864726177616c206e6f74207065726d6974746564205265636f76657279204d6f6465426f72726f7765724f70733a2043616c6c657220646f65736e74206861766520656e6f75676820746f6b656e7320746f206d616b652072657061796d656e74426f72726f7765724f70733a20416e206f7065726174696f6e207468617420776f756c6420726573756c7420696e20494352203c204d4352206973206e6f74207065726d6974746564426f72726f7765724f70733a2054726f76652773206e65742064656274206d7573742062652067726561746572207468616e206d696e696d756d426f72726f7765724f70733a20416d6f756e7420726570616964206d757374206e6f74206265206c6172676572207468616e207468652054726f766527732064656274426f72726f7765724f70733a2043616c6c6572206973206e6f742053746162696c69747920506f6f6c4d6178206665652070657263656e74616765206d757374206265206265747765656e20302e352520616e642031303025426f72726f7765724f70733a204465627420696e637265617365207265717569726573206e6f6e2d7a65726f20646562744368616e6765426f72726f7765724f70733a2043616e6e6f7420646563726561736520796f75722054726f766527732049435220696e205265636f76657279204d6f6465a2646970667358221220da0b598d83644942e71e5e2bd053b3af4f259f1a92154127b7e9f01940b77c8564736f6c63430007060033608060405234801561001057600080fd5b50610f6f806100206000396000f3fe6080604052600436106100c05760003560e01c80638da5cb5b1161006f5780638da5cb5b14610229578063a3f4df7e1461023e578063aac1846f146102c8578063b7f8cf9b146102dd578063c5c3937e146102f2578063f2fde38b14610307578063f8c8765e1461033a57610113565b80628063a5146101185780630b622ab21461015357806314a6bf0f146101845780632a7ba1f7146101ab5780632b7c7b11146101d55780635a4d28bb146101ff578063715018a61461021457610113565b36610113576100cd610385565b6069546100da90346103e5565b606981905560408051918252517f2536de1d7bbba20957818a5226a7b6c5b54fffc650060e673fa6d8850ddd4e979181900360200190a1005b600080fd5b34801561012457600080fd5b506101516004803603604081101561013b57600080fd5b506001600160a01b038135169060200135610446565b005b34801561015f57600080fd5b50610168610581565b604080516001600160a01b039092168252519081900360200190f35b34801561019057600080fd5b50610199610590565b60408051918252519081900360200190f35b3480156101b757600080fd5b50610151600480360360208110156101ce57600080fd5b5035610596565b3480156101e157600080fd5b50610151600480360360208110156101f857600080fd5b50356105e5565b34801561020b57600080fd5b506101686105fa565b34801561022057600080fd5b50610151610609565b34801561023557600080fd5b506101686106b5565b34801561024a57600080fd5b506102536106c4565b6040805160208082528351818301528351919283929083019185019080838360005b8381101561028d578181015183820152602001610275565b50505050905090810190601f1680156102ba5780820380516001836020036101000a031916815260200191505b509250505060405180910390f35b3480156102d457600080fd5b506101686106ea565b3480156102e957600080fd5b506101686106f9565b3480156102fe57600080fd5b50610199610708565b34801561031357600080fd5b506101516004803603602081101561032a57600080fd5b50356001600160a01b031661070e565b34801561034657600080fd5b506101516004803603608081101561035d57600080fd5b506001600160a01b038135811691602081013582169160408201358116916060013516610811565b6065546001600160a01b03163314806103a857506068546001600160a01b031633145b6103e35760405162461bcd60e51b8152600401808060200182810382526031815260200180610ee96031913960400191505060405180910390fd5b565b60008282018381101561043f576040805162461bcd60e51b815260206004820152601b60248201527f536166654d6174683a206164646974696f6e206f766572666c6f770000000000604482015290519081900360640190fd5b9392505050565b61044e6108cb565b60695461045b908261093e565b606981905560408051918252517f2536de1d7bbba20957818a5226a7b6c5b54fffc650060e673fa6d8850ddd4e979181900360200190a1604080516001600160a01b03841681526020810183905281517f3b2482b1bf6e751427503c9a8bf79e4dba3e6519259e2220428c2f326cc79c14929181900390910190a16040516000906001600160a01b0384169083908381818185875af1925050503d8060008114610521576040519150601f19603f3d011682016040523d82523d6000602084013e610526565b606091505b505090508061057c576040805162461bcd60e51b815260206004820152601e60248201527f416374697665506f6f6c3a2073656e64696e672046494c206661696c65640000604482015290519081900360640190fd5b505050565b6067546001600160a01b031681565b606a5490565b61059e6108cb565b606a546105ab908261093e565b606a81905560408051918252517f13193833722dafec703db5d698ec64bbad69b90300d7ef30037df03a1412d5089181900360200190a150565b6105ed61099b565b606a546105ab90826103e5565b6066546001600160a01b031681565b6106116109f9565b6001600160a01b03166106226106b5565b6001600160a01b03161461067d576040805162461bcd60e51b815260206004820181905260248201527f4f776e61626c653a2063616c6c6572206973206e6f7420746865206f776e6572604482015290519081900360640190fd5b6033546040516000916001600160a01b031690600080516020610f1a833981519152908390a3603380546001600160a01b0319169055565b6033546001600160a01b031690565b6040518060400160405280600a8152602001691058dd1a5d99541bdbdb60b21b81525081565b6068546001600160a01b031681565b6065546001600160a01b031681565b60695490565b6107166109f9565b6001600160a01b03166107276106b5565b6001600160a01b031614610782576040805162461bcd60e51b815260206004820181905260248201527f4f776e61626c653a2063616c6c6572206973206e6f7420746865206f776e6572604482015290519081900360640190fd5b6001600160a01b0381166107c75760405162461bcd60e51b8152600401808060200182810382526026815260200180610e426026913960400191505060405180910390fd5b6033546040516001600160a01b03808416921690600080516020610f1a83398151915290600090a3603380546001600160a01b0319166001600160a01b0392909216919091179055565b600054610100900460ff168061082a575061082a6109fd565b80610838575060005460ff16155b6108735760405162461bcd60e51b815260040180806020018281038252602e815260200180610e68602e913960400191505060405180910390fd5b600054610100900460ff1615801561089e576000805460ff1961ff0019909116610100171660011790555b6108a6610a0e565b6108b285858585610ac0565b80156108c4576000805461ff00191690555b5050505050565b6065546001600160a01b03163314806108ee57506066546001600160a01b031633145b8061090357506067546001600160a01b031633145b6103e35760405162461bcd60e51b8152600401808060200182810382526053815260200180610e966053913960600191505060405180910390fd5b600082821115610995576040805162461bcd60e51b815260206004820152601e60248201527f536166654d6174683a207375627472616374696f6e206f766572666c6f770000604482015290519081900360640190fd5b50900390565b6065546001600160a01b03163314806109be57506066546001600160a01b031633145b6103e35760405162461bcd60e51b8152600401808060200182810382526041815260200180610e016041913960600191505060405180910390fd5b3390565b6000610a0830610c18565b15905090565b600054610100900460ff1680610a275750610a276109fd565b80610a35575060005460ff16155b610a705760405162461bcd60e51b815260040180806020018281038252602e815260200180610e68602e913960400191505060405180910390fd5b600054610100900460ff16158015610a9b576000805460ff1961ff0019909116610100171660011790555b610aa3610c1e565b610aab610cbe565b8015610abd576000805461ff00191690555b50565b610ac984610da5565b610ad283610da5565b610adb82610da5565b610ae481610da5565b606580546001600160a01b038087166001600160a01b031992831681179093556066805487831690841617905560678054868316908416179055606880549185169190921617905560408051918252517f3ca631ffcd2a9b5d9ae18543fc82f58eb4ca33af9e6ab01b7a8e95331e6ed9859181900360200190a1604080516001600160a01b038516815290517f143219c9e69b09e07e095fcc889b43d8f46ca892bba65f08dc3a0050869a56789181900360200190a1604080516001600160a01b038416815290517f82966d27eea39b038ee0fa30cd16532bb24f6e65d31cb58fb227aa5766cdcc7f9181900360200190a1604080516001600160a01b038316815290517f5ee0cae2f063ed938bb55046f6a932fb6ae792bf43624806bb90abe68a50be9b9181900360200190a150505050565b3b151590565b600054610100900460ff1680610c375750610c376109fd565b80610c45575060005460ff16155b610c805760405162461bcd60e51b815260040180806020018281038252602e815260200180610e68602e913960400191505060405180910390fd5b600054610100900460ff16158015610aab576000805460ff1961ff0019909116610100171660011790558015610abd576000805461ff001916905550565b600054610100900460ff1680610cd75750610cd76109fd565b80610ce5575060005460ff16155b610d205760405162461bcd60e51b815260040180806020018281038252602e815260200180610e68602e913960400191505060405180910390fd5b600054610100900460ff16158015610d4b576000805460ff1961ff0019909116610100171660011790555b6000610d556109f9565b603380546001600160a01b0319166001600160a01b03831690811790915560405191925090600090600080516020610f1a833981519152908290a3508015610abd576000805461ff001916905550565b6001600160a01b038116610abd576040805162461bcd60e51b815260206004820152601e60248201527f4163636f756e742063616e6e6f74206265207a65726f20616464726573730000604482015290519081900360640190fdfe416374697665506f6f6c3a2043616c6c6572206973206e65697468657220426f72726f7765724f7065726174696f6e73206e6f722054726f76654d616e616765724f776e61626c653a206e6577206f776e657220697320746865207a65726f2061646472657373496e697469616c697a61626c653a20636f6e747261637420697320616c726561647920696e697469616c697a6564416374697665506f6f6c3a2043616c6c6572206973206e65697468657220426f72726f7765724f7065726174696f6e73206e6f722054726f76654d616e61676572206e6f722053746162696c697479506f6f6c416374697665506f6f6c3a2043616c6c6572206973206e65697468657220424f206e6f722044656661756c7420506f6f6c8be0079c531659141344cd1fd0a4f28419497f9722a3daafe3b4186f6b6457e0a26469706673582212208b12696f8d409a3b61aefec81e98777d13e19a2bf0e5fb58fcaa5cd8db72ffa964736f6c63430007060033608060405234801561001057600080fd5b50610d46806100206000396000f3fe6080604052600436106100ab5760003560e01c80638da5cb5b116100645780638da5cb5b146102015780638f7be73014610216578063a3f4df7e14610240578063b08bc722146102ca578063c5c3937e146102df578063f2fde38b146102f4576100fe565b806314a6bf0f146101035780632a7ba1f71461012a5780632b7c7b1114610156578063485cc955146101805780635a4d28bb146101bb578063715018a6146101ec576100fe565b366100fe576100b8610327565b6067546100c59034610372565b606781905560408051918252517f4b2f6ed6b83441c39265015e9ad3fca5c5f8dbc85d6843e4f7db7f9108ab95959181900360200190a1005b600080fd5b34801561010f57600080fd5b506101186103d3565b60408051918252519081900360200190f35b34801561013657600080fd5b506101546004803603602081101561014d57600080fd5b50356103d9565b005b34801561016257600080fd5b506101546004803603602081101561017957600080fd5b5035610428565b34801561018c57600080fd5b50610154600480360360408110156101a357600080fd5b506001600160a01b038135811691602001351661043d565b3480156101c757600080fd5b506101d06104f3565b604080516001600160a01b039092168252519081900360200190f35b3480156101f857600080fd5b50610154610502565b34801561020d57600080fd5b506101d06105ae565b34801561022257600080fd5b506101546004803603602081101561023957600080fd5b50356105bd565b34801561024c57600080fd5b50610255610702565b6040805160208082528351818301528351919283929083019185019080838360005b8381101561028f578181015183820152602001610277565b50505050905090810190601f1680156102bc5780820380516001836020036101000a031916815260200191505b509250505060405180910390f35b3480156102d657600080fd5b506101d0610729565b3480156102eb57600080fd5b50610118610738565b34801561030057600080fd5b506101546004803603602081101561031757600080fd5b50356001600160a01b031661073e565b6066546001600160a01b031633146103705760405162461bcd60e51b8152600401808060200182810382526029815260200180610c496029913960400191505060405180910390fd5b565b6000828201838110156103cc576040805162461bcd60e51b815260206004820152601b60248201527f536166654d6174683a206164646974696f6e206f766572666c6f770000000000604482015290519081900360640190fd5b9392505050565b60685490565b6103e1610841565b6068546103ee908261088a565b606881905560408051918252517fbb6a805312efea216263577adb96966134cba8b860bdaa40afcdc38f4dbcf62e9181900360200190a150565b610430610841565b6068546103ee9082610372565b600054610100900460ff168061045657506104566108e7565b80610464575060005460ff16155b61049f5760405162461bcd60e51b815260040180806020018281038252602e815260200180610c98602e913960400191505060405180910390fd5b600054610100900460ff161580156104ca576000805460ff1961ff0019909116610100171660011790555b6104d26108f8565b6104dc83836109aa565b80156104ee576000805461ff00191690555b505050565b6065546001600160a01b031681565b61050a610a5c565b6001600160a01b031661051b6105ae565b6001600160a01b031614610576576040805162461bcd60e51b815260206004820181905260248201527f4f776e61626c653a2063616c6c6572206973206e6f7420746865206f776e6572604482015290519081900360640190fd5b6033546040516000916001600160a01b031690600080516020610cc6833981519152908390a3603380546001600160a01b0319169055565b6033546001600160a01b031690565b6105c5610841565b6066546067546001600160a01b03909116906105e1908361088a565b606781905560408051918252517f4b2f6ed6b83441c39265015e9ad3fca5c5f8dbc85d6843e4f7db7f9108ab95959181900360200190a1604080516001600160a01b03831681526020810184905281517f3b2482b1bf6e751427503c9a8bf79e4dba3e6519259e2220428c2f326cc79c14929181900390910190a16040516000906001600160a01b0383169084908381818185875af1925050503d80600081146106a7576040519150601f19603f3d011682016040523d82523d6000602084013e6106ac565b606091505b50509050806104ee576040805162461bcd60e51b815260206004820152601f60248201527f44656661756c74506f6f6c3a2073656e64696e672046494c206661696c656400604482015290519081900360640190fd5b6040518060400160405280600b81526020016a111959985d5b1d141bdbdb60aa1b81525081565b6066546001600160a01b031681565b60675490565b610746610a5c565b6001600160a01b03166107576105ae565b6001600160a01b0316146107b2576040805162461bcd60e51b815260206004820181905260248201527f4f776e61626c653a2063616c6c6572206973206e6f7420746865206f776e6572604482015290519081900360640190fd5b6001600160a01b0381166107f75760405162461bcd60e51b8152600401808060200182810382526026815260200180610c726026913960400191505060405180910390fd5b6033546040516001600160a01b03808416921690600080516020610cc683398151915290600090a3603380546001600160a01b0319166001600160a01b0392909216919091179055565b6065546001600160a01b031633146103705760405162461bcd60e51b815260040180806020018281038252602b815260200180610ce6602b913960400191505060405180910390fd5b6000828211156108e1576040805162461bcd60e51b815260206004820152601e60248201527f536166654d6174683a207375627472616374696f6e206f766572666c6f770000604482015290519081900360640190fd5b50900390565b60006108f230610a60565b15905090565b600054610100900460ff168061091157506109116108e7565b8061091f575060005460ff16155b61095a5760405162461bcd60e51b815260040180806020018281038252602e815260200180610c98602e913960400191505060405180910390fd5b600054610100900460ff16158015610985576000805460ff1961ff0019909116610100171660011790555b61098d610a66565b610995610b06565b80156109a7576000805461ff00191690555b50565b6109b382610bed565b6109bc81610bed565b606580546001600160a01b038085166001600160a01b03199283168117909355606680549185169190921617905560408051918252517f143219c9e69b09e07e095fcc889b43d8f46ca892bba65f08dc3a0050869a56789181900360200190a1604080516001600160a01b038316815290517f78f058b189175430c48dc02699e3a0031ea4ff781536dc2fab847de4babdd8829181900360200190a15050565b3390565b3b151590565b600054610100900460ff1680610a7f5750610a7f6108e7565b80610a8d575060005460ff16155b610ac85760405162461bcd60e51b815260040180806020018281038252602e815260200180610c98602e913960400191505060405180910390fd5b600054610100900460ff16158015610995576000805460ff1961ff00199091166101001716600117905580156109a7576000805461ff001916905550565b600054610100900460ff1680610b1f5750610b1f6108e7565b80610b2d575060005460ff16155b610b685760405162461bcd60e51b815260040180806020018281038252602e815260200180610c98602e913960400191505060405180910390fd5b600054610100900460ff16158015610b93576000805460ff1961ff0019909116610100171660011790555b6000610b9d610a5c565b603380546001600160a01b0319166001600160a01b03831690811790915560405191925090600090600080516020610cc6833981519152908290a35080156109a7576000805461ff001916905550565b6001600160a01b0381166109a7576040805162461bcd60e51b815260206004820152601e60248201527f4163636f756e742063616e6e6f74206265207a65726f20616464726573730000604482015290519081900360640190fdfe44656661756c74506f6f6c3a2043616c6c6572206973206e6f742074686520416374697665506f6f6c4f776e61626c653a206e6577206f776e657220697320746865207a65726f2061646472657373496e697469616c697a61626c653a20636f6e747261637420697320616c726561647920696e697469616c697a65648be0079c531659141344cd1fd0a4f28419497f9722a3daafe3b4186f6b6457e044656661756c74506f6f6c3a2043616c6c6572206973206e6f74207468652054726f76654d616e61676572a2646970667358221220f26be006b33e23bf5ecb9d7b9c22d4313d35eabe8d07484fb17fdd9e25c5c26b64736f6c6343000706003360c060405234801561001057600080fd5b50604051613dd8380380613dd88339818101604052604081101561003357600080fd5b508051602090910151608082905260a0819052613d6b61006d60003980610d3f5280613854525080610ce052806137805250613d6b6000f3fe6080604052600436106102a25760003560e01c8063794e572411610165578063a4e59ac8116100cc578063dae4f5ff11610085578063dae4f5ff14610953578063df9cd84f14610986578063f2fde38b146109b9578063f8225a10146109ec578063f8d8989814610a01578063f92d343314610a16578063fc7e286d14610a2b576102e3565b8063a4e59ac81461089e578063a7a48884146108b3578063a7bfff97146108c8578063ae91875414610914578063c5c3937e14610929578063ce4b5bbe1461093e576102e3565b80638b8fbd921161011e5780638b8fbd921461079a5780638da5cb5b146107af57806395ca53be146107c457806395fb16bb146107ff578063a20baee614610668578063a3f4df7e14610814576102e3565b8063794e5724146106d8578063795d26c3146106ed5780637f7dde4a1461070257806382e0a5741461071757806386da082414610752578063887105d314610785576102e3565b80633d83908a1161020957806367e8fb20116101c257806367e8fb201461063e578063715018a61461065357806372fe25aa14610668578063741bef1a1461067d578063766718081461069257806377553ad4146106c3576102e3565b80633d83908a146105695780634870dd9a1461057e578063556be101146105935780635733d58f146105bd5780635d2de642146105d25780635f788d6514610605576102e3565b8063203aae0a1161025b578063203aae0a1461040957806328a0a04d1461043c5780632e54bf9514610477578063335525ad146104a357806335876476146104d35780633cc7422514610538576102e3565b80630206d7b9146102e85780630bdfe4e71461032d5780630d9a6b3514610360578063139f2e8c1461037557806316b9d3c51461038a5780631bf43555146103f4576102e3565b366102e3576102af610a7f565b606c546102bc9034610aca565b606c8190556040805191825251600080516020613af88339815191529181900360200190a1005b600080fd5b3480156102f457600080fd5b5061031b6004803603602081101561030b57600080fd5b50356001600160a01b0316610b2d565b60408051918252519081900360200190f35b34801561033957600080fd5b5061031b6004803603602081101561035057600080fd5b50356001600160a01b0316610c3b565b34801561036c57600080fd5b5061031b610cd8565b34801561038157600080fd5b5061031b610cde565b34801561039657600080fd5b506103bd600480360360208110156103ad57600080fd5b50356001600160a01b0316610d02565b604080519586526020860194909452848401929092526001600160801b039081166060850152166080830152519081900360a00190f35b34801561040057600080fd5b5061031b610d3d565b34801561041557600080fd5b5061031b6004803603602081101561042c57600080fd5b50356001600160a01b0316610d61565b34801561044857600080fd5b5061031b6004803603604081101561045f57600080fd5b506001600160801b0381358116916020013516610e32565b34801561048357600080fd5b506104a16004803603602081101561049a57600080fd5b5035610e4f565b005b3480156104af57600080fd5b506104a1600480360360408110156104c657600080fd5b5080359060200135610fc6565b3480156104df57600080fd5b506104a1600480360360e08110156104f657600080fd5b506001600160a01b038135811691602081013582169160408201358116916060810135821691608082013581169160a081013582169160c0909101351661102a565b34801561054457600080fd5b5061054d61110d565b604080516001600160a01b039092168252519081900360200190f35b34801561057557600080fd5b5061054d61111c565b34801561058a57600080fd5b5061031b61112b565b34801561059f57600080fd5b506104a1600480360360208110156105b657600080fd5b5035611130565b3480156105c957600080fd5b5061031b6111a5565b3480156105de57600080fd5b5061031b600480360360208110156105f557600080fd5b50356001600160a01b03166111b1565b34801561061157600080fd5b506104a16004803603604081101561062857600080fd5b50803590602001356001600160a01b03166111c3565b34801561064a57600080fd5b5061031b611332565b34801561065f57600080fd5b506104a1611338565b34801561067457600080fd5b5061031b6113e4565b34801561068957600080fd5b5061054d6113f0565b34801561069e57600080fd5b506106a76113ff565b604080516001600160801b039092168252519081900360200190f35b3480156106cf57600080fd5b5061054d611415565b3480156106e457600080fd5b5061031b611424565b3480156106f957600080fd5b5061031b611430565b34801561070e57600080fd5b5061054d61152b565b34801561072357600080fd5b5061031b6004803603604081101561073a57600080fd5b506001600160801b038135811691602001351661153a565b34801561075e57600080fd5b506103bd6004803603602081101561077557600080fd5b50356001600160a01b0316611557565b34801561079157600080fd5b5061031b611592565b3480156107a657600080fd5b5061031b61164e565b3480156107bb57600080fd5b5061054d611654565b3480156107d057600080fd5b506104a1600480360360408110156107e757600080fd5b506001600160a01b0381358116916020013516611663565b34801561080b57600080fd5b5061054d611886565b34801561082057600080fd5b50610829611895565b6040805160208082528351818301528351919283929083019185019080838360005b8381101561086357818101518382015260200161084b565b50505050905090810190601f1680156108905780820380516001836020036101000a031916815260200191505b509250505060405180910390f35b3480156108aa57600080fd5b506106a76118be565b3480156108bf57600080fd5b5061031b6118cd565b3480156108d457600080fd5b506108fb600480360360208110156108eb57600080fd5b50356001600160a01b03166118d3565b6040805192835290151560208301528051918290030190f35b34801561092057600080fd5b5061054d6118ef565b34801561093557600080fd5b5061031b6118fe565b34801561094a57600080fd5b5061031b611904565b34801561095f57600080fd5b5061031b6004803603602081101561097657600080fd5b50356001600160a01b031661190c565b34801561099257600080fd5b5061031b600480360360208110156109a957600080fd5b50356001600160a01b03166119a0565b3480156109c557600080fd5b506104a1600480360360208110156109dc57600080fd5b50356001600160a01b0316611a34565b3480156109f857600080fd5b5061031b611b37565b348015610a0d57600080fd5b5061054d611b3d565b348015610a2257600080fd5b5061031b611b4c565b348015610a3757600080fd5b50610a5e60048036036020811015610a4e57600080fd5b50356001600160a01b0316611b57565b604080519283526001600160a01b0390911660208301528051918290030190f35b6000546001600160a01b03163314610ac85760405162461bcd60e51b81526004018080602001828103825260278152602001806139e26027913960400191505060405180910390fd5b565b600082820183811015610b24576040805162461bcd60e51b815260206004820152601b60248201527f536166654d6174683a206164646974696f6e206f766572666c6f770000000000604482015290519081900360640190fd5b90505b92915050565b6001600160a01b0381166000908152606e602052604081205480610b55576000915050610c36565b6001600160a01b038084166000908152606e6020526040812060010154909116908115610b9a576001600160a01b038216600090815260706020526040902054610ba4565b670de0b6b3a76400005b6001600160a01b0386166000908152606f60209081526040808320815160a08101835281548152600182015493810193909352600281015491830191909152600301546001600160801b038082166060840152600160801b909104166080820152919250610c2e670de0b6b3a7640000610c28610c218886611b79565b8690611c4d565b90611ca6565b955050505050505b919050565b6001600160a01b0381166000908152606e602052604081205480610c63576000915050610c36565b6001600160a01b0383166000908152606f60209081526040808320815160a08101835281548152600182015493810193909352600281015491830191909152600301546001600160801b038082166060840152600160801b90910416608082015290610ccf8383611d0d565b95945050505050565b606d5490565b7f000000000000000000000000000000000000000000000000000000000000000081565b6072602052600090815260409020805460018201546002830154600390930154919290916001600160801b0380821691600160801b90041685565b7f000000000000000000000000000000000000000000000000000000000000000081565b6001600160a01b03811660009081526071602052604081205480610d89576000915050610c36565b6001600160a01b03831660009081526070602052604081205490610db5670de0b6b3a764000083611dfd565b6001600160a01b0386166000908152607260209081526040808320815160a08101835281548152600182015493810193909352600281015491830191909152600301546001600160801b038082166060840152600160801b909104166080820152919250610c2e670de0b6b3a7640000610c28610c218886611b79565b607560209081526000928352604080842090915290825290205481565b8015610e5d57610e5d611e5a565b336000908152606e6020526040902054610e7681612017565b606b546001600160a01b0316610e8b81612059565b6000610e963361190c565b90506000610ea333610c3b565b90506000610eb186836120cd565b90506000610ebf8684611dfd565b336000818152606e60205260409020600101549192506001600160a01b0390911690610eed908790836120e3565b6000610ef8826119a0565b90506000610f068286611dfd565b9050610f128382612270565b6040805182815233602082015281516001600160a01b03861692600080516020613cd2833981519152928290030190a2610f4c33866123bc565b6000610f588787611dfd565b9050610f643382612442565b6040805182815290513391600080516020613a37833981519152919081900360200190a2604080518981526020810187905281513392600080516020613b91833981519152928290030190a2610fb9886125c8565b5050505050505050505050565b610fce6126ce565b606d54801580610fdc575082155b15610fe75750611026565b606b54610ffc906001600160a01b0316612059565b60008061100a848685612717565b9150915061101882826127e0565b6110228486612aaa565b5050505b5050565b600254600160a81b900460ff16806110455750611045612beb565b8061105a5750600254600160a01b900460ff16155b6110955760405162461bcd60e51b815260040180806020018281038252602e815260200180613a09602e913960400191505060405180910390fd5b600254600160a81b900460ff161580156110cc576002805460ff60a01b1960ff60a81b19909116600160a81b1716600160a01b1790555b6110d4612bfc565b6110e388888888888888612cc4565b670de0b6b3a76400006073558015611103576002805460ff60a81b191690555b5050505050505050565b6001546001600160a01b031681565b6068546001600160a01b031681565b60c881565b61113933612f1d565b61114233612f78565b61114b81612fce565b336000818152607060209081526040918290208481556001908101805460ff19169091179055815184815291517f19bc932fb9e16a8b5a1e41be9f4c2de59d5ddd7567b8b81405f532ca00a9880e9281900390910190a250565b6714d1120d7b16000081565b60716020526000908152604090205481565b6111cc81613015565b6111d533612f1d565b6111de82613081565b336000908152606e6020526040902054606b546001600160a01b031661120381612059565b816112125761121233846130c0565b600061121d3361190c565b9050600061122a33610c3b565b905060006112388583611dfd565b336000818152606e60205260409020600101549192506001600160a01b0390911690611266908690836120e3565b6000611271826119a0565b9050600061127f828b610aca565b905061128b8382612270565b6040805182815233602082015281516001600160a01b03861692600080516020613cd2833981519152928290030190a26112c5338b61311a565b60006112d1868c610aca565b90506112dd3382612442565b6040805182815290513391600080516020613a37833981519152919081900360200190a2604080518881526020810187905281513392600080516020613b91833981519152928290030190a2610fb9876125c8565b60785481565b6113406131de565b6001600160a01b0316611351611654565b6001600160a01b0316146113ac576040805162461bcd60e51b815260206004820181905260248201527f4f776e61626c653a2063616c6c6572206973206e6f7420746865206f776e6572604482015290519081900360640190fd5b6035546040516000916001600160a01b031690600080516020613b4b833981519152908390a3603580546001600160a01b0319169055565b670de0b6b3a764000081565b6002546001600160a01b031681565b607454600160801b90046001600160801b031681565b6067546001600160a01b031681565b670f43fc2c04ee000081565b60008054604080516314a6bf0f60e01b8152905183926001600160a01b0316916314a6bf0f916004808301926020929190829003018186803b15801561147557600080fd5b505afa158015611489573d6000803e3d6000fd5b505050506040513d602081101561149f57600080fd5b5051600154604080516314a6bf0f60e01b815290519293506000926001600160a01b03909216916314a6bf0f91600480820192602092909190829003018186803b1580156114ec57600080fd5b505afa158015611500573d6000803e3d6000fd5b505050506040513d602081101561151657600080fd5b505190506115248282610aca565b9250505090565b6000546001600160a01b031681565b607660209081526000928352604080842090915290825290205481565b606f602052600090815260409020805460018201546002830154600390930154919290916001600160801b0380821691600160801b90041685565b60008054604080516362e1c9bf60e11b8152905183926001600160a01b03169163c5c3937e916004808301926020929190829003018186803b1580156115d757600080fd5b505afa1580156115eb573d6000803e3d6000fd5b505050506040513d602081101561160157600080fd5b5051600154604080516362e1c9bf60e11b815290519293506000926001600160a01b039092169163c5c3937e91600480820192602092909190829003018186803b1580156114ec57600080fd5b60735481565b6035546001600160a01b031690565b336000908152606e602052604090205461167c81612017565b611685336131e2565b61168e33613299565b606b546001600160a01b03166116a381612059565b60006116ae3361190c565b905060006116bb33610c3b565b905060006116c98583611dfd565b336000818152606e60205260409020600101549192506001600160a01b03909116906116f7908690836120e3565b6000611702826119a0565b90508061170f8382612270565b6040805182815233602082015281516001600160a01b03861692600080516020613cd2833981519152928290030190a26117493386612442565b604080518781526020810186905281513392600080516020613b91833981519152928290030190a26040805186815290513391600080516020613a37833981519152919081900360200190a2606c546117a29087611dfd565b606c8190556040805191825251600080516020613af88339815191529181900360200190a1604080513381526020810188905281517f3b2482b1bf6e751427503c9a8bf79e4dba3e6519259e2220428c2f326cc79c14929181900390910190a160675460408051630721ec6760e11b81523360048201526001600160a01b038d811660248301528c8116604483015291519190921691630e43d8ce91899160648082019260009290919082900301818588803b15801561186157600080fd5b505af1158015611875573d6000803e3d6000fd5b505050505050505050505050505050565b606b546001600160a01b031681565b6040518060400160405280600d81526020016c14dd18589a5b1a5d1e541bdbdb609a1b81525081565b6074546001600160801b031681565b60795481565b6070602052600090815260409020805460019091015460ff1682565b606a546001600160a01b031681565b606c5490565b633b9aca0081565b6001600160a01b0381166000908152606e602052604081205480611934576000915050610c36565b6001600160a01b0383166000908152606f60209081526040808320815160a08101835281548152600182015493810193909352600281015491830191909152600301546001600160801b038082166060840152600160801b90910416608082015290610ccf83836132e5565b6001600160a01b038116600090815260716020526040812054806119c8576000915050610c36565b6001600160a01b0383166000908152607260209081526040808320815160a08101835281548152600182015493810193909352600281015491830191909152600301546001600160801b038082166060840152600160801b90910416608082015290610ccf8383611d0d565b611a3c6131de565b6001600160a01b0316611a4d611654565b6001600160a01b031614611aa8576040805162461bcd60e51b815260206004820181905260248201527f4f776e61626c653a2063616c6c6572206973206e6f7420746865206f776e6572604482015290519081900360640190fd5b6001600160a01b038116611aed5760405162461bcd60e51b81526004018080602001828103825260268152602001806139766026913960400191505060405180910390fd5b6035546040516001600160a01b03808416921690600080516020613b4b83398151915290600090a3603580546001600160a01b0319166001600160a01b0392909216919091179055565b60775481565b6069546001600160a01b031681565b6611c37937e0800081565b606e60205260009081526040902080546001909101546001600160a01b031682565b608081015160608201516040808401516020808601516001600160801b03808716600090815260768452858120918716815292529281205490949392908590611bc29084611dfd565b6001600160801b03808716600090815260766020526040812092935091611c1991633b9aca0091908490611bf9908a166001613360565b6001600160801b0316815260208101919091526040016000205490611ca6565b90506000611c3f670de0b6b3a7640000610c288681611c388888610aca565b8f90611c4d565b9a9950505050505050505050565b600082611c5c57506000610b27565b82820282848281611c6957fe5b0414610b245760405162461bcd60e51b8152600401808060200182810382526021815260200180613ad76021913960400191505060405180910390fd5b6000808211611cfc576040805162461bcd60e51b815260206004820152601a60248201527f536166654d6174683a206469766973696f6e206279207a65726f000000000000604482015290519081900360640190fd5b818381611d0557fe5b049392505050565b6020810151606082015160808301516074546000939291906001600160801b03600160801b90910481169082161015611d4c5760009350505050610b27565b6074546000908190611d67906001600160801b0316856133b0565b90506001600160801b038116611d9757611d9085610c286073548b611c4d90919063ffffffff16565b9150611dcf565b806001600160801b031660011415611dca57611d90633b9aca00610c2887610c286073548d611c4d90919063ffffffff16565b600091505b611ddd88633b9aca00611ca6565b821015611df257600095505050505050610b27565b509695505050505050565b600082821115611e54576040805162461bcd60e51b815260206004820152601e60248201527f536166654d6174683a207375627472616374696f6e206f766572666c6f770000604482015290519081900360640190fd5b50900390565b60025460408051630fdb11cf60e01b815290516000926001600160a01b031691630fdb11cf91600480830192602092919082900301818787803b158015611ea057600080fd5b505af1158015611eb4573d6000803e3d6000fd5b505050506040513d6020811015611eca57600080fd5b5051606a5460408051634d62283160e01b815290519293506000926001600160a01b0390921691634d62283191600480820192602092909190829003018186803b158015611f1757600080fd5b505afa158015611f2b573d6000803e3d6000fd5b505050506040513d6020811015611f4157600080fd5b505160685460408051630d293c7160e41b81526001600160a01b038085166004830152602482018790529151939450600093919092169163d293c710916044808301926020929190829003018186803b158015611f9d57600080fd5b505afa158015611fb1573d6000803e3d6000fd5b505050506040513d6020811015611fc757600080fd5b50519050670f43fc2c04ee00008110156120125760405162461bcd60e51b8152600401808060200182810382526044815260200180613cf26044913960600191505060405180910390fd5b505050565b600081116120565760405162461bcd60e51b8152600401808060200182810382526030815260200180613ca26030913960400191505060405180910390fd5b50565b6000816001600160a01b0316632eee8bc96040518163ffffffff1660e01b8152600401602060405180830381600087803b15801561209657600080fd5b505af11580156120aa573d6000803e3d6000fd5b505050506040513d60208110156120c057600080fd5b5051905061102681613403565b60008183106120dc5781610b24565b5090919050565b6001600160a01b038116156121af5760006120fd82610d61565b9050836001600160a01b0316638352d63683836040518363ffffffff1660e01b815260040180836001600160a01b0316815260200182815260200192505050600060405180830381600087803b15801561215657600080fd5b505af115801561216a573d6000803e3d6000fd5b50506040805184815290516001600160a01b03861693507fc3c43b5355673e1ea1a83122d1de4fde0584a9e8796843b3b7b33ed9b1aece0292509081900360200190a2505b60006121ba83610b2d565b9050836001600160a01b0316638352d63684836040518363ffffffff1660e01b815260040180836001600160a01b0316815260200182815260200192505050600060405180830381600087803b15801561221357600080fd5b505af1158015612227573d6000803e3d6000fd5b50506040805184815290516001600160a01b03871693507fe57aace4a327c35eab9346657e77499888878556a925f2b460c3f1ce23b093f792509081900360200190a250505050565b6001600160a01b038216600090815260716020526040902081905580612300576001600160a01b0382166000818152607260209081526040808320838155600181018490556002810184905560030183905580518381529182019290925281517fbb1322f85cc7cc8bac4e172a5bc5dcc0c1959007f9a030032abf9258205f0e45929181900390910190a2611026565b6074546073546001600160801b03600160801b80840482166000818152607660209081526040808320978616808452978252808320546001600160a01b038b168085526072845293829020600181018990556002810182905560030180546001600160801b0319168a17909716958502959095179095558451868152908101849052845192959491927fbb1322f85cc7cc8bac4e172a5bc5dcc0c1959007f9a030032abf9258205f0e45929181900390910190a2505050505050565b806123c657611026565b60695460408051631062c15f60e11b81523060048201526001600160a01b03858116602483015260448201859052915191909216916320c582be91606480830192600092919082900301818387803b15801561242157600080fd5b505af1158015612435573d6000803e3d6000fd5b5050505061102681613518565b6001600160a01b0382166000908152606e60205260409020819055806124f0576001600160a01b0382166000818152606e60209081526040808320600190810180546001600160a01b0319169055606f83528184208481559081018490556002810184905560030183905580518381529182018390528181019290925290517f2d6cc0bcdf72c9486f6451bde6b80f44066f4558f77f44dbfedbe7d8b295225a9181900360600190a2611026565b6074546073546001600160801b03600160801b8084048216600081815260756020908152604080832097861680845297825280832054848452607683528184208985528352818420546001600160a01b038c16808652606f855294839020600181018a90558281556002810182905560030180546001600160801b0319168b179098169686029690961790965580518781529182018690528181018590525192959493927f2d6cc0bcdf72c9486f6451bde6b80f44066f4558f77f44dbfedbe7d8b295225a916060908290030190a250505050505050565b806125d257612056565b606c546000906125e29083611dfd565b606c819055604080518281529051919250600080516020613af8833981519152919081900360200190a1604080513381526020810184905281517f3b2482b1bf6e751427503c9a8bf79e4dba3e6519259e2220428c2f326cc79c14929181900390910190a1604051600090339084908381818185875af1925050503d8060008114612689576040519150601f19603f3d011682016040523d82523d6000602084013e61268e565b606091505b50509050806120125760405162461bcd60e51b8152600401808060200182810382526021815260200180613c126021913960400191505060405180910390fd5b6068546001600160a01b03163314610ac85760405162461bcd60e51b8152600401808060200182810382526029815260200180613a576029913960400191505060405180910390fd5b600080600061274360785461273d670de0b6b3a764000089611c4d90919063ffffffff16565b90610aca565b90508385111561274f57fe5b8385141561276c576000607955670de0b6b3a764000091506127b4565b60795460009061278e9061278888670de0b6b3a7640000611c4d565b90611dfd565b905061279f600161273d8388611ca6565b92506127af816127888588611c4d565b607955505b6127be8185611ca6565b92506127d46127cd8486611c4d565b8290611dfd565b60785550935093915050565b6073546000670de0b6b3a76400008311156127f757fe5b600061280b670de0b6b3a764000085611dfd565b6074546001600160801b03600160801b82048116600081815260756020908152604080832094909516808352939052928320549394509092909161284f8988611c4d565b9050600061285d8383610aca565b6001600160801b038086166000818152607560209081526040808320948b16808452948252918290208590558151858152908101929092528181019290925290519192507fe12e2cd2c9afa8069203ca07e7eff1edce4a075686d0736a8e7e0d593597b207919081900360600190a18561298e576128e56001600160801b0385166001613360565b607480546001600160801b03908116600160801b938216840217918290556040805193909204168252517fb50f0f59e7cb5b421dc77581c3a9919e3806e076e5fa78a874c3f120cb7d874d916020908290030190a1607480546001600160801b0319169055604080516000815290517f1f9dfc70cd666adb18a39d60a797518f7b4febf4b6e24ef37d44f6e1e7219fbe9181900360200190a1670de0b6b3a76400009650612a5c565b633b9aca006129a9670de0b6b3a7640000610c288b8a611c4d565b1015612a43576129d3670de0b6b3a7640000610c28633b9aca006129cd8c8b611c4d565b90611c4d565b96506129e96001600160801b0386166001613360565b607480546001600160801b0319166001600160801b0392831617908190556040805191909216815290517f1f9dfc70cd666adb18a39d60a797518f7b4febf4b6e24ef37d44f6e1e7219fbe916020908290030190a1612a5c565b612a59670de0b6b3a7640000610c288a89611c4d565b96505b60008711612a6657fe5b60738790556040805188815290517fc1a9618cb59ebca77cbdbc2949f126823c407ff13edb285fd0262519a9c18e8c9181900360200190a150505050505050505050565b6000805460408051632a7ba1f760e01b81526004810185905290516001600160a01b03909216928392632a7ba1f792602480820193929182900301818387803b158015612af657600080fd5b505af1158015612b0a573d6000803e3d6000fd5b50505050612b1782613518565b60695460408051632770a7eb60e21b81523060048201526024810185905290516001600160a01b0390921691639dc29fac9160448082019260009290919082900301818387803b158015612b6a57600080fd5b505af1158015612b7e573d6000803e3d6000fd5b505060408051628063a560e01b81523060048201526024810187905290516001600160a01b0385169350628063a59250604480830192600092919082900301818387803b158015612bce57600080fd5b505af1158015612be2573d6000803e3d6000fd5b50505050505050565b6000612bf630613568565b15905090565b600254600160a81b900460ff1680612c175750612c17612beb565b80612c2c5750600254600160a01b900460ff16155b612c675760405162461bcd60e51b815260040180806020018281038252602e815260200180613a09602e913960400191505060405180910390fd5b600254600160a81b900460ff16158015612c9e576002805460ff60a01b1960ff60a81b19909116600160a81b1716600160a01b1790555b612ca661356e565b612cae613625565b8015612056576002805460ff60a81b1916905550565b612ccd87613723565b612cd686613723565b612cdf85613723565b612ce884613723565b612cf183613723565b612cfa82613723565b612d0381613723565b612d0c8661377e565b606780546001600160a01b03199081166001600160a01b038a81169182179093556068805483168a8516179055600080548316898516179055606980548316888516179055606a80548316878516179055600280548316868516179055606b805490921692841692909217905560408051918252517f3ca631ffcd2a9b5d9ae18543fc82f58eb4ca33af9e6ab01b7a8e95331e6ed985916020908290030190a1604080516001600160a01b038816815290517f143219c9e69b09e07e095fcc889b43d8f46ca892bba65f08dc3a0050869a56789181900360200190a1604080516001600160a01b038716815290517f78f058b189175430c48dc02699e3a0031ea4ff781536dc2fab847de4babdd8829181900360200190a1604080516001600160a01b038616815290517f112220fa8dbe96141556e0dc3d74dd95075b323f4f297616048e02d82d7017159181900360200190a1604080516001600160a01b038516815290517f65f4cf077bc01e4742eb5ad98326f6e95b63548ea24b17f8d5e823111fe788009181900360200190a1604080516001600160a01b038416815290517f8c537274438aa850a330284665d81a85dd38267d09e4050d416bfc94142db2649181900360200190a1604080516001600160a01b038316815290517f3055265812fb8447b9ada4a5d804ec43bd528ec40e89c952bbc7b85dc5ac68119181900360200190a150505050505050565b6001600160a01b03811660009081526070602052604090206001015460ff16156120565760405162461bcd60e51b8152600401808060200182810382526039815260200180613bb16039913960400191505060405180910390fd5b6001600160a01b0381166000908152606e602052604090205480156110265760405162461bcd60e51b8152600401808060200182810382526028815260200180613bea6028913960400191505060405180910390fd5b670de0b6b3a76400008111156120565760405162461bcd60e51b8152600401808060200182810382526033815260200180613b186033913960400191505060405180910390fd5b6001600160a01b03811660009081526070602052604090206001015460ff168061304657506001600160a01b038116155b6120565760405162461bcd60e51b815260040180806020018281038252604681526020018061399c6046913960600191505060405180910390fd5b600081116120565760405162461bcd60e51b8152600401808060200182810382526026815260200180613b6b6026913960400191505060405180910390fd5b6001600160a01b038281166000818152606e602052604080822060010180546001600160a01b0319169486169485179055517f094c08e96a8890877a8390b4f967180a7507ad8622244d05fcd0f9f8e086564e9190a35050565b60695460408051632ee65eeb60e21b81526001600160a01b038581166004830152306024830152604482018590529151919092169163bb997bac91606480830192600092919082900301818387803b15801561317557600080fd5b505af1158015613189573d6000803e3d6000fd5b5050606d546000925061319d915083610aca565b606d8190556040805182815290519192507f8c9268469ff6265448f46f8119962e815f393b25b87bb55bda5e709a412b85d7919081900360200190a1505050565b3390565b606854604080516321e3780160e01b81526001600160a01b038481166004830152915191909216916321e37801916024808301926020929190829003018186803b15801561322f57600080fd5b505afa158015613243573d6000803e3d6000fd5b505050506040513d602081101561325957600080fd5b50516001146120565760405162461bcd60e51b8152600401808060200182810382526046815260200180613c336046913960600191505060405180910390fd5b60006132a48261190c565b9050600081116110265760405162461bcd60e51b8152600401808060200182810382526031815260200180613a806031913960400191505060405180910390fd5b6080810151606082015182516020808501516001600160801b0380861660009081526075845260408082209287168252919093528220549194939291859061332d9084611dfd565b6001600160801b03808716600090815260756020526040812092935091611c1991633b9aca0091908490611bf9908a1660015b60008282016001600160801b038085169082161015610b245760405162461bcd60e51b8152600401808060200182810382526026815260200180613ab16026913960400191505060405180910390fd5b6000826001600160801b0316826001600160801b03161115611e545760405162461bcd60e51b8152600401808060200182810382526029815260200180613c796029913960400191505060405180910390fd5b606d54801580613411575081155b1561341c5750612056565b60006134288383613922565b9050600061344160735483611c4d90919063ffffffff16565b6074546001600160801b03600160801b82048116600090815260766020908152604080832093909416825291909152205490915061347f9082610aca565b607480546001600160801b03600160801b808304821660009081526076602081815260408084209686168452958152858320979097559454918204831680825294865283812091909216808352908552908290205482519081529384019290925282810191909152517f2d6127771b164a9cc8827d24b5955db2a77e7a81dac389107ebb8bce9fb649689181900360600190a150505050565b606d546000906135289083611dfd565b606d8190556040805182815290519192507f8c9268469ff6265448f46f8119962e815f393b25b87bb55bda5e709a412b85d7919081900360200190a15050565b3b151590565b600254600160a81b900460ff16806135895750613589612beb565b8061359e5750600254600160a01b900460ff16155b6135d95760405162461bcd60e51b815260040180806020018281038252602e815260200180613a09602e913960400191505060405180910390fd5b600254600160a81b900460ff16158015612cae576002805460ff60a01b1960ff60a81b19909116600160a81b1716600160a01b1790558015612056576002805460ff60a81b1916905550565b600254600160a81b900460ff16806136405750613640612beb565b806136555750600254600160a01b900460ff16155b6136905760405162461bcd60e51b815260040180806020018281038252602e815260200180613a09602e913960400191505060405180910390fd5b600254600160a81b900460ff161580156136c7576002805460ff60a01b1960ff60a81b19909116600160a81b1716600160a01b1790555b60006136d16131de565b603580546001600160a01b0319166001600160a01b03831690811790915560405191925090600090600080516020613b4b833981519152908290a3508015612056576002805460ff60a81b1916905550565b6001600160a01b038116612056576040805162461bcd60e51b815260206004820152601e60248201527f4163636f756e742063616e6e6f74206265207a65726f20616464726573730000604482015290519081900360640190fd5b7f0000000000000000000000000000000000000000000000000000000000000000816001600160a01b031663139f2e8c6040518163ffffffff1660e01b815260040160206040518083038186803b1580156137d857600080fd5b505afa1580156137ec573d6000803e3d6000fd5b505050506040513d602081101561380257600080fd5b505114613852576040805162461bcd60e51b815260206004820152601960248201527808e82a6be869e9aa08a9ca682a8929e9c40dad2e6dac2e8c6d603b1b604482015290519081900360640190fd5b7f0000000000000000000000000000000000000000000000000000000000000000816001600160a01b0316631bf435556040518163ffffffff1660e01b815260040160206040518083038186803b1580156138ac57600080fd5b505afa1580156138c0573d6000803e3d6000fd5b505050506040513d60208110156138d657600080fd5b505114612056576040805162461bcd60e51b815260206004820152601560248201527409a929cbe9c8aa8be888a84a840dad2e6dac2e8c6d605b1b604482015290519081900360640190fd5b60008061394660775461273d670de0b6b3a764000087611c4d90919063ffffffff16565b905060006139548285611ca6565b905061396a6139638286611c4d565b8390611dfd565b60775594935050505056fe4f776e61626c653a206e6577206f776e657220697320746865207a65726f206164647265737353746162696c697479506f6f6c3a20546167206d757374206265206120726567697374657265642066726f6e7420656e642c206f7220746865207a65726f206164647265737353746162696c697479506f6f6c3a2043616c6c6572206973206e6f7420416374697665506f6f6c496e697469616c697a61626c653a20636f6e747261637420697320616c726561647920696e697469616c697a6564bce78369dccab09eec1986f4d409ab09ffbb47d65423e5148fcf98411c5111c953746162696c697479506f6f6c3a2043616c6c6572206973206e6f742054726f76654d616e6167657253746162696c697479506f6f6c3a2063616c6c6572206d7573742068617665206e6f6e2d7a65726f2046494c204761696e50726f746f636f6c536166654d6174683132383a206164646974696f6e206f766572666c6f77536166654d6174683a206d756c7469706c69636174696f6e206f766572666c6f77d05c60ff21c33fb1103e848d5310f11270e7db91e1b079c4bdd0c6024f83d6c753746162696c697479506f6f6c3a204b69636b6261636b2072617465206d75737420626520696e2072616e6765205b302c315d8be0079c531659141344cd1fd0a4f28419497f9722a3daafe3b4186f6b6457e053746162696c697479506f6f6c3a20416d6f756e74206d757374206265206e6f6e2d7a65726f69e8bca5591c9a2886b122cc27d391b407b746b724f75b996c37903b868c449753746162696c697479506f6f6c3a206d757374206e6f7420616c7265616479206265206120726567697374657265642066726f6e7420656e6453746162696c697479506f6f6c3a2055736572206d7573742068617665206e6f206465706f73697453746162696c697479506f6f6c3a2073656e64696e672046494c206661696c656453746162696c697479506f6f6c3a2063616c6c6572206d757374206861766520616e206163746976652074726f766520746f2077697468647261772046494c4761696e20746f50726f746f636f6c536166654d6174683132383a207375627472616374696f6e206f766572666c6f7753746162696c697479506f6f6c3a2055736572206d75737420686176652061206e6f6e2d7a65726f206465706f73697499920012339b5a3368d3a04b8606ce412c46ed92b7dcd8602d41fc8862cb8f2553746162696c697479506f6f6c3a2043616e6e6f74207769746864726177207768696c65207468657265206172652074726f766573207769746820494352203c204d4352a2646970667358221220946ce25d1dec59e029e3445d4ceeaa1f3023213ac31a9fbeeabd4337c2f5cb6c64736f6c63430007060033608060405234801561001057600080fd5b506105fe806100206000396000f3fe608060405234801561001057600080fd5b506004361061004c5760003560e01c8063715018a6146100515780638129fc1c1461005b5780638da5cb5b14610063578063f2fde38b14610087575b600080fd5b6100596100ad565b005b610059610159565b61006b610203565b604080516001600160a01b039092168252519081900360200190f35b6100596004803603602081101561009d57600080fd5b50356001600160a01b0316610212565b6100b5610315565b6001600160a01b03166100c6610203565b6001600160a01b031614610121576040805162461bcd60e51b815260206004820181905260248201527f4f776e61626c653a2063616c6c6572206973206e6f7420746865206f776e6572604482015290519081900360640190fd5b6033546040516000916001600160a01b0316906000805160206105a9833981519152908390a3603380546001600160a01b0319169055565b600054610100900460ff16806101725750610172610319565b80610180575060005460ff16155b6101bb5760405162461bcd60e51b815260040180806020018281038252602e81526020018061057b602e913960400191505060405180910390fd5b600054610100900460ff161580156101e6576000805460ff1961ff0019909116610100171660011790555b6101ee61032a565b8015610200576000805461ff00191690555b50565b6033546001600160a01b031690565b61021a610315565b6001600160a01b031661022b610203565b6001600160a01b031614610286576040805162461bcd60e51b815260206004820181905260248201527f4f776e61626c653a2063616c6c6572206973206e6f7420746865206f776e6572604482015290519081900360640190fd5b6001600160a01b0381166102cb5760405162461bcd60e51b81526004018080602001828103825260268152602001806105556026913960400191505060405180910390fd5b6033546040516001600160a01b038084169216906000805160206105a983398151915290600090a3603380546001600160a01b0319166001600160a01b0392909216919091179055565b3390565b6000610324306103c7565b15905090565b600054610100900460ff16806103435750610343610319565b80610351575060005460ff16155b61038c5760405162461bcd60e51b815260040180806020018281038252602e81526020018061057b602e913960400191505060405180910390fd5b600054610100900460ff161580156103b7576000805460ff1961ff0019909116610100171660011790555b6103bf6103cd565b6101ee61046d565b3b151590565b600054610100900460ff16806103e657506103e6610319565b806103f4575060005460ff16155b61042f5760405162461bcd60e51b815260040180806020018281038252602e81526020018061057b602e913960400191505060405180910390fd5b600054610100900460ff161580156101ee576000805460ff1961ff0019909116610100171660011790558015610200576000805461ff001916905550565b600054610100900460ff16806104865750610486610319565b80610494575060005460ff16155b6104cf5760405162461bcd60e51b815260040180806020018281038252602e81526020018061057b602e913960400191505060405180910390fd5b600054610100900460ff161580156104fa576000805460ff1961ff0019909116610100171660011790555b6000610504610315565b603380546001600160a01b0319166001600160a01b038316908117909155604051919250906000906000805160206105a9833981519152908290a3508015610200576000805461ff00191690555056fe4f776e61626c653a206e6577206f776e657220697320746865207a65726f2061646472657373496e697469616c697a61626c653a20636f6e747261637420697320616c726561647920696e697469616c697a65648be0079c531659141344cd1fd0a4f28419497f9722a3daafe3b4186f6b6457e0a2646970667358221220bd0bebdaf7e2e89dfcde821bbdf91908a5402a9dce9cbfb38fb5bd1b0282977f64736f6c63430007060033608060405234801561001057600080fd5b506119d9806100206000396000f3fe608060405234801561001057600080fd5b50600436106101635760003560e01c8063715018a6116100ce578063b7f8cf9b11610087578063b7f8cf9b146103ef578063bb997bac146103f7578063c0c53b8b1461042d578063d505accf14610465578063dd62ed3e146104b6578063f2fde38b146104e4578063f698da251461050a57610163565b8063715018a6146103595780637ecebe00146103615780638da5cb5b1461038757806395d89b411461038f5780639dc29fac14610397578063a9059cbb146103c357610163565b806323b872dd1161012057806323b872dd146102a3578063313ce567146102d957806340c10f19146102f757806354fd4d50146103235780635a4d28bb1461032b57806370a082311461033357610163565b806306fdde0314610168578063095ea7b3146101e55780630b622ab21461022557806310ce43bd1461024957806318160ddd1461026357806320c582be1461026b575b600080fd5b610170610512565b6040805160208082528351818301528351919283929083019185019080838360005b838110156101aa578181015183820152602001610192565b50505050905090810190601f1680156101d75780820380516001836020036101000a031916815260200191505b509250505060405180910390f35b610211600480360360408110156101fb57600080fd5b506001600160a01b038135169060200135610547565b604080519115158252519081900360200190f35b61022d61055d565b604080516001600160a01b039092168252519081900360200190f35b61025161056c565b60408051918252519081900360200190f35b610251610590565b6102a16004803603606081101561028157600080fd5b506001600160a01b03813581169160208101359091169060400135610596565b005b610211600480360360608110156102b957600080fd5b506001600160a01b038135811691602081013590911690604001356105ae565b6102e1610620565b6040805160ff9092168252519081900360200190f35b6102a16004803603604081101561030d57600080fd5b506001600160a01b038135169060200135610625565b61017061063b565b61022d610656565b6102516004803603602081101561034957600080fd5b50356001600160a01b0316610665565b6102a1610680565b6102516004803603602081101561037757600080fd5b50356001600160a01b031661072c565b61022d610747565b610170610756565b6102a1600480360360408110156103ad57600080fd5b506001600160a01b038135169060200135610775565b610211600480360360408110156103d957600080fd5b506001600160a01b038135169060200135610787565b61022d61079d565b6102a16004803603606081101561040d57600080fd5b506001600160a01b038135811691602081013590911690604001356107ac565b6102a16004803603606081101561044357600080fd5b506001600160a01b0381358116916020810135821691604090910135166107b4565b6102a1600480360360e081101561047b57600080fd5b506001600160a01b03813581169160208101359091169060408101359060608101359060ff6080820135169060a08101359060c0013561086c565b610251600480360360408110156104cc57600080fd5b506001600160a01b0381358116916020013516610a6e565b6102a1600480360360208110156104fa57600080fd5b50356001600160a01b0316610a99565b610251610b9c565b60408051808201909152601a81527955534420666f722046696c65636f696e20436f6d6d756e69747960301b60208201525b90565b6000610554338484610bf1565b50600192915050565b606e546001600160a01b031681565b7f6e71edae12b1b97f4d1f60370fef10105fa2faae0126114a169c64845d6126c990565b60655490565b61059e610c73565b6105a9838383610cd3565b505050565b60006105b983610da9565b6105c4848484610cd3565b610616843361061185604051806060016040528060288152602001611901602891396001600160a01b038a166000908152606c602090815260408083203384529091529020549190610e89565b610bf1565b5060019392505050565b601290565b61062d610f20565b6106378282610f69565b5050565b6040805180820190915260018152603160f81b602082015290565b606d546001600160a01b031681565b6001600160a01b03166000908152606b602052604090205490565b610688610ff2565b6001600160a01b0316610699610747565b6001600160a01b0316146106f4576040805162461bcd60e51b815260206004820181905260248201527f4f776e61626c653a2063616c6c6572206973206e6f7420746865206f776e6572604482015290519081900360640190fd5b6033546040516000916001600160a01b031690600080516020611929833981519152908390a3603380546001600160a01b0319169055565b6001600160a01b03166000908152606a602052604090205490565b6033546001600160a01b031690565b604080518082019091526005815264555344464360d81b602082015290565b61077d610ff6565b6106378282611069565b600061079283610da9565b610554338484610cd3565b606f546001600160a01b031681565b61059e611112565b600054610100900460ff16806107cd57506107cd61115b565b806107db575060005460ff16155b6108165760405162461bcd60e51b815260040180806020018281038252602e8152602001806118a9602e913960400191505060405180910390fd5b600054610100900460ff16158015610841576000805460ff1961ff0019909116610100171660011790555b61084961116c565b61085484848461121d565b8015610866576000805461ff00191690555b50505050565b428410156108c1576040805162461bcd60e51b815260206004820152601b60248201527f44656274546f6b656e3a206578706972656420646561646c696e650000000000604482015290519081900360640190fd5b60006108cb610b9c565b6001600160a01b03808a166000818152606a602090815260408083208054600180820190925582517f6e71edae12b1b97f4d1f60370fef10105fa2faae0126114a169c64845d6126c98186015280840196909652958e166060860152608085018d905260a085019590955260c08085018c90528151808603909101815260e08501825280519083012061190160f01b6101008601526101028501969096526101228085019690965280518085039096018652610142840180825286519683019690962095839052610162840180825286905260ff8a166101828501526101a284018990526101c284018890525194955090936101e280840193601f198301929081900390910190855afa1580156109e6573d6000803e3d6000fd5b505050602060405103519050886001600160a01b0316816001600160a01b031614610a58576040805162461bcd60e51b815260206004820152601c60248201527f44656274546f6b656e3a20696e76616c6964207369676e617475726500000000604482015290519081900360640190fd5b610a63898989610bf1565b505050505050505050565b6001600160a01b039182166000908152606c6020908152604080832093909416825291909152205490565b610aa1610ff2565b6001600160a01b0316610ab2610747565b6001600160a01b031614610b0d576040805162461bcd60e51b815260206004820181905260248201527f4f776e61626c653a2063616c6c6572206973206e6f7420746865206f776e6572604482015290519081900360640190fd5b6001600160a01b038116610b525760405162461bcd60e51b815260040180806020018281038252602681526020018061172b6026913960400191505060405180910390fd5b6033546040516001600160a01b0380841692169060008051602061192983398151915290600090a3603380546001600160a01b0319166001600160a01b0392909216919091179055565b6000606754610ba96113fc565b1415610bb85750606654610544565b610bea7f8b73c3c69bb8fe3d512ecc4cf759cc79239f7b179b0ffacaa9a75d522b39400f60001b606854606954611400565b9050610544565b6001600160a01b038316610c0157fe5b6001600160a01b038216610c1157fe5b6001600160a01b038084166000818152606c6020908152604080832094871680845294825291829020859055815185815291517f8c5be1e5ebec7d5bd14f71427d1e84f3dd0314c0f7b2291e5b200ac8c7c3b9259281900390910190a3505050565b606d546001600160a01b0316331480610c965750606e546001600160a01b031633145b610cd15760405162461bcd60e51b815260040180806020018281038252603b815260200180611969603b913960400191505060405180910390fd5b565b6001600160a01b038316610ce357fe5b6001600160a01b038216610cf357fe5b610d308160405180606001604052806026815260200161182a602691396001600160a01b0386166000908152606b60205260409020549190610e89565b6001600160a01b038085166000908152606b60205260408082209390935590841681522054610d5f9082611462565b6001600160a01b038084166000818152606b6020908152604091829020949094558051858152905191939287169260008051602061194983398151915292918290030190a3505050565b6001600160a01b03811615801590610dca57506001600160a01b0381163014155b610e055760405162461bcd60e51b81526004018080602001828103825260598152602001806118506059913960600191505060405180910390fd5b606e546001600160a01b03828116911614801590610e315750606d546001600160a01b03828116911614155b8015610e4b5750606f546001600160a01b03828116911614155b610e865760405162461bcd60e51b815260040180806020018281038252605c8152602001806117a3605c913960600191505060405180910390fd5b50565b60008184841115610f185760405162461bcd60e51b81526004018080602001828103825283818151815260200191508051906020019080838360005b83811015610edd578181015183820152602001610ec5565b50505050905090810190601f168015610f0a5780820380516001836020036101000a031916815260200191505b509250505060405180910390fd5b505050900390565b606f546001600160a01b03163314610cd15760405162461bcd60e51b815260040180806020018281038252602b8152602001806117ff602b913960400191505060405180910390fd5b6001600160a01b038216610f7957fe5b606554610f869082611462565b6065556001600160a01b0382166000908152606b6020526040902054610fac9082611462565b6001600160a01b0383166000818152606b602090815260408083209490945583518581529351929391926000805160206119498339815191529281900390910190a35050565b3390565b606f546001600160a01b03163314806110195750606d546001600160a01b031633145b8061102e5750606e546001600160a01b031633145b610cd15760405162461bcd60e51b81526004018080602001828103825260528152602001806117516052913960600191505060405180910390fd5b6001600160a01b03821661107957fe5b6110b681604051806060016040528060228152602001611709602291396001600160a01b0385166000908152606b60205260409020549190610e89565b6001600160a01b0383166000908152606b60205260409020556065546110dc90826114c3565b6065556040805182815290516000916001600160a01b038516916000805160206119498339815191529181900360200190a35050565b606e546001600160a01b03163314610cd15760405162461bcd60e51b815260040180806020018281038252602a8152602001806118d7602a913960400191505060405180910390fd5b600061116630611520565b15905090565b600054610100900460ff1680611185575061118561115b565b80611193575060005460ff16155b6111ce5760405162461bcd60e51b815260040180806020018281038252602e8152602001806118a9602e913960400191505060405180910390fd5b600054610100900460ff161580156111f9576000805460ff1961ff0019909116610100171660011790555b611201611526565b6112096115c6565b8015610e86576000805461ff001916905550565b611226836116ad565b61122f826116ad565b611238816116ad565b606d80546001600160a01b0385166001600160a01b0319909116811790915560408051918252517f143219c9e69b09e07e095fcc889b43d8f46ca892bba65f08dc3a0050869a56789181900360200190a1606e80546001600160a01b0384166001600160a01b0319909116811790915560408051918252517f82966d27eea39b038ee0fa30cd16532bb24f6e65d31cb58fb227aa5766cdcc7f9181900360200190a1606f80546001600160a01b0383166001600160a01b0319909116811790915560408051918252517f3ca631ffcd2a9b5d9ae18543fc82f58eb4ca33af9e6ab01b7a8e95331e6ed9859181900360200190a1604080518082018252601a81527955534420666f722046696c65636f696e20436f6d6d756e69747960301b602091820152815180830190925260018252603160f81b9101527fc0412597c9d60cbc3de18204991e00bf2f567b025e527ce64b3713f7afab420760688190557fc89efdaa54c0f20c7adf612882df0950f5a951637e0307cdcb4c672f298b8bc660698190556113c46113fc565b6067556113f27f8b73c3c69bb8fe3d512ecc4cf759cc79239f7b179b0ffacaa9a75d522b39400f8383611400565b6066555050505050565b4690565b600083838361140d6113fc565b3060405160200180868152602001858152602001848152602001838152602001826001600160a01b03168152602001955050505050506040516020818303038152906040528051906020012090509392505050565b6000828201838110156114bc576040805162461bcd60e51b815260206004820152601b60248201527f536166654d6174683a206164646974696f6e206f766572666c6f770000000000604482015290519081900360640190fd5b9392505050565b60008282111561151a576040805162461bcd60e51b815260206004820152601e60248201527f536166654d6174683a207375627472616374696f6e206f766572666c6f770000604482015290519081900360640190fd5b50900390565b3b151590565b600054610100900460ff168061153f575061153f61115b565b8061154d575060005460ff16155b6115885760405162461bcd60e51b815260040180806020018281038252602e8152602001806118a9602e913960400191505060405180910390fd5b600054610100900460ff16158015611209576000805460ff1961ff0019909116610100171660011790558015610e86576000805461ff001916905550565b600054610100900460ff16806115df57506115df61115b565b806115ed575060005460ff16155b6116285760405162461bcd60e51b815260040180806020018281038252602e8152602001806118a9602e913960400191505060405180910390fd5b600054610100900460ff16158015611653576000805460ff1961ff0019909116610100171660011790555b600061165d610ff2565b603380546001600160a01b0319166001600160a01b03831690811790915560405191925090600090600080516020611929833981519152908290a3508015610e86576000805461ff001916905550565b6001600160a01b038116610e86576040805162461bcd60e51b815260206004820152601e60248201527f4163636f756e742063616e6e6f74206265207a65726f20616464726573730000604482015290519081900360640190fdfe45524332303a206275726e20616d6f756e7420657863656564732062616c616e63654f776e61626c653a206e6577206f776e657220697320746865207a65726f206164647265737344656274546f6b656e3a2043616c6c6572206973206e65697468657220426f72726f7765724f7065726174696f6e73206e6f722054726f76654d616e61676572206e6f722053746162696c697479506f6f6c44656274546f6b656e3a2043616e6e6f74207472616e7366657220746f6b656e73206469726563746c7920746f207468652053746162696c697479506f6f6c2c2054726f76654d616e61676572206f7220426f72726f7765724f707344656274546f6b656e3a2043616c6c6572206973206e6f7420426f72726f7765724f7065726174696f6e7345524332303a207472616e7366657220616d6f756e7420657863656564732062616c616e636544656274546f6b656e3a2043616e6e6f74207472616e7366657220746f6b656e73206469726563746c7920746f20746865204465627420746f6b656e20636f6e7472616374206f7220746865207a65726f2061646472657373496e697469616c697a61626c653a20636f6e747261637420697320616c726561647920696e697469616c697a656444656274546f6b656e3a2043616c6c6572206973206e6f74207468652053746162696c697479506f6f6c45524332303a207472616e7366657220616d6f756e74206578636565647320616c6c6f77616e63658be0079c531659141344cd1fd0a4f28419497f9722a3daafe3b4186f6b6457e0ddf252ad1be2c89b69c2b068fc378daa952ba7f163c4a11628f55a4df523b3ef44656274546f6b656e3a2043616c6c6572206973206e6569746865722054726f76654d616e61676572206e6f722053746162696c697479506f6f6ca26469706673582212206feaac8b948211c7e8c458821fe8d6eb4cb9f2c71a0e274eaf4df4a5cf7bf37664736f6c63430007060033608060405234801561001057600080fd5b50610efb806100206000396000f3fe6080604052600436106100ab5760003560e01c8063b08bc72211610064578063b08bc72214610234578063b32beb5b14610249578063b7f8cf9b1461027c578063c0c53b8b14610291578063c5c3937e146102d6578063f2fde38b146102eb576100ca565b80633f10abab146100cf5780635a4d28bb1461010a578063715018a61461013b5780638da5cb5b146101505780639b56d6c914610165578063a3f4df7e146101aa576100ca565b366100ca576100b861031e565b6068546100c59034610369565b606855005b600080fd5b3480156100db57600080fd5b50610108600480360360408110156100f257600080fd5b506001600160a01b0381351690602001356103ca565b005b34801561011657600080fd5b5061011f610450565b604080516001600160a01b039092168252519081900360200190f35b34801561014757600080fd5b5061010861045f565b34801561015c57600080fd5b5061011f61050b565b34801561017157600080fd5b506101986004803603602081101561018857600080fd5b50356001600160a01b031661051a565b60408051918252519081900360200190f35b3480156101b657600080fd5b506101bf610535565b6040805160208082528351818301528351919283929083019185019080838360005b838110156101f95781810151838201526020016101e1565b50505050905090810190601f1680156102265780820380516001836020036101000a031916815260200191505b509250505060405180910390f35b34801561024057600080fd5b5061011f610560565b34801561025557600080fd5b506101086004803603602081101561026c57600080fd5b50356001600160a01b031661056f565b34801561028857600080fd5b5061011f610703565b34801561029d57600080fd5b50610108600480360360608110156102b457600080fd5b506001600160a01b038135811691602081013582169160409091013516610712565b3480156102e257600080fd5b506101986107ca565b3480156102f757600080fd5b506101086004803603602081101561030e57600080fd5b50356001600160a01b03166107d0565b6067546001600160a01b031633146103675760405162461bcd60e51b815260040180806020018281038252602a815260200180610dce602a913960400191505060405180910390fd5b565b6000828201838110156103c3576040805162461bcd60e51b815260206004820152601b60248201527f536166654d6174683a206164646974696f6e206f766572666c6f770000000000604482015290519081900360640190fd5b9392505050565b6103d26108d3565b6001600160a01b0382166000908152606960205260408120546103f59083610369565b6001600160a01b0384166000818152606960209081526040918290208490558151848152915193945091927ff0393a34d05e6567686ad4e097f9d9d2781565957394f1f0d984e5d8e6378f20929181900390910190a2505050565b6066546001600160a01b031681565b61046761091c565b6001600160a01b031661047861050b565b6001600160a01b0316146104d3576040805162461bcd60e51b815260206004820181905260248201527f4f776e61626c653a2063616c6c6572206973206e6f7420746865206f776e6572604482015290519081900360640190fd5b6033546040516000916001600160a01b031690600080516020610e49833981519152908390a3603380546001600160a01b0319169055565b6033546001600160a01b031690565b6001600160a01b031660009081526069602052604090205490565b6040518060400160405280600f81526020016e10dbdb1b14dd5c9c1b1d5cd41bdbdb608a1b81525081565b6067546001600160a01b031681565b610577610920565b6001600160a01b038116600090815260696020526040902054806105cc5760405162461bcd60e51b8152600401808060200182810382526031815260200180610d776031913960400191505060405180910390fd5b6001600160a01b03821660008181526069602090815260408083208390558051928352517ff0393a34d05e6567686ad4e097f9d9d2781565957394f1f0d984e5d8e6378f209281900390910190a26068546106279082610969565b606855604080516001600160a01b03841681526020810183905281517f3b2482b1bf6e751427503c9a8bf79e4dba3e6519259e2220428c2f326cc79c14929181900390910190a16040516000906001600160a01b0384169083908381818185875af1925050503d80600081146106b9576040519150601f19603f3d011682016040523d82523d6000602084013e6106be565b606091505b50509050806106fe5760405162461bcd60e51b8152600401808060200182810382526023815260200180610df86023913960400191505060405180910390fd5b505050565b6065546001600160a01b031681565b600054610100900460ff168061072b575061072b6109c6565b80610739575060005460ff16155b6107745760405162461bcd60e51b815260040180806020018281038252602e815260200180610e1b602e913960400191505060405180910390fd5b600054610100900460ff1615801561079f576000805460ff1961ff0019909116610100171660011790555b6107a76109d7565b6107b2848484610a89565b80156107c4576000805461ff00191690555b50505050565b60685490565b6107d861091c565b6001600160a01b03166107e961050b565b6001600160a01b031614610844576040805162461bcd60e51b815260206004820181905260248201527f4f776e61626c653a2063616c6c6572206973206e6f7420746865206f776e6572604482015290519081900360640190fd5b6001600160a01b0381166108895760405162461bcd60e51b8152600401808060200182810382526026815260200180610da86026913960400191505060405180910390fd5b6033546040516001600160a01b03808416921690600080516020610e4983398151915290600090a3603380546001600160a01b0319166001600160a01b0392909216919091179055565b6066546001600160a01b031633146103675760405162461bcd60e51b815260040180806020018281038252602b815260200180610e9b602b913960400191505060405180910390fd5b3390565b6065546001600160a01b031633146103675760405162461bcd60e51b8152600401808060200182810382526032815260200180610e696032913960400191505060405180910390fd5b6000828211156109c0576040805162461bcd60e51b815260206004820152601e60248201527f536166654d6174683a207375627472616374696f6e206f766572666c6f770000604482015290519081900360640190fd5b50900390565b60006109d130610b8e565b15905090565b600054610100900460ff16806109f057506109f06109c6565b806109fe575060005460ff16155b610a395760405162461bcd60e51b815260040180806020018281038252602e815260200180610e1b602e913960400191505060405180910390fd5b600054610100900460ff16158015610a64576000805460ff1961ff0019909116610100171660011790555b610a6c610b94565b610a74610c34565b8015610a86576000805461ff00191690555b50565b610a9283610d1b565b610a9b82610d1b565b610aa481610d1b565b606580546001600160a01b038086166001600160a01b0319928316811790935560668054868316908416179055606780549185169190921617905560408051918252517f3ca631ffcd2a9b5d9ae18543fc82f58eb4ca33af9e6ab01b7a8e95331e6ed9859181900360200190a1604080516001600160a01b038416815290517f143219c9e69b09e07e095fcc889b43d8f46ca892bba65f08dc3a0050869a56789181900360200190a1604080516001600160a01b038316815290517f78f058b189175430c48dc02699e3a0031ea4ff781536dc2fab847de4babdd8829181900360200190a1505050565b3b151590565b600054610100900460ff1680610bad5750610bad6109c6565b80610bbb575060005460ff16155b610bf65760405162461bcd60e51b815260040180806020018281038252602e815260200180610e1b602e913960400191505060405180910390fd5b600054610100900460ff16158015610a74576000805460ff1961ff0019909116610100171660011790558015610a86576000805461ff001916905550565b600054610100900460ff1680610c4d5750610c4d6109c6565b80610c5b575060005460ff16155b610c965760405162461bcd60e51b815260040180806020018281038252602e815260200180610e1b602e913960400191505060405180910390fd5b600054610100900460ff16158015610cc1576000805460ff1961ff0019909116610100171660011790555b6000610ccb61091c565b603380546001600160a01b0319166001600160a01b03831690811790915560405191925090600090600080516020610e49833981519152908290a3508015610a86576000805461ff001916905550565b6001600160a01b038116610a86576040805162461bcd60e51b815260206004820152601e60248201527f4163636f756e742063616e6e6f74206265207a65726f20616464726573730000604482015290519081900360640190fdfe436f6c6c537572706c7573506f6f6c3a204e6f20636f6c6c61746572616c20617661696c61626c6520746f20636c61696d4f776e61626c653a206e6577206f776e657220697320746865207a65726f2061646472657373436f6c6c537572706c7573506f6f6c3a2043616c6c6572206973206e6f742041637469766520506f6f6c436f6c6c537572706c7573506f6f6c3a2073656e64696e672046494c206661696c6564496e697469616c697a61626c653a20636f6e747261637420697320616c726561647920696e697469616c697a65648be0079c531659141344cd1fd0a4f28419497f9722a3daafe3b4186f6b6457e0436f6c6c537572706c7573506f6f6c3a2043616c6c6572206973206e6f7420426f72726f776572204f7065726174696f6e73436f6c6c537572706c7573506f6f6c3a2043616c6c6572206973206e6f742054726f76654d616e61676572a26469706673582212204b6da6db103f159bccd0cc662b4e5e4c553fbcdad1a4a0d83372d710f42ff9c864736f6c634300070600336080604052680ad78ebc5ac620000060005534801561001d57600080fd5b5061010e8061002d6000396000f3fe6080604052348015600f57600080fd5b5060043610603c5760003560e01c80630fdb11cf14604157806391b7f5ed14605957806398d5fdca146087575b600080fd5b6047608d565b60408051918252519081900360200190f35b607360048036036020811015606d57600080fd5b503560ca565b604080519115158252519081900360200190f35b604760d2565b6000805460408051918252517f4d29de21de555af78a62fc82dd4bc05e9ae5b0660a37f04729527e0f22780cd39181900360200190a15060005490565b600055600190565b6000549056fea2646970667358221220c462043fdfe206646a711e713089268bf492c30d6df9a2c0c3fad72b22d0e8d064736f6c63430007060033608060405234801561001057600080fd5b50611c46806100206000396000f3fe608060405234801561001057600080fd5b50600436106101425760003560e01c8063715018a6116100b8578063b4988fd01161007c578063b4988fd0146103fb578063b72703ac1461042f578063b7f8cf9b14610455578063babd3d9a1461045d578063de8fa43114610465578063f2fde38b1461046d57610142565b8063715018a61461030e57806373d4a13a14610316578063765e0159146103505780638da5cb5b14610376578063a3f4df7e1461037e57610142565b8063416980dc1161010a578063416980dc1461021f57806346f7cf87146102825780634d622831146102be5780635dbe47e8146102c657806363e1d57c146102ec578063681fe70c1461030657610142565b80631e2231431461014757806329092d0e1461016b5780632be21260146101935780633d83908a146101cf5780633fce12d5146101d7575b600080fd5b61014f610493565b604080516001600160a01b039092168252519081900360200190f35b6101916004803603602081101561018157600080fd5b50356001600160a01b03166104a2565b005b610191600480360360808110156101a957600080fd5b506001600160a01b038135811691602081013591604082013581169160600135166104b6565b61014f61056b565b61020b600480360360608110156101ed57600080fd5b508035906001600160a01b036020820135811691604001351661057a565b604080519115158252519081900360200190f35b6102536004803603606081101561023557600080fd5b508035906001600160a01b036020820135811691604001351661059d565b60405180836001600160a01b03168152602001826001600160a01b031681526020019250505060405180910390f35b6101916004803603608081101561029857600080fd5b506001600160a01b038135811691602081013591604082013581169160600135166105c7565b61014f6105dc565b61020b600480360360208110156102dc57600080fd5b50356001600160a01b03166105eb565b6102f4610609565b60408051918252519081900360200190f35b61020b61060f565b610191610616565b61031e6106c2565b604080516001600160a01b03958616815293909416602084015282840191909152606082015290519081900360800190f35b61014f6004803603602081101561036657600080fd5b50356001600160a01b03166106e1565b61014f610704565b610386610713565b6040805160208082528351818301528351919283929083019185019080838360005b838110156103c05781810151838201526020016103a8565b50505050905090810190601f1680156103ed5780820380516001836020036101000a031916815260200191505b509250505060405180910390f35b6101916004803603606081101561041157600080fd5b508035906001600160a01b036020820135811691604001351661073b565b61014f6004803603602081101561044557600080fd5b50356001600160a01b03166107f3565b61014f610814565b61020b610823565b6102f461082d565b6101916004803603602081101561048357600080fd5b50356001600160a01b0316610833565b6067546001600160a01b031690565b6104aa610936565b6104b381610981565b50565b6066546001600160a01b03166104cb81610baf565b6104d4856105eb565b61050f5760405162461bcd60e51b815260040180806020018281038252602a815260200180611af7602a913960400191505060405180910390fd5b6000841161054e5760405162461bcd60e51b8152600401808060200182810382526023815260200180611bee6023913960400191505060405180910390fd5b61055785610981565b6105648186868686610c0b565b5050505050565b6066546001600160a01b031681565b606654600090610595906001600160a01b0316858585610f89565b949350505050565b60665460009081906105ba906001600160a01b031686868661120c565b915091505b935093915050565b6066546001600160a01b031661055781610baf565b6068546001600160a01b031690565b6001600160a01b03166000908152606b602052604090205460ff1690565b60695490565b606a541590565b61061e6113e7565b6001600160a01b031661062f610704565b6001600160a01b03161461068a576040805162461bcd60e51b815260206004820181905260248201527f4f776e61626c653a2063616c6c6572206973206e6f7420746865206f776e6572604482015290519081900360640190fd5b6033546040516000916001600160a01b031690600080516020611ba1833981519152908390a3603380546001600160a01b0319169055565b606754606854606954606a546001600160a01b03938416939092169184565b6001600160a01b039081166000908152606b602052604090205461010090041690565b6033546001600160a01b031690565b6040518060400160405280600c81526020016b536f7274656454726f76657360a01b81525081565b600054610100900460ff168061075457506107546113eb565b80610762575060005460ff16155b61079d5760405162461bcd60e51b815260040180806020018281038252602e815260200180611b73602e913960400191505060405180910390fd5b600054610100900460ff161580156107c8576000805460ff1961ff0019909116610100171660011790555b6107d06113fc565b6107db8484846114ad565b80156107ed576000805461ff00191690555b50505050565b6001600160a01b039081166000908152606b60205260409020600101541690565b6065546001600160a01b031681565b606954606a541490565b606a5490565b61083b6113e7565b6001600160a01b031661084c610704565b6001600160a01b0316146108a7576040805162461bcd60e51b815260206004820181905260248201527f4f776e61626c653a2063616c6c6572206973206e6f7420746865206f776e6572604482015290519081900360640190fd5b6001600160a01b0381166108ec5760405162461bcd60e51b8152600401808060200182810382526026815260200180611b216026913960400191505060405180910390fd5b6033546040516001600160a01b03808416921690600080516020611ba183398151915290600090a3603380546001600160a01b0319166001600160a01b0392909216919091179055565b6066546001600160a01b0316331461097f5760405162461bcd60e51b815260040180806020018281038252602c815260200180611b47602c913960400191505060405180910390fd5b565b61098a816105eb565b6109c55760405162461bcd60e51b815260040180806020018281038252602a815260200180611af7602a913960400191505060405180910390fd5b606a5460011015610b0b576067546001600160a01b0382811691161415610a34576001600160a01b038181166000908152606b6020526040808220546067805461010090920485166001600160a01b031992831617908190559093168252902060010180549091169055610b06565b6068546001600160a01b0382811691161415610a9b576001600160a01b038082166000908152606b602052604080822060010154606880546001600160a01b03191691851691909117908190559092168152208054610100600160a81b0319169055610b06565b6001600160a01b038082166000908152606b60205260408082208054600180830180548716865284862080546101009485900489168502610100600160a81b03199091161790555492549190910485168452919092200180546001600160a01b031916919092161790555b610b28565b606780546001600160a01b03199081169091556068805490911690555b6001600160a01b0381166000908152606b6020526040902080546001600160a81b0319168155600190810180546001600160a01b0319169055606a54610b6d916115ba565b606a55604080516001600160a01b038316815290517fcfc24166db4bb677e857cacabd1541fb2b30645021b27c5130419589b84db52b9181900360200190a150565b6065546001600160a01b0316331480610bd05750336001600160a01b038216145b6104b35760405162461bcd60e51b815260040180806020018281038252602d815260200180611bc1602d913960400191505060405180910390fd5b610c13610823565b15610c65576040805162461bcd60e51b815260206004820152601a60248201527f536f7274656454726f7665733a204c6973742069732066756c6c000000000000604482015290519081900360640190fd5b610c6e846105eb565b15610caa5760405162461bcd60e51b815260040180806020018281038252602c815260200180611acb602c913960400191505060405180910390fd5b6001600160a01b038416610d05576040805162461bcd60e51b815260206004820152601f60248201527f536f7274656454726f7665733a2049642063616e6e6f74206265207a65726f00604482015290519081900360640190fd5b60008311610d445760405162461bcd60e51b8152600401808060200182810382526023815260200180611bee6023913960400191505060405180910390fd5b8181610d5287868484610f89565b610d6857610d628786848461120c565b90925090505b6001600160a01b038087166000908152606b60205260409020805460ff191660011790558216158015610da257506001600160a01b038116155b15610dd757606780546001600160a01b0388166001600160a01b03199182168117909255606880549091169091179055610f2b565b6001600160a01b038216610e4b57606780546001600160a01b038881166000818152606b6020526040808220805495851661010002610100600160a81b0319909616959095179094558454909216825291902060010180546001600160a01b03199081168317909155825416179055610f2b565b6001600160a01b038116610ebb57606880546001600160a01b038881166000818152606b602052604080822060010180549585166001600160a01b031996871617905585549093168152919091208054610100600160a81b03191661010083021790558254909116179055610f2b565b6001600160a01b038087166000818152606b60205260408082208054858716610100818102610100600160a81b031993841617845560019384018054988b166001600160a01b0319998a168117909155865284862080549188029190931617909155835291200180549092161790555b606a54610f39906001611617565b606a55604080516001600160a01b03881681526020810187905281517fe02b43adbee0c123de070a04554a71877a0007e2fc161466299cae3c094fe82f929181900390910190a150505050505050565b60006001600160a01b038316158015610fa957506001600160a01b038216155b15610fbd57610fb661060f565b9050610595565b6001600160a01b038316611066576067546001600160a01b038381169116148015610fb65750846001600160a01b031663b0d8e181836040518263ffffffff1660e01b815260040180826001600160a01b0316815260200191505060206040518083038186803b15801561103057600080fd5b505afa158015611044573d6000803e3d6000fd5b505050506040513d602081101561105a57600080fd5b50518410159050610595565b6001600160a01b03821661110f576068546001600160a01b038481169116148015610fb65750846001600160a01b031663b0d8e181846040518263ffffffff1660e01b815260040180826001600160a01b0316815260200191505060206040518083038186803b1580156110d957600080fd5b505afa1580156110ed573d6000803e3d6000fd5b505050506040513d602081101561110357600080fd5b50518411159050610595565b6001600160a01b038381166000908152606b6020526040902054610100900481169083161480156111b8575083856001600160a01b031663b0d8e181856040518263ffffffff1660e01b815260040180826001600160a01b0316815260200191505060206040518083038186803b15801561118957600080fd5b505afa15801561119d573d6000803e3d6000fd5b505050506040513d60208110156111b357600080fd5b505110155b8015610fb65750846001600160a01b031663b0d8e181836040518263ffffffff1660e01b815260040180826001600160a01b0316815260200191505060206040518083038186803b15801561103057600080fd5b60008083836001600160a01b038216156112b657611229826105eb565b15806112ac5750876001600160a01b031663b0d8e181836040518263ffffffff1660e01b815260040180826001600160a01b0316815260200191505060206040518083038186803b15801561127d57600080fd5b505afa158015611291573d6000803e3d6000fd5b505050506040513d60208110156112a757600080fd5b505187115b156112b657600091505b6001600160a01b0381161561135a576112ce816105eb565b15806113515750876001600160a01b031663b0d8e181826040518263ffffffff1660e01b815260040180826001600160a01b0316815260200191505060206040518083038186803b15801561132257600080fd5b505afa158015611336573d6000803e3d6000fd5b505050506040513d602081101561134c57600080fd5b505187105b1561135a575060005b6001600160a01b03821615801561137857506001600160a01b038116155b156113a15760675461139690899089906001600160a01b0316611678565b9350935050506113de565b6001600160a01b0382166113ba576113968888836117b0565b6001600160a01b0381166113d357611396888884611678565b611396888884611678565b94509492505050565b3390565b60006113f6306118e2565b15905090565b600054610100900460ff168061141557506114156113eb565b80611423575060005460ff16155b61145e5760405162461bcd60e51b815260040180806020018281038252602e815260200180611b73602e913960400191505060405180910390fd5b600054610100900460ff16158015611489576000805460ff1961ff0019909116610100171660011790555b6114916118e8565b611499611988565b80156104b3576000805461ff001916905550565b60008311611502576040805162461bcd60e51b815260206004820181905260248201527f536f7274656454726f7665733a2053697a652063616e2774206265207a65726f604482015290519081900360640190fd5b61150b82611a6f565b61151481611a6f565b6069839055606680546001600160a01b038085166001600160a01b03199283168117909355606580549185169190921617905560408051918252517f143219c9e69b09e07e095fcc889b43d8f46ca892bba65f08dc3a0050869a56789181900360200190a1604080516001600160a01b038316815290517f3ca631ffcd2a9b5d9ae18543fc82f58eb4ca33af9e6ab01b7a8e95331e6ed9859181900360200190a1505050565b600082821115611611576040805162461bcd60e51b815260206004820152601e60248201527f536166654d6174683a207375627472616374696f6e206f766572666c6f770000604482015290519081900360640190fd5b50900390565b600082820183811015611671576040805162461bcd60e51b815260206004820152601b60248201527f536166654d6174683a206164646974696f6e206f766572666c6f770000000000604482015290519081900360640190fd5b9392505050565b60675460009081906001600160a01b0384811691161480156117125750846001600160a01b031663b0d8e181846040518263ffffffff1660e01b815260040180826001600160a01b0316815260200191505060206040518083038186803b1580156116e257600080fd5b505afa1580156116f6573d6000803e3d6000fd5b505050506040513d602081101561170c57600080fd5b50518410155b15611722575060009050816105bf565b6001600160a01b038084166000908152606b60205260409020548491610100909104165b6001600160a01b03821615801590611767575061176587878484610f89565b155b156117a457506001600160a01b039081166000908152606b6020526040808220546101009081900484168084529190922054909291900416611746565b90969095509350505050565b60685460009081906001600160a01b03848116911614801561184a5750846001600160a01b031663b0d8e181846040518263ffffffff1660e01b815260040180826001600160a01b0316815260200191505060206040518083038186803b15801561181a57600080fd5b505afa15801561182e573d6000803e3d6000fd5b505050506040513d602081101561184457600080fd5b50518411155b1561185a575081905060006105bf565b6001600160a01b038084166000908152606b60205260409020600101548491165b6001600160a01b0382161580159061189c575061189a87878385610f89565b155b156118d757506001600160a01b039081166000908152606b60205260408082206001908101548416808452919092209091015490911661187b565b969095509350505050565b3b151590565b600054610100900460ff168061190157506119016113eb565b8061190f575060005460ff16155b61194a5760405162461bcd60e51b815260040180806020018281038252602e815260200180611b73602e913960400191505060405180910390fd5b600054610100900460ff16158015611499576000805460ff1961ff00199091166101001716600117905580156104b3576000805461ff001916905550565b600054610100900460ff16806119a157506119a16113eb565b806119af575060005460ff16155b6119ea5760405162461bcd60e51b815260040180806020018281038252602e815260200180611b73602e913960400191505060405180910390fd5b600054610100900460ff16158015611a15576000805460ff1961ff0019909116610100171660011790555b6000611a1f6113e7565b603380546001600160a01b0319166001600160a01b03831690811790915560405191925090600090600080516020611ba1833981519152908290a35080156104b3576000805461ff001916905550565b6001600160a01b0381166104b3576040805162461bcd60e51b815260206004820152601e60248201527f4163636f756e742063616e6e6f74206265207a65726f20616464726573730000604482015290519081900360640190fdfe536f7274656454726f7665733a204c69737420616c726561647920636f6e7461696e7320746865206e6f6465536f7274656454726f7665733a204c69737420646f6573206e6f7420636f6e7461696e207468652069644f776e61626c653a206e6577206f776e657220697320746865207a65726f2061646472657373536f7274656454726f7665733a2043616c6c6572206973206e6f74207468652054726f76654d616e61676572496e697469616c697a61626c653a20636f6e747261637420697320616c726561647920696e697469616c697a65648be0079c531659141344cd1fd0a4f28419497f9722a3daafe3b4186f6b6457e0536f7274656454726f7665733a2043616c6c6572206973206e65697468657220424f206e6f722054726f76654d536f7274656454726f7665733a204e494352206d75737420626520706f736974697665a264697066735822122069bd5ce4e1d7d3b76fca71d9e7c4d8e9b983c80c23ec4049248bbb5e8ceaee4a64736f6c63430007060033608060405234801561001057600080fd5b50604051610cfb380380610cfb8339818101604052608081101561003357600080fd5b50805160208201516040830151606090930151600080546001600160a01b039485166001600160a01b0319918216179091556001805493851693821693909317909255600280549484169483169490941790935560038054929093169116179055610c58806100a36000396000f3fe6080604052600436106100d75760003560e01c8063643dec8c1161007a578063643dec8c146102e9578063650b559c1461032a5780637bbb0f5e1461037a578063854febd6146103bb5780639113473114610404578063cf83544f14610446578063d94bcec21461047f578063f47a1ea7146104c2576100de565b806332e859b9146100e357806335b1017914610119578063390b5f27146101745780634903a3dd146101c15780634afbac51146101d65780634c36240b146102535780634d37261f1461028c578063641b09b6146102bf576100de565b366100de57005b600080fd5b610117600480360360608110156100f957600080fd5b508035906001600160a01b03602082013581169160400135166104ec565b005b34801561012557600080fd5b50610117600480360360e081101561013c57600080fd5b508035906001600160a01b03602082013581169160408101358216916060820135169060808101359060a08101359060c00135610563565b34801561018057600080fd5b506101ad6004803603604081101561019757600080fd5b506001600160a01b0381351690602001356105fb565b604080519115158252519081900360200190f35b3480156101cd57600080fd5b50610117610687565b3480156101e257600080fd5b50610117600480360360208110156101f957600080fd5b81019060208101813564010000000081111561021457600080fd5b82018360208201111561022657600080fd5b8035906020019184602083028401116401000000008311171561024857600080fd5b5090925090506106f1565b34801561025f57600080fd5b506101176004803603604081101561027657600080fd5b50803590602001356001600160a01b031661078a565b34801561029857600080fd5b50610117600480360360208110156102af57600080fd5b50356001600160a01b03166107df565b3480156102cb57600080fd5b50610117600480360360208110156102e257600080fd5b5035610845565b3480156102f557600080fd5b506101176004803603606081101561030c57600080fd5b508035906001600160a01b0360208201358116916040013516610892565b610117600480360360e081101561034057600080fd5b5080359060208101359060408101359060608101351515906001600160a01b03608082013581169160a08101359091169060c0013561090c565b34801561038657600080fd5b506101176004803603606081101561039d57600080fd5b508035906001600160a01b03602082013581169160400135166109a4565b3480156103c757600080fd5b50610117600480360360808110156103de57600080fd5b508035906001600160a01b03602082013581169160408101359091169060600135610a01565b610117600480360360a081101561041a57600080fd5b508035906020810135906001600160a01b03604082013581169160608101359091169060800135610a65565b34801561045257600080fd5b506101ad6004803603604081101561046957600080fd5b506001600160a01b038135169060200135610aec565b34801561048b57600080fd5b506101ad600480360360608110156104a257600080fd5b506001600160a01b03813581169160208101359091169060400135610b45565b3480156104ce57600080fd5b50610117600480360360208110156104e557600080fd5b5035610bda565b600154604080516368647db160e01b81526001600160a01b0385811660048301528481166024830152915191909216916368647db191869160448082019260009290919082900301818588803b15801561054557600080fd5b505af1158015610559573d6000803e3d6000fd5b5050505050505050565b6000805460408051635e69ba9360e11b8152600481018b90526001600160a01b038a81166024830152898116604483015288811660648301526084820188905260a4820187905260c482018690529151919092169263bcd375269260e4808201939182900301818387803b1580156105da57600080fd5b505af11580156105ee573d6000803e3d6000fd5b5050505050505050505050565b6003546040805163a9059cbb60e01b81526001600160a01b038581166004830152602482018590529151600093929092169163a9059cbb9160448082019260209290919082900301818787803b15801561065457600080fd5b505af1158015610668573d6000803e3d6000fd5b505050506040513d602081101561067e57600080fd5b50519392505050565b600160009054906101000a90046001600160a01b03166001600160a01b0316630e704d506040518163ffffffff1660e01b8152600401600060405180830381600087803b1580156106d757600080fd5b505af11580156106eb573d6000803e3d6000fd5b50505050565b600054604051631e8b1c2b60e01b8152602060048201818152602483018590526001600160a01b0390931692631e8b1c2b92869286929182916044909101908590850280828437600081840152601f19601f8201169050808301925050509350505050600060405180830381600087803b15801561076e57600080fd5b505af1158015610782573d6000803e3d6000fd5b505050505050565b60025460408051635f788d6560e01b8152600481018590526001600160a01b03848116602483015291519190921691635f788d6591604480830192600092919082900301818387803b15801561076e57600080fd5b60008054604080516305f0caad60e31b81526001600160a01b03858116600483015291519190921692632f865568926024808201939182900301818387803b15801561082a57600080fd5b505af115801561083e573d6000803e3d6000fd5b5050505050565b60025460408051632e54bf9560e01b81526004810184905290516001600160a01b0390921691632e54bf959160248082019260009290919082900301818387803b15801561082a57600080fd5b6001546040805163040163c560e11b8152600481018690526001600160a01b038581166024830152848116604483015291519190921691630802c78a91606480830192600092919082900301818387803b1580156108ef57600080fd5b505af1158015610903573d6000803e3d6000fd5b50505050505050565b60015460408051630635367960e51b815260048101849052602481018990526044810188905286151560648201526001600160a01b03868116608483015285811660a48301529151919092169163c6a6cf20918a9160c48082019260009290919082900301818588803b15801561098257600080fd5b505af1158015610996573d6000803e3d6000fd5b505050505050505050505050565b6001546040805163154c09cf60e21b8152600481018690526001600160a01b038581166024830152848116604483015291519190921691635530273c91606480830192600092919082900301818387803b1580156108ef57600080fd5b600154604080516362a0d79960e01b815260048101849052602481018790526001600160a01b0386811660448301528581166064830152915191909216916362a0d79991608480830192600092919082900301818387803b15801561054557600080fd5b6001546040805163860665b360e01b815260048101849052602481018790526001600160a01b03868116604483015285811660648301529151919092169163860665b391889160848082019260009290919082900301818588803b158015610acc57600080fd5b505af1158015610ae0573d6000803e3d6000fd5b50505050505050505050565b6003546040805163095ea7b360e01b81526001600160a01b038581166004830152602482018590529151600093929092169163095ea7b39160448082019260209290919082900301818787803b15801561065457600080fd5b600354604080516323b872dd60e01b81526001600160a01b038681166004830152858116602483015260448201859052915160009392909216916323b872dd9160648082019260209290919082900301818787803b158015610ba657600080fd5b505af1158015610bba573d6000803e3d6000fd5b505050506040513d6020811015610bd057600080fd5b5051949350505050565b600080546040805163653d46e760e01b81526004810185905290516001600160a01b039092169263653d46e79260248084019382900301818387803b15801561082a57600080fdfea2646970667358221220843819fbb7fd79e550ae21cc180b8c10fbc64c38c5bc272612a2371e6a60ac5464736f6c63430007060033",
  "linkReferences": {},
  "deployedLinkReferences": {}
}