{
  "_format": "hh-sol-artifact-1",
  "contractName": "EchidnaTester",
  "sourceName": "contracts/TestContracts/EchidnaTester.sol",
  "abi": [
    {
      "inputs": [],
      "stateMutability": "payable",
      "type": "constructor"
    },
    {
      "inputs": [],
      "name": "activePool",
      "outputs": [
        {
          "internalType": "contract ActivePool",
          "name": "",
          "type": "address"
        }
      ],
      "stateMutability": "view",
      "type": "function"
    },
    {
      "inputs": [
        {
          "internalType": "uint256",
          "name": "_i",
          "type": "uint256"
        },
        {
          "internalType": "uint256",
          "name": "_FIL",
          "type": "uint256"
        }
      ],
      "name": "addCollExt",
      "outputs": [],
      "stateMutability": "payable",
      "type": "function"
    },
    {
      "inputs": [
        {
          "internalType": "uint256",
          "name": "_i",
          "type": "uint256"
        },
        {
          "internalType": "uint256",
          "name": "_FIL",
          "type": "uint256"
        },
        {
          "internalType": "address",
          "name": "_upperHint",
          "type": "address"
        },
        {
          "internalType": "address",
          "name": "_lowerHint",
          "type": "address"
        }
      ],
      "name": "addCollRawExt",
      "outputs": [],
      "stateMutability": "payable",
      "type": "function"
    },
    {
      "inputs": [
        {
          "internalType": "uint256",
          "name": "_i",
          "type": "uint256"
        },
        {
          "internalType": "uint256",
          "name": "_FIL",
          "type": "uint256"
        },
        {
          "internalType": "uint256",
          "name": "_collWithdrawal",
          "type": "uint256"
        },
        {
          "internalType": "uint256",
          "name": "_debtChange",
          "type": "uint256"
        },
        {
          "internalType": "bool",
          "name": "_isDebtIncrease",
          "type": "bool"
        }
      ],
      "name": "adjustTroveExt",
      "outputs": [],
      "stateMutability": "payable",
      "type": "function"
    },
    {
      "inputs": [
        {
          "internalType": "uint256",
          "name": "_i",
          "type": "uint256"
        },
        {
          "internalType": "uint256",
          "name": "_FIL",
          "type": "uint256"
        },
        {
          "internalType": "uint256",
          "name": "_collWithdrawal",
          "type": "uint256"
        },
        {
          "internalType": "uint256",
          "name": "_debtChange",
          "type": "uint256"
        },
        {
          "internalType": "bool",
          "name": "_isDebtIncrease",
          "type": "bool"
        },
        {
          "internalType": "address",
          "name": "_upperHint",
          "type": "address"
        },
        {
          "internalType": "address",
          "name": "_lowerHint",
          "type": "address"
        },
        {
          "internalType": "uint256",
          "name": "_maxFee",
          "type": "uint256"
        }
      ],
      "name": "adjustTroveRawExt",
      "outputs": [],
      "stateMutability": "payable",
      "type": "function"
    },
    {
      "inputs": [
        {
          "internalType": "uint256",
          "name": "_i",
          "type": "uint256"
        },
        {
          "internalType": "address",
          "name": "spender",
          "type": "address"
        },
        {
          "internalType": "uint256",
          "name": "amount",
          "type": "uint256"
        }
      ],
      "name": "approveExt",
      "outputs": [
        {
          "internalType": "bool",
          "name": "",
          "type": "bool"
        }
      ],
      "stateMutability": "nonpayable",
      "type": "function"
    },
    {
      "inputs": [
        {
          "internalType": "uint256",
          "name": "_i",
          "type": "uint256"
        },
        {
          "internalType": "address[]",
          "name": "_troveArray",
          "type": "address[]"
        }
      ],
      "name": "batchLiquidateTrovesExt",
      "outputs": [],
      "stateMutability": "nonpayable",
      "type": "function"
    },
    {
      "inputs": [],
      "name": "borrowerOperations",
      "outputs": [
        {
          "internalType": "contract BorrowerOperations",
          "name": "",
          "type": "address"
        }
      ],
      "stateMutability": "view",
      "type": "function"
    },
    {
      "inputs": [
        {
          "internalType": "uint256",
          "name": "_i",
          "type": "uint256"
        }
      ],
      "name": "closeTroveExt",
      "outputs": [],
      "stateMutability": "nonpayable",
      "type": "function"
    },
    {
      "inputs": [],
      "name": "collSurplusPool",
      "outputs": [
        {
          "internalType": "contract CollSurplusPool",
          "name": "",
          "type": "address"
        }
      ],
      "stateMutability": "view",
      "type": "function"
    },
    {
      "inputs": [],
      "name": "communityIssuance",
      "outputs": [
        {
          "internalType": "contract CommunityIssuance",
          "name": "",
          "type": "address"
        }
      ],
      "stateMutability": "view",
      "type": "function"
    },
    {
      "inputs": [],
      "name": "debtToken",
      "outputs": [
        {
          "internalType": "contract DebtToken",
          "name": "",
          "type": "address"
        }
      ],
      "stateMutability": "view",
      "type": "function"
    },
    {
      "inputs": [],
      "name": "defaultPool",
      "outputs": [
        {
          "internalType": "contract DefaultPool",
          "name": "",
          "type": "address"
        }
      ],
      "stateMutability": "view",
      "type": "function"
    },
    {
      "inputs": [
        {
          "internalType": "uint256",
          "name": "",
          "type": "uint256"
        }
      ],
      "name": "echidnaProxies",
      "outputs": [
        {
          "internalType": "contract EchidnaProxy",
          "name": "",
          "type": "address"
        }
      ],
      "stateMutability": "view",
      "type": "function"
    },
    {
      "inputs": [],
      "name": "echidna_FIL_balances",
      "outputs": [
        {
          "internalType": "bool",
          "name": "",
          "type": "bool"
        }
      ],
      "stateMutability": "view",
      "type": "function"
    },
    {
      "inputs": [],
      "name": "echidna_canary_active_pool_balance",
      "outputs": [
        {
          "internalType": "bool",
          "name": "",
          "type": "bool"
        }
      ],
      "stateMutability": "view",
      "type": "function"
    },
    {
      "inputs": [],
      "name": "echidna_canary_number_of_troves",
      "outputs": [
        {
          "internalType": "bool",
          "name": "",
          "type": "bool"
        }
      ],
      "stateMutability": "view",
      "type": "function"
    },
    {
      "inputs": [],
      "name": "echidna_debt_token_global_balances",
      "outputs": [
        {
          "internalType": "bool",
          "name": "",
          "type": "bool"
        }
      ],
      "stateMutability": "view",
      "type": "function"
    },
    {
      "inputs": [],
      "name": "echidna_price",
      "outputs": [
        {
          "internalType": "bool",
          "name": "",
          "type": "bool"
        }
      ],
      "stateMutability": "view",
      "type": "function"
    },
    {
      "inputs": [],
      "name": "echidna_trove_properties",
      "outputs": [
        {
          "internalType": "bool",
          "name": "",
          "type": "bool"
        }
      ],
      "stateMutability": "view",
      "type": "function"
    },
    {
      "inputs": [],
      "name": "echidna_troves_order",
      "outputs": [
        {
          "internalType": "bool",
          "name": "",
          "type": "bool"
        }
      ],
      "stateMutability": "view",
      "type": "function"
    },
    {
      "inputs": [],
      "name": "gasPool",
      "outputs": [
        {
          "internalType": "contract GasPool",
          "name": "",
          "type": "address"
        }
      ],
      "stateMutability": "view",
      "type": "function"
    },
    {
      "inputs": [
        {
          "internalType": "uint256",
          "name": "_i",
          "type": "uint256"
        },
        {
          "internalType": "address",
          "name": "_user",
          "type": "address"
        }
      ],
      "name": "liquidateExt",
      "outputs": [],
      "stateMutability": "nonpayable",
      "type": "function"
    },
    {
      "inputs": [
        {
          "internalType": "uint256",
          "name": "_i",
          "type": "uint256"
        },
        {
          "internalType": "uint256",
          "name": "_n",
          "type": "uint256"
        }
      ],
      "name": "liquidateTrovesExt",
      "outputs": [],
      "stateMutability": "nonpayable",
      "type": "function"
    },
    {
      "inputs": [
        {
          "internalType": "uint256",
          "name": "_i",
          "type": "uint256"
        },
        {
          "internalType": "uint256",
          "name": "_FIL",
          "type": "uint256"
        },
        {
          "internalType": "uint256",
          "name": "_debtTokenAmount",
          "type": "uint256"
        }
      ],
      "name": "openTroveExt",
      "outputs": [],
      "stateMutability": "payable",
      "type": "function"
    },
    {
      "inputs": [
        {
          "internalType": "uint256",
          "name": "_i",
          "type": "uint256"
        },
        {
          "internalType": "uint256",
          "name": "_FIL",
          "type": "uint256"
        },
        {
          "internalType": "uint256",
          "name": "_debtTokenAmount",
          "type": "uint256"
        },
        {
          "internalType": "address",
          "name": "_upperHint",
          "type": "address"
        },
        {
          "internalType": "address",
          "name": "_lowerHint",
          "type": "address"
        },
        {
          "internalType": "uint256",
          "name": "_maxFee",
          "type": "uint256"
        }
      ],
      "name": "openTroveRawExt",
      "outputs": [],
      "stateMutability": "payable",
      "type": "function"
    },
    {
      "inputs": [],
      "name": "protocolToken",
      "outputs": [
        {
          "internalType": "contract ProtocolToken",
          "name": "",
          "type": "address"
        }
      ],
      "stateMutability": "view",
      "type": "function"
    },
    {
      "inputs": [],
      "name": "protocolTokenStaking",
      "outputs": [
        {
          "internalType": "contract ProtocolTokenStaking",
          "name": "",
          "type": "address"
        }
      ],
      "stateMutability": "view",
      "type": "function"
    },
    {
      "inputs": [
        {
          "internalType": "uint256",
          "name": "_i",
          "type": "uint256"
        },
        {
          "internalType": "uint256",
          "name": "_amount",
          "type": "uint256"
        },
        {
          "internalType": "address",
          "name": "_frontEndTag",
          "type": "address"
        }
      ],
      "name": "provideToSPExt",
      "outputs": [],
      "stateMutability": "nonpayable",
      "type": "function"
    },
    {
      "inputs": [
        {
          "internalType": "uint256",
          "name": "_i",
          "type": "uint256"
        },
        {
          "internalType": "uint256",
          "name": "_debtTokenAmount",
          "type": "uint256"
        },
        {
          "internalType": "address",
          "name": "_firstRedemptionHint",
          "type": "address"
        },
        {
          "internalType": "address",
          "name": "_upperPartialRedemptionHint",
          "type": "address"
        },
        {
          "internalType": "address",
          "name": "_lowerPartialRedemptionHint",
          "type": "address"
        },
        {
          "internalType": "uint256",
          "name": "_partialRedemptionHintNICR",
          "type": "uint256"
        }
      ],
      "name": "redeemCollateralExt",
      "outputs": [],
      "stateMutability": "nonpayable",
      "type": "function"
    },
    {
      "inputs": [
        {
          "internalType": "uint256",
          "name": "_i",
          "type": "uint256"
        },
        {
          "internalType": "uint256",
          "name": "_amount",
          "type": "uint256"
        },
        {
          "internalType": "address",
          "name": "_upperHint",
          "type": "address"
        },
        {
          "internalType": "address",
          "name": "_lowerHint",
          "type": "address"
        }
      ],
      "name": "repayDebtTokenExt",
      "outputs": [],
      "stateMutability": "nonpayable",
      "type": "function"
    },
    {
      "inputs": [
        {
          "internalType": "uint256",
          "name": "_price",
          "type": "uint256"
        }
      ],
      "name": "setPriceExt",
      "outputs": [],
      "stateMutability": "nonpayable",
      "type": "function"
    },
    {
      "inputs": [],
      "name": "stabilityPool",
      "outputs": [
        {
          "internalType": "contract StabilityPool",
          "name": "",
          "type": "address"
        }
      ],
      "stateMutability": "view",
      "type": "function"
    },
    {
      "inputs": [
        {
          "internalType": "uint256",
          "name": "_i",
          "type": "uint256"
        },
        {
          "internalType": "address",
          "name": "recipient",
          "type": "address"
        },
        {
          "internalType": "uint256",
          "name": "amount",
          "type": "uint256"
        }
      ],
      "name": "transferExt",
      "outputs": [
        {
          "internalType": "bool",
          "name": "",
          "type": "bool"
        }
      ],
      "stateMutability": "nonpayable",
      "type": "function"
    },
    {
      "inputs": [
        {
          "internalType": "uint256",
          "name": "_i",
          "type": "uint256"
        },
        {
          "internalType": "address",
          "name": "sender",
          "type": "address"
        },
        {
          "internalType": "address",
          "name": "recipient",
          "type": "address"
        },
        {
          "internalType": "uint256",
          "name": "amount",
          "type": "uint256"
        }
      ],
      "name": "transferFromExt",
      "outputs": [
        {
          "internalType": "bool",
          "name": "",
          "type": "bool"
        }
      ],
      "stateMutability": "nonpayable",
      "type": "function"
    },
    {
      "inputs": [],
      "name": "troveManager",
      "outputs": [
        {
          "internalType": "contract TroveManager",
          "name": "",
          "type": "address"
        }
      ],
      "stateMutability": "view",
      "type": "function"
    },
    {
      "inputs": [
        {
          "internalType": "uint256",
          "name": "_i",
          "type": "uint256"
        },
        {
          "internalType": "uint256",
          "name": "_amount",
          "type": "uint256"
        },
        {
          "internalType": "address",
          "name": "_upperHint",
          "type": "address"
        },
        {
          "internalType": "address",
          "name": "_lowerHint",
          "type": "address"
        }
      ],
      "name": "withdrawCollExt",
      "outputs": [],
      "stateMutability": "nonpayable",
      "type": "function"
    },
    {
      "inputs": [
        {
          "internalType": "uint256",
          "name": "_i",
          "type": "uint256"
        },
        {
          "internalType": "uint256",
          "name": "_amount",
          "type": "uint256"
        },
        {
          "internalType": "address",
          "name": "_upperHint",
          "type": "address"
        },
        {
          "internalType": "address",
          "name": "_lowerHint",
          "type": "address"
        },
        {
          "internalType": "uint256",
          "name": "_maxFee",
          "type": "uint256"
        }
      ],
      "name": "withdrawDebtTokenExt",
      "outputs": [],
      "stateMutability": "nonpayable",
      "type": "function"
    },
    {
      "inputs": [
        {
          "internalType": "uint256",
          "name": "_i",
          "type": "uint256"
        },
        {
          "internalType": "uint256",
          "name": "_amount",
          "type": "uint256"
        }
      ],
      "name": "withdrawFromSPExt",
      "outputs": [],
      "stateMutability": "nonpayable",
      "type": "function"
    }
  ],
  "bytecode": "0x60806040526801158e460913d000006809c2007651b2500000621275006040516200002a9062000d89565b92835260208301919091526040808301919091525190819003606001906000f0801580156200005d573d6000803e3d6000fd5b50600260006101000a8154816001600160a01b0302191690836001600160a01b031602179055506801158e460913d000006809c2007651b2500000604051620000a69062000d97565b9182526020820152604080519182900301906000f080158015620000ce573d6000803e3d6000fd5b50600380546001600160a01b0319166001600160a01b0392909216919091179055604051620000fd9062000da5565b604051809103906000f0801580156200011a573d6000803e3d6000fd5b50600480546001600160a01b0319166001600160a01b0392909216919091179055604051620001499062000db3565b604051809103906000f08015801562000166573d6000803e3d6000fd5b50600560006101000a8154816001600160a01b0302191690836001600160a01b031602179055506801158e460913d000006809c2007651b2500000604051620001af9062000dc1565b9182526020820152604080519182900301906000f080158015620001d7573d6000803e3d6000fd5b50600680546001600160a01b0319166001600160a01b0392909216919091179055604051620002069062000dcf565b604051809103906000f08015801562000223573d6000803e3d6000fd5b50600780546001600160a01b0319166001600160a01b0392909216919091179055604051620002529062000ddd565b604051809103906000f0801580156200026f573d6000803e3d6000fd5b50600980546001600160a01b0319166001600160a01b03929092169190911790556040516200029e9062000deb565b604051809103906000f080158015620002bb573d6000803e3d6000fd5b50600880546001600160a01b0319166001600160a01b0392909216919091179055604051620002ea9062000df9565b604051809103906000f08015801562000307573d6000803e3d6000fd5b50600a80546001600160a01b0319166001600160a01b0392909216919091179055604051620003369062000e07565b604051809103906000f08015801562000353573d6000803e3d6000fd5b50600b80546001600160a01b0319166001600160a01b0392909216919091179055604051620003829062000e15565b604051809103906000f0801580156200039f573d6000803e3d6000fd5b50600c80546001600160a01b0319166001600160a01b0392909216919091179055604051620003ce9062000e23565b604051809103906000f080158015620003eb573d6000803e3d6000fd5b50600d80546001600160a01b0319166001600160a01b03929092169190911790556040516200041a9062000e31565b604051809103906000f08015801562000437573d6000803e3d6000fd5b50600e80546001600160a01b0319166001600160a01b0392831617905560025460035460048054600554600654600754600854600a54600954600b54600d5460408051631860d66f60e31b81529b8e169a8c019a909a52978c1660248b0152958b1660448a0152938a1660648901529189166084880152881660a4870152871660c4860152861660e48501528516610104840152841661012483015251919092169163c306b3789161014480830192600092919082900301818387803b1580156200050157600080fd5b505af115801562000516573d6000803e3d6000fd5b505060035460025460048054600554600654600754600854600a54600b54600954600d5460408051631860d66f60e31b81526001600160a01b039c8d169b81019b909b52988b1660248b0152968a1660448a01529489166064890152928816608488015290871660a4870152861660c4860152851660e4850152841661010484015283166101248301525191909216935063c306b378925061014480830192600092919082900301818387803b158015620005d057600080fd5b505af1158015620005e5573d6000803e3d6000fd5b50506004805460035460025460065460055460408051637c643b2f60e11b81526001600160a01b03958616978101979097529284166024870152908316604486015282166064850152519116935063f8c8765e9250608480830192600092919082900301818387803b1580156200065b57600080fd5b505af115801562000670573d6000803e3d6000fd5b5050600554600254600480546040805163485cc95560e01b81526001600160a01b039485169381019390935290831660248301525191909216935063485cc9559250604480830192600092919082900301818387803b158015620006d357600080fd5b505af1158015620006e8573d6000803e3d6000fd5b505060065460035460025460048054600954600b54600a54600e5460408051631ac3b23b60e11b81526001600160a01b03998a169781019790975296881660248701529387166044860152918616606485015285166084840152841660a4830152831660c482015290519190921693506335876476925060e480830192600092919082900301818387803b1580156200078057600080fd5b505af115801562000795573d6000803e3d6000fd5b50506009546002546006546003546040805163c0c53b8b60e01b81526001600160a01b039485166004820152928416602484015290831660448301525191909216935063c0c53b8b9250606480830192600092919082900301818387803b1580156200080057600080fd5b505af115801562000815573d6000803e3d6000fd5b5050600854600354600254600480546040805163c0c53b8b60e01b81526001600160a01b0395861693810193909352928416602483015283166044820152905191909216935063c0c53b8b9250606480830192600092919082900301818387803b1580156200088357600080fd5b505af115801562000898573d6000803e3d6000fd5b5050600b5460025460035460408051630b4988fd60e41b8152670de0b6b3a764000060048201526001600160a01b03938416602482015291831660448301525191909216935063b4988fd09250606480830192600092919082900301818387803b1580156200090657600080fd5b505af11580156200091b573d6000803e3d6000fd5b5050600c54600d54604080516305e52ecf60e21b81526001600160a01b039283166004820152336024820152668e1bc9bf04000060448201529051919092169350631794bb3c9250606480830192600092919082900301818387803b1580156200098457600080fd5b505af115801562000999573d6000803e3d6000fd5b5050600d54600c546009546002546003546004805460408051630a2ca2bd60e11b81526001600160a01b039788169381019390935294861660248301529285166044820152908416606482015290831660848201529051919092169350631459457a925060a480830192600092919082900301818387803b15801562000a1e57600080fd5b505af115801562000a33573d6000803e3d6000fd5b5050600e54600c546006546040805163485cc95560e01b81526001600160a01b03938416600482015291831660248301525191909216935063485cc9559250604480830192600092919082900301818387803b15801562000a9357600080fd5b505af115801562000aa8573d6000803e3d6000fd5b5050505060005b606481101562000be7576002546003546006546009546040516001600160a01b039485169493841693928316929091169062000aeb9062000e3f565b6001600160a01b039485168152928416602084015290831660408084019190915292166060820152905190819003608001906000f08015801562000b33573d6000803e3d6000fd5b50600f826064811062000b4257fe5b0180546001600160a01b0319166001600160a01b03929092169190911790556000600f826064811062000b7157fe5b01546040516001600160a01b039091169069d3c21bcecceda100000090600081818185875af1925050503d806000811462000bc9576040519150601f19603f3d011682016040523d82523d6000602084013e62000bce565b606091505b505090508062000bdd57600080fd5b5060010162000aaf565b50600360009054906101000a90046001600160a01b03166001600160a01b031663794e57246040518163ffffffff1660e01b815260040160206040518083038186803b15801562000c3757600080fd5b505afa15801562000c4c573d6000803e3d6000fd5b505050506040513d602081101562000c6357600080fd5b505160005560035460408051635733d58f60e01b815290516001600160a01b0390921691635733d58f91600480820192602092909190829003018186803b15801562000cae57600080fd5b505afa15801562000cc3573d6000803e3d6000fd5b505050506040513d602081101562000cda57600080fd5b505160015560005462000cec57600080fd5b60006001541162000cfc57600080fd5b600a54604080516391b7f5ed60e01b815269021e19e0c9bab2400000600482015290516001600160a01b03909216916391b7f5ed916024808201926020929091908290030181600087803b15801562000d5457600080fd5b505af115801562000d69573d6000803e3d6000fd5b505050506040513d602081101562000d8057600080fd5b5062000e4d9050565b616048806200344e83390190565b61423d806200949683390190565b610ffe806200d6d383390190565b610d66806200e6d183390190565b613dfa806200f43783390190565b61061e806201323183390190565b611bfc806201384f83390190565b610f4f806201544b83390190565b61013b806201639a83390190565b611c6680620164d583390190565b611e5d806201813b83390190565b611db68062019f9883390190565b610f82806201bd4e83390190565b610cfb806201ccd083390190565b6125f18062000e5d6000396000f3fe6080604052600436106102205760003560e01c806391a4a4261161012e578063c325347f116100ab578063ecb507941161006f578063ecb5079414610832578063efa83cf914610879578063f8d89898146108c1578063f9bd9a15146108d6578063fa08b038146108eb57610220565b8063c325347f1461072b578063cda775f9146107af578063d21af968146107c4578063e4489127146107ed578063e54524231461081d57610220565b80639cdd0978116100f25780639cdd09781461064b5780639f56ac181461068a578063a2f5cbdd1461069f578063a3d36834146106b4578063baf5d65f146106fb57610220565b806391a4a42614610593578063926a547d146105bd57806395fb16bb146105d25780639606f3fb146105e7578063980c55d71461063657610220565b80634e792a30116101bc5780636969093611610180578063696909361461049157806377553ad4146104cb5780637c22900e146104e05780637ca8b028146105295780637f7dde4a1461057e57610220565b80634e792a30146103b457806357285cc5146103ed5780635895ac4e14610410578063597ec7991461042557806359bed84b1461047c57610220565b8063048c661d14610225578063119be5d0146102565780631a465fe1146102a95780631c6fbd23146102be5780633ca4afc1146102f75780633cc74225146103365780633d83908a1461034b57806340ba2e27146103605780634557559f1461038a575b600080fd5b34801561023157600080fd5b5061023a610900565b604080516001600160a01b039092168252519081900360200190f35b34801561026257600080fd5b506102956004803603606081101561027957600080fd5b508035906001600160a01b03602082013516906040013561090f565b604080519115158252519081900360200190f35b3480156102b557600080fd5b5061023a6109b3565b6102f5600480360360a08110156102d457600080fd5b508035906020810135906040810135906060810135906080013515156109c2565b005b34801561030357600080fd5b506102f56004803603606081101561031a57600080fd5b50803590602081013590604001356001600160a01b0316610aaa565b34801561034257600080fd5b5061023a610b31565b34801561035757600080fd5b5061023a610b40565b34801561036c57600080fd5b506102f56004803603602081101561038357600080fd5b5035610b4f565b34801561039657600080fd5b506102f5600480360360208110156103ad57600080fd5b5035610bcf565b3480156103c057600080fd5b506102f5600480360360408110156103d757600080fd5b50803590602001356001600160a01b0316610c55565b6102f56004803603604081101561040357600080fd5b5080359060200135610cd4565b34801561041c57600080fd5b50610295610d87565b6102f5600480360361010081101561043c57600080fd5b5080359060208101359060408101359060608101359060808101351515906001600160a01b0360a082013581169160c08101359091169060e00135610e1e565b34801561048857600080fd5b50610295610ecf565b6102f5600480360360808110156104a757600080fd5b508035906020810135906001600160a01b0360408201358116916060013516611184565b3480156104d757600080fd5b5061023a611214565b3480156104ec57600080fd5b506102956004803603608081101561050357600080fd5b508035906001600160a01b03602082013581169160408101359091169060600135611223565b34801561053557600080fd5b506102f5600480360360c081101561054c57600080fd5b508035906020810135906001600160a01b03604082013581169160608101358216916080820135169060a001356112ce565b34801561058a57600080fd5b5061023a61137b565b34801561059f57600080fd5b5061023a600480360360208110156105b657600080fd5b503561138a565b3480156105c957600080fd5b506102956113aa565b3480156105de57600080fd5b5061023a6117cd565b3480156105f357600080fd5b506102f5600480360360a081101561060a57600080fd5b508035906020810135906001600160a01b036040820135811691606081013590911690608001356117dc565b34801561064257600080fd5b50610295611854565b34801561065757600080fd5b506102956004803603606081101561066e57600080fd5b508035906001600160a01b036020820135169060400135611b1f565b34801561069657600080fd5b50610295611b8a565b3480156106ab57600080fd5b50610295611bad565b3480156106c057600080fd5b506102f5600480360360808110156106d757600080fd5b508035906020810135906001600160a01b0360408201358116916060013516611bc2565b34801561070757600080fd5b506102f56004803603604081101561071e57600080fd5b5080359060200135611c33565b34801561073757600080fd5b506102f56004803603604081101561074e57600080fd5b8135919081019060408101602082013564010000000081111561077057600080fd5b82018360208201111561078257600080fd5b803590602001918460208302840111640100000000831117156107a457600080fd5b509092509050611c94565b3480156107bb57600080fd5b5061023a611d25565b6102f5600480360360608110156107da57600080fd5b5080359060208101359060400135611d34565b3480156107f957600080fd5b506102f56004803603604081101561081057600080fd5b5080359060200135611e8b565b34801561082957600080fd5b5061023a611eec565b34801561083e57600080fd5b506102f56004803603608081101561085557600080fd5b508035906020810135906001600160a01b0360408201358116916060013516611efb565b6102f5600480360360c081101561088f57600080fd5b508035906020810135906040810135906001600160a01b03606082013581169160808101359091169060a00135611f6c565b3480156108cd57600080fd5b5061023a611feb565b3480156108e257600080fd5b50610295611ffa565b3480156108f757600080fd5b5061023a61222f565b6006546001600160a01b031681565b600080606485069050600f816064811061092557fe5b01546040805163cf83544f60e01b81526001600160a01b038781166004830152602482018790529151919092169163cf83544f9160448083019260209291908290030181600087803b15801561097a57600080fd5b505af115801561098e573d6000803e3d6000fd5b505050506040513d60208110156109a457600080fd5b506001925050505b9392505050565b600c546001600160a01b031681565b60006064860690506000600f82606481106109d957fe5b0154600080546001600160a01b0390921692508231916109fc9083908a9061223e565b9050858515610a1557610a128288600054612310565b90505b60408051631942d56760e21b815260048101849052602481018a905260448101839052871515606482015260006084820181905260a4820181905260c4820181905291516001600160a01b0387169263650b559c9260e4808201939182900301818387803b158015610a8657600080fd5b505af1158015610a9a573d6000803e3d6000fd5b5050505050505050505050505050565b6000606484069050600f8160648110610abf57fe5b015460408051634c36240b60e01b8152600481018690526001600160a01b03858116602483015291519190921691634c36240b91604480830192600092919082900301818387803b158015610b1357600080fd5b505af1158015610b27573d6000803e3d6000fd5b5050505050505050565b6005546001600160a01b031681565b6002546001600160a01b031681565b6000606482069050600f8160648110610b6457fe5b0160009054906101000a90046001600160a01b03166001600160a01b0316634903a3dd6040518163ffffffff1660e01b8152600401600060405180830381600087803b158015610bb357600080fd5b505af1158015610bc7573d6000803e3d6000fd5b505050505050565b600a54604080516391b7f5ed60e01b81526004810184905290516000926001600160a01b0316916391b7f5ed91602480830192602092919082900301818787803b158015610c1c57600080fd5b505af1158015610c30573d6000803e3d6000fd5b505050506040513d6020811015610c4657600080fd5b5051905080610c5157fe5b5050565b6000606483069050600f8160648110610c6a57fe5b015460408051634d37261f60e01b81526001600160a01b03858116600483015291519190921691634d37261f91602480830192600092919082900301818387803b158015610cb757600080fd5b505af1158015610ccb573d6000803e3d6000fd5b50505050505050565b60006064830690506000600f8260648110610ceb57fe5b0154600080546001600160a01b039092169250823191610d0e908390879061223e565b604080516332e859b960e01b8152600481018390526000602482018190526044820181905291519293506001600160a01b038616926332e859b99260648084019391929182900301818387803b158015610d6757600080fd5b505af1158015610d7b573d6000803e3d6000fd5b50505050505050505050565b600080600a60009054906101000a90046001600160a01b03166001600160a01b03166398d5fdca6040518163ffffffff1660e01b815260040160206040518083038186803b158015610dd857600080fd5b505afa158015610dec573d6000803e3d6000fd5b505050506040513d6020811015610e0257600080fd5b5051905080610e15576000915050610e1b565b60019150505b90565b6000606489069050600f8160648110610e3357fe5b015460408051631942d56760e21b8152600481018b9052602481018a90526044810189905287151560648201526001600160a01b03878116608483015286811660a483015260c482018690529151919092169163650b559c9160e480830192600092919082900301818387803b158015610eac57600080fd5b505af1158015610ec0573d6000803e3d6000fd5b50505050505050505050505050565b600080600b60009054906101000a90046001600160a01b03166001600160a01b0316631e2231436040518163ffffffff1660e01b815260040160206040518083038186803b158015610f2057600080fd5b505afa158015610f34573d6000803e3d6000fd5b505050506040513d6020811015610f4a57600080fd5b5051600b546040805163765e015960e01b81526001600160a01b0380851660048301529151939450600093919092169163765e0159916024808301926020929190829003018186803b158015610f9f57600080fd5b505afa158015610fb3573d6000803e3d6000fd5b505050506040513d6020811015610fc957600080fd5b505190505b6001600160a01b03821615801590610fee57506001600160a01b03811615155b1561117b576002546040805163b0d8e18160e01b81526001600160a01b0385811660048301529151919092169163b0d8e181916024808301926020929190829003018186803b15801561104057600080fd5b505afa158015611054573d6000803e3d6000fd5b505050506040513d602081101561106a57600080fd5b50516002546040805163b0d8e18160e01b81526001600160a01b0385811660048301529151919092169163b0d8e181916024808301926020929190829003018186803b1580156110b957600080fd5b505afa1580156110cd573d6000803e3d6000fd5b505050506040513d60208110156110e357600080fd5b505111156110f657600092505050610e1b565b600b546040805163765e015960e01b81526001600160a01b03808516600483015291519394508493919092169163765e0159916024808301926020929190829003018186803b15801561114857600080fd5b505afa15801561115c573d6000803e3d6000fd5b505050506040513d602081101561117257600080fd5b50519050610fce565b60019250505090565b6000606485069050600f816064811061119957fe5b0154604080516332e859b960e01b8152600481018790526001600160a01b0386811660248301528581166044830152915191909216916332e859b991606480830192600092919082900301818387803b1580156111f557600080fd5b505af1158015611209573d6000803e3d6000fd5b505050505050505050565b6003546001600160a01b031681565b600080606486069050600f816064811061123957fe5b015460408051636ca5e76160e11b81526001600160a01b0388811660048301528781166024830152604482018790529151919092169163d94bcec29160648083019260209291908290030181600087803b15801561129657600080fd5b505af11580156112aa573d6000803e3d6000fd5b505050506040513d60208110156112c057600080fd5b506001979650505050505050565b6000606487069050600f81606481106112e357fe5b0154604080516335b1017960e01b8152600481018990526001600160a01b0388811660248301528781166044830152868116606483015260848201869052600060a4830181905260c4830181905292519316926335b101799260e48084019391929182900301818387803b15801561135a57600080fd5b505af115801561136e573d6000803e3d6000fd5b5050505050505050505050565b6004546001600160a01b031681565b600f816064811061139a57600080fd5b01546001600160a01b0316905081565b600080600960009054906101000a90046001600160a01b03166001600160a01b03166318160ddd6040518163ffffffff1660e01b815260040160206040518083038186803b1580156113fb57600080fd5b505afa15801561140f573d6000803e3d6000fd5b505050506040513d602081101561142557600080fd5b5051600954600754604080516370a0823160e01b81526001600160a01b039283166004820152905193945060009391909216916370a08231916024808301926020929190829003018186803b15801561147d57600080fd5b505afa158015611491573d6000803e3d6000fd5b505050506040513d60208110156114a757600080fd5b505160048054604080516314a6bf0f60e01b815290519394506000936001600160a01b03909216926314a6bf0f928282019260209290829003018186803b1580156114f157600080fd5b505afa158015611505573d6000803e3d6000fd5b505050506040513d602081101561151b57600080fd5b5051600554604080516314a6bf0f60e01b815290519293506000926001600160a01b03909216916314a6bf0f91600480820192602092909190829003018186803b15801561156857600080fd5b505afa15801561157c573d6000803e3d6000fd5b505050506040513d602081101561159257600080fd5b5051905081810184146115ac576000945050505050610e1b565b60065460408051630d9a6b3560e01b815290516000926001600160a01b031691630d9a6b35916004808301926020929190829003018186803b1580156115f157600080fd5b505afa158015611605573d6000803e3d6000fd5b505050506040513d602081101561161b57600080fd5b5051600b5460408051631e22314360e01b815290519293506000926001600160a01b0390921691631e22314391600480820192602092909190829003018186803b15801561166857600080fd5b505afa15801561167c573d6000803e3d6000fd5b505050506040513d602081101561169257600080fd5b5051905060005b6001600160a01b038216156117a457600954604080516370a0823160e01b81526001600160a01b038581166004830152915191909216916370a08231916024808301926020929190829003018186803b1580156116f557600080fd5b505afa158015611709573d6000803e3d6000fd5b505050506040513d602081101561171f57600080fd5b5051600b546040805163765e015960e01b81526001600160a01b0386811660048301529151949093019391169163765e0159916024808301926020929190829003018186803b15801561177157600080fd5b505afa158015611785573d6000803e3d6000fd5b505050506040513d602081101561179b57600080fd5b50519150611699565b858184010187116117bf576000975050505050505050610e1b565b600197505050505050505090565b600e546001600160a01b031681565b6000606486069050600f81606481106117f157fe5b0154604080516342a7f5eb60e11b8152600481018890526001600160a01b0387811660248301528681166044830152606482018690529151919092169163854febd691608480830192600092919082900301818387803b158015610d6757600080fd5b600080600b60009054906101000a90046001600160a01b03166001600160a01b0316631e2231436040518163ffffffff1660e01b815260040160206040518083038186803b1580156118a557600080fd5b505afa1580156118b9573d6000803e3d6000fd5b505050506040513d60208110156118cf57600080fd5b505190505b6001600160a01b03811615610e15576001600254604080516321e3780160e01b81526001600160a01b038581166004830152915191909216916321e37801916024808301926020929190829003018186803b15801561193257600080fd5b505afa158015611946573d6000803e3d6000fd5b505050506040513d602081101561195c57600080fd5b5051600481111561196957fe5b600481111561197457fe5b14611983576000915050610e1b565b6002546040805163d66a255360e01b81526001600160a01b03848116600483015291516801158e460913d0000093929092169163d66a255391602480820192602092909190829003018186803b1580156119dc57600080fd5b505afa1580156119f0573d6000803e3d6000fd5b505050506040513d6020811015611a0657600080fd5b50511015611a18576000915050610e1b565b60025460408051630326771360e51b81526001600160a01b038481166004830152915191909216916364cee260916024808301926020929190829003018186803b158015611a6557600080fd5b505afa158015611a79573d6000803e3d6000fd5b505050506040513d6020811015611a8f57600080fd5b5051611a9f576000915050610e1b565b600b546040805163765e015960e01b81526001600160a01b0384811660048301529151919092169163765e0159916024808301926020929190829003018186803b158015611aec57600080fd5b505afa158015611b00573d6000803e3d6000fd5b505050506040513d6020811015611b1657600080fd5b505190506118d4565b600080606485069050600f8160648110611b3557fe5b01546040805163390b5f2760e01b81526001600160a01b038781166004830152602482018790529151919092169163390b5f279160448083019260209291908290030181600087803b15801561097a57600080fd5b6004546000906001600160a01b03163115611ba757506000610e1b565b50600190565b600060146073541115611ba757506000610e1b565b6000606485069050600f8160648110611bd757fe5b015460408051633ddd87af60e11b8152600481018790526001600160a01b038681166024830152858116604483015291519190921691637bbb0f5e91606480830192600092919082900301818387803b1580156111f557600080fd5b6000606483069050600f8160648110611c4857fe5b01546040805163f47a1ea760e01b81526004810185905290516001600160a01b039092169163f47a1ea79160248082019260009290919082900301818387803b158015610cb757600080fd5b6000606484069050600f8160648110611ca957fe5b0154604051634afbac5160e01b8152602060048201818152602483018690526001600160a01b0390931692634afbac5192879287929182916044909101908590850280828437600081840152601f19601f8201169050808301925050509350505050600060405180830381600087803b158015610b1357600080fd5b6008546001600160a01b031681565b60006064840690506000600f8260648110611d4b57fe5b01546001546001600160a01b039091169150813190600090611d70908390889061223e565b90506000611d818287600154612310565b60408051639113473160e01b8152600481018590526024810183905260006044820181905260648201819052662386f26fc10000608483015291519293506001600160a01b0387169263911347319260a48084019391929182900301818387803b158015611dee57600080fd5b505af1158015611e02573d6000803e3d6000fd5b50505050600260009054906101000a90046001600160a01b03166001600160a01b03166349eefeee6040518163ffffffff1660e01b815260040160206040518083038186803b158015611e5457600080fd5b505afa158015611e68573d6000803e3d6000fd5b505050506040513d6020811015611e7e57600080fd5b50516073819055610b2757fe5b6000606483069050600f8160648110611ea057fe5b01546040805163320d84db60e11b81526004810185905290516001600160a01b039092169163641b09b69160248082019260009290919082900301818387803b158015610cb757600080fd5b600d546001600160a01b031681565b6000606485069050600f8160648110611f1057fe5b01546040805163190f7b2360e21b8152600481018790526001600160a01b03868116602483015285811660448301529151919092169163643dec8c91606480830192600092919082900301818387803b1580156111f557600080fd5b6000606487069050600f8160648110611f8157fe5b015460408051639113473160e01b815260048101899052602481018890526001600160a01b0387811660448301528681166064830152608482018690529151919092169163911347319160a480830192600092919082900301818387803b15801561135a57600080fd5b6009546001600160a01b031681565b6002546000906001600160a01b0316311561201757506000610e1b565b6003546001600160a01b0316311561203157506000610e1b565b60048054604080516362e1c9bf60e11b815290516001600160a01b039092169263c5c3937e928282019260209290829003018186803b15801561207357600080fd5b505afa158015612087573d6000803e3d6000fd5b505050506040513d602081101561209d57600080fd5b50516004546001600160a01b031631146120b957506000610e1b565b600560009054906101000a90046001600160a01b03166001600160a01b031663c5c3937e6040518163ffffffff1660e01b815260040160206040518083038186803b15801561210757600080fd5b505afa15801561211b573d6000803e3d6000fd5b505050506040513d602081101561213157600080fd5b50516005546001600160a01b0316311461214d57506000610e1b565b600660009054906101000a90046001600160a01b03166001600160a01b031663c5c3937e6040518163ffffffff1660e01b815260040160206040518083038186803b15801561219b57600080fd5b505afa1580156121af573d6000803e3d6000fd5b505050506040513d60208110156121c557600080fd5b50516006546001600160a01b031631146121e157506000610e1b565b6009546001600160a01b031631156121fb57506000610e1b565b600a546001600160a01b0316311561221557506000610e1b565b600b546001600160a01b03163115611ba757506000610e1b565b6007546001600160a01b031681565b600080600a60009054906101000a90046001600160a01b03166001600160a01b03166398d5fdca6040518163ffffffff1660e01b815260040160206040518083038186803b15801561228f57600080fd5b505afa1580156122a3573d6000803e3d6000fd5b505050506040513d60208110156122b957600080fd5b50519050806122c757600080fd5b60006122e6826122e0866801158e460913d000006123f0565b90612452565b90508086116122f457600080fd5b6000818703868161230157fe5b06919091019695505050505050565b600080600a60009054906101000a90046001600160a01b03166001600160a01b03166398d5fdca6040518163ffffffff1660e01b815260040160206040518083038186803b15801561236157600080fd5b505afa158015612375573d6000803e3d6000fd5b505050506040513d602081101561238b57600080fd5b505190508360006123a5826801158e460913d000006124b9565b905060006123b4888386612513565b9050858110156123e4576123cc866122e08a876123f0565b91506123e1826801158e460913d0000061253d565b92505b50909695505050505050565b6000826123ff5750600061244c565b8282028284828161240c57fe5b04146124495760405162461bcd60e51b815260040180806020018281038252602181526020018061259b6021913960400191505060405180910390fd5b90505b92915050565b60008082116124a8576040805162461bcd60e51b815260206004820152601a60248201527f536166654d6174683a206469766973696f6e206279207a65726f000000000000604482015290519081900360640190fd5b8183816124b157fe5b049392505050565b600082820183811015612449576040805162461bcd60e51b815260206004820152601b60248201527f536166654d6174683a206164646974696f6e206f766572666c6f770000000000604482015290519081900360640190fd5b6000821561253457600061252b846122e087866123f0565b91506109ac9050565b506000196109ac565b600082821115612594576040805162461bcd60e51b815260206004820152601e60248201527f536166654d6174683a207375627472616374696f6e206f766572666c6f770000604482015290519081900360640190fd5b5090039056fe536166654d6174683a206d756c7469706c69636174696f6e206f766572666c6f77a2646970667358221220621ef3db78df33b16ecdc78f21de95440ccc9df64af8660d68e6c94112b07eec64736f6c634300070600336101006040523480156200001257600080fd5b506040516200604838038062006048833981810160405260608110156200003857600080fd5b5080516020820151604090920151608082905260a083905260e08190524260c081905291929190615f8d620000bb600039806126545280613cf152508061291c5280613cd0525080610e4e52806141a5525080610dda528061402652806140cb528061410c5280614c4b528061509c528061542f5280615a255250615f8d6000f3fe608060405234801561001057600080fd5b506004361061048b5760003560e01c8063794e572411610262578063c35bc55011610151578063d9a72444116100ce578063f59fac2d11610092578063f59fac2d14610ce6578063f8d8989814610d0c578063f92d34331461069e578063fdf27dba14610d14578063fe2ba84814610d1c578063fe9d032314610d425761048b565b8063d9a7244414610c6d578063e2ac77b014610c8a578063e545242314610cb0578063f2fde38b14610cb8578063f36b242514610cde5761048b565b8063d293c71011610115578063d293c71014610bca578063d380a37c14610bf6578063d3d6f84314610bfe578063d5b3563514610c2a578063d66a255314610c475761048b565b8063c35bc55014610b84578063c52861f214610b8c578063c7b5548114610b94578063cbd138ae14610b9c578063cda775f914610bc25761048b565b8063a20baee6116101df578063b82f263d116101a3578063b82f263d14610a54578063b91af97c14610a71578063bcd3752614610abd578063bf9befb114610b0b578063c306b37814610b135761048b565b8063a20baee6146108da578063a3f4df7e146109a1578063ae91875414610a1e578063b0d8e18114610a26578063b7f8cf9b14610a4c5761048b565b8063887105d311610226578063887105d3146109555780638da5cb5b1461095d57806396d711ff146109655780639976cf451461096d578063a0d8d6bc146109995761048b565b8063794e57241461090f578063795d26c3146109175780637f7dde4a1461091f578063807d138d1461092757806382fe3eb91461092f5761048b565b8063480cd5781161037e57806364cee260116102fb57806372423c17116102bf57806372423c17146108ae57806372fe25aa146108da57806373098be9146108e2578063741bef1a146108ea578063756b253e146108f25761048b565b806364cee260146107ef578063653d46e71461081557806366ca4a21146108325780636ef643381461083a578063715018a6146108a65761048b565b80635733d58f116103425780635733d58f1461078e5780635d6b480f146107965780635dba4c4a146107c257806361ec893d146107ca578063631203b0146107d25761048b565b8063480cd578146107015780634870dd9a1461072757806349eefeee1461072f5780634e443d9e1461073757806352512eaa146107685761048b565b80631f68f20a1161040c5780632b11551a116103d05780632b11551a146106a65780632f865568146106ae57806331eaf05c146106d45780633cc74225146106dc578063477d66cf146106e45761048b565b80631f68f20a1461066057806321e3780114610668578063240926691461068e57806326b4d8fd1461069657806328d28b5b1461069e5761048b565b806315d549f11161045357806315d549f11461052a5780631673c79a1461055057806318f2817a1461058f5780631bf43555146105b55780631e8b1c2b146105bd5761048b565b8063048c661d14610490578063071a7541146104b45780630b076557146104ce57806312610e92146104f6578063139f2e8c14610522575b600080fd5b610498610d4a565b604080516001600160a01b039092168252519081900360200190f35b6104bc610d59565b60408051918252519081900360200190f35b6104f4600480360360208110156104e457600080fd5b50356001600160a01b0316610d5e565b005b6104bc6004803603604081101561050c57600080fd5b506001600160a01b038135169060200135610d86565b6104bc610dd8565b6104bc6004803603602081101561054057600080fd5b50356001600160a01b0316610dfc565b6105766004803603602081101561056657600080fd5b50356001600160a01b0316610e20565b6040805192835260208301919091528051918290030190f35b6104bc600480360360208110156105a557600080fd5b50356001600160a01b0316610e39565b6104bc610e4c565b6104f4600480360360208110156105d357600080fd5b8101906020810181356401000000008111156105ee57600080fd5b82018360208201111561060057600080fd5b8035906020019184602083028401116401000000008311171561062257600080fd5b919080806020026020016040519081016040528093929190818152602001838360200280828437600092019190915250929550610e70945050505050565b6104bc611254565b6104bc6004803603602081101561067e57600080fd5b50356001600160a01b031661125a565b6104bc611284565b6104bc611297565b6104bc61129d565b6104bc6112ae565b6104f4600480360360208110156106c457600080fd5b50356001600160a01b03166112c0565b6104bc611326565b61049861132c565b6104bc600480360360208110156106fa57600080fd5b503561133b565b6104bc6004803603602081101561071757600080fd5b50356001600160a01b031661134e565b6104bc61136c565b6104bc611371565b6107546004803603602081101561074d57600080fd5b5035611377565b604080519115158252519081900360200190f35b6104bc6004803603602081101561077e57600080fd5b50356001600160a01b0316611382565b6104bc611436565b6104f4600480360360408110156107ac57600080fd5b506001600160a01b038135169060200135611442565b6104f461148e565b6104bc6114f4565b6104bc600480360360208110156107e857600080fd5b50356114f9565b6104bc6004803603602081101561080557600080fd5b50356001600160a01b0316611506565b6104f46004803603602081101561082b57600080fd5b5035611524565b6104bc611911565b6108606004803603602081101561085057600080fd5b50356001600160a01b0316611923565b6040518086815260200185815260200184815260200183600481111561088257fe5b8152602001826001600160801b031681526020019550505050505060405180910390f35b6104f461195d565b6104bc600480360360408110156108c457600080fd5b506001600160a01b038135169060200135611a09565b6104bc611a60565b6104bc611a6c565b610498611a72565b6104986004803603602081101561090857600080fd5b5035611a81565b6104bc611aab565b6104bc611ab7565b610498611bb2565b6104bc611bc1565b6104f46004803603602081101561094557600080fd5b50356001600160a01b0316611bc7565b6104bc611bd8565b610498611c94565b6104bc611ca3565b6104bc6004803603604081101561098357600080fd5b506001600160a01b038135169060200135611ca9565b6104bc611cd6565b6109a9611cdc565b6040805160208082528351818301528351919283929083019185019080838360005b838110156109e35781810151838201526020016109cb565b50505050905090810190601f168015610a105780820380516001836020036101000a031916815260200191505b509250505060405180910390f35b610498611d04565b6104bc60048036036020811015610a3c57600080fd5b50356001600160a01b0316611d13565b610498611d3a565b6104bc60048036036020811015610a6a57600080fd5b5035611d49565b610a9760048036036020811015610a8757600080fd5b50356001600160a01b0316611d54565b604080519485526020850193909352838301919091526060830152519081900360800190f35b6104f4600480360360e0811015610ad357600080fd5b508035906001600160a01b03602082013581169160408101358216916060820135169060808101359060a08101359060c00135611dac565b6104bc61255f565b6104f46004803603610140811015610b2a57600080fd5b506001600160a01b038135811691602081013582169160408201358116916060810135821691608082013581169160a081013582169160c082013581169160e0810135821691610100820135811691610120013516612565565b6104bc612652565b6104bc612676565b6104bc612688565b6104f460048036036020811015610bb257600080fd5b50356001600160a01b0316612694565b6104986126a7565b6104bc60048036036040811015610be057600080fd5b506001600160a01b0381351690602001356126b6565b6104bc6126d5565b6104bc60048036036040811015610c1457600080fd5b506001600160a01b0381351690602001356126db565b6104bc60048036036020811015610c4057600080fd5b503561270b565b6104bc60048036036020811015610c5d57600080fd5b50356001600160a01b031661271e565b61049860048036036020811015610c8357600080fd5b5035612739565b61075460048036036020811015610ca057600080fd5b50356001600160a01b0316612763565b6104986127c1565b6104f460048036036020811015610cce57600080fd5b50356001600160a01b03166127d0565b6104bc6128d3565b6104bc60048036036020811015610cfc57600080fd5b50356001600160a01b03166128e0565b61049861290b565b6104bc61291a565b6104f460048036036020811015610d3257600080fd5b50356001600160a01b031661293e565b61049861294f565b609b546001600160a01b031681565b600281565b610d6661295e565b600054600154610d83916001600160a01b039081169116836129a9565b50565b6000610d9061295e565b6001600160a01b038316600090815260a26020526040812054610db39084612abf565b6001600160a01b038516600090815260a2602052604090208190559150505b92915050565b7f000000000000000000000000000000000000000000000000000000000000000081565b6000610e0661295e565b610e0f82612b1c565b6001600160801b031690505b919050565b60a8602052600090815260409020805460019091015482565b6000610e4361295e565b610dd282612bb6565b7f000000000000000000000000000000000000000000000000000000000000000081565b60026066541415610eb6576040805162461bcd60e51b815260206004820152601f6024820152600080516020615c22833981519152604482015290519081900360640190fd5b60026066558051610ef85760405162461bcd60e51b8152600401808060200182810382526036815260200180615e136036913960400191505060405180910390fd5b600054600154609b546001600160a01b03928316929182169116610f1a615ab3565b610f22615ae4565b609d60009054906101000a90046001600160a01b03166001600160a01b0316630fdb11cf6040518163ffffffff1660e01b8152600401602060405180830381600087803b158015610f7257600080fd5b505af1158015610f86573d6000803e3d6000fd5b505050506040513d6020811015610f9c57600080fd5b5051825260408051630d9a6b3560e01b815290516001600160a01b03851691630d9a6b35916004808301926020929190829003018186803b158015610fe057600080fd5b505afa158015610ff4573d6000803e3d6000fd5b505050506040513d602081101561100a57600080fd5b50516020830152815161101c90612c59565b15801560408401526110445761103d8585846000015185602001518a612c76565b905061105c565b6110598585846000015185602001518a612e94565b90505b600081602001511161109f5760405162461bcd60e51b8152600401808060200182810382526022815260200180615f076022913960400191505060405180910390fd5b826001600160a01b031663335525ad82608001518360a001516040518363ffffffff1660e01b81526004018083815260200182815260200192505050600060405180830381600087803b1580156110f557600080fd5b505af1158015611109573d6000803e3d6000fd5b5050505061112185858360c001518460e00151612f56565b6101008101511561119e57609a5461010082015160408051628063a560e01b81526001600160a01b03938416600482015260248101929092525191871691628063a59160448082019260009290919082900301818387803b15801561118557600080fd5b505af1158015611199573d6000803e3d6000fd5b505050505b6111ac8582604001516131a9565b60208101516060830152610100810151604082015182516111d892916111d29190612abf565b90612abf565b608080840182905260608085015160408086015186840151825193845260208401969096528282015291810193909352517f4152c73dd2614c4f9fc35e8c9cf16013cd588c75b49a4c1673ecffdcbcda94039281900390910190a16112478533836060015184604001516132ea565b5050600160665550505050565b60a05481565b6001600160a01b038116600090815260a2602052604081206003015460ff166004811115610dd257fe5b6064670de0b6b3a76400005b0460050281565b60ab5481565b6103e8670de0b6b3a7640000611290565b60006112bb60a0546133e3565b905090565b6112c981613419565b6040805160018082528183019092526000916020808301908036833701905050905081816000815181106112f957fe5b60200260200101906001600160a01b031690816001600160a01b03168152505061132281610e70565b5050565b60a75481565b6001546001600160a01b031681565b6000610dd2611348611911565b83613481565b6001600160a01b0316600090815260a2602052604090206001015490565b60c881565b60a95490565b6000610dd282612c59565b6001600160a01b038116600090815260a8602052604081205460a65482906113aa9083612abf565b90508015806113e3575060016001600160a01b038516600090815260a2602052604090206003015460ff1660048111156113e057fe5b14155b156113f357600092505050610e1b565b6001600160a01b038416600090815260a260205260408120600201549061142c670de0b6b3a764000061142684866134a0565b906134f9565b9695505050505050565b6714d1120d7b16000081565b61144a61295e565b80600481111561145657fe5b6001600160a01b038316600090815260a260205260409020600301805460ff1916600183600481111561148557fe5b02179055505050565b61149661295e565b60006114a0613560565b9050670de0b6b3a76400008111156114b457fe5b60a08190556040805182815290517fc454ee9b76c52f782a256af821b857ca6e125d1e3333bcede402fec2bed9600c9181900360200190a1610d836135a4565b603c81565b6000610dd26113486128d3565b6001600160a01b0316600090815260a2602052604090206002015490565b6002606654141561156a576040805162461bcd60e51b815260206004820152601f6024820152600080516020615c22833981519152604482015290519081900360640190fd5b60026066556040805160e081018252600080546001600160a01b0390811683526001548116602084015292820181905260608201819052609f548316608083015260a0820181905260c0820152609b549091166115c5615ab3565b6115cd615ae4565b609d60009054906101000a90046001600160a01b03166001600160a01b0316630fdb11cf6040518163ffffffff1660e01b8152600401602060405180830381600087803b15801561161d57600080fd5b505af1158015611631573d6000803e3d6000fd5b505050506040513d602081101561164757600080fd5b5051825260408051630d9a6b3560e01b815290516001600160a01b03851691630d9a6b35916004808301926020929190829003018186803b15801561168b57600080fd5b505afa15801561169f573d6000803e3d6000fd5b505050506040513d60208110156116b557600080fd5b5051602083015281516116c790612c59565b15801560408401526116ee576116e7848360000151846020015188613600565b905061170e565b61170b846000015185602001518460000151856020015189613980565b90505b60008160200151116117515760405162461bcd60e51b8152600401808060200182810382526022815260200180615f076022913960400191505060405180910390fd5b826001600160a01b031663335525ad82608001518360a001516040518363ffffffff1660e01b81526004018083815260200182815260200192505050600060405180830381600087803b1580156117a757600080fd5b505af11580156117bb573d6000803e3d6000fd5b505050506117db846000015185602001518360c001518460e00151612f56565b6101008101511561185a578351609a5461010083015160408051628063a560e01b81526001600160a01b0393841660048201526024810192909252519190921691628063a591604480830192600092919082900301818387803b15801561184157600080fd5b505af1158015611855573d6000803e3d6000fd5b505050505b61186c846000015182604001516131a9565b602081015160608301526101008101516040820151825161189292916111d29190612abf565b608080840182905260608085015160408086015186840151825193845260208401969096528282015291810193909352517f4152c73dd2614c4f9fc35e8c9cf16013cd588c75b49a4c1673ecffdcbcda94039281900390910190a1611905846000015133836060015184604001516132ea565b50506001606655505050565b60006112bb61191e613560565b613aac565b60a26020526000908152604090208054600182015460028301546003909301549192909160ff81169061010090046001600160801b031685565b611965613ad3565b6001600160a01b0316611976611c94565b6001600160a01b0316146119d1576040805162461bcd60e51b815260206004820181905260248201527f4f776e61626c653a2063616c6c6572206973206e6f7420746865206f776e6572604482015290519081900360640190fd5b6034546040516000916001600160a01b031690600080516020615d98833981519152908390a3603480546001600160a01b0319169055565b6000611a1361295e565b6001600160a01b038316600090815260a26020526040812060010154611a399084613ad7565b6001600160a01b038516600090815260a26020526040902060010181905591505092915050565b670de0b6b3a764000081565b60a65481565b609d546001600160a01b031681565b60a98181548110611a9157600080fd5b6000918252602090912001546001600160a01b0316905081565b670f43fc2c04ee000081565b60008054604080516314a6bf0f60e01b8152905183926001600160a01b0316916314a6bf0f916004808301926020929190829003018186803b158015611afc57600080fd5b505afa158015611b10573d6000803e3d6000fd5b505050506040513d6020811015611b2657600080fd5b5051600154604080516314a6bf0f60e01b815290519293506000926001600160a01b03909216916314a6bf0f91600480820192602092909190829003018186803b158015611b7357600080fd5b505afa158015611b87573d6000803e3d6000fd5b505050506040513d6020811015611b9d57600080fd5b50519050611bab8282613ad7565b9250505090565b6000546001600160a01b031681565b60a45481565b611bcf61295e565b610d8381613b31565b60008054604080516362e1c9bf60e11b8152905183926001600160a01b03169163c5c3937e916004808301926020929190829003018186803b158015611c1d57600080fd5b505afa158015611c31573d6000803e3d6000fd5b505050506040513d6020811015611c4757600080fd5b5051600154604080516362e1c9bf60e11b815290519293506000926001600160a01b039092169163c5c3937e91600480820192602092909190829003018186803b158015611b7357600080fd5b6034546001600160a01b031690565b60a55481565b6000611cb361295e565b6001600160a01b038316600090815260a26020526040812054610db39084613ad7565b60aa5481565b6040518060400160405280600c81526020016b2a3937bb32a6b0b730b3b2b960a11b81525081565b609f546001600160a01b031681565b6000806000611d2184613b9c565b915091506000611d318383613c16565b95945050505050565b6098546001600160a01b031681565b6000610dd282613c45565b6001600160a01b038116600090815260a2602052604081208054600190910154909180611d80856128e0565b9150611d8b85611382565b9050611d978483613ad7565b9350611da38382613ad7565b92509193509193565b60026066541415611df2576040805162461bcd60e51b815260206004820152601f6024820152600080516020615c22833981519152604482015290519081900360640190fd5b60026066556040805160e0810182526000546001600160a01b03908116825260015481166020830152609c54811692820192909252609e5482166060820152609f5482166080820152609a54821660a082015260995490911660c0820152611e58615b30565b611e6183613c71565b611e69613ccb565b609d60009054906101000a90046001600160a01b03166001600160a01b0316630fdb11cf6040518163ffffffff1660e01b8152600401602060405180830381600087803b158015611eb957600080fd5b505af1158015611ecd573d6000803e3d6000fd5b505050506040513d6020811015611ee357600080fd5b505160c08201819052611ef590613d53565b611efe89613da2565b611f0d8260400151338b613de1565b611f15611ab7565b60e0820181905260408084015181516370a0823160e01b815233600482015291516001600160a01b03909116916370a08231916024808301926020929190829003018186803b158015611f6757600080fd5b505afa158015611f7b573d6000803e3d6000fd5b505050506040513d6020811015611f9157600080fd5b50511115611f9b57fe5b888152608082015160c0820151600091611fb6918b90613e98565b15611fc25750876120e3565b82608001516001600160a01b0316634d6228316040518163ffffffff1660e01b815260040160206040518083038186803b158015611fff57600080fd5b505afa158015612013573d6000803e3d6000fd5b505050506040513d602081101561202957600080fd5b505190505b6001600160a01b0381161580159061205a5750670f43fc2c04ee0000612058828460c001516126b6565b105b156120e35782608001516001600160a01b031663b72703ac826040518263ffffffff1660e01b815260040180826001600160a01b0316815260200191505060206040518083038186803b1580156120b057600080fd5b505afa1580156120c4573d6000803e3d6000fd5b505050506040513d60208110156120da57600080fd5b5051905061202e565b846120ee5760001994505b6001600160a01b038116158015906121065750815115155b80156121125750600085115b1561222557848060019003955050600083608001516001600160a01b031663b72703ac836040518263ffffffff1660e01b815260040180826001600160a01b0316815260200191505060206040518083038186803b15801561217357600080fd5b505afa158015612187573d6000803e3d6000fd5b505050506040513d602081101561219d57600080fd5b5051845160208601519192506121b391846129a9565b60006121cc858486600001518760c001518e8e8e613ff9565b90508060400151156121df575050612225565b805160208501516121ef91613ad7565b602080860191909152810151604085015161220991613ad7565b60408501528051845161221b91612abf565b84525090506120ee565b60008260400151116122685760405162461bcd60e51b8152600401808060200182810382526029815260200180615c686029913960400191505060405180910390fd5b61227f82604001518360c001518460e001516142ed565b5061228d8260400151614383565b6060830181905260408301516122a4919086614390565b82600001516001600160a01b0316628063a5846060015184606001516040518363ffffffff1660e01b815260040180836001600160a01b0316815260200182815260200192505050600060405180830381600087803b15801561230657600080fd5b505af115801561231a573d6000803e3d6000fd5b5050505082606001516001600160a01b031663c91d2d3883606001516040518263ffffffff1660e01b815260040180828152602001915050600060405180830381600087803b15801561236c57600080fd5b505af1158015612380573d6000803e3d6000fd5b505050506060820151604083015161239791612abf565b8260800181815250507f43a3f4082a4dbc33d78e317d2497d3a730bc7fc3574159dcea1056e62e5d9ad88a8360200151846040015185606001516040518085815260200184815260200183815260200182815260200194505050505060405180910390a182604001516001600160a01b0316639dc29fac3384602001516040518363ffffffff1660e01b815260040180836001600160a01b0316815260200182815260200192505050600060405180830381600087803b15801561245a57600080fd5b505af115801561246e573d6000803e3d6000fd5b5050505082600001516001600160a01b0316632a7ba1f783602001516040518263ffffffff1660e01b815260040180828152602001915050600060405180830381600087803b1580156124c057600080fd5b505af11580156124d4573d6000803e3d6000fd5b5050505082600001516001600160a01b0316628063a53384608001516040518363ffffffff1660e01b815260040180836001600160a01b0316815260200182815260200192505050600060405180830381600087803b15801561253657600080fd5b505af115801561254a573d6000803e3d6000fd5b50506001606655505050505050505050505050565b60a35481565b600154600160a81b900460ff168061258057506125806143ff565b806125955750600154600160a01b900460ff16155b6125d05760405162461bcd60e51b815260040180806020018281038252602e815260200180615c91602e913960400191505060405180910390fd5b600154600160a81b900460ff16158015612607576001805460ff60a01b1960ff60a81b19909116600160a81b1716600160a01b1790555b61260f614410565b6126176144d8565b6126218a8a614582565b6126318b89898989898989614634565b8015612645576001805460ff60a81b191690555b5050505050505050505050565b7f000000000000000000000000000000000000000000000000000000000000000081565b60006112bb612683613560565b6133e3565b670ddd4b8c6c7d70d881565b61269c61295e565b610d838160026148d6565b609a546001600160a01b031681565b60008060006126c485613b9c565b91509150600061142c8383876149ef565b60a15481565b60006126e561295e565b6001600160a01b038316600090815260a26020526040812060010154611a399084612abf565b6000610dd2612718612676565b83614a19565b6001600160a01b0316600090815260a2602052604090205490565b600060a9828154811061274857fe5b6000918252602090912001546001600160a01b031692915050565b600060016001600160a01b038316600090815260a2602052604090206003015460ff16600481111561279157fe5b1461279e57506000610e1b565b5060a6546001600160a01b038216600090815260a8602052604090205410919050565b609e546001600160a01b031681565b6127d8613ad3565b6001600160a01b03166127e9611c94565b6001600160a01b031614612844576040805162461bcd60e51b815260206004820181905260248201527f4f776e61626c653a2063616c6c6572206973206e6f7420746865206f776e6572604482015290519081900360640190fd5b6001600160a01b0381166128895760405162461bcd60e51b8152600401808060200182810382526026815260200180615c426026913960400191505060405180910390fd5b6034546040516001600160a01b03808416921690600080516020615d9883398151915290600090a3603480546001600160a01b0319166001600160a01b0392909216919091179055565b60006112bb60a054613aac565b6001600160a01b038116600090815260a8602052604081206001015460a75482906113aa9083612abf565b609c546001600160a01b031681565b7f000000000000000000000000000000000000000000000000000000000000000081565b61294661295e565b610d8381614a72565b6099546001600160a01b031681565b6098546001600160a01b031633146129a75760405162461bcd60e51b815260040180806020018281038252603b815260200180615dd8603b913960400191505060405180910390fd5b565b6129b281612763565b15612aba576129c081613419565b60006129cb82611382565b905060006129d8836128e0565b6001600160a01b038416600090815260a26020526040902060010154909150612a019083613ad7565b6001600160a01b038416600090815260a260205260409020600181019190915554612a2c9082613ad7565b6001600160a01b038416600090815260a26020526040902055612a4e83613b31565b612a5a85858385614abc565b6001600160a01b038316600081815260a260209081526040808320805460018201546002909201548351918252938101919091528082019290925260608201929092529051600080516020615db88339815191529181900360800190a250505b505050565b600082821115612b16576040805162461bcd60e51b815260206004820152601e60248201527f536166654d6174683a207375627472616374696f6e206f766572666c6f770000604482015290519081900360640190fd5b50900390565b60a980546001808201835560008381527fdc471888e6136f84c49e531e9c9240dc4e3fba66da9d3a49e2af6202133683e090920180546001600160a01b0319166001600160a01b03861617905591549091612b779190612abf565b6001600160a01b0392909216600090815260a2602052604090206003018054610100600160881b0319166101006001600160801b038516021790555090565b6001600160a01b038116600090815260a260205260408120600101548190612bdd90614bbe565b6001600160a01b038416600090815260a26020526040902060020180549082905560a35491925090612c1b908390612c159084612abf565b90613ad7565b60a381905560408051918252517f6bac5e0eb3c44eb03a60ab11ec3a2c051771616aecadbcfff2630aabae5203829181900360200190a15092915050565b600080612c6583613c45565b6714d1120d7b160000119392505050565b612c7e615ae4565b612c86615b75565b612c8e615ae4565b84825260006080830152612ca0611ab7565b60a0830152612cad611bd8565b60c0830152600060208301525b835182602001511015612e895783826020015181518110612cd757fe5b6020908102919091018101516001600160a01b031660608401819052600090815260a2909152604090206003015460019060ff166004811115612d1657fe5b14612d2057612e79565b612d2e8260600151876126b6565b60408301526080820151612e2157670f43fc2c04ee0000826040015110158015612d5757508151155b15612d6157612e79565b6000612d768360c001518460a00151896149ef565b9050612d938989856060015186604001518760000151868d614bfa565b60808101518451919350612da79190612abf565b8352608082015160a0840151612dbc91612abf565b8360a0018181525050612df18261010001516111d284604001516111d28660a001518860c00151612abf90919063ffffffff16565b60c0840152612e008483614f38565b9350612e158360c001518460a0015189615019565b15608084015250612e79565b81608001518015612e3d5750670f43fc2c04ee00008260400151105b15612e7957612e5688888460600151856000015161503a565b60808101518351919250612e6a9190612abf565b8252612e768382614f38565b92505b6020820180516001019052612cba565b505095945050505050565b612e9c615ae4565b612ea4615b75565b612eac615ae4565b848252600060208301525b835182602001511015612e895783826020015181518110612ed457fe5b60209081029190910101516001600160a01b031660608301819052612ef990876126b6565b60408301819052670f43fc2c04ee00001115612f4657612f2388888460600151856000015161503a565b60808101518351919250612f379190612abf565b8252612f438382614f38565b92505b6020820180516001019052612eb7565b81612f60576131a3565b60aa54600090612f7c90612c1584670de0b6b3a76400006134a0565b90506000612fa160ab54612c15670de0b6b3a7640000876134a090919063ffffffff16565b90506000612fba60a354846134f990919063ffffffff16565b90506000612fd360a354846134f990919063ffffffff16565b9050612ff4612fed60a354846134a090919063ffffffff16565b8590612abf565b60aa5560a354613010906130099083906134a0565b8490612abf565b60ab5560a6546130209083613ad7565b60a65560a7546130309082613ad7565b60a781905560a65460408051918252602082019290925281517f9f8bc8ab0daf5bceef75ecfd2085d1fcc6548c657ea970d9a23a60610d0737e3929181900390910190a1876001600160a01b0316632a7ba1f7876040518263ffffffff1660e01b815260040180828152602001915050600060405180830381600087803b1580156130ba57600080fd5b505af11580156130ce573d6000803e3d6000fd5b50505050866001600160a01b0316632b7c7b11876040518263ffffffff1660e01b815260040180828152602001915050600060405180830381600087803b15801561311857600080fd5b505af115801561312c573d6000803e3d6000fd5b50505050876001600160a01b0316628063a588876040518363ffffffff1660e01b815260040180836001600160a01b0316815260200182815260200192505050600060405180830381600087803b15801561318657600080fd5b505af115801561319a573d6000803e3d6000fd5b50505050505050505b50505050565b60a35460a4819055506000826001600160a01b031663c5c3937e6040518163ffffffff1660e01b815260040160206040518083038186803b1580156131ed57600080fd5b505afa158015613201573d6000803e3d6000fd5b505050506040513d602081101561321757600080fd5b5051600154604080516362e1c9bf60e11b815290519293506000926001600160a01b039092169163c5c3937e91600480820192602092909190829003018186803b15801561326457600080fd5b505afa158015613278573d6000803e3d6000fd5b505050506040513d602081101561328e57600080fd5b505190506132a081612c158486612abf565b60a581905560a45460408051918252602082019290925281517f51bf4c63ec3cba9d03d43238abbdd979dd91bd16d9895c74ceea9118c7baaf60929181900390910190a150505050565b811561336957609c5460995460408051631062c15f60e11b81526001600160a01b039283166004820152868316602482015260448101869052905191909216916320c582be91606480830192600092919082900301818387803b15801561335057600080fd5b505af1158015613364573d6000803e3d6000fd5b505050505b80156131a357836001600160a01b0316628063a584836040518363ffffffff1660e01b815260040180836001600160a01b0316815260200182815260200192505050600060405180830381600087803b1580156133c557600080fd5b505af11580156133d9573d6000803e3d6000fd5b5050505050505050565b6000610dd261340b836103e8670de0b6b3a76400005b04600502613ad790919063ffffffff16565b670de0b6b3a76400006151b4565b60016001600160a01b038216600090815260a2602052604090206003015460ff16600481111561344557fe5b14610d835760405162461bcd60e51b815260040180806020018281038252602f815260200180615f29602f913960400191505060405180910390fd5b6000613499670de0b6b3a764000061142685856134a0565b9392505050565b6000826134af57506000610dd2565b828202828482816134bc57fe5b04146134995760405162461bcd60e51b8152600401808060200182810382526021815260200180615d776021913960400191505060405180910390fd5b600080821161354f576040805162461bcd60e51b815260206004820152601a60248201527f536166654d6174683a206469766973696f6e206279207a65726f000000000000604482015290519081900360640190fd5b81838161355857fe5b049392505050565b60008061356b6151ca565b90506000613581670ddd4b8c6c7d70d8836151e6565b9050611bab670de0b6b3a76400006114268360a0546134a090919063ffffffff16565b60006135bb60a15442612abf90919063ffffffff16565b9050603c8110610d83574260a181905560408051918252517f860f8d2f0c74dd487e89e2883e3b25b8159ce1e1b3433a291cba7b82c508f3bc9181900360200190a150565b613608615ae4565b613610615b75565b613618615ae4565b8482526000608083015261362a611ab7565b60a0830152613637611bd8565b8260c001818152505086608001516001600160a01b0316634d6228316040518163ffffffff1660e01b815260040160206040518083038186803b15801561367d57600080fd5b505afa158015613691573d6000803e3d6000fd5b505050506040513d60208110156136a757600080fd5b50516001600160a01b039081166060840152608088015160408051631e22314360e01b815290516000939290921691631e22314391600480820192602092909190829003018186803b1580156136fc57600080fd5b505afa158015613710573d6000803e3d6000fd5b505050506040513d602081101561372657600080fd5b50516000602085015290505b84836020015110801561375b5750806001600160a01b031683606001516001600160a01b031614155b1561397557600088608001516001600160a01b031663b72703ac85606001516040518263ffffffff1660e01b815260040180826001600160a01b0316815260200191505060206040518083038186803b1580156137b757600080fd5b505afa1580156137cb573d6000803e3d6000fd5b505050506040513d60208110156137e157600080fd5b505160608501519091506137f590896126b6565b604085015260808401516138ed57670f43fc2c04ee000084604001511015801561381e57508351155b156138295750613975565b600061383e8560c001518660a001518b6149ef565b8a5160208c015160608801516040890151895194955061385f94868f614bfa565b608081015186519195506138739190612abf565b8552608084015160a086015161388891612abf565b8560a00181815250506138bd8461010001516111d286604001516111d28860a001518a60c00151612abf90919063ffffffff16565b60c08601526138cc8685614f38565b95506138e18560c001518660a001518b615019565b15608086015250613957565b836080015180156139095750670f43fc2c04ee00008460400151105b156139515761392a89600001518a602001518660600151876000015161503a565b6080810151855191945061393e9190612abf565b845261394a8584614f38565b9450613957565b50613975565b6001600160a01b031660608401526020830180516001019052613732565b505050949350505050565b613988615ae4565b613990615b75565b613998615ae4565b609f54858352600060208401526001600160a01b03165b8483602001511015613aa057806001600160a01b0316634d6228316040518163ffffffff1660e01b815260040160206040518083038186803b1580156139f457600080fd5b505afa158015613a08573d6000803e3d6000fd5b505050506040513d6020811015613a1e57600080fd5b50516001600160a01b031660608401819052613a3a90886126b6565b60408401819052670f43fc2c04ee00001115613a8b57613a6489898560600151866000015161503a565b60808101518451919350613a789190612abf565b8352613a848483614f38565b9350613a90565b613aa0565b60208301805160010190526139af565b50505095945050505050565b6000610dd2613ac6836103e8670de0b6b3a76400006133f9565b66b1a2bc2ec500006151b4565b3390565b600082820183811015613499576040805162461bcd60e51b815260206004820152601b60248201527f536166654d6174683a206164646974696f6e206f766572666c6f770000000000604482015290519081900360640190fd5b60a680546001600160a01b038316600090815260a8602090815260409182902092835560a7546001909301839055925481519081529283019190915280517fc437f324d85e369394148dd9d62f98f534b382e01ed3dd2eb98138fb6d3ab49a9281900390910190a150565b6000806000613baa84611382565b90506000613bb7856128e0565b6001600160a01b038616600090815260a2602052604081206001015491925090613be19084613ad7565b6001600160a01b038716600090815260a2602052604081205491925090613c089084613ad7565b919550909350505050915091565b60008115613c3c57613c35826114268568056bc75e2d631000006134a0565b9050610dd2565b50600019610dd2565b600080613c50611bd8565b90506000613c5c611ab7565b9050613c698282866149ef565b949350505050565b6611c37937e080008110801590613c905750670de0b6b3a76400008111155b610d835760405162461bcd60e51b8152600401808060200182810382526030815260200180615ead6030913960400191505060405180910390fd5b613d157f00000000000000000000000000000000000000000000000000000000000000007f0000000000000000000000000000000000000000000000000000000000000000613ad7565b4210156129a75760405162461bcd60e51b8152600401808060200182810382526040815260200180615d376040913960400191505060405180910390fd5b670f43fc2c04ee0000613d6582613c45565b1015610d835760405162461bcd60e51b815260040180806020018281038252602a815260200180615edd602a913960400191505060405180910390fd5b60008111610d835760405162461bcd60e51b815260040180806020018281038252602e815260200180615e49602e913960400191505060405180910390fd5b80836001600160a01b03166370a08231846040518263ffffffff1660e01b815260040180826001600160a01b0316815260200191505060206040518083038186803b158015613e2f57600080fd5b505afa158015613e43573d6000803e3d6000fd5b505050506040513d6020811015613e5957600080fd5b50511015612aba5760405162461bcd60e51b815260040180806020018281038252604e815260200180615cbf604e913960600191505060405180910390fd5b60006001600160a01b0383161580613f265750836001600160a01b0316635dbe47e8846040518263ffffffff1660e01b815260040180826001600160a01b0316815260200191505060206040518083038186803b158015613ef857600080fd5b505afa158015613f0c573d6000803e3d6000fd5b505050506040513d6020811015613f2257600080fd5b5051155b80613f415750670f43fc2c04ee0000613f3f84846126b6565b105b15613f4e57506000613499565b6000846001600160a01b031663765e0159856040518263ffffffff1660e01b815260040180826001600160a01b0316815260200191505060206040518083038186803b158015613f9d57600080fd5b505afa158015613fb1573d6000803e3d6000fd5b505050506040513d6020811015613fc757600080fd5b505190506001600160a01b0381161580611d315750670f43fc2c04ee0000613fef82856126b6565b1095945050505050565b614001615bbd565b6001600160a01b038716600090815260a2602052604090205461404f90879061404a907f0000000000000000000000000000000000000000000000000000000000000000612abf565b6151b4565b80825261406a90869061142690670de0b6b3a76400006134a0565b60208083019190915281516001600160a01b038916600090815260a2909252604082205461409791612abf565b6020808401516001600160a01b038b16600090815260a2909252604082206001015492935090916140c791612abf565b90507f000000000000000000000000000000000000000000000000000000000000000082141561418b576140fa89614a72565b6141058960046148d6565b6141318a8a7f000000000000000000000000000000000000000000000000000000000000000084615285565b886001600160a01b0316600080516020615db8833981519152600080600060036040518085815260200184815260200183815260200182600381111561417357fe5b815260200194505050505060405180910390a26142df565b60006141978284613c16565b905084811415806141cf57507f00000000000000000000000000000000000000000000000000000000000000006141cd84615427565b105b156141e357505060016040830152506142e2565b60808b01516040805163015f109360e51b81526001600160a01b038d81166004830152602482018590528a81166044830152898116606483015291519190921691632be2126091608480830192600092919082900301818387803b15801561424a57600080fd5b505af115801561425e573d6000803e3d6000fd5b5050506001600160a01b038b16600090815260a2602052604090208481556001018390555061428c8a612bb6565b506001600160a01b038a16600081815260a2602090815260409182902060020154825187815291820186905281830152600360608201529051600080516020615db88339815191529181900360800190a2505b50505b979650505050505050565b6000806142f8613560565b9050600061430a8461142688886134a0565b9050600061432361431c8360026134f9565b8490613ad7565b905061433781670de0b6b3a76400006151b4565b90506000811161434357fe5b60a08190556040805182815290517fc454ee9b76c52f782a256af821b857ca6e125d1e3333bcede402fec2bed9600c9181900360200190a161142c6135a4565b6000610dd26127186112ae565b60006143a88361142686670de0b6b3a76400006134a0565b9050818111156131a3576040805162461bcd60e51b815260206004820152601d60248201527f4665652065786365656465642070726f7669646564206d6178696d756d000000604482015290519081900360640190fd5b600061440a30615453565b15905090565b600154600160a81b900460ff168061442b575061442b6143ff565b806144405750600154600160a01b900460ff16155b61447b5760405162461bcd60e51b815260040180806020018281038252602e815260200180615c91602e913960400191505060405180910390fd5b600154600160a81b900460ff161580156144b2576001805460ff60a01b1960ff60a81b19909116600160a81b1716600160a01b1790555b6144ba615459565b6144c2615510565b8015610d83576001805460ff60a81b1916905550565b600154600160a81b900460ff16806144f357506144f36143ff565b806145085750600154600160a01b900460ff16155b6145435760405162461bcd60e51b815260040180806020018281038252602e815260200180615c91602e913960400191505060405180910390fd5b600154600160a81b900460ff1615801561457a576001805460ff60a01b1960ff60a81b19909116600160a81b1716600160a01b1790555b6144c261560e565b61458b826156cb565b614594816156cb565b600080546001600160a01b038085166001600160a01b03199283168117909355600180549185169190921617905560408051918252517f78f058b189175430c48dc02699e3a0031ea4ff781536dc2fab847de4babdd8829181900360200190a1604080516001600160a01b038316815290517f5ee0cae2f063ed938bb55046f6a932fb6ae792bf43624806bb90abe68a50be9b9181900360200190a15050565b61463d886156cb565b614646876156cb565b61464f866156cb565b614658856156cb565b614661846156cb565b61466a836156cb565b614673826156cb565b61467c816156cb565b609880546001600160a01b03199081166001600160a01b038b8116918217909355609b805483168b85161790556099805483168a8516179055609a80548316898516179055609d80548316888516179055609c80548316878516179055609f80548316868516179055609e805490921692841692909217905560408051918252517f3ca631ffcd2a9b5d9ae18543fc82f58eb4ca33af9e6ab01b7a8e95331e6ed985916020908290030190a1604080516001600160a01b038916815290517f82966d27eea39b038ee0fa30cd16532bb24f6e65d31cb58fb227aa5766cdcc7f9181900360200190a1604080516001600160a01b038816815290517fcfb07d791fcafc032b35837b50eb84b74df518cf4cc287e8084f47630fa70fa09181900360200190a1604080516001600160a01b038716815290517fe67f36a6e961157d6eff83b91f3af5a62131ceb6f04954ef74f51c1c05e7f88d9181900360200190a1604080516001600160a01b038616815290517f8c537274438aa850a330284665d81a85dd38267d09e4050d416bfc94142db2649181900360200190a1604080516001600160a01b038516815290517f112220fa8dbe96141556e0dc3d74dd95075b323f4f297616048e02d82d7017159181900360200190a1604080516001600160a01b038416815290517f65f4cf077bc01e4742eb5ad98326f6e95b63548ea24b17f8d5e823111fe788009181900360200190a1604080516001600160a01b038316815290517ff81a824d1d9030c0365252fb96daf0565f9c2007c88e13001379dda7f06d5d5c9181900360200190a15050505050505050565b60008160048111156148e457fe5b141580156148fe575060018160048111156148fb57fe5b14155b61490457fe5b60a95461491081615726565b6001600160a01b038316600090815260a260205260409020600301805483919060ff1916600183600481111561494257fe5b02179055506001600160a01b038316600090815260a26020908152604080832060018082018590559084905560a89092528220828155015561498483826157df565b609f5460408051631484968760e11b81526001600160a01b038681166004830152915191909216916329092d0e91602480830192600092919082900301818387803b1580156149d257600080fd5b505af11580156149e6573d6000803e3d6000fd5b50505050505050565b60008215614a10576000614a078461142687866134a0565b91506134999050565b50600019613499565b600080614a32670de0b6b3a764000061142686866134a0565b90508281106134995760405162461bcd60e51b8152600401808060200182810382526036815260200180615e776036913960400191505060405180910390fd5b6001600160a01b038116600090815260a2602052604090206002015460a354614a9b9082612abf565b60a355506001600160a01b0316600090815260a26020526040812060020155565b826001600160a01b0316632a7ba1f7836040518263ffffffff1660e01b815260040180828152602001915050600060405180830381600087803b158015614b0257600080fd5b505af1158015614b16573d6000803e3d6000fd5b50505050836001600160a01b0316632b7c7b11836040518263ffffffff1660e01b815260040180828152602001915050600060405180830381600087803b158015614b6057600080fd5b505af1158015614b74573d6000803e3d6000fd5b50505050826001600160a01b0316638f7be730826040518263ffffffff1660e01b815260040180828152602001915050600060405180830381600087803b1580156133c557600080fd5b60008060a55460001415614bd3575081610dd2565b600060a45411614bdf57fe5b61349960a55461142660a454866134a090919063ffffffff16565b614c02615ae4565b614c0a615be0565b60a954600110614c1a57506142e2565b614c2387611d54565b60408501526020848101919091528401819052908352614c4290615986565b604083018190527f000000000000000000000000000000000000000000000000000000000000000060608401526020830151614c7d91612abf565b8152670de0b6b3a76400008611614d7f57614ca2898983602001518460400151614abc565b614cab87614a72565b60006080830181905260a0830152815160c0830152805160e0830152614cd28760036148d6565b866001600160a01b0316600080516020615c0283398151915283600001518460200151600260405180848152602001838152602001826003811115614d1357fe5b8152602001935050505060405180910390a2866001600160a01b0316600080516020615db88339815191526000806000600260405180858152602001848152602001838152602001826003811115614d6757fe5b815260200194505050505060405180910390a2614f2c565b670de0b6b3a764000086118015614d9d5750670f43fc2c04ee000086105b15614ded57614db6898983602001518460400151614abc565b614dbf87614a72565b81518151614dce91908761598d565b60e086015260c085015260a08401526080830152614cd28760036148d6565b670f43fc2c04ee00008610158015614e0457508386105b8015614e11575081518510155b15614f1b57614e2a898983602001518460400151614abc565b84614e3157fe5b614e3a87614a72565b614e4d82600001518360200151856159e7565b9150614e5a8760036148d6565b61010082015115614eda57609a5461010083015160408051633f10abab60e01b81526001600160a01b038b81166004830152602482019390935290519190921691633f10abab91604480830192600092919082900301818387803b158015614ec157600080fd5b505af1158015614ed5573d6000803e3d6000fd5b505050505b866001600160a01b0316600080516020615c0283398151915283600001518460a00151600260405180848152602001838152602001826003811115614d1357fe5b614f23615ae4565b91506142e29050565b50979650505050505050565b614f40615ae4565b60408083015190840151614f5391613ad7565b604082015260608083015190840151614f6b91613ad7565b606082015281516020840151614f8091613ad7565b6020808301919091528201518351614f9791613ad7565b815260808083015190840151614fac91613ad7565b608082015260a08083015190840151614fc491613ad7565b60a082015260c08083015190840151614fdc91613ad7565b60c082015260e08083015190840151614ff491613ad7565b60e0820152610100808301519084015161500d91613ad7565b61010082015292915050565b6000806150278585856149ef565b6714d1120d7b1600001195945050505050565b615042615ae4565b61504a615be0565b61505384611d54565b6040850190815260208581019283528601929092529184529051905161507d918891889190614abc565b61508684614a72565b6150938260200151615986565b604083018190527f0000000000000000000000000000000000000000000000000000000000000000606084015260208301516000916150d29190612abf565b90506150e38360000151828661598d565b60e087015260c086015260a085015260808401526151028560036148d6565b846001600160a01b0316600080516020615c028339815191528460000151856020015160016040518084815260200183815260200182600381111561514357fe5b8152602001935050505060405180910390a2846001600160a01b0316600080516020615db8833981519152600080600060016040518085815260200184815260200183815260200182600381111561519757fe5b815260200194505050505060405180910390a25050949350505050565b60008183106151c35781613499565b5090919050565b60006112bb603c61142660a15442612abf90919063ffffffff16565b6000631f5405008211156151fc57631f54050091505b816152105750670de0b6b3a7640000610dd2565b670de0b6b3a764000083835b600181111561527b576002810661524b576152378283615a86565b91506152448160026134f9565b9050615276565b6152558284615a86565b92506152618283615a86565b91506152736002611426836001612abf565b90505b61521c565b61142c8284615a86565b6040808501516099548251632770a7eb60e21b81526001600160a01b039182166004820152602481018690529251911691639dc29fac91604480830192600092919082900301818387803b1580156152dc57600080fd5b505af11580156152f0573d6000803e3d6000fd5b5050505083600001516001600160a01b0316632a7ba1f7836040518263ffffffff1660e01b815260040180828152602001915050600060405180830381600087803b15801561533e57600080fd5b505af1158015615352573d6000803e3d6000fd5b505050508360a001516001600160a01b0316633f10abab84836040518363ffffffff1660e01b815260040180836001600160a01b0316815260200182815260200192505050600060405180830381600087803b1580156153b157600080fd5b505af11580156153c5573d6000803e3d6000fd5b5050505083600001516001600160a01b0316628063a58560a00151836040518363ffffffff1660e01b815260040180836001600160a01b0316815260200182815260200192505050600060405180830381600087803b1580156133c557600080fd5b6000610dd2827f0000000000000000000000000000000000000000000000000000000000000000612abf565b3b151590565b600154600160a81b900460ff168061547457506154746143ff565b806154895750600154600160a01b900460ff16155b6154c45760405162461bcd60e51b815260040180806020018281038252602e815260200180615c91602e913960400191505060405180910390fd5b600154600160a81b900460ff161580156144c2576001805460ff60a01b1960ff60a81b19909116600160a81b1716600160a01b1790558015610d83576001805460ff60a81b1916905550565b600154600160a81b900460ff168061552b575061552b6143ff565b806155405750600154600160a01b900460ff16155b61557b5760405162461bcd60e51b815260040180806020018281038252602e815260200180615c91602e913960400191505060405180910390fd5b600154600160a81b900460ff161580156155b2576001805460ff60a01b1960ff60a81b19909116600160a81b1716600160a01b1790555b60006155bc613ad3565b603480546001600160a01b0319166001600160a01b03831690811790915560405191925090600090600080516020615d98833981519152908290a3508015610d83576001805460ff60a81b1916905550565b600154600160a81b900460ff168061562957506156296143ff565b8061563e5750600154600160a01b900460ff16155b6156795760405162461bcd60e51b815260040180806020018281038252602e815260200180615c91602e913960400191505060405180910390fd5b600154600160a81b900460ff161580156156b0576001805460ff60a01b1960ff60a81b19909116600160a81b1716600160a01b1790555b60016066558015610d83576001805460ff60a81b1916905550565b6001600160a01b038116610d83576040805162461bcd60e51b815260206004820152601e60248201527f4163636f756e742063616e6e6f74206265207a65726f20616464726573730000604482015290519081900360640190fd5b6001811180156157a45750609f546040805163de8fa43160e01b815290516001926001600160a01b03169163de8fa431916004808301926020929190829003018186803b15801561577657600080fd5b505afa15801561578a573d6000803e3d6000fd5b505050506040513d60208110156157a057600080fd5b5051115b610d835760405162461bcd60e51b815260040180806020018281038252602a815260200180615d0d602a913960400191505060405180910390fd5b6001600160a01b038216600090815260a2602052604081206003015460ff169081600481111561580b57fe5b141580156158255750600181600481111561582257fe5b14155b61582b57fe5b6001600160a01b038316600090815260a2602052604081206003015461010090046001600160801b0316908390615863826001612abf565b905080836001600160801b0316111561587857fe5b600060a9828154811061588757fe5b60009182526020909120015460a980546001600160a01b03909216925082916001600160801b0387169081106158b957fe5b600091825260208083209190910180546001600160a01b0319166001600160a01b0394851617905591831680825260a283526040918290206003018054610100600160881b0319166101006001600160801b038a169081029190911790915582519182529281019290925280517f02b04ae5f7be9ca7c103293a2aa15f3c339d15d6eda53b721fef7b0e609c831a9281900390910190a160a980548061595b57fe5b600082815260209020810160001990810180546001600160a01b031916905501905550505050505050565b60c8900490565b600080808084156159d1576159a287866151b4565b93506159b28761142688876134a0565b92506159be8785612abf565b91506159ca8684612abf565b90506159de565b5060009250829150859050845b93509350935093565b6159ef615ae4565b838152602081018390526000615a118361142687670f43fc2c04ee00006134a0565b9050615a1c81615986565b604083018190527f0000000000000000000000000000000000000000000000000000000000000000606084015260808301869052615a5b908290612abf565b60a0830152615a6a8482612abf565b61010083015250600060c0820181905260e08201529392505050565b600080615a9384846134a0565b9050613c69670de0b6b3a7640000611426836706f05b59d3b20000613ad7565b6040518060a00160405280600081526020016000815260200160001515815260200160008152602001600081525090565b6040518061012001604052806000815260200160008152602001600081526020016000815260200160008152602001600081526020016000815260200160008152602001600081525090565b60405180610100016040528060008152602001600081526020016000815260200160008152602001600081526020016000815260200160008152602001600081525090565b6040518060e0016040528060008152602001600081526020016000815260200160006001600160a01b0316815260200160001515815260200160008152602001600081525090565b604051806060016040528060008152602001600081526020016000151581525090565b6040518060600160405280600081526020016000815260200160008152509056feea67486ed7ebe3eea8ab3390efd4a3c8aae48be5bea27df104a8af786c4084345265656e7472616e637947756172643a207265656e7472616e742063616c6c004f776e61626c653a206e6577206f776e657220697320746865207a65726f206164647265737354726f76654d616e616765723a20556e61626c6520746f2072656465656d20616e7920616d6f756e74496e697469616c697a61626c653a20636f6e747261637420697320616c726561647920696e697469616c697a656454726f76654d616e616765723a2052657175657374656420726564656d7074696f6e20616d6f756e74206d757374206265203c3d20757365722773206465627420746f6b656e2062616c616e636554726f76654d616e616765723a204f6e6c79206f6e652074726f766520696e207468652073797374656d54726f76654d616e616765723a20526564656d7074696f6e7320617265206e6f7420616c6c6f77656420647572696e6720626f6f747374726170207068617365536166654d6174683a206d756c7469706c69636174696f6e206f766572666c6f778be0079c531659141344cd1fd0a4f28419497f9722a3daafe3b4186f6b6457e0c3770d654ed33aeea6bf11ac8ef05d02a6a04ed4686dd2f624d853bbec43cc8b54726f76654d616e616765723a2043616c6c6572206973206e6f742074686520426f72726f7765724f7065726174696f6e7320636f6e747261637454726f76654d616e616765723a2043616c6c646174612061646472657373206172726179206d757374206e6f7420626520656d70747954726f76654d616e616765723a20416d6f756e74206d7573742062652067726561746572207468616e207a65726f54726f76654d616e616765723a2046656520776f756c642065617420757020616c6c2072657475726e656420636f6c6c61746572616c4d6178206665652070657263656e74616765206d757374206265206265747765656e20302e352520616e64203130302554726f76654d616e616765723a2043616e6e6f742072656465656d207768656e20544352203c204d435254726f76654d616e616765723a206e6f7468696e6720746f206c697175696461746554726f76654d616e616765723a2054726f766520646f6573206e6f74206578697374206f7220697320636c6f736564a2646970667358221220389f68c53361c45569b8b73ecc75526d07370e8bdfd90c403489e395b8c975ef64736f6c6343000706003360c060405234801561001057600080fd5b5060405161423d38038061423d8339818101604052604081101561003357600080fd5b508051602090910151608082905260a08190526141a361009a60003980610c4f52806128525280612d3b5280613a695250806109f05280610b545280610b935280610c2b5280611604528061243b52806131bb52806131e5528061399552506141a36000f3fe6080604052600436106101cf5760003560e01c8063741bef1a116100f8578063ae91875411610090578063ae9187541461059b578063c306b378146105b0578063c6a6cf201461062e578063cda775f914610676578063e54524231461068b578063f2fde38b146106a0578063f8d89898146106d3578063f92d3433146106e8578063fe9d0323146106fd576101cf565b8063741bef1a14610459578063794e57241461046e578063795d26c3146104835780637f7dde4a14610498578063860665b3146104ad578063887105d3146104e75780638da5cb5b146104fc578063a20baee614610444578063a3f4df7e14610511576101cf565b80634ff814431161016b5780634ff81443146103105780635530273c1461033a5780635733d58f1461037b57806357aae46b1461039057806362a0d799146103a557806368647db1146103ec5780636f0b0c1c1461041a578063715018a61461042f57806372fe25aa14610444576101cf565b80630802c78a146101d45780630b622ab2146102175780630e43d8ce146102485780630e704d5014610280578063139f2e8c146102955780631bf43555146102bc5780633cc74225146102d15780633d83908a146102e65780634870dd9a146102fb575b600080fd5b3480156101e057600080fd5b50610215600480360360608110156101f757600080fd5b508035906001600160a01b0360208201358116916040013516610712565b005b34801561022357600080fd5b5061022c610777565b604080516001600160a01b039092168252519081900360200190f35b6102156004803603606081101561025e57600080fd5b506001600160a01b038135811691602081013582169160409091013516610786565b34801561028c57600080fd5b506102156107a5565b3480156102a157600080fd5b506102aa610c29565b60408051918252519081900360200190f35b3480156102c857600080fd5b506102aa610c4d565b3480156102dd57600080fd5b5061022c610c71565b3480156102f257600080fd5b5061022c610c80565b34801561030757600080fd5b506102aa610c8f565b34801561031c57600080fd5b506102aa6004803603602081101561033357600080fd5b5035610c94565b34801561034657600080fd5b506102156004803603606081101561035d57600080fd5b508035906001600160a01b0360208201358116916040013516610ca5565b34801561038757600080fd5b506102aa610d00565b34801561039c57600080fd5b5061022c610d0c565b3480156103b157600080fd5b50610215600480360360808110156103c857600080fd5b508035906020810135906001600160a01b0360408201358116916060013516610d1b565b6102156004803603604081101561040257600080fd5b506001600160a01b0381358116916020013516610d82565b34801561042657600080fd5b50610215610de6565b34801561043b57600080fd5b50610215610e4c565b34801561045057600080fd5b506102aa610ef8565b34801561046557600080fd5b5061022c610f04565b34801561047a57600080fd5b506102aa610f13565b34801561048f57600080fd5b506102aa610f1f565b3480156104a457600080fd5b5061022c61101a565b610215600480360360808110156104c357600080fd5b508035906020810135906001600160a01b0360408201358116916060013516611029565b3480156104f357600080fd5b506102aa6116ca565b34801561050857600080fd5b5061022c611786565b34801561051d57600080fd5b50610526611795565b6040805160208082528351818301528351919283929083019185019080838360005b83811015610560578181015183820152602001610548565b50505050905090810190601f16801561058d5780820380516001836020036101000a031916815260200191505b509250505060405180910390f35b3480156105a757600080fd5b5061022c6117c3565b3480156105bc57600080fd5b5061021560048036036101408110156105d457600080fd5b506001600160a01b038135811691602081013582169160408201358116916060810135821691608082013581169160a081013582169160c082013581169160e08101358216916101008201358116916101200135166117d2565b610215600480360360c081101561064457600080fd5b5080359060208101359060408101359060608101351515906001600160a01b03608082013581169160a00135166118bf565b34801561068257600080fd5b5061022c611926565b34801561069757600080fd5b5061022c611935565b3480156106ac57600080fd5b50610215600480360360208110156106c357600080fd5b50356001600160a01b0316611944565b3480156106df57600080fd5b5061022c611a47565b3480156106f457600080fd5b506102aa611a56565b34801561070957600080fd5b5061022c611a61565b60026066541415610758576040805162461bcd60e51b815260206004820152601f6024820152600080516020613ca6833981519152604482015290519081900360640190fd5b600260665561076d3360008581868682611a70565b5050600160665550565b6099546001600160a01b031681565b61078e612043565b6107a083600080600086866000611a70565b505050565b600260665414156107eb576040805162461bcd60e51b815260206004820152601f6024820152600080516020613ca6833981519152604482015290519081900360640190fd5b6002606655609854600054609f546001600160a01b03928316929182169116610814833361208e565b609c5460408051630fdb11cf60e01b815290516000926001600160a01b031691630fdb11cf91600480830192602092919082900301818787803b15801561085a57600080fd5b505af115801561086e573d6000803e3d6000fd5b505050506040513d602081101561088457600080fd5b505190506108918161214a565b60408051630b07655760e01b815233600482015290516001600160a01b03861691630b07655791602480830192600092919082900301818387803b1580156108d857600080fd5b505af11580156108ec573d6000803e3d6000fd5b505050506000846001600160a01b031663480cd578336040518263ffffffff1660e01b815260040180826001600160a01b0316815260200191505060206040518083038186803b15801561093f57600080fd5b505afa158015610953573d6000803e3d6000fd5b505050506040513d602081101561096957600080fd5b50516040805163d66a255360e01b815233600482015290519192506000916001600160a01b0388169163d66a2553916024808301926020929190829003018186803b1580156109b757600080fd5b505afa1580156109cb573d6000803e3d6000fd5b505050506040513d60208110156109e157600080fd5b50519050610a198433610a14847f0000000000000000000000000000000000000000000000000000000000000000612192565b6121ef565b6000610a2a836000846000886122a6565b9050610a3581612319565b60408051631fc5750960e31b815233600482015290516001600160a01b0389169163fe2ba84891602480830192600092919082900301818387803b158015610a7c57600080fd5b505af1158015610a90573d6000803e3d6000fd5b5050604080516365e89c5760e11b815233600482015290516001600160a01b038b16935063cbd138ae9250602480830192600092919082900301818387803b158015610adb57600080fd5b505af1158015610aef573d6000803e3d6000fd5b50505050336001600160a01b0316600080516020613f3d8339815191526000806000600160405180858152602001848152602001838152602001826002811115610b3557fe5b815260200194505050505060405180910390a2610b7d868633610b78867f0000000000000000000000000000000000000000000000000000000000000000612192565b612360565b609a54610bb790879087906001600160a01b03167f0000000000000000000000000000000000000000000000000000000000000000612360565b60408051628063a560e01b81523360048201526024810185905290516001600160a01b03881691628063a591604480830192600092919082900301818387803b158015610c0357600080fd5b505af1158015610c17573d6000803e3d6000fd5b50506001606655505050505050505050565b7f000000000000000000000000000000000000000000000000000000000000000081565b7f000000000000000000000000000000000000000000000000000000000000000081565b6001546001600160a01b031681565b6098546001600160a01b031681565b60c881565b6000610c9f82612433565b92915050565b60026066541415610ceb576040805162461bcd60e51b815260206004820152601f6024820152600080516020613ca6833981519152604482015290519081900360640190fd5b600260665561076d3384600080868682611a70565b6714d1120d7b16000081565b609e546001600160a01b031681565b60026066541415610d61576040805162461bcd60e51b815260206004820152601f6024820152600080516020613ca6833981519152604482015290519081900360640190fd5b6002606655610d7733600085600186868a611a70565b505060016066555050565b60026066541415610dc8576040805162461bcd60e51b815260206004820152601f6024820152600080516020613ca6833981519152604482015290519081900360640190fd5b6002606655610ddd3360008080868682611a70565b50506001606655565b609b546040805163b32beb5b60e01b815233600482015290516001600160a01b039092169163b32beb5b9160248082019260009290919082900301818387803b158015610e3257600080fd5b505af1158015610e46573d6000803e3d6000fd5b50505050565b610e5461245f565b6001600160a01b0316610e65611786565b6001600160a01b031614610ec0576040805162461bcd60e51b815260206004820181905260248201527f4f776e61626c653a2063616c6c6572206973206e6f7420746865206f776e6572604482015290519081900360640190fd5b6034546040516000916001600160a01b031690600080516020613eef833981519152908390a3603480546001600160a01b0319169055565b670de0b6b3a764000081565b609c546001600160a01b031681565b670f43fc2c04ee000081565b60008054604080516314a6bf0f60e01b8152905183926001600160a01b0316916314a6bf0f916004808301926020929190829003018186803b158015610f6457600080fd5b505afa158015610f78573d6000803e3d6000fd5b505050506040513d6020811015610f8e57600080fd5b5051600154604080516314a6bf0f60e01b815290519293506000926001600160a01b03909216916314a6bf0f91600480820192602092909190829003018186803b158015610fdb57600080fd5b505afa158015610fef573d6000803e3d6000fd5b505050506040513d602081101561100557600080fd5b505190506110138282612463565b9250505090565b6000546001600160a01b031681565b6002606654141561106f576040805162461bcd60e51b815260206004820152601f6024820152600080516020613ca6833981519152604482015290519081900360640190fd5b600260665561107d836124c4565b604080516060810182526098546001600160a01b03908116825260005481166020830152609f5416918101919091526110b4613bf6565b609c60009054906101000a90046001600160a01b03166001600160a01b0316630fdb11cf6040518163ffffffff1660e01b8152600401602060405180830381600087803b15801561110457600080fd5b505af1158015611118573d6000803e3d6000fd5b505050506040513d602081101561112e57600080fd5b505180825260009061113f90612500565b905061114b878261251d565b825161115790336125cd565b60408201869052806111925761117783600001518460400151888a6126a0565b60208301819052604083015161118c91612463565b60408301525b61119f8260400151612850565b6111ac8260400151612433565b606083018190526111b957fe5b6111cc34836060015184600001516128af565b608083015260608201516111e19034906128e1565b60a083015280156111fe576111f98260800151612910565b611231565b61120b8260800151612957565b60006112243460018560600151600187600001516122a6565b905061122f81612319565b505b825160408051635d6b480f60e01b81523360048201526001602482015290516001600160a01b0390921691635d6b480f9160448082019260009290919082900301818387803b15801561128357600080fd5b505af1158015611297573d6000803e3d6000fd5b50508451604080516372423c1760e01b815233600482015234602482015290516001600160a01b0390921693506372423c1792506044808201926020929091908290030181600087803b1580156112ed57600080fd5b505af1158015611301573d6000803e3d6000fd5b505050506040513d602081101561131757600080fd5b50508251606083015160408051639976cf4560e01b81523360048201526024810192909252516001600160a01b0390921691639976cf45916044808201926020929091908290030181600087803b15801561137157600080fd5b505af1158015611385573d6000803e3d6000fd5b505050506040513d602081101561139b57600080fd5b50508251604080516382fe3eb960e01b815233600482015290516001600160a01b03909216916382fe3eb99160248082019260009290919082900301818387803b1580156113e857600080fd5b505af11580156113fc573d6000803e3d6000fd5b5050505082600001516001600160a01b03166318f2817a336040518263ffffffff1660e01b815260040180826001600160a01b03168152602001915050602060405180830381600087803b15801561145357600080fd5b505af1158015611467573d6000803e3d6000fd5b505050506040513d602081101561147d57600080fd5b505160c083015260a0805490830151604080516346f7cf8760e01b815233600482015260248101929092526001600160a01b038881166044840152878116606484015290519216916346f7cf879160848082019260009290919082900301818387803b1580156114ec57600080fd5b505af1158015611500573d6000803e3d6000fd5b5050505082600001516001600160a01b03166315d549f1336040518263ffffffff1660e01b815260040180826001600160a01b03168152602001915050602060405180830381600087803b15801561155757600080fd5b505af115801561156b573d6000803e3d6000fd5b505050506040513d602081101561158157600080fd5b505160e08301819052604080519182525133917f59cfd0cd754bc5748b6770e94a4ffa5f678d885cb899dcfadc5734edb97c67ab919081900360200190a26115cd83602001513461299e565b6115e68360200151846040015133898660400151612a2e565b60208301516040840151609a546116299291906001600160a01b03167f000000000000000000000000000000000000000000000000000000000000000080612a2e565b336001600160a01b0316600080516020613f3d8339815191528360600151348560c0015160006040518085815260200184815260200183815260200182600281111561167157fe5b815260200194505050505060405180910390a2602080830151604080519182525133927fefe9137e0c60d14b7f57a84d5b68f55a648dd9fa7b01747d4ec305a3c8974c01928290030190a2505060016066555050505050565b60008054604080516362e1c9bf60e11b8152905183926001600160a01b03169163c5c3937e916004808301926020929190829003018186803b15801561170f57600080fd5b505afa158015611723573d6000803e3d6000fd5b505050506040513d602081101561173957600080fd5b5051600154604080516362e1c9bf60e11b815290519293506000926001600160a01b039092169163c5c3937e91600480820192602092909190829003018186803b158015610fdb57600080fd5b6034546001600160a01b031690565b60405180604001604052806012815260200171426f72726f7765724f7065726174696f6e7360701b81525081565b60a0546001600160a01b031681565b600154600160a81b900460ff16806117ed57506117ed612b02565b806118025750600154600160a01b900460ff16155b61183d5760405162461bcd60e51b815260040180806020018281038252602e815260200180613ddf602e913960400191505060405180910390fd5b600154600160a81b900460ff16158015611874576001805460ff60a01b1960ff60a81b19909116600160a81b1716600160a01b1790555b61187c612b13565b611884612bdb565b61188e8a8a612c85565b61189e8b89898989898989612d37565b80156118b2576001805460ff60a81b191690555b5050505050505050505050565b60026066541415611905576040805162461bcd60e51b815260206004820152601f6024820152600080516020613ca6833981519152604482015290519081900360640190fd5b60026066556119193386868686868c611a70565b5050600160665550505050565b609b546001600160a01b031681565b609d546001600160a01b031681565b61194c61245f565b6001600160a01b031661195d611786565b6001600160a01b0316146119b8576040805162461bcd60e51b815260206004820181905260248201527f4f776e61626c653a2063616c6c6572206973206e6f7420746865206f776e6572604482015290519081900360640190fd5b6001600160a01b0381166119fd5760405162461bcd60e51b8152600401808060200182810382526026815260200180613cc66026913960400191505060405180910390fd5b6034546040516001600160a01b03808416921690600080516020613eef83398151915290600090a3603480546001600160a01b0319166001600160a01b0392909216919091179055565b609f546001600160a01b031681565b6611c37937e0800081565b609a546001600160a01b031681565b604080516060810182526098546001600160a01b03908116825260005481166020830152609f541691810191909152611aa7613c3b565b609c60009054906101000a90046001600160a01b03166001600160a01b0316630fdb11cf6040518163ffffffff1660e01b8152600401602060405180830381600087803b158015611af757600080fd5b505af1158015611b0b573d6000803e3d6000fd5b505050506040513d6020811015611b2157600080fd5b5051808252600090611b3290612500565b90508615611b4d57611b44848261251d565b611b4d88613016565b611b5689613055565b611b60898961309b565b8251611b6c908b61208e565b336001600160a01b038b161480611ba257506099546001600160a01b031633148015611b985750600034115b8015611ba2575087155b611ba857fe5b82600001516001600160a01b0316630b0765578b6040518263ffffffff1660e01b815260040180826001600160a01b03168152602001915050600060405180830381600087803b158015611bfb57600080fd5b505af1158015611c0f573d6000803e3d6000fd5b50505050611c1d348a6130ed565b15156060840152602083015260408201889052868015611c3b575080155b15611c7057611c54836000015184604001518a876126a0565b61012083018190526040830151611c6a91612463565b60408301525b82600001516001600160a01b031663d66a25538b6040518263ffffffff1660e01b815260040180826001600160a01b0316815260200191505060206040518083038186803b158015611cc157600080fd5b505afa158015611cd5573d6000803e3d6000fd5b505050506040513d6020811015611ceb57600080fd5b505160808301528251604080516309019aaf60e31b81526001600160a01b038d811660048301529151919092169163480cd578916024808301926020929190829003018186803b158015611d3e57600080fd5b505afa158015611d52573d6000803e3d6000fd5b505050506040513d6020811015611d6857600080fd5b505160a0830181905260808301518351611d839291906128af565b8260c0018181525050611db38260a0015183608001518460200151856060015186604001518c886000015161310c565b60e083015260a0820151891115611dc657fe5b611dd2818a898561313f565b86158015611de05750600088115b15611e2d57611e08611e038360400151611dfd85608001516131b3565b90612192565b612850565b611e1a826080015183604001516131df565b611e2d83604001518b84604001516121ef565b611e4b83600001518b8460200151856060015186604001518c613247565b610140840152610160830152825160408051630c7940bd60e11b81526001600160a01b038d81166004830152915191909216916318f2817a9160248083019260209291908290030181600087803b158015611ea557600080fd5b505af1158015611eb9573d6000803e3d6000fd5b505050506040513d6020811015611ecf57600080fd5b505161018083015260a08201516080830151602084015160608501516040860151600094611f03949093909290918d613483565b60a0546040805163015f109360e51b81526001600160a01b038f81166004830152602482018590528b811660448301528a811660648301529151939450911691632be212609160848082019260009290919082900301818387803b158015611f6a57600080fd5b505af1158015611f7e573d6000803e3d6000fd5b505050508a6001600160a01b0316600080516020613f3d833981519152846101400151856101600151866101800151600260405180858152602001848152602001838152602001826002811115611fd157fe5b815260200194505050505060405180910390a2610120830151604080519182525133917fefe9137e0c60d14b7f57a84d5b68f55a648dd9fa7b01747d4ec305a3c8974c01919081900360200190a26118b28460200151856040015133866020015187606001518e8e8a604001516134b4565b6099546001600160a01b0316331461208c5760405162461bcd60e51b81526004018080602001828103825260298152602001806140a06029913960400191505060405180910390fd5b565b6000826001600160a01b03166321e37801836040518263ffffffff1660e01b815260040180826001600160a01b0316815260200191505060206040518083038186803b1580156120dd57600080fd5b505afa1580156120f1573d6000803e3d6000fd5b505050506040513d602081101561210757600080fd5b50519050600181146107a05760405162461bcd60e51b815260040180806020018281038252602e815260200180613f0f602e913960400191505060405180910390fd5b61215381612500565b1561218f5760405162461bcd60e51b8152600401808060200182810382526039815260200180613d6f6039913960400191505060405180910390fd5b50565b6000828211156121e9576040805162461bcd60e51b815260206004820152601e60248201527f536166654d6174683a207375627472616374696f6e206f766572666c6f770000604482015290519081900360640190fd5b50900390565b80836001600160a01b03166370a08231846040518263ffffffff1660e01b815260040180826001600160a01b0316815260200191505060206040518083038186803b15801561223d57600080fd5b505afa158015612251573d6000803e3d6000fd5b505050506040513d602081101561226757600080fd5b505110156107a05760405162461bcd60e51b815260040180806020018281038252603f815260200180613f9b603f913960400191505060405180910390fd5b6000806122b16116ca565b905060006122bd610f1f565b9050866122d3576122ce8289612192565b6122dd565b6122dd8289612463565b9150846122f3576122ee8187612192565b6122fd565b6122fd8187612463565b9050600061230c8383876128af565b9998505050505050505050565b6714d1120d7b16000081101561218f5760405162461bcd60e51b8152600401808060200182810382526049815260200180613ea66049913960600191505060405180910390fd5b836001600160a01b0316632a7ba1f7826040518263ffffffff1660e01b815260040180828152602001915050600060405180830381600087803b1580156123a657600080fd5b505af11580156123ba573d6000803e3d6000fd5b50505050826001600160a01b0316639dc29fac83836040518363ffffffff1660e01b815260040180836001600160a01b0316815260200182815260200192505050600060405180830381600087803b15801561241557600080fd5b505af1158015612429573d6000803e3d6000fd5b5050505050505050565b6000610c9f827f0000000000000000000000000000000000000000000000000000000000000000612463565b3390565b6000828201838110156124bd576040805162461bcd60e51b815260206004820152601b60248201527f536166654d6174683a206164646974696f6e206f766572666c6f770000000000604482015290519081900360640190fd5b9392505050565b8061218f5760405162461bcd60e51b815260040180806020018281038252602d815260200180613d19602d913960400191505060405180910390fd5b60008061250c83613565565b6714d1120d7b160000119392505050565b801561256f57670de0b6b3a764000082111561256a5760405162461bcd60e51b8152600401808060200182810382526032815260200180613e0d6032913960400191505060405180910390fd5b6125c9565b6611c37937e08000821080159061258e5750670de0b6b3a76400008211155b6125c95760405162461bcd60e51b81526004018080602001828103825260308152602001806140c96030913960400191505060405180910390fd5b5050565b6000826001600160a01b03166321e37801836040518263ffffffff1660e01b815260040180826001600160a01b0316815260200191505060206040518083038186803b15801561261c57600080fd5b505afa158015612630573d6000803e3d6000fd5b505050506040513d602081101561264657600080fd5b5051905060018114156107a0576040805162461bcd60e51b815260206004820152601c60248201527f426f72726f7765724f70733a2054726f76652069732061637469766500000000604482015290519081900360640190fd5b6000846001600160a01b0316635dba4c4a6040518163ffffffff1660e01b8152600401600060405180830381600087803b1580156126dd57600080fd5b505af11580156126f1573d6000803e3d6000fd5b505050506000856001600160a01b031663631203b0856040518263ffffffff1660e01b81526004018082815260200191505060206040518083038186803b15801561273b57600080fd5b505afa15801561274f573d6000803e3d6000fd5b505050506040513d602081101561276557600080fd5b50519050612774818585613591565b609d54604080516358caad6960e11b81526004810184905290516001600160a01b039092169163b1955ad29160248082019260009290919082900301818387803b1580156127c157600080fd5b505af11580156127d5573d6000803e3d6000fd5b5050609e54604080516340c10f1960e01b81526001600160a01b03928316600482015260248101869052905191891693506340c10f19925060448082019260009290919082900301818387803b15801561282e57600080fd5b505af1158015612842573d6000803e3d6000fd5b509298975050505050505050565b7f000000000000000000000000000000000000000000000000000000000000000081101561218f5760405162461bcd60e51b815260040180806020018281038252603a815260200180614023603a913960400191505060405180910390fd5b600082156128d65760006128cd846128c78786613600565b90613659565b91506124bd9050565b506000199392505050565b6000811561290757612900826128c78568056bc75e2d63100000613600565b9050610c9f565b50600019610c9f565b6714d1120d7b16000081101561218f5760405162461bcd60e51b8152600401808060200182810382526037815260200180613da86037913960400191505060405180910390fd5b670f43fc2c04ee000081101561218f5760405162461bcd60e51b8152600401808060200182810382526049815260200180613fda6049913960600191505060405180910390fd5b6040516000906001600160a01b0384169083908381818185875af1925050503d80600081146129e9576040519150601f19603f3d011682016040523d82523d6000602084013e6129ee565b606091505b50509050806107a05760405162461bcd60e51b815260040180806020018281038252602d815260200180613cec602d913960400191505060405180910390fd5b846001600160a01b0316632b7c7b11826040518263ffffffff1660e01b815260040180828152602001915050600060405180830381600087803b158015612a7457600080fd5b505af1158015612a88573d6000803e3d6000fd5b50505050836001600160a01b03166340c10f1984846040518363ffffffff1660e01b815260040180836001600160a01b0316815260200182815260200192505050600060405180830381600087803b158015612ae357600080fd5b505af1158015612af7573d6000803e3d6000fd5b505050505050505050565b6000612b0d306136c0565b15905090565b600154600160a81b900460ff1680612b2e5750612b2e612b02565b80612b435750600154600160a01b900460ff16155b612b7e5760405162461bcd60e51b815260040180806020018281038252602e815260200180613ddf602e913960400191505060405180910390fd5b600154600160a81b900460ff16158015612bb5576001805460ff60a01b1960ff60a81b19909116600160a81b1716600160a01b1790555b612bbd6136c6565b612bc561377d565b801561218f576001805460ff60a81b1916905550565b600154600160a81b900460ff1680612bf65750612bf6612b02565b80612c0b5750600154600160a01b900460ff16155b612c465760405162461bcd60e51b815260040180806020018281038252602e815260200180613ddf602e913960400191505060405180910390fd5b600154600160a81b900460ff16158015612c7d576001805460ff60a01b1960ff60a81b19909116600160a81b1716600160a01b1790555b612bc561387b565b612c8e82613938565b612c9781613938565b600080546001600160a01b038085166001600160a01b03199283168117909355600180549185169190921617905560408051918252517f78f058b189175430c48dc02699e3a0031ea4ff781536dc2fab847de4babdd8829181900360200190a1604080516001600160a01b038316815290517f5ee0cae2f063ed938bb55046f6a932fb6ae792bf43624806bb90abe68a50be9b9181900360200190a15050565b60007f000000000000000000000000000000000000000000000000000000000000000011612d6157fe5b612d6a88613938565b612d7387613938565b612d7c86613938565b612d8585613938565b612d8e84613938565b612d9783613938565b612da082613938565b612da981613938565b612db288613993565b609880546001600160a01b03199081166001600160a01b038b81169182179093556099805483168b8516179055609a805483168a8516179055609b80548316898516179055609c8054831688851617905560a080548316878516179055609f80548316868516179055609e805483169385169384179055609d8054909216909217905560408051918252517f143219c9e69b09e07e095fcc889b43d8f46ca892bba65f08dc3a0050869a5678916020908290030190a1604080516001600160a01b038916815290517f82966d27eea39b038ee0fa30cd16532bb24f6e65d31cb58fb227aa5766cdcc7f9181900360200190a1604080516001600160a01b038816815290517fcfb07d791fcafc032b35837b50eb84b74df518cf4cc287e8084f47630fa70fa09181900360200190a1604080516001600160a01b038716815290517fe67f36a6e961157d6eff83b91f3af5a62131ceb6f04954ef74f51c1c05e7f88d9181900360200190a1604080516001600160a01b038616815290517f8c537274438aa850a330284665d81a85dd38267d09e4050d416bfc94142db2649181900360200190a1604080516001600160a01b038516815290517f65f4cf077bc01e4742eb5ad98326f6e95b63548ea24b17f8d5e823111fe788009181900360200190a1604080516001600160a01b038416815290517f112220fa8dbe96141556e0dc3d74dd95075b323f4f297616048e02d82d7017159181900360200190a1604080516001600160a01b038316815290517ff81a824d1d9030c0365252fb96daf0565f9c2007c88e13001379dda7f06d5d5c9181900360200190a15050505050505050565b6000811161218f5760405162461bcd60e51b81526004018080602001828103825260378152602001806140f96037913960400191505060405180910390fd5b341580613060575080155b61218f5760405162461bcd60e51b8152600401808060200182810382526029815260200180613d466029913960400191505060405180910390fd5b341515806130a857508115155b806130b257508015155b6125c95760405162461bcd60e51b8152600401808060200182810382526046815260200180613e3f6046913960600191505060405180910390fd5b600080831561310157508290506001613105565b8291505b9250929050565b600080600061311f8a8a8a8a8a8a613b37565b9150915060006131308383876128af565b9b9a5050505050505050505050565b83156131785761314e83613b7a565b8115613173576131618160e00151612910565b6131738160e001518260c00151613bb7565b610e46565b6131858160e00151612957565b6131a28160200151826060015183604001518585600001516122a6565b6101008201819052610e4690612319565b6000610c9f827f0000000000000000000000000000000000000000000000000000000000000000612192565b613209827f0000000000000000000000000000000000000000000000000000000000000000612192565b8111156125c95760405162461bcd60e51b815260040180806020018281038252604381526020018061405d6043913960600191505060405180910390fd5b6000806000856132d957886001600160a01b031663d3d6f84389896040518363ffffffff1660e01b815260040180836001600160a01b0316815260200182815260200192505050602060405180830381600087803b1580156132a857600080fd5b505af11580156132bc573d6000803e3d6000fd5b505050506040513d60208110156132d257600080fd5b505161335d565b886001600160a01b03166372423c1789896040518363ffffffff1660e01b815260040180836001600160a01b0316815260200182815260200192505050602060405180830381600087803b15801561333057600080fd5b505af1158015613344573d6000803e3d6000fd5b505050506040513d602081101561335a57600080fd5b50515b90506000846133ee57896001600160a01b03166312610e928a886040518363ffffffff1660e01b815260040180836001600160a01b0316815260200182815260200192505050602060405180830381600087803b1580156133bd57600080fd5b505af11580156133d1573d6000803e3d6000fd5b505050506040513d60208110156133e757600080fd5b5051613472565b896001600160a01b0316639976cf458a886040518363ffffffff1660e01b815260040180836001600160a01b0316815260200182815260200192505050602060405180830381600087803b15801561344557600080fd5b505af1158015613459573d6000803e3d6000fd5b505050506040513d602081101561346f57600080fd5b50515b919a91995090975050505050505050565b6000806000613496898989898989613b37565b9150915060006134a683836128e1565b9a9950505050505050505050565b81156134cc576134c78888888685612a2e565b6134d8565b6134d888888886612360565b83156134ed576134e8888661299e565b612429565b876001600160a01b0316628063a587876040518363ffffffff1660e01b815260040180836001600160a01b0316815260200182815260200192505050600060405180830381600087803b15801561354357600080fd5b505af1158015613557573d6000803e3d6000fd5b505050505050505050505050565b6000806135706116ca565b9050600061357c610f1f565b90506135898282866128af565b949350505050565b60006135a9836128c786670de0b6b3a7640000613600565b905081811115610e46576040805162461bcd60e51b815260206004820152601d60248201527f4665652065786365656465642070726f7669646564206d6178696d756d000000604482015290519081900360640190fd5b60008261360f57506000610c9f565b8282028284828161361c57fe5b04146124bd5760405162461bcd60e51b8152600401808060200182810382526021815260200180613e856021913960400191505060405180910390fd5b60008082116136af576040805162461bcd60e51b815260206004820152601a60248201527f536166654d6174683a206469766973696f6e206279207a65726f000000000000604482015290519081900360640190fd5b8183816136b857fe5b049392505050565b3b151590565b600154600160a81b900460ff16806136e157506136e1612b02565b806136f65750600154600160a01b900460ff16155b6137315760405162461bcd60e51b815260040180806020018281038252602e815260200180613ddf602e913960400191505060405180910390fd5b600154600160a81b900460ff16158015612bc5576001805460ff60a01b1960ff60a81b19909116600160a81b1716600160a01b179055801561218f576001805460ff60a81b1916905550565b600154600160a81b900460ff16806137985750613798612b02565b806137ad5750600154600160a01b900460ff16155b6137e85760405162461bcd60e51b815260040180806020018281038252602e815260200180613ddf602e913960400191505060405180910390fd5b600154600160a81b900460ff1615801561381f576001805460ff60a01b1960ff60a81b19909116600160a81b1716600160a01b1790555b600061382961245f565b603480546001600160a01b0319166001600160a01b03831690811790915560405191925090600090600080516020613eef833981519152908290a350801561218f576001805460ff60a81b1916905550565b600154600160a81b900460ff16806138965750613896612b02565b806138ab5750600154600160a01b900460ff16155b6138e65760405162461bcd60e51b815260040180806020018281038252602e815260200180613ddf602e913960400191505060405180910390fd5b600154600160a81b900460ff1615801561391d576001805460ff60a01b1960ff60a81b19909116600160a81b1716600160a01b1790555b6001606655801561218f576001805460ff60a81b1916905550565b6001600160a01b03811661218f576040805162461bcd60e51b815260206004820152601e60248201527f4163636f756e742063616e6e6f74206265207a65726f20616464726573730000604482015290519081900360640190fd5b7f0000000000000000000000000000000000000000000000000000000000000000816001600160a01b031663139f2e8c6040518163ffffffff1660e01b815260040160206040518083038186803b1580156139ed57600080fd5b505afa158015613a01573d6000803e3d6000fd5b505050506040513d6020811015613a1757600080fd5b505114613a67576040805162461bcd60e51b815260206004820152601960248201527808e82a6be869e9aa08a9ca682a8929e9c40dad2e6dac2e8c6d603b1b604482015290519081900360640190fd5b7f0000000000000000000000000000000000000000000000000000000000000000816001600160a01b0316631bf435556040518163ffffffff1660e01b815260040160206040518083038186803b158015613ac157600080fd5b505afa158015613ad5573d6000803e3d6000fd5b505050506040513d6020811015613aeb57600080fd5b50511461218f576040805162461bcd60e51b815260206004820152601560248201527409a929cbe9c8aa8be888a84a840dad2e6dac2e8c6d605b1b604482015290519081900360640190fd5b600080878786613b5057613b4b8a89612192565b613b5a565b613b5a8a89612463565b915084613b7057613b6b8987612192565b613472565b6134728987612463565b801561218f5760405162461bcd60e51b815260040180806020018281038252603e815260200180613f5d603e913960400191505060405180910390fd5b808210156125c95760405162461bcd60e51b815260040180806020018281038252603e815260200180614130603e913960400191505060405180910390fd5b60405180610100016040528060008152602001600081526020016000815260200160008152602001600081526020016000815260200160008152602001600081525090565b604051806101a00160405280600081526020016000815260200160008152602001600015158152602001600081526020016000815260200160008152602001600081526020016000815260200160008152602001600081526020016000815260200160008152509056fe5265656e7472616e637947756172643a207265656e7472616e742063616c6c004f776e61626c653a206e6577206f776e657220697320746865207a65726f2061646472657373426f72726f7765724f70733a2053656e64696e672046494c20746f20416374697665506f6f6c206661696c6564426f72726f7765724f70733a20416d6f756e74206d7573742062652067726561746572207468616e207a65726f426f72726f7765724f70733a2043616e6e6f7420776974686472617720616e642061646420636f6c6c426f72726f7765724f70733a204f7065726174696f6e206e6f74207065726d697474656420647572696e67205265636f76657279204d6f6465426f72726f7765724f70733a204f7065726174696f6e206d757374206c656176652074726f7665207769746820494352203e3d20434352496e697469616c697a61626c653a20636f6e747261637420697320616c726561647920696e697469616c697a65644d6178206665652070657263656e74616765206d757374206c657373207468616e206f7220657175616c20746f2031303025426f72726f7765724f70733a205468657265206d75737420626520656974686572206120636f6c6c61746572616c206368616e6765206f7220612064656274206368616e6765536166654d6174683a206d756c7469706c69636174696f6e206f766572666c6f77426f72726f7765724f70733a20416e206f7065726174696f6e207468617420776f756c6420726573756c7420696e20544352203c20434352206973206e6f74207065726d69747465648be0079c531659141344cd1fd0a4f28419497f9722a3daafe3b4186f6b6457e0426f72726f7765724f70733a2054726f766520646f6573206e6f74206578697374206f7220697320636c6f736564c3770d654ed33aeea6bf11ac8ef05d02a6a04ed4686dd2f624d853bbec43cc8b426f72726f7765724f70733a20436f6c6c61746572616c207769746864726177616c206e6f74207065726d6974746564205265636f76657279204d6f6465426f72726f7765724f70733a2043616c6c657220646f65736e74206861766520656e6f75676820746f6b656e7320746f206d616b652072657061796d656e74426f72726f7765724f70733a20416e206f7065726174696f6e207468617420776f756c6420726573756c7420696e20494352203c204d4352206973206e6f74207065726d6974746564426f72726f7765724f70733a2054726f76652773206e65742064656274206d7573742062652067726561746572207468616e206d696e696d756d426f72726f7765724f70733a20416d6f756e7420726570616964206d757374206e6f74206265206c6172676572207468616e207468652054726f766527732064656274426f72726f7765724f70733a2043616c6c6572206973206e6f742053746162696c69747920506f6f6c4d6178206665652070657263656e74616765206d757374206265206265747765656e20302e352520616e642031303025426f72726f7765724f70733a204465627420696e637265617365207265717569726573206e6f6e2d7a65726f20646562744368616e6765426f72726f7765724f70733a2043616e6e6f7420646563726561736520796f75722054726f766527732049435220696e205265636f76657279204d6f6465a26469706673582212209e7d97df7a29cd07991df071290d0c38c1235783b58af0eebafe5094b700572464736f6c63430007060033608060405234801561001057600080fd5b50610fde806100206000396000f3fe6080604052600436106100c05760003560e01c80638da5cb5b1161006f5780638da5cb5b14610229578063a3f4df7e1461023e578063aac1846f146102c8578063b7f8cf9b146102dd578063c5c3937e146102f2578063f2fde38b14610307578063f8c8765e1461033a57610113565b80628063a5146101185780630b622ab21461015357806314a6bf0f146101845780632a7ba1f7146101ab5780632b7c7b11146101d55780635a4d28bb146101ff578063715018a61461021457610113565b36610113576100cd610385565b6069546100da90346103e5565b606981905560408051918252517f2536de1d7bbba20957818a5226a7b6c5b54fffc650060e673fa6d8850ddd4e979181900360200190a1005b600080fd5b34801561012457600080fd5b506101516004803603604081101561013b57600080fd5b506001600160a01b038135169060200135610446565b005b34801561015f57600080fd5b506101686105c6565b604080516001600160a01b039092168252519081900360200190f35b34801561019057600080fd5b506101996105d5565b60408051918252519081900360200190f35b3480156101b757600080fd5b50610151600480360360208110156101ce57600080fd5b50356105db565b3480156101e157600080fd5b50610151600480360360208110156101f857600080fd5b503561062a565b34801561020b57600080fd5b5061016861063f565b34801561022057600080fd5b5061015161064e565b34801561023557600080fd5b506101686106fa565b34801561024a57600080fd5b50610253610709565b6040805160208082528351818301528351919283929083019185019080838360005b8381101561028d578181015183820152602001610275565b50505050905090810190601f1680156102ba5780820380516001836020036101000a031916815260200191505b509250505060405180910390f35b3480156102d457600080fd5b5061016861072f565b3480156102e957600080fd5b5061016861073e565b3480156102fe57600080fd5b5061019961074d565b34801561031357600080fd5b506101516004803603602081101561032a57600080fd5b50356001600160a01b0316610753565b34801561034657600080fd5b506101516004803603608081101561035d57600080fd5b506001600160a01b038135811691602081013582169160408201358116916060013516610856565b6065546001600160a01b03163314806103a857506068546001600160a01b031633145b6103e35760405162461bcd60e51b8152600401808060200182810382526031815260200180610f586031913960400191505060405180910390fd5b565b60008282018381101561043f576040805162461bcd60e51b815260206004820152601b60248201527f536166654d6174683a206164646974696f6e206f766572666c6f770000000000604482015290519081900360640190fd5b9392505050565b6001600160a01b03821661048b5760405162461bcd60e51b815260040180806020018281038252602a815260200180610ead602a913960400191505060405180910390fd5b610493610910565b6069546104a09082610983565b606981905560408051918252517f2536de1d7bbba20957818a5226a7b6c5b54fffc650060e673fa6d8850ddd4e979181900360200190a1604080516001600160a01b03841681526020810183905281517f3b2482b1bf6e751427503c9a8bf79e4dba3e6519259e2220428c2f326cc79c14929181900390910190a16040516000906001600160a01b0384169083908381818185875af1925050503d8060008114610566576040519150601f19603f3d011682016040523d82523d6000602084013e61056b565b606091505b50509050806105c1576040805162461bcd60e51b815260206004820152601e60248201527f416374697665506f6f6c3a2073656e64696e672046494c206661696c65640000604482015290519081900360640190fd5b505050565b6067546001600160a01b031681565b606a5490565b6105e3610910565b606a546105f09082610983565b606a81905560408051918252517f13193833722dafec703db5d698ec64bbad69b90300d7ef30037df03a1412d5089181900360200190a150565b6106326109e0565b606a546105f090826103e5565b6066546001600160a01b031681565b610656610a3e565b6001600160a01b03166106676106fa565b6001600160a01b0316146106c2576040805162461bcd60e51b815260206004820181905260248201527f4f776e61626c653a2063616c6c6572206973206e6f7420746865206f776e6572604482015290519081900360640190fd5b6033546040516000916001600160a01b031690600080516020610f89833981519152908390a3603380546001600160a01b0319169055565b6033546001600160a01b031690565b6040518060400160405280600a8152602001691058dd1a5d99541bdbdb60b21b81525081565b6068546001600160a01b031681565b6065546001600160a01b031681565b60695490565b61075b610a3e565b6001600160a01b031661076c6106fa565b6001600160a01b0316146107c7576040805162461bcd60e51b815260206004820181905260248201527f4f776e61626c653a2063616c6c6572206973206e6f7420746865206f776e6572604482015290519081900360640190fd5b6001600160a01b03811661080c5760405162461bcd60e51b8152600401808060200182810382526026815260200180610e876026913960400191505060405180910390fd5b6033546040516001600160a01b03808416921690600080516020610f8983398151915290600090a3603380546001600160a01b0319166001600160a01b0392909216919091179055565b600054610100900460ff168061086f575061086f610a42565b8061087d575060005460ff16155b6108b85760405162461bcd60e51b815260040180806020018281038252602e815260200180610ed7602e913960400191505060405180910390fd5b600054610100900460ff161580156108e3576000805460ff1961ff0019909116610100171660011790555b6108eb610a53565b6108f785858585610b05565b8015610909576000805461ff00191690555b5050505050565b6065546001600160a01b031633148061093357506066546001600160a01b031633145b8061094857506067546001600160a01b031633145b6103e35760405162461bcd60e51b8152600401808060200182810382526053815260200180610f056053913960600191505060405180910390fd5b6000828211156109da576040805162461bcd60e51b815260206004820152601e60248201527f536166654d6174683a207375627472616374696f6e206f766572666c6f770000604482015290519081900360640190fd5b50900390565b6065546001600160a01b0316331480610a0357506066546001600160a01b031633145b6103e35760405162461bcd60e51b8152600401808060200182810382526041815260200180610e466041913960600191505060405180910390fd5b3390565b6000610a4d30610c5d565b15905090565b600054610100900460ff1680610a6c5750610a6c610a42565b80610a7a575060005460ff16155b610ab55760405162461bcd60e51b815260040180806020018281038252602e815260200180610ed7602e913960400191505060405180910390fd5b600054610100900460ff16158015610ae0576000805460ff1961ff0019909116610100171660011790555b610ae8610c63565b610af0610d03565b8015610b02576000805461ff00191690555b50565b610b0e84610dea565b610b1783610dea565b610b2082610dea565b610b2981610dea565b606580546001600160a01b038087166001600160a01b031992831681179093556066805487831690841617905560678054868316908416179055606880549185169190921617905560408051918252517f3ca631ffcd2a9b5d9ae18543fc82f58eb4ca33af9e6ab01b7a8e95331e6ed9859181900360200190a1604080516001600160a01b038516815290517f143219c9e69b09e07e095fcc889b43d8f46ca892bba65f08dc3a0050869a56789181900360200190a1604080516001600160a01b038416815290517f82966d27eea39b038ee0fa30cd16532bb24f6e65d31cb58fb227aa5766cdcc7f9181900360200190a1604080516001600160a01b038316815290517f5ee0cae2f063ed938bb55046f6a932fb6ae792bf43624806bb90abe68a50be9b9181900360200190a150505050565b3b151590565b600054610100900460ff1680610c7c5750610c7c610a42565b80610c8a575060005460ff16155b610cc55760405162461bcd60e51b815260040180806020018281038252602e815260200180610ed7602e913960400191505060405180910390fd5b600054610100900460ff16158015610af0576000805460ff1961ff0019909116610100171660011790558015610b02576000805461ff001916905550565b600054610100900460ff1680610d1c5750610d1c610a42565b80610d2a575060005460ff16155b610d655760405162461bcd60e51b815260040180806020018281038252602e815260200180610ed7602e913960400191505060405180910390fd5b600054610100900460ff16158015610d90576000805460ff1961ff0019909116610100171660011790555b6000610d9a610a3e565b603380546001600160a01b0319166001600160a01b03831690811790915560405191925090600090600080516020610f89833981519152908290a3508015610b02576000805461ff001916905550565b6001600160a01b038116610b02576040805162461bcd60e51b815260206004820152601e60248201527f4163636f756e742063616e6e6f74206265207a65726f20616464726573730000604482015290519081900360640190fdfe416374697665506f6f6c3a2043616c6c6572206973206e65697468657220426f72726f7765724f7065726174696f6e73206e6f722054726f76654d616e616765724f776e61626c653a206e6577206f776e657220697320746865207a65726f2061646472657373416374697665506f6f6c3a206163636f756e742063616e6e6f74206265207a65726f2061646472657373496e697469616c697a61626c653a20636f6e747261637420697320616c726561647920696e697469616c697a6564416374697665506f6f6c3a2043616c6c6572206973206e65697468657220426f72726f7765724f7065726174696f6e73206e6f722054726f76654d616e61676572206e6f722053746162696c697479506f6f6c416374697665506f6f6c3a2043616c6c6572206973206e65697468657220424f206e6f722044656661756c7420506f6f6c8be0079c531659141344cd1fd0a4f28419497f9722a3daafe3b4186f6b6457e0a2646970667358221220409125f6db1e6ceb19abde09ba8c0b98ce5b9fe498112fc7cbb3ea5d38ce82c664736f6c63430007060033608060405234801561001057600080fd5b50610d46806100206000396000f3fe6080604052600436106100ab5760003560e01c80638da5cb5b116100645780638da5cb5b146102015780638f7be73014610216578063a3f4df7e14610240578063b08bc722146102ca578063c5c3937e146102df578063f2fde38b146102f4576100fe565b806314a6bf0f146101035780632a7ba1f71461012a5780632b7c7b1114610156578063485cc955146101805780635a4d28bb146101bb578063715018a6146101ec576100fe565b366100fe576100b8610327565b6067546100c59034610372565b606781905560408051918252517f4b2f6ed6b83441c39265015e9ad3fca5c5f8dbc85d6843e4f7db7f9108ab95959181900360200190a1005b600080fd5b34801561010f57600080fd5b506101186103d3565b60408051918252519081900360200190f35b34801561013657600080fd5b506101546004803603602081101561014d57600080fd5b50356103d9565b005b34801561016257600080fd5b506101546004803603602081101561017957600080fd5b5035610428565b34801561018c57600080fd5b50610154600480360360408110156101a357600080fd5b506001600160a01b038135811691602001351661043d565b3480156101c757600080fd5b506101d06104f3565b604080516001600160a01b039092168252519081900360200190f35b3480156101f857600080fd5b50610154610502565b34801561020d57600080fd5b506101d06105ae565b34801561022257600080fd5b506101546004803603602081101561023957600080fd5b50356105bd565b34801561024c57600080fd5b50610255610702565b6040805160208082528351818301528351919283929083019185019080838360005b8381101561028f578181015183820152602001610277565b50505050905090810190601f1680156102bc5780820380516001836020036101000a031916815260200191505b509250505060405180910390f35b3480156102d657600080fd5b506101d0610729565b3480156102eb57600080fd5b50610118610738565b34801561030057600080fd5b506101546004803603602081101561031757600080fd5b50356001600160a01b031661073e565b6066546001600160a01b031633146103705760405162461bcd60e51b8152600401808060200182810382526029815260200180610c496029913960400191505060405180910390fd5b565b6000828201838110156103cc576040805162461bcd60e51b815260206004820152601b60248201527f536166654d6174683a206164646974696f6e206f766572666c6f770000000000604482015290519081900360640190fd5b9392505050565b60685490565b6103e1610841565b6068546103ee908261088a565b606881905560408051918252517fbb6a805312efea216263577adb96966134cba8b860bdaa40afcdc38f4dbcf62e9181900360200190a150565b610430610841565b6068546103ee9082610372565b600054610100900460ff168061045657506104566108e7565b80610464575060005460ff16155b61049f5760405162461bcd60e51b815260040180806020018281038252602e815260200180610c98602e913960400191505060405180910390fd5b600054610100900460ff161580156104ca576000805460ff1961ff0019909116610100171660011790555b6104d26108f8565b6104dc83836109aa565b80156104ee576000805461ff00191690555b505050565b6065546001600160a01b031681565b61050a610a5c565b6001600160a01b031661051b6105ae565b6001600160a01b031614610576576040805162461bcd60e51b815260206004820181905260248201527f4f776e61626c653a2063616c6c6572206973206e6f7420746865206f776e6572604482015290519081900360640190fd5b6033546040516000916001600160a01b031690600080516020610cc6833981519152908390a3603380546001600160a01b0319169055565b6033546001600160a01b031690565b6105c5610841565b6066546067546001600160a01b03909116906105e1908361088a565b606781905560408051918252517f4b2f6ed6b83441c39265015e9ad3fca5c5f8dbc85d6843e4f7db7f9108ab95959181900360200190a1604080516001600160a01b03831681526020810184905281517f3b2482b1bf6e751427503c9a8bf79e4dba3e6519259e2220428c2f326cc79c14929181900390910190a16040516000906001600160a01b0383169084908381818185875af1925050503d80600081146106a7576040519150601f19603f3d011682016040523d82523d6000602084013e6106ac565b606091505b50509050806104ee576040805162461bcd60e51b815260206004820152601f60248201527f44656661756c74506f6f6c3a2073656e64696e672046494c206661696c656400604482015290519081900360640190fd5b6040518060400160405280600b81526020016a111959985d5b1d141bdbdb60aa1b81525081565b6066546001600160a01b031681565b60675490565b610746610a5c565b6001600160a01b03166107576105ae565b6001600160a01b0316146107b2576040805162461bcd60e51b815260206004820181905260248201527f4f776e61626c653a2063616c6c6572206973206e6f7420746865206f776e6572604482015290519081900360640190fd5b6001600160a01b0381166107f75760405162461bcd60e51b8152600401808060200182810382526026815260200180610c726026913960400191505060405180910390fd5b6033546040516001600160a01b03808416921690600080516020610cc683398151915290600090a3603380546001600160a01b0319166001600160a01b0392909216919091179055565b6065546001600160a01b031633146103705760405162461bcd60e51b815260040180806020018281038252602b815260200180610ce6602b913960400191505060405180910390fd5b6000828211156108e1576040805162461bcd60e51b815260206004820152601e60248201527f536166654d6174683a207375627472616374696f6e206f766572666c6f770000604482015290519081900360640190fd5b50900390565b60006108f230610a60565b15905090565b600054610100900460ff168061091157506109116108e7565b8061091f575060005460ff16155b61095a5760405162461bcd60e51b815260040180806020018281038252602e815260200180610c98602e913960400191505060405180910390fd5b600054610100900460ff16158015610985576000805460ff1961ff0019909116610100171660011790555b61098d610a66565b610995610b06565b80156109a7576000805461ff00191690555b50565b6109b382610bed565b6109bc81610bed565b606580546001600160a01b038085166001600160a01b03199283168117909355606680549185169190921617905560408051918252517f143219c9e69b09e07e095fcc889b43d8f46ca892bba65f08dc3a0050869a56789181900360200190a1604080516001600160a01b038316815290517f78f058b189175430c48dc02699e3a0031ea4ff781536dc2fab847de4babdd8829181900360200190a15050565b3390565b3b151590565b600054610100900460ff1680610a7f5750610a7f6108e7565b80610a8d575060005460ff16155b610ac85760405162461bcd60e51b815260040180806020018281038252602e815260200180610c98602e913960400191505060405180910390fd5b600054610100900460ff16158015610995576000805460ff1961ff00199091166101001716600117905580156109a7576000805461ff001916905550565b600054610100900460ff1680610b1f5750610b1f6108e7565b80610b2d575060005460ff16155b610b685760405162461bcd60e51b815260040180806020018281038252602e815260200180610c98602e913960400191505060405180910390fd5b600054610100900460ff16158015610b93576000805460ff1961ff0019909116610100171660011790555b6000610b9d610a5c565b603380546001600160a01b0319166001600160a01b03831690811790915560405191925090600090600080516020610cc6833981519152908290a35080156109a7576000805461ff001916905550565b6001600160a01b0381166109a7576040805162461bcd60e51b815260206004820152601e60248201527f4163636f756e742063616e6e6f74206265207a65726f20616464726573730000604482015290519081900360640190fdfe44656661756c74506f6f6c3a2043616c6c6572206973206e6f742074686520416374697665506f6f6c4f776e61626c653a206e6577206f776e657220697320746865207a65726f2061646472657373496e697469616c697a61626c653a20636f6e747261637420697320616c726561647920696e697469616c697a65648be0079c531659141344cd1fd0a4f28419497f9722a3daafe3b4186f6b6457e044656661756c74506f6f6c3a2043616c6c6572206973206e6f74207468652054726f76654d616e61676572a2646970667358221220f26be006b33e23bf5ecb9d7b9c22d4313d35eabe8d07484fb17fdd9e25c5c26b64736f6c6343000706003360c060405234801561001057600080fd5b50604051613dfa380380613dfa8339818101604052604081101561003357600080fd5b508051602090910151608082905260a0819052613d8d61006d60003980610cdf5280613856525080610c8052806137825250613d8d6000f3fe6080604052600436106102815760003560e01c8063794e57241161014f578063a7a48884116100c1578063df9cd84f1161007a578063df9cd84f14610926578063f2fde38b14610959578063f8225a101461098c578063f8d89898146109a1578063f92d3433146109b6578063fc7e286d146109cb576102c2565b8063a7a4888414610853578063a7bfff9714610868578063ae918754146108b4578063c5c3937e146108c9578063ce4b5bbe146108de578063dae4f5ff146108f3576102c2565b80638da5cb5b116101135780638da5cb5b1461074f57806395ca53be1461076457806395fb16bb1461079f578063a20baee614610632578063a3f4df7e146107b4578063a4e59ac81461083e576102c2565b8063794e5724146106a25780637f7dde4a146106b757806382e0a574146106cc57806386da0824146107075780638b8fbd921461073a576102c2565b80633d83908a116101f357806367e8fb20116101ac57806367e8fb2014610608578063715018a61461061d57806372fe25aa14610632578063741bef1a14610647578063766718081461065c57806377553ad41461068d576102c2565b80633d83908a146105175780634870dd9a14610548578063556be1011461055d5780635733d58f146105875780635d2de6421461059c5780635f788d65146105cf576102c2565b80631bf43555116102455780631bf43555146103d3578063203aae0a146103e857806328a0a04d1461041b5780632e54bf9514610456578063335525ad1461048257806335876476146104b2576102c2565b80630206d7b9146102c75780630bdfe4e71461030c5780630d9a6b351461033f578063139f2e8c1461035457806316b9d3c514610369576102c2565b366102c25761028e610a1f565b609e5461029b9034610a6a565b609e8190556040805191825251600080516020613b1a8339815191529181900360200190a1005b600080fd5b3480156102d357600080fd5b506102fa600480360360208110156102ea57600080fd5b50356001600160a01b0316610acd565b60408051918252519081900360200190f35b34801561031857600080fd5b506102fa6004803603602081101561032f57600080fd5b50356001600160a01b0316610bdb565b34801561034b57600080fd5b506102fa610c78565b34801561036057600080fd5b506102fa610c7e565b34801561037557600080fd5b5061039c6004803603602081101561038c57600080fd5b50356001600160a01b0316610ca2565b604080519586526020860194909452848401929092526001600160801b039081166060850152166080830152519081900360a00190f35b3480156103df57600080fd5b506102fa610cdd565b3480156103f457600080fd5b506102fa6004803603602081101561040b57600080fd5b50356001600160a01b0316610d01565b34801561042757600080fd5b506102fa6004803603604081101561043e57600080fd5b506001600160801b0381358116916020013516610dd2565b34801561046257600080fd5b506104806004803603602081101561047957600080fd5b5035610def565b005b34801561048e57600080fd5b50610480600480360360408110156104a557600080fd5b5080359060200135610fb6565b3480156104be57600080fd5b50610480600480360360e08110156104d557600080fd5b506001600160a01b038135811691602081013582169160408201358116916060810135821691608082013581169160a081013582169160c0909101351661106a565b34801561052357600080fd5b5061052c61113e565b604080516001600160a01b039092168252519081900360200190f35b34801561055457600080fd5b506102fa61114d565b34801561056957600080fd5b506104806004803603602081101561058057600080fd5b5035611152565b34801561059357600080fd5b506102fa6111c7565b3480156105a857600080fd5b506102fa600480360360208110156105bf57600080fd5b50356001600160a01b03166111d3565b3480156105db57600080fd5b50610480600480360360408110156105f257600080fd5b50803590602001356001600160a01b03166111e5565b34801561061457600080fd5b506102fa61139f565b34801561062957600080fd5b506104806113a5565b34801561063e57600080fd5b506102fa611451565b34801561065357600080fd5b5061052c61145d565b34801561066857600080fd5b5061067161146c565b604080516001600160801b039092168252519081900360200190f35b34801561069957600080fd5b5061052c611482565b3480156106ae57600080fd5b506102fa611491565b3480156106c357600080fd5b5061052c61149d565b3480156106d857600080fd5b506102fa600480360360408110156106ef57600080fd5b506001600160801b03813581169160200135166114ac565b34801561071357600080fd5b5061039c6004803603602081101561072a57600080fd5b50356001600160a01b03166114c9565b34801561074657600080fd5b506102fa611504565b34801561075b57600080fd5b5061052c61150a565b34801561077057600080fd5b506104806004803603604081101561078757600080fd5b506001600160a01b0381358116916020013516611519565b3480156107ab57600080fd5b5061052c61178c565b3480156107c057600080fd5b506107c961179b565b6040805160208082528351818301528351919283929083019185019080838360005b838110156108035781810151838201526020016107eb565b50505050905090810190601f1680156108305780820380516001836020036101000a031916815260200191505b509250505060405180910390f35b34801561084a57600080fd5b506106716117c4565b34801561085f57600080fd5b506102fa6117d3565b34801561087457600080fd5b5061089b6004803603602081101561088b57600080fd5b50356001600160a01b03166117d9565b6040805192835290151560208301528051918290030190f35b3480156108c057600080fd5b5061052c6117f5565b3480156108d557600080fd5b506102fa611804565b3480156108ea57600080fd5b506102fa61180a565b3480156108ff57600080fd5b506102fa6004803603602081101561091657600080fd5b50356001600160a01b0316611812565b34801561093257600080fd5b506102fa6004803603602081101561094957600080fd5b50356001600160a01b03166118a6565b34801561096557600080fd5b506104806004803603602081101561097c57600080fd5b50356001600160a01b031661193a565b34801561099857600080fd5b506102fa611a3d565b3480156109ad57600080fd5b5061052c611a43565b3480156109c257600080fd5b506102fa611a52565b3480156109d757600080fd5b506109fe600480360360208110156109ee57600080fd5b50356001600160a01b0316611a5d565b604080519283526001600160a01b0390911660208301528051918290030190f35b6099546001600160a01b03163314610a685760405162461bcd60e51b8152600401808060200182810382526027815260200180613a046027913960400191505060405180910390fd5b565b600082820183811015610ac4576040805162461bcd60e51b815260206004820152601b60248201527f536166654d6174683a206164646974696f6e206f766572666c6f770000000000604482015290519081900360640190fd5b90505b92915050565b6001600160a01b038116600090815260a0602052604081205480610af5576000915050610bd6565b6001600160a01b03808416600090815260a06020526040812060010154909116908115610b3a576001600160a01b038216600090815260a26020526040902054610b44565b670de0b6b3a76400005b6001600160a01b038616600090815260a160209081526040808320815160a08101835281548152600182015493810193909352600281015491830191909152600301546001600160801b038082166060840152600160801b909104166080820152919250610bce670de0b6b3a7640000610bc8610bc18886611a7f565b8690611b53565b90611bac565b955050505050505b919050565b6001600160a01b038116600090815260a0602052604081205480610c03576000915050610bd6565b6001600160a01b038316600090815260a160209081526040808320815160a08101835281548152600182015493810193909352600281015491830191909152600301546001600160801b038082166060840152600160801b90910416608082015290610c6f8383611c13565b95945050505050565b609f5490565b7f000000000000000000000000000000000000000000000000000000000000000081565b60a4602052600090815260409020805460018201546002830154600390930154919290916001600160801b0380821691600160801b90041685565b7f000000000000000000000000000000000000000000000000000000000000000081565b6001600160a01b038116600090815260a3602052604081205480610d29576000915050610bd6565b6001600160a01b038316600090815260a2602052604081205490610d55670de0b6b3a764000083611d03565b6001600160a01b038616600090815260a460209081526040808320815160a08101835281548152600182015493810193909352600281015491830191909152600301546001600160801b038082166060840152600160801b909104166080820152919250610bce670de0b6b3a7640000610bc8610bc18886611a7f565b60a760209081526000928352604080842090915290825290205481565b60026065541415610e35576040805162461bcd60e51b815260206004820152601f6024820152600080516020613978833981519152604482015290519081900360640190fd5b60026065558015610e4857610e48611d60565b33600090815260a06020526040902054610e6181611f1d565b609d546001600160a01b0316610e7681611f5f565b6000610e8133611812565b90506000610e8e33610bdb565b90506000610e9c8683611fd7565b90506000610eaa8684611d03565b33600081815260a060205260409020600101549192506001600160a01b0390911690610ed890879083611fed565b6000610ee3826118a6565b90506000610ef18286611d03565b9050610efd838261217a565b6040805182815233602082015281516001600160a01b03861692600080516020613cf4833981519152928290030190a2610f3733866122c6565b6000610f438787611d03565b9050610f4f338261234c565b6040805182815290513391600080516020613a59833981519152919081900360200190a2604080518981526020810187905281513392600080516020613bb3833981519152928290030190a2610fa4886124d2565b50506001606555505050505050505050565b60026065541415610ffc576040805162461bcd60e51b815260206004820152601f6024820152600080516020613978833981519152604482015290519081900360640190fd5b60026065556110096125d8565b609f54801580611017575082155b156110225750611061565b609d54611037906001600160a01b0316611f5f565b600080611045848685612621565b9150915061105382826126ea565b61105d84866129b4565b5050505b50506001606555565b600054610100900460ff16806110835750611083612af7565b80611091575060005460ff16155b6110cc5760405162461bcd60e51b815260040180806020018281038252602e815260200180613a2b602e913960400191505060405180910390fd5b600054610100900460ff161580156110f7576000805460ff1961ff0019909116610100171660011790555b6110ff612b08565b611107612bb9565b61111688888888888888612c4e565b670de0b6b3a764000060a5558015611134576000805461ff00191690555b5050505050505050565b6098546001600160a01b031681565b60c881565b61115b33612ea7565b61116433612f02565b61116d81612f58565b33600081815260a260209081526040918290208481556001908101805460ff19169091179055815184815291517f19bc932fb9e16a8b5a1e41be9f4c2de59d5ddd7567b8b81405f532ca00a9880e9281900390910190a250565b6714d1120d7b16000081565b60a36020526000908152604090205481565b6002606554141561122b576040805162461bcd60e51b815260206004820152601f6024820152600080516020613978833981519152604482015290519081900360640190fd5b600260655561123981612f9f565b61124233612ea7565b61124b8261300b565b33600090815260a06020526040902054609d546001600160a01b031661127081611f5f565b8161127f5761127f338461304a565b600061128a33611812565b9050600061129733610bdb565b905060006112a58583611d03565b33600081815260a060205260409020600101549192506001600160a01b03909116906112d390869083611fed565b60006112de826118a6565b905060006112ec828b610a6a565b90506112f8838261217a565b6040805182815233602082015281516001600160a01b03861692600080516020613cf4833981519152928290030190a2611332338b6130a4565b600061133e868c610a6a565b905061134a338261234c565b6040805182815290513391600080516020613a59833981519152919081900360200190a2604080518881526020810187905281513392600080516020613bb3833981519152928290030190a2610fa4876124d2565b60aa5481565b6113ad613168565b6001600160a01b03166113be61150a565b6001600160a01b031614611419576040805162461bcd60e51b815260206004820181905260248201527f4f776e61626c653a2063616c6c6572206973206e6f7420746865206f776e6572604482015290519081900360640190fd5b6033546040516000916001600160a01b031690600080516020613b6d833981519152908390a3603380546001600160a01b0319169055565b670de0b6b3a764000081565b609c546001600160a01b031681565b60a654600160801b90046001600160801b031681565b6097546001600160a01b031681565b670f43fc2c04ee000081565b6099546001600160a01b031681565b60a860209081526000928352604080842090915290825290205481565b60a1602052600090815260409020805460018201546002830154600390930154919290916001600160801b0380821691600160801b90041685565b60a55481565b6033546001600160a01b031690565b6002606554141561155f576040805162461bcd60e51b815260206004820152601f6024820152600080516020613978833981519152604482015290519081900360640190fd5b600260655533600090815260a0602052604090205461157d81611f1d565b6115863361316c565b61158f33613223565b609d546001600160a01b03166115a481611f5f565b60006115af33611812565b905060006115bc33610bdb565b905060006115ca8583611d03565b33600081815260a060205260409020600101549192506001600160a01b03909116906115f890869083611fed565b6000611603826118a6565b905080611610838261217a565b6040805182815233602082015281516001600160a01b03861692600080516020613cf4833981519152928290030190a261164a338661234c565b604080518781526020810186905281513392600080516020613bb3833981519152928290030190a26040805186815290513391600080516020613a59833981519152919081900360200190a2609e546116a39087611d03565b609e8190556040805191825251600080516020613b1a8339815191529181900360200190a1604080513381526020810188905281517f3b2482b1bf6e751427503c9a8bf79e4dba3e6519259e2220428c2f326cc79c14929181900390910190a160975460408051630721ec6760e11b81523360048201526001600160a01b038d811660248301528c8116604483015291519190921691630e43d8ce91899160648082019260009290919082900301818588803b15801561176257600080fd5b505af1158015611776573d6000803e3d6000fd5b5050600160655550505050505050505050505050565b609d546001600160a01b031681565b6040518060400160405280600d81526020016c14dd18589a5b1a5d1e541bdbdb609a1b81525081565b60a6546001600160801b031681565b60ab5481565b60a2602052600090815260409020805460019091015460ff1682565b609b546001600160a01b031681565b609e5490565b633b9aca0081565b6001600160a01b038116600090815260a060205260408120548061183a576000915050610bd6565b6001600160a01b038316600090815260a160209081526040808320815160a08101835281548152600182015493810193909352600281015491830191909152600301546001600160801b038082166060840152600160801b90910416608082015290610c6f838361326f565b6001600160a01b038116600090815260a36020526040812054806118ce576000915050610bd6565b6001600160a01b038316600090815260a460209081526040808320815160a08101835281548152600182015493810193909352600281015491830191909152600301546001600160801b038082166060840152600160801b90910416608082015290610c6f8383611c13565b611942613168565b6001600160a01b031661195361150a565b6001600160a01b0316146119ae576040805162461bcd60e51b815260206004820181905260248201527f4f776e61626c653a2063616c6c6572206973206e6f7420746865206f776e6572604482015290519081900360640190fd5b6001600160a01b0381166119f35760405162461bcd60e51b81526004018080602001828103825260268152602001806139986026913960400191505060405180910390fd5b6033546040516001600160a01b03808416921690600080516020613b6d83398151915290600090a3603380546001600160a01b0319166001600160a01b0392909216919091179055565b60a95481565b609a546001600160a01b031681565b6611c37937e0800081565b60a060205260009081526040902080546001909101546001600160a01b031682565b608081015160608201516040808401516020808601516001600160801b03808716600090815260a88452858120918716815292529281205490949392908590611ac89084611d03565b6001600160801b03808716600090815260a86020526040812092935091611b1f91633b9aca0091908490611aff908a1660016132ea565b6001600160801b0316815260208101919091526040016000205490611bac565b90506000611b45670de0b6b3a7640000610bc88681611b3e8888610a6a565b8f90611b53565b9a9950505050505050505050565b600082611b6257506000610ac7565b82820282848281611b6f57fe5b0414610ac45760405162461bcd60e51b8152600401808060200182810382526021815260200180613af96021913960400191505060405180910390fd5b6000808211611c02576040805162461bcd60e51b815260206004820152601a60248201527f536166654d6174683a206469766973696f6e206279207a65726f000000000000604482015290519081900360640190fd5b818381611c0b57fe5b049392505050565b60208101516060820151608083015160a6546000939291906001600160801b03600160801b90910481169082161015611c525760009350505050610ac7565b60a6546000908190611c6d906001600160801b03168561333a565b90506001600160801b038116611c9d57611c9685610bc860a5548b611b5390919063ffffffff16565b9150611cd5565b806001600160801b031660011415611cd057611c96633b9aca00610bc887610bc860a5548d611b5390919063ffffffff16565b600091505b611ce388633b9aca00611bac565b821015611cf857600095505050505050610ac7565b509695505050505050565b600082821115611d5a576040805162461bcd60e51b815260206004820152601e60248201527f536166654d6174683a207375627472616374696f6e206f766572666c6f770000604482015290519081900360640190fd5b50900390565b609c5460408051630fdb11cf60e01b815290516000926001600160a01b031691630fdb11cf91600480830192602092919082900301818787803b158015611da657600080fd5b505af1158015611dba573d6000803e3d6000fd5b505050506040513d6020811015611dd057600080fd5b5051609b5460408051634d62283160e01b815290519293506000926001600160a01b0390921691634d62283191600480820192602092909190829003018186803b158015611e1d57600080fd5b505afa158015611e31573d6000803e3d6000fd5b505050506040513d6020811015611e4757600080fd5b505160985460408051630d293c7160e41b81526001600160a01b038085166004830152602482018790529151939450600093919092169163d293c710916044808301926020929190829003018186803b158015611ea357600080fd5b505afa158015611eb7573d6000803e3d6000fd5b505050506040513d6020811015611ecd57600080fd5b50519050670f43fc2c04ee0000811015611f185760405162461bcd60e51b8152600401808060200182810382526044815260200180613d146044913960600191505060405180910390fd5b505050565b60008111611f5c5760405162461bcd60e51b8152600401808060200182810382526030815260200180613cc46030913960400191505060405180910390fd5b50565b6000816001600160a01b0316632eee8bc96040518163ffffffff1660e01b8152600401602060405180830381600087803b158015611f9c57600080fd5b505af1158015611fb0573d6000803e3d6000fd5b505050506040513d6020811015611fc657600080fd5b50519050611fd38161338d565b5050565b6000818310611fe65781610ac4565b5090919050565b6001600160a01b038116156120b957600061200782610d01565b9050836001600160a01b0316638352d63683836040518363ffffffff1660e01b815260040180836001600160a01b0316815260200182815260200192505050600060405180830381600087803b15801561206057600080fd5b505af1158015612074573d6000803e3d6000fd5b50506040805184815290516001600160a01b03861693507fc3c43b5355673e1ea1a83122d1de4fde0584a9e8796843b3b7b33ed9b1aece0292509081900360200190a2505b60006120c483610acd565b9050836001600160a01b0316638352d63684836040518363ffffffff1660e01b815260040180836001600160a01b0316815260200182815260200192505050600060405180830381600087803b15801561211d57600080fd5b505af1158015612131573d6000803e3d6000fd5b50506040805184815290516001600160a01b03871693507fe57aace4a327c35eab9346657e77499888878556a925f2b460c3f1ce23b093f792509081900360200190a250505050565b6001600160a01b038216600090815260a3602052604090208190558061220a576001600160a01b038216600081815260a460209081526040808320838155600181018490556002810184905560030183905580518381529182019290925281517fbb1322f85cc7cc8bac4e172a5bc5dcc0c1959007f9a030032abf9258205f0e45929181900390910190a2611fd3565b60a65460a5546001600160801b03600160801b8084048216600081815260a860209081526040808320978616808452978252808320546001600160a01b038b1680855260a4845293829020600181018990556002810182905560030180546001600160801b0319168a17909716958502959095179095558451868152908101849052845192959491927fbb1322f85cc7cc8bac4e172a5bc5dcc0c1959007f9a030032abf9258205f0e45929181900390910190a2505050505050565b806122d057611fd3565b609a5460408051631062c15f60e11b81523060048201526001600160a01b03858116602483015260448201859052915191909216916320c582be91606480830192600092919082900301818387803b15801561232b57600080fd5b505af115801561233f573d6000803e3d6000fd5b50505050611fd3816134a2565b6001600160a01b038216600090815260a060205260409020819055806123fa576001600160a01b038216600081815260a060209081526040808320600190810180546001600160a01b031916905560a183528184208481559081018490556002810184905560030183905580518381529182018390528181019290925290517f2d6cc0bcdf72c9486f6451bde6b80f44066f4558f77f44dbfedbe7d8b295225a9181900360600190a2611fd3565b60a65460a5546001600160801b03600160801b8084048216600081815260a7602090815260408083209786168084529782528083205484845260a883528184208985528352818420546001600160a01b038c1680865260a1855294839020600181018a90558281556002810182905560030180546001600160801b0319168b179098169686029690961790965580518781529182018690528181018590525192959493927f2d6cc0bcdf72c9486f6451bde6b80f44066f4558f77f44dbfedbe7d8b295225a916060908290030190a250505050505050565b806124dc57611f5c565b609e546000906124ec9083611d03565b609e819055604080518281529051919250600080516020613b1a833981519152919081900360200190a1604080513381526020810184905281517f3b2482b1bf6e751427503c9a8bf79e4dba3e6519259e2220428c2f326cc79c14929181900390910190a1604051600090339084908381818185875af1925050503d8060008114612593576040519150601f19603f3d011682016040523d82523d6000602084013e612598565b606091505b5050905080611f185760405162461bcd60e51b8152600401808060200182810382526021815260200180613c346021913960400191505060405180910390fd5b6098546001600160a01b03163314610a685760405162461bcd60e51b8152600401808060200182810382526029815260200180613a796029913960400191505060405180910390fd5b600080600061264d60aa54612647670de0b6b3a764000089611b5390919063ffffffff16565b90610a6a565b90508385111561265957fe5b8385141561267657600060ab55670de0b6b3a764000091506126be565b60ab546000906126989061269288670de0b6b3a7640000611b53565b90611d03565b90506126a960016126478388611bac565b92506126b9816126928588611b53565b60ab55505b6126c88185611bac565b92506126de6126d78486611b53565b8290611d03565b60aa5550935093915050565b60a5546000670de0b6b3a764000083111561270157fe5b6000612715670de0b6b3a764000085611d03565b60a6546001600160801b03600160801b82048116600081815260a7602090815260408083209490951680835293905292832054939450909290916127598988611b53565b905060006127678383610a6a565b6001600160801b03808616600081815260a760209081526040808320948b16808452948252918290208590558151858152908101929092528181019290925290519192507fe12e2cd2c9afa8069203ca07e7eff1edce4a075686d0736a8e7e0d593597b207919081900360600190a185612898576127ef6001600160801b03851660016132ea565b60a680546001600160801b03908116600160801b938216840217918290556040805193909204168252517fb50f0f59e7cb5b421dc77581c3a9919e3806e076e5fa78a874c3f120cb7d874d916020908290030190a160a680546001600160801b0319169055604080516000815290517f1f9dfc70cd666adb18a39d60a797518f7b4febf4b6e24ef37d44f6e1e7219fbe9181900360200190a1670de0b6b3a76400009650612966565b633b9aca006128b3670de0b6b3a7640000610bc88b8a611b53565b101561294d576128dd670de0b6b3a7640000610bc8633b9aca006128d78c8b611b53565b90611b53565b96506128f36001600160801b03861660016132ea565b60a680546001600160801b0319166001600160801b0392831617908190556040805191909216815290517f1f9dfc70cd666adb18a39d60a797518f7b4febf4b6e24ef37d44f6e1e7219fbe916020908290030190a1612966565b612963670de0b6b3a7640000610bc88a89611b53565b96505b6000871161297057fe5b60a58790556040805188815290517fc1a9618cb59ebca77cbdbc2949f126823c407ff13edb285fd0262519a9c18e8c9181900360200190a150505050505050505050565b60995460408051632a7ba1f760e01b81526004810184905290516001600160a01b03909216918291632a7ba1f791602480830192600092919082900301818387803b158015612a0257600080fd5b505af1158015612a16573d6000803e3d6000fd5b50505050612a23826134a2565b609a5460408051632770a7eb60e21b81523060048201526024810185905290516001600160a01b0390921691639dc29fac9160448082019260009290919082900301818387803b158015612a7657600080fd5b505af1158015612a8a573d6000803e3d6000fd5b505060408051628063a560e01b81523060048201526024810187905290516001600160a01b0385169350628063a59250604480830192600092919082900301818387803b158015612ada57600080fd5b505af1158015612aee573d6000803e3d6000fd5b50505050505050565b6000612b02306134f2565b15905090565b600054610100900460ff1680612b215750612b21612af7565b80612b2f575060005460ff16155b612b6a5760405162461bcd60e51b815260040180806020018281038252602e815260200180613a2b602e913960400191505060405180910390fd5b600054610100900460ff16158015612b95576000805460ff1961ff0019909116610100171660011790555b612b9d6134f8565b612ba5613598565b8015611f5c576000805461ff001916905550565b600054610100900460ff1680612bd25750612bd2612af7565b80612be0575060005460ff16155b612c1b5760405162461bcd60e51b815260040180806020018281038252602e815260200180613a2b602e913960400191505060405180910390fd5b600054610100900460ff16158015612c46576000805460ff1961ff0019909116610100171660011790555b612ba561367f565b612c5787613725565b612c6086613725565b612c6985613725565b612c7284613725565b612c7b83613725565b612c8482613725565b612c8d81613725565b612c9686613780565b609780546001600160a01b03199081166001600160a01b038a81169182179093556098805483168a8516179055609980548316898516179055609a80548316888516179055609b80548316878516179055609c80548316868516179055609d805490921692841692909217905560408051918252517f3ca631ffcd2a9b5d9ae18543fc82f58eb4ca33af9e6ab01b7a8e95331e6ed985916020908290030190a1604080516001600160a01b038816815290517f143219c9e69b09e07e095fcc889b43d8f46ca892bba65f08dc3a0050869a56789181900360200190a1604080516001600160a01b038716815290517f78f058b189175430c48dc02699e3a0031ea4ff781536dc2fab847de4babdd8829181900360200190a1604080516001600160a01b038616815290517f112220fa8dbe96141556e0dc3d74dd95075b323f4f297616048e02d82d7017159181900360200190a1604080516001600160a01b038516815290517f65f4cf077bc01e4742eb5ad98326f6e95b63548ea24b17f8d5e823111fe788009181900360200190a1604080516001600160a01b038416815290517f8c537274438aa850a330284665d81a85dd38267d09e4050d416bfc94142db2649181900360200190a1604080516001600160a01b038316815290517f3055265812fb8447b9ada4a5d804ec43bd528ec40e89c952bbc7b85dc5ac68119181900360200190a150505050505050565b6001600160a01b038116600090815260a2602052604090206001015460ff1615611f5c5760405162461bcd60e51b8152600401808060200182810382526039815260200180613bd36039913960400191505060405180910390fd5b6001600160a01b038116600090815260a060205260409020548015611fd35760405162461bcd60e51b8152600401808060200182810382526028815260200180613c0c6028913960400191505060405180910390fd5b670de0b6b3a7640000811115611f5c5760405162461bcd60e51b8152600401808060200182810382526033815260200180613b3a6033913960400191505060405180910390fd5b6001600160a01b038116600090815260a2602052604090206001015460ff1680612fd057506001600160a01b038116155b611f5c5760405162461bcd60e51b81526004018080602001828103825260468152602001806139be6046913960600191505060405180910390fd5b60008111611f5c5760405162461bcd60e51b8152600401808060200182810382526026815260200180613b8d6026913960400191505060405180910390fd5b6001600160a01b03828116600081815260a0602052604080822060010180546001600160a01b0319169486169485179055517f094c08e96a8890877a8390b4f967180a7507ad8622244d05fcd0f9f8e086564e9190a35050565b609a5460408051632ee65eeb60e21b81526001600160a01b038581166004830152306024830152604482018590529151919092169163bb997bac91606480830192600092919082900301818387803b1580156130ff57600080fd5b505af1158015613113573d6000803e3d6000fd5b5050609f5460009250613127915083610a6a565b609f8190556040805182815290519192507f8c9268469ff6265448f46f8119962e815f393b25b87bb55bda5e709a412b85d7919081900360200190a1505050565b3390565b609854604080516321e3780160e01b81526001600160a01b038481166004830152915191909216916321e37801916024808301926020929190829003018186803b1580156131b957600080fd5b505afa1580156131cd573d6000803e3d6000fd5b505050506040513d60208110156131e357600080fd5b5051600114611f5c5760405162461bcd60e51b8152600401808060200182810382526046815260200180613c556046913960600191505060405180910390fd5b600061322e82611812565b905060008111611fd35760405162461bcd60e51b8152600401808060200182810382526031815260200180613aa26031913960400191505060405180910390fd5b6080810151606082015182516020808501516001600160801b03808616600090815260a784526040808220928716825291909352822054919493929185906132b79084611d03565b6001600160801b03808716600090815260a76020526040812092935091611b1f91633b9aca0091908490611aff908a1660015b60008282016001600160801b038085169082161015610ac45760405162461bcd60e51b8152600401808060200182810382526026815260200180613ad36026913960400191505060405180910390fd5b6000826001600160801b0316826001600160801b03161115611d5a5760405162461bcd60e51b8152600401808060200182810382526029815260200180613c9b6029913960400191505060405180910390fd5b609f5480158061339b575081155b156133a65750611f5c565b60006133b28383613924565b905060006133cb60a55483611b5390919063ffffffff16565b60a6546001600160801b03600160801b82048116600090815260a8602090815260408083209390941682529190915220549091506134099082610a6a565b60a680546001600160801b03600160801b8083048216600090815260a8602081815260408084209686168452958152858320979097559454918204831680825294865283812091909216808352908552908290205482519081529384019290925282810191909152517f2d6127771b164a9cc8827d24b5955db2a77e7a81dac389107ebb8bce9fb649689181900360600190a150505050565b609f546000906134b29083611d03565b609f8190556040805182815290519192507f8c9268469ff6265448f46f8119962e815f393b25b87bb55bda5e709a412b85d7919081900360200190a15050565b3b151590565b600054610100900460ff16806135115750613511612af7565b8061351f575060005460ff16155b61355a5760405162461bcd60e51b815260040180806020018281038252602e815260200180613a2b602e913960400191505060405180910390fd5b600054610100900460ff16158015612ba5576000805460ff1961ff0019909116610100171660011790558015611f5c576000805461ff001916905550565b600054610100900460ff16806135b157506135b1612af7565b806135bf575060005460ff16155b6135fa5760405162461bcd60e51b815260040180806020018281038252602e815260200180613a2b602e913960400191505060405180910390fd5b600054610100900460ff16158015613625576000805460ff1961ff0019909116610100171660011790555b600061362f613168565b603380546001600160a01b0319166001600160a01b03831690811790915560405191925090600090600080516020613b6d833981519152908290a3508015611f5c576000805461ff001916905550565b600054610100900460ff16806136985750613698612af7565b806136a6575060005460ff16155b6136e15760405162461bcd60e51b815260040180806020018281038252602e815260200180613a2b602e913960400191505060405180910390fd5b600054610100900460ff1615801561370c576000805460ff1961ff0019909116610100171660011790555b60016065558015611f5c576000805461ff001916905550565b6001600160a01b038116611f5c576040805162461bcd60e51b815260206004820152601e60248201527f4163636f756e742063616e6e6f74206265207a65726f20616464726573730000604482015290519081900360640190fd5b7f0000000000000000000000000000000000000000000000000000000000000000816001600160a01b031663139f2e8c6040518163ffffffff1660e01b815260040160206040518083038186803b1580156137da57600080fd5b505afa1580156137ee573d6000803e3d6000fd5b505050506040513d602081101561380457600080fd5b505114613854576040805162461bcd60e51b815260206004820152601960248201527808e82a6be869e9aa08a9ca682a8929e9c40dad2e6dac2e8c6d603b1b604482015290519081900360640190fd5b7f0000000000000000000000000000000000000000000000000000000000000000816001600160a01b0316631bf435556040518163ffffffff1660e01b815260040160206040518083038186803b1580156138ae57600080fd5b505afa1580156138c2573d6000803e3d6000fd5b505050506040513d60208110156138d857600080fd5b505114611f5c576040805162461bcd60e51b815260206004820152601560248201527409a929cbe9c8aa8be888a84a840dad2e6dac2e8c6d605b1b604482015290519081900360640190fd5b60008061394860a954612647670de0b6b3a764000087611b5390919063ffffffff16565b905060006139568285611bac565b905061396c6139658286611b53565b8390611d03565b60a95594935050505056fe5265656e7472616e637947756172643a207265656e7472616e742063616c6c004f776e61626c653a206e6577206f776e657220697320746865207a65726f206164647265737353746162696c697479506f6f6c3a20546167206d757374206265206120726567697374657265642066726f6e7420656e642c206f7220746865207a65726f206164647265737353746162696c697479506f6f6c3a2043616c6c6572206973206e6f7420416374697665506f6f6c496e697469616c697a61626c653a20636f6e747261637420697320616c726561647920696e697469616c697a6564bce78369dccab09eec1986f4d409ab09ffbb47d65423e5148fcf98411c5111c953746162696c697479506f6f6c3a2043616c6c6572206973206e6f742054726f76654d616e6167657253746162696c697479506f6f6c3a2063616c6c6572206d7573742068617665206e6f6e2d7a65726f2046494c204761696e50726f746f636f6c536166654d6174683132383a206164646974696f6e206f766572666c6f77536166654d6174683a206d756c7469706c69636174696f6e206f766572666c6f77d05c60ff21c33fb1103e848d5310f11270e7db91e1b079c4bdd0c6024f83d6c753746162696c697479506f6f6c3a204b69636b6261636b2072617465206d75737420626520696e2072616e6765205b302c315d8be0079c531659141344cd1fd0a4f28419497f9722a3daafe3b4186f6b6457e053746162696c697479506f6f6c3a20416d6f756e74206d757374206265206e6f6e2d7a65726f69e8bca5591c9a2886b122cc27d391b407b746b724f75b996c37903b868c449753746162696c697479506f6f6c3a206d757374206e6f7420616c7265616479206265206120726567697374657265642066726f6e7420656e6453746162696c697479506f6f6c3a2055736572206d7573742068617665206e6f206465706f73697453746162696c697479506f6f6c3a2073656e64696e672046494c206661696c656453746162696c697479506f6f6c3a2063616c6c6572206d757374206861766520616e206163746976652074726f766520746f2077697468647261772046494c4761696e20746f50726f746f636f6c536166654d6174683132383a207375627472616374696f6e206f766572666c6f7753746162696c697479506f6f6c3a2055736572206d75737420686176652061206e6f6e2d7a65726f206465706f73697499920012339b5a3368d3a04b8606ce412c46ed92b7dcd8602d41fc8862cb8f2553746162696c697479506f6f6c3a2043616e6e6f74207769746864726177207768696c65207468657265206172652074726f766573207769746820494352203c204d4352a2646970667358221220a33cadcda8a761f7fd0a581a1ca9ab799e9d42dea3848dac2cb3f2ff56eca52664736f6c63430007060033608060405234801561001057600080fd5b506105fe806100206000396000f3fe608060405234801561001057600080fd5b506004361061004c5760003560e01c8063715018a6146100515780638129fc1c1461005b5780638da5cb5b14610063578063f2fde38b14610087575b600080fd5b6100596100ad565b005b610059610159565b61006b610203565b604080516001600160a01b039092168252519081900360200190f35b6100596004803603602081101561009d57600080fd5b50356001600160a01b0316610212565b6100b5610315565b6001600160a01b03166100c6610203565b6001600160a01b031614610121576040805162461bcd60e51b815260206004820181905260248201527f4f776e61626c653a2063616c6c6572206973206e6f7420746865206f776e6572604482015290519081900360640190fd5b6033546040516000916001600160a01b0316906000805160206105a9833981519152908390a3603380546001600160a01b0319169055565b600054610100900460ff16806101725750610172610319565b80610180575060005460ff16155b6101bb5760405162461bcd60e51b815260040180806020018281038252602e81526020018061057b602e913960400191505060405180910390fd5b600054610100900460ff161580156101e6576000805460ff1961ff0019909116610100171660011790555b6101ee61032a565b8015610200576000805461ff00191690555b50565b6033546001600160a01b031690565b61021a610315565b6001600160a01b031661022b610203565b6001600160a01b031614610286576040805162461bcd60e51b815260206004820181905260248201527f4f776e61626c653a2063616c6c6572206973206e6f7420746865206f776e6572604482015290519081900360640190fd5b6001600160a01b0381166102cb5760405162461bcd60e51b81526004018080602001828103825260268152602001806105556026913960400191505060405180910390fd5b6033546040516001600160a01b038084169216906000805160206105a983398151915290600090a3603380546001600160a01b0319166001600160a01b0392909216919091179055565b3390565b6000610324306103c7565b15905090565b600054610100900460ff16806103435750610343610319565b80610351575060005460ff16155b61038c5760405162461bcd60e51b815260040180806020018281038252602e81526020018061057b602e913960400191505060405180910390fd5b600054610100900460ff161580156103b7576000805460ff1961ff0019909116610100171660011790555b6103bf6103cd565b6101ee61046d565b3b151590565b600054610100900460ff16806103e657506103e6610319565b806103f4575060005460ff16155b61042f5760405162461bcd60e51b815260040180806020018281038252602e81526020018061057b602e913960400191505060405180910390fd5b600054610100900460ff161580156101ee576000805460ff1961ff0019909116610100171660011790558015610200576000805461ff001916905550565b600054610100900460ff16806104865750610486610319565b80610494575060005460ff16155b6104cf5760405162461bcd60e51b815260040180806020018281038252602e81526020018061057b602e913960400191505060405180910390fd5b600054610100900460ff161580156104fa576000805460ff1961ff0019909116610100171660011790555b6000610504610315565b603380546001600160a01b0319166001600160a01b038316908117909155604051919250906000906000805160206105a9833981519152908290a3508015610200576000805461ff00191690555056fe4f776e61626c653a206e6577206f776e657220697320746865207a65726f2061646472657373496e697469616c697a61626c653a20636f6e747261637420697320616c726561647920696e697469616c697a65648be0079c531659141344cd1fd0a4f28419497f9722a3daafe3b4186f6b6457e0a2646970667358221220bd0bebdaf7e2e89dfcde821bbdf91908a5402a9dce9cbfb38fb5bd1b0282977f64736f6c63430007060033608060405234801561001057600080fd5b50611bdc806100206000396000f3fe608060405234801561001057600080fd5b50600436106101635760003560e01c8063715018a6116100ce578063b7f8cf9b11610087578063b7f8cf9b146103ef578063bb997bac146103f7578063c0c53b8b1461042d578063d505accf14610465578063dd62ed3e146104b6578063f2fde38b146104e4578063f698da251461050a57610163565b8063715018a6146103595780637ecebe00146103615780638da5cb5b1461038757806395d89b411461038f5780639dc29fac14610397578063a9059cbb146103c357610163565b806323b872dd1161012057806323b872dd146102a3578063313ce567146102d957806340c10f19146102f757806354fd4d50146103235780635a4d28bb1461032b57806370a082311461033357610163565b806306fdde0314610168578063095ea7b3146101e55780630b622ab21461022557806310ce43bd1461024957806318160ddd1461026357806320c582be1461026b575b600080fd5b610170610512565b6040805160208082528351818301528351919283929083019185019080838360005b838110156101aa578181015183820152602001610192565b50505050905090810190601f1680156101d75780820380516001836020036101000a031916815260200191505b509250505060405180910390f35b610211600480360360408110156101fb57600080fd5b506001600160a01b038135169060200135610547565b604080519115158252519081900360200190f35b61022d61055d565b604080516001600160a01b039092168252519081900360200190f35b61025161056c565b60408051918252519081900360200190f35b610251610590565b6102a16004803603606081101561028157600080fd5b506001600160a01b03813581169160208101359091169060400135610596565b005b610211600480360360608110156102b957600080fd5b506001600160a01b038135811691602081013590911690604001356105ae565b6102e1610620565b6040805160ff9092168252519081900360200190f35b6102a16004803603604081101561030d57600080fd5b506001600160a01b038135169060200135610625565b61017061063b565b61022d610656565b6102516004803603602081101561034957600080fd5b50356001600160a01b0316610665565b6102a1610680565b6102516004803603602081101561037757600080fd5b50356001600160a01b031661072c565b61022d610747565b610170610756565b6102a1600480360360408110156103ad57600080fd5b506001600160a01b038135169060200135610775565b610211600480360360408110156103d957600080fd5b506001600160a01b038135169060200135610787565b61022d61079d565b6102a16004803603606081101561040d57600080fd5b506001600160a01b038135811691602081013590911690604001356107ac565b6102a16004803603606081101561044357600080fd5b506001600160a01b0381358116916020810135821691604090910135166107b4565b6102a1600480360360e081101561047b57600080fd5b506001600160a01b03813581169160208101359091169060408101359060608101359060ff6080820135169060a08101359060c0013561086c565b610251600480360360408110156104cc57600080fd5b506001600160a01b0381358116916020013516610a6e565b6102a1600480360360208110156104fa57600080fd5b50356001600160a01b0316610a99565b610251610b9c565b60408051808201909152601a81527955534420666f722046696c65636f696e20436f6d6d756e69747960301b60208201525b90565b6000610554338484610bf1565b50600192915050565b606e546001600160a01b031681565b7f6e71edae12b1b97f4d1f60370fef10105fa2faae0126114a169c64845d6126c990565b60655490565b61059e610cdd565b6105a9838383610d3d565b505050565b60006105b983610e7d565b6105c4848484610d3d565b610616843361061185604051806060016040528060288152602001611a9a602891396001600160a01b038a166000908152606c602090815260408083203384529091529020549190610f5d565b610bf1565b5060019392505050565b601290565b61062d610ff4565b610637828261103d565b5050565b6040805180820190915260018152603160f81b602082015290565b606d546001600160a01b031681565b6001600160a01b03166000908152606b602052604090205490565b610688611111565b6001600160a01b0316610699610747565b6001600160a01b0316146106f4576040805162461bcd60e51b815260206004820181905260248201527f4f776e61626c653a2063616c6c6572206973206e6f7420746865206f776e6572604482015290519081900360640190fd5b6033546040516000916001600160a01b031690600080516020611ac2833981519152908390a3603380546001600160a01b0319169055565b6001600160a01b03166000908152606a602052604090205490565b6033546001600160a01b031690565b604080518082019091526005815264555344464360d81b602082015290565b61077d611115565b6106378282611188565b600061079283610e7d565b610554338484610d3d565b606f546001600160a01b031681565b61059e611266565b600054610100900460ff16806107cd57506107cd6112af565b806107db575060005460ff16155b6108165760405162461bcd60e51b815260040180806020018281038252602e815260200180611a42602e913960400191505060405180910390fd5b600054610100900460ff16158015610841576000805460ff1961ff0019909116610100171660011790555b6108496112c0565b610854848484611371565b8015610866576000805461ff00191690555b50505050565b428410156108c1576040805162461bcd60e51b815260206004820152601b60248201527f44656274546f6b656e3a206578706972656420646561646c696e650000000000604482015290519081900360640190fd5b60006108cb610b9c565b6001600160a01b03808a166000818152606a602090815260408083208054600180820190925582517f6e71edae12b1b97f4d1f60370fef10105fa2faae0126114a169c64845d6126c98186015280840196909652958e166060860152608085018d905260a085019590955260c08085018c90528151808603909101815260e08501825280519083012061190160f01b6101008601526101028501969096526101228085019690965280518085039096018652610142840180825286519683019690962095839052610162840180825286905260ff8a166101828501526101a284018990526101c284018890525194955090936101e280840193601f198301929081900390910190855afa1580156109e6573d6000803e3d6000fd5b505050602060405103519050886001600160a01b0316816001600160a01b031614610a58576040805162461bcd60e51b815260206004820152601c60248201527f44656274546f6b656e3a20696e76616c6964207369676e617475726500000000604482015290519081900360640190fd5b610a63898989610bf1565b505050505050505050565b6001600160a01b039182166000908152606c6020908152604080832093909416825291909152205490565b610aa1611111565b6001600160a01b0316610ab2610747565b6001600160a01b031614610b0d576040805162461bcd60e51b815260206004820181905260248201527f4f776e61626c653a2063616c6c6572206973206e6f7420746865206f776e6572604482015290519081900360640190fd5b6001600160a01b038116610b525760405162461bcd60e51b81526004018080602001828103825260268152602001806118a26026913960400191505060405180910390fd5b6033546040516001600160a01b03808416921690600080516020611ac283398151915290600090a3603380546001600160a01b0319166001600160a01b0392909216919091179055565b6000606754610ba9611550565b1415610bb85750606654610544565b610bea7f8b73c3c69bb8fe3d512ecc4cf759cc79239f7b179b0ffacaa9a75d522b39400f60001b606854606954611554565b9050610544565b6001600160a01b038316610c365760405162461bcd60e51b8152600401808060200182810382526024815260200180611b486024913960400191505060405180910390fd5b6001600160a01b038216610c7b5760405162461bcd60e51b81526004018080602001828103825260228152602001806118c86022913960400191505060405180910390fd5b6001600160a01b038084166000818152606c6020908152604080832094871680845294825291829020859055815185815291517f8c5be1e5ebec7d5bd14f71427d1e84f3dd0314c0f7b2291e5b200ac8c7c3b9259281900390910190a3505050565b606d546001600160a01b0316331480610d005750606e546001600160a01b031633145b610d3b5760405162461bcd60e51b815260040180806020018281038252603b815260200180611b6c603b913960400191505060405180910390fd5b565b6001600160a01b038316610d825760405162461bcd60e51b8152600401808060200182810382526025815260200180611b236025913960400191505060405180910390fd5b6001600160a01b038216610dc75760405162461bcd60e51b815260040180806020018281038252602381526020018061185d6023913960400191505060405180910390fd5b610e04816040518060600160405280602681526020016119c3602691396001600160a01b0386166000908152606b60205260409020549190610f5d565b6001600160a01b038085166000908152606b60205260408082209390935590841681522054610e3390826115b6565b6001600160a01b038084166000818152606b60209081526040918290209490945580518581529051919392871692600080516020611ae283398151915292918290030190a3505050565b6001600160a01b03811615801590610e9e57506001600160a01b0381163014155b610ed95760405162461bcd60e51b81526004018080602001828103825260598152602001806119e96059913960600191505060405180910390fd5b606e546001600160a01b03828116911614801590610f055750606d546001600160a01b03828116911614155b8015610f1f5750606f546001600160a01b03828116911614155b610f5a5760405162461bcd60e51b815260040180806020018281038252605c81526020018061193c605c913960600191505060405180910390fd5b50565b60008184841115610fec5760405162461bcd60e51b81526004018080602001828103825283818151815260200191508051906020019080838360005b83811015610fb1578181015183820152602001610f99565b50505050905090810190601f168015610fde5780820380516001836020036101000a031916815260200191505b509250505060405180910390fd5b505050900390565b606f546001600160a01b03163314610d3b5760405162461bcd60e51b815260040180806020018281038252602b815260200180611998602b913960400191505060405180910390fd5b6001600160a01b038216611098576040805162461bcd60e51b815260206004820152601f60248201527f45524332303a206d696e7420746f20746865207a65726f206164647265737300604482015290519081900360640190fd5b6065546110a590826115b6565b6065556001600160a01b0382166000908152606b60205260409020546110cb90826115b6565b6001600160a01b0383166000818152606b60209081526040808320949094558351858152935192939192600080516020611ae28339815191529281900390910190a35050565b3390565b606f546001600160a01b03163314806111385750606d546001600160a01b031633145b8061114d5750606e546001600160a01b031633145b610d3b5760405162461bcd60e51b81526004018080602001828103825260528152602001806118ea6052913960600191505060405180910390fd5b6001600160a01b0382166111cd5760405162461bcd60e51b8152600401808060200182810382526021815260200180611b026021913960400191505060405180910390fd5b61120a81604051806060016040528060228152602001611880602291396001600160a01b0385166000908152606b60205260409020549190610f5d565b6001600160a01b0383166000908152606b60205260409020556065546112309082611617565b6065556040805182815290516000916001600160a01b03851691600080516020611ae28339815191529181900360200190a35050565b606e546001600160a01b03163314610d3b5760405162461bcd60e51b815260040180806020018281038252602a815260200180611a70602a913960400191505060405180910390fd5b60006112ba30611674565b15905090565b600054610100900460ff16806112d957506112d96112af565b806112e7575060005460ff16155b6113225760405162461bcd60e51b815260040180806020018281038252602e815260200180611a42602e913960400191505060405180910390fd5b600054610100900460ff1615801561134d576000805460ff1961ff0019909116610100171660011790555b61135561167a565b61135d61171a565b8015610f5a576000805461ff001916905550565b61137a83611801565b61138382611801565b61138c81611801565b606d80546001600160a01b0385166001600160a01b0319909116811790915560408051918252517f143219c9e69b09e07e095fcc889b43d8f46ca892bba65f08dc3a0050869a56789181900360200190a1606e80546001600160a01b0384166001600160a01b0319909116811790915560408051918252517f82966d27eea39b038ee0fa30cd16532bb24f6e65d31cb58fb227aa5766cdcc7f9181900360200190a1606f80546001600160a01b0383166001600160a01b0319909116811790915560408051918252517f3ca631ffcd2a9b5d9ae18543fc82f58eb4ca33af9e6ab01b7a8e95331e6ed9859181900360200190a1604080518082018252601a81527955534420666f722046696c65636f696e20436f6d6d756e69747960301b602091820152815180830190925260018252603160f81b9101527fc0412597c9d60cbc3de18204991e00bf2f567b025e527ce64b3713f7afab420760688190557fc89efdaa54c0f20c7adf612882df0950f5a951637e0307cdcb4c672f298b8bc66069819055611518611550565b6067556115467f8b73c3c69bb8fe3d512ecc4cf759cc79239f7b179b0ffacaa9a75d522b39400f8383611554565b6066555050505050565b4690565b6000838383611561611550565b3060405160200180868152602001858152602001848152602001838152602001826001600160a01b03168152602001955050505050506040516020818303038152906040528051906020012090509392505050565b600082820183811015611610576040805162461bcd60e51b815260206004820152601b60248201527f536166654d6174683a206164646974696f6e206f766572666c6f770000000000604482015290519081900360640190fd5b9392505050565b60008282111561166e576040805162461bcd60e51b815260206004820152601e60248201527f536166654d6174683a207375627472616374696f6e206f766572666c6f770000604482015290519081900360640190fd5b50900390565b3b151590565b600054610100900460ff168061169357506116936112af565b806116a1575060005460ff16155b6116dc5760405162461bcd60e51b815260040180806020018281038252602e815260200180611a42602e913960400191505060405180910390fd5b600054610100900460ff1615801561135d576000805460ff1961ff0019909116610100171660011790558015610f5a576000805461ff001916905550565b600054610100900460ff168061173357506117336112af565b80611741575060005460ff16155b61177c5760405162461bcd60e51b815260040180806020018281038252602e815260200180611a42602e913960400191505060405180910390fd5b600054610100900460ff161580156117a7576000805460ff1961ff0019909116610100171660011790555b60006117b1611111565b603380546001600160a01b0319166001600160a01b03831690811790915560405191925090600090600080516020611ac2833981519152908290a3508015610f5a576000805461ff001916905550565b6001600160a01b038116610f5a576040805162461bcd60e51b815260206004820152601e60248201527f4163636f756e742063616e6e6f74206265207a65726f20616464726573730000604482015290519081900360640190fdfe45524332303a207472616e7366657220746f20746865207a65726f206164647265737345524332303a206275726e20616d6f756e7420657863656564732062616c616e63654f776e61626c653a206e6577206f776e657220697320746865207a65726f206164647265737345524332303a20617070726f766520746f20746865207a65726f206164647265737344656274546f6b656e3a2043616c6c6572206973206e65697468657220426f72726f7765724f7065726174696f6e73206e6f722054726f76654d616e61676572206e6f722053746162696c697479506f6f6c44656274546f6b656e3a2043616e6e6f74207472616e7366657220746f6b656e73206469726563746c7920746f207468652053746162696c697479506f6f6c2c2054726f76654d616e61676572206f7220426f72726f7765724f707344656274546f6b656e3a2043616c6c6572206973206e6f7420426f72726f7765724f7065726174696f6e7345524332303a207472616e7366657220616d6f756e7420657863656564732062616c616e636544656274546f6b656e3a2043616e6e6f74207472616e7366657220746f6b656e73206469726563746c7920746f20746865204465627420746f6b656e20636f6e7472616374206f7220746865207a65726f2061646472657373496e697469616c697a61626c653a20636f6e747261637420697320616c726561647920696e697469616c697a656444656274546f6b656e3a2043616c6c6572206973206e6f74207468652053746162696c697479506f6f6c45524332303a207472616e7366657220616d6f756e74206578636565647320616c6c6f77616e63658be0079c531659141344cd1fd0a4f28419497f9722a3daafe3b4186f6b6457e0ddf252ad1be2c89b69c2b068fc378daa952ba7f163c4a11628f55a4df523b3ef45524332303a206275726e2066726f6d20746865207a65726f206164647265737345524332303a207472616e736665722066726f6d20746865207a65726f206164647265737345524332303a20617070726f76652066726f6d20746865207a65726f206164647265737344656274546f6b656e3a2043616c6c6572206973206e6569746865722054726f76654d616e61676572206e6f722053746162696c697479506f6f6ca2646970667358221220e61d75bf99a9d1481658deb09e4ddfe603711ecfb5f76287bc7fcaeda895588364736f6c63430007060033608060405234801561001057600080fd5b50610f2f806100206000396000f3fe6080604052600436106100ab5760003560e01c8063b08bc72211610064578063b08bc72214610268578063b32beb5b1461027d578063b7f8cf9b146102b0578063c0c53b8b146102c5578063c5c3937e1461030a578063f2fde38b1461031f576100fe565b80633f10abab146101035780635a4d28bb1461013e578063715018a61461016f5780638da5cb5b146101845780639b56d6c914610199578063a3f4df7e146101de576100fe565b366100fe576100b8610352565b6068546100c5903461039d565b606881905560408051918252517f81820527813530604904e6d74fb6803f3a63006b7777d54c5d2d046dc8f201bd9181900360200190a1005b600080fd5b34801561010f57600080fd5b5061013c6004803603604081101561012657600080fd5b506001600160a01b0381351690602001356103fe565b005b34801561014a57600080fd5b50610153610484565b604080516001600160a01b039092168252519081900360200190f35b34801561017b57600080fd5b5061013c610493565b34801561019057600080fd5b5061015361053f565b3480156101a557600080fd5b506101cc600480360360208110156101bc57600080fd5b50356001600160a01b031661054e565b60408051918252519081900360200190f35b3480156101ea57600080fd5b506101f3610569565b6040805160208082528351818301528351919283929083019185019080838360005b8381101561022d578181015183820152602001610215565b50505050905090810190601f16801561025a5780820380516001836020036101000a031916815260200191505b509250505060405180910390f35b34801561027457600080fd5b50610153610594565b34801561028957600080fd5b5061013c600480360360208110156102a057600080fd5b50356001600160a01b03166105a3565b3480156102bc57600080fd5b50610153610737565b3480156102d157600080fd5b5061013c600480360360608110156102e857600080fd5b506001600160a01b038135811691602081013582169160409091013516610746565b34801561031657600080fd5b506101cc6107fe565b34801561032b57600080fd5b5061013c6004803603602081101561034257600080fd5b50356001600160a01b0316610804565b6067546001600160a01b0316331461039b5760405162461bcd60e51b815260040180806020018281038252602a815260200180610e02602a913960400191505060405180910390fd5b565b6000828201838110156103f7576040805162461bcd60e51b815260206004820152601b60248201527f536166654d6174683a206164646974696f6e206f766572666c6f770000000000604482015290519081900360640190fd5b9392505050565b610406610907565b6001600160a01b038216600090815260696020526040812054610429908361039d565b6001600160a01b0384166000818152606960209081526040918290208490558151848152915193945091927ff0393a34d05e6567686ad4e097f9d9d2781565957394f1f0d984e5d8e6378f20929181900390910190a2505050565b6066546001600160a01b031681565b61049b610950565b6001600160a01b03166104ac61053f565b6001600160a01b031614610507576040805162461bcd60e51b815260206004820181905260248201527f4f776e61626c653a2063616c6c6572206973206e6f7420746865206f776e6572604482015290519081900360640190fd5b6033546040516000916001600160a01b031690600080516020610e7d833981519152908390a3603380546001600160a01b0319169055565b6033546001600160a01b031690565b6001600160a01b031660009081526069602052604090205490565b6040518060400160405280600f81526020016e10dbdb1b14dd5c9c1b1d5cd41bdbdb608a1b81525081565b6067546001600160a01b031681565b6105ab610954565b6001600160a01b038116600090815260696020526040902054806106005760405162461bcd60e51b8152600401808060200182810382526031815260200180610dab6031913960400191505060405180910390fd5b6001600160a01b03821660008181526069602090815260408083208390558051928352517ff0393a34d05e6567686ad4e097f9d9d2781565957394f1f0d984e5d8e6378f209281900390910190a260685461065b908261099d565b606855604080516001600160a01b03841681526020810183905281517f3b2482b1bf6e751427503c9a8bf79e4dba3e6519259e2220428c2f326cc79c14929181900390910190a16040516000906001600160a01b0384169083908381818185875af1925050503d80600081146106ed576040519150601f19603f3d011682016040523d82523d6000602084013e6106f2565b606091505b50509050806107325760405162461bcd60e51b8152600401808060200182810382526023815260200180610e2c6023913960400191505060405180910390fd5b505050565b6065546001600160a01b031681565b600054610100900460ff168061075f575061075f6109fa565b8061076d575060005460ff16155b6107a85760405162461bcd60e51b815260040180806020018281038252602e815260200180610e4f602e913960400191505060405180910390fd5b600054610100900460ff161580156107d3576000805460ff1961ff0019909116610100171660011790555b6107db610a0b565b6107e6848484610abd565b80156107f8576000805461ff00191690555b50505050565b60685490565b61080c610950565b6001600160a01b031661081d61053f565b6001600160a01b031614610878576040805162461bcd60e51b815260206004820181905260248201527f4f776e61626c653a2063616c6c6572206973206e6f7420746865206f776e6572604482015290519081900360640190fd5b6001600160a01b0381166108bd5760405162461bcd60e51b8152600401808060200182810382526026815260200180610ddc6026913960400191505060405180910390fd5b6033546040516001600160a01b03808416921690600080516020610e7d83398151915290600090a3603380546001600160a01b0319166001600160a01b0392909216919091179055565b6066546001600160a01b0316331461039b5760405162461bcd60e51b815260040180806020018281038252602b815260200180610ecf602b913960400191505060405180910390fd5b3390565b6065546001600160a01b0316331461039b5760405162461bcd60e51b8152600401808060200182810382526032815260200180610e9d6032913960400191505060405180910390fd5b6000828211156109f4576040805162461bcd60e51b815260206004820152601e60248201527f536166654d6174683a207375627472616374696f6e206f766572666c6f770000604482015290519081900360640190fd5b50900390565b6000610a0530610bc2565b15905090565b600054610100900460ff1680610a245750610a246109fa565b80610a32575060005460ff16155b610a6d5760405162461bcd60e51b815260040180806020018281038252602e815260200180610e4f602e913960400191505060405180910390fd5b600054610100900460ff16158015610a98576000805460ff1961ff0019909116610100171660011790555b610aa0610bc8565b610aa8610c68565b8015610aba576000805461ff00191690555b50565b610ac683610d4f565b610acf82610d4f565b610ad881610d4f565b606580546001600160a01b038086166001600160a01b0319928316811790935560668054868316908416179055606780549185169190921617905560408051918252517f3ca631ffcd2a9b5d9ae18543fc82f58eb4ca33af9e6ab01b7a8e95331e6ed9859181900360200190a1604080516001600160a01b038416815290517f143219c9e69b09e07e095fcc889b43d8f46ca892bba65f08dc3a0050869a56789181900360200190a1604080516001600160a01b038316815290517f78f058b189175430c48dc02699e3a0031ea4ff781536dc2fab847de4babdd8829181900360200190a1505050565b3b151590565b600054610100900460ff1680610be15750610be16109fa565b80610bef575060005460ff16155b610c2a5760405162461bcd60e51b815260040180806020018281038252602e815260200180610e4f602e913960400191505060405180910390fd5b600054610100900460ff16158015610aa8576000805460ff1961ff0019909116610100171660011790558015610aba576000805461ff001916905550565b600054610100900460ff1680610c815750610c816109fa565b80610c8f575060005460ff16155b610cca5760405162461bcd60e51b815260040180806020018281038252602e815260200180610e4f602e913960400191505060405180910390fd5b600054610100900460ff16158015610cf5576000805460ff1961ff0019909116610100171660011790555b6000610cff610950565b603380546001600160a01b0319166001600160a01b03831690811790915560405191925090600090600080516020610e7d833981519152908290a3508015610aba576000805461ff001916905550565b6001600160a01b038116610aba576040805162461bcd60e51b815260206004820152601e60248201527f4163636f756e742063616e6e6f74206265207a65726f20616464726573730000604482015290519081900360640190fdfe436f6c6c537572706c7573506f6f6c3a204e6f20636f6c6c61746572616c20617661696c61626c6520746f20636c61696d4f776e61626c653a206e6577206f776e657220697320746865207a65726f2061646472657373436f6c6c537572706c7573506f6f6c3a2043616c6c6572206973206e6f742041637469766520506f6f6c436f6c6c537572706c7573506f6f6c3a2073656e64696e672046494c206661696c6564496e697469616c697a61626c653a20636f6e747261637420697320616c726561647920696e697469616c697a65648be0079c531659141344cd1fd0a4f28419497f9722a3daafe3b4186f6b6457e0436f6c6c537572706c7573506f6f6c3a2043616c6c6572206973206e6f7420426f72726f776572204f7065726174696f6e73436f6c6c537572706c7573506f6f6c3a2043616c6c6572206973206e6f742054726f76654d616e61676572a2646970667358221220b9bc2eee5c512c1e93c85c48b8b38a8beaba6000eb66dd05818676912ce47d5564736f6c634300070600336080604052680ad78ebc5ac620000060005534801561001d57600080fd5b5061010e8061002d6000396000f3fe6080604052348015600f57600080fd5b5060043610603c5760003560e01c80630fdb11cf14604157806391b7f5ed14605957806398d5fdca146087575b600080fd5b6047608d565b60408051918252519081900360200190f35b607360048036036020811015606d57600080fd5b503560ca565b604080519115158252519081900360200190f35b604760d2565b6000805460408051918252517f4d29de21de555af78a62fc82dd4bc05e9ae5b0660a37f04729527e0f22780cd39181900360200190a15060005490565b600055600190565b6000549056fea2646970667358221220c462043fdfe206646a711e713089268bf492c30d6df9a2c0c3fad72b22d0e8d064736f6c63430007060033608060405234801561001057600080fd5b50611c46806100206000396000f3fe608060405234801561001057600080fd5b50600436106101425760003560e01c8063715018a6116100b8578063b4988fd01161007c578063b4988fd0146103fb578063b72703ac1461042f578063b7f8cf9b14610455578063babd3d9a1461045d578063de8fa43114610465578063f2fde38b1461046d57610142565b8063715018a61461030e57806373d4a13a14610316578063765e0159146103505780638da5cb5b14610376578063a3f4df7e1461037e57610142565b8063416980dc1161010a578063416980dc1461021f57806346f7cf87146102825780634d622831146102be5780635dbe47e8146102c657806363e1d57c146102ec578063681fe70c1461030657610142565b80631e2231431461014757806329092d0e1461016b5780632be21260146101935780633d83908a146101cf5780633fce12d5146101d7575b600080fd5b61014f610493565b604080516001600160a01b039092168252519081900360200190f35b6101916004803603602081101561018157600080fd5b50356001600160a01b03166104a2565b005b610191600480360360808110156101a957600080fd5b506001600160a01b038135811691602081013591604082013581169160600135166104b6565b61014f61056b565b61020b600480360360608110156101ed57600080fd5b508035906001600160a01b036020820135811691604001351661057a565b604080519115158252519081900360200190f35b6102536004803603606081101561023557600080fd5b508035906001600160a01b036020820135811691604001351661059d565b60405180836001600160a01b03168152602001826001600160a01b031681526020019250505060405180910390f35b6101916004803603608081101561029857600080fd5b506001600160a01b038135811691602081013591604082013581169160600135166105c7565b61014f6105dc565b61020b600480360360208110156102dc57600080fd5b50356001600160a01b03166105eb565b6102f4610609565b60408051918252519081900360200190f35b61020b61060f565b610191610616565b61031e6106c2565b604080516001600160a01b03958616815293909416602084015282840191909152606082015290519081900360800190f35b61014f6004803603602081101561036657600080fd5b50356001600160a01b03166106e1565b61014f610704565b610386610713565b6040805160208082528351818301528351919283929083019185019080838360005b838110156103c05781810151838201526020016103a8565b50505050905090810190601f1680156103ed5780820380516001836020036101000a031916815260200191505b509250505060405180910390f35b6101916004803603606081101561041157600080fd5b508035906001600160a01b036020820135811691604001351661073b565b61014f6004803603602081101561044557600080fd5b50356001600160a01b03166107f3565b61014f610814565b61020b610823565b6102f461082d565b6101916004803603602081101561048357600080fd5b50356001600160a01b0316610833565b6067546001600160a01b031690565b6104aa610936565b6104b381610981565b50565b6066546001600160a01b03166104cb81610baf565b6104d4856105eb565b61050f5760405162461bcd60e51b815260040180806020018281038252602a815260200180611af7602a913960400191505060405180910390fd5b6000841161054e5760405162461bcd60e51b8152600401808060200182810382526023815260200180611bee6023913960400191505060405180910390fd5b61055785610981565b6105648186868686610c0b565b5050505050565b6066546001600160a01b031681565b606654600090610595906001600160a01b0316858585610f89565b949350505050565b60665460009081906105ba906001600160a01b031686868661120c565b915091505b935093915050565b6066546001600160a01b031661055781610baf565b6068546001600160a01b031690565b6001600160a01b03166000908152606b602052604090205460ff1690565b60695490565b606a541590565b61061e6113e7565b6001600160a01b031661062f610704565b6001600160a01b03161461068a576040805162461bcd60e51b815260206004820181905260248201527f4f776e61626c653a2063616c6c6572206973206e6f7420746865206f776e6572604482015290519081900360640190fd5b6033546040516000916001600160a01b031690600080516020611ba1833981519152908390a3603380546001600160a01b0319169055565b606754606854606954606a546001600160a01b03938416939092169184565b6001600160a01b039081166000908152606b602052604090205461010090041690565b6033546001600160a01b031690565b6040518060400160405280600c81526020016b536f7274656454726f76657360a01b81525081565b600054610100900460ff168061075457506107546113eb565b80610762575060005460ff16155b61079d5760405162461bcd60e51b815260040180806020018281038252602e815260200180611b73602e913960400191505060405180910390fd5b600054610100900460ff161580156107c8576000805460ff1961ff0019909116610100171660011790555b6107d06113fc565b6107db8484846114ad565b80156107ed576000805461ff00191690555b50505050565b6001600160a01b039081166000908152606b60205260409020600101541690565b6065546001600160a01b031681565b606954606a541490565b606a5490565b61083b6113e7565b6001600160a01b031661084c610704565b6001600160a01b0316146108a7576040805162461bcd60e51b815260206004820181905260248201527f4f776e61626c653a2063616c6c6572206973206e6f7420746865206f776e6572604482015290519081900360640190fd5b6001600160a01b0381166108ec5760405162461bcd60e51b8152600401808060200182810382526026815260200180611b216026913960400191505060405180910390fd5b6033546040516001600160a01b03808416921690600080516020611ba183398151915290600090a3603380546001600160a01b0319166001600160a01b0392909216919091179055565b6066546001600160a01b0316331461097f5760405162461bcd60e51b815260040180806020018281038252602c815260200180611b47602c913960400191505060405180910390fd5b565b61098a816105eb565b6109c55760405162461bcd60e51b815260040180806020018281038252602a815260200180611af7602a913960400191505060405180910390fd5b606a5460011015610b0b576067546001600160a01b0382811691161415610a34576001600160a01b038181166000908152606b6020526040808220546067805461010090920485166001600160a01b031992831617908190559093168252902060010180549091169055610b06565b6068546001600160a01b0382811691161415610a9b576001600160a01b038082166000908152606b602052604080822060010154606880546001600160a01b03191691851691909117908190559092168152208054610100600160a81b0319169055610b06565b6001600160a01b038082166000908152606b60205260408082208054600180830180548716865284862080546101009485900489168502610100600160a81b03199091161790555492549190910485168452919092200180546001600160a01b031916919092161790555b610b28565b606780546001600160a01b03199081169091556068805490911690555b6001600160a01b0381166000908152606b6020526040902080546001600160a81b0319168155600190810180546001600160a01b0319169055606a54610b6d916115ba565b606a55604080516001600160a01b038316815290517fcfc24166db4bb677e857cacabd1541fb2b30645021b27c5130419589b84db52b9181900360200190a150565b6065546001600160a01b0316331480610bd05750336001600160a01b038216145b6104b35760405162461bcd60e51b815260040180806020018281038252602d815260200180611bc1602d913960400191505060405180910390fd5b610c13610823565b15610c65576040805162461bcd60e51b815260206004820152601a60248201527f536f7274656454726f7665733a204c6973742069732066756c6c000000000000604482015290519081900360640190fd5b610c6e846105eb565b15610caa5760405162461bcd60e51b815260040180806020018281038252602c815260200180611acb602c913960400191505060405180910390fd5b6001600160a01b038416610d05576040805162461bcd60e51b815260206004820152601f60248201527f536f7274656454726f7665733a2049642063616e6e6f74206265207a65726f00604482015290519081900360640190fd5b60008311610d445760405162461bcd60e51b8152600401808060200182810382526023815260200180611bee6023913960400191505060405180910390fd5b8181610d5287868484610f89565b610d6857610d628786848461120c565b90925090505b6001600160a01b038087166000908152606b60205260409020805460ff191660011790558216158015610da257506001600160a01b038116155b15610dd757606780546001600160a01b0388166001600160a01b03199182168117909255606880549091169091179055610f2b565b6001600160a01b038216610e4b57606780546001600160a01b038881166000818152606b6020526040808220805495851661010002610100600160a81b0319909616959095179094558454909216825291902060010180546001600160a01b03199081168317909155825416179055610f2b565b6001600160a01b038116610ebb57606880546001600160a01b038881166000818152606b602052604080822060010180549585166001600160a01b031996871617905585549093168152919091208054610100600160a81b03191661010083021790558254909116179055610f2b565b6001600160a01b038087166000818152606b60205260408082208054858716610100818102610100600160a81b031993841617845560019384018054988b166001600160a01b0319998a168117909155865284862080549188029190931617909155835291200180549092161790555b606a54610f39906001611617565b606a55604080516001600160a01b03881681526020810187905281517fe02b43adbee0c123de070a04554a71877a0007e2fc161466299cae3c094fe82f929181900390910190a150505050505050565b60006001600160a01b038316158015610fa957506001600160a01b038216155b15610fbd57610fb661060f565b9050610595565b6001600160a01b038316611066576067546001600160a01b038381169116148015610fb65750846001600160a01b031663b0d8e181836040518263ffffffff1660e01b815260040180826001600160a01b0316815260200191505060206040518083038186803b15801561103057600080fd5b505afa158015611044573d6000803e3d6000fd5b505050506040513d602081101561105a57600080fd5b50518410159050610595565b6001600160a01b03821661110f576068546001600160a01b038481169116148015610fb65750846001600160a01b031663b0d8e181846040518263ffffffff1660e01b815260040180826001600160a01b0316815260200191505060206040518083038186803b1580156110d957600080fd5b505afa1580156110ed573d6000803e3d6000fd5b505050506040513d602081101561110357600080fd5b50518411159050610595565b6001600160a01b038381166000908152606b6020526040902054610100900481169083161480156111b8575083856001600160a01b031663b0d8e181856040518263ffffffff1660e01b815260040180826001600160a01b0316815260200191505060206040518083038186803b15801561118957600080fd5b505afa15801561119d573d6000803e3d6000fd5b505050506040513d60208110156111b357600080fd5b505110155b8015610fb65750846001600160a01b031663b0d8e181836040518263ffffffff1660e01b815260040180826001600160a01b0316815260200191505060206040518083038186803b15801561103057600080fd5b60008083836001600160a01b038216156112b657611229826105eb565b15806112ac5750876001600160a01b031663b0d8e181836040518263ffffffff1660e01b815260040180826001600160a01b0316815260200191505060206040518083038186803b15801561127d57600080fd5b505afa158015611291573d6000803e3d6000fd5b505050506040513d60208110156112a757600080fd5b505187115b156112b657600091505b6001600160a01b0381161561135a576112ce816105eb565b15806113515750876001600160a01b031663b0d8e181826040518263ffffffff1660e01b815260040180826001600160a01b0316815260200191505060206040518083038186803b15801561132257600080fd5b505afa158015611336573d6000803e3d6000fd5b505050506040513d602081101561134c57600080fd5b505187105b1561135a575060005b6001600160a01b03821615801561137857506001600160a01b038116155b156113a15760675461139690899089906001600160a01b0316611678565b9350935050506113de565b6001600160a01b0382166113ba576113968888836117b0565b6001600160a01b0381166113d357611396888884611678565b611396888884611678565b94509492505050565b3390565b60006113f6306118e2565b15905090565b600054610100900460ff168061141557506114156113eb565b80611423575060005460ff16155b61145e5760405162461bcd60e51b815260040180806020018281038252602e815260200180611b73602e913960400191505060405180910390fd5b600054610100900460ff16158015611489576000805460ff1961ff0019909116610100171660011790555b6114916118e8565b611499611988565b80156104b3576000805461ff001916905550565b60008311611502576040805162461bcd60e51b815260206004820181905260248201527f536f7274656454726f7665733a2053697a652063616e2774206265207a65726f604482015290519081900360640190fd5b61150b82611a6f565b61151481611a6f565b6069839055606680546001600160a01b038085166001600160a01b03199283168117909355606580549185169190921617905560408051918252517f143219c9e69b09e07e095fcc889b43d8f46ca892bba65f08dc3a0050869a56789181900360200190a1604080516001600160a01b038316815290517f3ca631ffcd2a9b5d9ae18543fc82f58eb4ca33af9e6ab01b7a8e95331e6ed9859181900360200190a1505050565b600082821115611611576040805162461bcd60e51b815260206004820152601e60248201527f536166654d6174683a207375627472616374696f6e206f766572666c6f770000604482015290519081900360640190fd5b50900390565b600082820183811015611671576040805162461bcd60e51b815260206004820152601b60248201527f536166654d6174683a206164646974696f6e206f766572666c6f770000000000604482015290519081900360640190fd5b9392505050565b60675460009081906001600160a01b0384811691161480156117125750846001600160a01b031663b0d8e181846040518263ffffffff1660e01b815260040180826001600160a01b0316815260200191505060206040518083038186803b1580156116e257600080fd5b505afa1580156116f6573d6000803e3d6000fd5b505050506040513d602081101561170c57600080fd5b50518410155b15611722575060009050816105bf565b6001600160a01b038084166000908152606b60205260409020548491610100909104165b6001600160a01b03821615801590611767575061176587878484610f89565b155b156117a457506001600160a01b039081166000908152606b6020526040808220546101009081900484168084529190922054909291900416611746565b90969095509350505050565b60685460009081906001600160a01b03848116911614801561184a5750846001600160a01b031663b0d8e181846040518263ffffffff1660e01b815260040180826001600160a01b0316815260200191505060206040518083038186803b15801561181a57600080fd5b505afa15801561182e573d6000803e3d6000fd5b505050506040513d602081101561184457600080fd5b50518411155b1561185a575081905060006105bf565b6001600160a01b038084166000908152606b60205260409020600101548491165b6001600160a01b0382161580159061189c575061189a87878385610f89565b155b156118d757506001600160a01b039081166000908152606b60205260408082206001908101548416808452919092209091015490911661187b565b969095509350505050565b3b151590565b600054610100900460ff168061190157506119016113eb565b8061190f575060005460ff16155b61194a5760405162461bcd60e51b815260040180806020018281038252602e815260200180611b73602e913960400191505060405180910390fd5b600054610100900460ff16158015611499576000805460ff1961ff00199091166101001716600117905580156104b3576000805461ff001916905550565b600054610100900460ff16806119a157506119a16113eb565b806119af575060005460ff16155b6119ea5760405162461bcd60e51b815260040180806020018281038252602e815260200180611b73602e913960400191505060405180910390fd5b600054610100900460ff16158015611a15576000805460ff1961ff0019909116610100171660011790555b6000611a1f6113e7565b603380546001600160a01b0319166001600160a01b03831690811790915560405191925090600090600080516020611ba1833981519152908290a35080156104b3576000805461ff001916905550565b6001600160a01b0381166104b3576040805162461bcd60e51b815260206004820152601e60248201527f4163636f756e742063616e6e6f74206265207a65726f20616464726573730000604482015290519081900360640190fdfe536f7274656454726f7665733a204c69737420616c726561647920636f6e7461696e7320746865206e6f6465536f7274656454726f7665733a204c69737420646f6573206e6f7420636f6e7461696e207468652069644f776e61626c653a206e6577206f776e657220697320746865207a65726f2061646472657373536f7274656454726f7665733a2043616c6c6572206973206e6f74207468652054726f76654d616e61676572496e697469616c697a61626c653a20636f6e747261637420697320616c726561647920696e697469616c697a65648be0079c531659141344cd1fd0a4f28419497f9722a3daafe3b4186f6b6457e0536f7274656454726f7665733a2043616c6c6572206973206e65697468657220424f206e6f722054726f76654d536f7274656454726f7665733a204e494352206d75737420626520706f736974697665a2646970667358221220513b4d3f3a36e18aa823377ac20a98a63cfec8cde520c2982f7cc69ccb7f507f64736f6c63430007060033608060405234801561001057600080fd5b50611e3d806100206000396000f3fe608060405234801561001057600080fd5b506004361061018f5760003560e01c8063715018a6116100e4578063a9059cbb11610092578063a9059cbb1461050d578063aa7cd8a014610539578063cb25bdde14610565578063d505accf1461056d578063dd62ed3e146105be578063f1b9946f146105ec578063f2fde38b14610609578063f698da251461062f5761018f565b8063715018a6146104a157806372fe25aa146104a95780637ecebe00146104b15780638da5cb5b146104d757806395d89b41146102b95780639bd89ffd146104df578063a57cb58a146104e75761018f565b806323b872dd1161014157806323b872dd146103eb5780632b5ba98e146104215780632ff5f14414610429578063313ce5671461044d57806354fd4d501461046b57806357aae46b1461047357806370a082311461047b5761018f565b806306f8f0b71461019457806306fdde03146102b9578063095ea7b31461033657806310ce43bd146103765780631593fb93146103905780631794bb3c146103ad57806318160ddd146103e3575b600080fd5b6102b7600480360360408110156101aa57600080fd5b810190602081018135600160201b8111156101c457600080fd5b8201836020820111156101d657600080fd5b803590602001918460208302840111600160201b831117156101f757600080fd5b9190808060200260200160405190810160405280939291908181526020018383602002808284376000920191909152509295949360208101935035915050600160201b81111561024657600080fd5b82018360208201111561025857600080fd5b803590602001918460208302840111600160201b8311171561027957600080fd5b919080806020026020016040519081016040528093929190818152602001838360200280828437600092019190915250929550610637945050505050565b005b6102c16107af565b6040805160208082528351818301528351919283929083019185019080838360005b838110156102fb5781810151838201526020016102e3565b50505050905090810190601f1680156103285780820380516001836020036101000a031916815260200191505b509250505060405180910390f35b6103626004803603604081101561034c57600080fd5b506001600160a01b0381351690602001356107cd565b604080519115158252519081900360200190f35b61037e6107e4565b60408051918252519081900360200190f35b610362600480360360208110156103a657600080fd5b5035610808565b6102b7600480360360608110156103c357600080fd5b506001600160a01b0381358116916020810135909116906040013561081d565b61037e6108e5565b6103626004803603606081101561040157600080fd5b506001600160a01b038135811691602081013590911690604001356108eb565b61037e61095d565b610431610963565b604080516001600160a01b039092168252519081900360200190f35b610455610972565b6040805160ff9092168252519081900360200190f35b6102c1610977565b610431610992565b61037e6004803603602081101561049157600080fd5b50356001600160a01b03166109a1565b6102b76109bc565b61037e610a56565b61037e600480360360208110156104c757600080fd5b50356001600160a01b0316610a62565b610431610a7d565b61037e610a8c565b6102b7600480360360208110156104fd57600080fd5b50356001600160a01b0316610a92565b6103626004803603604081101561052357600080fd5b506001600160a01b038135169060200135610b00565b6102b76004803603604081101561054f57600080fd5b506001600160a01b038135169060200135610b16565b6102b7610b3a565b6102b7600480360360e081101561058357600080fd5b506001600160a01b03813581169160208101359091169060408101359060608101359060ff6080820135169060a08101359060c00135610c30565b61037e600480360360408110156105d457600080fd5b506001600160a01b0381358116916020013516610e32565b6102b76004803603602081101561060257600080fd5b5035610e5d565b6102b76004803603602081101561061f57600080fd5b50356001600160a01b0316610ec8565b61037e610fb9565b61063f61100e565b6001600160a01b0316610650610a7d565b6001600160a01b031614610699576040805162461bcd60e51b81526020600482018190526024820152600080516020611d02833981519152604482015290519081900360640190fd5b606754156106ee576040805162461bcd60e51b815260206004820181905260248201527f50726f746f636f6c546f6b656e3a20616c726561647920616c6c6f6361746564604482015290519081900360640190fd5b805182511461072e5760405162461bcd60e51b8152600401808060200182810382526033815260200180611ac86033913960400191505060405180910390fd5b42606d55600080805260706020527f29272c5198ac4c1c7fb0303943f851de04a43367f02c26a44994c42c27db24b5805460ff191660011790555b82518110156107aa576107a283828151811061078157fe5b602002602001015183838151811061079557fe5b6020026020010151611012565b600101610769565b505050565b60408051808201909152600381526253464360e81b60208201525b90565b60006107da3384846110f8565b5060015b92915050565b7f6e71edae12b1b97f4d1f60370fef10105fa2faae0126114a169c64845d6126c990565b60706020526000908152604090205460ff1681565b600054610100900460ff168061083657506108366111e4565b80610844575060005460ff16155b61087f5760405162461bcd60e51b815260040180806020018281038252602e815260200180611c45602e913960400191505060405180910390fd5b600054610100900460ff161580156108aa576000805460ff1961ff0019909116610100171660011790555b6108b26111f5565b6108bb846112a6565b6108c483611382565b6108cd826113d6565b80156108df576000805461ff00191690555b50505050565b60675490565b60006108f683611458565b610901848484611501565b610953843361094e85604051806060016040528060288152602001611cda602891396001600160a01b038a1660009081526066602090815260408083203384529091529020549190611653565b6110f8565b5060019392505050565b606d5490565b606f546001600160a01b031681565b601290565b6040805180820190915260018152603160f81b602082015290565b6071546001600160a01b031681565b6001600160a01b031660009081526065602052604090205490565b6109c461100e565b6001600160a01b03166109d5610a7d565b6001600160a01b031614610a1e576040805162461bcd60e51b81526020600482018190526024820152600080516020611d02833981519152604482015290519081900360640190fd5b6033546040516000916001600160a01b031690600080516020611d22833981519152908390a3603380546001600160a01b0319169055565b670de0b6b3a764000081565b6001600160a01b03166000908152606c602052604090205490565b6033546001600160a01b031690565b606e5481565b610a9a61100e565b6001600160a01b0316610aab610a7d565b6001600160a01b031614610af4576040805162461bcd60e51b81526020600482018190526024820152600080516020611d02833981519152604482015290519081900360640190fd5b610afd81611382565b50565b6000610b0b83611458565b6107da338484611501565b610b1e6116ea565b607154610b369083906001600160a01b031683611501565b5050565b606754610b785760405162461bcd60e51b8152600401808060200182810382526037815260200180611c0e6037913960400191505060405180910390fd5b60006301e13380606d54420381610b8b57fe5b0460008181526070602052604090205490915060ff1615610bdd5760405162461bcd60e51b8152600401808060200182810382526035815260200180611d8b6035913960400191505060405180910390fd5b6000818152607060205260409020805460ff19166001179055606f54606e54606754610afd926001600160a01b031691610c2b91670de0b6b3a764000091610c259190611735565b90611795565b611012565b42841015610c85576040805162461bcd60e51b815260206004820152601f60248201527f50726f746f636f6c546f6b656e3a206578706972656420646561646c696e6500604482015290519081900360640190fd5b6000610c8f610fb9565b6001600160a01b03808a166000818152606c602090815260408083208054600180820190925582517f6e71edae12b1b97f4d1f60370fef10105fa2faae0126114a169c64845d6126c98186015280840196909652958e166060860152608085018d905260a085019590955260c08085018c90528151808603909101815260e08501825280519083012061190160f01b6101008601526101028501969096526101228085019690965280518085039096018652610142840180825286519683019690962095839052610162840180825286905260ff8a166101828501526101a284018990526101c284018890525194955090936101e280840193601f198301929081900390910190855afa158015610daa573d6000803e3d6000fd5b505050602060405103519050886001600160a01b0316816001600160a01b031614610e1c576040805162461bcd60e51b815260206004820181905260248201527f50726f746f636f6c546f6b656e3a20696e76616c6964207369676e6174757265604482015290519081900360640190fd5b610e278989896110f8565b505050505050505050565b6001600160a01b03918216600090815260666020908152604080832093909416825291909152205490565b610e6561100e565b6001600160a01b0316610e76610a7d565b6001600160a01b031614610ebf576040805162461bcd60e51b81526020600482018190526024820152600080516020611d02833981519152604482015290519081900360640190fd5b610afd816113d6565b610ed061100e565b6001600160a01b0316610ee1610a7d565b6001600160a01b031614610f2a576040805162461bcd60e51b81526020600482018190526024820152600080516020611d02833981519152604482015290519081900360640190fd5b6001600160a01b038116610f6f5760405162461bcd60e51b8152600401808060200182810382526026815260200180611b3a6026913960400191505060405180910390fd5b6033546040516001600160a01b03808416921690600080516020611d2283398151915290600090a3603380546001600160a01b0319166001600160a01b0392909216919091179055565b6000606954610fc66117fc565b1415610fd557506068546107ca565b6110077f8b73c3c69bb8fe3d512ecc4cf759cc79239f7b179b0ffacaa9a75d522b39400f60001b606a54606b54611800565b90506107ca565b3390565b6001600160a01b03821661106d576040805162461bcd60e51b815260206004820152601f60248201527f45524332303a206d696e7420746f20746865207a65726f206164647265737300604482015290519081900360640190fd5b60675461107a9082611862565b6067556001600160a01b0382166000908152606560205260409020546110a09082611862565b6001600160a01b03831660008181526065602090815260408083209490945583518581529351929391927fddf252ad1be2c89b69c2b068fc378daa952ba7f163c4a11628f55a4df523b3ef9281900390910190a35050565b6001600160a01b03831661113d5760405162461bcd60e51b8152600401808060200182810382526024815260200180611d676024913960400191505060405180910390fd5b6001600160a01b0382166111825760405162461bcd60e51b8152600401808060200182810382526022815260200180611b606022913960400191505060405180910390fd5b6001600160a01b03808416600081815260666020908152604080832094871680845294825291829020859055815185815291517f8c5be1e5ebec7d5bd14f71427d1e84f3dd0314c0f7b2291e5b200ac8c7c3b9259281900390910190a3505050565b60006111ef306118bc565b15905090565b600054610100900460ff168061120e575061120e6111e4565b8061121c575060005460ff16155b6112575760405162461bcd60e51b815260040180806020018281038252602e815260200180611c45602e913960400191505060405180910390fd5b600054610100900460ff16158015611282576000805460ff1961ff0019909116610100171660011790555b61128a6118c2565b611292611962565b8015610afd576000805461ff001916905550565b6112af81611a49565b607180546001600160a01b0319166001600160a01b038316179055604080518082018252600381526253464360e81b602091820152815180830190925260018252603160f81b9101527ffdbac868854e66ae830dcbbfff9424981b1b055c95011305ab74d560c1306c8e606a8190557fc89efdaa54c0f20c7adf612882df0950f5a951637e0307cdcb4c672f298b8bc6606b81905561134c6117fc565b60695561137a7f8b73c3c69bb8fe3d512ecc4cf759cc79239f7b179b0ffacaa9a75d522b39400f8383611800565b606855505050565b606f80546001600160a01b0383166001600160a01b0319909116811790915560408051918252517f4e1c23feccc9d2af17a26ec57d6eb5a8a1344edd8b54d19ada8b350398dc651a9181900360200190a150565b670de0b6b3a764000081111561141d5760405162461bcd60e51b8152600401808060200182810382526048815260200180611dc06048913960600191505060405180910390fd5b606e8190556040805182815290517fe6b1ccfa0a4b982d2c0f261ab9c9bd4087e2f228140fa0b5dc315c2b10b6a8fb9181900360200190a150565b6001600160a01b0381161580159061147957506001600160a01b0381163014155b6114b45760405162461bcd60e51b8152600401808060200182810382526066815260200180611b826066913960800191505060405180910390fd5b6071546001600160a01b0382811691161415610afd5760405162461bcd60e51b8152600401808060200182810382526046815260200180611c736046913960600191505060405180910390fd5b6001600160a01b0383166115465760405162461bcd60e51b8152600401808060200182810382526025815260200180611d426025913960400191505060405180910390fd5b6001600160a01b03821661158b5760405162461bcd60e51b8152600401808060200182810382526023815260200180611aa56023913960400191505060405180910390fd5b6115c881604051806060016040528060268152602001611be8602691396001600160a01b0386166000908152606560205260409020549190611653565b6001600160a01b0380851660009081526065602052604080822093909355908416815220546115f79082611862565b6001600160a01b0380841660008181526065602090815260409182902094909455805185815290519193928716927fddf252ad1be2c89b69c2b068fc378daa952ba7f163c4a11628f55a4df523b3ef92918290030190a3505050565b600081848411156116e25760405162461bcd60e51b81526004018080602001828103825283818151815260200191508051906020019080838360005b838110156116a757818101518382015260200161168f565b50505050905090810190601f1680156116d45780820380516001836020036101000a031916815260200191505b509250505060405180910390fd5b505050900390565b6071546001600160a01b031633146117335760405162461bcd60e51b815260040180806020018281038252603f815260200180611afb603f913960400191505060405180910390fd5b565b600082611744575060006107de565b8282028284828161175157fe5b041461178e5760405162461bcd60e51b8152600401808060200182810382526021815260200180611cb96021913960400191505060405180910390fd5b9392505050565b60008082116117eb576040805162461bcd60e51b815260206004820152601a60248201527f536166654d6174683a206469766973696f6e206279207a65726f000000000000604482015290519081900360640190fd5b8183816117f457fe5b049392505050565b4690565b600083838361180d6117fc565b3060405160200180868152602001858152602001848152602001838152602001826001600160a01b03168152602001955050505050506040516020818303038152906040528051906020012090509392505050565b60008282018381101561178e576040805162461bcd60e51b815260206004820152601b60248201527f536166654d6174683a206164646974696f6e206f766572666c6f770000000000604482015290519081900360640190fd5b3b151590565b600054610100900460ff16806118db57506118db6111e4565b806118e9575060005460ff16155b6119245760405162461bcd60e51b815260040180806020018281038252602e815260200180611c45602e913960400191505060405180910390fd5b600054610100900460ff16158015611292576000805460ff1961ff0019909116610100171660011790558015610afd576000805461ff001916905550565b600054610100900460ff168061197b575061197b6111e4565b80611989575060005460ff16155b6119c45760405162461bcd60e51b815260040180806020018281038252602e815260200180611c45602e913960400191505060405180910390fd5b600054610100900460ff161580156119ef576000805460ff1961ff0019909116610100171660011790555b60006119f961100e565b603380546001600160a01b0319166001600160a01b03831690811790915560405191925090600090600080516020611d22833981519152908290a3508015610afd576000805461ff001916905550565b6001600160a01b038116610afd576040805162461bcd60e51b815260206004820152601e60248201527f4163636f756e742063616e6e6f74206265207a65726f20616464726573730000604482015290519081900360640190fdfe45524332303a207472616e7366657220746f20746865207a65726f206164647265737350726f746f636f6c546f6b656e3a206163636f756e747320616e6420616d6f756e7473206c656e677468206d69736d6174636850726f746f636f6c546f6b656e3a2063616c6c6572206d757374206265207468652050726f746f636f6c546f6b656e5374616b696e6720636f6e74726163744f776e61626c653a206e6577206f776e657220697320746865207a65726f206164647265737345524332303a20617070726f766520746f20746865207a65726f206164647265737350726f746f636f6c546f6b656e3a2043616e6e6f74207472616e7366657220746f6b656e73206469726563746c7920746f207468652050726f746f636f6c546f6b656e20746f6b656e20636f6e7472616374206f7220746865207a65726f206164647265737345524332303a207472616e7366657220616d6f756e7420657863656564732062616c616e636550726f746f636f6c546f6b656e3a20696e697469616c20616c6c6f636174696f6e20686173206e6f74206265656e20646f6e6520796574496e697469616c697a61626c653a20636f6e747261637420697320616c726561647920696e697469616c697a656450726f746f636f6c546f6b656e3a2043616e6e6f74207472616e7366657220746f6b656e73206469726563746c7920746f20746865207374616b696e6720636f6e7472616374536166654d6174683a206d756c7469706c69636174696f6e206f766572666c6f7745524332303a207472616e7366657220616d6f756e74206578636565647320616c6c6f77616e63654f776e61626c653a2063616c6c6572206973206e6f7420746865206f776e65728be0079c531659141344cd1fd0a4f28419497f9722a3daafe3b4186f6b6457e045524332303a207472616e736665722066726f6d20746865207a65726f206164647265737345524332303a20617070726f76652066726f6d20746865207a65726f206164647265737350726f746f636f6c546f6b656e3a20616e6e75616c20616c6c6f636174696f6e206973206e6f742079657420617661696c61626c6550726f746f636f6c546f6b656e3a20616e6e75616c20616c6c6f636174696f6e2072617465206d757374206265206c657373207468616e206f7220657175616c20746f2031303025a26469706673582212205e7d67dd729ae0c4aec7530bab4a11344f8e03157be01c982f0565afb9a9fc3664736f6c63430007060033608060405234801561001057600080fd5b50611d96806100206000396000f3fe6080604052600436106101655760003560e01c80637415fa18116100c1578063b08bc7221161007a578063b08bc722146104a6578063b1955ad2146104bb578063b6a233e5146104e5578063b7f8cf9b146104fa578063c91d2d381461050f578063f2fde38b14610539578063f8d898981461056c57610174565b80637415fa181461039e5780638da538a3146103b35780638da5cb5b146103c8578063a20baee6146103dd578063a3f4df7e146103f2578063a694fc3a1461047c57610174565b80632e17de781161011e5780632e17de78146102a157806334b3081f146102cb5780633cd27e671461031757806346b3252f1461034a5780634d60d8ae1461035f5780635a4d28bb14610374578063715018a61461038957610174565b80630b22ac32146101795780631459457a1461018e57806316934fc4146101e357806317f175dc146102285780631a14971b1461025b5780631a465fe11461027057610174565b3661017457610172610581565b005b600080fd5b34801561018557600080fd5b506101726105cc565b34801561019a57600080fd5b50610172600480360360a08110156101b157600080fd5b506001600160a01b038135811691602081013582169160408201358116916060810135821691608090910135166106f0565b3480156101ef57600080fd5b506102166004803603602081101561020657600080fd5b50356001600160a01b03166107b4565b60408051918252519081900360200190f35b34801561023457600080fd5b506102166004803603602081101561024b57600080fd5b50356001600160a01b03166107c6565b34801561026757600080fd5b506102166107d7565b34801561027c57600080fd5b506102856107dd565b604080516001600160a01b039092168252519081900360200190f35b3480156102ad57600080fd5b50610172600480360360208110156102c457600080fd5b50356107ec565b3480156102d757600080fd5b506102fe600480360360208110156102ee57600080fd5b50356001600160a01b0316610a86565b6040805192835260208301919091528051918290030190f35b34801561032357600080fd5b506102166004803603602081101561033a57600080fd5b50356001600160a01b0316610a9f565b34801561035657600080fd5b50610216610aaa565b34801561036b57600080fd5b50610172610ab0565b34801561038057600080fd5b50610285610b5d565b34801561039557600080fd5b50610172610b6c565b3480156103aa57600080fd5b50610216610c06565b3480156103bf57600080fd5b50610216610c0c565b3480156103d457600080fd5b50610285610c12565b3480156103e957600080fd5b50610216610c21565b3480156103fe57600080fd5b50610407610c2d565b6040805160208082528351818301528351919283929083019185019080838360005b83811015610441578181015183820152602001610429565b50505050905090810190601f16801561046e5780820380516001836020036101000a031916815260200191505b509250505060405180910390f35b34801561048857600080fd5b506101726004803603602081101561049f57600080fd5b5035610c5d565b3480156104b257600080fd5b50610285610ed7565b3480156104c757600080fd5b50610172600480360360208110156104de57600080fd5b5035610ee6565b3480156104f157600080fd5b50610216610fac565b34801561050657600080fd5b50610285610fb2565b34801561051b57600080fd5b506101726004803603602081101561053257600080fd5b5035610fc1565b34801561054557600080fd5b506101726004803603602081101561055c57600080fd5b50356001600160a01b0316611081565b34801561057857600080fd5b50610285611172565b60a2546001600160a01b031633146105ca5760405162461bcd60e51b815260040180806020018281038252602e815260200180611be9602e913960400191505060405180910390fd5b565b6105d4611181565b6001600160a01b03166105e5610c12565b6001600160a01b03161461062e576040805162461bcd60e51b81526020600482018190526024820152600080516020611cbd833981519152604482015290519081900360640190fd5b609c8054600091829055604080519283525190917f357f366c64266f8e9a39eb163073d5136a4abc71ac12f8ec7c84faf498e7f8b8919081900360200190a1609f546040805163a9059cbb60e01b81523360048201526024810184905290516001600160a01b039092169163a9059cbb916044808201926020929091908290030181600087803b1580156106c157600080fd5b505af11580156106d5573d6000803e3d6000fd5b505050506040513d60208110156106eb57600080fd5b505050565b600054610100900460ff16806107095750610709611185565b80610717575060005460ff16155b6107525760405162461bcd60e51b815260040180806020018281038252602e815260200180611c6e602e913960400191505060405180910390fd5b600054610100900460ff1615801561077d576000805460ff1961ff0019909116610100171660011790555b610785611196565b61078d611247565b61079a86868686866112dc565b80156107ac576000805461ff00191690555b505050505050565b60976020526000908152604090205481565b60006107d182611487565b92915050565b609a5481565b609e546001600160a01b031681565b60026065541415610844576040805162461bcd60e51b815260206004820152601f60248201527f5265656e7472616e637947756172643a207265656e7472616e742063616c6c00604482015290519081900360640190fd5b600260655533600090815260976020526040902054610862816114eb565b600061086d3361152a565b9050600061087a33611487565b905061088533611564565b83156109b757600061089785856115d6565b905060006108a585836115ee565b3360009081526097602052604090208190556098549091506108c790836115ee565b609881905560408051918252517fc4ca4e3d2fd1965e6d42d851e766d5b9a64dd0a8a670a1516843a0217757fa5d9181900360200190a1609e546040805163a9059cbb60e01b81523360048201526024810185905290516001600160a01b039092169163a9059cbb916044808201926020929091908290030181600087803b15801561095257600080fd5b505af1158015610966573d6000803e3d6000fd5b505050506040513d602081101561097c57600080fd5b505060408051828152905133917f39df0e5286a3ef2f42a0bf52f32cfe2c58e5b0405f47fe512f2c2439e4cfe204919081900360200190a250505b6040805182815260208101849052815133927ff744d34ca1cb25acfa4180df5f09a67306107110a9f4b6ed99bb3be259738215928290030190a2609f546040805163a9059cbb60e01b81523360048201526024810184905290516001600160a01b039092169163a9059cbb916044808201926020929091908290030181600087803b158015610a4557600080fd5b505af1158015610a59573d6000803e3d6000fd5b505050506040513d6020811015610a6f57600080fd5b50610a7b90508261164b565b505060016065555050565b609d602052600090815260409020805460019091015482565b60006107d18261152a565b609c5481565b610ab8611181565b6001600160a01b0316610ac9610c12565b6001600160a01b031614610b12576040805162461bcd60e51b81526020600482018190526024820152600080516020611cbd833981519152604482015290519081900360640190fd5b609b8054600091829055604080519283525190917f3c166cb25f40715a54c3d9ecdd3e27617e07cba29c3f98fdbb105f4445252d13919081900360200190a1610b5a8161164b565b50565b60a0546001600160a01b031681565b610b74611181565b6001600160a01b0316610b85610c12565b6001600160a01b031614610bce576040805162461bcd60e51b81526020600482018190526024820152600080516020611cbd833981519152604482015290519081900360640190fd5b6033546040516000916001600160a01b031690600080516020611cdd833981519152908390a3603380546001600160a01b0319169055565b60995481565b60985481565b6033546001600160a01b031690565b670de0b6b3a764000081565b6040518060400160405280601481526020017350726f746f636f6c546f6b656e5374616b696e6760601b81525081565b60026065541415610cb5576040805162461bcd60e51b815260206004820152601f60248201527f5265656e7472616e637947756172643a207265656e7472616e742063616c6c00604482015290519081900360640190fd5b6002606555610cc381611711565b3360009081526097602052604081205490808215610cf257610ce43361152a565b9150610cef33611487565b90505b610cfb33611564565b6000610d078486611750565b336000908152609760205260409020819055609854909150610d299086611750565b609881905560408051918252517fc4ca4e3d2fd1965e6d42d851e766d5b9a64dd0a8a670a1516843a0217757fa5d9181900360200190a1609e5460408051630553e6c560e51b81523360048201526024810188905290516001600160a01b039092169163aa7cd8a09160448082019260009290919082900301818387803b158015610db357600080fd5b505af1158015610dc7573d6000803e3d6000fd5b50506040805184815290513393507f39df0e5286a3ef2f42a0bf52f32cfe2c58e5b0405f47fe512f2c2439e4cfe20492509081900360200190a26040805183815260208101859052815133927ff744d34ca1cb25acfa4180df5f09a67306107110a9f4b6ed99bb3be259738215928290030190a28315610ecb57609f546040805163a9059cbb60e01b81523360048201526024810185905290516001600160a01b039092169163a9059cbb916044808201926020929091908290030181600087803b158015610e9557600080fd5b505af1158015610ea9573d6000803e3d6000fd5b505050506040513d6020811015610ebf57600080fd5b50610ecb90508361164b565b50506001606555505050565b60a2546001600160a01b031681565b610eee6117aa565b60985415610f6557609854600090610f1890610f1284670de0b6b3a76400006117f3565b9061184c565b609a54909150610f289082611750565b609a81905560408051918252517fd35d18f1d1506f94dd33c043c612cce724e9e52b5924bdf2b19d62ddfe26513b9181900360200190a150610b5a565b609c54610f729082611750565b609c81905560408051918252517f357f366c64266f8e9a39eb163073d5136a4abc71ac12f8ec7c84faf498e7f8b89181900360200190a150565b609b5481565b60a1546001600160a01b031681565b610fc96118b3565b6098541561103a57609854600090610fed90610f1284670de0b6b3a76400006117f3565b609954909150610ffd9082611750565b609981905560408051918252517febf7d091f46f1a9713f83361f4b7bdfc07a53d3e0b8582025f6318db750e8b9f9181900360200190a150610b5a565b609b546110479082611750565b609b81905560408051918252517f3c166cb25f40715a54c3d9ecdd3e27617e07cba29c3f98fdbb105f4445252d139181900360200190a150565b611089611181565b6001600160a01b031661109a610c12565b6001600160a01b0316146110e3576040805162461bcd60e51b81526020600482018190526024820152600080516020611cbd833981519152604482015290519081900360640190fd5b6001600160a01b0381166111285760405162461bcd60e51b8152600401808060200182810382526026815260200180611bc36026913960400191505060405180910390fd5b6033546040516001600160a01b03808416921690600080516020611cdd83398151915290600090a3603380546001600160a01b0319166001600160a01b0392909216919091179055565b609f546001600160a01b031681565b3390565b6000611190306118fc565b15905090565b600054610100900460ff16806111af57506111af611185565b806111bd575060005460ff16155b6111f85760405162461bcd60e51b815260040180806020018281038252602e815260200180611c6e602e913960400191505060405180910390fd5b600054610100900460ff16158015611223576000805460ff1961ff0019909116610100171660011790555b61122b611902565b6112336119a2565b8015610b5a576000805461ff001916905550565b600054610100900460ff16806112605750611260611185565b8061126e575060005460ff16155b6112a95760405162461bcd60e51b815260040180806020018281038252602e815260200180611c6e602e913960400191505060405180910390fd5b600054610100900460ff161580156112d4576000805460ff1961ff0019909116610100171660011790555b611233611a89565b6112e585611b2f565b6112ee84611b2f565b6112f783611b2f565b61130082611b2f565b61130981611b2f565b609e80546001600160a01b038088166001600160a01b03199283168117909355609f805488831690841617905560a0805487831690841617905560a1805486831690841617905560a280549185169190921617905560408051918252517f7b0c6ae24561d189fc90b337cbc97aa15d085bef32931237a762e3e528b285b49181900360200190a1604080516001600160a01b038616815290517f112220fa8dbe96141556e0dc3d74dd95075b323f4f297616048e02d82d7017159181900360200190a1604080516001600160a01b038516815290517f143219c9e69b09e07e095fcc889b43d8f46ca892bba65f08dc3a0050869a56789181900360200190a1604080516001600160a01b038416815290517f3ca631ffcd2a9b5d9ae18543fc82f58eb4ca33af9e6ab01b7a8e95331e6ed9859181900360200190a1604080516001600160a01b038316815290517f78f058b189175430c48dc02699e3a0031ea4ff781536dc2fab847de4babdd8829181900360200190a15050505050565b6001600160a01b0381166000908152609d6020526040812060010154609a5482906114e390670de0b6b3a764000090610f12906114c490866115ee565b6001600160a01b038816600090815260976020526040902054906117f3565b949350505050565b60008111610b5a5760405162461bcd60e51b8152600401808060200182810382526035815260200180611d2c6035913960400191505060405180910390fd5b6001600160a01b0381166000908152609d602052604081205460995482906114e390670de0b6b3a764000090610f12906114c490866115ee565b609980546001600160a01b0383166000818152609d6020908152604091829020938455609a54600190940184905593548151928352938201939093528083019190915290517f6b5cf27595af4428271524e0a5abd2b63f6fee1a61e31970490f5a10e257a1cd9181900360600190a150565b60008183106115e557816115e7565b825b9392505050565b600082821115611645576040805162461bcd60e51b815260206004820152601e60248201527f536166654d6174683a207375627472616374696f6e206f766572666c6f770000604482015290519081900360640190fd5b50900390565b604080513381526020810183905281517f3b2482b1bf6e751427503c9a8bf79e4dba3e6519259e2220428c2f326cc79c14929181900390910190a1604051600090339083908381818185875af1925050503d80600081146116c8576040519150601f19603f3d011682016040523d82523d6000602084013e6116cd565b606091505b505090508061170d5760405162461bcd60e51b8152600401808060200182810382526038815260200180611b8b6038913960400191505060405180910390fd5b5050565b60008111610b5a5760405162461bcd60e51b815260040180806020018281038252602d815260200180611c17602d913960400191505060405180910390fd5b6000828201838110156115e7576040805162461bcd60e51b815260206004820152601b60248201527f536166654d6174683a206164646974696f6e206f766572666c6f770000000000604482015290519081900360640190fd5b60a1546001600160a01b031633146105ca5760405162461bcd60e51b815260040180806020018281038252602f815260200180611cfd602f913960400191505060405180910390fd5b600082611802575060006107d1565b8282028284828161180f57fe5b04146115e75760405162461bcd60e51b8152600401808060200182810382526021815260200180611c9c6021913960400191505060405180910390fd5b60008082116118a2576040805162461bcd60e51b815260206004820152601a60248201527f536166654d6174683a206469766973696f6e206279207a65726f000000000000604482015290519081900360640190fd5b8183816118ab57fe5b049392505050565b60a0546001600160a01b031633146105ca5760405162461bcd60e51b815260040180806020018281038252602a815260200180611c44602a913960400191505060405180910390fd5b3b151590565b600054610100900460ff168061191b575061191b611185565b80611929575060005460ff16155b6119645760405162461bcd60e51b815260040180806020018281038252602e815260200180611c6e602e913960400191505060405180910390fd5b600054610100900460ff16158015611233576000805460ff1961ff0019909116610100171660011790558015610b5a576000805461ff001916905550565b600054610100900460ff16806119bb57506119bb611185565b806119c9575060005460ff16155b611a045760405162461bcd60e51b815260040180806020018281038252602e815260200180611c6e602e913960400191505060405180910390fd5b600054610100900460ff16158015611a2f576000805460ff1961ff0019909116610100171660011790555b6000611a39611181565b603380546001600160a01b0319166001600160a01b03831690811790915560405191925090600090600080516020611cdd833981519152908290a3508015610b5a576000805461ff001916905550565b600054610100900460ff1680611aa25750611aa2611185565b80611ab0575060005460ff16155b611aeb5760405162461bcd60e51b815260040180806020018281038252602e815260200180611c6e602e913960400191505060405180910390fd5b600054610100900460ff16158015611b16576000805460ff1961ff0019909116610100171660011790555b60016065558015610b5a576000805461ff001916905550565b6001600160a01b038116610b5a576040805162461bcd60e51b815260206004820152601e60248201527f4163636f756e742063616e6e6f74206265207a65726f20616464726573730000604482015290519081900360640190fdfe50726f746f636f6c546f6b656e5374616b696e673a204661696c656420746f2073656e6420616363756d756c617465642046494c4761696e4f776e61626c653a206e6577206f776e657220697320746865207a65726f206164647265737350726f746f636f6c546f6b656e5374616b696e673a2063616c6c6572206973206e6f7420416374697665506f6f6c50726f746f636f6c546f6b656e5374616b696e673a20416d6f756e74206d757374206265206e6f6e2d7a65726f50726f746f636f6c546f6b656e5374616b696e673a2063616c6c6572206973206e6f742054726f76654d496e697469616c697a61626c653a20636f6e747261637420697320616c726561647920696e697469616c697a6564536166654d6174683a206d756c7469706c69636174696f6e206f766572666c6f774f776e61626c653a2063616c6c6572206973206e6f7420746865206f776e65728be0079c531659141344cd1fd0a4f28419497f9722a3daafe3b4186f6b6457e050726f746f636f6c546f6b656e5374616b696e673a2063616c6c6572206973206e6f7420426f72726f7765724f707350726f746f636f6c546f6b656e5374616b696e673a2055736572206d75737420686176652061206e6f6e2d7a65726f207374616b65a264697066735822122016dc28678bc5a300e95670b64b8c067eb50f2861256668b0db88cf8fe6f0c89864736f6c63430007060033608060405234801561001057600080fd5b50610f62806100206000396000f3fe608060405234801561001057600080fd5b50600436106100e05760003560e01c8063715018a611610087578063715018a61461017b5780638352d6361461018357806384e638aa146101af5780638da5cb5b146101b75780639e954ef2146101bf578063a20baee6146101c7578063a3f4df7e146101cf578063f2fde38b1461024c576100e0565b80630b622ab2146100e55780630fc83da3146101095780631a465fe11461012357806324b40ed01461012b5780632eee8bc91461013357806332254b971461013b578063485cc9551461014557806361ec893d14610173575b600080fd5b6100ed610272565b604080516001600160a01b039092168252519081900360200190f35b610111610281565b60408051918252519081900360200190f35b6100ed61028d565b61011161029c565b6101116102a2565b61014361032f565b005b6101436004803603604081101561015b57600080fd5b506001600160a01b0381358116916020013516610490565b61011161054b565b610143610550565b6101436004803603604081101561019957600080fd5b506001600160a01b0381351690602001356105ea565b610111610678565b6100ed61067e565b61011161068d565b610111610693565b6101d761069f565b6040805160208082528351818301528351919283929083019185019080838360005b838110156102115781810151838201526020016101f9565b50505050905090810190601f16801561023e5780820380516001836020036101000a031916815260200191505b509250505060405180910390f35b6101436004803603602081101561026257600080fd5b50356001600160a01b03166106cc565b6067546001600160a01b031681565b670de0b5809a6f939881565b6066546001600160a01b031681565b60695481565b60006102ac6107bd565b60006102d4670de0b6b3a76400006102ce6102c5610808565b6065549061086c565b906108ce565b905060006102ed6068548361093590919063ffffffff16565b60688390556040805184815290519192507f253095657378f12e31b9de23bbea40cddbab765dfd86c80f26d4d52cf9d7b76a919081900360200190a191505090565b610337610992565b6001600160a01b031661034861067e565b6001600160a01b031614610391576040805162461bcd60e51b81526020600482018190526024820152600080516020610eca833981519152604482015290519081900360640190fd5b606654604080516370a0823160e01b815230600482015290516000926001600160a01b0316916370a08231916024808301926020929190829003018186803b1580156103dc57600080fd5b505afa1580156103f0573d6000803e3d6000fd5b505050506040513d602081101561040657600080fd5b505160655490915081141561044c5760405162461bcd60e51b8152600401808060200182810382526029815260200180610e526029913960400191505060405180910390fd5b60658190556000606855426069556040805182815290517f81d8ce7b1678eb5b4be89cd9c81f76087c8e38f41ead97760ed2561beff0d85c9181900360200190a150565b600054610100900460ff16806104a957506104a9610996565b806104b7575060005460ff16155b6104f25760405162461bcd60e51b815260040180806020018281038252602e815260200180610e7b602e913960400191505060405180910390fd5b600054610100900460ff1615801561051d576000805460ff1961ff0019909116610100171660011790555b6105256109a7565b61052f8383610a59565b60006065558015610546576000805461ff00191690555b505050565b603c81565b610558610992565b6001600160a01b031661056961067e565b6001600160a01b0316146105b2576040805162461bcd60e51b81526020600482018190526024820152600080516020610eca833981519152604482015290519081900360640190fd5b6033546040516000916001600160a01b031690600080516020610eea833981519152908390a3603380546001600160a01b0319169055565b6105f26107bd565b6066546040805163a9059cbb60e01b81526001600160a01b038581166004830152602482018590529151919092169163a9059cbb9160448083019260209291908290030181600087803b15801561064857600080fd5b505af115801561065c573d6000803e3d6000fd5b505050506040513d602081101561067257600080fd5b50505050565b60655481565b6033546001600160a01b031690565b60685481565b670de0b6b3a764000081565b60405180604001604052806011815260200170436f6d6d756e69747949737375616e636560781b81525081565b6106d4610992565b6001600160a01b03166106e561067e565b6001600160a01b03161461072e576040805162461bcd60e51b81526020600482018190526024820152600080516020610eca833981519152604482015290519081900360640190fd5b6001600160a01b0381166107735760405162461bcd60e51b8152600401808060200182810382526026815260200180610e2c6026913960400191505060405180910390fd5b6033546040516001600160a01b03808416921690600080516020610eea83398151915290600090a3603380546001600160a01b0319166001600160a01b0392909216919091179055565b6067546001600160a01b031633146108065760405162461bcd60e51b8152600401808060200182810382526023815260200180610f0a6023913960400191505060405180910390fd5b565b600080610825603c6102ce6069544261093590919063ffffffff16565b9050600061083b670de0b5809a6f939883610b0b565b90506000610851670de0b6b3a764000083610935565b9050670de0b6b3a764000081111561086557fe5b9250505090565b60008261087b575060006108c8565b8282028284828161088857fe5b04146108c55760405162461bcd60e51b8152600401808060200182810382526021815260200180610ea96021913960400191505060405180910390fd5b90505b92915050565b6000808211610924576040805162461bcd60e51b815260206004820152601a60248201527f536166654d6174683a206469766973696f6e206279207a65726f000000000000604482015290519081900360640190fd5b81838161092d57fe5b049392505050565b60008282111561098c576040805162461bcd60e51b815260206004820152601e60248201527f536166654d6174683a207375627472616374696f6e206f766572666c6f770000604482015290519081900360640190fd5b50900390565b3390565b60006109a130610bb4565b15905090565b600054610100900460ff16806109c057506109c0610996565b806109ce575060005460ff16155b610a095760405162461bcd60e51b815260040180806020018281038252602e815260200180610e7b602e913960400191505060405180910390fd5b600054610100900460ff16158015610a34576000805460ff1961ff0019909116610100171660011790555b610a3c610bba565b610a44610c5a565b8015610a56576000805461ff00191690555b50565b610a6282610d41565b610a6b81610d41565b606680546001600160a01b038085166001600160a01b03199283168117909355606780549185169190921617905560408051918252517f7b0c6ae24561d189fc90b337cbc97aa15d085bef32931237a762e3e528b285b49181900360200190a1604080516001600160a01b038316815290517f82966d27eea39b038ee0fa30cd16532bb24f6e65d31cb58fb227aa5766cdcc7f9181900360200190a15050565b6000631f540500821115610b2157631f54050091505b81610b355750670de0b6b3a76400006108c8565b670de0b6b3a764000083835b6001811115610ba05760028106610b7057610b5c8283610d9c565b9150610b698160026108ce565b9050610b9b565b610b7a8284610d9c565b9250610b868283610d9c565b9150610b9860026102ce836001610935565b90505b610b41565b610baa8284610d9c565b9695505050505050565b3b151590565b600054610100900460ff1680610bd35750610bd3610996565b80610be1575060005460ff16155b610c1c5760405162461bcd60e51b815260040180806020018281038252602e815260200180610e7b602e913960400191505060405180910390fd5b600054610100900460ff16158015610a44576000805460ff1961ff0019909116610100171660011790558015610a56576000805461ff001916905550565b600054610100900460ff1680610c735750610c73610996565b80610c81575060005460ff16155b610cbc5760405162461bcd60e51b815260040180806020018281038252602e815260200180610e7b602e913960400191505060405180910390fd5b600054610100900460ff16158015610ce7576000805460ff1961ff0019909116610100171660011790555b6000610cf1610992565b603380546001600160a01b0319166001600160a01b03831690811790915560405191925090600090600080516020610eea833981519152908290a3508015610a56576000805461ff001916905550565b6001600160a01b038116610a56576040805162461bcd60e51b815260206004820152601e60248201527f4163636f756e742063616e6e6f74206265207a65726f20616464726573730000604482015290519081900360640190fd5b600080610da9848461086c565b9050610dc9670de0b6b3a76400006102ce836706f05b59d3b20000610dd1565b949350505050565b6000828201838110156108c5576040805162461bcd60e51b815260206004820152601b60248201527f536166654d6174683a206164646974696f6e206f766572666c6f770000000000604482015290519081900360640190fdfe4f776e61626c653a206e6577206f776e657220697320746865207a65726f2061646472657373436f6d6d756e69747949737375616e63653a20737570706c7920636170206e6f74206368616e676564496e697469616c697a61626c653a20636f6e747261637420697320616c726561647920696e697469616c697a6564536166654d6174683a206d756c7469706c69636174696f6e206f766572666c6f774f776e61626c653a2063616c6c6572206973206e6f7420746865206f776e65728be0079c531659141344cd1fd0a4f28419497f9722a3daafe3b4186f6b6457e0436f6d6d756e69747949737375616e63653a2063616c6c6572206973206e6f74205350a2646970667358221220a5982fc9b9854da8b3d04047ae46e4fdc153feb340f63b01b15e956c6c2aafa564736f6c63430007060033608060405234801561001057600080fd5b50604051610cfb380380610cfb8339818101604052608081101561003357600080fd5b50805160208201516040830151606090930151600080546001600160a01b039485166001600160a01b0319918216179091556001805493851693821693909317909255600280549484169483169490941790935560038054929093169116179055610c58806100a36000396000f3fe6080604052600436106100d75760003560e01c8063643dec8c1161007a578063643dec8c146102e9578063650b559c1461032a5780637bbb0f5e1461037a578063854febd6146103bb5780639113473114610404578063cf83544f14610446578063d94bcec21461047f578063f47a1ea7146104c2576100de565b806332e859b9146100e357806335b1017914610119578063390b5f27146101745780634903a3dd146101c15780634afbac51146101d65780634c36240b146102535780634d37261f1461028c578063641b09b6146102bf576100de565b366100de57005b600080fd5b610117600480360360608110156100f957600080fd5b508035906001600160a01b03602082013581169160400135166104ec565b005b34801561012557600080fd5b50610117600480360360e081101561013c57600080fd5b508035906001600160a01b03602082013581169160408101358216916060820135169060808101359060a08101359060c00135610563565b34801561018057600080fd5b506101ad6004803603604081101561019757600080fd5b506001600160a01b0381351690602001356105fb565b604080519115158252519081900360200190f35b3480156101cd57600080fd5b50610117610687565b3480156101e257600080fd5b50610117600480360360208110156101f957600080fd5b81019060208101813564010000000081111561021457600080fd5b82018360208201111561022657600080fd5b8035906020019184602083028401116401000000008311171561024857600080fd5b5090925090506106f1565b34801561025f57600080fd5b506101176004803603604081101561027657600080fd5b50803590602001356001600160a01b031661078a565b34801561029857600080fd5b50610117600480360360208110156102af57600080fd5b50356001600160a01b03166107df565b3480156102cb57600080fd5b50610117600480360360208110156102e257600080fd5b5035610845565b3480156102f557600080fd5b506101176004803603606081101561030c57600080fd5b508035906001600160a01b0360208201358116916040013516610892565b610117600480360360e081101561034057600080fd5b5080359060208101359060408101359060608101351515906001600160a01b03608082013581169160a08101359091169060c0013561090c565b34801561038657600080fd5b506101176004803603606081101561039d57600080fd5b508035906001600160a01b03602082013581169160400135166109a4565b3480156103c757600080fd5b50610117600480360360808110156103de57600080fd5b508035906001600160a01b03602082013581169160408101359091169060600135610a01565b610117600480360360a081101561041a57600080fd5b508035906020810135906001600160a01b03604082013581169160608101359091169060800135610a65565b34801561045257600080fd5b506101ad6004803603604081101561046957600080fd5b506001600160a01b038135169060200135610aec565b34801561048b57600080fd5b506101ad600480360360608110156104a257600080fd5b506001600160a01b03813581169160208101359091169060400135610b45565b3480156104ce57600080fd5b50610117600480360360208110156104e557600080fd5b5035610bda565b600154604080516368647db160e01b81526001600160a01b0385811660048301528481166024830152915191909216916368647db191869160448082019260009290919082900301818588803b15801561054557600080fd5b505af1158015610559573d6000803e3d6000fd5b5050505050505050565b6000805460408051635e69ba9360e11b8152600481018b90526001600160a01b038a81166024830152898116604483015288811660648301526084820188905260a4820187905260c482018690529151919092169263bcd375269260e4808201939182900301818387803b1580156105da57600080fd5b505af11580156105ee573d6000803e3d6000fd5b5050505050505050505050565b6003546040805163a9059cbb60e01b81526001600160a01b038581166004830152602482018590529151600093929092169163a9059cbb9160448082019260209290919082900301818787803b15801561065457600080fd5b505af1158015610668573d6000803e3d6000fd5b505050506040513d602081101561067e57600080fd5b50519392505050565b600160009054906101000a90046001600160a01b03166001600160a01b0316630e704d506040518163ffffffff1660e01b8152600401600060405180830381600087803b1580156106d757600080fd5b505af11580156106eb573d6000803e3d6000fd5b50505050565b600054604051631e8b1c2b60e01b8152602060048201818152602483018590526001600160a01b0390931692631e8b1c2b92869286929182916044909101908590850280828437600081840152601f19601f8201169050808301925050509350505050600060405180830381600087803b15801561076e57600080fd5b505af1158015610782573d6000803e3d6000fd5b505050505050565b60025460408051635f788d6560e01b8152600481018590526001600160a01b03848116602483015291519190921691635f788d6591604480830192600092919082900301818387803b15801561076e57600080fd5b60008054604080516305f0caad60e31b81526001600160a01b03858116600483015291519190921692632f865568926024808201939182900301818387803b15801561082a57600080fd5b505af115801561083e573d6000803e3d6000fd5b5050505050565b60025460408051632e54bf9560e01b81526004810184905290516001600160a01b0390921691632e54bf959160248082019260009290919082900301818387803b15801561082a57600080fd5b6001546040805163040163c560e11b8152600481018690526001600160a01b038581166024830152848116604483015291519190921691630802c78a91606480830192600092919082900301818387803b1580156108ef57600080fd5b505af1158015610903573d6000803e3d6000fd5b50505050505050565b60015460408051630635367960e51b815260048101849052602481018990526044810188905286151560648201526001600160a01b03868116608483015285811660a48301529151919092169163c6a6cf20918a9160c48082019260009290919082900301818588803b15801561098257600080fd5b505af1158015610996573d6000803e3d6000fd5b505050505050505050505050565b6001546040805163154c09cf60e21b8152600481018690526001600160a01b038581166024830152848116604483015291519190921691635530273c91606480830192600092919082900301818387803b1580156108ef57600080fd5b600154604080516362a0d79960e01b815260048101849052602481018790526001600160a01b0386811660448301528581166064830152915191909216916362a0d79991608480830192600092919082900301818387803b15801561054557600080fd5b6001546040805163860665b360e01b815260048101849052602481018790526001600160a01b03868116604483015285811660648301529151919092169163860665b391889160848082019260009290919082900301818588803b158015610acc57600080fd5b505af1158015610ae0573d6000803e3d6000fd5b50505050505050505050565b6003546040805163095ea7b360e01b81526001600160a01b038581166004830152602482018590529151600093929092169163095ea7b39160448082019260209290919082900301818787803b15801561065457600080fd5b600354604080516323b872dd60e01b81526001600160a01b038681166004830152858116602483015260448201859052915160009392909216916323b872dd9160648082019260209290919082900301818787803b158015610ba657600080fd5b505af1158015610bba573d6000803e3d6000fd5b505050506040513d6020811015610bd057600080fd5b5051949350505050565b600080546040805163653d46e760e01b81526004810185905290516001600160a01b039092169263653d46e79260248084019382900301818387803b15801561082a57600080fdfea26469706673582212201d47b0d530e27379de90f6089004589b33de0330445d4b6bb3ee738c7345cd2664736f6c63430007060033",
  "linkReferences": {},
  "deployedLinkReferences": {}
}