{
  "_format": "hh-sol-artifact-1",
  "contractName": "EchidnaTester",
  "sourceName": "contracts/TestContracts/EchidnaTester.sol",
  "abi": [
    {
      "inputs": [],
      "stateMutability": "payable",
      "type": "constructor"
    },
    {
      "inputs": [],
      "name": "activePool",
      "outputs": [
        {
          "internalType": "contract ActivePool",
          "name": "",
          "type": "address"
        }
      ],
      "stateMutability": "view",
      "type": "function"
    },
    {
      "inputs": [
        {
          "internalType": "uint256",
          "name": "_i",
          "type": "uint256"
        },
        {
          "internalType": "uint256",
          "name": "_FIL",
          "type": "uint256"
        }
      ],
      "name": "addCollExt",
      "outputs": [],
      "stateMutability": "payable",
      "type": "function"
    },
    {
      "inputs": [
        {
          "internalType": "uint256",
          "name": "_i",
          "type": "uint256"
        },
        {
          "internalType": "uint256",
          "name": "_FIL",
          "type": "uint256"
        },
        {
          "internalType": "address",
          "name": "_upperHint",
          "type": "address"
        },
        {
          "internalType": "address",
          "name": "_lowerHint",
          "type": "address"
        }
      ],
      "name": "addCollRawExt",
      "outputs": [],
      "stateMutability": "payable",
      "type": "function"
    },
    {
      "inputs": [
        {
          "internalType": "uint256",
          "name": "_i",
          "type": "uint256"
        },
        {
          "internalType": "uint256",
          "name": "_FIL",
          "type": "uint256"
        },
        {
          "internalType": "uint256",
          "name": "_collWithdrawal",
          "type": "uint256"
        },
        {
          "internalType": "uint256",
          "name": "_debtChange",
          "type": "uint256"
        },
        {
          "internalType": "bool",
          "name": "_isDebtIncrease",
          "type": "bool"
        }
      ],
      "name": "adjustTroveExt",
      "outputs": [],
      "stateMutability": "payable",
      "type": "function"
    },
    {
      "inputs": [
        {
          "internalType": "uint256",
          "name": "_i",
          "type": "uint256"
        },
        {
          "internalType": "uint256",
          "name": "_FIL",
          "type": "uint256"
        },
        {
          "internalType": "uint256",
          "name": "_collWithdrawal",
          "type": "uint256"
        },
        {
          "internalType": "uint256",
          "name": "_debtChange",
          "type": "uint256"
        },
        {
          "internalType": "bool",
          "name": "_isDebtIncrease",
          "type": "bool"
        },
        {
          "internalType": "address",
          "name": "_upperHint",
          "type": "address"
        },
        {
          "internalType": "address",
          "name": "_lowerHint",
          "type": "address"
        },
        {
          "internalType": "uint256",
          "name": "_maxFee",
          "type": "uint256"
        }
      ],
      "name": "adjustTroveRawExt",
      "outputs": [],
      "stateMutability": "payable",
      "type": "function"
    },
    {
      "inputs": [
        {
          "internalType": "uint256",
          "name": "_i",
          "type": "uint256"
        },
        {
          "internalType": "address",
          "name": "spender",
          "type": "address"
        },
        {
          "internalType": "uint256",
          "name": "amount",
          "type": "uint256"
        }
      ],
      "name": "approveExt",
      "outputs": [
        {
          "internalType": "bool",
          "name": "",
          "type": "bool"
        }
      ],
      "stateMutability": "nonpayable",
      "type": "function"
    },
    {
      "inputs": [
        {
          "internalType": "uint256",
          "name": "_i",
          "type": "uint256"
        },
        {
          "internalType": "address[]",
          "name": "_troveArray",
          "type": "address[]"
        }
      ],
      "name": "batchLiquidateTrovesExt",
      "outputs": [],
      "stateMutability": "nonpayable",
      "type": "function"
    },
    {
      "inputs": [],
      "name": "borrowerOperations",
      "outputs": [
        {
          "internalType": "contract BorrowerOperations",
          "name": "",
          "type": "address"
        }
      ],
      "stateMutability": "view",
      "type": "function"
    },
    {
      "inputs": [
        {
          "internalType": "uint256",
          "name": "_i",
          "type": "uint256"
        }
      ],
      "name": "closeTroveExt",
      "outputs": [],
      "stateMutability": "nonpayable",
      "type": "function"
    },
    {
      "inputs": [],
      "name": "collSurplusPool",
      "outputs": [
        {
          "internalType": "contract CollSurplusPool",
          "name": "",
          "type": "address"
        }
      ],
      "stateMutability": "view",
      "type": "function"
    },
    {
      "inputs": [],
      "name": "debtToken",
      "outputs": [
        {
          "internalType": "contract DebtToken",
          "name": "",
          "type": "address"
        }
      ],
      "stateMutability": "view",
      "type": "function"
    },
    {
      "inputs": [
        {
          "internalType": "uint256",
          "name": "_i",
          "type": "uint256"
        },
        {
          "internalType": "address",
          "name": "spender",
          "type": "address"
        },
        {
          "internalType": "uint256",
          "name": "subtractedValue",
          "type": "uint256"
        }
      ],
      "name": "decreaseAllowanceExt",
      "outputs": [
        {
          "internalType": "bool",
          "name": "",
          "type": "bool"
        }
      ],
      "stateMutability": "nonpayable",
      "type": "function"
    },
    {
      "inputs": [],
      "name": "defaultPool",
      "outputs": [
        {
          "internalType": "contract DefaultPool",
          "name": "",
          "type": "address"
        }
      ],
      "stateMutability": "view",
      "type": "function"
    },
    {
      "inputs": [
        {
          "internalType": "uint256",
          "name": "",
          "type": "uint256"
        }
      ],
      "name": "echidnaProxies",
      "outputs": [
        {
          "internalType": "contract EchidnaProxy",
          "name": "",
          "type": "address"
        }
      ],
      "stateMutability": "view",
      "type": "function"
    },
    {
      "inputs": [],
      "name": "echidna_FIL_balances",
      "outputs": [
        {
          "internalType": "bool",
          "name": "",
          "type": "bool"
        }
      ],
      "stateMutability": "view",
      "type": "function"
    },
    {
      "inputs": [],
      "name": "echidna_canary_active_pool_balance",
      "outputs": [
        {
          "internalType": "bool",
          "name": "",
          "type": "bool"
        }
      ],
      "stateMutability": "view",
      "type": "function"
    },
    {
      "inputs": [],
      "name": "echidna_canary_number_of_troves",
      "outputs": [
        {
          "internalType": "bool",
          "name": "",
          "type": "bool"
        }
      ],
      "stateMutability": "view",
      "type": "function"
    },
    {
      "inputs": [],
      "name": "echidna_debt_token_global_balances",
      "outputs": [
        {
          "internalType": "bool",
          "name": "",
          "type": "bool"
        }
      ],
      "stateMutability": "view",
      "type": "function"
    },
    {
      "inputs": [],
      "name": "echidna_price",
      "outputs": [
        {
          "internalType": "bool",
          "name": "",
          "type": "bool"
        }
      ],
      "stateMutability": "view",
      "type": "function"
    },
    {
      "inputs": [],
      "name": "echidna_trove_properties",
      "outputs": [
        {
          "internalType": "bool",
          "name": "",
          "type": "bool"
        }
      ],
      "stateMutability": "view",
      "type": "function"
    },
    {
      "inputs": [],
      "name": "echidna_troves_order",
      "outputs": [
        {
          "internalType": "bool",
          "name": "",
          "type": "bool"
        }
      ],
      "stateMutability": "view",
      "type": "function"
    },
    {
      "inputs": [],
      "name": "gasPool",
      "outputs": [
        {
          "internalType": "contract GasPool",
          "name": "",
          "type": "address"
        }
      ],
      "stateMutability": "view",
      "type": "function"
    },
    {
      "inputs": [
        {
          "internalType": "uint256",
          "name": "_i",
          "type": "uint256"
        },
        {
          "internalType": "address",
          "name": "spender",
          "type": "address"
        },
        {
          "internalType": "uint256",
          "name": "addedValue",
          "type": "uint256"
        }
      ],
      "name": "increaseAllowanceExt",
      "outputs": [
        {
          "internalType": "bool",
          "name": "",
          "type": "bool"
        }
      ],
      "stateMutability": "nonpayable",
      "type": "function"
    },
    {
      "inputs": [
        {
          "internalType": "uint256",
          "name": "_i",
          "type": "uint256"
        },
        {
          "internalType": "address",
          "name": "_user",
          "type": "address"
        }
      ],
      "name": "liquidateExt",
      "outputs": [],
      "stateMutability": "nonpayable",
      "type": "function"
    },
    {
      "inputs": [
        {
          "internalType": "uint256",
          "name": "_i",
          "type": "uint256"
        },
        {
          "internalType": "uint256",
          "name": "_n",
          "type": "uint256"
        }
      ],
      "name": "liquidateTrovesExt",
      "outputs": [],
      "stateMutability": "nonpayable",
      "type": "function"
    },
    {
      "inputs": [
        {
          "internalType": "uint256",
          "name": "_i",
          "type": "uint256"
        },
        {
          "internalType": "uint256",
          "name": "_FIL",
          "type": "uint256"
        },
        {
          "internalType": "uint256",
          "name": "_debtTokenAmount",
          "type": "uint256"
        }
      ],
      "name": "openTroveExt",
      "outputs": [],
      "stateMutability": "payable",
      "type": "function"
    },
    {
      "inputs": [
        {
          "internalType": "uint256",
          "name": "_i",
          "type": "uint256"
        },
        {
          "internalType": "uint256",
          "name": "_FIL",
          "type": "uint256"
        },
        {
          "internalType": "uint256",
          "name": "_debtTokenAmount",
          "type": "uint256"
        },
        {
          "internalType": "address",
          "name": "_upperHint",
          "type": "address"
        },
        {
          "internalType": "address",
          "name": "_lowerHint",
          "type": "address"
        },
        {
          "internalType": "uint256",
          "name": "_maxFee",
          "type": "uint256"
        }
      ],
      "name": "openTroveRawExt",
      "outputs": [],
      "stateMutability": "payable",
      "type": "function"
    },
    {
      "inputs": [
        {
          "internalType": "uint256",
          "name": "_i",
          "type": "uint256"
        },
        {
          "internalType": "uint256",
          "name": "_amount",
          "type": "uint256"
        },
        {
          "internalType": "address",
          "name": "_frontEndTag",
          "type": "address"
        }
      ],
      "name": "provideToSPExt",
      "outputs": [],
      "stateMutability": "nonpayable",
      "type": "function"
    },
    {
      "inputs": [
        {
          "internalType": "uint256",
          "name": "_i",
          "type": "uint256"
        },
        {
          "internalType": "uint256",
          "name": "_debtTokenAmount",
          "type": "uint256"
        },
        {
          "internalType": "address",
          "name": "_firstRedemptionHint",
          "type": "address"
        },
        {
          "internalType": "address",
          "name": "_upperPartialRedemptionHint",
          "type": "address"
        },
        {
          "internalType": "address",
          "name": "_lowerPartialRedemptionHint",
          "type": "address"
        },
        {
          "internalType": "uint256",
          "name": "_partialRedemptionHintNICR",
          "type": "uint256"
        }
      ],
      "name": "redeemCollateralExt",
      "outputs": [],
      "stateMutability": "nonpayable",
      "type": "function"
    },
    {
      "inputs": [
        {
          "internalType": "uint256",
          "name": "_i",
          "type": "uint256"
        },
        {
          "internalType": "uint256",
          "name": "_amount",
          "type": "uint256"
        },
        {
          "internalType": "address",
          "name": "_upperHint",
          "type": "address"
        },
        {
          "internalType": "address",
          "name": "_lowerHint",
          "type": "address"
        }
      ],
      "name": "repayDebtTokenExt",
      "outputs": [],
      "stateMutability": "nonpayable",
      "type": "function"
    },
    {
      "inputs": [
        {
          "internalType": "uint256",
          "name": "_price",
          "type": "uint256"
        }
      ],
      "name": "setPriceExt",
      "outputs": [],
      "stateMutability": "nonpayable",
      "type": "function"
    },
    {
      "inputs": [],
      "name": "stabilityPool",
      "outputs": [
        {
          "internalType": "contract StabilityPool",
          "name": "",
          "type": "address"
        }
      ],
      "stateMutability": "view",
      "type": "function"
    },
    {
      "inputs": [
        {
          "internalType": "uint256",
          "name": "_i",
          "type": "uint256"
        },
        {
          "internalType": "address",
          "name": "recipient",
          "type": "address"
        },
        {
          "internalType": "uint256",
          "name": "amount",
          "type": "uint256"
        }
      ],
      "name": "transferExt",
      "outputs": [
        {
          "internalType": "bool",
          "name": "",
          "type": "bool"
        }
      ],
      "stateMutability": "nonpayable",
      "type": "function"
    },
    {
      "inputs": [
        {
          "internalType": "uint256",
          "name": "_i",
          "type": "uint256"
        },
        {
          "internalType": "address",
          "name": "sender",
          "type": "address"
        },
        {
          "internalType": "address",
          "name": "recipient",
          "type": "address"
        },
        {
          "internalType": "uint256",
          "name": "amount",
          "type": "uint256"
        }
      ],
      "name": "transferFromExt",
      "outputs": [
        {
          "internalType": "bool",
          "name": "",
          "type": "bool"
        }
      ],
      "stateMutability": "nonpayable",
      "type": "function"
    },
    {
      "inputs": [],
      "name": "troveManager",
      "outputs": [
        {
          "internalType": "contract TroveManager",
          "name": "",
          "type": "address"
        }
      ],
      "stateMutability": "view",
      "type": "function"
    },
    {
      "inputs": [
        {
          "internalType": "uint256",
          "name": "_i",
          "type": "uint256"
        },
        {
          "internalType": "uint256",
          "name": "_amount",
          "type": "uint256"
        },
        {
          "internalType": "address",
          "name": "_upperHint",
          "type": "address"
        },
        {
          "internalType": "address",
          "name": "_lowerHint",
          "type": "address"
        }
      ],
      "name": "withdrawCollExt",
      "outputs": [],
      "stateMutability": "nonpayable",
      "type": "function"
    },
    {
      "inputs": [
        {
          "internalType": "uint256",
          "name": "_i",
          "type": "uint256"
        },
        {
          "internalType": "uint256",
          "name": "_amount",
          "type": "uint256"
        },
        {
          "internalType": "address",
          "name": "_upperHint",
          "type": "address"
        },
        {
          "internalType": "address",
          "name": "_lowerHint",
          "type": "address"
        },
        {
          "internalType": "uint256",
          "name": "_maxFee",
          "type": "uint256"
        }
      ],
      "name": "withdrawDebtTokenExt",
      "outputs": [],
      "stateMutability": "nonpayable",
      "type": "function"
    },
    {
      "inputs": [
        {
          "internalType": "uint256",
          "name": "_i",
          "type": "uint256"
        },
        {
          "internalType": "uint256",
          "name": "_amount",
          "type": "uint256"
        }
      ],
      "name": "withdrawFromSPExt",
      "outputs": [],
      "stateMutability": "nonpayable",
      "type": "function"
    }
  ],
  "bytecode": "0x6080604052604051620000129062000ab0565b604051809103906000f0801580156200002f573d6000803e3d6000fd5b50600380546001600160a01b0319166001600160a01b03929092169190911790556040516200005e9062000abe565b604051809103906000f0801580156200007b573d6000803e3d6000fd5b50600480546001600160a01b0319166001600160a01b0392909216919091179055604051620000aa9062000acc565b604051809103906000f080158015620000c7573d6000803e3d6000fd5b50600580546001600160a01b0319166001600160a01b0392909216919091179055604051620000f69062000ada565b604051809103906000f08015801562000113573d6000803e3d6000fd5b50600680546001600160a01b0319166001600160a01b0392909216919091179055604051620001429062000ae8565b604051809103906000f0801580156200015f573d6000803e3d6000fd5b50600780546001600160a01b0319166001600160a01b03929092169190911790556040516200018e9062000af6565b604051809103906000f080158015620001ab573d6000803e3d6000fd5b50600880546001600160a01b0319166001600160a01b039283161790556003546007546004546040519284169391821692911690620001ea9062000b03565b6001600160a01b03938416815291831660208301529091166040808301919091525190819003606001906000f0801580156200022a573d6000803e3d6000fd5b50600a80546001600160a01b0319166001600160a01b0392909216919091179055604051620002599062000b11565b604051809103906000f08015801562000276573d6000803e3d6000fd5b50600980546001600160a01b0319166001600160a01b0392909216919091179055604051620002a59062000b1f565b604051809103906000f080158015620002c2573d6000803e3d6000fd5b50600b80546001600160a01b0319166001600160a01b0392909216919091179055604051620002f19062000b2d565b604051809103906000f0801580156200030e573d6000803e3d6000fd5b50600c80546001600160a01b0319166001600160a01b03928316179081905560035460048054600554600654600754600854600954600b54600a5460408051631e61717960e21b8152988d1699890199909952958b166024880152938a166044870152918916606486015288166084850152871660a4840152861660c4830152851660e482015292841661010484015260006101248401819052610144840181905290519190931692637985c5e492610164808201939182900301818387803b158015620003db57600080fd5b505af1158015620003f0573d6000803e3d6000fd5b505060048054600354600554600654600754600854600954600b54600c54600a5460408051636c37a4af60e01b81526001600160a01b039a8b169c81019c909c5297891660248c015295881660448b015293871660648a01529186166084890152851660a4880152841660c4870152831660e48601528216610104850152600061012485018190529051919092169450636c37a4af93506101448084019382900301818387803b158015620004a457600080fd5b505af1158015620004b9573d6000803e3d6000fd5b50506005546004805460035460075460065460408051634a945f8d60e01b81526001600160a01b039586169681019690965292841660248601529083166044850152821660648401525192169350634a945f8d925060848082019260009290919082900301818387803b1580156200053057600080fd5b505af115801562000545573d6000803e3d6000fd5b5050600654600354600554604080516348083d7f60e11b81526001600160a01b0393841660048201529183166024830152519190921693506390107afe9250604480830192600092919082900301818387803b158015620005a557600080fd5b505af1158015620005ba573d6000803e3d6000fd5b505060075460048054600354600554600a54600c54600b546040805163eaa8ba7f60e01b81526001600160a01b039788169881019890985294861660248801529285166044870152908416606486015283166084850152821660a4840152600060c48401819052905191909316945063eaa8ba7f935060e4808301939282900301818387803b1580156200064d57600080fd5b505af115801562000662573d6000803e3d6000fd5b50506009546004805460035460055460408051630d8efe5960e21b81526001600160a01b0394851695810195909552918316602485015282166044840152519216935063363bf964925060648082019260009290919082900301818387803b158015620006ce57600080fd5b505af1158015620006e3573d6000803e3d6000fd5b5050600c546003546004805460408051631e6edaf360e31b8152670de0b6b3a7640000938101939093526001600160a01b03938416602484015290831660448301525191909216935063f376d7989250606480830192600092919082900301818387803b1580156200075457600080fd5b505af115801562000769573d6000803e3d6000fd5b506000925050505b6064811015620008a957600354600454600754600a546040516001600160a01b0394851694938416939283169290911690620007ad9062000b3b565b6001600160a01b039485168152928416602084015290831660408084019190915292166060820152905190819003608001906000f080158015620007f5573d6000803e3d6000fd5b50600d82606481106200080457fe5b0180546001600160a01b0319166001600160a01b03929092169190911790556000600d82606481106200083357fe5b01546040516001600160a01b039091169069d3c21bcecceda100000090600081818185875af1925050503d80600081146200088b576040519150601f19603f3d011682016040523d82523d6000602084013e62000890565b606091505b50509050806200089f57600080fd5b5060010162000771565b506004805460408051631e5395c960e21b815290516001600160a01b039092169263794e5724928282019260209290829003018186803b158015620008ed57600080fd5b505afa15801562000902573d6000803e3d6000fd5b505050506040513d60208110156200091957600080fd5b50516000556004805460408051635733d58f60e01b815290516001600160a01b0390921692635733d58f928282019260209290829003018186803b1580156200096157600080fd5b505afa15801562000976573d6000803e3d6000fd5b505050506040513d60208110156200098d57600080fd5b505160015560048054604080516304e7cba360e21b815290516001600160a01b039092169263139f2e8c928282019260209290829003018186803b158015620009d557600080fd5b505afa158015620009ea573d6000803e3d6000fd5b505050506040513d602081101562000a0157600080fd5b505160025560005462000a1357600080fd5b60006001541162000a2357600080fd5b600b54604080516391b7f5ed60e01b815269021e19e0c9bab2400000600482015290516001600160a01b03909216916391b7f5ed916024808201926020929091908290030181600087803b15801562000a7b57600080fd5b505af115801562000a90573d6000803e3d6000fd5b505050506040513d602081101562000aa757600080fd5b5062000b499050565b615aef80620032e683390190565b6137908062008dd583390190565b610c1b806200c56583390190565b6109f7806200d18083390190565b61398e806200db7783390190565b605c806201150583390190565b6118f2806201156183390190565b610b998062012e5383390190565b61013b80620139ec83390190565b61192d8062013b2783390190565b610e35806201545483390190565b61278d8062000b596000396000f3fe6080604052600436106102055760003560e01c80638e4707d311610113578063baf5d65f116100ab578063ecb507941161006f578063ecb5079414610856578063efa83cf91461089d578063f8d89898146108e5578063f9bd9a15146108fa578063fa08b0381461090f57610205565b8063baf5d65f14610734578063c325347f14610764578063cda775f9146107e8578063d21af968146107fd578063e44891271461082657610205565b80638e4707d3146105a257806391a4a426146105e1578063926a547d1461060b5780639606f3fb14610620578063980c55d71461066f5780639cdd0978146106845780639f56ac18146106c3578063a2f5cbdd146106d8578063a3d36834146106ed57610205565b80634e792a30116101a1578063696909361161016557806369690936146104a057806377553ad4146104da5780637c22900e146104ef5780637ca8b028146105385780637f7dde4a1461058d57610205565b80634e792a30146103c357806357285cc5146103fc5780635895ac4e1461041f578063597ec7991461043457806359bed84b1461048b57610205565b8063048c661d1461020a57806304bbf59c1461023b578063119be5d01461028e5780631c6fbd23146102cd5780633ca4afc1146103065780633cc74225146103455780633d83908a1461035a57806340ba2e271461036f5780634557559f14610399575b600080fd5b34801561021657600080fd5b5061021f610924565b604080516001600160a01b039092168252519081900360200190f35b34801561024757600080fd5b5061027a6004803603606081101561025e57600080fd5b508035906001600160a01b036020820135169060400135610933565b604080519115158252519081900360200190f35b34801561029a57600080fd5b5061027a600480360360608110156102b157600080fd5b508035906001600160a01b0360208201351690604001356109d3565b610304600480360360a08110156102e357600080fd5b50803590602081013590604081013590606081013590608001351515610a3e565b005b34801561031257600080fd5b506103046004803603606081101561032957600080fd5b50803590602081013590604001356001600160a01b0316610b26565b34801561035157600080fd5b5061021f610bad565b34801561036657600080fd5b5061021f610bbc565b34801561037b57600080fd5b506103046004803603602081101561039257600080fd5b5035610bcb565b3480156103a557600080fd5b50610304600480360360208110156103bc57600080fd5b5035610c4b565b3480156103cf57600080fd5b50610304600480360360408110156103e657600080fd5b50803590602001356001600160a01b0316610cd1565b6103046004803603604081101561041257600080fd5b5080359060200135610d50565b34801561042b57600080fd5b5061027a610e03565b610304600480360361010081101561044b57600080fd5b5080359060208101359060408101359060608101359060808101351515906001600160a01b0360a082013581169160c08101359091169060e00135610e9a565b34801561049757600080fd5b5061027a610f4b565b610304600480360360808110156104b657600080fd5b508035906020810135906001600160a01b0360408201358116916060013516611200565b3480156104e657600080fd5b5061021f611290565b3480156104fb57600080fd5b5061027a6004803603608081101561051257600080fd5b508035906001600160a01b0360208201358116916040810135909116906060013561129f565b34801561054457600080fd5b50610304600480360360c081101561055b57600080fd5b508035906020810135906001600160a01b03604082013581169160608101358216916080820135169060a00135611348565b34801561059957600080fd5b5061021f6113f5565b3480156105ae57600080fd5b5061027a600480360360608110156105c557600080fd5b508035906001600160a01b036020820135169060400135611404565b3480156105ed57600080fd5b5061021f6004803603602081101561060457600080fd5b503561146f565b34801561061757600080fd5b5061027a61148c565b34801561062c57600080fd5b50610304600480360360a081101561064357600080fd5b508035906020810135906001600160a01b036040820135811691606081013590911690608001356118b2565b34801561067b57600080fd5b5061027a61192a565b34801561069057600080fd5b5061027a600480360360608110156106a757600080fd5b508035906001600160a01b036020820135169060400135611bec565b3480156106cf57600080fd5b5061027a611c57565b3480156106e457600080fd5b5061027a611c7a565b3480156106f957600080fd5b506103046004803603608081101561071057600080fd5b508035906020810135906001600160a01b0360408201358116916060013516611c8f565b34801561074057600080fd5b506103046004803603604081101561075757600080fd5b5080359060200135611d00565b34801561077057600080fd5b506103046004803603604081101561078757600080fd5b813591908101906040810160208201356401000000008111156107a957600080fd5b8201836020820111156107bb57600080fd5b803590602001918460208302840111640100000000831117156107dd57600080fd5b509092509050611d61565b3480156107f457600080fd5b5061021f611df2565b6103046004803603606081101561081357600080fd5b5080359060208101359060400135611e01565b34801561083257600080fd5b506103046004803603604081101561084957600080fd5b5080359060200135611f52565b34801561086257600080fd5b506103046004803603608081101561087957600080fd5b508035906020810135906001600160a01b0360408201358116916060013516611fb3565b610304600480360360c08110156108b357600080fd5b508035906020810135906040810135906001600160a01b03606082013581169160808101359091169060a00135612024565b3480156108f157600080fd5b5061021f6120a3565b34801561090657600080fd5b5061027a6120b2565b34801561091b57600080fd5b5061021f6122f3565b6007546001600160a01b031681565b600080606485069050600d816064811061094957fe5b01546040805163d466e4eb60e01b81526001600160a01b038781166004830152602482018790529151919092169163d466e4eb9160448083019260209291908290030181600087803b15801561099e57600080fd5b505af11580156109b2573d6000803e3d6000fd5b505050506040513d60208110156109c857600080fd5b509195945050505050565b600080606485069050600d81606481106109e957fe5b01546040805163cf83544f60e01b81526001600160a01b038781166004830152602482018790529151919092169163cf83544f9160448083019260209291908290030181600087803b15801561099e57600080fd5b60006064860690506000600d8260648110610a5557fe5b0154600080546001600160a01b039092169250823191610a789083908a90612302565b9050858515610a9157610a8e82886000546123de565b90505b60408051631942d56760e21b815260048101849052602481018a905260448101839052871515606482015260006084820181905260a4820181905260c4820181905291516001600160a01b0387169263650b559c9260e4808201939182900301818387803b158015610b0257600080fd5b505af1158015610b16573d6000803e3d6000fd5b5050505050505050505050505050565b6000606484069050600d8160648110610b3b57fe5b015460408051634c36240b60e01b8152600481018690526001600160a01b03858116602483015291519190921691634c36240b91604480830192600092919082900301818387803b158015610b8f57600080fd5b505af1158015610ba3573d6000803e3d6000fd5b5050505050505050565b6006546001600160a01b031681565b6003546001600160a01b031681565b6000606482069050600d8160648110610be057fe5b0160009054906101000a90046001600160a01b03166001600160a01b0316634903a3dd6040518163ffffffff1660e01b8152600401600060405180830381600087803b158015610c2f57600080fd5b505af1158015610c43573d6000803e3d6000fd5b505050505050565b600b54604080516391b7f5ed60e01b81526004810184905290516000926001600160a01b0316916391b7f5ed91602480830192602092919082900301818787803b158015610c9857600080fd5b505af1158015610cac573d6000803e3d6000fd5b505050506040513d6020811015610cc257600080fd5b5051905080610ccd57fe5b5050565b6000606483069050600d8160648110610ce657fe5b015460408051634d37261f60e01b81526001600160a01b03858116600483015291519190921691634d37261f91602480830192600092919082900301818387803b158015610d3357600080fd5b505af1158015610d47573d6000803e3d6000fd5b50505050505050565b60006064830690506000600d8260648110610d6757fe5b0154600080546001600160a01b039092169250823191610d8a9083908790612302565b604080516332e859b960e01b8152600481018390526000602482018190526044820181905291519293506001600160a01b038616926332e859b99260648084019391929182900301818387803b158015610de357600080fd5b505af1158015610df7573d6000803e3d6000fd5b50505050505050505050565b600080600b60009054906101000a90046001600160a01b03166001600160a01b03166398d5fdca6040518163ffffffff1660e01b815260040160206040518083038186803b158015610e5457600080fd5b505afa158015610e68573d6000803e3d6000fd5b505050506040513d6020811015610e7e57600080fd5b5051905080610e91576000915050610e97565b60019150505b90565b6000606489069050600d8160648110610eaf57fe5b015460408051631942d56760e21b8152600481018b9052602481018a90526044810189905287151560648201526001600160a01b03878116608483015286811660a483015260c482018690529151919092169163650b559c9160e480830192600092919082900301818387803b158015610f2857600080fd5b505af1158015610f3c573d6000803e3d6000fd5b50505050505050505050505050565b600080600c60009054906101000a90046001600160a01b03166001600160a01b0316631e2231436040518163ffffffff1660e01b815260040160206040518083038186803b158015610f9c57600080fd5b505afa158015610fb0573d6000803e3d6000fd5b505050506040513d6020811015610fc657600080fd5b5051600c546040805163765e015960e01b81526001600160a01b0380851660048301529151939450600093919092169163765e0159916024808301926020929190829003018186803b15801561101b57600080fd5b505afa15801561102f573d6000803e3d6000fd5b505050506040513d602081101561104557600080fd5b505190505b6001600160a01b0382161580159061106a57506001600160a01b03811615155b156111f7576003546040805163b0d8e18160e01b81526001600160a01b0385811660048301529151919092169163b0d8e181916024808301926020929190829003018186803b1580156110bc57600080fd5b505afa1580156110d0573d6000803e3d6000fd5b505050506040513d60208110156110e657600080fd5b50516003546040805163b0d8e18160e01b81526001600160a01b0385811660048301529151919092169163b0d8e181916024808301926020929190829003018186803b15801561113557600080fd5b505afa158015611149573d6000803e3d6000fd5b505050506040513d602081101561115f57600080fd5b5051111561117257600092505050610e97565b600c546040805163765e015960e01b81526001600160a01b03808516600483015291519394508493919092169163765e0159916024808301926020929190829003018186803b1580156111c457600080fd5b505afa1580156111d8573d6000803e3d6000fd5b505050506040513d60208110156111ee57600080fd5b5051905061104a565b60019250505090565b6000606485069050600d816064811061121557fe5b0154604080516332e859b960e01b8152600481018790526001600160a01b0386811660248301528581166044830152915191909216916332e859b991606480830192600092919082900301818387803b15801561127157600080fd5b505af1158015611285573d6000803e3d6000fd5b505050505050505050565b6004546001600160a01b031681565b600080606486069050600d81606481106112b557fe5b015460408051636ca5e76160e11b81526001600160a01b0388811660048301528781166024830152604482018790529151919092169163d94bcec29160648083019260209291908290030181600087803b15801561131257600080fd5b505af1158015611326573d6000803e3d6000fd5b505050506040513d602081101561133c57600080fd5b50919695505050505050565b6000606487069050600d816064811061135d57fe5b0154604080516335b1017960e01b8152600481018990526001600160a01b0388811660248301528781166044830152868116606483015260848201869052600060a4830181905260c4830181905292519316926335b101799260e48084019391929182900301818387803b1580156113d457600080fd5b505af11580156113e8573d6000803e3d6000fd5b5050505050505050505050565b6005546001600160a01b031681565b600080606485069050600d816064811061141a57fe5b015460408051636628d36160e11b81526001600160a01b038781166004830152602482018790529151919092169163cc51a6c29160448083019260209291908290030181600087803b15801561099e57600080fd5b600d816064811061147c57fe5b01546001600160a01b0316905081565b600080600a60009054906101000a90046001600160a01b03166001600160a01b03166318160ddd6040518163ffffffff1660e01b815260040160206040518083038186803b1580156114dd57600080fd5b505afa1580156114f1573d6000803e3d6000fd5b505050506040513d602081101561150757600080fd5b5051600a54600854604080516370a0823160e01b81526001600160a01b039283166004820152905193945060009391909216916370a08231916024808301926020929190829003018186803b15801561155f57600080fd5b505afa158015611573573d6000803e3d6000fd5b505050506040513d602081101561158957600080fd5b5051600554604080516314a6bf0f60e01b815290519293506000926001600160a01b03909216916314a6bf0f91600480820192602092909190829003018186803b1580156115d657600080fd5b505afa1580156115ea573d6000803e3d6000fd5b505050506040513d602081101561160057600080fd5b5051600654604080516314a6bf0f60e01b815290519293506000926001600160a01b03909216916314a6bf0f91600480820192602092909190829003018186803b15801561164d57600080fd5b505afa158015611661573d6000803e3d6000fd5b505050506040513d602081101561167757600080fd5b505190508181018414611691576000945050505050610e97565b60075460408051630d9a6b3560e01b815290516000926001600160a01b031691630d9a6b35916004808301926020929190829003018186803b1580156116d657600080fd5b505afa1580156116ea573d6000803e3d6000fd5b505050506040513d602081101561170057600080fd5b5051600c5460408051631e22314360e01b815290519293506000926001600160a01b0390921691631e22314391600480820192602092909190829003018186803b15801561174d57600080fd5b505afa158015611761573d6000803e3d6000fd5b505050506040513d602081101561177757600080fd5b5051905060005b6001600160a01b0382161561188957600a54604080516370a0823160e01b81526001600160a01b038581166004830152915191909216916370a08231916024808301926020929190829003018186803b1580156117da57600080fd5b505afa1580156117ee573d6000803e3d6000fd5b505050506040513d602081101561180457600080fd5b5051600c546040805163765e015960e01b81526001600160a01b0386811660048301529151949093019391169163765e0159916024808301926020929190829003018186803b15801561185657600080fd5b505afa15801561186a573d6000803e3d6000fd5b505050506040513d602081101561188057600080fd5b5051915061177e565b858184010187116118a4576000975050505050505050610e97565b600197505050505050505090565b6000606486069050600d81606481106118c757fe5b0154604080516342a7f5eb60e11b8152600481018890526001600160a01b0387811660248301528681166044830152606482018690529151919092169163854febd691608480830192600092919082900301818387803b158015610de357600080fd5b600080600c60009054906101000a90046001600160a01b03166001600160a01b0316631e2231436040518163ffffffff1660e01b815260040160206040518083038186803b15801561197b57600080fd5b505afa15801561198f573d6000803e3d6000fd5b505050506040513d60208110156119a557600080fd5b505190505b6001600160a01b03811615610e91576001600354604080516321e3780160e01b81526001600160a01b038581166004830152915191909216916321e37801916024808301926020929190829003018186803b158015611a0857600080fd5b505afa158015611a1c573d6000803e3d6000fd5b505050506040513d6020811015611a3257600080fd5b50516004811115611a3f57fe5b6004811115611a4a57fe5b14611a59576000915050610e97565b6002546003546040805163d66a255360e01b81526001600160a01b0385811660048301529151919092169163d66a2553916024808301926020929190829003018186803b158015611aa957600080fd5b505afa158015611abd573d6000803e3d6000fd5b505050506040513d6020811015611ad357600080fd5b50511015611ae5576000915050610e97565b60035460408051630326771360e51b81526001600160a01b038481166004830152915191909216916364cee260916024808301926020929190829003018186803b158015611b3257600080fd5b505afa158015611b46573d6000803e3d6000fd5b505050506040513d6020811015611b5c57600080fd5b5051611b6c576000915050610e97565b600c546040805163765e015960e01b81526001600160a01b0384811660048301529151919092169163765e0159916024808301926020929190829003018186803b158015611bb957600080fd5b505afa158015611bcd573d6000803e3d6000fd5b505050506040513d6020811015611be357600080fd5b505190506119aa565b600080606485069050600d8160648110611c0257fe5b01546040805163390b5f2760e01b81526001600160a01b038781166004830152602482018790529151919092169163390b5f279160448083019260209291908290030181600087803b15801561099e57600080fd5b6005546000906001600160a01b03163115611c7457506000610e97565b50600190565b600060146071541115611c7457506000610e97565b6000606485069050600d8160648110611ca457fe5b015460408051633ddd87af60e11b8152600481018790526001600160a01b038681166024830152858116604483015291519190921691637bbb0f5e91606480830192600092919082900301818387803b15801561127157600080fd5b6000606483069050600d8160648110611d1557fe5b01546040805163f47a1ea760e01b81526004810185905290516001600160a01b039092169163f47a1ea79160248082019260009290919082900301818387803b158015610d3357600080fd5b6000606484069050600d8160648110611d7657fe5b0154604051634afbac5160e01b8152602060048201818152602483018690526001600160a01b0390931692634afbac5192879287929182916044909101908590850280828437600081840152601f19601f8201169050808301925050509350505050600060405180830381600087803b158015610b8f57600080fd5b6009546001600160a01b031681565b60006064840690506000600d8260648110611e1857fe5b01546001546001600160a01b039091169150813190600090611e3d9083908890612302565b90506000611e4e82876001546123de565b60408051639113473160e01b81526004810185905260248101839052600060448201819052606482018190526084820181905291519293506001600160a01b0387169263911347319260a48084019391929182900301818387803b158015611eb557600080fd5b505af1158015611ec9573d6000803e3d6000fd5b50505050600360009054906101000a90046001600160a01b03166001600160a01b03166349eefeee6040518163ffffffff1660e01b815260040160206040518083038186803b158015611f1b57600080fd5b505afa158015611f2f573d6000803e3d6000fd5b505050506040513d6020811015611f4557600080fd5b50516071819055610ba357fe5b6000606483069050600d8160648110611f6757fe5b01546040805163320d84db60e11b81526004810185905290516001600160a01b039092169163641b09b69160248082019260009290919082900301818387803b158015610d3357600080fd5b6000606485069050600d8160648110611fc857fe5b01546040805163190f7b2360e21b8152600481018790526001600160a01b03868116602483015285811660448301529151919092169163643dec8c91606480830192600092919082900301818387803b15801561127157600080fd5b6000606487069050600d816064811061203957fe5b015460408051639113473160e01b815260048101899052602481018890526001600160a01b0387811660448301528681166064830152608482018690529151919092169163911347319160a480830192600092919082900301818387803b1580156113d457600080fd5b600a546001600160a01b031681565b6003546000906001600160a01b031631156120cf57506000610e97565b6004546001600160a01b031631156120e957506000610e97565b600560009054906101000a90046001600160a01b03166001600160a01b031663c5c3937e6040518163ffffffff1660e01b815260040160206040518083038186803b15801561213757600080fd5b505afa15801561214b573d6000803e3d6000fd5b505050506040513d602081101561216157600080fd5b50516005546001600160a01b0316311461217d57506000610e97565b600660009054906101000a90046001600160a01b03166001600160a01b031663c5c3937e6040518163ffffffff1660e01b815260040160206040518083038186803b1580156121cb57600080fd5b505afa1580156121df573d6000803e3d6000fd5b505050506040513d60208110156121f557600080fd5b50516006546001600160a01b0316311461221157506000610e97565b600760009054906101000a90046001600160a01b03166001600160a01b031663c5c3937e6040518163ffffffff1660e01b815260040160206040518083038186803b15801561225f57600080fd5b505afa158015612273573d6000803e3d6000fd5b505050506040513d602081101561228957600080fd5b50516007546001600160a01b031631146122a557506000610e97565b600a546001600160a01b031631156122bf57506000610e97565b600b546001600160a01b031631156122d957506000610e97565b600c546001600160a01b03163115611c7457506000610e97565b6008546001600160a01b031681565b600080600b60009054906101000a90046001600160a01b03166001600160a01b03166398d5fdca6040518163ffffffff1660e01b815260040160206040518083038186803b15801561235357600080fd5b505afa158015612367573d6000803e3d6000fd5b505050506040513d602081101561237d57600080fd5b505190508061238b57600080fd5b60006123b2826123a6600254876124ca90919063ffffffff16565b9063ffffffff61252c16565b90508086116123c057600080fd5b600081870386816123cd57fe5b0691909101925050505b9392505050565b600080600b60009054906101000a90046001600160a01b03166001600160a01b03166398d5fdca6040518163ffffffff1660e01b815260040160206040518083038186803b15801561242f57600080fd5b505afa158015612443573d6000803e3d6000fd5b505050506040513d602081101561245957600080fd5b5051600254909150849060009061247790839063ffffffff61256e16565b905060006124868883866125c8565b9050858110156124be576124a4866123a68a8763ffffffff6124ca16565b91506124bb600254836125f890919063ffffffff16565b92505b50909695505050505050565b6000826124d957506000612526565b828202828482816124e657fe5b04146125235760405162461bcd60e51b81526004018080602001828103825260218152602001806127376021913960400191505060405180910390fd5b90505b92915050565b600061252383836040518060400160405280601a81526020017f536166654d6174683a206469766973696f6e206279207a65726f00000000000081525061263a565b600082820183811015612523576040805162461bcd60e51b815260206004820152601b60248201527f536166654d6174683a206164646974696f6e206f766572666c6f770000000000604482015290519081900360640190fd5b600082156125ef5760006125e6846123a6878663ffffffff6124ca16565b91506123d79050565b506000196123d7565b600061252383836040518060400160405280601e81526020017f536166654d6174683a207375627472616374696f6e206f766572666c6f7700008152506126dc565b600081836126c65760405162461bcd60e51b81526004018080602001828103825283818151815260200191508051906020019080838360005b8381101561268b578181015183820152602001612673565b50505050905090810190601f1680156126b85780820380516001836020036101000a031916815260200191505b509250505060405180910390fd5b5060008385816126d257fe5b0495945050505050565b6000818484111561272e5760405162461bcd60e51b815260206004820181815283516024840152835190928392604490910191908501908083836000831561268b578181015183820152602001612673565b50505090039056fe536166654d6174683a206d756c7469706c69636174696f6e206f766572666c6f77a2646970667358221220db84c66cf7b3e179e6ac7f7ba26c3fdbe7b5a6fdf13a56b8c83507c2a1cf246d64736f6c634300060b0033608060405234801561001057600080fd5b50600380546001600160a01b031916339081179091556040516000907f8be0079c531659141344cd1fd0a4f28419497f9722a3daafe3b4186f6b6457e0908290a3615a8e80620000616000396000f3fe608060405234801561001057600080fd5b506004361061044a5760003560e01c8063756b253e1161023c578063b82f263d11610146578063d3d6f843116100c3578063f36b242511610087578063f36b242514610c85578063f59fac2d14610c8d578063f8d8989814610cb3578063f92d343314610665578063fe2ba84814610cbb5761044a565b8063d3d6f84314610bd3578063d5b3563514610bff578063d66a255314610c1c578063d9a7244414610c42578063e2ac77b014610c5f5761044a565b8063c52861f21161010a578063c52861f214610b69578063c7b5548114610b71578063cbd138ae14610b79578063d293c71014610b9f578063d380a37c14610bcb5761044a565b8063b82f263d14610aa2578063b91af97c14610abf578063bcd3752614610b0b578063bf9befb114610b59578063c35bc55014610b615761044a565b80638f32d59b116101d4578063a3a6401711610198578063a3a64017146109e7578063a3f4df7e146109ef578063ae91875414610a6c578063b0d8e18114610a74578063b7f8cf9b14610a9a5761044a565b80638f32d59b146109a357806396d711ff146109ab5780639976cf45146109b3578063a0d8d6bc146109df578063a20baee61461089c5761044a565b8063756b253e146108b4578063794e5724146108d1578063795d26c3146108d95780637985c5e4146108e15780637f7dde4a1461095d578063807d138d1461096557806382fe3eb91461096d578063887105d3146109935780638da5cb5b1461099b5761044a565b80633cc742251161035857806361ec893d116102d55780636ef64338116102995780636ef643381461080157806372423c171461087057806372fe25aa1461089c57806373098be9146108a4578063741bef1a146108ac5761044a565b806361ec893d14610791578063631203b01461079957806364cee260146107b6578063653d46e7146107dc57806366ca4a21146107f95761044a565b80634e443d9e1161031c5780634e443d9e146106fe57806352512eaa1461072f5780635733d58f146107555780635d6b480f1461075d5780635dba4c4a146107895761044a565b80633cc74225146106a3578063477d66cf146106ab578063480cd578146106c85780634870dd9a146106ee57806349eefeee146106f65761044a565b80631e8b1c2b116103e657806326b4d8fd116103aa57806326b4d8fd1461065d57806328d28b5b146106655780632b11551a1461066d5780632f8655681461067557806331eaf05c1461069b5761044a565b80631e8b1c2b1461057c5780631f68f20a1461061f5780631f7af3c31461062757806321e378011461062f57806324092669146106555761044a565b8063048c661d1461044f578063071a7541146104735780630b0765571461048d57806312610e92146104b5578063139f2e8c146104e157806315d549f1146104e95780631673c79a1461050f57806318f2817a1461054e5780631bf4355514610574575b600080fd5b610457610ce1565b604080516001600160a01b039092168252519081900360200190f35b61047b610cf0565b60408051918252519081900360200190f35b6104b3600480360360208110156104a357600080fd5b50356001600160a01b0316610cf5565b005b61047b600480360360408110156104cb57600080fd5b506001600160a01b038135169060200135610d1d565b61047b610d75565b61047b600480360360208110156104ff57600080fd5b50356001600160a01b0316610d82565b6105356004803603602081101561052557600080fd5b50356001600160a01b0316610da6565b6040805192835260208301919091528051918290030190f35b61047b6004803603602081101561056457600080fd5b50356001600160a01b0316610dbf565b61047b610dd2565b6104b36004803603602081101561059257600080fd5b8101906020810181356401000000008111156105ad57600080fd5b8201836020820111156105bf57600080fd5b803590602001918460208302840111640100000000831117156105e157600080fd5b919080806020026020016040519081016040528093929190818152602001838360200280828437600092019190915250929550610ddf945050505050565b61047b61117f565b610457611185565b61047b6004803603602081101561064557600080fd5b50356001600160a01b0316611194565b61047b6111be565b61047b6111d1565b61047b6111d7565b61047b6111e8565b6104b36004803603602081101561068b57600080fd5b50356001600160a01b03166111fa565b61047b611260565b610457611266565b61047b600480360360208110156106c157600080fd5b5035611275565b61047b600480360360208110156106de57600080fd5b50356001600160a01b0316611288565b61047b6112a6565b61047b6112ab565b61071b6004803603602081101561071457600080fd5b50356112b1565b604080519115158252519081900360200190f35b61047b6004803603602081101561074557600080fd5b50356001600160a01b03166112bc565b61047b611382565b6104b36004803603604081101561077357600080fd5b506001600160a01b03813516906020013561138e565b6104b36113da565b61047b611440565b61047b600480360360208110156107af57600080fd5b5035611445565b61047b600480360360208110156107cc57600080fd5b50356001600160a01b0316611452565b6104b3600480360360208110156107f257600080fd5b5035611470565b61047b61181c565b6108276004803603602081101561081757600080fd5b50356001600160a01b031661182e565b6040518086815260200185815260200184815260200183600481111561084957fe5b60ff1681526001600160801b03909216602083015250604080519182900301945092505050f35b61047b6004803603604081101561088657600080fd5b506001600160a01b038135169060200135611868565b61047b6118c5565b61047b6118d1565b6104576118d7565b610457600480360360208110156108ca57600080fd5b50356118e6565b61047b61190d565b61047b611919565b6104b360048036036101608110156108f857600080fd5b506001600160a01b038135811691602081013582169160408201358116916060810135821691608082013581169160a081013582169160c082013581169160e08101358216916101008201358116916101208101358216916101409091013516611a1a565b610457611e13565b61047b611e22565b6104b36004803603602081101561098357600080fd5b50356001600160a01b0316611e28565b61047b611e39565b610457611ef5565b61071b611f04565b61047b611f15565b61047b600480360360408110156109c957600080fd5b506001600160a01b038135169060200135611f1b565b61047b611f4e565b610457611f54565b6109f7611f63565b6040805160208082528351818301528351919283929083019185019080838360005b83811015610a31578181015183820152602001610a19565b50505050905090810190601f168015610a5e5780820380516001836020036101000a031916815260200191505b509250505060405180910390f35b610457611f8b565b61047b60048036036020811015610a8a57600080fd5b50356001600160a01b0316611f9a565b610457611fc1565b61047b60048036036020811015610ab857600080fd5b5035611fd0565b610ae560048036036020811015610ad557600080fd5b50356001600160a01b0316611fdb565b604080519485526020850193909352838301919091526060830152519081900360800190f35b6104b3600480360360e0811015610b2157600080fd5b508035906001600160a01b03602082013581169160408101358216916060820135169060808101359060a08101359060c0013561203f565b61047b6127de565b61047b6127e4565b61047b6127eb565b61047b6127fd565b6104b360048036036020811015610b8f57600080fd5b50356001600160a01b0316612809565b61047b60048036036040811015610bb557600080fd5b506001600160a01b03813516906020013561281c565b61047b61283b565b61047b60048036036040811015610be957600080fd5b506001600160a01b038135169060200135612841565b61047b60048036036020811015610c1557600080fd5b5035612877565b61047b60048036036020811015610c3257600080fd5b50356001600160a01b031661288a565b61045760048036036020811015610c5857600080fd5b50356128a5565b61071b60048036036020811015610c7557600080fd5b50356001600160a01b03166128cf565b61047b61292d565b61047b60048036036020811015610ca357600080fd5b50356001600160a01b031661293a565b61045761296b565b6104b360048036036020811015610cd157600080fd5b50356001600160a01b031661297a565b6005546001600160a01b031681565b600281565b610cfd61298b565b600054600154610d1a916001600160a01b039081169116836129d6565b50565b6000610d2761298b565b6001600160a01b0383166000908152600e6020526040812054610d50908463ffffffff612af816565b6001600160a01b0385166000908152600e602052604090208190559150505b92915050565b680ad78ebc5ac620000081565b6000610d8c61298b565b610d9582612b41565b6001600160801b031690505b919050565b6014602052600090815260409020805460019091015482565b6000610dc961298b565b610d6f82612bdb565b686194049f30f720000081565b8051610e1c5760405162461bcd60e51b81526004018080602001828103825260368152602001806159146036913960400191505060405180910390fd5b6000546001546005546001600160a01b03928316929182169116610e3e61560c565b610e4661563d565b600260009054906101000a90046001600160a01b03166001600160a01b0316630fdb11cf6040518163ffffffff1660e01b8152600401602060405180830381600087803b158015610e9657600080fd5b505af1158015610eaa573d6000803e3d6000fd5b505050506040513d6020811015610ec057600080fd5b5051825260408051630d9a6b3560e01b815290516001600160a01b03851691630d9a6b35916004808301926020929190829003018186803b158015610f0457600080fd5b505afa158015610f18573d6000803e3d6000fd5b505050506040513d6020811015610f2e57600080fd5b505160208301528151610f4090612c8a565b1580156040840152610f6857610f618585846000015185602001518a612ca7565b9050610f80565b610f7d8585846000015185602001518a612ed7565b90505b6000816020015111610fc35760405162461bcd60e51b8152600401808060200182810382526022815260200180615a086022913960400191505060405180910390fd5b826001600160a01b031663335525ad82608001518360a001516040518363ffffffff1660e01b81526004018083815260200182815260200192505050600060405180830381600087803b15801561101957600080fd5b505af115801561102d573d6000803e3d6000fd5b5050505061104585858360c001518460e00151612f9f565b610100810151156110c25760075461010082015160408051628063a560e01b81526001600160a01b03938416600482015260248101929092525191871691628063a59160448082019260009290919082900301818387803b1580156110a957600080fd5b505af11580156110bd573d6000803e3d6000fd5b505050505b6110d085826040015161321f565b602081015160608301526101008101516040820151825161110892916110fc919063ffffffff612af816565b9063ffffffff612af816565b608080840182905260608085015160408086015186840151825193845260208401969096528282015291810193909352517f4152c73dd2614c4f9fc35e8c9cf16013cd588c75b49a4c1673ecffdcbcda94039281900390910190a1611177853383606001518460400151613366565b505050505050565b600c5481565b6009546001600160a01b031681565b6001600160a01b0381166000908152600e602052604081206003015460ff166004811115610d6f57fe5b6064670de0b6b3a76400005b0460050281565b60175481565b6103e8670de0b6b3a76400006111ca565b60006111f5600c54613468565b905090565b6112038161349e565b60408051600180825281830190925260609160208083019080368337019050509050818160008151811061123357fe5b60200260200101906001600160a01b031690816001600160a01b03168152505061125c81610ddf565b5050565b60135481565b6001546001600160a01b031681565b6000610d6f61128261181c565b83613506565b6001600160a01b03166000908152600e602052604090206001015490565b60c881565b60155490565b6000610d6f82612c8a565b6001600160a01b03811660009081526014602052604081205460125482906112ea908363ffffffff612af816565b9050801580611323575060016001600160a01b0385166000908152600e602052604090206003015460ff16600481111561132057fe5b14155b1561133357600092505050610da1565b6001600160a01b0384166000908152600e602052604081206002015490611378670de0b6b3a764000061136c848663ffffffff61352416565b9063ffffffff61357d16565b9695505050505050565b6714d1120d7b16000081565b61139661298b565b8060048111156113a257fe5b6001600160a01b0383166000908152600e60205260409020600301805460ff191660018360048111156113d157fe5b02179055505050565b6113e261298b565b60006113ec6135bf565b9050670de0b6b3a764000081111561140057fe5b600c8190556040805182815290517fc454ee9b76c52f782a256af821b857ca6e125d1e3333bcede402fec2bed9600c9181900360200190a1610d1a613603565b603c81565b6000610d6f61128261292d565b6001600160a01b03166000908152600e602052604090206002015490565b611478615689565b506040805160e081018252600080546001600160a01b0390811683526001548116602084015292820181905260608201819052600b548316608083015260a0820181905260c08201526005549091166114cf61560c565b6114d761563d565b600260009054906101000a90046001600160a01b03166001600160a01b0316630fdb11cf6040518163ffffffff1660e01b8152600401602060405180830381600087803b15801561152757600080fd5b505af115801561153b573d6000803e3d6000fd5b505050506040513d602081101561155157600080fd5b5051825260408051630d9a6b3560e01b815290516001600160a01b03851691630d9a6b35916004808301926020929190829003018186803b15801561159557600080fd5b505afa1580156115a9573d6000803e3d6000fd5b505050506040513d60208110156115bf57600080fd5b5051602083015281516115d190612c8a565b15801560408401526115f8576115f184836000015184602001518861365f565b9050611618565b6116158460000151856020015184600001518560200151896139fa565b90505b600081602001511161165b5760405162461bcd60e51b8152600401808060200182810382526022815260200180615a086022913960400191505060405180910390fd5b826001600160a01b031663335525ad82608001518360a001516040518363ffffffff1660e01b81526004018083815260200182815260200192505050600060405180830381600087803b1580156116b157600080fd5b505af11580156116c5573d6000803e3d6000fd5b505050506116e5846000015185602001518360c001518460e00151612f9f565b6101008101511561176457835160075461010083015160408051628063a560e01b81526001600160a01b0393841660048201526024810192909252519190921691628063a591604480830192600092919082900301818387803b15801561174b57600080fd5b505af115801561175f573d6000803e3d6000fd5b505050505b6117768460000151826040015161321f565b60208101516060830152610100810151604082015182516117a292916110fc919063ffffffff612af816565b608080840182905260608085015160408086015186840151825193845260208401969096528282015291810193909352517f4152c73dd2614c4f9fc35e8c9cf16013cd588c75b49a4c1673ecffdcbcda94039281900390910190a161181584600001513383606001518460400151613366565b5050505050565b60006111f56118296135bf565b613b2c565b600e6020526000908152604090208054600182015460028301546003909301549192909160ff81169061010090046001600160801b031685565b600061187261298b565b6001600160a01b0383166000908152600e602052604081206001015461189e908463ffffffff613b5316565b6001600160a01b0385166000908152600e6020526040902060010181905591505092915050565b670de0b6b3a764000081565b60125481565b6002546001600160a01b031681565b601581815481106118f357fe5b6000918252602090912001546001600160a01b0316905081565b670f43fc2c04ee000081565b60008054604080516314a6bf0f60e01b8152905183926001600160a01b0316916314a6bf0f916004808301926020929190829003018186803b15801561195e57600080fd5b505afa158015611972573d6000803e3d6000fd5b505050506040513d602081101561198857600080fd5b5051600154604080516314a6bf0f60e01b815290519293506000926001600160a01b03909216916314a6bf0f91600480820192602092909190829003018186803b1580156119d557600080fd5b505afa1580156119e9573d6000803e3d6000fd5b505050506040513d60208110156119ff57600080fd5b50519050611a13828263ffffffff613b5316565b9250505090565b611a22611f04565b611a73576040805162461bcd60e51b815260206004820181905260248201527f4f776e61626c653a2063616c6c6572206973206e6f7420746865206f776e6572604482015290519081900360640190fd5b611a7c8b613bad565b611a858a613bad565b611a8e89613bad565b611a9788613bad565b611aa087613bad565b611aa986613bad565b611ab285613bad565b611abb84613bad565b611ac483613bad565b611acd82613bad565b611ad681613bad565b600480546001600160a01b03199081166001600160a01b038e81169182179093556000805483168e85161790556001805483168d85161790556005805483168c85161790556006805483168b85161790556007805483168a8516179055600280548316898516179055600880548316888516179055600b80548316878516179055600980548316868516179055600a805490921692841692909217905560408051918252517f3ca631ffcd2a9b5d9ae18543fc82f58eb4ca33af9e6ab01b7a8e95331e6ed985916020908290030190a1604080516001600160a01b038c16815290517f78f058b189175430c48dc02699e3a0031ea4ff781536dc2fab847de4babdd8829181900360200190a1604080516001600160a01b038b16815290517f5ee0cae2f063ed938bb55046f6a932fb6ae792bf43624806bb90abe68a50be9b9181900360200190a1604080516001600160a01b038a16815290517f82966d27eea39b038ee0fa30cd16532bb24f6e65d31cb58fb227aa5766cdcc7f9181900360200190a1604080516001600160a01b038916815290517fcfb07d791fcafc032b35837b50eb84b74df518cf4cc287e8084f47630fa70fa09181900360200190a1604080516001600160a01b038816815290517fe67f36a6e961157d6eff83b91f3af5a62131ceb6f04954ef74f51c1c05e7f88d9181900360200190a1604080516001600160a01b038716815290517f8c537274438aa850a330284665d81a85dd38267d09e4050d416bfc94142db2649181900360200190a1604080516001600160a01b038616815290517f112220fa8dbe96141556e0dc3d74dd95075b323f4f297616048e02d82d7017159181900360200190a1604080516001600160a01b038516815290517f65f4cf077bc01e4742eb5ad98326f6e95b63548ea24b17f8d5e823111fe788009181900360200190a1604080516001600160a01b038416815290517f2ac6e99201ddc1b6eac6f8f28662d1ecafee131f6eb98c29de54528a9888a7d19181900360200190a1604080516001600160a01b038316815290517f756ebc192164c295bba134b5aacd72cc7aff8098a670d1f0a5f6b3a0b4ce67079181900360200190a1611e06613c5c565b5050505050505050505050565b6000546001600160a01b031681565b60105481565b611e3061298b565b610d1a81613ca6565b60008054604080516362e1c9bf60e11b8152905183926001600160a01b03169163c5c3937e916004808301926020929190829003018186803b158015611e7e57600080fd5b505afa158015611e92573d6000803e3d6000fd5b505050506040513d6020811015611ea857600080fd5b5051600154604080516362e1c9bf60e11b815290519293506000926001600160a01b039092169163c5c3937e91600480820192602092909190829003018186803b1580156119d557600080fd5b6003546001600160a01b031690565b6003546001600160a01b0316331490565b60115481565b6000611f2561298b565b6001600160a01b0383166000908152600e6020526040812054610d50908463ffffffff613b5316565b60165481565b600a546001600160a01b031681565b6040518060400160405280600c81526020016b2a3937bb32a6b0b730b3b2b960a11b81525081565b600b546001600160a01b031681565b6000806000611fa884613d11565b915091506000611fb88383613d97565b95945050505050565b6004546001600160a01b031681565b6000610d6f82613dcc565b6001600160a01b0381166000908152600e6020526040812080546001909101549091806120078561293a565b9150612012856112bc565b9050612024848363ffffffff613b5316565b9350612036838263ffffffff613b5316565b92509193509193565b612047615689565b506040805160e0810182526000546001600160a01b03908116825260015481166020830152600854811692820192909252600a5482166060820152600b5482166080820152600754821660a082015260065490911660c08201526120a96156c5565b6120b283613df8565b6120ba613e52565b600260009054906101000a90046001600160a01b03166001600160a01b0316630fdb11cf6040518163ffffffff1660e01b8152600401602060405180830381600087803b15801561210a57600080fd5b505af115801561211e573d6000803e3d6000fd5b505050506040513d602081101561213457600080fd5b505160c0820181905261214690613f16565b61214f89613f65565b61215e8260400151338b613fa4565b612166611919565b60e0820181905260408084015181516370a0823160e01b815233600482015291516001600160a01b03909116916370a08231916024808301926020929190829003018186803b1580156121b857600080fd5b505afa1580156121cc573d6000803e3d6000fd5b505050506040513d60208110156121e257600080fd5b505111156121ec57fe5b888152608082015160c0820151600091612207918b90614064565b1561221357508761233d565b82608001516001600160a01b0316634d6228316040518163ffffffff1660e01b815260040160206040518083038186803b15801561225057600080fd5b505afa158015612264573d6000803e3d6000fd5b505050506040513d602081101561227a57600080fd5b505190505b6001600160a01b038116158015906122ab5750670f43fc2c04ee00006122a9828460c0015161281c565b105b1561233d5782608001516001600160a01b031663b72703ac826040518263ffffffff1660e01b815260040180826001600160a01b03166001600160a01b0316815260200191505060206040518083038186803b15801561230a57600080fd5b505afa15801561231e573d6000803e3d6000fd5b505050506040513d602081101561233457600080fd5b5051905061227f565b846123485760001994505b6001600160a01b038116158015906123605750815115155b801561236c5750600085115b156124a057848060019003955050600083608001516001600160a01b031663b72703ac836040518263ffffffff1660e01b815260040180826001600160a01b03166001600160a01b0316815260200191505060206040518083038186803b1580156123d657600080fd5b505afa1580156123ea573d6000803e3d6000fd5b505050506040513d602081101561240057600080fd5b50518451602086015191925061241691846129d6565b61241e61570a565b612435858486600001518760c001518e8e8e6141d7565b90508060400151156124485750506124a0565b8051602085015161245e9163ffffffff613b5316565b602080860191909152810151604085015161247e9163ffffffff613b5316565b6040850152805184516124969163ffffffff612af816565b8452509050612348565b60008260400151116124e35760405162461bcd60e51b81526004018080602001828103825260298152602001806157b76029913960400191505060405180910390fd5b6124fa82604001518360c001518460e0015161448a565b506125088260400151614532565b60608301819052604083015161251f91908661453f565b82600001516001600160a01b0316628063a5846060015184606001516040518363ffffffff1660e01b815260040180836001600160a01b03166001600160a01b0316815260200182815260200192505050600060405180830381600087803b15801561258a57600080fd5b505af115801561259e573d6000803e3d6000fd5b5050505082606001516001600160a01b031663c91d2d3883606001516040518263ffffffff1660e01b815260040180828152602001915050600060405180830381600087803b1580156125f057600080fd5b505af1158015612604573d6000803e3d6000fd5b505050506060820151604083015161261b91612af8565b8260800181815250507f43a3f4082a4dbc33d78e317d2497d3a730bc7fc3574159dcea1056e62e5d9ad88a8360200151846040015185606001516040518085815260200184815260200183815260200182815260200194505050505060405180910390a182604001516001600160a01b0316639dc29fac3384602001516040518363ffffffff1660e01b815260040180836001600160a01b03166001600160a01b0316815260200182815260200192505050600060405180830381600087803b1580156126e757600080fd5b505af11580156126fb573d6000803e3d6000fd5b5050505082600001516001600160a01b0316632a7ba1f783602001516040518263ffffffff1660e01b815260040180828152602001915050600060405180830381600087803b15801561274d57600080fd5b505af1158015612761573d6000803e3d6000fd5b50508451608085015160408051628063a560e01b81523360048201526024810192909252516001600160a01b039092169350628063a5925060448082019260009290919082900301818387803b1580156127ba57600080fd5b505af11580156127ce573d6000803e3d6000fd5b5050505050505050505050505050565b600f5481565b6212750081565b60006111f56127f86135bf565b613468565b670ddd4b8c6c7d70d881565b61281161298b565b610d1a8160026145b4565b600080600061282a85613d11565b9150915060006113788383876146cd565b600d5481565b600061284b61298b565b6001600160a01b0383166000908152600e602052604081206001015461189e908463ffffffff612af816565b6000610d6f6128846127eb565b836146fd565b6001600160a01b03166000908152600e602052604090205490565b6000601582815481106128b457fe5b6000918252602090912001546001600160a01b031692915050565b600060016001600160a01b0383166000908152600e602052604090206003015460ff1660048111156128fd57fe5b1461290a57506000610da1565b506012546001600160a01b03821660009081526014602052604090205410919050565b60006111f5600c54613b2c565b6001600160a01b03811660009081526014602052604081206001015460135482906112ea908363ffffffff612af816565b6008546001600160a01b031681565b61298261298b565b610d1a8161475c565b6004546001600160a01b031633146129d45760405162461bcd60e51b815260040180806020018281038252603b8152602001806158d9603b913960400191505060405180910390fd5b565b6129df816128cf565b15612af3576129ed8161349e565b60006129f8826112bc565b90506000612a058361293a565b6001600160a01b0384166000908152600e6020526040902060010154909150612a34908363ffffffff613b5316565b6001600160a01b0384166000908152600e60205260409020600181019190915554612a65908263ffffffff613b5316565b6001600160a01b0384166000908152600e6020526040902055612a8783613ca6565b612a93858583856147ac565b6001600160a01b0383166000818152600e602090815260408083208054600182015460029092015483519182529381019190915280820192909252606082019290925290516000805160206158b98339815191529181900360800190a250505b505050565b6000612b3a83836040518060400160405280601e81526020017f536166654d6174683a207375627472616374696f6e206f766572666c6f7700008152506148ae565b9392505050565b601580546001808201835560008381527f55f448fdea98c4d29eb340757ef0a66cd03dbb9538908a6a81d96026b71ec47590920180546001600160a01b0319166001600160a01b03861617905591549091612b9c9190612af8565b6001600160a01b03929092166000908152600e602052604090206003018054610100600160881b0319166101006001600160801b038516021790555090565b6001600160a01b0381166000908152600e60205260408120600101548190612c0290614945565b6001600160a01b0384166000908152600e60205260409020600201805490829055600f5491925090612c4c908390612c40908463ffffffff612af816565b9063ffffffff613b5316565b600f81905560408051918252517f6bac5e0eb3c44eb03a60ab11ec3a2c051771616aecadbcfff2630aabae5203829181900360200190a15092915050565b600080612c9683613dcc565b6714d1120d7b160000119392505050565b612caf61563d565b612cb761572d565b612cbf61563d565b84825260006080830152612cd1611919565b60a0830152612cde611e39565b60c0830152600060208301525b835182602001511015612ecc5783826020015181518110612d0857fe5b6020908102919091018101516001600160a01b0316606084018190526000908152600e909152604090206003015460019060ff166004811115612d4757fe5b14612d5157612ebc565b612d5f82606001518761281c565b60408301526080820151612e5e57670f43fc2c04ee0000826040015110158015612d8857508151155b15612d9257612ebc565b6000612da78360c001518460a00151896146cd565b9050612dc48989856060015186604001518760000151868d614981565b60808101518451919350612dde919063ffffffff612af816565b8352608082015160a0840151612df99163ffffffff612af816565b8360a0018181525050612e2e8261010001516110fc84604001516110fc8660a001518860c00151612af890919063ffffffff16565b60c0840152612e3d8483614cb4565b9350612e528360c001518460a0015189614dcb565b15608084015250612ebc565b81608001518015612e7a5750670f43fc2c04ee00008260400151105b15612ebc57612e93888884606001518560000151614dec565b60808101518351919250612ead919063ffffffff612af816565b8252612eb98382614cb4565b92505b6020820180516001019052612ceb565b505095945050505050565b612edf61563d565b612ee761572d565b612eef61563d565b848252600060208301525b835182602001511015612ecc5783826020015181518110612f1757fe5b60209081029190910101516001600160a01b031660608301819052612f3c908761281c565b60408301819052670f43fc2c04ee00001115612f8f57612f66888884606001518560000151614dec565b60808101518351919250612f80919063ffffffff612af816565b8252612f8c8382614cb4565b92505b6020820180516001019052612efa565b81612fa957613219565b601654600090612fcb90612c4084670de0b6b3a764000063ffffffff61352416565b90506000612ff0601754612c40670de0b6b3a76400008761352490919063ffffffff16565b90506000613009600f548461357d90919063ffffffff16565b90506000613022600f548461357d90919063ffffffff16565b905061304961303c600f548461352490919063ffffffff16565b859063ffffffff612af816565b601655600f546130719061306490839063ffffffff61352416565b849063ffffffff612af816565b601755601254613087908363ffffffff613b5316565b60125560135461309d908263ffffffff613b5316565b601381905560125460408051918252602082019290925281517f9f8bc8ab0daf5bceef75ecfd2085d1fcc6548c657ea970d9a23a60610d0737e3929181900390910190a1876001600160a01b0316632a7ba1f7876040518263ffffffff1660e01b815260040180828152602001915050600060405180830381600087803b15801561312757600080fd5b505af115801561313b573d6000803e3d6000fd5b50505050866001600160a01b0316632b7c7b11876040518263ffffffff1660e01b815260040180828152602001915050600060405180830381600087803b15801561318557600080fd5b505af1158015613199573d6000803e3d6000fd5b50505050876001600160a01b0316628063a588876040518363ffffffff1660e01b815260040180836001600160a01b03166001600160a01b0316815260200182815260200192505050600060405180830381600087803b1580156131fc57600080fd5b505af1158015613210573d6000803e3d6000fd5b50505050505050505b50505050565b600f546010819055506000826001600160a01b031663c5c3937e6040518163ffffffff1660e01b815260040160206040518083038186803b15801561326357600080fd5b505afa158015613277573d6000803e3d6000fd5b505050506040513d602081101561328d57600080fd5b5051600154604080516362e1c9bf60e11b815290519293506000926001600160a01b039092169163c5c3937e91600480820192602092909190829003018186803b1580156132da57600080fd5b505afa1580156132ee573d6000803e3d6000fd5b505050506040513d602081101561330457600080fd5b5051905061331c81612c40848663ffffffff612af816565b601181905560105460408051918252602082019290925281517f51bf4c63ec3cba9d03d43238abbdd979dd91bd16d9895c74ceea9118c7baaf60929181900390910190a150505050565b81156133e55760085460065460408051631062c15f60e11b81526001600160a01b039283166004820152868316602482015260448101869052905191909216916320c582be91606480830192600092919082900301818387803b1580156133cc57600080fd5b505af11580156133e0573d6000803e3d6000fd5b505050505b801561321957836001600160a01b0316628063a584836040518363ffffffff1660e01b815260040180836001600160a01b03166001600160a01b0316815260200182815260200192505050600060405180830381600087803b15801561344a57600080fd5b505af115801561345e573d6000803e3d6000fd5b5050505050505050565b6000610d6f613490836103e8670de0b6b3a76400005b04600502613b5390919063ffffffff16565b670de0b6b3a7640000614f5b565b60016001600160a01b0382166000908152600e602052604090206003015460ff1660048111156134ca57fe5b14610d1a5760405162461bcd60e51b815260040180806020018281038252602f815260200180615a2a602f913960400191505060405180910390fd5b6000612b3a670de0b6b3a764000061136c858563ffffffff61352416565b60008261353357506000610d6f565b8282028284828161354057fe5b0414612b3a5760405162461bcd60e51b81526004018080602001828103825260218152602001806158986021913960400191505060405180910390fd5b6000612b3a83836040518060400160405280601a81526020017f536166654d6174683a206469766973696f6e206279207a65726f000000000000815250614f71565b6000806135ca614fd6565b905060006135e0670ddd4b8c6c7d70d883614ff2565b9050611a13670de0b6b3a764000061136c83600c5461352490919063ffffffff16565b600061361a600d5442612af890919063ffffffff16565b9050603c8110610d1a5742600d81905560408051918252517f860f8d2f0c74dd487e89e2883e3b25b8159ce1e1b3433a291cba7b82c508f3bc9181900360200190a150565b61366761563d565b61366f61572d565b61367761563d565b84825260006080830152613689611919565b60a0830152613696611e39565b8260c001818152505086608001516001600160a01b0316634d6228316040518163ffffffff1660e01b815260040160206040518083038186803b1580156136dc57600080fd5b505afa1580156136f0573d6000803e3d6000fd5b505050506040513d602081101561370657600080fd5b50516001600160a01b039081166060840152608088015160408051631e22314360e01b815290516000939290921691631e22314391600480820192602092909190829003018186803b15801561375b57600080fd5b505afa15801561376f573d6000803e3d6000fd5b505050506040513d602081101561378557600080fd5b50516000602085015290505b8483602001511080156137ba5750806001600160a01b031683606001516001600160a01b031614155b156139ef57600088608001516001600160a01b031663b72703ac85606001516040518263ffffffff1660e01b815260040180826001600160a01b03166001600160a01b0316815260200191505060206040518083038186803b15801561381f57600080fd5b505afa158015613833573d6000803e3d6000fd5b505050506040513d602081101561384957600080fd5b5051606085015190915061385d908961281c565b6040850152608084015161396157670f43fc2c04ee000084604001511015801561388657508351155b1561389157506139ef565b60006138a68560c001518660a001518b6146cd565b8a5160208c01516060880151604089015189519495506138c794868f614981565b608081015186519195506138e1919063ffffffff612af816565b8552608084015160a08601516138fc9163ffffffff612af816565b8560a00181815250506139318461010001516110fc86604001516110fc8860a001518a60c00151612af890919063ffffffff16565b60c08601526139408685614cb4565b95506139558560c001518660a001518b614dcb565b156080860152506139d1565b8360800151801561397d5750670f43fc2c04ee00008460400151105b156139cb5761399e89600001518a6020015186606001518760000151614dec565b608081015185519194506139b8919063ffffffff612af816565b84526139c48584614cb4565b94506139d1565b506139ef565b6001600160a01b031660608401526020830180516001019052613791565b505050949350505050565b613a0261563d565b613a0a61572d565b613a1261563d565b600b54858352600060208401526001600160a01b03165b8483602001511015613b2057806001600160a01b0316634d6228316040518163ffffffff1660e01b815260040160206040518083038186803b158015613a6e57600080fd5b505afa158015613a82573d6000803e3d6000fd5b505050506040513d6020811015613a9857600080fd5b50516001600160a01b031660608401819052613ab4908861281c565b60408401819052670f43fc2c04ee00001115613b0b57613ade898985606001518660000151614dec565b60808101518451919350613af8919063ffffffff612af816565b8352613b048483614cb4565b9350613b10565b613b20565b6020830180516001019052613a29565b50505095945050505050565b6000610d6f613b46836103e8670de0b6b3a764000061347e565b66b1a2bc2ec50000614f5b565b600082820183811015612b3a576040805162461bcd60e51b815260206004820152601b60248201527f536166654d6174683a206164646974696f6e206f766572666c6f770000000000604482015290519081900360640190fd5b6001600160a01b038116613c08576040805162461bcd60e51b815260206004820152601e60248201527f4163636f756e742063616e6e6f74206265207a65726f20616464726573730000604482015290519081900360640190fd5b803b8061125c576040805162461bcd60e51b815260206004820181905260248201527f4163636f756e7420636f64652073697a652063616e6e6f74206265207a65726f604482015290519081900360640190fd5b6003546040516000916001600160a01b0316907f8be0079c531659141344cd1fd0a4f28419497f9722a3daafe3b4186f6b6457e0908390a3600380546001600160a01b0319169055565b601280546001600160a01b0383166000908152601460209081526040918290209283556013546001909301839055925481519081529283019190915280517fc437f324d85e369394148dd9d62f98f534b382e01ed3dd2eb98138fb6d3ab49a9281900390910190a150565b6000806000613d1f846112bc565b90506000613d2c8561293a565b6001600160a01b0386166000908152600e602052604081206001015491925090613d5c908463ffffffff613b5316565b6001600160a01b0387166000908152600e602052604081205491925090613d89908463ffffffff613b5316565b919550909350505050915091565b60008115613dc357613dbc8261136c8568056bc75e2d6310000063ffffffff61352416565b9050610d6f565b50600019610d6f565b600080613dd7611e39565b90506000613de3611919565b9050613df08282866146cd565b949350505050565b6611c37937e080008110801590613e175750670de0b6b3a76400008111155b610d1a5760405162461bcd60e51b81526004018080602001828103825260308152602001806159ae6030913960400191505060405180910390fd5b60095460408051631e425be160e11b815290516000926001600160a01b031691633c84b7c2916004808301926020929190829003018186803b158015613e9757600080fd5b505afa158015613eab573d6000803e3d6000fd5b505050506040513d6020811015613ec157600080fd5b50519050613ed8816212750063ffffffff613b5316565b421015610d1a5760405162461bcd60e51b81526004018080602001828103825260408152602001806158586040913960400191505060405180910390fd5b670f43fc2c04ee0000613f2882613dcc565b1015610d1a5760405162461bcd60e51b815260040180806020018281038252602a8152602001806159de602a913960400191505060405180910390fd5b60008111610d1a5760405162461bcd60e51b815260040180806020018281038252602e81526020018061594a602e913960400191505060405180910390fd5b80836001600160a01b03166370a08231846040518263ffffffff1660e01b815260040180826001600160a01b03166001600160a01b0316815260200191505060206040518083038186803b158015613ffb57600080fd5b505afa15801561400f573d6000803e3d6000fd5b505050506040513d602081101561402557600080fd5b50511015612af35760405162461bcd60e51b815260040180806020018281038252604e8152602001806157e0604e913960600191505060405180910390fd5b60006001600160a01b03831615806140fb5750836001600160a01b0316635dbe47e8846040518263ffffffff1660e01b815260040180826001600160a01b03166001600160a01b0316815260200191505060206040518083038186803b1580156140cd57600080fd5b505afa1580156140e1573d6000803e3d6000fd5b505050506040513d60208110156140f757600080fd5b5051155b806141165750670f43fc2c04ee0000614114848461281c565b105b1561412357506000612b3a565b6000846001600160a01b031663765e0159856040518263ffffffff1660e01b815260040180826001600160a01b03166001600160a01b0316815260200191505060206040518083038186803b15801561417b57600080fd5b505afa15801561418f573d6000803e3d6000fd5b505050506040513d60208110156141a557600080fd5b505190506001600160a01b0381161580611fb85750670f43fc2c04ee00006141cd828561281c565b1095945050505050565b6141df61570a565b6001600160a01b0387166000908152600e602052604090205461421c90879061421790680ad78ebc5ac620000063ffffffff612af816565b614f5b565b80825261423d90869061136c90670de0b6b3a764000063ffffffff61352416565b60208083019190915281516001600160a01b0389166000908152600e90925260408220546142709163ffffffff612af816565b6020808401516001600160a01b038b166000908152600e909252604082206001015492935090916142a69163ffffffff612af816565b9050680ad78ebc5ac620000082141561433f576142c28961475c565b6142cd8960046145b4565b6142e28a8a680ad78ebc5ac62000008461509d565b886001600160a01b03166000805160206158b9833981519152600080600060036040518085815260200184815260200183815260200182600381111561432457fe5b60ff16815260200194505050505060405180910390a261447c565b600061434b8284613d97565b9050848114158061436c5750686194049f30f720000061436a84615251565b105b15614380575050600160408301525061447f565b60808b01516040805163015f109360e51b81526001600160a01b038d81166004830152602482018590528a81166044830152898116606483015291519190921691632be2126091608480830192600092919082900301818387803b1580156143e757600080fd5b505af11580156143fb573d6000803e3d6000fd5b5050506001600160a01b038b166000908152600e60205260409020848155600101839055506144298a612bdb565b506001600160a01b038a166000818152600e6020908152604091829020600201548251878152918201869052818301526003606082015290516000805160206158b98339815191529181900360800190a2505b50505b979650505050505050565b6000806144956135bf565b905060006144ad8461136c888863ffffffff61352416565b905060006144d26144c583600263ffffffff61357d16565b849063ffffffff613b5316565b90506144e681670de0b6b3a7640000614f5b565b9050600081116144f257fe5b600c8190556040805182815290517fc454ee9b76c52f782a256af821b857ca6e125d1e3333bcede402fec2bed9600c9181900360200190a1611378613603565b6000610d6f6128846111e8565b600061455d8361136c86670de0b6b3a764000063ffffffff61352416565b905081811115613219576040805162461bcd60e51b815260206004820152601d60248201527f4665652065786365656465642070726f7669646564206d6178696d756d000000604482015290519081900360640190fd5b60008160048111156145c257fe5b141580156145dc575060018160048111156145d957fe5b14155b6145e257fe5b6015546145ee8161526c565b6001600160a01b0383166000908152600e60205260409020600301805483919060ff1916600183600481111561462057fe5b02179055506001600160a01b0383166000908152600e602090815260408083206001808201859055908490556014909252822082815501556146628382615325565b600b5460408051631484968760e11b81526001600160a01b038681166004830152915191909216916329092d0e91602480830192600092919082900301818387803b1580156146b057600080fd5b505af11580156146c4573d6000803e3d6000fd5b50505050505050565b600082156146f45760006146eb8461136c878663ffffffff61352416565b9150612b3a9050565b50600019612b3a565b60008061471c670de0b6b3a764000061136c868663ffffffff61352416565b9050828110612b3a5760405162461bcd60e51b81526004018080602001828103825260368152602001806159786036913960400191505060405180910390fd5b6001600160a01b0381166000908152600e6020526040902060020154600f5461478b908263ffffffff612af816565b600f55506001600160a01b03166000908152600e6020526040812060020155565b826001600160a01b0316632a7ba1f7836040518263ffffffff1660e01b815260040180828152602001915050600060405180830381600087803b1580156147f257600080fd5b505af1158015614806573d6000803e3d6000fd5b50505050836001600160a01b0316632b7c7b11836040518263ffffffff1660e01b815260040180828152602001915050600060405180830381600087803b15801561485057600080fd5b505af1158015614864573d6000803e3d6000fd5b50505050826001600160a01b0316638f7be730826040518263ffffffff1660e01b815260040180828152602001915050600060405180830381600087803b15801561344a57600080fd5b6000818484111561493d5760405162461bcd60e51b81526004018080602001828103825283818151815260200191508051906020019080838360005b838110156149025781810151838201526020016148ea565b50505050905090810190601f16801561492f5780820380516001836020036101000a031916815260200191505b509250505060405180910390fd5b505050900390565b6000806011546000141561495a575081610d6f565b60006010541161496657fe5b612b3a60115461136c6010548661352490919063ffffffff16565b61498961563d565b614991615775565b6015546001106149a1575061447f565b6149aa87611fdb565b604085015260208481019190915284018190529083526149c9906154cc565b60408301819052680ad78ebc5ac6200000606084015260208301516149f39163ffffffff612af816565b8152670de0b6b3a76400008611614afb57614a188989836020015184604001516147ac565b614a218761475c565b60006080830181905260a0830152815160c0830152805160e0830152614a488760036145b4565b866001600160a01b031660008051602061579783398151915283600001518460200151600260405180848152602001838152602001826003811115614a8957fe5b60ff168152602001935050505060405180910390a2866001600160a01b03166000805160206158b98339815191526000806000600260405180858152602001848152602001838152602001826003811115614ae057fe5b60ff16815260200194505050505060405180910390a2614ca8565b670de0b6b3a764000086118015614b195750670f43fc2c04ee000086105b15614b6957614b328989836020015184604001516147ac565b614b3b8761475c565b81518151614b4a9190876154d3565b60e086015260c085015260a08401526080830152614a488760036145b4565b670f43fc2c04ee00008610158015614b8057508386105b8015614b8d575081518510155b15614c9757614ba68989836020015184604001516147ac565b84614bad57fe5b614bb68761475c565b614bc9826000015183602001518561553f565b9150614bd68760036145b4565b61010082015115614c565760075461010083015160408051633f10abab60e01b81526001600160a01b038b81166004830152602482019390935290519190921691633f10abab91604480830192600092919082900301818387803b158015614c3d57600080fd5b505af1158015614c51573d6000803e3d6000fd5b505050505b866001600160a01b031660008051602061579783398151915283600001518460a00151600260405180848152602001838152602001826003811115614a8957fe5b614c9f61563d565b915061447f9050565b50979650505050505050565b614cbc61563d565b60408083015190840151614cd59163ffffffff613b5316565b604082015260608083015190840151614cf39163ffffffff613b5316565b606082015281516020840151614d0e9163ffffffff613b5316565b6020808301919091528201518351614d2b9163ffffffff613b5316565b815260808083015190840151614d469163ffffffff613b5316565b608082015260a08083015190840151614d649163ffffffff613b5316565b60a082015260c08083015190840151614d829163ffffffff613b5316565b60c082015260e08083015190840151614da09163ffffffff613b5316565b60e08201526101008083015190840151614dbf9163ffffffff613b5316565b61010082015292915050565b600080614dd98585856146cd565b6714d1120d7b1600001195945050505050565b614df461563d565b614dfc615775565b614e0584611fdb565b60408501908152602085810192835286019290925291845290519051614e2f9188918891906147ac565b614e388461475c565b614e4582602001516154cc565b60408301819052680ad78ebc5ac620000060608401526020830151600091614e73919063ffffffff612af816565b9050614e84836000015182866154d3565b60e087015260c086015260a08501526080840152614ea38560036145b4565b846001600160a01b031660008051602061579783398151915284600001518560200151600160405180848152602001838152602001826003811115614ee457fe5b60ff168152602001935050505060405180910390a2846001600160a01b03166000805160206158b98339815191526000806000600160405180858152602001848152602001838152602001826003811115614f3b57fe5b60ff16815260200194505050505060405180910390a25050949350505050565b6000818310614f6a5781612b3a565b5090919050565b60008183614fc05760405162461bcd60e51b81526020600482018181528351602484015283519092839260449091019190850190808383600083156149025781810151838201526020016148ea565b506000838581614fcc57fe5b0495945050505050565b60006111f5603c61136c600d5442612af890919063ffffffff16565b6000631f54050082111561500857631f54050091505b8161501c5750670de0b6b3a7640000610d6f565b670de0b6b3a764000083835b6001811115615093576002810661505d5761504382836155d9565b915061505681600263ffffffff61357d16565b905061508e565b61506782846155d9565b925061507382836155d9565b915061508b600261136c83600163ffffffff612af816565b90505b615028565b61137882846155d9565b6040808501516006548251632770a7eb60e21b81526001600160a01b039182166004820152602481018690529251911691639dc29fac91604480830192600092919082900301818387803b1580156150f457600080fd5b505af1158015615108573d6000803e3d6000fd5b5050505083600001516001600160a01b0316632a7ba1f7836040518263ffffffff1660e01b815260040180828152602001915050600060405180830381600087803b15801561515657600080fd5b505af115801561516a573d6000803e3d6000fd5b505050508360a001516001600160a01b0316633f10abab84836040518363ffffffff1660e01b815260040180836001600160a01b03166001600160a01b0316815260200182815260200192505050600060405180830381600087803b1580156151d257600080fd5b505af11580156151e6573d6000803e3d6000fd5b5050505083600001516001600160a01b0316628063a58560a00151836040518363ffffffff1660e01b815260040180836001600160a01b03166001600160a01b0316815260200182815260200192505050600060405180830381600087803b15801561344a57600080fd5b6000610d6f82680ad78ebc5ac620000063ffffffff612af816565b6001811180156152ea5750600b546040805163de8fa43160e01b815290516001926001600160a01b03169163de8fa431916004808301926020929190829003018186803b1580156152bc57600080fd5b505afa1580156152d0573d6000803e3d6000fd5b505050506040513d60208110156152e657600080fd5b5051115b610d1a5760405162461bcd60e51b815260040180806020018281038252602a81526020018061582e602a913960400191505060405180910390fd5b6001600160a01b0382166000908152600e602052604081206003015460ff169081600481111561535157fe5b1415801561536b5750600181600481111561536857fe5b14155b61537157fe5b6001600160a01b0383166000908152600e602052604081206003015461010090046001600160801b03169083906153a9826001612af8565b905080836001600160801b031611156153be57fe5b6000601582815481106153cd57fe5b600091825260209091200154601580546001600160a01b03909216925082916001600160801b0387169081106153ff57fe5b600091825260208083209190910180546001600160a01b0319166001600160a01b03948516179055918316808252600e83526040918290206003018054610100600160881b0319166101006001600160801b038a169081029190911790915582519182529281019290925280517f02b04ae5f7be9ca7c103293a2aa15f3c339d15d6eda53b721fef7b0e609c831a9281900390910190a160158054806154a157fe5b600082815260209020810160001990810180546001600160a01b031916905501905550505050505050565b60c8900490565b60008080808415615529576154e88786614f5b565b93506154fe8761136c888763ffffffff61352416565b9250615510878563ffffffff612af816565b9150615522868463ffffffff612af816565b9050615536565b5060009250829150859050845b93509350935093565b61554761563d565b83815260208101839052600061556f8361136c87670f43fc2c04ee000063ffffffff61352416565b905061557a816154cc565b60408301819052680ad78ebc5ac62000006060840152608083018690526155a890829063ffffffff612af816565b60a08301526155bd848263ffffffff612af816565b61010083015250600060c0820181905260e08201529392505050565b6000806155ec848463ffffffff61352416565b9050613df0670de0b6b3a764000061136c836706f05b59d3b20000613b53565b6040518060a00160405280600081526020016000815260200160001515815260200160008152602001600081525090565b6040518061012001604052806000815260200160008152602001600081526020016000815260200160008152602001600081526020016000815260200160008152602001600081525090565b6040805160e081018252600080825260208201819052918101829052606081018290526080810182905260a0810182905260c081019190915290565b60405180610100016040528060008152602001600081526020016000815260200160008152602001600081526020016000815260200160008152602001600081525090565b604051806060016040528060008152602001600081526020016000151581525090565b6040518060e0016040528060008152602001600081526020016000815260200160006001600160a01b0316815260200160001515815260200160008152602001600081525090565b6040518060600160405280600081526020016000815260200160008152509056feea67486ed7ebe3eea8ab3390efd4a3c8aae48be5bea27df104a8af786c40843454726f76654d616e616765723a20556e61626c6520746f2072656465656d20616e7920616d6f756e7454726f76654d616e616765723a2052657175657374656420726564656d7074696f6e20616d6f756e74206d757374206265203c3d20757365722773206465627420746f6b656e2062616c616e636554726f76654d616e616765723a204f6e6c79206f6e652074726f766520696e207468652073797374656d54726f76654d616e616765723a20526564656d7074696f6e7320617265206e6f7420616c6c6f77656420647572696e6720626f6f747374726170207068617365536166654d6174683a206d756c7469706c69636174696f6e206f766572666c6f77c3770d654ed33aeea6bf11ac8ef05d02a6a04ed4686dd2f624d853bbec43cc8b54726f76654d616e616765723a2043616c6c6572206973206e6f742074686520426f72726f7765724f7065726174696f6e7320636f6e747261637454726f76654d616e616765723a2043616c6c646174612061646472657373206172726179206d757374206e6f7420626520656d70747954726f76654d616e616765723a20416d6f756e74206d7573742062652067726561746572207468616e207a65726f54726f76654d616e616765723a2046656520776f756c642065617420757020616c6c2072657475726e656420636f6c6c61746572616c4d6178206665652070657263656e74616765206d757374206265206265747765656e20302e352520616e64203130302554726f76654d616e616765723a2043616e6e6f742072656465656d207768656e20544352203c204d435254726f76654d616e616765723a206e6f7468696e6720746f206c697175696461746554726f76654d616e616765723a2054726f766520646f6573206e6f74206578697374206f7220697320636c6f736564a26469706673582212207d9ad0e7900a7d8908740821195f2495b34f21741f4812c6481e79c2f4f252ad64736f6c634300060b0033608060405234801561001057600080fd5b50600380546001600160a01b031916339081179091556040516000907f8be0079c531659141344cd1fd0a4f28419497f9722a3daafe3b4186f6b6457e0908290a3613730806100606000396000f3fe6080604052600436106101a35760003560e01c8063741bef1a116100e25780638f32d59b116100855780638f32d59b14610539578063a20baee614610457578063a3a6401714610562578063a3f4df7e14610577578063ae91875414610601578063c6a6cf2014610616578063f8d898981461065e578063f92d343314610673576101a3565b8063741bef1a1461046c578063761ab22c14610481578063794e572414610496578063795d26c3146104ab5780637f7dde4a146104c0578063860665b3146104d5578063887105d31461050f5780638da5cb5b14610524576101a3565b80634ff814431161014a5780634ff81443146102cf5780635530273c146102f95780635733d58f1461033a57806362a0d7991461034f57806368647db1146103965780636c37a4af146103c45780636f0b0c1c1461044257806372fe25aa14610457576101a3565b80630802c78a146101a85780630e43d8ce146101eb5780630e704d5014610223578063139f2e8c146102385780631bf435551461025f5780633cc74225146102745780633d83908a146102a55780634870dd9a146102ba575b600080fd5b3480156101b457600080fd5b506101e9600480360360608110156101cb57600080fd5b508035906001600160a01b0360208201358116916040013516610688565b005b6101e96004803603606081101561020157600080fd5b506001600160a01b03813581169160208101358216916040909101351661069f565b34801561022f57600080fd5b506101e96106b9565b34801561024457600080fd5b5061024d610ab2565b60408051918252519081900360200190f35b34801561026b57600080fd5b5061024d610abf565b34801561028057600080fd5b50610289610acc565b604080516001600160a01b039092168252519081900360200190f35b3480156102b157600080fd5b50610289610adb565b3480156102c657600080fd5b5061024d610aea565b3480156102db57600080fd5b5061024d600480360360208110156102f257600080fd5b5035610aef565b34801561030557600080fd5b506101e96004803603606081101561031c57600080fd5b508035906001600160a01b0360208201358116916040013516610b00565b34801561034657600080fd5b5061024d610b11565b34801561035b57600080fd5b506101e96004803603608081101561037257600080fd5b508035906020810135906001600160a01b0360408201358116916060013516610b1d565b6101e9600480360360408110156103ac57600080fd5b506001600160a01b0381358116916020013516610b34565b3480156103d057600080fd5b506101e960048036036101408110156103e857600080fd5b506001600160a01b038135811691602081013582169160408201358116916060810135821691608082013581169160a081013582169160c082013581169160e0810135821691610100820135811691610120013516610b4a565b34801561044e57600080fd5b506101e9610efb565b34801561046357600080fd5b5061024d610f5b565b34801561047857600080fd5b50610289610f67565b34801561048d57600080fd5b50610289610f76565b3480156104a257600080fd5b5061024d610f85565b3480156104b757600080fd5b5061024d610f91565b3480156104cc57600080fd5b50610289611092565b6101e9600480360360808110156104eb57600080fd5b508035906020810135906001600160a01b03604082013581169160600135166110a1565b34801561051b57600080fd5b5061024d6116d6565b34801561053057600080fd5b50610289611792565b34801561054557600080fd5b5061054e6117a1565b604080519115158252519081900360200190f35b34801561056e57600080fd5b506102896117b2565b34801561058357600080fd5b5061058c6117c1565b6040805160208082528351818301528351919283929083019185019080838360005b838110156105c65781810151838201526020016105ae565b50505050905090810190601f1680156105f35780820380516001836020036101000a031916815260200191505b509250505060405180910390f35b34801561060d57600080fd5b506102896117ef565b6101e9600480360360c081101561062c57600080fd5b5080359060208101359060408101359060608101351515906001600160a01b03608082013581169160a00135166117fe565b34801561066a57600080fd5b50610289611815565b34801561067f57600080fd5b5061024d611824565b61069a3360008560008686600061182f565b505050565b6106a7611e2c565b61069a8360008060008686600061182f565b600454600054600a546001600160a01b039283169291821691166106dd8333611e77565b60025460408051630fdb11cf60e01b815290516000926001600160a01b031691630fdb11cf91600480830192602092919082900301818787803b15801561072357600080fd5b505af1158015610737573d6000803e3d6000fd5b505050506040513d602081101561074d57600080fd5b5051905061075a81611f3c565b60408051630b07655760e01b815233600482015290516001600160a01b03861691630b07655791602480830192600092919082900301818387803b1580156107a157600080fd5b505af11580156107b5573d6000803e3d6000fd5b5050604080516309019aaf60e31b81523360048201529051600093506001600160a01b038816925063480cd57891602480820192602092909190829003018186803b15801561080357600080fd5b505afa158015610817573d6000803e3d6000fd5b505050506040513d602081101561082d57600080fd5b50516040805163d66a255360e01b815233600482015290519192506000916001600160a01b0388169163d66a2553916024808301926020929190829003018186803b15801561087b57600080fd5b505afa15801561088f573d6000803e3d6000fd5b505050506040513d60208110156108a557600080fd5b505190506108cc84336108c784680ad78ebc5ac620000063ffffffff611f8416565b611fcd565b60006108dd8360008460008861208d565b90506108e881612118565b60408051631fc5750960e31b815233600482015290516001600160a01b0389169163fe2ba84891602480830192600092919082900301818387803b15801561092f57600080fd5b505af1158015610943573d6000803e3d6000fd5b5050604080516365e89c5760e11b815233600482015290516001600160a01b038b16935063cbd138ae9250602480830192600092919082900301818387803b15801561098e57600080fd5b505af11580156109a2573d6000803e3d6000fd5b50505050336001600160a01b03166000805160206134ca83398151915260008060006001604051808581526020018481526020018381526020018260028111156109e857fe5b60ff16815260200194505050505060405180910390a2610a22868633610a1d86680ad78ebc5ac620000063ffffffff611f8416565b61215f565b600654610a4590879087906001600160a01b0316680ad78ebc5ac620000061215f565b60408051628063a560e01b81523360048201526024810185905290516001600160a01b03881691628063a591604480830192600092919082900301818387803b158015610a9157600080fd5b505af1158015610aa5573d6000803e3d6000fd5b5050505050505050505050565b680ad78ebc5ac620000081565b686194049f30f720000081565b6001546001600160a01b031681565b6004546001600160a01b031681565b60c881565b6000610afa8261223b565b92915050565b61069a33846000808686600061182f565b6714d1120d7b16000081565b610b2e33600085600186868a61182f565b50505050565b610b463360008060008686600061182f565b5050565b610b526117a1565b610ba3576040805162461bcd60e51b815260206004820181905260248201527f4f776e61626c653a2063616c6c6572206973206e6f7420746865206f776e6572604482015290519081900360640190fd5b610bac8a612256565b610bb589612256565b610bbe88612256565b610bc787612256565b610bd086612256565b610bd985612256565b610be284612256565b610beb83612256565b610bf482612256565b610bfd81612256565b600480546001600160a01b03199081166001600160a01b038d81169182179093556000805483168d85161790556001805483168c85161790556005805483168b85161790556006805483168a8516179055600780548316898516179055600280548316888516179055600b80548316878516179055600a80548316868516179055600980548316938516938417905560088054909216909217905560408051918252517f143219c9e69b09e07e095fcc889b43d8f46ca892bba65f08dc3a0050869a5678916020908290030190a1604080516001600160a01b038b16815290517f78f058b189175430c48dc02699e3a0031ea4ff781536dc2fab847de4babdd8829181900360200190a1604080516001600160a01b038a16815290517f5ee0cae2f063ed938bb55046f6a932fb6ae792bf43624806bb90abe68a50be9b9181900360200190a1604080516001600160a01b038916815290517f82966d27eea39b038ee0fa30cd16532bb24f6e65d31cb58fb227aa5766cdcc7f9181900360200190a1604080516001600160a01b038816815290517fcfb07d791fcafc032b35837b50eb84b74df518cf4cc287e8084f47630fa70fa09181900360200190a1604080516001600160a01b038716815290517fe67f36a6e961157d6eff83b91f3af5a62131ceb6f04954ef74f51c1c05e7f88d9181900360200190a1604080516001600160a01b038616815290517f8c537274438aa850a330284665d81a85dd38267d09e4050d416bfc94142db2649181900360200190a1604080516001600160a01b038516815290517f65f4cf077bc01e4742eb5ad98326f6e95b63548ea24b17f8d5e823111fe788009181900360200190a1604080516001600160a01b038416815290517f112220fa8dbe96141556e0dc3d74dd95075b323f4f297616048e02d82d7017159181900360200190a1604080516001600160a01b038316815290517f756ebc192164c295bba134b5aacd72cc7aff8098a670d1f0a5f6b3a0b4ce67079181900360200190a1610eef612305565b50505050505050505050565b6007546040805163b32beb5b60e01b815233600482015290516001600160a01b039092169163b32beb5b9160248082019260009290919082900301818387803b158015610f4757600080fd5b505af1158015610b2e573d6000803e3d6000fd5b670de0b6b3a764000081565b6002546001600160a01b031681565b6009546001600160a01b031681565b670f43fc2c04ee000081565b60008054604080516314a6bf0f60e01b8152905183926001600160a01b0316916314a6bf0f916004808301926020929190829003018186803b158015610fd657600080fd5b505afa158015610fea573d6000803e3d6000fd5b505050506040513d602081101561100057600080fd5b5051600154604080516314a6bf0f60e01b815290519293506000926001600160a01b03909216916314a6bf0f91600480820192602092909190829003018186803b15801561104d57600080fd5b505afa158015611061573d6000803e3d6000fd5b505050506040513d602081101561107757600080fd5b5051905061108b828263ffffffff61234f16565b9250505090565b6000546001600160a01b031681565b6110a961321d565b50604080516060810182526004546001600160a01b03908116825260005481166020830152600a5416918101919091526110e161323d565b600260009054906101000a90046001600160a01b03166001600160a01b0316630fdb11cf6040518163ffffffff1660e01b8152600401602060405180830381600087803b15801561113157600080fd5b505af1158015611145573d6000803e3d6000fd5b505050506040513d602081101561115b57600080fd5b505180825260009061116c906123a9565b905061117887826123c6565b82516111849033612472565b60408201869052806111c5576111a483600001518460400151888a61254e565b6020830181905260408301516111bf9163ffffffff61234f16565b60408301525b6111d282604001516126fe565b6111df826040015161223b565b606083018190526111ec57fe5b6111ff3483606001518460000151612746565b60808301526060820151611214903490612784565b60a083015280156112315761122c82608001516127b9565b611264565b61123e8260800151612800565b600061125734600185606001516001876000015161208d565b905061126281612118565b505b825160408051635d6b480f60e01b81523360048201526001602482015290516001600160a01b0390921691635d6b480f9160448082019260009290919082900301818387803b1580156112b657600080fd5b505af11580156112ca573d6000803e3d6000fd5b50508451604080516372423c1760e01b815233600482015234602482015290516001600160a01b0390921693506372423c1792506044808201926020929091908290030181600087803b15801561132057600080fd5b505af1158015611334573d6000803e3d6000fd5b505050506040513d602081101561134a57600080fd5b50508251606083015160408051639976cf4560e01b81523360048201526024810192909252516001600160a01b0390921691639976cf45916044808201926020929091908290030181600087803b1580156113a457600080fd5b505af11580156113b8573d6000803e3d6000fd5b505050506040513d60208110156113ce57600080fd5b50508251604080516382fe3eb960e01b815233600482015290516001600160a01b03909216916382fe3eb99160248082019260009290919082900301818387803b15801561141b57600080fd5b505af115801561142f573d6000803e3d6000fd5b5050845160408051630c7940bd60e11b815233600482015290516001600160a01b0390921693506318f2817a92506024808201926020929091908290030181600087803b15801561147f57600080fd5b505af1158015611493573d6000803e3d6000fd5b505050506040513d60208110156114a957600080fd5b505160c0830152600b5460a0830151604080516346f7cf8760e01b815233600482015260248101929092526001600160a01b038881166044840152878116606484015290519216916346f7cf879160848082019260009290919082900301818387803b15801561151857600080fd5b505af115801561152c573d6000803e3d6000fd5b50508451604080516315d549f160e01b815233600482015290516001600160a01b0390921693506315d549f192506024808201926020929091908290030181600087803b15801561157c57600080fd5b505af1158015611590573d6000803e3d6000fd5b505050506040513d60208110156115a657600080fd5b505160e08301819052604080519182525133917f59cfd0cd754bc5748b6770e94a4ffa5f678d885cb899dcfadc5734edb97c67ab919081900360200190a26115f2836020015134612847565b61160b83602001518460400151338986604001516128d7565b602083015160408401516006546116379291906001600160a01b0316680ad78ebc5ac6200000806128d7565b336001600160a01b03166000805160206134ca8339815191528360600151348560c0015160006040518085815260200184815260200183815260200182600281111561167f57fe5b60ff16815260200194505050505060405180910390a2602080830151604080519182525133927fefe9137e0c60d14b7f57a84d5b68f55a648dd9fa7b01747d4ec305a3c8974c01928290030190a250505050505050565b60008054604080516362e1c9bf60e11b8152905183926001600160a01b03169163c5c3937e916004808301926020929190829003018186803b15801561171b57600080fd5b505afa15801561172f573d6000803e3d6000fd5b505050506040513d602081101561174557600080fd5b5051600154604080516362e1c9bf60e11b815290519293506000926001600160a01b039092169163c5c3937e91600480820192602092909190829003018186803b15801561104d57600080fd5b6003546001600160a01b031690565b6003546001600160a01b0316331490565b6008546001600160a01b031681565b60405180604001604052806012815260200171426f72726f7765724f7065726174696f6e7360701b81525081565b600b546001600160a01b031681565b61180d3386868686868c61182f565b505050505050565b600a546001600160a01b031681565b6611c37937e0800081565b61183761321d565b50604080516060810182526004546001600160a01b03908116825260005481166020830152600a54169181019190915261186f613282565b600260009054906101000a90046001600160a01b03166001600160a01b0316630fdb11cf6040518163ffffffff1660e01b8152600401602060405180830381600087803b1580156118bf57600080fd5b505af11580156118d3573d6000803e3d6000fd5b505050506040513d60208110156118e957600080fd5b50518082526000906118fa906123a9565b905086156119155761190c84826123c6565b611915886129b4565b61191e896129f3565b6119288989612a39565b8251611934908b611e77565b336001600160a01b038b16148061196a57506005546001600160a01b0316331480156119605750600034115b801561196a575087155b61197057fe5b82600001516001600160a01b0316630b0765578b6040518263ffffffff1660e01b815260040180826001600160a01b03166001600160a01b03168152602001915050600060405180830381600087803b1580156119cc57600080fd5b505af11580156119e0573d6000803e3d6000fd5b505050506119ee348a612a8b565b15156060840152602083015260408201889052868015611a0c575080155b15611a4757611a25836000015184604001518a8761254e565b61012083018190526040830151611a419163ffffffff61234f16565b60408301525b82600001516001600160a01b031663d66a25538b6040518263ffffffff1660e01b815260040180826001600160a01b03166001600160a01b0316815260200191505060206040518083038186803b158015611aa157600080fd5b505afa158015611ab5573d6000803e3d6000fd5b505050506040513d6020811015611acb57600080fd5b505160808301528251604080516309019aaf60e31b81526001600160a01b038d811660048301529151919092169163480cd578916024808301926020929190829003018186803b158015611b1e57600080fd5b505afa158015611b32573d6000803e3d6000fd5b505050506040513d6020811015611b4857600080fd5b505160a0830181905260808301518351611b63929190612746565b8260c0018181525050611b938260a0015183608001518460200151856060015186604001518c8860000151612aaa565b60e083015260a0820151891115611ba657fe5b611bb2818a8985612add565b86158015611bc05750600088115b15611c1357611bee611be98360400151611bdd8560800151612b51565b9063ffffffff611f8416565b6126fe565b611c0082608001518360400151612b6c565b611c1383604001518b8460400151611fcd565b611c3183600001518b8460200151856060015186604001518c612bc3565b610140840152610160830152825160408051630c7940bd60e11b81526001600160a01b038d81166004830152915191909216916318f2817a9160248083019260209291908290030181600087803b158015611c8b57600080fd5b505af1158015611c9f573d6000803e3d6000fd5b505050506040513d6020811015611cb557600080fd5b505161018083015260a08201516080830151602084015160608501516040860151600094611ce9949093909290918d612e23565b600b546040805163015f109360e51b81526001600160a01b038f81166004830152602482018590528b811660448301528a811660648301529151939450911691632be212609160848082019260009290919082900301818387803b158015611d5057600080fd5b505af1158015611d64573d6000803e3d6000fd5b505050508a6001600160a01b03166000805160206134ca833981519152846101400151856101600151866101800151600260405180858152602001848152602001838152602001826002811115611db757fe5b60ff16815260200194505050505060405180910390a2610120830151604080519182525133917fefe9137e0c60d14b7f57a84d5b68f55a648dd9fa7b01747d4ec305a3c8974c01919081900360200190a2610aa58460200151856040015133866020015187606001518e8e8a60400151612e54565b6005546001600160a01b03163314611e755760405162461bcd60e51b815260040180806020018281038252602981526020018061362d6029913960400191505060405180910390fd5b565b6000826001600160a01b03166321e37801836040518263ffffffff1660e01b815260040180826001600160a01b03166001600160a01b0316815260200191505060206040518083038186803b158015611ecf57600080fd5b505afa158015611ee3573d6000803e3d6000fd5b505050506040513d6020811015611ef957600080fd5b505190506001811461069a5760405162461bcd60e51b815260040180806020018281038252602e81526020018061349c602e913960400191505060405180910390fd5b611f45816123a9565b15611f815760405162461bcd60e51b815260040180806020018281038252603981526020018061334a6039913960400191505060405180910390fd5b50565b6000611fc683836040518060400160405280601e81526020017f536166654d6174683a207375627472616374696f6e206f766572666c6f770000815250612f0e565b9392505050565b80836001600160a01b03166370a08231846040518263ffffffff1660e01b815260040180826001600160a01b03166001600160a01b0316815260200191505060206040518083038186803b15801561202457600080fd5b505afa158015612038573d6000803e3d6000fd5b505050506040513d602081101561204e57600080fd5b5051101561069a5760405162461bcd60e51b815260040180806020018281038252603f815260200180613528603f913960400191505060405180910390fd5b6000806120986116d6565b905060006120a4610f91565b9050866120c0576120bb828963ffffffff611f8416565b6120d0565b6120d0828963ffffffff61234f16565b9150846120ec576120e7818763ffffffff611f8416565b6120fc565b6120fc818763ffffffff61234f16565b9050600061210b838387612746565b9998505050505050505050565b6714d1120d7b160000811015611f815760405162461bcd60e51b81526004018080602001828103825260498152602001806134536049913960600191505060405180910390fd5b836001600160a01b0316632a7ba1f7826040518263ffffffff1660e01b815260040180828152602001915050600060405180830381600087803b1580156121a557600080fd5b505af11580156121b9573d6000803e3d6000fd5b50505050826001600160a01b0316639dc29fac83836040518363ffffffff1660e01b815260040180836001600160a01b03166001600160a01b0316815260200182815260200192505050600060405180830381600087803b15801561221d57600080fd5b505af1158015612231573d6000803e3d6000fd5b5050505050505050565b6000610afa82680ad78ebc5ac620000063ffffffff61234f16565b6001600160a01b0381166122b1576040805162461bcd60e51b815260206004820152601e60248201527f4163636f756e742063616e6e6f74206265207a65726f20616464726573730000604482015290519081900360640190fd5b803b80610b46576040805162461bcd60e51b815260206004820181905260248201527f4163636f756e7420636f64652073697a652063616e6e6f74206265207a65726f604482015290519081900360640190fd5b6003546040516000916001600160a01b0316907f8be0079c531659141344cd1fd0a4f28419497f9722a3daafe3b4186f6b6457e0908390a3600380546001600160a01b0319169055565b600082820183811015611fc6576040805162461bcd60e51b815260206004820152601b60248201527f536166654d6174683a206164646974696f6e206f766572666c6f770000000000604482015290519081900360640190fd5b6000806123b583612fa5565b6714d1120d7b160000119392505050565b801561241857670de0b6b3a76400008211156124135760405162461bcd60e51b81526004018080602001828103825260328152602001806133ba6032913960400191505060405180910390fd5b610b46565b6611c37937e0800082108015906124375750670de0b6b3a76400008211155b610b465760405162461bcd60e51b81526004018080602001828103825260308152602001806136566030913960400191505060405180910390fd5b6000826001600160a01b03166321e37801836040518263ffffffff1660e01b815260040180826001600160a01b03166001600160a01b0316815260200191505060206040518083038186803b1580156124ca57600080fd5b505afa1580156124de573d6000803e3d6000fd5b505050506040513d60208110156124f457600080fd5b50519050600181141561069a576040805162461bcd60e51b815260206004820152601c60248201527f426f72726f7765724f70733a2054726f76652069732061637469766500000000604482015290519081900360640190fd5b6000846001600160a01b0316635dba4c4a6040518163ffffffff1660e01b8152600401600060405180830381600087803b15801561258b57600080fd5b505af115801561259f573d6000803e3d6000fd5b505050506000856001600160a01b031663631203b0856040518263ffffffff1660e01b81526004018082815260200191505060206040518083038186803b1580156125e957600080fd5b505afa1580156125fd573d6000803e3d6000fd5b505050506040513d602081101561261357600080fd5b50519050612622818585612fd1565b600854604080516358caad6960e11b81526004810184905290516001600160a01b039092169163b1955ad29160248082019260009290919082900301818387803b15801561266f57600080fd5b505af1158015612683573d6000803e3d6000fd5b5050600954604080516340c10f1960e01b81526001600160a01b03928316600482015260248101869052905191891693506340c10f19925060448082019260009290919082900301818387803b1580156126dc57600080fd5b505af11580156126f0573d6000803e3d6000fd5b509298975050505050505050565b686194049f30f7200000811015611f815760405162461bcd60e51b815260040180806020018281038252603a8152602001806135b0603a913960400191505060405180910390fd5b6000821561277957600061277084612764878663ffffffff61304616565b9063ffffffff61309f16565b9150611fc69050565b506000199392505050565b600081156127b0576127a9826127648568056bc75e2d6310000063ffffffff61304616565b9050610afa565b50600019610afa565b6714d1120d7b160000811015611f815760405162461bcd60e51b81526004018080602001828103825260378152602001806133836037913960400191505060405180910390fd5b670f43fc2c04ee0000811015611f815760405162461bcd60e51b81526004018080602001828103825260498152602001806135676049913960600191505060405180910390fd5b6040516000906001600160a01b0384169083908381818185875af1925050503d8060008114612892576040519150601f19603f3d011682016040523d82523d6000602084013e612897565b606091505b505090508061069a5760405162461bcd60e51b815260040180806020018281038252602d8152602001806132ed602d913960400191505060405180910390fd5b846001600160a01b0316632b7c7b11826040518263ffffffff1660e01b815260040180828152602001915050600060405180830381600087803b15801561291d57600080fd5b505af1158015612931573d6000803e3d6000fd5b50505050836001600160a01b03166340c10f1984846040518363ffffffff1660e01b815260040180836001600160a01b03166001600160a01b0316815260200182815260200192505050600060405180830381600087803b15801561299557600080fd5b505af11580156129a9573d6000803e3d6000fd5b505050505050505050565b60008111611f815760405162461bcd60e51b81526004018080602001828103825260378152602001806136866037913960400191505060405180910390fd5b3415806129fe575080155b611f815760405162461bcd60e51b815260040180806020018281038252603081526020018061331a6030913960400191505060405180910390fd5b34151580612a4657508115155b80612a5057508015155b610b465760405162461bcd60e51b81526004018080602001828103825260468152602001806133ec6046913960600191505060405180910390fd5b6000808315612a9f57508290506001612aa3565b8291505b9250929050565b6000806000612abd8a8a8a8a8a8a6130e1565b915091506000612ace838387612746565b9b9a5050505050505050505050565b8315612b1657612aec8361313c565b8115612b1157612aff8160e001516127b9565b612b118160e001518260c00151613179565b610b2e565b612b238160e00151612800565b612b4081602001518260600151836040015185856000015161208d565b6101008201819052610b2e90612118565b6000610afa82680ad78ebc5ac620000063ffffffff611f8416565b612b8582680ad78ebc5ac620000063ffffffff611f8416565b811115610b465760405162461bcd60e51b81526004018080602001828103825260438152602001806135ea6043913960600191505060405180910390fd5b600080600085612c5e57886001600160a01b031663d3d6f84389896040518363ffffffff1660e01b815260040180836001600160a01b03166001600160a01b0316815260200182815260200192505050602060405180830381600087803b158015612c2d57600080fd5b505af1158015612c41573d6000803e3d6000fd5b505050506040513d6020811015612c5757600080fd5b5051612ceb565b886001600160a01b03166372423c1789896040518363ffffffff1660e01b815260040180836001600160a01b03166001600160a01b0316815260200182815260200192505050602060405180830381600087803b158015612cbe57600080fd5b505af1158015612cd2573d6000803e3d6000fd5b505050506040513d6020811015612ce857600080fd5b50515b9050600084612d8557896001600160a01b03166312610e928a886040518363ffffffff1660e01b815260040180836001600160a01b03166001600160a01b0316815260200182815260200192505050602060405180830381600087803b158015612d5457600080fd5b505af1158015612d68573d6000803e3d6000fd5b505050506040513d6020811015612d7e57600080fd5b5051612e12565b896001600160a01b0316639976cf458a886040518363ffffffff1660e01b815260040180836001600160a01b03166001600160a01b0316815260200182815260200192505050602060405180830381600087803b158015612de557600080fd5b505af1158015612df9573d6000803e3d6000fd5b505050506040513d6020811015612e0f57600080fd5b50515b919a91995090975050505050505050565b6000806000612e368989898989896130e1565b915091506000612e468383612784565b9a9950505050505050505050565b8115612e6c57612e6788888886856128d7565b612e78565b612e788888888661215f565b8315612e8d57612e888886612847565b612231565b876001600160a01b0316628063a587876040518363ffffffff1660e01b815260040180836001600160a01b03166001600160a01b0316815260200182815260200192505050600060405180830381600087803b158015612eec57600080fd5b505af1158015612f00573d6000803e3d6000fd5b505050505050505050505050565b60008184841115612f9d5760405162461bcd60e51b81526004018080602001828103825283818151815260200191508051906020019080838360005b83811015612f62578181015183820152602001612f4a565b50505050905090810190601f168015612f8f5780820380516001836020036101000a031916815260200191505b509250505060405180910390fd5b505050900390565b600080612fb06116d6565b90506000612fbc610f91565b9050612fc9828286612746565b949350505050565b6000612fef8361276486670de0b6b3a764000063ffffffff61304616565b905081811115610b2e576040805162461bcd60e51b815260206004820152601d60248201527f4665652065786365656465642070726f7669646564206d6178696d756d000000604482015290519081900360640190fd5b60008261305557506000610afa565b8282028284828161306257fe5b0414611fc65760405162461bcd60e51b81526004018080602001828103825260218152602001806134326021913960400191505060405180910390fd5b6000611fc683836040518060400160405280601a81526020017f536166654d6174683a206469766973696f6e206279207a65726f0000000000008152506131b8565b600080878786613100576130fb8a8963ffffffff611f8416565b613110565b6131108a8963ffffffff61234f16565b91508461312c57613127898763ffffffff611f8416565b612e12565b612e12898763ffffffff61234f16565b8015611f815760405162461bcd60e51b815260040180806020018281038252603e8152602001806134ea603e913960400191505060405180910390fd5b80821015610b465760405162461bcd60e51b815260040180806020018281038252603e8152602001806136bd603e913960400191505060405180910390fd5b600081836132075760405162461bcd60e51b8152602060048201818152835160248401528351909283926044909101919085019080838360008315612f62578181015183820152602001612f4a565b50600083858161321357fe5b0495945050505050565b604080516060810182526000808252602082018190529181019190915290565b60405180610100016040528060008152602001600081526020016000815260200160008152602001600081526020016000815260200160008152602001600081525090565b604051806101a00160405280600081526020016000815260200160008152602001600015158152602001600081526020016000815260200160008152602001600081526020016000815260200160008152602001600081526020016000815260200160008152509056fe426f72726f7765724f70733a2053656e64696e672046494c20746f20416374697665506f6f6c206661696c6564426f72726f7765724f7065726174696f6e733a2043616e6e6f7420776974686472617720616e642061646420636f6c6c426f72726f7765724f70733a204f7065726174696f6e206e6f74207065726d697474656420647572696e67205265636f76657279204d6f6465426f72726f7765724f70733a204f7065726174696f6e206d757374206c656176652074726f7665207769746820494352203e3d204343524d6178206665652070657263656e74616765206d757374206c657373207468616e206f7220657175616c20746f2031303025426f72726f7765724f70733a205468657265206d75737420626520656974686572206120636f6c6c61746572616c206368616e6765206f7220612064656274206368616e6765536166654d6174683a206d756c7469706c69636174696f6e206f766572666c6f77426f72726f7765724f70733a20416e206f7065726174696f6e207468617420776f756c6420726573756c7420696e20544352203c20434352206973206e6f74207065726d6974746564426f72726f7765724f70733a2054726f766520646f6573206e6f74206578697374206f7220697320636c6f736564c3770d654ed33aeea6bf11ac8ef05d02a6a04ed4686dd2f624d853bbec43cc8b426f72726f7765724f70733a20436f6c6c61746572616c207769746864726177616c206e6f74207065726d6974746564205265636f76657279204d6f6465426f72726f7765724f70733a2043616c6c657220646f65736e74206861766520656e6f75676820746f6b656e7320746f206d616b652072657061796d656e74426f72726f7765724f70733a20416e206f7065726174696f6e207468617420776f756c6420726573756c7420696e20494352203c204d4352206973206e6f74207065726d6974746564426f72726f7765724f70733a2054726f76652773206e65742064656274206d7573742062652067726561746572207468616e206d696e696d756d426f72726f7765724f70733a20416d6f756e7420726570616964206d757374206e6f74206265206c6172676572207468616e207468652054726f766527732064656274426f72726f7765724f70733a2043616c6c6572206973206e6f742053746162696c69747920506f6f6c4d6178206665652070657263656e74616765206d757374206265206265747765656e20302e352520616e642031303025426f72726f7765724f70733a204465627420696e637265617365207265717569726573206e6f6e2d7a65726f20646562744368616e6765426f72726f7765724f70733a2043616e6e6f7420646563726561736520796f75722054726f766527732049435220696e205265636f76657279204d6f6465a26469706673582212204fda169136483eae6eec126b8f65c0ce051d6775784264950e0c91dbf7a6576864736f6c634300060b0033608060405234801561001057600080fd5b50600080546001600160a01b0319163390811782556040519091907f8be0079c531659141344cd1fd0a4f28419497f9722a3daafe3b4186f6b6457e0908290a3610bbc8061005f6000396000f3fe6080604052600436106100b55760003560e01c80635a4d28bb1161006f5780635a4d28bb146102455780638da5cb5b1461025a5780638f32d59b1461026f578063a3f4df7e14610298578063aac1846f14610322578063b7f8cf9b14610337578063c5c3937e1461034c5761010e565b80628063a5146101135780630b622ab21461014e57806314a6bf0f1461017f5780632a7ba1f7146101a65780632b7c7b11146101d05780634a945f8d146101fa5761010e565b3661010e576100c2610361565b6005546100d5903463ffffffff6103c116565b600581905560408051918252517f2536de1d7bbba20957818a5226a7b6c5b54fffc650060e673fa6d8850ddd4e979181900360200190a1005b600080fd5b34801561011f57600080fd5b5061014c6004803603604081101561013657600080fd5b506001600160a01b038135169060200135610422565b005b34801561015a57600080fd5b50610163610563565b604080516001600160a01b039092168252519081900360200190f35b34801561018b57600080fd5b50610194610572565b60408051918252519081900360200190f35b3480156101b257600080fd5b5061014c600480360360208110156101c957600080fd5b5035610578565b3480156101dc57600080fd5b5061014c600480360360208110156101f357600080fd5b50356105cd565b34801561020657600080fd5b5061014c6004803603608081101561021d57600080fd5b506001600160a01b0381358116916020810135821691604082013581169160600135166105e8565b34801561025157600080fd5b506101636107a1565b34801561026657600080fd5b506101636107b0565b34801561027b57600080fd5b506102846107bf565b604080519115158252519081900360200190f35b3480156102a457600080fd5b506102ad6107d0565b6040805160208082528351818301528351919283929083019185019080838360005b838110156102e75781810151838201526020016102cf565b50505050905090810190601f1680156103145780820380516001836020036101000a031916815260200191505b509250505060405180910390f35b34801561032e57600080fd5b506101636107f6565b34801561034357600080fd5b50610163610805565b34801561035857600080fd5b50610194610814565b6001546001600160a01b031633148061038457506004546001600160a01b031633145b6103bf5760405162461bcd60e51b8152600401808060200182810382526031815260200180610b566031913960400191505060405180910390fd5b565b60008282018381101561041b576040805162461bcd60e51b815260206004820152601b60248201527f536166654d6174683a206164646974696f6e206f766572666c6f770000000000604482015290519081900360640190fd5b9392505050565b61042a61081a565b60055461043d908263ffffffff61088d16565b600581905560408051918252517f2536de1d7bbba20957818a5226a7b6c5b54fffc650060e673fa6d8850ddd4e979181900360200190a1604080516001600160a01b03841681526020810183905281517f6109e2559dfa766aaec7118351d48a523f0a4157f49c8d68749c8ac41318ad12929181900390910190a16040516000906001600160a01b0384169083908381818185875af1925050503d8060008114610503576040519150601f19603f3d011682016040523d82523d6000602084013e610508565b606091505b505090508061055e576040805162461bcd60e51b815260206004820152601e60248201527f416374697665506f6f6c3a2073656e64696e672046494c206661696c65640000604482015290519081900360640190fd5b505050565b6003546001600160a01b031681565b60065490565b61058061081a565b600654610593908263ffffffff61088d16565b600681905560408051918252517f13193833722dafec703db5d698ec64bbad69b90300d7ef30037df03a1412d5089181900360200190a150565b6105d56108cf565b600654610593908263ffffffff6103c116565b6105f06107bf565b610641576040805162461bcd60e51b815260206004820181905260248201527f4f776e61626c653a2063616c6c6572206973206e6f7420746865206f776e6572604482015290519081900360640190fd5b61064a8461092d565b6106538361092d565b61065c8261092d565b6106658161092d565b600180546001600160a01b038087166001600160a01b031992831681179093556002805487831690841617905560038054868316908416179055600480549185169190921617905560408051918252517f3ca631ffcd2a9b5d9ae18543fc82f58eb4ca33af9e6ab01b7a8e95331e6ed9859181900360200190a1604080516001600160a01b038516815290517f143219c9e69b09e07e095fcc889b43d8f46ca892bba65f08dc3a0050869a56789181900360200190a1604080516001600160a01b038416815290517f82966d27eea39b038ee0fa30cd16532bb24f6e65d31cb58fb227aa5766cdcc7f9181900360200190a1604080516001600160a01b038316815290517f5ee0cae2f063ed938bb55046f6a932fb6ae792bf43624806bb90abe68a50be9b9181900360200190a161079b6109e0565b50505050565b6002546001600160a01b031681565b6000546001600160a01b031690565b6000546001600160a01b0316331490565b6040518060400160405280600a8152602001691058dd1a5d99541bdbdb60b21b81525081565b6004546001600160a01b031681565b6001546001600160a01b031681565b60055490565b6001546001600160a01b031633148061083d57506002546001600160a01b031633145b8061085257506003546001600160a01b031633145b6103bf5760405162461bcd60e51b8152600401808060200182810382526053815260200180610b036053913960600191505060405180910390fd5b600061041b83836040518060400160405280601e81526020017f536166654d6174683a207375627472616374696f6e206f766572666c6f770000815250610a2a565b6001546001600160a01b03163314806108f257506002546001600160a01b031633145b6103bf5760405162461bcd60e51b8152600401808060200182810382526041815260200180610ac26041913960600191505060405180910390fd5b6001600160a01b038116610988576040805162461bcd60e51b815260206004820152601e60248201527f4163636f756e742063616e6e6f74206265207a65726f20616464726573730000604482015290519081900360640190fd5b803b806109dc576040805162461bcd60e51b815260206004820181905260248201527f4163636f756e7420636f64652073697a652063616e6e6f74206265207a65726f604482015290519081900360640190fd5b5050565b600080546040516001600160a01b03909116907f8be0079c531659141344cd1fd0a4f28419497f9722a3daafe3b4186f6b6457e0908390a3600080546001600160a01b0319169055565b60008184841115610ab95760405162461bcd60e51b81526004018080602001828103825283818151815260200191508051906020019080838360005b83811015610a7e578181015183820152602001610a66565b50505050905090810190601f168015610aab5780820380516001836020036101000a031916815260200191505b509250505060405180910390fd5b50505090039056fe416374697665506f6f6c3a2043616c6c6572206973206e65697468657220426f72726f7765724f7065726174696f6e73206e6f722054726f76654d616e61676572416374697665506f6f6c3a2043616c6c6572206973206e65697468657220426f72726f7765724f7065726174696f6e73206e6f722054726f76654d616e61676572206e6f722053746162696c697479506f6f6c416374697665506f6f6c3a2043616c6c6572206973206e65697468657220424f206e6f722044656661756c7420506f6f6ca264697066735822122071695cace1c0539e467aeeabb93529518a2620b6dfdeff6c766d1382a40886f964736f6c634300060b0033608060405234801561001057600080fd5b50600080546001600160a01b0319163390811782556040519091907f8be0079c531659141344cd1fd0a4f28419497f9722a3daafe3b4186f6b6457e0908290a36109988061005f6000396000f3fe6080604052600436106100a05760003560e01c80638f32d59b116100645780638f32d59b146101c15780638f7be730146101ea57806390107afe14610214578063a3f4df7e1461024f578063b08bc722146102d9578063c5c3937e146102ee576100f9565b806314a6bf0f146100fe5780632a7ba1f7146101255780632b7c7b11146101515780635a4d28bb1461017b5780638da5cb5b146101ac576100f9565b366100f9576100ad610303565b6003546100c0903463ffffffff61034e16565b600381905560408051918252517f4b2f6ed6b83441c39265015e9ad3fca5c5f8dbc85d6843e4f7db7f9108ab95959181900360200190a1005b600080fd5b34801561010a57600080fd5b506101136103af565b60408051918252519081900360200190f35b34801561013157600080fd5b5061014f6004803603602081101561014857600080fd5b50356103b5565b005b34801561015d57600080fd5b5061014f6004803603602081101561017457600080fd5b503561040a565b34801561018757600080fd5b50610190610425565b604080516001600160a01b039092168252519081900360200190f35b3480156101b857600080fd5b50610190610434565b3480156101cd57600080fd5b506101d6610443565b604080519115158252519081900360200190f35b3480156101f657600080fd5b5061014f6004803603602081101561020d57600080fd5b5035610454565b34801561022057600080fd5b5061014f6004803603604081101561023757600080fd5b506001600160a01b03813581169160200135166105a4565b34801561025b57600080fd5b506102646106b7565b6040805160208082528351818301528351919283929083019185019080838360005b8381101561029e578181015183820152602001610286565b50505050905090810190601f1680156102cb5780820380516001836020036101000a031916815260200191505b509250505060405180910390f35b3480156102e557600080fd5b506101906106de565b3480156102fa57600080fd5b506101136106ed565b6002546001600160a01b0316331461034c5760405162461bcd60e51b815260040180806020018281038252602981526020018061090f6029913960400191505060405180910390fd5b565b6000828201838110156103a8576040805162461bcd60e51b815260206004820152601b60248201527f536166654d6174683a206164646974696f6e206f766572666c6f770000000000604482015290519081900360640190fd5b9392505050565b60045490565b6103bd6106f3565b6004546103d0908263ffffffff61073c16565b600481905560408051918252517fbb6a805312efea216263577adb96966134cba8b860bdaa40afcdc38f4dbcf62e9181900360200190a150565b6104126106f3565b6004546103d0908263ffffffff61034e16565b6001546001600160a01b031681565b6000546001600160a01b031690565b6000546001600160a01b0316331490565b61045c6106f3565b6002546003546001600160a01b039091169061047e908363ffffffff61073c16565b600381905560408051918252517f4b2f6ed6b83441c39265015e9ad3fca5c5f8dbc85d6843e4f7db7f9108ab95959181900360200190a1604080516001600160a01b03831681526020810184905281517f6109e2559dfa766aaec7118351d48a523f0a4157f49c8d68749c8ac41318ad12929181900390910190a16040516000906001600160a01b0383169084908381818185875af1925050503d8060008114610544576040519150601f19603f3d011682016040523d82523d6000602084013e610549565b606091505b505090508061059f576040805162461bcd60e51b815260206004820152601f60248201527f44656661756c74506f6f6c3a2073656e64696e672046494c206661696c656400604482015290519081900360640190fd5b505050565b6105ac610443565b6105fd576040805162461bcd60e51b815260206004820181905260248201527f4f776e61626c653a2063616c6c6572206973206e6f7420746865206f776e6572604482015290519081900360640190fd5b6106068261077e565b61060f8161077e565b600180546001600160a01b038085166001600160a01b03199283168117909355600280549185169190921617905560408051918252517f143219c9e69b09e07e095fcc889b43d8f46ca892bba65f08dc3a0050869a56789181900360200190a1604080516001600160a01b038316815290517f78f058b189175430c48dc02699e3a0031ea4ff781536dc2fab847de4babdd8829181900360200190a16106b361082d565b5050565b6040518060400160405280600b81526020016a111959985d5b1d141bdbdb60aa1b81525081565b6002546001600160a01b031681565b60035490565b6001546001600160a01b0316331461034c5760405162461bcd60e51b815260040180806020018281038252602b815260200180610938602b913960400191505060405180910390fd5b60006103a883836040518060400160405280601e81526020017f536166654d6174683a207375627472616374696f6e206f766572666c6f770000815250610877565b6001600160a01b0381166107d9576040805162461bcd60e51b815260206004820152601e60248201527f4163636f756e742063616e6e6f74206265207a65726f20616464726573730000604482015290519081900360640190fd5b803b806106b3576040805162461bcd60e51b815260206004820181905260248201527f4163636f756e7420636f64652073697a652063616e6e6f74206265207a65726f604482015290519081900360640190fd5b600080546040516001600160a01b03909116907f8be0079c531659141344cd1fd0a4f28419497f9722a3daafe3b4186f6b6457e0908390a3600080546001600160a01b0319169055565b600081848411156109065760405162461bcd60e51b81526004018080602001828103825283818151815260200191508051906020019080838360005b838110156108cb5781810151838201526020016108b3565b50505050905090810190601f1680156108f85780820380516001836020036101000a031916815260200191505b509250505060405180910390fd5b50505090039056fe44656661756c74506f6f6c3a2043616c6c6572206973206e6f742074686520416374697665506f6f6c44656661756c74506f6f6c3a2043616c6c6572206973206e6f74207468652054726f76654d616e61676572a26469706673582212202ea1216cf540d639783b9295a50c67cdba58447ddeb5d22aa53f7e855553685e64736f6c634300060b00336080604052670de0b6b3a764000060105534801561001c57600080fd5b50600380546001600160a01b031916339081179091556040516000907f8be0079c531659141344cd1fd0a4f28419497f9722a3daafe3b4186f6b6457e0908290a36139228061006c6000396000f3fe6080604052600436106102975760003560e01c806386da08241161015a578063ae918754116100c1578063df9cd84f1161007a578063df9cd84f14610912578063eaa8ba7f14610945578063f5f1595d146109aa578063f8d89898146109dd578063f92d3433146109f2578063fc7e286d14610a07576102de565b8063ae91875414610858578063c5c3937e1461086d578063ce4b5bbe14610882578063cef941e814610897578063d4ca0575146108ac578063dae4f5ff146108df576102de565b806395fb16bb1161011357806395fb16bb14610743578063a20baee614610583578063a3f4df7e14610758578063a4e59ac8146107e2578063a7a48884146107f7578063a7bfff971461080c576102de565b806386da08241461066d578063887105d3146106a05780638b8fbd92146106b55780638da5cb5b146106ca5780638f32d59b146106df57806395ca53be14610708576102de565b80635733d58f116101fe57806376671808116101b757806376671808146105ad57806377553ad4146105de578063794e5724146105f3578063795d26c3146106085780637f7dde4a1461061d57806382e0a57414610632576102de565b80635733d58f146104ed5780635d2de642146105025780635f788d651461053557806367e8fb201461056e57806372fe25aa14610583578063741bef1a14610598576102de565b80632e54bf95116102505780632e54bf951461040c578063335525ad146104385780633cc74225146104685780633d83908a146104995780634870dd9a146104ae578063556be101146104c3576102de565b80630bdfe4e7146102e35780630d9a6b3514610328578063139f2e8c1461033d57806316b9d3c5146103525780631bf43555146103bc57806328a0a04d146103d1576102de565b366102de576102a4610a5b565b6009546102b7903463ffffffff610aa616565b600981905560408051918252516000805160206136ab8339815191529181900360200190a1005b600080fd5b3480156102ef57600080fd5b506103166004803603602081101561030657600080fd5b50356001600160a01b0316610b09565b60408051918252519081900360200190f35b34801561033457600080fd5b50610316610bb1565b34801561034957600080fd5b50610316610bb7565b34801561035e57600080fd5b506103856004803603602081101561037557600080fd5b50356001600160a01b0316610bc4565b604080519586526020860194909452848401929092526001600160801b039081166060850152166080830152519081900360a00190f35b3480156103c857600080fd5b50610316610bff565b3480156103dd57600080fd5b50610316600480360360408110156103f457600080fd5b506001600160801b0381358116916020013516610c0c565b34801561041857600080fd5b506104366004803603602081101561042f57600080fd5b5035610c29565b005b34801561044457600080fd5b506104366004803603604081101561045b57600080fd5b5080359060200135610db2565b34801561047457600080fd5b5061047d610e16565b604080516001600160a01b039092168252519081900360200190f35b3480156104a557600080fd5b5061047d610e25565b3480156104ba57600080fd5b50610316610e34565b3480156104cf57600080fd5b50610436600480360360208110156104e657600080fd5b5035610e39565b3480156104f957600080fd5b50610316610eae565b34801561050e57600080fd5b506103166004803603602081101561052557600080fd5b50356001600160a01b0316610eba565b34801561054157600080fd5b506104366004803603604081101561055857600080fd5b50803590602001356001600160a01b0316610ecc565b34801561057a57600080fd5b5061031661104d565b34801561058f57600080fd5b50610316611053565b3480156105a457600080fd5b5061047d61105f565b3480156105b957600080fd5b506105c261106e565b604080516001600160801b039092168252519081900360200190f35b3480156105ea57600080fd5b5061047d611084565b3480156105ff57600080fd5b50610316611093565b34801561061457600080fd5b5061031661109f565b34801561062957600080fd5b5061047d6111a0565b34801561063e57600080fd5b506103166004803603604081101561065557600080fd5b506001600160801b03813581169160200135166111af565b34801561067957600080fd5b506103856004803603602081101561069057600080fd5b50356001600160a01b03166111cc565b3480156106ac57600080fd5b50610316611207565b3480156106c157600080fd5b506103166112c3565b3480156106d657600080fd5b5061047d6112c9565b3480156106eb57600080fd5b506106f46112d8565b604080519115158252519081900360200190f35b34801561071457600080fd5b506104366004803603604081101561072b57600080fd5b506001600160a01b03813581169160200135166112e9565b34801561074f57600080fd5b5061047d611519565b34801561076457600080fd5b5061076d611528565b6040805160208082528351818301528351919283929083019185019080838360005b838110156107a757818101518382015260200161078f565b50505050905090810190601f1680156107d45780820380516001836020036101000a031916815260200191505b509250505060405180910390f35b3480156107ee57600080fd5b506105c2611551565b34801561080357600080fd5b50610316611560565b34801561081857600080fd5b5061083f6004803603602081101561082f57600080fd5b50356001600160a01b0316611566565b6040805192835290151560208301528051918290030190f35b34801561086457600080fd5b5061047d611582565b34801561087957600080fd5b50610316611591565b34801561088e57600080fd5b50610316611597565b3480156108a357600080fd5b5061031661159f565b3480156108b857600080fd5b50610316600480360360208110156108cf57600080fd5b50356001600160a01b03166115a5565b3480156108eb57600080fd5b506103166004803603602081101561090257600080fd5b50356001600160a01b03166116a9565b34801561091e57600080fd5b506103166004803603602081101561093557600080fd5b50356001600160a01b0316611746565b34801561095157600080fd5b50610436600480360360e081101561096857600080fd5b506001600160a01b038135811691602081013582169160408201358116916060810135821691608082013581169160a081013582169160c090910135166117e3565b3480156109b657600080fd5b50610316600480360360208110156109cd57600080fd5b50356001600160a01b0316611a94565b3480156109e957600080fd5b5061047d611b91565b3480156109fe57600080fd5b50610316611ba0565b348015610a1357600080fd5b50610a3a60048036036020811015610a2a57600080fd5b50356001600160a01b0316611bab565b604080519283526001600160a01b0390911660208301528051918290030190f35b6000546001600160a01b03163314610aa45760405162461bcd60e51b81526004018080602001828103825260278152602001806135e96027913960400191505060405180910390fd5b565b600082820183811015610b00576040805162461bcd60e51b815260206004820152601b60248201527f536166654d6174683a206164646974696f6e206f766572666c6f770000000000604482015290519081900360640190fd5b90505b92915050565b6001600160a01b0381166000908152600b602052604081205480610b31576000915050610bac565b610b39613561565b506001600160a01b0383166000908152600c60209081526040808320815160a08101835281548152600182015493810193909352600281015491830191909152600301546001600160801b038082166060840152600160801b90910416608082015290610ba68383611bcd565b93505050505b919050565b600a5490565b680ad78ebc5ac620000081565b600f602052600090815260409020805460018201546002830154600390930154919290916001600160801b0380821691600160801b90041685565b686194049f30f720000081565b601260209081526000928352604080842090915290825290205481565b8015610c3757610c37611cc9565b336000908152600b6020526040902054610c5081611e86565b6008546001600160a01b0316610c6581611ec8565b6000610c70336116a9565b90506000610c7d33610b09565b90506000610c8b8683611f3c565b90506000610c9f868463ffffffff611f5216565b336000818152600b60205260409020600101549192506001600160a01b0390911690610ccd90879083611f94565b6000610cd882611746565b90506000610cec828663ffffffff611f5216565b9050610cf88382612133565b6040805182815233602082015281516001600160a01b0386169260008051602061383c833981519152928290030190a2610d32338661227f565b6000610d44878763ffffffff611f5216565b9050610d503382612305565b6040805182815290513391600080516020613610833981519152919081900360200190a2604080518981526020810187905281513392600080516020613724833981519152928290030190a2610da58861248b565b5050505050505050505050565b610dba612597565b600a54801580610dc8575082155b15610dd35750610e12565b600854610de8906001600160a01b0316611ec8565b600080610df68486856125e0565b91509150610e0482826126d9565b610e0e84866129d3565b5050505b5050565b6001546001600160a01b031681565b6005546001600160a01b031681565b60c881565b610e4233612b0b565b610e4b33612b66565b610e5481612bbc565b336000818152600d60209081526040918290208481556001908101805460ff19169091179055815184815291517f19bc932fb9e16a8b5a1e41be9f4c2de59d5ddd7567b8b81405f532ca00a9880e9281900390910190a250565b6714d1120d7b16000081565b600e6020526000908152604090205481565b610ed581612c03565b610ede33612b0b565b610ee782612c6f565b336000908152600b60205260409020546008546001600160a01b0316610f0c81611ec8565b81610f1b57610f1b3384612cae565b6000610f26336116a9565b90506000610f3333610b09565b90506000610f47858363ffffffff611f5216565b336000818152600b60205260409020600101549192506001600160a01b0390911690610f7590869083611f94565b6000610f8082611746565b90506000610f94828b63ffffffff610aa616565b9050610fa08382612133565b6040805182815233602082015281516001600160a01b0386169260008051602061383c833981519152928290030190a2610fda338b612d08565b6000610fec868c63ffffffff610aa616565b9050610ff83382612305565b6040805182815290513391600080516020613610833981519152919081900360200190a2604080518881526020810187905281513392600080516020613724833981519152928290030190a2610da58761248b565b60155481565b670de0b6b3a764000081565b6002546001600160a01b031681565b601154600160801b90046001600160801b031681565b6004546001600160a01b031681565b670f43fc2c04ee000081565b60008054604080516314a6bf0f60e01b8152905183926001600160a01b0316916314a6bf0f916004808301926020929190829003018186803b1580156110e457600080fd5b505afa1580156110f8573d6000803e3d6000fd5b505050506040513d602081101561110e57600080fd5b5051600154604080516314a6bf0f60e01b815290519293506000926001600160a01b03909216916314a6bf0f91600480820192602092909190829003018186803b15801561115b57600080fd5b505afa15801561116f573d6000803e3d6000fd5b505050506040513d602081101561118557600080fd5b50519050611199828263ffffffff610aa616565b9250505090565b6000546001600160a01b031681565b601360209081526000928352604080842090915290825290205481565b600c602052600090815260409020805460018201546002830154600390930154919290916001600160801b0380821691600160801b90041685565b60008054604080516362e1c9bf60e11b8152905183926001600160a01b03169163c5c3937e916004808301926020929190829003018186803b15801561124c57600080fd5b505afa158015611260573d6000803e3d6000fd5b505050506040513d602081101561127657600080fd5b5051600154604080516362e1c9bf60e11b815290519293506000926001600160a01b039092169163c5c3937e91600480820192602092909190829003018186803b15801561115b57600080fd5b60105481565b6003546001600160a01b031690565b6003546001600160a01b0316331490565b336000908152600b602052604090205461130281611e86565b61130b33612dd2565b61131433612e89565b6008546001600160a01b031661132981611ec8565b6000611334336116a9565b9050600061134133610b09565b90506000611355858363ffffffff611f5216565b336000818152600b60205260409020600101549192506001600160a01b039091169061138390869083611f94565b600061138e82611746565b90508061139b8382612133565b6040805182815233602082015281516001600160a01b0386169260008051602061383c833981519152928290030190a26113d53386612305565b604080518781526020810186905281513392600080516020613724833981519152928290030190a26040805186815290513391600080516020613610833981519152919081900360200190a2600954611434908763ffffffff611f5216565b600981905560408051918252516000805160206136ab8339815191529181900360200190a1604080513381526020810188905281517f6109e2559dfa766aaec7118351d48a523f0a4157f49c8d68749c8ac41318ad12929181900390910190a16004805460408051630721ec6760e11b815233938101939093526001600160a01b038d811660248501528c811660448501529051911691630e43d8ce91899160648082019260009290919082900301818588803b1580156114f457600080fd5b505af1158015611508573d6000803e3d6000fd5b505050505050505050505050505050565b6008546001600160a01b031681565b6040518060400160405280600d81526020016c14dd18589a5b1a5d1e541bdbdb609a1b81525081565b6011546001600160801b031681565b60165481565b600d602052600090815260409020805460019091015460ff1682565b6007546001600160a01b031681565b60095490565b633b9aca0081565b60145481565b6001600160a01b0381166000908152600e6020526040812054806115cd576000915050610bac565b6001600160a01b0383166000908152600d6020526040812054906115ff670de0b6b3a76400008363ffffffff611f5216565b9050611609613561565b506001600160a01b0385166000908152600f60209081526040808320815160a08101835281548152600182015493810193909352600281015491830191909152600301546001600160801b038082166060840152600160801b9091041660808201529061169e670de0b6b3a76400006116926116858886612ed5565b869063ffffffff612fc716565b9063ffffffff61302016565b979650505050505050565b6001600160a01b0381166000908152600b6020526040812054806116d1576000915050610bac565b6116d9613561565b506001600160a01b0383166000908152600c60209081526040808320815160a08101835281548152600182015493810193909352600281015491830191909152600301546001600160801b038082166060840152600160801b90910416608082015290610ba68383613062565b6001600160a01b0381166000908152600e60205260408120548061176e576000915050610bac565b611776613561565b506001600160a01b0383166000908152600f60209081526040808320815160a08101835281548152600182015493810193909352600281015491830191909152600301546001600160801b038082166060840152600160801b90910416608082015290610ba68383611bcd565b6117eb6112d8565b61183c576040805162461bcd60e51b815260206004820181905260248201527f4f776e61626c653a2063616c6c6572206973206e6f7420746865206f776e6572604482015290519081900360640190fd5b611845876130ed565b61184e866130ed565b611857856130ed565b611860846130ed565b611869836130ed565b611872826130ed565b61187b816130ed565b600480546001600160a01b03199081166001600160a01b038a81169182179093556005805483168a85161790556000805483168985161790556006805483168885161790556007805483168785161790556002805483168685161790556008805490921692841692909217905560408051918252517f3ca631ffcd2a9b5d9ae18543fc82f58eb4ca33af9e6ab01b7a8e95331e6ed985916020908290030190a1604080516001600160a01b038816815290517f143219c9e69b09e07e095fcc889b43d8f46ca892bba65f08dc3a0050869a56789181900360200190a1604080516001600160a01b038716815290517f78f058b189175430c48dc02699e3a0031ea4ff781536dc2fab847de4babdd8829181900360200190a1604080516001600160a01b038616815290517f112220fa8dbe96141556e0dc3d74dd95075b323f4f297616048e02d82d7017159181900360200190a1604080516001600160a01b038516815290517f65f4cf077bc01e4742eb5ad98326f6e95b63548ea24b17f8d5e823111fe788009181900360200190a1604080516001600160a01b038416815290517f8c537274438aa850a330284665d81a85dd38267d09e4050d416bfc94142db2649181900360200190a1604080516001600160a01b038316815290517f3055265812fb8447b9ada4a5d804ec43bd528ec40e89c952bbc7b85dc5ac68119181900360200190a1611a8b61319c565b50505050505050565b6001600160a01b0381166000908152600b602052604081205480611abc576000915050610bac565b6001600160a01b038084166000908152600b6020526040812060010154909116908115611b01576001600160a01b0382166000908152600d6020526040902054611b0b565b670de0b6b3a76400005b9050611b15613561565b506001600160a01b0385166000908152600c60209081526040808320815160a08101835281548152600182015493810193909352600281015491830191909152600301546001600160801b038082166060840152600160801b9091041660808201529061169e670de0b6b3a76400006116926116858886612ed5565b6006546001600160a01b031681565b6611c37937e0800081565b600b60205260009081526040902080546001909101546001600160a01b031682565b6020810151606082015160808301516011546000939291906001600160801b03600160801b90910481169082161015611c0c5760009350505050610b03565b6011546000908190611c2d906001600160801b03168563ffffffff6131e616565b90506001600160801b038116611c5d57611c56856116926010548b612fc790919063ffffffff16565b9150611c95565b806001600160801b031660011415611c9057611c56633b9aca00611692876116926010548d612fc790919063ffffffff16565b600091505b611ca988633b9aca0063ffffffff61302016565b821015611cbe57600095505050505050610b03565b509695505050505050565b60025460408051630fdb11cf60e01b815290516000926001600160a01b031691630fdb11cf91600480830192602092919082900301818787803b158015611d0f57600080fd5b505af1158015611d23573d6000803e3d6000fd5b505050506040513d6020811015611d3957600080fd5b505160075460408051634d62283160e01b815290519293506000926001600160a01b0390921691634d62283191600480820192602092909190829003018186803b158015611d8657600080fd5b505afa158015611d9a573d6000803e3d6000fd5b505050506040513d6020811015611db057600080fd5b505160055460408051630d293c7160e41b81526001600160a01b038085166004830152602482018790529151939450600093919092169163d293c710916044808301926020929190829003018186803b158015611e0c57600080fd5b505afa158015611e20573d6000803e3d6000fd5b505050506040513d6020811015611e3657600080fd5b50519050670f43fc2c04ee0000811015611e815760405162461bcd60e51b81526004018080602001828103825260448152602001806138a96044913960600191505060405180910390fd5b505050565b60008111611ec55760405162461bcd60e51b815260040180806020018281038252603081526020018061380c6030913960400191505060405180910390fd5b50565b6000816001600160a01b03166346ad34d96040518163ffffffff1660e01b8152600401602060405180830381600087803b158015611f0557600080fd5b505af1158015611f19573d6000803e3d6000fd5b505050506040513d6020811015611f2f57600080fd5b50519050610e128161323f565b6000818310611f4b5781610b00565b5090919050565b6000610b0083836040518060400160405280601e81526020017f536166654d6174683a207375627472616374696f6e206f766572666c6f77000081525061335a565b6001600160a01b03811615612069576000611fae826115a5565b9050836001600160a01b031663614d2ab683836040518363ffffffff1660e01b815260040180836001600160a01b03166001600160a01b0316815260200182815260200192505050600060405180830381600087803b15801561201057600080fd5b505af1158015612024573d6000803e3d6000fd5b50506040805184815290516001600160a01b03861693507fcd2cdc1a4af71051394e9c6facd9a266b2ac5bd65d219a701eeda009f47682bf92509081900360200190a2505b600061207483611a94565b9050836001600160a01b031663614d2ab684836040518363ffffffff1660e01b815260040180836001600160a01b03166001600160a01b0316815260200182815260200192505050600060405180830381600087803b1580156120d657600080fd5b505af11580156120ea573d6000803e3d6000fd5b50506040805184815290516001600160a01b03871693507f2608b986a6ac0f6c629ca37018e80af5561e366252ae93602a96d3ab2e73e42d92509081900360200190a250505050565b6001600160a01b0382166000908152600e60205260409020819055806121c3576001600160a01b0382166000818152600f60209081526040808320838155600181018490556002810184905560030183905580518381529182019290925281517fbb1322f85cc7cc8bac4e172a5bc5dcc0c1959007f9a030032abf9258205f0e45929181900390910190a2610e12565b6011546010546001600160801b03600160801b80840482166000818152601360209081526040808320978616808452978252808320546001600160a01b038b16808552600f845293829020600181018990556002810182905560030180546001600160801b0319168a17909716958502959095179095558451868152908101849052845192959491927fbb1322f85cc7cc8bac4e172a5bc5dcc0c1959007f9a030032abf9258205f0e45929181900390910190a2505050505050565b8061228957610e12565b60065460408051631062c15f60e11b81523060048201526001600160a01b03858116602483015260448201859052915191909216916320c582be91606480830192600092919082900301818387803b1580156122e457600080fd5b505af11580156122f8573d6000803e3d6000fd5b50505050610e12816133f1565b6001600160a01b0382166000908152600b60205260409020819055806123b3576001600160a01b0382166000818152600b60209081526040808320600190810180546001600160a01b0319169055600c83528184208481559081018490556002810184905560030183905580518381529182018390528181019290925290517f2d6cc0bcdf72c9486f6451bde6b80f44066f4558f77f44dbfedbe7d8b295225a9181900360600190a2610e12565b6011546010546001600160801b03600160801b8084048216600081815260126020908152604080832097861680845297825280832054848452601383528184208985528352818420546001600160a01b038c16808652600c855294839020600181018a90558281556002810182905560030180546001600160801b0319168b179098169686029690961790965580518781529182018690528181018590525192959493927f2d6cc0bcdf72c9486f6451bde6b80f44066f4558f77f44dbfedbe7d8b295225a916060908290030190a250505050505050565b8061249557611ec5565b6009546000906124ab908363ffffffff611f5216565b60098190556040805182815290519192506000805160206136ab833981519152919081900360200190a1604080513381526020810184905281517f6109e2559dfa766aaec7118351d48a523f0a4157f49c8d68749c8ac41318ad12929181900390910190a1604051600090339084908381818185875af1925050503d8060008114612552576040519150601f19603f3d011682016040523d82523d6000602084013e612557565b606091505b5050905080611e815760405162461bcd60e51b81526004018080602001828103825260218152602001806137a56021913960400191505060405180910390fd5b6005546001600160a01b03163314610aa45760405162461bcd60e51b81526004018080602001828103825260298152602001806136306029913960400191505060405180910390fd5b6000806000612612601554612606670de0b6b3a764000089612fc790919063ffffffff16565b9063ffffffff610aa616565b90508385111561261e57fe5b8385141561263b576000601655670de0b6b3a7640000915061269b565b6016546000906126699061265d88670de0b6b3a764000063ffffffff612fc716565b9063ffffffff611f5216565b90506126806001612606838863ffffffff61302016565b92506126968161265d858863ffffffff612fc716565b601655505b6126ab818563ffffffff61302016565b92506126cd6126c0848663ffffffff612fc716565b829063ffffffff611f5216565b60155550935093915050565b6010546000670de0b6b3a76400008311156126f057fe5b600061270a670de0b6b3a76400008563ffffffff611f5216565b6011546001600160801b03600160801b82048116600081815260126020908152604080832094909516808352939052928320549394509092909161274e8988612fc7565b90506000612762838363ffffffff610aa616565b6001600160801b038086166000818152601260209081526040808320948b16808452948252918290208590558151858152908101929092528181019290925290519192507fe12e2cd2c9afa8069203ca07e7eff1edce4a075686d0736a8e7e0d593597b207919081900360600190a185612899576127f06001600160801b038516600163ffffffff61344716565b601180546001600160801b03908116600160801b938216840217918290556040805193909204168252517fb50f0f59e7cb5b421dc77581c3a9919e3806e076e5fa78a874c3f120cb7d874d916020908290030190a1601180546001600160801b0319169055604080516000815290517f1f9dfc70cd666adb18a39d60a797518f7b4febf4b6e24ef37d44f6e1e7219fbe9181900360200190a1670de0b6b3a76400009650612985565b633b9aca006128ba670de0b6b3a76400006116928b8a63ffffffff612fc716565b1015612966576128f0670de0b6b3a7640000611692633b9aca006128e48c8b63ffffffff612fc716565b9063ffffffff612fc716565b965061290c6001600160801b038616600163ffffffff61344716565b601180546001600160801b0319166001600160801b0392831617908190556040805191909216815290517f1f9dfc70cd666adb18a39d60a797518f7b4febf4b6e24ef37d44f6e1e7219fbe916020908290030190a1612985565b612982670de0b6b3a76400006116928a8963ffffffff612fc716565b96505b6000871161298f57fe5b60108790556040805188815290517fc1a9618cb59ebca77cbdbc2949f126823c407ff13edb285fd0262519a9c18e8c9181900360200190a150505050505050505050565b6000805460408051632a7ba1f760e01b81526004810185905290516001600160a01b03909216928392632a7ba1f792602480820193929182900301818387803b158015612a1f57600080fd5b505af1158015612a33573d6000803e3d6000fd5b50505050612a40826133f1565b60065460408051632770a7eb60e21b81523060048201526024810185905290516001600160a01b0390921691639dc29fac9160448082019260009290919082900301818387803b158015612a9357600080fd5b505af1158015612aa7573d6000803e3d6000fd5b505060408051628063a560e01b81523060048201526024810187905290516001600160a01b0385169350628063a59250604480830192600092919082900301818387803b158015612af757600080fd5b505af1158015611a8b573d6000803e3d6000fd5b6001600160a01b0381166000908152600d602052604090206001015460ff1615611ec55760405162461bcd60e51b81526004018080602001828103825260398152602001806137446039913960400191505060405180910390fd5b6001600160a01b0381166000908152600b60205260409020548015610e125760405162461bcd60e51b815260040180806020018281038252602881526020018061377d6028913960400191505060405180910390fd5b670de0b6b3a7640000811115611ec55760405162461bcd60e51b81526004018080602001828103825260338152602001806136cb6033913960400191505060405180910390fd5b6001600160a01b0381166000908152600d602052604090206001015460ff1680612c3457506001600160a01b038116155b611ec55760405162461bcd60e51b81526004018080602001828103825260468152602001806135a36046913960600191505060405180910390fd5b60008111611ec55760405162461bcd60e51b81526004018080602001828103825260268152602001806136fe6026913960400191505060405180910390fd5b6001600160a01b038281166000818152600b602052604080822060010180546001600160a01b0319169486169485179055517f094c08e96a8890877a8390b4f967180a7507ad8622244d05fcd0f9f8e086564e9190a35050565b60065460408051632ee65eeb60e21b81526001600160a01b038581166004830152306024830152604482018590529151919092169163bb997bac91606480830192600092919082900301818387803b158015612d6357600080fd5b505af1158015612d77573d6000803e3d6000fd5b5050600a5460009250612d9191508363ffffffff610aa616565b600a8190556040805182815290519192507f8c9268469ff6265448f46f8119962e815f393b25b87bb55bda5e709a412b85d7919081900360200190a1505050565b600554604080516321e3780160e01b81526001600160a01b038481166004830152915191909216916321e37801916024808301926020929190829003018186803b158015612e1f57600080fd5b505afa158015612e33573d6000803e3d6000fd5b505050506040513d6020811015612e4957600080fd5b5051600114611ec55760405162461bcd60e51b81526004018080602001828103825260468152602001806137c66046913960600191505060405180910390fd5b6000612e94826116a9565b905060008111610e125760405162461bcd60e51b81526004018080602001828103825260318152602001806136596031913960400191505060405180910390fd5b608081015160608201516040808401516020808601516001600160801b03808716600090815260138452858120918716815292529281205490949392908590612f24908463ffffffff611f5216565b6001600160801b03808716600090815260136020526040812092935091612f8791633b9aca0091908490612f61908a16600163ffffffff61344716565b6001600160801b031681526020810191909152604001600020549063ffffffff61302016565b90506000612fb9670de0b6b3a76400006116928681612fac888863ffffffff610aa616565b8f9063ffffffff612fc716565b9a9950505050505050505050565b600082612fd657506000610b03565b82820282848281612fe357fe5b0414610b005760405162461bcd60e51b815260040180806020018281038252602181526020018061368a6021913960400191505060405180910390fd5b6000610b0083836040518060400160405280601a81526020017f536166654d6174683a206469766973696f6e206279207a65726f000000000000815250613497565b6080810151606082015182516020808501516001600160801b038086166000908152601284526040808220928716825291909352822054919493929185906130b0908463ffffffff611f5216565b6001600160801b03808716600090815260126020526040812092935091612f8791633b9aca0091908490612f61908a16600163ffffffff61344716565b6001600160a01b038116613148576040805162461bcd60e51b815260206004820152601e60248201527f4163636f756e742063616e6e6f74206265207a65726f20616464726573730000604482015290519081900360640190fd5b803b80610e12576040805162461bcd60e51b815260206004820181905260248201527f4163636f756e7420636f64652073697a652063616e6e6f74206265207a65726f604482015290519081900360640190fd5b6003546040516000916001600160a01b0316907f8be0079c531659141344cd1fd0a4f28419497f9722a3daafe3b4186f6b6457e0908390a3600380546001600160a01b0319169055565b6000826001600160801b0316826001600160801b031611156132395760405162461bcd60e51b815260040180806020018281038252602881526020018061385c6028913960400191505060405180910390fd5b50900390565b600a5480158061324d575081155b156132585750611ec5565b600061326483836134fc565b9050600061327d60105483612fc790919063ffffffff16565b6011546001600160801b03600160801b8204811660009081526013602090815260408083209390941682529190915220549091506132c1908263ffffffff610aa616565b601180546001600160801b03600160801b808304821660009081526013602081815260408084209686168452958152858320979097559454918204831680825294865283812091909216808352908552908290205482519081529384019290925282810191909152517f2d6127771b164a9cc8827d24b5955db2a77e7a81dac389107ebb8bce9fb649689181900360600190a150505050565b600081848411156133e95760405162461bcd60e51b81526004018080602001828103825283818151815260200191508051906020019080838360005b838110156133ae578181015183820152602001613396565b50505050905090810190601f1680156133db5780820380516001836020036101000a031916815260200191505b509250505060405180910390fd5b505050900390565b600a54600090613407908363ffffffff611f5216565b600a8190556040805182815290519192507f8c9268469ff6265448f46f8119962e815f393b25b87bb55bda5e709a412b85d7919081900360200190a15050565b60008282016001600160801b038085169082161015610b005760405162461bcd60e51b81526004018080602001828103825260258152602001806138846025913960400191505060405180910390fd5b600081836134e65760405162461bcd60e51b81526020600482018181528351602484015283519092839260449091019190850190808383600083156133ae578181015183820152602001613396565b5060008385816134f257fe5b0495945050505050565b600080613520601454612606670de0b6b3a764000087612fc790919063ffffffff16565b90506000613534828563ffffffff61302016565b9050613556613549828663ffffffff612fc716565b839063ffffffff611f5216565b601455949350505050565b6040518060a0016040528060008152602001600081526020016000815260200160006001600160801b0316815260200160006001600160801b03168152509056fe53746162696c697479506f6f6c3a20546167206d757374206265206120726567697374657265642066726f6e7420656e642c206f7220746865207a65726f206164647265737353746162696c697479506f6f6c3a2043616c6c6572206973206e6f7420416374697665506f6f6cbce78369dccab09eec1986f4d409ab09ffbb47d65423e5148fcf98411c5111c953746162696c697479506f6f6c3a2043616c6c6572206973206e6f742054726f76654d616e6167657253746162696c697479506f6f6c3a2063616c6c6572206d7573742068617665206e6f6e2d7a65726f2046494c204761696e536166654d6174683a206d756c7469706c69636174696f6e206f766572666c6f77d05c60ff21c33fb1103e848d5310f11270e7db91e1b079c4bdd0c6024f83d6c753746162696c697479506f6f6c3a204b69636b6261636b2072617465206d75737420626520696e2072616e6765205b302c315d53746162696c697479506f6f6c3a20416d6f756e74206d757374206265206e6f6e2d7a65726f69e8bca5591c9a2886b122cc27d391b407b746b724f75b996c37903b868c449753746162696c697479506f6f6c3a206d757374206e6f7420616c7265616479206265206120726567697374657265642066726f6e7420656e6453746162696c697479506f6f6c3a2055736572206d7573742068617665206e6f206465706f73697453746162696c697479506f6f6c3a2073656e64696e672046494c206661696c656453746162696c697479506f6f6c3a2063616c6c6572206d757374206861766520616e206163746976652074726f766520746f2077697468647261772046494c4761696e20746f53746162696c697479506f6f6c3a2055736572206d75737420686176652061206e6f6e2d7a65726f206465706f73697499920012339b5a3368d3a04b8606ce412c46ed92b7dcd8602d41fc8862cb8f254c697175697479536166654d6174683132383a207375627472616374696f6e206f766572666c6f774c697175697479536166654d6174683132383a206164646974696f6e206f766572666c6f7753746162696c697479506f6f6c3a2043616e6e6f74207769746864726177207768696c65207468657265206172652074726f766573207769746820494352203c204d4352a2646970667358221220dde15a2b75f980ce2232aab2c54aafd6aeeffc8d2034e05cbaeb8476e8570a0764736f6c634300060b00336080604052348015600f57600080fd5b50603f80601d6000396000f3fe6080604052600080fdfea2646970667358221220f28d7e8d4bb1a3f5b4fa29c3ad42198cb4f7e66901d29f4015968ab22bbc265d64736f6c634300060b00336101606040523480156200001257600080fd5b50604051620018f2380380620018f2833981810160405260608110156200003857600080fd5b50805160208201516040909201519091906200005d836001600160e01b036200023816565b62000071826001600160e01b036200023816565b62000085816001600160e01b036200023816565b6001600160601b0319606084901b1661010052604080516001600160a01b038516815290517f143219c9e69b09e07e095fcc889b43d8f46ca892bba65f08dc3a0050869a56789181900360200190a16001600160601b0319606083901b1661012052604080516001600160a01b038416815290517f82966d27eea39b038ee0fa30cd16532bb24f6e65d31cb58fb227aa5766cdcc7f9181900360200190a16001600160601b0319606082901b1661014052604080516001600160a01b038316815290517f3ca631ffcd2a9b5d9ae18543fc82f58eb4ca33af9e6ab01b7a8e95331e6ed9859181900360200190a16000604051806060016040528060218152602001620018d16021913980516020918201206040805180820190915260018152603160f81b92019190915260c08190527fc89efdaa54c0f20c7adf612882df0950f5a951637e0307cdcb4c672f298b8bc660e0819052909150620001f06001600160e01b03620002ed16565b60a052620002297f8b73c3c69bb8fe3d512ecc4cf759cc79239f7b179b0ffacaa9a75d522b39400f83836001600160e01b03620002f116565b60805250620003529350505050565b6001600160a01b03811662000294576040805162461bcd60e51b815260206004820152601e60248201527f4163636f756e742063616e6e6f74206265207a65726f20616464726573730000604482015290519081900360640190fd5b803b80620002e9576040805162461bcd60e51b815260206004820181905260248201527f4163636f756e7420636f64652073697a652063616e6e6f74206265207a65726f604482015290519081900360640190fd5b5050565b4690565b6000838383620003096001600160e01b03620002ed16565b6040805160208082019690965280820194909452606084019290925260808301523060a0808401919091528151808403909101815260c090920190528051910120949350505050565b60805160a05160c05160e0516101005160601c6101205160601c6101405160601c6114f0620003e1600039806107655280610d615280610ed75280610fd252508061051f5280610b475280610ce65280611037528061115552508061066f5280610b155280610d235280611004525080610a5d525080610a3c5250806109c25250806109f252506114f06000f3fe608060405234801561001057600080fd5b506004361061014d5760003560e01c80635a4d28bb116100c3578063a9059cbb1161007c578063a9059cbb146103f5578063b7f8cf9b14610421578063bb997bac14610429578063d505accf1461045f578063dd62ed3e146104b0578063f698da25146104de5761014d565b80635a4d28bb1461034157806370a08231146103495780637ecebe001461036f57806395d89b41146103955780639dc29fac1461039d578063a457c2d7146103c95761014d565b806320c582be1161011557806320c582be1461025557806323b872dd1461028d578063313ce567146102c357806339509351146102e157806340c10f191461030d57806354fd4d50146103395761014d565b806306fdde0314610152578063095ea7b3146101cf5780630b622ab21461020f57806310ce43bd1461023357806318160ddd1461024d575b600080fd5b61015a6104e6565b6040805160208082528351818301528351919283929083019185019080838360005b8381101561019457818101518382015260200161017c565b50505050905090810190601f1680156101c15780820380516001836020036101000a031916815260200191505b509250505060405180910390f35b6101fb600480360360408110156101e557600080fd5b506001600160a01b038135169060200135610507565b604080519115158252519081900360200190f35b61021761051d565b604080516001600160a01b039092168252519081900360200190f35b61023b610541565b60408051918252519081900360200190f35b61023b610565565b61028b6004803603606081101561026b57600080fd5b506001600160a01b0381358116916020810135909116906040013561056b565b005b6101fb600480360360608110156102a357600080fd5b506001600160a01b03813581169160208101359091169060400135610583565b6102cb6105fb565b6040805160ff9092168252519081900360200190f35b6101fb600480360360408110156102f757600080fd5b506001600160a01b038135169060200135610600565b61028b6004803603604081101561032357600080fd5b506001600160a01b03813516906020013561063c565b61015a610652565b61021761066d565b61023b6004803603602081101561035f57600080fd5b50356001600160a01b0316610691565b61023b6004803603602081101561038557600080fd5b50356001600160a01b03166106ac565b61015a6106c7565b61028b600480360360408110156103b357600080fd5b506001600160a01b0381351690602001356106e6565b6101fb600480360360408110156103df57600080fd5b506001600160a01b0381351690602001356106f8565b6101fb6004803603604081101561040b57600080fd5b506001600160a01b03813516906020013561074d565b610217610763565b61028b6004803603606081101561043f57600080fd5b506001600160a01b03813581169160208101359091169060400135610787565b61028b600480360360e081101561047557600080fd5b506001600160a01b03813581169160208101359091169060408101359060608101359060ff6080820135169060a08101359060c0013561078f565b61023b600480360360408110156104c657600080fd5b506001600160a01b0381358116916020013516610993565b61023b6109be565b606060405180606001604052806021815260200161143a6021913990505b90565b6000610514338484610a88565b50600192915050565b7f000000000000000000000000000000000000000000000000000000000000000081565b7f6e71edae12b1b97f4d1f60370fef10105fa2faae0126114a169c64845d6126c990565b60005490565b610573610b0a565b61057e838383610ba6565b505050565b600061058e83610c88565b610599848484610ba6565b6105f184336105ec856040518060600160405280602881526020016113f2602891396001600160a01b038a166000908152600360209081526040808320338452909152902054919063ffffffff610dd416565b610a88565b5060019392505050565b601290565b3360008181526003602090815260408083206001600160a01b038716845290915281205490916105149185906105ec908663ffffffff610e6b16565b610644610ecc565b61064e8282610f33565b5050565b6040805180820190915260018152603160f81b602082015290565b7f000000000000000000000000000000000000000000000000000000000000000081565b6001600160a01b031660009081526002602052604090205490565b6001600160a01b031660009081526001602052604090205490565b6040805180820190915260058152642aa9a229a360d91b602082015290565b6106ee610fc7565b61064e8282611094565b600061051433846105ec85604051806060016040528060258152602001611496602591393360009081526003602090815260408083206001600160a01b038d168452909152902054919063ffffffff610dd416565b600061075883610c88565b610514338484610ba6565b7f000000000000000000000000000000000000000000000000000000000000000081565b61057361114a565b428410156107e4576040805162461bcd60e51b815260206004820152601b60248201527f44656274546f6b656e3a206578706972656420646561646c696e650000000000604482015290519081900360640190fd5b60006107ee6109be565b6001600160a01b03808a166000818152600160208181526040808420805480850190915581517f6e71edae12b1b97f4d1f60370fef10105fa2faae0126114a169c64845d6126c98185015280830196909652958e166060860152608085018d905260a085019590955260c08085018c90528551808603909101815260e08501865280519082012061190160f01b6101008601526101028501969096526101228085019690965284518085039096018652610142840180865286519682019690962095839052610162840180865286905260ff8a166101828501526101a284018990526101c284018890529351949550909390926101e2808401939192601f1981019281900390910190855afa15801561090b573d6000803e3d6000fd5b505050602060405103519050886001600160a01b0316816001600160a01b03161461097d576040805162461bcd60e51b815260206004820152601c60248201527f44656274546f6b656e3a20696e76616c6964207369676e617475726500000000604482015290519081900360640190fd5b610988898989610a88565b505050505050505050565b6001600160a01b03918216600090815260036020908152604080832093909416825291909152205490565b60007f00000000000000000000000000000000000000000000000000000000000000006109e96111b1565b1415610a1657507f0000000000000000000000000000000000000000000000000000000000000000610504565b610a817f8b73c3c69bb8fe3d512ecc4cf759cc79239f7b179b0ffacaa9a75d522b39400f7f00000000000000000000000000000000000000000000000000000000000000007f00000000000000000000000000000000000000000000000000000000000000006111b5565b9050610504565b6001600160a01b038316610a9857fe5b6001600160a01b038216610aa857fe5b6001600160a01b03808416600081815260036020908152604080832094871680845294825291829020859055815185815291517f8c5be1e5ebec7d5bd14f71427d1e84f3dd0314c0f7b2291e5b200ac8c7c3b9259281900390910190a3505050565b336001600160a01b037f0000000000000000000000000000000000000000000000000000000000000000161480610b695750336001600160a01b037f000000000000000000000000000000000000000000000000000000000000000016145b610ba45760405162461bcd60e51b815260040180806020018281038252603b81526020018061145b603b913960400191505060405180910390fd5b565b6001600160a01b038316610bb657fe5b6001600160a01b038216610bc657fe5b610c0981604051806060016040528060268152602001611349602691396001600160a01b038616600090815260026020526040902054919063ffffffff610dd416565b6001600160a01b038085166000908152600260205260408082209390935590841681522054610c3e908263ffffffff610e6b16565b6001600160a01b03808416600081815260026020908152604091829020949094558051858152905191939287169260008051602061141a83398151915292918290030190a3505050565b6001600160a01b03811615801590610ca957506001600160a01b0381163014155b610ce45760405162461bcd60e51b815260040180806020018281038252605981526020018061136f6059913960600191505060405180910390fd5b7f00000000000000000000000000000000000000000000000000000000000000006001600160a01b0316816001600160a01b031614158015610d5857507f00000000000000000000000000000000000000000000000000000000000000006001600160a01b0316816001600160a01b031614155b8015610d9657507f00000000000000000000000000000000000000000000000000000000000000006001600160a01b0316816001600160a01b031614155b610dd15760405162461bcd60e51b815260040180806020018281038252605c8152602001806112c2605c913960600191505060405180910390fd5b50565b60008184841115610e635760405162461bcd60e51b81526004018080602001828103825283818151815260200191508051906020019080838360005b83811015610e28578181015183820152602001610e10565b50505050905090810190601f168015610e555780820380516001836020036101000a031916815260200191505b509250505060405180910390fd5b505050900390565b600082820183811015610ec5576040805162461bcd60e51b815260206004820152601b60248201527f536166654d6174683a206164646974696f6e206f766572666c6f770000000000604482015290519081900360640190fd5b9392505050565b336001600160a01b037f00000000000000000000000000000000000000000000000000000000000000001614610ba45760405162461bcd60e51b815260040180806020018281038252602b81526020018061131e602b913960400191505060405180910390fd5b6001600160a01b038216610f4357fe5b600054610f56908263ffffffff610e6b16565b60009081556001600160a01b038316815260026020526040902054610f81908263ffffffff610e6b16565b6001600160a01b038316600081815260026020908152604080832094909455835185815293519293919260008051602061141a8339815191529281900390910190a35050565b336001600160a01b037f00000000000000000000000000000000000000000000000000000000000000001614806110265750336001600160a01b037f000000000000000000000000000000000000000000000000000000000000000016145b806110595750336001600160a01b037f000000000000000000000000000000000000000000000000000000000000000016145b610ba45760405162461bcd60e51b81526004018080602001828103825260528152602001806112706052913960600191505060405180910390fd5b6001600160a01b0382166110a457fe5b6110e78160405180606001604052806022815260200161124e602291396001600160a01b038516600090815260026020526040902054919063ffffffff610dd416565b6001600160a01b03831660009081526002602052604081209190915554611114908263ffffffff61120b16565b60009081556040805183815290516001600160a01b0385169160008051602061141a833981519152919081900360200190a35050565b336001600160a01b037f00000000000000000000000000000000000000000000000000000000000000001614610ba45760405162461bcd60e51b815260040180806020018281038252602a8152602001806113c8602a913960400191505060405180910390fd5b4690565b60008383836111c26111b1565b6040805160208082019690965280820194909452606084019290925260808301523060a0808401919091528151808403909101815260c090920190528051910120949350505050565b6000610ec583836040518060400160405280601e81526020017f536166654d6174683a207375627472616374696f6e206f766572666c6f770000815250610dd456fe45524332303a206275726e20616d6f756e7420657863656564732062616c616e636544656274546f6b656e3a2043616c6c6572206973206e65697468657220426f72726f7765724f7065726174696f6e73206e6f722054726f76654d616e61676572206e6f722053746162696c697479506f6f6c44656274546f6b656e3a2043616e6e6f74207472616e7366657220746f6b656e73206469726563746c7920746f207468652053746162696c697479506f6f6c2c2054726f76654d616e61676572206f7220426f72726f7765724f707344656274546f6b656e3a2043616c6c6572206973206e6f7420426f72726f7765724f7065726174696f6e7345524332303a207472616e7366657220616d6f756e7420657863656564732062616c616e636544656274546f6b656e3a2043616e6e6f74207472616e7366657220746f6b656e73206469726563746c7920746f20746865204465627420746f6b656e20636f6e7472616374206f7220746865207a65726f206164647265737344656274546f6b656e3a2043616c6c6572206973206e6f74207468652053746162696c697479506f6f6c45524332303a207472616e7366657220616d6f756e74206578636565647320616c6c6f77616e6365ddf252ad1be2c89b69c2b068fc378daa952ba7f163c4a11628f55a4df523b3ef55534420537461626c65636f696e206261636b65642062792046696c65636f696e44656274546f6b656e3a2043616c6c6572206973206e6569746865722054726f76654d616e61676572206e6f722053746162696c697479506f6f6c45524332303a2064656372656173656420616c6c6f77616e63652062656c6f77207a65726fa2646970667358221220517dae80d25d2ec6e7eb718bd9e663e60ec0f355aef8930464d2afe6025023c564736f6c634300060b003355534420537461626c65636f696e206261636b65642062792046696c65636f696e608060405234801561001057600080fd5b50600080546001600160a01b0319163390811782556040519091907f8be0079c531659141344cd1fd0a4f28419497f9722a3daafe3b4186f6b6457e0908290a3610b3a8061005f6000396000f3fe6080604052600436106100a05760003560e01c80639b56d6c9116100645780639b56d6c9146101b9578063a3f4df7e146101fe578063b08bc72214610288578063b32beb5b1461029d578063b7f8cf9b146102d0578063c5c3937e146102e5576100c5565b8063363bf964146100ca5780633f10abab146101115780635a4d28bb1461014a5780638da5cb5b1461017b5780638f32d59b14610190576100c5565b366100c5576100ad6102fa565b6004546100c0903463ffffffff61034516565b600455005b600080fd5b3480156100d657600080fd5b5061010f600480360360608110156100ed57600080fd5b506001600160a01b0381358116916020810135821691604090910135166103a6565b005b34801561011d57600080fd5b5061010f6004803603604081101561013457600080fd5b506001600160a01b03813516906020013561050c565b34801561015657600080fd5b5061015f610598565b604080516001600160a01b039092168252519081900360200190f35b34801561018757600080fd5b5061015f6105a7565b34801561019c57600080fd5b506101a56105b6565b604080519115158252519081900360200190f35b3480156101c557600080fd5b506101ec600480360360208110156101dc57600080fd5b50356001600160a01b03166105c7565b60408051918252519081900360200190f35b34801561020a57600080fd5b506102136105e2565b6040805160208082528351818301528351919283929083019185019080838360005b8381101561024d578181015183820152602001610235565b50505050905090810190601f16801561027a5780820380516001836020036101000a031916815260200191505b509250505060405180910390f35b34801561029457600080fd5b5061015f61060d565b3480156102a957600080fd5b5061010f600480360360208110156102c057600080fd5b50356001600160a01b031661061c565b3480156102dc57600080fd5b5061015f6107b1565b3480156102f157600080fd5b506101ec6107c0565b6003546001600160a01b031633146103435760405162461bcd60e51b815260040180806020018281038252602a815260200180610a5b602a913960400191505060405180910390fd5b565b60008282018381101561039f576040805162461bcd60e51b815260206004820152601b60248201527f536166654d6174683a206164646974696f6e206f766572666c6f770000000000604482015290519081900360640190fd5b9392505050565b6103ae6105b6565b6103ff576040805162461bcd60e51b815260206004820181905260248201527f4f776e61626c653a2063616c6c6572206973206e6f7420746865206f776e6572604482015290519081900360640190fd5b610408836107c6565b610411826107c6565b61041a816107c6565b600180546001600160a01b038086166001600160a01b0319928316811790935560028054868316908416179055600380549185169190921617905560408051918252517f3ca631ffcd2a9b5d9ae18543fc82f58eb4ca33af9e6ab01b7a8e95331e6ed9859181900360200190a1604080516001600160a01b038416815290517f143219c9e69b09e07e095fcc889b43d8f46ca892bba65f08dc3a0050869a56789181900360200190a1604080516001600160a01b038316815290517f78f058b189175430c48dc02699e3a0031ea4ff781536dc2fab847de4babdd8829181900360200190a1610507610879565b505050565b6105146108c3565b6001600160a01b03821660009081526005602052604081205461053d908363ffffffff61034516565b6001600160a01b0384166000818152600560209081526040918290208490558151848152915193945091927ff0393a34d05e6567686ad4e097f9d9d2781565957394f1f0d984e5d8e6378f20929181900390910190a2505050565b6002546001600160a01b031681565b6000546001600160a01b031690565b6000546001600160a01b0316331490565b6001600160a01b031660009081526005602052604090205490565b6040518060400160405280600f81526020016e10dbdb1b14dd5c9c1b1d5cd41bdbdb608a1b81525081565b6003546001600160a01b031681565b61062461090c565b6001600160a01b038116600090815260056020526040902054806106795760405162461bcd60e51b8152600401808060200182810382526031815260200180610a2a6031913960400191505060405180910390fd5b6001600160a01b03821660008181526005602090815260408083208390558051928352517ff0393a34d05e6567686ad4e097f9d9d2781565957394f1f0d984e5d8e6378f209281900390910190a26004546106da908263ffffffff61095516565b600455604080516001600160a01b03841681526020810183905281517f6109e2559dfa766aaec7118351d48a523f0a4157f49c8d68749c8ac41318ad12929181900390910190a16040516000906001600160a01b0384169083908381818185875af1925050503d806000811461076c576040519150601f19603f3d011682016040523d82523d6000602084013e610771565b606091505b50509050806105075760405162461bcd60e51b8152600401808060200182810382526023815260200180610a856023913960400191505060405180910390fd5b6001546001600160a01b031681565b60045490565b6001600160a01b038116610821576040805162461bcd60e51b815260206004820152601e60248201527f4163636f756e742063616e6e6f74206265207a65726f20616464726573730000604482015290519081900360640190fd5b803b80610875576040805162461bcd60e51b815260206004820181905260248201527f4163636f756e7420636f64652073697a652063616e6e6f74206265207a65726f604482015290519081900360640190fd5b5050565b600080546040516001600160a01b03909116907f8be0079c531659141344cd1fd0a4f28419497f9722a3daafe3b4186f6b6457e0908390a3600080546001600160a01b0319169055565b6002546001600160a01b031633146103435760405162461bcd60e51b815260040180806020018281038252602b815260200180610ada602b913960400191505060405180910390fd5b6001546001600160a01b031633146103435760405162461bcd60e51b8152600401808060200182810382526032815260200180610aa86032913960400191505060405180910390fd5b600061039f83836040518060400160405280601e81526020017f536166654d6174683a207375627472616374696f6e206f766572666c6f77000081525060008184841115610a215760405162461bcd60e51b81526004018080602001828103825283818151815260200191508051906020019080838360005b838110156109e65781810151838201526020016109ce565b50505050905090810190601f168015610a135780820380516001836020036101000a031916815260200191505b509250505060405180910390fd5b50505090039056fe436f6c6c537572706c7573506f6f6c3a204e6f20636f6c6c61746572616c20617661696c61626c6520746f20636c61696d436f6c6c537572706c7573506f6f6c3a2043616c6c6572206973206e6f742041637469766520506f6f6c436f6c6c537572706c7573506f6f6c3a2073656e64696e672046494c206661696c6564436f6c6c537572706c7573506f6f6c3a2043616c6c6572206973206e6f7420426f72726f776572204f7065726174696f6e73436f6c6c537572706c7573506f6f6c3a2043616c6c6572206973206e6f742054726f76654d616e61676572a2646970667358221220856615881b2d87df09059eb61c869f6102d0933bdd0174269b163100e9041ca364736f6c634300060b00336080604052680ad78ebc5ac620000060005534801561001d57600080fd5b5061010e8061002d6000396000f3fe6080604052348015600f57600080fd5b5060043610603c5760003560e01c80630fdb11cf14604157806391b7f5ed14605957806398d5fdca146087575b600080fd5b6047608d565b60408051918252519081900360200190f35b607360048036036020811015606d57600080fd5b503560ca565b604080519115158252519081900360200190f35b604760d2565b6000805460408051918252517f4d29de21de555af78a62fc82dd4bc05e9ae5b0660a37f04729527e0f22780cd39181900360200190a15060005490565b600055600190565b6000549056fea26469706673582212207ca3ce58510b16e7378becbcfe4762ab8b3fd85a914e8c2545a8a814bea9392064736f6c634300060b0033608060405234801561001057600080fd5b50600080546001600160a01b0319163390811782556040519091907f8be0079c531659141344cd1fd0a4f28419497f9722a3daafe3b4186f6b6457e0908290a36118ce8061005f6000396000f3fe608060405234801561001057600080fd5b50600436106101375760003560e01c8063681fe70c116100b8578063a3f4df7e1161007c578063a3f4df7e1461036a578063b72703ac146103e7578063b7f8cf9b1461040d578063babd3d9a14610415578063de8fa4311461041d578063f376d7981461042557610137565b8063681fe70c146102f257806373d4a13a146102fa578063765e0159146103345780638da5cb5b1461035a5780638f32d59b1461036257610137565b8063416980dc116100ff578063416980dc1461021457806346f7cf871461026e5780634d622831146102aa5780635dbe47e8146102b257806363e1d57c146102d857610137565b80631e2231431461013c57806329092d0e146101605780632be21260146101885780633d83908a146101c45780633fce12d5146101cc575b600080fd5b610144610459565b604080516001600160a01b039092168252519081900360200190f35b6101866004803603602081101561017657600080fd5b50356001600160a01b0316610468565b005b6101866004803603608081101561019e57600080fd5b506001600160a01b0381358116916020810135916040820135811691606001351661047c565b610144610531565b610200600480360360608110156101e257600080fd5b508035906001600160a01b0360208201358116916040013516610540565b604080519115158252519081900360200190f35b6102486004803603606081101561022a57600080fd5b508035906001600160a01b0360208201358116916040013516610563565b604080516001600160a01b03938416815291909216602082015281519081900390910190f35b6101866004803603608081101561028457600080fd5b506001600160a01b0381358116916020810135916040820135811691606001351661058d565b6101446105a2565b610200600480360360208110156102c857600080fd5b50356001600160a01b03166105b1565b6102e06105cf565b60408051918252519081900360200190f35b6102006105d5565b6103026105dc565b604080516001600160a01b03958616815293909416602084015282840191909152606082015290519081900360800190f35b6101446004803603602081101561034a57600080fd5b50356001600160a01b03166105fb565b61014461061e565b61020061062d565b61037261063e565b6040805160208082528351818301528351919283929083019185019080838360005b838110156103ac578181015183820152602001610394565b50505050905090810190601f1680156103d95780820380516001836020036101000a031916815260200191505b509250505060405180910390f35b610144600480360360208110156103fd57600080fd5b50356001600160a01b0316610666565b610144610687565b610200610696565b6102e06106a0565b6101866004803603606081101561043b57600080fd5b508035906001600160a01b03602082013581169160400135166106a6565b6003546001600160a01b031690565b6104706107fe565b61047981610849565b50565b6002546001600160a01b031661049181610a7d565b61049a856105b1565b6104d55760405162461bcd60e51b815260040180806020018281038252602a8152602001806117d1602a913960400191505060405180910390fd5b600084116105145760405162461bcd60e51b81526004018080602001828103825260238152602001806118766023913960400191505060405180910390fd5b61051d85610849565b61052a8186868686610ad9565b5050505050565b6002546001600160a01b031681565b60025460009061055b906001600160a01b0316858585610e5d565b949350505050565b6002546000908190610580906001600160a01b0316868686611104565b915091505b935093915050565b6002546001600160a01b031661051d81610a7d565b6004546001600160a01b031690565b6001600160a01b031660009081526007602052604090205460ff1690565b60055490565b6006541590565b6003546004546005546006546001600160a01b03938416939092169184565b6001600160a01b0390811660009081526007602052604090205461010090041690565b6000546001600160a01b031690565b6000546001600160a01b0316331490565b6040518060400160405280600c81526020016b536f7274656454726f76657360a01b81525081565b6001600160a01b039081166000908152600760205260409020600101541690565b6001546001600160a01b031681565b6005546006541490565b60065490565b6106ae61062d565b6106ff576040805162461bcd60e51b815260206004820181905260248201527f4f776e61626c653a2063616c6c6572206973206e6f7420746865206f776e6572604482015290519081900360640190fd5b6000831161073e5760405162461bcd60e51b81526004018080602001828103825260228152602001806117fb6022913960400191505060405180910390fd5b610747826112f1565b610750816112f1565b6005839055600280546001600160a01b038085166001600160a01b03199283168117909355600180549185169190921617905560408051918252517f143219c9e69b09e07e095fcc889b43d8f46ca892bba65f08dc3a0050869a56789181900360200190a1604080516001600160a01b038316815290517f3ca631ffcd2a9b5d9ae18543fc82f58eb4ca33af9e6ab01b7a8e95331e6ed9859181900360200190a16107f96113a4565b505050565b6002546001600160a01b031633146108475760405162461bcd60e51b815260040180806020018281038252602c81526020018061181d602c913960400191505060405180910390fd5b565b610852816105b1565b61088d5760405162461bcd60e51b815260040180806020018281038252602a8152602001806117d1602a913960400191505060405180910390fd5b600654600110156109d3576003546001600160a01b03828116911614156108fc576001600160a01b03818116600090815260076020526040808220546003805461010090920485166001600160a01b0319928316179081905590931682529020600101805490911690556109ce565b6004546001600160a01b0382811691161415610963576001600160a01b0380821660009081526007602052604080822060010154600480546001600160a01b03191691851691909117908190559092168152208054610100600160a81b03191690556109ce565b6001600160a01b038082166000908152600760205260408082208054600180830180548716865284862080546101009485900489168502610100600160a81b03199091161790555492549190910485168452919092200180546001600160a01b031916919092161790555b6109f0565b600380546001600160a01b03199081169091556004805490911690555b6001600160a01b038116600090815260076020526040902080546001600160a81b0319168155600190810180546001600160a01b0319169055600654610a3b9163ffffffff6113ee16565b600655604080516001600160a01b038316815290517fcfc24166db4bb677e857cacabd1541fb2b30645021b27c5130419589b84db52b9181900360200190a150565b6001546001600160a01b0316331480610a9e5750336001600160a01b038216145b6104795760405162461bcd60e51b815260040180806020018281038252602d815260200180611849602d913960400191505060405180910390fd5b610ae1610696565b15610b33576040805162461bcd60e51b815260206004820152601a60248201527f536f7274656454726f7665733a204c6973742069732066756c6c000000000000604482015290519081900360640190fd5b610b3c846105b1565b15610b785760405162461bcd60e51b815260040180806020018281038252602c8152602001806117a5602c913960400191505060405180910390fd5b6001600160a01b038416610bd3576040805162461bcd60e51b815260206004820152601f60248201527f536f7274656454726f7665733a2049642063616e6e6f74206265207a65726f00604482015290519081900360640190fd5b60008311610c125760405162461bcd60e51b81526004018080602001828103825260238152602001806118766023913960400191505060405180910390fd5b8181610c2087868484610e5d565b610c3657610c3087868484611104565b90925090505b6001600160a01b038087166000908152600760205260409020805460ff191660011790558216158015610c7057506001600160a01b038116155b15610ca557600380546001600160a01b0388166001600160a01b03199182168117909255600480549091169091179055610df9565b6001600160a01b038216610d1957600380546001600160a01b03888116600081815260076020526040808220805495851661010002610100600160a81b0319909616959095179094558454909216825291902060010180546001600160a01b03199081168317909155825416179055610df9565b6001600160a01b038116610d8957600480546001600160a01b0388811660008181526007602052604080822060010180549585166001600160a01b031996871617905585549093168152919091208054610100600160a81b03191661010083021790558254909116179055610df9565b6001600160a01b038087166000818152600760205260408082208054858716610100818102610100600160a81b031993841617845560019384018054988b166001600160a01b0319998a168117909155865284862080549188029190931617909155835291200180549092161790555b600654610e0d90600163ffffffff61143716565b600655604080516001600160a01b03881681526020810187905281517fe02b43adbee0c123de070a04554a71877a0007e2fc161466299cae3c094fe82f929181900390910190a150505050505050565b60006001600160a01b038316158015610e7d57506001600160a01b038216155b15610e9157610e8a6105d5565b905061055b565b6001600160a01b038316610f43576003546001600160a01b038381169116148015610e8a5750846001600160a01b031663b0d8e181836040518263ffffffff1660e01b815260040180826001600160a01b03166001600160a01b0316815260200191505060206040518083038186803b158015610f0d57600080fd5b505afa158015610f21573d6000803e3d6000fd5b505050506040513d6020811015610f3757600080fd5b5051841015905061055b565b6001600160a01b038216610ff5576004546001600160a01b038481169116148015610e8a5750846001600160a01b031663b0d8e181846040518263ffffffff1660e01b815260040180826001600160a01b03166001600160a01b0316815260200191505060206040518083038186803b158015610fbf57600080fd5b505afa158015610fd3573d6000803e3d6000fd5b505050506040513d6020811015610fe957600080fd5b5051841115905061055b565b6001600160a01b03838116600090815260076020526040902054610100900481169083161480156110a7575083856001600160a01b031663b0d8e181856040518263ffffffff1660e01b815260040180826001600160a01b03166001600160a01b0316815260200191505060206040518083038186803b15801561107857600080fd5b505afa15801561108c573d6000803e3d6000fd5b505050506040513d60208110156110a257600080fd5b505110155b8015610e8a5750846001600160a01b031663b0d8e181836040518263ffffffff1660e01b815260040180826001600160a01b03166001600160a01b0316815260200191505060206040518083038186803b158015610f0d57600080fd5b60008083836001600160a01b038216156111b757611121826105b1565b15806111ad5750876001600160a01b031663b0d8e181836040518263ffffffff1660e01b815260040180826001600160a01b03166001600160a01b0316815260200191505060206040518083038186803b15801561117e57600080fd5b505afa158015611192573d6000803e3d6000fd5b505050506040513d60208110156111a857600080fd5b505187115b156111b757600091505b6001600160a01b03811615611264576111cf816105b1565b158061125b5750876001600160a01b031663b0d8e181826040518263ffffffff1660e01b815260040180826001600160a01b03166001600160a01b0316815260200191505060206040518083038186803b15801561122c57600080fd5b505afa158015611240573d6000803e3d6000fd5b505050506040513d602081101561125657600080fd5b505187105b15611264575060005b6001600160a01b03821615801561128257506001600160a01b038116155b156112ab576003546112a090899089906001600160a01b0316611491565b9350935050506112e8565b6001600160a01b0382166112c4576112a08888836115d2565b6001600160a01b0381166112dd576112a0888884611491565b6112a0888884611491565b94509492505050565b6001600160a01b03811661134c576040805162461bcd60e51b815260206004820152601e60248201527f4163636f756e742063616e6e6f74206265207a65726f20616464726573730000604482015290519081900360640190fd5b803b806113a0576040805162461bcd60e51b815260206004820181905260248201527f4163636f756e7420636f64652073697a652063616e6e6f74206265207a65726f604482015290519081900360640190fd5b5050565b600080546040516001600160a01b03909116907f8be0079c531659141344cd1fd0a4f28419497f9722a3daafe3b4186f6b6457e0908390a3600080546001600160a01b0319169055565b600061143083836040518060400160405280601e81526020017f536166654d6174683a207375627472616374696f6e206f766572666c6f77000081525061170d565b9392505050565b600082820183811015611430576040805162461bcd60e51b815260206004820152601b60248201527f536166654d6174683a206164646974696f6e206f766572666c6f770000000000604482015290519081900360640190fd5b60035460009081906001600160a01b0384811691161480156115345750846001600160a01b031663b0d8e181846040518263ffffffff1660e01b815260040180826001600160a01b03166001600160a01b0316815260200191505060206040518083038186803b15801561150457600080fd5b505afa158015611518573d6000803e3d6000fd5b505050506040513d602081101561152e57600080fd5b50518410155b1561154457506000905081610585565b6001600160a01b038084166000908152600760205260409020548491610100909104165b6001600160a01b03821615801590611589575061158787878484610e5d565b155b156115c657506001600160a01b03908116600090815260076020526040808220546101009081900484168084529190922054909291900416611568565b90969095509350505050565b60045460009081906001600160a01b0384811691161480156116755750846001600160a01b031663b0d8e181846040518263ffffffff1660e01b815260040180826001600160a01b03166001600160a01b0316815260200191505060206040518083038186803b15801561164557600080fd5b505afa158015611659573d6000803e3d6000fd5b505050506040513d602081101561166f57600080fd5b50518411155b1561168557508190506000610585565b6001600160a01b038084166000908152600760205260409020600101548491165b6001600160a01b038216158015906116c757506116c587878385610e5d565b155b1561170257506001600160a01b03908116600090815260076020526040808220600190810154841680845291909220909101549091166116a6565b969095509350505050565b6000818484111561179c5760405162461bcd60e51b81526004018080602001828103825283818151815260200191508051906020019080838360005b83811015611761578181015183820152602001611749565b50505050905090810190601f16801561178e5780820380516001836020036101000a031916815260200191505b509250505060405180910390fd5b50505090039056fe536f7274656454726f7665733a204c69737420616c726561647920636f6e7461696e7320746865206e6f6465536f7274656454726f7665733a204c69737420646f6573206e6f7420636f6e7461696e20746865206964536f7274656454726f7665733a2053697a652063616ee2809974206265207a65726f536f7274656454726f7665733a2043616c6c6572206973206e6f74207468652054726f76654d616e61676572536f7274656454726f7665733a2043616c6c6572206973206e65697468657220424f206e6f722054726f76654d536f7274656454726f7665733a204e494352206d75737420626520706f736974697665a2646970667358221220b16feee3dc9c5eae3336095823b1c23b6d77291f8b0de8186f6636b5218f581064736f6c634300060b0033608060405234801561001057600080fd5b50604051610e35380380610e358339818101604052608081101561003357600080fd5b50805160208201516040830151606090930151600080546001600160a01b039485166001600160a01b0319918216179091556001805493851693821693909317909255600280549484169483169490941790935560038054929093169116179055610d92806100a36000396000f3fe6080604052600436106100ed5760003560e01c8063650b559c11610085578063650b559c146103405780637bbb0f5e14610390578063854febd6146103d1578063911347311461041a578063cc51a6c21461045c578063cf83544f14610495578063d466e4eb146104ce578063d94bcec214610507578063f47a1ea71461054a576100f4565b806332e859b9146100f957806335b101791461012f578063390b5f271461018a5780634903a3dd146101d75780634afbac51146101ec5780634c36240b146102695780634d37261f146102a2578063641b09b6146102d5578063643dec8c146102ff576100f4565b366100f457005b600080fd5b61012d6004803603606081101561010f57600080fd5b508035906001600160a01b0360208201358116916040013516610574565b005b34801561013b57600080fd5b5061012d600480360360e081101561015257600080fd5b508035906001600160a01b03602082013581169160408101358216916060820135169060808101359060a08101359060c001356105eb565b34801561019657600080fd5b506101c3600480360360408110156101ad57600080fd5b506001600160a01b038135169060200135610683565b604080519115158252519081900360200190f35b3480156101e357600080fd5b5061012d61070f565b3480156101f857600080fd5b5061012d6004803603602081101561020f57600080fd5b81019060208101813564010000000081111561022a57600080fd5b82018360208201111561023c57600080fd5b8035906020019184602083028401116401000000008311171561025e57600080fd5b509092509050610779565b34801561027557600080fd5b5061012d6004803603604081101561028c57600080fd5b50803590602001356001600160a01b0316610812565b3480156102ae57600080fd5b5061012d600480360360208110156102c557600080fd5b50356001600160a01b0316610867565b3480156102e157600080fd5b5061012d600480360360208110156102f857600080fd5b50356108cd565b34801561030b57600080fd5b5061012d6004803603606081101561032257600080fd5b508035906001600160a01b036020820135811691604001351661091a565b61012d600480360360e081101561035657600080fd5b5080359060208101359060408101359060608101351515906001600160a01b03608082013581169160a08101359091169060c00135610994565b34801561039c57600080fd5b5061012d600480360360608110156103b357600080fd5b508035906001600160a01b0360208201358116916040013516610a2c565b3480156103dd57600080fd5b5061012d600480360360808110156103f457600080fd5b508035906001600160a01b03602082013581169160408101359091169060600135610a89565b61012d600480360360a081101561043057600080fd5b508035906020810135906001600160a01b03604082013581169160608101359091169060800135610aed565b34801561046857600080fd5b506101c36004803603604081101561047f57600080fd5b506001600160a01b038135169060200135610b74565b3480156104a157600080fd5b506101c3600480360360408110156104b857600080fd5b506001600160a01b038135169060200135610bcd565b3480156104da57600080fd5b506101c3600480360360408110156104f157600080fd5b506001600160a01b038135169060200135610c26565b34801561051357600080fd5b506101c36004803603606081101561052a57600080fd5b506001600160a01b03813581169160208101359091169060400135610c7f565b34801561055657600080fd5b5061012d6004803603602081101561056d57600080fd5b5035610d14565b600154604080516368647db160e01b81526001600160a01b0385811660048301528481166024830152915191909216916368647db191869160448082019260009290919082900301818588803b1580156105cd57600080fd5b505af11580156105e1573d6000803e3d6000fd5b5050505050505050565b6000805460408051635e69ba9360e11b8152600481018b90526001600160a01b038a81166024830152898116604483015288811660648301526084820188905260a4820187905260c482018690529151919092169263bcd375269260e4808201939182900301818387803b15801561066257600080fd5b505af1158015610676573d6000803e3d6000fd5b5050505050505050505050565b6003546040805163a9059cbb60e01b81526001600160a01b038581166004830152602482018590529151600093929092169163a9059cbb9160448082019260209290919082900301818787803b1580156106dc57600080fd5b505af11580156106f0573d6000803e3d6000fd5b505050506040513d602081101561070657600080fd5b50519392505050565b600160009054906101000a90046001600160a01b03166001600160a01b0316630e704d506040518163ffffffff1660e01b8152600401600060405180830381600087803b15801561075f57600080fd5b505af1158015610773573d6000803e3d6000fd5b50505050565b600054604051631e8b1c2b60e01b8152602060048201818152602483018590526001600160a01b0390931692631e8b1c2b92869286929182916044909101908590850280828437600081840152601f19601f8201169050808301925050509350505050600060405180830381600087803b1580156107f657600080fd5b505af115801561080a573d6000803e3d6000fd5b505050505050565b60025460408051635f788d6560e01b8152600481018590526001600160a01b03848116602483015291519190921691635f788d6591604480830192600092919082900301818387803b1580156107f657600080fd5b60008054604080516305f0caad60e31b81526001600160a01b03858116600483015291519190921692632f865568926024808201939182900301818387803b1580156108b257600080fd5b505af11580156108c6573d6000803e3d6000fd5b5050505050565b60025460408051632e54bf9560e01b81526004810184905290516001600160a01b0390921691632e54bf959160248082019260009290919082900301818387803b1580156108b257600080fd5b6001546040805163040163c560e11b8152600481018690526001600160a01b038581166024830152848116604483015291519190921691630802c78a91606480830192600092919082900301818387803b15801561097757600080fd5b505af115801561098b573d6000803e3d6000fd5b50505050505050565b60015460408051630635367960e51b815260048101849052602481018990526044810188905286151560648201526001600160a01b03868116608483015285811660a48301529151919092169163c6a6cf20918a9160c48082019260009290919082900301818588803b158015610a0a57600080fd5b505af1158015610a1e573d6000803e3d6000fd5b505050505050505050505050565b6001546040805163154c09cf60e21b8152600481018690526001600160a01b038581166024830152848116604483015291519190921691635530273c91606480830192600092919082900301818387803b15801561097757600080fd5b600154604080516362a0d79960e01b815260048101849052602481018790526001600160a01b0386811660448301528581166064830152915191909216916362a0d79991608480830192600092919082900301818387803b1580156105cd57600080fd5b6001546040805163860665b360e01b815260048101849052602481018790526001600160a01b03868116604483015285811660648301529151919092169163860665b391889160848082019260009290919082900301818588803b158015610b5457600080fd5b505af1158015610b68573d6000803e3d6000fd5b50505050505050505050565b60035460408051633950935160e01b81526001600160a01b038581166004830152602482018590529151600093929092169163395093519160448082019260209290919082900301818787803b1580156106dc57600080fd5b6003546040805163095ea7b360e01b81526001600160a01b038581166004830152602482018590529151600093929092169163095ea7b39160448082019260209290919082900301818787803b1580156106dc57600080fd5b6003546040805163a457c2d760e01b81526001600160a01b038581166004830152602482018590529151600093929092169163a457c2d79160448082019260209290919082900301818787803b1580156106dc57600080fd5b600354604080516323b872dd60e01b81526001600160a01b038681166004830152858116602483015260448201859052915160009392909216916323b872dd9160648082019260209290919082900301818787803b158015610ce057600080fd5b505af1158015610cf4573d6000803e3d6000fd5b505050506040513d6020811015610d0a57600080fd5b5051949350505050565b600080546040805163653d46e760e01b81526004810185905290516001600160a01b039092169263653d46e79260248084019382900301818387803b1580156108b257600080fdfea26469706673582212201a36280222fbd01cd688da3ab53246455e7bf6ef261347c4b99951ea797aa0ff64736f6c634300060b0033",
  "linkReferences": {},
  "deployedLinkReferences": {}
}