{
  "_format": "hh-sol-artifact-1",
  "contractName": "FILTransferScript",
  "sourceName": "contracts/Proxy/FILTransferScript.sol",
  "abi": [
    {
      "inputs": [
        {
          "internalType": "address",
          "name": "_recipient",
          "type": "address"
        },
        {
          "internalType": "uint256",
          "name": "_amount",
          "type": "uint256"
        }
      ],
      "name": "transferFIL",
      "outputs": [
        {
          "internalType": "bool",
          "name": "",
          "type": "bool"
        }
      ],
      "stateMutability": "nonpayable",
      "type": "function"
    }
  ],
  "bytecode": "0x608060405234801561001057600080fd5b5060fb8061001f6000396000f3fe6080604052348015600f57600080fd5b506004361060285760003560e01c8063dc7fa40114602d575b600080fd5b605660048036036040811015604157600080fd5b506001600160a01b038135169060200135606a565b604080519115158252519081900360200190f35b60405160009081906001600160a01b0385169084908381818185875af1925050503d806000811460b5576040519150601f19603f3d011682016040523d82523d6000602084013e60ba565b606091505b50909594505050505056fea264697066735822122082c91b947ab309871b8b7f43d7388dd9423cb3a06fbd5778f8c2d0df681eb23b64736f6c634300060b0033",
  "linkReferences": {},
  "deployedLinkReferences": {}
}