{
  "_format": "hh-sol-artifact-1",
  "contractName": "FunctionCaller",
  "sourceName": "contracts/TestContracts/FunctionCaller.sol",
  "abi": [
    {
      "inputs": [],
      "name": "priceFeedAddress",
      "outputs": [
        {
          "internalType": "address",
          "name": "",
          "type": "address"
        }
      ],
      "stateMutability": "view",
      "type": "function"
    },
    {
      "inputs": [
        {
          "internalType": "address",
          "name": "_priceFeedAddress",
          "type": "address"
        }
      ],
      "name": "setPriceFeedAddress",
      "outputs": [],
      "stateMutability": "nonpayable",
      "type": "function"
    },
    {
      "inputs": [
        {
          "internalType": "address",
          "name": "_sortedTrovesAddress",
          "type": "address"
        }
      ],
      "name": "setSortedTrovesAddress",
      "outputs": [],
      "stateMutability": "nonpayable",
      "type": "function"
    },
    {
      "inputs": [
        {
          "internalType": "address",
          "name": "_troveManagerAddress",
          "type": "address"
        }
      ],
      "name": "setTroveManagerAddress",
      "outputs": [],
      "stateMutability": "nonpayable",
      "type": "function"
    },
    {
      "inputs": [],
      "name": "sortedTrovesAddress",
      "outputs": [
        {
          "internalType": "address",
          "name": "",
          "type": "address"
        }
      ],
      "stateMutability": "view",
      "type": "function"
    },
    {
      "inputs": [
        {
          "internalType": "uint256",
          "name": "_NICR",
          "type": "uint256"
        },
        {
          "internalType": "address",
          "name": "_prevId",
          "type": "address"
        },
        {
          "internalType": "address",
          "name": "_nextId",
          "type": "address"
        }
      ],
      "name": "sortedTroves_findInsertPosition",
      "outputs": [
        {
          "internalType": "address",
          "name": "",
          "type": "address"
        },
        {
          "internalType": "address",
          "name": "",
          "type": "address"
        }
      ],
      "stateMutability": "nonpayable",
      "type": "function"
    },
    {
      "inputs": [],
      "name": "troveManagerAddress",
      "outputs": [
        {
          "internalType": "address",
          "name": "",
          "type": "address"
        }
      ],
      "stateMutability": "view",
      "type": "function"
    },
    {
      "inputs": [
        {
          "internalType": "address",
          "name": "_address",
          "type": "address"
        },
        {
          "internalType": "uint256",
          "name": "_price",
          "type": "uint256"
        }
      ],
      "name": "troveManager_getCurrentICR",
      "outputs": [
        {
          "internalType": "uint256",
          "name": "",
          "type": "uint256"
        }
      ],
      "stateMutability": "nonpayable",
      "type": "function"
    }
  ],
  "bytecode": "0x608060405234801561001057600080fd5b506103cf806100206000396000f3fe608060405234801561001057600080fd5b50600436106100775760003560e01c8062cf5db41461007c5780632caffa81146100a45780635a4d28bb146100c8578063a06dec71146100d0578063ced2027c146100f6578063dcc6710f1461011c578063e0abca0b1461017f578063f4f9e54614610187575b600080fd5b6100a26004803603602081101561009257600080fd5b50356001600160a01b03166101c5565b005b6100ac6101f1565b604080516001600160a01b039092168252519081900360200190f35b6100ac610200565b6100a2600480360360208110156100e657600080fd5b50356001600160a01b031661020f565b6100a26004803603602081101561010c57600080fd5b50356001600160a01b031661023b565b6101506004803603606081101561013257600080fd5b508035906001600160a01b0360208201358116916040013516610267565b60405180836001600160a01b03168152602001826001600160a01b031681526020019250505060405180910390f35b6100ac610302565b6101b36004803603604081101561019d57600080fd5b506001600160a01b038135169060200135610311565b60408051918252519081900360200190f35b600580546001600160a01b039092166001600160a01b0319928316811790915560048054909216179055565b6003546001600160a01b031681565b6001546001600160a01b031681565b600180546001600160a01b039092166001600160a01b0319928316811790915560028054909216179055565b600180546001600160a01b039092166001600160a01b0319928316811790915560008054909216179055565b6002546040805163105a603760e21b8152600481018690526001600160a01b03858116602483015284811660448301528251600094859492169263416980dc926064808301939192829003018186803b1580156102c357600080fd5b505afa1580156102d7573d6000803e3d6000fd5b505050506040513d60408110156102ed57600080fd5b50805160209091015190969095509350505050565b6005546001600160a01b031681565b6000805460408051630d293c7160e41b81526001600160a01b038681166004830152602482018690529151919092169163d293c710916044808301926020929190829003018186803b15801561036657600080fd5b505afa15801561037a573d6000803e3d6000fd5b505050506040513d602081101561039057600080fd5b5051939250505056fea264697066735822122076033cd4f41561100e3c30643e555c2035a9060876eaf6aa9401e5d0434462d864736f6c63430007060033",
  "linkReferences": {},
  "deployedLinkReferences": {}
}