{
  "_format": "hh-sol-artifact-1",
  "contractName": "GasPool",
  "sourceName": "contracts/GasPool.sol",
  "abi": [
    {
      "inputs": [],
      "stateMutability": "nonpayable",
      "type": "constructor"
    },
    {
      "anonymous": false,
      "inputs": [
        {
          "indexed": true,
          "internalType": "address",
          "name": "previousOwner",
          "type": "address"
        },
        {
          "indexed": true,
          "internalType": "address",
          "name": "newOwner",
          "type": "address"
        }
      ],
      "name": "OwnershipTransferred",
      "type": "event"
    },
    {
      "inputs": [],
      "name": "initialize",
      "outputs": [],
      "stateMutability": "nonpayable",
      "type": "function"
    },
    {
      "inputs": [],
      "name": "owner",
      "outputs": [
        {
          "internalType": "address",
          "name": "",
          "type": "address"
        }
      ],
      "stateMutability": "view",
      "type": "function"
    },
    {
      "inputs": [],
      "name": "renounceOwnership",
      "outputs": [],
      "stateMutability": "nonpayable",
      "type": "function"
    },
    {
      "inputs": [
        {
          "internalType": "address",
          "name": "newOwner",
          "type": "address"
        }
      ],
      "name": "transferOwnership",
      "outputs": [],
      "stateMutability": "nonpayable",
      "type": "function"
    }
  ],
  "bytecode": "0x608060405234801561001057600080fd5b50600054610100900460ff168061002a575061002a6100b6565b80610038575060005460ff16155b6100735760405162461bcd60e51b815260040180806020018281038252602e8152602001806106e4602e913960400191505060405180910390fd5b600054610100900460ff1615801561009e576000805460ff1961ff0019909116610100171660011790555b80156100b0576000805461ff00191690555b506100d7565b60006100cb306100d160201b6103151760201c565b15905090565b3b151590565b6105fe806100e66000396000f3fe608060405234801561001057600080fd5b506004361061004c5760003560e01c8063715018a6146100515780638129fc1c1461005b5780638da5cb5b14610063578063f2fde38b14610087575b600080fd5b6100596100ad565b005b610059610159565b61006b610203565b604080516001600160a01b039092168252519081900360200190f35b6100596004803603602081101561009d57600080fd5b50356001600160a01b0316610212565b6100b561031b565b6001600160a01b03166100c6610203565b6001600160a01b031614610121576040805162461bcd60e51b815260206004820181905260248201527f4f776e61626c653a2063616c6c6572206973206e6f7420746865206f776e6572604482015290519081900360640190fd5b6033546040516000916001600160a01b0316906000805160206105a9833981519152908390a3603380546001600160a01b0319169055565b600054610100900460ff1680610172575061017261031f565b80610180575060005460ff16155b6101bb5760405162461bcd60e51b815260040180806020018281038252602e81526020018061057b602e913960400191505060405180910390fd5b600054610100900460ff161580156101e6576000805460ff1961ff0019909116610100171660011790555b6101ee610330565b8015610200576000805461ff00191690555b50565b6033546001600160a01b031690565b61021a61031b565b6001600160a01b031661022b610203565b6001600160a01b031614610286576040805162461bcd60e51b815260206004820181905260248201527f4f776e61626c653a2063616c6c6572206973206e6f7420746865206f776e6572604482015290519081900360640190fd5b6001600160a01b0381166102cb5760405162461bcd60e51b81526004018080602001828103825260268152602001806105556026913960400191505060405180910390fd5b6033546040516001600160a01b038084169216906000805160206105a983398151915290600090a3603380546001600160a01b0319166001600160a01b0392909216919091179055565b3b151590565b3390565b600061032a30610315565b15905090565b600054610100900460ff1680610349575061034961031f565b80610357575060005460ff16155b6103925760405162461bcd60e51b815260040180806020018281038252602e81526020018061057b602e913960400191505060405180910390fd5b600054610100900460ff161580156103bd576000805460ff1961ff0019909116610100171660011790555b6103c56103cd565b6101ee61046d565b600054610100900460ff16806103e657506103e661031f565b806103f4575060005460ff16155b61042f5760405162461bcd60e51b815260040180806020018281038252602e81526020018061057b602e913960400191505060405180910390fd5b600054610100900460ff161580156101ee576000805460ff1961ff0019909116610100171660011790558015610200576000805461ff001916905550565b600054610100900460ff1680610486575061048661031f565b80610494575060005460ff16155b6104cf5760405162461bcd60e51b815260040180806020018281038252602e81526020018061057b602e913960400191505060405180910390fd5b600054610100900460ff161580156104fa576000805460ff1961ff0019909116610100171660011790555b600061050461031b565b603380546001600160a01b0319166001600160a01b038316908117909155604051919250906000906000805160206105a9833981519152908290a3508015610200576000805461ff00191690555056fe4f776e61626c653a206e6577206f776e657220697320746865207a65726f2061646472657373496e697469616c697a61626c653a20636f6e747261637420697320616c726561647920696e697469616c697a65648be0079c531659141344cd1fd0a4f28419497f9722a3daafe3b4186f6b6457e0a26469706673582212208637d4ff24c713ff09dd5d19ad3636bcfcc6eed78d7156a5e5f45b9ed8b4fa4964736f6c63430007060033496e697469616c697a61626c653a20636f6e747261637420697320616c726561647920696e697469616c697a6564",
  "linkReferences": {},
  "deployedLinkReferences": {}
}