{
  "_format": "hh-sol-artifact-1",
  "contractName": "HintHelpers",
  "sourceName": "contracts/HintHelpers.sol",
  "abi": [
    {
      "inputs": [
        {
          "internalType": "uint256",
          "name": "_gasCompensation",
          "type": "uint256"
        },
        {
          "internalType": "uint256",
          "name": "_minNetDebt",
          "type": "uint256"
        }
      ],
      "stateMutability": "nonpayable",
      "type": "constructor"
    },
    {
      "anonymous": false,
      "inputs": [
        {
          "indexed": true,
          "internalType": "address",
          "name": "previousOwner",
          "type": "address"
        },
        {
          "indexed": true,
          "internalType": "address",
          "name": "newOwner",
          "type": "address"
        }
      ],
      "name": "OwnershipTransferred",
      "type": "event"
    },
    {
      "anonymous": false,
      "inputs": [
        {
          "indexed": false,
          "internalType": "address",
          "name": "_sortedTrovesAddress",
          "type": "address"
        }
      ],
      "name": "SortedTrovesAddressChanged",
      "type": "event"
    },
    {
      "anonymous": false,
      "inputs": [
        {
          "indexed": false,
          "internalType": "address",
          "name": "_troveManagerAddress",
          "type": "address"
        }
      ],
      "name": "TroveManagerAddressChanged",
      "type": "event"
    },
    {
      "inputs": [],
      "name": "BORROWING_FEE_FLOOR",
      "outputs": [
        {
          "internalType": "uint256",
          "name": "",
          "type": "uint256"
        }
      ],
      "stateMutability": "view",
      "type": "function"
    },
    {
      "inputs": [],
      "name": "CCR",
      "outputs": [
        {
          "internalType": "uint256",
          "name": "",
          "type": "uint256"
        }
      ],
      "stateMutability": "view",
      "type": "function"
    },
    {
      "inputs": [],
      "name": "DECIMAL_PRECISION",
      "outputs": [
        {
          "internalType": "uint256",
          "name": "",
          "type": "uint256"
        }
      ],
      "stateMutability": "view",
      "type": "function"
    },
    {
      "inputs": [],
      "name": "GAS_COMPENSATION",
      "outputs": [
        {
          "internalType": "uint256",
          "name": "",
          "type": "uint256"
        }
      ],
      "stateMutability": "view",
      "type": "function"
    },
    {
      "inputs": [],
      "name": "MCR",
      "outputs": [
        {
          "internalType": "uint256",
          "name": "",
          "type": "uint256"
        }
      ],
      "stateMutability": "view",
      "type": "function"
    },
    {
      "inputs": [],
      "name": "MIN_NET_DEBT",
      "outputs": [
        {
          "internalType": "uint256",
          "name": "",
          "type": "uint256"
        }
      ],
      "stateMutability": "view",
      "type": "function"
    },
    {
      "inputs": [],
      "name": "NAME",
      "outputs": [
        {
          "internalType": "string",
          "name": "",
          "type": "string"
        }
      ],
      "stateMutability": "view",
      "type": "function"
    },
    {
      "inputs": [],
      "name": "PERCENT_DIVISOR",
      "outputs": [
        {
          "internalType": "uint256",
          "name": "",
          "type": "uint256"
        }
      ],
      "stateMutability": "view",
      "type": "function"
    },
    {
      "inputs": [],
      "name": "_100pct",
      "outputs": [
        {
          "internalType": "uint256",
          "name": "",
          "type": "uint256"
        }
      ],
      "stateMutability": "view",
      "type": "function"
    },
    {
      "inputs": [],
      "name": "activePool",
      "outputs": [
        {
          "internalType": "contract IActivePool",
          "name": "",
          "type": "address"
        }
      ],
      "stateMutability": "view",
      "type": "function"
    },
    {
      "inputs": [
        {
          "internalType": "uint256",
          "name": "_coll",
          "type": "uint256"
        },
        {
          "internalType": "uint256",
          "name": "_debt",
          "type": "uint256"
        },
        {
          "internalType": "uint256",
          "name": "_price",
          "type": "uint256"
        }
      ],
      "name": "computeCR",
      "outputs": [
        {
          "internalType": "uint256",
          "name": "",
          "type": "uint256"
        }
      ],
      "stateMutability": "pure",
      "type": "function"
    },
    {
      "inputs": [
        {
          "internalType": "uint256",
          "name": "_coll",
          "type": "uint256"
        },
        {
          "internalType": "uint256",
          "name": "_debt",
          "type": "uint256"
        }
      ],
      "name": "computeNominalCR",
      "outputs": [
        {
          "internalType": "uint256",
          "name": "",
          "type": "uint256"
        }
      ],
      "stateMutability": "pure",
      "type": "function"
    },
    {
      "inputs": [],
      "name": "defaultPool",
      "outputs": [
        {
          "internalType": "contract IDefaultPool",
          "name": "",
          "type": "address"
        }
      ],
      "stateMutability": "view",
      "type": "function"
    },
    {
      "inputs": [
        {
          "internalType": "uint256",
          "name": "_CR",
          "type": "uint256"
        },
        {
          "internalType": "uint256",
          "name": "_numTrials",
          "type": "uint256"
        },
        {
          "internalType": "uint256",
          "name": "_inputRandomSeed",
          "type": "uint256"
        }
      ],
      "name": "getApproxHint",
      "outputs": [
        {
          "internalType": "address",
          "name": "hintAddress",
          "type": "address"
        },
        {
          "internalType": "uint256",
          "name": "diff",
          "type": "uint256"
        },
        {
          "internalType": "uint256",
          "name": "latestRandomSeed",
          "type": "uint256"
        }
      ],
      "stateMutability": "view",
      "type": "function"
    },
    {
      "inputs": [],
      "name": "getEntireSystemColl",
      "outputs": [
        {
          "internalType": "uint256",
          "name": "entireSystemColl",
          "type": "uint256"
        }
      ],
      "stateMutability": "view",
      "type": "function"
    },
    {
      "inputs": [],
      "name": "getEntireSystemDebt",
      "outputs": [
        {
          "internalType": "uint256",
          "name": "entireSystemDebt",
          "type": "uint256"
        }
      ],
      "stateMutability": "view",
      "type": "function"
    },
    {
      "inputs": [
        {
          "internalType": "uint256",
          "name": "_debtTokenAmount",
          "type": "uint256"
        },
        {
          "internalType": "uint256",
          "name": "_price",
          "type": "uint256"
        },
        {
          "internalType": "uint256",
          "name": "_maxIterations",
          "type": "uint256"
        }
      ],
      "name": "getRedemptionHints",
      "outputs": [
        {
          "internalType": "address",
          "name": "firstRedemptionHint",
          "type": "address"
        },
        {
          "internalType": "uint256",
          "name": "partialRedemptionHintNICR",
          "type": "uint256"
        },
        {
          "internalType": "uint256",
          "name": "truncatedDebtTokenAmount",
          "type": "uint256"
        }
      ],
      "stateMutability": "view",
      "type": "function"
    },
    {
      "inputs": [
        {
          "internalType": "address",
          "name": "_sortedTrovesAddress",
          "type": "address"
        },
        {
          "internalType": "address",
          "name": "_troveManagerAddress",
          "type": "address"
        }
      ],
      "name": "initialize",
      "outputs": [],
      "stateMutability": "nonpayable",
      "type": "function"
    },
    {
      "inputs": [],
      "name": "owner",
      "outputs": [
        {
          "internalType": "address",
          "name": "",
          "type": "address"
        }
      ],
      "stateMutability": "view",
      "type": "function"
    },
    {
      "inputs": [],
      "name": "priceFeed",
      "outputs": [
        {
          "internalType": "contract IPriceFeed",
          "name": "",
          "type": "address"
        }
      ],
      "stateMutability": "view",
      "type": "function"
    },
    {
      "inputs": [],
      "name": "renounceOwnership",
      "outputs": [],
      "stateMutability": "nonpayable",
      "type": "function"
    },
    {
      "inputs": [],
      "name": "sortedTroves",
      "outputs": [
        {
          "internalType": "contract ISortedTroves",
          "name": "",
          "type": "address"
        }
      ],
      "stateMutability": "view",
      "type": "function"
    },
    {
      "inputs": [
        {
          "internalType": "address",
          "name": "newOwner",
          "type": "address"
        }
      ],
      "name": "transferOwnership",
      "outputs": [],
      "stateMutability": "nonpayable",
      "type": "function"
    },
    {
      "inputs": [],
      "name": "troveManager",
      "outputs": [
        {
          "internalType": "contract ITroveManager",
          "name": "",
          "type": "address"
        }
      ],
      "stateMutability": "view",
      "type": "function"
    }
  ],
  "bytecode": "0x60c060405234801561001057600080fd5b50604051611a7e380380611a7e8339818101604052604081101561003357600080fd5b508051602090910151608082905260a08190526119fd6100816000398061069652806106c8528061092b52806118645250806109075280611186528061133f528061179052506119fd6000f3fe608060405234801561001057600080fd5b50600436106101585760003560e01c8063794e5724116100c3578063a20baee61161007c578063a20baee61461026d578063a3f4df7e146102ce578063ae9187541461034b578063c394a7fa14610353578063f2fde38b14610376578063f92d34331461039c57610158565b8063794e57241461027d578063795d26c3146102855780637b41bdbe1461028d5780637f7dde4a146102b6578063887105d3146102be5780638da5cb5b146102c657610158565b80634870dd9a116101155780634870dd9a1461022c578063525acdbb146102345780635733d58f1461025d578063715018a61461026557806372fe25aa1461026d578063741bef1a1461027557610158565b806313144dba1461015d578063139f2e8c146101ae5780631bf43555146101c85780633cc74225146101d05780633d83908a146101f4578063485cc955146101fc575b600080fd5b6101866004803603606081101561017357600080fd5b50803590602081013590604001356103a4565b604080516001600160a01b039094168452602084019290925282820152519081900360600190f35b6101b6610905565b60408051918252519081900360200190f35b6101b6610929565b6101d861094d565b604080516001600160a01b039092168252519081900360200190f35b6101d861095c565b61022a6004803603604081101561021257600080fd5b506001600160a01b038135811691602001351661096b565b005b6101b6610a38565b6101b66004803603606081101561024a57600080fd5b5080359060208101359060400135610a3d565b6101b6610a54565b61022a610a60565b6101b6610b0c565b6101d8610b18565b6101b6610b27565b6101b6610b33565b610186600480360360608110156102a357600080fd5b5080359060208101359060400135610c2e565b6101d8610f4b565b6101b6610f5a565b6101d8611016565b6102d6611025565b6040805160208082528351818301528351919283929083019185019080838360005b838110156103105781810151838201526020016102f8565b50505050905090810190601f16801561033d5780820380516001836020036101000a031916815260200191505b509250505060405180910390f35b6101d861104c565b6101b66004803603604081101561036957600080fd5b508035906020013561105b565b61022a6004803603602081101561038c57600080fd5b50356001600160a01b0316611070565b6101b6611173565b60675460408051634d62283160e01b81529051600092839283926001600160a01b0390921691889184918491634d622831916004808301926020929190829003018186803b1580156103f557600080fd5b505afa158015610409573d6000803e3d6000fd5b505050506040513d602081101561041f57600080fd5b505190505b6001600160a01b038116158015906104c4575060685460408051630d293c7160e41b81526001600160a01b038481166004830152602482018c90529151670f43fc2c04ee000093929092169163d293c71091604480820192602092909190829003018186803b15801561049657600080fd5b505afa1580156104aa573d6000803e3d6000fd5b505050506040513d60208110156104c057600080fd5b5051105b1561054957826001600160a01b031663b72703ac826040518263ffffffff1660e01b815260040180826001600160a01b0316815260200191505060206040518083038186803b15801561051657600080fd5b505afa15801561052a573d6000803e3d6000fd5b505050506040513d602081101561054057600080fd5b50519050610424565b945084866105575760001996505b6001600160a01b0381161580159061056f5750600082115b801561057f575060001987019615155b156108ed576068546040805163f59fac2d60e01b81526001600160a01b038481166004830152915160009361068a93169163f59fac2d916024808301926020929190829003018186803b1580156105d557600080fd5b505afa1580156105e9573d6000803e3d6000fd5b505050506040513d60208110156105ff57600080fd5b50516068546040805163d66a255360e01b81526001600160a01b038781166004830152915161068493929092169163d66a255391602480820192602092909190829003018186803b15801561065357600080fd5b505afa158015610667573d6000803e3d6000fd5b505050506040513d602081101561067d57600080fd5b505161117e565b906111aa565b90508281111561085f577f00000000000000000000000000000000000000000000000000000000000000008111156108595760006106f1846106ec847f0000000000000000000000000000000000000000000000000000000000000000611204565b611261565b60685460408051632928975560e11b81526001600160a01b03878116600483015291519394506000936107f49392909216916352512eaa91602480820192602092909190829003018186803b15801561074957600080fd5b505afa15801561075d573d6000803e3d6000fd5b505050506040513d602081101561077357600080fd5b5051606854604080516309019aaf60e31b81526001600160a01b0389811660048301529151919092169163480cd578916024808301926020929190829003018186803b1580156107c257600080fd5b505afa1580156107d6573d6000803e3d6000fd5b505050506040513d60208110156107ec57600080fd5b5051906111aa565b9050600061081e6108178d61081186670de0b6b3a7640000611277565b906112d0565b8390611204565b9050600061082c8585611204565b9050600061083982611337565b90506108458382611363565b9a506108518886611204565b975050505050505b506108ed565b6108698382611204565b9250836001600160a01b031663b72703ac836040518263ffffffff1660e01b815260040180826001600160a01b0316815260200191505060206040518083038186803b1580156108b857600080fd5b505afa1580156108cc573d6000803e3d6000fd5b505050506040513d60208110156108e257600080fd5b505191506105579050565b6108f78983611204565b935050505093509350939050565b7f000000000000000000000000000000000000000000000000000000000000000081565b7f000000000000000000000000000000000000000000000000000000000000000081565b6001546001600160a01b031681565b6068546001600160a01b031681565b600254600160a81b900460ff16806109865750610986611392565b8061099b5750600254600160a01b900460ff16155b6109d65760405162461bcd60e51b815260040180806020018281038252602e815260200180611959602e913960400191505060405180910390fd5b600254600160a81b900460ff16158015610a0d576002805460ff60a01b1960ff60a81b19909116600160a81b1716600160a01b1790555b610a156113a3565b610a1f838361146c565b8015610a33576002805460ff60a81b191690555b505050565b60c881565b6000610a4a848484611527565b90505b9392505050565b6714d1120d7b16000081565b610a68611551565b6001600160a01b0316610a79611016565b6001600160a01b031614610ad4576040805162461bcd60e51b815260206004820181905260248201527f4f776e61626c653a2063616c6c6572206973206e6f7420746865206f776e6572604482015290519081900360640190fd5b6035546040516000916001600160a01b0316906000805160206119a8833981519152908390a3603580546001600160a01b0319169055565b670de0b6b3a764000081565b6002546001600160a01b031681565b670f43fc2c04ee000081565b60008054604080516314a6bf0f60e01b8152905183926001600160a01b0316916314a6bf0f916004808301926020929190829003018186803b158015610b7857600080fd5b505afa158015610b8c573d6000803e3d6000fd5b505050506040513d6020811015610ba257600080fd5b5051600154604080516314a6bf0f60e01b815290519293506000926001600160a01b03909216916314a6bf0f91600480820192602092909190829003018186803b158015610bef57600080fd5b505afa158015610c03573d6000803e3d6000fd5b505050506040513d6020811015610c1957600080fd5b50519050610c2782826111aa565b9250505090565b600080600080606860009054906101000a90046001600160a01b03166001600160a01b03166349eefeee6040518163ffffffff1660e01b815260040160206040518083038186803b158015610c8257600080fd5b505afa158015610c96573d6000803e3d6000fd5b505050506040513d6020811015610cac57600080fd5b5051905080610cc5576000808693509350935050610f42565b606760009054906101000a90046001600160a01b03166001600160a01b0316634d6228316040518163ffffffff1660e01b815260040160206040518083038186803b158015610d1357600080fd5b505afa158015610d27573d6000803e3d6000fd5b505050506040513d6020811015610d3d57600080fd5b50516068546040805163b0d8e18160e01b81526001600160a01b0380851660048301529151939750610dc7938b93929092169163b0d8e18191602480820192602092909190829003018186803b158015610d9657600080fd5b505afa158015610daa573d6000803e3d6000fd5b505050506040513d6020811015610dc057600080fd5b5051611555565b925084915060015b86811015610f3f57604080516020808201959095528151808203860181529082019091528051930192909220916000828481610e0757fe5b0690506000606860009054906101000a90046001600160a01b03166001600160a01b031663d9a72444836040518263ffffffff1660e01b81526004018082815260200191505060206040518083038186803b158015610e6557600080fd5b505afa158015610e79573d6000803e3d6000fd5b505050506040513d6020811015610e8f57600080fd5b50516068546040805163b0d8e18160e01b81526001600160a01b0380851660048301529151939450600093919092169163b0d8e181916024808301926020929190829003018186803b158015610ee457600080fd5b505afa158015610ef8573d6000803e3d6000fd5b505050506040513d6020811015610f0e57600080fd5b505190506000610f1e828d611555565b905087811015610f2f578097508298505b505060019092019150610dcf9050565b50505b93509350939050565b6000546001600160a01b031681565b60008054604080516362e1c9bf60e11b8152905183926001600160a01b03169163c5c3937e916004808301926020929190829003018186803b158015610f9f57600080fd5b505afa158015610fb3573d6000803e3d6000fd5b505050506040513d6020811015610fc957600080fd5b5051600154604080516362e1c9bf60e11b815290519293506000926001600160a01b039092169163c5c3937e91600480820192602092909190829003018186803b158015610bef57600080fd5b6035546001600160a01b031690565b6040518060400160405280600b81526020016a48696e7448656c7065727360a81b81525081565b6067546001600160a01b031681565b60006110678383611363565b90505b92915050565b611078611551565b6001600160a01b0316611089611016565b6001600160a01b0316146110e4576040805162461bcd60e51b815260206004820181905260248201527f4f776e61626c653a2063616c6c6572206973206e6f7420746865206f776e6572604482015290519081900360640190fd5b6001600160a01b0381166111295760405162461bcd60e51b81526004018080602001828103825260268152602001806119336026913960400191505060405180910390fd5b6035546040516001600160a01b038084169216906000805160206119a883398151915290600090a3603580546001600160a01b0319166001600160a01b0392909216919091179055565b6611c37937e0800081565b600061106a827f0000000000000000000000000000000000000000000000000000000000000000611204565b600082820183811015611067576040805162461bcd60e51b815260206004820152601b60248201527f536166654d6174683a206164646974696f6e206f766572666c6f770000000000604482015290519081900360640190fd5b60008282111561125b576040805162461bcd60e51b815260206004820152601e60248201527f536166654d6174683a207375627472616374696f6e206f766572666c6f770000604482015290519081900360640190fd5b50900390565b60008183106112705781611067565b5090919050565b6000826112865750600061106a565b8282028284828161129357fe5b04146110675760405162461bcd60e51b81526004018080602001828103825260218152602001806119876021913960400191505060405180910390fd5b6000808211611326576040805162461bcd60e51b815260206004820152601a60248201527f536166654d6174683a206469766973696f6e206279207a65726f000000000000604482015290519081900360640190fd5b81838161132f57fe5b049392505050565b600061106a827f00000000000000000000000000000000000000000000000000000000000000006111aa565b6000811561138957611382826108118568056bc75e2d63100000611277565b905061106a565b5060001961106a565b600061139d30611578565b15905090565b600254600160a81b900460ff16806113be57506113be611392565b806113d35750600254600160a01b900460ff16155b61140e5760405162461bcd60e51b815260040180806020018281038252602e815260200180611959602e913960400191505060405180910390fd5b600254600160a81b900460ff16158015611445576002805460ff60a01b1960ff60a81b19909116600160a81b1716600160a01b1790555b61144d61157e565b611455611635565b8015611469576002805460ff60a81b191690555b50565b61147582611733565b61147e81611733565b6114878161178e565b606780546001600160a01b038085166001600160a01b03199283168117909355606880549185169190921617905560408051918252517f65f4cf077bc01e4742eb5ad98326f6e95b63548ea24b17f8d5e823111fe788009181900360200190a1604080516001600160a01b038316815290517f143219c9e69b09e07e095fcc889b43d8f46ca892bba65f08dc3a0050869a56789181900360200190a15050565b6000821561154857600061153f846108118786611277565b9150610a4d9050565b50600019610a4d565b3390565b60008183101561156e576115698284611204565b611067565b6110678383611204565b3b151590565b600254600160a81b900460ff16806115995750611599611392565b806115ae5750600254600160a01b900460ff16155b6115e95760405162461bcd60e51b815260040180806020018281038252602e815260200180611959602e913960400191505060405180910390fd5b600254600160a81b900460ff16158015611455576002805460ff60a01b1960ff60a81b19909116600160a81b1716600160a01b1790558015611469576002805460ff60a81b1916905550565b600254600160a81b900460ff16806116505750611650611392565b806116655750600254600160a01b900460ff16155b6116a05760405162461bcd60e51b815260040180806020018281038252602e815260200180611959602e913960400191505060405180910390fd5b600254600160a81b900460ff161580156116d7576002805460ff60a01b1960ff60a81b19909116600160a81b1716600160a01b1790555b60006116e1611551565b603580546001600160a01b0319166001600160a01b038316908117909155604051919250906000906000805160206119a8833981519152908290a3508015611469576002805460ff60a81b1916905550565b6001600160a01b038116611469576040805162461bcd60e51b815260206004820152601e60248201527f4163636f756e742063616e6e6f74206265207a65726f20616464726573730000604482015290519081900360640190fd5b7f0000000000000000000000000000000000000000000000000000000000000000816001600160a01b031663139f2e8c6040518163ffffffff1660e01b815260040160206040518083038186803b1580156117e857600080fd5b505afa1580156117fc573d6000803e3d6000fd5b505050506040513d602081101561181257600080fd5b505114611862576040805162461bcd60e51b815260206004820152601960248201527808e82a6be869e9aa08a9ca682a8929e9c40dad2e6dac2e8c6d603b1b604482015290519081900360640190fd5b7f0000000000000000000000000000000000000000000000000000000000000000816001600160a01b0316631bf435556040518163ffffffff1660e01b815260040160206040518083038186803b1580156118bc57600080fd5b505afa1580156118d0573d6000803e3d6000fd5b505050506040513d60208110156118e657600080fd5b505114611469576040805162461bcd60e51b815260206004820152601560248201527409a929cbe9c8aa8be888a84a840dad2e6dac2e8c6d605b1b604482015290519081900360640190fdfe4f776e61626c653a206e6577206f776e657220697320746865207a65726f2061646472657373496e697469616c697a61626c653a20636f6e747261637420697320616c726561647920696e697469616c697a6564536166654d6174683a206d756c7469706c69636174696f6e206f766572666c6f778be0079c531659141344cd1fd0a4f28419497f9722a3daafe3b4186f6b6457e0a26469706673582212206c4c380c686009e4e60bda471233996606b1d74dfa3b705a7f8381ffb7b47f0d64736f6c63430007060033",
  "linkReferences": {},
  "deployedLinkReferences": {}
}