{
  "_format": "hh-sol-artifact-1",
  "contractName": "HintHelpers",
  "sourceName": "contracts/HintHelpers.sol",
  "abi": [
    {
      "inputs": [
        {
          "internalType": "uint256",
          "name": "_gasCompensation",
          "type": "uint256"
        },
        {
          "internalType": "uint256",
          "name": "_minNetDebt",
          "type": "uint256"
        }
      ],
      "stateMutability": "nonpayable",
      "type": "constructor"
    },
    {
      "anonymous": false,
      "inputs": [
        {
          "indexed": true,
          "internalType": "address",
          "name": "previousOwner",
          "type": "address"
        },
        {
          "indexed": true,
          "internalType": "address",
          "name": "newOwner",
          "type": "address"
        }
      ],
      "name": "OwnershipTransferred",
      "type": "event"
    },
    {
      "anonymous": false,
      "inputs": [
        {
          "indexed": false,
          "internalType": "address",
          "name": "_sortedTrovesAddress",
          "type": "address"
        }
      ],
      "name": "SortedTrovesAddressChanged",
      "type": "event"
    },
    {
      "anonymous": false,
      "inputs": [
        {
          "indexed": false,
          "internalType": "address",
          "name": "_troveManagerAddress",
          "type": "address"
        }
      ],
      "name": "TroveManagerAddressChanged",
      "type": "event"
    },
    {
      "inputs": [],
      "name": "BORROWING_FEE_FLOOR",
      "outputs": [
        {
          "internalType": "uint256",
          "name": "",
          "type": "uint256"
        }
      ],
      "stateMutability": "view",
      "type": "function"
    },
    {
      "inputs": [],
      "name": "CCR",
      "outputs": [
        {
          "internalType": "uint256",
          "name": "",
          "type": "uint256"
        }
      ],
      "stateMutability": "view",
      "type": "function"
    },
    {
      "inputs": [],
      "name": "DECIMAL_PRECISION",
      "outputs": [
        {
          "internalType": "uint256",
          "name": "",
          "type": "uint256"
        }
      ],
      "stateMutability": "view",
      "type": "function"
    },
    {
      "inputs": [],
      "name": "GAS_COMPENSATION",
      "outputs": [
        {
          "internalType": "uint256",
          "name": "",
          "type": "uint256"
        }
      ],
      "stateMutability": "view",
      "type": "function"
    },
    {
      "inputs": [],
      "name": "MCR",
      "outputs": [
        {
          "internalType": "uint256",
          "name": "",
          "type": "uint256"
        }
      ],
      "stateMutability": "view",
      "type": "function"
    },
    {
      "inputs": [],
      "name": "MIN_NET_DEBT",
      "outputs": [
        {
          "internalType": "uint256",
          "name": "",
          "type": "uint256"
        }
      ],
      "stateMutability": "view",
      "type": "function"
    },
    {
      "inputs": [],
      "name": "NAME",
      "outputs": [
        {
          "internalType": "string",
          "name": "",
          "type": "string"
        }
      ],
      "stateMutability": "view",
      "type": "function"
    },
    {
      "inputs": [],
      "name": "PERCENT_DIVISOR",
      "outputs": [
        {
          "internalType": "uint256",
          "name": "",
          "type": "uint256"
        }
      ],
      "stateMutability": "view",
      "type": "function"
    },
    {
      "inputs": [],
      "name": "_100pct",
      "outputs": [
        {
          "internalType": "uint256",
          "name": "",
          "type": "uint256"
        }
      ],
      "stateMutability": "view",
      "type": "function"
    },
    {
      "inputs": [
        {
          "internalType": "uint256",
          "name": "_coll",
          "type": "uint256"
        },
        {
          "internalType": "uint256",
          "name": "_debt",
          "type": "uint256"
        },
        {
          "internalType": "uint256",
          "name": "_price",
          "type": "uint256"
        }
      ],
      "name": "computeCR",
      "outputs": [
        {
          "internalType": "uint256",
          "name": "",
          "type": "uint256"
        }
      ],
      "stateMutability": "pure",
      "type": "function"
    },
    {
      "inputs": [
        {
          "internalType": "uint256",
          "name": "_coll",
          "type": "uint256"
        },
        {
          "internalType": "uint256",
          "name": "_debt",
          "type": "uint256"
        }
      ],
      "name": "computeNominalCR",
      "outputs": [
        {
          "internalType": "uint256",
          "name": "",
          "type": "uint256"
        }
      ],
      "stateMutability": "pure",
      "type": "function"
    },
    {
      "inputs": [
        {
          "internalType": "uint256",
          "name": "_CR",
          "type": "uint256"
        },
        {
          "internalType": "uint256",
          "name": "_numTrials",
          "type": "uint256"
        },
        {
          "internalType": "uint256",
          "name": "_inputRandomSeed",
          "type": "uint256"
        }
      ],
      "name": "getApproxHint",
      "outputs": [
        {
          "internalType": "address",
          "name": "hintAddress",
          "type": "address"
        },
        {
          "internalType": "uint256",
          "name": "diff",
          "type": "uint256"
        },
        {
          "internalType": "uint256",
          "name": "latestRandomSeed",
          "type": "uint256"
        }
      ],
      "stateMutability": "view",
      "type": "function"
    },
    {
      "inputs": [
        {
          "internalType": "uint256",
          "name": "_debtTokenAmount",
          "type": "uint256"
        },
        {
          "internalType": "uint256",
          "name": "_price",
          "type": "uint256"
        },
        {
          "internalType": "uint256",
          "name": "_maxIterations",
          "type": "uint256"
        }
      ],
      "name": "getRedemptionHints",
      "outputs": [
        {
          "internalType": "address",
          "name": "firstRedemptionHint",
          "type": "address"
        },
        {
          "internalType": "uint256",
          "name": "partialRedemptionHintNICR",
          "type": "uint256"
        },
        {
          "internalType": "uint256",
          "name": "truncatedDebtTokenAmount",
          "type": "uint256"
        }
      ],
      "stateMutability": "view",
      "type": "function"
    },
    {
      "inputs": [
        {
          "internalType": "address",
          "name": "_sortedTrovesAddress",
          "type": "address"
        },
        {
          "internalType": "address",
          "name": "_troveManagerAddress",
          "type": "address"
        }
      ],
      "name": "initialize",
      "outputs": [],
      "stateMutability": "nonpayable",
      "type": "function"
    },
    {
      "inputs": [],
      "name": "owner",
      "outputs": [
        {
          "internalType": "address",
          "name": "",
          "type": "address"
        }
      ],
      "stateMutability": "view",
      "type": "function"
    },
    {
      "inputs": [],
      "name": "renounceOwnership",
      "outputs": [],
      "stateMutability": "nonpayable",
      "type": "function"
    },
    {
      "inputs": [],
      "name": "sortedTroves",
      "outputs": [
        {
          "internalType": "contract ISortedTroves",
          "name": "",
          "type": "address"
        }
      ],
      "stateMutability": "view",
      "type": "function"
    },
    {
      "inputs": [
        {
          "internalType": "address",
          "name": "newOwner",
          "type": "address"
        }
      ],
      "name": "transferOwnership",
      "outputs": [],
      "stateMutability": "nonpayable",
      "type": "function"
    },
    {
      "inputs": [],
      "name": "troveManager",
      "outputs": [
        {
          "internalType": "contract ITroveManager",
          "name": "",
          "type": "address"
        }
      ],
      "stateMutability": "view",
      "type": "function"
    }
  ],
  "bytecode": "0x60c060405234801561001057600080fd5b506040516117cf3803806117cf8339818101604052604081101561003357600080fd5b508051602090910151608082905260a081905261174e61008160003980610627528061065952806108bc52806115b55250806108985280610f1c52806110d552806114e1525061174e6000f3fe608060405234801561001057600080fd5b50600436106101115760003560e01c806372fe25aa116100ad578063a3f4df7e11610071578063a3f4df7e1461025f578063ae918754146102dc578063c394a7fa146102e4578063f2fde38b14610307578063f92d34331461032d57610111565b806372fe25aa1461021e578063794e5724146102265780637b41bdbe1461022e5780638da5cb5b14610257578063a20baee61461021e57610111565b806313144dba14610116578063139f2e8c146101675780631bf43555146101815780633d83908a14610189578063485cc955146101ad5780634870dd9a146101dd578063525acdbb146101e55780635733d58f1461020e578063715018a614610216575b600080fd5b61013f6004803603606081101561012c57600080fd5b5080359060208101359060400135610335565b604080516001600160a01b039094168452602084019290925282820152519081900360600190f35b61016f610896565b60408051918252519081900360200190f35b61016f6108ba565b6101916108de565b604080516001600160a01b039092168252519081900360200190f35b6101db600480360360408110156101c357600080fd5b506001600160a01b03813581169160200135166108ed565b005b61016f6109a3565b61016f600480360360608110156101fb57600080fd5b50803590602081013590604001356109a8565b61016f6109bf565b6101db6109cb565b61016f610a77565b61016f610a83565b61013f6004803603606081101561024457600080fd5b5080359060208101359060400135610a8f565b610191610dac565b610267610dbb565b6040805160208082528351818301528351919283929083019185019080838360005b838110156102a1578181015183820152602001610289565b50505050905090810190601f1680156102ce5780820380516001836020036101000a031916815260200191505b509250505060405180910390f35b610191610de2565b61016f600480360360408110156102fa57600080fd5b5080359060200135610df1565b6101db6004803603602081101561031d57600080fd5b50356001600160a01b0316610e06565b61016f610f09565b60655460408051634d62283160e01b81529051600092839283926001600160a01b0390921691889184918491634d622831916004808301926020929190829003018186803b15801561038657600080fd5b505afa15801561039a573d6000803e3d6000fd5b505050506040513d60208110156103b057600080fd5b505190505b6001600160a01b03811615801590610455575060665460408051630d293c7160e41b81526001600160a01b038481166004830152602482018c90529151670f43fc2c04ee000093929092169163d293c71091604480820192602092909190829003018186803b15801561042757600080fd5b505afa15801561043b573d6000803e3d6000fd5b505050506040513d602081101561045157600080fd5b5051105b156104da57826001600160a01b031663b72703ac826040518263ffffffff1660e01b815260040180826001600160a01b0316815260200191505060206040518083038186803b1580156104a757600080fd5b505afa1580156104bb573d6000803e3d6000fd5b505050506040513d60208110156104d157600080fd5b505190506103b5565b945084866104e85760001996505b6001600160a01b038116158015906105005750600082115b8015610510575060001987019615155b1561087e576066546040805163f59fac2d60e01b81526001600160a01b038481166004830152915160009361061b93169163f59fac2d916024808301926020929190829003018186803b15801561056657600080fd5b505afa15801561057a573d6000803e3d6000fd5b505050506040513d602081101561059057600080fd5b50516066546040805163d66a255360e01b81526001600160a01b038781166004830152915161061593929092169163d66a255391602480820192602092909190829003018186803b1580156105e457600080fd5b505afa1580156105f8573d6000803e3d6000fd5b505050506040513d602081101561060e57600080fd5b5051610f14565b90610f40565b9050828111156107f0577f00000000000000000000000000000000000000000000000000000000000000008111156107ea5760006106828461067d847f0000000000000000000000000000000000000000000000000000000000000000610f9a565b610ff7565b60665460408051632928975560e11b81526001600160a01b03878116600483015291519394506000936107859392909216916352512eaa91602480820192602092909190829003018186803b1580156106da57600080fd5b505afa1580156106ee573d6000803e3d6000fd5b505050506040513d602081101561070457600080fd5b5051606654604080516309019aaf60e31b81526001600160a01b0389811660048301529151919092169163480cd578916024808301926020929190829003018186803b15801561075357600080fd5b505afa158015610767573d6000803e3d6000fd5b505050506040513d602081101561077d57600080fd5b505190610f40565b905060006107af6107a88d6107a286670de0b6b3a764000061100d565b90611066565b8390610f9a565b905060006107bd8585610f9a565b905060006107ca826110cd565b90506107d683826110f9565b9a506107e28886610f9a565b975050505050505b5061087e565b6107fa8382610f9a565b9250836001600160a01b031663b72703ac836040518263ffffffff1660e01b815260040180826001600160a01b0316815260200191505060206040518083038186803b15801561084957600080fd5b505afa15801561085d573d6000803e3d6000fd5b505050506040513d602081101561087357600080fd5b505191506104e89050565b6108888983610f9a565b935050505093509350939050565b7f000000000000000000000000000000000000000000000000000000000000000081565b7f000000000000000000000000000000000000000000000000000000000000000081565b6066546001600160a01b031681565b600054610100900460ff16806109065750610906611128565b80610914575060005460ff16155b61094f5760405162461bcd60e51b815260040180806020018281038252602e8152602001806116aa602e913960400191505060405180910390fd5b600054610100900460ff1615801561097a576000805460ff1961ff0019909116610100171660011790555b610982611139565b61098c83836111eb565b801561099e576000805461ff00191690555b505050565b60c881565b60006109b58484846112a6565b90505b9392505050565b6714d1120d7b16000081565b6109d36112d0565b6001600160a01b03166109e4610dac565b6001600160a01b031614610a3f576040805162461bcd60e51b815260206004820181905260248201527f4f776e61626c653a2063616c6c6572206973206e6f7420746865206f776e6572604482015290519081900360640190fd5b6033546040516000916001600160a01b0316906000805160206116f9833981519152908390a3603380546001600160a01b0319169055565b670de0b6b3a764000081565b670f43fc2c04ee000081565b600080600080606660009054906101000a90046001600160a01b03166001600160a01b03166349eefeee6040518163ffffffff1660e01b815260040160206040518083038186803b158015610ae357600080fd5b505afa158015610af7573d6000803e3d6000fd5b505050506040513d6020811015610b0d57600080fd5b5051905080610b26576000808693509350935050610da3565b606560009054906101000a90046001600160a01b03166001600160a01b0316634d6228316040518163ffffffff1660e01b815260040160206040518083038186803b158015610b7457600080fd5b505afa158015610b88573d6000803e3d6000fd5b505050506040513d6020811015610b9e57600080fd5b50516066546040805163b0d8e18160e01b81526001600160a01b0380851660048301529151939750610c28938b93929092169163b0d8e18191602480820192602092909190829003018186803b158015610bf757600080fd5b505afa158015610c0b573d6000803e3d6000fd5b505050506040513d6020811015610c2157600080fd5b50516112d4565b925084915060015b86811015610da057604080516020808201959095528151808203860181529082019091528051930192909220916000828481610c6857fe5b0690506000606660009054906101000a90046001600160a01b03166001600160a01b031663d9a72444836040518263ffffffff1660e01b81526004018082815260200191505060206040518083038186803b158015610cc657600080fd5b505afa158015610cda573d6000803e3d6000fd5b505050506040513d6020811015610cf057600080fd5b50516066546040805163b0d8e18160e01b81526001600160a01b0380851660048301529151939450600093919092169163b0d8e181916024808301926020929190829003018186803b158015610d4557600080fd5b505afa158015610d59573d6000803e3d6000fd5b505050506040513d6020811015610d6f57600080fd5b505190506000610d7f828d6112d4565b905087811015610d90578097508298505b505060019092019150610c309050565b50505b93509350939050565b6033546001600160a01b031690565b6040518060400160405280600b81526020016a48696e7448656c7065727360a81b81525081565b6065546001600160a01b031681565b6000610dfd83836110f9565b90505b92915050565b610e0e6112d0565b6001600160a01b0316610e1f610dac565b6001600160a01b031614610e7a576040805162461bcd60e51b815260206004820181905260248201527f4f776e61626c653a2063616c6c6572206973206e6f7420746865206f776e6572604482015290519081900360640190fd5b6001600160a01b038116610ebf5760405162461bcd60e51b81526004018080602001828103825260268152602001806116846026913960400191505060405180910390fd5b6033546040516001600160a01b038084169216906000805160206116f983398151915290600090a3603380546001600160a01b0319166001600160a01b0392909216919091179055565b6611c37937e0800081565b6000610e00827f0000000000000000000000000000000000000000000000000000000000000000610f9a565b600082820183811015610dfd576040805162461bcd60e51b815260206004820152601b60248201527f536166654d6174683a206164646974696f6e206f766572666c6f770000000000604482015290519081900360640190fd5b600082821115610ff1576040805162461bcd60e51b815260206004820152601e60248201527f536166654d6174683a207375627472616374696f6e206f766572666c6f770000604482015290519081900360640190fd5b50900390565b60008183106110065781610dfd565b5090919050565b60008261101c57506000610e00565b8282028284828161102957fe5b0414610dfd5760405162461bcd60e51b81526004018080602001828103825260218152602001806116d86021913960400191505060405180910390fd5b60008082116110bc576040805162461bcd60e51b815260206004820152601a60248201527f536166654d6174683a206469766973696f6e206279207a65726f000000000000604482015290519081900360640190fd5b8183816110c557fe5b049392505050565b6000610e00827f0000000000000000000000000000000000000000000000000000000000000000610f40565b6000811561111f57611118826107a28568056bc75e2d6310000061100d565b9050610e00565b50600019610e00565b6000611133306112f7565b15905090565b600054610100900460ff16806111525750611152611128565b80611160575060005460ff16155b61119b5760405162461bcd60e51b815260040180806020018281038252602e8152602001806116aa602e913960400191505060405180910390fd5b600054610100900460ff161580156111c6576000805460ff1961ff0019909116610100171660011790555b6111ce6112fd565b6111d661139d565b80156111e8576000805461ff00191690555b50565b6111f482611484565b6111fd81611484565b611206816114df565b606580546001600160a01b038085166001600160a01b03199283168117909355606680549185169190921617905560408051918252517f65f4cf077bc01e4742eb5ad98326f6e95b63548ea24b17f8d5e823111fe788009181900360200190a1604080516001600160a01b038316815290517f143219c9e69b09e07e095fcc889b43d8f46ca892bba65f08dc3a0050869a56789181900360200190a15050565b600082156112c75760006112be846107a2878661100d565b91506109b89050565b506000196109b8565b3390565b6000818310156112ed576112e88284610f9a565b610dfd565b610dfd8383610f9a565b3b151590565b600054610100900460ff16806113165750611316611128565b80611324575060005460ff16155b61135f5760405162461bcd60e51b815260040180806020018281038252602e8152602001806116aa602e913960400191505060405180910390fd5b600054610100900460ff161580156111d6576000805460ff1961ff00199091166101001716600117905580156111e8576000805461ff001916905550565b600054610100900460ff16806113b657506113b6611128565b806113c4575060005460ff16155b6113ff5760405162461bcd60e51b815260040180806020018281038252602e8152602001806116aa602e913960400191505060405180910390fd5b600054610100900460ff1615801561142a576000805460ff1961ff0019909116610100171660011790555b60006114346112d0565b603380546001600160a01b0319166001600160a01b038316908117909155604051919250906000906000805160206116f9833981519152908290a35080156111e8576000805461ff001916905550565b6001600160a01b0381166111e8576040805162461bcd60e51b815260206004820152601e60248201527f4163636f756e742063616e6e6f74206265207a65726f20616464726573730000604482015290519081900360640190fd5b7f0000000000000000000000000000000000000000000000000000000000000000816001600160a01b031663139f2e8c6040518163ffffffff1660e01b815260040160206040518083038186803b15801561153957600080fd5b505afa15801561154d573d6000803e3d6000fd5b505050506040513d602081101561156357600080fd5b5051146115b3576040805162461bcd60e51b815260206004820152601960248201527808e82a6be869e9aa08a9ca682a8929e9c40dad2e6dac2e8c6d603b1b604482015290519081900360640190fd5b7f0000000000000000000000000000000000000000000000000000000000000000816001600160a01b0316631bf435556040518163ffffffff1660e01b815260040160206040518083038186803b15801561160d57600080fd5b505afa158015611621573d6000803e3d6000fd5b505050506040513d602081101561163757600080fd5b5051146111e8576040805162461bcd60e51b815260206004820152601560248201527409a929cbe9c8aa8be888a84a840dad2e6dac2e8c6d605b1b604482015290519081900360640190fdfe4f776e61626c653a206e6577206f776e657220697320746865207a65726f2061646472657373496e697469616c697a61626c653a20636f6e747261637420697320616c726561647920696e697469616c697a6564536166654d6174683a206d756c7469706c69636174696f6e206f766572666c6f778be0079c531659141344cd1fd0a4f28419497f9722a3daafe3b4186f6b6457e0a264697066735822122062b5d8a615d49b300d18d04ce3054fc80d1483e6dd4d61508a1788b982c96afa64736f6c63430007060033",
  "linkReferences": {},
  "deployedLinkReferences": {}
}