{
  "_format": "hh-sol-artifact-1",
  "contractName": "LockupContractFactory",
  "sourceName": "contracts/ProtocolToken/LockupContractFactory.sol",
  "abi": [
    {
      "anonymous": false,
      "inputs": [
        {
          "indexed": false,
          "internalType": "address",
          "name": "_lockupContractAddress",
          "type": "address"
        },
        {
          "indexed": false,
          "internalType": "address",
          "name": "_beneficiary",
          "type": "address"
        },
        {
          "indexed": false,
          "internalType": "uint256",
          "name": "_unlockTime",
          "type": "uint256"
        },
        {
          "indexed": false,
          "internalType": "address",
          "name": "_deployer",
          "type": "address"
        }
      ],
      "name": "LockupContractDeployedThroughFactory",
      "type": "event"
    },
    {
      "anonymous": false,
      "inputs": [
        {
          "indexed": true,
          "internalType": "address",
          "name": "previousOwner",
          "type": "address"
        },
        {
          "indexed": true,
          "internalType": "address",
          "name": "newOwner",
          "type": "address"
        }
      ],
      "name": "OwnershipTransferred",
      "type": "event"
    },
    {
      "anonymous": false,
      "inputs": [
        {
          "indexed": false,
          "internalType": "address",
          "name": "_protocolTokenAddress",
          "type": "address"
        }
      ],
      "name": "ProtocolTokenAddressChanged",
      "type": "event"
    },
    {
      "inputs": [],
      "name": "NAME",
      "outputs": [
        {
          "internalType": "string",
          "name": "",
          "type": "string"
        }
      ],
      "stateMutability": "view",
      "type": "function"
    },
    {
      "inputs": [],
      "name": "SECONDS_IN_ONE_YEAR",
      "outputs": [
        {
          "internalType": "uint256",
          "name": "",
          "type": "uint256"
        }
      ],
      "stateMutability": "view",
      "type": "function"
    },
    {
      "inputs": [
        {
          "internalType": "address",
          "name": "",
          "type": "address"
        }
      ],
      "name": "beneficiaryToLockupContract",
      "outputs": [
        {
          "internalType": "address",
          "name": "",
          "type": "address"
        }
      ],
      "stateMutability": "view",
      "type": "function"
    },
    {
      "inputs": [
        {
          "internalType": "address",
          "name": "_beneficiary",
          "type": "address"
        },
        {
          "internalType": "uint256",
          "name": "_unlockTime",
          "type": "uint256"
        }
      ],
      "name": "deployLockupContract",
      "outputs": [],
      "stateMutability": "nonpayable",
      "type": "function"
    },
    {
      "inputs": [
        {
          "internalType": "address",
          "name": "_protocolTokenAddress",
          "type": "address"
        }
      ],
      "name": "initialize",
      "outputs": [],
      "stateMutability": "nonpayable",
      "type": "function"
    },
    {
      "inputs": [
        {
          "internalType": "address",
          "name": "_contractAddress",
          "type": "address"
        }
      ],
      "name": "isRegisteredLockup",
      "outputs": [
        {
          "internalType": "bool",
          "name": "",
          "type": "bool"
        }
      ],
      "stateMutability": "view",
      "type": "function"
    },
    {
      "inputs": [
        {
          "internalType": "address",
          "name": "",
          "type": "address"
        }
      ],
      "name": "lockupContractToDeployer",
      "outputs": [
        {
          "internalType": "address",
          "name": "",
          "type": "address"
        }
      ],
      "stateMutability": "view",
      "type": "function"
    },
    {
      "inputs": [],
      "name": "owner",
      "outputs": [
        {
          "internalType": "address",
          "name": "",
          "type": "address"
        }
      ],
      "stateMutability": "view",
      "type": "function"
    },
    {
      "inputs": [],
      "name": "protocolTokenAddress",
      "outputs": [
        {
          "internalType": "address",
          "name": "",
          "type": "address"
        }
      ],
      "stateMutability": "view",
      "type": "function"
    },
    {
      "inputs": [],
      "name": "renounceOwnership",
      "outputs": [],
      "stateMutability": "nonpayable",
      "type": "function"
    },
    {
      "inputs": [
        {
          "internalType": "address",
          "name": "newOwner",
          "type": "address"
        }
      ],
      "name": "transferOwnership",
      "outputs": [],
      "stateMutability": "nonpayable",
      "type": "function"
    }
  ],
  "bytecode": "0x608060405234801561001057600080fd5b50611341806100206000396000f3fe60806040523480156200001157600080fd5b5060043610620000b85760003560e01c8063a3f4df7e116200007b578063a3f4df7e1462000163578063bb7603f114620001e5578063c4d66de81462000222578063d83c72db146200024b578063f2fde38b1462000274578063f706b1f2146200029d57620000b8565b8063052ea2e014620000bd57806334c44b4d1462000102578063715018a614620001335780638da5cb5b146200013d57806398e5f3c41462000147575b600080fd5b620000e660048036036020811015620000d557600080fd5b50356001600160a01b0316620002a7565b604080516001600160a01b039092168252519081900360200190f35b62000131600480360360408110156200011a57600080fd5b506001600160a01b038135169060200135620002c2565b005b62000131620003cd565b620000e66200047f565b620001516200048e565b60408051918252519081900360200190f35b6200016d62000496565b6040805160208082528351818301528351919283929083019185019080838360005b83811015620001a95781810151838201526020016200018f565b50505050905090810190601f168015620001d75780820380516001836020036101000a031916815260200191505b509250505060405180910390f35b6200020e60048036036020811015620001fd57600080fd5b50356001600160a01b0316620004c7565b604080519115158252519081900360200190f35b62000131600480360360208110156200023a57600080fd5b50356001600160a01b0316620004e7565b620000e6600480360360208110156200026357600080fd5b50356001600160a01b0316620005a7565b62000131600480360360208110156200028c57600080fd5b50356001600160a01b0316620005c2565b620000e6620006cd565b6067602052600090815260409020546001600160a01b031681565b6065546001600160a01b0316620002d981620006dc565b6000818484604051620002ec9062000a55565b80846001600160a01b03168152602001836001600160a01b031681526020018281526020019350505050604051809103906000f08015801562000333573d6000803e3d6000fd5b506001600160a01b03808216600081815260666020908152604080832080546001600160a01b031990811633908117909255958b16808552606784529382902080549096168517909555805193845290830191909152818101879052606082019290925290519192507ff534ff9ac4abb71a4aa2f8715f3a8f41c05155fbf8af61daecc51365e3a5c008919081900360800190a150505050565b620003d762000726565b6001600160a01b0316620003ea6200047f565b6001600160a01b03161462000446576040805162461bcd60e51b815260206004820181905260248201527f4f776e61626c653a2063616c6c6572206973206e6f7420746865206f776e6572604482015290519081900360640190fd5b6033546040516000916001600160a01b031690600080516020620012ec833981519152908390a3603380546001600160a01b0319169055565b6033546001600160a01b031690565b6301e1338081565b604051806040016040528060158152602001744c6f636b7570436f6e7472616374466163746f727960581b81525081565b6001600160a01b0390811660009081526066602052604090205416151590565b600054610100900460ff1680620005035750620005036200072a565b8062000512575060005460ff16155b6200054f5760405162461bcd60e51b815260040180806020018281038252602e815260200180620012be602e913960400191505060405180910390fd5b600054610100900460ff161580156200057b576000805460ff1961ff0019909116610100171660011790555b620005856200073d565b6200059082620007fa565b8015620005a3576000805461ff00191690555b5050565b6066602052600090815260409020546001600160a01b031681565b620005cc62000726565b6001600160a01b0316620005df6200047f565b6001600160a01b0316146200063b576040805162461bcd60e51b815260206004820181905260248201527f4f776e61626c653a2063616c6c6572206973206e6f7420746865206f776e6572604482015290519081900360640190fd5b6001600160a01b038116620006825760405162461bcd60e51b8152600401808060200182810382526026815260200180620012736026913960400191505060405180910390fd5b6033546040516001600160a01b03808416921690600080516020620012ec83398151915290600090a3603380546001600160a01b0319166001600160a01b0392909216919091179055565b6065546001600160a01b031681565b6001600160a01b038116620007235760405162461bcd60e51b8152600401808060200182810382526025815260200180620012996025913960400191505060405180910390fd5b50565b3390565b6000620007373062000859565b15905090565b600054610100900460ff1680620007595750620007596200072a565b8062000768575060005460ff16155b620007a55760405162461bcd60e51b815260040180806020018281038252602e815260200180620012be602e913960400191505060405180910390fd5b600054610100900460ff16158015620007d1576000805460ff1961ff0019909116610100171660011790555b620007db6200085f565b620007e562000907565b801562000723576000805461ff001916905550565b6200080581620009f9565b606580546001600160a01b0383166001600160a01b0319909116811790915560408051918252517f7b0c6ae24561d189fc90b337cbc97aa15d085bef32931237a762e3e528b285b49181900360200190a150565b3b151590565b600054610100900460ff16806200087b57506200087b6200072a565b806200088a575060005460ff16155b620008c75760405162461bcd60e51b815260040180806020018281038252602e815260200180620012be602e913960400191505060405180910390fd5b600054610100900460ff16158015620007e5576000805460ff1961ff001990911661010017166001179055801562000723576000805461ff001916905550565b600054610100900460ff1680620009235750620009236200072a565b8062000932575060005460ff16155b6200096f5760405162461bcd60e51b815260040180806020018281038252602e815260200180620012be602e913960400191505060405180910390fd5b600054610100900460ff161580156200099b576000805460ff1961ff0019909116610100171660011790555b6000620009a762000726565b603380546001600160a01b0319166001600160a01b03831690811790915560405191925090600090600080516020620012ec833981519152908290a350801562000723576000805461ff001916905550565b6001600160a01b03811662000723576040805162461bcd60e51b815260206004820152601e60248201527f4163636f756e742063616e6e6f74206265207a65726f20616464726573730000604482015290519081900360640190fd5b61080f8062000a648339019056fe60e060405234801561001057600080fd5b5060405161080f38038061080f8339818101604052606081101561003357600080fd5b508051602082015160409092015190919061004e83826100c2565b61005782610187565b6001600160601b0319606084811b821660a05260c083905283901b16608052604080516001600160a01b03841681526020810183905281517f5faee922186516bf77266643c1fda130acefc439d571400e8697106c6aed9b54929181900390910190a1505050610230565b6000826001600160a01b0316632b5ba98e6040518163ffffffff1660e01b815260040160206040518083038186803b1580156100fd57600080fd5b505afa158015610111573d6000803e3d6000fd5b505050506040513d602081101561012757600080fd5b50519050610144816301e133806101cf602090811b61035a17901c565b8210156101825760405162461bcd60e51b815260040180806020018281038252604d8152602001806107c2604d913960600191505060405180910390fd5b505050565b6001600160a01b0381166101cc5760405162461bcd60e51b81526004018080602001828103825260328152602001806107906032913960400191505060405180910390fd5b50565b600082820183811015610229576040805162461bcd60e51b815260206004820152601b60248201527f536166654d6174683a206164646974696f6e206f766572666c6f770000000000604482015290519081900360640190fd5b9392505050565b60805160601c60a05160601c60c05161051a61027660003980610162528061042652508061013e5280610202525080610186528061029952806103c6525061051a6000f3fe608060405234801561001057600080fd5b50600436106100625760003560e01c80631a465fe114610067578063251c1aa31461008b57806338af3eed146100a557806398e5f3c4146100ad578063a3f4df7e146100b5578063e8b633fd14610132575b600080fd5b61006f61013c565b604080516001600160a01b039092168252519081900360200190f35b610093610160565b60408051918252519081900360200190f35b61006f610184565b6100936101a8565b6100bd6101b0565b6040805160208082528351818301528351919283929083019185019080838360005b838110156100f75781810151838201526020016100df565b50505050905090810190601f1680156101245780820380516001836020036101000a031916815260200191505b509250505060405180910390f35b61013a6101da565b005b7f000000000000000000000000000000000000000000000000000000000000000081565b7f000000000000000000000000000000000000000000000000000000000000000081565b7f000000000000000000000000000000000000000000000000000000000000000081565b6301e1338081565b6040518060400160405280600e81526020016d131bd8dadd5c10dbdb9d1c9858dd60921b81525081565b6101e26103bb565b6101ea610424565b604080516370a0823160e01b815230600482015290517f0000000000000000000000000000000000000000000000000000000000000000916000916001600160a01b038416916370a08231916024808301926020929190829003018186803b15801561025557600080fd5b505afa158015610269573d6000803e3d6000fd5b505050506040513d602081101561027f57600080fd5b50516040805163a9059cbb60e01b81526001600160a01b037f0000000000000000000000000000000000000000000000000000000000000000811660048301526024820184905291519293509084169163a9059cbb916044808201926020929091908290030181600087803b1580156102f757600080fd5b505af115801561030b573d6000803e3d6000fd5b505050506040513d602081101561032157600080fd5b50506040805182815290517f7d17cbc0f78ccfed33842dd29dab2872e8347bf3981293ab2cfe35ca16371a2f9181900360200190a15050565b6000828201838110156103b4576040805162461bcd60e51b815260206004820152601b60248201527f536166654d6174683a206164646974696f6e206f766572666c6f770000000000604482015290519081900360640190fd5b9392505050565b336001600160a01b037f000000000000000000000000000000000000000000000000000000000000000016146104225760405162461bcd60e51b815260040180806020018281038252602d8152602001806104b8602d913960400191505060405180910390fd5b565b7f00000000000000000000000000000000000000000000000000000000000000004210156104225760405162461bcd60e51b81526004018080602001828103825260348152602001806104846034913960400191505060405180910390fdfe4c6f636b7570436f6e74726163743a20546865206c6f636b7570206475726174696f6e206d7573742068617665207061737365644c6f636b7570436f6e74726163743a2063616c6c6572206973206e6f74207468652062656e6566696369617279a264697066735822122054dd1ff36cb550cea1e4cf97624e9ab00440c876cea3e8f41870c067630369c964736f6c634300070600334c6f636b7570436f6e74726163743a2062656e65666963696172792063616e6e6f74206265207a65726f20616464726573734c6f636b7570436f6e74726163743a20756e6c6f636b2074696d65206d757374206265206174206c65617374206f6e6520796561722061667465722073797374656d206465706c6f796d656e744f776e61626c653a206e6577206f776e657220697320746865207a65726f20616464726573734c43463a2050726f746f636f6c546f6b656e2041646472657373206973206e6f7420736574496e697469616c697a61626c653a20636f6e747261637420697320616c726561647920696e697469616c697a65648be0079c531659141344cd1fd0a4f28419497f9722a3daafe3b4186f6b6457e0a264697066735822122056865a26df35707c012325c65be7e9f0ec59458cdb8475c3eb64a5f8d1cae21c64736f6c63430007060033",
  "linkReferences": {},
  "deployedLinkReferences": {}
}