{
  "_format": "hh-sol-artifact-1",
  "contractName": "LockupContractFactory",
  "sourceName": "contracts/ProtocolToken/LockupContractFactory.sol",
  "abi": [
    {
      "anonymous": false,
      "inputs": [
        {
          "indexed": false,
          "internalType": "address",
          "name": "_lockupContractAddress",
          "type": "address"
        },
        {
          "indexed": false,
          "internalType": "address",
          "name": "_beneficiary",
          "type": "address"
        },
        {
          "indexed": false,
          "internalType": "uint256",
          "name": "_unlockTime",
          "type": "uint256"
        },
        {
          "indexed": false,
          "internalType": "address",
          "name": "_deployer",
          "type": "address"
        }
      ],
      "name": "LockupContractDeployedThroughFactory",
      "type": "event"
    },
    {
      "anonymous": false,
      "inputs": [
        {
          "indexed": true,
          "internalType": "address",
          "name": "previousOwner",
          "type": "address"
        },
        {
          "indexed": true,
          "internalType": "address",
          "name": "newOwner",
          "type": "address"
        }
      ],
      "name": "OwnershipTransferred",
      "type": "event"
    },
    {
      "anonymous": false,
      "inputs": [
        {
          "indexed": false,
          "internalType": "address",
          "name": "_protocolTokenAddress",
          "type": "address"
        }
      ],
      "name": "ProtocolTokenAddressChanged",
      "type": "event"
    },
    {
      "inputs": [],
      "name": "NAME",
      "outputs": [
        {
          "internalType": "string",
          "name": "",
          "type": "string"
        }
      ],
      "stateMutability": "view",
      "type": "function"
    },
    {
      "inputs": [],
      "name": "SECONDS_IN_ONE_YEAR",
      "outputs": [
        {
          "internalType": "uint256",
          "name": "",
          "type": "uint256"
        }
      ],
      "stateMutability": "view",
      "type": "function"
    },
    {
      "inputs": [
        {
          "internalType": "address",
          "name": "_beneficiary",
          "type": "address"
        },
        {
          "internalType": "uint256",
          "name": "_unlockTime",
          "type": "uint256"
        }
      ],
      "name": "deployLockupContract",
      "outputs": [],
      "stateMutability": "nonpayable",
      "type": "function"
    },
    {
      "inputs": [
        {
          "internalType": "address",
          "name": "_protocolTokenAddress",
          "type": "address"
        }
      ],
      "name": "initialize",
      "outputs": [],
      "stateMutability": "nonpayable",
      "type": "function"
    },
    {
      "inputs": [
        {
          "internalType": "address",
          "name": "_contractAddress",
          "type": "address"
        }
      ],
      "name": "isRegisteredLockup",
      "outputs": [
        {
          "internalType": "bool",
          "name": "",
          "type": "bool"
        }
      ],
      "stateMutability": "view",
      "type": "function"
    },
    {
      "inputs": [
        {
          "internalType": "address",
          "name": "",
          "type": "address"
        }
      ],
      "name": "lockupContractToDeployer",
      "outputs": [
        {
          "internalType": "address",
          "name": "",
          "type": "address"
        }
      ],
      "stateMutability": "view",
      "type": "function"
    },
    {
      "inputs": [],
      "name": "owner",
      "outputs": [
        {
          "internalType": "address",
          "name": "",
          "type": "address"
        }
      ],
      "stateMutability": "view",
      "type": "function"
    },
    {
      "inputs": [],
      "name": "protocolTokenAddress",
      "outputs": [
        {
          "internalType": "address",
          "name": "",
          "type": "address"
        }
      ],
      "stateMutability": "view",
      "type": "function"
    },
    {
      "inputs": [],
      "name": "renounceOwnership",
      "outputs": [],
      "stateMutability": "nonpayable",
      "type": "function"
    },
    {
      "inputs": [
        {
          "internalType": "address",
          "name": "newOwner",
          "type": "address"
        }
      ],
      "name": "transferOwnership",
      "outputs": [],
      "stateMutability": "nonpayable",
      "type": "function"
    }
  ],
  "bytecode": "0x608060405234801561001057600080fd5b50611272806100206000396000f3fe608060405234801561001057600080fd5b506004361061009e5760003560e01c8063bb7603f111610066578063bb7603f114610194578063c4d66de8146101ce578063d83c72db146101f4578063f2fde38b1461021a578063f706b1f2146102405761009e565b806334c44b4d146100a3578063715018a6146100d15780638da5cb5b146100d957806398e5f3c4146100fd578063a3f4df7e14610117575b600080fd5b6100cf600480360360408110156100b957600080fd5b506001600160a01b038135169060200135610248565b005b6100cf610335565b6100e16103e2565b604080516001600160a01b039092168252519081900360200190f35b6101056103f1565b60408051918252519081900360200190f35b61011f6103f9565b6040805160208082528351818301528351919283929083019185019080838360005b83811015610159578181015183820152602001610141565b50505050905090810190601f1680156101865780820380516001836020036101000a031916815260200191505b509250505060405180910390f35b6101ba600480360360208110156101aa57600080fd5b50356001600160a01b031661042a565b604080519115158252519081900360200190f35b6100cf600480360360208110156101e457600080fd5b50356001600160a01b031661044a565b6100e16004803603602081101561020a57600080fd5b50356001600160a01b03166104ff565b6100cf6004803603602081101561023057600080fd5b50356001600160a01b031661051a565b6100e161061f565b6065546001600160a01b031661025d8161062e565b600081848460405161026e90610986565b80846001600160a01b03168152602001836001600160a01b031681526020018281526020019350505050604051809103906000f0801580156102b4573d6000803e3d6000fd5b506001600160a01b0380821660008181526066602090815260409182902080546001600160a01b03191633908117909155825193845293891690830152818101879052606082019290925290519192507ff534ff9ac4abb71a4aa2f8715f3a8f41c05155fbf8af61daecc51365e3a5c008919081900360800190a150505050565b61033d610677565b6001600160a01b031661034e6103e2565b6001600160a01b0316146103a9576040805162461bcd60e51b815260206004820181905260248201527f4f776e61626c653a2063616c6c6572206973206e6f7420746865206f776e6572604482015290519081900360640190fd5b6033546040516000916001600160a01b0316906000805160206200121d833981519152908390a3603380546001600160a01b0319169055565b6033546001600160a01b031690565b6301e1338081565b604051806040016040528060158152602001744c6f636b7570436f6e7472616374466163746f727960581b81525081565b6001600160a01b0390811660009081526066602052604090205416151590565b600054610100900460ff1680610463575061046361067b565b80610471575060005460ff16155b6104ad5760405162461bcd60e51b815260040180806020018281038252602e815260200180620011ef602e913960400191505060405180910390fd5b600054610100900460ff161580156104d8576000805460ff1961ff0019909116610100171660011790555b6104e061068c565b6104e98261073e565b80156104fb576000805461ff00191690555b5050565b6066602052600090815260409020546001600160a01b031681565b610522610677565b6001600160a01b03166105336103e2565b6001600160a01b03161461058e576040805162461bcd60e51b815260206004820181905260248201527f4f776e61626c653a2063616c6c6572206973206e6f7420746865206f776e6572604482015290519081900360640190fd5b6001600160a01b0381166105d45760405162461bcd60e51b8152600401808060200182810382526026815260200180620011a46026913960400191505060405180910390fd5b6033546040516001600160a01b038084169216906000805160206200121d83398151915290600090a3603380546001600160a01b0319166001600160a01b0392909216919091179055565b6065546001600160a01b031681565b6001600160a01b0381166106745760405162461bcd60e51b8152600401808060200182810382526025815260200180620011ca6025913960400191505060405180910390fd5b50565b3390565b60006106863061079b565b15905090565b600054610100900460ff16806106a557506106a561067b565b806106b3575060005460ff16155b6106ef5760405162461bcd60e51b815260040180806020018281038252602e815260200180620011ef602e913960400191505060405180910390fd5b600054610100900460ff1615801561071a576000805460ff1961ff0019909116610100171660011790555b6107226107a1565b61072a610842565b8015610674576000805461ff001916905550565b6107478161092b565b606580546001600160a01b0383166001600160a01b0319909116811790915560408051918252517f7b0c6ae24561d189fc90b337cbc97aa15d085bef32931237a762e3e528b285b49181900360200190a150565b3b151590565b600054610100900460ff16806107ba57506107ba61067b565b806107c8575060005460ff16155b6108045760405162461bcd60e51b815260040180806020018281038252602e815260200180620011ef602e913960400191505060405180910390fd5b600054610100900460ff1615801561072a576000805460ff1961ff0019909116610100171660011790558015610674576000805461ff001916905550565b600054610100900460ff168061085b575061085b61067b565b80610869575060005460ff16155b6108a55760405162461bcd60e51b815260040180806020018281038252602e815260200180620011ef602e913960400191505060405180910390fd5b600054610100900460ff161580156108d0576000805460ff1961ff0019909116610100171660011790555b60006108da610677565b603380546001600160a01b0319166001600160a01b038316908117909155604051919250906000906000805160206200121d833981519152908290a3508015610674576000805461ff001916905550565b6001600160a01b038116610674576040805162461bcd60e51b815260206004820152601e60248201527f4163636f756e742063616e6e6f74206265207a65726f20616464726573730000604482015290519081900360640190fd5b61080f80620009958339019056fe60e060405234801561001057600080fd5b5060405161080f38038061080f8339818101604052606081101561003357600080fd5b508051602082015160409092015190919061004e83826100c2565b61005782610187565b6001600160601b0319606084811b821660a05260c083905283901b16608052604080516001600160a01b03841681526020810183905281517f5faee922186516bf77266643c1fda130acefc439d571400e8697106c6aed9b54929181900390910190a1505050610230565b6000826001600160a01b0316632b5ba98e6040518163ffffffff1660e01b815260040160206040518083038186803b1580156100fd57600080fd5b505afa158015610111573d6000803e3d6000fd5b505050506040513d602081101561012757600080fd5b50519050610144816301e133806101cf602090811b61035a17901c565b8210156101825760405162461bcd60e51b815260040180806020018281038252604d8152602001806107c2604d913960600191505060405180910390fd5b505050565b6001600160a01b0381166101cc5760405162461bcd60e51b81526004018080602001828103825260328152602001806107906032913960400191505060405180910390fd5b50565b600082820183811015610229576040805162461bcd60e51b815260206004820152601b60248201527f536166654d6174683a206164646974696f6e206f766572666c6f770000000000604482015290519081900360640190fd5b9392505050565b60805160601c60a05160601c60c05161051a61027660003980610162528061042652508061013e5280610202525080610186528061029952806103c6525061051a6000f3fe608060405234801561001057600080fd5b50600436106100625760003560e01c80631a465fe114610067578063251c1aa31461008b57806338af3eed146100a557806398e5f3c4146100ad578063a3f4df7e146100b5578063e8b633fd14610132575b600080fd5b61006f61013c565b604080516001600160a01b039092168252519081900360200190f35b610093610160565b60408051918252519081900360200190f35b61006f610184565b6100936101a8565b6100bd6101b0565b6040805160208082528351818301528351919283929083019185019080838360005b838110156100f75781810151838201526020016100df565b50505050905090810190601f1680156101245780820380516001836020036101000a031916815260200191505b509250505060405180910390f35b61013a6101da565b005b7f000000000000000000000000000000000000000000000000000000000000000081565b7f000000000000000000000000000000000000000000000000000000000000000081565b7f000000000000000000000000000000000000000000000000000000000000000081565b6301e1338081565b6040518060400160405280600e81526020016d131bd8dadd5c10dbdb9d1c9858dd60921b81525081565b6101e26103bb565b6101ea610424565b604080516370a0823160e01b815230600482015290517f0000000000000000000000000000000000000000000000000000000000000000916000916001600160a01b038416916370a08231916024808301926020929190829003018186803b15801561025557600080fd5b505afa158015610269573d6000803e3d6000fd5b505050506040513d602081101561027f57600080fd5b50516040805163a9059cbb60e01b81526001600160a01b037f0000000000000000000000000000000000000000000000000000000000000000811660048301526024820184905291519293509084169163a9059cbb916044808201926020929091908290030181600087803b1580156102f757600080fd5b505af115801561030b573d6000803e3d6000fd5b505050506040513d602081101561032157600080fd5b50506040805182815290517f7d17cbc0f78ccfed33842dd29dab2872e8347bf3981293ab2cfe35ca16371a2f9181900360200190a15050565b6000828201838110156103b4576040805162461bcd60e51b815260206004820152601b60248201527f536166654d6174683a206164646974696f6e206f766572666c6f770000000000604482015290519081900360640190fd5b9392505050565b336001600160a01b037f000000000000000000000000000000000000000000000000000000000000000016146104225760405162461bcd60e51b815260040180806020018281038252602d8152602001806104b8602d913960400191505060405180910390fd5b565b7f00000000000000000000000000000000000000000000000000000000000000004210156104225760405162461bcd60e51b81526004018080602001828103825260348152602001806104846034913960400191505060405180910390fdfe4c6f636b7570436f6e74726163743a20546865206c6f636b7570206475726174696f6e206d7573742068617665207061737365644c6f636b7570436f6e74726163743a2063616c6c6572206973206e6f74207468652062656e6566696369617279a264697066735822122054dd1ff36cb550cea1e4cf97624e9ab00440c876cea3e8f41870c067630369c964736f6c634300070600334c6f636b7570436f6e74726163743a2062656e65666963696172792063616e6e6f74206265207a65726f20616464726573734c6f636b7570436f6e74726163743a20756e6c6f636b2074696d65206d757374206265206174206c65617374206f6e6520796561722061667465722073797374656d206465706c6f796d656e744f776e61626c653a206e6577206f776e657220697320746865207a65726f20616464726573734c43463a2050726f746f636f6c546f6b656e2041646472657373206973206e6f7420736574496e697469616c697a61626c653a20636f6e747261637420697320616c726561647920696e697469616c697a65648be0079c531659141344cd1fd0a4f28419497f9722a3daafe3b4186f6b6457e0a2646970667358221220585d3ffd86abb9a3a9c43be2ac8627592733784a2dff4dd2d5b88374be96a3b464736f6c63430007060033",
  "linkReferences": {},
  "deployedLinkReferences": {}
}