{
  "_format": "hh-sol-artifact-1",
  "contractName": "LockupContractFactory",
  "sourceName": "contracts/ProtocolToken/LockupContractFactory.sol",
  "abi": [
    {
      "anonymous": false,
      "inputs": [
        {
          "indexed": false,
          "internalType": "address",
          "name": "_lockupContractAddress",
          "type": "address"
        },
        {
          "indexed": false,
          "internalType": "address",
          "name": "_beneficiary",
          "type": "address"
        },
        {
          "indexed": false,
          "internalType": "uint256",
          "name": "_unlockTime",
          "type": "uint256"
        },
        {
          "indexed": false,
          "internalType": "address",
          "name": "_deployer",
          "type": "address"
        }
      ],
      "name": "LockupContractDeployedThroughFactory",
      "type": "event"
    },
    {
      "anonymous": false,
      "inputs": [
        {
          "indexed": true,
          "internalType": "address",
          "name": "previousOwner",
          "type": "address"
        },
        {
          "indexed": true,
          "internalType": "address",
          "name": "newOwner",
          "type": "address"
        }
      ],
      "name": "OwnershipTransferred",
      "type": "event"
    },
    {
      "anonymous": false,
      "inputs": [
        {
          "indexed": false,
          "internalType": "address",
          "name": "_protocolTokenAddress",
          "type": "address"
        }
      ],
      "name": "ProtocolTokenAddressSet",
      "type": "event"
    },
    {
      "inputs": [],
      "name": "NAME",
      "outputs": [
        {
          "internalType": "string",
          "name": "",
          "type": "string"
        }
      ],
      "stateMutability": "view",
      "type": "function"
    },
    {
      "inputs": [],
      "name": "SECONDS_IN_ONE_YEAR",
      "outputs": [
        {
          "internalType": "uint256",
          "name": "",
          "type": "uint256"
        }
      ],
      "stateMutability": "view",
      "type": "function"
    },
    {
      "inputs": [
        {
          "internalType": "address",
          "name": "",
          "type": "address"
        }
      ],
      "name": "beneficiaryToLockupContract",
      "outputs": [
        {
          "internalType": "address",
          "name": "",
          "type": "address"
        }
      ],
      "stateMutability": "view",
      "type": "function"
    },
    {
      "inputs": [
        {
          "internalType": "address",
          "name": "_beneficiary",
          "type": "address"
        },
        {
          "internalType": "uint256",
          "name": "_unlockTime",
          "type": "uint256"
        }
      ],
      "name": "deployLockupContract",
      "outputs": [],
      "stateMutability": "nonpayable",
      "type": "function"
    },
    {
      "inputs": [
        {
          "internalType": "address",
          "name": "_protocolTokenAddress",
          "type": "address"
        }
      ],
      "name": "initialize",
      "outputs": [],
      "stateMutability": "nonpayable",
      "type": "function"
    },
    {
      "inputs": [
        {
          "internalType": "address",
          "name": "_contractAddress",
          "type": "address"
        }
      ],
      "name": "isRegisteredLockup",
      "outputs": [
        {
          "internalType": "bool",
          "name": "",
          "type": "bool"
        }
      ],
      "stateMutability": "view",
      "type": "function"
    },
    {
      "inputs": [
        {
          "internalType": "address",
          "name": "",
          "type": "address"
        }
      ],
      "name": "lockupContractToDeployer",
      "outputs": [
        {
          "internalType": "address",
          "name": "",
          "type": "address"
        }
      ],
      "stateMutability": "view",
      "type": "function"
    },
    {
      "inputs": [],
      "name": "owner",
      "outputs": [
        {
          "internalType": "address",
          "name": "",
          "type": "address"
        }
      ],
      "stateMutability": "view",
      "type": "function"
    },
    {
      "inputs": [],
      "name": "protocolTokenAddress",
      "outputs": [
        {
          "internalType": "address",
          "name": "",
          "type": "address"
        }
      ],
      "stateMutability": "view",
      "type": "function"
    },
    {
      "inputs": [],
      "name": "renounceOwnership",
      "outputs": [],
      "stateMutability": "nonpayable",
      "type": "function"
    },
    {
      "inputs": [
        {
          "internalType": "address",
          "name": "newOwner",
          "type": "address"
        }
      ],
      "name": "transferOwnership",
      "outputs": [],
      "stateMutability": "nonpayable",
      "type": "function"
    }
  ],
  "bytecode": "0x608060405234801561001057600080fd5b506111e2806100206000396000f3fe608060405234801561001057600080fd5b50600436106100a95760003560e01c8063a3f4df7e11610071578063a3f4df7e14610148578063bb7603f1146101c5578063c4d66de8146101ff578063d83c72db14610225578063f2fde38b1461024b578063f706b1f214610271576100a9565b8063052ea2e0146100ae57806334c44b4d146100f0578063715018a61461011e5780638da5cb5b1461012657806398e5f3c41461012e575b600080fd5b6100d4600480360360208110156100c457600080fd5b50356001600160a01b0316610279565b604080516001600160a01b039092168252519081900360200190f35b61011c6004803603604081101561010657600080fd5b506001600160a01b038135169060200135610294565b005b61011c61039a565b6100d4610446565b610136610455565b60408051918252519081900360200190f35b61015061045d565b6040805160208082528351818301528351919283929083019185019080838360005b8381101561018a578181015183820152602001610172565b50505050905090810190601f1680156101b75780820380516001836020036101000a031916815260200191505b509250505060405180910390f35b6101eb600480360360208110156101db57600080fd5b50356001600160a01b031661048e565b604080519115158252519081900360200190f35b61011c6004803603602081101561021557600080fd5b50356001600160a01b03166104ae565b6100d46004803603602081101561023b57600080fd5b50356001600160a01b0316610562565b61011c6004803603602081101561026157600080fd5b50356001600160a01b031661057d565b6100d4610680565b6067602052600090815260409020546001600160a01b031681565b6065546001600160a01b03166102a98161068f565b60008184846040516102ba906109e2565b80846001600160a01b03168152602001836001600160a01b031681526020018281526020019350505050604051809103906000f080158015610300573d6000803e3d6000fd5b506001600160a01b03808216600081815260666020908152604080832080546001600160a01b031990811633908117909255958b16808552606784529382902080549096168517909555805193845290830191909152818101879052606082019290925290519192507ff534ff9ac4abb71a4aa2f8715f3a8f41c05155fbf8af61daecc51365e3a5c008919081900360800190a150505050565b6103a26106d7565b6001600160a01b03166103b3610446565b6001600160a01b03161461040e576040805162461bcd60e51b815260206004820181905260248201527f4f776e61626c653a2063616c6c6572206973206e6f7420746865206f776e6572604482015290519081900360640190fd5b6033546040516000916001600160a01b03169060008051602061118d833981519152908390a3603380546001600160a01b0319169055565b6033546001600160a01b031690565b6301e1338081565b604051806040016040528060158152602001744c6f636b7570436f6e7472616374466163746f727960581b81525081565b6001600160a01b0390811660009081526066602052604090205416151590565b600054610100900460ff16806104c757506104c76106db565b806104d5575060005460ff16155b6105105760405162461bcd60e51b815260040180806020018281038252602e81526020018061115f602e913960400191505060405180910390fd5b600054610100900460ff1615801561053b576000805460ff1961ff0019909116610100171660011790555b6105436106ec565b61054c8261079d565b801561055e576000805461ff00191690555b5050565b6066602052600090815260409020546001600160a01b031681565b6105856106d7565b6001600160a01b0316610596610446565b6001600160a01b0316146105f1576040805162461bcd60e51b815260206004820181905260248201527f4f776e61626c653a2063616c6c6572206973206e6f7420746865206f776e6572604482015290519081900360640190fd5b6001600160a01b0381166106365760405162461bcd60e51b81526004018080602001828103825260268152602001806111146026913960400191505060405180910390fd5b6033546040516001600160a01b0380841692169060008051602061118d83398151915290600090a3603380546001600160a01b0319166001600160a01b0392909216919091179055565b6065546001600160a01b031681565b6001600160a01b0381166106d45760405162461bcd60e51b815260040180806020018281038252602581526020018061113a6025913960400191505060405180910390fd5b50565b3390565b60006106e6306107fa565b15905090565b600054610100900460ff168061070557506107056106db565b80610713575060005460ff16155b61074e5760405162461bcd60e51b815260040180806020018281038252602e81526020018061115f602e913960400191505060405180910390fd5b600054610100900460ff16158015610779576000805460ff1961ff0019909116610100171660011790555b610781610800565b6107896108a0565b80156106d4576000805461ff001916905550565b6107a681610987565b606580546001600160a01b0383166001600160a01b0319909116811790915560408051918252517f8b70fff6eb19dda13b7b98f7e1b6aff53cc8a27c0ffe6282cc22727fdcd4e2319181900360200190a150565b3b151590565b600054610100900460ff168061081957506108196106db565b80610827575060005460ff16155b6108625760405162461bcd60e51b815260040180806020018281038252602e81526020018061115f602e913960400191505060405180910390fd5b600054610100900460ff16158015610789576000805460ff1961ff00199091166101001716600117905580156106d4576000805461ff001916905550565b600054610100900460ff16806108b957506108b96106db565b806108c7575060005460ff16155b6109025760405162461bcd60e51b815260040180806020018281038252602e81526020018061115f602e913960400191505060405180910390fd5b600054610100900460ff1615801561092d576000805460ff1961ff0019909116610100171660011790555b60006109376106d7565b603380546001600160a01b0319166001600160a01b0383169081179091556040519192509060009060008051602061118d833981519152908290a35080156106d4576000805461ff001916905550565b6001600160a01b0381166106d4576040805162461bcd60e51b815260206004820152601e60248201527f4163636f756e742063616e6e6f74206265207a65726f20616464726573730000604482015290519081900360640190fd5b610724806109f08339019056fe60a060405234801561001057600080fd5b506040516107243803806107248339818101604052606081101561003357600080fd5b5080516020820151604090920151600080546001600160a01b0319166001600160a01b038416179055909190610068816100cb565b60018190556001600160601b0319606083901b16608052604080516001600160a01b03841681526020810183905281517f5faee922186516bf77266643c1fda130acefc439d571400e8697106c6aed9b54929181900390910190a1505050610204565b60008060009054906101000a90046001600160a01b03166001600160a01b0316633c84b7c26040518163ffffffff1660e01b815260040160206040518083038186803b15801561011a57600080fd5b505afa15801561012e573d6000803e3d6000fd5b505050506040513d602081101561014457600080fd5b50519050610161816301e133806101a3602090811b61030a17901c565b82101561019f5760405162461bcd60e51b815260040180806020018281038252604d8152602001806106d7604d913960600191505060405180910390fd5b5050565b6000828201838110156101fd576040805162461bcd60e51b815260206004820152601b60248201527f536166654d6174683a206164646974696f6e206f766572666c6f770000000000604482015290519081900360640190fd5b9392505050565b60805160601c6104ac61022b600039806101535280610249528061037652506104ac6000f3fe608060405234801561001057600080fd5b50600436106100625760003560e01c80631a465fe114610067578063251c1aa31461008b57806338af3eed146100a557806398e5f3c4146100ad578063a3f4df7e146100b5578063e8b633fd14610132575b600080fd5b61006f61013c565b604080516001600160a01b039092168252519081900360200190f35b61009361014b565b60408051918252519081900360200190f35b61006f610151565b610093610175565b6100bd61017d565b6040805160208082528351818301528351919283929083019185019080838360005b838110156100f75781810151838201526020016100df565b50505050905090810190601f1680156101245780820380516001836020036101000a031916815260200191505b509250505060405180910390f35b61013a6101a7565b005b6000546001600160a01b031681565b60015481565b7f000000000000000000000000000000000000000000000000000000000000000081565b6301e1338081565b6040518060400160405280600e81526020016d131bd8dadd5c10dbdb9d1c9858dd60921b81525081565b6101af61036b565b6101b76103d4565b60008054604080516370a0823160e01b815230600482015290516001600160a01b03909216929183916370a08231916024808301926020929190829003018186803b15801561020557600080fd5b505afa158015610219573d6000803e3d6000fd5b505050506040513d602081101561022f57600080fd5b50516040805163a9059cbb60e01b81526001600160a01b037f0000000000000000000000000000000000000000000000000000000000000000811660048301526024820184905291519293509084169163a9059cbb916044808201926020929091908290030181600087803b1580156102a757600080fd5b505af11580156102bb573d6000803e3d6000fd5b505050506040513d60208110156102d157600080fd5b50506040805182815290517f7d17cbc0f78ccfed33842dd29dab2872e8347bf3981293ab2cfe35ca16371a2f9181900360200190a15050565b600082820183811015610364576040805162461bcd60e51b815260206004820152601b60248201527f536166654d6174683a206164646974696f6e206f766572666c6f770000000000604482015290519081900360640190fd5b9392505050565b336001600160a01b037f000000000000000000000000000000000000000000000000000000000000000016146103d25760405162461bcd60e51b815260040180806020018281038252602d81526020018061044a602d913960400191505060405180910390fd5b565b6001544210156103d25760405162461bcd60e51b81526004018080602001828103825260348152602001806104166034913960400191505060405180910390fdfe4c6f636b7570436f6e74726163743a20546865206c6f636b7570206475726174696f6e206d7573742068617665207061737365644c6f636b7570436f6e74726163743a2063616c6c6572206973206e6f74207468652062656e6566696369617279a2646970667358221220a3b82e6415aadab93e8d1cd52297b647c5e315653efe02f1fe8e0912b115b77164736f6c634300070600334c6f636b7570436f6e74726163743a20756e6c6f636b2074696d65206d757374206265206174206c65617374206f6e6520796561722061667465722073797374656d206465706c6f796d656e744f776e61626c653a206e6577206f776e657220697320746865207a65726f20616464726573734c43463a2050726f746f636f6c546f6b656e2041646472657373206973206e6f7420736574496e697469616c697a61626c653a20636f6e747261637420697320616c726561647920696e697469616c697a65648be0079c531659141344cd1fd0a4f28419497f9722a3daafe3b4186f6b6457e0a2646970667358221220528c7a472c12c7b68bfebfa86dfa8c187bfd0be130cb243d6b0e06f5728ac21f64736f6c63430007060033",
  "linkReferences": {},
  "deployedLinkReferences": {}
}