{
  "_format": "hh-sol-artifact-1",
  "contractName": "LockupContract",
  "sourceName": "contracts/ProtocolToken/LockupContract.sol",
  "abi": [
    {
      "inputs": [
        {
          "internalType": "address",
          "name": "_protocolTokenAddress",
          "type": "address"
        },
        {
          "internalType": "address",
          "name": "_beneficiary",
          "type": "address"
        },
        {
          "internalType": "uint256",
          "name": "_unlockTime",
          "type": "uint256"
        }
      ],
      "stateMutability": "nonpayable",
      "type": "constructor"
    },
    {
      "anonymous": false,
      "inputs": [
        {
          "indexed": false,
          "internalType": "address",
          "name": "_beneficiary",
          "type": "address"
        },
        {
          "indexed": false,
          "internalType": "uint256",
          "name": "_unlockTime",
          "type": "uint256"
        }
      ],
      "name": "LockupContractCreated",
      "type": "event"
    },
    {
      "anonymous": false,
      "inputs": [
        {
          "indexed": false,
          "internalType": "uint256",
          "name": "_ProtocolTokenWithdrawal",
          "type": "uint256"
        }
      ],
      "name": "LockupContractEmptied",
      "type": "event"
    },
    {
      "inputs": [],
      "name": "NAME",
      "outputs": [
        {
          "internalType": "string",
          "name": "",
          "type": "string"
        }
      ],
      "stateMutability": "view",
      "type": "function"
    },
    {
      "inputs": [],
      "name": "SECONDS_IN_ONE_YEAR",
      "outputs": [
        {
          "internalType": "uint256",
          "name": "",
          "type": "uint256"
        }
      ],
      "stateMutability": "view",
      "type": "function"
    },
    {
      "inputs": [],
      "name": "beneficiary",
      "outputs": [
        {
          "internalType": "address",
          "name": "",
          "type": "address"
        }
      ],
      "stateMutability": "view",
      "type": "function"
    },
    {
      "inputs": [],
      "name": "protocolToken",
      "outputs": [
        {
          "internalType": "contract IProtocolToken",
          "name": "",
          "type": "address"
        }
      ],
      "stateMutability": "view",
      "type": "function"
    },
    {
      "inputs": [],
      "name": "unlockTime",
      "outputs": [
        {
          "internalType": "uint256",
          "name": "",
          "type": "uint256"
        }
      ],
      "stateMutability": "view",
      "type": "function"
    },
    {
      "inputs": [],
      "name": "withdrawProtocolToken",
      "outputs": [],
      "stateMutability": "nonpayable",
      "type": "function"
    }
  ],
  "bytecode": "0x60e060405234801561001057600080fd5b5060405161080f38038061080f8339818101604052606081101561003357600080fd5b508051602082015160409092015190919061004e83826100c2565b61005782610187565b6001600160601b0319606084811b821660a05260c083905283901b16608052604080516001600160a01b03841681526020810183905281517f5faee922186516bf77266643c1fda130acefc439d571400e8697106c6aed9b54929181900390910190a1505050610230565b6000826001600160a01b0316632b5ba98e6040518163ffffffff1660e01b815260040160206040518083038186803b1580156100fd57600080fd5b505afa158015610111573d6000803e3d6000fd5b505050506040513d602081101561012757600080fd5b50519050610144816301e133806101cf602090811b61035a17901c565b8210156101825760405162461bcd60e51b815260040180806020018281038252604d8152602001806107c2604d913960600191505060405180910390fd5b505050565b6001600160a01b0381166101cc5760405162461bcd60e51b81526004018080602001828103825260328152602001806107906032913960400191505060405180910390fd5b50565b600082820183811015610229576040805162461bcd60e51b815260206004820152601b60248201527f536166654d6174683a206164646974696f6e206f766572666c6f770000000000604482015290519081900360640190fd5b9392505050565b60805160601c60a05160601c60c05161051a61027660003980610162528061042652508061013e5280610202525080610186528061029952806103c6525061051a6000f3fe608060405234801561001057600080fd5b50600436106100625760003560e01c80631a465fe114610067578063251c1aa31461008b57806338af3eed146100a557806398e5f3c4146100ad578063a3f4df7e146100b5578063e8b633fd14610132575b600080fd5b61006f61013c565b604080516001600160a01b039092168252519081900360200190f35b610093610160565b60408051918252519081900360200190f35b61006f610184565b6100936101a8565b6100bd6101b0565b6040805160208082528351818301528351919283929083019185019080838360005b838110156100f75781810151838201526020016100df565b50505050905090810190601f1680156101245780820380516001836020036101000a031916815260200191505b509250505060405180910390f35b61013a6101da565b005b7f000000000000000000000000000000000000000000000000000000000000000081565b7f000000000000000000000000000000000000000000000000000000000000000081565b7f000000000000000000000000000000000000000000000000000000000000000081565b6301e1338081565b6040518060400160405280600e81526020016d131bd8dadd5c10dbdb9d1c9858dd60921b81525081565b6101e26103bb565b6101ea610424565b604080516370a0823160e01b815230600482015290517f0000000000000000000000000000000000000000000000000000000000000000916000916001600160a01b038416916370a08231916024808301926020929190829003018186803b15801561025557600080fd5b505afa158015610269573d6000803e3d6000fd5b505050506040513d602081101561027f57600080fd5b50516040805163a9059cbb60e01b81526001600160a01b037f0000000000000000000000000000000000000000000000000000000000000000811660048301526024820184905291519293509084169163a9059cbb916044808201926020929091908290030181600087803b1580156102f757600080fd5b505af115801561030b573d6000803e3d6000fd5b505050506040513d602081101561032157600080fd5b50506040805182815290517f7d17cbc0f78ccfed33842dd29dab2872e8347bf3981293ab2cfe35ca16371a2f9181900360200190a15050565b6000828201838110156103b4576040805162461bcd60e51b815260206004820152601b60248201527f536166654d6174683a206164646974696f6e206f766572666c6f770000000000604482015290519081900360640190fd5b9392505050565b336001600160a01b037f000000000000000000000000000000000000000000000000000000000000000016146104225760405162461bcd60e51b815260040180806020018281038252602d8152602001806104b8602d913960400191505060405180910390fd5b565b7f00000000000000000000000000000000000000000000000000000000000000004210156104225760405162461bcd60e51b81526004018080602001828103825260348152602001806104846034913960400191505060405180910390fdfe4c6f636b7570436f6e74726163743a20546865206c6f636b7570206475726174696f6e206d7573742068617665207061737365644c6f636b7570436f6e74726163743a2063616c6c6572206973206e6f74207468652062656e6566696369617279a264697066735822122054dd1ff36cb550cea1e4cf97624e9ab00440c876cea3e8f41870c067630369c964736f6c634300070600334c6f636b7570436f6e74726163743a2062656e65666963696172792063616e6e6f74206265207a65726f20616464726573734c6f636b7570436f6e74726163743a20756e6c6f636b2074696d65206d757374206265206174206c65617374206f6e6520796561722061667465722073797374656d206465706c6f796d656e74",
  "linkReferences": {},
  "deployedLinkReferences": {}
}