{
  "_format": "hh-sol-artifact-1",
  "contractName": "LPTokenWrapper",
  "sourceName": "contracts/LPRewards/Unipool.sol",
  "abi": [
    {
      "inputs": [
        {
          "internalType": "address",
          "name": "account",
          "type": "address"
        }
      ],
      "name": "balanceOf",
      "outputs": [
        {
          "internalType": "uint256",
          "name": "",
          "type": "uint256"
        }
      ],
      "stateMutability": "view",
      "type": "function"
    },
    {
      "inputs": [
        {
          "internalType": "uint256",
          "name": "amount",
          "type": "uint256"
        }
      ],
      "name": "stake",
      "outputs": [],
      "stateMutability": "nonpayable",
      "type": "function"
    },
    {
      "inputs": [],
      "name": "totalSupply",
      "outputs": [
        {
          "internalType": "uint256",
          "name": "",
          "type": "uint256"
        }
      ],
      "stateMutability": "view",
      "type": "function"
    },
    {
      "inputs": [],
      "name": "uniToken",
      "outputs": [
        {
          "internalType": "contract IERC20",
          "name": "",
          "type": "address"
        }
      ],
      "stateMutability": "view",
      "type": "function"
    },
    {
      "inputs": [
        {
          "internalType": "uint256",
          "name": "amount",
          "type": "uint256"
        }
      ],
      "name": "withdraw",
      "outputs": [],
      "stateMutability": "nonpayable",
      "type": "function"
    }
  ],
  "bytecode": "0x608060405234801561001057600080fd5b506106a2806100206000396000f3fe608060405234801561001057600080fd5b50600436106100575760003560e01c806318160ddd1461005c5780632e1a7d4d1461007657806370a082311461009557806385ce4fee146100bb578063a694fc3a146100df575b600080fd5b6100646100fc565b60408051918252519081900360200190f35b6100936004803603602081101561008c57600080fd5b5035610102565b005b610064600480360360208110156100ab57600080fd5b50356001600160a01b031661015a565b6100c3610175565b604080516001600160a01b039092168252519081900360200190f35b610093600480360360208110156100f557600080fd5b5035610184565b60015490565b60015461010f90826101da565b6001553360009081526002602052604090205461012c90826101da565b336000818152600260205260408120929092559054610157916001600160a01b039091169083610237565b50565b6001600160a01b031660009081526002602052604090205490565b6000546001600160a01b031681565b600154610191908261028e565b600155336000908152600260205260409020546101ae908261028e565b336000818152600260205260408120929092559054610157916001600160a01b039091169030846102ef565b600082821115610231576040805162461bcd60e51b815260206004820152601e60248201527f536166654d6174683a207375627472616374696f6e206f766572666c6f770000604482015290519081900360640190fd5b50900390565b604080516001600160a01b038416602482015260448082018490528251808303909101815260649091019091526020810180516001600160e01b031663a9059cbb60e01b17905261028990849061034f565b505050565b6000828201838110156102e8576040805162461bcd60e51b815260206004820152601b60248201527f536166654d6174683a206164646974696f6e206f766572666c6f770000000000604482015290519081900360640190fd5b9392505050565b604080516001600160a01b0380861660248301528416604482015260648082018490528251808303909101815260849091019091526020810180516001600160e01b03166323b872dd60e01b17905261034990859061034f565b50505050565b60006103a4826040518060400160405280602081526020017f5361666545524332303a206c6f772d6c6576656c2063616c6c206661696c6564815250856001600160a01b03166104009092919063ffffffff16565b805190915015610289578080602001905160208110156103c357600080fd5b50516102895760405162461bcd60e51b815260040180806020018281038252602a815260200180610643602a913960400191505060405180910390fd5b606061040f8484600085610417565b949350505050565b6060824710156104585760405162461bcd60e51b815260040180806020018281038252602681526020018061061d6026913960400191505060405180910390fd5b61046185610572565b6104b2576040805162461bcd60e51b815260206004820152601d60248201527f416464726573733a2063616c6c20746f206e6f6e2d636f6e7472616374000000604482015290519081900360640190fd5b600080866001600160a01b031685876040518082805190602001908083835b602083106104f05780518252601f1990920191602091820191016104d1565b6001836020036101000a03801982511681845116808217855250505050505090500191505060006040518083038185875af1925050503d8060008114610552576040519150601f19603f3d011682016040523d82523d6000602084013e610557565b606091505b5091509150610567828286610578565b979650505050505050565b3b151590565b606083156105875750816102e8565b8251156105975782518084602001fd5b8160405162461bcd60e51b81526004018080602001828103825283818151815260200191508051906020019080838360005b838110156105e15781810151838201526020016105c9565b50505050905090810190601f16801561060e5780820380516001836020036101000a031916815260200191505b509250505060405180910390fdfe416464726573733a20696e73756666696369656e742062616c616e636520666f722063616c6c5361666545524332303a204552433230206f7065726174696f6e20646964206e6f742073756363656564a2646970667358221220ca5f4932cae8e24bff0156202f3fdb857a069b23c9333c90341ebb044936195264736f6c63430007060033",
  "linkReferences": {},
  "deployedLinkReferences": {}
}