{
  "_format": "hh-sol-artifact-1",
  "contractName": "LQTYStakingTester",
  "sourceName": "contracts/TestContracts/LQTYStakingTester.sol",
  "abi": [
    {
      "anonymous": false,
      "inputs": [
        {
          "indexed": false,
          "internalType": "address",
          "name": "_activePoolAddress",
          "type": "address"
        }
      ],
      "name": "ActivePoolAddressSet",
      "type": "event"
    },
    {
      "anonymous": false,
      "inputs": [
        {
          "indexed": false,
          "internalType": "address",
          "name": "_borrowerOperationsAddress",
          "type": "address"
        }
      ],
      "name": "BorrowerOperationsAddressSet",
      "type": "event"
    },
    {
      "anonymous": false,
      "inputs": [
        {
          "indexed": false,
          "internalType": "address",
          "name": "_debtTokenAddress",
          "type": "address"
        }
      ],
      "name": "DebtTokenAddressSet",
      "type": "event"
    },
    {
      "anonymous": false,
      "inputs": [
        {
          "indexed": false,
          "internalType": "address",
          "name": "_account",
          "type": "address"
        },
        {
          "indexed": false,
          "internalType": "uint256",
          "name": "_amount",
          "type": "uint256"
        }
      ],
      "name": "EtherSent",
      "type": "event"
    },
    {
      "anonymous": false,
      "inputs": [
        {
          "indexed": false,
          "internalType": "uint256",
          "name": "_F_DebtToken",
          "type": "uint256"
        }
      ],
      "name": "F_DebtTokenUpdated",
      "type": "event"
    },
    {
      "anonymous": false,
      "inputs": [
        {
          "indexed": false,
          "internalType": "uint256",
          "name": "_F_FIL",
          "type": "uint256"
        }
      ],
      "name": "F_FILUpdated",
      "type": "event"
    },
    {
      "anonymous": false,
      "inputs": [
        {
          "indexed": false,
          "internalType": "address",
          "name": "_lqtyTokenAddress",
          "type": "address"
        }
      ],
      "name": "LQTYTokenAddressSet",
      "type": "event"
    },
    {
      "anonymous": false,
      "inputs": [
        {
          "indexed": true,
          "internalType": "address",
          "name": "previousOwner",
          "type": "address"
        },
        {
          "indexed": true,
          "internalType": "address",
          "name": "newOwner",
          "type": "address"
        }
      ],
      "name": "OwnershipTransferred",
      "type": "event"
    },
    {
      "anonymous": false,
      "inputs": [
        {
          "indexed": true,
          "internalType": "address",
          "name": "staker",
          "type": "address"
        },
        {
          "indexed": false,
          "internalType": "uint256",
          "name": "newStake",
          "type": "uint256"
        }
      ],
      "name": "StakeChanged",
      "type": "event"
    },
    {
      "anonymous": false,
      "inputs": [
        {
          "indexed": false,
          "internalType": "address",
          "name": "_staker",
          "type": "address"
        },
        {
          "indexed": false,
          "internalType": "uint256",
          "name": "_F_FIL",
          "type": "uint256"
        },
        {
          "indexed": false,
          "internalType": "uint256",
          "name": "_F_DebtToken",
          "type": "uint256"
        }
      ],
      "name": "StakerSnapshotsUpdated",
      "type": "event"
    },
    {
      "anonymous": false,
      "inputs": [
        {
          "indexed": true,
          "internalType": "address",
          "name": "staker",
          "type": "address"
        },
        {
          "indexed": false,
          "internalType": "uint256",
          "name": "debtTokenGain",
          "type": "uint256"
        },
        {
          "indexed": false,
          "internalType": "uint256",
          "name": "FILGain",
          "type": "uint256"
        }
      ],
      "name": "StakingGainsWithdrawn",
      "type": "event"
    },
    {
      "anonymous": false,
      "inputs": [
        {
          "indexed": false,
          "internalType": "uint256",
          "name": "_totalLQTYStaked",
          "type": "uint256"
        }
      ],
      "name": "TotalLQTYStakedUpdated",
      "type": "event"
    },
    {
      "anonymous": false,
      "inputs": [
        {
          "indexed": false,
          "internalType": "address",
          "name": "_troveManager",
          "type": "address"
        }
      ],
      "name": "TroveManagerAddressSet",
      "type": "event"
    },
    {
      "inputs": [],
      "name": "DECIMAL_PRECISION",
      "outputs": [
        {
          "internalType": "uint256",
          "name": "",
          "type": "uint256"
        }
      ],
      "stateMutability": "view",
      "type": "function"
    },
    {
      "inputs": [],
      "name": "F_DebtToken",
      "outputs": [
        {
          "internalType": "uint256",
          "name": "",
          "type": "uint256"
        }
      ],
      "stateMutability": "view",
      "type": "function"
    },
    {
      "inputs": [],
      "name": "F_FIL",
      "outputs": [
        {
          "internalType": "uint256",
          "name": "",
          "type": "uint256"
        }
      ],
      "stateMutability": "view",
      "type": "function"
    },
    {
      "inputs": [],
      "name": "NAME",
      "outputs": [
        {
          "internalType": "string",
          "name": "",
          "type": "string"
        }
      ],
      "stateMutability": "view",
      "type": "function"
    },
    {
      "inputs": [],
      "name": "activePoolAddress",
      "outputs": [
        {
          "internalType": "address",
          "name": "",
          "type": "address"
        }
      ],
      "stateMutability": "view",
      "type": "function"
    },
    {
      "inputs": [],
      "name": "borrowerOperationsAddress",
      "outputs": [
        {
          "internalType": "address",
          "name": "",
          "type": "address"
        }
      ],
      "stateMutability": "view",
      "type": "function"
    },
    {
      "inputs": [],
      "name": "debtToken",
      "outputs": [
        {
          "internalType": "contract IDebtToken",
          "name": "",
          "type": "address"
        }
      ],
      "stateMutability": "view",
      "type": "function"
    },
    {
      "inputs": [
        {
          "internalType": "address",
          "name": "_user",
          "type": "address"
        }
      ],
      "name": "getPendingDebtTokenGain",
      "outputs": [
        {
          "internalType": "uint256",
          "name": "",
          "type": "uint256"
        }
      ],
      "stateMutability": "view",
      "type": "function"
    },
    {
      "inputs": [
        {
          "internalType": "address",
          "name": "_user",
          "type": "address"
        }
      ],
      "name": "getPendingFILGain",
      "outputs": [
        {
          "internalType": "uint256",
          "name": "",
          "type": "uint256"
        }
      ],
      "stateMutability": "view",
      "type": "function"
    },
    {
      "inputs": [
        {
          "internalType": "uint256",
          "name": "_debtTokenFee",
          "type": "uint256"
        }
      ],
      "name": "increaseF_DebtToken",
      "outputs": [],
      "stateMutability": "nonpayable",
      "type": "function"
    },
    {
      "inputs": [
        {
          "internalType": "uint256",
          "name": "_FILFee",
          "type": "uint256"
        }
      ],
      "name": "increaseF_FIL",
      "outputs": [],
      "stateMutability": "nonpayable",
      "type": "function"
    },
    {
      "inputs": [],
      "name": "isOwner",
      "outputs": [
        {
          "internalType": "bool",
          "name": "",
          "type": "bool"
        }
      ],
      "stateMutability": "view",
      "type": "function"
    },
    {
      "inputs": [],
      "name": "lqtyToken",
      "outputs": [
        {
          "internalType": "contract ILQTYToken",
          "name": "",
          "type": "address"
        }
      ],
      "stateMutability": "view",
      "type": "function"
    },
    {
      "inputs": [],
      "name": "owner",
      "outputs": [
        {
          "internalType": "address",
          "name": "",
          "type": "address"
        }
      ],
      "stateMutability": "view",
      "type": "function"
    },
    {
      "inputs": [],
      "name": "requireCallerIsTroveManager",
      "outputs": [],
      "stateMutability": "view",
      "type": "function"
    },
    {
      "inputs": [
        {
          "internalType": "address",
          "name": "_lqtyTokenAddress",
          "type": "address"
        },
        {
          "internalType": "address",
          "name": "_debtTokenAddress",
          "type": "address"
        },
        {
          "internalType": "address",
          "name": "_troveManagerAddress",
          "type": "address"
        },
        {
          "internalType": "address",
          "name": "_borrowerOperationsAddress",
          "type": "address"
        },
        {
          "internalType": "address",
          "name": "_activePoolAddress",
          "type": "address"
        }
      ],
      "name": "setAddresses",
      "outputs": [],
      "stateMutability": "nonpayable",
      "type": "function"
    },
    {
      "inputs": [
        {
          "internalType": "address",
          "name": "",
          "type": "address"
        }
      ],
      "name": "snapshots",
      "outputs": [
        {
          "internalType": "uint256",
          "name": "F_FIL_Snapshot",
          "type": "uint256"
        },
        {
          "internalType": "uint256",
          "name": "F_DebtToken_Snapshot",
          "type": "uint256"
        }
      ],
      "stateMutability": "view",
      "type": "function"
    },
    {
      "inputs": [
        {
          "internalType": "uint256",
          "name": "_LQTYamount",
          "type": "uint256"
        }
      ],
      "name": "stake",
      "outputs": [],
      "stateMutability": "nonpayable",
      "type": "function"
    },
    {
      "inputs": [
        {
          "internalType": "address",
          "name": "",
          "type": "address"
        }
      ],
      "name": "stakes",
      "outputs": [
        {
          "internalType": "uint256",
          "name": "",
          "type": "uint256"
        }
      ],
      "stateMutability": "view",
      "type": "function"
    },
    {
      "inputs": [],
      "name": "totalLQTYStaked",
      "outputs": [
        {
          "internalType": "uint256",
          "name": "",
          "type": "uint256"
        }
      ],
      "stateMutability": "view",
      "type": "function"
    },
    {
      "inputs": [],
      "name": "troveManagerAddress",
      "outputs": [
        {
          "internalType": "address",
          "name": "",
          "type": "address"
        }
      ],
      "stateMutability": "view",
      "type": "function"
    },
    {
      "inputs": [
        {
          "internalType": "uint256",
          "name": "_LQTYamount",
          "type": "uint256"
        }
      ],
      "name": "unstake",
      "outputs": [],
      "stateMutability": "nonpayable",
      "type": "function"
    },
    {
      "stateMutability": "payable",
      "type": "receive"
    }
  ],
  "bytecode": "0x608060405234801561001057600080fd5b50600080546001600160a01b0319163390811782556040519091907f8be0079c531659141344cd1fd0a4f28419497f9722a3daafe3b4186f6b6457e0908290a36115418061005f6000396000f3fe6080604052600436106101395760003560e01c80637415fa18116100ab578063a694fc3a1161006f578063a694fc3a1461043a578063b08bc72214610464578063b1955ad214610479578063b7f8cf9b146104a3578063c91d2d38146104b8578063f8d89898146104e257610148565b80637415fa18146103485780638da5cb5b1461035d5780638f32d59b14610372578063a20baee61461039b578063a3f4df7e146103b057610148565b80632e17de78116100fd5780632e17de781461022057806334b3081f1461024a5780633b95b91d146102965780633cd27e67146102ab5780635a4d28bb146102de5780635dd68acd146102f357610148565b8063077ee4c61461014d57806316934fc41461017457806317f175dc146101a75780631a14971b146101da5780631f7af3c3146101ef57610148565b36610148576101466104f7565b005b600080fd5b34801561015957600080fd5b50610162610542565b60408051918252519081900360200190f35b34801561018057600080fd5b506101626004803603602081101561019757600080fd5b50356001600160a01b0316610548565b3480156101b357600080fd5b50610162600480360360208110156101ca57600080fd5b50356001600160a01b031661055a565b3480156101e657600080fd5b5061016261056b565b3480156101fb57600080fd5b50610204610571565b604080516001600160a01b039092168252519081900360200190f35b34801561022c57600080fd5b506101466004803603602081101561024357600080fd5b5035610580565b34801561025657600080fd5b5061027d6004803603602081101561026d57600080fd5b50356001600160a01b03166107c4565b6040805192835260208301919091528051918290030190f35b3480156102a257600080fd5b506101466107dd565b3480156102b757600080fd5b50610162600480360360208110156102ce57600080fd5b50356001600160a01b03166107e5565b3480156102ea57600080fd5b506102046107f0565b3480156102ff57600080fd5b50610146600480360360a081101561031657600080fd5b506001600160a01b038135811691602081013582169160408201358116916060810135821691608090910135166107ff565b34801561035457600080fd5b50610162610a0b565b34801561036957600080fd5b50610204610a11565b34801561037e57600080fd5b50610387610a20565b604080519115158252519081900360200190f35b3480156103a757600080fd5b50610162610a31565b3480156103bc57600080fd5b506103c5610a3d565b6040805160208082528351818301528351919283929083019185019080838360005b838110156103ff5781810151838201526020016103e7565b50505050905090810190601f16801561042c5780820380516001836020036101000a031916815260200191505b509250505060405180910390f35b34801561044657600080fd5b506101466004803603602081101561045d57600080fd5b5035610a64565b34801561047057600080fd5b50610204610c81565b34801561048557600080fd5b506101466004803603602081101561049c57600080fd5b5035610c90565b3480156104af57600080fd5b50610204610d1f565b3480156104c457600080fd5b50610146600480360360208110156104db57600080fd5b5035610d2e565b3480156104ee57600080fd5b50610204610db1565b600a546001600160a01b031633146105405760405162461bcd60e51b81526004018080602001828103825260258152602001806114976025913960400191505060405180910390fd5b565b60025481565b60016020526000908152604090205481565b600061056582610dc0565b92915050565b60045481565b6006546001600160a01b031681565b3360009081526001602052604090205461059981610e30565b60006105a433610e72565b905060006105b133610dc0565b90506105bc33610eb2565b83156106fa5760006105ce8585610f24565b905060006105e2858363ffffffff610f3c16565b33600090815260016020526040902081905560025490915061060a908363ffffffff610f3c16565b600281905560408051918252517f1fb085b6fe1998bfcd59bfb91fb9a84d3a3a8c63a97b2b5c43247235a5ca1df79181900360200190a16006546040805163a9059cbb60e01b81523360048201526024810185905290516001600160a01b039092169163a9059cbb916044808201926020929091908290030181600087803b15801561069557600080fd5b505af11580156106a9573d6000803e3d6000fd5b505050506040513d60208110156106bf57600080fd5b505060408051828152905133917f39df0e5286a3ef2f42a0bf52f32cfe2c58e5b0405f47fe512f2c2439e4cfe204919081900360200190a250505b6040805182815260208101849052815133927ff744d34ca1cb25acfa4180df5f09a67306107110a9f4b6ed99bb3be259738215928290030190a26007546040805163a9059cbb60e01b81523360048201526024810184905290516001600160a01b039092169163a9059cbb916044808201926020929091908290030181600087803b15801561078857600080fd5b505af115801561079c573d6000803e3d6000fd5b505050506040513d60208110156107b257600080fd5b506107be905082610f7e565b50505050565b6005602052600090815260409020805460019091015482565b610540611044565b600061056582610e72565b6008546001600160a01b031681565b610807610a20565b610858576040805162461bcd60e51b815260206004820181905260248201527f4f776e61626c653a2063616c6c6572206973206e6f7420746865206f776e6572604482015290519081900360640190fd5b6108618561108d565b61086a8461108d565b6108738361108d565b61087c8261108d565b6108858161108d565b600680546001600160a01b038088166001600160a01b03199283168117909355600780548883169084161790556008805487831690841617905560098054868316908416179055600a80549185169190921617905560408051918252517fb0c89119a7c10e4c2d02306921ba368ac83d0e4b302337916017485c2791bec59181900360200190a1604080516001600160a01b038616815290517f482942d8b227a1a84982f337b8b18662fde02dc7a4cce912c74090cb529f25909181900360200190a1604080516001600160a01b038516815290517f41097dcc1f7cbd663d822443d7972f05b04f71918b30fe9fc59dd6e42e2280609181900360200190a1604080516001600160a01b038416815290517f5962f8af633c4df1ab230096f773a514ee5adf7785c621ecdcdb764cb7f6e3919181900360200190a1604080516001600160a01b038316815290517f8f6a6e7d20a3233e0a79883272259ffbd7a243734e397bc2b4642c79d7fa8a6d9181900360200190a1610a0461113c565b5050505050565b60035481565b6000546001600160a01b031690565b6000546001600160a01b0316331490565b670de0b6b3a764000081565b6040518060400160405280600b81526020016a4c5154595374616b696e6760a81b81525081565b610a6d81611186565b3360009081526001602052604081205490808215610a9c57610a8e33610e72565b9150610a9933610dc0565b90505b610aa533610eb2565b6000610ab7848663ffffffff6111c516565b336000908152600160205260409020819055600254909150610adf908663ffffffff6111c516565b600281905560408051918252517f1fb085b6fe1998bfcd59bfb91fb9a84d3a3a8c63a97b2b5c43247235a5ca1df79181900360200190a16006546040805163f3a2568b60e01b81523360048201526024810188905290516001600160a01b039092169163f3a2568b9160448082019260009290919082900301818387803b158015610b6957600080fd5b505af1158015610b7d573d6000803e3d6000fd5b50506040805184815290513393507f39df0e5286a3ef2f42a0bf52f32cfe2c58e5b0405f47fe512f2c2439e4cfe20492509081900360200190a26040805183815260208101859052815133927ff744d34ca1cb25acfa4180df5f09a67306107110a9f4b6ed99bb3be259738215928290030190a28315610a04576007546040805163a9059cbb60e01b81523360048201526024810185905290516001600160a01b039092169163a9059cbb916044808201926020929091908290030181600087803b158015610c4b57600080fd5b505af1158015610c5f573d6000803e3d6000fd5b505050506040513d6020811015610c7557600080fd5b50610a04905083610f7e565b600a546001600160a01b031681565b610c9861121f565b60025460009015610cd157600254610cce90610cc284670de0b6b3a764000063ffffffff61126816565b9063ffffffff6112c116565b90505b600454610ce4908263ffffffff6111c516565b600481905560408051918252517fd35d18f1d1506f94dd33c043c612cce724e9e52b5924bdf2b19d62ddfe26513b9181900360200190a15050565b6009546001600160a01b031681565b610d36611044565b60025460009015610d6357600254610d6090610cc284670de0b6b3a764000063ffffffff61126816565b90505b600354610d76908263ffffffff6111c516565b600381905560408051918252517febf7d091f46f1a9713f83361f4b7bdfc07a53d3e0b8582025f6318db750e8b9f9181900360200190a15050565b6007546001600160a01b031681565b6001600160a01b0381166000908152600560205260408120600101546004548290610e2890670de0b6b3a764000090610cc290610e03908663ffffffff610f3c16565b6001600160a01b0388166000908152600160205260409020549063ffffffff61126816565b949350505050565b60008111610e6f5760405162461bcd60e51b815260040180806020018281038252602c815260200180611424602c913960400191505060405180910390fd5b50565b6001600160a01b0381166000908152600560205260408120546003548290610e2890670de0b6b3a764000090610cc290610e03908663ffffffff610f3c16565b600380546001600160a01b038316600081815260056020908152604091829020938455600454600190940184905593548151928352938201939093528083019190915290517f6b5cf27595af4428271524e0a5abd2b63f6fee1a61e31970490f5a10e257a1cd9181900360600190a150565b6000818310610f335781610f35565b825b9392505050565b6000610f3583836040518060400160405280601e81526020017f536166654d6174683a207375627472616374696f6e206f766572666c6f770000815250611303565b604080513381526020810183905281517f6109e2559dfa766aaec7118351d48a523f0a4157f49c8d68749c8ac41318ad12929181900390910190a1604051600090339083908381818185875af1925050503d8060008114610ffb576040519150601f19603f3d011682016040523d82523d6000602084013e611000565b606091505b50509050806110405760405162461bcd60e51b815260040180806020018281038252602f8152602001806114dd602f913960400191505060405180910390fd5b5050565b6008546001600160a01b031633146105405760405162461bcd60e51b81526004018080602001828103825260218152602001806114bc6021913960400191505060405180910390fd5b6001600160a01b0381166110e8576040805162461bcd60e51b815260206004820152601e60248201527f4163636f756e742063616e6e6f74206265207a65726f20616464726573730000604482015290519081900360640190fd5b803b80611040576040805162461bcd60e51b815260206004820181905260248201527f4163636f756e7420636f64652073697a652063616e6e6f74206265207a65726f604482015290519081900360640190fd5b600080546040516001600160a01b03909116907f8be0079c531659141344cd1fd0a4f28419497f9722a3daafe3b4186f6b6457e0908390a3600080546001600160a01b0319169055565b60008111610e6f5760405162461bcd60e51b81526004018080602001828103825260248152602001806114006024913960400191505060405180910390fd5b600082820183811015610f35576040805162461bcd60e51b815260206004820152601b60248201527f536166654d6174683a206164646974696f6e206f766572666c6f770000000000604482015290519081900360640190fd5b6009546001600160a01b031633146105405760405162461bcd60e51b81526004018080602001828103825260268152602001806114506026913960400191505060405180910390fd5b60008261127757506000610565565b8282028284828161128457fe5b0414610f355760405162461bcd60e51b81526004018080602001828103825260218152602001806114766021913960400191505060405180910390fd5b6000610f3583836040518060400160405280601a81526020017f536166654d6174683a206469766973696f6e206279207a65726f00000000000081525061139a565b600081848411156113925760405162461bcd60e51b81526004018080602001828103825283818151815260200191508051906020019080838360005b8381101561135757818101518382015260200161133f565b50505050905090810190601f1680156113845780820380516001836020036101000a031916815260200191505b509250505060405180910390fd5b505050900390565b600081836113e95760405162461bcd60e51b815260206004820181815283516024840152835190928392604490910191908501908083836000831561135757818101518382015260200161133f565b5060008385816113f557fe5b049594505050505056fe4c5154595374616b696e673a20416d6f756e74206d757374206265206e6f6e2d7a65726f4c5154595374616b696e673a2055736572206d75737420686176652061206e6f6e2d7a65726f207374616b654c5154595374616b696e673a2063616c6c6572206973206e6f7420426f72726f7765724f7073536166654d6174683a206d756c7469706c69636174696f6e206f766572666c6f774c5154595374616b696e673a2063616c6c6572206973206e6f7420416374697665506f6f6c4c5154595374616b696e673a2063616c6c6572206973206e6f742054726f76654d4c5154595374616b696e673a204661696c656420746f2073656e6420616363756d756c617465642046494c4761696ea2646970667358221220ed622f128e59ea6bea5e5e44d2bdd7e71117c746e1ea403ec2073be0b5ec11d164736f6c634300060b0033",
  "linkReferences": {},
  "deployedLinkReferences": {}
}