{
  "_format": "hh-sol-artifact-1",
  "contractName": "LQTYStaking",
  "sourceName": "contracts/LQTY/LQTYStaking.sol",
  "abi": [
    {
      "anonymous": false,
      "inputs": [
        {
          "indexed": false,
          "internalType": "address",
          "name": "_activePoolAddress",
          "type": "address"
        }
      ],
      "name": "ActivePoolAddressSet",
      "type": "event"
    },
    {
      "anonymous": false,
      "inputs": [
        {
          "indexed": false,
          "internalType": "address",
          "name": "_borrowerOperationsAddress",
          "type": "address"
        }
      ],
      "name": "BorrowerOperationsAddressSet",
      "type": "event"
    },
    {
      "anonymous": false,
      "inputs": [
        {
          "indexed": false,
          "internalType": "address",
          "name": "_debtTokenAddress",
          "type": "address"
        }
      ],
      "name": "DebtTokenAddressSet",
      "type": "event"
    },
    {
      "anonymous": false,
      "inputs": [
        {
          "indexed": false,
          "internalType": "address",
          "name": "_account",
          "type": "address"
        },
        {
          "indexed": false,
          "internalType": "uint256",
          "name": "_amount",
          "type": "uint256"
        }
      ],
      "name": "EtherSent",
      "type": "event"
    },
    {
      "anonymous": false,
      "inputs": [
        {
          "indexed": false,
          "internalType": "uint256",
          "name": "_F_DebtToken",
          "type": "uint256"
        }
      ],
      "name": "F_DebtTokenUpdated",
      "type": "event"
    },
    {
      "anonymous": false,
      "inputs": [
        {
          "indexed": false,
          "internalType": "uint256",
          "name": "_F_FIL",
          "type": "uint256"
        }
      ],
      "name": "F_FILUpdated",
      "type": "event"
    },
    {
      "anonymous": false,
      "inputs": [
        {
          "indexed": false,
          "internalType": "address",
          "name": "_lqtyTokenAddress",
          "type": "address"
        }
      ],
      "name": "LQTYTokenAddressSet",
      "type": "event"
    },
    {
      "anonymous": false,
      "inputs": [
        {
          "indexed": true,
          "internalType": "address",
          "name": "previousOwner",
          "type": "address"
        },
        {
          "indexed": true,
          "internalType": "address",
          "name": "newOwner",
          "type": "address"
        }
      ],
      "name": "OwnershipTransferred",
      "type": "event"
    },
    {
      "anonymous": false,
      "inputs": [
        {
          "indexed": true,
          "internalType": "address",
          "name": "staker",
          "type": "address"
        },
        {
          "indexed": false,
          "internalType": "uint256",
          "name": "newStake",
          "type": "uint256"
        }
      ],
      "name": "StakeChanged",
      "type": "event"
    },
    {
      "anonymous": false,
      "inputs": [
        {
          "indexed": false,
          "internalType": "address",
          "name": "_staker",
          "type": "address"
        },
        {
          "indexed": false,
          "internalType": "uint256",
          "name": "_F_FIL",
          "type": "uint256"
        },
        {
          "indexed": false,
          "internalType": "uint256",
          "name": "_F_DebtToken",
          "type": "uint256"
        }
      ],
      "name": "StakerSnapshotsUpdated",
      "type": "event"
    },
    {
      "anonymous": false,
      "inputs": [
        {
          "indexed": true,
          "internalType": "address",
          "name": "staker",
          "type": "address"
        },
        {
          "indexed": false,
          "internalType": "uint256",
          "name": "debtTokenGain",
          "type": "uint256"
        },
        {
          "indexed": false,
          "internalType": "uint256",
          "name": "FILGain",
          "type": "uint256"
        }
      ],
      "name": "StakingGainsWithdrawn",
      "type": "event"
    },
    {
      "anonymous": false,
      "inputs": [
        {
          "indexed": false,
          "internalType": "uint256",
          "name": "_totalLQTYStaked",
          "type": "uint256"
        }
      ],
      "name": "TotalLQTYStakedUpdated",
      "type": "event"
    },
    {
      "anonymous": false,
      "inputs": [
        {
          "indexed": false,
          "internalType": "address",
          "name": "_troveManager",
          "type": "address"
        }
      ],
      "name": "TroveManagerAddressSet",
      "type": "event"
    },
    {
      "inputs": [],
      "name": "DECIMAL_PRECISION",
      "outputs": [
        {
          "internalType": "uint256",
          "name": "",
          "type": "uint256"
        }
      ],
      "stateMutability": "view",
      "type": "function"
    },
    {
      "inputs": [],
      "name": "F_DebtToken",
      "outputs": [
        {
          "internalType": "uint256",
          "name": "",
          "type": "uint256"
        }
      ],
      "stateMutability": "view",
      "type": "function"
    },
    {
      "inputs": [],
      "name": "F_FIL",
      "outputs": [
        {
          "internalType": "uint256",
          "name": "",
          "type": "uint256"
        }
      ],
      "stateMutability": "view",
      "type": "function"
    },
    {
      "inputs": [],
      "name": "NAME",
      "outputs": [
        {
          "internalType": "string",
          "name": "",
          "type": "string"
        }
      ],
      "stateMutability": "view",
      "type": "function"
    },
    {
      "inputs": [],
      "name": "activePoolAddress",
      "outputs": [
        {
          "internalType": "address",
          "name": "",
          "type": "address"
        }
      ],
      "stateMutability": "view",
      "type": "function"
    },
    {
      "inputs": [],
      "name": "borrowerOperationsAddress",
      "outputs": [
        {
          "internalType": "address",
          "name": "",
          "type": "address"
        }
      ],
      "stateMutability": "view",
      "type": "function"
    },
    {
      "inputs": [],
      "name": "debtToken",
      "outputs": [
        {
          "internalType": "contract IDebtToken",
          "name": "",
          "type": "address"
        }
      ],
      "stateMutability": "view",
      "type": "function"
    },
    {
      "inputs": [
        {
          "internalType": "address",
          "name": "_user",
          "type": "address"
        }
      ],
      "name": "getPendingDebtTokenGain",
      "outputs": [
        {
          "internalType": "uint256",
          "name": "",
          "type": "uint256"
        }
      ],
      "stateMutability": "view",
      "type": "function"
    },
    {
      "inputs": [
        {
          "internalType": "address",
          "name": "_user",
          "type": "address"
        }
      ],
      "name": "getPendingFILGain",
      "outputs": [
        {
          "internalType": "uint256",
          "name": "",
          "type": "uint256"
        }
      ],
      "stateMutability": "view",
      "type": "function"
    },
    {
      "inputs": [
        {
          "internalType": "uint256",
          "name": "_debtTokenFee",
          "type": "uint256"
        }
      ],
      "name": "increaseF_DebtToken",
      "outputs": [],
      "stateMutability": "nonpayable",
      "type": "function"
    },
    {
      "inputs": [
        {
          "internalType": "uint256",
          "name": "_FILFee",
          "type": "uint256"
        }
      ],
      "name": "increaseF_FIL",
      "outputs": [],
      "stateMutability": "nonpayable",
      "type": "function"
    },
    {
      "inputs": [],
      "name": "isOwner",
      "outputs": [
        {
          "internalType": "bool",
          "name": "",
          "type": "bool"
        }
      ],
      "stateMutability": "view",
      "type": "function"
    },
    {
      "inputs": [],
      "name": "lqtyToken",
      "outputs": [
        {
          "internalType": "contract ILQTYToken",
          "name": "",
          "type": "address"
        }
      ],
      "stateMutability": "view",
      "type": "function"
    },
    {
      "inputs": [],
      "name": "owner",
      "outputs": [
        {
          "internalType": "address",
          "name": "",
          "type": "address"
        }
      ],
      "stateMutability": "view",
      "type": "function"
    },
    {
      "inputs": [
        {
          "internalType": "address",
          "name": "_lqtyTokenAddress",
          "type": "address"
        },
        {
          "internalType": "address",
          "name": "_debtTokenAddress",
          "type": "address"
        },
        {
          "internalType": "address",
          "name": "_troveManagerAddress",
          "type": "address"
        },
        {
          "internalType": "address",
          "name": "_borrowerOperationsAddress",
          "type": "address"
        },
        {
          "internalType": "address",
          "name": "_activePoolAddress",
          "type": "address"
        }
      ],
      "name": "setAddresses",
      "outputs": [],
      "stateMutability": "nonpayable",
      "type": "function"
    },
    {
      "inputs": [
        {
          "internalType": "address",
          "name": "",
          "type": "address"
        }
      ],
      "name": "snapshots",
      "outputs": [
        {
          "internalType": "uint256",
          "name": "F_FIL_Snapshot",
          "type": "uint256"
        },
        {
          "internalType": "uint256",
          "name": "F_DebtToken_Snapshot",
          "type": "uint256"
        }
      ],
      "stateMutability": "view",
      "type": "function"
    },
    {
      "inputs": [
        {
          "internalType": "uint256",
          "name": "_LQTYamount",
          "type": "uint256"
        }
      ],
      "name": "stake",
      "outputs": [],
      "stateMutability": "nonpayable",
      "type": "function"
    },
    {
      "inputs": [
        {
          "internalType": "address",
          "name": "",
          "type": "address"
        }
      ],
      "name": "stakes",
      "outputs": [
        {
          "internalType": "uint256",
          "name": "",
          "type": "uint256"
        }
      ],
      "stateMutability": "view",
      "type": "function"
    },
    {
      "inputs": [],
      "name": "totalLQTYStaked",
      "outputs": [
        {
          "internalType": "uint256",
          "name": "",
          "type": "uint256"
        }
      ],
      "stateMutability": "view",
      "type": "function"
    },
    {
      "inputs": [],
      "name": "troveManagerAddress",
      "outputs": [
        {
          "internalType": "address",
          "name": "",
          "type": "address"
        }
      ],
      "stateMutability": "view",
      "type": "function"
    },
    {
      "inputs": [
        {
          "internalType": "uint256",
          "name": "_LQTYamount",
          "type": "uint256"
        }
      ],
      "name": "unstake",
      "outputs": [],
      "stateMutability": "nonpayable",
      "type": "function"
    },
    {
      "stateMutability": "payable",
      "type": "receive"
    }
  ],
  "bytecode": "0x608060405234801561001057600080fd5b50600080546001600160a01b0319163390811782556040519091907f8be0079c531659141344cd1fd0a4f28419497f9722a3daafe3b4186f6b6457e0908290a36115198061005f6000396000f3fe60806040526004361061012e5760003560e01c80637415fa18116100ab578063a694fc3a1161006f578063a694fc3a1461041a578063b08bc72214610444578063b1955ad214610459578063b7f8cf9b14610483578063c91d2d3814610498578063f8d89898146104c25761013d565b80637415fa18146103285780638da5cb5b1461033d5780638f32d59b14610352578063a20baee61461037b578063a3f4df7e146103905761013d565b80632e17de78116100f25780632e17de781461021557806334b3081f1461023f5780633cd27e671461028b5780635a4d28bb146102be5780635dd68acd146102d35761013d565b8063077ee4c61461014257806316934fc41461016957806317f175dc1461019c5780631a14971b146101cf5780631f7af3c3146101e45761013d565b3661013d5761013b6104d7565b005b600080fd5b34801561014e57600080fd5b50610157610522565b60408051918252519081900360200190f35b34801561017557600080fd5b506101576004803603602081101561018c57600080fd5b50356001600160a01b0316610528565b3480156101a857600080fd5b50610157600480360360208110156101bf57600080fd5b50356001600160a01b031661053a565b3480156101db57600080fd5b5061015761054b565b3480156101f057600080fd5b506101f9610551565b604080516001600160a01b039092168252519081900360200190f35b34801561022157600080fd5b5061013b6004803603602081101561023857600080fd5b5035610560565b34801561024b57600080fd5b506102726004803603602081101561026257600080fd5b50356001600160a01b03166107a4565b6040805192835260208301919091528051918290030190f35b34801561029757600080fd5b50610157600480360360208110156102ae57600080fd5b50356001600160a01b03166107bd565b3480156102ca57600080fd5b506101f96107c8565b3480156102df57600080fd5b5061013b600480360360a08110156102f657600080fd5b506001600160a01b038135811691602081013582169160408201358116916060810135821691608090910135166107d7565b34801561033457600080fd5b506101576109e3565b34801561034957600080fd5b506101f96109e9565b34801561035e57600080fd5b506103676109f8565b604080519115158252519081900360200190f35b34801561038757600080fd5b50610157610a09565b34801561039c57600080fd5b506103a5610a15565b6040805160208082528351818301528351919283929083019185019080838360005b838110156103df5781810151838201526020016103c7565b50505050905090810190601f16801561040c5780820380516001836020036101000a031916815260200191505b509250505060405180910390f35b34801561042657600080fd5b5061013b6004803603602081101561043d57600080fd5b5035610a3c565b34801561045057600080fd5b506101f9610c59565b34801561046557600080fd5b5061013b6004803603602081101561047c57600080fd5b5035610c68565b34801561048f57600080fd5b506101f9610cf7565b3480156104a457600080fd5b5061013b600480360360208110156104bb57600080fd5b5035610d06565b3480156104ce57600080fd5b506101f9610d89565b600a546001600160a01b031633146105205760405162461bcd60e51b815260040180806020018281038252602581526020018061146f6025913960400191505060405180910390fd5b565b60025481565b60016020526000908152604090205481565b600061054582610d98565b92915050565b60045481565b6006546001600160a01b031681565b3360009081526001602052604090205461057981610e08565b600061058433610e4a565b9050600061059133610d98565b905061059c33610e8a565b83156106da5760006105ae8585610efc565b905060006105c2858363ffffffff610f1416565b3360009081526001602052604090208190556002549091506105ea908363ffffffff610f1416565b600281905560408051918252517f1fb085b6fe1998bfcd59bfb91fb9a84d3a3a8c63a97b2b5c43247235a5ca1df79181900360200190a16006546040805163a9059cbb60e01b81523360048201526024810185905290516001600160a01b039092169163a9059cbb916044808201926020929091908290030181600087803b15801561067557600080fd5b505af1158015610689573d6000803e3d6000fd5b505050506040513d602081101561069f57600080fd5b505060408051828152905133917f39df0e5286a3ef2f42a0bf52f32cfe2c58e5b0405f47fe512f2c2439e4cfe204919081900360200190a250505b6040805182815260208101849052815133927ff744d34ca1cb25acfa4180df5f09a67306107110a9f4b6ed99bb3be259738215928290030190a26007546040805163a9059cbb60e01b81523360048201526024810184905290516001600160a01b039092169163a9059cbb916044808201926020929091908290030181600087803b15801561076857600080fd5b505af115801561077c573d6000803e3d6000fd5b505050506040513d602081101561079257600080fd5b5061079e905082610f56565b50505050565b6005602052600090815260409020805460019091015482565b600061054582610e4a565b6008546001600160a01b031681565b6107df6109f8565b610830576040805162461bcd60e51b815260206004820181905260248201527f4f776e61626c653a2063616c6c6572206973206e6f7420746865206f776e6572604482015290519081900360640190fd5b6108398561101c565b6108428461101c565b61084b8361101c565b6108548261101c565b61085d8161101c565b600680546001600160a01b038088166001600160a01b03199283168117909355600780548883169084161790556008805487831690841617905560098054868316908416179055600a80549185169190921617905560408051918252517fb0c89119a7c10e4c2d02306921ba368ac83d0e4b302337916017485c2791bec59181900360200190a1604080516001600160a01b038616815290517f482942d8b227a1a84982f337b8b18662fde02dc7a4cce912c74090cb529f25909181900360200190a1604080516001600160a01b038516815290517f41097dcc1f7cbd663d822443d7972f05b04f71918b30fe9fc59dd6e42e2280609181900360200190a1604080516001600160a01b038416815290517f5962f8af633c4df1ab230096f773a514ee5adf7785c621ecdcdb764cb7f6e3919181900360200190a1604080516001600160a01b038316815290517f8f6a6e7d20a3233e0a79883272259ffbd7a243734e397bc2b4642c79d7fa8a6d9181900360200190a16109dc6110cb565b5050505050565b60035481565b6000546001600160a01b031690565b6000546001600160a01b0316331490565b670de0b6b3a764000081565b6040518060400160405280600b81526020016a4c5154595374616b696e6760a81b81525081565b610a4581611115565b3360009081526001602052604081205490808215610a7457610a6633610e4a565b9150610a7133610d98565b90505b610a7d33610e8a565b6000610a8f848663ffffffff61115416565b336000908152600160205260409020819055600254909150610ab7908663ffffffff61115416565b600281905560408051918252517f1fb085b6fe1998bfcd59bfb91fb9a84d3a3a8c63a97b2b5c43247235a5ca1df79181900360200190a16006546040805163f3a2568b60e01b81523360048201526024810188905290516001600160a01b039092169163f3a2568b9160448082019260009290919082900301818387803b158015610b4157600080fd5b505af1158015610b55573d6000803e3d6000fd5b50506040805184815290513393507f39df0e5286a3ef2f42a0bf52f32cfe2c58e5b0405f47fe512f2c2439e4cfe20492509081900360200190a26040805183815260208101859052815133927ff744d34ca1cb25acfa4180df5f09a67306107110a9f4b6ed99bb3be259738215928290030190a283156109dc576007546040805163a9059cbb60e01b81523360048201526024810185905290516001600160a01b039092169163a9059cbb916044808201926020929091908290030181600087803b158015610c2357600080fd5b505af1158015610c37573d6000803e3d6000fd5b505050506040513d6020811015610c4d57600080fd5b506109dc905083610f56565b600a546001600160a01b031681565b610c706111ae565b60025460009015610ca957600254610ca690610c9a84670de0b6b3a764000063ffffffff6111f716565b9063ffffffff61125016565b90505b600454610cbc908263ffffffff61115416565b600481905560408051918252517fd35d18f1d1506f94dd33c043c612cce724e9e52b5924bdf2b19d62ddfe26513b9181900360200190a15050565b6009546001600160a01b031681565b610d0e611292565b60025460009015610d3b57600254610d3890610c9a84670de0b6b3a764000063ffffffff6111f716565b90505b600354610d4e908263ffffffff61115416565b600381905560408051918252517febf7d091f46f1a9713f83361f4b7bdfc07a53d3e0b8582025f6318db750e8b9f9181900360200190a15050565b6007546001600160a01b031681565b6001600160a01b0381166000908152600560205260408120600101546004548290610e0090670de0b6b3a764000090610c9a90610ddb908663ffffffff610f1416565b6001600160a01b0388166000908152600160205260409020549063ffffffff6111f716565b949350505050565b60008111610e475760405162461bcd60e51b815260040180806020018281038252602c8152602001806113fc602c913960400191505060405180910390fd5b50565b6001600160a01b0381166000908152600560205260408120546003548290610e0090670de0b6b3a764000090610c9a90610ddb908663ffffffff610f1416565b600380546001600160a01b038316600081815260056020908152604091829020938455600454600190940184905593548151928352938201939093528083019190915290517f6b5cf27595af4428271524e0a5abd2b63f6fee1a61e31970490f5a10e257a1cd9181900360600190a150565b6000818310610f0b5781610f0d565b825b9392505050565b6000610f0d83836040518060400160405280601e81526020017f536166654d6174683a207375627472616374696f6e206f766572666c6f7700008152506112db565b604080513381526020810183905281517f6109e2559dfa766aaec7118351d48a523f0a4157f49c8d68749c8ac41318ad12929181900390910190a1604051600090339083908381818185875af1925050503d8060008114610fd3576040519150601f19603f3d011682016040523d82523d6000602084013e610fd8565b606091505b50509050806110185760405162461bcd60e51b815260040180806020018281038252602f8152602001806114b5602f913960400191505060405180910390fd5b5050565b6001600160a01b038116611077576040805162461bcd60e51b815260206004820152601e60248201527f4163636f756e742063616e6e6f74206265207a65726f20616464726573730000604482015290519081900360640190fd5b803b80611018576040805162461bcd60e51b815260206004820181905260248201527f4163636f756e7420636f64652073697a652063616e6e6f74206265207a65726f604482015290519081900360640190fd5b600080546040516001600160a01b03909116907f8be0079c531659141344cd1fd0a4f28419497f9722a3daafe3b4186f6b6457e0908390a3600080546001600160a01b0319169055565b60008111610e475760405162461bcd60e51b81526004018080602001828103825260248152602001806113d86024913960400191505060405180910390fd5b600082820183811015610f0d576040805162461bcd60e51b815260206004820152601b60248201527f536166654d6174683a206164646974696f6e206f766572666c6f770000000000604482015290519081900360640190fd5b6009546001600160a01b031633146105205760405162461bcd60e51b81526004018080602001828103825260268152602001806114286026913960400191505060405180910390fd5b60008261120657506000610545565b8282028284828161121357fe5b0414610f0d5760405162461bcd60e51b815260040180806020018281038252602181526020018061144e6021913960400191505060405180910390fd5b6000610f0d83836040518060400160405280601a81526020017f536166654d6174683a206469766973696f6e206279207a65726f000000000000815250611372565b6008546001600160a01b031633146105205760405162461bcd60e51b81526004018080602001828103825260218152602001806114946021913960400191505060405180910390fd5b6000818484111561136a5760405162461bcd60e51b81526004018080602001828103825283818151815260200191508051906020019080838360005b8381101561132f578181015183820152602001611317565b50505050905090810190601f16801561135c5780820380516001836020036101000a031916815260200191505b509250505060405180910390fd5b505050900390565b600081836113c15760405162461bcd60e51b815260206004820181815283516024840152835190928392604490910191908501908083836000831561132f578181015183820152602001611317565b5060008385816113cd57fe5b049594505050505056fe4c5154595374616b696e673a20416d6f756e74206d757374206265206e6f6e2d7a65726f4c5154595374616b696e673a2055736572206d75737420686176652061206e6f6e2d7a65726f207374616b654c5154595374616b696e673a2063616c6c6572206973206e6f7420426f72726f7765724f7073536166654d6174683a206d756c7469706c69636174696f6e206f766572666c6f774c5154595374616b696e673a2063616c6c6572206973206e6f7420416374697665506f6f6c4c5154595374616b696e673a2063616c6c6572206973206e6f742054726f76654d4c5154595374616b696e673a204661696c656420746f2073656e6420616363756d756c617465642046494c4761696ea26469706673582212203579f7ca5394264b1ea93d6a99e81d8af718c014e2c6737581c13eb21ef5da2d64736f6c634300060b0033",
  "linkReferences": {},
  "deployedLinkReferences": {}
}