{
  "_format": "hh-sol-artifact-1",
  "contractName": "MockPriceFeed",
  "sourceName": "contracts/TestContracts/MockPriceFeed.sol",
  "abi": [
    {
      "anonymous": false,
      "inputs": [
        {
          "indexed": false,
          "internalType": "uint256",
          "name": "_lastGoodPrice",
          "type": "uint256"
        }
      ],
      "name": "LastGoodPriceUpdated",
      "type": "event"
    },
    {
      "anonymous": false,
      "inputs": [
        {
          "indexed": true,
          "internalType": "address",
          "name": "previousOwner",
          "type": "address"
        },
        {
          "indexed": true,
          "internalType": "address",
          "name": "newOwner",
          "type": "address"
        }
      ],
      "name": "OwnershipTransferred",
      "type": "event"
    },
    {
      "anonymous": false,
      "inputs": [
        {
          "indexed": false,
          "internalType": "enum IPriceFeed.Status",
          "name": "newStatus",
          "type": "uint8"
        }
      ],
      "name": "PriceFeedStatusChanged",
      "type": "event"
    },
    {
      "inputs": [],
      "name": "DECIMAL_PRECISION",
      "outputs": [
        {
          "internalType": "uint256",
          "name": "",
          "type": "uint256"
        }
      ],
      "stateMutability": "view",
      "type": "function"
    },
    {
      "inputs": [],
      "name": "MAX_PRICE_DEVIATION_FROM_PREVIOUS_ROUND",
      "outputs": [
        {
          "internalType": "uint256",
          "name": "",
          "type": "uint256"
        }
      ],
      "stateMutability": "view",
      "type": "function"
    },
    {
      "inputs": [],
      "name": "MAX_PRICE_DIFFERENCE_BETWEEN_ORACLES",
      "outputs": [
        {
          "internalType": "uint256",
          "name": "",
          "type": "uint256"
        }
      ],
      "stateMutability": "view",
      "type": "function"
    },
    {
      "inputs": [],
      "name": "NAME",
      "outputs": [
        {
          "internalType": "string",
          "name": "",
          "type": "string"
        }
      ],
      "stateMutability": "view",
      "type": "function"
    },
    {
      "inputs": [],
      "name": "TARGET_DIGITS",
      "outputs": [
        {
          "internalType": "uint256",
          "name": "",
          "type": "uint256"
        }
      ],
      "stateMutability": "view",
      "type": "function"
    },
    {
      "inputs": [],
      "name": "TELLOR_DIGITS",
      "outputs": [
        {
          "internalType": "uint256",
          "name": "",
          "type": "uint256"
        }
      ],
      "stateMutability": "view",
      "type": "function"
    },
    {
      "inputs": [],
      "name": "TIMEOUT",
      "outputs": [
        {
          "internalType": "uint256",
          "name": "",
          "type": "uint256"
        }
      ],
      "stateMutability": "view",
      "type": "function"
    },
    {
      "inputs": [],
      "name": "fetchPrice",
      "outputs": [
        {
          "internalType": "uint256",
          "name": "price",
          "type": "uint256"
        }
      ],
      "stateMutability": "nonpayable",
      "type": "function"
    },
    {
      "inputs": [
        {
          "internalType": "address",
          "name": "_priceAggregatorAddress",
          "type": "address"
        },
        {
          "internalType": "address",
          "name": "_tellorCallerAddress",
          "type": "address"
        }
      ],
      "name": "initialize",
      "outputs": [],
      "stateMutability": "nonpayable",
      "type": "function"
    },
    {
      "inputs": [],
      "name": "lastGoodPrice",
      "outputs": [
        {
          "internalType": "uint256",
          "name": "",
          "type": "uint256"
        }
      ],
      "stateMutability": "view",
      "type": "function"
    },
    {
      "inputs": [],
      "name": "owner",
      "outputs": [
        {
          "internalType": "address",
          "name": "",
          "type": "address"
        }
      ],
      "stateMutability": "view",
      "type": "function"
    },
    {
      "inputs": [],
      "name": "priceAggregator",
      "outputs": [
        {
          "internalType": "contract AggregatorV3Interface",
          "name": "",
          "type": "address"
        }
      ],
      "stateMutability": "view",
      "type": "function"
    },
    {
      "inputs": [],
      "name": "renounceOwnership",
      "outputs": [],
      "stateMutability": "nonpayable",
      "type": "function"
    },
    {
      "inputs": [
        {
          "internalType": "int256",
          "name": "_price",
          "type": "int256"
        }
      ],
      "name": "setPrice",
      "outputs": [],
      "stateMutability": "nonpayable",
      "type": "function"
    },
    {
      "inputs": [
        {
          "internalType": "address",
          "name": "_aggregator",
          "type": "address"
        },
        {
          "internalType": "int256",
          "name": "_price",
          "type": "int256"
        }
      ],
      "name": "setPriceAggregator",
      "outputs": [],
      "stateMutability": "nonpayable",
      "type": "function"
    },
    {
      "inputs": [],
      "name": "status",
      "outputs": [
        {
          "internalType": "enum IPriceFeed.Status",
          "name": "",
          "type": "uint8"
        }
      ],
      "stateMutability": "view",
      "type": "function"
    },
    {
      "inputs": [],
      "name": "tellorCaller",
      "outputs": [
        {
          "internalType": "contract ITellorCaller",
          "name": "",
          "type": "address"
        }
      ],
      "stateMutability": "view",
      "type": "function"
    },
    {
      "inputs": [
        {
          "internalType": "address",
          "name": "newOwner",
          "type": "address"
        }
      ],
      "name": "transferOwnership",
      "outputs": [],
      "stateMutability": "nonpayable",
      "type": "function"
    }
  ],
  "bytecode": "0x608060405234801561001057600080fd5b5061144f806100206000396000f3fe608060405234801561001057600080fd5b50600436106100f65760003560e01c80637c61e3bf116100925780637c61e3bf146101ba5780638da5cb5b146101c2578063a20baee6146101ca578063a3f4df7e146101d2578063cda647db1461024f578063ebf8e6c61461011d578063f2fde38b1461027b578063f56f48f2146102a1578063f7a30806146102a9576100f6565b80630490be83146100fb5780630fdb11cf146101155780631be5c92f1461011d578063200d2ed2146101255780633078fff51461014e57806345079cb414610172578063485cc9551461017a57806358a6aa88146101aa578063715018a6146101b2575b600080fd5b6101036102c6565b60408051918252519081900360200190f35b6101036102cc565b61010361056f565b61012d610574565b6040518082600481111561013d57fe5b815260200191505060405180910390f35b61015661057d565b604080516001600160a01b039092168252519081900360200190f35b61010361058c565b6101a86004803603604081101561019057600080fd5b506001600160a01b0381358116916020013516610597565b005b61010361064d565b6101a8610659565b6101566106f3565b610156610702565b610103610711565b6101da61071d565b6040805160208082528351818301528351919283929083019185019080838360005b838110156102145781810151838201526020016101fc565b50505050905090810190601f1680156102415780820380516001836020036101000a031916815260200191505b509250505060405180910390f35b6101a86004803603604081101561026557600080fd5b506001600160a01b038135169060200135610742565b6101a86004803603602081101561029157600080fd5b50356001600160a01b03166107cc565b6101036108bd565b6101a8600480360360208110156102bf57600080fd5b50356108c3565b60695481565b6000806102d76109ee565b905060006102e3610b3b565b90506000606a5460ff1660048111156102f857fe5b14156103cf5761030782610be9565b156103645761031581610c54565b15610330576103246002610c99565b6069549250505061056c565b61033981610cfc565b15610348576103246001610c99565b6103526001610c99565b61035b81610d1f565b9250505061056c565b61036d82610cfc565b156103ae5761037b81610c54565b1561038a576103246004610c99565b6103946003610c99565b61039d81610cfc565b15610352576069549250505061056c565b6103b781610c54565b156103c6576103c66004610c99565b61035b82610d40565b6001606a5460ff1660048111156103e257fe5b1415610419576103f28282610d58565b15610401576103c66000610c99565b61040a81610c54565b15610394576103246002610c99565b6002606a5460ff16600481111561042c57fe5b141561044b5761043c8282610d58565b15610324576103c66000610c99565b6003606a5460ff16600481111561045e57fe5b14156105055761046d82610be9565b156104945761047b81610c54565b1561048a576103246002610c99565b6103946001610c99565b61049d82610cfc565b156104ba576104ab81610c54565b15610394576103246004610c99565b6104c381610c54565b156104d2576103c66004610c99565b6104db81610cfc565b156104ec576069549250505061056c565b6104f68282610d9f565b15610348576103c66000610c99565b6004606a5460ff16600481111561051857fe5b14156105695761052782610be9565b15610536576103246002610c99565b61053f82610cfc565b15610550576069549250505061056c565b61055a8282610d58565b156103c6576103c66000610c99565b50505b90565b601281565b606a5460ff1681565b6065546001600160a01b031681565b66b1a2bc2ec5000081565b600054610100900460ff16806105b057506105b0610e24565b806105be575060005460ff16155b6105f95760405162461bcd60e51b815260040180806020018281038252602e81526020018061138b602e913960400191505060405180910390fd5b600054610100900460ff16158015610624576000805460ff1961ff0019909116610100171660011790555b61062c610e35565b6106368383610ee7565b8015610648576000805461ff00191690555b505050565b6706f05b59d3b2000081565b610661610f4e565b6001600160a01b0316610672610702565b6001600160a01b0316146106bb576040805162461bcd60e51b815260206004820181905260248201526000805160206113da833981519152604482015290519081900360640190fd5b6033546040516000916001600160a01b0316906000805160206113fa833981519152908390a3603380546001600160a01b0319169055565b6066546001600160a01b031681565b6033546001600160a01b031690565b670de0b6b3a764000081565b60405180604001604052806009815260200168141c9a58d95199595960ba1b81525081565b61074a610f4e565b6001600160a01b031661075b610702565b6001600160a01b0316146107a4576040805162461bcd60e51b815260206004820181905260248201526000805160206113da833981519152604482015290519081900360640190fd5b606580546001600160a01b0319166001600160a01b0384161790556107c8816108c3565b5050565b6107d4610f4e565b6001600160a01b03166107e5610702565b6001600160a01b03161461082e576040805162461bcd60e51b815260206004820181905260248201526000805160206113da833981519152604482015290519081900360640190fd5b6001600160a01b0381166108735760405162461bcd60e51b81526004018080602001828103825260268152602001806113656026913960400191505060405180910390fd5b6033546040516001600160a01b038084169216906000805160206113fa83398151915290600090a3603380546001600160a01b0319166001600160a01b0392909216919091179055565b61384081565b6108cb610f4e565b6001600160a01b03166108dc610702565b6001600160a01b031614610925576040805162461bcd60e51b815260206004820181905260248201526000805160206113da833981519152604482015290519081900360640190fd5b60655460408051637bd1840360e11b81526004810184905290516001600160a01b0390921691829163f7a3080691602480830192600092919082900301818387803b15801561097357600080fd5b505af1158015610987573d6000803e3d6000fd5b50505050806001600160a01b031663bf73eea660006040518263ffffffff1660e01b815260040180828152602001915050600060405180830381600087803b1580156109d257600080fd5b505af11580156109e6573d6000803e3d6000fd5b505050505050565b6109f661130a565b606560009054906101000a90046001600160a01b03166001600160a01b031663313ce5676040518163ffffffff1660e01b815260040160206040518083038186803b158015610a4457600080fd5b505afa925050508015610a6957506040513d6020811015610a6457600080fd5b505160015b610a725761056c565b60ff166080820152606560009054906101000a90046001600160a01b03166001600160a01b031663feaf968c6040518163ffffffff1660e01b815260040160a06040518083038186803b158015610ac857600080fd5b505afa925050508015610b0a57506040513d60a0811015610ae857600080fd5b5080516020820151604083015160608401516080909401519293919290919060015b610b135761056c565b5069ffffffffffffffffffff909316845250602083015260408201526001606082015261056c565b610b43611338565b606660009054906101000a90046001600160a01b03166001600160a01b031663994338286040518163ffffffff1660e01b815260040160606040518083038186803b158015610b9157600080fd5b505afa925050508015610bc557506040513d6060811015610bb157600080fd5b508051602082015160409092015190919060015b610bce5761056c565b9115158352602083015260408201526001606082015261056c565b60008160600151610bfc57506001610c4f565b815169ffffffffffffffffffff16610c1657506001610c4f565b60408201511580610c2a5750428260400151115b15610c3757506001610c4f565b6000826020015113610c4b57506001610c4f565b5060005b919050565b60008160600151610c6757506001610c4f565b60408201511580610c7b5750428260400151115b15610c8857506001610c4f565b6020820151610c4b57506001610c4f565b606a805482919060ff19166001836004811115610cb257fe5b02179055507f5c57579a8214fe4f710c1c56fa829f045b9fa6d225a744225a30c32188064d4e8160405180826004811115610ce957fe5b815260200191505060405180910390a150565b6000613840610d18836040015142610f5290919063ffffffff16565b1192915050565b600080610d2f8360200151610faf565b9050610d3a81610fbc565b92915050565b600080610d2f8360200151846080015160ff16610ff7565b6000610d6382610c54565b80610d725750610d7282610cfc565b80610d815750610d8183610cfc565b15610d8e57506000610d3a565b610d988383610d9f565b9392505050565b600080610db78460200151856080015160ff16610ff7565b90506000610dc88460200151610faf565b90506000610dd6828461103c565b90506000610de48385611052565b90506000610e0e83610e08670de0b6b3a7640000610e028684610f52565b90611062565b906110bb565b66b1a2bc2ec50000101598975050505050505050565b6000610e2f30611122565b15905090565b600054610100900460ff1680610e4e5750610e4e610e24565b80610e5c575060005460ff16155b610e975760405162461bcd60e51b815260040180806020018281038252602e81526020018061138b602e913960400191505060405180910390fd5b600054610100900460ff16158015610ec2576000805460ff1961ff0019909116610100171660011790555b610eca611128565b610ed26111c8565b8015610ee4576000805461ff00191690555b50565b610ef0826112af565b610ef9816112af565b606580546001600160a01b038481166001600160a01b0319928316179092556066805492841692909116919091179055606a805460ff191690556000610f3d6109ee565b9050610f4881610d40565b50505050565b3390565b600082821115610fa9576040805162461bcd60e51b815260206004820152601e60248201527f536166654d6174683a207375627472616374696f6e206f766572666c6f770000604482015290519081900360640190fd5b50900390565b6000610d3a826001611062565b60698190556040805182815290517f4d29de21de555af78a62fc82dd4bc05e9ae5b0660a37f04729527e0f22780cd39181900360200190a150565b6000806012831061101a57611013846011198501600a0a6110bb565b9050610d98565b6012831015610d9857611034846012859003600a0a611062565b949350505050565b600081831061104b5781610d98565b5090919050565b60008183101561104b5781610d98565b60008261107157506000610d3a565b8282028284828161107e57fe5b0414610d985760405162461bcd60e51b81526004018080602001828103825260218152602001806113b96021913960400191505060405180910390fd5b6000808211611111576040805162461bcd60e51b815260206004820152601a60248201527f536166654d6174683a206469766973696f6e206279207a65726f000000000000604482015290519081900360640190fd5b81838161111a57fe5b049392505050565b3b151590565b600054610100900460ff16806111415750611141610e24565b8061114f575060005460ff16155b61118a5760405162461bcd60e51b815260040180806020018281038252602e81526020018061138b602e913960400191505060405180910390fd5b600054610100900460ff16158015610ed2576000805460ff1961ff0019909116610100171660011790558015610ee4576000805461ff001916905550565b600054610100900460ff16806111e157506111e1610e24565b806111ef575060005460ff16155b61122a5760405162461bcd60e51b815260040180806020018281038252602e81526020018061138b602e913960400191505060405180910390fd5b600054610100900460ff16158015611255576000805460ff1961ff0019909116610100171660011790555b600061125f610f4e565b603380546001600160a01b0319166001600160a01b038316908117909155604051919250906000906000805160206113fa833981519152908290a3508015610ee4576000805461ff001916905550565b6001600160a01b038116610ee4576040805162461bcd60e51b815260206004820152601e60248201527f4163636f756e742063616e6e6f74206265207a65726f20616464726573730000604482015290519081900360640190fd5b6040805160a08101825260008082526020820181905291810182905260608101829052608081019190915290565b60405180608001604052806000151581526020016000815260200160008152602001600015158152509056fe4f776e61626c653a206e6577206f776e657220697320746865207a65726f2061646472657373496e697469616c697a61626c653a20636f6e747261637420697320616c726561647920696e697469616c697a6564536166654d6174683a206d756c7469706c69636174696f6e206f766572666c6f774f776e61626c653a2063616c6c6572206973206e6f7420746865206f776e65728be0079c531659141344cd1fd0a4f28419497f9722a3daafe3b4186f6b6457e0a2646970667358221220f608255ab2b328a3ef5ee84933b00497096b78c88a9657d6b5f4cddcc8012a4864736f6c63430007060033",
  "linkReferences": {},
  "deployedLinkReferences": {}
}