{
  "_format": "hh-sol-artifact-1",
  "contractName": "MockTellor",
  "sourceName": "contracts/TestContracts/MockTellor.sol",
  "abi": [
    {
      "inputs": [
        {
          "internalType": "bytes32",
          "name": "",
          "type": "bytes32"
        },
        {
          "internalType": "uint256",
          "name": "",
          "type": "uint256"
        }
      ],
      "name": "getDataBefore",
      "outputs": [
        {
          "internalType": "bool",
          "name": "_ifRetrieve",
          "type": "bool"
        },
        {
          "internalType": "bytes",
          "name": "_value",
          "type": "bytes"
        },
        {
          "internalType": "uint256",
          "name": "_timestampRetrieved",
          "type": "uint256"
        }
      ],
      "stateMutability": "view",
      "type": "function"
    },
    {
      "inputs": [
        {
          "internalType": "uint256",
          "name": "",
          "type": "uint256"
        },
        {
          "internalType": "uint256",
          "name": "",
          "type": "uint256"
        }
      ],
      "name": "getTimestampbyRequestIDandIndex",
      "outputs": [
        {
          "internalType": "uint256",
          "name": "",
          "type": "uint256"
        }
      ],
      "stateMutability": "view",
      "type": "function"
    },
    {
      "inputs": [
        {
          "internalType": "bool",
          "name": "_didRetrieve",
          "type": "bool"
        }
      ],
      "name": "setDidRetrieve",
      "outputs": [],
      "stateMutability": "nonpayable",
      "type": "function"
    },
    {
      "inputs": [
        {
          "internalType": "uint256",
          "name": "_price",
          "type": "uint256"
        }
      ],
      "name": "setPrice",
      "outputs": [],
      "stateMutability": "nonpayable",
      "type": "function"
    },
    {
      "inputs": [],
      "name": "setRevertRequest",
      "outputs": [],
      "stateMutability": "nonpayable",
      "type": "function"
    },
    {
      "inputs": [
        {
          "internalType": "uint256",
          "name": "_updateTime",
          "type": "uint256"
        }
      ],
      "name": "setUpdateTime",
      "outputs": [],
      "stateMutability": "nonpayable",
      "type": "function"
    }
  ],
  "bytecode": "0x60806040526000805460ff1916600117905534801561001d57600080fd5b506102a88061002d6000396000f3fe608060405234801561001057600080fd5b50600436106100625760003560e01c80632fc0eb851461006757806377fbb6631461007157806391b7f5ed146100a6578063a792765f146100c3578063bf73eea61461016e578063c49548571461018b575b600080fd5b61006f6101aa565b005b6100946004803603604081101561008757600080fd5b50803590602001356101be565b60408051918252519081900360200190f35b61006f600480360360208110156100bc57600080fd5b50356101c6565b6100e6600480360360408110156100d957600080fd5b50803590602001356101cb565b60405180841515815260200180602001838152602001828103825284818151815260200191508051906020019080838360005b83811015610131578181015183820152602001610119565b50505050905090810190601f16801561015e5780820380516001836020036101000a031916815260200191505b5094505050505060405180910390f35b61006f6004803603602081101561018457600080fd5b503561025a565b61006f600480360360208110156101a157600080fd5b5035151561025f565b6003805460ff19811660ff90911615179055565b505060025490565b600155565b600354600090606090829060ff1615610225576040805162461bcd60e51b815260206004820152601760248201527615195b1b1bdc881c995c5d595cdd081c995d995c9d1959604a1b604482015290519081900360640190fd5b505060005460015460408051602080820193909352815180820390930183528101905260025460ff9092169250909250925092565b600255565b6000805460ff191691151591909117905556fea264697066735822122099524b432985c443addd62ab2a24d929f83ad6b9402ba4da6ef14ae47cef307764736f6c63430007060033",
  "linkReferences": {},
  "deployedLinkReferences": {}
}