{
  "_format": "hh-sol-artifact-1",
  "contractName": "MockPriceFeed",
  "sourceName": "contracts/TestContracts/MockPriceFeed.sol",
  "abi": [
    {
      "inputs": [
        {
          "internalType": "uint256",
          "name": "_timeout",
          "type": "uint256"
        }
      ],
      "stateMutability": "nonpayable",
      "type": "constructor"
    },
    {
      "anonymous": false,
      "inputs": [
        {
          "indexed": false,
          "internalType": "uint256",
          "name": "_lastGoodPrice",
          "type": "uint256"
        }
      ],
      "name": "LastGoodPriceUpdated",
      "type": "event"
    },
    {
      "anonymous": false,
      "inputs": [
        {
          "indexed": true,
          "internalType": "address",
          "name": "previousOwner",
          "type": "address"
        },
        {
          "indexed": true,
          "internalType": "address",
          "name": "newOwner",
          "type": "address"
        }
      ],
      "name": "OwnershipTransferred",
      "type": "event"
    },
    {
      "anonymous": false,
      "inputs": [
        {
          "indexed": false,
          "internalType": "enum IPriceFeed.Status",
          "name": "newStatus",
          "type": "uint8"
        }
      ],
      "name": "PriceFeedStatusChanged",
      "type": "event"
    },
    {
      "inputs": [],
      "name": "DECIMAL_PRECISION",
      "outputs": [
        {
          "internalType": "uint256",
          "name": "",
          "type": "uint256"
        }
      ],
      "stateMutability": "view",
      "type": "function"
    },
    {
      "inputs": [],
      "name": "MAX_PRICE_DIFFERENCE_BETWEEN_ORACLES",
      "outputs": [
        {
          "internalType": "uint256",
          "name": "",
          "type": "uint256"
        }
      ],
      "stateMutability": "view",
      "type": "function"
    },
    {
      "inputs": [],
      "name": "NAME",
      "outputs": [
        {
          "internalType": "string",
          "name": "",
          "type": "string"
        }
      ],
      "stateMutability": "view",
      "type": "function"
    },
    {
      "inputs": [],
      "name": "TARGET_DIGITS",
      "outputs": [
        {
          "internalType": "uint256",
          "name": "",
          "type": "uint256"
        }
      ],
      "stateMutability": "view",
      "type": "function"
    },
    {
      "inputs": [],
      "name": "TELLOR_DIGITS",
      "outputs": [
        {
          "internalType": "uint256",
          "name": "",
          "type": "uint256"
        }
      ],
      "stateMutability": "view",
      "type": "function"
    },
    {
      "inputs": [],
      "name": "TIMEOUT",
      "outputs": [
        {
          "internalType": "uint256",
          "name": "",
          "type": "uint256"
        }
      ],
      "stateMutability": "view",
      "type": "function"
    },
    {
      "inputs": [],
      "name": "fetchPrice",
      "outputs": [
        {
          "internalType": "uint256",
          "name": "price",
          "type": "uint256"
        }
      ],
      "stateMutability": "nonpayable",
      "type": "function"
    },
    {
      "inputs": [
        {
          "internalType": "address",
          "name": "_priceAggregatorAddress",
          "type": "address"
        },
        {
          "internalType": "address",
          "name": "_tellorCallerAddress",
          "type": "address"
        }
      ],
      "name": "initialize",
      "outputs": [],
      "stateMutability": "nonpayable",
      "type": "function"
    },
    {
      "inputs": [],
      "name": "lastGoodPrice",
      "outputs": [
        {
          "internalType": "uint256",
          "name": "",
          "type": "uint256"
        }
      ],
      "stateMutability": "view",
      "type": "function"
    },
    {
      "inputs": [],
      "name": "owner",
      "outputs": [
        {
          "internalType": "address",
          "name": "",
          "type": "address"
        }
      ],
      "stateMutability": "view",
      "type": "function"
    },
    {
      "inputs": [],
      "name": "priceAggregator",
      "outputs": [
        {
          "internalType": "contract AggregatorV3Interface",
          "name": "",
          "type": "address"
        }
      ],
      "stateMutability": "view",
      "type": "function"
    },
    {
      "inputs": [],
      "name": "renounceOwnership",
      "outputs": [],
      "stateMutability": "nonpayable",
      "type": "function"
    },
    {
      "inputs": [
        {
          "internalType": "int256",
          "name": "_price",
          "type": "int256"
        }
      ],
      "name": "setPrice",
      "outputs": [],
      "stateMutability": "nonpayable",
      "type": "function"
    },
    {
      "inputs": [
        {
          "internalType": "address",
          "name": "_aggregator",
          "type": "address"
        },
        {
          "internalType": "int256",
          "name": "_price",
          "type": "int256"
        }
      ],
      "name": "setPriceAggregator",
      "outputs": [],
      "stateMutability": "nonpayable",
      "type": "function"
    },
    {
      "inputs": [],
      "name": "status",
      "outputs": [
        {
          "internalType": "enum IPriceFeed.Status",
          "name": "",
          "type": "uint8"
        }
      ],
      "stateMutability": "view",
      "type": "function"
    },
    {
      "inputs": [],
      "name": "tellorCaller",
      "outputs": [
        {
          "internalType": "contract ITellorCaller",
          "name": "",
          "type": "address"
        }
      ],
      "stateMutability": "view",
      "type": "function"
    },
    {
      "inputs": [
        {
          "internalType": "address",
          "name": "newOwner",
          "type": "address"
        }
      ],
      "name": "transferOwnership",
      "outputs": [],
      "stateMutability": "nonpayable",
      "type": "function"
    }
  ],
  "bytecode": "0x60a060405234801561001057600080fd5b506040516115973803806115978339818101604052602081101561003357600080fd5b5051608052608051611540610057600039806108a05280610dc452506115406000f3fe608060405234801561001057600080fd5b50600436106100eb5760003560e01c80637c61e3bf116100925780637c61e3bf146101a75780638da5cb5b146101af578063a20baee6146101b7578063a3f4df7e146101bf578063cda647db1461023c578063ebf8e6c614610112578063f2fde38b14610268578063f56f48f21461028e578063f7a3080614610296576100eb565b80630490be83146100f05780630fdb11cf1461010a5780631be5c92f14610112578063200d2ed21461011a5780633078fff51461014357806345079cb414610167578063485cc9551461016f578063715018a61461019f575b600080fd5b6100f86102b3565b60408051918252519081900360200190f35b6100f86102b9565b6100f861055c565b610122610561565b6040518082600481111561013257fe5b815260200191505060405180910390f35b61014b61056a565b604080516001600160a01b039092168252519081900360200190f35b6100f8610579565b61019d6004803603604081101561018557600080fd5b506001600160a01b0381358116916020013516610584565b005b61019d61063a565b61014b6106d4565b61014b6106e3565b6100f86106f2565b6101c76106fe565b6040805160208082528351818301528351919283929083019185019080838360005b838110156102015781810151838201526020016101e9565b50505050905090810190601f16801561022e5780820380516001836020036101000a031916815260200191505b509250505060405180910390f35b61019d6004803603604081101561025257600080fd5b506001600160a01b038135169060200135610723565b61019d6004803603602081101561027e57600080fd5b50356001600160a01b03166107ad565b6100f861089e565b61019d600480360360208110156102ac57600080fd5b50356108c2565b60675481565b6000806102c4610ab2565b905060006102d0610bff565b9050600060685460ff1660048111156102e557fe5b14156103bc576102f482610cad565b156103515761030281610d18565b1561031d576103116002610d5d565b60675492505050610559565b61032681610dc0565b15610335576103116001610d5d565b61033f6001610d5d565b61034881610e01565b92505050610559565b61035a82610dc0565b1561039b5761036881610d18565b15610377576103116004610d5d565b6103816003610d5d565b61038a81610dc0565b1561033f5760675492505050610559565b6103a481610d18565b156103b3576103b36004610d5d565b61034882610e22565b600160685460ff1660048111156103cf57fe5b1415610406576103df8282610e3a565b156103ee576103b36000610d5d565b6103f781610d18565b15610381576103116002610d5d565b600260685460ff16600481111561041957fe5b1415610438576104298282610e3a565b15610311576103b36000610d5d565b600360685460ff16600481111561044b57fe5b14156104f25761045a82610cad565b156104815761046881610d18565b15610477576103116002610d5d565b6103816001610d5d565b61048a82610dc0565b156104a75761049881610d18565b15610381576103116004610d5d565b6104b081610d18565b156104bf576103b36004610d5d565b6104c881610dc0565b156104d95760675492505050610559565b6104e38282610e90565b15610335576103b36000610d5d565b600460685460ff16600481111561050557fe5b14156105565761051482610cad565b15610523576103116002610d5d565b61052c82610dc0565b1561053d5760675492505050610559565b6105478282610e3a565b156103b3576103b36000610d5d565b50505b90565b601281565b60685460ff1681565b6065546001600160a01b031681565b66b1a2bc2ec5000081565b600054610100900460ff168061059d575061059d610f15565b806105ab575060005460ff16155b6105e65760405162461bcd60e51b815260040180806020018281038252602e81526020018061147c602e913960400191505060405180910390fd5b600054610100900460ff16158015610611576000805460ff1961ff0019909116610100171660011790555b610619610f26565b6106238383610fd8565b8015610635576000805461ff00191690555b505050565b61064261103f565b6001600160a01b03166106536106e3565b6001600160a01b03161461069c576040805162461bcd60e51b815260206004820181905260248201526000805160206114cb833981519152604482015290519081900360640190fd5b6033546040516000916001600160a01b0316906000805160206114eb833981519152908390a3603380546001600160a01b0319169055565b6066546001600160a01b031681565b6033546001600160a01b031690565b670de0b6b3a764000081565b60405180604001604052806009815260200168141c9a58d95199595960ba1b81525081565b61072b61103f565b6001600160a01b031661073c6106e3565b6001600160a01b031614610785576040805162461bcd60e51b815260206004820181905260248201526000805160206114cb833981519152604482015290519081900360640190fd5b606580546001600160a01b0319166001600160a01b0384161790556107a9816108c2565b5050565b6107b561103f565b6001600160a01b03166107c66106e3565b6001600160a01b03161461080f576040805162461bcd60e51b815260206004820181905260248201526000805160206114cb833981519152604482015290519081900360640190fd5b6001600160a01b0381166108545760405162461bcd60e51b81526004018080602001828103825260268152602001806114566026913960400191505060405180910390fd5b6033546040516001600160a01b038084169216906000805160206114eb83398151915290600090a3603380546001600160a01b0319166001600160a01b0392909216919091179055565b7f000000000000000000000000000000000000000000000000000000000000000081565b6108ca61103f565b6001600160a01b03166108db6106e3565b6001600160a01b031614610924576040805162461bcd60e51b815260206004820181905260248201526000805160206114cb833981519152604482015290519081900360640190fd5b60655460408051637bd1840360e11b81526004810184905290516001600160a01b0390921691829163f7a3080691602480830192600092919082900301818387803b15801561097257600080fd5b505af1158015610986573d6000803e3d6000fd5b50505050806001600160a01b0316637a1395aa60126040518263ffffffff1660e01b815260040180828152602001915050600060405180830381600087803b1580156109d157600080fd5b505af11580156109e5573d6000803e3d6000fd5b50505050806001600160a01b0316637134b99060016040518263ffffffff1660e01b815260040180828152602001915050600060405180830381600087803b158015610a3057600080fd5b505af1158015610a44573d6000803e3d6000fd5b5050604080516305d826a760e41b81526001600482015290516001600160a01b0385169350635d826a709250602480830192600092919082900301818387803b158015610a9057600080fd5b505af1158015610aa4573d6000803e3d6000fd5b505050506107a96000610d5d565b610aba6113fb565b606560009054906101000a90046001600160a01b03166001600160a01b031663313ce5676040518163ffffffff1660e01b815260040160206040518083038186803b158015610b0857600080fd5b505afa925050508015610b2d57506040513d6020811015610b2857600080fd5b505160015b610b3657610559565b60ff166080820152606560009054906101000a90046001600160a01b03166001600160a01b031663feaf968c6040518163ffffffff1660e01b815260040160a06040518083038186803b158015610b8c57600080fd5b505afa925050508015610bce57506040513d60a0811015610bac57600080fd5b5080516020820151604083015160608401516080909401519293919290919060015b610bd757610559565b5069ffffffffffffffffffff9093168452506020830152604082015260016060820152610559565b610c07611429565b606660009054906101000a90046001600160a01b03166001600160a01b031663994338286040518163ffffffff1660e01b815260040160606040518083038186803b158015610c5557600080fd5b505afa925050508015610c8957506040513d6060811015610c7557600080fd5b508051602082015160409092015190919060015b610c9257610559565b91151583526020830152604082015260016060820152610559565b60008160600151610cc057506001610d13565b815169ffffffffffffffffffff16610cda57506001610d13565b60408201511580610cee5750428260400151115b15610cfb57506001610d13565b6000826020015113610d0f57506001610d13565b5060005b919050565b60008160600151610d2b57506001610d13565b60408201511580610d3f5750428260400151115b15610d4c57506001610d13565b6020820151610d0f57506001610d13565b6068805482919060ff19166001836004811115610d7657fe5b02179055507f5c57579a8214fe4f710c1c56fa829f045b9fa6d225a744225a30c32188064d4e8160405180826004811115610dad57fe5b815260200191505060405180910390a150565b60007f0000000000000000000000000000000000000000000000000000000000000000610dfa83604001514261104390919063ffffffff16565b1192915050565b600080610e1183602001516110a0565b9050610e1c816110ad565b92915050565b600080610e118360200151846080015160ff166110e8565b6000610e4582610d18565b80610e545750610e5482610dc0565b80610e635750610e6383610cad565b80610e725750610e7283610dc0565b15610e7f57506000610e1c565b610e898383610e90565b9392505050565b600080610ea88460200151856080015160ff166110e8565b90506000610eb984602001516110a0565b90506000610ec7828461112d565b90506000610ed58385611143565b90506000610eff83610ef9670de0b6b3a7640000610ef38684611043565b90611153565b906111ac565b66b1a2bc2ec50000101598975050505050505050565b6000610f2030611213565b15905090565b600054610100900460ff1680610f3f5750610f3f610f15565b80610f4d575060005460ff16155b610f885760405162461bcd60e51b815260040180806020018281038252602e81526020018061147c602e913960400191505060405180910390fd5b600054610100900460ff16158015610fb3576000805460ff1961ff0019909116610100171660011790555b610fbb611219565b610fc36112b9565b8015610fd5576000805461ff00191690555b50565b610fe1826113a0565b610fea816113a0565b606580546001600160a01b038481166001600160a01b03199283161790925560668054928416929091169190911790556068805460ff19169055600061102e610ab2565b905061103981610e22565b50505050565b3390565b60008282111561109a576040805162461bcd60e51b815260206004820152601e60248201527f536166654d6174683a207375627472616374696f6e206f766572666c6f770000604482015290519081900360640190fd5b50900390565b6000610e1c826001611153565b60678190556040805182815290517f4d29de21de555af78a62fc82dd4bc05e9ae5b0660a37f04729527e0f22780cd39181900360200190a150565b6000806012831061110b57611104846011198501600a0a6111ac565b9050610e89565b6012831015610e8957611125846012859003600a0a611153565b949350505050565b600081831061113c5781610e89565b5090919050565b60008183101561113c5781610e89565b60008261116257506000610e1c565b8282028284828161116f57fe5b0414610e895760405162461bcd60e51b81526004018080602001828103825260218152602001806114aa6021913960400191505060405180910390fd5b6000808211611202576040805162461bcd60e51b815260206004820152601a60248201527f536166654d6174683a206469766973696f6e206279207a65726f000000000000604482015290519081900360640190fd5b81838161120b57fe5b049392505050565b3b151590565b600054610100900460ff16806112325750611232610f15565b80611240575060005460ff16155b61127b5760405162461bcd60e51b815260040180806020018281038252602e81526020018061147c602e913960400191505060405180910390fd5b600054610100900460ff16158015610fc3576000805460ff1961ff0019909116610100171660011790558015610fd5576000805461ff001916905550565b600054610100900460ff16806112d257506112d2610f15565b806112e0575060005460ff16155b61131b5760405162461bcd60e51b815260040180806020018281038252602e81526020018061147c602e913960400191505060405180910390fd5b600054610100900460ff16158015611346576000805460ff1961ff0019909116610100171660011790555b600061135061103f565b603380546001600160a01b0319166001600160a01b038316908117909155604051919250906000906000805160206114eb833981519152908290a3508015610fd5576000805461ff001916905550565b6001600160a01b038116610fd5576040805162461bcd60e51b815260206004820152601e60248201527f4163636f756e742063616e6e6f74206265207a65726f20616464726573730000604482015290519081900360640190fd5b6040805160a08101825260008082526020820181905291810182905260608101829052608081019190915290565b60405180608001604052806000151581526020016000815260200160008152602001600015158152509056fe4f776e61626c653a206e6577206f776e657220697320746865207a65726f2061646472657373496e697469616c697a61626c653a20636f6e747261637420697320616c726561647920696e697469616c697a6564536166654d6174683a206d756c7469706c69636174696f6e206f766572666c6f774f776e61626c653a2063616c6c6572206973206e6f7420746865206f776e65728be0079c531659141344cd1fd0a4f28419497f9722a3daafe3b4186f6b6457e0a264697066735822122093785a4b652396e7e97f0e256efe46498c582ba59e7b8ebd60f6ecc2ebd53f7f64736f6c63430007060033",
  "linkReferences": {},
  "deployedLinkReferences": {}
}