{
  "_format": "hh-sol-artifact-1",
  "contractName": "MockPriceFeed",
  "sourceName": "contracts/TestContracts/MockPriceFeed.sol",
  "abi": [
    {
      "inputs": [
        {
          "internalType": "uint256",
          "name": "_timeout",
          "type": "uint256"
        }
      ],
      "stateMutability": "nonpayable",
      "type": "constructor"
    },
    {
      "anonymous": false,
      "inputs": [
        {
          "indexed": false,
          "internalType": "uint256",
          "name": "_lastGoodPrice",
          "type": "uint256"
        }
      ],
      "name": "LastGoodPriceUpdated",
      "type": "event"
    },
    {
      "anonymous": false,
      "inputs": [
        {
          "indexed": true,
          "internalType": "address",
          "name": "previousOwner",
          "type": "address"
        },
        {
          "indexed": true,
          "internalType": "address",
          "name": "newOwner",
          "type": "address"
        }
      ],
      "name": "OwnershipTransferred",
      "type": "event"
    },
    {
      "anonymous": false,
      "inputs": [
        {
          "indexed": false,
          "internalType": "enum IPriceFeed.Status",
          "name": "newStatus",
          "type": "uint8"
        }
      ],
      "name": "PriceFeedStatusChanged",
      "type": "event"
    },
    {
      "inputs": [],
      "name": "DECIMAL_PRECISION",
      "outputs": [
        {
          "internalType": "uint256",
          "name": "",
          "type": "uint256"
        }
      ],
      "stateMutability": "view",
      "type": "function"
    },
    {
      "inputs": [],
      "name": "MAX_PRICE_DEVIATION_FROM_PREVIOUS_ROUND",
      "outputs": [
        {
          "internalType": "uint256",
          "name": "",
          "type": "uint256"
        }
      ],
      "stateMutability": "view",
      "type": "function"
    },
    {
      "inputs": [],
      "name": "MAX_PRICE_DIFFERENCE_BETWEEN_ORACLES",
      "outputs": [
        {
          "internalType": "uint256",
          "name": "",
          "type": "uint256"
        }
      ],
      "stateMutability": "view",
      "type": "function"
    },
    {
      "inputs": [],
      "name": "NAME",
      "outputs": [
        {
          "internalType": "string",
          "name": "",
          "type": "string"
        }
      ],
      "stateMutability": "view",
      "type": "function"
    },
    {
      "inputs": [],
      "name": "TARGET_DIGITS",
      "outputs": [
        {
          "internalType": "uint256",
          "name": "",
          "type": "uint256"
        }
      ],
      "stateMutability": "view",
      "type": "function"
    },
    {
      "inputs": [],
      "name": "TIMEOUT",
      "outputs": [
        {
          "internalType": "uint256",
          "name": "",
          "type": "uint256"
        }
      ],
      "stateMutability": "view",
      "type": "function"
    },
    {
      "inputs": [],
      "name": "fetchPrice",
      "outputs": [
        {
          "internalType": "uint256",
          "name": "price",
          "type": "uint256"
        }
      ],
      "stateMutability": "nonpayable",
      "type": "function"
    },
    {
      "inputs": [
        {
          "internalType": "address",
          "name": "_priceAggregatorAddress",
          "type": "address"
        },
        {
          "internalType": "address",
          "name": "_tellorCallerAddress",
          "type": "address"
        }
      ],
      "name": "initialize",
      "outputs": [],
      "stateMutability": "nonpayable",
      "type": "function"
    },
    {
      "inputs": [],
      "name": "lastGoodPrice",
      "outputs": [
        {
          "internalType": "uint256",
          "name": "",
          "type": "uint256"
        }
      ],
      "stateMutability": "view",
      "type": "function"
    },
    {
      "inputs": [],
      "name": "owner",
      "outputs": [
        {
          "internalType": "address",
          "name": "",
          "type": "address"
        }
      ],
      "stateMutability": "view",
      "type": "function"
    },
    {
      "inputs": [],
      "name": "priceAggregator",
      "outputs": [
        {
          "internalType": "contract AggregatorV3Interface",
          "name": "",
          "type": "address"
        }
      ],
      "stateMutability": "view",
      "type": "function"
    },
    {
      "inputs": [],
      "name": "renounceOwnership",
      "outputs": [],
      "stateMutability": "nonpayable",
      "type": "function"
    },
    {
      "inputs": [
        {
          "internalType": "int256",
          "name": "_price",
          "type": "int256"
        }
      ],
      "name": "setPrice",
      "outputs": [],
      "stateMutability": "nonpayable",
      "type": "function"
    },
    {
      "inputs": [
        {
          "internalType": "address",
          "name": "_aggregator",
          "type": "address"
        },
        {
          "internalType": "int256",
          "name": "_price",
          "type": "int256"
        }
      ],
      "name": "setPriceAggregator",
      "outputs": [],
      "stateMutability": "nonpayable",
      "type": "function"
    },
    {
      "inputs": [],
      "name": "status",
      "outputs": [
        {
          "internalType": "enum IPriceFeed.Status",
          "name": "",
          "type": "uint8"
        }
      ],
      "stateMutability": "view",
      "type": "function"
    },
    {
      "inputs": [],
      "name": "tellorCaller",
      "outputs": [
        {
          "internalType": "contract ITellorCaller",
          "name": "",
          "type": "address"
        }
      ],
      "stateMutability": "view",
      "type": "function"
    },
    {
      "inputs": [
        {
          "internalType": "address",
          "name": "newOwner",
          "type": "address"
        }
      ],
      "name": "transferOwnership",
      "outputs": [],
      "stateMutability": "nonpayable",
      "type": "function"
    }
  ],
  "bytecode": "0x60a060405234801561001057600080fd5b506040516116f33803806116f38339818101604052602081101561003357600080fd5b505160805260805161169c610057600039806109225280610e46525061169c6000f3fe608060405234801561001057600080fd5b50600436106100eb5760003560e01c8063715018a611610092578063715018a6146101a75780637c61e3bf146101af5780638da5cb5b146101b7578063a20baee6146101bf578063a3f4df7e146101c7578063cda647db14610244578063f2fde38b14610270578063f56f48f214610296578063f7a308061461029e576100eb565b80630490be83146100f05780630fdb11cf1461010a5780631be5c92f14610112578063200d2ed21461011a5780633078fff51461014357806345079cb414610167578063485cc9551461016f57806358a6aa881461019f575b600080fd5b6100f86102bb565b60408051918252519081900360200190f35b6100f86102c1565b6100f86105d2565b6101226105d7565b6040518082600481111561013257fe5b815260200191505060405180910390f35b61014b6105e0565b604080516001600160a01b039092168252519081900360200190f35b6100f86105ef565b61019d6004803603604081101561018557600080fd5b506001600160a01b03813581169160200135166105fa565b005b6100f86106b0565b61019d6106bc565b61014b610756565b61014b610765565b6100f8610774565b6101cf610780565b6040805160208082528351818301528351919283929083019185019080838360005b838110156102095781810151838201526020016101f1565b50505050905090810190601f1680156102365780820380516001836020036101000a031916815260200191505b509250505060405180910390f35b61019d6004803603604081101561025a57600080fd5b506001600160a01b0381351690602001356107a5565b61019d6004803603602081101561028657600080fd5b50356001600160a01b031661082f565b6100f8610920565b61019d600480360360208110156102b457600080fd5b5035610944565b60675481565b6000806102cc610b34565b905060006102d8610c81565b9050600060685460ff1660048111156102ed57fe5b141561041a576102fc82610d2f565b156103595761030a81610d9a565b15610325576103196002610ddf565b606754925050506105cf565b61032e81610e42565b1561033d576103196001610ddf565b6103476001610ddf565b61035081610e83565b925050506105cf565b61036282610e42565b156103a35761037081610d9a565b1561037f576103196004610ddf565b6103896003610ddf565b61039281610e42565b1561034757606754925050506105cf565b6103ac82610e9a565b156103f9576103ba81610d9a565b156103c9576103196002610ddf565b6103d281610e42565b156103e1576103196001610ddf565b6103eb8282610f10565b1561033d5761035082610f7e565b61040281610d9a565b15610411576104116004610ddf565b61035082610f7e565b600160685460ff16600481111561042d57fe5b14156104645761043d8282610fa1565b1561044c576104116000610ddf565b61045581610d9a565b15610389576103196002610ddf565b600260685460ff16600481111561047757fe5b1415610496576104878282610fa1565b15610319576104116000610ddf565b600360685460ff1660048111156104a957fe5b1415610550576104b882610d2f565b156104df576104c681610d9a565b156104d5576103196002610ddf565b6103896001610ddf565b6104e882610e42565b15610505576104f681610d9a565b15610389576103196004610ddf565b61050e81610d9a565b1561051d576104116004610ddf565b61052681610e42565b1561053757606754925050506105cf565b6105418282610f10565b1561033d576104116000610ddf565b600460685460ff16600481111561056357fe5b14156105cc5761057282610d2f565b15610581576103196002610ddf565b61058a82610e42565b1561059b57606754925050506105cf565b6105a58282610fa1565b156105b4576104116000610ddf565b6105bd82610e9a565b15610411576103196002610ddf565b50505b90565b601281565b60685460ff1681565b6065546001600160a01b031681565b66b1a2bc2ec5000081565b600054610100900460ff16806106135750610613610ff7565b80610621575060005460ff16155b61065c5760405162461bcd60e51b815260040180806020018281038252602e8152602001806115a8602e913960400191505060405180910390fd5b600054610100900460ff16158015610687576000805460ff1961ff0019909116610100171660011790555b61068f611008565b61069983836110ba565b80156106ab576000805461ff00191690555b505050565b6706f05b59d3b2000081565b6106c4611178565b6001600160a01b03166106d5610765565b6001600160a01b03161461071e576040805162461bcd60e51b815260206004820181905260248201526000805160206115f7833981519152604482015290519081900360640190fd5b6033546040516000916001600160a01b031690600080516020611617833981519152908390a3603380546001600160a01b0319169055565b6066546001600160a01b031681565b6033546001600160a01b031690565b670de0b6b3a764000081565b60405180604001604052806009815260200168141c9a58d95199595960ba1b81525081565b6107ad611178565b6001600160a01b03166107be610765565b6001600160a01b031614610807576040805162461bcd60e51b815260206004820181905260248201526000805160206115f7833981519152604482015290519081900360640190fd5b606580546001600160a01b0319166001600160a01b03841617905561082b81610944565b5050565b610837611178565b6001600160a01b0316610848610765565b6001600160a01b031614610891576040805162461bcd60e51b815260206004820181905260248201526000805160206115f7833981519152604482015290519081900360640190fd5b6001600160a01b0381166108d65760405162461bcd60e51b81526004018080602001828103825260268152602001806115826026913960400191505060405180910390fd5b6033546040516001600160a01b0380841692169060008051602061161783398151915290600090a3603380546001600160a01b0319166001600160a01b0392909216919091179055565b7f000000000000000000000000000000000000000000000000000000000000000081565b61094c611178565b6001600160a01b031661095d610765565b6001600160a01b0316146109a6576040805162461bcd60e51b815260206004820181905260248201526000805160206115f7833981519152604482015290519081900360640190fd5b60655460408051637bd1840360e11b81526004810184905290516001600160a01b0390921691829163f7a3080691602480830192600092919082900301818387803b1580156109f457600080fd5b505af1158015610a08573d6000803e3d6000fd5b50505050806001600160a01b0316637a1395aa60126040518263ffffffff1660e01b815260040180828152602001915050600060405180830381600087803b158015610a5357600080fd5b505af1158015610a67573d6000803e3d6000fd5b50505050806001600160a01b0316637134b99060016040518263ffffffff1660e01b815260040180828152602001915050600060405180830381600087803b158015610ab257600080fd5b505af1158015610ac6573d6000803e3d6000fd5b5050604080516305d826a760e41b81526001600482015290516001600160a01b0385169350635d826a709250602480830192600092919082900301818387803b158015610b1257600080fd5b505af1158015610b26573d6000803e3d6000fd5b5050505061082b6000610ddf565b610b3c611527565b606560009054906101000a90046001600160a01b03166001600160a01b031663313ce5676040518163ffffffff1660e01b815260040160206040518083038186803b158015610b8a57600080fd5b505afa925050508015610baf57506040513d6020811015610baa57600080fd5b505160015b610bb8576105cf565b60ff166080820152606560009054906101000a90046001600160a01b03166001600160a01b031663feaf968c6040518163ffffffff1660e01b815260040160a06040518083038186803b158015610c0e57600080fd5b505afa925050508015610c5057506040513d60a0811015610c2e57600080fd5b5080516020820151604083015160608401516080909401519293919290919060015b610c59576105cf565b5069ffffffffffffffffffff90931684525060208301526040820152600160608201526105cf565b610c89611555565b606660009054906101000a90046001600160a01b03166001600160a01b031663994338286040518163ffffffff1660e01b815260040160606040518083038186803b158015610cd757600080fd5b505afa925050508015610d0b57506040513d6060811015610cf757600080fd5b508051602082015160409092015190919060015b610d14576105cf565b911515835260208301526040820152600160608201526105cf565b60008160600151610d4257506001610d95565b815169ffffffffffffffffffff16610d5c57506001610d95565b60408201511580610d705750428260400151115b15610d7d57506001610d95565b6000826020015113610d9157506001610d95565b5060005b919050565b60008160600151610dad57506001610d95565b60408201511580610dc15750428260400151115b15610dce57506001610d95565b6020820151610d9157506001610d95565b6068805482919060ff19166001836004811115610df857fe5b02179055507f5c57579a8214fe4f710c1c56fa829f045b9fa6d225a744225a30c32188064d4e8160405180826004811115610e2f57fe5b815260200191505060405180910390a150565b60007f0000000000000000000000000000000000000000000000000000000000000000610e7c83604001514261117c90919063ffffffff16565b1192915050565b6020810151600090610e94816111d9565b92915050565b600080610eb28360200151846080015160ff16611214565b90506000610ec282606754611259565b90506000610ed28360675461126f565b90506000610efc82610ef6670de0b6b3a7640000610ef0838861117c565b9061127f565b906112d8565b6706f05b59d3b20000109695505050505050565b600080610f288460200151856080015160ff16611214565b60208401519091506000610f3c8284611259565b90506000610f4a838561126f565b90506000610f6883610ef6670de0b6b3a7640000610ef0868461117c565b66b1a2bc2ec50000101598975050505050505050565b600080610f968360200151846080015160ff16611214565b9050610e94816111d9565b6000610fac82610d9a565b80610fbb5750610fbb82610e42565b80610fca5750610fca83610d2f565b80610fd95750610fd983610e42565b15610fe657506000610e94565b610ff08383610f10565b9392505050565b60006110023061133f565b15905090565b600054610100900460ff16806110215750611021610ff7565b8061102f575060005460ff16155b61106a5760405162461bcd60e51b815260040180806020018281038252602e8152602001806115a8602e913960400191505060405180910390fd5b600054610100900460ff16158015611095576000805460ff1961ff0019909116610100171660011790555b61109d611345565b6110a56113e5565b80156110b7576000805461ff00191690555b50565b6110c3826114cc565b6110cc816114cc565b606580546001600160a01b038481166001600160a01b03199283161790925560668054928416929091169190911790556068805460ff191690556000611110610b34565b905061111b81610d2f565b15801561112e575061112c81610e42565b155b6111695760405162461bcd60e51b81526004018080602001828103825260308152602001806116376030913960400191505060405180910390fd5b61117281610f7e565b50505050565b3390565b6000828211156111d3576040805162461bcd60e51b815260206004820152601e60248201527f536166654d6174683a207375627472616374696f6e206f766572666c6f770000604482015290519081900360640190fd5b50900390565b60678190556040805182815290517f4d29de21de555af78a62fc82dd4bc05e9ae5b0660a37f04729527e0f22780cd39181900360200190a150565b6000806012831061123757611230846011198501600a0a6112d8565b9050610ff0565b6012831015610ff057611251846012859003600a0a61127f565b949350505050565b60008183106112685781610ff0565b5090919050565b6000818310156112685781610ff0565b60008261128e57506000610e94565b8282028284828161129b57fe5b0414610ff05760405162461bcd60e51b81526004018080602001828103825260218152602001806115d66021913960400191505060405180910390fd5b600080821161132e576040805162461bcd60e51b815260206004820152601a60248201527f536166654d6174683a206469766973696f6e206279207a65726f000000000000604482015290519081900360640190fd5b81838161133757fe5b049392505050565b3b151590565b600054610100900460ff168061135e575061135e610ff7565b8061136c575060005460ff16155b6113a75760405162461bcd60e51b815260040180806020018281038252602e8152602001806115a8602e913960400191505060405180910390fd5b600054610100900460ff161580156110a5576000805460ff1961ff00199091166101001716600117905580156110b7576000805461ff001916905550565b600054610100900460ff16806113fe57506113fe610ff7565b8061140c575060005460ff16155b6114475760405162461bcd60e51b815260040180806020018281038252602e8152602001806115a8602e913960400191505060405180910390fd5b600054610100900460ff16158015611472576000805460ff1961ff0019909116610100171660011790555b600061147c611178565b603380546001600160a01b0319166001600160a01b03831690811790915560405191925090600090600080516020611617833981519152908290a35080156110b7576000805461ff001916905550565b6001600160a01b0381166110b7576040805162461bcd60e51b815260206004820152601e60248201527f4163636f756e742063616e6e6f74206265207a65726f20616464726573730000604482015290519081900360640190fd5b6040805160a08101825260008082526020820181905291810182905260608101829052608081019190915290565b60405180608001604052806000151581526020016000815260200160008152602001600015158152509056fe4f776e61626c653a206e6577206f776e657220697320746865207a65726f2061646472657373496e697469616c697a61626c653a20636f6e747261637420697320616c726561647920696e697469616c697a6564536166654d6174683a206d756c7469706c69636174696f6e206f766572666c6f774f776e61626c653a2063616c6c6572206973206e6f7420746865206f776e65728be0079c531659141344cd1fd0a4f28419497f9722a3daafe3b4186f6b6457e05072696365466565643a20436861696e6c696e6b206d75737420626520776f726b696e6720616e642063757272656e74a26469706673582212204f87f9d8b96662be1ac8f0d398b5e03dd2a670f923cfc45f7e5bcdeeb1ff5c8964736f6c63430007060033",
  "linkReferences": {},
  "deployedLinkReferences": {}
}