{
  "_format": "hh-sol-artifact-1",
  "contractName": "MockPriceFeed",
  "sourceName": "contracts/TestContracts/MockPriceFeed.sol",
  "abi": [
    {
      "inputs": [
        {
          "internalType": "uint256",
          "name": "_timeout",
          "type": "uint256"
        }
      ],
      "stateMutability": "nonpayable",
      "type": "constructor"
    },
    {
      "anonymous": false,
      "inputs": [
        {
          "indexed": false,
          "internalType": "uint256",
          "name": "_lastGoodPrice",
          "type": "uint256"
        }
      ],
      "name": "LastGoodPriceUpdated",
      "type": "event"
    },
    {
      "anonymous": false,
      "inputs": [
        {
          "indexed": true,
          "internalType": "address",
          "name": "previousOwner",
          "type": "address"
        },
        {
          "indexed": true,
          "internalType": "address",
          "name": "newOwner",
          "type": "address"
        }
      ],
      "name": "OwnershipTransferred",
      "type": "event"
    },
    {
      "anonymous": false,
      "inputs": [
        {
          "indexed": false,
          "internalType": "enum IPriceFeed.Status",
          "name": "newStatus",
          "type": "uint8"
        }
      ],
      "name": "PriceFeedStatusChanged",
      "type": "event"
    },
    {
      "inputs": [],
      "name": "DECIMAL_PRECISION",
      "outputs": [
        {
          "internalType": "uint256",
          "name": "",
          "type": "uint256"
        }
      ],
      "stateMutability": "view",
      "type": "function"
    },
    {
      "inputs": [],
      "name": "MAX_PRICE_DEVIATION_FROM_PREVIOUS_ROUND",
      "outputs": [
        {
          "internalType": "uint256",
          "name": "",
          "type": "uint256"
        }
      ],
      "stateMutability": "view",
      "type": "function"
    },
    {
      "inputs": [],
      "name": "MAX_PRICE_DIFFERENCE_BETWEEN_ORACLES",
      "outputs": [
        {
          "internalType": "uint256",
          "name": "",
          "type": "uint256"
        }
      ],
      "stateMutability": "view",
      "type": "function"
    },
    {
      "inputs": [],
      "name": "NAME",
      "outputs": [
        {
          "internalType": "string",
          "name": "",
          "type": "string"
        }
      ],
      "stateMutability": "view",
      "type": "function"
    },
    {
      "inputs": [],
      "name": "TARGET_DIGITS",
      "outputs": [
        {
          "internalType": "uint256",
          "name": "",
          "type": "uint256"
        }
      ],
      "stateMutability": "view",
      "type": "function"
    },
    {
      "inputs": [],
      "name": "TIMEOUT",
      "outputs": [
        {
          "internalType": "uint256",
          "name": "",
          "type": "uint256"
        }
      ],
      "stateMutability": "view",
      "type": "function"
    },
    {
      "inputs": [],
      "name": "fetchPrice",
      "outputs": [
        {
          "internalType": "uint256",
          "name": "price",
          "type": "uint256"
        }
      ],
      "stateMutability": "nonpayable",
      "type": "function"
    },
    {
      "inputs": [
        {
          "internalType": "address",
          "name": "_priceAggregatorAddress",
          "type": "address"
        },
        {
          "internalType": "address",
          "name": "_tellorCallerAddress",
          "type": "address"
        }
      ],
      "name": "initialize",
      "outputs": [],
      "stateMutability": "nonpayable",
      "type": "function"
    },
    {
      "inputs": [],
      "name": "lastGoodPrice",
      "outputs": [
        {
          "internalType": "uint256",
          "name": "",
          "type": "uint256"
        }
      ],
      "stateMutability": "view",
      "type": "function"
    },
    {
      "inputs": [],
      "name": "owner",
      "outputs": [
        {
          "internalType": "address",
          "name": "",
          "type": "address"
        }
      ],
      "stateMutability": "view",
      "type": "function"
    },
    {
      "inputs": [],
      "name": "priceAggregator",
      "outputs": [
        {
          "internalType": "contract AggregatorV3Interface",
          "name": "",
          "type": "address"
        }
      ],
      "stateMutability": "view",
      "type": "function"
    },
    {
      "inputs": [],
      "name": "renounceOwnership",
      "outputs": [],
      "stateMutability": "nonpayable",
      "type": "function"
    },
    {
      "inputs": [
        {
          "internalType": "int256",
          "name": "_price",
          "type": "int256"
        }
      ],
      "name": "setPrice",
      "outputs": [],
      "stateMutability": "nonpayable",
      "type": "function"
    },
    {
      "inputs": [
        {
          "internalType": "address",
          "name": "_aggregator",
          "type": "address"
        },
        {
          "internalType": "int256",
          "name": "_price",
          "type": "int256"
        }
      ],
      "name": "setPriceAggregator",
      "outputs": [],
      "stateMutability": "nonpayable",
      "type": "function"
    },
    {
      "inputs": [],
      "name": "status",
      "outputs": [
        {
          "internalType": "enum IPriceFeed.Status",
          "name": "",
          "type": "uint8"
        }
      ],
      "stateMutability": "view",
      "type": "function"
    },
    {
      "inputs": [],
      "name": "tellorCaller",
      "outputs": [
        {
          "internalType": "contract ITellorCaller",
          "name": "",
          "type": "address"
        }
      ],
      "stateMutability": "view",
      "type": "function"
    },
    {
      "inputs": [
        {
          "internalType": "address",
          "name": "newOwner",
          "type": "address"
        }
      ],
      "name": "transferOwnership",
      "outputs": [],
      "stateMutability": "nonpayable",
      "type": "function"
    }
  ],
  "bytecode": "0x60a06040523480156200001157600080fd5b506040516200180338038062001803833981810160405260208110156200003757600080fd5b50516000548190610100900460ff168062000057575062000057620000f0565b8062000066575060005460ff16155b620000a35760405162461bcd60e51b815260040180806020018281038252602e815260200180620017d5602e913960400191505060405180910390fd5b600054610100900460ff16158015620000cf576000805460ff1961ff0019909116610100171660011790555b60808290528015620000e7576000805461ff00191690555b50505062000114565b600062000108306200010e60201b62000b341760201c565b15905090565b3b151590565b6080516116a162000134600039806109225280610e5152506116a16000f3fe608060405234801561001057600080fd5b50600436106100eb5760003560e01c8063715018a611610092578063715018a6146101a75780637c61e3bf146101af5780638da5cb5b146101b7578063a20baee6146101bf578063a3f4df7e146101c7578063cda647db14610244578063f2fde38b14610270578063f56f48f214610296578063f7a308061461029e576100eb565b80630490be83146100f05780630fdb11cf1461010a5780631be5c92f14610112578063200d2ed21461011a5780633078fff51461014357806345079cb414610167578063485cc9551461016f57806358a6aa881461019f575b600080fd5b6100f86102bb565b60408051918252519081900360200190f35b6100f86102c1565b6100f86105d2565b6101226105d7565b6040518082600481111561013257fe5b815260200191505060405180910390f35b61014b6105e0565b604080516001600160a01b039092168252519081900360200190f35b6100f86105ef565b61019d6004803603604081101561018557600080fd5b506001600160a01b03813581169160200135166105fa565b005b6100f86106b0565b61019d6106bc565b61014b610756565b61014b610765565b6100f8610774565b6101cf610780565b6040805160208082528351818301528351919283929083019185019080838360005b838110156102095781810151838201526020016101f1565b50505050905090810190601f1680156102365780820380516001836020036101000a031916815260200191505b509250505060405180910390f35b61019d6004803603604081101561025a57600080fd5b506001600160a01b0381351690602001356107a5565b61019d6004803603602081101561028657600080fd5b50356001600160a01b031661082f565b6100f8610920565b61019d600480360360208110156102b457600080fd5b5035610944565b60675481565b6000806102cc610b3e565b905060006102d8610c8b565b9050600060685460ff1660048111156102ed57fe5b141561041a576102fc82610d3b565b156103595761030a81610da5565b15610325576103196002610dea565b606754925050506105cf565b61032e81610e4d565b1561033d576103196001610dea565b6103476001610dea565b61035081610e8e565b925050506105cf565b61036282610e4d565b156103a35761037081610da5565b1561037f576103196004610dea565b6103896003610dea565b61039281610e4d565b1561034757606754925050506105cf565b6103ac82610ea5565b156103f9576103ba81610da5565b156103c9576103196002610dea565b6103d281610e4d565b156103e1576103196001610dea565b6103eb8282610f1b565b1561033d5761035082610f89565b61040281610da5565b15610411576104116004610dea565b61035082610f89565b600160685460ff16600481111561042d57fe5b14156104645761043d8282610fac565b1561044c576104116000610dea565b61045581610da5565b15610389576103196002610dea565b600260685460ff16600481111561047757fe5b1415610496576104878282610fac565b15610319576104116000610dea565b600360685460ff1660048111156104a957fe5b1415610550576104b882610d3b565b156104df576104c681610da5565b156104d5576103196002610dea565b6103896001610dea565b6104e882610e4d565b15610505576104f681610da5565b15610389576103196004610dea565b61050e81610da5565b1561051d576104116004610dea565b61052681610e4d565b1561053757606754925050506105cf565b6105418282610f1b565b1561033d576104116000610dea565b600460685460ff16600481111561056357fe5b14156105cc5761057282610d3b565b15610581576103196002610dea565b61058a82610e4d565b1561059b57606754925050506105cf565b6105a58282610fac565b156105b4576104116000610dea565b6105bd82610ea5565b15610411576103196002610dea565b50505b90565b601281565b60685460ff1681565b6065546001600160a01b031681565b66b1a2bc2ec5000081565b600054610100900460ff16806106135750610613611002565b80610621575060005460ff16155b61065c5760405162461bcd60e51b815260040180806020018281038252602e8152602001806115ad602e913960400191505060405180910390fd5b600054610100900460ff16158015610687576000805460ff1961ff0019909116610100171660011790555b61068f611013565b61069983836110c5565b80156106ab576000805461ff00191690555b505050565b6706f05b59d3b2000081565b6106c4611183565b6001600160a01b03166106d5610765565b6001600160a01b03161461071e576040805162461bcd60e51b815260206004820181905260248201526000805160206115fc833981519152604482015290519081900360640190fd5b6033546040516000916001600160a01b03169060008051602061161c833981519152908390a3603380546001600160a01b0319169055565b6066546001600160a01b031681565b6033546001600160a01b031690565b670de0b6b3a764000081565b60405180604001604052806009815260200168141c9a58d95199595960ba1b81525081565b6107ad611183565b6001600160a01b03166107be610765565b6001600160a01b031614610807576040805162461bcd60e51b815260206004820181905260248201526000805160206115fc833981519152604482015290519081900360640190fd5b606580546001600160a01b0319166001600160a01b03841617905561082b81610944565b5050565b610837611183565b6001600160a01b0316610848610765565b6001600160a01b031614610891576040805162461bcd60e51b815260206004820181905260248201526000805160206115fc833981519152604482015290519081900360640190fd5b6001600160a01b0381166108d65760405162461bcd60e51b81526004018080602001828103825260268152602001806115876026913960400191505060405180910390fd5b6033546040516001600160a01b0380841692169060008051602061161c83398151915290600090a3603380546001600160a01b0319166001600160a01b0392909216919091179055565b7f000000000000000000000000000000000000000000000000000000000000000081565b61094c611183565b6001600160a01b031661095d610765565b6001600160a01b0316146109a6576040805162461bcd60e51b815260206004820181905260248201526000805160206115fc833981519152604482015290519081900360640190fd5b60655460408051637bd1840360e11b81526004810184905290516001600160a01b0390921691829163f7a3080691602480830192600092919082900301818387803b1580156109f457600080fd5b505af1158015610a08573d6000803e3d6000fd5b50505050806001600160a01b0316637a1395aa60126040518263ffffffff1660e01b815260040180828152602001915050600060405180830381600087803b158015610a5357600080fd5b505af1158015610a67573d6000803e3d6000fd5b50505050806001600160a01b0316637134b99060016040518263ffffffff1660e01b815260040180828152602001915050600060405180830381600087803b158015610ab257600080fd5b505af1158015610ac6573d6000803e3d6000fd5b5050604080516305d826a760e41b81526001600482015290516001600160a01b0385169350635d826a709250602480830192600092919082900301818387803b158015610b1257600080fd5b505af1158015610b26573d6000803e3d6000fd5b5050505061082b6000610dea565b803b15155b919050565b610b4661152c565b606560009054906101000a90046001600160a01b03166001600160a01b031663313ce5676040518163ffffffff1660e01b815260040160206040518083038186803b158015610b9457600080fd5b505afa925050508015610bb957506040513d6020811015610bb457600080fd5b505160015b610bc2576105cf565b60ff166080820152606560009054906101000a90046001600160a01b03166001600160a01b031663feaf968c6040518163ffffffff1660e01b815260040160a06040518083038186803b158015610c1857600080fd5b505afa925050508015610c5a57506040513d60a0811015610c3857600080fd5b5080516020820151604083015160608401516080909401519293919290919060015b610c63576105cf565b5069ffffffffffffffffffff90931684525060208301526040820152600160608201526105cf565b610c9361155a565b606660009054906101000a90046001600160a01b03166001600160a01b031663994338286040518163ffffffff1660e01b8152600401606060405180830381600087803b158015610ce357600080fd5b505af1925050508015610d1757506040513d6060811015610d0357600080fd5b508051602082015160409092015190919060015b610d20576105cf565b911515835260208301526040820152600160608201526105cf565b60008160600151610d4e57506001610b39565b815169ffffffffffffffffffff16610d6857506001610b39565b60408201511580610d7c5750428260400151115b15610d8957506001610b39565b6000826020015113610d9d57506001610b39565b506000919050565b60008160600151610db857506001610b39565b60408201511580610dcc5750428260400151115b15610dd957506001610b39565b6020820151610d9d57506001610b39565b6068805482919060ff19166001836004811115610e0357fe5b02179055507f5c57579a8214fe4f710c1c56fa829f045b9fa6d225a744225a30c32188064d4e8160405180826004811115610e3a57fe5b815260200191505060405180910390a150565b60007f0000000000000000000000000000000000000000000000000000000000000000610e8783604001514261118790919063ffffffff16565b1192915050565b6020810151600090610e9f816111e4565b92915050565b600080610ebd8360200151846080015160ff1661121f565b90506000610ecd82606754611264565b90506000610edd8360675461127a565b90506000610f0782610f01670de0b6b3a7640000610efb8388611187565b9061128a565b906112e3565b6706f05b59d3b20000109695505050505050565b600080610f338460200151856080015160ff1661121f565b60208401519091506000610f478284611264565b90506000610f55838561127a565b90506000610f7383610f01670de0b6b3a7640000610efb8684611187565b66b1a2bc2ec50000101598975050505050505050565b600080610fa18360200151846080015160ff1661121f565b9050610e9f816111e4565b6000610fb782610da5565b80610fc65750610fc682610e4d565b80610fd55750610fd583610d3b565b80610fe45750610fe483610e4d565b15610ff157506000610e9f565b610ffb8383610f1b565b9392505050565b600061100d30610b34565b15905090565b600054610100900460ff168061102c575061102c611002565b8061103a575060005460ff16155b6110755760405162461bcd60e51b815260040180806020018281038252602e8152602001806115ad602e913960400191505060405180910390fd5b600054610100900460ff161580156110a0576000805460ff1961ff0019909116610100171660011790555b6110a861134a565b6110b06113ea565b80156110c2576000805461ff00191690555b50565b6110ce826114d1565b6110d7816114d1565b606580546001600160a01b038481166001600160a01b03199283161790925560668054928416929091169190911790556068805460ff19169055600061111b610b3e565b905061112681610d3b565b158015611139575061113781610e4d565b155b6111745760405162461bcd60e51b815260040180806020018281038252603081526020018061163c6030913960400191505060405180910390fd5b61117d81610f89565b50505050565b3390565b6000828211156111de576040805162461bcd60e51b815260206004820152601e60248201527f536166654d6174683a207375627472616374696f6e206f766572666c6f770000604482015290519081900360640190fd5b50900390565b60678190556040805182815290517f4d29de21de555af78a62fc82dd4bc05e9ae5b0660a37f04729527e0f22780cd39181900360200190a150565b600080601283106112425761123b846011198501600a0a6112e3565b9050610ffb565b6012831015610ffb5761125c846012859003600a0a61128a565b949350505050565b60008183106112735781610ffb565b5090919050565b6000818310156112735781610ffb565b60008261129957506000610e9f565b828202828482816112a657fe5b0414610ffb5760405162461bcd60e51b81526004018080602001828103825260218152602001806115db6021913960400191505060405180910390fd5b6000808211611339576040805162461bcd60e51b815260206004820152601a60248201527f536166654d6174683a206469766973696f6e206279207a65726f000000000000604482015290519081900360640190fd5b81838161134257fe5b049392505050565b600054610100900460ff16806113635750611363611002565b80611371575060005460ff16155b6113ac5760405162461bcd60e51b815260040180806020018281038252602e8152602001806115ad602e913960400191505060405180910390fd5b600054610100900460ff161580156110b0576000805460ff1961ff00199091166101001716600117905580156110c2576000805461ff001916905550565b600054610100900460ff16806114035750611403611002565b80611411575060005460ff16155b61144c5760405162461bcd60e51b815260040180806020018281038252602e8152602001806115ad602e913960400191505060405180910390fd5b600054610100900460ff16158015611477576000805460ff1961ff0019909116610100171660011790555b6000611481611183565b603380546001600160a01b0319166001600160a01b0383169081179091556040519192509060009060008051602061161c833981519152908290a35080156110c2576000805461ff001916905550565b6001600160a01b0381166110c2576040805162461bcd60e51b815260206004820152601e60248201527f4163636f756e742063616e6e6f74206265207a65726f20616464726573730000604482015290519081900360640190fd5b6040805160a08101825260008082526020820181905291810182905260608101829052608081019190915290565b60405180608001604052806000151581526020016000815260200160008152602001600015158152509056fe4f776e61626c653a206e6577206f776e657220697320746865207a65726f2061646472657373496e697469616c697a61626c653a20636f6e747261637420697320616c726561647920696e697469616c697a6564536166654d6174683a206d756c7469706c69636174696f6e206f766572666c6f774f776e61626c653a2063616c6c6572206973206e6f7420746865206f776e65728be0079c531659141344cd1fd0a4f28419497f9722a3daafe3b4186f6b6457e05072696365466565643a20436861696e6c696e6b206d75737420626520776f726b696e6720616e642063757272656e74a2646970667358221220181dde22fe229ac33f0ed7a313afcf92e7c51aaab33f03f7aae2706a85e4889d64736f6c63430007060033496e697469616c697a61626c653a20636f6e747261637420697320616c726561647920696e697469616c697a6564",
  "linkReferences": {},
  "deployedLinkReferences": {}
}