{
  "_format": "hh-sol-artifact-1",
  "contractName": "MockAggregator",
  "sourceName": "contracts/TestContracts/MockAggregator.sol",
  "abi": [
    {
      "inputs": [],
      "name": "decimals",
      "outputs": [
        {
          "internalType": "uint8",
          "name": "",
          "type": "uint8"
        }
      ],
      "stateMutability": "view",
      "type": "function"
    },
    {
      "inputs": [],
      "name": "description",
      "outputs": [
        {
          "internalType": "string",
          "name": "",
          "type": "string"
        }
      ],
      "stateMutability": "pure",
      "type": "function"
    },
    {
      "inputs": [
        {
          "internalType": "uint80",
          "name": "",
          "type": "uint80"
        }
      ],
      "name": "getRoundData",
      "outputs": [
        {
          "internalType": "uint80",
          "name": "roundId",
          "type": "uint80"
        },
        {
          "internalType": "int256",
          "name": "answer",
          "type": "int256"
        },
        {
          "internalType": "uint256",
          "name": "startedAt",
          "type": "uint256"
        },
        {
          "internalType": "uint256",
          "name": "updatedAt",
          "type": "uint256"
        },
        {
          "internalType": "uint80",
          "name": "answeredInRound",
          "type": "uint80"
        }
      ],
      "stateMutability": "view",
      "type": "function"
    },
    {
      "inputs": [],
      "name": "latestRoundData",
      "outputs": [
        {
          "internalType": "uint80",
          "name": "roundId",
          "type": "uint80"
        },
        {
          "internalType": "int256",
          "name": "answer",
          "type": "int256"
        },
        {
          "internalType": "uint256",
          "name": "startedAt",
          "type": "uint256"
        },
        {
          "internalType": "uint256",
          "name": "updatedAt",
          "type": "uint256"
        },
        {
          "internalType": "uint80",
          "name": "answeredInRound",
          "type": "uint80"
        }
      ],
      "stateMutability": "view",
      "type": "function"
    },
    {
      "inputs": [
        {
          "internalType": "uint8",
          "name": "_decimals",
          "type": "uint8"
        }
      ],
      "name": "setDecimals",
      "outputs": [],
      "stateMutability": "nonpayable",
      "type": "function"
    },
    {
      "inputs": [],
      "name": "setDecimalsRevert",
      "outputs": [],
      "stateMutability": "nonpayable",
      "type": "function"
    },
    {
      "inputs": [],
      "name": "setLatestRevert",
      "outputs": [],
      "stateMutability": "nonpayable",
      "type": "function"
    },
    {
      "inputs": [
        {
          "internalType": "uint80",
          "name": "_latestRoundId",
          "type": "uint80"
        }
      ],
      "name": "setLatestRoundId",
      "outputs": [],
      "stateMutability": "nonpayable",
      "type": "function"
    },
    {
      "inputs": [],
      "name": "setPrevRevert",
      "outputs": [],
      "stateMutability": "nonpayable",
      "type": "function"
    },
    {
      "inputs": [
        {
          "internalType": "uint80",
          "name": "_prevRoundId",
          "type": "uint80"
        }
      ],
      "name": "setPrevRoundId",
      "outputs": [],
      "stateMutability": "nonpayable",
      "type": "function"
    },
    {
      "inputs": [
        {
          "internalType": "uint256",
          "name": "_prevUpdateTime",
          "type": "uint256"
        }
      ],
      "name": "setPrevUpdateTime",
      "outputs": [],
      "stateMutability": "nonpayable",
      "type": "function"
    },
    {
      "inputs": [
        {
          "internalType": "int256",
          "name": "_price",
          "type": "int256"
        }
      ],
      "name": "setPrice",
      "outputs": [],
      "stateMutability": "nonpayable",
      "type": "function"
    },
    {
      "inputs": [
        {
          "internalType": "uint256",
          "name": "_updateTime",
          "type": "uint256"
        }
      ],
      "name": "setUpdateTime",
      "outputs": [],
      "stateMutability": "nonpayable",
      "type": "function"
    },
    {
      "inputs": [
        {
          "internalType": "bool",
          "name": "_useBlockTimestamp",
          "type": "bool"
        }
      ],
      "name": "setUseBlockTimestamp",
      "outputs": [],
      "stateMutability": "nonpayable",
      "type": "function"
    },
    {
      "inputs": [],
      "name": "version",
      "outputs": [
        {
          "internalType": "uint256",
          "name": "",
          "type": "uint256"
        }
      ],
      "stateMutability": "pure",
      "type": "function"
    }
  ],
  "bytecode": "0x60806040526000805460ff1916600817905534801561001d57600080fd5b506105ed8061002d6000396000f3fe608060405234801561001057600080fd5b50600436106100d55760003560e01c80637394e789116100875780637394e789146101e657806375354ffa146102035780637a1395aa146102295780639a6fc8f514610249578063a68e5945146102b3578063bf73eea6146102bb578063f7a30806146102d8578063feaf968c146102f5576100d5565b806329ccf0cf146100da578063313ce567146100e457806354fd4d50146101025780635d826a701461011c57806366543a6c1461013b5780637134b990146101435780637284e41614610169575b600080fd5b6100e26102fd565b005b6100ec61031e565b6040805160ff9092168252519081900360200190f35b61010a61037e565b60408051918252519081900360200190f35b6100e26004803603602081101561013257600080fd5b50351515610383565b6100e26103a1565b6100e26004803603602081101561015957600080fd5b50356001600160501b03166103c2565b6101716103e7565b6040805160208082528351818301528351919283929083019185019080838360005b838110156101ab578181015183820152602001610193565b50505050905090810190601f1680156101d85780820380516001836020036101000a031916815260200191505b509250505060405180910390f35b6100e2600480360360208110156101fc57600080fd5b50356103f9565b6100e26004803603602081101561021957600080fd5b50356001600160501b03166103fe565b6100e26004803603602081101561023f57600080fd5b503560ff1661042d565b61026f6004803603602081101561025f57600080fd5b50356001600160501b0316610443565b60405180866001600160501b03168152602001858152602001848152602001838152602001826001600160501b031681526020019550505050505060405180910390f35b6100e26104e9565b6100e2600480360360208110156102d157600080fd5b503561050a565b6100e2600480360360208110156102ee57600080fd5b503561050f565b61026f610514565b6004805460ff60b01b198116600160b01b9182900460ff1615909102179055565b600454600090600160b01b900460ff1615610374576040805162461bcd60e51b8152602060048201526011602482015270191958da5b585b1cc81c995d995c9d1959607a1b604482015290519081900360640190fd5b5060005460ff1690565b600190565b60048054911515600160b81b0260ff60b81b19909216919091179055565b6004805460ff60a01b198116600160a01b9182900460ff1615909102179055565b6004805469ffffffffffffffffffff19166001600160501b0392909216919091179055565b60408051602081019091526000815290565b600355565b600480546001600160501b03909216600160501b0269ffffffffffffffffffff60501b19909216919091179055565b6000805460ff191660ff92909216919091179055565b6000806000806000600460159054906101000a900460ff16156104a5576040805162461bcd60e51b815260206004820152601560248201527419d95d149bdd5b9911185d18481c995d995c9d1959605a1b604482015290519081900360640190fd5b600454600160501b81046001600160501b0316906000908190600160b81b900460ff166104d4576002546104d6565b425b9299919850965090945060009350915050565b6004805460ff60a81b198116600160a81b9182900460ff1615909102179055565b600255565b600155565b6000806000806000600460149054906101000a900460ff1615610579576040805162461bcd60e51b81526020600482015260186024820152771b185d195cdd149bdd5b9911185d18481c995d995c9d195960421b604482015290519081900360640190fd5b6004546001546001600160501b03821691600090600160b81b900460ff166105a3576002546105a5565b425b9298919750955090935060009250905056fea2646970667358221220d5d5a057c1a070665ce7c06d0190fd46bcefadacdc8026ce8d0b6d2cf401842664736f6c63430007060033",
  "linkReferences": {},
  "deployedLinkReferences": {}
}