{
  "_format": "hh-sol-artifact-1",
  "contractName": "MockPriceFeed",
  "sourceName": "contracts/TestContracts/MockPriceFeed.sol",
  "abi": [
    {
      "anonymous": false,
      "inputs": [
        {
          "indexed": false,
          "internalType": "uint256",
          "name": "_lastGoodPrice",
          "type": "uint256"
        }
      ],
      "name": "LastGoodPriceUpdated",
      "type": "event"
    },
    {
      "anonymous": false,
      "inputs": [
        {
          "indexed": true,
          "internalType": "address",
          "name": "previousOwner",
          "type": "address"
        },
        {
          "indexed": true,
          "internalType": "address",
          "name": "newOwner",
          "type": "address"
        }
      ],
      "name": "OwnershipTransferred",
      "type": "event"
    },
    {
      "anonymous": false,
      "inputs": [
        {
          "indexed": false,
          "internalType": "enum IPriceFeed.Status",
          "name": "newStatus",
          "type": "uint8"
        }
      ],
      "name": "PriceFeedStatusChanged",
      "type": "event"
    },
    {
      "inputs": [],
      "name": "DECIMAL_PRECISION",
      "outputs": [
        {
          "internalType": "uint256",
          "name": "",
          "type": "uint256"
        }
      ],
      "stateMutability": "view",
      "type": "function"
    },
    {
      "inputs": [],
      "name": "MAX_PRICE_DEVIATION_FROM_PREVIOUS_ROUND",
      "outputs": [
        {
          "internalType": "uint256",
          "name": "",
          "type": "uint256"
        }
      ],
      "stateMutability": "view",
      "type": "function"
    },
    {
      "inputs": [],
      "name": "MAX_PRICE_DIFFERENCE_BETWEEN_ORACLES",
      "outputs": [
        {
          "internalType": "uint256",
          "name": "",
          "type": "uint256"
        }
      ],
      "stateMutability": "view",
      "type": "function"
    },
    {
      "inputs": [],
      "name": "NAME",
      "outputs": [
        {
          "internalType": "string",
          "name": "",
          "type": "string"
        }
      ],
      "stateMutability": "view",
      "type": "function"
    },
    {
      "inputs": [],
      "name": "TARGET_DIGITS",
      "outputs": [
        {
          "internalType": "uint256",
          "name": "",
          "type": "uint256"
        }
      ],
      "stateMutability": "view",
      "type": "function"
    },
    {
      "inputs": [],
      "name": "TELLOR_DIGITS",
      "outputs": [
        {
          "internalType": "uint256",
          "name": "",
          "type": "uint256"
        }
      ],
      "stateMutability": "view",
      "type": "function"
    },
    {
      "inputs": [],
      "name": "TIMEOUT",
      "outputs": [
        {
          "internalType": "uint256",
          "name": "",
          "type": "uint256"
        }
      ],
      "stateMutability": "view",
      "type": "function"
    },
    {
      "inputs": [],
      "name": "fetchPrice",
      "outputs": [
        {
          "internalType": "uint256",
          "name": "price",
          "type": "uint256"
        }
      ],
      "stateMutability": "nonpayable",
      "type": "function"
    },
    {
      "inputs": [
        {
          "internalType": "address",
          "name": "_priceAggregatorAddress",
          "type": "address"
        },
        {
          "internalType": "address",
          "name": "_tellorCallerAddress",
          "type": "address"
        }
      ],
      "name": "initialize",
      "outputs": [],
      "stateMutability": "nonpayable",
      "type": "function"
    },
    {
      "inputs": [],
      "name": "lastGoodPrice",
      "outputs": [
        {
          "internalType": "uint256",
          "name": "",
          "type": "uint256"
        }
      ],
      "stateMutability": "view",
      "type": "function"
    },
    {
      "inputs": [],
      "name": "owner",
      "outputs": [
        {
          "internalType": "address",
          "name": "",
          "type": "address"
        }
      ],
      "stateMutability": "view",
      "type": "function"
    },
    {
      "inputs": [],
      "name": "priceAggregator",
      "outputs": [
        {
          "internalType": "contract AggregatorV3Interface",
          "name": "",
          "type": "address"
        }
      ],
      "stateMutability": "view",
      "type": "function"
    },
    {
      "inputs": [],
      "name": "renounceOwnership",
      "outputs": [],
      "stateMutability": "nonpayable",
      "type": "function"
    },
    {
      "inputs": [
        {
          "internalType": "int256",
          "name": "_price",
          "type": "int256"
        }
      ],
      "name": "setPrice",
      "outputs": [],
      "stateMutability": "nonpayable",
      "type": "function"
    },
    {
      "inputs": [
        {
          "internalType": "address",
          "name": "_aggregator",
          "type": "address"
        },
        {
          "internalType": "int256",
          "name": "_price",
          "type": "int256"
        }
      ],
      "name": "setPriceAggregator",
      "outputs": [],
      "stateMutability": "nonpayable",
      "type": "function"
    },
    {
      "inputs": [],
      "name": "status",
      "outputs": [
        {
          "internalType": "enum IPriceFeed.Status",
          "name": "",
          "type": "uint8"
        }
      ],
      "stateMutability": "view",
      "type": "function"
    },
    {
      "inputs": [],
      "name": "tellorCaller",
      "outputs": [
        {
          "internalType": "contract ITellorCaller",
          "name": "",
          "type": "address"
        }
      ],
      "stateMutability": "view",
      "type": "function"
    },
    {
      "inputs": [
        {
          "internalType": "address",
          "name": "newOwner",
          "type": "address"
        }
      ],
      "name": "transferOwnership",
      "outputs": [],
      "stateMutability": "nonpayable",
      "type": "function"
    }
  ],
  "bytecode": "0x608060405234801561001057600080fd5b506114c4806100206000396000f3fe608060405234801561001057600080fd5b50600436106100f65760003560e01c80637c61e3bf116100925780637c61e3bf146101ba5780638da5cb5b146101c2578063a20baee6146101ca578063a3f4df7e146101d2578063cda647db1461024f578063ebf8e6c61461011d578063f2fde38b1461027b578063f56f48f2146102a1578063f7a30806146102a9576100f6565b80630490be83146100fb5780630fdb11cf146101155780631be5c92f1461011d578063200d2ed2146101255780633078fff51461014e57806345079cb414610172578063485cc9551461017a57806358a6aa88146101aa578063715018a6146101b2575b600080fd5b6101036102c6565b60408051918252519081900360200190f35b6101036102cc565b61010361056f565b61012d610574565b6040518082600481111561013d57fe5b815260200191505060405180910390f35b61015661057d565b604080516001600160a01b039092168252519081900360200190f35b61010361058c565b6101a86004803603604081101561019057600080fd5b506001600160a01b0381358116916020013516610597565b005b61010361064d565b6101a8610659565b6101566106f3565b610156610702565b610103610711565b6101da61071d565b6040805160208082528351818301528351919283929083019185019080838360005b838110156102145781810151838201526020016101fc565b50505050905090810190601f1680156102415780820380516001836020036101000a031916815260200191505b509250505060405180910390f35b6101a86004803603604081101561026557600080fd5b506001600160a01b038135169060200135610742565b6101a86004803603602081101561029157600080fd5b50356001600160a01b03166107cc565b6101036108bd565b6101a8600480360360208110156102bf57600080fd5b50356108c3565b60695481565b6000806102d7610a54565b905060006102e3610ba1565b90506000606a5460ff1660048111156102f857fe5b14156103cf5761030782610c4f565b156103645761031581610cba565b15610330576103246002610cff565b6069549250505061056c565b61033981610d62565b15610348576103246001610cff565b6103526001610cff565b61035b81610d85565b9250505061056c565b61036d82610d62565b156103ae5761037b81610cba565b1561038a576103246004610cff565b6103946003610cff565b61039d81610d62565b15610352576069549250505061056c565b6103b781610cba565b156103c6576103c66004610cff565b61035b82610da6565b6001606a5460ff1660048111156103e257fe5b1415610419576103f28282610dbe565b15610401576103c66000610cff565b61040a81610cba565b15610394576103246002610cff565b6002606a5460ff16600481111561042c57fe5b141561044b5761043c8282610dbe565b15610324576103c66000610cff565b6003606a5460ff16600481111561045e57fe5b14156105055761046d82610c4f565b156104945761047b81610cba565b1561048a576103246002610cff565b6103946001610cff565b61049d82610d62565b156104ba576104ab81610cba565b15610394576103246004610cff565b6104c381610cba565b156104d2576103c66004610cff565b6104db81610d62565b156104ec576069549250505061056c565b6104f68282610e14565b15610348576103c66000610cff565b6004606a5460ff16600481111561051857fe5b14156105695761052782610c4f565b15610536576103246002610cff565b61053f82610d62565b15610550576069549250505061056c565b61055a8282610dbe565b156103c6576103c66000610cff565b50505b90565b601281565b606a5460ff1681565b6065546001600160a01b031681565b66b1a2bc2ec5000081565b600054610100900460ff16806105b057506105b0610e99565b806105be575060005460ff16155b6105f95760405162461bcd60e51b815260040180806020018281038252602e815260200180611400602e913960400191505060405180910390fd5b600054610100900460ff16158015610624576000805460ff1961ff0019909116610100171660011790555b61062c610eaa565b6106368383610f5c565b8015610648576000805461ff00191690555b505050565b6706f05b59d3b2000081565b610661610fc3565b6001600160a01b0316610672610702565b6001600160a01b0316146106bb576040805162461bcd60e51b8152602060048201819052602482015260008051602061144f833981519152604482015290519081900360640190fd5b6033546040516000916001600160a01b03169060008051602061146f833981519152908390a3603380546001600160a01b0319169055565b6066546001600160a01b031681565b6033546001600160a01b031690565b670de0b6b3a764000081565b60405180604001604052806009815260200168141c9a58d95199595960ba1b81525081565b61074a610fc3565b6001600160a01b031661075b610702565b6001600160a01b0316146107a4576040805162461bcd60e51b8152602060048201819052602482015260008051602061144f833981519152604482015290519081900360640190fd5b606580546001600160a01b0319166001600160a01b0384161790556107c8816108c3565b5050565b6107d4610fc3565b6001600160a01b03166107e5610702565b6001600160a01b03161461082e576040805162461bcd60e51b8152602060048201819052602482015260008051602061144f833981519152604482015290519081900360640190fd5b6001600160a01b0381166108735760405162461bcd60e51b81526004018080602001828103825260268152602001806113da6026913960400191505060405180910390fd5b6033546040516001600160a01b0380841692169060008051602061146f83398151915290600090a3603380546001600160a01b0319166001600160a01b0392909216919091179055565b61384081565b6108cb610fc3565b6001600160a01b03166108dc610702565b6001600160a01b031614610925576040805162461bcd60e51b8152602060048201819052602482015260008051602061144f833981519152604482015290519081900360640190fd5b60655460408051637bd1840360e11b81526004810184905290516001600160a01b0390921691829163f7a3080691602480830192600092919082900301818387803b15801561097357600080fd5b505af1158015610987573d6000803e3d6000fd5b50505050806001600160a01b0316637134b99060016040518263ffffffff1660e01b815260040180828152602001915050600060405180830381600087803b1580156109d257600080fd5b505af11580156109e6573d6000803e3d6000fd5b5050604080516305d826a760e41b81526001600482015290516001600160a01b0385169350635d826a709250602480830192600092919082900301818387803b158015610a3257600080fd5b505af1158015610a46573d6000803e3d6000fd5b505050506107c86000610cff565b610a5c61137f565b606560009054906101000a90046001600160a01b03166001600160a01b031663313ce5676040518163ffffffff1660e01b815260040160206040518083038186803b158015610aaa57600080fd5b505afa925050508015610acf57506040513d6020811015610aca57600080fd5b505160015b610ad85761056c565b60ff166080820152606560009054906101000a90046001600160a01b03166001600160a01b031663feaf968c6040518163ffffffff1660e01b815260040160a06040518083038186803b158015610b2e57600080fd5b505afa925050508015610b7057506040513d60a0811015610b4e57600080fd5b5080516020820151604083015160608401516080909401519293919290919060015b610b795761056c565b5069ffffffffffffffffffff909316845250602083015260408201526001606082015261056c565b610ba96113ad565b606660009054906101000a90046001600160a01b03166001600160a01b031663994338286040518163ffffffff1660e01b815260040160606040518083038186803b158015610bf757600080fd5b505afa925050508015610c2b57506040513d6060811015610c1757600080fd5b508051602082015160409092015190919060015b610c345761056c565b9115158352602083015260408201526001606082015261056c565b60008160600151610c6257506001610cb5565b815169ffffffffffffffffffff16610c7c57506001610cb5565b60408201511580610c905750428260400151115b15610c9d57506001610cb5565b6000826020015113610cb157506001610cb5565b5060005b919050565b60008160600151610ccd57506001610cb5565b60408201511580610ce15750428260400151115b15610cee57506001610cb5565b6020820151610cb157506001610cb5565b606a805482919060ff19166001836004811115610d1857fe5b02179055507f5c57579a8214fe4f710c1c56fa829f045b9fa6d225a744225a30c32188064d4e8160405180826004811115610d4f57fe5b815260200191505060405180910390a150565b6000613840610d7e836040015142610fc790919063ffffffff16565b1192915050565b600080610d958360200151611024565b9050610da081611031565b92915050565b600080610d958360200151846080015160ff1661106c565b6000610dc982610cba565b80610dd85750610dd882610d62565b80610de75750610de783610c4f565b80610df65750610df683610d62565b15610e0357506000610da0565b610e0d8383610e14565b9392505050565b600080610e2c8460200151856080015160ff1661106c565b90506000610e3d8460200151611024565b90506000610e4b82846110b1565b90506000610e5983856110c7565b90506000610e8383610e7d670de0b6b3a7640000610e778684610fc7565b906110d7565b90611130565b66b1a2bc2ec50000101598975050505050505050565b6000610ea430611197565b15905090565b600054610100900460ff1680610ec35750610ec3610e99565b80610ed1575060005460ff16155b610f0c5760405162461bcd60e51b815260040180806020018281038252602e815260200180611400602e913960400191505060405180910390fd5b600054610100900460ff16158015610f37576000805460ff1961ff0019909116610100171660011790555b610f3f61119d565b610f4761123d565b8015610f59576000805461ff00191690555b50565b610f6582611324565b610f6e81611324565b606580546001600160a01b038481166001600160a01b0319928316179092556066805492841692909116919091179055606a805460ff191690556000610fb2610a54565b9050610fbd81610da6565b50505050565b3390565b60008282111561101e576040805162461bcd60e51b815260206004820152601e60248201527f536166654d6174683a207375627472616374696f6e206f766572666c6f770000604482015290519081900360640190fd5b50900390565b6000610da08260016110d7565b60698190556040805182815290517f4d29de21de555af78a62fc82dd4bc05e9ae5b0660a37f04729527e0f22780cd39181900360200190a150565b6000806012831061108f57611088846011198501600a0a611130565b9050610e0d565b6012831015610e0d576110a9846012859003600a0a6110d7565b949350505050565b60008183106110c05781610e0d565b5090919050565b6000818310156110c05781610e0d565b6000826110e657506000610da0565b828202828482816110f357fe5b0414610e0d5760405162461bcd60e51b815260040180806020018281038252602181526020018061142e6021913960400191505060405180910390fd5b6000808211611186576040805162461bcd60e51b815260206004820152601a60248201527f536166654d6174683a206469766973696f6e206279207a65726f000000000000604482015290519081900360640190fd5b81838161118f57fe5b049392505050565b3b151590565b600054610100900460ff16806111b657506111b6610e99565b806111c4575060005460ff16155b6111ff5760405162461bcd60e51b815260040180806020018281038252602e815260200180611400602e913960400191505060405180910390fd5b600054610100900460ff16158015610f47576000805460ff1961ff0019909116610100171660011790558015610f59576000805461ff001916905550565b600054610100900460ff16806112565750611256610e99565b80611264575060005460ff16155b61129f5760405162461bcd60e51b815260040180806020018281038252602e815260200180611400602e913960400191505060405180910390fd5b600054610100900460ff161580156112ca576000805460ff1961ff0019909116610100171660011790555b60006112d4610fc3565b603380546001600160a01b0319166001600160a01b0383169081179091556040519192509060009060008051602061146f833981519152908290a3508015610f59576000805461ff001916905550565b6001600160a01b038116610f59576040805162461bcd60e51b815260206004820152601e60248201527f4163636f756e742063616e6e6f74206265207a65726f20616464726573730000604482015290519081900360640190fd5b6040805160a08101825260008082526020820181905291810182905260608101829052608081019190915290565b60405180608001604052806000151581526020016000815260200160008152602001600015158152509056fe4f776e61626c653a206e6577206f776e657220697320746865207a65726f2061646472657373496e697469616c697a61626c653a20636f6e747261637420697320616c726561647920696e697469616c697a6564536166654d6174683a206d756c7469706c69636174696f6e206f766572666c6f774f776e61626c653a2063616c6c6572206973206e6f7420746865206f776e65728be0079c531659141344cd1fd0a4f28419497f9722a3daafe3b4186f6b6457e0a26469706673582212206a41fcf601ac050eb0ebf0236d8d2eb375d72f2fd423921e242c4ac5b6908f4c64736f6c63430007060033",
  "linkReferences": {},
  "deployedLinkReferences": {}
}