{
  "_format": "hh-sol-artifact-1",
  "contractName": "MultiTroveGetter",
  "sourceName": "contracts/MultiTroveGetter.sol",
  "abi": [
    {
      "inputs": [
        {
          "internalType": "contract ITroveManager",
          "name": "_troveManager",
          "type": "address"
        },
        {
          "internalType": "contract ISortedTroves",
          "name": "_sortedTroves",
          "type": "address"
        }
      ],
      "stateMutability": "nonpayable",
      "type": "constructor"
    },
    {
      "inputs": [
        {
          "internalType": "int256",
          "name": "_startIdx",
          "type": "int256"
        },
        {
          "internalType": "uint256",
          "name": "_count",
          "type": "uint256"
        }
      ],
      "name": "getMultipleSortedTroves",
      "outputs": [
        {
          "components": [
            {
              "internalType": "address",
              "name": "owner",
              "type": "address"
            },
            {
              "internalType": "uint256",
              "name": "debt",
              "type": "uint256"
            },
            {
              "internalType": "uint256",
              "name": "coll",
              "type": "uint256"
            },
            {
              "internalType": "uint256",
              "name": "stake",
              "type": "uint256"
            },
            {
              "internalType": "uint256",
              "name": "snapshotFIL",
              "type": "uint256"
            },
            {
              "internalType": "uint256",
              "name": "snapshotDebt",
              "type": "uint256"
            }
          ],
          "internalType": "struct MultiTroveGetter.CombinedTroveData[]",
          "name": "_troves",
          "type": "tuple[]"
        }
      ],
      "stateMutability": "view",
      "type": "function"
    },
    {
      "inputs": [],
      "name": "sortedTroves",
      "outputs": [
        {
          "internalType": "contract ISortedTroves",
          "name": "",
          "type": "address"
        }
      ],
      "stateMutability": "view",
      "type": "function"
    },
    {
      "inputs": [],
      "name": "troveManager",
      "outputs": [
        {
          "internalType": "contract ITroveManager",
          "name": "",
          "type": "address"
        }
      ],
      "stateMutability": "view",
      "type": "function"
    }
  ],
  "bytecode": "0x60c060405234801561001057600080fd5b50604051610d62380380610d6283398101604081905261002f9161004d565b6001600160601b0319606092831b8116608052911b1660a05261009e565b6000806040838503121561005f578182fd5b825161006a81610086565b602084015190925061007b81610086565b809150509250929050565b6001600160a01b038116811461009b57600080fd5b50565b60805160601c60a05160601c610c676100fb6000398060b2528060fe528061021352806102c652806105ab528061064852806106fb52806109e0525080608e52806103e952806104da528061081e528061090f5250610c676000f3fe608060405234801561001057600080fd5b50600436106100415760003560e01c80633d83908a14610046578063ae91875414610064578063b90bce451461006c575b600080fd5b61004e61008c565b60405161005b9190610b9c565b60405180910390f35b61004e6100b0565b61007f61007a366004610adc565b6100d4565b60405161005b9190610bb0565b7f000000000000000000000000000000000000000000000000000000000000000081565b7f000000000000000000000000000000000000000000000000000000000000000081565b6060600080600085126100ec575083905060016100fa565b846001016000039150600090505b60007f00000000000000000000000000000000000000000000000000000000000000006001600160a01b031663de8fa4316040518163ffffffff1660e01b815260040160206040518083038186803b15801561015557600080fd5b505afa158015610169573d6000803e3d6000fd5b505050506040513d601f19601f8201168201806040525081019061018d9190610afd565b90508083106101cf5760408051600080825260208201909252906101c7565b6101b4610a6f565b8152602001906001900390816101ac5790505b509350610204565b828103808611156101de578095505b82156101f5576101ee848761020d565b9450610202565b6101ff8487610642565b94505b505b50505092915050565b606060007f00000000000000000000000000000000000000000000000000000000000000006001600160a01b0316631e2231436040518163ffffffff1660e01b815260040160206040518083038186803b15801561026a57600080fd5b505afa15801561027e573d6000803e3d6000fd5b505050506040513d601f19601f820116820180604052508101906102a29190610aae565b905060005b848110156103555760405163765e015960e01b81526001600160a01b037f0000000000000000000000000000000000000000000000000000000000000000169063765e0159906102fb908590600401610b9c565b60206040518083038186803b15801561031357600080fd5b505afa158015610327573d6000803e3d6000fd5b505050506040513d601f19601f8201168201806040525081019061034b9190610aae565b91506001016102a7565b508267ffffffffffffffff8111801561036d57600080fd5b506040519080825280602002602001820160405280156103a757816020015b610394610a6f565b81526020019060019003908161038c5790505b50915060005b8381101561063a57818382815181106103c257fe5b60209081029190910101516001600160a01b039182169052604051630ddec86760e31b81527f000000000000000000000000000000000000000000000000000000000000000090911690636ef6433890610420908590600401610b9c565b60a06040518083038186803b15801561043857600080fd5b505afa15801561044c573d6000803e3d6000fd5b505050506040513d601f19601f820116820180604052508101906104709190610b38565b90505085848151811061047f57fe5b602002602001015160200186858151811061049657fe5b60200260200101516040018786815181106104ad57fe5b60209081029190910101516060019290925291905252604051630b39e3cd60e11b81526001600160a01b037f00000000000000000000000000000000000000000000000000000000000000001690631673c79a9061050f908590600401610b9c565b604080518083038186803b15801561052657600080fd5b505afa15801561053a573d6000803e3d6000fd5b505050506040513d601f19601f8201168201806040525081019061055e9190610b15565b84838151811061056a57fe5b602002602001015160800185848151811061058157fe5b602090810291909101015160a001919091525260405163765e015960e01b81526001600160a01b037f0000000000000000000000000000000000000000000000000000000000000000169063765e0159906105e0908590600401610b9c565b60206040518083038186803b1580156105f857600080fd5b505afa15801561060c573d6000803e3d6000fd5b505050506040513d601f19601f820116820180604052508101906106309190610aae565b91506001016103ad565b505092915050565b606060007f00000000000000000000000000000000000000000000000000000000000000006001600160a01b0316634d6228316040518163ffffffff1660e01b815260040160206040518083038186803b15801561069f57600080fd5b505afa1580156106b3573d6000803e3d6000fd5b505050506040513d601f19601f820116820180604052508101906106d79190610aae565b905060005b8481101561078a57604051632dc9c0eb60e21b81526001600160a01b037f0000000000000000000000000000000000000000000000000000000000000000169063b72703ac90610730908590600401610b9c565b60206040518083038186803b15801561074857600080fd5b505afa15801561075c573d6000803e3d6000fd5b505050506040513d601f19601f820116820180604052508101906107809190610aae565b91506001016106dc565b508267ffffffffffffffff811180156107a257600080fd5b506040519080825280602002602001820160405280156107dc57816020015b6107c9610a6f565b8152602001906001900390816107c15790505b50915060005b8381101561063a57818382815181106107f757fe5b60209081029190910101516001600160a01b039182169052604051630ddec86760e31b81527f000000000000000000000000000000000000000000000000000000000000000090911690636ef6433890610855908590600401610b9c565b60a06040518083038186803b15801561086d57600080fd5b505afa158015610881573d6000803e3d6000fd5b505050506040513d601f19601f820116820180604052508101906108a59190610b38565b9050508584815181106108b457fe5b60200260200101516020018685815181106108cb57fe5b60200260200101516040018786815181106108e257fe5b60209081029190910101516060019290925291905252604051630b39e3cd60e11b81526001600160a01b037f00000000000000000000000000000000000000000000000000000000000000001690631673c79a90610944908590600401610b9c565b604080518083038186803b15801561095b57600080fd5b505afa15801561096f573d6000803e3d6000fd5b505050506040513d601f19601f820116820180604052508101906109939190610b15565b84838151811061099f57fe5b60200260200101516080018584815181106109b657fe5b602090810291909101015160a0019190915252604051632dc9c0eb60e21b81526001600160a01b037f0000000000000000000000000000000000000000000000000000000000000000169063b72703ac90610a15908590600401610b9c565b60206040518083038186803b158015610a2d57600080fd5b505afa158015610a41573d6000803e3d6000fd5b505050506040513d601f19601f82011682018060405250810190610a659190610aae565b91506001016107e2565b6040518060c0016040528060006001600160a01b0316815260200160008152602001600081526020016000815260200160008152602001600081525090565b600060208284031215610abf578081fd5b81516001600160a01b0381168114610ad5578182fd5b9392505050565b60008060408385031215610aee578081fd5b50508035926020909101359150565b600060208284031215610b0e578081fd5b5051919050565b60008060408385031215610b27578182fd5b505080516020909101519092909150565b600080600080600060a08688031215610b4f578081fd5b855194506020860151935060408601519250606086015160058110610b72578182fd5b60808701519092506001600160801b0381168114610b8e578182fd5b809150509295509295909350565b6001600160a01b0391909116815260200190565b602080825282518282018190526000919060409081850190868401855b82811015610c2457815180516001600160a01b0316855286810151878601528581015186860152606080820151908601526080808201519086015260a0908101519085015260c09093019290850190600101610bcd565b509197965050505050505056fea26469706673582212205cd0eb26cf961af46a3faefb9206b4e565a0d4de62a86b74e67ee10dc2d4523364736f6c63430007060033",
  "linkReferences": {},
  "deployedLinkReferences": {}
}