{
  "_format": "hh-sol-artifact-1",
  "contractName": "Ownable",
  "sourceName": "contracts/Dependencies/Ownable.sol",
  "abi": [
    {
      "inputs": [],
      "stateMutability": "nonpayable",
      "type": "constructor"
    },
    {
      "anonymous": false,
      "inputs": [
        {
          "indexed": true,
          "internalType": "address",
          "name": "previousOwner",
          "type": "address"
        },
        {
          "indexed": true,
          "internalType": "address",
          "name": "newOwner",
          "type": "address"
        }
      ],
      "name": "OwnershipTransferred",
      "type": "event"
    },
    {
      "inputs": [],
      "name": "isOwner",
      "outputs": [
        {
          "internalType": "bool",
          "name": "",
          "type": "bool"
        }
      ],
      "stateMutability": "view",
      "type": "function"
    },
    {
      "inputs": [],
      "name": "owner",
      "outputs": [
        {
          "internalType": "address",
          "name": "",
          "type": "address"
        }
      ],
      "stateMutability": "view",
      "type": "function"
    }
  ],
  "bytecode": "0x608060405234801561001057600080fd5b50600080546001600160a01b0319163390811782556040519091907f8be0079c531659141344cd1fd0a4f28419497f9722a3daafe3b4186f6b6457e0908290a360c98061005e6000396000f3fe6080604052348015600f57600080fd5b506004361060325760003560e01c80638da5cb5b1460375780638f32d59b146059575b600080fd5b603d6073565b604080516001600160a01b039092168252519081900360200190f35b605f6082565b604080519115158252519081900360200190f35b6000546001600160a01b031690565b6000546001600160a01b031633149056fea264697066735822122022f13798123ea9428fa0074f5f3615336d258c20853d5d34848a5726bf909bf364736f6c63430007060033",
  "linkReferences": {},
  "deployedLinkReferences": {}
}