{
  "_format": "hh-sol-artifact-1",
  "contractName": "PriceFeed",
  "sourceName": "contracts/PriceFeed.sol",
  "abi": [
    {
      "inputs": [
        {
          "internalType": "uint256",
          "name": "_timeout",
          "type": "uint256"
        }
      ],
      "stateMutability": "nonpayable",
      "type": "constructor"
    },
    {
      "anonymous": false,
      "inputs": [
        {
          "indexed": false,
          "internalType": "uint256",
          "name": "_lastGoodPrice",
          "type": "uint256"
        }
      ],
      "name": "LastGoodPriceUpdated",
      "type": "event"
    },
    {
      "anonymous": false,
      "inputs": [
        {
          "indexed": true,
          "internalType": "address",
          "name": "previousOwner",
          "type": "address"
        },
        {
          "indexed": true,
          "internalType": "address",
          "name": "newOwner",
          "type": "address"
        }
      ],
      "name": "OwnershipTransferred",
      "type": "event"
    },
    {
      "anonymous": false,
      "inputs": [
        {
          "indexed": false,
          "internalType": "enum IPriceFeed.Status",
          "name": "newStatus",
          "type": "uint8"
        }
      ],
      "name": "PriceFeedStatusChanged",
      "type": "event"
    },
    {
      "inputs": [],
      "name": "DECIMAL_PRECISION",
      "outputs": [
        {
          "internalType": "uint256",
          "name": "",
          "type": "uint256"
        }
      ],
      "stateMutability": "view",
      "type": "function"
    },
    {
      "inputs": [],
      "name": "MAX_PRICE_DIFFERENCE_BETWEEN_ORACLES",
      "outputs": [
        {
          "internalType": "uint256",
          "name": "",
          "type": "uint256"
        }
      ],
      "stateMutability": "view",
      "type": "function"
    },
    {
      "inputs": [],
      "name": "NAME",
      "outputs": [
        {
          "internalType": "string",
          "name": "",
          "type": "string"
        }
      ],
      "stateMutability": "view",
      "type": "function"
    },
    {
      "inputs": [],
      "name": "TARGET_DIGITS",
      "outputs": [
        {
          "internalType": "uint256",
          "name": "",
          "type": "uint256"
        }
      ],
      "stateMutability": "view",
      "type": "function"
    },
    {
      "inputs": [],
      "name": "TELLOR_DIGITS",
      "outputs": [
        {
          "internalType": "uint256",
          "name": "",
          "type": "uint256"
        }
      ],
      "stateMutability": "view",
      "type": "function"
    },
    {
      "inputs": [],
      "name": "TIMEOUT",
      "outputs": [
        {
          "internalType": "uint256",
          "name": "",
          "type": "uint256"
        }
      ],
      "stateMutability": "view",
      "type": "function"
    },
    {
      "inputs": [],
      "name": "fetchPrice",
      "outputs": [
        {
          "internalType": "uint256",
          "name": "price",
          "type": "uint256"
        }
      ],
      "stateMutability": "nonpayable",
      "type": "function"
    },
    {
      "inputs": [
        {
          "internalType": "address",
          "name": "_priceAggregatorAddress",
          "type": "address"
        },
        {
          "internalType": "address",
          "name": "_tellorCallerAddress",
          "type": "address"
        }
      ],
      "name": "initialize",
      "outputs": [],
      "stateMutability": "nonpayable",
      "type": "function"
    },
    {
      "inputs": [],
      "name": "lastGoodPrice",
      "outputs": [
        {
          "internalType": "uint256",
          "name": "",
          "type": "uint256"
        }
      ],
      "stateMutability": "view",
      "type": "function"
    },
    {
      "inputs": [],
      "name": "owner",
      "outputs": [
        {
          "internalType": "address",
          "name": "",
          "type": "address"
        }
      ],
      "stateMutability": "view",
      "type": "function"
    },
    {
      "inputs": [],
      "name": "priceAggregator",
      "outputs": [
        {
          "internalType": "contract AggregatorV3Interface",
          "name": "",
          "type": "address"
        }
      ],
      "stateMutability": "view",
      "type": "function"
    },
    {
      "inputs": [],
      "name": "renounceOwnership",
      "outputs": [],
      "stateMutability": "nonpayable",
      "type": "function"
    },
    {
      "inputs": [],
      "name": "status",
      "outputs": [
        {
          "internalType": "enum IPriceFeed.Status",
          "name": "",
          "type": "uint8"
        }
      ],
      "stateMutability": "view",
      "type": "function"
    },
    {
      "inputs": [],
      "name": "tellorCaller",
      "outputs": [
        {
          "internalType": "contract ITellorCaller",
          "name": "",
          "type": "address"
        }
      ],
      "stateMutability": "view",
      "type": "function"
    },
    {
      "inputs": [
        {
          "internalType": "address",
          "name": "newOwner",
          "type": "address"
        }
      ],
      "name": "transferOwnership",
      "outputs": [],
      "stateMutability": "nonpayable",
      "type": "function"
    }
  ],
  "bytecode": "0x60a060405234801561001057600080fd5b506040516112c23803806112c28339818101604052602081101561003357600080fd5b505160805260805161126b610057600039806107db5280610b0f525061126b6000f3fe608060405234801561001057600080fd5b50600436106100d55760003560e01c8063715018a611610087578063715018a6146101895780637c61e3bf146101915780638da5cb5b14610199578063a20baee6146101a1578063a3f4df7e146101a9578063ebf8e6c6146100fc578063f2fde38b14610226578063f56f48f21461024c576100d5565b80630490be83146100da5780630fdb11cf146100f45780631be5c92f146100fc578063200d2ed2146101045780633078fff51461012d57806345079cb414610151578063485cc95514610159575b600080fd5b6100e2610254565b60408051918252519081900360200190f35b6100e261025a565b6100e26104fd565b61010c610502565b6040518082600481111561011c57fe5b815260200191505060405180910390f35b61013561050b565b604080516001600160a01b039092168252519081900360200190f35b6100e261051a565b6101876004803603604081101561016f57600080fd5b506001600160a01b0381358116916020013516610525565b005b6101876105db565b610135610687565b610135610696565b6100e26106a5565b6101b16106b1565b6040805160208082528351818301528351919283929083019185019080838360005b838110156101eb5781810151838201526020016101d3565b50505050905090810190601f1680156102185780820380516001836020036101000a031916815260200191505b509250505060405180910390f35b6101876004803603602081101561023c57600080fd5b50356001600160a01b03166106d6565b6100e26107d9565b60675481565b6000806102656107fd565b9050600061027161094a565b9050600060685460ff16600481111561028657fe5b141561035d57610295826109f8565b156102f2576102a381610a63565b156102be576102b26002610aa8565b606754925050506104fa565b6102c781610b0b565b156102d6576102b26001610aa8565b6102e06001610aa8565b6102e981610b4c565b925050506104fa565b6102fb82610b0b565b1561033c5761030981610a63565b15610318576102b26004610aa8565b6103226003610aa8565b61032b81610b0b565b156102e057606754925050506104fa565b61034581610a63565b15610354576103546004610aa8565b6102e982610b6d565b600160685460ff16600481111561037057fe5b14156103a7576103808282610b85565b1561038f576103546000610aa8565b61039881610a63565b15610322576102b26002610aa8565b600260685460ff1660048111156103ba57fe5b14156103d9576103ca8282610b85565b156102b2576103546000610aa8565b600360685460ff1660048111156103ec57fe5b1415610493576103fb826109f8565b156104225761040981610a63565b15610418576102b26002610aa8565b6103226001610aa8565b61042b82610b0b565b156104485761043981610a63565b15610322576102b26004610aa8565b61045181610a63565b15610460576103546004610aa8565b61046981610b0b565b1561047a57606754925050506104fa565b6104848282610bdb565b156102d6576103546000610aa8565b600460685460ff1660048111156104a657fe5b14156104f7576104b5826109f8565b156104c4576102b26002610aa8565b6104cd82610b0b565b156104de57606754925050506104fa565b6104e88282610b85565b15610354576103546000610aa8565b50505b90565b601281565b60685460ff1681565b6065546001600160a01b031681565b66b1a2bc2ec5000081565b600054610100900460ff168061053e575061053e610c60565b8061054c575060005460ff16155b6105875760405162461bcd60e51b815260040180806020018281038252602e8152602001806111c7602e913960400191505060405180910390fd5b600054610100900460ff161580156105b2576000805460ff1961ff0019909116610100171660011790555b6105ba610c71565b6105c48383610d23565b80156105d6576000805461ff00191690555b505050565b6105e3610d8a565b6001600160a01b03166105f4610696565b6001600160a01b03161461064f576040805162461bcd60e51b815260206004820181905260248201527f4f776e61626c653a2063616c6c6572206973206e6f7420746865206f776e6572604482015290519081900360640190fd5b6033546040516000916001600160a01b031690600080516020611216833981519152908390a3603380546001600160a01b0319169055565b6066546001600160a01b031681565b6033546001600160a01b031690565b670de0b6b3a764000081565b60405180604001604052806009815260200168141c9a58d95199595960ba1b81525081565b6106de610d8a565b6001600160a01b03166106ef610696565b6001600160a01b03161461074a576040805162461bcd60e51b815260206004820181905260248201527f4f776e61626c653a2063616c6c6572206973206e6f7420746865206f776e6572604482015290519081900360640190fd5b6001600160a01b03811661078f5760405162461bcd60e51b81526004018080602001828103825260268152602001806111a16026913960400191505060405180910390fd5b6033546040516001600160a01b0380841692169060008051602061121683398151915290600090a3603380546001600160a01b0319166001600160a01b0392909216919091179055565b7f000000000000000000000000000000000000000000000000000000000000000081565b610805611146565b606560009054906101000a90046001600160a01b03166001600160a01b031663313ce5676040518163ffffffff1660e01b815260040160206040518083038186803b15801561085357600080fd5b505afa92505050801561087857506040513d602081101561087357600080fd5b505160015b610881576104fa565b60ff166080820152606560009054906101000a90046001600160a01b03166001600160a01b031663feaf968c6040518163ffffffff1660e01b815260040160a06040518083038186803b1580156108d757600080fd5b505afa92505050801561091957506040513d60a08110156108f757600080fd5b5080516020820151604083015160608401516080909401519293919290919060015b610922576104fa565b5069ffffffffffffffffffff90931684525060208301526040820152600160608201526104fa565b610952611174565b606660009054906101000a90046001600160a01b03166001600160a01b031663994338286040518163ffffffff1660e01b815260040160606040518083038186803b1580156109a057600080fd5b505afa9250505080156109d457506040513d60608110156109c057600080fd5b508051602082015160409092015190919060015b6109dd576104fa565b911515835260208301526040820152600160608201526104fa565b60008160600151610a0b57506001610a5e565b815169ffffffffffffffffffff16610a2557506001610a5e565b60408201511580610a395750428260400151115b15610a4657506001610a5e565b6000826020015113610a5a57506001610a5e565b5060005b919050565b60008160600151610a7657506001610a5e565b60408201511580610a8a5750428260400151115b15610a9757506001610a5e565b6020820151610a5a57506001610a5e565b6068805482919060ff19166001836004811115610ac157fe5b02179055507f5c57579a8214fe4f710c1c56fa829f045b9fa6d225a744225a30c32188064d4e8160405180826004811115610af857fe5b815260200191505060405180910390a150565b60007f0000000000000000000000000000000000000000000000000000000000000000610b45836040015142610d8e90919063ffffffff16565b1192915050565b600080610b5c8360200151610deb565b9050610b6781610df8565b92915050565b600080610b5c8360200151846080015160ff16610e33565b6000610b9082610a63565b80610b9f5750610b9f82610b0b565b80610bae5750610bae836109f8565b80610bbd5750610bbd83610b0b565b15610bca57506000610b67565b610bd48383610bdb565b9392505050565b600080610bf38460200151856080015160ff16610e33565b90506000610c048460200151610deb565b90506000610c128284610e78565b90506000610c208385610e8e565b90506000610c4a83610c44670de0b6b3a7640000610c3e8684610d8e565b90610e9e565b90610ef7565b66b1a2bc2ec50000101598975050505050505050565b6000610c6b30610f5e565b15905090565b600054610100900460ff1680610c8a5750610c8a610c60565b80610c98575060005460ff16155b610cd35760405162461bcd60e51b815260040180806020018281038252602e8152602001806111c7602e913960400191505060405180910390fd5b600054610100900460ff16158015610cfe576000805460ff1961ff0019909116610100171660011790555b610d06610f64565b610d0e611004565b8015610d20576000805461ff00191690555b50565b610d2c826110eb565b610d35816110eb565b606580546001600160a01b038481166001600160a01b03199283161790925560668054928416929091169190911790556068805460ff191690556000610d796107fd565b9050610d8481610b6d565b50505050565b3390565b600082821115610de5576040805162461bcd60e51b815260206004820152601e60248201527f536166654d6174683a207375627472616374696f6e206f766572666c6f770000604482015290519081900360640190fd5b50900390565b6000610b67826001610e9e565b60678190556040805182815290517f4d29de21de555af78a62fc82dd4bc05e9ae5b0660a37f04729527e0f22780cd39181900360200190a150565b60008060128310610e5657610e4f846011198501600a0a610ef7565b9050610bd4565b6012831015610bd457610e70846012859003600a0a610e9e565b949350505050565b6000818310610e875781610bd4565b5090919050565b600081831015610e875781610bd4565b600082610ead57506000610b67565b82820282848281610eba57fe5b0414610bd45760405162461bcd60e51b81526004018080602001828103825260218152602001806111f56021913960400191505060405180910390fd5b6000808211610f4d576040805162461bcd60e51b815260206004820152601a60248201527f536166654d6174683a206469766973696f6e206279207a65726f000000000000604482015290519081900360640190fd5b818381610f5657fe5b049392505050565b3b151590565b600054610100900460ff1680610f7d5750610f7d610c60565b80610f8b575060005460ff16155b610fc65760405162461bcd60e51b815260040180806020018281038252602e8152602001806111c7602e913960400191505060405180910390fd5b600054610100900460ff16158015610d0e576000805460ff1961ff0019909116610100171660011790558015610d20576000805461ff001916905550565b600054610100900460ff168061101d575061101d610c60565b8061102b575060005460ff16155b6110665760405162461bcd60e51b815260040180806020018281038252602e8152602001806111c7602e913960400191505060405180910390fd5b600054610100900460ff16158015611091576000805460ff1961ff0019909116610100171660011790555b600061109b610d8a565b603380546001600160a01b0319166001600160a01b03831690811790915560405191925090600090600080516020611216833981519152908290a3508015610d20576000805461ff001916905550565b6001600160a01b038116610d20576040805162461bcd60e51b815260206004820152601e60248201527f4163636f756e742063616e6e6f74206265207a65726f20616464726573730000604482015290519081900360640190fd5b6040805160a08101825260008082526020820181905291810182905260608101829052608081019190915290565b60405180608001604052806000151581526020016000815260200160008152602001600015158152509056fe4f776e61626c653a206e6577206f776e657220697320746865207a65726f2061646472657373496e697469616c697a61626c653a20636f6e747261637420697320616c726561647920696e697469616c697a6564536166654d6174683a206d756c7469706c69636174696f6e206f766572666c6f778be0079c531659141344cd1fd0a4f28419497f9722a3daafe3b4186f6b6457e0a2646970667358221220ca3fda4d113b55ba86b2c561de567eda305d960cfbc6f1f936d6db27b6cc1a9764736f6c63430007060033",
  "linkReferences": {},
  "deployedLinkReferences": {}
}