{
  "_format": "hh-sol-artifact-1",
  "contractName": "PriceFeedTester",
  "sourceName": "contracts/TestContracts/PriceFeedTester.sol",
  "abi": [
    {
      "anonymous": false,
      "inputs": [
        {
          "indexed": false,
          "internalType": "uint256",
          "name": "_lastGoodPrice",
          "type": "uint256"
        }
      ],
      "name": "LastGoodPriceUpdated",
      "type": "event"
    },
    {
      "anonymous": false,
      "inputs": [
        {
          "indexed": true,
          "internalType": "address",
          "name": "previousOwner",
          "type": "address"
        },
        {
          "indexed": true,
          "internalType": "address",
          "name": "newOwner",
          "type": "address"
        }
      ],
      "name": "OwnershipTransferred",
      "type": "event"
    },
    {
      "anonymous": false,
      "inputs": [
        {
          "indexed": false,
          "internalType": "enum IPriceFeed.Status",
          "name": "newStatus",
          "type": "uint8"
        }
      ],
      "name": "PriceFeedStatusChanged",
      "type": "event"
    },
    {
      "inputs": [],
      "name": "DECIMAL_PRECISION",
      "outputs": [
        {
          "internalType": "uint256",
          "name": "",
          "type": "uint256"
        }
      ],
      "stateMutability": "view",
      "type": "function"
    },
    {
      "inputs": [],
      "name": "MAX_PRICE_DEVIATION_FROM_PREVIOUS_ROUND",
      "outputs": [
        {
          "internalType": "uint256",
          "name": "",
          "type": "uint256"
        }
      ],
      "stateMutability": "view",
      "type": "function"
    },
    {
      "inputs": [],
      "name": "MAX_PRICE_DIFFERENCE_BETWEEN_ORACLES",
      "outputs": [
        {
          "internalType": "uint256",
          "name": "",
          "type": "uint256"
        }
      ],
      "stateMutability": "view",
      "type": "function"
    },
    {
      "inputs": [],
      "name": "NAME",
      "outputs": [
        {
          "internalType": "string",
          "name": "",
          "type": "string"
        }
      ],
      "stateMutability": "view",
      "type": "function"
    },
    {
      "inputs": [],
      "name": "TARGET_DIGITS",
      "outputs": [
        {
          "internalType": "uint256",
          "name": "",
          "type": "uint256"
        }
      ],
      "stateMutability": "view",
      "type": "function"
    },
    {
      "inputs": [],
      "name": "TELLOR_DIGITS",
      "outputs": [
        {
          "internalType": "uint256",
          "name": "",
          "type": "uint256"
        }
      ],
      "stateMutability": "view",
      "type": "function"
    },
    {
      "inputs": [],
      "name": "TIMEOUT",
      "outputs": [
        {
          "internalType": "uint256",
          "name": "",
          "type": "uint256"
        }
      ],
      "stateMutability": "view",
      "type": "function"
    },
    {
      "inputs": [],
      "name": "fetchPrice",
      "outputs": [
        {
          "internalType": "uint256",
          "name": "price",
          "type": "uint256"
        }
      ],
      "stateMutability": "nonpayable",
      "type": "function"
    },
    {
      "inputs": [],
      "name": "isOwner",
      "outputs": [
        {
          "internalType": "bool",
          "name": "",
          "type": "bool"
        }
      ],
      "stateMutability": "view",
      "type": "function"
    },
    {
      "inputs": [],
      "name": "lastGoodPrice",
      "outputs": [
        {
          "internalType": "uint256",
          "name": "",
          "type": "uint256"
        }
      ],
      "stateMutability": "view",
      "type": "function"
    },
    {
      "inputs": [],
      "name": "owner",
      "outputs": [
        {
          "internalType": "address",
          "name": "",
          "type": "address"
        }
      ],
      "stateMutability": "view",
      "type": "function"
    },
    {
      "inputs": [],
      "name": "priceAggregator",
      "outputs": [
        {
          "internalType": "contract AggregatorV3Interface",
          "name": "",
          "type": "address"
        }
      ],
      "stateMutability": "view",
      "type": "function"
    },
    {
      "inputs": [
        {
          "internalType": "address",
          "name": "_priceAggregatorAddress",
          "type": "address"
        },
        {
          "internalType": "address",
          "name": "_tellorCallerAddress",
          "type": "address"
        }
      ],
      "name": "setAddresses",
      "outputs": [],
      "stateMutability": "nonpayable",
      "type": "function"
    },
    {
      "inputs": [
        {
          "internalType": "uint256",
          "name": "_lastGoodPrice",
          "type": "uint256"
        }
      ],
      "name": "setLastGoodPrice",
      "outputs": [],
      "stateMutability": "nonpayable",
      "type": "function"
    },
    {
      "inputs": [
        {
          "internalType": "enum IPriceFeed.Status",
          "name": "_status",
          "type": "uint8"
        }
      ],
      "name": "setStatus",
      "outputs": [],
      "stateMutability": "nonpayable",
      "type": "function"
    },
    {
      "inputs": [],
      "name": "status",
      "outputs": [
        {
          "internalType": "enum IPriceFeed.Status",
          "name": "",
          "type": "uint8"
        }
      ],
      "stateMutability": "view",
      "type": "function"
    },
    {
      "inputs": [],
      "name": "tellorCaller",
      "outputs": [
        {
          "internalType": "contract ITellorCaller",
          "name": "",
          "type": "address"
        }
      ],
      "stateMutability": "view",
      "type": "function"
    }
  ],
  "bytecode": "0x608060405234801561001057600080fd5b50600080546001600160a01b0319163390811782556040519091907f8be0079c531659141344cd1fd0a4f28419497f9722a3daafe3b4186f6b6457e0908290a3610f4f8061005f6000396000f3fe608060405234801561001057600080fd5b50600436106100eb5760003560e01c80637c61e3bf116100925780637c61e3bf146101995780638da5cb5b146101a15780638f32d59b146101a957806390107afe146101c5578063a20baee6146101f3578063a3f4df7e146101fb578063c521b3f514610278578063ebf8e6c614610295578063f56f48f21461029d576100eb565b80630490be83146100f05780630fdb11cf1461010a5780631be5c92f14610112578063200d2ed21461011a5780632e49d78b146101435780633078fff51461016557806345079cb41461018957806358a6aa8814610191575b600080fd5b6100f86102a5565b60408051918252519081900360200190f35b6100f86102ab565b6100f861054e565b610122610553565b6040518082600481111561013257fe5b815260200191505060405180910390f35b6101636004803603602081101561015957600080fd5b503560ff1661055c565b005b61016d61057d565b604080516001600160a01b039092168252519081900360200190f35b6100f861058c565b6100f8610597565b61016d6105a3565b61016d6105b2565b6101b16105c1565b604080519115158252519081900360200190f35b610163600480360360408110156101db57600080fd5b506001600160a01b03813581169160200135166105d2565b6100f861069a565b6102036106a6565b6040805160208082528351818301528351919283929083019185019080838360005b8381101561023d578181015183820152602001610225565b50505050905090810190601f16801561026a5780820380516001836020036101000a031916815260200191505b509250505060405180910390f35b6101636004803603602081101561028e57600080fd5b50356106cb565b6100f86106d0565b6100f86106d5565b60055481565b6000806102b66106db565b905060006102c2610828565b9050600060065460ff1660048111156102d757fe5b14156103ae576102e6826108d6565b15610343576102f481610941565b1561030f576103036002610986565b6005549250505061054b565b610318816109e9565b15610327576103036001610986565b6103316001610986565b61033a81610a0c565b9250505061054b565b61034c826109e9565b1561038d5761035a81610941565b15610369576103036004610986565b6103736003610986565b61037c816109e9565b15610331576005549250505061054b565b61039681610941565b156103a5576103a56004610986565b61033a82610a2d565b600160065460ff1660048111156103c157fe5b14156103f8576103d18282610a45565b156103e0576103a56000610986565b6103e981610941565b15610373576103036002610986565b600260065460ff16600481111561040b57fe5b141561042a5761041b8282610a45565b15610303576103a56000610986565b600360065460ff16600481111561043d57fe5b14156104e45761044c826108d6565b156104735761045a81610941565b15610469576103036002610986565b6103736001610986565b61047c826109e9565b156104995761048a81610941565b15610373576103036004610986565b6104a281610941565b156104b1576103a56004610986565b6104ba816109e9565b156104cb576005549250505061054b565b6104d58282610a8c565b15610327576103a56000610986565b600460065460ff1660048111156104f757fe5b141561054857610506826108d6565b15610515576103036002610986565b61051e826109e9565b1561052f576005549250505061054b565b6105398282610a45565b156103a5576103a56000610986565b50505b90565b601281565b60065460ff1681565b6006805482919060ff1916600183600481111561057557fe5b021790555050565b6001546001600160a01b031681565b66b1a2bc2ec5000081565b6706f05b59d3b2000081565b6002546001600160a01b031681565b6000546001600160a01b031690565b6000546001600160a01b0316331490565b6105da6105c1565b61062b576040805162461bcd60e51b815260206004820181905260248201527f4f776e61626c653a2063616c6c6572206973206e6f7420746865206f776e6572604482015290519081900360640190fd5b61063482610b11565b61063d81610b11565b600180546001600160a01b038481166001600160a01b03199283161790925560028054928416929091169190911790556006805460ff1916905560006106816106db565b905061068c81610a2d565b50610695610bc4565b505050565b670de0b6b3a764000081565b60405180604001604052806009815260200168141c9a58d95199595960ba1b81525081565b600555565b600681565b61384081565b6106e3610e9e565b600160009054906101000a90046001600160a01b03166001600160a01b031663313ce5676040518163ffffffff1660e01b815260040160206040518083038186803b15801561073157600080fd5b505afa92505050801561075657506040513d602081101561075157600080fd5b505160015b61075f5761054b565b60ff166080820152600160009054906101000a90046001600160a01b03166001600160a01b031663feaf968c6040518163ffffffff1660e01b815260040160a06040518083038186803b1580156107b557600080fd5b505afa9250505080156107f757506040513d60a08110156107d557600080fd5b5080516020820151604083015160608401516080909401519293919290919060015b6108005761054b565b5069ffffffffffffffffffff909316845250602083015260408201526001606082015261054b565b610830610ecc565b600260009054906101000a90046001600160a01b03166001600160a01b031663994338286040518163ffffffff1660e01b815260040160606040518083038186803b15801561087e57600080fd5b505afa9250505080156108b257506040513d606081101561089e57600080fd5b508051602082015160409092015190919060015b6108bb5761054b565b9115158352602083015260408201526001606082015261054b565b600081606001516108e95750600161093c565b815169ffffffffffffffffffff166109035750600161093c565b604082015115806109175750428260400151115b156109245750600161093c565b60008260200151136109385750600161093c565b5060005b919050565b600081606001516109545750600161093c565b604082015115806109685750428260400151115b156109755750600161093c565b60208201516109385750600161093c565b6006805482919060ff1916600183600481111561099f57fe5b02179055507f5c57579a8214fe4f710c1c56fa829f045b9fa6d225a744225a30c32188064d4e81604051808260048111156109d657fe5b815260200191505060405180910390a150565b6000613840610a05836040015142610c0e90919063ffffffff16565b1192915050565b600080610a1c8360200151610c50565b9050610a2781610c61565b92915050565b600080610a1c8360200151846080015160ff16610c9c565b6000610a5082610941565b80610a5f5750610a5f826109e9565b80610a6e5750610a6e836109e9565b15610a7b57506000610a27565b610a858383610a8c565b9392505050565b600080610aa48460200151856080015160ff16610c9c565b90506000610ab58460200151610c50565b90506000610ac38284610ce1565b90506000610ad18385610cf7565b90506000610afb83610af5670de0b6b3a7640000610aef8684610c0e565b90610d07565b90610d60565b66b1a2bc2ec50000101598975050505050505050565b6001600160a01b038116610b6c576040805162461bcd60e51b815260206004820152601e60248201527f4163636f756e742063616e6e6f74206265207a65726f20616464726573730000604482015290519081900360640190fd5b803b80610bc0576040805162461bcd60e51b815260206004820181905260248201527f4163636f756e7420636f64652073697a652063616e6e6f74206265207a65726f604482015290519081900360640190fd5b5050565b600080546040516001600160a01b03909116907f8be0079c531659141344cd1fd0a4f28419497f9722a3daafe3b4186f6b6457e0908390a3600080546001600160a01b0319169055565b6000610a8583836040518060400160405280601e81526020017f536166654d6174683a207375627472616374696f6e206f766572666c6f770000815250610da2565b6000610a278264e8d4a51000610d07565b60058190556040805182815290517f4d29de21de555af78a62fc82dd4bc05e9ae5b0660a37f04729527e0f22780cd39181900360200190a150565b60008060128310610cbf57610cb8846011198501600a0a610d60565b9050610a85565b6012831015610a8557610cd9846012859003600a0a610d07565b949350505050565b6000818310610cf05781610a85565b5090919050565b600081831015610cf05781610a85565b600082610d1657506000610a27565b82820282848281610d2357fe5b0414610a855760405162461bcd60e51b8152600401808060200182810382526021815260200180610ef96021913960400191505060405180910390fd5b6000610a8583836040518060400160405280601a81526020017f536166654d6174683a206469766973696f6e206279207a65726f000000000000815250610e39565b60008184841115610e315760405162461bcd60e51b81526004018080602001828103825283818151815260200191508051906020019080838360005b83811015610df6578181015183820152602001610dde565b50505050905090810190601f168015610e235780820380516001836020036101000a031916815260200191505b509250505060405180910390fd5b505050900390565b60008183610e885760405162461bcd60e51b8152602060048201818152835160248401528351909283926044909101919085019080838360008315610df6578181015183820152602001610dde565b506000838581610e9457fe5b0495945050505050565b6040805160a08101825260008082526020820181905291810182905260608101829052608081019190915290565b60405180608001604052806000151581526020016000815260200160008152602001600015158152509056fe536166654d6174683a206d756c7469706c69636174696f6e206f766572666c6f77a264697066735822122004e0f87ee3cf41aa266ec5986fd4fbb8dd6aa5cebfdd546f6398ab558a8428fd64736f6c63430007060033",
  "linkReferences": {},
  "deployedLinkReferences": {}
}