{
  "_format": "hh-sol-artifact-1",
  "contractName": "PriceFeed",
  "sourceName": "contracts/PriceFeed.sol",
  "abi": [
    {
      "anonymous": false,
      "inputs": [
        {
          "indexed": false,
          "internalType": "uint256",
          "name": "_lastGoodPrice",
          "type": "uint256"
        }
      ],
      "name": "LastGoodPriceUpdated",
      "type": "event"
    },
    {
      "anonymous": false,
      "inputs": [
        {
          "indexed": true,
          "internalType": "address",
          "name": "previousOwner",
          "type": "address"
        },
        {
          "indexed": true,
          "internalType": "address",
          "name": "newOwner",
          "type": "address"
        }
      ],
      "name": "OwnershipTransferred",
      "type": "event"
    },
    {
      "anonymous": false,
      "inputs": [
        {
          "indexed": false,
          "internalType": "enum PriceFeed.Status",
          "name": "newStatus",
          "type": "uint8"
        }
      ],
      "name": "PriceFeedStatusChanged",
      "type": "event"
    },
    {
      "inputs": [],
      "name": "DECIMAL_PRECISION",
      "outputs": [
        {
          "internalType": "uint256",
          "name": "",
          "type": "uint256"
        }
      ],
      "stateMutability": "view",
      "type": "function"
    },
    {
      "inputs": [],
      "name": "MAX_PRICE_DEVIATION_FROM_PREVIOUS_ROUND",
      "outputs": [
        {
          "internalType": "uint256",
          "name": "",
          "type": "uint256"
        }
      ],
      "stateMutability": "view",
      "type": "function"
    },
    {
      "inputs": [],
      "name": "MAX_PRICE_DIFFERENCE_BETWEEN_ORACLES",
      "outputs": [
        {
          "internalType": "uint256",
          "name": "",
          "type": "uint256"
        }
      ],
      "stateMutability": "view",
      "type": "function"
    },
    {
      "inputs": [],
      "name": "NAME",
      "outputs": [
        {
          "internalType": "string",
          "name": "",
          "type": "string"
        }
      ],
      "stateMutability": "view",
      "type": "function"
    },
    {
      "inputs": [],
      "name": "TARGET_DIGITS",
      "outputs": [
        {
          "internalType": "uint256",
          "name": "",
          "type": "uint256"
        }
      ],
      "stateMutability": "view",
      "type": "function"
    },
    {
      "inputs": [],
      "name": "TELLOR_DIGITS",
      "outputs": [
        {
          "internalType": "uint256",
          "name": "",
          "type": "uint256"
        }
      ],
      "stateMutability": "view",
      "type": "function"
    },
    {
      "inputs": [],
      "name": "TIMEOUT",
      "outputs": [
        {
          "internalType": "uint256",
          "name": "",
          "type": "uint256"
        }
      ],
      "stateMutability": "view",
      "type": "function"
    },
    {
      "inputs": [],
      "name": "fetchPrice",
      "outputs": [
        {
          "internalType": "uint256",
          "name": "",
          "type": "uint256"
        }
      ],
      "stateMutability": "nonpayable",
      "type": "function"
    },
    {
      "inputs": [],
      "name": "isOwner",
      "outputs": [
        {
          "internalType": "bool",
          "name": "",
          "type": "bool"
        }
      ],
      "stateMutability": "view",
      "type": "function"
    },
    {
      "inputs": [],
      "name": "lastGoodPrice",
      "outputs": [
        {
          "internalType": "uint256",
          "name": "",
          "type": "uint256"
        }
      ],
      "stateMutability": "view",
      "type": "function"
    },
    {
      "inputs": [],
      "name": "owner",
      "outputs": [
        {
          "internalType": "address",
          "name": "",
          "type": "address"
        }
      ],
      "stateMutability": "view",
      "type": "function"
    },
    {
      "inputs": [],
      "name": "priceAggregator",
      "outputs": [
        {
          "internalType": "contract AggregatorV3Interface",
          "name": "",
          "type": "address"
        }
      ],
      "stateMutability": "view",
      "type": "function"
    },
    {
      "inputs": [
        {
          "internalType": "address",
          "name": "_priceAggregatorAddress",
          "type": "address"
        },
        {
          "internalType": "address",
          "name": "_tellorCallerAddress",
          "type": "address"
        }
      ],
      "name": "setAddresses",
      "outputs": [],
      "stateMutability": "nonpayable",
      "type": "function"
    },
    {
      "inputs": [],
      "name": "status",
      "outputs": [
        {
          "internalType": "enum PriceFeed.Status",
          "name": "",
          "type": "uint8"
        }
      ],
      "stateMutability": "view",
      "type": "function"
    },
    {
      "inputs": [],
      "name": "tellorCaller",
      "outputs": [
        {
          "internalType": "contract ITellorCaller",
          "name": "",
          "type": "address"
        }
      ],
      "stateMutability": "view",
      "type": "function"
    }
  ],
  "bytecode": "0x608060405234801561001057600080fd5b50600080546001600160a01b0319163390811782556040519091907f8be0079c531659141344cd1fd0a4f28419497f9722a3daafe3b4186f6b6457e0908290a3610f138061005f6000396000f3fe608060405234801561001057600080fd5b50600436106100d55760003560e01c80637c61e3bf116100875780637c61e3bf146101645780638da5cb5b1461016c5780638f32d59b1461017457806390107afe14610190578063a20baee6146101c0578063a3f4df7e146101c8578063ebf8e6c614610245578063f56f48f21461024d576100d5565b80630490be83146100da5780630fdb11cf146100f45780631be5c92f146100fc578063200d2ed2146101045780633078fff51461013057806345079cb41461015457806358a6aa881461015c575b600080fd5b6100e2610255565b60408051918252519081900360200190f35b6100e261025b565b6100e261050b565b61010c610510565b6040518082600481111561011c57fe5b60ff16815260200191505060405180910390f35b610138610519565b604080516001600160a01b039092168252519081900360200190f35b6100e2610528565b6100e2610533565b61013861053f565b61013861054e565b61017c61055d565b604080519115158252519081900360200190f35b6101be600480360360408110156101a657600080fd5b506001600160a01b038135811691602001351661056e565b005b6100e261063c565b6101d0610648565b6040805160208082528351818301528351919283929083019185019080838360005b8381101561020a5781810151838201526020016101f2565b50505050905090810190601f1680156102375780820380516001836020036101000a031916815260200191505b509250505060405180910390f35b6100e261066d565b6100e2610672565b60055481565b6000610265610e62565b61026d610678565b9050610277610e90565b61027f6107c5565b9050600060065460ff16600481111561029457fe5b141561036b576102a382610873565b15610300576102b1816108de565b156102cc576102c06002610923565b60055492505050610508565b6102d581610989565b156102e4576102c06001610923565b6102ee6001610923565b6102f7816109ac565b92505050610508565b61030982610989565b1561034a57610317816108de565b15610326576102c06004610923565b6103306003610923565b61033981610989565b156102ee5760055492505050610508565b610353816108de565b15610362576103626004610923565b6102f7826109cd565b600160065460ff16600481111561037e57fe5b14156103b55761038e82826109e5565b1561039d576103626000610923565b6103a6816108de565b15610330576102c06002610923565b600260065460ff1660048111156103c857fe5b14156103e7576103d882826109e5565b156102c0576103626000610923565b600360065460ff1660048111156103fa57fe5b14156104a15761040982610873565b1561043057610417816108de565b15610426576102c06002610923565b6103306001610923565b61043982610989565b1561045657610447816108de565b15610330576102c06004610923565b61045f816108de565b1561046e576103626004610923565b61047781610989565b156104885760055492505050610508565b6104928282610a2c565b156102e4576103626000610923565b600460065460ff1660048111156104b457fe5b1415610505576104c382610873565b156104d2576102c06002610923565b6104db82610989565b156104ec5760055492505050610508565b6104f682826109e5565b15610362576103626000610923565b50505b90565b601281565b60065460ff1681565b6001546001600160a01b031681565b66b1a2bc2ec5000081565b6706f05b59d3b2000081565b6002546001600160a01b031681565b6000546001600160a01b031690565b6000546001600160a01b0316331490565b61057661055d565b6105c7576040805162461bcd60e51b815260206004820181905260248201527f4f776e61626c653a2063616c6c6572206973206e6f7420746865206f776e6572604482015290519081900360640190fd5b6105d082610ac3565b6105d981610ac3565b600180546001600160a01b038481166001600160a01b03199283161790925560028054928416929091169190911790556006805460ff1916905561061b610e62565b610623610678565b905061062e816109cd565b50610637610b76565b505050565b670de0b6b3a764000081565b60405180604001604052806009815260200168141c9a58d95199595960ba1b81525081565b600681565b61384081565b610680610e62565b600160009054906101000a90046001600160a01b03166001600160a01b031663313ce5676040518163ffffffff1660e01b815260040160206040518083038186803b1580156106ce57600080fd5b505afa9250505080156106f357506040513d60208110156106ee57600080fd5b505160015b6106fc57610508565b60ff166080820152600160009054906101000a90046001600160a01b03166001600160a01b031663feaf968c6040518163ffffffff1660e01b815260040160a06040518083038186803b15801561075257600080fd5b505afa92505050801561079457506040513d60a081101561077257600080fd5b5080516020820151604083015160608401516080909401519293919290919060015b61079d57610508565b5069ffffffffffffffffffff9093168452506020830152604082015260016060820152610508565b6107cd610e90565b600260009054906101000a90046001600160a01b03166001600160a01b031663994338286040518163ffffffff1660e01b815260040160606040518083038186803b15801561081b57600080fd5b505afa92505050801561084f57506040513d606081101561083b57600080fd5b508051602082015160409092015190919060015b61085857610508565b91151583526020830152604082015260016060820152610508565b60008160600151610886575060016108d9565b815169ffffffffffffffffffff166108a0575060016108d9565b604082015115806108b45750428260400151115b156108c1575060016108d9565b60008260200151136108d5575060016108d9565b5060005b919050565b600081606001516108f1575060016108d9565b604082015115806109055750428260400151115b15610912575060016108d9565b60208201516108d5575060016108d9565b6006805482919060ff1916600183600481111561093c57fe5b02179055507f5c57579a8214fe4f710c1c56fa829f045b9fa6d225a744225a30c32188064d4e816040518082600481111561097357fe5b60ff16815260200191505060405180910390a150565b60006138406109a5836040015142610bc090919063ffffffff16565b1192915050565b6000806109bc8360200151610c02565b90506109c781610c19565b92915050565b6000806109bc8360200151846080015160ff16610c54565b60006109f0826108de565b806109ff57506109ff82610989565b80610a0e5750610a0e83610989565b15610a1b575060006109c7565b610a258383610a2c565b9392505050565b600080610a448460200151856080015160ff16610c54565b90506000610a558460200151610c02565b90506000610a638284610ca5565b90506000610a718385610cbb565b90506000610aad83610aa1670de0b6b3a7640000610a95868463ffffffff610bc016565b9063ffffffff610ccb16565b9063ffffffff610d2416565b66b1a2bc2ec50000101598975050505050505050565b6001600160a01b038116610b1e576040805162461bcd60e51b815260206004820152601e60248201527f4163636f756e742063616e6e6f74206265207a65726f20616464726573730000604482015290519081900360640190fd5b803b80610b72576040805162461bcd60e51b815260206004820181905260248201527f4163636f756e7420636f64652073697a652063616e6e6f74206265207a65726f604482015290519081900360640190fd5b5050565b600080546040516001600160a01b03909116907f8be0079c531659141344cd1fd0a4f28419497f9722a3daafe3b4186f6b6457e0908390a3600080546001600160a01b0319169055565b6000610a2583836040518060400160405280601e81526020017f536166654d6174683a207375627472616374696f6e206f766572666c6f770000815250610d66565b60006109c78264e8d4a5100063ffffffff610ccb16565b60058190556040805182815290517f4d29de21de555af78a62fc82dd4bc05e9ae5b0660a37f04729527e0f22780cd39181900360200190a150565b60008060128310610c7d57610c76846011198501600a0a63ffffffff610d2416565b9050610a25565b6012831015610a2557610c9d846012859003600a0a63ffffffff610ccb16565b949350505050565b6000818310610cb45781610a25565b5090919050565b600081831015610cb45781610a25565b600082610cda575060006109c7565b82820282848281610ce757fe5b0414610a255760405162461bcd60e51b8152600401808060200182810382526021815260200180610ebd6021913960400191505060405180910390fd5b6000610a2583836040518060400160405280601a81526020017f536166654d6174683a206469766973696f6e206279207a65726f000000000000815250610dfd565b60008184841115610df55760405162461bcd60e51b81526004018080602001828103825283818151815260200191508051906020019080838360005b83811015610dba578181015183820152602001610da2565b50505050905090810190601f168015610de75780820380516001836020036101000a031916815260200191505b509250505060405180910390fd5b505050900390565b60008183610e4c5760405162461bcd60e51b8152602060048201818152835160248401528351909283926044909101919085019080838360008315610dba578181015183820152602001610da2565b506000838581610e5857fe5b0495945050505050565b6040805160a08101825260008082526020820181905291810182905260608101829052608081019190915290565b60405180608001604052806000151581526020016000815260200160008152602001600015158152509056fe536166654d6174683a206d756c7469706c69636174696f6e206f766572666c6f77a2646970667358221220b924b23386f3bdb669df0f667e120fe4cc7136f77106972903a52d5e39524fa664736f6c634300060b0033",
  "linkReferences": {},
  "deployedLinkReferences": {}
}