{
  "_format": "hh-sol-artifact-1",
  "contractName": "PriceFeed",
  "sourceName": "contracts/PriceFeed.sol",
  "abi": [
    {
      "inputs": [
        {
          "internalType": "uint256",
          "name": "_timeout",
          "type": "uint256"
        }
      ],
      "stateMutability": "nonpayable",
      "type": "constructor"
    },
    {
      "anonymous": false,
      "inputs": [
        {
          "indexed": false,
          "internalType": "uint256",
          "name": "_lastGoodPrice",
          "type": "uint256"
        }
      ],
      "name": "LastGoodPriceUpdated",
      "type": "event"
    },
    {
      "anonymous": false,
      "inputs": [
        {
          "indexed": true,
          "internalType": "address",
          "name": "previousOwner",
          "type": "address"
        },
        {
          "indexed": true,
          "internalType": "address",
          "name": "newOwner",
          "type": "address"
        }
      ],
      "name": "OwnershipTransferred",
      "type": "event"
    },
    {
      "anonymous": false,
      "inputs": [
        {
          "indexed": false,
          "internalType": "enum IPriceFeed.Status",
          "name": "newStatus",
          "type": "uint8"
        }
      ],
      "name": "PriceFeedStatusChanged",
      "type": "event"
    },
    {
      "inputs": [],
      "name": "DECIMAL_PRECISION",
      "outputs": [
        {
          "internalType": "uint256",
          "name": "",
          "type": "uint256"
        }
      ],
      "stateMutability": "view",
      "type": "function"
    },
    {
      "inputs": [],
      "name": "MAX_PRICE_DEVIATION_FROM_PREVIOUS_ROUND",
      "outputs": [
        {
          "internalType": "uint256",
          "name": "",
          "type": "uint256"
        }
      ],
      "stateMutability": "view",
      "type": "function"
    },
    {
      "inputs": [],
      "name": "MAX_PRICE_DIFFERENCE_BETWEEN_ORACLES",
      "outputs": [
        {
          "internalType": "uint256",
          "name": "",
          "type": "uint256"
        }
      ],
      "stateMutability": "view",
      "type": "function"
    },
    {
      "inputs": [],
      "name": "NAME",
      "outputs": [
        {
          "internalType": "string",
          "name": "",
          "type": "string"
        }
      ],
      "stateMutability": "view",
      "type": "function"
    },
    {
      "inputs": [],
      "name": "TARGET_DIGITS",
      "outputs": [
        {
          "internalType": "uint256",
          "name": "",
          "type": "uint256"
        }
      ],
      "stateMutability": "view",
      "type": "function"
    },
    {
      "inputs": [],
      "name": "TIMEOUT",
      "outputs": [
        {
          "internalType": "uint256",
          "name": "",
          "type": "uint256"
        }
      ],
      "stateMutability": "view",
      "type": "function"
    },
    {
      "inputs": [],
      "name": "fetchPrice",
      "outputs": [
        {
          "internalType": "uint256",
          "name": "price",
          "type": "uint256"
        }
      ],
      "stateMutability": "nonpayable",
      "type": "function"
    },
    {
      "inputs": [
        {
          "internalType": "address",
          "name": "_priceAggregatorAddress",
          "type": "address"
        },
        {
          "internalType": "address",
          "name": "_tellorCallerAddress",
          "type": "address"
        }
      ],
      "name": "initialize",
      "outputs": [],
      "stateMutability": "nonpayable",
      "type": "function"
    },
    {
      "inputs": [],
      "name": "lastGoodPrice",
      "outputs": [
        {
          "internalType": "uint256",
          "name": "",
          "type": "uint256"
        }
      ],
      "stateMutability": "view",
      "type": "function"
    },
    {
      "inputs": [],
      "name": "owner",
      "outputs": [
        {
          "internalType": "address",
          "name": "",
          "type": "address"
        }
      ],
      "stateMutability": "view",
      "type": "function"
    },
    {
      "inputs": [],
      "name": "priceAggregator",
      "outputs": [
        {
          "internalType": "contract AggregatorV3Interface",
          "name": "",
          "type": "address"
        }
      ],
      "stateMutability": "view",
      "type": "function"
    },
    {
      "inputs": [],
      "name": "renounceOwnership",
      "outputs": [],
      "stateMutability": "nonpayable",
      "type": "function"
    },
    {
      "inputs": [],
      "name": "status",
      "outputs": [
        {
          "internalType": "enum IPriceFeed.Status",
          "name": "",
          "type": "uint8"
        }
      ],
      "stateMutability": "view",
      "type": "function"
    },
    {
      "inputs": [],
      "name": "tellorCaller",
      "outputs": [
        {
          "internalType": "contract ITellorCaller",
          "name": "",
          "type": "address"
        }
      ],
      "stateMutability": "view",
      "type": "function"
    },
    {
      "inputs": [
        {
          "internalType": "address",
          "name": "newOwner",
          "type": "address"
        }
      ],
      "name": "transferOwnership",
      "outputs": [],
      "stateMutability": "nonpayable",
      "type": "function"
    }
  ],
  "bytecode": "0x60a060405234801561001057600080fd5b5060405161141e38038061141e8339818101604052602081101561003357600080fd5b50516080526080516113c76100576000398061085d5280610b9152506113c76000f3fe608060405234801561001057600080fd5b50600436106100d55760003560e01c806358a6aa881161008757806358a6aa8814610189578063715018a6146101915780637c61e3bf146101995780638da5cb5b146101a1578063a20baee6146101a9578063a3f4df7e146101b1578063f2fde38b1461022e578063f56f48f214610254576100d5565b80630490be83146100da5780630fdb11cf146100f45780631be5c92f146100fc578063200d2ed2146101045780633078fff51461012d57806345079cb414610151578063485cc95514610159575b600080fd5b6100e261025c565b60408051918252519081900360200190f35b6100e2610262565b6100e2610573565b61010c610578565b6040518082600481111561011c57fe5b815260200191505060405180910390f35b610135610581565b604080516001600160a01b039092168252519081900360200190f35b6100e2610590565b6101876004803603604081101561016f57600080fd5b506001600160a01b038135811691602001351661059b565b005b6100e2610651565b61018761065d565b610135610709565b610135610718565b6100e2610727565b6101b9610733565b6040805160208082528351818301528351919283929083019185019080838360005b838110156101f35781810151838201526020016101db565b50505050905090810190601f1680156102205780820380516001836020036101000a031916815260200191505b509250505060405180910390f35b6101876004803603602081101561024457600080fd5b50356001600160a01b0316610758565b6100e261085b565b60675481565b60008061026d61087f565b905060006102796109cc565b9050600060685460ff16600481111561028e57fe5b14156103bb5761029d82610a7a565b156102fa576102ab81610ae5565b156102c6576102ba6002610b2a565b60675492505050610570565b6102cf81610b8d565b156102de576102ba6001610b2a565b6102e86001610b2a565b6102f181610bce565b92505050610570565b61030382610b8d565b156103445761031181610ae5565b15610320576102ba6004610b2a565b61032a6003610b2a565b61033381610b8d565b156102e85760675492505050610570565b61034d82610be5565b1561039a5761035b81610ae5565b1561036a576102ba6002610b2a565b61037381610b8d565b15610382576102ba6001610b2a565b61038c8282610c5b565b156102de576102f182610cc9565b6103a381610ae5565b156103b2576103b26004610b2a565b6102f182610cc9565b600160685460ff1660048111156103ce57fe5b1415610405576103de8282610cec565b156103ed576103b26000610b2a565b6103f681610ae5565b1561032a576102ba6002610b2a565b600260685460ff16600481111561041857fe5b1415610437576104288282610cec565b156102ba576103b26000610b2a565b600360685460ff16600481111561044a57fe5b14156104f15761045982610a7a565b156104805761046781610ae5565b15610476576102ba6002610b2a565b61032a6001610b2a565b61048982610b8d565b156104a65761049781610ae5565b1561032a576102ba6004610b2a565b6104af81610ae5565b156104be576103b26004610b2a565b6104c781610b8d565b156104d85760675492505050610570565b6104e28282610c5b565b156102de576103b26000610b2a565b600460685460ff16600481111561050457fe5b141561056d5761051382610a7a565b15610522576102ba6002610b2a565b61052b82610b8d565b1561053c5760675492505050610570565b6105468282610cec565b15610555576103b26000610b2a565b61055e82610be5565b156103b2576102ba6002610b2a565b50505b90565b601281565b60685460ff1681565b6065546001600160a01b031681565b66b1a2bc2ec5000081565b600054610100900460ff16806105b457506105b4610d42565b806105c2575060005460ff16155b6105fd5760405162461bcd60e51b815260040180806020018281038252602e8152602001806112f3602e913960400191505060405180910390fd5b600054610100900460ff16158015610628576000805460ff1961ff0019909116610100171660011790555b610630610d53565b61063a8383610e05565b801561064c576000805461ff00191690555b505050565b6706f05b59d3b2000081565b610665610ec3565b6001600160a01b0316610676610718565b6001600160a01b0316146106d1576040805162461bcd60e51b815260206004820181905260248201527f4f776e61626c653a2063616c6c6572206973206e6f7420746865206f776e6572604482015290519081900360640190fd5b6033546040516000916001600160a01b031690600080516020611342833981519152908390a3603380546001600160a01b0319169055565b6066546001600160a01b031681565b6033546001600160a01b031690565b670de0b6b3a764000081565b60405180604001604052806009815260200168141c9a58d95199595960ba1b81525081565b610760610ec3565b6001600160a01b0316610771610718565b6001600160a01b0316146107cc576040805162461bcd60e51b815260206004820181905260248201527f4f776e61626c653a2063616c6c6572206973206e6f7420746865206f776e6572604482015290519081900360640190fd5b6001600160a01b0381166108115760405162461bcd60e51b81526004018080602001828103825260268152602001806112cd6026913960400191505060405180910390fd5b6033546040516001600160a01b0380841692169060008051602061134283398151915290600090a3603380546001600160a01b0319166001600160a01b0392909216919091179055565b7f000000000000000000000000000000000000000000000000000000000000000081565b610887611272565b606560009054906101000a90046001600160a01b03166001600160a01b031663313ce5676040518163ffffffff1660e01b815260040160206040518083038186803b1580156108d557600080fd5b505afa9250505080156108fa57506040513d60208110156108f557600080fd5b505160015b61090357610570565b60ff166080820152606560009054906101000a90046001600160a01b03166001600160a01b031663feaf968c6040518163ffffffff1660e01b815260040160a06040518083038186803b15801561095957600080fd5b505afa92505050801561099b57506040513d60a081101561097957600080fd5b5080516020820151604083015160608401516080909401519293919290919060015b6109a457610570565b5069ffffffffffffffffffff9093168452506020830152604082015260016060820152610570565b6109d46112a0565b606660009054906101000a90046001600160a01b03166001600160a01b031663994338286040518163ffffffff1660e01b815260040160606040518083038186803b158015610a2257600080fd5b505afa925050508015610a5657506040513d6060811015610a4257600080fd5b508051602082015160409092015190919060015b610a5f57610570565b91151583526020830152604082015260016060820152610570565b60008160600151610a8d57506001610ae0565b815169ffffffffffffffffffff16610aa757506001610ae0565b60408201511580610abb5750428260400151115b15610ac857506001610ae0565b6000826020015113610adc57506001610ae0565b5060005b919050565b60008160600151610af857506001610ae0565b60408201511580610b0c5750428260400151115b15610b1957506001610ae0565b6020820151610adc57506001610ae0565b6068805482919060ff19166001836004811115610b4357fe5b02179055507f5c57579a8214fe4f710c1c56fa829f045b9fa6d225a744225a30c32188064d4e8160405180826004811115610b7a57fe5b815260200191505060405180910390a150565b60007f0000000000000000000000000000000000000000000000000000000000000000610bc7836040015142610ec790919063ffffffff16565b1192915050565b6020810151600090610bdf81610f24565b92915050565b600080610bfd8360200151846080015160ff16610f5f565b90506000610c0d82606754610fa4565b90506000610c1d83606754610fba565b90506000610c4782610c41670de0b6b3a7640000610c3b8388610ec7565b90610fca565b90611023565b6706f05b59d3b20000109695505050505050565b600080610c738460200151856080015160ff16610f5f565b60208401519091506000610c878284610fa4565b90506000610c958385610fba565b90506000610cb383610c41670de0b6b3a7640000610c3b8684610ec7565b66b1a2bc2ec50000101598975050505050505050565b600080610ce18360200151846080015160ff16610f5f565b9050610bdf81610f24565b6000610cf782610ae5565b80610d065750610d0682610b8d565b80610d155750610d1583610a7a565b80610d245750610d2483610b8d565b15610d3157506000610bdf565b610d3b8383610c5b565b9392505050565b6000610d4d3061108a565b15905090565b600054610100900460ff1680610d6c5750610d6c610d42565b80610d7a575060005460ff16155b610db55760405162461bcd60e51b815260040180806020018281038252602e8152602001806112f3602e913960400191505060405180910390fd5b600054610100900460ff16158015610de0576000805460ff1961ff0019909116610100171660011790555b610de8611090565b610df0611130565b8015610e02576000805461ff00191690555b50565b610e0e82611217565b610e1781611217565b606580546001600160a01b038481166001600160a01b03199283161790925560668054928416929091169190911790556068805460ff191690556000610e5b61087f565b9050610e6681610a7a565b158015610e795750610e7781610b8d565b155b610eb45760405162461bcd60e51b81526004018080602001828103825260308152602001806113626030913960400191505060405180910390fd5b610ebd81610cc9565b50505050565b3390565b600082821115610f1e576040805162461bcd60e51b815260206004820152601e60248201527f536166654d6174683a207375627472616374696f6e206f766572666c6f770000604482015290519081900360640190fd5b50900390565b60678190556040805182815290517f4d29de21de555af78a62fc82dd4bc05e9ae5b0660a37f04729527e0f22780cd39181900360200190a150565b60008060128310610f8257610f7b846011198501600a0a611023565b9050610d3b565b6012831015610d3b57610f9c846012859003600a0a610fca565b949350505050565b6000818310610fb35781610d3b565b5090919050565b600081831015610fb35781610d3b565b600082610fd957506000610bdf565b82820282848281610fe657fe5b0414610d3b5760405162461bcd60e51b81526004018080602001828103825260218152602001806113216021913960400191505060405180910390fd5b6000808211611079576040805162461bcd60e51b815260206004820152601a60248201527f536166654d6174683a206469766973696f6e206279207a65726f000000000000604482015290519081900360640190fd5b81838161108257fe5b049392505050565b3b151590565b600054610100900460ff16806110a957506110a9610d42565b806110b7575060005460ff16155b6110f25760405162461bcd60e51b815260040180806020018281038252602e8152602001806112f3602e913960400191505060405180910390fd5b600054610100900460ff16158015610df0576000805460ff1961ff0019909116610100171660011790558015610e02576000805461ff001916905550565b600054610100900460ff16806111495750611149610d42565b80611157575060005460ff16155b6111925760405162461bcd60e51b815260040180806020018281038252602e8152602001806112f3602e913960400191505060405180910390fd5b600054610100900460ff161580156111bd576000805460ff1961ff0019909116610100171660011790555b60006111c7610ec3565b603380546001600160a01b0319166001600160a01b03831690811790915560405191925090600090600080516020611342833981519152908290a3508015610e02576000805461ff001916905550565b6001600160a01b038116610e02576040805162461bcd60e51b815260206004820152601e60248201527f4163636f756e742063616e6e6f74206265207a65726f20616464726573730000604482015290519081900360640190fd5b6040805160a08101825260008082526020820181905291810182905260608101829052608081019190915290565b60405180608001604052806000151581526020016000815260200160008152602001600015158152509056fe4f776e61626c653a206e6577206f776e657220697320746865207a65726f2061646472657373496e697469616c697a61626c653a20636f6e747261637420697320616c726561647920696e697469616c697a6564536166654d6174683a206d756c7469706c69636174696f6e206f766572666c6f778be0079c531659141344cd1fd0a4f28419497f9722a3daafe3b4186f6b6457e05072696365466565643a20436861696e6c696e6b206d75737420626520776f726b696e6720616e642063757272656e74a2646970667358221220ae06fe0195d4b93d871f7658e6acc67eceead79bdadc4bc2e006f5ddb08f874364736f6c63430007060033",
  "linkReferences": {},
  "deployedLinkReferences": {}
}