{
  "_format": "hh-sol-artifact-1",
  "contractName": "PriceFeed",
  "sourceName": "contracts/PriceFeed.sol",
  "abi": [
    {
      "anonymous": false,
      "inputs": [
        {
          "indexed": false,
          "internalType": "uint256",
          "name": "_lastGoodPrice",
          "type": "uint256"
        }
      ],
      "name": "LastGoodPriceUpdated",
      "type": "event"
    },
    {
      "anonymous": false,
      "inputs": [
        {
          "indexed": true,
          "internalType": "address",
          "name": "previousOwner",
          "type": "address"
        },
        {
          "indexed": true,
          "internalType": "address",
          "name": "newOwner",
          "type": "address"
        }
      ],
      "name": "OwnershipTransferred",
      "type": "event"
    },
    {
      "anonymous": false,
      "inputs": [
        {
          "indexed": false,
          "internalType": "enum PriceFeed.Status",
          "name": "newStatus",
          "type": "uint8"
        }
      ],
      "name": "PriceFeedStatusChanged",
      "type": "event"
    },
    {
      "inputs": [],
      "name": "DECIMAL_PRECISION",
      "outputs": [
        {
          "internalType": "uint256",
          "name": "",
          "type": "uint256"
        }
      ],
      "stateMutability": "view",
      "type": "function"
    },
    {
      "inputs": [],
      "name": "ETHUSD_TELLOR_REQ_ID",
      "outputs": [
        {
          "internalType": "uint256",
          "name": "",
          "type": "uint256"
        }
      ],
      "stateMutability": "view",
      "type": "function"
    },
    {
      "inputs": [],
      "name": "MAX_PRICE_DEVIATION_FROM_PREVIOUS_ROUND",
      "outputs": [
        {
          "internalType": "uint256",
          "name": "",
          "type": "uint256"
        }
      ],
      "stateMutability": "view",
      "type": "function"
    },
    {
      "inputs": [],
      "name": "MAX_PRICE_DIFFERENCE_BETWEEN_ORACLES",
      "outputs": [
        {
          "internalType": "uint256",
          "name": "",
          "type": "uint256"
        }
      ],
      "stateMutability": "view",
      "type": "function"
    },
    {
      "inputs": [],
      "name": "NAME",
      "outputs": [
        {
          "internalType": "string",
          "name": "",
          "type": "string"
        }
      ],
      "stateMutability": "view",
      "type": "function"
    },
    {
      "inputs": [],
      "name": "TARGET_DIGITS",
      "outputs": [
        {
          "internalType": "uint256",
          "name": "",
          "type": "uint256"
        }
      ],
      "stateMutability": "view",
      "type": "function"
    },
    {
      "inputs": [],
      "name": "TELLOR_DIGITS",
      "outputs": [
        {
          "internalType": "uint256",
          "name": "",
          "type": "uint256"
        }
      ],
      "stateMutability": "view",
      "type": "function"
    },
    {
      "inputs": [],
      "name": "TIMEOUT",
      "outputs": [
        {
          "internalType": "uint256",
          "name": "",
          "type": "uint256"
        }
      ],
      "stateMutability": "view",
      "type": "function"
    },
    {
      "inputs": [],
      "name": "fetchPrice",
      "outputs": [
        {
          "internalType": "uint256",
          "name": "",
          "type": "uint256"
        }
      ],
      "stateMutability": "nonpayable",
      "type": "function"
    },
    {
      "inputs": [],
      "name": "isOwner",
      "outputs": [
        {
          "internalType": "bool",
          "name": "",
          "type": "bool"
        }
      ],
      "stateMutability": "view",
      "type": "function"
    },
    {
      "inputs": [],
      "name": "lastGoodPrice",
      "outputs": [
        {
          "internalType": "uint256",
          "name": "",
          "type": "uint256"
        }
      ],
      "stateMutability": "view",
      "type": "function"
    },
    {
      "inputs": [],
      "name": "owner",
      "outputs": [
        {
          "internalType": "address",
          "name": "",
          "type": "address"
        }
      ],
      "stateMutability": "view",
      "type": "function"
    },
    {
      "inputs": [],
      "name": "priceAggregator",
      "outputs": [
        {
          "internalType": "contract AggregatorV3Interface",
          "name": "",
          "type": "address"
        }
      ],
      "stateMutability": "view",
      "type": "function"
    },
    {
      "inputs": [
        {
          "internalType": "address",
          "name": "_priceAggregatorAddress",
          "type": "address"
        },
        {
          "internalType": "address",
          "name": "_tellorCallerAddress",
          "type": "address"
        }
      ],
      "name": "setAddresses",
      "outputs": [],
      "stateMutability": "nonpayable",
      "type": "function"
    },
    {
      "inputs": [],
      "name": "status",
      "outputs": [
        {
          "internalType": "enum PriceFeed.Status",
          "name": "",
          "type": "uint8"
        }
      ],
      "stateMutability": "view",
      "type": "function"
    },
    {
      "inputs": [],
      "name": "tellorCaller",
      "outputs": [
        {
          "internalType": "contract ITellorCaller",
          "name": "",
          "type": "address"
        }
      ],
      "stateMutability": "view",
      "type": "function"
    }
  ],
  "bytecode": "0x608060405234801561001057600080fd5b50600080546001600160a01b0319163390811782556040519091907f8be0079c531659141344cd1fd0a4f28419497f9722a3daafe3b4186f6b6457e0908290a3610f2b8061005f6000396000f3fe608060405234801561001057600080fd5b50600436106100e05760003560e01c80637c61e3bf116100875780637c61e3bf146101775780638da5cb5b1461017f5780638f32d59b1461018757806390107afe146101a3578063a20baee6146101d3578063a3f4df7e146101db578063ebf8e6c614610258578063f56f48f214610260576100e0565b80630490be83146100e55780630fdb11cf146100ff5780631be5c92f14610107578063200d2ed21461010f5780633078fff51461013b57806345079cb41461015f57806358a6aa88146101675780635f42caf81461016f575b600080fd5b6100ed610268565b60408051918252519081900360200190f35b6100ed61026e565b6100ed61051e565b610117610523565b6040518082600481111561012757fe5b60ff16815260200191505060405180910390f35b61014361052c565b604080516001600160a01b039092168252519081900360200190f35b6100ed61053b565b6100ed610546565b6100ed610552565b610143610557565b610143610566565b61018f610575565b604080519115158252519081900360200190f35b6101d1600480360360408110156101b957600080fd5b506001600160a01b0381358116916020013516610586565b005b6100ed610654565b6101e3610660565b6040805160208082528351818301528351919283929083019185019080838360005b8381101561021d578181015183820152602001610205565b50505050905090810190601f16801561024a5780820380516001836020036101000a031916815260200191505b509250505060405180910390f35b6100ed610685565b6100ed61068a565b60055481565b6000610278610e7a565b610280610690565b905061028a610ea8565b6102926107dd565b9050600060065460ff1660048111156102a757fe5b141561037e576102b68261088b565b15610313576102c4816108f6565b156102df576102d3600261093b565b6005549250505061051b565b6102e8816109a1565b156102f7576102d3600161093b565b610301600161093b565b61030a816109c4565b9250505061051b565b61031c826109a1565b1561035d5761032a816108f6565b15610339576102d3600461093b565b610343600361093b565b61034c816109a1565b15610301576005549250505061051b565b610366816108f6565b1561037557610375600461093b565b61030a826109e5565b600160065460ff16600481111561039157fe5b14156103c8576103a182826109fd565b156103b057610375600061093b565b6103b9816108f6565b15610343576102d3600261093b565b600260065460ff1660048111156103db57fe5b14156103fa576103eb82826109fd565b156102d357610375600061093b565b600360065460ff16600481111561040d57fe5b14156104b45761041c8261088b565b156104435761042a816108f6565b15610439576102d3600261093b565b610343600161093b565b61044c826109a1565b156104695761045a816108f6565b15610343576102d3600461093b565b610472816108f6565b1561048157610375600461093b565b61048a816109a1565b1561049b576005549250505061051b565b6104a58282610a44565b156102f757610375600061093b565b600460065460ff1660048111156104c757fe5b1415610518576104d68261088b565b156104e5576102d3600261093b565b6104ee826109a1565b156104ff576005549250505061051b565b61050982826109fd565b1561037557610375600061093b565b50505b90565b601281565b60065460ff1681565b6001546001600160a01b031681565b66b1a2bc2ec5000081565b6706f05b59d3b2000081565b600181565b6002546001600160a01b031681565b6000546001600160a01b031690565b6000546001600160a01b0316331490565b61058e610575565b6105df576040805162461bcd60e51b815260206004820181905260248201527f4f776e61626c653a2063616c6c6572206973206e6f7420746865206f776e6572604482015290519081900360640190fd5b6105e882610adb565b6105f181610adb565b600180546001600160a01b038481166001600160a01b03199283161790925560028054928416929091169190911790556006805460ff19169055610633610e7a565b61063b610690565b9050610646816109e5565b5061064f610b8e565b505050565b670de0b6b3a764000081565b60405180604001604052806009815260200168141c9a58d95199595960ba1b81525081565b600681565b61384081565b610698610e7a565b600160009054906101000a90046001600160a01b03166001600160a01b031663313ce5676040518163ffffffff1660e01b815260040160206040518083038186803b1580156106e657600080fd5b505afa92505050801561070b57506040513d602081101561070657600080fd5b505160015b6107145761051b565b60ff166080820152600160009054906101000a90046001600160a01b03166001600160a01b031663feaf968c6040518163ffffffff1660e01b815260040160a06040518083038186803b15801561076a57600080fd5b505afa9250505080156107ac57506040513d60a081101561078a57600080fd5b5080516020820151604083015160608401516080909401519293919290919060015b6107b55761051b565b5069ffffffffffffffffffff909316845250602083015260408201526001606082015261051b565b6107e5610ea8565b600260009054906101000a90046001600160a01b03166001600160a01b031663994338286040518163ffffffff1660e01b815260040160606040518083038186803b15801561083357600080fd5b505afa92505050801561086757506040513d606081101561085357600080fd5b508051602082015160409092015190919060015b6108705761051b565b9115158352602083015260408201526001606082015261051b565b6000816060015161089e575060016108f1565b815169ffffffffffffffffffff166108b8575060016108f1565b604082015115806108cc5750428260400151115b156108d9575060016108f1565b60008260200151136108ed575060016108f1565b5060005b919050565b60008160600151610909575060016108f1565b6040820151158061091d5750428260400151115b1561092a575060016108f1565b60208201516108ed575060016108f1565b6006805482919060ff1916600183600481111561095457fe5b02179055507f5c57579a8214fe4f710c1c56fa829f045b9fa6d225a744225a30c32188064d4e816040518082600481111561098b57fe5b60ff16815260200191505060405180910390a150565b60006138406109bd836040015142610bd890919063ffffffff16565b1192915050565b6000806109d48360200151610c1a565b90506109df81610c31565b92915050565b6000806109d48360200151846080015160ff16610c6c565b6000610a08826108f6565b80610a175750610a17826109a1565b80610a265750610a26836109a1565b15610a33575060006109df565b610a3d8383610a44565b9392505050565b600080610a5c8460200151856080015160ff16610c6c565b90506000610a6d8460200151610c1a565b90506000610a7b8284610cbd565b90506000610a898385610cd3565b90506000610ac583610ab9670de0b6b3a7640000610aad868463ffffffff610bd816565b9063ffffffff610ce316565b9063ffffffff610d3c16565b66b1a2bc2ec50000101598975050505050505050565b6001600160a01b038116610b36576040805162461bcd60e51b815260206004820152601e60248201527f4163636f756e742063616e6e6f74206265207a65726f20616464726573730000604482015290519081900360640190fd5b803b80610b8a576040805162461bcd60e51b815260206004820181905260248201527f4163636f756e7420636f64652073697a652063616e6e6f74206265207a65726f604482015290519081900360640190fd5b5050565b600080546040516001600160a01b03909116907f8be0079c531659141344cd1fd0a4f28419497f9722a3daafe3b4186f6b6457e0908390a3600080546001600160a01b0319169055565b6000610a3d83836040518060400160405280601e81526020017f536166654d6174683a207375627472616374696f6e206f766572666c6f770000815250610d7e565b60006109df8264e8d4a5100063ffffffff610ce316565b60058190556040805182815290517f4d29de21de555af78a62fc82dd4bc05e9ae5b0660a37f04729527e0f22780cd39181900360200190a150565b60008060128310610c9557610c8e846011198501600a0a63ffffffff610d3c16565b9050610a3d565b6012831015610a3d57610cb5846012859003600a0a63ffffffff610ce316565b949350505050565b6000818310610ccc5781610a3d565b5090919050565b600081831015610ccc5781610a3d565b600082610cf2575060006109df565b82820282848281610cff57fe5b0414610a3d5760405162461bcd60e51b8152600401808060200182810382526021815260200180610ed56021913960400191505060405180910390fd5b6000610a3d83836040518060400160405280601a81526020017f536166654d6174683a206469766973696f6e206279207a65726f000000000000815250610e15565b60008184841115610e0d5760405162461bcd60e51b81526004018080602001828103825283818151815260200191508051906020019080838360005b83811015610dd2578181015183820152602001610dba565b50505050905090810190601f168015610dff5780820380516001836020036101000a031916815260200191505b509250505060405180910390fd5b505050900390565b60008183610e645760405162461bcd60e51b8152602060048201818152835160248401528351909283926044909101919085019080838360008315610dd2578181015183820152602001610dba565b506000838581610e7057fe5b0495945050505050565b6040805160a08101825260008082526020820181905291810182905260608101829052608081019190915290565b60405180608001604052806000151581526020016000815260200160008152602001600015158152509056fe536166654d6174683a206d756c7469706c69636174696f6e206f766572666c6f77a26469706673582212204614f9ebe11567221f13963a3fdc64dae0b619df6252cc452ccb0923e5dc6b6a64736f6c634300060b0033",
  "linkReferences": {},
  "deployedLinkReferences": {}
}