{
  "_format": "hh-sol-artifact-1",
  "contractName": "PriceFeedTester",
  "sourceName": "contracts/TestContracts/PriceFeedTester.sol",
  "abi": [
    {
      "anonymous": false,
      "inputs": [
        {
          "indexed": false,
          "internalType": "uint256",
          "name": "_lastGoodPrice",
          "type": "uint256"
        }
      ],
      "name": "LastGoodPriceUpdated",
      "type": "event"
    },
    {
      "anonymous": false,
      "inputs": [
        {
          "indexed": true,
          "internalType": "address",
          "name": "previousOwner",
          "type": "address"
        },
        {
          "indexed": true,
          "internalType": "address",
          "name": "newOwner",
          "type": "address"
        }
      ],
      "name": "OwnershipTransferred",
      "type": "event"
    },
    {
      "anonymous": false,
      "inputs": [
        {
          "indexed": false,
          "internalType": "enum IPriceFeed.Status",
          "name": "newStatus",
          "type": "uint8"
        }
      ],
      "name": "PriceFeedStatusChanged",
      "type": "event"
    },
    {
      "inputs": [],
      "name": "DECIMAL_PRECISION",
      "outputs": [
        {
          "internalType": "uint256",
          "name": "",
          "type": "uint256"
        }
      ],
      "stateMutability": "view",
      "type": "function"
    },
    {
      "inputs": [],
      "name": "MAX_PRICE_DEVIATION_FROM_PREVIOUS_ROUND",
      "outputs": [
        {
          "internalType": "uint256",
          "name": "",
          "type": "uint256"
        }
      ],
      "stateMutability": "view",
      "type": "function"
    },
    {
      "inputs": [],
      "name": "MAX_PRICE_DIFFERENCE_BETWEEN_ORACLES",
      "outputs": [
        {
          "internalType": "uint256",
          "name": "",
          "type": "uint256"
        }
      ],
      "stateMutability": "view",
      "type": "function"
    },
    {
      "inputs": [],
      "name": "NAME",
      "outputs": [
        {
          "internalType": "string",
          "name": "",
          "type": "string"
        }
      ],
      "stateMutability": "view",
      "type": "function"
    },
    {
      "inputs": [],
      "name": "TARGET_DIGITS",
      "outputs": [
        {
          "internalType": "uint256",
          "name": "",
          "type": "uint256"
        }
      ],
      "stateMutability": "view",
      "type": "function"
    },
    {
      "inputs": [],
      "name": "TELLOR_DIGITS",
      "outputs": [
        {
          "internalType": "uint256",
          "name": "",
          "type": "uint256"
        }
      ],
      "stateMutability": "view",
      "type": "function"
    },
    {
      "inputs": [],
      "name": "TIMEOUT",
      "outputs": [
        {
          "internalType": "uint256",
          "name": "",
          "type": "uint256"
        }
      ],
      "stateMutability": "view",
      "type": "function"
    },
    {
      "inputs": [],
      "name": "fetchPrice",
      "outputs": [
        {
          "internalType": "uint256",
          "name": "price",
          "type": "uint256"
        }
      ],
      "stateMutability": "nonpayable",
      "type": "function"
    },
    {
      "inputs": [
        {
          "internalType": "address",
          "name": "_priceAggregatorAddress",
          "type": "address"
        },
        {
          "internalType": "address",
          "name": "_tellorCallerAddress",
          "type": "address"
        }
      ],
      "name": "initialize",
      "outputs": [],
      "stateMutability": "nonpayable",
      "type": "function"
    },
    {
      "inputs": [],
      "name": "lastGoodPrice",
      "outputs": [
        {
          "internalType": "uint256",
          "name": "",
          "type": "uint256"
        }
      ],
      "stateMutability": "view",
      "type": "function"
    },
    {
      "inputs": [],
      "name": "owner",
      "outputs": [
        {
          "internalType": "address",
          "name": "",
          "type": "address"
        }
      ],
      "stateMutability": "view",
      "type": "function"
    },
    {
      "inputs": [],
      "name": "priceAggregator",
      "outputs": [
        {
          "internalType": "contract AggregatorV3Interface",
          "name": "",
          "type": "address"
        }
      ],
      "stateMutability": "view",
      "type": "function"
    },
    {
      "inputs": [],
      "name": "renounceOwnership",
      "outputs": [],
      "stateMutability": "nonpayable",
      "type": "function"
    },
    {
      "inputs": [
        {
          "internalType": "uint256",
          "name": "_lastGoodPrice",
          "type": "uint256"
        }
      ],
      "name": "setLastGoodPrice",
      "outputs": [],
      "stateMutability": "nonpayable",
      "type": "function"
    },
    {
      "inputs": [
        {
          "internalType": "enum IPriceFeed.Status",
          "name": "_status",
          "type": "uint8"
        }
      ],
      "name": "setStatus",
      "outputs": [],
      "stateMutability": "nonpayable",
      "type": "function"
    },
    {
      "inputs": [],
      "name": "status",
      "outputs": [
        {
          "internalType": "enum IPriceFeed.Status",
          "name": "",
          "type": "uint8"
        }
      ],
      "stateMutability": "view",
      "type": "function"
    },
    {
      "inputs": [],
      "name": "tellorCaller",
      "outputs": [
        {
          "internalType": "contract ITellorCaller",
          "name": "",
          "type": "address"
        }
      ],
      "stateMutability": "view",
      "type": "function"
    },
    {
      "inputs": [
        {
          "internalType": "address",
          "name": "newOwner",
          "type": "address"
        }
      ],
      "name": "transferOwnership",
      "outputs": [],
      "stateMutability": "nonpayable",
      "type": "function"
    }
  ],
  "bytecode": "0x608060405234801561001057600080fd5b506112b8806100206000396000f3fe608060405234801561001057600080fd5b50600436106100f65760003560e01c8063715018a611610092578063715018a6146101d25780637c61e3bf146101da5780638da5cb5b146101e2578063a20baee6146101ea578063a3f4df7e146101f2578063c521b3f51461026f578063ebf8e6c61461011d578063f2fde38b1461028c578063f56f48f2146102b2576100f6565b80630490be83146100fb5780630fdb11cf146101155780631be5c92f1461011d578063200d2ed2146101255780632e49d78b1461014e5780633078fff51461017057806345079cb414610194578063485cc9551461019c57806358a6aa88146101ca575b600080fd5b6101036102ba565b60408051918252519081900360200190f35b6101036102c0565b610103610563565b61012d610568565b6040518082600481111561013d57fe5b815260200191505060405180910390f35b61016e6004803603602081101561016457600080fd5b503560ff16610571565b005b610178610592565b604080516001600160a01b039092168252519081900360200190f35b6101036105a1565b61016e600480360360408110156101b257600080fd5b506001600160a01b03813581169160200135166105ac565b610103610662565b61016e61066e565b61017861071a565b610178610729565b610103610738565b6101fa610744565b6040805160208082528351818301528351919283929083019185019080838360005b8381101561023457818101518382015260200161021c565b50505050905090810190601f1680156102615780820380516001836020036101000a031916815260200191505b509250505060405180910390f35b61016e6004803603602081101561028557600080fd5b5035610769565b61016e600480360360208110156102a257600080fd5b50356001600160a01b031661076e565b610103610871565b60695481565b6000806102cb610877565b905060006102d76109c4565b90506000606a5460ff1660048111156102ec57fe5b14156103c3576102fb82610a72565b156103585761030981610add565b15610324576103186002610b22565b60695492505050610560565b61032d81610b85565b1561033c576103186001610b22565b6103466001610b22565b61034f81610ba8565b92505050610560565b61036182610b85565b156103a25761036f81610add565b1561037e576103186004610b22565b6103886003610b22565b61039181610b85565b156103465760695492505050610560565b6103ab81610add565b156103ba576103ba6004610b22565b61034f82610bc9565b6001606a5460ff1660048111156103d657fe5b141561040d576103e68282610be1565b156103f5576103ba6000610b22565b6103fe81610add565b15610388576103186002610b22565b6002606a5460ff16600481111561042057fe5b141561043f576104308282610be1565b15610318576103ba6000610b22565b6003606a5460ff16600481111561045257fe5b14156104f95761046182610a72565b156104885761046f81610add565b1561047e576103186002610b22565b6103886001610b22565b61049182610b85565b156104ae5761049f81610add565b15610388576103186004610b22565b6104b781610add565b156104c6576103ba6004610b22565b6104cf81610b85565b156104e05760695492505050610560565b6104ea8282610c28565b1561033c576103ba6000610b22565b6004606a5460ff16600481111561050c57fe5b141561055d5761051b82610a72565b1561052a576103186002610b22565b61053382610b85565b156105445760695492505050610560565b61054e8282610be1565b156103ba576103ba6000610b22565b50505b90565b601281565b606a5460ff1681565b606a805482919060ff1916600183600481111561058a57fe5b021790555050565b6065546001600160a01b031681565b66b1a2bc2ec5000081565b600054610100900460ff16806105c557506105c5610cad565b806105d3575060005460ff16155b61060e5760405162461bcd60e51b815260040180806020018281038252602e815260200180611214602e913960400191505060405180910390fd5b600054610100900460ff16158015610639576000805460ff1961ff0019909116610100171660011790555b610641610cbe565b61064b8383610d70565b801561065d576000805461ff00191690555b505050565b6706f05b59d3b2000081565b610676610dd7565b6001600160a01b0316610687610729565b6001600160a01b0316146106e2576040805162461bcd60e51b815260206004820181905260248201527f4f776e61626c653a2063616c6c6572206973206e6f7420746865206f776e6572604482015290519081900360640190fd5b6033546040516000916001600160a01b031690600080516020611263833981519152908390a3603380546001600160a01b0319169055565b6066546001600160a01b031681565b6033546001600160a01b031690565b670de0b6b3a764000081565b60405180604001604052806009815260200168141c9a58d95199595960ba1b81525081565b606955565b610776610dd7565b6001600160a01b0316610787610729565b6001600160a01b0316146107e2576040805162461bcd60e51b815260206004820181905260248201527f4f776e61626c653a2063616c6c6572206973206e6f7420746865206f776e6572604482015290519081900360640190fd5b6001600160a01b0381166108275760405162461bcd60e51b81526004018080602001828103825260268152602001806111ee6026913960400191505060405180910390fd5b6033546040516001600160a01b0380841692169060008051602061126383398151915290600090a3603380546001600160a01b0319166001600160a01b0392909216919091179055565b61384081565b61087f611193565b606560009054906101000a90046001600160a01b03166001600160a01b031663313ce5676040518163ffffffff1660e01b815260040160206040518083038186803b1580156108cd57600080fd5b505afa9250505080156108f257506040513d60208110156108ed57600080fd5b505160015b6108fb57610560565b60ff166080820152606560009054906101000a90046001600160a01b03166001600160a01b031663feaf968c6040518163ffffffff1660e01b815260040160a06040518083038186803b15801561095157600080fd5b505afa92505050801561099357506040513d60a081101561097157600080fd5b5080516020820151604083015160608401516080909401519293919290919060015b61099c57610560565b5069ffffffffffffffffffff9093168452506020830152604082015260016060820152610560565b6109cc6111c1565b606660009054906101000a90046001600160a01b03166001600160a01b031663994338286040518163ffffffff1660e01b815260040160606040518083038186803b158015610a1a57600080fd5b505afa925050508015610a4e57506040513d6060811015610a3a57600080fd5b508051602082015160409092015190919060015b610a5757610560565b91151583526020830152604082015260016060820152610560565b60008160600151610a8557506001610ad8565b815169ffffffffffffffffffff16610a9f57506001610ad8565b60408201511580610ab35750428260400151115b15610ac057506001610ad8565b6000826020015113610ad457506001610ad8565b5060005b919050565b60008160600151610af057506001610ad8565b60408201511580610b045750428260400151115b15610b1157506001610ad8565b6020820151610ad457506001610ad8565b606a805482919060ff19166001836004811115610b3b57fe5b02179055507f5c57579a8214fe4f710c1c56fa829f045b9fa6d225a744225a30c32188064d4e8160405180826004811115610b7257fe5b815260200191505060405180910390a150565b6000613840610ba1836040015142610ddb90919063ffffffff16565b1192915050565b600080610bb88360200151610e38565b9050610bc381610e45565b92915050565b600080610bb88360200151846080015160ff16610e80565b6000610bec82610add565b80610bfb5750610bfb82610b85565b80610c0a5750610c0a83610b85565b15610c1757506000610bc3565b610c218383610c28565b9392505050565b600080610c408460200151856080015160ff16610e80565b90506000610c518460200151610e38565b90506000610c5f8284610ec5565b90506000610c6d8385610edb565b90506000610c9783610c91670de0b6b3a7640000610c8b8684610ddb565b90610eeb565b90610f44565b66b1a2bc2ec50000101598975050505050505050565b6000610cb830610fab565b15905090565b600054610100900460ff1680610cd75750610cd7610cad565b80610ce5575060005460ff16155b610d205760405162461bcd60e51b815260040180806020018281038252602e815260200180611214602e913960400191505060405180910390fd5b600054610100900460ff16158015610d4b576000805460ff1961ff0019909116610100171660011790555b610d53610fb1565b610d5b611051565b8015610d6d576000805461ff00191690555b50565b610d7982611138565b610d8281611138565b606580546001600160a01b038481166001600160a01b0319928316179092556066805492841692909116919091179055606a805460ff191690556000610dc6610877565b9050610dd181610bc9565b50505050565b3390565b600082821115610e32576040805162461bcd60e51b815260206004820152601e60248201527f536166654d6174683a207375627472616374696f6e206f766572666c6f770000604482015290519081900360640190fd5b50900390565b6000610bc3826001610eeb565b60698190556040805182815290517f4d29de21de555af78a62fc82dd4bc05e9ae5b0660a37f04729527e0f22780cd39181900360200190a150565b60008060128310610ea357610e9c846011198501600a0a610f44565b9050610c21565b6012831015610c2157610ebd846012859003600a0a610eeb565b949350505050565b6000818310610ed45781610c21565b5090919050565b600081831015610ed45781610c21565b600082610efa57506000610bc3565b82820282848281610f0757fe5b0414610c215760405162461bcd60e51b81526004018080602001828103825260218152602001806112426021913960400191505060405180910390fd5b6000808211610f9a576040805162461bcd60e51b815260206004820152601a60248201527f536166654d6174683a206469766973696f6e206279207a65726f000000000000604482015290519081900360640190fd5b818381610fa357fe5b049392505050565b3b151590565b600054610100900460ff1680610fca5750610fca610cad565b80610fd8575060005460ff16155b6110135760405162461bcd60e51b815260040180806020018281038252602e815260200180611214602e913960400191505060405180910390fd5b600054610100900460ff16158015610d5b576000805460ff1961ff0019909116610100171660011790558015610d6d576000805461ff001916905550565b600054610100900460ff168061106a575061106a610cad565b80611078575060005460ff16155b6110b35760405162461bcd60e51b815260040180806020018281038252602e815260200180611214602e913960400191505060405180910390fd5b600054610100900460ff161580156110de576000805460ff1961ff0019909116610100171660011790555b60006110e8610dd7565b603380546001600160a01b0319166001600160a01b03831690811790915560405191925090600090600080516020611263833981519152908290a3508015610d6d576000805461ff001916905550565b6001600160a01b038116610d6d576040805162461bcd60e51b815260206004820152601e60248201527f4163636f756e742063616e6e6f74206265207a65726f20616464726573730000604482015290519081900360640190fd5b6040805160a08101825260008082526020820181905291810182905260608101829052608081019190915290565b60405180608001604052806000151581526020016000815260200160008152602001600015158152509056fe4f776e61626c653a206e6577206f776e657220697320746865207a65726f2061646472657373496e697469616c697a61626c653a20636f6e747261637420697320616c726561647920696e697469616c697a6564536166654d6174683a206d756c7469706c69636174696f6e206f766572666c6f778be0079c531659141344cd1fd0a4f28419497f9722a3daafe3b4186f6b6457e0a2646970667358221220b4f52e5fd5645050884fdd6c4d786c2f2dd49fbf1747c6249411d0dda1ad722664736f6c63430007060033",
  "linkReferences": {},
  "deployedLinkReferences": {}
}