{
  "_format": "hh-sol-artifact-1",
  "contractName": "PriceFeedTester",
  "sourceName": "contracts/TestContracts/PriceFeedTester.sol",
  "abi": [
    {
      "inputs": [
        {
          "internalType": "uint256",
          "name": "_timeout",
          "type": "uint256"
        }
      ],
      "stateMutability": "nonpayable",
      "type": "constructor"
    },
    {
      "anonymous": false,
      "inputs": [
        {
          "indexed": false,
          "internalType": "uint256",
          "name": "_lastGoodPrice",
          "type": "uint256"
        }
      ],
      "name": "LastGoodPriceUpdated",
      "type": "event"
    },
    {
      "anonymous": false,
      "inputs": [
        {
          "indexed": true,
          "internalType": "address",
          "name": "previousOwner",
          "type": "address"
        },
        {
          "indexed": true,
          "internalType": "address",
          "name": "newOwner",
          "type": "address"
        }
      ],
      "name": "OwnershipTransferred",
      "type": "event"
    },
    {
      "anonymous": false,
      "inputs": [
        {
          "indexed": false,
          "internalType": "enum IPriceFeed.Status",
          "name": "newStatus",
          "type": "uint8"
        }
      ],
      "name": "PriceFeedStatusChanged",
      "type": "event"
    },
    {
      "inputs": [],
      "name": "DECIMAL_PRECISION",
      "outputs": [
        {
          "internalType": "uint256",
          "name": "",
          "type": "uint256"
        }
      ],
      "stateMutability": "view",
      "type": "function"
    },
    {
      "inputs": [],
      "name": "MAX_PRICE_DEVIATION_FROM_PREVIOUS_ROUND",
      "outputs": [
        {
          "internalType": "uint256",
          "name": "",
          "type": "uint256"
        }
      ],
      "stateMutability": "view",
      "type": "function"
    },
    {
      "inputs": [],
      "name": "MAX_PRICE_DIFFERENCE_BETWEEN_ORACLES",
      "outputs": [
        {
          "internalType": "uint256",
          "name": "",
          "type": "uint256"
        }
      ],
      "stateMutability": "view",
      "type": "function"
    },
    {
      "inputs": [],
      "name": "NAME",
      "outputs": [
        {
          "internalType": "string",
          "name": "",
          "type": "string"
        }
      ],
      "stateMutability": "view",
      "type": "function"
    },
    {
      "inputs": [],
      "name": "TARGET_DIGITS",
      "outputs": [
        {
          "internalType": "uint256",
          "name": "",
          "type": "uint256"
        }
      ],
      "stateMutability": "view",
      "type": "function"
    },
    {
      "inputs": [],
      "name": "TIMEOUT",
      "outputs": [
        {
          "internalType": "uint256",
          "name": "",
          "type": "uint256"
        }
      ],
      "stateMutability": "view",
      "type": "function"
    },
    {
      "inputs": [],
      "name": "fetchPrice",
      "outputs": [
        {
          "internalType": "uint256",
          "name": "price",
          "type": "uint256"
        }
      ],
      "stateMutability": "nonpayable",
      "type": "function"
    },
    {
      "inputs": [
        {
          "internalType": "address",
          "name": "_priceAggregatorAddress",
          "type": "address"
        },
        {
          "internalType": "address",
          "name": "_tellorCallerAddress",
          "type": "address"
        }
      ],
      "name": "initialize",
      "outputs": [],
      "stateMutability": "nonpayable",
      "type": "function"
    },
    {
      "inputs": [],
      "name": "lastGoodPrice",
      "outputs": [
        {
          "internalType": "uint256",
          "name": "",
          "type": "uint256"
        }
      ],
      "stateMutability": "view",
      "type": "function"
    },
    {
      "inputs": [],
      "name": "owner",
      "outputs": [
        {
          "internalType": "address",
          "name": "",
          "type": "address"
        }
      ],
      "stateMutability": "view",
      "type": "function"
    },
    {
      "inputs": [],
      "name": "priceAggregator",
      "outputs": [
        {
          "internalType": "contract AggregatorV3Interface",
          "name": "",
          "type": "address"
        }
      ],
      "stateMutability": "view",
      "type": "function"
    },
    {
      "inputs": [],
      "name": "renounceOwnership",
      "outputs": [],
      "stateMutability": "nonpayable",
      "type": "function"
    },
    {
      "inputs": [
        {
          "internalType": "uint256",
          "name": "_lastGoodPrice",
          "type": "uint256"
        }
      ],
      "name": "setLastGoodPrice",
      "outputs": [],
      "stateMutability": "nonpayable",
      "type": "function"
    },
    {
      "inputs": [
        {
          "internalType": "enum IPriceFeed.Status",
          "name": "_status",
          "type": "uint8"
        }
      ],
      "name": "setStatus",
      "outputs": [],
      "stateMutability": "nonpayable",
      "type": "function"
    },
    {
      "inputs": [],
      "name": "status",
      "outputs": [
        {
          "internalType": "enum IPriceFeed.Status",
          "name": "",
          "type": "uint8"
        }
      ],
      "stateMutability": "view",
      "type": "function"
    },
    {
      "inputs": [],
      "name": "tellorCaller",
      "outputs": [
        {
          "internalType": "contract ITellorCaller",
          "name": "",
          "type": "address"
        }
      ],
      "stateMutability": "view",
      "type": "function"
    },
    {
      "inputs": [
        {
          "internalType": "address",
          "name": "newOwner",
          "type": "address"
        }
      ],
      "name": "transferOwnership",
      "outputs": [],
      "stateMutability": "nonpayable",
      "type": "function"
    }
  ],
  "bytecode": "0x60a06040523480156200001157600080fd5b50604051620015a7380380620015a7833981810160405260208110156200003757600080fd5b50516000548190610100900460ff168062000057575062000057620000f0565b8062000066575060005460ff16155b620000a35760405162461bcd60e51b815260040180806020018281038252602e81526020018062001579602e913960400191505060405180910390fd5b600054610100900460ff16158015620000cf576000805460ff1961ff0019909116610100171660011790555b60808290528015620000e7576000805461ff00191690555b50505062000114565b600062000108306200010e60201b620008f81760201c565b15905090565b3b151590565b60805161144562000134600039806108d65280610c1552506114456000f3fe608060405234801561001057600080fd5b50600436106100eb5760003560e01c806358a6aa881161009257806358a6aa88146101bf578063715018a6146101c75780637c61e3bf146101cf5780638da5cb5b146101d7578063a20baee6146101df578063a3f4df7e146101e7578063c521b3f514610264578063f2fde38b14610281578063f56f48f2146102a7576100eb565b80630490be83146100f05780630fdb11cf1461010a5780631be5c92f14610112578063200d2ed21461011a5780632e49d78b146101435780633078fff51461016557806345079cb414610189578063485cc95514610191575b600080fd5b6100f86102af565b60408051918252519081900360200190f35b6100f86102b5565b6100f86105c6565b6101226105cb565b6040518082600481111561013257fe5b815260200191505060405180910390f35b6101636004803603602081101561015957600080fd5b503560ff166105d4565b005b61016d6105f5565b604080516001600160a01b039092168252519081900360200190f35b6100f8610604565b610163600480360360408110156101a757600080fd5b506001600160a01b038135811691602001351661060f565b6100f86106c5565b6101636106d1565b61016d61077d565b61016d61078c565b6100f861079b565b6101ef6107a7565b6040805160208082528351818301528351919283929083019185019080838360005b83811015610229578181015183820152602001610211565b50505050905090810190601f1680156102565780820380516001836020036101000a031916815260200191505b509250505060405180910390f35b6101636004803603602081101561027a57600080fd5b50356107cc565b6101636004803603602081101561029757600080fd5b50356001600160a01b03166107d1565b6100f86108d4565b60675481565b6000806102c0610902565b905060006102cc610a4f565b9050600060685460ff1660048111156102e157fe5b141561040e576102f082610aff565b1561034d576102fe81610b69565b156103195761030d6002610bae565b606754925050506105c3565b61032281610c11565b156103315761030d6001610bae565b61033b6001610bae565b61034481610c52565b925050506105c3565b61035682610c11565b156103975761036481610b69565b156103735761030d6004610bae565b61037d6003610bae565b61038681610c11565b1561033b57606754925050506105c3565b6103a082610c69565b156103ed576103ae81610b69565b156103bd5761030d6002610bae565b6103c681610c11565b156103d55761030d6001610bae565b6103df8282610cdf565b156103315761034482610d4d565b6103f681610b69565b15610405576104056004610bae565b61034482610d4d565b600160685460ff16600481111561042157fe5b1415610458576104318282610d70565b15610440576104056000610bae565b61044981610b69565b1561037d5761030d6002610bae565b600260685460ff16600481111561046b57fe5b141561048a5761047b8282610d70565b1561030d576104056000610bae565b600360685460ff16600481111561049d57fe5b1415610544576104ac82610aff565b156104d3576104ba81610b69565b156104c95761030d6002610bae565b61037d6001610bae565b6104dc82610c11565b156104f9576104ea81610b69565b1561037d5761030d6004610bae565b61050281610b69565b15610511576104056004610bae565b61051a81610c11565b1561052b57606754925050506105c3565b6105358282610cdf565b15610331576104056000610bae565b600460685460ff16600481111561055757fe5b14156105c05761056682610aff565b156105755761030d6002610bae565b61057e82610c11565b1561058f57606754925050506105c3565b6105998282610d70565b156105a8576104056000610bae565b6105b182610c69565b156104055761030d6002610bae565b50505b90565b601281565b60685460ff1681565b6068805482919060ff191660018360048111156105ed57fe5b021790555050565b6065546001600160a01b031681565b66b1a2bc2ec5000081565b600054610100900460ff16806106285750610628610dc6565b80610636575060005460ff16155b6106715760405162461bcd60e51b815260040180806020018281038252602e815260200180611371602e913960400191505060405180910390fd5b600054610100900460ff1615801561069c576000805460ff1961ff0019909116610100171660011790555b6106a4610dd7565b6106ae8383610e89565b80156106c0576000805461ff00191690555b505050565b6706f05b59d3b2000081565b6106d9610f47565b6001600160a01b03166106ea61078c565b6001600160a01b031614610745576040805162461bcd60e51b815260206004820181905260248201527f4f776e61626c653a2063616c6c6572206973206e6f7420746865206f776e6572604482015290519081900360640190fd5b6033546040516000916001600160a01b0316906000805160206113c0833981519152908390a3603380546001600160a01b0319169055565b6066546001600160a01b031681565b6033546001600160a01b031690565b670de0b6b3a764000081565b60405180604001604052806009815260200168141c9a58d95199595960ba1b81525081565b606755565b6107d9610f47565b6001600160a01b03166107ea61078c565b6001600160a01b031614610845576040805162461bcd60e51b815260206004820181905260248201527f4f776e61626c653a2063616c6c6572206973206e6f7420746865206f776e6572604482015290519081900360640190fd5b6001600160a01b03811661088a5760405162461bcd60e51b815260040180806020018281038252602681526020018061134b6026913960400191505060405180910390fd5b6033546040516001600160a01b038084169216906000805160206113c083398151915290600090a3603380546001600160a01b0319166001600160a01b0392909216919091179055565b7f000000000000000000000000000000000000000000000000000000000000000081565b803b15155b919050565b61090a6112f0565b606560009054906101000a90046001600160a01b03166001600160a01b031663313ce5676040518163ffffffff1660e01b815260040160206040518083038186803b15801561095857600080fd5b505afa92505050801561097d57506040513d602081101561097857600080fd5b505160015b610986576105c3565b60ff166080820152606560009054906101000a90046001600160a01b03166001600160a01b031663feaf968c6040518163ffffffff1660e01b815260040160a06040518083038186803b1580156109dc57600080fd5b505afa925050508015610a1e57506040513d60a08110156109fc57600080fd5b5080516020820151604083015160608401516080909401519293919290919060015b610a27576105c3565b5069ffffffffffffffffffff90931684525060208301526040820152600160608201526105c3565b610a5761131e565b606660009054906101000a90046001600160a01b03166001600160a01b031663994338286040518163ffffffff1660e01b8152600401606060405180830381600087803b158015610aa757600080fd5b505af1925050508015610adb57506040513d6060811015610ac757600080fd5b508051602082015160409092015190919060015b610ae4576105c3565b911515835260208301526040820152600160608201526105c3565b60008160600151610b12575060016108fd565b815169ffffffffffffffffffff16610b2c575060016108fd565b60408201511580610b405750428260400151115b15610b4d575060016108fd565b6000826020015113610b61575060016108fd565b506000919050565b60008160600151610b7c575060016108fd565b60408201511580610b905750428260400151115b15610b9d575060016108fd565b6020820151610b61575060016108fd565b6068805482919060ff19166001836004811115610bc757fe5b02179055507f5c57579a8214fe4f710c1c56fa829f045b9fa6d225a744225a30c32188064d4e8160405180826004811115610bfe57fe5b815260200191505060405180910390a150565b60007f0000000000000000000000000000000000000000000000000000000000000000610c4b836040015142610f4b90919063ffffffff16565b1192915050565b6020810151600090610c6381610fa8565b92915050565b600080610c818360200151846080015160ff16610fe3565b90506000610c9182606754611028565b90506000610ca18360675461103e565b90506000610ccb82610cc5670de0b6b3a7640000610cbf8388610f4b565b9061104e565b906110a7565b6706f05b59d3b20000109695505050505050565b600080610cf78460200151856080015160ff16610fe3565b60208401519091506000610d0b8284611028565b90506000610d19838561103e565b90506000610d3783610cc5670de0b6b3a7640000610cbf8684610f4b565b66b1a2bc2ec50000101598975050505050505050565b600080610d658360200151846080015160ff16610fe3565b9050610c6381610fa8565b6000610d7b82610b69565b80610d8a5750610d8a82610c11565b80610d995750610d9983610aff565b80610da85750610da883610c11565b15610db557506000610c63565b610dbf8383610cdf565b9392505050565b6000610dd1306108f8565b15905090565b600054610100900460ff1680610df05750610df0610dc6565b80610dfe575060005460ff16155b610e395760405162461bcd60e51b815260040180806020018281038252602e815260200180611371602e913960400191505060405180910390fd5b600054610100900460ff16158015610e64576000805460ff1961ff0019909116610100171660011790555b610e6c61110e565b610e746111ae565b8015610e86576000805461ff00191690555b50565b610e9282611295565b610e9b81611295565b606580546001600160a01b038481166001600160a01b03199283161790925560668054928416929091169190911790556068805460ff191690556000610edf610902565b9050610eea81610aff565b158015610efd5750610efb81610c11565b155b610f385760405162461bcd60e51b81526004018080602001828103825260308152602001806113e06030913960400191505060405180910390fd5b610f4181610d4d565b50505050565b3390565b600082821115610fa2576040805162461bcd60e51b815260206004820152601e60248201527f536166654d6174683a207375627472616374696f6e206f766572666c6f770000604482015290519081900360640190fd5b50900390565b60678190556040805182815290517f4d29de21de555af78a62fc82dd4bc05e9ae5b0660a37f04729527e0f22780cd39181900360200190a150565b6000806012831061100657610fff846011198501600a0a6110a7565b9050610dbf565b6012831015610dbf57611020846012859003600a0a61104e565b949350505050565b60008183106110375781610dbf565b5090919050565b6000818310156110375781610dbf565b60008261105d57506000610c63565b8282028284828161106a57fe5b0414610dbf5760405162461bcd60e51b815260040180806020018281038252602181526020018061139f6021913960400191505060405180910390fd5b60008082116110fd576040805162461bcd60e51b815260206004820152601a60248201527f536166654d6174683a206469766973696f6e206279207a65726f000000000000604482015290519081900360640190fd5b81838161110657fe5b049392505050565b600054610100900460ff16806111275750611127610dc6565b80611135575060005460ff16155b6111705760405162461bcd60e51b815260040180806020018281038252602e815260200180611371602e913960400191505060405180910390fd5b600054610100900460ff16158015610e74576000805460ff1961ff0019909116610100171660011790558015610e86576000805461ff001916905550565b600054610100900460ff16806111c757506111c7610dc6565b806111d5575060005460ff16155b6112105760405162461bcd60e51b815260040180806020018281038252602e815260200180611371602e913960400191505060405180910390fd5b600054610100900460ff1615801561123b576000805460ff1961ff0019909116610100171660011790555b6000611245610f47565b603380546001600160a01b0319166001600160a01b038316908117909155604051919250906000906000805160206113c0833981519152908290a3508015610e86576000805461ff001916905550565b6001600160a01b038116610e86576040805162461bcd60e51b815260206004820152601e60248201527f4163636f756e742063616e6e6f74206265207a65726f20616464726573730000604482015290519081900360640190fd5b6040805160a08101825260008082526020820181905291810182905260608101829052608081019190915290565b60405180608001604052806000151581526020016000815260200160008152602001600015158152509056fe4f776e61626c653a206e6577206f776e657220697320746865207a65726f2061646472657373496e697469616c697a61626c653a20636f6e747261637420697320616c726561647920696e697469616c697a6564536166654d6174683a206d756c7469706c69636174696f6e206f766572666c6f778be0079c531659141344cd1fd0a4f28419497f9722a3daafe3b4186f6b6457e05072696365466565643a20436861696e6c696e6b206d75737420626520776f726b696e6720616e642063757272656e74a264697066735822122022436106411214ceefc26e67bdd42d37ce359a3bca56079515fb433202f553dc64736f6c63430007060033496e697469616c697a61626c653a20636f6e747261637420697320616c726561647920696e697469616c697a6564",
  "linkReferences": {},
  "deployedLinkReferences": {}
}