{
  "_format": "hh-sol-artifact-1",
  "contractName": "PriceFeed",
  "sourceName": "contracts/PriceFeed.sol",
  "abi": [
    {
      "anonymous": false,
      "inputs": [
        {
          "indexed": false,
          "internalType": "uint256",
          "name": "_lastGoodPrice",
          "type": "uint256"
        }
      ],
      "name": "LastGoodPriceUpdated",
      "type": "event"
    },
    {
      "anonymous": false,
      "inputs": [
        {
          "indexed": true,
          "internalType": "address",
          "name": "previousOwner",
          "type": "address"
        },
        {
          "indexed": true,
          "internalType": "address",
          "name": "newOwner",
          "type": "address"
        }
      ],
      "name": "OwnershipTransferred",
      "type": "event"
    },
    {
      "anonymous": false,
      "inputs": [
        {
          "indexed": false,
          "internalType": "enum IPriceFeed.Status",
          "name": "newStatus",
          "type": "uint8"
        }
      ],
      "name": "PriceFeedStatusChanged",
      "type": "event"
    },
    {
      "inputs": [],
      "name": "DECIMAL_PRECISION",
      "outputs": [
        {
          "internalType": "uint256",
          "name": "",
          "type": "uint256"
        }
      ],
      "stateMutability": "view",
      "type": "function"
    },
    {
      "inputs": [],
      "name": "MAX_PRICE_DEVIATION_FROM_PREVIOUS_ROUND",
      "outputs": [
        {
          "internalType": "uint256",
          "name": "",
          "type": "uint256"
        }
      ],
      "stateMutability": "view",
      "type": "function"
    },
    {
      "inputs": [],
      "name": "MAX_PRICE_DIFFERENCE_BETWEEN_ORACLES",
      "outputs": [
        {
          "internalType": "uint256",
          "name": "",
          "type": "uint256"
        }
      ],
      "stateMutability": "view",
      "type": "function"
    },
    {
      "inputs": [],
      "name": "NAME",
      "outputs": [
        {
          "internalType": "string",
          "name": "",
          "type": "string"
        }
      ],
      "stateMutability": "view",
      "type": "function"
    },
    {
      "inputs": [],
      "name": "TARGET_DIGITS",
      "outputs": [
        {
          "internalType": "uint256",
          "name": "",
          "type": "uint256"
        }
      ],
      "stateMutability": "view",
      "type": "function"
    },
    {
      "inputs": [],
      "name": "TELLOR_DIGITS",
      "outputs": [
        {
          "internalType": "uint256",
          "name": "",
          "type": "uint256"
        }
      ],
      "stateMutability": "view",
      "type": "function"
    },
    {
      "inputs": [],
      "name": "TIMEOUT",
      "outputs": [
        {
          "internalType": "uint256",
          "name": "",
          "type": "uint256"
        }
      ],
      "stateMutability": "view",
      "type": "function"
    },
    {
      "inputs": [],
      "name": "fetchPrice",
      "outputs": [
        {
          "internalType": "uint256",
          "name": "price",
          "type": "uint256"
        }
      ],
      "stateMutability": "nonpayable",
      "type": "function"
    },
    {
      "inputs": [
        {
          "internalType": "address",
          "name": "_priceAggregatorAddress",
          "type": "address"
        },
        {
          "internalType": "address",
          "name": "_tellorCallerAddress",
          "type": "address"
        }
      ],
      "name": "initialize",
      "outputs": [],
      "stateMutability": "nonpayable",
      "type": "function"
    },
    {
      "inputs": [],
      "name": "lastGoodPrice",
      "outputs": [
        {
          "internalType": "uint256",
          "name": "",
          "type": "uint256"
        }
      ],
      "stateMutability": "view",
      "type": "function"
    },
    {
      "inputs": [],
      "name": "owner",
      "outputs": [
        {
          "internalType": "address",
          "name": "",
          "type": "address"
        }
      ],
      "stateMutability": "view",
      "type": "function"
    },
    {
      "inputs": [],
      "name": "priceAggregator",
      "outputs": [
        {
          "internalType": "contract AggregatorV3Interface",
          "name": "",
          "type": "address"
        }
      ],
      "stateMutability": "view",
      "type": "function"
    },
    {
      "inputs": [],
      "name": "renounceOwnership",
      "outputs": [],
      "stateMutability": "nonpayable",
      "type": "function"
    },
    {
      "inputs": [],
      "name": "status",
      "outputs": [
        {
          "internalType": "enum IPriceFeed.Status",
          "name": "",
          "type": "uint8"
        }
      ],
      "stateMutability": "view",
      "type": "function"
    },
    {
      "inputs": [],
      "name": "tellorCaller",
      "outputs": [
        {
          "internalType": "contract ITellorCaller",
          "name": "",
          "type": "address"
        }
      ],
      "stateMutability": "view",
      "type": "function"
    },
    {
      "inputs": [
        {
          "internalType": "address",
          "name": "newOwner",
          "type": "address"
        }
      ],
      "name": "transferOwnership",
      "outputs": [],
      "stateMutability": "nonpayable",
      "type": "function"
    }
  ],
  "bytecode": "0x608060405234801561001057600080fd5b5061123f806100206000396000f3fe608060405234801561001057600080fd5b50600436106100e05760003560e01c8063715018a611610087578063715018a61461019c5780637c61e3bf146101a45780638da5cb5b146101ac578063a20baee6146101b4578063a3f4df7e146101bc578063ebf8e6c614610107578063f2fde38b14610239578063f56f48f21461025f576100e0565b80630490be83146100e55780630fdb11cf146100ff5780631be5c92f14610107578063200d2ed21461010f5780633078fff51461013857806345079cb41461015c578063485cc9551461016457806358a6aa8814610194575b600080fd5b6100ed610267565b60408051918252519081900360200190f35b6100ed61026d565b6100ed610510565b610117610515565b6040518082600481111561012757fe5b815260200191505060405180910390f35b61014061051e565b604080516001600160a01b039092168252519081900360200190f35b6100ed61052d565b6101926004803603604081101561017a57600080fd5b506001600160a01b0381358116916020013516610538565b005b6100ed6105ee565b6101926105fa565b6101406106a6565b6101406106b5565b6100ed6106c4565b6101c46106d0565b6040805160208082528351818301528351919283929083019185019080838360005b838110156101fe5781810151838201526020016101e6565b50505050905090810190601f16801561022b5780820380516001836020036101000a031916815260200191505b509250505060405180910390f35b6101926004803603602081101561024f57600080fd5b50356001600160a01b03166106f5565b6100ed6107f8565b60695481565b6000806102786107fe565b9050600061028461094b565b90506000606a5460ff16600481111561029957fe5b1415610370576102a8826109f9565b15610305576102b681610a64565b156102d1576102c56002610aa9565b6069549250505061050d565b6102da81610b0c565b156102e9576102c56001610aa9565b6102f36001610aa9565b6102fc81610b2f565b9250505061050d565b61030e82610b0c565b1561034f5761031c81610a64565b1561032b576102c56004610aa9565b6103356003610aa9565b61033e81610b0c565b156102f3576069549250505061050d565b61035881610a64565b15610367576103676004610aa9565b6102fc82610b50565b6001606a5460ff16600481111561038357fe5b14156103ba576103938282610b68565b156103a2576103676000610aa9565b6103ab81610a64565b15610335576102c56002610aa9565b6002606a5460ff1660048111156103cd57fe5b14156103ec576103dd8282610b68565b156102c5576103676000610aa9565b6003606a5460ff1660048111156103ff57fe5b14156104a65761040e826109f9565b156104355761041c81610a64565b1561042b576102c56002610aa9565b6103356001610aa9565b61043e82610b0c565b1561045b5761044c81610a64565b15610335576102c56004610aa9565b61046481610a64565b15610473576103676004610aa9565b61047c81610b0c565b1561048d576069549250505061050d565b6104978282610baf565b156102e9576103676000610aa9565b6004606a5460ff1660048111156104b957fe5b141561050a576104c8826109f9565b156104d7576102c56002610aa9565b6104e082610b0c565b156104f1576069549250505061050d565b6104fb8282610b68565b15610367576103676000610aa9565b50505b90565b601281565b606a5460ff1681565b6065546001600160a01b031681565b66b1a2bc2ec5000081565b600054610100900460ff16806105515750610551610c34565b8061055f575060005460ff16155b61059a5760405162461bcd60e51b815260040180806020018281038252602e81526020018061119b602e913960400191505060405180910390fd5b600054610100900460ff161580156105c5576000805460ff1961ff0019909116610100171660011790555b6105cd610c45565b6105d78383610cf7565b80156105e9576000805461ff00191690555b505050565b6706f05b59d3b2000081565b610602610d5e565b6001600160a01b03166106136106b5565b6001600160a01b03161461066e576040805162461bcd60e51b815260206004820181905260248201527f4f776e61626c653a2063616c6c6572206973206e6f7420746865206f776e6572604482015290519081900360640190fd5b6033546040516000916001600160a01b0316906000805160206111ea833981519152908390a3603380546001600160a01b0319169055565b6066546001600160a01b031681565b6033546001600160a01b031690565b670de0b6b3a764000081565b60405180604001604052806009815260200168141c9a58d95199595960ba1b81525081565b6106fd610d5e565b6001600160a01b031661070e6106b5565b6001600160a01b031614610769576040805162461bcd60e51b815260206004820181905260248201527f4f776e61626c653a2063616c6c6572206973206e6f7420746865206f776e6572604482015290519081900360640190fd5b6001600160a01b0381166107ae5760405162461bcd60e51b81526004018080602001828103825260268152602001806111756026913960400191505060405180910390fd5b6033546040516001600160a01b038084169216906000805160206111ea83398151915290600090a3603380546001600160a01b0319166001600160a01b0392909216919091179055565b61384081565b61080661111a565b606560009054906101000a90046001600160a01b03166001600160a01b031663313ce5676040518163ffffffff1660e01b815260040160206040518083038186803b15801561085457600080fd5b505afa92505050801561087957506040513d602081101561087457600080fd5b505160015b6108825761050d565b60ff166080820152606560009054906101000a90046001600160a01b03166001600160a01b031663feaf968c6040518163ffffffff1660e01b815260040160a06040518083038186803b1580156108d857600080fd5b505afa92505050801561091a57506040513d60a08110156108f857600080fd5b5080516020820151604083015160608401516080909401519293919290919060015b6109235761050d565b5069ffffffffffffffffffff909316845250602083015260408201526001606082015261050d565b610953611148565b606660009054906101000a90046001600160a01b03166001600160a01b031663994338286040518163ffffffff1660e01b815260040160606040518083038186803b1580156109a157600080fd5b505afa9250505080156109d557506040513d60608110156109c157600080fd5b508051602082015160409092015190919060015b6109de5761050d565b9115158352602083015260408201526001606082015261050d565b60008160600151610a0c57506001610a5f565b815169ffffffffffffffffffff16610a2657506001610a5f565b60408201511580610a3a5750428260400151115b15610a4757506001610a5f565b6000826020015113610a5b57506001610a5f565b5060005b919050565b60008160600151610a7757506001610a5f565b60408201511580610a8b5750428260400151115b15610a9857506001610a5f565b6020820151610a5b57506001610a5f565b606a805482919060ff19166001836004811115610ac257fe5b02179055507f5c57579a8214fe4f710c1c56fa829f045b9fa6d225a744225a30c32188064d4e8160405180826004811115610af957fe5b815260200191505060405180910390a150565b6000613840610b28836040015142610d6290919063ffffffff16565b1192915050565b600080610b3f8360200151610dbf565b9050610b4a81610dcc565b92915050565b600080610b3f8360200151846080015160ff16610e07565b6000610b7382610a64565b80610b825750610b8282610b0c565b80610b915750610b9183610b0c565b15610b9e57506000610b4a565b610ba88383610baf565b9392505050565b600080610bc78460200151856080015160ff16610e07565b90506000610bd88460200151610dbf565b90506000610be68284610e4c565b90506000610bf48385610e62565b90506000610c1e83610c18670de0b6b3a7640000610c128684610d62565b90610e72565b90610ecb565b66b1a2bc2ec50000101598975050505050505050565b6000610c3f30610f32565b15905090565b600054610100900460ff1680610c5e5750610c5e610c34565b80610c6c575060005460ff16155b610ca75760405162461bcd60e51b815260040180806020018281038252602e81526020018061119b602e913960400191505060405180910390fd5b600054610100900460ff16158015610cd2576000805460ff1961ff0019909116610100171660011790555b610cda610f38565b610ce2610fd8565b8015610cf4576000805461ff00191690555b50565b610d00826110bf565b610d09816110bf565b606580546001600160a01b038481166001600160a01b0319928316179092556066805492841692909116919091179055606a805460ff191690556000610d4d6107fe565b9050610d5881610b50565b50505050565b3390565b600082821115610db9576040805162461bcd60e51b815260206004820152601e60248201527f536166654d6174683a207375627472616374696f6e206f766572666c6f770000604482015290519081900360640190fd5b50900390565b6000610b4a826001610e72565b60698190556040805182815290517f4d29de21de555af78a62fc82dd4bc05e9ae5b0660a37f04729527e0f22780cd39181900360200190a150565b60008060128310610e2a57610e23846011198501600a0a610ecb565b9050610ba8565b6012831015610ba857610e44846012859003600a0a610e72565b949350505050565b6000818310610e5b5781610ba8565b5090919050565b600081831015610e5b5781610ba8565b600082610e8157506000610b4a565b82820282848281610e8e57fe5b0414610ba85760405162461bcd60e51b81526004018080602001828103825260218152602001806111c96021913960400191505060405180910390fd5b6000808211610f21576040805162461bcd60e51b815260206004820152601a60248201527f536166654d6174683a206469766973696f6e206279207a65726f000000000000604482015290519081900360640190fd5b818381610f2a57fe5b049392505050565b3b151590565b600054610100900460ff1680610f515750610f51610c34565b80610f5f575060005460ff16155b610f9a5760405162461bcd60e51b815260040180806020018281038252602e81526020018061119b602e913960400191505060405180910390fd5b600054610100900460ff16158015610ce2576000805460ff1961ff0019909116610100171660011790558015610cf4576000805461ff001916905550565b600054610100900460ff1680610ff15750610ff1610c34565b80610fff575060005460ff16155b61103a5760405162461bcd60e51b815260040180806020018281038252602e81526020018061119b602e913960400191505060405180910390fd5b600054610100900460ff16158015611065576000805460ff1961ff0019909116610100171660011790555b600061106f610d5e565b603380546001600160a01b0319166001600160a01b038316908117909155604051919250906000906000805160206111ea833981519152908290a3508015610cf4576000805461ff001916905550565b6001600160a01b038116610cf4576040805162461bcd60e51b815260206004820152601e60248201527f4163636f756e742063616e6e6f74206265207a65726f20616464726573730000604482015290519081900360640190fd5b6040805160a08101825260008082526020820181905291810182905260608101829052608081019190915290565b60405180608001604052806000151581526020016000815260200160008152602001600015158152509056fe4f776e61626c653a206e6577206f776e657220697320746865207a65726f2061646472657373496e697469616c697a61626c653a20636f6e747261637420697320616c726561647920696e697469616c697a6564536166654d6174683a206d756c7469706c69636174696f6e206f766572666c6f778be0079c531659141344cd1fd0a4f28419497f9722a3daafe3b4186f6b6457e0a2646970667358221220d978a7104f4fdbe462523936c6f40dff482f617e31fb96fbbff6f06c69f9470b64736f6c63430007060033",
  "linkReferences": {},
  "deployedLinkReferences": {}
}