{
  "_format": "hh-sol-artifact-1",
  "contractName": "PriceFeed",
  "sourceName": "contracts/PriceFeed.sol",
  "abi": [
    {
      "anonymous": false,
      "inputs": [
        {
          "indexed": false,
          "internalType": "uint256",
          "name": "_lastGoodPrice",
          "type": "uint256"
        }
      ],
      "name": "LastGoodPriceUpdated",
      "type": "event"
    },
    {
      "anonymous": false,
      "inputs": [
        {
          "indexed": true,
          "internalType": "address",
          "name": "previousOwner",
          "type": "address"
        },
        {
          "indexed": true,
          "internalType": "address",
          "name": "newOwner",
          "type": "address"
        }
      ],
      "name": "OwnershipTransferred",
      "type": "event"
    },
    {
      "anonymous": false,
      "inputs": [
        {
          "indexed": false,
          "internalType": "enum IPriceFeed.Status",
          "name": "newStatus",
          "type": "uint8"
        }
      ],
      "name": "PriceFeedStatusChanged",
      "type": "event"
    },
    {
      "inputs": [],
      "name": "DECIMAL_PRECISION",
      "outputs": [
        {
          "internalType": "uint256",
          "name": "",
          "type": "uint256"
        }
      ],
      "stateMutability": "view",
      "type": "function"
    },
    {
      "inputs": [],
      "name": "MAX_PRICE_DEVIATION_FROM_PREVIOUS_ROUND",
      "outputs": [
        {
          "internalType": "uint256",
          "name": "",
          "type": "uint256"
        }
      ],
      "stateMutability": "view",
      "type": "function"
    },
    {
      "inputs": [],
      "name": "MAX_PRICE_DIFFERENCE_BETWEEN_ORACLES",
      "outputs": [
        {
          "internalType": "uint256",
          "name": "",
          "type": "uint256"
        }
      ],
      "stateMutability": "view",
      "type": "function"
    },
    {
      "inputs": [],
      "name": "NAME",
      "outputs": [
        {
          "internalType": "string",
          "name": "",
          "type": "string"
        }
      ],
      "stateMutability": "view",
      "type": "function"
    },
    {
      "inputs": [],
      "name": "TARGET_DIGITS",
      "outputs": [
        {
          "internalType": "uint256",
          "name": "",
          "type": "uint256"
        }
      ],
      "stateMutability": "view",
      "type": "function"
    },
    {
      "inputs": [],
      "name": "TELLOR_DIGITS",
      "outputs": [
        {
          "internalType": "uint256",
          "name": "",
          "type": "uint256"
        }
      ],
      "stateMutability": "view",
      "type": "function"
    },
    {
      "inputs": [],
      "name": "TIMEOUT",
      "outputs": [
        {
          "internalType": "uint256",
          "name": "",
          "type": "uint256"
        }
      ],
      "stateMutability": "view",
      "type": "function"
    },
    {
      "inputs": [],
      "name": "fetchPrice",
      "outputs": [
        {
          "internalType": "uint256",
          "name": "price",
          "type": "uint256"
        }
      ],
      "stateMutability": "nonpayable",
      "type": "function"
    },
    {
      "inputs": [],
      "name": "isOwner",
      "outputs": [
        {
          "internalType": "bool",
          "name": "",
          "type": "bool"
        }
      ],
      "stateMutability": "view",
      "type": "function"
    },
    {
      "inputs": [],
      "name": "lastGoodPrice",
      "outputs": [
        {
          "internalType": "uint256",
          "name": "",
          "type": "uint256"
        }
      ],
      "stateMutability": "view",
      "type": "function"
    },
    {
      "inputs": [],
      "name": "owner",
      "outputs": [
        {
          "internalType": "address",
          "name": "",
          "type": "address"
        }
      ],
      "stateMutability": "view",
      "type": "function"
    },
    {
      "inputs": [],
      "name": "priceAggregator",
      "outputs": [
        {
          "internalType": "contract AggregatorV3Interface",
          "name": "",
          "type": "address"
        }
      ],
      "stateMutability": "view",
      "type": "function"
    },
    {
      "inputs": [
        {
          "internalType": "address",
          "name": "_priceAggregatorAddress",
          "type": "address"
        },
        {
          "internalType": "address",
          "name": "_tellorCallerAddress",
          "type": "address"
        }
      ],
      "name": "setAddresses",
      "outputs": [],
      "stateMutability": "nonpayable",
      "type": "function"
    },
    {
      "inputs": [],
      "name": "status",
      "outputs": [
        {
          "internalType": "enum IPriceFeed.Status",
          "name": "",
          "type": "uint8"
        }
      ],
      "stateMutability": "view",
      "type": "function"
    },
    {
      "inputs": [],
      "name": "tellorCaller",
      "outputs": [
        {
          "internalType": "contract ITellorCaller",
          "name": "",
          "type": "address"
        }
      ],
      "stateMutability": "view",
      "type": "function"
    }
  ],
  "bytecode": "0x608060405234801561001057600080fd5b50600080546001600160a01b0319163390811782556040519091907f8be0079c531659141344cd1fd0a4f28419497f9722a3daafe3b4186f6b6457e0908290a3610ed68061005f6000396000f3fe608060405234801561001057600080fd5b50600436106100d55760003560e01c80637c61e3bf116100875780637c61e3bf146101615780638da5cb5b146101695780638f32d59b1461017157806390107afe1461018d578063a20baee6146101bd578063a3f4df7e146101c5578063ebf8e6c614610242578063f56f48f21461024a576100d5565b80630490be83146100da5780630fdb11cf146100f45780631be5c92f146100fc578063200d2ed2146101045780633078fff51461012d57806345079cb41461015157806358a6aa8814610159575b600080fd5b6100e2610252565b60408051918252519081900360200190f35b6100e2610258565b6100e26104fb565b61010c610500565b6040518082600481111561011c57fe5b815260200191505060405180910390f35b610135610509565b604080516001600160a01b039092168252519081900360200190f35b6100e2610518565b6100e2610523565b61013561052f565b61013561053e565b61017961054d565b604080519115158252519081900360200190f35b6101bb600480360360408110156101a357600080fd5b506001600160a01b038135811691602001351661055e565b005b6100e2610626565b6101cd610632565b6040805160208082528351818301528351919283929083019185019080838360005b838110156102075781810151838201526020016101ef565b50505050905090810190601f1680156102345780820380516001836020036101000a031916815260200191505b509250505060405180910390f35b6100e2610657565b6100e261065c565b60055481565b600080610263610662565b9050600061026f6107af565b9050600060065460ff16600481111561028457fe5b141561035b576102938261085d565b156102f0576102a1816108c8565b156102bc576102b0600261090d565b600554925050506104f8565b6102c581610970565b156102d4576102b0600161090d565b6102de600161090d565b6102e781610993565b925050506104f8565b6102f982610970565b1561033a57610307816108c8565b15610316576102b0600461090d565b610320600361090d565b61032981610970565b156102de57600554925050506104f8565b610343816108c8565b1561035257610352600461090d565b6102e7826109b4565b600160065460ff16600481111561036e57fe5b14156103a55761037e82826109cc565b1561038d57610352600061090d565b610396816108c8565b15610320576102b0600261090d565b600260065460ff1660048111156103b857fe5b14156103d7576103c882826109cc565b156102b057610352600061090d565b600360065460ff1660048111156103ea57fe5b1415610491576103f98261085d565b1561042057610407816108c8565b15610416576102b0600261090d565b610320600161090d565b61042982610970565b1561044657610437816108c8565b15610320576102b0600461090d565b61044f816108c8565b1561045e57610352600461090d565b61046781610970565b1561047857600554925050506104f8565b6104828282610a13565b156102d457610352600061090d565b600460065460ff1660048111156104a457fe5b14156104f5576104b38261085d565b156104c2576102b0600261090d565b6104cb82610970565b156104dc57600554925050506104f8565b6104e682826109cc565b1561035257610352600061090d565b50505b90565b601281565b60065460ff1681565b6001546001600160a01b031681565b66b1a2bc2ec5000081565b6706f05b59d3b2000081565b6002546001600160a01b031681565b6000546001600160a01b031690565b6000546001600160a01b0316331490565b61056661054d565b6105b7576040805162461bcd60e51b815260206004820181905260248201527f4f776e61626c653a2063616c6c6572206973206e6f7420746865206f776e6572604482015290519081900360640190fd5b6105c082610a98565b6105c981610a98565b600180546001600160a01b038481166001600160a01b03199283161790925560028054928416929091169190911790556006805460ff19169055600061060d610662565b9050610618816109b4565b50610621610b4b565b505050565b670de0b6b3a764000081565b60405180604001604052806009815260200168141c9a58d95199595960ba1b81525081565b600681565b61384081565b61066a610e25565b600160009054906101000a90046001600160a01b03166001600160a01b031663313ce5676040518163ffffffff1660e01b815260040160206040518083038186803b1580156106b857600080fd5b505afa9250505080156106dd57506040513d60208110156106d857600080fd5b505160015b6106e6576104f8565b60ff166080820152600160009054906101000a90046001600160a01b03166001600160a01b031663feaf968c6040518163ffffffff1660e01b815260040160a06040518083038186803b15801561073c57600080fd5b505afa92505050801561077e57506040513d60a081101561075c57600080fd5b5080516020820151604083015160608401516080909401519293919290919060015b610787576104f8565b5069ffffffffffffffffffff90931684525060208301526040820152600160608201526104f8565b6107b7610e53565b600260009054906101000a90046001600160a01b03166001600160a01b031663994338286040518163ffffffff1660e01b815260040160606040518083038186803b15801561080557600080fd5b505afa92505050801561083957506040513d606081101561082557600080fd5b508051602082015160409092015190919060015b610842576104f8565b911515835260208301526040820152600160608201526104f8565b60008160600151610870575060016108c3565b815169ffffffffffffffffffff1661088a575060016108c3565b6040820151158061089e5750428260400151115b156108ab575060016108c3565b60008260200151136108bf575060016108c3565b5060005b919050565b600081606001516108db575060016108c3565b604082015115806108ef5750428260400151115b156108fc575060016108c3565b60208201516108bf575060016108c3565b6006805482919060ff1916600183600481111561092657fe5b02179055507f5c57579a8214fe4f710c1c56fa829f045b9fa6d225a744225a30c32188064d4e816040518082600481111561095d57fe5b815260200191505060405180910390a150565b600061384061098c836040015142610b9590919063ffffffff16565b1192915050565b6000806109a38360200151610bd7565b90506109ae81610be8565b92915050565b6000806109a38360200151846080015160ff16610c23565b60006109d7826108c8565b806109e657506109e682610970565b806109f557506109f583610970565b15610a02575060006109ae565b610a0c8383610a13565b9392505050565b600080610a2b8460200151856080015160ff16610c23565b90506000610a3c8460200151610bd7565b90506000610a4a8284610c68565b90506000610a588385610c7e565b90506000610a8283610a7c670de0b6b3a7640000610a768684610b95565b90610c8e565b90610ce7565b66b1a2bc2ec50000101598975050505050505050565b6001600160a01b038116610af3576040805162461bcd60e51b815260206004820152601e60248201527f4163636f756e742063616e6e6f74206265207a65726f20616464726573730000604482015290519081900360640190fd5b803b80610b47576040805162461bcd60e51b815260206004820181905260248201527f4163636f756e7420636f64652073697a652063616e6e6f74206265207a65726f604482015290519081900360640190fd5b5050565b600080546040516001600160a01b03909116907f8be0079c531659141344cd1fd0a4f28419497f9722a3daafe3b4186f6b6457e0908390a3600080546001600160a01b0319169055565b6000610a0c83836040518060400160405280601e81526020017f536166654d6174683a207375627472616374696f6e206f766572666c6f770000815250610d29565b60006109ae8264e8d4a51000610c8e565b60058190556040805182815290517f4d29de21de555af78a62fc82dd4bc05e9ae5b0660a37f04729527e0f22780cd39181900360200190a150565b60008060128310610c4657610c3f846011198501600a0a610ce7565b9050610a0c565b6012831015610a0c57610c60846012859003600a0a610c8e565b949350505050565b6000818310610c775781610a0c565b5090919050565b600081831015610c775781610a0c565b600082610c9d575060006109ae565b82820282848281610caa57fe5b0414610a0c5760405162461bcd60e51b8152600401808060200182810382526021815260200180610e806021913960400191505060405180910390fd5b6000610a0c83836040518060400160405280601a81526020017f536166654d6174683a206469766973696f6e206279207a65726f000000000000815250610dc0565b60008184841115610db85760405162461bcd60e51b81526004018080602001828103825283818151815260200191508051906020019080838360005b83811015610d7d578181015183820152602001610d65565b50505050905090810190601f168015610daa5780820380516001836020036101000a031916815260200191505b509250505060405180910390fd5b505050900390565b60008183610e0f5760405162461bcd60e51b8152602060048201818152835160248401528351909283926044909101919085019080838360008315610d7d578181015183820152602001610d65565b506000838581610e1b57fe5b0495945050505050565b6040805160a08101825260008082526020820181905291810182905260608101829052608081019190915290565b60405180608001604052806000151581526020016000815260200160008152602001600015158152509056fe536166654d6174683a206d756c7469706c69636174696f6e206f766572666c6f77a26469706673582212203d8b1101e609ba01552805da88848cc5b60605c4d97372b167714ea75b925a1464736f6c63430007060033",
  "linkReferences": {},
  "deployedLinkReferences": {}
}