{
  "_format": "hh-sol-artifact-1",
  "contractName": "PriceFeedTester",
  "sourceName": "contracts/TestContracts/PriceFeedTester.sol",
  "abi": [
    {
      "inputs": [
        {
          "internalType": "uint256",
          "name": "_timeout",
          "type": "uint256"
        }
      ],
      "stateMutability": "nonpayable",
      "type": "constructor"
    },
    {
      "anonymous": false,
      "inputs": [
        {
          "indexed": false,
          "internalType": "uint256",
          "name": "_lastGoodPrice",
          "type": "uint256"
        }
      ],
      "name": "LastGoodPriceUpdated",
      "type": "event"
    },
    {
      "anonymous": false,
      "inputs": [
        {
          "indexed": true,
          "internalType": "address",
          "name": "previousOwner",
          "type": "address"
        },
        {
          "indexed": true,
          "internalType": "address",
          "name": "newOwner",
          "type": "address"
        }
      ],
      "name": "OwnershipTransferred",
      "type": "event"
    },
    {
      "anonymous": false,
      "inputs": [
        {
          "indexed": false,
          "internalType": "enum IPriceFeed.Status",
          "name": "newStatus",
          "type": "uint8"
        }
      ],
      "name": "PriceFeedStatusChanged",
      "type": "event"
    },
    {
      "inputs": [],
      "name": "DECIMAL_PRECISION",
      "outputs": [
        {
          "internalType": "uint256",
          "name": "",
          "type": "uint256"
        }
      ],
      "stateMutability": "view",
      "type": "function"
    },
    {
      "inputs": [],
      "name": "MAX_PRICE_DIFFERENCE_BETWEEN_ORACLES",
      "outputs": [
        {
          "internalType": "uint256",
          "name": "",
          "type": "uint256"
        }
      ],
      "stateMutability": "view",
      "type": "function"
    },
    {
      "inputs": [],
      "name": "NAME",
      "outputs": [
        {
          "internalType": "string",
          "name": "",
          "type": "string"
        }
      ],
      "stateMutability": "view",
      "type": "function"
    },
    {
      "inputs": [],
      "name": "TARGET_DIGITS",
      "outputs": [
        {
          "internalType": "uint256",
          "name": "",
          "type": "uint256"
        }
      ],
      "stateMutability": "view",
      "type": "function"
    },
    {
      "inputs": [],
      "name": "TELLOR_DIGITS",
      "outputs": [
        {
          "internalType": "uint256",
          "name": "",
          "type": "uint256"
        }
      ],
      "stateMutability": "view",
      "type": "function"
    },
    {
      "inputs": [],
      "name": "TIMEOUT",
      "outputs": [
        {
          "internalType": "uint256",
          "name": "",
          "type": "uint256"
        }
      ],
      "stateMutability": "view",
      "type": "function"
    },
    {
      "inputs": [],
      "name": "fetchPrice",
      "outputs": [
        {
          "internalType": "uint256",
          "name": "price",
          "type": "uint256"
        }
      ],
      "stateMutability": "nonpayable",
      "type": "function"
    },
    {
      "inputs": [
        {
          "internalType": "address",
          "name": "_priceAggregatorAddress",
          "type": "address"
        },
        {
          "internalType": "address",
          "name": "_tellorCallerAddress",
          "type": "address"
        }
      ],
      "name": "initialize",
      "outputs": [],
      "stateMutability": "nonpayable",
      "type": "function"
    },
    {
      "inputs": [],
      "name": "lastGoodPrice",
      "outputs": [
        {
          "internalType": "uint256",
          "name": "",
          "type": "uint256"
        }
      ],
      "stateMutability": "view",
      "type": "function"
    },
    {
      "inputs": [],
      "name": "owner",
      "outputs": [
        {
          "internalType": "address",
          "name": "",
          "type": "address"
        }
      ],
      "stateMutability": "view",
      "type": "function"
    },
    {
      "inputs": [],
      "name": "priceAggregator",
      "outputs": [
        {
          "internalType": "contract AggregatorV3Interface",
          "name": "",
          "type": "address"
        }
      ],
      "stateMutability": "view",
      "type": "function"
    },
    {
      "inputs": [],
      "name": "renounceOwnership",
      "outputs": [],
      "stateMutability": "nonpayable",
      "type": "function"
    },
    {
      "inputs": [
        {
          "internalType": "uint256",
          "name": "_lastGoodPrice",
          "type": "uint256"
        }
      ],
      "name": "setLastGoodPrice",
      "outputs": [],
      "stateMutability": "nonpayable",
      "type": "function"
    },
    {
      "inputs": [
        {
          "internalType": "enum IPriceFeed.Status",
          "name": "_status",
          "type": "uint8"
        }
      ],
      "name": "setStatus",
      "outputs": [],
      "stateMutability": "nonpayable",
      "type": "function"
    },
    {
      "inputs": [],
      "name": "status",
      "outputs": [
        {
          "internalType": "enum IPriceFeed.Status",
          "name": "",
          "type": "uint8"
        }
      ],
      "stateMutability": "view",
      "type": "function"
    },
    {
      "inputs": [],
      "name": "tellorCaller",
      "outputs": [
        {
          "internalType": "contract ITellorCaller",
          "name": "",
          "type": "address"
        }
      ],
      "stateMutability": "view",
      "type": "function"
    },
    {
      "inputs": [
        {
          "internalType": "address",
          "name": "newOwner",
          "type": "address"
        }
      ],
      "name": "transferOwnership",
      "outputs": [],
      "stateMutability": "nonpayable",
      "type": "function"
    }
  ],
  "bytecode": "0x60a060405234801561001057600080fd5b5060405161133b38038061133b8339818101604052602081101561003357600080fd5b50516080526080516112e4610057600039806108545280610b8852506112e46000f3fe608060405234801561001057600080fd5b50600436106100eb5760003560e01c8063715018a611610092578063715018a6146101bf5780637c61e3bf146101c75780638da5cb5b146101cf578063a20baee6146101d7578063a3f4df7e146101df578063c521b3f51461025c578063ebf8e6c614610112578063f2fde38b14610279578063f56f48f21461029f576100eb565b80630490be83146100f05780630fdb11cf1461010a5780631be5c92f14610112578063200d2ed21461011a5780632e49d78b146101435780633078fff51461016557806345079cb414610189578063485cc95514610191575b600080fd5b6100f86102a7565b60408051918252519081900360200190f35b6100f86102ad565b6100f8610550565b610122610555565b6040518082600481111561013257fe5b815260200191505060405180910390f35b6101636004803603602081101561015957600080fd5b503560ff1661055e565b005b61016d61057f565b604080516001600160a01b039092168252519081900360200190f35b6100f861058e565b610163600480360360408110156101a757600080fd5b506001600160a01b0381358116916020013516610599565b61016361064f565b61016d6106fb565b61016d61070a565b6100f8610719565b6101e7610725565b6040805160208082528351818301528351919283929083019185019080838360005b83811015610221578181015183820152602001610209565b50505050905090810190601f16801561024e5780820380516001836020036101000a031916815260200191505b509250505060405180910390f35b6101636004803603602081101561027257600080fd5b503561074a565b6101636004803603602081101561028f57600080fd5b50356001600160a01b031661074f565b6100f8610852565b60675481565b6000806102b8610876565b905060006102c46109c3565b9050600060685460ff1660048111156102d957fe5b14156103b0576102e882610a71565b15610345576102f681610adc565b15610311576103056002610b21565b6067549250505061054d565b61031a81610b84565b15610329576103056001610b21565b6103336001610b21565b61033c81610bc5565b9250505061054d565b61034e82610b84565b1561038f5761035c81610adc565b1561036b576103056004610b21565b6103756003610b21565b61037e81610b84565b15610333576067549250505061054d565b61039881610adc565b156103a7576103a76004610b21565b61033c82610be6565b600160685460ff1660048111156103c357fe5b14156103fa576103d38282610bfe565b156103e2576103a76000610b21565b6103eb81610adc565b15610375576103056002610b21565b600260685460ff16600481111561040d57fe5b141561042c5761041d8282610bfe565b15610305576103a76000610b21565b600360685460ff16600481111561043f57fe5b14156104e65761044e82610a71565b156104755761045c81610adc565b1561046b576103056002610b21565b6103756001610b21565b61047e82610b84565b1561049b5761048c81610adc565b15610375576103056004610b21565b6104a481610adc565b156104b3576103a76004610b21565b6104bc81610b84565b156104cd576067549250505061054d565b6104d78282610c54565b15610329576103a76000610b21565b600460685460ff1660048111156104f957fe5b141561054a5761050882610a71565b15610517576103056002610b21565b61052082610b84565b15610531576067549250505061054d565b61053b8282610bfe565b156103a7576103a76000610b21565b50505b90565b601281565b60685460ff1681565b6068805482919060ff1916600183600481111561057757fe5b021790555050565b6065546001600160a01b031681565b66b1a2bc2ec5000081565b600054610100900460ff16806105b257506105b2610cd9565b806105c0575060005460ff16155b6105fb5760405162461bcd60e51b815260040180806020018281038252602e815260200180611240602e913960400191505060405180910390fd5b600054610100900460ff16158015610626576000805460ff1961ff0019909116610100171660011790555b61062e610cea565b6106388383610d9c565b801561064a576000805461ff00191690555b505050565b610657610e03565b6001600160a01b031661066861070a565b6001600160a01b0316146106c3576040805162461bcd60e51b815260206004820181905260248201527f4f776e61626c653a2063616c6c6572206973206e6f7420746865206f776e6572604482015290519081900360640190fd5b6033546040516000916001600160a01b03169060008051602061128f833981519152908390a3603380546001600160a01b0319169055565b6066546001600160a01b031681565b6033546001600160a01b031690565b670de0b6b3a764000081565b60405180604001604052806009815260200168141c9a58d95199595960ba1b81525081565b606755565b610757610e03565b6001600160a01b031661076861070a565b6001600160a01b0316146107c3576040805162461bcd60e51b815260206004820181905260248201527f4f776e61626c653a2063616c6c6572206973206e6f7420746865206f776e6572604482015290519081900360640190fd5b6001600160a01b0381166108085760405162461bcd60e51b815260040180806020018281038252602681526020018061121a6026913960400191505060405180910390fd5b6033546040516001600160a01b0380841692169060008051602061128f83398151915290600090a3603380546001600160a01b0319166001600160a01b0392909216919091179055565b7f000000000000000000000000000000000000000000000000000000000000000081565b61087e6111bf565b606560009054906101000a90046001600160a01b03166001600160a01b031663313ce5676040518163ffffffff1660e01b815260040160206040518083038186803b1580156108cc57600080fd5b505afa9250505080156108f157506040513d60208110156108ec57600080fd5b505160015b6108fa5761054d565b60ff166080820152606560009054906101000a90046001600160a01b03166001600160a01b031663feaf968c6040518163ffffffff1660e01b815260040160a06040518083038186803b15801561095057600080fd5b505afa92505050801561099257506040513d60a081101561097057600080fd5b5080516020820151604083015160608401516080909401519293919290919060015b61099b5761054d565b5069ffffffffffffffffffff909316845250602083015260408201526001606082015261054d565b6109cb6111ed565b606660009054906101000a90046001600160a01b03166001600160a01b031663994338286040518163ffffffff1660e01b815260040160606040518083038186803b158015610a1957600080fd5b505afa925050508015610a4d57506040513d6060811015610a3957600080fd5b508051602082015160409092015190919060015b610a565761054d565b9115158352602083015260408201526001606082015261054d565b60008160600151610a8457506001610ad7565b815169ffffffffffffffffffff16610a9e57506001610ad7565b60408201511580610ab25750428260400151115b15610abf57506001610ad7565b6000826020015113610ad357506001610ad7565b5060005b919050565b60008160600151610aef57506001610ad7565b60408201511580610b035750428260400151115b15610b1057506001610ad7565b6020820151610ad357506001610ad7565b6068805482919060ff19166001836004811115610b3a57fe5b02179055507f5c57579a8214fe4f710c1c56fa829f045b9fa6d225a744225a30c32188064d4e8160405180826004811115610b7157fe5b815260200191505060405180910390a150565b60007f0000000000000000000000000000000000000000000000000000000000000000610bbe836040015142610e0790919063ffffffff16565b1192915050565b600080610bd58360200151610e64565b9050610be081610e71565b92915050565b600080610bd58360200151846080015160ff16610eac565b6000610c0982610adc565b80610c185750610c1882610b84565b80610c275750610c2783610a71565b80610c365750610c3683610b84565b15610c4357506000610be0565b610c4d8383610c54565b9392505050565b600080610c6c8460200151856080015160ff16610eac565b90506000610c7d8460200151610e64565b90506000610c8b8284610ef1565b90506000610c998385610f07565b90506000610cc383610cbd670de0b6b3a7640000610cb78684610e07565b90610f17565b90610f70565b66b1a2bc2ec50000101598975050505050505050565b6000610ce430610fd7565b15905090565b600054610100900460ff1680610d035750610d03610cd9565b80610d11575060005460ff16155b610d4c5760405162461bcd60e51b815260040180806020018281038252602e815260200180611240602e913960400191505060405180910390fd5b600054610100900460ff16158015610d77576000805460ff1961ff0019909116610100171660011790555b610d7f610fdd565b610d8761107d565b8015610d99576000805461ff00191690555b50565b610da582611164565b610dae81611164565b606580546001600160a01b038481166001600160a01b03199283161790925560668054928416929091169190911790556068805460ff191690556000610df2610876565b9050610dfd81610be6565b50505050565b3390565b600082821115610e5e576040805162461bcd60e51b815260206004820152601e60248201527f536166654d6174683a207375627472616374696f6e206f766572666c6f770000604482015290519081900360640190fd5b50900390565b6000610be0826001610f17565b60678190556040805182815290517f4d29de21de555af78a62fc82dd4bc05e9ae5b0660a37f04729527e0f22780cd39181900360200190a150565b60008060128310610ecf57610ec8846011198501600a0a610f70565b9050610c4d565b6012831015610c4d57610ee9846012859003600a0a610f17565b949350505050565b6000818310610f005781610c4d565b5090919050565b600081831015610f005781610c4d565b600082610f2657506000610be0565b82820282848281610f3357fe5b0414610c4d5760405162461bcd60e51b815260040180806020018281038252602181526020018061126e6021913960400191505060405180910390fd5b6000808211610fc6576040805162461bcd60e51b815260206004820152601a60248201527f536166654d6174683a206469766973696f6e206279207a65726f000000000000604482015290519081900360640190fd5b818381610fcf57fe5b049392505050565b3b151590565b600054610100900460ff1680610ff65750610ff6610cd9565b80611004575060005460ff16155b61103f5760405162461bcd60e51b815260040180806020018281038252602e815260200180611240602e913960400191505060405180910390fd5b600054610100900460ff16158015610d87576000805460ff1961ff0019909116610100171660011790558015610d99576000805461ff001916905550565b600054610100900460ff16806110965750611096610cd9565b806110a4575060005460ff16155b6110df5760405162461bcd60e51b815260040180806020018281038252602e815260200180611240602e913960400191505060405180910390fd5b600054610100900460ff1615801561110a576000805460ff1961ff0019909116610100171660011790555b6000611114610e03565b603380546001600160a01b0319166001600160a01b0383169081179091556040519192509060009060008051602061128f833981519152908290a3508015610d99576000805461ff001916905550565b6001600160a01b038116610d99576040805162461bcd60e51b815260206004820152601e60248201527f4163636f756e742063616e6e6f74206265207a65726f20616464726573730000604482015290519081900360640190fd5b6040805160a08101825260008082526020820181905291810182905260608101829052608081019190915290565b60405180608001604052806000151581526020016000815260200160008152602001600015158152509056fe4f776e61626c653a206e6577206f776e657220697320746865207a65726f2061646472657373496e697469616c697a61626c653a20636f6e747261637420697320616c726561647920696e697469616c697a6564536166654d6174683a206d756c7469706c69636174696f6e206f766572666c6f778be0079c531659141344cd1fd0a4f28419497f9722a3daafe3b4186f6b6457e0a2646970667358221220ea125a75cae34ac3d61615d4f55765bcfae7040066a80a4da5380300a8380dca64736f6c63430007060033",
  "linkReferences": {},
  "deployedLinkReferences": {}
}