{
  "_format": "hh-sol-artifact-1",
  "contractName": "PriceFeedTester",
  "sourceName": "contracts/TestContracts/PriceFeedTester.sol",
  "abi": [
    {
      "anonymous": false,
      "inputs": [
        {
          "indexed": false,
          "internalType": "uint256",
          "name": "_lastGoodPrice",
          "type": "uint256"
        }
      ],
      "name": "LastGoodPriceUpdated",
      "type": "event"
    },
    {
      "anonymous": false,
      "inputs": [
        {
          "indexed": true,
          "internalType": "address",
          "name": "previousOwner",
          "type": "address"
        },
        {
          "indexed": true,
          "internalType": "address",
          "name": "newOwner",
          "type": "address"
        }
      ],
      "name": "OwnershipTransferred",
      "type": "event"
    },
    {
      "anonymous": false,
      "inputs": [
        {
          "indexed": false,
          "internalType": "enum PriceFeed.Status",
          "name": "newStatus",
          "type": "uint8"
        }
      ],
      "name": "PriceFeedStatusChanged",
      "type": "event"
    },
    {
      "inputs": [],
      "name": "DECIMAL_PRECISION",
      "outputs": [
        {
          "internalType": "uint256",
          "name": "",
          "type": "uint256"
        }
      ],
      "stateMutability": "view",
      "type": "function"
    },
    {
      "inputs": [],
      "name": "MAX_PRICE_DEVIATION_FROM_PREVIOUS_ROUND",
      "outputs": [
        {
          "internalType": "uint256",
          "name": "",
          "type": "uint256"
        }
      ],
      "stateMutability": "view",
      "type": "function"
    },
    {
      "inputs": [],
      "name": "MAX_PRICE_DIFFERENCE_BETWEEN_ORACLES",
      "outputs": [
        {
          "internalType": "uint256",
          "name": "",
          "type": "uint256"
        }
      ],
      "stateMutability": "view",
      "type": "function"
    },
    {
      "inputs": [],
      "name": "NAME",
      "outputs": [
        {
          "internalType": "string",
          "name": "",
          "type": "string"
        }
      ],
      "stateMutability": "view",
      "type": "function"
    },
    {
      "inputs": [],
      "name": "TARGET_DIGITS",
      "outputs": [
        {
          "internalType": "uint256",
          "name": "",
          "type": "uint256"
        }
      ],
      "stateMutability": "view",
      "type": "function"
    },
    {
      "inputs": [],
      "name": "TELLOR_DIGITS",
      "outputs": [
        {
          "internalType": "uint256",
          "name": "",
          "type": "uint256"
        }
      ],
      "stateMutability": "view",
      "type": "function"
    },
    {
      "inputs": [],
      "name": "TIMEOUT",
      "outputs": [
        {
          "internalType": "uint256",
          "name": "",
          "type": "uint256"
        }
      ],
      "stateMutability": "view",
      "type": "function"
    },
    {
      "inputs": [],
      "name": "fetchPrice",
      "outputs": [
        {
          "internalType": "uint256",
          "name": "",
          "type": "uint256"
        }
      ],
      "stateMutability": "nonpayable",
      "type": "function"
    },
    {
      "inputs": [],
      "name": "isOwner",
      "outputs": [
        {
          "internalType": "bool",
          "name": "",
          "type": "bool"
        }
      ],
      "stateMutability": "view",
      "type": "function"
    },
    {
      "inputs": [],
      "name": "lastGoodPrice",
      "outputs": [
        {
          "internalType": "uint256",
          "name": "",
          "type": "uint256"
        }
      ],
      "stateMutability": "view",
      "type": "function"
    },
    {
      "inputs": [],
      "name": "owner",
      "outputs": [
        {
          "internalType": "address",
          "name": "",
          "type": "address"
        }
      ],
      "stateMutability": "view",
      "type": "function"
    },
    {
      "inputs": [],
      "name": "priceAggregator",
      "outputs": [
        {
          "internalType": "contract AggregatorV3Interface",
          "name": "",
          "type": "address"
        }
      ],
      "stateMutability": "view",
      "type": "function"
    },
    {
      "inputs": [
        {
          "internalType": "address",
          "name": "_priceAggregatorAddress",
          "type": "address"
        },
        {
          "internalType": "address",
          "name": "_tellorCallerAddress",
          "type": "address"
        }
      ],
      "name": "setAddresses",
      "outputs": [],
      "stateMutability": "nonpayable",
      "type": "function"
    },
    {
      "inputs": [
        {
          "internalType": "uint256",
          "name": "_lastGoodPrice",
          "type": "uint256"
        }
      ],
      "name": "setLastGoodPrice",
      "outputs": [],
      "stateMutability": "nonpayable",
      "type": "function"
    },
    {
      "inputs": [
        {
          "internalType": "enum PriceFeed.Status",
          "name": "_status",
          "type": "uint8"
        }
      ],
      "name": "setStatus",
      "outputs": [],
      "stateMutability": "nonpayable",
      "type": "function"
    },
    {
      "inputs": [],
      "name": "status",
      "outputs": [
        {
          "internalType": "enum PriceFeed.Status",
          "name": "",
          "type": "uint8"
        }
      ],
      "stateMutability": "view",
      "type": "function"
    },
    {
      "inputs": [],
      "name": "tellorCaller",
      "outputs": [
        {
          "internalType": "contract ITellorCaller",
          "name": "",
          "type": "address"
        }
      ],
      "stateMutability": "view",
      "type": "function"
    }
  ],
  "bytecode": "0x608060405234801561001057600080fd5b50600080546001600160a01b0319163390811782556040519091907f8be0079c531659141344cd1fd0a4f28419497f9722a3daafe3b4186f6b6457e0908290a3610f8c8061005f6000396000f3fe608060405234801561001057600080fd5b50600436106100eb5760003560e01c80637c61e3bf116100925780637c61e3bf1461019c5780638da5cb5b146101a45780638f32d59b146101ac57806390107afe146101c8578063a20baee6146101f6578063a3f4df7e146101fe578063c521b3f51461027b578063ebf8e6c614610298578063f56f48f2146102a0576100eb565b80630490be83146100f05780630fdb11cf1461010a5780631be5c92f14610112578063200d2ed21461011a5780632e49d78b146101465780633078fff51461016857806345079cb41461018c57806358a6aa8814610194575b600080fd5b6100f86102a8565b60408051918252519081900360200190f35b6100f86102ae565b6100f861055e565b610122610563565b6040518082600481111561013257fe5b60ff16815260200191505060405180910390f35b6101666004803603602081101561015c57600080fd5b503560ff1661056c565b005b61017061058d565b604080516001600160a01b039092168252519081900360200190f35b6100f861059c565b6100f86105a7565b6101706105b3565b6101706105c2565b6101b46105d1565b604080519115158252519081900360200190f35b610166600480360360408110156101de57600080fd5b506001600160a01b03813581169160200135166105e2565b6100f86106b0565b6102066106bc565b6040805160208082528351818301528351919283929083019185019080838360005b83811015610240578181015183820152602001610228565b50505050905090810190601f16801561026d5780820380516001836020036101000a031916815260200191505b509250505060405180910390f35b6101666004803603602081101561029157600080fd5b50356106e1565b6100f86106e6565b6100f86106eb565b60055481565b60006102b8610edb565b6102c06106f1565b90506102ca610f09565b6102d261083e565b9050600060065460ff1660048111156102e757fe5b14156103be576102f6826108ec565b156103535761030481610957565b1561031f57610313600261099c565b6005549250505061055b565b61032881610a02565b1561033757610313600161099c565b610341600161099c565b61034a81610a25565b9250505061055b565b61035c82610a02565b1561039d5761036a81610957565b1561037957610313600461099c565b610383600361099c565b61038c81610a02565b15610341576005549250505061055b565b6103a681610957565b156103b5576103b5600461099c565b61034a82610a46565b600160065460ff1660048111156103d157fe5b1415610408576103e18282610a5e565b156103f0576103b5600061099c565b6103f981610957565b1561038357610313600261099c565b600260065460ff16600481111561041b57fe5b141561043a5761042b8282610a5e565b15610313576103b5600061099c565b600360065460ff16600481111561044d57fe5b14156104f45761045c826108ec565b156104835761046a81610957565b1561047957610313600261099c565b610383600161099c565b61048c82610a02565b156104a95761049a81610957565b1561038357610313600461099c565b6104b281610957565b156104c1576103b5600461099c565b6104ca81610a02565b156104db576005549250505061055b565b6104e58282610aa5565b15610337576103b5600061099c565b600460065460ff16600481111561050757fe5b141561055857610516826108ec565b1561052557610313600261099c565b61052e82610a02565b1561053f576005549250505061055b565b6105498282610a5e565b156103b5576103b5600061099c565b50505b90565b601281565b60065460ff1681565b6006805482919060ff1916600183600481111561058557fe5b021790555050565b6001546001600160a01b031681565b66b1a2bc2ec5000081565b6706f05b59d3b2000081565b6002546001600160a01b031681565b6000546001600160a01b031690565b6000546001600160a01b0316331490565b6105ea6105d1565b61063b576040805162461bcd60e51b815260206004820181905260248201527f4f776e61626c653a2063616c6c6572206973206e6f7420746865206f776e6572604482015290519081900360640190fd5b61064482610b3c565b61064d81610b3c565b600180546001600160a01b038481166001600160a01b03199283161790925560028054928416929091169190911790556006805460ff1916905561068f610edb565b6106976106f1565b90506106a281610a46565b506106ab610bef565b505050565b670de0b6b3a764000081565b60405180604001604052806009815260200168141c9a58d95199595960ba1b81525081565b600555565b600681565b61384081565b6106f9610edb565b600160009054906101000a90046001600160a01b03166001600160a01b031663313ce5676040518163ffffffff1660e01b815260040160206040518083038186803b15801561074757600080fd5b505afa92505050801561076c57506040513d602081101561076757600080fd5b505160015b6107755761055b565b60ff166080820152600160009054906101000a90046001600160a01b03166001600160a01b031663feaf968c6040518163ffffffff1660e01b815260040160a06040518083038186803b1580156107cb57600080fd5b505afa92505050801561080d57506040513d60a08110156107eb57600080fd5b5080516020820151604083015160608401516080909401519293919290919060015b6108165761055b565b5069ffffffffffffffffffff909316845250602083015260408201526001606082015261055b565b610846610f09565b600260009054906101000a90046001600160a01b03166001600160a01b031663994338286040518163ffffffff1660e01b815260040160606040518083038186803b15801561089457600080fd5b505afa9250505080156108c857506040513d60608110156108b457600080fd5b508051602082015160409092015190919060015b6108d15761055b565b9115158352602083015260408201526001606082015261055b565b600081606001516108ff57506001610952565b815169ffffffffffffffffffff1661091957506001610952565b6040820151158061092d5750428260400151115b1561093a57506001610952565b600082602001511361094e57506001610952565b5060005b919050565b6000816060015161096a57506001610952565b6040820151158061097e5750428260400151115b1561098b57506001610952565b602082015161094e57506001610952565b6006805482919060ff191660018360048111156109b557fe5b02179055507f5c57579a8214fe4f710c1c56fa829f045b9fa6d225a744225a30c32188064d4e81604051808260048111156109ec57fe5b60ff16815260200191505060405180910390a150565b6000613840610a1e836040015142610c3990919063ffffffff16565b1192915050565b600080610a358360200151610c7b565b9050610a4081610c92565b92915050565b600080610a358360200151846080015160ff16610ccd565b6000610a6982610957565b80610a785750610a7882610a02565b80610a875750610a8783610a02565b15610a9457506000610a40565b610a9e8383610aa5565b9392505050565b600080610abd8460200151856080015160ff16610ccd565b90506000610ace8460200151610c7b565b90506000610adc8284610d1e565b90506000610aea8385610d34565b90506000610b2683610b1a670de0b6b3a7640000610b0e868463ffffffff610c3916565b9063ffffffff610d4416565b9063ffffffff610d9d16565b66b1a2bc2ec50000101598975050505050505050565b6001600160a01b038116610b97576040805162461bcd60e51b815260206004820152601e60248201527f4163636f756e742063616e6e6f74206265207a65726f20616464726573730000604482015290519081900360640190fd5b803b80610beb576040805162461bcd60e51b815260206004820181905260248201527f4163636f756e7420636f64652073697a652063616e6e6f74206265207a65726f604482015290519081900360640190fd5b5050565b600080546040516001600160a01b03909116907f8be0079c531659141344cd1fd0a4f28419497f9722a3daafe3b4186f6b6457e0908390a3600080546001600160a01b0319169055565b6000610a9e83836040518060400160405280601e81526020017f536166654d6174683a207375627472616374696f6e206f766572666c6f770000815250610ddf565b6000610a408264e8d4a5100063ffffffff610d4416565b60058190556040805182815290517f4d29de21de555af78a62fc82dd4bc05e9ae5b0660a37f04729527e0f22780cd39181900360200190a150565b60008060128310610cf657610cef846011198501600a0a63ffffffff610d9d16565b9050610a9e565b6012831015610a9e57610d16846012859003600a0a63ffffffff610d4416565b949350505050565b6000818310610d2d5781610a9e565b5090919050565b600081831015610d2d5781610a9e565b600082610d5357506000610a40565b82820282848281610d6057fe5b0414610a9e5760405162461bcd60e51b8152600401808060200182810382526021815260200180610f366021913960400191505060405180910390fd5b6000610a9e83836040518060400160405280601a81526020017f536166654d6174683a206469766973696f6e206279207a65726f000000000000815250610e76565b60008184841115610e6e5760405162461bcd60e51b81526004018080602001828103825283818151815260200191508051906020019080838360005b83811015610e33578181015183820152602001610e1b565b50505050905090810190601f168015610e605780820380516001836020036101000a031916815260200191505b509250505060405180910390fd5b505050900390565b60008183610ec55760405162461bcd60e51b8152602060048201818152835160248401528351909283926044909101919085019080838360008315610e33578181015183820152602001610e1b565b506000838581610ed157fe5b0495945050505050565b6040805160a08101825260008082526020820181905291810182905260608101829052608081019190915290565b60405180608001604052806000151581526020016000815260200160008152602001600015158152509056fe536166654d6174683a206d756c7469706c69636174696f6e206f766572666c6f77a264697066735822122030fe23129fdf415d2998c93d652cf29c529faa123d299506fb5d7e61418f896664736f6c634300060b0033",
  "linkReferences": {},
  "deployedLinkReferences": {}
}