{
  "_format": "hh-sol-artifact-1",
  "contractName": "PriceFeedTester",
  "sourceName": "contracts/TestContracts/PriceFeedTester.sol",
  "abi": [
    {
      "anonymous": false,
      "inputs": [
        {
          "indexed": false,
          "internalType": "uint256",
          "name": "_lastGoodPrice",
          "type": "uint256"
        }
      ],
      "name": "LastGoodPriceUpdated",
      "type": "event"
    },
    {
      "anonymous": false,
      "inputs": [
        {
          "indexed": true,
          "internalType": "address",
          "name": "previousOwner",
          "type": "address"
        },
        {
          "indexed": true,
          "internalType": "address",
          "name": "newOwner",
          "type": "address"
        }
      ],
      "name": "OwnershipTransferred",
      "type": "event"
    },
    {
      "anonymous": false,
      "inputs": [
        {
          "indexed": false,
          "internalType": "enum PriceFeed.Status",
          "name": "newStatus",
          "type": "uint8"
        }
      ],
      "name": "PriceFeedStatusChanged",
      "type": "event"
    },
    {
      "inputs": [],
      "name": "DECIMAL_PRECISION",
      "outputs": [
        {
          "internalType": "uint256",
          "name": "",
          "type": "uint256"
        }
      ],
      "stateMutability": "view",
      "type": "function"
    },
    {
      "inputs": [],
      "name": "ETHUSD_TELLOR_REQ_ID",
      "outputs": [
        {
          "internalType": "uint256",
          "name": "",
          "type": "uint256"
        }
      ],
      "stateMutability": "view",
      "type": "function"
    },
    {
      "inputs": [],
      "name": "MAX_PRICE_DEVIATION_FROM_PREVIOUS_ROUND",
      "outputs": [
        {
          "internalType": "uint256",
          "name": "",
          "type": "uint256"
        }
      ],
      "stateMutability": "view",
      "type": "function"
    },
    {
      "inputs": [],
      "name": "MAX_PRICE_DIFFERENCE_BETWEEN_ORACLES",
      "outputs": [
        {
          "internalType": "uint256",
          "name": "",
          "type": "uint256"
        }
      ],
      "stateMutability": "view",
      "type": "function"
    },
    {
      "inputs": [],
      "name": "NAME",
      "outputs": [
        {
          "internalType": "string",
          "name": "",
          "type": "string"
        }
      ],
      "stateMutability": "view",
      "type": "function"
    },
    {
      "inputs": [],
      "name": "TARGET_DIGITS",
      "outputs": [
        {
          "internalType": "uint256",
          "name": "",
          "type": "uint256"
        }
      ],
      "stateMutability": "view",
      "type": "function"
    },
    {
      "inputs": [],
      "name": "TELLOR_DIGITS",
      "outputs": [
        {
          "internalType": "uint256",
          "name": "",
          "type": "uint256"
        }
      ],
      "stateMutability": "view",
      "type": "function"
    },
    {
      "inputs": [],
      "name": "TIMEOUT",
      "outputs": [
        {
          "internalType": "uint256",
          "name": "",
          "type": "uint256"
        }
      ],
      "stateMutability": "view",
      "type": "function"
    },
    {
      "inputs": [],
      "name": "fetchPrice",
      "outputs": [
        {
          "internalType": "uint256",
          "name": "",
          "type": "uint256"
        }
      ],
      "stateMutability": "nonpayable",
      "type": "function"
    },
    {
      "inputs": [],
      "name": "isOwner",
      "outputs": [
        {
          "internalType": "bool",
          "name": "",
          "type": "bool"
        }
      ],
      "stateMutability": "view",
      "type": "function"
    },
    {
      "inputs": [],
      "name": "lastGoodPrice",
      "outputs": [
        {
          "internalType": "uint256",
          "name": "",
          "type": "uint256"
        }
      ],
      "stateMutability": "view",
      "type": "function"
    },
    {
      "inputs": [],
      "name": "owner",
      "outputs": [
        {
          "internalType": "address",
          "name": "",
          "type": "address"
        }
      ],
      "stateMutability": "view",
      "type": "function"
    },
    {
      "inputs": [],
      "name": "priceAggregator",
      "outputs": [
        {
          "internalType": "contract AggregatorV3Interface",
          "name": "",
          "type": "address"
        }
      ],
      "stateMutability": "view",
      "type": "function"
    },
    {
      "inputs": [
        {
          "internalType": "address",
          "name": "_priceAggregatorAddress",
          "type": "address"
        },
        {
          "internalType": "address",
          "name": "_tellorCallerAddress",
          "type": "address"
        }
      ],
      "name": "setAddresses",
      "outputs": [],
      "stateMutability": "nonpayable",
      "type": "function"
    },
    {
      "inputs": [
        {
          "internalType": "uint256",
          "name": "_lastGoodPrice",
          "type": "uint256"
        }
      ],
      "name": "setLastGoodPrice",
      "outputs": [],
      "stateMutability": "nonpayable",
      "type": "function"
    },
    {
      "inputs": [
        {
          "internalType": "enum PriceFeed.Status",
          "name": "_status",
          "type": "uint8"
        }
      ],
      "name": "setStatus",
      "outputs": [],
      "stateMutability": "nonpayable",
      "type": "function"
    },
    {
      "inputs": [],
      "name": "status",
      "outputs": [
        {
          "internalType": "enum PriceFeed.Status",
          "name": "",
          "type": "uint8"
        }
      ],
      "stateMutability": "view",
      "type": "function"
    },
    {
      "inputs": [],
      "name": "tellorCaller",
      "outputs": [
        {
          "internalType": "contract ITellorCaller",
          "name": "",
          "type": "address"
        }
      ],
      "stateMutability": "view",
      "type": "function"
    }
  ],
  "bytecode": "0x608060405234801561001057600080fd5b50600080546001600160a01b0319163390811782556040519091907f8be0079c531659141344cd1fd0a4f28419497f9722a3daafe3b4186f6b6457e0908290a3610fa48061005f6000396000f3fe608060405234801561001057600080fd5b50600436106100f65760003560e01c80637c61e3bf116100925780637c61e3bf146101af5780638da5cb5b146101b75780638f32d59b146101bf57806390107afe146101db578063a20baee614610209578063a3f4df7e14610211578063c521b3f51461028e578063ebf8e6c6146102ab578063f56f48f2146102b3576100f6565b80630490be83146100fb5780630fdb11cf146101155780631be5c92f1461011d578063200d2ed2146101255780632e49d78b146101515780633078fff51461017357806345079cb41461019757806358a6aa881461019f5780635f42caf8146101a7575b600080fd5b6101036102bb565b60408051918252519081900360200190f35b6101036102c1565b610103610571565b61012d610576565b6040518082600481111561013d57fe5b60ff16815260200191505060405180910390f35b6101716004803603602081101561016757600080fd5b503560ff1661057f565b005b61017b6105a0565b604080516001600160a01b039092168252519081900360200190f35b6101036105af565b6101036105ba565b6101036105c6565b61017b6105cb565b61017b6105da565b6101c76105e9565b604080519115158252519081900360200190f35b610171600480360360408110156101f157600080fd5b506001600160a01b03813581169160200135166105fa565b6101036106c8565b6102196106d4565b6040805160208082528351818301528351919283929083019185019080838360005b8381101561025357818101518382015260200161023b565b50505050905090810190601f1680156102805780820380516001836020036101000a031916815260200191505b509250505060405180910390f35b610171600480360360208110156102a457600080fd5b50356106f9565b6101036106fe565b610103610703565b60055481565b60006102cb610ef3565b6102d3610709565b90506102dd610f21565b6102e5610856565b9050600060065460ff1660048111156102fa57fe5b14156103d15761030982610904565b15610366576103178161096f565b156103325761032660026109b4565b6005549250505061056e565b61033b81610a1a565b1561034a5761032660016109b4565b61035460016109b4565b61035d81610a3d565b9250505061056e565b61036f82610a1a565b156103b05761037d8161096f565b1561038c5761032660046109b4565b61039660036109b4565b61039f81610a1a565b15610354576005549250505061056e565b6103b98161096f565b156103c8576103c860046109b4565b61035d82610a5e565b600160065460ff1660048111156103e457fe5b141561041b576103f48282610a76565b15610403576103c860006109b4565b61040c8161096f565b156103965761032660026109b4565b600260065460ff16600481111561042e57fe5b141561044d5761043e8282610a76565b15610326576103c860006109b4565b600360065460ff16600481111561046057fe5b14156105075761046f82610904565b156104965761047d8161096f565b1561048c5761032660026109b4565b61039660016109b4565b61049f82610a1a565b156104bc576104ad8161096f565b156103965761032660046109b4565b6104c58161096f565b156104d4576103c860046109b4565b6104dd81610a1a565b156104ee576005549250505061056e565b6104f88282610abd565b1561034a576103c860006109b4565b600460065460ff16600481111561051a57fe5b141561056b5761052982610904565b156105385761032660026109b4565b61054182610a1a565b15610552576005549250505061056e565b61055c8282610a76565b156103c8576103c860006109b4565b50505b90565b601281565b60065460ff1681565b6006805482919060ff1916600183600481111561059857fe5b021790555050565b6001546001600160a01b031681565b66b1a2bc2ec5000081565b6706f05b59d3b2000081565b600181565b6002546001600160a01b031681565b6000546001600160a01b031690565b6000546001600160a01b0316331490565b6106026105e9565b610653576040805162461bcd60e51b815260206004820181905260248201527f4f776e61626c653a2063616c6c6572206973206e6f7420746865206f776e6572604482015290519081900360640190fd5b61065c82610b54565b61066581610b54565b600180546001600160a01b038481166001600160a01b03199283161790925560028054928416929091169190911790556006805460ff191690556106a7610ef3565b6106af610709565b90506106ba81610a5e565b506106c3610c07565b505050565b670de0b6b3a764000081565b60405180604001604052806009815260200168141c9a58d95199595960ba1b81525081565b600555565b600681565b61384081565b610711610ef3565b600160009054906101000a90046001600160a01b03166001600160a01b031663313ce5676040518163ffffffff1660e01b815260040160206040518083038186803b15801561075f57600080fd5b505afa92505050801561078457506040513d602081101561077f57600080fd5b505160015b61078d5761056e565b60ff166080820152600160009054906101000a90046001600160a01b03166001600160a01b031663feaf968c6040518163ffffffff1660e01b815260040160a06040518083038186803b1580156107e357600080fd5b505afa92505050801561082557506040513d60a081101561080357600080fd5b5080516020820151604083015160608401516080909401519293919290919060015b61082e5761056e565b5069ffffffffffffffffffff909316845250602083015260408201526001606082015261056e565b61085e610f21565b600260009054906101000a90046001600160a01b03166001600160a01b031663994338286040518163ffffffff1660e01b815260040160606040518083038186803b1580156108ac57600080fd5b505afa9250505080156108e057506040513d60608110156108cc57600080fd5b508051602082015160409092015190919060015b6108e95761056e565b9115158352602083015260408201526001606082015261056e565b600081606001516109175750600161096a565b815169ffffffffffffffffffff166109315750600161096a565b604082015115806109455750428260400151115b156109525750600161096a565b60008260200151136109665750600161096a565b5060005b919050565b600081606001516109825750600161096a565b604082015115806109965750428260400151115b156109a35750600161096a565b60208201516109665750600161096a565b6006805482919060ff191660018360048111156109cd57fe5b02179055507f5c57579a8214fe4f710c1c56fa829f045b9fa6d225a744225a30c32188064d4e8160405180826004811115610a0457fe5b60ff16815260200191505060405180910390a150565b6000613840610a36836040015142610c5190919063ffffffff16565b1192915050565b600080610a4d8360200151610c93565b9050610a5881610caa565b92915050565b600080610a4d8360200151846080015160ff16610ce5565b6000610a818261096f565b80610a905750610a9082610a1a565b80610a9f5750610a9f83610a1a565b15610aac57506000610a58565b610ab68383610abd565b9392505050565b600080610ad58460200151856080015160ff16610ce5565b90506000610ae68460200151610c93565b90506000610af48284610d36565b90506000610b028385610d4c565b90506000610b3e83610b32670de0b6b3a7640000610b26868463ffffffff610c5116565b9063ffffffff610d5c16565b9063ffffffff610db516565b66b1a2bc2ec50000101598975050505050505050565b6001600160a01b038116610baf576040805162461bcd60e51b815260206004820152601e60248201527f4163636f756e742063616e6e6f74206265207a65726f20616464726573730000604482015290519081900360640190fd5b803b80610c03576040805162461bcd60e51b815260206004820181905260248201527f4163636f756e7420636f64652073697a652063616e6e6f74206265207a65726f604482015290519081900360640190fd5b5050565b600080546040516001600160a01b03909116907f8be0079c531659141344cd1fd0a4f28419497f9722a3daafe3b4186f6b6457e0908390a3600080546001600160a01b0319169055565b6000610ab683836040518060400160405280601e81526020017f536166654d6174683a207375627472616374696f6e206f766572666c6f770000815250610df7565b6000610a588264e8d4a5100063ffffffff610d5c16565b60058190556040805182815290517f4d29de21de555af78a62fc82dd4bc05e9ae5b0660a37f04729527e0f22780cd39181900360200190a150565b60008060128310610d0e57610d07846011198501600a0a63ffffffff610db516565b9050610ab6565b6012831015610ab657610d2e846012859003600a0a63ffffffff610d5c16565b949350505050565b6000818310610d455781610ab6565b5090919050565b600081831015610d455781610ab6565b600082610d6b57506000610a58565b82820282848281610d7857fe5b0414610ab65760405162461bcd60e51b8152600401808060200182810382526021815260200180610f4e6021913960400191505060405180910390fd5b6000610ab683836040518060400160405280601a81526020017f536166654d6174683a206469766973696f6e206279207a65726f000000000000815250610e8e565b60008184841115610e865760405162461bcd60e51b81526004018080602001828103825283818151815260200191508051906020019080838360005b83811015610e4b578181015183820152602001610e33565b50505050905090810190601f168015610e785780820380516001836020036101000a031916815260200191505b509250505060405180910390fd5b505050900390565b60008183610edd5760405162461bcd60e51b8152602060048201818152835160248401528351909283926044909101919085019080838360008315610e4b578181015183820152602001610e33565b506000838581610ee957fe5b0495945050505050565b6040805160a08101825260008082526020820181905291810182905260608101829052608081019190915290565b60405180608001604052806000151581526020016000815260200160008152602001600015158152509056fe536166654d6174683a206d756c7469706c69636174696f6e206f766572666c6f77a2646970667358221220ebcccdfc9d04e0332a91bb36e00e02f2603f07898dbddce80d1b3338a0fc69d464736f6c634300060b0033",
  "linkReferences": {},
  "deployedLinkReferences": {}
}