{
  "_format": "hh-sol-artifact-1",
  "contractName": "ProtocolBase",
  "sourceName": "contracts/Dependencies/ProtocolBase.sol",
  "abi": [
    {
      "inputs": [
        {
          "internalType": "uint256",
          "name": "_gasCompensation",
          "type": "uint256"
        },
        {
          "internalType": "uint256",
          "name": "_minNetDebt",
          "type": "uint256"
        }
      ],
      "stateMutability": "nonpayable",
      "type": "constructor"
    },
    {
      "inputs": [],
      "name": "BORROWING_FEE_FLOOR",
      "outputs": [
        {
          "internalType": "uint256",
          "name": "",
          "type": "uint256"
        }
      ],
      "stateMutability": "view",
      "type": "function"
    },
    {
      "inputs": [],
      "name": "CCR",
      "outputs": [
        {
          "internalType": "uint256",
          "name": "",
          "type": "uint256"
        }
      ],
      "stateMutability": "view",
      "type": "function"
    },
    {
      "inputs": [],
      "name": "DECIMAL_PRECISION",
      "outputs": [
        {
          "internalType": "uint256",
          "name": "",
          "type": "uint256"
        }
      ],
      "stateMutability": "view",
      "type": "function"
    },
    {
      "inputs": [],
      "name": "GAS_COMPENSATION",
      "outputs": [
        {
          "internalType": "uint256",
          "name": "",
          "type": "uint256"
        }
      ],
      "stateMutability": "view",
      "type": "function"
    },
    {
      "inputs": [],
      "name": "MCR",
      "outputs": [
        {
          "internalType": "uint256",
          "name": "",
          "type": "uint256"
        }
      ],
      "stateMutability": "view",
      "type": "function"
    },
    {
      "inputs": [],
      "name": "MIN_NET_DEBT",
      "outputs": [
        {
          "internalType": "uint256",
          "name": "",
          "type": "uint256"
        }
      ],
      "stateMutability": "view",
      "type": "function"
    },
    {
      "inputs": [],
      "name": "PERCENT_DIVISOR",
      "outputs": [
        {
          "internalType": "uint256",
          "name": "",
          "type": "uint256"
        }
      ],
      "stateMutability": "view",
      "type": "function"
    },
    {
      "inputs": [],
      "name": "_100pct",
      "outputs": [
        {
          "internalType": "uint256",
          "name": "",
          "type": "uint256"
        }
      ],
      "stateMutability": "view",
      "type": "function"
    }
  ],
  "bytecode": "0x60c060405234801561001057600080fd5b506040516101da3803806101da8339818101604052604081101561003357600080fd5b508051602090910151608082905260a08190526101796100616000398060ed52508060c952506101796000f3fe608060405234801561001057600080fd5b50600436106100785760003560e01c8063139f2e8c1461007d5780631bf43555146100975780634870dd9a1461009f5780635733d58f146100a757806372fe25aa146100af578063794e5724146100b7578063a20baee6146100af578063f92d3433146100bf575b600080fd5b6100856100c7565b60408051918252519081900360200190f35b6100856100eb565b61008561010f565b610085610114565b610085610120565b61008561012c565b610085610138565b7f000000000000000000000000000000000000000000000000000000000000000081565b7f000000000000000000000000000000000000000000000000000000000000000081565b60c881565b6714d1120d7b16000081565b670de0b6b3a764000081565b670f43fc2c04ee000081565b6611c37937e080008156fea264697066735822122093982ce7bdde4fc40b746d8a18008db0e97eca06792814140a808f8e0ad9f54664736f6c63430007060033",
  "linkReferences": {},
  "deployedLinkReferences": {}
}