{
  "_format": "hh-sol-artifact-1",
  "contractName": "ProtocolTokenStaking",
  "sourceName": "contracts/ProtocolToken/ProtocolTokenStaking.sol",
  "abi": [
    {
      "anonymous": false,
      "inputs": [
        {
          "indexed": false,
          "internalType": "address",
          "name": "_activePoolAddress",
          "type": "address"
        }
      ],
      "name": "ActivePoolAddressSet",
      "type": "event"
    },
    {
      "anonymous": false,
      "inputs": [
        {
          "indexed": false,
          "internalType": "address",
          "name": "_borrowerOperationsAddress",
          "type": "address"
        }
      ],
      "name": "BorrowerOperationsAddressSet",
      "type": "event"
    },
    {
      "anonymous": false,
      "inputs": [
        {
          "indexed": false,
          "internalType": "address",
          "name": "_debtTokenAddress",
          "type": "address"
        }
      ],
      "name": "DebtTokenAddressSet",
      "type": "event"
    },
    {
      "anonymous": false,
      "inputs": [
        {
          "indexed": false,
          "internalType": "address",
          "name": "_account",
          "type": "address"
        },
        {
          "indexed": false,
          "internalType": "uint256",
          "name": "_amount",
          "type": "uint256"
        }
      ],
      "name": "FILSent",
      "type": "event"
    },
    {
      "anonymous": false,
      "inputs": [
        {
          "indexed": false,
          "internalType": "uint256",
          "name": "_F_DebtToken",
          "type": "uint256"
        }
      ],
      "name": "F_DebtTokenUpdated",
      "type": "event"
    },
    {
      "anonymous": false,
      "inputs": [
        {
          "indexed": false,
          "internalType": "uint256",
          "name": "_F_FIL",
          "type": "uint256"
        }
      ],
      "name": "F_FILUpdated",
      "type": "event"
    },
    {
      "anonymous": false,
      "inputs": [
        {
          "indexed": true,
          "internalType": "address",
          "name": "previousOwner",
          "type": "address"
        },
        {
          "indexed": true,
          "internalType": "address",
          "name": "newOwner",
          "type": "address"
        }
      ],
      "name": "OwnershipTransferred",
      "type": "event"
    },
    {
      "anonymous": false,
      "inputs": [
        {
          "indexed": false,
          "internalType": "address",
          "name": "_protocolTokenAddress",
          "type": "address"
        }
      ],
      "name": "ProtocolTokenAddressSet",
      "type": "event"
    },
    {
      "anonymous": false,
      "inputs": [
        {
          "indexed": true,
          "internalType": "address",
          "name": "staker",
          "type": "address"
        },
        {
          "indexed": false,
          "internalType": "uint256",
          "name": "newStake",
          "type": "uint256"
        }
      ],
      "name": "StakeChanged",
      "type": "event"
    },
    {
      "anonymous": false,
      "inputs": [
        {
          "indexed": false,
          "internalType": "address",
          "name": "_staker",
          "type": "address"
        },
        {
          "indexed": false,
          "internalType": "uint256",
          "name": "_F_FIL",
          "type": "uint256"
        },
        {
          "indexed": false,
          "internalType": "uint256",
          "name": "_F_DebtToken",
          "type": "uint256"
        }
      ],
      "name": "StakerSnapshotsUpdated",
      "type": "event"
    },
    {
      "anonymous": false,
      "inputs": [
        {
          "indexed": true,
          "internalType": "address",
          "name": "staker",
          "type": "address"
        },
        {
          "indexed": false,
          "internalType": "uint256",
          "name": "debtTokenGain",
          "type": "uint256"
        },
        {
          "indexed": false,
          "internalType": "uint256",
          "name": "FILGain",
          "type": "uint256"
        }
      ],
      "name": "StakingGainsWithdrawn",
      "type": "event"
    },
    {
      "anonymous": false,
      "inputs": [
        {
          "indexed": false,
          "internalType": "uint256",
          "name": "_totalProtocolTokenStaked",
          "type": "uint256"
        }
      ],
      "name": "TotalProtocolTokenStakedUpdated",
      "type": "event"
    },
    {
      "anonymous": false,
      "inputs": [
        {
          "indexed": false,
          "internalType": "address",
          "name": "_troveManager",
          "type": "address"
        }
      ],
      "name": "TroveManagerAddressSet",
      "type": "event"
    },
    {
      "inputs": [],
      "name": "DECIMAL_PRECISION",
      "outputs": [
        {
          "internalType": "uint256",
          "name": "",
          "type": "uint256"
        }
      ],
      "stateMutability": "view",
      "type": "function"
    },
    {
      "inputs": [],
      "name": "F_DebtToken",
      "outputs": [
        {
          "internalType": "uint256",
          "name": "",
          "type": "uint256"
        }
      ],
      "stateMutability": "view",
      "type": "function"
    },
    {
      "inputs": [],
      "name": "F_FIL",
      "outputs": [
        {
          "internalType": "uint256",
          "name": "",
          "type": "uint256"
        }
      ],
      "stateMutability": "view",
      "type": "function"
    },
    {
      "inputs": [],
      "name": "NAME",
      "outputs": [
        {
          "internalType": "string",
          "name": "",
          "type": "string"
        }
      ],
      "stateMutability": "view",
      "type": "function"
    },
    {
      "inputs": [],
      "name": "activePoolAddress",
      "outputs": [
        {
          "internalType": "address",
          "name": "",
          "type": "address"
        }
      ],
      "stateMutability": "view",
      "type": "function"
    },
    {
      "inputs": [],
      "name": "borrowerOperationsAddress",
      "outputs": [
        {
          "internalType": "address",
          "name": "",
          "type": "address"
        }
      ],
      "stateMutability": "view",
      "type": "function"
    },
    {
      "inputs": [],
      "name": "debtToken",
      "outputs": [
        {
          "internalType": "contract IDebtToken",
          "name": "",
          "type": "address"
        }
      ],
      "stateMutability": "view",
      "type": "function"
    },
    {
      "inputs": [
        {
          "internalType": "address",
          "name": "_user",
          "type": "address"
        }
      ],
      "name": "getPendingDebtTokenGain",
      "outputs": [
        {
          "internalType": "uint256",
          "name": "",
          "type": "uint256"
        }
      ],
      "stateMutability": "view",
      "type": "function"
    },
    {
      "inputs": [
        {
          "internalType": "address",
          "name": "_user",
          "type": "address"
        }
      ],
      "name": "getPendingFILGain",
      "outputs": [
        {
          "internalType": "uint256",
          "name": "",
          "type": "uint256"
        }
      ],
      "stateMutability": "view",
      "type": "function"
    },
    {
      "inputs": [
        {
          "internalType": "uint256",
          "name": "_debtTokenFee",
          "type": "uint256"
        }
      ],
      "name": "increaseF_DebtToken",
      "outputs": [],
      "stateMutability": "nonpayable",
      "type": "function"
    },
    {
      "inputs": [
        {
          "internalType": "uint256",
          "name": "_FILFee",
          "type": "uint256"
        }
      ],
      "name": "increaseF_FIL",
      "outputs": [],
      "stateMutability": "nonpayable",
      "type": "function"
    },
    {
      "inputs": [],
      "name": "isOwner",
      "outputs": [
        {
          "internalType": "bool",
          "name": "",
          "type": "bool"
        }
      ],
      "stateMutability": "view",
      "type": "function"
    },
    {
      "inputs": [],
      "name": "owner",
      "outputs": [
        {
          "internalType": "address",
          "name": "",
          "type": "address"
        }
      ],
      "stateMutability": "view",
      "type": "function"
    },
    {
      "inputs": [],
      "name": "protocolToken",
      "outputs": [
        {
          "internalType": "contract IProtocolToken",
          "name": "",
          "type": "address"
        }
      ],
      "stateMutability": "view",
      "type": "function"
    },
    {
      "inputs": [
        {
          "internalType": "address",
          "name": "_protocolTokenAddress",
          "type": "address"
        },
        {
          "internalType": "address",
          "name": "_debtTokenAddress",
          "type": "address"
        },
        {
          "internalType": "address",
          "name": "_troveManagerAddress",
          "type": "address"
        },
        {
          "internalType": "address",
          "name": "_borrowerOperationsAddress",
          "type": "address"
        },
        {
          "internalType": "address",
          "name": "_activePoolAddress",
          "type": "address"
        }
      ],
      "name": "setAddresses",
      "outputs": [],
      "stateMutability": "nonpayable",
      "type": "function"
    },
    {
      "inputs": [
        {
          "internalType": "address",
          "name": "",
          "type": "address"
        }
      ],
      "name": "snapshots",
      "outputs": [
        {
          "internalType": "uint256",
          "name": "F_FIL_Snapshot",
          "type": "uint256"
        },
        {
          "internalType": "uint256",
          "name": "F_DebtToken_Snapshot",
          "type": "uint256"
        }
      ],
      "stateMutability": "view",
      "type": "function"
    },
    {
      "inputs": [
        {
          "internalType": "uint256",
          "name": "_tokenAmount",
          "type": "uint256"
        }
      ],
      "name": "stake",
      "outputs": [],
      "stateMutability": "nonpayable",
      "type": "function"
    },
    {
      "inputs": [
        {
          "internalType": "address",
          "name": "",
          "type": "address"
        }
      ],
      "name": "stakes",
      "outputs": [
        {
          "internalType": "uint256",
          "name": "",
          "type": "uint256"
        }
      ],
      "stateMutability": "view",
      "type": "function"
    },
    {
      "inputs": [],
      "name": "totalProtocolTokenStaked",
      "outputs": [
        {
          "internalType": "uint256",
          "name": "",
          "type": "uint256"
        }
      ],
      "stateMutability": "view",
      "type": "function"
    },
    {
      "inputs": [],
      "name": "troveManagerAddress",
      "outputs": [
        {
          "internalType": "address",
          "name": "",
          "type": "address"
        }
      ],
      "stateMutability": "view",
      "type": "function"
    },
    {
      "inputs": [
        {
          "internalType": "uint256",
          "name": "_tokenAmount",
          "type": "uint256"
        }
      ],
      "name": "unstake",
      "outputs": [],
      "stateMutability": "nonpayable",
      "type": "function"
    },
    {
      "stateMutability": "payable",
      "type": "receive"
    }
  ],
  "bytecode": "0x608060405234801561001057600080fd5b50600080546001600160a01b0319163390811782556040519091907f8be0079c531659141344cd1fd0a4f28419497f9722a3daafe3b4186f6b6457e0908290a36115108061005f6000396000f3fe60806040526004361061012e5760003560e01c80638da538a3116100ab578063a694fc3a1161006f578063a694fc3a1461041a578063b08bc72214610444578063b1955ad214610459578063b7f8cf9b14610483578063c91d2d3814610498578063f8d89898146104c25761013d565b80638da538a3146103285780638da5cb5b1461033d5780638f32d59b14610352578063a20baee61461037b578063a3f4df7e146103905761013d565b806334b3081f116100f257806334b3081f1461022a5780633cd27e67146102765780635a4d28bb146102a95780635dd68acd146102be5780637415fa18146103135761013d565b806316934fc41461014257806317f175dc146101875780631a14971b146101ba5780631a465fe1146101cf5780632e17de78146102005761013d565b3661013d5761013b6104d7565b005b600080fd5b34801561014e57600080fd5b506101756004803603602081101561016557600080fd5b50356001600160a01b0316610522565b60408051918252519081900360200190f35b34801561019357600080fd5b50610175600480360360208110156101aa57600080fd5b50356001600160a01b0316610534565b3480156101c657600080fd5b50610175610545565b3480156101db57600080fd5b506101e461054b565b604080516001600160a01b039092168252519081900360200190f35b34801561020c57600080fd5b5061013b6004803603602081101561022357600080fd5b503561055a565b34801561023657600080fd5b5061025d6004803603602081101561024d57600080fd5b50356001600160a01b0316610792565b6040805192835260208301919091528051918290030190f35b34801561028257600080fd5b506101756004803603602081101561029957600080fd5b50356001600160a01b03166107ab565b3480156102b557600080fd5b506101e46107b6565b3480156102ca57600080fd5b5061013b600480360360a08110156102e157600080fd5b506001600160a01b038135811691602081013582169160408201358116916060810135821691608090910135166107c5565b34801561031f57600080fd5b506101756109d1565b34801561033457600080fd5b506101756109d7565b34801561034957600080fd5b506101e46109dd565b34801561035e57600080fd5b506103676109ec565b604080519115158252519081900360200190f35b34801561038757600080fd5b506101756109fd565b34801561039c57600080fd5b506103a5610a09565b6040805160208082528351818301528351919283929083019185019080838360005b838110156103df5781810151838201526020016103c7565b50505050905090810190601f16801561040c5780820380516001836020036101000a031916815260200191505b509250505060405180910390f35b34801561042657600080fd5b5061013b6004803603602081101561043d57600080fd5b5035610a39565b34801561045057600080fd5b506101e4610c4a565b34801561046557600080fd5b5061013b6004803603602081101561047c57600080fd5b5035610c59565b34801561048f57600080fd5b506101e4610cd6565b3480156104a457600080fd5b5061013b600480360360208110156104bb57600080fd5b5035610ce5565b3480156104ce57600080fd5b506101e4610d5c565b600a546001600160a01b031633146105205760405162461bcd60e51b815260040180806020018281038252602e8152602001806113d1602e913960400191505060405180910390fd5b565b60016020526000908152604090205481565b600061053f82610d6b565b92915050565b60045481565b6006546001600160a01b031681565b3360009081526001602052604090205461057381610dcf565b600061057e33610e11565b9050600061058b33610d6b565b905061059633610e4b565b83156106c85760006105a88585610ebd565b905060006105b68583610ed5565b3360009081526001602052604090208190556002549091506105d89083610ed5565b600281905560408051918252517fc4ca4e3d2fd1965e6d42d851e766d5b9a64dd0a8a670a1516843a0217757fa5d9181900360200190a16006546040805163a9059cbb60e01b81523360048201526024810185905290516001600160a01b039092169163a9059cbb916044808201926020929091908290030181600087803b15801561066357600080fd5b505af1158015610677573d6000803e3d6000fd5b505050506040513d602081101561068d57600080fd5b505060408051828152905133917f39df0e5286a3ef2f42a0bf52f32cfe2c58e5b0405f47fe512f2c2439e4cfe204919081900360200190a250505b6040805182815260208101849052815133927ff744d34ca1cb25acfa4180df5f09a67306107110a9f4b6ed99bb3be259738215928290030190a26007546040805163a9059cbb60e01b81523360048201526024810184905290516001600160a01b039092169163a9059cbb916044808201926020929091908290030181600087803b15801561075657600080fd5b505af115801561076a573d6000803e3d6000fd5b505050506040513d602081101561078057600080fd5b5061078c905082610f17565b50505050565b6005602052600090815260409020805460019091015482565b600061053f82610e11565b6008546001600160a01b031681565b6107cd6109ec565b61081e576040805162461bcd60e51b815260206004820181905260248201527f4f776e61626c653a2063616c6c6572206973206e6f7420746865206f776e6572604482015290519081900360640190fd5b61082785610fdd565b61083084610fdd565b61083983610fdd565b61084282610fdd565b61084b81610fdd565b600680546001600160a01b038088166001600160a01b03199283168117909355600780548883169084161790556008805487831690841617905560098054868316908416179055600a80549185169190921617905560408051918252517f8b70fff6eb19dda13b7b98f7e1b6aff53cc8a27c0ffe6282cc22727fdcd4e2319181900360200190a1604080516001600160a01b038616815290517f482942d8b227a1a84982f337b8b18662fde02dc7a4cce912c74090cb529f25909181900360200190a1604080516001600160a01b038516815290517f41097dcc1f7cbd663d822443d7972f05b04f71918b30fe9fc59dd6e42e2280609181900360200190a1604080516001600160a01b038416815290517f5962f8af633c4df1ab230096f773a514ee5adf7785c621ecdcdb764cb7f6e3919181900360200190a1604080516001600160a01b038316815290517f8f6a6e7d20a3233e0a79883272259ffbd7a243734e397bc2b4642c79d7fa8a6d9181900360200190a16109ca61108c565b5050505050565b60035481565b60025481565b6000546001600160a01b031690565b6000546001600160a01b0316331490565b670de0b6b3a764000081565b6040518060400160405280601481526020017350726f746f636f6c546f6b656e5374616b696e6760601b81525081565b610a42816110d6565b3360009081526001602052604081205490808215610a7157610a6333610e11565b9150610a6e33610d6b565b90505b610a7a33610e4b565b6000610a868486611115565b336000908152600160205260409020819055600254909150610aa89086611115565b600281905560408051918252517fc4ca4e3d2fd1965e6d42d851e766d5b9a64dd0a8a670a1516843a0217757fa5d9181900360200190a160065460408051630553e6c560e51b81523360048201526024810188905290516001600160a01b039092169163aa7cd8a09160448082019260009290919082900301818387803b158015610b3257600080fd5b505af1158015610b46573d6000803e3d6000fd5b50506040805184815290513393507f39df0e5286a3ef2f42a0bf52f32cfe2c58e5b0405f47fe512f2c2439e4cfe20492509081900360200190a26040805183815260208101859052815133927ff744d34ca1cb25acfa4180df5f09a67306107110a9f4b6ed99bb3be259738215928290030190a283156109ca576007546040805163a9059cbb60e01b81523360048201526024810185905290516001600160a01b039092169163a9059cbb916044808201926020929091908290030181600087803b158015610c1457600080fd5b505af1158015610c28573d6000803e3d6000fd5b505050506040513d6020811015610c3e57600080fd5b506109ca905083610f17565b600a546001600160a01b031681565b610c6161116f565b60025460009015610c8e57600254610c8b90610c8584670de0b6b3a76400006111b8565b90611211565b90505b600454610c9b9082611115565b600481905560408051918252517fd35d18f1d1506f94dd33c043c612cce724e9e52b5924bdf2b19d62ddfe26513b9181900360200190a15050565b6009546001600160a01b031681565b610ced611253565b60025460009015610d1457600254610d1190610c8584670de0b6b3a76400006111b8565b90505b600354610d219082611115565b600381905560408051918252517febf7d091f46f1a9713f83361f4b7bdfc07a53d3e0b8582025f6318db750e8b9f9181900360200190a15050565b6007546001600160a01b031681565b6001600160a01b0381166000908152600560205260408120600101546004548290610dc790670de0b6b3a764000090610c8590610da89086610ed5565b6001600160a01b038816600090815260016020526040902054906111b8565b949350505050565b60008111610e0e5760405162461bcd60e51b81526004018080602001828103825260358152602001806114a66035913960400191505060405180910390fd5b50565b6001600160a01b0381166000908152600560205260408120546003548290610dc790670de0b6b3a764000090610c8590610da89086610ed5565b600380546001600160a01b038316600081815260056020908152604091829020938455600454600190940184905593548151928352938201939093528083019190915290517f6b5cf27595af4428271524e0a5abd2b63f6fee1a61e31970490f5a10e257a1cd9181900360600190a150565b6000818310610ecc5781610ece565b825b9392505050565b6000610ece83836040518060400160405280601e81526020017f536166654d6174683a207375627472616374696f6e206f766572666c6f77000081525061129c565b604080513381526020810183905281517f3b2482b1bf6e751427503c9a8bf79e4dba3e6519259e2220428c2f326cc79c14929181900390910190a1604051600090339083908381818185875af1925050503d8060008114610f94576040519150601f19603f3d011682016040523d82523d6000602084013e610f99565b606091505b5050905080610fd95760405162461bcd60e51b81526004018080602001828103825260388152602001806113996038913960400191505060405180910390fd5b5050565b6001600160a01b038116611038576040805162461bcd60e51b815260206004820152601e60248201527f4163636f756e742063616e6e6f74206265207a65726f20616464726573730000604482015290519081900360640190fd5b803b80610fd9576040805162461bcd60e51b815260206004820181905260248201527f4163636f756e7420636f64652073697a652063616e6e6f74206265207a65726f604482015290519081900360640190fd5b600080546040516001600160a01b03909116907f8be0079c531659141344cd1fd0a4f28419497f9722a3daafe3b4186f6b6457e0908390a3600080546001600160a01b0319169055565b60008111610e0e5760405162461bcd60e51b815260040180806020018281038252602d8152602001806113ff602d913960400191505060405180910390fd5b600082820183811015610ece576040805162461bcd60e51b815260206004820152601b60248201527f536166654d6174683a206164646974696f6e206f766572666c6f770000000000604482015290519081900360640190fd5b6009546001600160a01b031633146105205760405162461bcd60e51b815260040180806020018281038252602f815260200180611477602f913960400191505060405180910390fd5b6000826111c75750600061053f565b828202828482816111d457fe5b0414610ece5760405162461bcd60e51b81526004018080602001828103825260218152602001806114566021913960400191505060405180910390fd5b6000610ece83836040518060400160405280601a81526020017f536166654d6174683a206469766973696f6e206279207a65726f000000000000815250611333565b6008546001600160a01b031633146105205760405162461bcd60e51b815260040180806020018281038252602a81526020018061142c602a913960400191505060405180910390fd5b6000818484111561132b5760405162461bcd60e51b81526004018080602001828103825283818151815260200191508051906020019080838360005b838110156112f05781810151838201526020016112d8565b50505050905090810190601f16801561131d5780820380516001836020036101000a031916815260200191505b509250505060405180910390fd5b505050900390565b600081836113825760405162461bcd60e51b81526020600482018181528351602484015283519092839260449091019190850190808383600083156112f05781810151838201526020016112d8565b50600083858161138e57fe5b049594505050505056fe50726f746f636f6c546f6b656e5374616b696e673a204661696c656420746f2073656e6420616363756d756c617465642046494c4761696e50726f746f636f6c546f6b656e5374616b696e673a2063616c6c6572206973206e6f7420416374697665506f6f6c50726f746f636f6c546f6b656e5374616b696e673a20416d6f756e74206d757374206265206e6f6e2d7a65726f50726f746f636f6c546f6b656e5374616b696e673a2063616c6c6572206973206e6f742054726f76654d536166654d6174683a206d756c7469706c69636174696f6e206f766572666c6f7750726f746f636f6c546f6b656e5374616b696e673a2063616c6c6572206973206e6f7420426f72726f7765724f707350726f746f636f6c546f6b656e5374616b696e673a2055736572206d75737420686176652061206e6f6e2d7a65726f207374616b65a264697066735822122017daf8d9a141f1a405a40a3c23a5d12024cf73eb7b5acf76cf83e762def9596a64736f6c63430007060033",
  "linkReferences": {},
  "deployedLinkReferences": {}
}