{
  "_format": "hh-sol-artifact-1",
  "contractName": "ProtocolStakingScript",
  "sourceName": "contracts/Proxy/ProtocolStakingScript.sol",
  "abi": [
    {
      "inputs": [
        {
          "internalType": "address",
          "name": "_protocolTokenStakingAddress",
          "type": "address"
        }
      ],
      "stateMutability": "nonpayable",
      "type": "constructor"
    },
    {
      "inputs": [
        {
          "internalType": "uint256",
          "name": "_tokenAmount",
          "type": "uint256"
        }
      ],
      "name": "stake",
      "outputs": [],
      "stateMutability": "nonpayable",
      "type": "function"
    }
  ],
  "bytecode": "0x60a060405234801561001057600080fd5b506040516101c93803806101c98339818101604052602081101561003357600080fd5b505161003e81610053565b60601b6001600160601b0319166080526100b1565b6001600160a01b0381166100ae576040805162461bcd60e51b815260206004820152601e60248201527f4163636f756e742063616e6e6f74206265207a65726f20616464726573730000604482015290519081900360640190fd5b50565b60805160601c60fe6100cb60003980604b525060fe6000f3fe6080604052348015600f57600080fd5b506004361060285760003560e01c8063a694fc3a14602d575b600080fd5b604760048036036020811015604157600080fd5b50356049565b005b7f00000000000000000000000000000000000000000000000000000000000000006001600160a01b031663a694fc3a826040518263ffffffff1660e01b815260040180828152602001915050600060405180830381600087803b15801560ae57600080fd5b505af115801560c1573d6000803e3d6000fd5b505050505056fea2646970667358221220292b50e0e241b7a1350ab554a2dac11c400c8c4641131b8ede864bcb3249b48664736f6c63430007060033",
  "linkReferences": {},
  "deployedLinkReferences": {}
}