{
  "_format": "hh-sol-artifact-1",
  "contractName": "ProtocolTokenStakingTester",
  "sourceName": "contracts/TestContracts/ProtocolTokenStakingTester.sol",
  "abi": [
    {
      "anonymous": false,
      "inputs": [
        {
          "indexed": false,
          "internalType": "address",
          "name": "_activePoolAddress",
          "type": "address"
        }
      ],
      "name": "ActivePoolAddressChanged",
      "type": "event"
    },
    {
      "anonymous": false,
      "inputs": [
        {
          "indexed": false,
          "internalType": "address",
          "name": "_borrowerOperationsAddress",
          "type": "address"
        }
      ],
      "name": "BorrowerOperationsAddressChanged",
      "type": "event"
    },
    {
      "anonymous": false,
      "inputs": [
        {
          "indexed": false,
          "internalType": "address",
          "name": "_debtTokenAddress",
          "type": "address"
        }
      ],
      "name": "DebtTokenAddressChanged",
      "type": "event"
    },
    {
      "anonymous": false,
      "inputs": [
        {
          "indexed": false,
          "internalType": "address",
          "name": "_account",
          "type": "address"
        },
        {
          "indexed": false,
          "internalType": "uint256",
          "name": "_amount",
          "type": "uint256"
        }
      ],
      "name": "FILSent",
      "type": "event"
    },
    {
      "anonymous": false,
      "inputs": [
        {
          "indexed": false,
          "internalType": "uint256",
          "name": "_F_DebtToken",
          "type": "uint256"
        }
      ],
      "name": "F_DebtTokenUpdated",
      "type": "event"
    },
    {
      "anonymous": false,
      "inputs": [
        {
          "indexed": false,
          "internalType": "uint256",
          "name": "_F_FIL",
          "type": "uint256"
        }
      ],
      "name": "F_FILUpdated",
      "type": "event"
    },
    {
      "anonymous": false,
      "inputs": [
        {
          "indexed": true,
          "internalType": "address",
          "name": "previousOwner",
          "type": "address"
        },
        {
          "indexed": true,
          "internalType": "address",
          "name": "newOwner",
          "type": "address"
        }
      ],
      "name": "OwnershipTransferred",
      "type": "event"
    },
    {
      "anonymous": false,
      "inputs": [
        {
          "indexed": false,
          "internalType": "address",
          "name": "_protocolTokenAddress",
          "type": "address"
        }
      ],
      "name": "ProtocolTokenAddressChanged",
      "type": "event"
    },
    {
      "anonymous": false,
      "inputs": [
        {
          "indexed": true,
          "internalType": "address",
          "name": "staker",
          "type": "address"
        },
        {
          "indexed": false,
          "internalType": "uint256",
          "name": "newStake",
          "type": "uint256"
        }
      ],
      "name": "StakeChanged",
      "type": "event"
    },
    {
      "anonymous": false,
      "inputs": [
        {
          "indexed": false,
          "internalType": "address",
          "name": "_staker",
          "type": "address"
        },
        {
          "indexed": false,
          "internalType": "uint256",
          "name": "_F_FIL",
          "type": "uint256"
        },
        {
          "indexed": false,
          "internalType": "uint256",
          "name": "_F_DebtToken",
          "type": "uint256"
        }
      ],
      "name": "StakerSnapshotsUpdated",
      "type": "event"
    },
    {
      "anonymous": false,
      "inputs": [
        {
          "indexed": true,
          "internalType": "address",
          "name": "staker",
          "type": "address"
        },
        {
          "indexed": false,
          "internalType": "uint256",
          "name": "debtTokenGain",
          "type": "uint256"
        },
        {
          "indexed": false,
          "internalType": "uint256",
          "name": "FILGain",
          "type": "uint256"
        }
      ],
      "name": "StakingGainsWithdrawn",
      "type": "event"
    },
    {
      "anonymous": false,
      "inputs": [
        {
          "indexed": false,
          "internalType": "uint256",
          "name": "_totalProtocolTokenStaked",
          "type": "uint256"
        }
      ],
      "name": "TotalProtocolTokenStakedUpdated",
      "type": "event"
    },
    {
      "anonymous": false,
      "inputs": [
        {
          "indexed": false,
          "internalType": "address",
          "name": "_troveManager",
          "type": "address"
        }
      ],
      "name": "TroveManagerAddressChanged",
      "type": "event"
    },
    {
      "anonymous": false,
      "inputs": [
        {
          "indexed": false,
          "internalType": "uint256",
          "name": "_unallocatedDebtToken",
          "type": "uint256"
        }
      ],
      "name": "UnallocatedDebtTokenUpdated",
      "type": "event"
    },
    {
      "anonymous": false,
      "inputs": [
        {
          "indexed": false,
          "internalType": "uint256",
          "name": "_unallocatedFIL",
          "type": "uint256"
        }
      ],
      "name": "UnallocatedFILUpdated",
      "type": "event"
    },
    {
      "inputs": [],
      "name": "DECIMAL_PRECISION",
      "outputs": [
        {
          "internalType": "uint256",
          "name": "",
          "type": "uint256"
        }
      ],
      "stateMutability": "view",
      "type": "function"
    },
    {
      "inputs": [],
      "name": "F_DebtToken",
      "outputs": [
        {
          "internalType": "uint256",
          "name": "",
          "type": "uint256"
        }
      ],
      "stateMutability": "view",
      "type": "function"
    },
    {
      "inputs": [],
      "name": "F_FIL",
      "outputs": [
        {
          "internalType": "uint256",
          "name": "",
          "type": "uint256"
        }
      ],
      "stateMutability": "view",
      "type": "function"
    },
    {
      "inputs": [],
      "name": "NAME",
      "outputs": [
        {
          "internalType": "string",
          "name": "",
          "type": "string"
        }
      ],
      "stateMutability": "view",
      "type": "function"
    },
    {
      "inputs": [],
      "name": "activePoolAddress",
      "outputs": [
        {
          "internalType": "address",
          "name": "",
          "type": "address"
        }
      ],
      "stateMutability": "view",
      "type": "function"
    },
    {
      "inputs": [],
      "name": "borrowerOperationsAddress",
      "outputs": [
        {
          "internalType": "address",
          "name": "",
          "type": "address"
        }
      ],
      "stateMutability": "view",
      "type": "function"
    },
    {
      "inputs": [],
      "name": "debtToken",
      "outputs": [
        {
          "internalType": "contract IDebtToken",
          "name": "",
          "type": "address"
        }
      ],
      "stateMutability": "view",
      "type": "function"
    },
    {
      "inputs": [
        {
          "internalType": "address",
          "name": "_user",
          "type": "address"
        }
      ],
      "name": "getPendingDebtTokenGain",
      "outputs": [
        {
          "internalType": "uint256",
          "name": "",
          "type": "uint256"
        }
      ],
      "stateMutability": "view",
      "type": "function"
    },
    {
      "inputs": [
        {
          "internalType": "address",
          "name": "_user",
          "type": "address"
        }
      ],
      "name": "getPendingFILGain",
      "outputs": [
        {
          "internalType": "uint256",
          "name": "",
          "type": "uint256"
        }
      ],
      "stateMutability": "view",
      "type": "function"
    },
    {
      "inputs": [
        {
          "internalType": "uint256",
          "name": "_debtTokenFee",
          "type": "uint256"
        }
      ],
      "name": "increaseF_DebtToken",
      "outputs": [],
      "stateMutability": "nonpayable",
      "type": "function"
    },
    {
      "inputs": [
        {
          "internalType": "uint256",
          "name": "_FILFee",
          "type": "uint256"
        }
      ],
      "name": "increaseF_FIL",
      "outputs": [],
      "stateMutability": "nonpayable",
      "type": "function"
    },
    {
      "inputs": [
        {
          "internalType": "address",
          "name": "_protocolTokenAddress",
          "type": "address"
        },
        {
          "internalType": "address",
          "name": "_debtTokenAddress",
          "type": "address"
        },
        {
          "internalType": "address",
          "name": "_troveManagerAddress",
          "type": "address"
        },
        {
          "internalType": "address",
          "name": "_borrowerOperationsAddress",
          "type": "address"
        },
        {
          "internalType": "address",
          "name": "_activePoolAddress",
          "type": "address"
        }
      ],
      "name": "initialize",
      "outputs": [],
      "stateMutability": "nonpayable",
      "type": "function"
    },
    {
      "inputs": [],
      "name": "owner",
      "outputs": [
        {
          "internalType": "address",
          "name": "",
          "type": "address"
        }
      ],
      "stateMutability": "view",
      "type": "function"
    },
    {
      "inputs": [],
      "name": "protocolToken",
      "outputs": [
        {
          "internalType": "contract IProtocolToken",
          "name": "",
          "type": "address"
        }
      ],
      "stateMutability": "view",
      "type": "function"
    },
    {
      "inputs": [],
      "name": "renounceOwnership",
      "outputs": [],
      "stateMutability": "nonpayable",
      "type": "function"
    },
    {
      "inputs": [],
      "name": "requireCallerIsTroveManager",
      "outputs": [],
      "stateMutability": "view",
      "type": "function"
    },
    {
      "inputs": [
        {
          "internalType": "address",
          "name": "",
          "type": "address"
        }
      ],
      "name": "snapshots",
      "outputs": [
        {
          "internalType": "uint256",
          "name": "F_FIL_Snapshot",
          "type": "uint256"
        },
        {
          "internalType": "uint256",
          "name": "F_DebtToken_Snapshot",
          "type": "uint256"
        }
      ],
      "stateMutability": "view",
      "type": "function"
    },
    {
      "inputs": [
        {
          "internalType": "uint256",
          "name": "_tokenAmount",
          "type": "uint256"
        }
      ],
      "name": "stake",
      "outputs": [],
      "stateMutability": "nonpayable",
      "type": "function"
    },
    {
      "inputs": [
        {
          "internalType": "address",
          "name": "",
          "type": "address"
        }
      ],
      "name": "stakes",
      "outputs": [
        {
          "internalType": "uint256",
          "name": "",
          "type": "uint256"
        }
      ],
      "stateMutability": "view",
      "type": "function"
    },
    {
      "inputs": [],
      "name": "totalProtocolTokenStaked",
      "outputs": [
        {
          "internalType": "uint256",
          "name": "",
          "type": "uint256"
        }
      ],
      "stateMutability": "view",
      "type": "function"
    },
    {
      "inputs": [
        {
          "internalType": "address",
          "name": "newOwner",
          "type": "address"
        }
      ],
      "name": "transferOwnership",
      "outputs": [],
      "stateMutability": "nonpayable",
      "type": "function"
    },
    {
      "inputs": [],
      "name": "troveManagerAddress",
      "outputs": [
        {
          "internalType": "address",
          "name": "",
          "type": "address"
        }
      ],
      "stateMutability": "view",
      "type": "function"
    },
    {
      "inputs": [],
      "name": "unallocatedDebtToken",
      "outputs": [
        {
          "internalType": "uint256",
          "name": "",
          "type": "uint256"
        }
      ],
      "stateMutability": "view",
      "type": "function"
    },
    {
      "inputs": [],
      "name": "unallocatedFIL",
      "outputs": [
        {
          "internalType": "uint256",
          "name": "",
          "type": "uint256"
        }
      ],
      "stateMutability": "view",
      "type": "function"
    },
    {
      "inputs": [
        {
          "internalType": "uint256",
          "name": "_tokenAmount",
          "type": "uint256"
        }
      ],
      "name": "unstake",
      "outputs": [],
      "stateMutability": "nonpayable",
      "type": "function"
    },
    {
      "inputs": [],
      "name": "withdrawUnallocatedDebtToken",
      "outputs": [],
      "stateMutability": "nonpayable",
      "type": "function"
    },
    {
      "inputs": [],
      "name": "withdrawUnallocatedFIL",
      "outputs": [],
      "stateMutability": "nonpayable",
      "type": "function"
    },
    {
      "stateMutability": "payable",
      "type": "receive"
    }
  ],
  "bytecode": "0x608060405234801561001057600080fd5b50611dbe806100206000396000f3fe6080604052600436106101705760003560e01c8063715018a6116100cc578063b08bc7221161007a578063b08bc722146104c6578063b1955ad2146104db578063b6a233e514610505578063b7f8cf9b1461051a578063c91d2d381461052f578063f2fde38b14610559578063f8d898981461058c5761017f565b8063715018a6146103a95780637415fa18146103be5780638da538a3146103d35780638da5cb5b146103e8578063a20baee6146103fd578063a3f4df7e14610412578063a694fc3a1461049c5761017f565b80632e17de78116101295780632e17de78146102ac57806334b3081f146102d65780633b95b91d146103225780633cd27e671461033757806346b3252f1461036a5780634d60d8ae1461037f5780635a4d28bb146103945761017f565b80630b22ac32146101845780631459457a1461019957806316934fc4146101ee57806317f175dc146102335780631a14971b146102665780631a465fe11461027b5761017f565b3661017f5761017d6105a1565b005b600080fd5b34801561019057600080fd5b5061017d6105ec565b3480156101a557600080fd5b5061017d600480360360a08110156101bc57600080fd5b506001600160a01b03813581169160208101358216916040820135811691606081013582169160809091013516610710565b3480156101fa57600080fd5b506102216004803603602081101561021157600080fd5b50356001600160a01b03166107d4565b60408051918252519081900360200190f35b34801561023f57600080fd5b506102216004803603602081101561025657600080fd5b50356001600160a01b03166107e6565b34801561027257600080fd5b506102216107f7565b34801561028757600080fd5b506102906107fd565b604080516001600160a01b039092168252519081900360200190f35b3480156102b857600080fd5b5061017d600480360360208110156102cf57600080fd5b503561080c565b3480156102e257600080fd5b50610309600480360360208110156102f957600080fd5b50356001600160a01b0316610aa6565b6040805192835260208301919091528051918290030190f35b34801561032e57600080fd5b5061017d610abf565b34801561034357600080fd5b506102216004803603602081101561035a57600080fd5b50356001600160a01b0316610ac7565b34801561037657600080fd5b50610221610ad2565b34801561038b57600080fd5b5061017d610ad8565b3480156103a057600080fd5b50610290610b85565b3480156103b557600080fd5b5061017d610b94565b3480156103ca57600080fd5b50610221610c2e565b3480156103df57600080fd5b50610221610c34565b3480156103f457600080fd5b50610290610c3a565b34801561040957600080fd5b50610221610c49565b34801561041e57600080fd5b50610427610c55565b6040805160208082528351818301528351919283929083019185019080838360005b83811015610461578181015183820152602001610449565b50505050905090810190601f16801561048e5780820380516001836020036101000a031916815260200191505b509250505060405180910390f35b3480156104a857600080fd5b5061017d600480360360208110156104bf57600080fd5b5035610c85565b3480156104d257600080fd5b50610290610eff565b3480156104e757600080fd5b5061017d600480360360208110156104fe57600080fd5b5035610f0e565b34801561051157600080fd5b50610221610fd4565b34801561052657600080fd5b50610290610fda565b34801561053b57600080fd5b5061017d6004803603602081101561055257600080fd5b5035610fe9565b34801561056557600080fd5b5061017d6004803603602081101561057c57600080fd5b50356001600160a01b03166110a9565b34801561059857600080fd5b5061029061119a565b60a2546001600160a01b031633146105ea5760405162461bcd60e51b815260040180806020018281038252602e815260200180611c11602e913960400191505060405180910390fd5b565b6105f46111a9565b6001600160a01b0316610605610c3a565b6001600160a01b03161461064e576040805162461bcd60e51b81526020600482018190526024820152600080516020611ce5833981519152604482015290519081900360640190fd5b609c8054600091829055604080519283525190917f357f366c64266f8e9a39eb163073d5136a4abc71ac12f8ec7c84faf498e7f8b8919081900360200190a1609f546040805163a9059cbb60e01b81523360048201526024810184905290516001600160a01b039092169163a9059cbb916044808201926020929091908290030181600087803b1580156106e157600080fd5b505af11580156106f5573d6000803e3d6000fd5b505050506040513d602081101561070b57600080fd5b505050565b600054610100900460ff168061072957506107296111ad565b80610737575060005460ff16155b6107725760405162461bcd60e51b815260040180806020018281038252602e815260200180611c96602e913960400191505060405180910390fd5b600054610100900460ff1615801561079d576000805460ff1961ff0019909116610100171660011790555b6107a56111be565b6107ad61126f565b6107ba8686868686611304565b80156107cc576000805461ff00191690555b505050505050565b60976020526000908152604090205481565b60006107f1826114af565b92915050565b609a5481565b609e546001600160a01b031681565b60026065541415610864576040805162461bcd60e51b815260206004820152601f60248201527f5265656e7472616e637947756172643a207265656e7472616e742063616c6c00604482015290519081900360640190fd5b60026065553360009081526097602052604090205461088281611513565b600061088d33611552565b9050600061089a336114af565b90506108a53361158c565b83156109d75760006108b785856115fe565b905060006108c58583611616565b3360009081526097602052604090208190556098549091506108e79083611616565b609881905560408051918252517fc4ca4e3d2fd1965e6d42d851e766d5b9a64dd0a8a670a1516843a0217757fa5d9181900360200190a1609e546040805163a9059cbb60e01b81523360048201526024810185905290516001600160a01b039092169163a9059cbb916044808201926020929091908290030181600087803b15801561097257600080fd5b505af1158015610986573d6000803e3d6000fd5b505050506040513d602081101561099c57600080fd5b505060408051828152905133917f39df0e5286a3ef2f42a0bf52f32cfe2c58e5b0405f47fe512f2c2439e4cfe204919081900360200190a250505b6040805182815260208101849052815133927ff744d34ca1cb25acfa4180df5f09a67306107110a9f4b6ed99bb3be259738215928290030190a2609f546040805163a9059cbb60e01b81523360048201526024810184905290516001600160a01b039092169163a9059cbb916044808201926020929091908290030181600087803b158015610a6557600080fd5b505af1158015610a79573d6000803e3d6000fd5b505050506040513d6020811015610a8f57600080fd5b50610a9b905082611673565b505060016065555050565b609d602052600090815260409020805460019091015482565b6105ea611739565b60006107f182611552565b609c5481565b610ae06111a9565b6001600160a01b0316610af1610c3a565b6001600160a01b031614610b3a576040805162461bcd60e51b81526020600482018190526024820152600080516020611ce5833981519152604482015290519081900360640190fd5b609b8054600091829055604080519283525190917f3c166cb25f40715a54c3d9ecdd3e27617e07cba29c3f98fdbb105f4445252d13919081900360200190a1610b8281611673565b50565b60a0546001600160a01b031681565b610b9c6111a9565b6001600160a01b0316610bad610c3a565b6001600160a01b031614610bf6576040805162461bcd60e51b81526020600482018190526024820152600080516020611ce5833981519152604482015290519081900360640190fd5b6033546040516000916001600160a01b031690600080516020611d05833981519152908390a3603380546001600160a01b0319169055565b60995481565b60985481565b6033546001600160a01b031690565b670de0b6b3a764000081565b6040518060400160405280601481526020017350726f746f636f6c546f6b656e5374616b696e6760601b81525081565b60026065541415610cdd576040805162461bcd60e51b815260206004820152601f60248201527f5265656e7472616e637947756172643a207265656e7472616e742063616c6c00604482015290519081900360640190fd5b6002606555610ceb81611782565b3360009081526097602052604081205490808215610d1a57610d0c33611552565b9150610d17336114af565b90505b610d233361158c565b6000610d2f84866117c1565b336000908152609760205260409020819055609854909150610d5190866117c1565b609881905560408051918252517fc4ca4e3d2fd1965e6d42d851e766d5b9a64dd0a8a670a1516843a0217757fa5d9181900360200190a1609e5460408051630553e6c560e51b81523360048201526024810188905290516001600160a01b039092169163aa7cd8a09160448082019260009290919082900301818387803b158015610ddb57600080fd5b505af1158015610def573d6000803e3d6000fd5b50506040805184815290513393507f39df0e5286a3ef2f42a0bf52f32cfe2c58e5b0405f47fe512f2c2439e4cfe20492509081900360200190a26040805183815260208101859052815133927ff744d34ca1cb25acfa4180df5f09a67306107110a9f4b6ed99bb3be259738215928290030190a28315610ef357609f546040805163a9059cbb60e01b81523360048201526024810185905290516001600160a01b039092169163a9059cbb916044808201926020929091908290030181600087803b158015610ebd57600080fd5b505af1158015610ed1573d6000803e3d6000fd5b505050506040513d6020811015610ee757600080fd5b50610ef3905083611673565b50506001606555505050565b60a2546001600160a01b031681565b610f1661181b565b60985415610f8d57609854600090610f4090610f3a84670de0b6b3a7640000611864565b906118bd565b609a54909150610f5090826117c1565b609a81905560408051918252517fd35d18f1d1506f94dd33c043c612cce724e9e52b5924bdf2b19d62ddfe26513b9181900360200190a150610b82565b609c54610f9a90826117c1565b609c81905560408051918252517f357f366c64266f8e9a39eb163073d5136a4abc71ac12f8ec7c84faf498e7f8b89181900360200190a150565b609b5481565b60a1546001600160a01b031681565b610ff1611739565b609854156110625760985460009061101590610f3a84670de0b6b3a7640000611864565b60995490915061102590826117c1565b609981905560408051918252517febf7d091f46f1a9713f83361f4b7bdfc07a53d3e0b8582025f6318db750e8b9f9181900360200190a150610b82565b609b5461106f90826117c1565b609b81905560408051918252517f3c166cb25f40715a54c3d9ecdd3e27617e07cba29c3f98fdbb105f4445252d139181900360200190a150565b6110b16111a9565b6001600160a01b03166110c2610c3a565b6001600160a01b03161461110b576040805162461bcd60e51b81526020600482018190526024820152600080516020611ce5833981519152604482015290519081900360640190fd5b6001600160a01b0381166111505760405162461bcd60e51b8152600401808060200182810382526026815260200180611beb6026913960400191505060405180910390fd5b6033546040516001600160a01b03808416921690600080516020611d0583398151915290600090a3603380546001600160a01b0319166001600160a01b0392909216919091179055565b609f546001600160a01b031681565b3390565b60006111b830611924565b15905090565b600054610100900460ff16806111d757506111d76111ad565b806111e5575060005460ff16155b6112205760405162461bcd60e51b815260040180806020018281038252602e815260200180611c96602e913960400191505060405180910390fd5b600054610100900460ff1615801561124b576000805460ff1961ff0019909116610100171660011790555b61125361192a565b61125b6119ca565b8015610b82576000805461ff001916905550565b600054610100900460ff168061128857506112886111ad565b80611296575060005460ff16155b6112d15760405162461bcd60e51b815260040180806020018281038252602e815260200180611c96602e913960400191505060405180910390fd5b600054610100900460ff161580156112fc576000805460ff1961ff0019909116610100171660011790555b61125b611ab1565b61130d85611b57565b61131684611b57565b61131f83611b57565b61132882611b57565b61133181611b57565b609e80546001600160a01b038088166001600160a01b03199283168117909355609f805488831690841617905560a0805487831690841617905560a1805486831690841617905560a280549185169190921617905560408051918252517f7b0c6ae24561d189fc90b337cbc97aa15d085bef32931237a762e3e528b285b49181900360200190a1604080516001600160a01b038616815290517f112220fa8dbe96141556e0dc3d74dd95075b323f4f297616048e02d82d7017159181900360200190a1604080516001600160a01b038516815290517f143219c9e69b09e07e095fcc889b43d8f46ca892bba65f08dc3a0050869a56789181900360200190a1604080516001600160a01b038416815290517f3ca631ffcd2a9b5d9ae18543fc82f58eb4ca33af9e6ab01b7a8e95331e6ed9859181900360200190a1604080516001600160a01b038316815290517f78f058b189175430c48dc02699e3a0031ea4ff781536dc2fab847de4babdd8829181900360200190a15050505050565b6001600160a01b0381166000908152609d6020526040812060010154609a54829061150b90670de0b6b3a764000090610f3a906114ec9086611616565b6001600160a01b03881660009081526097602052604090205490611864565b949350505050565b60008111610b825760405162461bcd60e51b8152600401808060200182810382526035815260200180611d546035913960400191505060405180910390fd5b6001600160a01b0381166000908152609d6020526040812054609954829061150b90670de0b6b3a764000090610f3a906114ec9086611616565b609980546001600160a01b0383166000818152609d6020908152604091829020938455609a54600190940184905593548151928352938201939093528083019190915290517f6b5cf27595af4428271524e0a5abd2b63f6fee1a61e31970490f5a10e257a1cd9181900360600190a150565b600081831061160d578161160f565b825b9392505050565b60008282111561166d576040805162461bcd60e51b815260206004820152601e60248201527f536166654d6174683a207375627472616374696f6e206f766572666c6f770000604482015290519081900360640190fd5b50900390565b604080513381526020810183905281517f3b2482b1bf6e751427503c9a8bf79e4dba3e6519259e2220428c2f326cc79c14929181900390910190a1604051600090339083908381818185875af1925050503d80600081146116f0576040519150601f19603f3d011682016040523d82523d6000602084013e6116f5565b606091505b50509050806117355760405162461bcd60e51b8152600401808060200182810382526038815260200180611bb36038913960400191505060405180910390fd5b5050565b60a0546001600160a01b031633146105ea5760405162461bcd60e51b815260040180806020018281038252602a815260200180611c6c602a913960400191505060405180910390fd5b60008111610b825760405162461bcd60e51b815260040180806020018281038252602d815260200180611c3f602d913960400191505060405180910390fd5b60008282018381101561160f576040805162461bcd60e51b815260206004820152601b60248201527f536166654d6174683a206164646974696f6e206f766572666c6f770000000000604482015290519081900360640190fd5b60a1546001600160a01b031633146105ea5760405162461bcd60e51b815260040180806020018281038252602f815260200180611d25602f913960400191505060405180910390fd5b600082611873575060006107f1565b8282028284828161188057fe5b041461160f5760405162461bcd60e51b8152600401808060200182810382526021815260200180611cc46021913960400191505060405180910390fd5b6000808211611913576040805162461bcd60e51b815260206004820152601a60248201527f536166654d6174683a206469766973696f6e206279207a65726f000000000000604482015290519081900360640190fd5b81838161191c57fe5b049392505050565b3b151590565b600054610100900460ff168061194357506119436111ad565b80611951575060005460ff16155b61198c5760405162461bcd60e51b815260040180806020018281038252602e815260200180611c96602e913960400191505060405180910390fd5b600054610100900460ff1615801561125b576000805460ff1961ff0019909116610100171660011790558015610b82576000805461ff001916905550565b600054610100900460ff16806119e357506119e36111ad565b806119f1575060005460ff16155b611a2c5760405162461bcd60e51b815260040180806020018281038252602e815260200180611c96602e913960400191505060405180910390fd5b600054610100900460ff16158015611a57576000805460ff1961ff0019909116610100171660011790555b6000611a616111a9565b603380546001600160a01b0319166001600160a01b03831690811790915560405191925090600090600080516020611d05833981519152908290a3508015610b82576000805461ff001916905550565b600054610100900460ff1680611aca5750611aca6111ad565b80611ad8575060005460ff16155b611b135760405162461bcd60e51b815260040180806020018281038252602e815260200180611c96602e913960400191505060405180910390fd5b600054610100900460ff16158015611b3e576000805460ff1961ff0019909116610100171660011790555b60016065558015610b82576000805461ff001916905550565b6001600160a01b038116610b82576040805162461bcd60e51b815260206004820152601e60248201527f4163636f756e742063616e6e6f74206265207a65726f20616464726573730000604482015290519081900360640190fdfe50726f746f636f6c546f6b656e5374616b696e673a204661696c656420746f2073656e6420616363756d756c617465642046494c4761696e4f776e61626c653a206e6577206f776e657220697320746865207a65726f206164647265737350726f746f636f6c546f6b656e5374616b696e673a2063616c6c6572206973206e6f7420416374697665506f6f6c50726f746f636f6c546f6b656e5374616b696e673a20416d6f756e74206d757374206265206e6f6e2d7a65726f50726f746f636f6c546f6b656e5374616b696e673a2063616c6c6572206973206e6f742054726f76654d496e697469616c697a61626c653a20636f6e747261637420697320616c726561647920696e697469616c697a6564536166654d6174683a206d756c7469706c69636174696f6e206f766572666c6f774f776e61626c653a2063616c6c6572206973206e6f7420746865206f776e65728be0079c531659141344cd1fd0a4f28419497f9722a3daafe3b4186f6b6457e050726f746f636f6c546f6b656e5374616b696e673a2063616c6c6572206973206e6f7420426f72726f7765724f707350726f746f636f6c546f6b656e5374616b696e673a2055736572206d75737420686176652061206e6f6e2d7a65726f207374616b65a2646970667358221220de6a94ee6be6fec355b9eda56cf810a024ebbc0b9760e8988c644e47baf4c97164736f6c63430007060033",
  "linkReferences": {},
  "deployedLinkReferences": {}
}