{
  "_format": "hh-sol-artifact-1",
  "contractName": "ProtocolTokenTester",
  "sourceName": "contracts/TestContracts/ProtocolTokenTester.sol",
  "abi": [
    {
      "inputs": [
        {
          "internalType": "address",
          "name": "_communityIssuanceAddress",
          "type": "address"
        },
        {
          "internalType": "address",
          "name": "_protocolTokenStakingAddress",
          "type": "address"
        },
        {
          "internalType": "address",
          "name": "_lockupFactoryAddress",
          "type": "address"
        },
        {
          "internalType": "address",
          "name": "_bountyAddress",
          "type": "address"
        },
        {
          "internalType": "address",
          "name": "_lpRewardsAddress",
          "type": "address"
        },
        {
          "internalType": "address",
          "name": "_multisigAddress",
          "type": "address"
        }
      ],
      "stateMutability": "nonpayable",
      "type": "constructor"
    },
    {
      "anonymous": false,
      "inputs": [
        {
          "indexed": true,
          "internalType": "address",
          "name": "owner",
          "type": "address"
        },
        {
          "indexed": true,
          "internalType": "address",
          "name": "spender",
          "type": "address"
        },
        {
          "indexed": false,
          "internalType": "uint256",
          "name": "value",
          "type": "uint256"
        }
      ],
      "name": "Approval",
      "type": "event"
    },
    {
      "anonymous": false,
      "inputs": [
        {
          "indexed": true,
          "internalType": "address",
          "name": "from",
          "type": "address"
        },
        {
          "indexed": true,
          "internalType": "address",
          "name": "to",
          "type": "address"
        },
        {
          "indexed": false,
          "internalType": "uint256",
          "name": "value",
          "type": "uint256"
        }
      ],
      "name": "Transfer",
      "type": "event"
    },
    {
      "inputs": [],
      "name": "ONE_YEAR_IN_SECONDS",
      "outputs": [
        {
          "internalType": "uint256",
          "name": "",
          "type": "uint256"
        }
      ],
      "stateMutability": "view",
      "type": "function"
    },
    {
      "inputs": [
        {
          "internalType": "address",
          "name": "owner",
          "type": "address"
        },
        {
          "internalType": "address",
          "name": "spender",
          "type": "address"
        }
      ],
      "name": "allowance",
      "outputs": [
        {
          "internalType": "uint256",
          "name": "",
          "type": "uint256"
        }
      ],
      "stateMutability": "view",
      "type": "function"
    },
    {
      "inputs": [
        {
          "internalType": "address",
          "name": "spender",
          "type": "address"
        },
        {
          "internalType": "uint256",
          "name": "amount",
          "type": "uint256"
        }
      ],
      "name": "approve",
      "outputs": [
        {
          "internalType": "bool",
          "name": "",
          "type": "bool"
        }
      ],
      "stateMutability": "nonpayable",
      "type": "function"
    },
    {
      "inputs": [
        {
          "internalType": "address",
          "name": "account",
          "type": "address"
        }
      ],
      "name": "balanceOf",
      "outputs": [
        {
          "internalType": "uint256",
          "name": "",
          "type": "uint256"
        }
      ],
      "stateMutability": "view",
      "type": "function"
    },
    {
      "inputs": [
        {
          "internalType": "address",
          "name": "owner",
          "type": "address"
        },
        {
          "internalType": "address",
          "name": "spender",
          "type": "address"
        },
        {
          "internalType": "uint256",
          "name": "amount",
          "type": "uint256"
        }
      ],
      "name": "callInternalApprove",
      "outputs": [
        {
          "internalType": "bool",
          "name": "",
          "type": "bool"
        }
      ],
      "stateMutability": "nonpayable",
      "type": "function"
    },
    {
      "inputs": [
        {
          "internalType": "address",
          "name": "sender",
          "type": "address"
        },
        {
          "internalType": "address",
          "name": "recipient",
          "type": "address"
        },
        {
          "internalType": "uint256",
          "name": "amount",
          "type": "uint256"
        }
      ],
      "name": "callInternalTransfer",
      "outputs": [
        {
          "internalType": "bool",
          "name": "",
          "type": "bool"
        }
      ],
      "stateMutability": "nonpayable",
      "type": "function"
    },
    {
      "inputs": [],
      "name": "communityIssuanceAddress",
      "outputs": [
        {
          "internalType": "address",
          "name": "",
          "type": "address"
        }
      ],
      "stateMutability": "view",
      "type": "function"
    },
    {
      "inputs": [],
      "name": "decimals",
      "outputs": [
        {
          "internalType": "uint8",
          "name": "",
          "type": "uint8"
        }
      ],
      "stateMutability": "pure",
      "type": "function"
    },
    {
      "inputs": [
        {
          "internalType": "address",
          "name": "spender",
          "type": "address"
        },
        {
          "internalType": "uint256",
          "name": "subtractedValue",
          "type": "uint256"
        }
      ],
      "name": "decreaseAllowance",
      "outputs": [
        {
          "internalType": "bool",
          "name": "",
          "type": "bool"
        }
      ],
      "stateMutability": "nonpayable",
      "type": "function"
    },
    {
      "inputs": [],
      "name": "domainSeparator",
      "outputs": [
        {
          "internalType": "bytes32",
          "name": "",
          "type": "bytes32"
        }
      ],
      "stateMutability": "view",
      "type": "function"
    },
    {
      "inputs": [],
      "name": "getChainId",
      "outputs": [
        {
          "internalType": "uint256",
          "name": "chainID",
          "type": "uint256"
        }
      ],
      "stateMutability": "pure",
      "type": "function"
    },
    {
      "inputs": [],
      "name": "getDeploymentStartTime",
      "outputs": [
        {
          "internalType": "uint256",
          "name": "",
          "type": "uint256"
        }
      ],
      "stateMutability": "view",
      "type": "function"
    },
    {
      "inputs": [],
      "name": "getLpRewardsEntitlement",
      "outputs": [
        {
          "internalType": "uint256",
          "name": "",
          "type": "uint256"
        }
      ],
      "stateMutability": "view",
      "type": "function"
    },
    {
      "inputs": [
        {
          "internalType": "address",
          "name": "spender",
          "type": "address"
        },
        {
          "internalType": "uint256",
          "name": "addedValue",
          "type": "uint256"
        }
      ],
      "name": "increaseAllowance",
      "outputs": [
        {
          "internalType": "bool",
          "name": "",
          "type": "bool"
        }
      ],
      "stateMutability": "nonpayable",
      "type": "function"
    },
    {
      "inputs": [],
      "name": "lockupContractFactory",
      "outputs": [
        {
          "internalType": "contract ILockupContractFactory",
          "name": "",
          "type": "address"
        }
      ],
      "stateMutability": "view",
      "type": "function"
    },
    {
      "inputs": [],
      "name": "multisigAddress",
      "outputs": [
        {
          "internalType": "address",
          "name": "",
          "type": "address"
        }
      ],
      "stateMutability": "view",
      "type": "function"
    },
    {
      "inputs": [],
      "name": "name",
      "outputs": [
        {
          "internalType": "string",
          "name": "",
          "type": "string"
        }
      ],
      "stateMutability": "pure",
      "type": "function"
    },
    {
      "inputs": [
        {
          "internalType": "address",
          "name": "owner",
          "type": "address"
        }
      ],
      "name": "nonces",
      "outputs": [
        {
          "internalType": "uint256",
          "name": "",
          "type": "uint256"
        }
      ],
      "stateMutability": "view",
      "type": "function"
    },
    {
      "inputs": [
        {
          "internalType": "address",
          "name": "owner",
          "type": "address"
        },
        {
          "internalType": "address",
          "name": "spender",
          "type": "address"
        },
        {
          "internalType": "uint256",
          "name": "amount",
          "type": "uint256"
        },
        {
          "internalType": "uint256",
          "name": "deadline",
          "type": "uint256"
        },
        {
          "internalType": "uint8",
          "name": "v",
          "type": "uint8"
        },
        {
          "internalType": "bytes32",
          "name": "r",
          "type": "bytes32"
        },
        {
          "internalType": "bytes32",
          "name": "s",
          "type": "bytes32"
        }
      ],
      "name": "permit",
      "outputs": [],
      "stateMutability": "nonpayable",
      "type": "function"
    },
    {
      "inputs": [],
      "name": "permitTypeHash",
      "outputs": [
        {
          "internalType": "bytes32",
          "name": "",
          "type": "bytes32"
        }
      ],
      "stateMutability": "pure",
      "type": "function"
    },
    {
      "inputs": [],
      "name": "protocolTokenStakingAddress",
      "outputs": [
        {
          "internalType": "address",
          "name": "",
          "type": "address"
        }
      ],
      "stateMutability": "view",
      "type": "function"
    },
    {
      "inputs": [
        {
          "internalType": "address",
          "name": "_sender",
          "type": "address"
        },
        {
          "internalType": "uint256",
          "name": "_amount",
          "type": "uint256"
        }
      ],
      "name": "sendToProtocolTokenStaking",
      "outputs": [],
      "stateMutability": "nonpayable",
      "type": "function"
    },
    {
      "inputs": [],
      "name": "symbol",
      "outputs": [
        {
          "internalType": "string",
          "name": "",
          "type": "string"
        }
      ],
      "stateMutability": "pure",
      "type": "function"
    },
    {
      "inputs": [],
      "name": "totalSupply",
      "outputs": [
        {
          "internalType": "uint256",
          "name": "",
          "type": "uint256"
        }
      ],
      "stateMutability": "view",
      "type": "function"
    },
    {
      "inputs": [
        {
          "internalType": "address",
          "name": "recipient",
          "type": "address"
        },
        {
          "internalType": "uint256",
          "name": "amount",
          "type": "uint256"
        }
      ],
      "name": "transfer",
      "outputs": [
        {
          "internalType": "bool",
          "name": "",
          "type": "bool"
        }
      ],
      "stateMutability": "nonpayable",
      "type": "function"
    },
    {
      "inputs": [
        {
          "internalType": "address",
          "name": "sender",
          "type": "address"
        },
        {
          "internalType": "address",
          "name": "recipient",
          "type": "address"
        },
        {
          "internalType": "uint256",
          "name": "amount",
          "type": "uint256"
        }
      ],
      "name": "transferFrom",
      "outputs": [
        {
          "internalType": "bool",
          "name": "",
          "type": "bool"
        }
      ],
      "stateMutability": "nonpayable",
      "type": "function"
    },
    {
      "inputs": [
        {
          "internalType": "address",
          "name": "account",
          "type": "address"
        },
        {
          "internalType": "uint256",
          "name": "amount",
          "type": "uint256"
        }
      ],
      "name": "unprotectedMint",
      "outputs": [],
      "stateMutability": "nonpayable",
      "type": "function"
    },
    {
      "inputs": [
        {
          "internalType": "address",
          "name": "_sender",
          "type": "address"
        },
        {
          "internalType": "uint256",
          "name": "_amount",
          "type": "uint256"
        }
      ],
      "name": "unprotectedSendToProtocolTokenStaking",
      "outputs": [],
      "stateMutability": "nonpayable",
      "type": "function"
    },
    {
      "inputs": [],
      "name": "version",
      "outputs": [
        {
          "internalType": "string",
          "name": "",
          "type": "string"
        }
      ],
      "stateMutability": "pure",
      "type": "function"
    }
  ],
  "bytecode": "0x6101c060405269d3c21bcecceda10000006004553480156200002057600080fd5b506040516200202638038062002026833981810160405260c08110156200004657600080fd5b508051602082015160408301516060840151608085015160a09095015193949293919290918585858585856200007c8662000297565b620000878562000297565b620000928462000297565b6001600160601b0319606082811b821661012052426101005287811b82166101405286811b82166101605285901b166101a052604080518082018252600f81526e536563757265642046696e616e636560881b602091820152815180830190925260018252603160f81b9101527f6f8eb4b4689a82d905598a38ac07fa2fcb9c04c0544555c89646506313c3e18460c08190527fc89efdaa54c0f20c7adf612882df0950f5a951637e0307cdcb4c672f298b8bc660e0819052620001556200034c565b60a052620001857f8b73c3c69bb8fe3d512ecc4cf759cc79239f7b179b0ffacaa9a75d522b39400f838362000350565b608081815250506000620001ab6002600454620003b460201b62000c2e1790919060201c565b9050620001b986826200041b565b600454600090620001d590602062000c2e620003b4821b17811c565b9050620001e38a826200041b565b60006200021b60036200020760048054620003b460201b62000c2e1790919060201c565b6200051c60201b62000c8e1790919060201c565b61018081905290506200022f87826200041b565b600062000271826200025d856200025d886200025d6064600454620003b460201b62000c2e1790919060201c565b6200056660201b62000cd01790919060201c565b90506200027f87826200041b565b5050505050505050505050505050505050506200070f565b6001600160a01b038116620002f3576040805162461bcd60e51b815260206004820152601e60248201527f4163636f756e742063616e6e6f74206265207a65726f20616464726573730000604482015290519081900360640190fd5b803b8062000348576040805162461bcd60e51b815260206004820181905260248201527f4163636f756e7420636f64652073697a652063616e6e6f74206265207a65726f604482015290519081900360640190fd5b5050565b4690565b60008383836200035f6200034c565b3060405160200180868152602001858152602001848152602001838152602001826001600160a01b03168152602001955050505050506040516020818303038152906040528051906020012090509392505050565b600082620003c55750600062000415565b82820282848281620003d357fe5b0414620004125760405162461bcd60e51b8152600401808060200182810382526021815260200180620020056021913960400191505060405180910390fd5b90505b92915050565b6001600160a01b03821662000477576040805162461bcd60e51b815260206004820152601f60248201527f45524332303a206d696e7420746f20746865207a65726f206164647265737300604482015290519081900360640190fd5b6200049381600254620005b060201b62000d121790919060201c565b6002556001600160a01b03821660009081526020818152604090912054620004c691839062000d12620005b0821b17901c565b6001600160a01b0383166000818152602081815260408083209490945583518581529351929391927fddf252ad1be2c89b69c2b068fc378daa952ba7f163c4a11628f55a4df523b3ef9281900390910190a35050565b60006200041283836040518060400160405280601a81526020017f536166654d6174683a206469766973696f6e206279207a65726f0000000000008152506200060b60201b60201c565b60006200041283836040518060400160405280601e81526020017f536166654d6174683a207375627472616374696f6e206f766572666c6f770000815250620006b260201b60201c565b60008282018381101562000412576040805162461bcd60e51b815260206004820152601b60248201527f536166654d6174683a206164646974696f6e206f766572666c6f770000000000604482015290519081900360640190fd5b600081836200069b5760405162461bcd60e51b81526004018080602001828103825283818151815260200191508051906020019080838360005b838110156200065f57818101518382015260200162000645565b50505050905090810190601f1680156200068d5780820380516001836020036101000a031916815260200191505b509250505060405180910390fd5b506000838581620006a857fe5b0495945050505050565b60008184841115620007075760405162461bcd60e51b81526020600482018181528351602484015283519092839260449091019190850190808383600083156200065f57818101518382015260200162000645565b505050900390565b60805160a05160c05160e051610100516101205160601c6101405160601c6101605160601c610180516101a05160601c611850620007b5600039806107c0528061135052508061080152508061076652806108e65280610fe4528061142d525080610b0f5280610fa75250806107275280610ed7528061132a5250806106f55280610e65525080610c03525080610be2525080610b68525080610b9852506118506000f3fe608060405234801561001057600080fd5b506004361061018f5760003560e01c806357aae46b116100e4578063a9059cbb11610092578063a9059cbb14610461578063aa7cd8a01461048d578063d505accf146104b9578063d874ea741461050a578063dd62ed3e14610512578063e139efa414610540578063e7c8fed41461056c578063f698da25146105745761018f565b806357aae46b146103c957806370a08231146103d15780637ecebe00146103f7578063811c5b4d1461041d57806395d89b4114610425578063974f55901461042d578063a457c2d7146104355761018f565b80633408e470116101415780633408e470146102fd578063387a54d914610305578063395093511461033b5780633c84b7c2146103675780635099f99f1461036f5780635462870d1461039d57806354fd4d50146103c15761018f565b806303d999461461019457806306fdde03146101de578063095ea7b31461025b57806310ce43bd1461028757806318160ddd146102a157806323b872dd146102a9578063313ce567146102df575b600080fd5b6101ca600480360360608110156101aa57600080fd5b506001600160a01b0381358116916020810135909116906040013561057c565b604080519115158252519081900360200190f35b6101e6610593565b6040805160208082528351818301528351919283929083019185019080838360005b83811015610220578181015183820152602001610208565b50505050905090810190601f16801561024d5780820380516001836020036101000a031916815260200191505b509250505060405180910390f35b6101ca6004803603604081101561027157600080fd5b506001600160a01b0381351690602001356105bd565b61028f6105e9565b60408051918252519081900360200190f35b61028f61060d565b6101ca600480360360608110156102bf57600080fd5b506001600160a01b03813581169160208101359091169060400135610613565b6102e7610691565b6040805160ff9092168252519081900360200190f35b61028f610696565b6101ca6004803603606081101561031b57600080fd5b506001600160a01b0381358116916020810135909116906040013561069a565b6101ca6004803603604081101561035157600080fd5b506001600160a01b0381351690602001356106a7565b61028f6106f3565b61039b6004803603604081101561038557600080fd5b506001600160a01b038135169060200135610717565b005b6103a5610725565b604080516001600160a01b039092168252519081900360200190f35b6101e6610749565b6103a5610764565b61028f600480360360208110156103e757600080fd5b50356001600160a01b0316610788565b61028f6004803603602081101561040d57600080fd5b50356001600160a01b03166107a3565b6103a56107be565b6101e66107e2565b61028f6107ff565b6101ca6004803603604081101561044b57600080fd5b506001600160a01b038135169060200135610823565b6101ca6004803603604081101561047757600080fd5b506001600160a01b038135169060200135610887565b61039b600480360360408110156104a357600080fd5b506001600160a01b0381351690602001356108c2565b61039b600480360360e08110156104cf57600080fd5b506001600160a01b03813581169160208101359091169060408101359060608101359060ff6080820135169060a08101359060c0013561090b565b6103a5610b0d565b61028f6004803603604081101561052857600080fd5b506001600160a01b0381358116916020013516610b31565b61039b6004803603604081101561055657600080fd5b506001600160a01b0381351690602001356108ca565b61028f610b5c565b61028f610b64565b6000610589848484610d6c565b5060019392505050565b60408051808201909152600f81526e536563757265642046696e616e636560881b60208201525b90565b60006105c7610e58565b156105d4576105d4610e8f565b6105df338484610d6c565b5060015b92915050565b7f6e71edae12b1b97f4d1f60370fef10105fa2faae0126114a169c64845d6126c990565b60025490565b600061061d610e58565b1561062b5761062b84610ed5565b61063483610f49565b61063f848484611054565b610589843361068c856040518060600160405280602881526020016116fb602891396001600160a01b038a16600090815260016020908152604080832033845290915290205491906111a4565b610d6c565b601290565b4690565b6000610589848484611054565b60006106b1610e58565b156106be576106be610e8f565b3360008181526001602090815260408083206001600160a01b03881684529091529020546105df9190859061068c9086610d12565b7f000000000000000000000000000000000000000000000000000000000000000090565b610721828261123b565b5050565b7f000000000000000000000000000000000000000000000000000000000000000081565b6040805180820190915260018152603160f81b602082015290565b7f000000000000000000000000000000000000000000000000000000000000000081565b6001600160a01b031660009081526020819052604090205490565b6001600160a01b031660009081526003602052604090205490565b7f000000000000000000000000000000000000000000000000000000000000000081565b60408051808201909152600381526229a1a960e91b602082015290565b7f000000000000000000000000000000000000000000000000000000000000000090565b600061082d610e58565b1561083a5761083a610e8f565b6105df338461068c856040518060600160405280602581526020016117f6602591393360009081526001602090815260408083206001600160a01b038d16845290915290205491906111a4565b600061089161131f565b80156108a057506108a0610e58565b156108ae576108ae8361134e565b6108b783610f49565b6105df338484611054565b6108ca611422565b6108d2610e58565b156108e0576108e082610ed5565b610721827f000000000000000000000000000000000000000000000000000000000000000083611054565b42841015610960576040805162461bcd60e51b815260206004820152601f60248201527f50726f746f636f6c546f6b656e3a206578706972656420646561646c696e6500604482015290519081900360640190fd5b600061096a610b64565b6001600160a01b03808a1660008181526003602090815260408083208054600180820190925582517f6e71edae12b1b97f4d1f60370fef10105fa2faae0126114a169c64845d6126c98186015280840196909652958e166060860152608085018d905260a085019590955260c08085018c90528151808603909101815260e08501825280519083012061190160f01b6101008601526101028501969096526101228085019690965280518085039096018652610142840180825286519683019690962095839052610162840180825286905260ff8a166101828501526101a284018990526101c284018890525194955090936101e280840193601f198301929081900390910190855afa158015610a85573d6000803e3d6000fd5b505050602060405103519050886001600160a01b0316816001600160a01b031614610af7576040805162461bcd60e51b815260206004820181905260248201527f50726f746f636f6c546f6b656e3a20696e76616c6964207369676e6174757265604482015290519081900360640190fd5b610b02898989610d6c565b505050505050505050565b7f000000000000000000000000000000000000000000000000000000000000000081565b6001600160a01b03918216600090815260016020908152604080832093909416825291909152205490565b6301e1338081565b60007f0000000000000000000000000000000000000000000000000000000000000000610b8f610696565b1415610bbc57507f00000000000000000000000000000000000000000000000000000000000000006105ba565b610c277f8b73c3c69bb8fe3d512ecc4cf759cc79239f7b179b0ffacaa9a75d522b39400f7f00000000000000000000000000000000000000000000000000000000000000007f0000000000000000000000000000000000000000000000000000000000000000611489565b90506105ba565b600082610c3d575060006105e3565b82820282848281610c4a57fe5b0414610c875760405162461bcd60e51b81526004018080602001828103825260218152602001806116da6021913960400191505060405180910390fd5b9392505050565b6000610c8783836040518060400160405280601a81526020017f536166654d6174683a206469766973696f6e206279207a65726f0000000000008152506114eb565b6000610c8783836040518060400160405280601e81526020017f536166654d6174683a207375627472616374696f6e206f766572666c6f7700008152506111a4565b600082820183811015610c87576040805162461bcd60e51b815260206004820152601b60248201527f536166654d6174683a206164646974696f6e206f766572666c6f770000000000604482015290519081900360640190fd5b6001600160a01b038316610db15760405162461bcd60e51b81526004018080602001828103825260248152602001806117d26024913960400191505060405180910390fd5b6001600160a01b038216610df65760405162461bcd60e51b81526004018080602001828103825260228152602001806115b36022913960400191505060405180910390fd5b6001600160a01b03808416600081815260016020908152604080832094871680845294825291829020859055815185815291517f8c5be1e5ebec7d5bd14f71427d1e84f3dd0314c0f7b2291e5b200ac8c7c3b9259281900390910190a3505050565b60006301e13380610e89427f0000000000000000000000000000000000000000000000000000000000000000610cd0565b10905090565b610e9761131f565b15610ed35760405162461bcd60e51b815260040180806020018281038252602e815260200180611661602e913960400191505060405180910390fd5b565b7f00000000000000000000000000000000000000000000000000000000000000006001600160a01b0316816001600160a01b03161415610f465760405162461bcd60e51b815260040180806020018281038252602e81526020018061177f602e913960400191505060405180910390fd5b50565b6001600160a01b03811615801590610f6a57506001600160a01b0381163014155b610fa55760405162461bcd60e51b81526004018080602001828103825260668152602001806115d56066913960800191505060405180910390fd5b7f00000000000000000000000000000000000000000000000000000000000000006001600160a01b0316816001600160a01b03161415801561101957507f00000000000000000000000000000000000000000000000000000000000000006001600160a01b0316816001600160a01b031614155b610f465760405162461bcd60e51b815260040180806020018281038252605c815260200180611723605c913960600191505060405180910390fd5b6001600160a01b0383166110995760405162461bcd60e51b81526004018080602001828103825260258152602001806117ad6025913960400191505060405180910390fd5b6001600160a01b0382166110de5760405162461bcd60e51b81526004018080602001828103825260238152602001806115516023913960400191505060405180910390fd5b61111b8160405180606001604052806026815260200161163b602691396001600160a01b03861660009081526020819052604090205491906111a4565b6001600160a01b03808516600090815260208190526040808220939093559084168152205461114a9082610d12565b6001600160a01b038084166000818152602081815260409182902094909455805185815290519193928716927fddf252ad1be2c89b69c2b068fc378daa952ba7f163c4a11628f55a4df523b3ef92918290030190a3505050565b600081848411156112335760405162461bcd60e51b81526004018080602001828103825283818151815260200191508051906020019080838360005b838110156111f85781810151838201526020016111e0565b50505050905090810190601f1680156112255780820380516001836020036101000a031916815260200191505b509250505060405180910390fd5b505050900390565b6001600160a01b038216611296576040805162461bcd60e51b815260206004820152601f60248201527f45524332303a206d696e7420746f20746865207a65726f206164647265737300604482015290519081900360640190fd5b6002546112a39082610d12565b6002556001600160a01b0382166000908152602081905260409020546112c99082610d12565b6001600160a01b0383166000818152602081815260408083209490945583518581529351929391927fddf252ad1be2c89b69c2b068fc378daa952ba7f163c4a11628f55a4df523b3ef9281900390910190a35050565b336001600160a01b037f0000000000000000000000000000000000000000000000000000000000000000161490565b7f00000000000000000000000000000000000000000000000000000000000000006001600160a01b031663bb7603f1826040518263ffffffff1660e01b815260040180826001600160a01b0316815260200191505060206040518083038186803b1580156113bb57600080fd5b505afa1580156113cf573d6000803e3d6000fd5b505050506040513d60208110156113e557600080fd5b5051610f465760405162461bcd60e51b815260040180806020018281038252604b81526020018061168f604b913960600191505060405180910390fd5b336001600160a01b037f00000000000000000000000000000000000000000000000000000000000000001614610ed35760405162461bcd60e51b815260040180806020018281038252603f815260200180611574603f913960400191505060405180910390fd5b6000838383611496610696565b3060405160200180868152602001858152602001848152602001838152602001826001600160a01b03168152602001955050505050506040516020818303038152906040528051906020012090509392505050565b6000818361153a5760405162461bcd60e51b81526020600482018181528351602484015283519092839260449091019190850190808383600083156111f85781810151838201526020016111e0565b50600083858161154657fe5b049594505050505056fe45524332303a207472616e7366657220746f20746865207a65726f206164647265737350726f746f636f6c546f6b656e3a2063616c6c6572206d757374206265207468652050726f746f636f6c546f6b656e5374616b696e6720636f6e747261637445524332303a20617070726f766520746f20746865207a65726f206164647265737350726f746f636f6c546f6b656e3a2043616e6e6f74207472616e7366657220746f6b656e73206469726563746c7920746f207468652050726f746f636f6c546f6b656e20746f6b656e20636f6e7472616374206f7220746865207a65726f206164647265737345524332303a207472616e7366657220616d6f756e7420657863656564732062616c616e636550726f746f636f6c546f6b656e3a2063616c6c6572206d757374206e6f7420626520746865206d756c746973696750726f746f636f6c546f6b656e3a20726563697069656e74206d7573742062652061204c6f636b7570436f6e7472616374207265676973746572656420696e2074686520466163746f7279536166654d6174683a206d756c7469706c69636174696f6e206f766572666c6f7745524332303a207472616e7366657220616d6f756e74206578636565647320616c6c6f77616e636550726f746f636f6c546f6b656e3a2043616e6e6f74207472616e7366657220746f6b656e73206469726563746c7920746f2074686520636f6d6d756e6974792069737375616e6365206f72207374616b696e6720636f6e747261637450726f746f636f6c546f6b656e3a2073656e646572206d757374206e6f7420626520746865206d756c746973696745524332303a207472616e736665722066726f6d20746865207a65726f206164647265737345524332303a20617070726f76652066726f6d20746865207a65726f206164647265737345524332303a2064656372656173656420616c6c6f77616e63652062656c6f77207a65726fa264697066735822122086555066be79678be68a0aeabfdcebdb0e7d127b57b89b692a2ba95cf31ae30264736f6c63430007060033536166654d6174683a206d756c7469706c69636174696f6e206f766572666c6f77",
  "linkReferences": {},
  "deployedLinkReferences": {}
}