{
  "_format": "hh-sol-artifact-1",
  "contractName": "ProtocolTokenTester",
  "sourceName": "contracts/TestContracts/ProtocolTokenTester.sol",
  "abi": [
    {
      "anonymous": false,
      "inputs": [
        {
          "indexed": false,
          "internalType": "uint256",
          "name": "_annualAllocationRate",
          "type": "uint256"
        }
      ],
      "name": "AnnualAllocationRateUpdated",
      "type": "event"
    },
    {
      "anonymous": false,
      "inputs": [
        {
          "indexed": false,
          "internalType": "address",
          "name": "_annualAllocationRecipient",
          "type": "address"
        }
      ],
      "name": "AnnualAllocationRecipientUpdated",
      "type": "event"
    },
    {
      "anonymous": false,
      "inputs": [
        {
          "indexed": true,
          "internalType": "address",
          "name": "owner",
          "type": "address"
        },
        {
          "indexed": true,
          "internalType": "address",
          "name": "spender",
          "type": "address"
        },
        {
          "indexed": false,
          "internalType": "uint256",
          "name": "value",
          "type": "uint256"
        }
      ],
      "name": "Approval",
      "type": "event"
    },
    {
      "anonymous": false,
      "inputs": [
        {
          "indexed": true,
          "internalType": "address",
          "name": "previousOwner",
          "type": "address"
        },
        {
          "indexed": true,
          "internalType": "address",
          "name": "newOwner",
          "type": "address"
        }
      ],
      "name": "OwnershipTransferred",
      "type": "event"
    },
    {
      "anonymous": false,
      "inputs": [
        {
          "indexed": true,
          "internalType": "address",
          "name": "from",
          "type": "address"
        },
        {
          "indexed": true,
          "internalType": "address",
          "name": "to",
          "type": "address"
        },
        {
          "indexed": false,
          "internalType": "uint256",
          "name": "value",
          "type": "uint256"
        }
      ],
      "name": "Transfer",
      "type": "event"
    },
    {
      "inputs": [],
      "name": "_100pct",
      "outputs": [
        {
          "internalType": "uint256",
          "name": "",
          "type": "uint256"
        }
      ],
      "stateMutability": "view",
      "type": "function"
    },
    {
      "inputs": [
        {
          "internalType": "uint256",
          "name": "",
          "type": "uint256"
        }
      ],
      "name": "allocationTriggered",
      "outputs": [
        {
          "internalType": "bool",
          "name": "",
          "type": "bool"
        }
      ],
      "stateMutability": "view",
      "type": "function"
    },
    {
      "inputs": [
        {
          "internalType": "address",
          "name": "owner",
          "type": "address"
        },
        {
          "internalType": "address",
          "name": "spender",
          "type": "address"
        }
      ],
      "name": "allowance",
      "outputs": [
        {
          "internalType": "uint256",
          "name": "",
          "type": "uint256"
        }
      ],
      "stateMutability": "view",
      "type": "function"
    },
    {
      "inputs": [],
      "name": "annualAllocationRate",
      "outputs": [
        {
          "internalType": "uint256",
          "name": "",
          "type": "uint256"
        }
      ],
      "stateMutability": "view",
      "type": "function"
    },
    {
      "inputs": [],
      "name": "annualAllocationRecipient",
      "outputs": [
        {
          "internalType": "address",
          "name": "",
          "type": "address"
        }
      ],
      "stateMutability": "view",
      "type": "function"
    },
    {
      "inputs": [
        {
          "internalType": "address",
          "name": "spender",
          "type": "address"
        },
        {
          "internalType": "uint256",
          "name": "amount",
          "type": "uint256"
        }
      ],
      "name": "approve",
      "outputs": [
        {
          "internalType": "bool",
          "name": "",
          "type": "bool"
        }
      ],
      "stateMutability": "nonpayable",
      "type": "function"
    },
    {
      "inputs": [
        {
          "internalType": "address",
          "name": "account",
          "type": "address"
        }
      ],
      "name": "balanceOf",
      "outputs": [
        {
          "internalType": "uint256",
          "name": "",
          "type": "uint256"
        }
      ],
      "stateMutability": "view",
      "type": "function"
    },
    {
      "inputs": [
        {
          "internalType": "address",
          "name": "owner",
          "type": "address"
        },
        {
          "internalType": "address",
          "name": "spender",
          "type": "address"
        },
        {
          "internalType": "uint256",
          "name": "amount",
          "type": "uint256"
        }
      ],
      "name": "callInternalApprove",
      "outputs": [
        {
          "internalType": "bool",
          "name": "",
          "type": "bool"
        }
      ],
      "stateMutability": "nonpayable",
      "type": "function"
    },
    {
      "inputs": [
        {
          "internalType": "address",
          "name": "sender",
          "type": "address"
        },
        {
          "internalType": "address",
          "name": "recipient",
          "type": "address"
        },
        {
          "internalType": "uint256",
          "name": "amount",
          "type": "uint256"
        }
      ],
      "name": "callInternalTransfer",
      "outputs": [
        {
          "internalType": "bool",
          "name": "",
          "type": "bool"
        }
      ],
      "stateMutability": "nonpayable",
      "type": "function"
    },
    {
      "inputs": [],
      "name": "decimals",
      "outputs": [
        {
          "internalType": "uint8",
          "name": "",
          "type": "uint8"
        }
      ],
      "stateMutability": "pure",
      "type": "function"
    },
    {
      "inputs": [],
      "name": "domainSeparator",
      "outputs": [
        {
          "internalType": "bytes32",
          "name": "",
          "type": "bytes32"
        }
      ],
      "stateMutability": "view",
      "type": "function"
    },
    {
      "inputs": [],
      "name": "getAllocationStartTime",
      "outputs": [
        {
          "internalType": "uint256",
          "name": "",
          "type": "uint256"
        }
      ],
      "stateMutability": "view",
      "type": "function"
    },
    {
      "inputs": [],
      "name": "getChainId",
      "outputs": [
        {
          "internalType": "uint256",
          "name": "chainID",
          "type": "uint256"
        }
      ],
      "stateMutability": "pure",
      "type": "function"
    },
    {
      "inputs": [
        {
          "internalType": "address",
          "name": "_protocolTokenStakingAddress",
          "type": "address"
        },
        {
          "internalType": "address",
          "name": "_annualAllocationRecipient",
          "type": "address"
        },
        {
          "internalType": "uint256",
          "name": "_annualAllocationRate",
          "type": "uint256"
        }
      ],
      "name": "initialize",
      "outputs": [],
      "stateMutability": "nonpayable",
      "type": "function"
    },
    {
      "inputs": [],
      "name": "name",
      "outputs": [
        {
          "internalType": "string",
          "name": "",
          "type": "string"
        }
      ],
      "stateMutability": "pure",
      "type": "function"
    },
    {
      "inputs": [
        {
          "internalType": "address",
          "name": "owner",
          "type": "address"
        }
      ],
      "name": "nonces",
      "outputs": [
        {
          "internalType": "uint256",
          "name": "",
          "type": "uint256"
        }
      ],
      "stateMutability": "view",
      "type": "function"
    },
    {
      "inputs": [],
      "name": "owner",
      "outputs": [
        {
          "internalType": "address",
          "name": "",
          "type": "address"
        }
      ],
      "stateMutability": "view",
      "type": "function"
    },
    {
      "inputs": [
        {
          "internalType": "address",
          "name": "owner",
          "type": "address"
        },
        {
          "internalType": "address",
          "name": "spender",
          "type": "address"
        },
        {
          "internalType": "uint256",
          "name": "amount",
          "type": "uint256"
        },
        {
          "internalType": "uint256",
          "name": "deadline",
          "type": "uint256"
        },
        {
          "internalType": "uint8",
          "name": "v",
          "type": "uint8"
        },
        {
          "internalType": "bytes32",
          "name": "r",
          "type": "bytes32"
        },
        {
          "internalType": "bytes32",
          "name": "s",
          "type": "bytes32"
        }
      ],
      "name": "permit",
      "outputs": [],
      "stateMutability": "nonpayable",
      "type": "function"
    },
    {
      "inputs": [],
      "name": "permitTypeHash",
      "outputs": [
        {
          "internalType": "bytes32",
          "name": "",
          "type": "bytes32"
        }
      ],
      "stateMutability": "pure",
      "type": "function"
    },
    {
      "inputs": [],
      "name": "protocolTokenStakingAddress",
      "outputs": [
        {
          "internalType": "address",
          "name": "",
          "type": "address"
        }
      ],
      "stateMutability": "view",
      "type": "function"
    },
    {
      "inputs": [],
      "name": "renounceOwnership",
      "outputs": [],
      "stateMutability": "nonpayable",
      "type": "function"
    },
    {
      "inputs": [
        {
          "internalType": "address",
          "name": "_sender",
          "type": "address"
        },
        {
          "internalType": "uint256",
          "name": "_amount",
          "type": "uint256"
        }
      ],
      "name": "sendToProtocolTokenStaking",
      "outputs": [],
      "stateMutability": "nonpayable",
      "type": "function"
    },
    {
      "inputs": [],
      "name": "symbol",
      "outputs": [
        {
          "internalType": "string",
          "name": "",
          "type": "string"
        }
      ],
      "stateMutability": "pure",
      "type": "function"
    },
    {
      "inputs": [],
      "name": "totalSupply",
      "outputs": [
        {
          "internalType": "uint256",
          "name": "",
          "type": "uint256"
        }
      ],
      "stateMutability": "view",
      "type": "function"
    },
    {
      "inputs": [
        {
          "internalType": "address",
          "name": "recipient",
          "type": "address"
        },
        {
          "internalType": "uint256",
          "name": "amount",
          "type": "uint256"
        }
      ],
      "name": "transfer",
      "outputs": [
        {
          "internalType": "bool",
          "name": "",
          "type": "bool"
        }
      ],
      "stateMutability": "nonpayable",
      "type": "function"
    },
    {
      "inputs": [
        {
          "internalType": "address",
          "name": "sender",
          "type": "address"
        },
        {
          "internalType": "address",
          "name": "recipient",
          "type": "address"
        },
        {
          "internalType": "uint256",
          "name": "amount",
          "type": "uint256"
        }
      ],
      "name": "transferFrom",
      "outputs": [
        {
          "internalType": "bool",
          "name": "",
          "type": "bool"
        }
      ],
      "stateMutability": "nonpayable",
      "type": "function"
    },
    {
      "inputs": [
        {
          "internalType": "address",
          "name": "newOwner",
          "type": "address"
        }
      ],
      "name": "transferOwnership",
      "outputs": [],
      "stateMutability": "nonpayable",
      "type": "function"
    },
    {
      "inputs": [],
      "name": "triggerAnnualAllocation",
      "outputs": [],
      "stateMutability": "nonpayable",
      "type": "function"
    },
    {
      "inputs": [
        {
          "internalType": "address[]",
          "name": "_accounts",
          "type": "address[]"
        },
        {
          "internalType": "uint256[]",
          "name": "_amounts",
          "type": "uint256[]"
        }
      ],
      "name": "triggerInitialAllocation",
      "outputs": [],
      "stateMutability": "nonpayable",
      "type": "function"
    },
    {
      "inputs": [
        {
          "internalType": "address",
          "name": "account",
          "type": "address"
        },
        {
          "internalType": "uint256",
          "name": "amount",
          "type": "uint256"
        }
      ],
      "name": "unprotectedMint",
      "outputs": [],
      "stateMutability": "nonpayable",
      "type": "function"
    },
    {
      "inputs": [
        {
          "internalType": "address",
          "name": "_sender",
          "type": "address"
        },
        {
          "internalType": "uint256",
          "name": "_amount",
          "type": "uint256"
        }
      ],
      "name": "unprotectedSendToProtocolTokenStaking",
      "outputs": [],
      "stateMutability": "nonpayable",
      "type": "function"
    },
    {
      "inputs": [
        {
          "internalType": "uint256",
          "name": "_annualAllocationRate",
          "type": "uint256"
        }
      ],
      "name": "updateAnnualAllocationRate",
      "outputs": [],
      "stateMutability": "nonpayable",
      "type": "function"
    },
    {
      "inputs": [
        {
          "internalType": "address",
          "name": "_annualAllocationRecipient",
          "type": "address"
        }
      ],
      "name": "updateAnnualAllocationRecipient",
      "outputs": [],
      "stateMutability": "nonpayable",
      "type": "function"
    },
    {
      "inputs": [],
      "name": "version",
      "outputs": [
        {
          "internalType": "string",
          "name": "",
          "type": "string"
        }
      ],
      "stateMutability": "pure",
      "type": "function"
    }
  ],
  "bytecode": "0x608060405234801561001057600080fd5b50611fa1806100206000396000f3fe608060405234801561001057600080fd5b50600436106101c65760003560e01c806370a08231116100fa578063a9059cbb1161009d578063a9059cbb146105ec578063aa7cd8a014610618578063cb25bdde14610644578063d505accf1461064c578063dd62ed3e1461069d578063e139efa4146106cb578063f1b9946f146106f7578063f2fde38b14610714578063f698da251461073a576101c6565b806370a0823114610552578063715018a61461057857806372fe25aa146105805780637ecebe00146105885780638da5cb5b146105ae57806395d89b41146105b65780639bd89ffd146105be578063a57cb58a146105c6576101c6565b806323b872dd1161016d57806323b872dd146104585780632b5ba98e1461048e5780632ff5f14414610496578063313ce567146104ba5780633408e470146104d8578063387a54d9146104e05780635099f99f1461051657806354fd4d501461054257806357aae46b1461054a576101c6565b806303d99946146101cb57806306f8f0b71461021557806306fdde031461033a578063095ea7b3146103b757806310ce43bd146103e35780631593fb93146103fd5780631794bb3c1461041a57806318160ddd14610450575b600080fd5b610201600480360360608110156101e157600080fd5b506001600160a01b03813581169160208101359091169060400135610742565b604080519115158252519081900360200190f35b6103386004803603604081101561022b57600080fd5b810190602081018135600160201b81111561024557600080fd5b82018360208201111561025757600080fd5b803590602001918460208302840111600160201b8311171561027857600080fd5b9190808060200260200160405190810160405280939291908181526020018383602002808284376000920191909152509295949360208101935035915050600160201b8111156102c757600080fd5b8201836020820111156102d957600080fd5b803590602001918460208302840111600160201b831117156102fa57600080fd5b919080806020026020016040519081016040528093929190818152602001838360200280828437600092019190915250929550610759945050505050565b005b6103426108d1565b6040805160208082528351818301528351919283929083019185019080838360005b8381101561037c578181015183820152602001610364565b50505050905090810190601f1680156103a95780820380516001836020036101000a031916815260200191505b509250505060405180910390f35b610201600480360360408110156103cd57600080fd5b506001600160a01b0381351690602001356108fb565b6103eb610912565b60408051918252519081900360200190f35b6102016004803603602081101561041357600080fd5b5035610936565b6103386004803603606081101561043057600080fd5b506001600160a01b0381358116916020810135909116906040013561094b565b6103eb610a13565b6102016004803603606081101561046e57600080fd5b506001600160a01b03813581169160208101359091169060400135610a19565b6103eb610a81565b61049e610a87565b604080516001600160a01b039092168252519081900360200190f35b6104c2610a96565b6040805160ff9092168252519081900360200190f35b6103eb610a9b565b610201600480360360608110156104f657600080fd5b506001600160a01b03813581169160208101359091169060400135610a9f565b6103386004803603604081101561052c57600080fd5b506001600160a01b038135169060200135610aac565b610342610aba565b61049e610ad5565b6103eb6004803603602081101561056857600080fd5b50356001600160a01b0316610ae4565b610338610aff565b6103eb610b99565b6103eb6004803603602081101561059e57600080fd5b50356001600160a01b0316610ba5565b61049e610bc0565b610342610bcf565b6103eb610bec565b610338600480360360208110156105dc57600080fd5b50356001600160a01b0316610bf2565b6102016004803603604081101561060257600080fd5b506001600160a01b038135169060200135610c60565b6103386004803603604081101561062e57600080fd5b506001600160a01b038135169060200135610c76565b610338610c96565b610338600480360360e081101561066257600080fd5b506001600160a01b03813581169160208101359091169060408101359060608101359060ff6080820135169060a08101359060c00135610d8c565b6103eb600480360360408110156106b357600080fd5b506001600160a01b0381358116916020013516610f8e565b610338600480360360408110156106e157600080fd5b506001600160a01b038135169060200135610c7e565b6103386004803603602081101561070d57600080fd5b5035610fb9565b6103386004803603602081101561072a57600080fd5b50356001600160a01b0316611024565b6103eb611115565b600061074f84848461116a565b5060019392505050565b610761611256565b6001600160a01b0316610772610bc0565b6001600160a01b0316146107bb576040805162461bcd60e51b81526020600482018190526024820152600080516020611e66833981519152604482015290519081900360640190fd5b60675415610810576040805162461bcd60e51b815260206004820181905260248201527f50726f746f636f6c546f6b656e3a20616c726561647920616c6c6f6361746564604482015290519081900360640190fd5b80518251146108505760405162461bcd60e51b8152600401808060200182810382526033815260200180611c2c6033913960400191505060405180910390fd5b42606d55600080805260706020527f29272c5198ac4c1c7fb0303943f851de04a43367f02c26a44994c42c27db24b5805460ff191660011790555b82518110156108cc576108c48382815181106108a357fe5b60200260200101518383815181106108b757fe5b602002602001015161125a565b60010161088b565b505050565b60408051808201909152600f81526e536563757265642046696e616e636560881b60208201525b90565b600061090833848461116a565b5060015b92915050565b7f6e71edae12b1b97f4d1f60370fef10105fa2faae0126114a169c64845d6126c990565b60706020526000908152604090205460ff1681565b600054610100900460ff16806109645750610964611340565b80610972575060005460ff16155b6109ad5760405162461bcd60e51b815260040180806020018281038252602e815260200180611da9602e913960400191505060405180910390fd5b600054610100900460ff161580156109d8576000805460ff1961ff0019909116610100171660011790555b6109e0611351565b6109e984611402565b6109f2836114ea565b6109fb8261153e565b8015610a0d576000805461ff00191690555b50505050565b60675490565b6000610a24836115c0565b610a2f848484611669565b61074f8433610a7c85604051806060016040528060288152602001611e3e602891396001600160a01b038a16600090815260666020908152604080832033845290915290205491906117bb565b61116a565b606d5490565b606f546001600160a01b031681565b601290565b4690565b600061074f848484611669565b610ab6828261125a565b5050565b6040805180820190915260018152603160f81b602082015290565b6071546001600160a01b031681565b6001600160a01b031660009081526065602052604090205490565b610b07611256565b6001600160a01b0316610b18610bc0565b6001600160a01b031614610b61576040805162461bcd60e51b81526020600482018190526024820152600080516020611e66833981519152604482015290519081900360640190fd5b6033546040516000916001600160a01b031690600080516020611e86833981519152908390a3603380546001600160a01b0319169055565b670de0b6b3a764000081565b6001600160a01b03166000908152606c602052604090205490565b6033546001600160a01b031690565b60408051808201909152600381526229a1a960e91b602082015290565b606e5481565b610bfa611256565b6001600160a01b0316610c0b610bc0565b6001600160a01b031614610c54576040805162461bcd60e51b81526020600482018190526024820152600080516020611e66833981519152604482015290519081900360640190fd5b610c5d816114ea565b50565b6000610c6b836115c0565b610908338484611669565b610c7e611852565b607154610ab69083906001600160a01b031683611669565b606754610cd45760405162461bcd60e51b8152600401808060200182810382526037815260200180611d726037913960400191505060405180910390fd5b60006301e13380606d54420381610ce757fe5b0460008181526070602052604090205490915060ff1615610d395760405162461bcd60e51b8152600401808060200182810382526035815260200180611eef6035913960400191505060405180910390fd5b6000818152607060205260409020805460ff19166001179055606f54606e54606754610c5d926001600160a01b031691610d8791670de0b6b3a764000091610d81919061189d565b906118fd565b61125a565b42841015610de1576040805162461bcd60e51b815260206004820152601f60248201527f50726f746f636f6c546f6b656e3a206578706972656420646561646c696e6500604482015290519081900360640190fd5b6000610deb611115565b6001600160a01b03808a166000818152606c602090815260408083208054600180820190925582517f6e71edae12b1b97f4d1f60370fef10105fa2faae0126114a169c64845d6126c98186015280840196909652958e166060860152608085018d905260a085019590955260c08085018c90528151808603909101815260e08501825280519083012061190160f01b6101008601526101028501969096526101228085019690965280518085039096018652610142840180825286519683019690962095839052610162840180825286905260ff8a166101828501526101a284018990526101c284018890525194955090936101e280840193601f198301929081900390910190855afa158015610f06573d6000803e3d6000fd5b505050602060405103519050886001600160a01b0316816001600160a01b031614610f78576040805162461bcd60e51b815260206004820181905260248201527f50726f746f636f6c546f6b656e3a20696e76616c6964207369676e6174757265604482015290519081900360640190fd5b610f8389898961116a565b505050505050505050565b6001600160a01b03918216600090815260666020908152604080832093909416825291909152205490565b610fc1611256565b6001600160a01b0316610fd2610bc0565b6001600160a01b03161461101b576040805162461bcd60e51b81526020600482018190526024820152600080516020611e66833981519152604482015290519081900360640190fd5b610c5d8161153e565b61102c611256565b6001600160a01b031661103d610bc0565b6001600160a01b031614611086576040805162461bcd60e51b81526020600482018190526024820152600080516020611e66833981519152604482015290519081900360640190fd5b6001600160a01b0381166110cb5760405162461bcd60e51b8152600401808060200182810382526026815260200180611c9e6026913960400191505060405180910390fd5b6033546040516001600160a01b03808416921690600080516020611e8683398151915290600090a3603380546001600160a01b0319166001600160a01b0392909216919091179055565b6000606954611122610a9b565b141561113157506068546108f8565b6111637f8b73c3c69bb8fe3d512ecc4cf759cc79239f7b179b0ffacaa9a75d522b39400f60001b606a54606b54611964565b90506108f8565b6001600160a01b0383166111af5760405162461bcd60e51b8152600401808060200182810382526024815260200180611ecb6024913960400191505060405180910390fd5b6001600160a01b0382166111f45760405162461bcd60e51b8152600401808060200182810382526022815260200180611cc46022913960400191505060405180910390fd5b6001600160a01b03808416600081815260666020908152604080832094871680845294825291829020859055815185815291517f8c5be1e5ebec7d5bd14f71427d1e84f3dd0314c0f7b2291e5b200ac8c7c3b9259281900390910190a3505050565b3390565b6001600160a01b0382166112b5576040805162461bcd60e51b815260206004820152601f60248201527f45524332303a206d696e7420746f20746865207a65726f206164647265737300604482015290519081900360640190fd5b6067546112c290826119c6565b6067556001600160a01b0382166000908152606560205260409020546112e890826119c6565b6001600160a01b03831660008181526065602090815260408083209490945583518581529351929391927fddf252ad1be2c89b69c2b068fc378daa952ba7f163c4a11628f55a4df523b3ef9281900390910190a35050565b600061134b30611a20565b15905090565b600054610100900460ff168061136a575061136a611340565b80611378575060005460ff16155b6113b35760405162461bcd60e51b815260040180806020018281038252602e815260200180611da9602e913960400191505060405180910390fd5b600054610100900460ff161580156113de576000805460ff1961ff0019909116610100171660011790555b6113e6611a26565b6113ee611ac6565b8015610c5d576000805461ff001916905550565b61140b81611bad565b607180546001600160a01b0319166001600160a01b038316179055604080518082018252600f81526e536563757265642046696e616e636560881b602091820152815180830190925260018252603160f81b9101527f6f8eb4b4689a82d905598a38ac07fa2fcb9c04c0544555c89646506313c3e184606a8190557fc89efdaa54c0f20c7adf612882df0950f5a951637e0307cdcb4c672f298b8bc6606b8190556114b4610a9b565b6069556114e27f8b73c3c69bb8fe3d512ecc4cf759cc79239f7b179b0ffacaa9a75d522b39400f8383611964565b606855505050565b606f80546001600160a01b0383166001600160a01b0319909116811790915560408051918252517f4e1c23feccc9d2af17a26ec57d6eb5a8a1344edd8b54d19ada8b350398dc651a9181900360200190a150565b670de0b6b3a76400008111156115855760405162461bcd60e51b8152600401808060200182810382526048815260200180611f246048913960600191505060405180910390fd5b606e8190556040805182815290517fe6b1ccfa0a4b982d2c0f261ab9c9bd4087e2f228140fa0b5dc315c2b10b6a8fb9181900360200190a150565b6001600160a01b038116158015906115e157506001600160a01b0381163014155b61161c5760405162461bcd60e51b8152600401808060200182810382526066815260200180611ce66066913960800191505060405180910390fd5b6071546001600160a01b0382811691161415610c5d5760405162461bcd60e51b8152600401808060200182810382526046815260200180611dd76046913960600191505060405180910390fd5b6001600160a01b0383166116ae5760405162461bcd60e51b8152600401808060200182810382526025815260200180611ea66025913960400191505060405180910390fd5b6001600160a01b0382166116f35760405162461bcd60e51b8152600401808060200182810382526023815260200180611c096023913960400191505060405180910390fd5b61173081604051806060016040528060268152602001611d4c602691396001600160a01b03861660009081526065602052604090205491906117bb565b6001600160a01b03808516600090815260656020526040808220939093559084168152205461175f90826119c6565b6001600160a01b0380841660008181526065602090815260409182902094909455805185815290519193928716927fddf252ad1be2c89b69c2b068fc378daa952ba7f163c4a11628f55a4df523b3ef92918290030190a3505050565b6000818484111561184a5760405162461bcd60e51b81526004018080602001828103825283818151815260200191508051906020019080838360005b8381101561180f5781810151838201526020016117f7565b50505050905090810190601f16801561183c5780820380516001836020036101000a031916815260200191505b509250505060405180910390fd5b505050900390565b6071546001600160a01b0316331461189b5760405162461bcd60e51b815260040180806020018281038252603f815260200180611c5f603f913960400191505060405180910390fd5b565b6000826118ac5750600061090c565b828202828482816118b957fe5b04146118f65760405162461bcd60e51b8152600401808060200182810382526021815260200180611e1d6021913960400191505060405180910390fd5b9392505050565b6000808211611953576040805162461bcd60e51b815260206004820152601a60248201527f536166654d6174683a206469766973696f6e206279207a65726f000000000000604482015290519081900360640190fd5b81838161195c57fe5b049392505050565b6000838383611971610a9b565b3060405160200180868152602001858152602001848152602001838152602001826001600160a01b03168152602001955050505050506040516020818303038152906040528051906020012090509392505050565b6000828201838110156118f6576040805162461bcd60e51b815260206004820152601b60248201527f536166654d6174683a206164646974696f6e206f766572666c6f770000000000604482015290519081900360640190fd5b3b151590565b600054610100900460ff1680611a3f5750611a3f611340565b80611a4d575060005460ff16155b611a885760405162461bcd60e51b815260040180806020018281038252602e815260200180611da9602e913960400191505060405180910390fd5b600054610100900460ff161580156113ee576000805460ff1961ff0019909116610100171660011790558015610c5d576000805461ff001916905550565b600054610100900460ff1680611adf5750611adf611340565b80611aed575060005460ff16155b611b285760405162461bcd60e51b815260040180806020018281038252602e815260200180611da9602e913960400191505060405180910390fd5b600054610100900460ff16158015611b53576000805460ff1961ff0019909116610100171660011790555b6000611b5d611256565b603380546001600160a01b0319166001600160a01b03831690811790915560405191925090600090600080516020611e86833981519152908290a3508015610c5d576000805461ff001916905550565b6001600160a01b038116610c5d576040805162461bcd60e51b815260206004820152601e60248201527f4163636f756e742063616e6e6f74206265207a65726f20616464726573730000604482015290519081900360640190fdfe45524332303a207472616e7366657220746f20746865207a65726f206164647265737350726f746f636f6c546f6b656e3a206163636f756e747320616e6420616d6f756e7473206c656e677468206d69736d6174636850726f746f636f6c546f6b656e3a2063616c6c6572206d757374206265207468652050726f746f636f6c546f6b656e5374616b696e6720636f6e74726163744f776e61626c653a206e6577206f776e657220697320746865207a65726f206164647265737345524332303a20617070726f766520746f20746865207a65726f206164647265737350726f746f636f6c546f6b656e3a2043616e6e6f74207472616e7366657220746f6b656e73206469726563746c7920746f207468652050726f746f636f6c546f6b656e20746f6b656e20636f6e7472616374206f7220746865207a65726f206164647265737345524332303a207472616e7366657220616d6f756e7420657863656564732062616c616e636550726f746f636f6c546f6b656e3a20696e697469616c20616c6c6f636174696f6e20686173206e6f74206265656e20646f6e6520796574496e697469616c697a61626c653a20636f6e747261637420697320616c726561647920696e697469616c697a656450726f746f636f6c546f6b656e3a2043616e6e6f74207472616e7366657220746f6b656e73206469726563746c7920746f20746865207374616b696e6720636f6e7472616374536166654d6174683a206d756c7469706c69636174696f6e206f766572666c6f7745524332303a207472616e7366657220616d6f756e74206578636565647320616c6c6f77616e63654f776e61626c653a2063616c6c6572206973206e6f7420746865206f776e65728be0079c531659141344cd1fd0a4f28419497f9722a3daafe3b4186f6b6457e045524332303a207472616e736665722066726f6d20746865207a65726f206164647265737345524332303a20617070726f76652066726f6d20746865207a65726f206164647265737350726f746f636f6c546f6b656e3a20616e6e75616c20616c6c6f636174696f6e206973206e6f742079657420617661696c61626c6550726f746f636f6c546f6b656e3a20616e6e75616c20616c6c6f636174696f6e2072617465206d757374206265206c657373207468616e206f7220657175616c20746f2031303025a26469706673582212205cfc71adb77e694a80d45e263da00540441dcdf34e7a4849643ed48b0fce8d8164736f6c63430007060033",
  "linkReferences": {},
  "deployedLinkReferences": {}
}