{
  "_format": "hh-sol-artifact-1",
  "contractName": "ProtocolTokenTester",
  "sourceName": "contracts/TestContracts/ProtocolTokenTester.sol",
  "abi": [
    {
      "anonymous": false,
      "inputs": [
        {
          "indexed": false,
          "internalType": "uint256",
          "name": "_annualAllocationRate",
          "type": "uint256"
        }
      ],
      "name": "AnnualAllocationRateUpdated",
      "type": "event"
    },
    {
      "anonymous": false,
      "inputs": [
        {
          "indexed": false,
          "internalType": "address",
          "name": "_annualAllocationRecipient",
          "type": "address"
        }
      ],
      "name": "AnnualAllocationRecipientUpdated",
      "type": "event"
    },
    {
      "anonymous": false,
      "inputs": [
        {
          "indexed": true,
          "internalType": "address",
          "name": "owner",
          "type": "address"
        },
        {
          "indexed": true,
          "internalType": "address",
          "name": "spender",
          "type": "address"
        },
        {
          "indexed": false,
          "internalType": "uint256",
          "name": "value",
          "type": "uint256"
        }
      ],
      "name": "Approval",
      "type": "event"
    },
    {
      "anonymous": false,
      "inputs": [
        {
          "indexed": true,
          "internalType": "address",
          "name": "previousOwner",
          "type": "address"
        },
        {
          "indexed": true,
          "internalType": "address",
          "name": "newOwner",
          "type": "address"
        }
      ],
      "name": "OwnershipTransferred",
      "type": "event"
    },
    {
      "anonymous": false,
      "inputs": [
        {
          "indexed": true,
          "internalType": "address",
          "name": "from",
          "type": "address"
        },
        {
          "indexed": true,
          "internalType": "address",
          "name": "to",
          "type": "address"
        },
        {
          "indexed": false,
          "internalType": "uint256",
          "name": "value",
          "type": "uint256"
        }
      ],
      "name": "Transfer",
      "type": "event"
    },
    {
      "inputs": [],
      "name": "_100pct",
      "outputs": [
        {
          "internalType": "uint256",
          "name": "",
          "type": "uint256"
        }
      ],
      "stateMutability": "view",
      "type": "function"
    },
    {
      "inputs": [
        {
          "internalType": "uint256",
          "name": "",
          "type": "uint256"
        }
      ],
      "name": "allocationTriggered",
      "outputs": [
        {
          "internalType": "bool",
          "name": "",
          "type": "bool"
        }
      ],
      "stateMutability": "view",
      "type": "function"
    },
    {
      "inputs": [
        {
          "internalType": "address",
          "name": "_owner",
          "type": "address"
        },
        {
          "internalType": "address",
          "name": "_spender",
          "type": "address"
        }
      ],
      "name": "allowance",
      "outputs": [
        {
          "internalType": "uint256",
          "name": "",
          "type": "uint256"
        }
      ],
      "stateMutability": "view",
      "type": "function"
    },
    {
      "inputs": [],
      "name": "annualAllocationRate",
      "outputs": [
        {
          "internalType": "uint256",
          "name": "",
          "type": "uint256"
        }
      ],
      "stateMutability": "view",
      "type": "function"
    },
    {
      "inputs": [],
      "name": "annualAllocationRecipient",
      "outputs": [
        {
          "internalType": "address",
          "name": "",
          "type": "address"
        }
      ],
      "stateMutability": "view",
      "type": "function"
    },
    {
      "inputs": [
        {
          "internalType": "address",
          "name": "_spender",
          "type": "address"
        },
        {
          "internalType": "uint256",
          "name": "_amount",
          "type": "uint256"
        }
      ],
      "name": "approve",
      "outputs": [
        {
          "internalType": "bool",
          "name": "",
          "type": "bool"
        }
      ],
      "stateMutability": "nonpayable",
      "type": "function"
    },
    {
      "inputs": [
        {
          "internalType": "address",
          "name": "_account",
          "type": "address"
        }
      ],
      "name": "balanceOf",
      "outputs": [
        {
          "internalType": "uint256",
          "name": "",
          "type": "uint256"
        }
      ],
      "stateMutability": "view",
      "type": "function"
    },
    {
      "inputs": [
        {
          "internalType": "address",
          "name": "owner",
          "type": "address"
        },
        {
          "internalType": "address",
          "name": "spender",
          "type": "address"
        },
        {
          "internalType": "uint256",
          "name": "amount",
          "type": "uint256"
        }
      ],
      "name": "callInternalApprove",
      "outputs": [
        {
          "internalType": "bool",
          "name": "",
          "type": "bool"
        }
      ],
      "stateMutability": "nonpayable",
      "type": "function"
    },
    {
      "inputs": [
        {
          "internalType": "address",
          "name": "sender",
          "type": "address"
        },
        {
          "internalType": "address",
          "name": "recipient",
          "type": "address"
        },
        {
          "internalType": "uint256",
          "name": "amount",
          "type": "uint256"
        }
      ],
      "name": "callInternalTransfer",
      "outputs": [
        {
          "internalType": "bool",
          "name": "",
          "type": "bool"
        }
      ],
      "stateMutability": "nonpayable",
      "type": "function"
    },
    {
      "inputs": [],
      "name": "decimals",
      "outputs": [
        {
          "internalType": "uint8",
          "name": "",
          "type": "uint8"
        }
      ],
      "stateMutability": "pure",
      "type": "function"
    },
    {
      "inputs": [],
      "name": "domainSeparator",
      "outputs": [
        {
          "internalType": "bytes32",
          "name": "",
          "type": "bytes32"
        }
      ],
      "stateMutability": "view",
      "type": "function"
    },
    {
      "inputs": [],
      "name": "getAllocationStartTime",
      "outputs": [
        {
          "internalType": "uint256",
          "name": "",
          "type": "uint256"
        }
      ],
      "stateMutability": "view",
      "type": "function"
    },
    {
      "inputs": [],
      "name": "getChainId",
      "outputs": [
        {
          "internalType": "uint256",
          "name": "chainID",
          "type": "uint256"
        }
      ],
      "stateMutability": "pure",
      "type": "function"
    },
    {
      "inputs": [
        {
          "internalType": "address",
          "name": "_protocolTokenStakingAddress",
          "type": "address"
        },
        {
          "internalType": "address",
          "name": "_annualAllocationRecipient",
          "type": "address"
        },
        {
          "internalType": "uint256",
          "name": "_annualAllocationRate",
          "type": "uint256"
        }
      ],
      "name": "initialize",
      "outputs": [],
      "stateMutability": "nonpayable",
      "type": "function"
    },
    {
      "inputs": [],
      "name": "name",
      "outputs": [
        {
          "internalType": "string",
          "name": "",
          "type": "string"
        }
      ],
      "stateMutability": "pure",
      "type": "function"
    },
    {
      "inputs": [
        {
          "internalType": "address",
          "name": "_owner",
          "type": "address"
        }
      ],
      "name": "nonces",
      "outputs": [
        {
          "internalType": "uint256",
          "name": "",
          "type": "uint256"
        }
      ],
      "stateMutability": "view",
      "type": "function"
    },
    {
      "inputs": [],
      "name": "owner",
      "outputs": [
        {
          "internalType": "address",
          "name": "",
          "type": "address"
        }
      ],
      "stateMutability": "view",
      "type": "function"
    },
    {
      "inputs": [
        {
          "internalType": "address",
          "name": "_owner",
          "type": "address"
        },
        {
          "internalType": "address",
          "name": "_spender",
          "type": "address"
        },
        {
          "internalType": "uint256",
          "name": "_amount",
          "type": "uint256"
        },
        {
          "internalType": "uint256",
          "name": "_deadline",
          "type": "uint256"
        },
        {
          "internalType": "uint8",
          "name": "_v",
          "type": "uint8"
        },
        {
          "internalType": "bytes32",
          "name": "_r",
          "type": "bytes32"
        },
        {
          "internalType": "bytes32",
          "name": "_s",
          "type": "bytes32"
        }
      ],
      "name": "permit",
      "outputs": [],
      "stateMutability": "nonpayable",
      "type": "function"
    },
    {
      "inputs": [],
      "name": "permitTypeHash",
      "outputs": [
        {
          "internalType": "bytes32",
          "name": "",
          "type": "bytes32"
        }
      ],
      "stateMutability": "pure",
      "type": "function"
    },
    {
      "inputs": [],
      "name": "protocolTokenStakingAddress",
      "outputs": [
        {
          "internalType": "address",
          "name": "",
          "type": "address"
        }
      ],
      "stateMutability": "view",
      "type": "function"
    },
    {
      "inputs": [],
      "name": "renounceOwnership",
      "outputs": [],
      "stateMutability": "nonpayable",
      "type": "function"
    },
    {
      "inputs": [
        {
          "internalType": "address",
          "name": "_sender",
          "type": "address"
        },
        {
          "internalType": "uint256",
          "name": "_amount",
          "type": "uint256"
        }
      ],
      "name": "sendToProtocolTokenStaking",
      "outputs": [],
      "stateMutability": "nonpayable",
      "type": "function"
    },
    {
      "inputs": [],
      "name": "symbol",
      "outputs": [
        {
          "internalType": "string",
          "name": "",
          "type": "string"
        }
      ],
      "stateMutability": "pure",
      "type": "function"
    },
    {
      "inputs": [],
      "name": "totalSupply",
      "outputs": [
        {
          "internalType": "uint256",
          "name": "",
          "type": "uint256"
        }
      ],
      "stateMutability": "view",
      "type": "function"
    },
    {
      "inputs": [
        {
          "internalType": "address",
          "name": "_recipient",
          "type": "address"
        },
        {
          "internalType": "uint256",
          "name": "_amount",
          "type": "uint256"
        }
      ],
      "name": "transfer",
      "outputs": [
        {
          "internalType": "bool",
          "name": "",
          "type": "bool"
        }
      ],
      "stateMutability": "nonpayable",
      "type": "function"
    },
    {
      "inputs": [
        {
          "internalType": "address",
          "name": "_sender",
          "type": "address"
        },
        {
          "internalType": "address",
          "name": "_recipient",
          "type": "address"
        },
        {
          "internalType": "uint256",
          "name": "_amount",
          "type": "uint256"
        }
      ],
      "name": "transferFrom",
      "outputs": [
        {
          "internalType": "bool",
          "name": "",
          "type": "bool"
        }
      ],
      "stateMutability": "nonpayable",
      "type": "function"
    },
    {
      "inputs": [
        {
          "internalType": "address",
          "name": "newOwner",
          "type": "address"
        }
      ],
      "name": "transferOwnership",
      "outputs": [],
      "stateMutability": "nonpayable",
      "type": "function"
    },
    {
      "inputs": [],
      "name": "triggerAnnualAllocation",
      "outputs": [],
      "stateMutability": "nonpayable",
      "type": "function"
    },
    {
      "inputs": [
        {
          "internalType": "address[]",
          "name": "_accounts",
          "type": "address[]"
        },
        {
          "internalType": "uint256[]",
          "name": "_amounts",
          "type": "uint256[]"
        }
      ],
      "name": "triggerInitialAllocation",
      "outputs": [],
      "stateMutability": "nonpayable",
      "type": "function"
    },
    {
      "inputs": [
        {
          "internalType": "address",
          "name": "account",
          "type": "address"
        },
        {
          "internalType": "uint256",
          "name": "amount",
          "type": "uint256"
        }
      ],
      "name": "unprotectedMint",
      "outputs": [],
      "stateMutability": "nonpayable",
      "type": "function"
    },
    {
      "inputs": [
        {
          "internalType": "address",
          "name": "_sender",
          "type": "address"
        },
        {
          "internalType": "uint256",
          "name": "_amount",
          "type": "uint256"
        }
      ],
      "name": "unprotectedSendToProtocolTokenStaking",
      "outputs": [],
      "stateMutability": "nonpayable",
      "type": "function"
    },
    {
      "inputs": [
        {
          "internalType": "uint256",
          "name": "_annualAllocationRate",
          "type": "uint256"
        }
      ],
      "name": "updateAnnualAllocationRate",
      "outputs": [],
      "stateMutability": "nonpayable",
      "type": "function"
    },
    {
      "inputs": [
        {
          "internalType": "address",
          "name": "_annualAllocationRecipient",
          "type": "address"
        }
      ],
      "name": "updateAnnualAllocationRecipient",
      "outputs": [],
      "stateMutability": "nonpayable",
      "type": "function"
    },
    {
      "inputs": [],
      "name": "version",
      "outputs": [
        {
          "internalType": "string",
          "name": "",
          "type": "string"
        }
      ],
      "stateMutability": "pure",
      "type": "function"
    }
  ],
  "bytecode": "0x60806040523480156200001157600080fd5b50600054610100900460ff16806200002e57506200002e620000c0565b806200003d575060005460ff16155b6200007a5760405162461bcd60e51b815260040180806020018281038252602e81526020018062002058602e913960400191505060405180910390fd5b600054610100900460ff16158015620000a6576000805460ff1961ff0019909116610100171660011790555b8015620000b9576000805461ff00191690555b50620000e4565b6000620000d830620000de60201b620011391760201c565b15905090565b3b151590565b611f6480620000f46000396000f3fe608060405234801561001057600080fd5b50600436106101c65760003560e01c806370a08231116100fa578063a9059cbb1161009d578063a9059cbb146105e4578063aa7cd8a014610610578063cb25bdde1461063c578063d505accf14610644578063dd62ed3e14610695578063e139efa4146106c3578063f1b9946f146106ef578063f2fde38b1461070c578063f698da2514610732576101c6565b806370a0823114610552578063715018a61461057857806372fe25aa146105805780637ecebe00146105885780638da5cb5b146105ae57806395d89b411461033a5780639bd89ffd146105b6578063a57cb58a146105be576101c6565b806323b872dd1161016d57806323b872dd146104585780632b5ba98e1461048e5780632ff5f14414610496578063313ce567146104ba5780633408e470146104d8578063387a54d9146104e05780635099f99f1461051657806354fd4d501461054257806357aae46b1461054a576101c6565b806303d99946146101cb57806306f8f0b71461021557806306fdde031461033a578063095ea7b3146103b757806310ce43bd146103e35780631593fb93146103fd5780631794bb3c1461041a57806318160ddd14610450575b600080fd5b610201600480360360608110156101e157600080fd5b506001600160a01b0381358116916020810135909116906040013561073a565b604080519115158252519081900360200190f35b6103386004803603604081101561022b57600080fd5b810190602081018135600160201b81111561024557600080fd5b82018360208201111561025757600080fd5b803590602001918460208302840111600160201b8311171561027857600080fd5b9190808060200260200160405190810160405280939291908181526020018383602002808284376000920191909152509295949360208101935035915050600160201b8111156102c757600080fd5b8201836020820111156102d957600080fd5b803590602001918460208302840111600160201b831117156102fa57600080fd5b919080806020026020016040519081016040528093929190818152602001838360200280828437600092019190915250929550610751945050505050565b005b6103426108c9565b6040805160208082528351818301528351919283929083019185019080838360005b8381101561037c578181015183820152602001610364565b50505050905090810190601f1680156103a95780820380516001836020036101000a031916815260200191505b509250505060405180910390f35b610201600480360360408110156103cd57600080fd5b506001600160a01b0381351690602001356108e7565b6103eb6108fe565b60408051918252519081900360200190f35b6102016004803603602081101561041357600080fd5b5035610922565b6103386004803603606081101561043057600080fd5b506001600160a01b03813581169160208101359091169060400135610937565b6103eb6109ff565b6102016004803603606081101561046e57600080fd5b506001600160a01b03813581169160208101359091169060400135610a05565b6103eb610a6d565b61049e610a73565b604080516001600160a01b039092168252519081900360200190f35b6104c2610a82565b6040805160ff9092168252519081900360200190f35b6103eb610a87565b610201600480360360608110156104f657600080fd5b506001600160a01b03813581169160208101359091169060400135610a8b565b6103386004803603604081101561052c57600080fd5b506001600160a01b038135169060200135610a98565b610342610aa6565b61049e610ac1565b6103eb6004803603602081101561056857600080fd5b50356001600160a01b0316610ad0565b610338610aeb565b6103eb610b85565b6103eb6004803603602081101561059e57600080fd5b50356001600160a01b0316610b91565b61049e610bac565b6103eb610bbb565b610338600480360360208110156105d457600080fd5b50356001600160a01b0316610bc1565b610201600480360360408110156105fa57600080fd5b506001600160a01b038135169060200135610c2f565b6103386004803603604081101561062657600080fd5b506001600160a01b038135169060200135610c45565b610338610c65565b610338600480360360e081101561065a57600080fd5b506001600160a01b03813581169160208101359091169060408101359060608101359060ff6080820135169060a08101359060c00135610d5b565b6103eb600480360360408110156106ab57600080fd5b506001600160a01b0381358116916020013516610f5d565b610338600480360360408110156106d957600080fd5b506001600160a01b038135169060200135610c4d565b6103386004803603602081101561070557600080fd5b5035610f88565b6103386004803603602081101561072257600080fd5b50356001600160a01b0316610ff3565b6103eb6110e4565b600061074784848461113f565b5060019392505050565b61075961122b565b6001600160a01b031661076a610bac565b6001600160a01b0316146107b3576040805162461bcd60e51b81526020600482018190526024820152600080516020611e29833981519152604482015290519081900360640190fd5b60675415610808576040805162461bcd60e51b815260206004820181905260248201527f50726f746f636f6c546f6b656e3a20616c726561647920616c6c6f6361746564604482015290519081900360640190fd5b80518251146108485760405162461bcd60e51b8152600401808060200182810382526033815260200180611bef6033913960400191505060405180910390fd5b42606d55600080805260706020527f29272c5198ac4c1c7fb0303943f851de04a43367f02c26a44994c42c27db24b5805460ff191660011790555b82518110156108c4576108bc83828151811061089b57fe5b60200260200101518383815181106108af57fe5b602002602001015161122f565b600101610883565b505050565b60408051808201909152600381526253464360e81b60208201525b90565b60006108f433848461113f565b5060015b92915050565b7f6e71edae12b1b97f4d1f60370fef10105fa2faae0126114a169c64845d6126c990565b60706020526000908152604090205460ff1681565b600054610100900460ff16806109505750610950611315565b8061095e575060005460ff16155b6109995760405162461bcd60e51b815260040180806020018281038252602e815260200180611d6c602e913960400191505060405180910390fd5b600054610100900460ff161580156109c4576000805460ff1961ff0019909116610100171660011790555b6109cc611326565b6109d5846113d7565b6109de836114b3565b6109e782611507565b80156109f9576000805461ff00191690555b50505050565b60675490565b6000610a1083611589565b610a1b848484611632565b6107478433610a6885604051806060016040528060288152602001611e01602891396001600160a01b038a1660009081526066602090815260408083203384529091529020549190611784565b61113f565b606d5490565b606f546001600160a01b031681565b601290565b4690565b6000610747848484611632565b610aa2828261122f565b5050565b6040805180820190915260018152603160f81b602082015290565b6071546001600160a01b031681565b6001600160a01b031660009081526065602052604090205490565b610af361122b565b6001600160a01b0316610b04610bac565b6001600160a01b031614610b4d576040805162461bcd60e51b81526020600482018190526024820152600080516020611e29833981519152604482015290519081900360640190fd5b6033546040516000916001600160a01b031690600080516020611e49833981519152908390a3603380546001600160a01b0319169055565b670de0b6b3a764000081565b6001600160a01b03166000908152606c602052604090205490565b6033546001600160a01b031690565b606e5481565b610bc961122b565b6001600160a01b0316610bda610bac565b6001600160a01b031614610c23576040805162461bcd60e51b81526020600482018190526024820152600080516020611e29833981519152604482015290519081900360640190fd5b610c2c816114b3565b50565b6000610c3a83611589565b6108f4338484611632565b610c4d61181b565b607154610aa29083906001600160a01b031683611632565b606754610ca35760405162461bcd60e51b8152600401808060200182810382526037815260200180611d356037913960400191505060405180910390fd5b60006301e13380606d54420381610cb657fe5b0460008181526070602052604090205490915060ff1615610d085760405162461bcd60e51b8152600401808060200182810382526035815260200180611eb26035913960400191505060405180910390fd5b6000818152607060205260409020805460ff19166001179055606f54606e54606754610c2c926001600160a01b031691610d5691670de0b6b3a764000091610d509190611866565b906118c6565b61122f565b42841015610db0576040805162461bcd60e51b815260206004820152601f60248201527f50726f746f636f6c546f6b656e3a206578706972656420646561646c696e6500604482015290519081900360640190fd5b6000610dba6110e4565b6001600160a01b03808a166000818152606c602090815260408083208054600180820190925582517f6e71edae12b1b97f4d1f60370fef10105fa2faae0126114a169c64845d6126c98186015280840196909652958e166060860152608085018d905260a085019590955260c08085018c90528151808603909101815260e08501825280519083012061190160f01b6101008601526101028501969096526101228085019690965280518085039096018652610142840180825286519683019690962095839052610162840180825286905260ff8a166101828501526101a284018990526101c284018890525194955090936101e280840193601f198301929081900390910190855afa158015610ed5573d6000803e3d6000fd5b505050602060405103519050886001600160a01b0316816001600160a01b031614610f47576040805162461bcd60e51b815260206004820181905260248201527f50726f746f636f6c546f6b656e3a20696e76616c6964207369676e6174757265604482015290519081900360640190fd5b610f5289898961113f565b505050505050505050565b6001600160a01b03918216600090815260666020908152604080832093909416825291909152205490565b610f9061122b565b6001600160a01b0316610fa1610bac565b6001600160a01b031614610fea576040805162461bcd60e51b81526020600482018190526024820152600080516020611e29833981519152604482015290519081900360640190fd5b610c2c81611507565b610ffb61122b565b6001600160a01b031661100c610bac565b6001600160a01b031614611055576040805162461bcd60e51b81526020600482018190526024820152600080516020611e29833981519152604482015290519081900360640190fd5b6001600160a01b03811661109a5760405162461bcd60e51b8152600401808060200182810382526026815260200180611c616026913960400191505060405180910390fd5b6033546040516001600160a01b03808416921690600080516020611e4983398151915290600090a3603380546001600160a01b0319166001600160a01b0392909216919091179055565b60006069546110f1610a87565b141561110057506068546108e4565b6111327f8b73c3c69bb8fe3d512ecc4cf759cc79239f7b179b0ffacaa9a75d522b39400f60001b606a54606b5461192d565b90506108e4565b3b151590565b6001600160a01b0383166111845760405162461bcd60e51b8152600401808060200182810382526024815260200180611e8e6024913960400191505060405180910390fd5b6001600160a01b0382166111c95760405162461bcd60e51b8152600401808060200182810382526022815260200180611c876022913960400191505060405180910390fd5b6001600160a01b03808416600081815260666020908152604080832094871680845294825291829020859055815185815291517f8c5be1e5ebec7d5bd14f71427d1e84f3dd0314c0f7b2291e5b200ac8c7c3b9259281900390910190a3505050565b3390565b6001600160a01b03821661128a576040805162461bcd60e51b815260206004820152601f60248201527f45524332303a206d696e7420746f20746865207a65726f206164647265737300604482015290519081900360640190fd5b606754611297908261198f565b6067556001600160a01b0382166000908152606560205260409020546112bd908261198f565b6001600160a01b03831660008181526065602090815260408083209490945583518581529351929391927fddf252ad1be2c89b69c2b068fc378daa952ba7f163c4a11628f55a4df523b3ef9281900390910190a35050565b600061132030611139565b15905090565b600054610100900460ff168061133f575061133f611315565b8061134d575060005460ff16155b6113885760405162461bcd60e51b815260040180806020018281038252602e815260200180611d6c602e913960400191505060405180910390fd5b600054610100900460ff161580156113b3576000805460ff1961ff0019909116610100171660011790555b6113bb6119e9565b6113c3611a89565b8015610c2c576000805461ff001916905550565b6113e081611b70565b607180546001600160a01b0319166001600160a01b038316179055604080518082018252600381526253464360e81b602091820152815180830190925260018252603160f81b9101527ffdbac868854e66ae830dcbbfff9424981b1b055c95011305ab74d560c1306c8e606a8190557fc89efdaa54c0f20c7adf612882df0950f5a951637e0307cdcb4c672f298b8bc6606b81905561147d610a87565b6069556114ab7f8b73c3c69bb8fe3d512ecc4cf759cc79239f7b179b0ffacaa9a75d522b39400f838361192d565b606855505050565b606f80546001600160a01b0383166001600160a01b0319909116811790915560408051918252517f4e1c23feccc9d2af17a26ec57d6eb5a8a1344edd8b54d19ada8b350398dc651a9181900360200190a150565b670de0b6b3a764000081111561154e5760405162461bcd60e51b8152600401808060200182810382526048815260200180611ee76048913960600191505060405180910390fd5b606e8190556040805182815290517fe6b1ccfa0a4b982d2c0f261ab9c9bd4087e2f228140fa0b5dc315c2b10b6a8fb9181900360200190a150565b6001600160a01b038116158015906115aa57506001600160a01b0381163014155b6115e55760405162461bcd60e51b8152600401808060200182810382526066815260200180611ca96066913960800191505060405180910390fd5b6071546001600160a01b0382811691161415610c2c5760405162461bcd60e51b8152600401808060200182810382526046815260200180611d9a6046913960600191505060405180910390fd5b6001600160a01b0383166116775760405162461bcd60e51b8152600401808060200182810382526025815260200180611e696025913960400191505060405180910390fd5b6001600160a01b0382166116bc5760405162461bcd60e51b8152600401808060200182810382526023815260200180611bcc6023913960400191505060405180910390fd5b6116f981604051806060016040528060268152602001611d0f602691396001600160a01b0386166000908152606560205260409020549190611784565b6001600160a01b038085166000908152606560205260408082209390935590841681522054611728908261198f565b6001600160a01b0380841660008181526065602090815260409182902094909455805185815290519193928716927fddf252ad1be2c89b69c2b068fc378daa952ba7f163c4a11628f55a4df523b3ef92918290030190a3505050565b600081848411156118135760405162461bcd60e51b81526004018080602001828103825283818151815260200191508051906020019080838360005b838110156117d85781810151838201526020016117c0565b50505050905090810190601f1680156118055780820380516001836020036101000a031916815260200191505b509250505060405180910390fd5b505050900390565b6071546001600160a01b031633146118645760405162461bcd60e51b815260040180806020018281038252603f815260200180611c22603f913960400191505060405180910390fd5b565b600082611875575060006108f8565b8282028284828161188257fe5b04146118bf5760405162461bcd60e51b8152600401808060200182810382526021815260200180611de06021913960400191505060405180910390fd5b9392505050565b600080821161191c576040805162461bcd60e51b815260206004820152601a60248201527f536166654d6174683a206469766973696f6e206279207a65726f000000000000604482015290519081900360640190fd5b81838161192557fe5b049392505050565b600083838361193a610a87565b3060405160200180868152602001858152602001848152602001838152602001826001600160a01b03168152602001955050505050506040516020818303038152906040528051906020012090509392505050565b6000828201838110156118bf576040805162461bcd60e51b815260206004820152601b60248201527f536166654d6174683a206164646974696f6e206f766572666c6f770000000000604482015290519081900360640190fd5b600054610100900460ff1680611a025750611a02611315565b80611a10575060005460ff16155b611a4b5760405162461bcd60e51b815260040180806020018281038252602e815260200180611d6c602e913960400191505060405180910390fd5b600054610100900460ff161580156113c3576000805460ff1961ff0019909116610100171660011790558015610c2c576000805461ff001916905550565b600054610100900460ff1680611aa25750611aa2611315565b80611ab0575060005460ff16155b611aeb5760405162461bcd60e51b815260040180806020018281038252602e815260200180611d6c602e913960400191505060405180910390fd5b600054610100900460ff16158015611b16576000805460ff1961ff0019909116610100171660011790555b6000611b2061122b565b603380546001600160a01b0319166001600160a01b03831690811790915560405191925090600090600080516020611e49833981519152908290a3508015610c2c576000805461ff001916905550565b6001600160a01b038116610c2c576040805162461bcd60e51b815260206004820152601e60248201527f4163636f756e742063616e6e6f74206265207a65726f20616464726573730000604482015290519081900360640190fdfe45524332303a207472616e7366657220746f20746865207a65726f206164647265737350726f746f636f6c546f6b656e3a206163636f756e747320616e6420616d6f756e7473206c656e677468206d69736d6174636850726f746f636f6c546f6b656e3a2063616c6c6572206d757374206265207468652050726f746f636f6c546f6b656e5374616b696e6720636f6e74726163744f776e61626c653a206e6577206f776e657220697320746865207a65726f206164647265737345524332303a20617070726f766520746f20746865207a65726f206164647265737350726f746f636f6c546f6b656e3a2043616e6e6f74207472616e7366657220746f6b656e73206469726563746c7920746f207468652050726f746f636f6c546f6b656e20746f6b656e20636f6e7472616374206f7220746865207a65726f206164647265737345524332303a207472616e7366657220616d6f756e7420657863656564732062616c616e636550726f746f636f6c546f6b656e3a20696e697469616c20616c6c6f636174696f6e20686173206e6f74206265656e20646f6e6520796574496e697469616c697a61626c653a20636f6e747261637420697320616c726561647920696e697469616c697a656450726f746f636f6c546f6b656e3a2043616e6e6f74207472616e7366657220746f6b656e73206469726563746c7920746f20746865207374616b696e6720636f6e7472616374536166654d6174683a206d756c7469706c69636174696f6e206f766572666c6f7745524332303a207472616e7366657220616d6f756e74206578636565647320616c6c6f77616e63654f776e61626c653a2063616c6c6572206973206e6f7420746865206f776e65728be0079c531659141344cd1fd0a4f28419497f9722a3daafe3b4186f6b6457e045524332303a207472616e736665722066726f6d20746865207a65726f206164647265737345524332303a20617070726f76652066726f6d20746865207a65726f206164647265737350726f746f636f6c546f6b656e3a20616e6e75616c20616c6c6f636174696f6e206973206e6f742079657420617661696c61626c6550726f746f636f6c546f6b656e3a20616e6e75616c20616c6c6f636174696f6e2072617465206d757374206265206c657373207468616e206f7220657175616c20746f2031303025a2646970667358221220a70b567d4a0169c5424ffe227757800775eb496f19c8a3da7ed6ce0d5bc7981f64736f6c63430007060033496e697469616c697a61626c653a20636f6e747261637420697320616c726561647920696e697469616c697a6564",
  "linkReferences": {},
  "deployedLinkReferences": {}
}