{
  "_format": "hh-sol-artifact-1",
  "contractName": "ProtocolTokenStaking",
  "sourceName": "contracts/ProtocolToken/ProtocolTokenStaking.sol",
  "abi": [
    {
      "anonymous": false,
      "inputs": [
        {
          "indexed": false,
          "internalType": "address",
          "name": "_activePoolAddress",
          "type": "address"
        }
      ],
      "name": "ActivePoolAddressSet",
      "type": "event"
    },
    {
      "anonymous": false,
      "inputs": [
        {
          "indexed": false,
          "internalType": "address",
          "name": "_borrowerOperationsAddress",
          "type": "address"
        }
      ],
      "name": "BorrowerOperationsAddressSet",
      "type": "event"
    },
    {
      "anonymous": false,
      "inputs": [
        {
          "indexed": false,
          "internalType": "address",
          "name": "_debtTokenAddress",
          "type": "address"
        }
      ],
      "name": "DebtTokenAddressSet",
      "type": "event"
    },
    {
      "anonymous": false,
      "inputs": [
        {
          "indexed": false,
          "internalType": "address",
          "name": "_account",
          "type": "address"
        },
        {
          "indexed": false,
          "internalType": "uint256",
          "name": "_amount",
          "type": "uint256"
        }
      ],
      "name": "FILSent",
      "type": "event"
    },
    {
      "anonymous": false,
      "inputs": [
        {
          "indexed": false,
          "internalType": "uint256",
          "name": "_F_DebtToken",
          "type": "uint256"
        }
      ],
      "name": "F_DebtTokenUpdated",
      "type": "event"
    },
    {
      "anonymous": false,
      "inputs": [
        {
          "indexed": false,
          "internalType": "uint256",
          "name": "_F_FIL",
          "type": "uint256"
        }
      ],
      "name": "F_FILUpdated",
      "type": "event"
    },
    {
      "anonymous": false,
      "inputs": [
        {
          "indexed": true,
          "internalType": "address",
          "name": "previousOwner",
          "type": "address"
        },
        {
          "indexed": true,
          "internalType": "address",
          "name": "newOwner",
          "type": "address"
        }
      ],
      "name": "OwnershipTransferred",
      "type": "event"
    },
    {
      "anonymous": false,
      "inputs": [
        {
          "indexed": false,
          "internalType": "address",
          "name": "_protocolTokenAddress",
          "type": "address"
        }
      ],
      "name": "ProtocolTokenAddressSet",
      "type": "event"
    },
    {
      "anonymous": false,
      "inputs": [
        {
          "indexed": true,
          "internalType": "address",
          "name": "staker",
          "type": "address"
        },
        {
          "indexed": false,
          "internalType": "uint256",
          "name": "newStake",
          "type": "uint256"
        }
      ],
      "name": "StakeChanged",
      "type": "event"
    },
    {
      "anonymous": false,
      "inputs": [
        {
          "indexed": false,
          "internalType": "address",
          "name": "_staker",
          "type": "address"
        },
        {
          "indexed": false,
          "internalType": "uint256",
          "name": "_F_FIL",
          "type": "uint256"
        },
        {
          "indexed": false,
          "internalType": "uint256",
          "name": "_F_DebtToken",
          "type": "uint256"
        }
      ],
      "name": "StakerSnapshotsUpdated",
      "type": "event"
    },
    {
      "anonymous": false,
      "inputs": [
        {
          "indexed": true,
          "internalType": "address",
          "name": "staker",
          "type": "address"
        },
        {
          "indexed": false,
          "internalType": "uint256",
          "name": "debtTokenGain",
          "type": "uint256"
        },
        {
          "indexed": false,
          "internalType": "uint256",
          "name": "FILGain",
          "type": "uint256"
        }
      ],
      "name": "StakingGainsWithdrawn",
      "type": "event"
    },
    {
      "anonymous": false,
      "inputs": [
        {
          "indexed": false,
          "internalType": "uint256",
          "name": "_totalProtocolTokenStaked",
          "type": "uint256"
        }
      ],
      "name": "TotalProtocolTokenStakedUpdated",
      "type": "event"
    },
    {
      "anonymous": false,
      "inputs": [
        {
          "indexed": false,
          "internalType": "address",
          "name": "_troveManager",
          "type": "address"
        }
      ],
      "name": "TroveManagerAddressSet",
      "type": "event"
    },
    {
      "inputs": [],
      "name": "DECIMAL_PRECISION",
      "outputs": [
        {
          "internalType": "uint256",
          "name": "",
          "type": "uint256"
        }
      ],
      "stateMutability": "view",
      "type": "function"
    },
    {
      "inputs": [],
      "name": "F_DebtToken",
      "outputs": [
        {
          "internalType": "uint256",
          "name": "",
          "type": "uint256"
        }
      ],
      "stateMutability": "view",
      "type": "function"
    },
    {
      "inputs": [],
      "name": "F_FIL",
      "outputs": [
        {
          "internalType": "uint256",
          "name": "",
          "type": "uint256"
        }
      ],
      "stateMutability": "view",
      "type": "function"
    },
    {
      "inputs": [],
      "name": "NAME",
      "outputs": [
        {
          "internalType": "string",
          "name": "",
          "type": "string"
        }
      ],
      "stateMutability": "view",
      "type": "function"
    },
    {
      "inputs": [],
      "name": "activePoolAddress",
      "outputs": [
        {
          "internalType": "address",
          "name": "",
          "type": "address"
        }
      ],
      "stateMutability": "view",
      "type": "function"
    },
    {
      "inputs": [],
      "name": "borrowerOperationsAddress",
      "outputs": [
        {
          "internalType": "address",
          "name": "",
          "type": "address"
        }
      ],
      "stateMutability": "view",
      "type": "function"
    },
    {
      "inputs": [],
      "name": "debtToken",
      "outputs": [
        {
          "internalType": "contract IDebtToken",
          "name": "",
          "type": "address"
        }
      ],
      "stateMutability": "view",
      "type": "function"
    },
    {
      "inputs": [
        {
          "internalType": "address",
          "name": "_user",
          "type": "address"
        }
      ],
      "name": "getPendingDebtTokenGain",
      "outputs": [
        {
          "internalType": "uint256",
          "name": "",
          "type": "uint256"
        }
      ],
      "stateMutability": "view",
      "type": "function"
    },
    {
      "inputs": [
        {
          "internalType": "address",
          "name": "_user",
          "type": "address"
        }
      ],
      "name": "getPendingFILGain",
      "outputs": [
        {
          "internalType": "uint256",
          "name": "",
          "type": "uint256"
        }
      ],
      "stateMutability": "view",
      "type": "function"
    },
    {
      "inputs": [
        {
          "internalType": "uint256",
          "name": "_debtTokenFee",
          "type": "uint256"
        }
      ],
      "name": "increaseF_DebtToken",
      "outputs": [],
      "stateMutability": "nonpayable",
      "type": "function"
    },
    {
      "inputs": [
        {
          "internalType": "uint256",
          "name": "_FILFee",
          "type": "uint256"
        }
      ],
      "name": "increaseF_FIL",
      "outputs": [],
      "stateMutability": "nonpayable",
      "type": "function"
    },
    {
      "inputs": [
        {
          "internalType": "address",
          "name": "_protocolTokenAddress",
          "type": "address"
        },
        {
          "internalType": "address",
          "name": "_debtTokenAddress",
          "type": "address"
        },
        {
          "internalType": "address",
          "name": "_troveManagerAddress",
          "type": "address"
        },
        {
          "internalType": "address",
          "name": "_borrowerOperationsAddress",
          "type": "address"
        },
        {
          "internalType": "address",
          "name": "_activePoolAddress",
          "type": "address"
        }
      ],
      "name": "initialize",
      "outputs": [],
      "stateMutability": "nonpayable",
      "type": "function"
    },
    {
      "inputs": [],
      "name": "owner",
      "outputs": [
        {
          "internalType": "address",
          "name": "",
          "type": "address"
        }
      ],
      "stateMutability": "view",
      "type": "function"
    },
    {
      "inputs": [],
      "name": "protocolToken",
      "outputs": [
        {
          "internalType": "contract IProtocolToken",
          "name": "",
          "type": "address"
        }
      ],
      "stateMutability": "view",
      "type": "function"
    },
    {
      "inputs": [],
      "name": "renounceOwnership",
      "outputs": [],
      "stateMutability": "nonpayable",
      "type": "function"
    },
    {
      "inputs": [
        {
          "internalType": "address",
          "name": "",
          "type": "address"
        }
      ],
      "name": "snapshots",
      "outputs": [
        {
          "internalType": "uint256",
          "name": "F_FIL_Snapshot",
          "type": "uint256"
        },
        {
          "internalType": "uint256",
          "name": "F_DebtToken_Snapshot",
          "type": "uint256"
        }
      ],
      "stateMutability": "view",
      "type": "function"
    },
    {
      "inputs": [
        {
          "internalType": "uint256",
          "name": "_tokenAmount",
          "type": "uint256"
        }
      ],
      "name": "stake",
      "outputs": [],
      "stateMutability": "nonpayable",
      "type": "function"
    },
    {
      "inputs": [
        {
          "internalType": "address",
          "name": "",
          "type": "address"
        }
      ],
      "name": "stakes",
      "outputs": [
        {
          "internalType": "uint256",
          "name": "",
          "type": "uint256"
        }
      ],
      "stateMutability": "view",
      "type": "function"
    },
    {
      "inputs": [],
      "name": "totalProtocolTokenStaked",
      "outputs": [
        {
          "internalType": "uint256",
          "name": "",
          "type": "uint256"
        }
      ],
      "stateMutability": "view",
      "type": "function"
    },
    {
      "inputs": [
        {
          "internalType": "address",
          "name": "newOwner",
          "type": "address"
        }
      ],
      "name": "transferOwnership",
      "outputs": [],
      "stateMutability": "nonpayable",
      "type": "function"
    },
    {
      "inputs": [],
      "name": "troveManagerAddress",
      "outputs": [
        {
          "internalType": "address",
          "name": "",
          "type": "address"
        }
      ],
      "stateMutability": "view",
      "type": "function"
    },
    {
      "inputs": [
        {
          "internalType": "uint256",
          "name": "_tokenAmount",
          "type": "uint256"
        }
      ],
      "name": "unstake",
      "outputs": [],
      "stateMutability": "nonpayable",
      "type": "function"
    },
    {
      "stateMutability": "payable",
      "type": "receive"
    }
  ],
  "bytecode": "0x608060405234801561001057600080fd5b506118a5806100206000396000f3fe6080604052600436106101395760003560e01c80638da538a3116100ab578063b08bc7221161006f578063b08bc7221461043b578063b1955ad214610450578063b7f8cf9b1461047a578063c91d2d381461048f578063f2fde38b146104b9578063f8d89898146104ec57610148565b80638da538a3146103485780638da5cb5b1461035d578063a20baee614610372578063a3f4df7e14610387578063a694fc3a1461041157610148565b80632e17de78116100fd5780632e17de781461026057806334b3081f1461028a5780633cd27e67146102d65780635a4d28bb14610309578063715018a61461031e5780637415fa181461033357610148565b80631459457a1461014d57806316934fc4146101a257806317f175dc146101e75780631a14971b1461021a5780631a465fe11461022f57610148565b3661014857610146610501565b005b600080fd5b34801561015957600080fd5b50610146600480360360a081101561017057600080fd5b506001600160a01b0381358116916020810135821691604082013581169160608101358216916080909101351661054c565b3480156101ae57600080fd5b506101d5600480360360208110156101c557600080fd5b50356001600160a01b0316610608565b60408051918252519081900360200190f35b3480156101f357600080fd5b506101d56004803603602081101561020a57600080fd5b50356001600160a01b031661061a565b34801561022657600080fd5b506101d561062b565b34801561023b57600080fd5b50610244610631565b604080516001600160a01b039092168252519081900360200190f35b34801561026c57600080fd5b506101466004803603602081101561028357600080fd5b5035610640565b34801561029657600080fd5b506102bd600480360360208110156102ad57600080fd5b50356001600160a01b0316610878565b6040805192835260208301919091528051918290030190f35b3480156102e257600080fd5b506101d5600480360360208110156102f957600080fd5b50356001600160a01b0316610891565b34801561031557600080fd5b5061024461089c565b34801561032a57600080fd5b506101466108ab565b34801561033f57600080fd5b506101d5610957565b34801561035457600080fd5b506101d561095d565b34801561036957600080fd5b50610244610963565b34801561037e57600080fd5b506101d5610972565b34801561039357600080fd5b5061039c61097e565b6040805160208082528351818301528351919283929083019185019080838360005b838110156103d65781810151838201526020016103be565b50505050905090810190601f1680156104035780820380516001836020036101000a031916815260200191505b509250505060405180910390f35b34801561041d57600080fd5b506101466004803603602081101561043457600080fd5b50356109ae565b34801561044757600080fd5b50610244610bc6565b34801561045c57600080fd5b506101466004803603602081101561047357600080fd5b5035610bd5565b34801561048657600080fd5b50610244610c52565b34801561049b57600080fd5b50610146600480360360208110156104b257600080fd5b5035610c61565b3480156104c557600080fd5b50610146600480360360208110156104dc57600080fd5b50356001600160a01b0316610cd8565b3480156104f857600080fd5b50610244610ddb565b606e546001600160a01b0316331461054a5760405162461bcd60e51b815260040180806020018281038252602e815260200180611718602e913960400191505060405180910390fd5b565b600054610100900460ff16806105655750610565610dea565b80610573575060005460ff16155b6105ae5760405162461bcd60e51b815260040180806020018281038252602e81526020018061179d602e913960400191505060405180910390fd5b600054610100900460ff161580156105d9576000805460ff1961ff0019909116610100171660011790555b6105e1610dfb565b6105ee8686868686610ead565b8015610600576000805461ff00191690555b505050505050565b60656020526000908152604090205481565b600061062582611058565b92915050565b60685481565b606a546001600160a01b031681565b33600090815260656020526040902054610659816110bc565b6000610664336110fb565b9050600061067133611058565b905061067c33611135565b83156107ae57600061068e85856111a7565b9050600061069c85836111bf565b3360009081526065602052604090208190556066549091506106be90836111bf565b606681905560408051918252517fc4ca4e3d2fd1965e6d42d851e766d5b9a64dd0a8a670a1516843a0217757fa5d9181900360200190a1606a546040805163a9059cbb60e01b81523360048201526024810185905290516001600160a01b039092169163a9059cbb916044808201926020929091908290030181600087803b15801561074957600080fd5b505af115801561075d573d6000803e3d6000fd5b505050506040513d602081101561077357600080fd5b505060408051828152905133917f39df0e5286a3ef2f42a0bf52f32cfe2c58e5b0405f47fe512f2c2439e4cfe204919081900360200190a250505b6040805182815260208101849052815133927ff744d34ca1cb25acfa4180df5f09a67306107110a9f4b6ed99bb3be259738215928290030190a2606b546040805163a9059cbb60e01b81523360048201526024810184905290516001600160a01b039092169163a9059cbb916044808201926020929091908290030181600087803b15801561083c57600080fd5b505af1158015610850573d6000803e3d6000fd5b505050506040513d602081101561086657600080fd5b5061087290508261121c565b50505050565b6069602052600090815260409020805460019091015482565b6000610625826110fb565b606c546001600160a01b031681565b6108b36112e2565b6001600160a01b03166108c4610963565b6001600160a01b03161461091f576040805162461bcd60e51b815260206004820181905260248201527f4f776e61626c653a2063616c6c6572206973206e6f7420746865206f776e6572604482015290519081900360640190fd5b6033546040516000916001600160a01b0316906000805160206117ec833981519152908390a3603380546001600160a01b0319169055565b60675481565b60665481565b6033546001600160a01b031690565b670de0b6b3a764000081565b6040518060400160405280601481526020017350726f746f636f6c546f6b656e5374616b696e6760601b81525081565b6109b7816112e6565b33600090815260656020526040812054908082156109e6576109d8336110fb565b91506109e333611058565b90505b6109ef33611135565b60006109fb8486611325565b336000908152606560205260409020819055606654909150610a1d9086611325565b606681905560408051918252517fc4ca4e3d2fd1965e6d42d851e766d5b9a64dd0a8a670a1516843a0217757fa5d9181900360200190a1606a5460408051630553e6c560e51b81523360048201526024810188905290516001600160a01b039092169163aa7cd8a09160448082019260009290919082900301818387803b158015610aa757600080fd5b505af1158015610abb573d6000803e3d6000fd5b50506040805184815290513393507f39df0e5286a3ef2f42a0bf52f32cfe2c58e5b0405f47fe512f2c2439e4cfe20492509081900360200190a26040805183815260208101859052815133927ff744d34ca1cb25acfa4180df5f09a67306107110a9f4b6ed99bb3be259738215928290030190a28315610bbf57606b546040805163a9059cbb60e01b81523360048201526024810185905290516001600160a01b039092169163a9059cbb916044808201926020929091908290030181600087803b158015610b8957600080fd5b505af1158015610b9d573d6000803e3d6000fd5b505050506040513d6020811015610bb357600080fd5b50610bbf90508361121c565b5050505050565b606e546001600160a01b031681565b610bdd61137f565b60665460009015610c0a57606654610c0790610c0184670de0b6b3a76400006113c8565b90611421565b90505b606854610c179082611325565b606881905560408051918252517fd35d18f1d1506f94dd33c043c612cce724e9e52b5924bdf2b19d62ddfe26513b9181900360200190a15050565b606d546001600160a01b031681565b610c69611488565b60665460009015610c9057606654610c8d90610c0184670de0b6b3a76400006113c8565b90505b606754610c9d9082611325565b606781905560408051918252517febf7d091f46f1a9713f83361f4b7bdfc07a53d3e0b8582025f6318db750e8b9f9181900360200190a15050565b610ce06112e2565b6001600160a01b0316610cf1610963565b6001600160a01b031614610d4c576040805162461bcd60e51b815260206004820181905260248201527f4f776e61626c653a2063616c6c6572206973206e6f7420746865206f776e6572604482015290519081900360640190fd5b6001600160a01b038116610d915760405162461bcd60e51b81526004018080602001828103825260268152602001806116f26026913960400191505060405180910390fd5b6033546040516001600160a01b038084169216906000805160206117ec83398151915290600090a3603380546001600160a01b0319166001600160a01b0392909216919091179055565b606b546001600160a01b031681565b6000610df5306114d1565b15905090565b600054610100900460ff1680610e145750610e14610dea565b80610e22575060005460ff16155b610e5d5760405162461bcd60e51b815260040180806020018281038252602e81526020018061179d602e913960400191505060405180910390fd5b600054610100900460ff16158015610e88576000805460ff1961ff0019909116610100171660011790555b610e906114d7565b610e98611577565b8015610eaa576000805461ff00191690555b50565b610eb68561165e565b610ebf8461165e565b610ec88361165e565b610ed18261165e565b610eda8161165e565b606a80546001600160a01b038088166001600160a01b03199283168117909355606b8054888316908416179055606c8054878316908416179055606d8054868316908416179055606e80549185169190921617905560408051918252517f8b70fff6eb19dda13b7b98f7e1b6aff53cc8a27c0ffe6282cc22727fdcd4e2319181900360200190a1604080516001600160a01b038616815290517f482942d8b227a1a84982f337b8b18662fde02dc7a4cce912c74090cb529f25909181900360200190a1604080516001600160a01b038516815290517f41097dcc1f7cbd663d822443d7972f05b04f71918b30fe9fc59dd6e42e2280609181900360200190a1604080516001600160a01b038416815290517f5962f8af633c4df1ab230096f773a514ee5adf7785c621ecdcdb764cb7f6e3919181900360200190a1604080516001600160a01b038316815290517f8f6a6e7d20a3233e0a79883272259ffbd7a243734e397bc2b4642c79d7fa8a6d9181900360200190a15050505050565b6001600160a01b03811660009081526069602052604081206001015460685482906110b490670de0b6b3a764000090610c019061109590866111bf565b6001600160a01b038816600090815260656020526040902054906113c8565b949350505050565b60008111610eaa5760405162461bcd60e51b815260040180806020018281038252603581526020018061183b6035913960400191505060405180910390fd5b6001600160a01b03811660009081526069602052604081205460675482906110b490670de0b6b3a764000090610c019061109590866111bf565b606780546001600160a01b038316600081815260696020908152604091829020938455606854600190940184905593548151928352938201939093528083019190915290517f6b5cf27595af4428271524e0a5abd2b63f6fee1a61e31970490f5a10e257a1cd9181900360600190a150565b60008183106111b657816111b8565b825b9392505050565b600082821115611216576040805162461bcd60e51b815260206004820152601e60248201527f536166654d6174683a207375627472616374696f6e206f766572666c6f770000604482015290519081900360640190fd5b50900390565b604080513381526020810183905281517f3b2482b1bf6e751427503c9a8bf79e4dba3e6519259e2220428c2f326cc79c14929181900390910190a1604051600090339083908381818185875af1925050503d8060008114611299576040519150601f19603f3d011682016040523d82523d6000602084013e61129e565b606091505b50509050806112de5760405162461bcd60e51b81526004018080602001828103825260388152602001806116ba6038913960400191505060405180910390fd5b5050565b3390565b60008111610eaa5760405162461bcd60e51b815260040180806020018281038252602d815260200180611746602d913960400191505060405180910390fd5b6000828201838110156111b8576040805162461bcd60e51b815260206004820152601b60248201527f536166654d6174683a206164646974696f6e206f766572666c6f770000000000604482015290519081900360640190fd5b606d546001600160a01b0316331461054a5760405162461bcd60e51b815260040180806020018281038252602f81526020018061180c602f913960400191505060405180910390fd5b6000826113d757506000610625565b828202828482816113e457fe5b04146111b85760405162461bcd60e51b81526004018080602001828103825260218152602001806117cb6021913960400191505060405180910390fd5b6000808211611477576040805162461bcd60e51b815260206004820152601a60248201527f536166654d6174683a206469766973696f6e206279207a65726f000000000000604482015290519081900360640190fd5b81838161148057fe5b049392505050565b606c546001600160a01b0316331461054a5760405162461bcd60e51b815260040180806020018281038252602a815260200180611773602a913960400191505060405180910390fd5b3b151590565b600054610100900460ff16806114f057506114f0610dea565b806114fe575060005460ff16155b6115395760405162461bcd60e51b815260040180806020018281038252602e81526020018061179d602e913960400191505060405180910390fd5b600054610100900460ff16158015610e98576000805460ff1961ff0019909116610100171660011790558015610eaa576000805461ff001916905550565b600054610100900460ff16806115905750611590610dea565b8061159e575060005460ff16155b6115d95760405162461bcd60e51b815260040180806020018281038252602e81526020018061179d602e913960400191505060405180910390fd5b600054610100900460ff16158015611604576000805460ff1961ff0019909116610100171660011790555b600061160e6112e2565b603380546001600160a01b0319166001600160a01b038316908117909155604051919250906000906000805160206117ec833981519152908290a3508015610eaa576000805461ff001916905550565b6001600160a01b038116610eaa576040805162461bcd60e51b815260206004820152601e60248201527f4163636f756e742063616e6e6f74206265207a65726f20616464726573730000604482015290519081900360640190fdfe50726f746f636f6c546f6b656e5374616b696e673a204661696c656420746f2073656e6420616363756d756c617465642046494c4761696e4f776e61626c653a206e6577206f776e657220697320746865207a65726f206164647265737350726f746f636f6c546f6b656e5374616b696e673a2063616c6c6572206973206e6f7420416374697665506f6f6c50726f746f636f6c546f6b656e5374616b696e673a20416d6f756e74206d757374206265206e6f6e2d7a65726f50726f746f636f6c546f6b656e5374616b696e673a2063616c6c6572206973206e6f742054726f76654d496e697469616c697a61626c653a20636f6e747261637420697320616c726561647920696e697469616c697a6564536166654d6174683a206d756c7469706c69636174696f6e206f766572666c6f778be0079c531659141344cd1fd0a4f28419497f9722a3daafe3b4186f6b6457e050726f746f636f6c546f6b656e5374616b696e673a2063616c6c6572206973206e6f7420426f72726f7765724f707350726f746f636f6c546f6b656e5374616b696e673a2055736572206d75737420686176652061206e6f6e2d7a65726f207374616b65a26469706673582212206956053581b7ae66a616f0df9216c3ec1805109738c9d1d74db8712be4888fee64736f6c63430007060033",
  "linkReferences": {},
  "deployedLinkReferences": {}
}