{
  "_format": "hh-sol-artifact-1",
  "contractName": "ProtocolToken",
  "sourceName": "contracts/ProtocolToken/ProtocolToken.sol",
  "abi": [
    {
      "inputs": [
        {
          "internalType": "address",
          "name": "_communityIssuanceAddress",
          "type": "address"
        },
        {
          "internalType": "address",
          "name": "_protocolTokenStakingAddress",
          "type": "address"
        },
        {
          "internalType": "address",
          "name": "_lockupFactoryAddress",
          "type": "address"
        },
        {
          "internalType": "address",
          "name": "_bountyAddress",
          "type": "address"
        },
        {
          "internalType": "address",
          "name": "_lpRewardsAddress",
          "type": "address"
        },
        {
          "internalType": "address",
          "name": "_multisigAddress",
          "type": "address"
        }
      ],
      "stateMutability": "nonpayable",
      "type": "constructor"
    },
    {
      "anonymous": false,
      "inputs": [
        {
          "indexed": true,
          "internalType": "address",
          "name": "owner",
          "type": "address"
        },
        {
          "indexed": true,
          "internalType": "address",
          "name": "spender",
          "type": "address"
        },
        {
          "indexed": false,
          "internalType": "uint256",
          "name": "value",
          "type": "uint256"
        }
      ],
      "name": "Approval",
      "type": "event"
    },
    {
      "anonymous": false,
      "inputs": [
        {
          "indexed": true,
          "internalType": "address",
          "name": "from",
          "type": "address"
        },
        {
          "indexed": true,
          "internalType": "address",
          "name": "to",
          "type": "address"
        },
        {
          "indexed": false,
          "internalType": "uint256",
          "name": "value",
          "type": "uint256"
        }
      ],
      "name": "Transfer",
      "type": "event"
    },
    {
      "inputs": [],
      "name": "ONE_YEAR_IN_SECONDS",
      "outputs": [
        {
          "internalType": "uint256",
          "name": "",
          "type": "uint256"
        }
      ],
      "stateMutability": "view",
      "type": "function"
    },
    {
      "inputs": [
        {
          "internalType": "address",
          "name": "owner",
          "type": "address"
        },
        {
          "internalType": "address",
          "name": "spender",
          "type": "address"
        }
      ],
      "name": "allowance",
      "outputs": [
        {
          "internalType": "uint256",
          "name": "",
          "type": "uint256"
        }
      ],
      "stateMutability": "view",
      "type": "function"
    },
    {
      "inputs": [
        {
          "internalType": "address",
          "name": "spender",
          "type": "address"
        },
        {
          "internalType": "uint256",
          "name": "amount",
          "type": "uint256"
        }
      ],
      "name": "approve",
      "outputs": [
        {
          "internalType": "bool",
          "name": "",
          "type": "bool"
        }
      ],
      "stateMutability": "nonpayable",
      "type": "function"
    },
    {
      "inputs": [
        {
          "internalType": "address",
          "name": "account",
          "type": "address"
        }
      ],
      "name": "balanceOf",
      "outputs": [
        {
          "internalType": "uint256",
          "name": "",
          "type": "uint256"
        }
      ],
      "stateMutability": "view",
      "type": "function"
    },
    {
      "inputs": [],
      "name": "communityIssuanceAddress",
      "outputs": [
        {
          "internalType": "address",
          "name": "",
          "type": "address"
        }
      ],
      "stateMutability": "view",
      "type": "function"
    },
    {
      "inputs": [],
      "name": "decimals",
      "outputs": [
        {
          "internalType": "uint8",
          "name": "",
          "type": "uint8"
        }
      ],
      "stateMutability": "pure",
      "type": "function"
    },
    {
      "inputs": [
        {
          "internalType": "address",
          "name": "spender",
          "type": "address"
        },
        {
          "internalType": "uint256",
          "name": "subtractedValue",
          "type": "uint256"
        }
      ],
      "name": "decreaseAllowance",
      "outputs": [
        {
          "internalType": "bool",
          "name": "",
          "type": "bool"
        }
      ],
      "stateMutability": "nonpayable",
      "type": "function"
    },
    {
      "inputs": [],
      "name": "domainSeparator",
      "outputs": [
        {
          "internalType": "bytes32",
          "name": "",
          "type": "bytes32"
        }
      ],
      "stateMutability": "view",
      "type": "function"
    },
    {
      "inputs": [],
      "name": "getDeploymentStartTime",
      "outputs": [
        {
          "internalType": "uint256",
          "name": "",
          "type": "uint256"
        }
      ],
      "stateMutability": "view",
      "type": "function"
    },
    {
      "inputs": [],
      "name": "getLpRewardsEntitlement",
      "outputs": [
        {
          "internalType": "uint256",
          "name": "",
          "type": "uint256"
        }
      ],
      "stateMutability": "view",
      "type": "function"
    },
    {
      "inputs": [
        {
          "internalType": "address",
          "name": "spender",
          "type": "address"
        },
        {
          "internalType": "uint256",
          "name": "addedValue",
          "type": "uint256"
        }
      ],
      "name": "increaseAllowance",
      "outputs": [
        {
          "internalType": "bool",
          "name": "",
          "type": "bool"
        }
      ],
      "stateMutability": "nonpayable",
      "type": "function"
    },
    {
      "inputs": [],
      "name": "lockupContractFactory",
      "outputs": [
        {
          "internalType": "contract ILockupContractFactory",
          "name": "",
          "type": "address"
        }
      ],
      "stateMutability": "view",
      "type": "function"
    },
    {
      "inputs": [],
      "name": "multisigAddress",
      "outputs": [
        {
          "internalType": "address",
          "name": "",
          "type": "address"
        }
      ],
      "stateMutability": "view",
      "type": "function"
    },
    {
      "inputs": [],
      "name": "name",
      "outputs": [
        {
          "internalType": "string",
          "name": "",
          "type": "string"
        }
      ],
      "stateMutability": "pure",
      "type": "function"
    },
    {
      "inputs": [
        {
          "internalType": "address",
          "name": "owner",
          "type": "address"
        }
      ],
      "name": "nonces",
      "outputs": [
        {
          "internalType": "uint256",
          "name": "",
          "type": "uint256"
        }
      ],
      "stateMutability": "view",
      "type": "function"
    },
    {
      "inputs": [
        {
          "internalType": "address",
          "name": "owner",
          "type": "address"
        },
        {
          "internalType": "address",
          "name": "spender",
          "type": "address"
        },
        {
          "internalType": "uint256",
          "name": "amount",
          "type": "uint256"
        },
        {
          "internalType": "uint256",
          "name": "deadline",
          "type": "uint256"
        },
        {
          "internalType": "uint8",
          "name": "v",
          "type": "uint8"
        },
        {
          "internalType": "bytes32",
          "name": "r",
          "type": "bytes32"
        },
        {
          "internalType": "bytes32",
          "name": "s",
          "type": "bytes32"
        }
      ],
      "name": "permit",
      "outputs": [],
      "stateMutability": "nonpayable",
      "type": "function"
    },
    {
      "inputs": [],
      "name": "permitTypeHash",
      "outputs": [
        {
          "internalType": "bytes32",
          "name": "",
          "type": "bytes32"
        }
      ],
      "stateMutability": "pure",
      "type": "function"
    },
    {
      "inputs": [],
      "name": "protocolTokenStakingAddress",
      "outputs": [
        {
          "internalType": "address",
          "name": "",
          "type": "address"
        }
      ],
      "stateMutability": "view",
      "type": "function"
    },
    {
      "inputs": [
        {
          "internalType": "address",
          "name": "_sender",
          "type": "address"
        },
        {
          "internalType": "uint256",
          "name": "_amount",
          "type": "uint256"
        }
      ],
      "name": "sendToProtocolTokenStaking",
      "outputs": [],
      "stateMutability": "nonpayable",
      "type": "function"
    },
    {
      "inputs": [],
      "name": "symbol",
      "outputs": [
        {
          "internalType": "string",
          "name": "",
          "type": "string"
        }
      ],
      "stateMutability": "pure",
      "type": "function"
    },
    {
      "inputs": [],
      "name": "totalSupply",
      "outputs": [
        {
          "internalType": "uint256",
          "name": "",
          "type": "uint256"
        }
      ],
      "stateMutability": "view",
      "type": "function"
    },
    {
      "inputs": [
        {
          "internalType": "address",
          "name": "recipient",
          "type": "address"
        },
        {
          "internalType": "uint256",
          "name": "amount",
          "type": "uint256"
        }
      ],
      "name": "transfer",
      "outputs": [
        {
          "internalType": "bool",
          "name": "",
          "type": "bool"
        }
      ],
      "stateMutability": "nonpayable",
      "type": "function"
    },
    {
      "inputs": [
        {
          "internalType": "address",
          "name": "sender",
          "type": "address"
        },
        {
          "internalType": "address",
          "name": "recipient",
          "type": "address"
        },
        {
          "internalType": "uint256",
          "name": "amount",
          "type": "uint256"
        }
      ],
      "name": "transferFrom",
      "outputs": [
        {
          "internalType": "bool",
          "name": "",
          "type": "bool"
        }
      ],
      "stateMutability": "nonpayable",
      "type": "function"
    },
    {
      "inputs": [],
      "name": "version",
      "outputs": [
        {
          "internalType": "string",
          "name": "",
          "type": "string"
        }
      ],
      "stateMutability": "pure",
      "type": "function"
    }
  ],
  "bytecode": "0x6101c060405269d3c21bcecceda10000006004553480156200002057600080fd5b5060405162001e0f38038062001e0f833981810160405260c08110156200004657600080fd5b508051602082015160408301516060840151608085015160a090950151939492939192909162000076866200028b565b62000081856200028b565b6200008c846200028b565b6001600160601b0319606082811b821661012052426101005287811b82166101405286811b82166101605285901b166101a052604080518082018252600f81526e536563757265642046696e616e636560881b602091820152815180830190925260018252603160f81b9101527f6f8eb4b4689a82d905598a38ac07fa2fcb9c04c0544555c89646506313c3e18460c08190527fc89efdaa54c0f20c7adf612882df0950f5a951637e0307cdcb4c672f298b8bc660e08190526200014f62000340565b60a0526200017f7f8b73c3c69bb8fe3d512ecc4cf759cc79239f7b179b0ffacaa9a75d522b39400f838362000344565b608081815250506000620001a56002600454620003a860201b62000b031790919060201c565b9050620001b386826200040f565b600454600090620001cf90602062000b03620003a8821b17811c565b9050620001dd8a826200040f565b60006200021560036200020160048054620003a860201b62000b031790919060201c565b6200051060201b62000b631790919060201c565b61018081905290506200022987826200040f565b60006200026b8262000257856200025788620002576064600454620003a860201b62000b031790919060201c565b6200055a60201b62000ba51790919060201c565b90506200027987826200040f565b50505050505050505050505062000703565b6001600160a01b038116620002e7576040805162461bcd60e51b815260206004820152601e60248201527f4163636f756e742063616e6e6f74206265207a65726f20616464726573730000604482015290519081900360640190fd5b803b806200033c576040805162461bcd60e51b815260206004820181905260248201527f4163636f756e7420636f64652073697a652063616e6e6f74206265207a65726f604482015290519081900360640190fd5b5050565b4690565b60008383836200035362000340565b3060405160200180868152602001858152602001848152602001838152602001826001600160a01b03168152602001955050505050506040516020818303038152906040528051906020012090509392505050565b600082620003b95750600062000409565b82820282848281620003c757fe5b0414620004065760405162461bcd60e51b815260040180806020018281038252602181526020018062001dee6021913960400191505060405180910390fd5b90505b92915050565b6001600160a01b0382166200046b576040805162461bcd60e51b815260206004820152601f60248201527f45524332303a206d696e7420746f20746865207a65726f206164647265737300604482015290519081900360640190fd5b6200048781600254620005a460201b62000be71790919060201c565b6002556001600160a01b03821660009081526020818152604090912054620004ba91839062000be7620005a4821b17901c565b6001600160a01b0383166000818152602081815260408083209490945583518581529351929391927fddf252ad1be2c89b69c2b068fc378daa952ba7f163c4a11628f55a4df523b3ef9281900390910190a35050565b60006200040683836040518060400160405280601a81526020017f536166654d6174683a206469766973696f6e206279207a65726f000000000000815250620005ff60201b60201c565b60006200040683836040518060400160405280601e81526020017f536166654d6174683a207375627472616374696f6e206f766572666c6f770000815250620006a660201b60201c565b60008282018381101562000406576040805162461bcd60e51b815260206004820152601b60248201527f536166654d6174683a206164646974696f6e206f766572666c6f770000000000604482015290519081900360640190fd5b600081836200068f5760405162461bcd60e51b81526004018080602001828103825283818151815260200191508051906020019080838360005b838110156200065357818101518382015260200162000639565b50505050905090810190601f168015620006815780820380516001836020036101000a031916815260200191505b509250505060405180910390fd5b5060008385816200069c57fe5b0495945050505050565b60008184841115620006fb5760405162461bcd60e51b81526020600482018181528351602484015283519092839260449091019190850190808383600083156200065357818101518382015260200162000639565b505050900390565b60805160a05160c05160e051610100516101205160601c6101405160601c6101605160601c610180516101a05160601c611645620007a96000398061069152806111415250806106d252508061063752806107b75280610eb9528061121e5250806109e45280610e7c5250806105f85280610dac528061111b5250806105d45280610c4e525080610ad8525080610ab7525080610a3d525080610a6d52506116456000f3fe608060405234801561001057600080fd5b50600436106101585760003560e01c80637ecebe00116100c3578063aa7cd8a01161007c578063aa7cd8a0146103b4578063d505accf146103e2578063d874ea7414610433578063dd62ed3e1461043b578063e7c8fed414610469578063f698da251461047157610158565b80637ecebe001461031e578063811c5b4d1461034457806395d89b411461034c578063974f559014610354578063a457c2d71461035c578063a9059cbb1461038857610158565b8063395093511161011557806339509351146102905780633c84b7c2146102bc5780635462870d146102c457806354fd4d50146102e857806357aae46b146102f057806370a08231146102f857610158565b806306fdde031461015d578063095ea7b3146101da57806310ce43bd1461021a57806318160ddd1461023457806323b872dd1461023c578063313ce56714610272575b600080fd5b610165610479565b6040805160208082528351818301528351919283929083019185019080838360005b8381101561019f578181015183820152602001610187565b50505050905090810190601f1680156101cc5780820380516001836020036101000a031916815260200191505b509250505060405180910390f35b610206600480360360408110156101f057600080fd5b506001600160a01b0381351690602001356104a3565b604080519115158252519081900360200190f35b6102226104cf565b60408051918252519081900360200190f35b6102226104f3565b6102066004803603606081101561025257600080fd5b506001600160a01b038135811691602081013590911690604001356104f9565b61027a610581565b6040805160ff9092168252519081900360200190f35b610206600480360360408110156102a657600080fd5b506001600160a01b038135169060200135610586565b6102226105d2565b6102cc6105f6565b604080516001600160a01b039092168252519081900360200190f35b61016561061a565b6102cc610635565b6102226004803603602081101561030e57600080fd5b50356001600160a01b0316610659565b6102226004803603602081101561033457600080fd5b50356001600160a01b0316610674565b6102cc61068f565b6101656106b3565b6102226106d0565b6102066004803603604081101561037257600080fd5b506001600160a01b0381351690602001356106f4565b6102066004803603604081101561039e57600080fd5b506001600160a01b038135169060200135610758565b6103e0600480360360408110156103ca57600080fd5b506001600160a01b038135169060200135610793565b005b6103e0600480360360e08110156103f857600080fd5b506001600160a01b03813581169160208101359091169060408101359060608101359060ff6080820135169060a08101359060c001356107e0565b6102cc6109e2565b6102226004803603604081101561045157600080fd5b506001600160a01b0381358116916020013516610a06565b610222610a31565b610222610a39565b60408051808201909152600f81526e536563757265642046696e616e636560881b60208201525b90565b60006104ad610c41565b156104ba576104ba610c78565b6104c5338484610cbe565b5060015b92915050565b7f6e71edae12b1b97f4d1f60370fef10105fa2faae0126114a169c64845d6126c990565b60025490565b6000610503610c41565b156105115761051184610daa565b61051a83610e1e565b610525848484610f29565b6105778433610572856040518060600160405280602881526020016114f0602891396001600160a01b038a1660009081526001602090815260408083203384529091529020549190611079565b610cbe565b5060019392505050565b601290565b6000610590610c41565b1561059d5761059d610c78565b3360008181526001602090815260408083206001600160a01b03881684529091529020546104c5919085906105729086610be7565b7f000000000000000000000000000000000000000000000000000000000000000090565b7f000000000000000000000000000000000000000000000000000000000000000081565b6040805180820190915260018152603160f81b602082015290565b7f000000000000000000000000000000000000000000000000000000000000000081565b6001600160a01b031660009081526020819052604090205490565b6001600160a01b031660009081526003602052604090205490565b7f000000000000000000000000000000000000000000000000000000000000000081565b60408051808201909152600381526229a1a960e91b602082015290565b7f000000000000000000000000000000000000000000000000000000000000000090565b60006106fe610c41565b1561070b5761070b610c78565b6104c53384610572856040518060600160405280602581526020016115eb602591393360009081526001602090815260408083206001600160a01b038d1684529091529020549190611079565b6000610762611110565b80156107715750610771610c41565b1561077f5761077f8361113f565b61078883610e1e565b6104c5338484610f29565b61079b611213565b6107a3610c41565b156107b1576107b182610daa565b6107dc827f000000000000000000000000000000000000000000000000000000000000000083610f29565b5050565b42841015610835576040805162461bcd60e51b815260206004820152601f60248201527f50726f746f636f6c546f6b656e3a206578706972656420646561646c696e6500604482015290519081900360640190fd5b600061083f610a39565b6001600160a01b03808a1660008181526003602090815260408083208054600180820190925582517f6e71edae12b1b97f4d1f60370fef10105fa2faae0126114a169c64845d6126c98186015280840196909652958e166060860152608085018d905260a085019590955260c08085018c90528151808603909101815260e08501825280519083012061190160f01b6101008601526101028501969096526101228085019690965280518085039096018652610142840180825286519683019690962095839052610162840180825286905260ff8a166101828501526101a284018990526101c284018890525194955090936101e280840193601f198301929081900390910190855afa15801561095a573d6000803e3d6000fd5b505050602060405103519050886001600160a01b0316816001600160a01b0316146109cc576040805162461bcd60e51b815260206004820181905260248201527f50726f746f636f6c546f6b656e3a20696e76616c6964207369676e6174757265604482015290519081900360640190fd5b6109d7898989610cbe565b505050505050505050565b7f000000000000000000000000000000000000000000000000000000000000000081565b6001600160a01b03918216600090815260016020908152604080832093909416825291909152205490565b6301e1338081565b60007f0000000000000000000000000000000000000000000000000000000000000000610a6461127a565b1415610a9157507f00000000000000000000000000000000000000000000000000000000000000006104a0565b610afc7f8b73c3c69bb8fe3d512ecc4cf759cc79239f7b179b0ffacaa9a75d522b39400f7f00000000000000000000000000000000000000000000000000000000000000007f000000000000000000000000000000000000000000000000000000000000000061127e565b90506104a0565b600082610b12575060006104c9565b82820282848281610b1f57fe5b0414610b5c5760405162461bcd60e51b81526004018080602001828103825260218152602001806114cf6021913960400191505060405180910390fd5b9392505050565b6000610b5c83836040518060400160405280601a81526020017f536166654d6174683a206469766973696f6e206279207a65726f0000000000008152506112e0565b6000610b5c83836040518060400160405280601e81526020017f536166654d6174683a207375627472616374696f6e206f766572666c6f770000815250611079565b600082820183811015610b5c576040805162461bcd60e51b815260206004820152601b60248201527f536166654d6174683a206164646974696f6e206f766572666c6f770000000000604482015290519081900360640190fd5b60006301e13380610c72427f0000000000000000000000000000000000000000000000000000000000000000610ba5565b10905090565b610c80611110565b15610cbc5760405162461bcd60e51b815260040180806020018281038252602e815260200180611456602e913960400191505060405180910390fd5b565b6001600160a01b038316610d035760405162461bcd60e51b81526004018080602001828103825260248152602001806115c76024913960400191505060405180910390fd5b6001600160a01b038216610d485760405162461bcd60e51b81526004018080602001828103825260228152602001806113a86022913960400191505060405180910390fd5b6001600160a01b03808416600081815260016020908152604080832094871680845294825291829020859055815185815291517f8c5be1e5ebec7d5bd14f71427d1e84f3dd0314c0f7b2291e5b200ac8c7c3b9259281900390910190a3505050565b7f00000000000000000000000000000000000000000000000000000000000000006001600160a01b0316816001600160a01b03161415610e1b5760405162461bcd60e51b815260040180806020018281038252602e815260200180611574602e913960400191505060405180910390fd5b50565b6001600160a01b03811615801590610e3f57506001600160a01b0381163014155b610e7a5760405162461bcd60e51b81526004018080602001828103825260668152602001806113ca6066913960800191505060405180910390fd5b7f00000000000000000000000000000000000000000000000000000000000000006001600160a01b0316816001600160a01b031614158015610eee57507f00000000000000000000000000000000000000000000000000000000000000006001600160a01b0316816001600160a01b031614155b610e1b5760405162461bcd60e51b815260040180806020018281038252605c815260200180611518605c913960600191505060405180910390fd5b6001600160a01b038316610f6e5760405162461bcd60e51b81526004018080602001828103825260258152602001806115a26025913960400191505060405180910390fd5b6001600160a01b038216610fb35760405162461bcd60e51b81526004018080602001828103825260238152602001806113466023913960400191505060405180910390fd5b610ff081604051806060016040528060268152602001611430602691396001600160a01b0386166000908152602081905260409020549190611079565b6001600160a01b03808516600090815260208190526040808220939093559084168152205461101f9082610be7565b6001600160a01b038084166000818152602081815260409182902094909455805185815290519193928716927fddf252ad1be2c89b69c2b068fc378daa952ba7f163c4a11628f55a4df523b3ef92918290030190a3505050565b600081848411156111085760405162461bcd60e51b81526004018080602001828103825283818151815260200191508051906020019080838360005b838110156110cd5781810151838201526020016110b5565b50505050905090810190601f1680156110fa5780820380516001836020036101000a031916815260200191505b509250505060405180910390fd5b505050900390565b336001600160a01b037f0000000000000000000000000000000000000000000000000000000000000000161490565b7f00000000000000000000000000000000000000000000000000000000000000006001600160a01b031663bb7603f1826040518263ffffffff1660e01b815260040180826001600160a01b0316815260200191505060206040518083038186803b1580156111ac57600080fd5b505afa1580156111c0573d6000803e3d6000fd5b505050506040513d60208110156111d657600080fd5b5051610e1b5760405162461bcd60e51b815260040180806020018281038252604b815260200180611484604b913960600191505060405180910390fd5b336001600160a01b037f00000000000000000000000000000000000000000000000000000000000000001614610cbc5760405162461bcd60e51b815260040180806020018281038252603f815260200180611369603f913960400191505060405180910390fd5b4690565b600083838361128b61127a565b3060405160200180868152602001858152602001848152602001838152602001826001600160a01b03168152602001955050505050506040516020818303038152906040528051906020012090509392505050565b6000818361132f5760405162461bcd60e51b81526020600482018181528351602484015283519092839260449091019190850190808383600083156110cd5781810151838201526020016110b5565b50600083858161133b57fe5b049594505050505056fe45524332303a207472616e7366657220746f20746865207a65726f206164647265737350726f746f636f6c546f6b656e3a2063616c6c6572206d757374206265207468652050726f746f636f6c546f6b656e5374616b696e6720636f6e747261637445524332303a20617070726f766520746f20746865207a65726f206164647265737350726f746f636f6c546f6b656e3a2043616e6e6f74207472616e7366657220746f6b656e73206469726563746c7920746f207468652050726f746f636f6c546f6b656e20746f6b656e20636f6e7472616374206f7220746865207a65726f206164647265737345524332303a207472616e7366657220616d6f756e7420657863656564732062616c616e636550726f746f636f6c546f6b656e3a2063616c6c6572206d757374206e6f7420626520746865206d756c746973696750726f746f636f6c546f6b656e3a20726563697069656e74206d7573742062652061204c6f636b7570436f6e7472616374207265676973746572656420696e2074686520466163746f7279536166654d6174683a206d756c7469706c69636174696f6e206f766572666c6f7745524332303a207472616e7366657220616d6f756e74206578636565647320616c6c6f77616e636550726f746f636f6c546f6b656e3a2043616e6e6f74207472616e7366657220746f6b656e73206469726563746c7920746f2074686520636f6d6d756e6974792069737375616e6365206f72207374616b696e6720636f6e747261637450726f746f636f6c546f6b656e3a2073656e646572206d757374206e6f7420626520746865206d756c746973696745524332303a207472616e736665722066726f6d20746865207a65726f206164647265737345524332303a20617070726f76652066726f6d20746865207a65726f206164647265737345524332303a2064656372656173656420616c6c6f77616e63652062656c6f77207a65726fa2646970667358221220adf2fa9701cb33cef3dbef7d683800019c4ddd05d065af733b4c01fc5054edee64736f6c63430007060033536166654d6174683a206d756c7469706c69636174696f6e206f766572666c6f77",
  "linkReferences": {},
  "deployedLinkReferences": {}
}