{
  "_format": "hh-sol-artifact-1",
  "contractName": "ProtocolToken",
  "sourceName": "contracts/ProtocolToken/ProtocolToken.sol",
  "abi": [
    {
      "anonymous": false,
      "inputs": [
        {
          "indexed": false,
          "internalType": "uint256",
          "name": "_annualAllocationRate",
          "type": "uint256"
        }
      ],
      "name": "AnnualAllocationRateUpdated",
      "type": "event"
    },
    {
      "anonymous": false,
      "inputs": [
        {
          "indexed": false,
          "internalType": "address",
          "name": "_annualAllocationRecipient",
          "type": "address"
        }
      ],
      "name": "AnnualAllocationRecipientUpdated",
      "type": "event"
    },
    {
      "anonymous": false,
      "inputs": [
        {
          "indexed": true,
          "internalType": "address",
          "name": "owner",
          "type": "address"
        },
        {
          "indexed": true,
          "internalType": "address",
          "name": "spender",
          "type": "address"
        },
        {
          "indexed": false,
          "internalType": "uint256",
          "name": "value",
          "type": "uint256"
        }
      ],
      "name": "Approval",
      "type": "event"
    },
    {
      "anonymous": false,
      "inputs": [
        {
          "indexed": true,
          "internalType": "address",
          "name": "previousOwner",
          "type": "address"
        },
        {
          "indexed": true,
          "internalType": "address",
          "name": "newOwner",
          "type": "address"
        }
      ],
      "name": "OwnershipTransferred",
      "type": "event"
    },
    {
      "anonymous": false,
      "inputs": [
        {
          "indexed": true,
          "internalType": "address",
          "name": "from",
          "type": "address"
        },
        {
          "indexed": true,
          "internalType": "address",
          "name": "to",
          "type": "address"
        },
        {
          "indexed": false,
          "internalType": "uint256",
          "name": "value",
          "type": "uint256"
        }
      ],
      "name": "Transfer",
      "type": "event"
    },
    {
      "inputs": [],
      "name": "_100pct",
      "outputs": [
        {
          "internalType": "uint256",
          "name": "",
          "type": "uint256"
        }
      ],
      "stateMutability": "view",
      "type": "function"
    },
    {
      "inputs": [
        {
          "internalType": "uint256",
          "name": "",
          "type": "uint256"
        }
      ],
      "name": "allocationTriggered",
      "outputs": [
        {
          "internalType": "bool",
          "name": "",
          "type": "bool"
        }
      ],
      "stateMutability": "view",
      "type": "function"
    },
    {
      "inputs": [
        {
          "internalType": "address",
          "name": "_owner",
          "type": "address"
        },
        {
          "internalType": "address",
          "name": "_spender",
          "type": "address"
        }
      ],
      "name": "allowance",
      "outputs": [
        {
          "internalType": "uint256",
          "name": "",
          "type": "uint256"
        }
      ],
      "stateMutability": "view",
      "type": "function"
    },
    {
      "inputs": [],
      "name": "annualAllocationRate",
      "outputs": [
        {
          "internalType": "uint256",
          "name": "",
          "type": "uint256"
        }
      ],
      "stateMutability": "view",
      "type": "function"
    },
    {
      "inputs": [],
      "name": "annualAllocationRecipient",
      "outputs": [
        {
          "internalType": "address",
          "name": "",
          "type": "address"
        }
      ],
      "stateMutability": "view",
      "type": "function"
    },
    {
      "inputs": [
        {
          "internalType": "address",
          "name": "_spender",
          "type": "address"
        },
        {
          "internalType": "uint256",
          "name": "_amount",
          "type": "uint256"
        }
      ],
      "name": "approve",
      "outputs": [
        {
          "internalType": "bool",
          "name": "",
          "type": "bool"
        }
      ],
      "stateMutability": "nonpayable",
      "type": "function"
    },
    {
      "inputs": [
        {
          "internalType": "address",
          "name": "_account",
          "type": "address"
        }
      ],
      "name": "balanceOf",
      "outputs": [
        {
          "internalType": "uint256",
          "name": "",
          "type": "uint256"
        }
      ],
      "stateMutability": "view",
      "type": "function"
    },
    {
      "inputs": [],
      "name": "decimals",
      "outputs": [
        {
          "internalType": "uint8",
          "name": "",
          "type": "uint8"
        }
      ],
      "stateMutability": "pure",
      "type": "function"
    },
    {
      "inputs": [],
      "name": "domainSeparator",
      "outputs": [
        {
          "internalType": "bytes32",
          "name": "",
          "type": "bytes32"
        }
      ],
      "stateMutability": "view",
      "type": "function"
    },
    {
      "inputs": [],
      "name": "getAllocationStartTime",
      "outputs": [
        {
          "internalType": "uint256",
          "name": "",
          "type": "uint256"
        }
      ],
      "stateMutability": "view",
      "type": "function"
    },
    {
      "inputs": [
        {
          "internalType": "address",
          "name": "_protocolTokenStakingAddress",
          "type": "address"
        },
        {
          "internalType": "address",
          "name": "_annualAllocationRecipient",
          "type": "address"
        },
        {
          "internalType": "uint256",
          "name": "_annualAllocationRate",
          "type": "uint256"
        }
      ],
      "name": "initialize",
      "outputs": [],
      "stateMutability": "nonpayable",
      "type": "function"
    },
    {
      "inputs": [],
      "name": "name",
      "outputs": [
        {
          "internalType": "string",
          "name": "",
          "type": "string"
        }
      ],
      "stateMutability": "pure",
      "type": "function"
    },
    {
      "inputs": [
        {
          "internalType": "address",
          "name": "_owner",
          "type": "address"
        }
      ],
      "name": "nonces",
      "outputs": [
        {
          "internalType": "uint256",
          "name": "",
          "type": "uint256"
        }
      ],
      "stateMutability": "view",
      "type": "function"
    },
    {
      "inputs": [],
      "name": "owner",
      "outputs": [
        {
          "internalType": "address",
          "name": "",
          "type": "address"
        }
      ],
      "stateMutability": "view",
      "type": "function"
    },
    {
      "inputs": [
        {
          "internalType": "address",
          "name": "_owner",
          "type": "address"
        },
        {
          "internalType": "address",
          "name": "_spender",
          "type": "address"
        },
        {
          "internalType": "uint256",
          "name": "_amount",
          "type": "uint256"
        },
        {
          "internalType": "uint256",
          "name": "_deadline",
          "type": "uint256"
        },
        {
          "internalType": "uint8",
          "name": "_v",
          "type": "uint8"
        },
        {
          "internalType": "bytes32",
          "name": "_r",
          "type": "bytes32"
        },
        {
          "internalType": "bytes32",
          "name": "_s",
          "type": "bytes32"
        }
      ],
      "name": "permit",
      "outputs": [],
      "stateMutability": "nonpayable",
      "type": "function"
    },
    {
      "inputs": [],
      "name": "permitTypeHash",
      "outputs": [
        {
          "internalType": "bytes32",
          "name": "",
          "type": "bytes32"
        }
      ],
      "stateMutability": "pure",
      "type": "function"
    },
    {
      "inputs": [],
      "name": "protocolTokenStakingAddress",
      "outputs": [
        {
          "internalType": "address",
          "name": "",
          "type": "address"
        }
      ],
      "stateMutability": "view",
      "type": "function"
    },
    {
      "inputs": [],
      "name": "renounceOwnership",
      "outputs": [],
      "stateMutability": "nonpayable",
      "type": "function"
    },
    {
      "inputs": [
        {
          "internalType": "address",
          "name": "_sender",
          "type": "address"
        },
        {
          "internalType": "uint256",
          "name": "_amount",
          "type": "uint256"
        }
      ],
      "name": "sendToProtocolTokenStaking",
      "outputs": [],
      "stateMutability": "nonpayable",
      "type": "function"
    },
    {
      "inputs": [],
      "name": "symbol",
      "outputs": [
        {
          "internalType": "string",
          "name": "",
          "type": "string"
        }
      ],
      "stateMutability": "pure",
      "type": "function"
    },
    {
      "inputs": [],
      "name": "totalSupply",
      "outputs": [
        {
          "internalType": "uint256",
          "name": "",
          "type": "uint256"
        }
      ],
      "stateMutability": "view",
      "type": "function"
    },
    {
      "inputs": [
        {
          "internalType": "address",
          "name": "_recipient",
          "type": "address"
        },
        {
          "internalType": "uint256",
          "name": "_amount",
          "type": "uint256"
        }
      ],
      "name": "transfer",
      "outputs": [
        {
          "internalType": "bool",
          "name": "",
          "type": "bool"
        }
      ],
      "stateMutability": "nonpayable",
      "type": "function"
    },
    {
      "inputs": [
        {
          "internalType": "address",
          "name": "_sender",
          "type": "address"
        },
        {
          "internalType": "address",
          "name": "_recipient",
          "type": "address"
        },
        {
          "internalType": "uint256",
          "name": "_amount",
          "type": "uint256"
        }
      ],
      "name": "transferFrom",
      "outputs": [
        {
          "internalType": "bool",
          "name": "",
          "type": "bool"
        }
      ],
      "stateMutability": "nonpayable",
      "type": "function"
    },
    {
      "inputs": [
        {
          "internalType": "address",
          "name": "newOwner",
          "type": "address"
        }
      ],
      "name": "transferOwnership",
      "outputs": [],
      "stateMutability": "nonpayable",
      "type": "function"
    },
    {
      "inputs": [],
      "name": "triggerAnnualAllocation",
      "outputs": [],
      "stateMutability": "nonpayable",
      "type": "function"
    },
    {
      "inputs": [
        {
          "internalType": "address[]",
          "name": "_accounts",
          "type": "address[]"
        },
        {
          "internalType": "uint256[]",
          "name": "_amounts",
          "type": "uint256[]"
        }
      ],
      "name": "triggerInitialAllocation",
      "outputs": [],
      "stateMutability": "nonpayable",
      "type": "function"
    },
    {
      "inputs": [
        {
          "internalType": "uint256",
          "name": "_annualAllocationRate",
          "type": "uint256"
        }
      ],
      "name": "updateAnnualAllocationRate",
      "outputs": [],
      "stateMutability": "nonpayable",
      "type": "function"
    },
    {
      "inputs": [
        {
          "internalType": "address",
          "name": "_annualAllocationRecipient",
          "type": "address"
        }
      ],
      "name": "updateAnnualAllocationRecipient",
      "outputs": [],
      "stateMutability": "nonpayable",
      "type": "function"
    },
    {
      "inputs": [],
      "name": "version",
      "outputs": [
        {
          "internalType": "string",
          "name": "",
          "type": "string"
        }
      ],
      "stateMutability": "pure",
      "type": "function"
    }
  ],
  "bytecode": "0x608060405234801561001057600080fd5b50611e3d806100206000396000f3fe608060405234801561001057600080fd5b506004361061018f5760003560e01c8063715018a6116100e4578063a9059cbb11610092578063a9059cbb1461050d578063aa7cd8a014610539578063cb25bdde14610565578063d505accf1461056d578063dd62ed3e146105be578063f1b9946f146105ec578063f2fde38b14610609578063f698da251461062f5761018f565b8063715018a6146104a157806372fe25aa146104a95780637ecebe00146104b15780638da5cb5b146104d757806395d89b41146102b95780639bd89ffd146104df578063a57cb58a146104e75761018f565b806323b872dd1161014157806323b872dd146103eb5780632b5ba98e146104215780632ff5f14414610429578063313ce5671461044d57806354fd4d501461046b57806357aae46b1461047357806370a082311461047b5761018f565b806306f8f0b71461019457806306fdde03146102b9578063095ea7b31461033657806310ce43bd146103765780631593fb93146103905780631794bb3c146103ad57806318160ddd146103e3575b600080fd5b6102b7600480360360408110156101aa57600080fd5b810190602081018135600160201b8111156101c457600080fd5b8201836020820111156101d657600080fd5b803590602001918460208302840111600160201b831117156101f757600080fd5b9190808060200260200160405190810160405280939291908181526020018383602002808284376000920191909152509295949360208101935035915050600160201b81111561024657600080fd5b82018360208201111561025857600080fd5b803590602001918460208302840111600160201b8311171561027957600080fd5b919080806020026020016040519081016040528093929190818152602001838360200280828437600092019190915250929550610637945050505050565b005b6102c16107af565b6040805160208082528351818301528351919283929083019185019080838360005b838110156102fb5781810151838201526020016102e3565b50505050905090810190601f1680156103285780820380516001836020036101000a031916815260200191505b509250505060405180910390f35b6103626004803603604081101561034c57600080fd5b506001600160a01b0381351690602001356107cd565b604080519115158252519081900360200190f35b61037e6107e4565b60408051918252519081900360200190f35b610362600480360360208110156103a657600080fd5b5035610808565b6102b7600480360360608110156103c357600080fd5b506001600160a01b0381358116916020810135909116906040013561081d565b61037e6108e5565b6103626004803603606081101561040157600080fd5b506001600160a01b038135811691602081013590911690604001356108eb565b61037e61095d565b610431610963565b604080516001600160a01b039092168252519081900360200190f35b610455610972565b6040805160ff9092168252519081900360200190f35b6102c1610977565b610431610992565b61037e6004803603602081101561049157600080fd5b50356001600160a01b03166109a1565b6102b76109bc565b61037e610a56565b61037e600480360360208110156104c757600080fd5b50356001600160a01b0316610a62565b610431610a7d565b61037e610a8c565b6102b7600480360360208110156104fd57600080fd5b50356001600160a01b0316610a92565b6103626004803603604081101561052357600080fd5b506001600160a01b038135169060200135610b00565b6102b76004803603604081101561054f57600080fd5b506001600160a01b038135169060200135610b16565b6102b7610b3a565b6102b7600480360360e081101561058357600080fd5b506001600160a01b03813581169160208101359091169060408101359060608101359060ff6080820135169060a08101359060c00135610c30565b61037e600480360360408110156105d457600080fd5b506001600160a01b0381358116916020013516610e32565b6102b76004803603602081101561060257600080fd5b5035610e5d565b6102b76004803603602081101561061f57600080fd5b50356001600160a01b0316610ec8565b61037e610fb9565b61063f61100e565b6001600160a01b0316610650610a7d565b6001600160a01b031614610699576040805162461bcd60e51b81526020600482018190526024820152600080516020611d02833981519152604482015290519081900360640190fd5b606754156106ee576040805162461bcd60e51b815260206004820181905260248201527f50726f746f636f6c546f6b656e3a20616c726561647920616c6c6f6361746564604482015290519081900360640190fd5b805182511461072e5760405162461bcd60e51b8152600401808060200182810382526033815260200180611ac86033913960400191505060405180910390fd5b42606d55600080805260706020527f29272c5198ac4c1c7fb0303943f851de04a43367f02c26a44994c42c27db24b5805460ff191660011790555b82518110156107aa576107a283828151811061078157fe5b602002602001015183838151811061079557fe5b6020026020010151611012565b600101610769565b505050565b60408051808201909152600381526253464360e81b60208201525b90565b60006107da3384846110f8565b5060015b92915050565b7f6e71edae12b1b97f4d1f60370fef10105fa2faae0126114a169c64845d6126c990565b60706020526000908152604090205460ff1681565b600054610100900460ff168061083657506108366111e4565b80610844575060005460ff16155b61087f5760405162461bcd60e51b815260040180806020018281038252602e815260200180611c45602e913960400191505060405180910390fd5b600054610100900460ff161580156108aa576000805460ff1961ff0019909116610100171660011790555b6108b26111f5565b6108bb846112a6565b6108c483611382565b6108cd826113d6565b80156108df576000805461ff00191690555b50505050565b60675490565b60006108f683611458565b610901848484611501565b610953843361094e85604051806060016040528060288152602001611cda602891396001600160a01b038a1660009081526066602090815260408083203384529091529020549190611653565b6110f8565b5060019392505050565b606d5490565b606f546001600160a01b031681565b601290565b6040805180820190915260018152603160f81b602082015290565b6071546001600160a01b031681565b6001600160a01b031660009081526065602052604090205490565b6109c461100e565b6001600160a01b03166109d5610a7d565b6001600160a01b031614610a1e576040805162461bcd60e51b81526020600482018190526024820152600080516020611d02833981519152604482015290519081900360640190fd5b6033546040516000916001600160a01b031690600080516020611d22833981519152908390a3603380546001600160a01b0319169055565b670de0b6b3a764000081565b6001600160a01b03166000908152606c602052604090205490565b6033546001600160a01b031690565b606e5481565b610a9a61100e565b6001600160a01b0316610aab610a7d565b6001600160a01b031614610af4576040805162461bcd60e51b81526020600482018190526024820152600080516020611d02833981519152604482015290519081900360640190fd5b610afd81611382565b50565b6000610b0b83611458565b6107da338484611501565b610b1e6116ea565b607154610b369083906001600160a01b031683611501565b5050565b606754610b785760405162461bcd60e51b8152600401808060200182810382526037815260200180611c0e6037913960400191505060405180910390fd5b60006301e13380606d54420381610b8b57fe5b0460008181526070602052604090205490915060ff1615610bdd5760405162461bcd60e51b8152600401808060200182810382526035815260200180611d8b6035913960400191505060405180910390fd5b6000818152607060205260409020805460ff19166001179055606f54606e54606754610afd926001600160a01b031691610c2b91670de0b6b3a764000091610c259190611735565b90611795565b611012565b42841015610c85576040805162461bcd60e51b815260206004820152601f60248201527f50726f746f636f6c546f6b656e3a206578706972656420646561646c696e6500604482015290519081900360640190fd5b6000610c8f610fb9565b6001600160a01b03808a166000818152606c602090815260408083208054600180820190925582517f6e71edae12b1b97f4d1f60370fef10105fa2faae0126114a169c64845d6126c98186015280840196909652958e166060860152608085018d905260a085019590955260c08085018c90528151808603909101815260e08501825280519083012061190160f01b6101008601526101028501969096526101228085019690965280518085039096018652610142840180825286519683019690962095839052610162840180825286905260ff8a166101828501526101a284018990526101c284018890525194955090936101e280840193601f198301929081900390910190855afa158015610daa573d6000803e3d6000fd5b505050602060405103519050886001600160a01b0316816001600160a01b031614610e1c576040805162461bcd60e51b815260206004820181905260248201527f50726f746f636f6c546f6b656e3a20696e76616c6964207369676e6174757265604482015290519081900360640190fd5b610e278989896110f8565b505050505050505050565b6001600160a01b03918216600090815260666020908152604080832093909416825291909152205490565b610e6561100e565b6001600160a01b0316610e76610a7d565b6001600160a01b031614610ebf576040805162461bcd60e51b81526020600482018190526024820152600080516020611d02833981519152604482015290519081900360640190fd5b610afd816113d6565b610ed061100e565b6001600160a01b0316610ee1610a7d565b6001600160a01b031614610f2a576040805162461bcd60e51b81526020600482018190526024820152600080516020611d02833981519152604482015290519081900360640190fd5b6001600160a01b038116610f6f5760405162461bcd60e51b8152600401808060200182810382526026815260200180611b3a6026913960400191505060405180910390fd5b6033546040516001600160a01b03808416921690600080516020611d2283398151915290600090a3603380546001600160a01b0319166001600160a01b0392909216919091179055565b6000606954610fc66117fc565b1415610fd557506068546107ca565b6110077f8b73c3c69bb8fe3d512ecc4cf759cc79239f7b179b0ffacaa9a75d522b39400f60001b606a54606b54611800565b90506107ca565b3390565b6001600160a01b03821661106d576040805162461bcd60e51b815260206004820152601f60248201527f45524332303a206d696e7420746f20746865207a65726f206164647265737300604482015290519081900360640190fd5b60675461107a9082611862565b6067556001600160a01b0382166000908152606560205260409020546110a09082611862565b6001600160a01b03831660008181526065602090815260408083209490945583518581529351929391927fddf252ad1be2c89b69c2b068fc378daa952ba7f163c4a11628f55a4df523b3ef9281900390910190a35050565b6001600160a01b03831661113d5760405162461bcd60e51b8152600401808060200182810382526024815260200180611d676024913960400191505060405180910390fd5b6001600160a01b0382166111825760405162461bcd60e51b8152600401808060200182810382526022815260200180611b606022913960400191505060405180910390fd5b6001600160a01b03808416600081815260666020908152604080832094871680845294825291829020859055815185815291517f8c5be1e5ebec7d5bd14f71427d1e84f3dd0314c0f7b2291e5b200ac8c7c3b9259281900390910190a3505050565b60006111ef306118bc565b15905090565b600054610100900460ff168061120e575061120e6111e4565b8061121c575060005460ff16155b6112575760405162461bcd60e51b815260040180806020018281038252602e815260200180611c45602e913960400191505060405180910390fd5b600054610100900460ff16158015611282576000805460ff1961ff0019909116610100171660011790555b61128a6118c2565b611292611962565b8015610afd576000805461ff001916905550565b6112af81611a49565b607180546001600160a01b0319166001600160a01b038316179055604080518082018252600381526253464360e81b602091820152815180830190925260018252603160f81b9101527ffdbac868854e66ae830dcbbfff9424981b1b055c95011305ab74d560c1306c8e606a8190557fc89efdaa54c0f20c7adf612882df0950f5a951637e0307cdcb4c672f298b8bc6606b81905561134c6117fc565b60695561137a7f8b73c3c69bb8fe3d512ecc4cf759cc79239f7b179b0ffacaa9a75d522b39400f8383611800565b606855505050565b606f80546001600160a01b0383166001600160a01b0319909116811790915560408051918252517f4e1c23feccc9d2af17a26ec57d6eb5a8a1344edd8b54d19ada8b350398dc651a9181900360200190a150565b670de0b6b3a764000081111561141d5760405162461bcd60e51b8152600401808060200182810382526048815260200180611dc06048913960600191505060405180910390fd5b606e8190556040805182815290517fe6b1ccfa0a4b982d2c0f261ab9c9bd4087e2f228140fa0b5dc315c2b10b6a8fb9181900360200190a150565b6001600160a01b0381161580159061147957506001600160a01b0381163014155b6114b45760405162461bcd60e51b8152600401808060200182810382526066815260200180611b826066913960800191505060405180910390fd5b6071546001600160a01b0382811691161415610afd5760405162461bcd60e51b8152600401808060200182810382526046815260200180611c736046913960600191505060405180910390fd5b6001600160a01b0383166115465760405162461bcd60e51b8152600401808060200182810382526025815260200180611d426025913960400191505060405180910390fd5b6001600160a01b03821661158b5760405162461bcd60e51b8152600401808060200182810382526023815260200180611aa56023913960400191505060405180910390fd5b6115c881604051806060016040528060268152602001611be8602691396001600160a01b0386166000908152606560205260409020549190611653565b6001600160a01b0380851660009081526065602052604080822093909355908416815220546115f79082611862565b6001600160a01b0380841660008181526065602090815260409182902094909455805185815290519193928716927fddf252ad1be2c89b69c2b068fc378daa952ba7f163c4a11628f55a4df523b3ef92918290030190a3505050565b600081848411156116e25760405162461bcd60e51b81526004018080602001828103825283818151815260200191508051906020019080838360005b838110156116a757818101518382015260200161168f565b50505050905090810190601f1680156116d45780820380516001836020036101000a031916815260200191505b509250505060405180910390fd5b505050900390565b6071546001600160a01b031633146117335760405162461bcd60e51b815260040180806020018281038252603f815260200180611afb603f913960400191505060405180910390fd5b565b600082611744575060006107de565b8282028284828161175157fe5b041461178e5760405162461bcd60e51b8152600401808060200182810382526021815260200180611cb96021913960400191505060405180910390fd5b9392505050565b60008082116117eb576040805162461bcd60e51b815260206004820152601a60248201527f536166654d6174683a206469766973696f6e206279207a65726f000000000000604482015290519081900360640190fd5b8183816117f457fe5b049392505050565b4690565b600083838361180d6117fc565b3060405160200180868152602001858152602001848152602001838152602001826001600160a01b03168152602001955050505050506040516020818303038152906040528051906020012090509392505050565b60008282018381101561178e576040805162461bcd60e51b815260206004820152601b60248201527f536166654d6174683a206164646974696f6e206f766572666c6f770000000000604482015290519081900360640190fd5b3b151590565b600054610100900460ff16806118db57506118db6111e4565b806118e9575060005460ff16155b6119245760405162461bcd60e51b815260040180806020018281038252602e815260200180611c45602e913960400191505060405180910390fd5b600054610100900460ff16158015611292576000805460ff1961ff0019909116610100171660011790558015610afd576000805461ff001916905550565b600054610100900460ff168061197b575061197b6111e4565b80611989575060005460ff16155b6119c45760405162461bcd60e51b815260040180806020018281038252602e815260200180611c45602e913960400191505060405180910390fd5b600054610100900460ff161580156119ef576000805460ff1961ff0019909116610100171660011790555b60006119f961100e565b603380546001600160a01b0319166001600160a01b03831690811790915560405191925090600090600080516020611d22833981519152908290a3508015610afd576000805461ff001916905550565b6001600160a01b038116610afd576040805162461bcd60e51b815260206004820152601e60248201527f4163636f756e742063616e6e6f74206265207a65726f20616464726573730000604482015290519081900360640190fdfe45524332303a207472616e7366657220746f20746865207a65726f206164647265737350726f746f636f6c546f6b656e3a206163636f756e747320616e6420616d6f756e7473206c656e677468206d69736d6174636850726f746f636f6c546f6b656e3a2063616c6c6572206d757374206265207468652050726f746f636f6c546f6b656e5374616b696e6720636f6e74726163744f776e61626c653a206e6577206f776e657220697320746865207a65726f206164647265737345524332303a20617070726f766520746f20746865207a65726f206164647265737350726f746f636f6c546f6b656e3a2043616e6e6f74207472616e7366657220746f6b656e73206469726563746c7920746f207468652050726f746f636f6c546f6b656e20746f6b656e20636f6e7472616374206f7220746865207a65726f206164647265737345524332303a207472616e7366657220616d6f756e7420657863656564732062616c616e636550726f746f636f6c546f6b656e3a20696e697469616c20616c6c6f636174696f6e20686173206e6f74206265656e20646f6e6520796574496e697469616c697a61626c653a20636f6e747261637420697320616c726561647920696e697469616c697a656450726f746f636f6c546f6b656e3a2043616e6e6f74207472616e7366657220746f6b656e73206469726563746c7920746f20746865207374616b696e6720636f6e7472616374536166654d6174683a206d756c7469706c69636174696f6e206f766572666c6f7745524332303a207472616e7366657220616d6f756e74206578636565647320616c6c6f77616e63654f776e61626c653a2063616c6c6572206973206e6f7420746865206f776e65728be0079c531659141344cd1fd0a4f28419497f9722a3daafe3b4186f6b6457e045524332303a207472616e736665722066726f6d20746865207a65726f206164647265737345524332303a20617070726f76652066726f6d20746865207a65726f206164647265737350726f746f636f6c546f6b656e3a20616e6e75616c20616c6c6f636174696f6e206973206e6f742079657420617661696c61626c6550726f746f636f6c546f6b656e3a20616e6e75616c20616c6c6f636174696f6e2072617465206d757374206265206c657373207468616e206f7220657175616c20746f2031303025a2646970667358221220ea09869e9e3b23bae4792be85aa078fc4c57dcb5a3d6597c008722811e3ee19164736f6c63430007060033",
  "linkReferences": {},
  "deployedLinkReferences": {}
}