{
  "_format": "hh-sol-artifact-1",
  "contractName": "ProtocolTokenStakingTester",
  "sourceName": "contracts/TestContracts/ProtocolTokenStakingTester.sol",
  "abi": [
    {
      "anonymous": false,
      "inputs": [
        {
          "indexed": false,
          "internalType": "address",
          "name": "_activePoolAddress",
          "type": "address"
        }
      ],
      "name": "ActivePoolAddressSet",
      "type": "event"
    },
    {
      "anonymous": false,
      "inputs": [
        {
          "indexed": false,
          "internalType": "address",
          "name": "_borrowerOperationsAddress",
          "type": "address"
        }
      ],
      "name": "BorrowerOperationsAddressSet",
      "type": "event"
    },
    {
      "anonymous": false,
      "inputs": [
        {
          "indexed": false,
          "internalType": "address",
          "name": "_debtTokenAddress",
          "type": "address"
        }
      ],
      "name": "DebtTokenAddressSet",
      "type": "event"
    },
    {
      "anonymous": false,
      "inputs": [
        {
          "indexed": false,
          "internalType": "address",
          "name": "_account",
          "type": "address"
        },
        {
          "indexed": false,
          "internalType": "uint256",
          "name": "_amount",
          "type": "uint256"
        }
      ],
      "name": "FILSent",
      "type": "event"
    },
    {
      "anonymous": false,
      "inputs": [
        {
          "indexed": false,
          "internalType": "uint256",
          "name": "_F_DebtToken",
          "type": "uint256"
        }
      ],
      "name": "F_DebtTokenUpdated",
      "type": "event"
    },
    {
      "anonymous": false,
      "inputs": [
        {
          "indexed": false,
          "internalType": "uint256",
          "name": "_F_FIL",
          "type": "uint256"
        }
      ],
      "name": "F_FILUpdated",
      "type": "event"
    },
    {
      "anonymous": false,
      "inputs": [
        {
          "indexed": true,
          "internalType": "address",
          "name": "previousOwner",
          "type": "address"
        },
        {
          "indexed": true,
          "internalType": "address",
          "name": "newOwner",
          "type": "address"
        }
      ],
      "name": "OwnershipTransferred",
      "type": "event"
    },
    {
      "anonymous": false,
      "inputs": [
        {
          "indexed": false,
          "internalType": "address",
          "name": "_protocolTokenAddress",
          "type": "address"
        }
      ],
      "name": "ProtocolTokenAddressSet",
      "type": "event"
    },
    {
      "anonymous": false,
      "inputs": [
        {
          "indexed": true,
          "internalType": "address",
          "name": "staker",
          "type": "address"
        },
        {
          "indexed": false,
          "internalType": "uint256",
          "name": "newStake",
          "type": "uint256"
        }
      ],
      "name": "StakeChanged",
      "type": "event"
    },
    {
      "anonymous": false,
      "inputs": [
        {
          "indexed": false,
          "internalType": "address",
          "name": "_staker",
          "type": "address"
        },
        {
          "indexed": false,
          "internalType": "uint256",
          "name": "_F_FIL",
          "type": "uint256"
        },
        {
          "indexed": false,
          "internalType": "uint256",
          "name": "_F_DebtToken",
          "type": "uint256"
        }
      ],
      "name": "StakerSnapshotsUpdated",
      "type": "event"
    },
    {
      "anonymous": false,
      "inputs": [
        {
          "indexed": true,
          "internalType": "address",
          "name": "staker",
          "type": "address"
        },
        {
          "indexed": false,
          "internalType": "uint256",
          "name": "debtTokenGain",
          "type": "uint256"
        },
        {
          "indexed": false,
          "internalType": "uint256",
          "name": "FILGain",
          "type": "uint256"
        }
      ],
      "name": "StakingGainsWithdrawn",
      "type": "event"
    },
    {
      "anonymous": false,
      "inputs": [
        {
          "indexed": false,
          "internalType": "uint256",
          "name": "_totalProtocolTokenStaked",
          "type": "uint256"
        }
      ],
      "name": "TotalProtocolTokenStakedUpdated",
      "type": "event"
    },
    {
      "anonymous": false,
      "inputs": [
        {
          "indexed": false,
          "internalType": "address",
          "name": "_troveManager",
          "type": "address"
        }
      ],
      "name": "TroveManagerAddressSet",
      "type": "event"
    },
    {
      "inputs": [],
      "name": "DECIMAL_PRECISION",
      "outputs": [
        {
          "internalType": "uint256",
          "name": "",
          "type": "uint256"
        }
      ],
      "stateMutability": "view",
      "type": "function"
    },
    {
      "inputs": [],
      "name": "F_DebtToken",
      "outputs": [
        {
          "internalType": "uint256",
          "name": "",
          "type": "uint256"
        }
      ],
      "stateMutability": "view",
      "type": "function"
    },
    {
      "inputs": [],
      "name": "F_FIL",
      "outputs": [
        {
          "internalType": "uint256",
          "name": "",
          "type": "uint256"
        }
      ],
      "stateMutability": "view",
      "type": "function"
    },
    {
      "inputs": [],
      "name": "NAME",
      "outputs": [
        {
          "internalType": "string",
          "name": "",
          "type": "string"
        }
      ],
      "stateMutability": "view",
      "type": "function"
    },
    {
      "inputs": [],
      "name": "activePoolAddress",
      "outputs": [
        {
          "internalType": "address",
          "name": "",
          "type": "address"
        }
      ],
      "stateMutability": "view",
      "type": "function"
    },
    {
      "inputs": [],
      "name": "borrowerOperationsAddress",
      "outputs": [
        {
          "internalType": "address",
          "name": "",
          "type": "address"
        }
      ],
      "stateMutability": "view",
      "type": "function"
    },
    {
      "inputs": [],
      "name": "debtToken",
      "outputs": [
        {
          "internalType": "contract IDebtToken",
          "name": "",
          "type": "address"
        }
      ],
      "stateMutability": "view",
      "type": "function"
    },
    {
      "inputs": [
        {
          "internalType": "address",
          "name": "_user",
          "type": "address"
        }
      ],
      "name": "getPendingDebtTokenGain",
      "outputs": [
        {
          "internalType": "uint256",
          "name": "",
          "type": "uint256"
        }
      ],
      "stateMutability": "view",
      "type": "function"
    },
    {
      "inputs": [
        {
          "internalType": "address",
          "name": "_user",
          "type": "address"
        }
      ],
      "name": "getPendingFILGain",
      "outputs": [
        {
          "internalType": "uint256",
          "name": "",
          "type": "uint256"
        }
      ],
      "stateMutability": "view",
      "type": "function"
    },
    {
      "inputs": [
        {
          "internalType": "uint256",
          "name": "_debtTokenFee",
          "type": "uint256"
        }
      ],
      "name": "increaseF_DebtToken",
      "outputs": [],
      "stateMutability": "nonpayable",
      "type": "function"
    },
    {
      "inputs": [
        {
          "internalType": "uint256",
          "name": "_FILFee",
          "type": "uint256"
        }
      ],
      "name": "increaseF_FIL",
      "outputs": [],
      "stateMutability": "nonpayable",
      "type": "function"
    },
    {
      "inputs": [
        {
          "internalType": "address",
          "name": "_protocolTokenAddress",
          "type": "address"
        },
        {
          "internalType": "address",
          "name": "_debtTokenAddress",
          "type": "address"
        },
        {
          "internalType": "address",
          "name": "_troveManagerAddress",
          "type": "address"
        },
        {
          "internalType": "address",
          "name": "_borrowerOperationsAddress",
          "type": "address"
        },
        {
          "internalType": "address",
          "name": "_activePoolAddress",
          "type": "address"
        }
      ],
      "name": "initialize",
      "outputs": [],
      "stateMutability": "nonpayable",
      "type": "function"
    },
    {
      "inputs": [],
      "name": "owner",
      "outputs": [
        {
          "internalType": "address",
          "name": "",
          "type": "address"
        }
      ],
      "stateMutability": "view",
      "type": "function"
    },
    {
      "inputs": [],
      "name": "protocolToken",
      "outputs": [
        {
          "internalType": "contract IProtocolToken",
          "name": "",
          "type": "address"
        }
      ],
      "stateMutability": "view",
      "type": "function"
    },
    {
      "inputs": [],
      "name": "renounceOwnership",
      "outputs": [],
      "stateMutability": "nonpayable",
      "type": "function"
    },
    {
      "inputs": [],
      "name": "requireCallerIsTroveManager",
      "outputs": [],
      "stateMutability": "view",
      "type": "function"
    },
    {
      "inputs": [
        {
          "internalType": "address",
          "name": "",
          "type": "address"
        }
      ],
      "name": "snapshots",
      "outputs": [
        {
          "internalType": "uint256",
          "name": "F_FIL_Snapshot",
          "type": "uint256"
        },
        {
          "internalType": "uint256",
          "name": "F_DebtToken_Snapshot",
          "type": "uint256"
        }
      ],
      "stateMutability": "view",
      "type": "function"
    },
    {
      "inputs": [
        {
          "internalType": "uint256",
          "name": "_tokenAmount",
          "type": "uint256"
        }
      ],
      "name": "stake",
      "outputs": [],
      "stateMutability": "nonpayable",
      "type": "function"
    },
    {
      "inputs": [
        {
          "internalType": "address",
          "name": "",
          "type": "address"
        }
      ],
      "name": "stakes",
      "outputs": [
        {
          "internalType": "uint256",
          "name": "",
          "type": "uint256"
        }
      ],
      "stateMutability": "view",
      "type": "function"
    },
    {
      "inputs": [],
      "name": "totalProtocolTokenStaked",
      "outputs": [
        {
          "internalType": "uint256",
          "name": "",
          "type": "uint256"
        }
      ],
      "stateMutability": "view",
      "type": "function"
    },
    {
      "inputs": [
        {
          "internalType": "address",
          "name": "newOwner",
          "type": "address"
        }
      ],
      "name": "transferOwnership",
      "outputs": [],
      "stateMutability": "nonpayable",
      "type": "function"
    },
    {
      "inputs": [],
      "name": "troveManagerAddress",
      "outputs": [
        {
          "internalType": "address",
          "name": "",
          "type": "address"
        }
      ],
      "stateMutability": "view",
      "type": "function"
    },
    {
      "inputs": [
        {
          "internalType": "uint256",
          "name": "_tokenAmount",
          "type": "uint256"
        }
      ],
      "name": "unstake",
      "outputs": [],
      "stateMutability": "nonpayable",
      "type": "function"
    },
    {
      "stateMutability": "payable",
      "type": "receive"
    }
  ],
  "bytecode": "0x608060405234801561001057600080fd5b506118cd806100206000396000f3fe6080604052600436106101445760003560e01c80637415fa18116100b6578063b08bc7221161006f578063b08bc7221461045b578063b1955ad214610470578063b7f8cf9b1461049a578063c91d2d38146104af578063f2fde38b146104d9578063f8d898981461050c57610153565b80637415fa18146103535780638da538a3146103685780638da5cb5b1461037d578063a20baee614610392578063a3f4df7e146103a7578063a694fc3a1461043157610153565b80632e17de78116101085780632e17de781461026b57806334b3081f146102955780633b95b91d146102e15780633cd27e67146102f65780635a4d28bb14610329578063715018a61461033e57610153565b80631459457a1461015857806316934fc4146101ad57806317f175dc146101f25780631a14971b146102255780631a465fe11461023a57610153565b3661015357610151610521565b005b600080fd5b34801561016457600080fd5b50610151600480360360a081101561017b57600080fd5b506001600160a01b0381358116916020810135821691604082013581169160608101358216916080909101351661056c565b3480156101b957600080fd5b506101e0600480360360208110156101d057600080fd5b50356001600160a01b0316610628565b60408051918252519081900360200190f35b3480156101fe57600080fd5b506101e06004803603602081101561021557600080fd5b50356001600160a01b031661063a565b34801561023157600080fd5b506101e061064b565b34801561024657600080fd5b5061024f610651565b604080516001600160a01b039092168252519081900360200190f35b34801561027757600080fd5b506101516004803603602081101561028e57600080fd5b5035610660565b3480156102a157600080fd5b506102c8600480360360208110156102b857600080fd5b50356001600160a01b0316610898565b6040805192835260208301919091528051918290030190f35b3480156102ed57600080fd5b506101516108b1565b34801561030257600080fd5b506101e06004803603602081101561031957600080fd5b50356001600160a01b03166108b9565b34801561033557600080fd5b5061024f6108c4565b34801561034a57600080fd5b506101516108d3565b34801561035f57600080fd5b506101e061097f565b34801561037457600080fd5b506101e0610985565b34801561038957600080fd5b5061024f61098b565b34801561039e57600080fd5b506101e061099a565b3480156103b357600080fd5b506103bc6109a6565b6040805160208082528351818301528351919283929083019185019080838360005b838110156103f65781810151838201526020016103de565b50505050905090810190601f1680156104235780820380516001836020036101000a031916815260200191505b509250505060405180910390f35b34801561043d57600080fd5b506101516004803603602081101561045457600080fd5b50356109d6565b34801561046757600080fd5b5061024f610bee565b34801561047c57600080fd5b506101516004803603602081101561049357600080fd5b5035610bfd565b3480156104a657600080fd5b5061024f610c7a565b3480156104bb57600080fd5b50610151600480360360208110156104d257600080fd5b5035610c89565b3480156104e557600080fd5b50610151600480360360208110156104fc57600080fd5b50356001600160a01b0316610d00565b34801561051857600080fd5b5061024f610e03565b606e546001600160a01b0316331461056a5760405162461bcd60e51b815260040180806020018281038252602e815260200180611740602e913960400191505060405180910390fd5b565b600054610100900460ff16806105855750610585610e12565b80610593575060005460ff16155b6105ce5760405162461bcd60e51b815260040180806020018281038252602e8152602001806117c5602e913960400191505060405180910390fd5b600054610100900460ff161580156105f9576000805460ff1961ff0019909116610100171660011790555b610601610e23565b61060e8686868686610ed5565b8015610620576000805461ff00191690555b505050505050565b60656020526000908152604090205481565b600061064582611080565b92915050565b60685481565b606a546001600160a01b031681565b33600090815260656020526040902054610679816110e4565b600061068433611123565b9050600061069133611080565b905061069c3361115d565b83156107ce5760006106ae85856111cf565b905060006106bc85836111e7565b3360009081526065602052604090208190556066549091506106de90836111e7565b606681905560408051918252517fc4ca4e3d2fd1965e6d42d851e766d5b9a64dd0a8a670a1516843a0217757fa5d9181900360200190a1606a546040805163a9059cbb60e01b81523360048201526024810185905290516001600160a01b039092169163a9059cbb916044808201926020929091908290030181600087803b15801561076957600080fd5b505af115801561077d573d6000803e3d6000fd5b505050506040513d602081101561079357600080fd5b505060408051828152905133917f39df0e5286a3ef2f42a0bf52f32cfe2c58e5b0405f47fe512f2c2439e4cfe204919081900360200190a250505b6040805182815260208101849052815133927ff744d34ca1cb25acfa4180df5f09a67306107110a9f4b6ed99bb3be259738215928290030190a2606b546040805163a9059cbb60e01b81523360048201526024810184905290516001600160a01b039092169163a9059cbb916044808201926020929091908290030181600087803b15801561085c57600080fd5b505af1158015610870573d6000803e3d6000fd5b505050506040513d602081101561088657600080fd5b50610892905082611244565b50505050565b6069602052600090815260409020805460019091015482565b61056a61130a565b600061064582611123565b606c546001600160a01b031681565b6108db611353565b6001600160a01b03166108ec61098b565b6001600160a01b031614610947576040805162461bcd60e51b815260206004820181905260248201527f4f776e61626c653a2063616c6c6572206973206e6f7420746865206f776e6572604482015290519081900360640190fd5b6033546040516000916001600160a01b031690600080516020611814833981519152908390a3603380546001600160a01b0319169055565b60675481565b60665481565b6033546001600160a01b031690565b670de0b6b3a764000081565b6040518060400160405280601481526020017350726f746f636f6c546f6b656e5374616b696e6760601b81525081565b6109df81611357565b3360009081526065602052604081205490808215610a0e57610a0033611123565b9150610a0b33611080565b90505b610a173361115d565b6000610a238486611396565b336000908152606560205260409020819055606654909150610a459086611396565b606681905560408051918252517fc4ca4e3d2fd1965e6d42d851e766d5b9a64dd0a8a670a1516843a0217757fa5d9181900360200190a1606a5460408051630553e6c560e51b81523360048201526024810188905290516001600160a01b039092169163aa7cd8a09160448082019260009290919082900301818387803b158015610acf57600080fd5b505af1158015610ae3573d6000803e3d6000fd5b50506040805184815290513393507f39df0e5286a3ef2f42a0bf52f32cfe2c58e5b0405f47fe512f2c2439e4cfe20492509081900360200190a26040805183815260208101859052815133927ff744d34ca1cb25acfa4180df5f09a67306107110a9f4b6ed99bb3be259738215928290030190a28315610be757606b546040805163a9059cbb60e01b81523360048201526024810185905290516001600160a01b039092169163a9059cbb916044808201926020929091908290030181600087803b158015610bb157600080fd5b505af1158015610bc5573d6000803e3d6000fd5b505050506040513d6020811015610bdb57600080fd5b50610be7905083611244565b5050505050565b606e546001600160a01b031681565b610c056113f0565b60665460009015610c3257606654610c2f90610c2984670de0b6b3a7640000611439565b90611492565b90505b606854610c3f9082611396565b606881905560408051918252517fd35d18f1d1506f94dd33c043c612cce724e9e52b5924bdf2b19d62ddfe26513b9181900360200190a15050565b606d546001600160a01b031681565b610c9161130a565b60665460009015610cb857606654610cb590610c2984670de0b6b3a7640000611439565b90505b606754610cc59082611396565b606781905560408051918252517febf7d091f46f1a9713f83361f4b7bdfc07a53d3e0b8582025f6318db750e8b9f9181900360200190a15050565b610d08611353565b6001600160a01b0316610d1961098b565b6001600160a01b031614610d74576040805162461bcd60e51b815260206004820181905260248201527f4f776e61626c653a2063616c6c6572206973206e6f7420746865206f776e6572604482015290519081900360640190fd5b6001600160a01b038116610db95760405162461bcd60e51b815260040180806020018281038252602681526020018061171a6026913960400191505060405180910390fd5b6033546040516001600160a01b0380841692169060008051602061181483398151915290600090a3603380546001600160a01b0319166001600160a01b0392909216919091179055565b606b546001600160a01b031681565b6000610e1d306114f9565b15905090565b600054610100900460ff1680610e3c5750610e3c610e12565b80610e4a575060005460ff16155b610e855760405162461bcd60e51b815260040180806020018281038252602e8152602001806117c5602e913960400191505060405180910390fd5b600054610100900460ff16158015610eb0576000805460ff1961ff0019909116610100171660011790555b610eb86114ff565b610ec061159f565b8015610ed2576000805461ff00191690555b50565b610ede85611686565b610ee784611686565b610ef083611686565b610ef982611686565b610f0281611686565b606a80546001600160a01b038088166001600160a01b03199283168117909355606b8054888316908416179055606c8054878316908416179055606d8054868316908416179055606e80549185169190921617905560408051918252517f8b70fff6eb19dda13b7b98f7e1b6aff53cc8a27c0ffe6282cc22727fdcd4e2319181900360200190a1604080516001600160a01b038616815290517f482942d8b227a1a84982f337b8b18662fde02dc7a4cce912c74090cb529f25909181900360200190a1604080516001600160a01b038516815290517f41097dcc1f7cbd663d822443d7972f05b04f71918b30fe9fc59dd6e42e2280609181900360200190a1604080516001600160a01b038416815290517f5962f8af633c4df1ab230096f773a514ee5adf7785c621ecdcdb764cb7f6e3919181900360200190a1604080516001600160a01b038316815290517f8f6a6e7d20a3233e0a79883272259ffbd7a243734e397bc2b4642c79d7fa8a6d9181900360200190a15050505050565b6001600160a01b03811660009081526069602052604081206001015460685482906110dc90670de0b6b3a764000090610c29906110bd90866111e7565b6001600160a01b03881660009081526065602052604090205490611439565b949350505050565b60008111610ed25760405162461bcd60e51b81526004018080602001828103825260358152602001806118636035913960400191505060405180910390fd5b6001600160a01b03811660009081526069602052604081205460675482906110dc90670de0b6b3a764000090610c29906110bd90866111e7565b606780546001600160a01b038316600081815260696020908152604091829020938455606854600190940184905593548151928352938201939093528083019190915290517f6b5cf27595af4428271524e0a5abd2b63f6fee1a61e31970490f5a10e257a1cd9181900360600190a150565b60008183106111de57816111e0565b825b9392505050565b60008282111561123e576040805162461bcd60e51b815260206004820152601e60248201527f536166654d6174683a207375627472616374696f6e206f766572666c6f770000604482015290519081900360640190fd5b50900390565b604080513381526020810183905281517f3b2482b1bf6e751427503c9a8bf79e4dba3e6519259e2220428c2f326cc79c14929181900390910190a1604051600090339083908381818185875af1925050503d80600081146112c1576040519150601f19603f3d011682016040523d82523d6000602084013e6112c6565b606091505b50509050806113065760405162461bcd60e51b81526004018080602001828103825260388152602001806116e26038913960400191505060405180910390fd5b5050565b606c546001600160a01b0316331461056a5760405162461bcd60e51b815260040180806020018281038252602a81526020018061179b602a913960400191505060405180910390fd5b3390565b60008111610ed25760405162461bcd60e51b815260040180806020018281038252602d81526020018061176e602d913960400191505060405180910390fd5b6000828201838110156111e0576040805162461bcd60e51b815260206004820152601b60248201527f536166654d6174683a206164646974696f6e206f766572666c6f770000000000604482015290519081900360640190fd5b606d546001600160a01b0316331461056a5760405162461bcd60e51b815260040180806020018281038252602f815260200180611834602f913960400191505060405180910390fd5b60008261144857506000610645565b8282028284828161145557fe5b04146111e05760405162461bcd60e51b81526004018080602001828103825260218152602001806117f36021913960400191505060405180910390fd5b60008082116114e8576040805162461bcd60e51b815260206004820152601a60248201527f536166654d6174683a206469766973696f6e206279207a65726f000000000000604482015290519081900360640190fd5b8183816114f157fe5b049392505050565b3b151590565b600054610100900460ff16806115185750611518610e12565b80611526575060005460ff16155b6115615760405162461bcd60e51b815260040180806020018281038252602e8152602001806117c5602e913960400191505060405180910390fd5b600054610100900460ff16158015610ec0576000805460ff1961ff0019909116610100171660011790558015610ed2576000805461ff001916905550565b600054610100900460ff16806115b857506115b8610e12565b806115c6575060005460ff16155b6116015760405162461bcd60e51b815260040180806020018281038252602e8152602001806117c5602e913960400191505060405180910390fd5b600054610100900460ff1615801561162c576000805460ff1961ff0019909116610100171660011790555b6000611636611353565b603380546001600160a01b0319166001600160a01b03831690811790915560405191925090600090600080516020611814833981519152908290a3508015610ed2576000805461ff001916905550565b6001600160a01b038116610ed2576040805162461bcd60e51b815260206004820152601e60248201527f4163636f756e742063616e6e6f74206265207a65726f20616464726573730000604482015290519081900360640190fdfe50726f746f636f6c546f6b656e5374616b696e673a204661696c656420746f2073656e6420616363756d756c617465642046494c4761696e4f776e61626c653a206e6577206f776e657220697320746865207a65726f206164647265737350726f746f636f6c546f6b656e5374616b696e673a2063616c6c6572206973206e6f7420416374697665506f6f6c50726f746f636f6c546f6b656e5374616b696e673a20416d6f756e74206d757374206265206e6f6e2d7a65726f50726f746f636f6c546f6b656e5374616b696e673a2063616c6c6572206973206e6f742054726f76654d496e697469616c697a61626c653a20636f6e747261637420697320616c726561647920696e697469616c697a6564536166654d6174683a206d756c7469706c69636174696f6e206f766572666c6f778be0079c531659141344cd1fd0a4f28419497f9722a3daafe3b4186f6b6457e050726f746f636f6c546f6b656e5374616b696e673a2063616c6c6572206973206e6f7420426f72726f7765724f707350726f746f636f6c546f6b656e5374616b696e673a2055736572206d75737420686176652061206e6f6e2d7a65726f207374616b65a264697066735822122012b97457e400ff363ce216e25f6619d64b3cdf53e699e38821328ca6a2473eb164736f6c63430007060033",
  "linkReferences": {},
  "deployedLinkReferences": {}
}