{
  "_format": "hh-sol-artifact-1",
  "contractName": "ProtocolTokenStaking",
  "sourceName": "contracts/ProtocolToken/ProtocolTokenStaking.sol",
  "abi": [
    {
      "inputs": [],
      "stateMutability": "nonpayable",
      "type": "constructor"
    },
    {
      "anonymous": false,
      "inputs": [
        {
          "indexed": false,
          "internalType": "address",
          "name": "_activePoolAddress",
          "type": "address"
        }
      ],
      "name": "ActivePoolAddressChanged",
      "type": "event"
    },
    {
      "anonymous": false,
      "inputs": [
        {
          "indexed": false,
          "internalType": "address",
          "name": "_borrowerOperationsAddress",
          "type": "address"
        }
      ],
      "name": "BorrowerOperationsAddressChanged",
      "type": "event"
    },
    {
      "anonymous": false,
      "inputs": [
        {
          "indexed": false,
          "internalType": "address",
          "name": "_debtTokenAddress",
          "type": "address"
        }
      ],
      "name": "DebtTokenAddressChanged",
      "type": "event"
    },
    {
      "anonymous": false,
      "inputs": [
        {
          "indexed": false,
          "internalType": "address",
          "name": "_account",
          "type": "address"
        },
        {
          "indexed": false,
          "internalType": "uint256",
          "name": "_amount",
          "type": "uint256"
        }
      ],
      "name": "FILSent",
      "type": "event"
    },
    {
      "anonymous": false,
      "inputs": [
        {
          "indexed": false,
          "internalType": "uint256",
          "name": "_F_DebtToken",
          "type": "uint256"
        }
      ],
      "name": "F_DebtTokenUpdated",
      "type": "event"
    },
    {
      "anonymous": false,
      "inputs": [
        {
          "indexed": false,
          "internalType": "uint256",
          "name": "_F_FIL",
          "type": "uint256"
        }
      ],
      "name": "F_FILUpdated",
      "type": "event"
    },
    {
      "anonymous": false,
      "inputs": [
        {
          "indexed": true,
          "internalType": "address",
          "name": "previousOwner",
          "type": "address"
        },
        {
          "indexed": true,
          "internalType": "address",
          "name": "newOwner",
          "type": "address"
        }
      ],
      "name": "OwnershipTransferred",
      "type": "event"
    },
    {
      "anonymous": false,
      "inputs": [
        {
          "indexed": false,
          "internalType": "address",
          "name": "_protocolTokenAddress",
          "type": "address"
        }
      ],
      "name": "ProtocolTokenAddressChanged",
      "type": "event"
    },
    {
      "anonymous": false,
      "inputs": [
        {
          "indexed": true,
          "internalType": "address",
          "name": "staker",
          "type": "address"
        },
        {
          "indexed": false,
          "internalType": "uint256",
          "name": "newStake",
          "type": "uint256"
        }
      ],
      "name": "StakeChanged",
      "type": "event"
    },
    {
      "anonymous": false,
      "inputs": [
        {
          "indexed": false,
          "internalType": "address",
          "name": "_staker",
          "type": "address"
        },
        {
          "indexed": false,
          "internalType": "uint256",
          "name": "_F_FIL",
          "type": "uint256"
        },
        {
          "indexed": false,
          "internalType": "uint256",
          "name": "_F_DebtToken",
          "type": "uint256"
        }
      ],
      "name": "StakerSnapshotsUpdated",
      "type": "event"
    },
    {
      "anonymous": false,
      "inputs": [
        {
          "indexed": true,
          "internalType": "address",
          "name": "staker",
          "type": "address"
        },
        {
          "indexed": false,
          "internalType": "uint256",
          "name": "debtTokenGain",
          "type": "uint256"
        },
        {
          "indexed": false,
          "internalType": "uint256",
          "name": "FILGain",
          "type": "uint256"
        }
      ],
      "name": "StakingGainsWithdrawn",
      "type": "event"
    },
    {
      "anonymous": false,
      "inputs": [
        {
          "indexed": false,
          "internalType": "uint256",
          "name": "_totalProtocolTokenStaked",
          "type": "uint256"
        }
      ],
      "name": "TotalProtocolTokenStakedUpdated",
      "type": "event"
    },
    {
      "anonymous": false,
      "inputs": [
        {
          "indexed": false,
          "internalType": "address",
          "name": "_troveManager",
          "type": "address"
        }
      ],
      "name": "TroveManagerAddressChanged",
      "type": "event"
    },
    {
      "anonymous": false,
      "inputs": [
        {
          "indexed": false,
          "internalType": "uint256",
          "name": "_unallocatedDebtToken",
          "type": "uint256"
        }
      ],
      "name": "UnallocatedDebtTokenUpdated",
      "type": "event"
    },
    {
      "anonymous": false,
      "inputs": [
        {
          "indexed": false,
          "internalType": "uint256",
          "name": "_unallocatedFIL",
          "type": "uint256"
        }
      ],
      "name": "UnallocatedFILUpdated",
      "type": "event"
    },
    {
      "inputs": [],
      "name": "DECIMAL_PRECISION",
      "outputs": [
        {
          "internalType": "uint256",
          "name": "",
          "type": "uint256"
        }
      ],
      "stateMutability": "view",
      "type": "function"
    },
    {
      "inputs": [],
      "name": "F_DebtToken",
      "outputs": [
        {
          "internalType": "uint256",
          "name": "",
          "type": "uint256"
        }
      ],
      "stateMutability": "view",
      "type": "function"
    },
    {
      "inputs": [],
      "name": "F_FIL",
      "outputs": [
        {
          "internalType": "uint256",
          "name": "",
          "type": "uint256"
        }
      ],
      "stateMutability": "view",
      "type": "function"
    },
    {
      "inputs": [],
      "name": "NAME",
      "outputs": [
        {
          "internalType": "string",
          "name": "",
          "type": "string"
        }
      ],
      "stateMutability": "view",
      "type": "function"
    },
    {
      "inputs": [],
      "name": "activePoolAddress",
      "outputs": [
        {
          "internalType": "address",
          "name": "",
          "type": "address"
        }
      ],
      "stateMutability": "view",
      "type": "function"
    },
    {
      "inputs": [],
      "name": "borrowerOperationsAddress",
      "outputs": [
        {
          "internalType": "address",
          "name": "",
          "type": "address"
        }
      ],
      "stateMutability": "view",
      "type": "function"
    },
    {
      "inputs": [],
      "name": "debtToken",
      "outputs": [
        {
          "internalType": "contract IDebtToken",
          "name": "",
          "type": "address"
        }
      ],
      "stateMutability": "view",
      "type": "function"
    },
    {
      "inputs": [
        {
          "internalType": "address",
          "name": "_user",
          "type": "address"
        }
      ],
      "name": "getPendingDebtTokenGain",
      "outputs": [
        {
          "internalType": "uint256",
          "name": "",
          "type": "uint256"
        }
      ],
      "stateMutability": "view",
      "type": "function"
    },
    {
      "inputs": [
        {
          "internalType": "address",
          "name": "_user",
          "type": "address"
        }
      ],
      "name": "getPendingFILGain",
      "outputs": [
        {
          "internalType": "uint256",
          "name": "",
          "type": "uint256"
        }
      ],
      "stateMutability": "view",
      "type": "function"
    },
    {
      "inputs": [
        {
          "internalType": "uint256",
          "name": "_debtTokenFee",
          "type": "uint256"
        }
      ],
      "name": "increaseF_DebtToken",
      "outputs": [],
      "stateMutability": "nonpayable",
      "type": "function"
    },
    {
      "inputs": [
        {
          "internalType": "uint256",
          "name": "_FILFee",
          "type": "uint256"
        }
      ],
      "name": "increaseF_FIL",
      "outputs": [],
      "stateMutability": "nonpayable",
      "type": "function"
    },
    {
      "inputs": [
        {
          "internalType": "address",
          "name": "_protocolTokenAddress",
          "type": "address"
        },
        {
          "internalType": "address",
          "name": "_debtTokenAddress",
          "type": "address"
        },
        {
          "internalType": "address",
          "name": "_troveManagerAddress",
          "type": "address"
        },
        {
          "internalType": "address",
          "name": "_borrowerOperationsAddress",
          "type": "address"
        },
        {
          "internalType": "address",
          "name": "_activePoolAddress",
          "type": "address"
        }
      ],
      "name": "initialize",
      "outputs": [],
      "stateMutability": "nonpayable",
      "type": "function"
    },
    {
      "inputs": [],
      "name": "owner",
      "outputs": [
        {
          "internalType": "address",
          "name": "",
          "type": "address"
        }
      ],
      "stateMutability": "view",
      "type": "function"
    },
    {
      "inputs": [],
      "name": "protocolToken",
      "outputs": [
        {
          "internalType": "contract IProtocolToken",
          "name": "",
          "type": "address"
        }
      ],
      "stateMutability": "view",
      "type": "function"
    },
    {
      "inputs": [],
      "name": "renounceOwnership",
      "outputs": [],
      "stateMutability": "nonpayable",
      "type": "function"
    },
    {
      "inputs": [
        {
          "internalType": "address",
          "name": "",
          "type": "address"
        }
      ],
      "name": "snapshots",
      "outputs": [
        {
          "internalType": "uint256",
          "name": "F_FIL_Snapshot",
          "type": "uint256"
        },
        {
          "internalType": "uint256",
          "name": "F_DebtToken_Snapshot",
          "type": "uint256"
        }
      ],
      "stateMutability": "view",
      "type": "function"
    },
    {
      "inputs": [
        {
          "internalType": "uint256",
          "name": "_tokenAmount",
          "type": "uint256"
        }
      ],
      "name": "stake",
      "outputs": [],
      "stateMutability": "nonpayable",
      "type": "function"
    },
    {
      "inputs": [
        {
          "internalType": "address",
          "name": "",
          "type": "address"
        }
      ],
      "name": "stakes",
      "outputs": [
        {
          "internalType": "uint256",
          "name": "",
          "type": "uint256"
        }
      ],
      "stateMutability": "view",
      "type": "function"
    },
    {
      "inputs": [],
      "name": "totalProtocolTokenStaked",
      "outputs": [
        {
          "internalType": "uint256",
          "name": "",
          "type": "uint256"
        }
      ],
      "stateMutability": "view",
      "type": "function"
    },
    {
      "inputs": [
        {
          "internalType": "address",
          "name": "newOwner",
          "type": "address"
        }
      ],
      "name": "transferOwnership",
      "outputs": [],
      "stateMutability": "nonpayable",
      "type": "function"
    },
    {
      "inputs": [],
      "name": "troveManagerAddress",
      "outputs": [
        {
          "internalType": "address",
          "name": "",
          "type": "address"
        }
      ],
      "stateMutability": "view",
      "type": "function"
    },
    {
      "inputs": [],
      "name": "unallocatedDebtToken",
      "outputs": [
        {
          "internalType": "uint256",
          "name": "",
          "type": "uint256"
        }
      ],
      "stateMutability": "view",
      "type": "function"
    },
    {
      "inputs": [],
      "name": "unallocatedFIL",
      "outputs": [
        {
          "internalType": "uint256",
          "name": "",
          "type": "uint256"
        }
      ],
      "stateMutability": "view",
      "type": "function"
    },
    {
      "inputs": [
        {
          "internalType": "uint256",
          "name": "_tokenAmount",
          "type": "uint256"
        }
      ],
      "name": "unstake",
      "outputs": [],
      "stateMutability": "nonpayable",
      "type": "function"
    },
    {
      "inputs": [],
      "name": "withdrawUnallocatedDebtToken",
      "outputs": [],
      "stateMutability": "nonpayable",
      "type": "function"
    },
    {
      "inputs": [],
      "name": "withdrawUnallocatedFIL",
      "outputs": [],
      "stateMutability": "nonpayable",
      "type": "function"
    },
    {
      "stateMutability": "payable",
      "type": "receive"
    }
  ],
  "bytecode": "0x60806040523480156200001157600080fd5b50600054610100900460ff16806200002e57506200002e620000c0565b806200003d575060005460ff16155b6200007a5760405162461bcd60e51b815260040180806020018281038252602e81526020018062001e8a602e913960400191505060405180910390fd5b600054610100900460ff16158015620000a6576000805460ff1961ff0019909116610100171660011790555b8015620000b9576000805461ff00191690555b50620000e4565b6000620000d830620000de60201b620011811760201c565b15905090565b3b151590565b611d9680620000f46000396000f3fe6080604052600436106101655760003560e01c80637415fa18116100c1578063b08bc7221161007a578063b08bc722146104a6578063b1955ad2146104bb578063b6a233e5146104e5578063b7f8cf9b146104fa578063c91d2d381461050f578063f2fde38b14610539578063f8d898981461056c57610174565b80637415fa181461039e5780638da538a3146103b35780638da5cb5b146103c8578063a20baee6146103dd578063a3f4df7e146103f2578063a694fc3a1461047c57610174565b80632e17de781161011e5780632e17de78146102a157806334b3081f146102cb5780633cd27e671461031757806346b3252f1461034a5780634d60d8ae1461035f5780635a4d28bb14610374578063715018a61461038957610174565b80630b22ac32146101795780631459457a1461018e57806316934fc4146101e357806317f175dc146102285780631a14971b1461025b5780631a465fe11461027057610174565b3661017457610172610581565b005b600080fd5b34801561018557600080fd5b506101726105cc565b34801561019a57600080fd5b50610172600480360360a08110156101b157600080fd5b506001600160a01b038135811691602081013582169160408201358116916060810135821691608090910135166106f0565b3480156101ef57600080fd5b506102166004803603602081101561020657600080fd5b50356001600160a01b03166107b4565b60408051918252519081900360200190f35b34801561023457600080fd5b506102166004803603602081101561024b57600080fd5b50356001600160a01b03166107c6565b34801561026757600080fd5b506102166107d7565b34801561027c57600080fd5b506102856107dd565b604080516001600160a01b039092168252519081900360200190f35b3480156102ad57600080fd5b50610172600480360360208110156102c457600080fd5b50356107ec565b3480156102d757600080fd5b506102fe600480360360208110156102ee57600080fd5b50356001600160a01b0316610a86565b6040805192835260208301919091528051918290030190f35b34801561032357600080fd5b506102166004803603602081101561033a57600080fd5b50356001600160a01b0316610a9f565b34801561035657600080fd5b50610216610aaa565b34801561036b57600080fd5b50610172610ab0565b34801561038057600080fd5b50610285610b5d565b34801561039557600080fd5b50610172610b6c565b3480156103aa57600080fd5b50610216610c06565b3480156103bf57600080fd5b50610216610c0c565b3480156103d457600080fd5b50610285610c12565b3480156103e957600080fd5b50610216610c21565b3480156103fe57600080fd5b50610407610c2d565b6040805160208082528351818301528351919283929083019185019080838360005b83811015610441578181015183820152602001610429565b50505050905090810190601f16801561046e5780820380516001836020036101000a031916815260200191505b509250505060405180910390f35b34801561048857600080fd5b506101726004803603602081101561049f57600080fd5b5035610c5d565b3480156104b257600080fd5b50610285610ed7565b3480156104c757600080fd5b50610172600480360360208110156104de57600080fd5b5035610ee6565b3480156104f157600080fd5b50610216610fac565b34801561050657600080fd5b50610285610fb2565b34801561051b57600080fd5b506101726004803603602081101561053257600080fd5b5035610fc1565b34801561054557600080fd5b506101726004803603602081101561055c57600080fd5b50356001600160a01b0316611081565b34801561057857600080fd5b50610285611172565b60a2546001600160a01b031633146105ca5760405162461bcd60e51b815260040180806020018281038252602e815260200180611be9602e913960400191505060405180910390fd5b565b6105d4611187565b6001600160a01b03166105e5610c12565b6001600160a01b03161461062e576040805162461bcd60e51b81526020600482018190526024820152600080516020611cbd833981519152604482015290519081900360640190fd5b609c8054600091829055604080519283525190917f357f366c64266f8e9a39eb163073d5136a4abc71ac12f8ec7c84faf498e7f8b8919081900360200190a1609f546040805163a9059cbb60e01b81523360048201526024810184905290516001600160a01b039092169163a9059cbb916044808201926020929091908290030181600087803b1580156106c157600080fd5b505af11580156106d5573d6000803e3d6000fd5b505050506040513d60208110156106eb57600080fd5b505050565b600054610100900460ff1680610709575061070961118b565b80610717575060005460ff16155b6107525760405162461bcd60e51b815260040180806020018281038252602e815260200180611c6e602e913960400191505060405180910390fd5b600054610100900460ff1615801561077d576000805460ff1961ff0019909116610100171660011790555b61078561119c565b61078d61124d565b61079a86868686866112e2565b80156107ac576000805461ff00191690555b505050505050565b60976020526000908152604090205481565b60006107d18261148d565b92915050565b609a5481565b609e546001600160a01b031681565b60026065541415610844576040805162461bcd60e51b815260206004820152601f60248201527f5265656e7472616e637947756172643a207265656e7472616e742063616c6c00604482015290519081900360640190fd5b600260655533600090815260976020526040902054610862816114f1565b600061086d33611530565b9050600061087a3361148d565b90506108853361156a565b83156109b757600061089785856115dc565b905060006108a585836115f4565b3360009081526097602052604090208190556098549091506108c790836115f4565b609881905560408051918252517fc4ca4e3d2fd1965e6d42d851e766d5b9a64dd0a8a670a1516843a0217757fa5d9181900360200190a1609e546040805163a9059cbb60e01b81523360048201526024810185905290516001600160a01b039092169163a9059cbb916044808201926020929091908290030181600087803b15801561095257600080fd5b505af1158015610966573d6000803e3d6000fd5b505050506040513d602081101561097c57600080fd5b505060408051828152905133917f39df0e5286a3ef2f42a0bf52f32cfe2c58e5b0405f47fe512f2c2439e4cfe204919081900360200190a250505b6040805182815260208101849052815133927ff744d34ca1cb25acfa4180df5f09a67306107110a9f4b6ed99bb3be259738215928290030190a2609f546040805163a9059cbb60e01b81523360048201526024810184905290516001600160a01b039092169163a9059cbb916044808201926020929091908290030181600087803b158015610a4557600080fd5b505af1158015610a59573d6000803e3d6000fd5b505050506040513d6020811015610a6f57600080fd5b50610a7b905082611651565b505060016065555050565b609d602052600090815260409020805460019091015482565b60006107d182611530565b609c5481565b610ab8611187565b6001600160a01b0316610ac9610c12565b6001600160a01b031614610b12576040805162461bcd60e51b81526020600482018190526024820152600080516020611cbd833981519152604482015290519081900360640190fd5b609b8054600091829055604080519283525190917f3c166cb25f40715a54c3d9ecdd3e27617e07cba29c3f98fdbb105f4445252d13919081900360200190a1610b5a81611651565b50565b60a0546001600160a01b031681565b610b74611187565b6001600160a01b0316610b85610c12565b6001600160a01b031614610bce576040805162461bcd60e51b81526020600482018190526024820152600080516020611cbd833981519152604482015290519081900360640190fd5b6033546040516000916001600160a01b031690600080516020611cdd833981519152908390a3603380546001600160a01b0319169055565b60995481565b60985481565b6033546001600160a01b031690565b670de0b6b3a764000081565b6040518060400160405280601481526020017350726f746f636f6c546f6b656e5374616b696e6760601b81525081565b60026065541415610cb5576040805162461bcd60e51b815260206004820152601f60248201527f5265656e7472616e637947756172643a207265656e7472616e742063616c6c00604482015290519081900360640190fd5b6002606555610cc381611717565b3360009081526097602052604081205490808215610cf257610ce433611530565b9150610cef3361148d565b90505b610cfb3361156a565b6000610d078486611756565b336000908152609760205260409020819055609854909150610d299086611756565b609881905560408051918252517fc4ca4e3d2fd1965e6d42d851e766d5b9a64dd0a8a670a1516843a0217757fa5d9181900360200190a1609e5460408051630553e6c560e51b81523360048201526024810188905290516001600160a01b039092169163aa7cd8a09160448082019260009290919082900301818387803b158015610db357600080fd5b505af1158015610dc7573d6000803e3d6000fd5b50506040805184815290513393507f39df0e5286a3ef2f42a0bf52f32cfe2c58e5b0405f47fe512f2c2439e4cfe20492509081900360200190a26040805183815260208101859052815133927ff744d34ca1cb25acfa4180df5f09a67306107110a9f4b6ed99bb3be259738215928290030190a28315610ecb57609f546040805163a9059cbb60e01b81523360048201526024810185905290516001600160a01b039092169163a9059cbb916044808201926020929091908290030181600087803b158015610e9557600080fd5b505af1158015610ea9573d6000803e3d6000fd5b505050506040513d6020811015610ebf57600080fd5b50610ecb905083611651565b50506001606555505050565b60a2546001600160a01b031681565b610eee6117b0565b60985415610f6557609854600090610f1890610f1284670de0b6b3a76400006117f9565b90611852565b609a54909150610f289082611756565b609a81905560408051918252517fd35d18f1d1506f94dd33c043c612cce724e9e52b5924bdf2b19d62ddfe26513b9181900360200190a150610b5a565b609c54610f729082611756565b609c81905560408051918252517f357f366c64266f8e9a39eb163073d5136a4abc71ac12f8ec7c84faf498e7f8b89181900360200190a150565b609b5481565b60a1546001600160a01b031681565b610fc96118b9565b6098541561103a57609854600090610fed90610f1284670de0b6b3a76400006117f9565b609954909150610ffd9082611756565b609981905560408051918252517febf7d091f46f1a9713f83361f4b7bdfc07a53d3e0b8582025f6318db750e8b9f9181900360200190a150610b5a565b609b546110479082611756565b609b81905560408051918252517f3c166cb25f40715a54c3d9ecdd3e27617e07cba29c3f98fdbb105f4445252d139181900360200190a150565b611089611187565b6001600160a01b031661109a610c12565b6001600160a01b0316146110e3576040805162461bcd60e51b81526020600482018190526024820152600080516020611cbd833981519152604482015290519081900360640190fd5b6001600160a01b0381166111285760405162461bcd60e51b8152600401808060200182810382526026815260200180611bc36026913960400191505060405180910390fd5b6033546040516001600160a01b03808416921690600080516020611cdd83398151915290600090a3603380546001600160a01b0319166001600160a01b0392909216919091179055565b609f546001600160a01b031681565b3b151590565b3390565b600061119630611181565b15905090565b600054610100900460ff16806111b557506111b561118b565b806111c3575060005460ff16155b6111fe5760405162461bcd60e51b815260040180806020018281038252602e815260200180611c6e602e913960400191505060405180910390fd5b600054610100900460ff16158015611229576000805460ff1961ff0019909116610100171660011790555b611231611902565b6112396119a2565b8015610b5a576000805461ff001916905550565b600054610100900460ff1680611266575061126661118b565b80611274575060005460ff16155b6112af5760405162461bcd60e51b815260040180806020018281038252602e815260200180611c6e602e913960400191505060405180910390fd5b600054610100900460ff161580156112da576000805460ff1961ff0019909116610100171660011790555b611239611a89565b6112eb85611b2f565b6112f484611b2f565b6112fd83611b2f565b61130682611b2f565b61130f81611b2f565b609e80546001600160a01b038088166001600160a01b03199283168117909355609f805488831690841617905560a0805487831690841617905560a1805486831690841617905560a280549185169190921617905560408051918252517f7b0c6ae24561d189fc90b337cbc97aa15d085bef32931237a762e3e528b285b49181900360200190a1604080516001600160a01b038616815290517f112220fa8dbe96141556e0dc3d74dd95075b323f4f297616048e02d82d7017159181900360200190a1604080516001600160a01b038516815290517f143219c9e69b09e07e095fcc889b43d8f46ca892bba65f08dc3a0050869a56789181900360200190a1604080516001600160a01b038416815290517f3ca631ffcd2a9b5d9ae18543fc82f58eb4ca33af9e6ab01b7a8e95331e6ed9859181900360200190a1604080516001600160a01b038316815290517f78f058b189175430c48dc02699e3a0031ea4ff781536dc2fab847de4babdd8829181900360200190a15050505050565b6001600160a01b0381166000908152609d6020526040812060010154609a5482906114e990670de0b6b3a764000090610f12906114ca90866115f4565b6001600160a01b038816600090815260976020526040902054906117f9565b949350505050565b60008111610b5a5760405162461bcd60e51b8152600401808060200182810382526035815260200180611d2c6035913960400191505060405180910390fd5b6001600160a01b0381166000908152609d602052604081205460995482906114e990670de0b6b3a764000090610f12906114ca90866115f4565b609980546001600160a01b0383166000818152609d6020908152604091829020938455609a54600190940184905593548151928352938201939093528083019190915290517f6b5cf27595af4428271524e0a5abd2b63f6fee1a61e31970490f5a10e257a1cd9181900360600190a150565b60008183106115eb57816115ed565b825b9392505050565b60008282111561164b576040805162461bcd60e51b815260206004820152601e60248201527f536166654d6174683a207375627472616374696f6e206f766572666c6f770000604482015290519081900360640190fd5b50900390565b604080513381526020810183905281517f3b2482b1bf6e751427503c9a8bf79e4dba3e6519259e2220428c2f326cc79c14929181900390910190a1604051600090339083908381818185875af1925050503d80600081146116ce576040519150601f19603f3d011682016040523d82523d6000602084013e6116d3565b606091505b50509050806117135760405162461bcd60e51b8152600401808060200182810382526038815260200180611b8b6038913960400191505060405180910390fd5b5050565b60008111610b5a5760405162461bcd60e51b815260040180806020018281038252602d815260200180611c17602d913960400191505060405180910390fd5b6000828201838110156115ed576040805162461bcd60e51b815260206004820152601b60248201527f536166654d6174683a206164646974696f6e206f766572666c6f770000000000604482015290519081900360640190fd5b60a1546001600160a01b031633146105ca5760405162461bcd60e51b815260040180806020018281038252602f815260200180611cfd602f913960400191505060405180910390fd5b600082611808575060006107d1565b8282028284828161181557fe5b04146115ed5760405162461bcd60e51b8152600401808060200182810382526021815260200180611c9c6021913960400191505060405180910390fd5b60008082116118a8576040805162461bcd60e51b815260206004820152601a60248201527f536166654d6174683a206469766973696f6e206279207a65726f000000000000604482015290519081900360640190fd5b8183816118b157fe5b049392505050565b60a0546001600160a01b031633146105ca5760405162461bcd60e51b815260040180806020018281038252602a815260200180611c44602a913960400191505060405180910390fd5b600054610100900460ff168061191b575061191b61118b565b80611929575060005460ff16155b6119645760405162461bcd60e51b815260040180806020018281038252602e815260200180611c6e602e913960400191505060405180910390fd5b600054610100900460ff16158015611239576000805460ff1961ff0019909116610100171660011790558015610b5a576000805461ff001916905550565b600054610100900460ff16806119bb57506119bb61118b565b806119c9575060005460ff16155b611a045760405162461bcd60e51b815260040180806020018281038252602e815260200180611c6e602e913960400191505060405180910390fd5b600054610100900460ff16158015611a2f576000805460ff1961ff0019909116610100171660011790555b6000611a39611187565b603380546001600160a01b0319166001600160a01b03831690811790915560405191925090600090600080516020611cdd833981519152908290a3508015610b5a576000805461ff001916905550565b600054610100900460ff1680611aa25750611aa261118b565b80611ab0575060005460ff16155b611aeb5760405162461bcd60e51b815260040180806020018281038252602e815260200180611c6e602e913960400191505060405180910390fd5b600054610100900460ff16158015611b16576000805460ff1961ff0019909116610100171660011790555b60016065558015610b5a576000805461ff001916905550565b6001600160a01b038116610b5a576040805162461bcd60e51b815260206004820152601e60248201527f4163636f756e742063616e6e6f74206265207a65726f20616464726573730000604482015290519081900360640190fdfe50726f746f636f6c546f6b656e5374616b696e673a204661696c656420746f2073656e6420616363756d756c617465642046494c4761696e4f776e61626c653a206e6577206f776e657220697320746865207a65726f206164647265737350726f746f636f6c546f6b656e5374616b696e673a2063616c6c6572206973206e6f7420416374697665506f6f6c50726f746f636f6c546f6b656e5374616b696e673a20416d6f756e74206d757374206265206e6f6e2d7a65726f50726f746f636f6c546f6b656e5374616b696e673a2063616c6c6572206973206e6f742054726f76654d496e697469616c697a61626c653a20636f6e747261637420697320616c726561647920696e697469616c697a6564536166654d6174683a206d756c7469706c69636174696f6e206f766572666c6f774f776e61626c653a2063616c6c6572206973206e6f7420746865206f776e65728be0079c531659141344cd1fd0a4f28419497f9722a3daafe3b4186f6b6457e050726f746f636f6c546f6b656e5374616b696e673a2063616c6c6572206973206e6f7420426f72726f7765724f707350726f746f636f6c546f6b656e5374616b696e673a2055736572206d75737420686176652061206e6f6e2d7a65726f207374616b65a26469706673582212209aaa38e701d25befc0412ed6b4f3d971760406f7840b1469930891719be4559664736f6c63430007060033496e697469616c697a61626c653a20636f6e747261637420697320616c726561647920696e697469616c697a6564",
  "linkReferences": {},
  "deployedLinkReferences": {}
}