{
  "_format": "hh-sol-artifact-1",
  "contractName": "ProtocolTokenStakingTester",
  "sourceName": "contracts/TestContracts/ProtocolTokenStakingTester.sol",
  "abi": [
    {
      "anonymous": false,
      "inputs": [
        {
          "indexed": false,
          "internalType": "address",
          "name": "_activePoolAddress",
          "type": "address"
        }
      ],
      "name": "ActivePoolAddressSet",
      "type": "event"
    },
    {
      "anonymous": false,
      "inputs": [
        {
          "indexed": false,
          "internalType": "address",
          "name": "_borrowerOperationsAddress",
          "type": "address"
        }
      ],
      "name": "BorrowerOperationsAddressSet",
      "type": "event"
    },
    {
      "anonymous": false,
      "inputs": [
        {
          "indexed": false,
          "internalType": "address",
          "name": "_debtTokenAddress",
          "type": "address"
        }
      ],
      "name": "DebtTokenAddressSet",
      "type": "event"
    },
    {
      "anonymous": false,
      "inputs": [
        {
          "indexed": false,
          "internalType": "address",
          "name": "_account",
          "type": "address"
        },
        {
          "indexed": false,
          "internalType": "uint256",
          "name": "_amount",
          "type": "uint256"
        }
      ],
      "name": "FILSent",
      "type": "event"
    },
    {
      "anonymous": false,
      "inputs": [
        {
          "indexed": false,
          "internalType": "uint256",
          "name": "_F_DebtToken",
          "type": "uint256"
        }
      ],
      "name": "F_DebtTokenUpdated",
      "type": "event"
    },
    {
      "anonymous": false,
      "inputs": [
        {
          "indexed": false,
          "internalType": "uint256",
          "name": "_F_FIL",
          "type": "uint256"
        }
      ],
      "name": "F_FILUpdated",
      "type": "event"
    },
    {
      "anonymous": false,
      "inputs": [
        {
          "indexed": true,
          "internalType": "address",
          "name": "previousOwner",
          "type": "address"
        },
        {
          "indexed": true,
          "internalType": "address",
          "name": "newOwner",
          "type": "address"
        }
      ],
      "name": "OwnershipTransferred",
      "type": "event"
    },
    {
      "anonymous": false,
      "inputs": [
        {
          "indexed": false,
          "internalType": "address",
          "name": "_protocolTokenAddress",
          "type": "address"
        }
      ],
      "name": "ProtocolTokenAddressSet",
      "type": "event"
    },
    {
      "anonymous": false,
      "inputs": [
        {
          "indexed": true,
          "internalType": "address",
          "name": "staker",
          "type": "address"
        },
        {
          "indexed": false,
          "internalType": "uint256",
          "name": "newStake",
          "type": "uint256"
        }
      ],
      "name": "StakeChanged",
      "type": "event"
    },
    {
      "anonymous": false,
      "inputs": [
        {
          "indexed": false,
          "internalType": "address",
          "name": "_staker",
          "type": "address"
        },
        {
          "indexed": false,
          "internalType": "uint256",
          "name": "_F_FIL",
          "type": "uint256"
        },
        {
          "indexed": false,
          "internalType": "uint256",
          "name": "_F_DebtToken",
          "type": "uint256"
        }
      ],
      "name": "StakerSnapshotsUpdated",
      "type": "event"
    },
    {
      "anonymous": false,
      "inputs": [
        {
          "indexed": true,
          "internalType": "address",
          "name": "staker",
          "type": "address"
        },
        {
          "indexed": false,
          "internalType": "uint256",
          "name": "debtTokenGain",
          "type": "uint256"
        },
        {
          "indexed": false,
          "internalType": "uint256",
          "name": "FILGain",
          "type": "uint256"
        }
      ],
      "name": "StakingGainsWithdrawn",
      "type": "event"
    },
    {
      "anonymous": false,
      "inputs": [
        {
          "indexed": false,
          "internalType": "uint256",
          "name": "_totalProtocolTokenStaked",
          "type": "uint256"
        }
      ],
      "name": "TotalProtocolTokenStakedUpdated",
      "type": "event"
    },
    {
      "anonymous": false,
      "inputs": [
        {
          "indexed": false,
          "internalType": "address",
          "name": "_troveManager",
          "type": "address"
        }
      ],
      "name": "TroveManagerAddressSet",
      "type": "event"
    },
    {
      "anonymous": false,
      "inputs": [
        {
          "indexed": false,
          "internalType": "uint256",
          "name": "_unallocatedDebtToken",
          "type": "uint256"
        }
      ],
      "name": "UnallocatedDebtTokenUpdated",
      "type": "event"
    },
    {
      "anonymous": false,
      "inputs": [
        {
          "indexed": false,
          "internalType": "uint256",
          "name": "_unallocatedFIL",
          "type": "uint256"
        }
      ],
      "name": "UnallocatedFILUpdated",
      "type": "event"
    },
    {
      "inputs": [],
      "name": "DECIMAL_PRECISION",
      "outputs": [
        {
          "internalType": "uint256",
          "name": "",
          "type": "uint256"
        }
      ],
      "stateMutability": "view",
      "type": "function"
    },
    {
      "inputs": [],
      "name": "F_DebtToken",
      "outputs": [
        {
          "internalType": "uint256",
          "name": "",
          "type": "uint256"
        }
      ],
      "stateMutability": "view",
      "type": "function"
    },
    {
      "inputs": [],
      "name": "F_FIL",
      "outputs": [
        {
          "internalType": "uint256",
          "name": "",
          "type": "uint256"
        }
      ],
      "stateMutability": "view",
      "type": "function"
    },
    {
      "inputs": [],
      "name": "NAME",
      "outputs": [
        {
          "internalType": "string",
          "name": "",
          "type": "string"
        }
      ],
      "stateMutability": "view",
      "type": "function"
    },
    {
      "inputs": [],
      "name": "activePoolAddress",
      "outputs": [
        {
          "internalType": "address",
          "name": "",
          "type": "address"
        }
      ],
      "stateMutability": "view",
      "type": "function"
    },
    {
      "inputs": [],
      "name": "borrowerOperationsAddress",
      "outputs": [
        {
          "internalType": "address",
          "name": "",
          "type": "address"
        }
      ],
      "stateMutability": "view",
      "type": "function"
    },
    {
      "inputs": [],
      "name": "debtToken",
      "outputs": [
        {
          "internalType": "contract IDebtToken",
          "name": "",
          "type": "address"
        }
      ],
      "stateMutability": "view",
      "type": "function"
    },
    {
      "inputs": [
        {
          "internalType": "address",
          "name": "_user",
          "type": "address"
        }
      ],
      "name": "getPendingDebtTokenGain",
      "outputs": [
        {
          "internalType": "uint256",
          "name": "",
          "type": "uint256"
        }
      ],
      "stateMutability": "view",
      "type": "function"
    },
    {
      "inputs": [
        {
          "internalType": "address",
          "name": "_user",
          "type": "address"
        }
      ],
      "name": "getPendingFILGain",
      "outputs": [
        {
          "internalType": "uint256",
          "name": "",
          "type": "uint256"
        }
      ],
      "stateMutability": "view",
      "type": "function"
    },
    {
      "inputs": [
        {
          "internalType": "uint256",
          "name": "_debtTokenFee",
          "type": "uint256"
        }
      ],
      "name": "increaseF_DebtToken",
      "outputs": [],
      "stateMutability": "nonpayable",
      "type": "function"
    },
    {
      "inputs": [
        {
          "internalType": "uint256",
          "name": "_FILFee",
          "type": "uint256"
        }
      ],
      "name": "increaseF_FIL",
      "outputs": [],
      "stateMutability": "nonpayable",
      "type": "function"
    },
    {
      "inputs": [
        {
          "internalType": "address",
          "name": "_protocolTokenAddress",
          "type": "address"
        },
        {
          "internalType": "address",
          "name": "_debtTokenAddress",
          "type": "address"
        },
        {
          "internalType": "address",
          "name": "_troveManagerAddress",
          "type": "address"
        },
        {
          "internalType": "address",
          "name": "_borrowerOperationsAddress",
          "type": "address"
        },
        {
          "internalType": "address",
          "name": "_activePoolAddress",
          "type": "address"
        }
      ],
      "name": "initialize",
      "outputs": [],
      "stateMutability": "nonpayable",
      "type": "function"
    },
    {
      "inputs": [],
      "name": "owner",
      "outputs": [
        {
          "internalType": "address",
          "name": "",
          "type": "address"
        }
      ],
      "stateMutability": "view",
      "type": "function"
    },
    {
      "inputs": [],
      "name": "protocolToken",
      "outputs": [
        {
          "internalType": "contract IProtocolToken",
          "name": "",
          "type": "address"
        }
      ],
      "stateMutability": "view",
      "type": "function"
    },
    {
      "inputs": [],
      "name": "renounceOwnership",
      "outputs": [],
      "stateMutability": "nonpayable",
      "type": "function"
    },
    {
      "inputs": [],
      "name": "requireCallerIsTroveManager",
      "outputs": [],
      "stateMutability": "view",
      "type": "function"
    },
    {
      "inputs": [
        {
          "internalType": "address",
          "name": "",
          "type": "address"
        }
      ],
      "name": "snapshots",
      "outputs": [
        {
          "internalType": "uint256",
          "name": "F_FIL_Snapshot",
          "type": "uint256"
        },
        {
          "internalType": "uint256",
          "name": "F_DebtToken_Snapshot",
          "type": "uint256"
        }
      ],
      "stateMutability": "view",
      "type": "function"
    },
    {
      "inputs": [
        {
          "internalType": "uint256",
          "name": "_tokenAmount",
          "type": "uint256"
        }
      ],
      "name": "stake",
      "outputs": [],
      "stateMutability": "nonpayable",
      "type": "function"
    },
    {
      "inputs": [
        {
          "internalType": "address",
          "name": "",
          "type": "address"
        }
      ],
      "name": "stakes",
      "outputs": [
        {
          "internalType": "uint256",
          "name": "",
          "type": "uint256"
        }
      ],
      "stateMutability": "view",
      "type": "function"
    },
    {
      "inputs": [],
      "name": "totalProtocolTokenStaked",
      "outputs": [
        {
          "internalType": "uint256",
          "name": "",
          "type": "uint256"
        }
      ],
      "stateMutability": "view",
      "type": "function"
    },
    {
      "inputs": [
        {
          "internalType": "address",
          "name": "newOwner",
          "type": "address"
        }
      ],
      "name": "transferOwnership",
      "outputs": [],
      "stateMutability": "nonpayable",
      "type": "function"
    },
    {
      "inputs": [],
      "name": "troveManagerAddress",
      "outputs": [
        {
          "internalType": "address",
          "name": "",
          "type": "address"
        }
      ],
      "stateMutability": "view",
      "type": "function"
    },
    {
      "inputs": [],
      "name": "unallocatedDebtToken",
      "outputs": [
        {
          "internalType": "uint256",
          "name": "",
          "type": "uint256"
        }
      ],
      "stateMutability": "view",
      "type": "function"
    },
    {
      "inputs": [],
      "name": "unallocatedFIL",
      "outputs": [
        {
          "internalType": "uint256",
          "name": "",
          "type": "uint256"
        }
      ],
      "stateMutability": "view",
      "type": "function"
    },
    {
      "inputs": [
        {
          "internalType": "uint256",
          "name": "_tokenAmount",
          "type": "uint256"
        }
      ],
      "name": "unstake",
      "outputs": [],
      "stateMutability": "nonpayable",
      "type": "function"
    },
    {
      "inputs": [],
      "name": "withdrawUnallocatedDebtToken",
      "outputs": [],
      "stateMutability": "nonpayable",
      "type": "function"
    },
    {
      "inputs": [],
      "name": "withdrawUnallocatedFIL",
      "outputs": [],
      "stateMutability": "nonpayable",
      "type": "function"
    },
    {
      "stateMutability": "payable",
      "type": "receive"
    }
  ],
  "bytecode": "0x608060405234801561001057600080fd5b50611bb7806100206000396000f3fe6080604052600436106101705760003560e01c8063715018a6116100cc578063b08bc7221161007a578063b08bc722146104c6578063b1955ad2146104db578063b6a233e514610505578063b7f8cf9b1461051a578063c91d2d381461052f578063f2fde38b14610559578063f8d898981461058c5761017f565b8063715018a6146103a95780637415fa18146103be5780638da538a3146103d35780638da5cb5b146103e8578063a20baee6146103fd578063a3f4df7e14610412578063a694fc3a1461049c5761017f565b80632e17de78116101295780632e17de78146102ac57806334b3081f146102d65780633b95b91d146103225780633cd27e671461033757806346b3252f1461036a5780634d60d8ae1461037f5780635a4d28bb146103945761017f565b80630b22ac32146101845780631459457a1461019957806316934fc4146101ee57806317f175dc146102335780631a14971b146102665780631a465fe11461027b5761017f565b3661017f5761017d6105a1565b005b600080fd5b34801561019057600080fd5b5061017d6105ec565b3480156101a557600080fd5b5061017d600480360360a08110156101bc57600080fd5b506001600160a01b03813581169160208101358216916040820135811691606081013582169160809091013516610710565b3480156101fa57600080fd5b506102216004803603602081101561021157600080fd5b50356001600160a01b03166107cc565b60408051918252519081900360200190f35b34801561023f57600080fd5b506102216004803603602081101561025657600080fd5b50356001600160a01b03166107de565b34801561027257600080fd5b506102216107ef565b34801561028757600080fd5b506102906107f5565b604080516001600160a01b039092168252519081900360200190f35b3480156102b857600080fd5b5061017d600480360360208110156102cf57600080fd5b5035610804565b3480156102e257600080fd5b50610309600480360360208110156102f957600080fd5b50356001600160a01b0316610a3c565b6040805192835260208301919091528051918290030190f35b34801561032e57600080fd5b5061017d610a55565b34801561034357600080fd5b506102216004803603602081101561035a57600080fd5b50356001600160a01b0316610a5d565b34801561037657600080fd5b50610221610a68565b34801561038b57600080fd5b5061017d610a6e565b3480156103a057600080fd5b50610290610b1b565b3480156103b557600080fd5b5061017d610b2a565b3480156103ca57600080fd5b50610221610bc4565b3480156103df57600080fd5b50610221610bca565b3480156103f457600080fd5b50610290610bd0565b34801561040957600080fd5b50610221610bdf565b34801561041e57600080fd5b50610427610beb565b6040805160208082528351818301528351919283929083019185019080838360005b83811015610461578181015183820152602001610449565b50505050905090810190601f16801561048e5780820380516001836020036101000a031916815260200191505b509250505060405180910390f35b3480156104a857600080fd5b5061017d600480360360208110156104bf57600080fd5b5035610c1b565b3480156104d257600080fd5b50610290610e33565b3480156104e757600080fd5b5061017d600480360360208110156104fe57600080fd5b5035610e42565b34801561051157600080fd5b50610221610f08565b34801561052657600080fd5b50610290610f0e565b34801561053b57600080fd5b5061017d6004803603602081101561055257600080fd5b5035610f1d565b34801561056557600080fd5b5061017d6004803603602081101561057c57600080fd5b50356001600160a01b0316610fdd565b34801561059857600080fd5b506102906110ce565b6070546001600160a01b031633146105ea5760405162461bcd60e51b815260040180806020018281038252602e815260200180611a0a602e913960400191505060405180910390fd5b565b6105f46110dd565b6001600160a01b0316610605610bd0565b6001600160a01b03161461064e576040805162461bcd60e51b81526020600482018190526024820152600080516020611ade833981519152604482015290519081900360640190fd5b606a8054600091829055604080519283525190917f357f366c64266f8e9a39eb163073d5136a4abc71ac12f8ec7c84faf498e7f8b8919081900360200190a1606d546040805163a9059cbb60e01b81523360048201526024810184905290516001600160a01b039092169163a9059cbb916044808201926020929091908290030181600087803b1580156106e157600080fd5b505af11580156106f5573d6000803e3d6000fd5b505050506040513d602081101561070b57600080fd5b505050565b600054610100900460ff168061072957506107296110e1565b80610737575060005460ff16155b6107725760405162461bcd60e51b815260040180806020018281038252602e815260200180611a8f602e913960400191505060405180910390fd5b600054610100900460ff1615801561079d576000805460ff1961ff0019909116610100171660011790555b6107a56110f2565b6107b286868686866111a3565b80156107c4576000805461ff00191690555b505050505050565b60656020526000908152604090205481565b60006107e98261134e565b92915050565b60685481565b606c546001600160a01b031681565b3360009081526065602052604090205461081d816113b2565b6000610828336113f1565b905060006108353361134e565b90506108403361142b565b8315610972576000610852858561149d565b9050600061086085836114b5565b33600090815260656020526040902081905560665490915061088290836114b5565b606681905560408051918252517fc4ca4e3d2fd1965e6d42d851e766d5b9a64dd0a8a670a1516843a0217757fa5d9181900360200190a1606c546040805163a9059cbb60e01b81523360048201526024810185905290516001600160a01b039092169163a9059cbb916044808201926020929091908290030181600087803b15801561090d57600080fd5b505af1158015610921573d6000803e3d6000fd5b505050506040513d602081101561093757600080fd5b505060408051828152905133917f39df0e5286a3ef2f42a0bf52f32cfe2c58e5b0405f47fe512f2c2439e4cfe204919081900360200190a250505b6040805182815260208101849052815133927ff744d34ca1cb25acfa4180df5f09a67306107110a9f4b6ed99bb3be259738215928290030190a2606d546040805163a9059cbb60e01b81523360048201526024810184905290516001600160a01b039092169163a9059cbb916044808201926020929091908290030181600087803b158015610a0057600080fd5b505af1158015610a14573d6000803e3d6000fd5b505050506040513d6020811015610a2a57600080fd5b50610a36905082611512565b50505050565b606b602052600090815260409020805460019091015482565b6105ea6115d8565b60006107e9826113f1565b606a5481565b610a766110dd565b6001600160a01b0316610a87610bd0565b6001600160a01b031614610ad0576040805162461bcd60e51b81526020600482018190526024820152600080516020611ade833981519152604482015290519081900360640190fd5b60698054600091829055604080519283525190917f3c166cb25f40715a54c3d9ecdd3e27617e07cba29c3f98fdbb105f4445252d13919081900360200190a1610b1881611512565b50565b606e546001600160a01b031681565b610b326110dd565b6001600160a01b0316610b43610bd0565b6001600160a01b031614610b8c576040805162461bcd60e51b81526020600482018190526024820152600080516020611ade833981519152604482015290519081900360640190fd5b6033546040516000916001600160a01b031690600080516020611afe833981519152908390a3603380546001600160a01b0319169055565b60675481565b60665481565b6033546001600160a01b031690565b670de0b6b3a764000081565b6040518060400160405280601481526020017350726f746f636f6c546f6b656e5374616b696e6760601b81525081565b610c2481611621565b3360009081526065602052604081205490808215610c5357610c45336113f1565b9150610c503361134e565b90505b610c5c3361142b565b6000610c688486611660565b336000908152606560205260409020819055606654909150610c8a9086611660565b606681905560408051918252517fc4ca4e3d2fd1965e6d42d851e766d5b9a64dd0a8a670a1516843a0217757fa5d9181900360200190a1606c5460408051630553e6c560e51b81523360048201526024810188905290516001600160a01b039092169163aa7cd8a09160448082019260009290919082900301818387803b158015610d1457600080fd5b505af1158015610d28573d6000803e3d6000fd5b50506040805184815290513393507f39df0e5286a3ef2f42a0bf52f32cfe2c58e5b0405f47fe512f2c2439e4cfe20492509081900360200190a26040805183815260208101859052815133927ff744d34ca1cb25acfa4180df5f09a67306107110a9f4b6ed99bb3be259738215928290030190a28315610e2c57606d546040805163a9059cbb60e01b81523360048201526024810185905290516001600160a01b039092169163a9059cbb916044808201926020929091908290030181600087803b158015610df657600080fd5b505af1158015610e0a573d6000803e3d6000fd5b505050506040513d6020811015610e2057600080fd5b50610e2c905083611512565b5050505050565b6070546001600160a01b031681565b610e4a6116ba565b60665415610ec157606654600090610e7490610e6e84670de0b6b3a7640000611703565b9061175c565b606854909150610e849082611660565b606881905560408051918252517fd35d18f1d1506f94dd33c043c612cce724e9e52b5924bdf2b19d62ddfe26513b9181900360200190a150610b18565b606a54610ece9082611660565b606a81905560408051918252517f357f366c64266f8e9a39eb163073d5136a4abc71ac12f8ec7c84faf498e7f8b89181900360200190a150565b60695481565b606f546001600160a01b031681565b610f256115d8565b60665415610f9657606654600090610f4990610e6e84670de0b6b3a7640000611703565b606754909150610f599082611660565b606781905560408051918252517febf7d091f46f1a9713f83361f4b7bdfc07a53d3e0b8582025f6318db750e8b9f9181900360200190a150610b18565b606954610fa39082611660565b606981905560408051918252517f3c166cb25f40715a54c3d9ecdd3e27617e07cba29c3f98fdbb105f4445252d139181900360200190a150565b610fe56110dd565b6001600160a01b0316610ff6610bd0565b6001600160a01b03161461103f576040805162461bcd60e51b81526020600482018190526024820152600080516020611ade833981519152604482015290519081900360640190fd5b6001600160a01b0381166110845760405162461bcd60e51b81526004018080602001828103825260268152602001806119e46026913960400191505060405180910390fd5b6033546040516001600160a01b03808416921690600080516020611afe83398151915290600090a3603380546001600160a01b0319166001600160a01b0392909216919091179055565b606d546001600160a01b031681565b3390565b60006110ec306117c3565b15905090565b600054610100900460ff168061110b575061110b6110e1565b80611119575060005460ff16155b6111545760405162461bcd60e51b815260040180806020018281038252602e815260200180611a8f602e913960400191505060405180910390fd5b600054610100900460ff1615801561117f576000805460ff1961ff0019909116610100171660011790555b6111876117c9565b61118f611869565b8015610b18576000805461ff001916905550565b6111ac85611950565b6111b584611950565b6111be83611950565b6111c782611950565b6111d081611950565b606c80546001600160a01b038088166001600160a01b03199283168117909355606d8054888316908416179055606e8054878316908416179055606f8054868316908416179055607080549185169190921617905560408051918252517f8b70fff6eb19dda13b7b98f7e1b6aff53cc8a27c0ffe6282cc22727fdcd4e2319181900360200190a1604080516001600160a01b038616815290517f482942d8b227a1a84982f337b8b18662fde02dc7a4cce912c74090cb529f25909181900360200190a1604080516001600160a01b038516815290517f41097dcc1f7cbd663d822443d7972f05b04f71918b30fe9fc59dd6e42e2280609181900360200190a1604080516001600160a01b038416815290517f5962f8af633c4df1ab230096f773a514ee5adf7785c621ecdcdb764cb7f6e3919181900360200190a1604080516001600160a01b038316815290517f8f6a6e7d20a3233e0a79883272259ffbd7a243734e397bc2b4642c79d7fa8a6d9181900360200190a15050505050565b6001600160a01b0381166000908152606b602052604081206001015460685482906113aa90670de0b6b3a764000090610e6e9061138b90866114b5565b6001600160a01b03881660009081526065602052604090205490611703565b949350505050565b60008111610b185760405162461bcd60e51b8152600401808060200182810382526035815260200180611b4d6035913960400191505060405180910390fd5b6001600160a01b0381166000908152606b602052604081205460675482906113aa90670de0b6b3a764000090610e6e9061138b90866114b5565b606780546001600160a01b0383166000818152606b6020908152604091829020938455606854600190940184905593548151928352938201939093528083019190915290517f6b5cf27595af4428271524e0a5abd2b63f6fee1a61e31970490f5a10e257a1cd9181900360600190a150565b60008183106114ac57816114ae565b825b9392505050565b60008282111561150c576040805162461bcd60e51b815260206004820152601e60248201527f536166654d6174683a207375627472616374696f6e206f766572666c6f770000604482015290519081900360640190fd5b50900390565b604080513381526020810183905281517f3b2482b1bf6e751427503c9a8bf79e4dba3e6519259e2220428c2f326cc79c14929181900390910190a1604051600090339083908381818185875af1925050503d806000811461158f576040519150601f19603f3d011682016040523d82523d6000602084013e611594565b606091505b50509050806115d45760405162461bcd60e51b81526004018080602001828103825260388152602001806119ac6038913960400191505060405180910390fd5b5050565b606e546001600160a01b031633146105ea5760405162461bcd60e51b815260040180806020018281038252602a815260200180611a65602a913960400191505060405180910390fd5b60008111610b185760405162461bcd60e51b815260040180806020018281038252602d815260200180611a38602d913960400191505060405180910390fd5b6000828201838110156114ae576040805162461bcd60e51b815260206004820152601b60248201527f536166654d6174683a206164646974696f6e206f766572666c6f770000000000604482015290519081900360640190fd5b606f546001600160a01b031633146105ea5760405162461bcd60e51b815260040180806020018281038252602f815260200180611b1e602f913960400191505060405180910390fd5b600082611712575060006107e9565b8282028284828161171f57fe5b04146114ae5760405162461bcd60e51b8152600401808060200182810382526021815260200180611abd6021913960400191505060405180910390fd5b60008082116117b2576040805162461bcd60e51b815260206004820152601a60248201527f536166654d6174683a206469766973696f6e206279207a65726f000000000000604482015290519081900360640190fd5b8183816117bb57fe5b049392505050565b3b151590565b600054610100900460ff16806117e257506117e26110e1565b806117f0575060005460ff16155b61182b5760405162461bcd60e51b815260040180806020018281038252602e815260200180611a8f602e913960400191505060405180910390fd5b600054610100900460ff1615801561118f576000805460ff1961ff0019909116610100171660011790558015610b18576000805461ff001916905550565b600054610100900460ff168061188257506118826110e1565b80611890575060005460ff16155b6118cb5760405162461bcd60e51b815260040180806020018281038252602e815260200180611a8f602e913960400191505060405180910390fd5b600054610100900460ff161580156118f6576000805460ff1961ff0019909116610100171660011790555b60006119006110dd565b603380546001600160a01b0319166001600160a01b03831690811790915560405191925090600090600080516020611afe833981519152908290a3508015610b18576000805461ff001916905550565b6001600160a01b038116610b18576040805162461bcd60e51b815260206004820152601e60248201527f4163636f756e742063616e6e6f74206265207a65726f20616464726573730000604482015290519081900360640190fdfe50726f746f636f6c546f6b656e5374616b696e673a204661696c656420746f2073656e6420616363756d756c617465642046494c4761696e4f776e61626c653a206e6577206f776e657220697320746865207a65726f206164647265737350726f746f636f6c546f6b656e5374616b696e673a2063616c6c6572206973206e6f7420416374697665506f6f6c50726f746f636f6c546f6b656e5374616b696e673a20416d6f756e74206d757374206265206e6f6e2d7a65726f50726f746f636f6c546f6b656e5374616b696e673a2063616c6c6572206973206e6f742054726f76654d496e697469616c697a61626c653a20636f6e747261637420697320616c726561647920696e697469616c697a6564536166654d6174683a206d756c7469706c69636174696f6e206f766572666c6f774f776e61626c653a2063616c6c6572206973206e6f7420746865206f776e65728be0079c531659141344cd1fd0a4f28419497f9722a3daafe3b4186f6b6457e050726f746f636f6c546f6b656e5374616b696e673a2063616c6c6572206973206e6f7420426f72726f7765724f707350726f746f636f6c546f6b656e5374616b696e673a2055736572206d75737420686176652061206e6f6e2d7a65726f207374616b65a2646970667358221220a056eb8a95899fe8c002884157d7f4aeb5ed3d6901832908c096ae72cae028e464736f6c63430007060033",
  "linkReferences": {},
  "deployedLinkReferences": {}
}