{
  "_format": "hh-sol-artifact-1",
  "contractName": "ProtocolMathTester",
  "sourceName": "contracts/TestContracts/ProtocolMathTester.sol",
  "abi": [
    {
      "inputs": [
        {
          "internalType": "uint256",
          "name": "_base",
          "type": "uint256"
        },
        {
          "internalType": "uint256",
          "name": "_n",
          "type": "uint256"
        }
      ],
      "name": "callDecPow",
      "outputs": [
        {
          "internalType": "uint256",
          "name": "",
          "type": "uint256"
        }
      ],
      "stateMutability": "pure",
      "type": "function"
    },
    {
      "inputs": [
        {
          "internalType": "uint256",
          "name": "_base",
          "type": "uint256"
        },
        {
          "internalType": "uint256",
          "name": "_n",
          "type": "uint256"
        }
      ],
      "name": "callDecPowTx",
      "outputs": [
        {
          "internalType": "uint256",
          "name": "",
          "type": "uint256"
        }
      ],
      "stateMutability": "pure",
      "type": "function"
    },
    {
      "inputs": [
        {
          "internalType": "uint256",
          "name": "_a",
          "type": "uint256"
        },
        {
          "internalType": "uint256",
          "name": "_b",
          "type": "uint256"
        }
      ],
      "name": "callMax",
      "outputs": [
        {
          "internalType": "uint256",
          "name": "",
          "type": "uint256"
        }
      ],
      "stateMutability": "pure",
      "type": "function"
    }
  ],
  "bytecode": "0x608060405234801561001057600080fd5b50610443806100206000396000f3fe608060405234801561001057600080fd5b50600436106100405760003560e01c8062fa72ff1461004557806336090b011461007a578063d407725214610045575b600080fd5b6100686004803603604081101561005b57600080fd5b508035906020013561009d565b60408051918252519081900360200190f35b6100686004803603604081101561009057600080fd5b50803590602001356100b2565b60006100a983836100be565b90505b92915050565b60006100a9838361016d565b6000631f5405008211156100d457631f54050091505b816100e85750670de0b6b3a76400006100ac565b670de0b6b3a764000083835b600181111561015957600281066101235761010f8283610184565b915061011c8160026101b9565b9050610154565b61012d8284610184565b92506101398283610184565b9150610151600261014b8360016101fb565b906101b9565b90505b6100f4565b6101638284610184565b9695505050505050565b60008183101561017d57816100a9565b5090919050565b600080610191848461023d565b90506101b1670de0b6b3a764000061014b836706f05b59d3b20000610296565b949350505050565b60006100a983836040518060400160405280601a81526020017f536166654d6174683a206469766973696f6e206279207a65726f0000000000008152506102f0565b60006100a983836040518060400160405280601e81526020017f536166654d6174683a207375627472616374696f6e206f766572666c6f770000815250610392565b60008261024c575060006100ac565b8282028284828161025957fe5b04146100a95760405162461bcd60e51b81526004018080602001828103825260218152602001806103ed6021913960400191505060405180910390fd5b6000828201838110156100a9576040805162461bcd60e51b815260206004820152601b60248201527f536166654d6174683a206164646974696f6e206f766572666c6f770000000000604482015290519081900360640190fd5b6000818361037c5760405162461bcd60e51b81526004018080602001828103825283818151815260200191508051906020019080838360005b83811015610341578181015183820152602001610329565b50505050905090810190601f16801561036e5780820380516001836020036101000a031916815260200191505b509250505060405180910390fd5b50600083858161038857fe5b0495945050505050565b600081848411156103e45760405162461bcd60e51b8152602060048201818152835160248401528351909283926044909101919085019080838360008315610341578181015183820152602001610329565b50505090039056fe536166654d6174683a206d756c7469706c69636174696f6e206f766572666c6f77a2646970667358221220c1151aba077e40717765bff92f7f3839d8c9a456645249b9e4c427976872405064736f6c63430007060033",
  "linkReferences": {},
  "deployedLinkReferences": {}
}