{
  "_format": "hh-sol-artifact-1",
  "contractName": "ProtocolToken",
  "sourceName": "contracts/ProtocolToken/ProtocolToken.sol",
  "abi": [
    {
      "inputs": [],
      "stateMutability": "nonpayable",
      "type": "constructor"
    },
    {
      "anonymous": false,
      "inputs": [
        {
          "indexed": true,
          "internalType": "address",
          "name": "owner",
          "type": "address"
        },
        {
          "indexed": true,
          "internalType": "address",
          "name": "spender",
          "type": "address"
        },
        {
          "indexed": false,
          "internalType": "uint256",
          "name": "value",
          "type": "uint256"
        }
      ],
      "name": "Approval",
      "type": "event"
    },
    {
      "anonymous": false,
      "inputs": [
        {
          "indexed": true,
          "internalType": "address",
          "name": "previousOwner",
          "type": "address"
        },
        {
          "indexed": true,
          "internalType": "address",
          "name": "newOwner",
          "type": "address"
        }
      ],
      "name": "OwnershipTransferred",
      "type": "event"
    },
    {
      "anonymous": false,
      "inputs": [
        {
          "indexed": true,
          "internalType": "address",
          "name": "from",
          "type": "address"
        },
        {
          "indexed": true,
          "internalType": "address",
          "name": "to",
          "type": "address"
        },
        {
          "indexed": false,
          "internalType": "uint256",
          "name": "value",
          "type": "uint256"
        }
      ],
      "name": "Transfer",
      "type": "event"
    },
    {
      "inputs": [],
      "name": "ONE_YEAR_IN_SECONDS",
      "outputs": [
        {
          "internalType": "uint256",
          "name": "",
          "type": "uint256"
        }
      ],
      "stateMutability": "view",
      "type": "function"
    },
    {
      "inputs": [
        {
          "internalType": "address",
          "name": "owner",
          "type": "address"
        },
        {
          "internalType": "address",
          "name": "spender",
          "type": "address"
        }
      ],
      "name": "allowance",
      "outputs": [
        {
          "internalType": "uint256",
          "name": "",
          "type": "uint256"
        }
      ],
      "stateMutability": "view",
      "type": "function"
    },
    {
      "inputs": [
        {
          "internalType": "address",
          "name": "spender",
          "type": "address"
        },
        {
          "internalType": "uint256",
          "name": "amount",
          "type": "uint256"
        }
      ],
      "name": "approve",
      "outputs": [
        {
          "internalType": "bool",
          "name": "",
          "type": "bool"
        }
      ],
      "stateMutability": "nonpayable",
      "type": "function"
    },
    {
      "inputs": [
        {
          "internalType": "address",
          "name": "account",
          "type": "address"
        }
      ],
      "name": "balanceOf",
      "outputs": [
        {
          "internalType": "uint256",
          "name": "",
          "type": "uint256"
        }
      ],
      "stateMutability": "view",
      "type": "function"
    },
    {
      "inputs": [],
      "name": "communityIssuanceAddress",
      "outputs": [
        {
          "internalType": "address",
          "name": "",
          "type": "address"
        }
      ],
      "stateMutability": "view",
      "type": "function"
    },
    {
      "inputs": [],
      "name": "decimals",
      "outputs": [
        {
          "internalType": "uint8",
          "name": "",
          "type": "uint8"
        }
      ],
      "stateMutability": "pure",
      "type": "function"
    },
    {
      "inputs": [],
      "name": "domainSeparator",
      "outputs": [
        {
          "internalType": "bytes32",
          "name": "",
          "type": "bytes32"
        }
      ],
      "stateMutability": "view",
      "type": "function"
    },
    {
      "inputs": [],
      "name": "getDeploymentStartTime",
      "outputs": [
        {
          "internalType": "uint256",
          "name": "",
          "type": "uint256"
        }
      ],
      "stateMutability": "view",
      "type": "function"
    },
    {
      "inputs": [],
      "name": "getLpRewardsEntitlement",
      "outputs": [
        {
          "internalType": "uint256",
          "name": "",
          "type": "uint256"
        }
      ],
      "stateMutability": "view",
      "type": "function"
    },
    {
      "inputs": [
        {
          "internalType": "address",
          "name": "_communityIssuanceAddress",
          "type": "address"
        },
        {
          "internalType": "address",
          "name": "_protocolTokenStakingAddress",
          "type": "address"
        },
        {
          "internalType": "address",
          "name": "_lockupFactoryAddress",
          "type": "address"
        },
        {
          "internalType": "address",
          "name": "_bountyAddress",
          "type": "address"
        },
        {
          "internalType": "address",
          "name": "_lpRewardsAddress",
          "type": "address"
        },
        {
          "internalType": "address",
          "name": "_multisigAddress",
          "type": "address"
        }
      ],
      "name": "initialize",
      "outputs": [],
      "stateMutability": "nonpayable",
      "type": "function"
    },
    {
      "inputs": [],
      "name": "lockupContractFactory",
      "outputs": [
        {
          "internalType": "contract ILockupContractFactory",
          "name": "",
          "type": "address"
        }
      ],
      "stateMutability": "view",
      "type": "function"
    },
    {
      "inputs": [],
      "name": "multisigAddress",
      "outputs": [
        {
          "internalType": "address",
          "name": "",
          "type": "address"
        }
      ],
      "stateMutability": "view",
      "type": "function"
    },
    {
      "inputs": [],
      "name": "name",
      "outputs": [
        {
          "internalType": "string",
          "name": "",
          "type": "string"
        }
      ],
      "stateMutability": "pure",
      "type": "function"
    },
    {
      "inputs": [
        {
          "internalType": "address",
          "name": "owner",
          "type": "address"
        }
      ],
      "name": "nonces",
      "outputs": [
        {
          "internalType": "uint256",
          "name": "",
          "type": "uint256"
        }
      ],
      "stateMutability": "view",
      "type": "function"
    },
    {
      "inputs": [],
      "name": "owner",
      "outputs": [
        {
          "internalType": "address",
          "name": "",
          "type": "address"
        }
      ],
      "stateMutability": "view",
      "type": "function"
    },
    {
      "inputs": [
        {
          "internalType": "address",
          "name": "owner",
          "type": "address"
        },
        {
          "internalType": "address",
          "name": "spender",
          "type": "address"
        },
        {
          "internalType": "uint256",
          "name": "amount",
          "type": "uint256"
        },
        {
          "internalType": "uint256",
          "name": "deadline",
          "type": "uint256"
        },
        {
          "internalType": "uint8",
          "name": "v",
          "type": "uint8"
        },
        {
          "internalType": "bytes32",
          "name": "r",
          "type": "bytes32"
        },
        {
          "internalType": "bytes32",
          "name": "s",
          "type": "bytes32"
        }
      ],
      "name": "permit",
      "outputs": [],
      "stateMutability": "nonpayable",
      "type": "function"
    },
    {
      "inputs": [],
      "name": "permitTypeHash",
      "outputs": [
        {
          "internalType": "bytes32",
          "name": "",
          "type": "bytes32"
        }
      ],
      "stateMutability": "pure",
      "type": "function"
    },
    {
      "inputs": [],
      "name": "protocolTokenStakingAddress",
      "outputs": [
        {
          "internalType": "address",
          "name": "",
          "type": "address"
        }
      ],
      "stateMutability": "view",
      "type": "function"
    },
    {
      "inputs": [],
      "name": "renounceOwnership",
      "outputs": [],
      "stateMutability": "nonpayable",
      "type": "function"
    },
    {
      "inputs": [
        {
          "internalType": "address",
          "name": "_sender",
          "type": "address"
        },
        {
          "internalType": "uint256",
          "name": "_amount",
          "type": "uint256"
        }
      ],
      "name": "sendToProtocolTokenStaking",
      "outputs": [],
      "stateMutability": "nonpayable",
      "type": "function"
    },
    {
      "inputs": [],
      "name": "symbol",
      "outputs": [
        {
          "internalType": "string",
          "name": "",
          "type": "string"
        }
      ],
      "stateMutability": "pure",
      "type": "function"
    },
    {
      "inputs": [],
      "name": "totalSupply",
      "outputs": [
        {
          "internalType": "uint256",
          "name": "",
          "type": "uint256"
        }
      ],
      "stateMutability": "view",
      "type": "function"
    },
    {
      "inputs": [
        {
          "internalType": "address",
          "name": "recipient",
          "type": "address"
        },
        {
          "internalType": "uint256",
          "name": "amount",
          "type": "uint256"
        }
      ],
      "name": "transfer",
      "outputs": [
        {
          "internalType": "bool",
          "name": "",
          "type": "bool"
        }
      ],
      "stateMutability": "nonpayable",
      "type": "function"
    },
    {
      "inputs": [
        {
          "internalType": "address",
          "name": "sender",
          "type": "address"
        },
        {
          "internalType": "address",
          "name": "recipient",
          "type": "address"
        },
        {
          "internalType": "uint256",
          "name": "amount",
          "type": "uint256"
        }
      ],
      "name": "transferFrom",
      "outputs": [
        {
          "internalType": "bool",
          "name": "",
          "type": "bool"
        }
      ],
      "stateMutability": "nonpayable",
      "type": "function"
    },
    {
      "inputs": [
        {
          "internalType": "address",
          "name": "newOwner",
          "type": "address"
        }
      ],
      "name": "transferOwnership",
      "outputs": [],
      "stateMutability": "nonpayable",
      "type": "function"
    },
    {
      "inputs": [],
      "name": "version",
      "outputs": [
        {
          "internalType": "string",
          "name": "",
          "type": "string"
        }
      ],
      "stateMutability": "pure",
      "type": "function"
    }
  ],
  "bytecode": "0x60a060405234801561001057600080fd5b5042608052608051611c7d610034600039806105ca5280610c245250611c7d6000f3fe608060405234801561001057600080fd5b506004361061016e5760003560e01c8063811c5b4d116100ce578063cc2a9a5b11610087578063cc2a9a5b146103b0578063d505accf146103fe578063d874ea741461044f578063dd62ed3e14610457578063e7c8fed414610485578063f2fde38b1461048d578063f698da25146104b35761016e565b8063811c5b4d146103385780638da5cb5b1461034057806395d89b4114610348578063974f559014610350578063a9059cbb14610358578063aa7cd8a0146103845761016e565b80633c84b7c21161012b5780633c84b7c2146102a65780635462870d146102ae57806354fd4d50146102d257806357aae46b146102da57806370a08231146102e2578063715018a6146103085780637ecebe00146103125761016e565b806306fdde0314610173578063095ea7b3146101f057806310ce43bd1461023057806318160ddd1461024a57806323b872dd14610252578063313ce56714610288575b600080fd5b61017b6104bb565b6040805160208082528351818301528351919283929083019185019080838360005b838110156101b557818101518382015260200161019d565b50505050905090810190601f1680156101e25780820380516001836020036101000a031916815260200191505b509250505060405180910390f35b61021c6004803603604081101561020657600080fd5b506001600160a01b0381351690602001356104e5565b604080519115158252519081900360200190f35b610238610511565b60408051918252519081900360200190f35b610238610535565b61021c6004803603606081101561026857600080fd5b506001600160a01b0381358116916020810135909116906040013561053b565b6102906105c3565b6040805160ff9092168252519081900360200190f35b6102386105c8565b6102b66105ec565b604080516001600160a01b039092168252519081900360200190f35b61017b6105fb565b6102b6610616565b610238600480360360208110156102f857600080fd5b50356001600160a01b0316610625565b610310610640565b005b6102386004803603602081101561032857600080fd5b50356001600160a01b03166106ec565b6102b6610707565b6102b6610716565b61017b610725565b610238610742565b61021c6004803603604081101561036e57600080fd5b506001600160a01b038135169060200135610748565b6103106004803603604081101561039a57600080fd5b506001600160a01b038135169060200135610783565b610310600480360360c08110156103c657600080fd5b506001600160a01b038135811691602081013582169160408201358116916060810135821691608082013581169160a00135166107bd565b610310600480360360e081101561041457600080fd5b506001600160a01b03813581169160208101359091169060408101359060608101359060ff6080820135169060a08101359060c0013561087b565b6102b6610a7d565b6102386004803603604081101561046d57600080fd5b506001600160a01b0381358116916020013516610a8c565b610238610ab7565b610310600480360360208110156104a357600080fd5b50356001600160a01b0316610abf565b610238610bc2565b60408051808201909152600f81526e536563757265642046696e616e636560881b60208201525b90565b60006104ef610c17565b156104fc576104fc610c4e565b610507338484610c94565b5060015b92915050565b7f6e71edae12b1b97f4d1f60370fef10105fa2faae0126114a169c64845d6126c990565b60675490565b6000610545610c17565b156105535761055384610d80565b61055c83610dd0565b610567848484610e93565b6105b984336105b485604051806060016040528060288152602001611b2d602891396001600160a01b038a1660009081526066602090815260408083203384529091529020549190610fe5565b610c94565b5060019392505050565b601290565b7f000000000000000000000000000000000000000000000000000000000000000090565b606d546001600160a01b031681565b6040805180820190915260018152603160f81b602082015290565b606f546001600160a01b031681565b6001600160a01b031660009081526065602052604090205490565b61064861107c565b6001600160a01b0316610659610716565b6001600160a01b0316146106b4576040805162461bcd60e51b815260206004820181905260248201527f4f776e61626c653a2063616c6c6572206973206e6f7420746865206f776e6572604482015290519081900360640190fd5b6033546040516000916001600160a01b031690600080516020611bb1833981519152908390a3603380546001600160a01b0319169055565b6001600160a01b03166000908152606c602052604090205490565b6071546001600160a01b031681565b6033546001600160a01b031690565b60408051808201909152600381526229a1a960e91b602082015290565b60705490565b6000610752611080565b80156107615750610761610c17565b1561076f5761076f83611091565b61077883610dd0565b610507338484610e93565b61078b611145565b610793610c17565b156107a1576107a182610d80565b606f546107b99083906001600160a01b031683610e93565b5050565b600054610100900460ff16806107d657506107d661118e565b806107e4575060005460ff16155b61081f5760405162461bcd60e51b815260040180806020018281038252602e815260200180611a93602e913960400191505060405180910390fd5b600054610100900460ff1615801561084a576000805460ff1961ff0019909116610100171660011790555b61085261119f565b610860878787878787611250565b8015610872576000805461ff00191690555b50505050505050565b428410156108d0576040805162461bcd60e51b815260206004820152601f60248201527f50726f746f636f6c546f6b656e3a206578706972656420646561646c696e6500604482015290519081900360640190fd5b60006108da610bc2565b6001600160a01b03808a166000818152606c602090815260408083208054600180820190925582517f6e71edae12b1b97f4d1f60370fef10105fa2faae0126114a169c64845d6126c98186015280840196909652958e166060860152608085018d905260a085019590955260c08085018c90528151808603909101815260e08501825280519083012061190160f01b6101008601526101028501969096526101228085019690965280518085039096018652610142840180825286519683019690962095839052610162840180825286905260ff8a166101828501526101a284018990526101c284018890525194955090936101e280840193601f198301929081900390910190855afa1580156109f5573d6000803e3d6000fd5b505050602060405103519050886001600160a01b0316816001600160a01b031614610a67576040805162461bcd60e51b815260206004820181905260248201527f50726f746f636f6c546f6b656e3a20696e76616c6964207369676e6174757265604482015290519081900360640190fd5b610a72898989610c94565b505050505050505050565b606e546001600160a01b031681565b6001600160a01b03918216600090815260666020908152604080832093909416825291909152205490565b6301e1338081565b610ac761107c565b6001600160a01b0316610ad8610716565b6001600160a01b031614610b33576040805162461bcd60e51b815260206004820181905260248201527f4f776e61626c653a2063616c6c6572206973206e6f7420746865206f776e6572604482015290519081900360640190fd5b6001600160a01b038116610b785760405162461bcd60e51b81526004018080602001828103825260268152602001806119916026913960400191505060405180910390fd5b6033546040516001600160a01b03808416921690600080516020611bb183398151915290600090a3603380546001600160a01b0319166001600160a01b0392909216919091179055565b6000606954610bcf61147c565b1415610bde57506068546104e2565b610c107f8b73c3c69bb8fe3d512ecc4cf759cc79239f7b179b0ffacaa9a75d522b39400f60001b606a54606b54611480565b90506104e2565b60006301e13380610c48427f00000000000000000000000000000000000000000000000000000000000000006114e2565b10905090565b610c56611080565b15610c925760405162461bcd60e51b815260040180806020018281038252602e815260200180611a65602e913960400191505060405180910390fd5b565b6001600160a01b038316610cd95760405162461bcd60e51b8152600401808060200182810382526024815260200180611c246024913960400191505060405180910390fd5b6001600160a01b038216610d1e5760405162461bcd60e51b81526004018080602001828103825260228152602001806119b76022913960400191505060405180910390fd5b6001600160a01b03808416600081815260666020908152604080832094871680845294825291829020859055815185815291517f8c5be1e5ebec7d5bd14f71427d1e84f3dd0314c0f7b2291e5b200ac8c7c3b9259281900390910190a3505050565b606d546001600160a01b0382811691161415610dcd5760405162461bcd60e51b815260040180806020018281038252602e815260200180611bd1602e913960400191505060405180910390fd5b50565b6001600160a01b03811615801590610df157506001600160a01b0381163014155b610e2c5760405162461bcd60e51b81526004018080602001828103825260668152602001806119d96066913960800191505060405180910390fd5b606e546001600160a01b03828116911614801590610e585750606f546001600160a01b03828116911614155b610dcd5760405162461bcd60e51b815260040180806020018281038252605c815260200180611b55605c913960600191505060405180910390fd5b6001600160a01b038316610ed85760405162461bcd60e51b8152600401808060200182810382526025815260200180611bff6025913960400191505060405180910390fd5b6001600160a01b038216610f1d5760405162461bcd60e51b815260040180806020018281038252602381526020018061192f6023913960400191505060405180910390fd5b610f5a81604051806060016040528060268152602001611a3f602691396001600160a01b0386166000908152606560205260409020549190610fe5565b6001600160a01b038085166000908152606560205260408082209390935590841681522054610f89908261153f565b6001600160a01b0380841660008181526065602090815260409182902094909455805185815290519193928716927fddf252ad1be2c89b69c2b068fc378daa952ba7f163c4a11628f55a4df523b3ef92918290030190a3505050565b600081848411156110745760405162461bcd60e51b81526004018080602001828103825283818151815260200191508051906020019080838360005b83811015611039578181015183820152602001611021565b50505050905090810190601f1680156110665780820380516001836020036101000a031916815260200191505b509250505060405180910390fd5b505050900390565b3390565b606d546001600160a01b0316331490565b6071546040805163bb7603f160e01b81526001600160a01b0384811660048301529151919092169163bb7603f1916024808301926020929190829003018186803b1580156110de57600080fd5b505afa1580156110f2573d6000803e3d6000fd5b505050506040513d602081101561110857600080fd5b5051610dcd5760405162461bcd60e51b815260040180806020018281038252604b815260200180611ac1604b913960600191505060405180910390fd5b606f546001600160a01b03163314610c925760405162461bcd60e51b815260040180806020018281038252603f815260200180611952603f913960400191505060405180910390fd5b6000611199306115a0565b15905090565b600054610100900460ff16806111b857506111b861118e565b806111c6575060005460ff16155b6112015760405162461bcd60e51b815260040180806020018281038252602e815260200180611a93602e913960400191505060405180910390fd5b600054610100900460ff1615801561122c576000805460ff1961ff0019909116610100171660011790555b6112346115a6565b61123c611646565b8015610dcd576000805461ff001916905550565b6112598661172d565b6112628561172d565b61126b8461172d565b606d80546001600160a01b038084166001600160a01b031992831617909255606e8054898416908316179055606f80548884169083161790556071805492871692909116919091179055604080518082018252600f81526e536563757265642046696e616e636560881b602091820152815180830190925260018252603160f81b9101527f6f8eb4b4689a82d905598a38ac07fa2fcb9c04c0544555c89646506313c3e184606a8190557fc89efdaa54c0f20c7adf612882df0950f5a951637e0307cdcb4c672f298b8bc6606b81905561134361147c565b6069556113717f8b73c3c69bb8fe3d512ecc4cf759cc79239f7b179b0ffacaa9a75d522b39400f8383611480565b606855600061138b69d3c21bcecceda10000006002611788565b905061139786826117e1565b6000896001600160a01b03166384e638aa6040518163ffffffff1660e01b815260040160206040518083038186803b1580156113d257600080fd5b505afa1580156113e6573d6000803e3d6000fd5b505050506040513d60208110156113fc57600080fd5b5051905061140a8a826117e1565b600061142c600361142669d3c21bcecceda10000006004611788565b906118c7565b6070819055905061143d87826117e1565b60006114628261145c8581888169d3c21bcecceda10000006064611788565b906114e2565b905061146e87826117e1565b505050505050505050505050565b4690565b600083838361148d61147c565b3060405160200180868152602001858152602001848152602001838152602001826001600160a01b03168152602001955050505050506040516020818303038152906040528051906020012090509392505050565b600082821115611539576040805162461bcd60e51b815260206004820152601e60248201527f536166654d6174683a207375627472616374696f6e206f766572666c6f770000604482015290519081900360640190fd5b50900390565b600082820183811015611599576040805162461bcd60e51b815260206004820152601b60248201527f536166654d6174683a206164646974696f6e206f766572666c6f770000000000604482015290519081900360640190fd5b9392505050565b3b151590565b600054610100900460ff16806115bf57506115bf61118e565b806115cd575060005460ff16155b6116085760405162461bcd60e51b815260040180806020018281038252602e815260200180611a93602e913960400191505060405180910390fd5b600054610100900460ff1615801561123c576000805460ff1961ff0019909116610100171660011790558015610dcd576000805461ff001916905550565b600054610100900460ff168061165f575061165f61118e565b8061166d575060005460ff16155b6116a85760405162461bcd60e51b815260040180806020018281038252602e815260200180611a93602e913960400191505060405180910390fd5b600054610100900460ff161580156116d3576000805460ff1961ff0019909116610100171660011790555b60006116dd61107c565b603380546001600160a01b0319166001600160a01b03831690811790915560405191925090600090600080516020611bb1833981519152908290a3508015610dcd576000805461ff001916905550565b6001600160a01b038116610dcd576040805162461bcd60e51b815260206004820152601e60248201527f4163636f756e742063616e6e6f74206265207a65726f20616464726573730000604482015290519081900360640190fd5b6000826117975750600061050b565b828202828482816117a457fe5b04146115995760405162461bcd60e51b8152600401808060200182810382526021815260200180611b0c6021913960400191505060405180910390fd5b6001600160a01b03821661183c576040805162461bcd60e51b815260206004820152601f60248201527f45524332303a206d696e7420746f20746865207a65726f206164647265737300604482015290519081900360640190fd5b606754611849908261153f565b6067556001600160a01b03821660009081526065602052604090205461186f908261153f565b6001600160a01b03831660008181526065602090815260408083209490945583518581529351929391927fddf252ad1be2c89b69c2b068fc378daa952ba7f163c4a11628f55a4df523b3ef9281900390910190a35050565b600080821161191d576040805162461bcd60e51b815260206004820152601a60248201527f536166654d6174683a206469766973696f6e206279207a65726f000000000000604482015290519081900360640190fd5b81838161192657fe5b04939250505056fe45524332303a207472616e7366657220746f20746865207a65726f206164647265737350726f746f636f6c546f6b656e3a2063616c6c6572206d757374206265207468652050726f746f636f6c546f6b656e5374616b696e6720636f6e74726163744f776e61626c653a206e6577206f776e657220697320746865207a65726f206164647265737345524332303a20617070726f766520746f20746865207a65726f206164647265737350726f746f636f6c546f6b656e3a2043616e6e6f74207472616e7366657220746f6b656e73206469726563746c7920746f207468652050726f746f636f6c546f6b656e20746f6b656e20636f6e7472616374206f7220746865207a65726f206164647265737345524332303a207472616e7366657220616d6f756e7420657863656564732062616c616e636550726f746f636f6c546f6b656e3a2063616c6c6572206d757374206e6f7420626520746865206d756c7469736967496e697469616c697a61626c653a20636f6e747261637420697320616c726561647920696e697469616c697a656450726f746f636f6c546f6b656e3a20726563697069656e74206d7573742062652061204c6f636b7570436f6e7472616374207265676973746572656420696e2074686520466163746f7279536166654d6174683a206d756c7469706c69636174696f6e206f766572666c6f7745524332303a207472616e7366657220616d6f756e74206578636565647320616c6c6f77616e636550726f746f636f6c546f6b656e3a2043616e6e6f74207472616e7366657220746f6b656e73206469726563746c7920746f2074686520636f6d6d756e6974792069737375616e6365206f72207374616b696e6720636f6e74726163748be0079c531659141344cd1fd0a4f28419497f9722a3daafe3b4186f6b6457e050726f746f636f6c546f6b656e3a2073656e646572206d757374206e6f7420626520746865206d756c746973696745524332303a207472616e736665722066726f6d20746865207a65726f206164647265737345524332303a20617070726f76652066726f6d20746865207a65726f2061646472657373a26469706673582212200568fb2c146c46e309b20db4b79859a12f5d168761c4f6925ffd9911e2c27d3a64736f6c63430007060033",
  "linkReferences": {},
  "deployedLinkReferences": {}
}