{
  "_format": "hh-sol-artifact-1",
  "contractName": "ProtocolTokenStaking",
  "sourceName": "contracts/ProtocolToken/ProtocolTokenStaking.sol",
  "abi": [
    {
      "anonymous": false,
      "inputs": [
        {
          "indexed": false,
          "internalType": "address",
          "name": "_activePoolAddress",
          "type": "address"
        }
      ],
      "name": "ActivePoolAddressSet",
      "type": "event"
    },
    {
      "anonymous": false,
      "inputs": [
        {
          "indexed": false,
          "internalType": "address",
          "name": "_borrowerOperationsAddress",
          "type": "address"
        }
      ],
      "name": "BorrowerOperationsAddressSet",
      "type": "event"
    },
    {
      "anonymous": false,
      "inputs": [
        {
          "indexed": false,
          "internalType": "address",
          "name": "_debtTokenAddress",
          "type": "address"
        }
      ],
      "name": "DebtTokenAddressSet",
      "type": "event"
    },
    {
      "anonymous": false,
      "inputs": [
        {
          "indexed": false,
          "internalType": "address",
          "name": "_account",
          "type": "address"
        },
        {
          "indexed": false,
          "internalType": "uint256",
          "name": "_amount",
          "type": "uint256"
        }
      ],
      "name": "FILSent",
      "type": "event"
    },
    {
      "anonymous": false,
      "inputs": [
        {
          "indexed": false,
          "internalType": "uint256",
          "name": "_F_DebtToken",
          "type": "uint256"
        }
      ],
      "name": "F_DebtTokenUpdated",
      "type": "event"
    },
    {
      "anonymous": false,
      "inputs": [
        {
          "indexed": false,
          "internalType": "uint256",
          "name": "_F_FIL",
          "type": "uint256"
        }
      ],
      "name": "F_FILUpdated",
      "type": "event"
    },
    {
      "anonymous": false,
      "inputs": [
        {
          "indexed": true,
          "internalType": "address",
          "name": "previousOwner",
          "type": "address"
        },
        {
          "indexed": true,
          "internalType": "address",
          "name": "newOwner",
          "type": "address"
        }
      ],
      "name": "OwnershipTransferred",
      "type": "event"
    },
    {
      "anonymous": false,
      "inputs": [
        {
          "indexed": false,
          "internalType": "address",
          "name": "_protocolTokenAddress",
          "type": "address"
        }
      ],
      "name": "ProtocolTokenAddressSet",
      "type": "event"
    },
    {
      "anonymous": false,
      "inputs": [
        {
          "indexed": true,
          "internalType": "address",
          "name": "staker",
          "type": "address"
        },
        {
          "indexed": false,
          "internalType": "uint256",
          "name": "newStake",
          "type": "uint256"
        }
      ],
      "name": "StakeChanged",
      "type": "event"
    },
    {
      "anonymous": false,
      "inputs": [
        {
          "indexed": false,
          "internalType": "address",
          "name": "_staker",
          "type": "address"
        },
        {
          "indexed": false,
          "internalType": "uint256",
          "name": "_F_FIL",
          "type": "uint256"
        },
        {
          "indexed": false,
          "internalType": "uint256",
          "name": "_F_DebtToken",
          "type": "uint256"
        }
      ],
      "name": "StakerSnapshotsUpdated",
      "type": "event"
    },
    {
      "anonymous": false,
      "inputs": [
        {
          "indexed": true,
          "internalType": "address",
          "name": "staker",
          "type": "address"
        },
        {
          "indexed": false,
          "internalType": "uint256",
          "name": "debtTokenGain",
          "type": "uint256"
        },
        {
          "indexed": false,
          "internalType": "uint256",
          "name": "FILGain",
          "type": "uint256"
        }
      ],
      "name": "StakingGainsWithdrawn",
      "type": "event"
    },
    {
      "anonymous": false,
      "inputs": [
        {
          "indexed": false,
          "internalType": "uint256",
          "name": "_totalProtocolTokenStaked",
          "type": "uint256"
        }
      ],
      "name": "TotalProtocolTokenStakedUpdated",
      "type": "event"
    },
    {
      "anonymous": false,
      "inputs": [
        {
          "indexed": false,
          "internalType": "address",
          "name": "_troveManager",
          "type": "address"
        }
      ],
      "name": "TroveManagerAddressSet",
      "type": "event"
    },
    {
      "anonymous": false,
      "inputs": [
        {
          "indexed": false,
          "internalType": "uint256",
          "name": "_unallocatedDebtToken",
          "type": "uint256"
        }
      ],
      "name": "UnallocatedDebtTokenUpdated",
      "type": "event"
    },
    {
      "anonymous": false,
      "inputs": [
        {
          "indexed": false,
          "internalType": "uint256",
          "name": "_unallocatedFIL",
          "type": "uint256"
        }
      ],
      "name": "UnallocatedFILUpdated",
      "type": "event"
    },
    {
      "inputs": [],
      "name": "DECIMAL_PRECISION",
      "outputs": [
        {
          "internalType": "uint256",
          "name": "",
          "type": "uint256"
        }
      ],
      "stateMutability": "view",
      "type": "function"
    },
    {
      "inputs": [],
      "name": "F_DebtToken",
      "outputs": [
        {
          "internalType": "uint256",
          "name": "",
          "type": "uint256"
        }
      ],
      "stateMutability": "view",
      "type": "function"
    },
    {
      "inputs": [],
      "name": "F_FIL",
      "outputs": [
        {
          "internalType": "uint256",
          "name": "",
          "type": "uint256"
        }
      ],
      "stateMutability": "view",
      "type": "function"
    },
    {
      "inputs": [],
      "name": "NAME",
      "outputs": [
        {
          "internalType": "string",
          "name": "",
          "type": "string"
        }
      ],
      "stateMutability": "view",
      "type": "function"
    },
    {
      "inputs": [],
      "name": "activePoolAddress",
      "outputs": [
        {
          "internalType": "address",
          "name": "",
          "type": "address"
        }
      ],
      "stateMutability": "view",
      "type": "function"
    },
    {
      "inputs": [],
      "name": "borrowerOperationsAddress",
      "outputs": [
        {
          "internalType": "address",
          "name": "",
          "type": "address"
        }
      ],
      "stateMutability": "view",
      "type": "function"
    },
    {
      "inputs": [],
      "name": "debtToken",
      "outputs": [
        {
          "internalType": "contract IDebtToken",
          "name": "",
          "type": "address"
        }
      ],
      "stateMutability": "view",
      "type": "function"
    },
    {
      "inputs": [
        {
          "internalType": "address",
          "name": "_user",
          "type": "address"
        }
      ],
      "name": "getPendingDebtTokenGain",
      "outputs": [
        {
          "internalType": "uint256",
          "name": "",
          "type": "uint256"
        }
      ],
      "stateMutability": "view",
      "type": "function"
    },
    {
      "inputs": [
        {
          "internalType": "address",
          "name": "_user",
          "type": "address"
        }
      ],
      "name": "getPendingFILGain",
      "outputs": [
        {
          "internalType": "uint256",
          "name": "",
          "type": "uint256"
        }
      ],
      "stateMutability": "view",
      "type": "function"
    },
    {
      "inputs": [
        {
          "internalType": "uint256",
          "name": "_debtTokenFee",
          "type": "uint256"
        }
      ],
      "name": "increaseF_DebtToken",
      "outputs": [],
      "stateMutability": "nonpayable",
      "type": "function"
    },
    {
      "inputs": [
        {
          "internalType": "uint256",
          "name": "_FILFee",
          "type": "uint256"
        }
      ],
      "name": "increaseF_FIL",
      "outputs": [],
      "stateMutability": "nonpayable",
      "type": "function"
    },
    {
      "inputs": [
        {
          "internalType": "address",
          "name": "_protocolTokenAddress",
          "type": "address"
        },
        {
          "internalType": "address",
          "name": "_debtTokenAddress",
          "type": "address"
        },
        {
          "internalType": "address",
          "name": "_troveManagerAddress",
          "type": "address"
        },
        {
          "internalType": "address",
          "name": "_borrowerOperationsAddress",
          "type": "address"
        },
        {
          "internalType": "address",
          "name": "_activePoolAddress",
          "type": "address"
        }
      ],
      "name": "initialize",
      "outputs": [],
      "stateMutability": "nonpayable",
      "type": "function"
    },
    {
      "inputs": [],
      "name": "owner",
      "outputs": [
        {
          "internalType": "address",
          "name": "",
          "type": "address"
        }
      ],
      "stateMutability": "view",
      "type": "function"
    },
    {
      "inputs": [],
      "name": "protocolToken",
      "outputs": [
        {
          "internalType": "contract IProtocolToken",
          "name": "",
          "type": "address"
        }
      ],
      "stateMutability": "view",
      "type": "function"
    },
    {
      "inputs": [],
      "name": "renounceOwnership",
      "outputs": [],
      "stateMutability": "nonpayable",
      "type": "function"
    },
    {
      "inputs": [
        {
          "internalType": "address",
          "name": "",
          "type": "address"
        }
      ],
      "name": "snapshots",
      "outputs": [
        {
          "internalType": "uint256",
          "name": "F_FIL_Snapshot",
          "type": "uint256"
        },
        {
          "internalType": "uint256",
          "name": "F_DebtToken_Snapshot",
          "type": "uint256"
        }
      ],
      "stateMutability": "view",
      "type": "function"
    },
    {
      "inputs": [
        {
          "internalType": "uint256",
          "name": "_tokenAmount",
          "type": "uint256"
        }
      ],
      "name": "stake",
      "outputs": [],
      "stateMutability": "nonpayable",
      "type": "function"
    },
    {
      "inputs": [
        {
          "internalType": "address",
          "name": "",
          "type": "address"
        }
      ],
      "name": "stakes",
      "outputs": [
        {
          "internalType": "uint256",
          "name": "",
          "type": "uint256"
        }
      ],
      "stateMutability": "view",
      "type": "function"
    },
    {
      "inputs": [],
      "name": "totalProtocolTokenStaked",
      "outputs": [
        {
          "internalType": "uint256",
          "name": "",
          "type": "uint256"
        }
      ],
      "stateMutability": "view",
      "type": "function"
    },
    {
      "inputs": [
        {
          "internalType": "address",
          "name": "newOwner",
          "type": "address"
        }
      ],
      "name": "transferOwnership",
      "outputs": [],
      "stateMutability": "nonpayable",
      "type": "function"
    },
    {
      "inputs": [],
      "name": "troveManagerAddress",
      "outputs": [
        {
          "internalType": "address",
          "name": "",
          "type": "address"
        }
      ],
      "stateMutability": "view",
      "type": "function"
    },
    {
      "inputs": [],
      "name": "unallocatedDebtToken",
      "outputs": [
        {
          "internalType": "uint256",
          "name": "",
          "type": "uint256"
        }
      ],
      "stateMutability": "view",
      "type": "function"
    },
    {
      "inputs": [],
      "name": "unallocatedFIL",
      "outputs": [
        {
          "internalType": "uint256",
          "name": "",
          "type": "uint256"
        }
      ],
      "stateMutability": "view",
      "type": "function"
    },
    {
      "inputs": [
        {
          "internalType": "uint256",
          "name": "_tokenAmount",
          "type": "uint256"
        }
      ],
      "name": "unstake",
      "outputs": [],
      "stateMutability": "nonpayable",
      "type": "function"
    },
    {
      "inputs": [],
      "name": "withdrawUnallocatedDebtToken",
      "outputs": [],
      "stateMutability": "nonpayable",
      "type": "function"
    },
    {
      "inputs": [],
      "name": "withdrawUnallocatedFIL",
      "outputs": [],
      "stateMutability": "nonpayable",
      "type": "function"
    },
    {
      "stateMutability": "payable",
      "type": "receive"
    }
  ],
  "bytecode": "0x608060405234801561001057600080fd5b50611b8f806100206000396000f3fe6080604052600436106101655760003560e01c80637415fa18116100c1578063b08bc7221161007a578063b08bc722146104a6578063b1955ad2146104bb578063b6a233e5146104e5578063b7f8cf9b146104fa578063c91d2d381461050f578063f2fde38b14610539578063f8d898981461056c57610174565b80637415fa181461039e5780638da538a3146103b35780638da5cb5b146103c8578063a20baee6146103dd578063a3f4df7e146103f2578063a694fc3a1461047c57610174565b80632e17de781161011e5780632e17de78146102a157806334b3081f146102cb5780633cd27e671461031757806346b3252f1461034a5780634d60d8ae1461035f5780635a4d28bb14610374578063715018a61461038957610174565b80630b22ac32146101795780631459457a1461018e57806316934fc4146101e357806317f175dc146102285780631a14971b1461025b5780631a465fe11461027057610174565b3661017457610172610581565b005b600080fd5b34801561018557600080fd5b506101726105cc565b34801561019a57600080fd5b50610172600480360360a08110156101b157600080fd5b506001600160a01b038135811691602081013582169160408201358116916060810135821691608090910135166106f0565b3480156101ef57600080fd5b506102166004803603602081101561020657600080fd5b50356001600160a01b03166107ac565b60408051918252519081900360200190f35b34801561023457600080fd5b506102166004803603602081101561024b57600080fd5b50356001600160a01b03166107be565b34801561026757600080fd5b506102166107cf565b34801561027c57600080fd5b506102856107d5565b604080516001600160a01b039092168252519081900360200190f35b3480156102ad57600080fd5b50610172600480360360208110156102c457600080fd5b50356107e4565b3480156102d757600080fd5b506102fe600480360360208110156102ee57600080fd5b50356001600160a01b0316610a1c565b6040805192835260208301919091528051918290030190f35b34801561032357600080fd5b506102166004803603602081101561033a57600080fd5b50356001600160a01b0316610a35565b34801561035657600080fd5b50610216610a40565b34801561036b57600080fd5b50610172610a46565b34801561038057600080fd5b50610285610af3565b34801561039557600080fd5b50610172610b02565b3480156103aa57600080fd5b50610216610b9c565b3480156103bf57600080fd5b50610216610ba2565b3480156103d457600080fd5b50610285610ba8565b3480156103e957600080fd5b50610216610bb7565b3480156103fe57600080fd5b50610407610bc3565b6040805160208082528351818301528351919283929083019185019080838360005b83811015610441578181015183820152602001610429565b50505050905090810190601f16801561046e5780820380516001836020036101000a031916815260200191505b509250505060405180910390f35b34801561048857600080fd5b506101726004803603602081101561049f57600080fd5b5035610bf3565b3480156104b257600080fd5b50610285610e0b565b3480156104c757600080fd5b50610172600480360360208110156104de57600080fd5b5035610e1a565b3480156104f157600080fd5b50610216610ee0565b34801561050657600080fd5b50610285610ee6565b34801561051b57600080fd5b506101726004803603602081101561053257600080fd5b5035610ef5565b34801561054557600080fd5b506101726004803603602081101561055c57600080fd5b50356001600160a01b0316610fb5565b34801561057857600080fd5b506102856110a6565b6070546001600160a01b031633146105ca5760405162461bcd60e51b815260040180806020018281038252602e8152602001806119e2602e913960400191505060405180910390fd5b565b6105d46110b5565b6001600160a01b03166105e5610ba8565b6001600160a01b03161461062e576040805162461bcd60e51b81526020600482018190526024820152600080516020611ab6833981519152604482015290519081900360640190fd5b606a8054600091829055604080519283525190917f357f366c64266f8e9a39eb163073d5136a4abc71ac12f8ec7c84faf498e7f8b8919081900360200190a1606d546040805163a9059cbb60e01b81523360048201526024810184905290516001600160a01b039092169163a9059cbb916044808201926020929091908290030181600087803b1580156106c157600080fd5b505af11580156106d5573d6000803e3d6000fd5b505050506040513d60208110156106eb57600080fd5b505050565b600054610100900460ff168061070957506107096110b9565b80610717575060005460ff16155b6107525760405162461bcd60e51b815260040180806020018281038252602e815260200180611a67602e913960400191505060405180910390fd5b600054610100900460ff1615801561077d576000805460ff1961ff0019909116610100171660011790555b6107856110ca565b610792868686868661117b565b80156107a4576000805461ff00191690555b505050505050565b60656020526000908152604090205481565b60006107c982611326565b92915050565b60685481565b606c546001600160a01b031681565b336000908152606560205260409020546107fd8161138a565b6000610808336113c9565b9050600061081533611326565b905061082033611403565b83156109525760006108328585611475565b90506000610840858361148d565b336000908152606560205260409020819055606654909150610862908361148d565b606681905560408051918252517fc4ca4e3d2fd1965e6d42d851e766d5b9a64dd0a8a670a1516843a0217757fa5d9181900360200190a1606c546040805163a9059cbb60e01b81523360048201526024810185905290516001600160a01b039092169163a9059cbb916044808201926020929091908290030181600087803b1580156108ed57600080fd5b505af1158015610901573d6000803e3d6000fd5b505050506040513d602081101561091757600080fd5b505060408051828152905133917f39df0e5286a3ef2f42a0bf52f32cfe2c58e5b0405f47fe512f2c2439e4cfe204919081900360200190a250505b6040805182815260208101849052815133927ff744d34ca1cb25acfa4180df5f09a67306107110a9f4b6ed99bb3be259738215928290030190a2606d546040805163a9059cbb60e01b81523360048201526024810184905290516001600160a01b039092169163a9059cbb916044808201926020929091908290030181600087803b1580156109e057600080fd5b505af11580156109f4573d6000803e3d6000fd5b505050506040513d6020811015610a0a57600080fd5b50610a169050826114ea565b50505050565b606b602052600090815260409020805460019091015482565b60006107c9826113c9565b606a5481565b610a4e6110b5565b6001600160a01b0316610a5f610ba8565b6001600160a01b031614610aa8576040805162461bcd60e51b81526020600482018190526024820152600080516020611ab6833981519152604482015290519081900360640190fd5b60698054600091829055604080519283525190917f3c166cb25f40715a54c3d9ecdd3e27617e07cba29c3f98fdbb105f4445252d13919081900360200190a1610af0816114ea565b50565b606e546001600160a01b031681565b610b0a6110b5565b6001600160a01b0316610b1b610ba8565b6001600160a01b031614610b64576040805162461bcd60e51b81526020600482018190526024820152600080516020611ab6833981519152604482015290519081900360640190fd5b6033546040516000916001600160a01b031690600080516020611ad6833981519152908390a3603380546001600160a01b0319169055565b60675481565b60665481565b6033546001600160a01b031690565b670de0b6b3a764000081565b6040518060400160405280601481526020017350726f746f636f6c546f6b656e5374616b696e6760601b81525081565b610bfc816115b0565b3360009081526065602052604081205490808215610c2b57610c1d336113c9565b9150610c2833611326565b90505b610c3433611403565b6000610c4084866115ef565b336000908152606560205260409020819055606654909150610c6290866115ef565b606681905560408051918252517fc4ca4e3d2fd1965e6d42d851e766d5b9a64dd0a8a670a1516843a0217757fa5d9181900360200190a1606c5460408051630553e6c560e51b81523360048201526024810188905290516001600160a01b039092169163aa7cd8a09160448082019260009290919082900301818387803b158015610cec57600080fd5b505af1158015610d00573d6000803e3d6000fd5b50506040805184815290513393507f39df0e5286a3ef2f42a0bf52f32cfe2c58e5b0405f47fe512f2c2439e4cfe20492509081900360200190a26040805183815260208101859052815133927ff744d34ca1cb25acfa4180df5f09a67306107110a9f4b6ed99bb3be259738215928290030190a28315610e0457606d546040805163a9059cbb60e01b81523360048201526024810185905290516001600160a01b039092169163a9059cbb916044808201926020929091908290030181600087803b158015610dce57600080fd5b505af1158015610de2573d6000803e3d6000fd5b505050506040513d6020811015610df857600080fd5b50610e049050836114ea565b5050505050565b6070546001600160a01b031681565b610e22611649565b60665415610e9957606654600090610e4c90610e4684670de0b6b3a7640000611692565b906116eb565b606854909150610e5c90826115ef565b606881905560408051918252517fd35d18f1d1506f94dd33c043c612cce724e9e52b5924bdf2b19d62ddfe26513b9181900360200190a150610af0565b606a54610ea690826115ef565b606a81905560408051918252517f357f366c64266f8e9a39eb163073d5136a4abc71ac12f8ec7c84faf498e7f8b89181900360200190a150565b60695481565b606f546001600160a01b031681565b610efd611752565b60665415610f6e57606654600090610f2190610e4684670de0b6b3a7640000611692565b606754909150610f3190826115ef565b606781905560408051918252517febf7d091f46f1a9713f83361f4b7bdfc07a53d3e0b8582025f6318db750e8b9f9181900360200190a150610af0565b606954610f7b90826115ef565b606981905560408051918252517f3c166cb25f40715a54c3d9ecdd3e27617e07cba29c3f98fdbb105f4445252d139181900360200190a150565b610fbd6110b5565b6001600160a01b0316610fce610ba8565b6001600160a01b031614611017576040805162461bcd60e51b81526020600482018190526024820152600080516020611ab6833981519152604482015290519081900360640190fd5b6001600160a01b03811661105c5760405162461bcd60e51b81526004018080602001828103825260268152602001806119bc6026913960400191505060405180910390fd5b6033546040516001600160a01b03808416921690600080516020611ad683398151915290600090a3603380546001600160a01b0319166001600160a01b0392909216919091179055565b606d546001600160a01b031681565b3390565b60006110c43061179b565b15905090565b600054610100900460ff16806110e357506110e36110b9565b806110f1575060005460ff16155b61112c5760405162461bcd60e51b815260040180806020018281038252602e815260200180611a67602e913960400191505060405180910390fd5b600054610100900460ff16158015611157576000805460ff1961ff0019909116610100171660011790555b61115f6117a1565b611167611841565b8015610af0576000805461ff001916905550565b61118485611928565b61118d84611928565b61119683611928565b61119f82611928565b6111a881611928565b606c80546001600160a01b038088166001600160a01b03199283168117909355606d8054888316908416179055606e8054878316908416179055606f8054868316908416179055607080549185169190921617905560408051918252517f8b70fff6eb19dda13b7b98f7e1b6aff53cc8a27c0ffe6282cc22727fdcd4e2319181900360200190a1604080516001600160a01b038616815290517f482942d8b227a1a84982f337b8b18662fde02dc7a4cce912c74090cb529f25909181900360200190a1604080516001600160a01b038516815290517f41097dcc1f7cbd663d822443d7972f05b04f71918b30fe9fc59dd6e42e2280609181900360200190a1604080516001600160a01b038416815290517f5962f8af633c4df1ab230096f773a514ee5adf7785c621ecdcdb764cb7f6e3919181900360200190a1604080516001600160a01b038316815290517f8f6a6e7d20a3233e0a79883272259ffbd7a243734e397bc2b4642c79d7fa8a6d9181900360200190a15050505050565b6001600160a01b0381166000908152606b6020526040812060010154606854829061138290670de0b6b3a764000090610e4690611363908661148d565b6001600160a01b03881660009081526065602052604090205490611692565b949350505050565b60008111610af05760405162461bcd60e51b8152600401808060200182810382526035815260200180611b256035913960400191505060405180910390fd5b6001600160a01b0381166000908152606b6020526040812054606754829061138290670de0b6b3a764000090610e4690611363908661148d565b606780546001600160a01b0383166000818152606b6020908152604091829020938455606854600190940184905593548151928352938201939093528083019190915290517f6b5cf27595af4428271524e0a5abd2b63f6fee1a61e31970490f5a10e257a1cd9181900360600190a150565b60008183106114845781611486565b825b9392505050565b6000828211156114e4576040805162461bcd60e51b815260206004820152601e60248201527f536166654d6174683a207375627472616374696f6e206f766572666c6f770000604482015290519081900360640190fd5b50900390565b604080513381526020810183905281517f3b2482b1bf6e751427503c9a8bf79e4dba3e6519259e2220428c2f326cc79c14929181900390910190a1604051600090339083908381818185875af1925050503d8060008114611567576040519150601f19603f3d011682016040523d82523d6000602084013e61156c565b606091505b50509050806115ac5760405162461bcd60e51b81526004018080602001828103825260388152602001806119846038913960400191505060405180910390fd5b5050565b60008111610af05760405162461bcd60e51b815260040180806020018281038252602d815260200180611a10602d913960400191505060405180910390fd5b600082820183811015611486576040805162461bcd60e51b815260206004820152601b60248201527f536166654d6174683a206164646974696f6e206f766572666c6f770000000000604482015290519081900360640190fd5b606f546001600160a01b031633146105ca5760405162461bcd60e51b815260040180806020018281038252602f815260200180611af6602f913960400191505060405180910390fd5b6000826116a1575060006107c9565b828202828482816116ae57fe5b04146114865760405162461bcd60e51b8152600401808060200182810382526021815260200180611a956021913960400191505060405180910390fd5b6000808211611741576040805162461bcd60e51b815260206004820152601a60248201527f536166654d6174683a206469766973696f6e206279207a65726f000000000000604482015290519081900360640190fd5b81838161174a57fe5b049392505050565b606e546001600160a01b031633146105ca5760405162461bcd60e51b815260040180806020018281038252602a815260200180611a3d602a913960400191505060405180910390fd5b3b151590565b600054610100900460ff16806117ba57506117ba6110b9565b806117c8575060005460ff16155b6118035760405162461bcd60e51b815260040180806020018281038252602e815260200180611a67602e913960400191505060405180910390fd5b600054610100900460ff16158015611167576000805460ff1961ff0019909116610100171660011790558015610af0576000805461ff001916905550565b600054610100900460ff168061185a575061185a6110b9565b80611868575060005460ff16155b6118a35760405162461bcd60e51b815260040180806020018281038252602e815260200180611a67602e913960400191505060405180910390fd5b600054610100900460ff161580156118ce576000805460ff1961ff0019909116610100171660011790555b60006118d86110b5565b603380546001600160a01b0319166001600160a01b03831690811790915560405191925090600090600080516020611ad6833981519152908290a3508015610af0576000805461ff001916905550565b6001600160a01b038116610af0576040805162461bcd60e51b815260206004820152601e60248201527f4163636f756e742063616e6e6f74206265207a65726f20616464726573730000604482015290519081900360640190fdfe50726f746f636f6c546f6b656e5374616b696e673a204661696c656420746f2073656e6420616363756d756c617465642046494c4761696e4f776e61626c653a206e6577206f776e657220697320746865207a65726f206164647265737350726f746f636f6c546f6b656e5374616b696e673a2063616c6c6572206973206e6f7420416374697665506f6f6c50726f746f636f6c546f6b656e5374616b696e673a20416d6f756e74206d757374206265206e6f6e2d7a65726f50726f746f636f6c546f6b656e5374616b696e673a2063616c6c6572206973206e6f742054726f76654d496e697469616c697a61626c653a20636f6e747261637420697320616c726561647920696e697469616c697a6564536166654d6174683a206d756c7469706c69636174696f6e206f766572666c6f774f776e61626c653a2063616c6c6572206973206e6f7420746865206f776e65728be0079c531659141344cd1fd0a4f28419497f9722a3daafe3b4186f6b6457e050726f746f636f6c546f6b656e5374616b696e673a2063616c6c6572206973206e6f7420426f72726f7765724f707350726f746f636f6c546f6b656e5374616b696e673a2055736572206d75737420686176652061206e6f6e2d7a65726f207374616b65a26469706673582212203c93f6c06f9f7c0a8f2ddeb31ce44e27db00d35a33f54d813f1ef6da1f93c98c64736f6c63430007060033",
  "linkReferences": {},
  "deployedLinkReferences": {}
}