{
  "_format": "hh-sol-artifact-1",
  "contractName": "ProtocolTokenTester",
  "sourceName": "contracts/TestContracts/ProtocolTokenTester.sol",
  "abi": [
    {
      "anonymous": false,
      "inputs": [
        {
          "indexed": true,
          "internalType": "address",
          "name": "owner",
          "type": "address"
        },
        {
          "indexed": true,
          "internalType": "address",
          "name": "spender",
          "type": "address"
        },
        {
          "indexed": false,
          "internalType": "uint256",
          "name": "value",
          "type": "uint256"
        }
      ],
      "name": "Approval",
      "type": "event"
    },
    {
      "anonymous": false,
      "inputs": [
        {
          "indexed": true,
          "internalType": "address",
          "name": "previousOwner",
          "type": "address"
        },
        {
          "indexed": true,
          "internalType": "address",
          "name": "newOwner",
          "type": "address"
        }
      ],
      "name": "OwnershipTransferred",
      "type": "event"
    },
    {
      "anonymous": false,
      "inputs": [
        {
          "indexed": true,
          "internalType": "address",
          "name": "from",
          "type": "address"
        },
        {
          "indexed": true,
          "internalType": "address",
          "name": "to",
          "type": "address"
        },
        {
          "indexed": false,
          "internalType": "uint256",
          "name": "value",
          "type": "uint256"
        }
      ],
      "name": "Transfer",
      "type": "event"
    },
    {
      "inputs": [],
      "name": "ONE_YEAR_IN_SECONDS",
      "outputs": [
        {
          "internalType": "uint256",
          "name": "",
          "type": "uint256"
        }
      ],
      "stateMutability": "view",
      "type": "function"
    },
    {
      "inputs": [
        {
          "internalType": "address",
          "name": "owner",
          "type": "address"
        },
        {
          "internalType": "address",
          "name": "spender",
          "type": "address"
        }
      ],
      "name": "allowance",
      "outputs": [
        {
          "internalType": "uint256",
          "name": "",
          "type": "uint256"
        }
      ],
      "stateMutability": "view",
      "type": "function"
    },
    {
      "inputs": [
        {
          "internalType": "address",
          "name": "spender",
          "type": "address"
        },
        {
          "internalType": "uint256",
          "name": "amount",
          "type": "uint256"
        }
      ],
      "name": "approve",
      "outputs": [
        {
          "internalType": "bool",
          "name": "",
          "type": "bool"
        }
      ],
      "stateMutability": "nonpayable",
      "type": "function"
    },
    {
      "inputs": [
        {
          "internalType": "address",
          "name": "account",
          "type": "address"
        }
      ],
      "name": "balanceOf",
      "outputs": [
        {
          "internalType": "uint256",
          "name": "",
          "type": "uint256"
        }
      ],
      "stateMutability": "view",
      "type": "function"
    },
    {
      "inputs": [
        {
          "internalType": "address",
          "name": "owner",
          "type": "address"
        },
        {
          "internalType": "address",
          "name": "spender",
          "type": "address"
        },
        {
          "internalType": "uint256",
          "name": "amount",
          "type": "uint256"
        }
      ],
      "name": "callInternalApprove",
      "outputs": [
        {
          "internalType": "bool",
          "name": "",
          "type": "bool"
        }
      ],
      "stateMutability": "nonpayable",
      "type": "function"
    },
    {
      "inputs": [
        {
          "internalType": "address",
          "name": "sender",
          "type": "address"
        },
        {
          "internalType": "address",
          "name": "recipient",
          "type": "address"
        },
        {
          "internalType": "uint256",
          "name": "amount",
          "type": "uint256"
        }
      ],
      "name": "callInternalTransfer",
      "outputs": [
        {
          "internalType": "bool",
          "name": "",
          "type": "bool"
        }
      ],
      "stateMutability": "nonpayable",
      "type": "function"
    },
    {
      "inputs": [],
      "name": "communityIssuanceAddress",
      "outputs": [
        {
          "internalType": "address",
          "name": "",
          "type": "address"
        }
      ],
      "stateMutability": "view",
      "type": "function"
    },
    {
      "inputs": [],
      "name": "decimals",
      "outputs": [
        {
          "internalType": "uint8",
          "name": "",
          "type": "uint8"
        }
      ],
      "stateMutability": "pure",
      "type": "function"
    },
    {
      "inputs": [],
      "name": "domainSeparator",
      "outputs": [
        {
          "internalType": "bytes32",
          "name": "",
          "type": "bytes32"
        }
      ],
      "stateMutability": "view",
      "type": "function"
    },
    {
      "inputs": [],
      "name": "getChainId",
      "outputs": [
        {
          "internalType": "uint256",
          "name": "chainID",
          "type": "uint256"
        }
      ],
      "stateMutability": "pure",
      "type": "function"
    },
    {
      "inputs": [],
      "name": "getDeploymentStartTime",
      "outputs": [
        {
          "internalType": "uint256",
          "name": "",
          "type": "uint256"
        }
      ],
      "stateMutability": "view",
      "type": "function"
    },
    {
      "inputs": [],
      "name": "getLpRewardsEntitlement",
      "outputs": [
        {
          "internalType": "uint256",
          "name": "",
          "type": "uint256"
        }
      ],
      "stateMutability": "view",
      "type": "function"
    },
    {
      "inputs": [
        {
          "internalType": "address",
          "name": "_communityIssuanceAddress",
          "type": "address"
        },
        {
          "internalType": "address",
          "name": "_protocolTokenStakingAddress",
          "type": "address"
        },
        {
          "internalType": "address",
          "name": "_lockupFactoryAddress",
          "type": "address"
        },
        {
          "internalType": "address",
          "name": "_bountyAddress",
          "type": "address"
        },
        {
          "internalType": "address",
          "name": "_lpRewardsAddress",
          "type": "address"
        },
        {
          "internalType": "address",
          "name": "_multisigAddress",
          "type": "address"
        }
      ],
      "name": "initialize",
      "outputs": [],
      "stateMutability": "nonpayable",
      "type": "function"
    },
    {
      "inputs": [],
      "name": "lockupContractFactory",
      "outputs": [
        {
          "internalType": "contract ILockupContractFactory",
          "name": "",
          "type": "address"
        }
      ],
      "stateMutability": "view",
      "type": "function"
    },
    {
      "inputs": [],
      "name": "multisigAddress",
      "outputs": [
        {
          "internalType": "address",
          "name": "",
          "type": "address"
        }
      ],
      "stateMutability": "view",
      "type": "function"
    },
    {
      "inputs": [],
      "name": "name",
      "outputs": [
        {
          "internalType": "string",
          "name": "",
          "type": "string"
        }
      ],
      "stateMutability": "pure",
      "type": "function"
    },
    {
      "inputs": [
        {
          "internalType": "address",
          "name": "owner",
          "type": "address"
        }
      ],
      "name": "nonces",
      "outputs": [
        {
          "internalType": "uint256",
          "name": "",
          "type": "uint256"
        }
      ],
      "stateMutability": "view",
      "type": "function"
    },
    {
      "inputs": [],
      "name": "owner",
      "outputs": [
        {
          "internalType": "address",
          "name": "",
          "type": "address"
        }
      ],
      "stateMutability": "view",
      "type": "function"
    },
    {
      "inputs": [
        {
          "internalType": "address",
          "name": "owner",
          "type": "address"
        },
        {
          "internalType": "address",
          "name": "spender",
          "type": "address"
        },
        {
          "internalType": "uint256",
          "name": "amount",
          "type": "uint256"
        },
        {
          "internalType": "uint256",
          "name": "deadline",
          "type": "uint256"
        },
        {
          "internalType": "uint8",
          "name": "v",
          "type": "uint8"
        },
        {
          "internalType": "bytes32",
          "name": "r",
          "type": "bytes32"
        },
        {
          "internalType": "bytes32",
          "name": "s",
          "type": "bytes32"
        }
      ],
      "name": "permit",
      "outputs": [],
      "stateMutability": "nonpayable",
      "type": "function"
    },
    {
      "inputs": [],
      "name": "permitTypeHash",
      "outputs": [
        {
          "internalType": "bytes32",
          "name": "",
          "type": "bytes32"
        }
      ],
      "stateMutability": "pure",
      "type": "function"
    },
    {
      "inputs": [],
      "name": "protocolTokenStakingAddress",
      "outputs": [
        {
          "internalType": "address",
          "name": "",
          "type": "address"
        }
      ],
      "stateMutability": "view",
      "type": "function"
    },
    {
      "inputs": [],
      "name": "renounceOwnership",
      "outputs": [],
      "stateMutability": "nonpayable",
      "type": "function"
    },
    {
      "inputs": [
        {
          "internalType": "address",
          "name": "_sender",
          "type": "address"
        },
        {
          "internalType": "uint256",
          "name": "_amount",
          "type": "uint256"
        }
      ],
      "name": "sendToProtocolTokenStaking",
      "outputs": [],
      "stateMutability": "nonpayable",
      "type": "function"
    },
    {
      "inputs": [],
      "name": "symbol",
      "outputs": [
        {
          "internalType": "string",
          "name": "",
          "type": "string"
        }
      ],
      "stateMutability": "pure",
      "type": "function"
    },
    {
      "inputs": [],
      "name": "totalSupply",
      "outputs": [
        {
          "internalType": "uint256",
          "name": "",
          "type": "uint256"
        }
      ],
      "stateMutability": "view",
      "type": "function"
    },
    {
      "inputs": [
        {
          "internalType": "address",
          "name": "recipient",
          "type": "address"
        },
        {
          "internalType": "uint256",
          "name": "amount",
          "type": "uint256"
        }
      ],
      "name": "transfer",
      "outputs": [
        {
          "internalType": "bool",
          "name": "",
          "type": "bool"
        }
      ],
      "stateMutability": "nonpayable",
      "type": "function"
    },
    {
      "inputs": [
        {
          "internalType": "address",
          "name": "sender",
          "type": "address"
        },
        {
          "internalType": "address",
          "name": "recipient",
          "type": "address"
        },
        {
          "internalType": "uint256",
          "name": "amount",
          "type": "uint256"
        }
      ],
      "name": "transferFrom",
      "outputs": [
        {
          "internalType": "bool",
          "name": "",
          "type": "bool"
        }
      ],
      "stateMutability": "nonpayable",
      "type": "function"
    },
    {
      "inputs": [
        {
          "internalType": "address",
          "name": "newOwner",
          "type": "address"
        }
      ],
      "name": "transferOwnership",
      "outputs": [],
      "stateMutability": "nonpayable",
      "type": "function"
    },
    {
      "inputs": [
        {
          "internalType": "address",
          "name": "account",
          "type": "address"
        },
        {
          "internalType": "uint256",
          "name": "amount",
          "type": "uint256"
        }
      ],
      "name": "unprotectedMint",
      "outputs": [],
      "stateMutability": "nonpayable",
      "type": "function"
    },
    {
      "inputs": [
        {
          "internalType": "address",
          "name": "_sender",
          "type": "address"
        },
        {
          "internalType": "uint256",
          "name": "_amount",
          "type": "uint256"
        }
      ],
      "name": "unprotectedSendToProtocolTokenStaking",
      "outputs": [],
      "stateMutability": "nonpayable",
      "type": "function"
    },
    {
      "inputs": [],
      "name": "version",
      "outputs": [
        {
          "internalType": "string",
          "name": "",
          "type": "string"
        }
      ],
      "stateMutability": "pure",
      "type": "function"
    }
  ],
  "bytecode": "0x60a060405234801561001057600080fd5b5042608052608051611da4610034600039806106eb5280610e3b5250611da46000f3fe608060405234801561001057600080fd5b50600436106101a55760003560e01c8063715018a6116100ef578063cc2a9a5b11610092578063cc2a9a5b14610487578063d505accf146104d5578063d874ea7414610526578063dd62ed3e1461052e578063e139efa41461055c578063e7c8fed414610588578063f2fde38b14610590578063f698da25146105b6576101a5565b8063715018a6146103e15780637ecebe00146103e9578063811c5b4d1461040f5780638da5cb5b1461041757806395d89b411461041f578063974f559014610427578063a9059cbb1461042f578063aa7cd8a01461045b576101a5565b80633408e470116101575780633408e47014610313578063387a54d91461031b5780633c84b7c2146103515780635099f99f146103595780635462870d1461038757806354fd4d50146103ab57806357aae46b146103b357806370a08231146103bb576101a5565b806303d99946146101aa57806306fdde03146101f4578063095ea7b31461027157806310ce43bd1461029d57806318160ddd146102b757806323b872dd146102bf578063313ce567146102f5575b600080fd5b6101e0600480360360608110156101c057600080fd5b506001600160a01b038135811691602081013590911690604001356105be565b604080519115158252519081900360200190f35b6101fc6105d5565b6040805160208082528351818301528351919283929083019185019080838360005b8381101561023657818101518382015260200161021e565b50505050905090810190601f1680156102635780820380516001836020036101000a031916815260200191505b509250505060405180910390f35b6101e06004803603604081101561028757600080fd5b506001600160a01b0381351690602001356105ff565b6102a561062b565b60408051918252519081900360200190f35b6102a561064f565b6101e0600480360360608110156102d557600080fd5b506001600160a01b03813581169160208101359091169060400135610655565b6102fd6106d3565b6040805160ff9092168252519081900360200190f35b6102a56106d8565b6101e06004803603606081101561033157600080fd5b506001600160a01b038135811691602081013590911690604001356106dc565b6102a56106e9565b6103856004803603604081101561036f57600080fd5b506001600160a01b03813516906020013561070d565b005b61038f61071b565b604080516001600160a01b039092168252519081900360200190f35b6101fc61072a565b61038f610745565b6102a5600480360360208110156103d157600080fd5b50356001600160a01b0316610754565b61038561076f565b6102a5600480360360208110156103ff57600080fd5b50356001600160a01b031661081b565b61038f610836565b61038f610845565b6101fc610854565b6102a5610871565b6101e06004803603604081101561044557600080fd5b506001600160a01b038135169060200135610877565b6103856004803603604081101561047157600080fd5b506001600160a01b0381351690602001356108b2565b610385600480360360c081101561049d57600080fd5b506001600160a01b038135811691602081013582169160408201358116916060810135821691608082013581169160a00135166108e8565b610385600480360360e08110156104eb57600080fd5b506001600160a01b03813581169160208101359091169060408101359060608101359060ff6080820135169060a08101359060c001356109a6565b61038f610ba8565b6102a56004803603604081101561054457600080fd5b506001600160a01b0381358116916020013516610bb7565b6103856004803603604081101561057257600080fd5b506001600160a01b0381351690602001356108ba565b6102a5610be2565b610385600480360360208110156105a657600080fd5b50356001600160a01b0316610bea565b6102a5610ced565b60006105cb848484610d42565b5060019392505050565b60408051808201909152600f81526e536563757265642046696e616e636560881b60208201525b90565b6000610609610e2e565b1561061657610616610e65565b610621338484610d42565b5060015b92915050565b7f6e71edae12b1b97f4d1f60370fef10105fa2faae0126114a169c64845d6126c990565b60675490565b600061065f610e2e565b1561066d5761066d84610eab565b61067683610efb565b610681848484610fbe565b6105cb84336106ce85604051806060016040528060288152602001611c54602891396001600160a01b038a1660009081526066602090815260408083203384529091529020549190611110565b610d42565b601290565b4690565b60006105cb848484610fbe565b7f000000000000000000000000000000000000000000000000000000000000000090565b61071782826111a7565b5050565b606d546001600160a01b031681565b6040805180820190915260018152603160f81b602082015290565b606f546001600160a01b031681565b6001600160a01b031660009081526065602052604090205490565b61077761128d565b6001600160a01b0316610788610845565b6001600160a01b0316146107e3576040805162461bcd60e51b815260206004820181905260248201527f4f776e61626c653a2063616c6c6572206973206e6f7420746865206f776e6572604482015290519081900360640190fd5b6033546040516000916001600160a01b031690600080516020611cd8833981519152908390a3603380546001600160a01b0319169055565b6001600160a01b03166000908152606c602052604090205490565b6071546001600160a01b031681565b6033546001600160a01b031690565b60408051808201909152600381526229a1a960e91b602082015290565b60705490565b6000610881611291565b80156108905750610890610e2e565b1561089e5761089e836112a2565b6108a783610efb565b610621338484610fbe565b6108ba611356565b6108c2610e2e565b156108d0576108d082610eab565b606f546107179083906001600160a01b031683610fbe565b600054610100900460ff1680610901575061090161139f565b8061090f575060005460ff16155b61094a5760405162461bcd60e51b815260040180806020018281038252602e815260200180611bba602e913960400191505060405180910390fd5b600054610100900460ff16158015610975576000805460ff1961ff0019909116610100171660011790555b61097d6113b0565b61098b878787878787611461565b801561099d576000805461ff00191690555b50505050505050565b428410156109fb576040805162461bcd60e51b815260206004820152601f60248201527f50726f746f636f6c546f6b656e3a206578706972656420646561646c696e6500604482015290519081900360640190fd5b6000610a05610ced565b6001600160a01b03808a166000818152606c602090815260408083208054600180820190925582517f6e71edae12b1b97f4d1f60370fef10105fa2faae0126114a169c64845d6126c98186015280840196909652958e166060860152608085018d905260a085019590955260c08085018c90528151808603909101815260e08501825280519083012061190160f01b6101008601526101028501969096526101228085019690965280518085039096018652610142840180825286519683019690962095839052610162840180825286905260ff8a166101828501526101a284018990526101c284018890525194955090936101e280840193601f198301929081900390910190855afa158015610b20573d6000803e3d6000fd5b505050602060405103519050886001600160a01b0316816001600160a01b031614610b92576040805162461bcd60e51b815260206004820181905260248201527f50726f746f636f6c546f6b656e3a20696e76616c6964207369676e6174757265604482015290519081900360640190fd5b610b9d898989610d42565b505050505050505050565b606e546001600160a01b031681565b6001600160a01b03918216600090815260666020908152604080832093909416825291909152205490565b6301e1338081565b610bf261128d565b6001600160a01b0316610c03610845565b6001600160a01b031614610c5e576040805162461bcd60e51b815260206004820181905260248201527f4f776e61626c653a2063616c6c6572206973206e6f7420746865206f776e6572604482015290519081900360640190fd5b6001600160a01b038116610ca35760405162461bcd60e51b8152600401808060200182810382526026815260200180611ab86026913960400191505060405180910390fd5b6033546040516001600160a01b03808416921690600080516020611cd883398151915290600090a3603380546001600160a01b0319166001600160a01b0392909216919091179055565b6000606954610cfa6106d8565b1415610d0957506068546105fc565b610d3b7f8b73c3c69bb8fe3d512ecc4cf759cc79239f7b179b0ffacaa9a75d522b39400f60001b606a54606b5461168d565b90506105fc565b6001600160a01b038316610d875760405162461bcd60e51b8152600401808060200182810382526024815260200180611d4b6024913960400191505060405180910390fd5b6001600160a01b038216610dcc5760405162461bcd60e51b8152600401808060200182810382526022815260200180611ade6022913960400191505060405180910390fd5b6001600160a01b03808416600081815260666020908152604080832094871680845294825291829020859055815185815291517f8c5be1e5ebec7d5bd14f71427d1e84f3dd0314c0f7b2291e5b200ac8c7c3b9259281900390910190a3505050565b60006301e13380610e5f427f00000000000000000000000000000000000000000000000000000000000000006116ef565b10905090565b610e6d611291565b15610ea95760405162461bcd60e51b815260040180806020018281038252602e815260200180611b8c602e913960400191505060405180910390fd5b565b606d546001600160a01b0382811691161415610ef85760405162461bcd60e51b815260040180806020018281038252602e815260200180611cf8602e913960400191505060405180910390fd5b50565b6001600160a01b03811615801590610f1c57506001600160a01b0381163014155b610f575760405162461bcd60e51b8152600401808060200182810382526066815260200180611b006066913960800191505060405180910390fd5b606e546001600160a01b03828116911614801590610f835750606f546001600160a01b03828116911614155b610ef85760405162461bcd60e51b815260040180806020018281038252605c815260200180611c7c605c913960600191505060405180910390fd5b6001600160a01b0383166110035760405162461bcd60e51b8152600401808060200182810382526025815260200180611d266025913960400191505060405180910390fd5b6001600160a01b0382166110485760405162461bcd60e51b8152600401808060200182810382526023815260200180611a566023913960400191505060405180910390fd5b61108581604051806060016040528060268152602001611b66602691396001600160a01b0386166000908152606560205260409020549190611110565b6001600160a01b0380851660009081526065602052604080822093909355908416815220546110b4908261174c565b6001600160a01b0380841660008181526065602090815260409182902094909455805185815290519193928716927fddf252ad1be2c89b69c2b068fc378daa952ba7f163c4a11628f55a4df523b3ef92918290030190a3505050565b6000818484111561119f5760405162461bcd60e51b81526004018080602001828103825283818151815260200191508051906020019080838360005b8381101561116457818101518382015260200161114c565b50505050905090810190601f1680156111915780820380516001836020036101000a031916815260200191505b509250505060405180910390fd5b505050900390565b6001600160a01b038216611202576040805162461bcd60e51b815260206004820152601f60248201527f45524332303a206d696e7420746f20746865207a65726f206164647265737300604482015290519081900360640190fd5b60675461120f908261174c565b6067556001600160a01b038216600090815260656020526040902054611235908261174c565b6001600160a01b03831660008181526065602090815260408083209490945583518581529351929391927fddf252ad1be2c89b69c2b068fc378daa952ba7f163c4a11628f55a4df523b3ef9281900390910190a35050565b3390565b606d546001600160a01b0316331490565b6071546040805163bb7603f160e01b81526001600160a01b0384811660048301529151919092169163bb7603f1916024808301926020929190829003018186803b1580156112ef57600080fd5b505afa158015611303573d6000803e3d6000fd5b505050506040513d602081101561131957600080fd5b5051610ef85760405162461bcd60e51b815260040180806020018281038252604b815260200180611be8604b913960600191505060405180910390fd5b606f546001600160a01b03163314610ea95760405162461bcd60e51b815260040180806020018281038252603f815260200180611a79603f913960400191505060405180910390fd5b60006113aa306117ad565b15905090565b600054610100900460ff16806113c957506113c961139f565b806113d7575060005460ff16155b6114125760405162461bcd60e51b815260040180806020018281038252602e815260200180611bba602e913960400191505060405180910390fd5b600054610100900460ff1615801561143d576000805460ff1961ff0019909116610100171660011790555b6114456117b3565b61144d611853565b8015610ef8576000805461ff001916905550565b61146a8661193a565b6114738561193a565b61147c8461193a565b606d80546001600160a01b038084166001600160a01b031992831617909255606e8054898416908316179055606f80548884169083161790556071805492871692909116919091179055604080518082018252600f81526e536563757265642046696e616e636560881b602091820152815180830190925260018252603160f81b9101527f6f8eb4b4689a82d905598a38ac07fa2fcb9c04c0544555c89646506313c3e184606a8190557fc89efdaa54c0f20c7adf612882df0950f5a951637e0307cdcb4c672f298b8bc6606b8190556115546106d8565b6069556115827f8b73c3c69bb8fe3d512ecc4cf759cc79239f7b179b0ffacaa9a75d522b39400f838361168d565b606855600061159c69d3c21bcecceda10000006002611995565b90506115a886826111a7565b6000896001600160a01b03166384e638aa6040518163ffffffff1660e01b815260040160206040518083038186803b1580156115e357600080fd5b505afa1580156115f7573d6000803e3d6000fd5b505050506040513d602081101561160d57600080fd5b5051905061161b8a826111a7565b600061163d600361163769d3c21bcecceda10000006004611995565b906119ee565b6070819055905061164e87826111a7565b60006116738261166d8581888169d3c21bcecceda10000006064611995565b906116ef565b905061167f87826111a7565b505050505050505050505050565b600083838361169a6106d8565b3060405160200180868152602001858152602001848152602001838152602001826001600160a01b03168152602001955050505050506040516020818303038152906040528051906020012090509392505050565b600082821115611746576040805162461bcd60e51b815260206004820152601e60248201527f536166654d6174683a207375627472616374696f6e206f766572666c6f770000604482015290519081900360640190fd5b50900390565b6000828201838110156117a6576040805162461bcd60e51b815260206004820152601b60248201527f536166654d6174683a206164646974696f6e206f766572666c6f770000000000604482015290519081900360640190fd5b9392505050565b3b151590565b600054610100900460ff16806117cc57506117cc61139f565b806117da575060005460ff16155b6118155760405162461bcd60e51b815260040180806020018281038252602e815260200180611bba602e913960400191505060405180910390fd5b600054610100900460ff1615801561144d576000805460ff1961ff0019909116610100171660011790558015610ef8576000805461ff001916905550565b600054610100900460ff168061186c575061186c61139f565b8061187a575060005460ff16155b6118b55760405162461bcd60e51b815260040180806020018281038252602e815260200180611bba602e913960400191505060405180910390fd5b600054610100900460ff161580156118e0576000805460ff1961ff0019909116610100171660011790555b60006118ea61128d565b603380546001600160a01b0319166001600160a01b03831690811790915560405191925090600090600080516020611cd8833981519152908290a3508015610ef8576000805461ff001916905550565b6001600160a01b038116610ef8576040805162461bcd60e51b815260206004820152601e60248201527f4163636f756e742063616e6e6f74206265207a65726f20616464726573730000604482015290519081900360640190fd5b6000826119a457506000610625565b828202828482816119b157fe5b04146117a65760405162461bcd60e51b8152600401808060200182810382526021815260200180611c336021913960400191505060405180910390fd5b6000808211611a44576040805162461bcd60e51b815260206004820152601a60248201527f536166654d6174683a206469766973696f6e206279207a65726f000000000000604482015290519081900360640190fd5b818381611a4d57fe5b04939250505056fe45524332303a207472616e7366657220746f20746865207a65726f206164647265737350726f746f636f6c546f6b656e3a2063616c6c6572206d757374206265207468652050726f746f636f6c546f6b656e5374616b696e6720636f6e74726163744f776e61626c653a206e6577206f776e657220697320746865207a65726f206164647265737345524332303a20617070726f766520746f20746865207a65726f206164647265737350726f746f636f6c546f6b656e3a2043616e6e6f74207472616e7366657220746f6b656e73206469726563746c7920746f207468652050726f746f636f6c546f6b656e20746f6b656e20636f6e7472616374206f7220746865207a65726f206164647265737345524332303a207472616e7366657220616d6f756e7420657863656564732062616c616e636550726f746f636f6c546f6b656e3a2063616c6c6572206d757374206e6f7420626520746865206d756c7469736967496e697469616c697a61626c653a20636f6e747261637420697320616c726561647920696e697469616c697a656450726f746f636f6c546f6b656e3a20726563697069656e74206d7573742062652061204c6f636b7570436f6e7472616374207265676973746572656420696e2074686520466163746f7279536166654d6174683a206d756c7469706c69636174696f6e206f766572666c6f7745524332303a207472616e7366657220616d6f756e74206578636565647320616c6c6f77616e636550726f746f636f6c546f6b656e3a2043616e6e6f74207472616e7366657220746f6b656e73206469726563746c7920746f2074686520636f6d6d756e6974792069737375616e6365206f72207374616b696e6720636f6e74726163748be0079c531659141344cd1fd0a4f28419497f9722a3daafe3b4186f6b6457e050726f746f636f6c546f6b656e3a2073656e646572206d757374206e6f7420626520746865206d756c746973696745524332303a207472616e736665722066726f6d20746865207a65726f206164647265737345524332303a20617070726f76652066726f6d20746865207a65726f2061646472657373a2646970667358221220789af03ec170506181d23d49f57b21c1e9a548bdf812a1cbaf3e18c116d8ddea64736f6c63430007060033",
  "linkReferences": {},
  "deployedLinkReferences": {}
}