{
  "_format": "hh-sol-artifact-1",
  "contractName": "PythCaller",
  "sourceName": "contracts/Dependencies/PythCaller.sol",
  "abi": [
    {
      "inputs": [
        {
          "internalType": "address",
          "name": "pyth_",
          "type": "address"
        },
        {
          "internalType": "bytes32",
          "name": "priceId_",
          "type": "bytes32"
        },
        {
          "internalType": "string",
          "name": "description_",
          "type": "string"
        }
      ],
      "stateMutability": "nonpayable",
      "type": "constructor"
    },
    {
      "inputs": [],
      "name": "decimals",
      "outputs": [
        {
          "internalType": "uint8",
          "name": "",
          "type": "uint8"
        }
      ],
      "stateMutability": "view",
      "type": "function"
    },
    {
      "inputs": [],
      "name": "description",
      "outputs": [
        {
          "internalType": "string",
          "name": "",
          "type": "string"
        }
      ],
      "stateMutability": "view",
      "type": "function"
    },
    {
      "inputs": [
        {
          "internalType": "uint80",
          "name": "_roundId",
          "type": "uint80"
        }
      ],
      "name": "getRoundData",
      "outputs": [
        {
          "internalType": "uint80",
          "name": "roundId",
          "type": "uint80"
        },
        {
          "internalType": "int256",
          "name": "answer",
          "type": "int256"
        },
        {
          "internalType": "uint256",
          "name": "startedAt",
          "type": "uint256"
        },
        {
          "internalType": "uint256",
          "name": "updatedAt",
          "type": "uint256"
        },
        {
          "internalType": "uint80",
          "name": "answeredInRound",
          "type": "uint80"
        }
      ],
      "stateMutability": "view",
      "type": "function"
    },
    {
      "inputs": [],
      "name": "latestRoundData",
      "outputs": [
        {
          "internalType": "uint80",
          "name": "roundId",
          "type": "uint80"
        },
        {
          "internalType": "int256",
          "name": "answer",
          "type": "int256"
        },
        {
          "internalType": "uint256",
          "name": "startedAt",
          "type": "uint256"
        },
        {
          "internalType": "uint256",
          "name": "updatedAt",
          "type": "uint256"
        },
        {
          "internalType": "uint80",
          "name": "answeredInRound",
          "type": "uint80"
        }
      ],
      "stateMutability": "view",
      "type": "function"
    },
    {
      "inputs": [],
      "name": "priceId",
      "outputs": [
        {
          "internalType": "bytes32",
          "name": "",
          "type": "bytes32"
        }
      ],
      "stateMutability": "view",
      "type": "function"
    },
    {
      "inputs": [],
      "name": "pyth",
      "outputs": [
        {
          "internalType": "contract IPyth",
          "name": "",
          "type": "address"
        }
      ],
      "stateMutability": "view",
      "type": "function"
    },
    {
      "inputs": [
        {
          "internalType": "bytes[]",
          "name": "priceUpdateData",
          "type": "bytes[]"
        }
      ],
      "name": "updateFeeds",
      "outputs": [],
      "stateMutability": "payable",
      "type": "function"
    },
    {
      "inputs": [],
      "name": "version",
      "outputs": [
        {
          "internalType": "uint256",
          "name": "",
          "type": "uint256"
        }
      ],
      "stateMutability": "pure",
      "type": "function"
    }
  ],
  "bytecode": "0x608060405234801561001057600080fd5b50604051610ab5380380610ab583398101604081905261002f9161010c565b6000829055600180546001600160a01b0319166001600160a01b038516179055805161006290600290602084019061006b565b505050506101ed565b828054600181600116156101000203166002900490600052602060002090601f0160209004810192826100a157600085556100e7565b82601f106100ba57805160ff19168380011785556100e7565b828001600101855582156100e7579182015b828111156100e75782518255916020019190600101906100cc565b506100f39291506100f7565b5090565b5b808211156100f357600081556001016100f8565b600080600060608486031215610120578283fd5b83516001600160a01b0381168114610136578384fd5b60208581015160408701519295509350906001600160401b038082111561015b578384fd5b818701915087601f83011261016e578384fd5b81518181111561017a57fe5b604051601f8201601f191681018501838111828210171561019757fe5b60405281815283820185018a10156101ad578586fd5b8592505b818310156101ce57838301850151818401860152918401916101b1565b818311156101de57858583830101525b80955050505050509250925092565b6108b9806101fc6000396000f3fe60806040526004361061006b5760003560e01c80633118933414610070578063313ce5671461009b57806354fd4d50146100bd5780637284e416146100d25780639a6fc8f5146100f4578063bc36c0a914610125578063f98d06f01461013a578063feaf968c1461015c575b600080fd5b34801561007c57600080fd5b50610085610171565b604051610092919061079b565b60405180910390f35b3480156100a757600080fd5b506100b0610177565b6040516100929190610875565b3480156100c957600080fd5b5061008561020b565b3480156100de57600080fd5b506100e7610210565b60405161009291906107b8565b34801561010057600080fd5b5061011461010f3660046106a7565b6102a3565b604051610092959493929190610842565b61013861013336600461059a565b610351565b005b34801561014657600080fd5b5061014f6104c6565b60405161009291906107a4565b34801561016857600080fd5b506101146104d5565b60005481565b600154600080546040516396834ad360e01b8152919283926001600160a01b03909116916396834ad3916101ae919060040161079b565b60806040518083038186803b1580156101c657600080fd5b505afa1580156101da573d6000803e3d6000fd5b505050506040513d601f19601f820116820180604052508101906101fe9190610609565b6040015160000391505090565b600190565b60028054604080516020601f60001961010060018716150201909416859004938401819004810282018101909252828152606093909290918301828280156102995780601f1061026e57610100808354040283529160200191610299565b820191906000526020600020905b81548152906001019060200180831161027c57829003601f168201915b5050505050905090565b600154600080546040516396834ad360e01b81529192839283928392839283926001600160a01b03909216916396834ad3916102e2919060040161079b565b60806040518083038186803b1580156102fa57600080fd5b505afa15801561030e573d6000803e3d6000fd5b505050506040513d601f19601f820116820180604052508101906103329190610609565b8051606090910151979860079190910b97965086955085945092505050565b60015460405163d47eed4560e01b81526000916001600160a01b03169063d47eed45906103849086908690600401610705565b60206040518083038186803b15801561039c57600080fd5b505afa1580156103b0573d6000803e3d6000fd5b505050506040513d601f19601f820116820180604052508101906103d4919061068f565b600154604051631df3cbc560e31b81529192506001600160a01b03169063ef9e5e289083906104099087908790600401610705565b6000604051808303818588803b15801561042257600080fd5b505af1158015610436573d6000803e3d6000fd5b50505050506000336001600160a01b03164760405161045490610702565b60006040518083038185875af1925050503d8060008114610491576040519150601f19603f3d011682016040523d82523d6000602084013e610496565b606091505b50509050806104c05760405162461bcd60e51b81526004016104b79061080b565b60405180910390fd5b50505050565b6001546001600160a01b031681565b600154600080546040516396834ad360e01b81529192839283928392839283926001600160a01b03909216916396834ad391610514919060040161079b565b60806040518083038186803b15801561052c57600080fd5b505afa158015610540573d6000803e3d6000fd5b505050506040513d601f19601f820116820180604052508101906105649190610609565b60608101519051909760079190910b9650879550859450849350915050565b8051600381900b811461059557600080fd5b919050565b600080602083850312156105ac578182fd5b823567ffffffffffffffff808211156105c3578384fd5b818501915085601f8301126105d6578384fd5b8135818111156105e4578485fd5b86602080830285010111156105f7578485fd5b60209290920196919550909350505050565b60006080828403121561061a578081fd5b6040516080810167ffffffffffffffff828210818311171561063857fe5b81604052845191508160070b821461064e578384fd5b9082526020840151908082168214610664578384fd5b50602082015261067660408401610583565b6040820152606083015160608201528091505092915050565b6000602082840312156106a0578081fd5b5051919050565b6000602082840312156106b8578081fd5b813569ffffffffffffffffffff811681146106d1578182fd5b9392505050565b60008284528282602086013780602084860101526020601f19601f85011685010190509392505050565b90565b602080825281810183905260009060408482028401810190840186845b8781101561078e57868403603f190183528135368a9003601e19018112610747578687fd5b8901803567ffffffffffffffff81111561075f578788fd5b8036038b131561076d578788fd5b61077a86828985016106d8565b955050509184019190840190600101610722565b5091979650505050505050565b90815260200190565b6001600160a01b0391909116815260200190565b6000602080835283518082850152825b818110156107e4578581018301518582016040015282016107c8565b818111156107f55783604083870101525b50601f01601f1916929092016040019392505050565b6020808252601d908201527f5079746841676772656761746f723a20524546554e445f4641494c4544000000604082015260600190565b69ffffffffffffffffffff9586168152602081019490945260408401929092526060830152909116608082015260a00190565b60ff9190911681526020019056fea2646970667358221220c7e0dc42c2467f57e69ffa688dc3f019bd8fefd71cec9f18168fb5925034792164736f6c63430007060033",
  "linkReferences": {},
  "deployedLinkReferences": {}
}