{
  "_format": "hh-sol-artifact-1",
  "contractName": "PythCaller",
  "sourceName": "contracts/Dependencies/PythCaller.sol",
  "abi": [
    {
      "inputs": [
        {
          "internalType": "address",
          "name": "pyth_",
          "type": "address"
        },
        {
          "internalType": "bytes32",
          "name": "priceId_",
          "type": "bytes32"
        },
        {
          "internalType": "string",
          "name": "description_",
          "type": "string"
        }
      ],
      "stateMutability": "nonpayable",
      "type": "constructor"
    },
    {
      "inputs": [],
      "name": "decimals",
      "outputs": [
        {
          "internalType": "uint8",
          "name": "",
          "type": "uint8"
        }
      ],
      "stateMutability": "view",
      "type": "function"
    },
    {
      "inputs": [],
      "name": "description",
      "outputs": [
        {
          "internalType": "string",
          "name": "",
          "type": "string"
        }
      ],
      "stateMutability": "view",
      "type": "function"
    },
    {
      "inputs": [
        {
          "internalType": "uint80",
          "name": "_roundId",
          "type": "uint80"
        }
      ],
      "name": "getRoundData",
      "outputs": [
        {
          "internalType": "uint80",
          "name": "roundId",
          "type": "uint80"
        },
        {
          "internalType": "int256",
          "name": "answer",
          "type": "int256"
        },
        {
          "internalType": "uint256",
          "name": "startedAt",
          "type": "uint256"
        },
        {
          "internalType": "uint256",
          "name": "updatedAt",
          "type": "uint256"
        },
        {
          "internalType": "uint80",
          "name": "answeredInRound",
          "type": "uint80"
        }
      ],
      "stateMutability": "view",
      "type": "function"
    },
    {
      "inputs": [],
      "name": "latestRoundData",
      "outputs": [
        {
          "internalType": "uint80",
          "name": "roundId",
          "type": "uint80"
        },
        {
          "internalType": "int256",
          "name": "answer",
          "type": "int256"
        },
        {
          "internalType": "uint256",
          "name": "startedAt",
          "type": "uint256"
        },
        {
          "internalType": "uint256",
          "name": "updatedAt",
          "type": "uint256"
        },
        {
          "internalType": "uint80",
          "name": "answeredInRound",
          "type": "uint80"
        }
      ],
      "stateMutability": "view",
      "type": "function"
    },
    {
      "inputs": [],
      "name": "priceId",
      "outputs": [
        {
          "internalType": "bytes32",
          "name": "",
          "type": "bytes32"
        }
      ],
      "stateMutability": "view",
      "type": "function"
    },
    {
      "inputs": [],
      "name": "pyth",
      "outputs": [
        {
          "internalType": "contract IPyth",
          "name": "",
          "type": "address"
        }
      ],
      "stateMutability": "view",
      "type": "function"
    },
    {
      "inputs": [
        {
          "internalType": "bytes[]",
          "name": "priceUpdateData",
          "type": "bytes[]"
        }
      ],
      "name": "updateFeeds",
      "outputs": [],
      "stateMutability": "payable",
      "type": "function"
    },
    {
      "inputs": [],
      "name": "version",
      "outputs": [
        {
          "internalType": "uint256",
          "name": "",
          "type": "uint256"
        }
      ],
      "stateMutability": "pure",
      "type": "function"
    }
  ],
  "bytecode": "0x60c06040523480156200001157600080fd5b5060405162000c1d38038062000c1d833981016040819052620000349162000116565b60808290526001600160601b0319606084901b1660a0528051620000609060009060208401906200006a565b5050505062000201565b828054600181600116156101000203166002900490600052602060002090601f016020900481019282620000a25760008555620000ed565b82601f10620000bd57805160ff1916838001178555620000ed565b82800160010185558215620000ed579182015b82811115620000ed578251825591602001919060010190620000d0565b50620000fb929150620000ff565b5090565b5b80821115620000fb576000815560010162000100565b6000806000606084860312156200012b578283fd5b83516001600160a01b038116811462000142578384fd5b60208581015160408701519295509350906001600160401b038082111562000168578384fd5b818701915087601f8301126200017c578384fd5b8151818111156200018957fe5b604051601f8201601f1916810185018381118282101715620001a757fe5b60405281815283820185018a1015620001be578586fd5b8592505b81831015620001e15783830185015181840186015291840191620001c2565b81831115620001f257858583830101525b80955050505050509250925092565b60805160a05160601c6109cd620002506000398061019a528061030752806103fa5280610485528061059152806105be52508061017352806101c9528061033652806105ed52506109cd6000f3fe60806040526004361061006b5760003560e01c80633118933414610070578063313ce5671461009b57806354fd4d50146100bd5780637284e416146100d25780639a6fc8f5146100f4578063bc36c0a914610125578063f98d06f01461013a578063feaf968c1461015c575b600080fd5b34801561007c57600080fd5b50610085610171565b60405161009291906108af565b60405180910390f35b3480156100a757600080fd5b506100b0610195565b6040516100929190610989565b3480156100c957600080fd5b50610085610261565b3480156100de57600080fd5b506100e7610266565b60405161009291906108cc565b34801561010057600080fd5b5061011461010f3660046107bb565b6102fc565b604051610092959493929190610956565b6101386101333660046106ae565b6103e0565b005b34801561014657600080fd5b5061014f61058f565b60405161009291906108b8565b34801561016857600080fd5b506101146105b3565b7f000000000000000000000000000000000000000000000000000000000000000081565b6000807f00000000000000000000000000000000000000000000000000000000000000006001600160a01b03166396834ad37f00000000000000000000000000000000000000000000000000000000000000006040518263ffffffff1660e01b815260040161020491906108af565b60806040518083038186803b15801561021c57600080fd5b505afa158015610230573d6000803e3d6000fd5b505050506040513d601f19601f82011682018060405250810190610254919061071d565b6040015160000391505090565b600190565b60008054604080516020601f60026000196101006001881615020190951694909404938401819004810282018101909252828152606093909290918301828280156102f25780601f106102c7576101008083540402835291602001916102f2565b820191906000526020600020905b8154815290600101906020018083116102d557829003601f168201915b5050505050905090565b6000806000806000807f00000000000000000000000000000000000000000000000000000000000000006001600160a01b03166396834ad37f00000000000000000000000000000000000000000000000000000000000000006040518263ffffffff1660e01b815260040161037191906108af565b60806040518083038186803b15801561038957600080fd5b505afa15801561039d573d6000803e3d6000fd5b505050506040513d601f19601f820116820180604052508101906103c1919061071d565b8051606090910151979860079190910b97965086955085945092505050565b60405163d47eed4560e01b81526000906001600160a01b037f0000000000000000000000000000000000000000000000000000000000000000169063d47eed45906104319086908690600401610819565b60206040518083038186803b15801561044957600080fd5b505afa15801561045d573d6000803e3d6000fd5b505050506040513d601f19601f8201168201806040525081019061048191906107a3565b90507f00000000000000000000000000000000000000000000000000000000000000006001600160a01b031663ef9e5e288285856040518463ffffffff1660e01b81526004016104d2929190610819565b6000604051808303818588803b1580156104eb57600080fd5b505af11580156104ff573d6000803e3d6000fd5b50505050506000336001600160a01b03164760405161051d90610816565b60006040518083038185875af1925050503d806000811461055a576040519150601f19603f3d011682016040523d82523d6000602084013e61055f565b606091505b50509050806105895760405162461bcd60e51b81526004016105809061091f565b60405180910390fd5b50505050565b7f000000000000000000000000000000000000000000000000000000000000000081565b6000806000806000807f00000000000000000000000000000000000000000000000000000000000000006001600160a01b03166396834ad37f00000000000000000000000000000000000000000000000000000000000000006040518263ffffffff1660e01b815260040161062891906108af565b60806040518083038186803b15801561064057600080fd5b505afa158015610654573d6000803e3d6000fd5b505050506040513d601f19601f82011682018060405250810190610678919061071d565b60608101519051909760079190910b9650879550859450849350915050565b8051600381900b81146106a957600080fd5b919050565b600080602083850312156106c0578182fd5b823567ffffffffffffffff808211156106d7578384fd5b818501915085601f8301126106ea578384fd5b8135818111156106f8578485fd5b866020808302850101111561070b578485fd5b60209290920196919550909350505050565b60006080828403121561072e578081fd5b6040516080810167ffffffffffffffff828210818311171561074c57fe5b81604052845191508160070b8214610762578384fd5b9082526020840151908082168214610778578384fd5b50602082015261078a60408401610697565b6040820152606083015160608201528091505092915050565b6000602082840312156107b4578081fd5b5051919050565b6000602082840312156107cc578081fd5b813569ffffffffffffffffffff811681146107e5578182fd5b9392505050565b60008284528282602086013780602084860101526020601f19601f85011685010190509392505050565b90565b602080825281810183905260009060408482028401810190840186845b878110156108a257868403603f190183528135368a9003601e1901811261085b578687fd5b8901803567ffffffffffffffff811115610873578788fd5b8036038b1315610881578788fd5b61088e86828985016107ec565b955050509184019190840190600101610836565b5091979650505050505050565b90815260200190565b6001600160a01b0391909116815260200190565b6000602080835283518082850152825b818110156108f8578581018301518582016040015282016108dc565b818111156109095783604083870101525b50601f01601f1916929092016040019392505050565b6020808252601d908201527f5079746841676772656761746f723a20524546554e445f4641494c4544000000604082015260600190565b69ffffffffffffffffffff9586168152602081019490945260408401929092526060830152909116608082015260a00190565b60ff9190911681526020019056fea2646970667358221220f678e8a853fdd24e520f0f73ca6e722d98e3049a99764ef4a162e6777267486e64736f6c63430007060033",
  "linkReferences": {},
  "deployedLinkReferences": {}
}