{
  "_format": "hh-sol-artifact-1",
  "contractName": "SortedTroves",
  "sourceName": "contracts/SortedTroves.sol",
  "abi": [
    {
      "anonymous": false,
      "inputs": [
        {
          "indexed": false,
          "internalType": "address",
          "name": "_borrowerOperationsAddress",
          "type": "address"
        }
      ],
      "name": "BorrowerOperationsAddressChanged",
      "type": "event"
    },
    {
      "anonymous": false,
      "inputs": [
        {
          "indexed": false,
          "internalType": "address",
          "name": "_id",
          "type": "address"
        },
        {
          "indexed": false,
          "internalType": "uint256",
          "name": "_NICR",
          "type": "uint256"
        }
      ],
      "name": "NodeAdded",
      "type": "event"
    },
    {
      "anonymous": false,
      "inputs": [
        {
          "indexed": false,
          "internalType": "address",
          "name": "_id",
          "type": "address"
        }
      ],
      "name": "NodeRemoved",
      "type": "event"
    },
    {
      "anonymous": false,
      "inputs": [
        {
          "indexed": true,
          "internalType": "address",
          "name": "previousOwner",
          "type": "address"
        },
        {
          "indexed": true,
          "internalType": "address",
          "name": "newOwner",
          "type": "address"
        }
      ],
      "name": "OwnershipTransferred",
      "type": "event"
    },
    {
      "anonymous": false,
      "inputs": [
        {
          "indexed": false,
          "internalType": "address",
          "name": "_troveManagerAddress",
          "type": "address"
        }
      ],
      "name": "TroveManagerAddressChanged",
      "type": "event"
    },
    {
      "inputs": [],
      "name": "NAME",
      "outputs": [
        {
          "internalType": "string",
          "name": "",
          "type": "string"
        }
      ],
      "stateMutability": "view",
      "type": "function"
    },
    {
      "inputs": [],
      "name": "borrowerOperationsAddress",
      "outputs": [
        {
          "internalType": "address",
          "name": "",
          "type": "address"
        }
      ],
      "stateMutability": "view",
      "type": "function"
    },
    {
      "inputs": [
        {
          "internalType": "address",
          "name": "_id",
          "type": "address"
        }
      ],
      "name": "contains",
      "outputs": [
        {
          "internalType": "bool",
          "name": "",
          "type": "bool"
        }
      ],
      "stateMutability": "view",
      "type": "function"
    },
    {
      "inputs": [],
      "name": "data",
      "outputs": [
        {
          "internalType": "address",
          "name": "head",
          "type": "address"
        },
        {
          "internalType": "address",
          "name": "tail",
          "type": "address"
        },
        {
          "internalType": "uint256",
          "name": "maxSize",
          "type": "uint256"
        },
        {
          "internalType": "uint256",
          "name": "size",
          "type": "uint256"
        }
      ],
      "stateMutability": "view",
      "type": "function"
    },
    {
      "inputs": [
        {
          "internalType": "uint256",
          "name": "_NICR",
          "type": "uint256"
        },
        {
          "internalType": "address",
          "name": "_prevId",
          "type": "address"
        },
        {
          "internalType": "address",
          "name": "_nextId",
          "type": "address"
        }
      ],
      "name": "findInsertPosition",
      "outputs": [
        {
          "internalType": "address",
          "name": "",
          "type": "address"
        },
        {
          "internalType": "address",
          "name": "",
          "type": "address"
        }
      ],
      "stateMutability": "view",
      "type": "function"
    },
    {
      "inputs": [],
      "name": "getFirst",
      "outputs": [
        {
          "internalType": "address",
          "name": "",
          "type": "address"
        }
      ],
      "stateMutability": "view",
      "type": "function"
    },
    {
      "inputs": [],
      "name": "getLast",
      "outputs": [
        {
          "internalType": "address",
          "name": "",
          "type": "address"
        }
      ],
      "stateMutability": "view",
      "type": "function"
    },
    {
      "inputs": [],
      "name": "getMaxSize",
      "outputs": [
        {
          "internalType": "uint256",
          "name": "",
          "type": "uint256"
        }
      ],
      "stateMutability": "view",
      "type": "function"
    },
    {
      "inputs": [
        {
          "internalType": "address",
          "name": "_id",
          "type": "address"
        }
      ],
      "name": "getNext",
      "outputs": [
        {
          "internalType": "address",
          "name": "",
          "type": "address"
        }
      ],
      "stateMutability": "view",
      "type": "function"
    },
    {
      "inputs": [
        {
          "internalType": "address",
          "name": "_id",
          "type": "address"
        }
      ],
      "name": "getPrev",
      "outputs": [
        {
          "internalType": "address",
          "name": "",
          "type": "address"
        }
      ],
      "stateMutability": "view",
      "type": "function"
    },
    {
      "inputs": [],
      "name": "getSize",
      "outputs": [
        {
          "internalType": "uint256",
          "name": "",
          "type": "uint256"
        }
      ],
      "stateMutability": "view",
      "type": "function"
    },
    {
      "inputs": [
        {
          "internalType": "uint256",
          "name": "_size",
          "type": "uint256"
        },
        {
          "internalType": "address",
          "name": "_troveManagerAddress",
          "type": "address"
        },
        {
          "internalType": "address",
          "name": "_borrowerOperationsAddress",
          "type": "address"
        }
      ],
      "name": "initialize",
      "outputs": [],
      "stateMutability": "nonpayable",
      "type": "function"
    },
    {
      "inputs": [
        {
          "internalType": "address",
          "name": "_id",
          "type": "address"
        },
        {
          "internalType": "uint256",
          "name": "_NICR",
          "type": "uint256"
        },
        {
          "internalType": "address",
          "name": "_prevId",
          "type": "address"
        },
        {
          "internalType": "address",
          "name": "_nextId",
          "type": "address"
        }
      ],
      "name": "insert",
      "outputs": [],
      "stateMutability": "nonpayable",
      "type": "function"
    },
    {
      "inputs": [],
      "name": "isEmpty",
      "outputs": [
        {
          "internalType": "bool",
          "name": "",
          "type": "bool"
        }
      ],
      "stateMutability": "view",
      "type": "function"
    },
    {
      "inputs": [],
      "name": "isFull",
      "outputs": [
        {
          "internalType": "bool",
          "name": "",
          "type": "bool"
        }
      ],
      "stateMutability": "view",
      "type": "function"
    },
    {
      "inputs": [],
      "name": "owner",
      "outputs": [
        {
          "internalType": "address",
          "name": "",
          "type": "address"
        }
      ],
      "stateMutability": "view",
      "type": "function"
    },
    {
      "inputs": [
        {
          "internalType": "address",
          "name": "_id",
          "type": "address"
        },
        {
          "internalType": "uint256",
          "name": "_newNICR",
          "type": "uint256"
        },
        {
          "internalType": "address",
          "name": "_prevId",
          "type": "address"
        },
        {
          "internalType": "address",
          "name": "_nextId",
          "type": "address"
        }
      ],
      "name": "reInsert",
      "outputs": [],
      "stateMutability": "nonpayable",
      "type": "function"
    },
    {
      "inputs": [
        {
          "internalType": "address",
          "name": "_id",
          "type": "address"
        }
      ],
      "name": "remove",
      "outputs": [],
      "stateMutability": "nonpayable",
      "type": "function"
    },
    {
      "inputs": [],
      "name": "renounceOwnership",
      "outputs": [],
      "stateMutability": "nonpayable",
      "type": "function"
    },
    {
      "inputs": [
        {
          "internalType": "address",
          "name": "newOwner",
          "type": "address"
        }
      ],
      "name": "transferOwnership",
      "outputs": [],
      "stateMutability": "nonpayable",
      "type": "function"
    },
    {
      "inputs": [],
      "name": "troveManager",
      "outputs": [
        {
          "internalType": "contract ITroveManager",
          "name": "",
          "type": "address"
        }
      ],
      "stateMutability": "view",
      "type": "function"
    },
    {
      "inputs": [
        {
          "internalType": "uint256",
          "name": "_NICR",
          "type": "uint256"
        },
        {
          "internalType": "address",
          "name": "_prevId",
          "type": "address"
        },
        {
          "internalType": "address",
          "name": "_nextId",
          "type": "address"
        }
      ],
      "name": "validInsertPosition",
      "outputs": [
        {
          "internalType": "bool",
          "name": "",
          "type": "bool"
        }
      ],
      "stateMutability": "view",
      "type": "function"
    }
  ],
  "bytecode": "0x608060405234801561001057600080fd5b50611c46806100206000396000f3fe608060405234801561001057600080fd5b50600436106101425760003560e01c8063715018a6116100b8578063b4988fd01161007c578063b4988fd0146103fb578063b72703ac1461042f578063b7f8cf9b14610455578063babd3d9a1461045d578063de8fa43114610465578063f2fde38b1461046d57610142565b8063715018a61461030e57806373d4a13a14610316578063765e0159146103505780638da5cb5b14610376578063a3f4df7e1461037e57610142565b8063416980dc1161010a578063416980dc1461021f57806346f7cf87146102825780634d622831146102be5780635dbe47e8146102c657806363e1d57c146102ec578063681fe70c1461030657610142565b80631e2231431461014757806329092d0e1461016b5780632be21260146101935780633d83908a146101cf5780633fce12d5146101d7575b600080fd5b61014f610493565b604080516001600160a01b039092168252519081900360200190f35b6101916004803603602081101561018157600080fd5b50356001600160a01b03166104a2565b005b610191600480360360808110156101a957600080fd5b506001600160a01b038135811691602081013591604082013581169160600135166104b6565b61014f61056b565b61020b600480360360608110156101ed57600080fd5b508035906001600160a01b036020820135811691604001351661057a565b604080519115158252519081900360200190f35b6102536004803603606081101561023557600080fd5b508035906001600160a01b036020820135811691604001351661059d565b60405180836001600160a01b03168152602001826001600160a01b031681526020019250505060405180910390f35b6101916004803603608081101561029857600080fd5b506001600160a01b038135811691602081013591604082013581169160600135166105c7565b61014f6105dc565b61020b600480360360208110156102dc57600080fd5b50356001600160a01b03166105eb565b6102f4610609565b60408051918252519081900360200190f35b61020b61060f565b610191610616565b61031e6106c2565b604080516001600160a01b03958616815293909416602084015282840191909152606082015290519081900360800190f35b61014f6004803603602081101561036657600080fd5b50356001600160a01b03166106e1565b61014f610704565b610386610713565b6040805160208082528351818301528351919283929083019185019080838360005b838110156103c05781810151838201526020016103a8565b50505050905090810190601f1680156103ed5780820380516001836020036101000a031916815260200191505b509250505060405180910390f35b6101916004803603606081101561041157600080fd5b508035906001600160a01b036020820135811691604001351661073b565b61014f6004803603602081101561044557600080fd5b50356001600160a01b03166107f3565b61014f610814565b61020b610823565b6102f461082d565b6101916004803603602081101561048357600080fd5b50356001600160a01b0316610833565b6067546001600160a01b031690565b6104aa610936565b6104b381610981565b50565b6066546001600160a01b03166104cb81610baf565b6104d4856105eb565b61050f5760405162461bcd60e51b815260040180806020018281038252602a815260200180611af7602a913960400191505060405180910390fd5b6000841161054e5760405162461bcd60e51b8152600401808060200182810382526023815260200180611bee6023913960400191505060405180910390fd5b61055785610981565b6105648186868686610c0b565b5050505050565b6066546001600160a01b031681565b606654600090610595906001600160a01b0316858585610f89565b949350505050565b60665460009081906105ba906001600160a01b031686868661120c565b915091505b935093915050565b6066546001600160a01b031661055781610baf565b6068546001600160a01b031690565b6001600160a01b03166000908152606b602052604090205460ff1690565b60695490565b606a541590565b61061e6113e7565b6001600160a01b031661062f610704565b6001600160a01b03161461068a576040805162461bcd60e51b815260206004820181905260248201527f4f776e61626c653a2063616c6c6572206973206e6f7420746865206f776e6572604482015290519081900360640190fd5b6033546040516000916001600160a01b031690600080516020611ba1833981519152908390a3603380546001600160a01b0319169055565b606754606854606954606a546001600160a01b03938416939092169184565b6001600160a01b039081166000908152606b602052604090205461010090041690565b6033546001600160a01b031690565b6040518060400160405280600c81526020016b536f7274656454726f76657360a01b81525081565b600054610100900460ff168061075457506107546113eb565b80610762575060005460ff16155b61079d5760405162461bcd60e51b815260040180806020018281038252602e815260200180611b73602e913960400191505060405180910390fd5b600054610100900460ff161580156107c8576000805460ff1961ff0019909116610100171660011790555b6107d06113fc565b6107db8484846114ad565b80156107ed576000805461ff00191690555b50505050565b6001600160a01b039081166000908152606b60205260409020600101541690565b6065546001600160a01b031681565b606954606a541490565b606a5490565b61083b6113e7565b6001600160a01b031661084c610704565b6001600160a01b0316146108a7576040805162461bcd60e51b815260206004820181905260248201527f4f776e61626c653a2063616c6c6572206973206e6f7420746865206f776e6572604482015290519081900360640190fd5b6001600160a01b0381166108ec5760405162461bcd60e51b8152600401808060200182810382526026815260200180611b216026913960400191505060405180910390fd5b6033546040516001600160a01b03808416921690600080516020611ba183398151915290600090a3603380546001600160a01b0319166001600160a01b0392909216919091179055565b6066546001600160a01b0316331461097f5760405162461bcd60e51b815260040180806020018281038252602c815260200180611b47602c913960400191505060405180910390fd5b565b61098a816105eb565b6109c55760405162461bcd60e51b815260040180806020018281038252602a815260200180611af7602a913960400191505060405180910390fd5b606a5460011015610b0b576067546001600160a01b0382811691161415610a34576001600160a01b038181166000908152606b6020526040808220546067805461010090920485166001600160a01b031992831617908190559093168252902060010180549091169055610b06565b6068546001600160a01b0382811691161415610a9b576001600160a01b038082166000908152606b602052604080822060010154606880546001600160a01b03191691851691909117908190559092168152208054610100600160a81b0319169055610b06565b6001600160a01b038082166000908152606b60205260408082208054600180830180548716865284862080546101009485900489168502610100600160a81b03199091161790555492549190910485168452919092200180546001600160a01b031916919092161790555b610b28565b606780546001600160a01b03199081169091556068805490911690555b6001600160a01b0381166000908152606b6020526040902080546001600160a81b0319168155600190810180546001600160a01b0319169055606a54610b6d916115ba565b606a55604080516001600160a01b038316815290517fcfc24166db4bb677e857cacabd1541fb2b30645021b27c5130419589b84db52b9181900360200190a150565b6065546001600160a01b0316331480610bd05750336001600160a01b038216145b6104b35760405162461bcd60e51b815260040180806020018281038252602d815260200180611bc1602d913960400191505060405180910390fd5b610c13610823565b15610c65576040805162461bcd60e51b815260206004820152601a60248201527f536f7274656454726f7665733a204c6973742069732066756c6c000000000000604482015290519081900360640190fd5b610c6e846105eb565b15610caa5760405162461bcd60e51b815260040180806020018281038252602c815260200180611acb602c913960400191505060405180910390fd5b6001600160a01b038416610d05576040805162461bcd60e51b815260206004820152601f60248201527f536f7274656454726f7665733a2049642063616e6e6f74206265207a65726f00604482015290519081900360640190fd5b60008311610d445760405162461bcd60e51b8152600401808060200182810382526023815260200180611bee6023913960400191505060405180910390fd5b8181610d5287868484610f89565b610d6857610d628786848461120c565b90925090505b6001600160a01b038087166000908152606b60205260409020805460ff191660011790558216158015610da257506001600160a01b038116155b15610dd757606780546001600160a01b0388166001600160a01b03199182168117909255606880549091169091179055610f2b565b6001600160a01b038216610e4b57606780546001600160a01b038881166000818152606b6020526040808220805495851661010002610100600160a81b0319909616959095179094558454909216825291902060010180546001600160a01b03199081168317909155825416179055610f2b565b6001600160a01b038116610ebb57606880546001600160a01b038881166000818152606b602052604080822060010180549585166001600160a01b031996871617905585549093168152919091208054610100600160a81b03191661010083021790558254909116179055610f2b565b6001600160a01b038087166000818152606b60205260408082208054858716610100818102610100600160a81b031993841617845560019384018054988b166001600160a01b0319998a168117909155865284862080549188029190931617909155835291200180549092161790555b606a54610f39906001611617565b606a55604080516001600160a01b03881681526020810187905281517fe02b43adbee0c123de070a04554a71877a0007e2fc161466299cae3c094fe82f929181900390910190a150505050505050565b60006001600160a01b038316158015610fa957506001600160a01b038216155b15610fbd57610fb661060f565b9050610595565b6001600160a01b038316611066576067546001600160a01b038381169116148015610fb65750846001600160a01b031663b0d8e181836040518263ffffffff1660e01b815260040180826001600160a01b0316815260200191505060206040518083038186803b15801561103057600080fd5b505afa158015611044573d6000803e3d6000fd5b505050506040513d602081101561105a57600080fd5b50518410159050610595565b6001600160a01b03821661110f576068546001600160a01b038481169116148015610fb65750846001600160a01b031663b0d8e181846040518263ffffffff1660e01b815260040180826001600160a01b0316815260200191505060206040518083038186803b1580156110d957600080fd5b505afa1580156110ed573d6000803e3d6000fd5b505050506040513d602081101561110357600080fd5b50518411159050610595565b6001600160a01b038381166000908152606b6020526040902054610100900481169083161480156111b8575083856001600160a01b031663b0d8e181856040518263ffffffff1660e01b815260040180826001600160a01b0316815260200191505060206040518083038186803b15801561118957600080fd5b505afa15801561119d573d6000803e3d6000fd5b505050506040513d60208110156111b357600080fd5b505110155b8015610fb65750846001600160a01b031663b0d8e181836040518263ffffffff1660e01b815260040180826001600160a01b0316815260200191505060206040518083038186803b15801561103057600080fd5b60008083836001600160a01b038216156112b657611229826105eb565b15806112ac5750876001600160a01b031663b0d8e181836040518263ffffffff1660e01b815260040180826001600160a01b0316815260200191505060206040518083038186803b15801561127d57600080fd5b505afa158015611291573d6000803e3d6000fd5b505050506040513d60208110156112a757600080fd5b505187115b156112b657600091505b6001600160a01b0381161561135a576112ce816105eb565b15806113515750876001600160a01b031663b0d8e181826040518263ffffffff1660e01b815260040180826001600160a01b0316815260200191505060206040518083038186803b15801561132257600080fd5b505afa158015611336573d6000803e3d6000fd5b505050506040513d602081101561134c57600080fd5b505187105b1561135a575060005b6001600160a01b03821615801561137857506001600160a01b038116155b156113a15760675461139690899089906001600160a01b0316611678565b9350935050506113de565b6001600160a01b0382166113ba576113968888836117b0565b6001600160a01b0381166113d357611396888884611678565b611396888884611678565b94509492505050565b3390565b60006113f6306118e2565b15905090565b600054610100900460ff168061141557506114156113eb565b80611423575060005460ff16155b61145e5760405162461bcd60e51b815260040180806020018281038252602e815260200180611b73602e913960400191505060405180910390fd5b600054610100900460ff16158015611489576000805460ff1961ff0019909116610100171660011790555b6114916118e8565b611499611988565b80156104b3576000805461ff001916905550565b60008311611502576040805162461bcd60e51b815260206004820181905260248201527f536f7274656454726f7665733a2053697a652063616e2774206265207a65726f604482015290519081900360640190fd5b61150b82611a6f565b61151481611a6f565b6069839055606680546001600160a01b038085166001600160a01b03199283168117909355606580549185169190921617905560408051918252517f143219c9e69b09e07e095fcc889b43d8f46ca892bba65f08dc3a0050869a56789181900360200190a1604080516001600160a01b038316815290517f3ca631ffcd2a9b5d9ae18543fc82f58eb4ca33af9e6ab01b7a8e95331e6ed9859181900360200190a1505050565b600082821115611611576040805162461bcd60e51b815260206004820152601e60248201527f536166654d6174683a207375627472616374696f6e206f766572666c6f770000604482015290519081900360640190fd5b50900390565b600082820183811015611671576040805162461bcd60e51b815260206004820152601b60248201527f536166654d6174683a206164646974696f6e206f766572666c6f770000000000604482015290519081900360640190fd5b9392505050565b60675460009081906001600160a01b0384811691161480156117125750846001600160a01b031663b0d8e181846040518263ffffffff1660e01b815260040180826001600160a01b0316815260200191505060206040518083038186803b1580156116e257600080fd5b505afa1580156116f6573d6000803e3d6000fd5b505050506040513d602081101561170c57600080fd5b50518410155b15611722575060009050816105bf565b6001600160a01b038084166000908152606b60205260409020548491610100909104165b6001600160a01b03821615801590611767575061176587878484610f89565b155b156117a457506001600160a01b039081166000908152606b6020526040808220546101009081900484168084529190922054909291900416611746565b90969095509350505050565b60685460009081906001600160a01b03848116911614801561184a5750846001600160a01b031663b0d8e181846040518263ffffffff1660e01b815260040180826001600160a01b0316815260200191505060206040518083038186803b15801561181a57600080fd5b505afa15801561182e573d6000803e3d6000fd5b505050506040513d602081101561184457600080fd5b50518411155b1561185a575081905060006105bf565b6001600160a01b038084166000908152606b60205260409020600101548491165b6001600160a01b0382161580159061189c575061189a87878385610f89565b155b156118d757506001600160a01b039081166000908152606b60205260408082206001908101548416808452919092209091015490911661187b565b969095509350505050565b3b151590565b600054610100900460ff168061190157506119016113eb565b8061190f575060005460ff16155b61194a5760405162461bcd60e51b815260040180806020018281038252602e815260200180611b73602e913960400191505060405180910390fd5b600054610100900460ff16158015611499576000805460ff1961ff00199091166101001716600117905580156104b3576000805461ff001916905550565b600054610100900460ff16806119a157506119a16113eb565b806119af575060005460ff16155b6119ea5760405162461bcd60e51b815260040180806020018281038252602e815260200180611b73602e913960400191505060405180910390fd5b600054610100900460ff16158015611a15576000805460ff1961ff0019909116610100171660011790555b6000611a1f6113e7565b603380546001600160a01b0319166001600160a01b03831690811790915560405191925090600090600080516020611ba1833981519152908290a35080156104b3576000805461ff001916905550565b6001600160a01b0381166104b3576040805162461bcd60e51b815260206004820152601e60248201527f4163636f756e742063616e6e6f74206265207a65726f20616464726573730000604482015290519081900360640190fdfe536f7274656454726f7665733a204c69737420616c726561647920636f6e7461696e7320746865206e6f6465536f7274656454726f7665733a204c69737420646f6573206e6f7420636f6e7461696e207468652069644f776e61626c653a206e6577206f776e657220697320746865207a65726f2061646472657373536f7274656454726f7665733a2043616c6c6572206973206e6f74207468652054726f76654d616e61676572496e697469616c697a61626c653a20636f6e747261637420697320616c726561647920696e697469616c697a65648be0079c531659141344cd1fd0a4f28419497f9722a3daafe3b4186f6b6457e0536f7274656454726f7665733a2043616c6c6572206973206e65697468657220424f206e6f722054726f76654d536f7274656454726f7665733a204e494352206d75737420626520706f736974697665a2646970667358221220513b4d3f3a36e18aa823377ac20a98a63cfec8cde520c2982f7cc69ccb7f507f64736f6c63430007060033",
  "linkReferences": {},
  "deployedLinkReferences": {}
}