{
  "_format": "hh-sol-artifact-1",
  "contractName": "SortedTroves",
  "sourceName": "contracts/SortedTroves.sol",
  "abi": [
    {
      "anonymous": false,
      "inputs": [
        {
          "indexed": false,
          "internalType": "address",
          "name": "_borrowerOperationsAddress",
          "type": "address"
        }
      ],
      "name": "BorrowerOperationsAddressChanged",
      "type": "event"
    },
    {
      "anonymous": false,
      "inputs": [
        {
          "indexed": false,
          "internalType": "address",
          "name": "_id",
          "type": "address"
        },
        {
          "indexed": false,
          "internalType": "uint256",
          "name": "_NICR",
          "type": "uint256"
        }
      ],
      "name": "NodeAdded",
      "type": "event"
    },
    {
      "anonymous": false,
      "inputs": [
        {
          "indexed": false,
          "internalType": "address",
          "name": "_id",
          "type": "address"
        }
      ],
      "name": "NodeRemoved",
      "type": "event"
    },
    {
      "anonymous": false,
      "inputs": [
        {
          "indexed": true,
          "internalType": "address",
          "name": "previousOwner",
          "type": "address"
        },
        {
          "indexed": true,
          "internalType": "address",
          "name": "newOwner",
          "type": "address"
        }
      ],
      "name": "OwnershipTransferred",
      "type": "event"
    },
    {
      "anonymous": false,
      "inputs": [
        {
          "indexed": false,
          "internalType": "address",
          "name": "_troveManagerAddress",
          "type": "address"
        }
      ],
      "name": "TroveManagerAddressChanged",
      "type": "event"
    },
    {
      "inputs": [],
      "name": "NAME",
      "outputs": [
        {
          "internalType": "string",
          "name": "",
          "type": "string"
        }
      ],
      "stateMutability": "view",
      "type": "function"
    },
    {
      "inputs": [],
      "name": "borrowerOperationsAddress",
      "outputs": [
        {
          "internalType": "address",
          "name": "",
          "type": "address"
        }
      ],
      "stateMutability": "view",
      "type": "function"
    },
    {
      "inputs": [
        {
          "internalType": "address",
          "name": "_id",
          "type": "address"
        }
      ],
      "name": "contains",
      "outputs": [
        {
          "internalType": "bool",
          "name": "",
          "type": "bool"
        }
      ],
      "stateMutability": "view",
      "type": "function"
    },
    {
      "inputs": [],
      "name": "data",
      "outputs": [
        {
          "internalType": "address",
          "name": "head",
          "type": "address"
        },
        {
          "internalType": "address",
          "name": "tail",
          "type": "address"
        },
        {
          "internalType": "uint256",
          "name": "maxSize",
          "type": "uint256"
        },
        {
          "internalType": "uint256",
          "name": "size",
          "type": "uint256"
        }
      ],
      "stateMutability": "view",
      "type": "function"
    },
    {
      "inputs": [
        {
          "internalType": "uint256",
          "name": "_NICR",
          "type": "uint256"
        },
        {
          "internalType": "address",
          "name": "_prevId",
          "type": "address"
        },
        {
          "internalType": "address",
          "name": "_nextId",
          "type": "address"
        }
      ],
      "name": "findInsertPosition",
      "outputs": [
        {
          "internalType": "address",
          "name": "",
          "type": "address"
        },
        {
          "internalType": "address",
          "name": "",
          "type": "address"
        }
      ],
      "stateMutability": "view",
      "type": "function"
    },
    {
      "inputs": [],
      "name": "getFirst",
      "outputs": [
        {
          "internalType": "address",
          "name": "",
          "type": "address"
        }
      ],
      "stateMutability": "view",
      "type": "function"
    },
    {
      "inputs": [],
      "name": "getLast",
      "outputs": [
        {
          "internalType": "address",
          "name": "",
          "type": "address"
        }
      ],
      "stateMutability": "view",
      "type": "function"
    },
    {
      "inputs": [],
      "name": "getMaxSize",
      "outputs": [
        {
          "internalType": "uint256",
          "name": "",
          "type": "uint256"
        }
      ],
      "stateMutability": "view",
      "type": "function"
    },
    {
      "inputs": [
        {
          "internalType": "address",
          "name": "_id",
          "type": "address"
        }
      ],
      "name": "getNext",
      "outputs": [
        {
          "internalType": "address",
          "name": "",
          "type": "address"
        }
      ],
      "stateMutability": "view",
      "type": "function"
    },
    {
      "inputs": [
        {
          "internalType": "address",
          "name": "_id",
          "type": "address"
        }
      ],
      "name": "getPrev",
      "outputs": [
        {
          "internalType": "address",
          "name": "",
          "type": "address"
        }
      ],
      "stateMutability": "view",
      "type": "function"
    },
    {
      "inputs": [],
      "name": "getSize",
      "outputs": [
        {
          "internalType": "uint256",
          "name": "",
          "type": "uint256"
        }
      ],
      "stateMutability": "view",
      "type": "function"
    },
    {
      "inputs": [
        {
          "internalType": "address",
          "name": "_id",
          "type": "address"
        },
        {
          "internalType": "uint256",
          "name": "_NICR",
          "type": "uint256"
        },
        {
          "internalType": "address",
          "name": "_prevId",
          "type": "address"
        },
        {
          "internalType": "address",
          "name": "_nextId",
          "type": "address"
        }
      ],
      "name": "insert",
      "outputs": [],
      "stateMutability": "nonpayable",
      "type": "function"
    },
    {
      "inputs": [],
      "name": "isEmpty",
      "outputs": [
        {
          "internalType": "bool",
          "name": "",
          "type": "bool"
        }
      ],
      "stateMutability": "view",
      "type": "function"
    },
    {
      "inputs": [],
      "name": "isFull",
      "outputs": [
        {
          "internalType": "bool",
          "name": "",
          "type": "bool"
        }
      ],
      "stateMutability": "view",
      "type": "function"
    },
    {
      "inputs": [],
      "name": "isOwner",
      "outputs": [
        {
          "internalType": "bool",
          "name": "",
          "type": "bool"
        }
      ],
      "stateMutability": "view",
      "type": "function"
    },
    {
      "inputs": [],
      "name": "owner",
      "outputs": [
        {
          "internalType": "address",
          "name": "",
          "type": "address"
        }
      ],
      "stateMutability": "view",
      "type": "function"
    },
    {
      "inputs": [
        {
          "internalType": "address",
          "name": "_id",
          "type": "address"
        },
        {
          "internalType": "uint256",
          "name": "_newNICR",
          "type": "uint256"
        },
        {
          "internalType": "address",
          "name": "_prevId",
          "type": "address"
        },
        {
          "internalType": "address",
          "name": "_nextId",
          "type": "address"
        }
      ],
      "name": "reInsert",
      "outputs": [],
      "stateMutability": "nonpayable",
      "type": "function"
    },
    {
      "inputs": [
        {
          "internalType": "address",
          "name": "_id",
          "type": "address"
        }
      ],
      "name": "remove",
      "outputs": [],
      "stateMutability": "nonpayable",
      "type": "function"
    },
    {
      "inputs": [
        {
          "internalType": "uint256",
          "name": "_size",
          "type": "uint256"
        },
        {
          "internalType": "address",
          "name": "_troveManagerAddress",
          "type": "address"
        },
        {
          "internalType": "address",
          "name": "_borrowerOperationsAddress",
          "type": "address"
        }
      ],
      "name": "setParams",
      "outputs": [],
      "stateMutability": "nonpayable",
      "type": "function"
    },
    {
      "inputs": [],
      "name": "troveManager",
      "outputs": [
        {
          "internalType": "contract ITroveManager",
          "name": "",
          "type": "address"
        }
      ],
      "stateMutability": "view",
      "type": "function"
    },
    {
      "inputs": [
        {
          "internalType": "uint256",
          "name": "_NICR",
          "type": "uint256"
        },
        {
          "internalType": "address",
          "name": "_prevId",
          "type": "address"
        },
        {
          "internalType": "address",
          "name": "_nextId",
          "type": "address"
        }
      ],
      "name": "validInsertPosition",
      "outputs": [
        {
          "internalType": "bool",
          "name": "",
          "type": "bool"
        }
      ],
      "stateMutability": "view",
      "type": "function"
    }
  ],
  "bytecode": "0x608060405234801561001057600080fd5b50600080546001600160a01b0319163390811782556040519091907f8be0079c531659141344cd1fd0a4f28419497f9722a3daafe3b4186f6b6457e0908290a36118778061005f6000396000f3fe608060405234801561001057600080fd5b50600436106101375760003560e01c8063681fe70c116100b8578063a3f4df7e1161007c578063a3f4df7e14610373578063b72703ac146103f0578063b7f8cf9b14610416578063babd3d9a1461041e578063de8fa43114610426578063f376d7981461042e57610137565b8063681fe70c146102fb57806373d4a13a14610303578063765e01591461033d5780638da5cb5b146103635780638f32d59b1461036b57610137565b8063416980dc116100ff578063416980dc1461021457806346f7cf87146102775780634d622831146102b35780635dbe47e8146102bb57806363e1d57c146102e157610137565b80631e2231431461013c57806329092d0e146101605780632be21260146101885780633d83908a146101c45780633fce12d5146101cc575b600080fd5b610144610462565b604080516001600160a01b039092168252519081900360200190f35b6101866004803603602081101561017657600080fd5b50356001600160a01b0316610471565b005b6101866004803603608081101561019e57600080fd5b506001600160a01b03813581169160208101359160408201358116916060013516610485565b61014461053a565b610200600480360360608110156101e257600080fd5b508035906001600160a01b0360208201358116916040013516610549565b604080519115158252519081900360200190f35b6102486004803603606081101561022a57600080fd5b508035906001600160a01b036020820135811691604001351661056c565b60405180836001600160a01b03168152602001826001600160a01b031681526020019250505060405180910390f35b6101866004803603608081101561028d57600080fd5b506001600160a01b03813581169160208101359160408201358116916060013516610596565b6101446105ab565b610200600480360360208110156102d157600080fd5b50356001600160a01b03166105ba565b6102e96105d8565b60408051918252519081900360200190f35b6102006105de565b61030b6105e5565b604080516001600160a01b03958616815293909416602084015282840191909152606082015290519081900360800190f35b6101446004803603602081101561035357600080fd5b50356001600160a01b0316610604565b610144610627565b610200610636565b61037b610647565b6040805160208082528351818301528351919283929083019185019080838360005b838110156103b557818101518382015260200161039d565b50505050905090810190601f1680156103e25780820380516001836020036101000a031916815260200191505b509250505060405180910390f35b6101446004803603602081101561040657600080fd5b50356001600160a01b031661066f565b610144610690565b61020061069f565b6102e96106a9565b6101866004803603606081101561044457600080fd5b508035906001600160a01b03602082013581169160400135166106af565b6003546001600160a01b031690565b61047961081d565b61048281610868565b50565b6002546001600160a01b031661049a81610a96565b6104a3856105ba565b6104de5760405162461bcd60e51b815260040180806020018281038252602a81526020018061179c602a913960400191505060405180910390fd5b6000841161051d5760405162461bcd60e51b815260040180806020018281038252602381526020018061181f6023913960400191505060405180910390fd5b61052685610868565b6105338186868686610af2565b5050505050565b6002546001600160a01b031681565b600254600090610564906001600160a01b0316858585610e70565b949350505050565b6002546000908190610589906001600160a01b03168686866110f3565b915091505b935093915050565b6002546001600160a01b031661052681610a96565b6004546001600160a01b031690565b6001600160a01b031660009081526007602052604090205460ff1690565b60055490565b6006541590565b6003546004546005546006546001600160a01b03938416939092169184565b6001600160a01b0390811660009081526007602052604090205461010090041690565b6000546001600160a01b031690565b6000546001600160a01b0316331490565b6040518060400160405280600c81526020016b536f7274656454726f76657360a01b81525081565b6001600160a01b039081166000908152600760205260409020600101541690565b6001546001600160a01b031681565b6005546006541490565b60065490565b6106b7610636565b610708576040805162461bcd60e51b815260206004820181905260248201527f4f776e61626c653a2063616c6c6572206973206e6f7420746865206f776e6572604482015290519081900360640190fd5b6000831161075d576040805162461bcd60e51b815260206004820181905260248201527f536f7274656454726f7665733a2053697a652063616e2774206265207a65726f604482015290519081900360640190fd5b610766826112ce565b61076f816112ce565b6005839055600280546001600160a01b038085166001600160a01b03199283168117909355600180549185169190921617905560408051918252517f143219c9e69b09e07e095fcc889b43d8f46ca892bba65f08dc3a0050869a56789181900360200190a1604080516001600160a01b038316815290517f3ca631ffcd2a9b5d9ae18543fc82f58eb4ca33af9e6ab01b7a8e95331e6ed9859181900360200190a1610818611381565b505050565b6002546001600160a01b031633146108665760405162461bcd60e51b815260040180806020018281038252602c8152602001806117c6602c913960400191505060405180910390fd5b565b610871816105ba565b6108ac5760405162461bcd60e51b815260040180806020018281038252602a81526020018061179c602a913960400191505060405180910390fd5b600654600110156109f2576003546001600160a01b038281169116141561091b576001600160a01b03818116600090815260076020526040808220546003805461010090920485166001600160a01b0319928316179081905590931682529020600101805490911690556109ed565b6004546001600160a01b0382811691161415610982576001600160a01b0380821660009081526007602052604080822060010154600480546001600160a01b03191691851691909117908190559092168152208054610100600160a81b03191690556109ed565b6001600160a01b038082166000908152600760205260408082208054600180830180548716865284862080546101009485900489168502610100600160a81b03199091161790555492549190910485168452919092200180546001600160a01b031916919092161790555b610a0f565b600380546001600160a01b03199081169091556004805490911690555b6001600160a01b038116600090815260076020526040902080546001600160a81b0319168155600190810180546001600160a01b0319169055600654610a54916113cb565b600655604080516001600160a01b038316815290517fcfc24166db4bb677e857cacabd1541fb2b30645021b27c5130419589b84db52b9181900360200190a150565b6001546001600160a01b0316331480610ab75750336001600160a01b038216145b6104825760405162461bcd60e51b815260040180806020018281038252602d8152602001806117f2602d913960400191505060405180910390fd5b610afa61069f565b15610b4c576040805162461bcd60e51b815260206004820152601a60248201527f536f7274656454726f7665733a204c6973742069732066756c6c000000000000604482015290519081900360640190fd5b610b55846105ba565b15610b915760405162461bcd60e51b815260040180806020018281038252602c815260200180611770602c913960400191505060405180910390fd5b6001600160a01b038416610bec576040805162461bcd60e51b815260206004820152601f60248201527f536f7274656454726f7665733a2049642063616e6e6f74206265207a65726f00604482015290519081900360640190fd5b60008311610c2b5760405162461bcd60e51b815260040180806020018281038252602381526020018061181f6023913960400191505060405180910390fd5b8181610c3987868484610e70565b610c4f57610c49878684846110f3565b90925090505b6001600160a01b038087166000908152600760205260409020805460ff191660011790558216158015610c8957506001600160a01b038116155b15610cbe57600380546001600160a01b0388166001600160a01b03199182168117909255600480549091169091179055610e12565b6001600160a01b038216610d3257600380546001600160a01b03888116600081815260076020526040808220805495851661010002610100600160a81b0319909616959095179094558454909216825291902060010180546001600160a01b03199081168317909155825416179055610e12565b6001600160a01b038116610da257600480546001600160a01b0388811660008181526007602052604080822060010180549585166001600160a01b031996871617905585549093168152919091208054610100600160a81b03191661010083021790558254909116179055610e12565b6001600160a01b038087166000818152600760205260408082208054858716610100818102610100600160a81b031993841617845560019384018054988b166001600160a01b0319998a168117909155865284862080549188029190931617909155835291200180549092161790555b600654610e20906001611414565b600655604080516001600160a01b03881681526020810187905281517fe02b43adbee0c123de070a04554a71877a0007e2fc161466299cae3c094fe82f929181900390910190a150505050505050565b60006001600160a01b038316158015610e9057506001600160a01b038216155b15610ea457610e9d6105de565b9050610564565b6001600160a01b038316610f4d576003546001600160a01b038381169116148015610e9d5750846001600160a01b031663b0d8e181836040518263ffffffff1660e01b815260040180826001600160a01b0316815260200191505060206040518083038186803b158015610f1757600080fd5b505afa158015610f2b573d6000803e3d6000fd5b505050506040513d6020811015610f4157600080fd5b50518410159050610564565b6001600160a01b038216610ff6576004546001600160a01b038481169116148015610e9d5750846001600160a01b031663b0d8e181846040518263ffffffff1660e01b815260040180826001600160a01b0316815260200191505060206040518083038186803b158015610fc057600080fd5b505afa158015610fd4573d6000803e3d6000fd5b505050506040513d6020811015610fea57600080fd5b50518411159050610564565b6001600160a01b038381166000908152600760205260409020546101009004811690831614801561109f575083856001600160a01b031663b0d8e181856040518263ffffffff1660e01b815260040180826001600160a01b0316815260200191505060206040518083038186803b15801561107057600080fd5b505afa158015611084573d6000803e3d6000fd5b505050506040513d602081101561109a57600080fd5b505110155b8015610e9d5750846001600160a01b031663b0d8e181836040518263ffffffff1660e01b815260040180826001600160a01b0316815260200191505060206040518083038186803b158015610f1757600080fd5b60008083836001600160a01b0382161561119d57611110826105ba565b15806111935750876001600160a01b031663b0d8e181836040518263ffffffff1660e01b815260040180826001600160a01b0316815260200191505060206040518083038186803b15801561116457600080fd5b505afa158015611178573d6000803e3d6000fd5b505050506040513d602081101561118e57600080fd5b505187115b1561119d57600091505b6001600160a01b03811615611241576111b5816105ba565b15806112385750876001600160a01b031663b0d8e181826040518263ffffffff1660e01b815260040180826001600160a01b0316815260200191505060206040518083038186803b15801561120957600080fd5b505afa15801561121d573d6000803e3d6000fd5b505050506040513d602081101561123357600080fd5b505187105b15611241575060005b6001600160a01b03821615801561125f57506001600160a01b038116155b156112885760035461127d90899089906001600160a01b031661146e565b9350935050506112c5565b6001600160a01b0382166112a15761127d8888836115a6565b6001600160a01b0381166112ba5761127d88888461146e565b61127d88888461146e565b94509492505050565b6001600160a01b038116611329576040805162461bcd60e51b815260206004820152601e60248201527f4163636f756e742063616e6e6f74206265207a65726f20616464726573730000604482015290519081900360640190fd5b803b8061137d576040805162461bcd60e51b815260206004820181905260248201527f4163636f756e7420636f64652073697a652063616e6e6f74206265207a65726f604482015290519081900360640190fd5b5050565b600080546040516001600160a01b03909116907f8be0079c531659141344cd1fd0a4f28419497f9722a3daafe3b4186f6b6457e0908390a3600080546001600160a01b0319169055565b600061140d83836040518060400160405280601e81526020017f536166654d6174683a207375627472616374696f6e206f766572666c6f7700008152506116d8565b9392505050565b60008282018381101561140d576040805162461bcd60e51b815260206004820152601b60248201527f536166654d6174683a206164646974696f6e206f766572666c6f770000000000604482015290519081900360640190fd5b60035460009081906001600160a01b0384811691161480156115085750846001600160a01b031663b0d8e181846040518263ffffffff1660e01b815260040180826001600160a01b0316815260200191505060206040518083038186803b1580156114d857600080fd5b505afa1580156114ec573d6000803e3d6000fd5b505050506040513d602081101561150257600080fd5b50518410155b156115185750600090508161058e565b6001600160a01b038084166000908152600760205260409020548491610100909104165b6001600160a01b0382161580159061155d575061155b87878484610e70565b155b1561159a57506001600160a01b0390811660009081526007602052604080822054610100908190048416808452919092205490929190041661153c565b90969095509350505050565b60045460009081906001600160a01b0384811691161480156116405750846001600160a01b031663b0d8e181846040518263ffffffff1660e01b815260040180826001600160a01b0316815260200191505060206040518083038186803b15801561161057600080fd5b505afa158015611624573d6000803e3d6000fd5b505050506040513d602081101561163a57600080fd5b50518411155b156116505750819050600061058e565b6001600160a01b038084166000908152600760205260409020600101548491165b6001600160a01b03821615801590611692575061169087878385610e70565b155b156116cd57506001600160a01b0390811660009081526007602052604080822060019081015484168084529190922090910154909116611671565b969095509350505050565b600081848411156117675760405162461bcd60e51b81526004018080602001828103825283818151815260200191508051906020019080838360005b8381101561172c578181015183820152602001611714565b50505050905090810190601f1680156117595780820380516001836020036101000a031916815260200191505b509250505060405180910390fd5b50505090039056fe536f7274656454726f7665733a204c69737420616c726561647920636f6e7461696e7320746865206e6f6465536f7274656454726f7665733a204c69737420646f6573206e6f7420636f6e7461696e20746865206964536f7274656454726f7665733a2043616c6c6572206973206e6f74207468652054726f76654d616e61676572536f7274656454726f7665733a2043616c6c6572206973206e65697468657220424f206e6f722054726f76654d536f7274656454726f7665733a204e494352206d75737420626520706f736974697665a2646970667358221220595334a3f0c181ce46d8d24c00751aa365488d6587fb55b73e0f05d0b45de4a364736f6c63430007060033",
  "linkReferences": {},
  "deployedLinkReferences": {}
}