{
  "_format": "hh-sol-artifact-1",
  "contractName": "StabilityPoolTester",
  "sourceName": "contracts/TestContracts/StabilityPoolTester.sol",
  "abi": [
    {
      "inputs": [
        {
          "internalType": "uint256",
          "name": "_gasCompensation",
          "type": "uint256"
        },
        {
          "internalType": "uint256",
          "name": "_minNetDebt",
          "type": "uint256"
        }
      ],
      "stateMutability": "nonpayable",
      "type": "constructor"
    },
    {
      "anonymous": false,
      "inputs": [
        {
          "indexed": false,
          "internalType": "address",
          "name": "_newActivePoolAddress",
          "type": "address"
        }
      ],
      "name": "ActivePoolAddressChanged",
      "type": "event"
    },
    {
      "anonymous": false,
      "inputs": [
        {
          "indexed": false,
          "internalType": "address",
          "name": "_newBorrowerOperationsAddress",
          "type": "address"
        }
      ],
      "name": "BorrowerOperationsAddressChanged",
      "type": "event"
    },
    {
      "anonymous": false,
      "inputs": [
        {
          "indexed": false,
          "internalType": "address",
          "name": "_newCommunityIssuanceAddress",
          "type": "address"
        }
      ],
      "name": "CommunityIssuanceAddressChanged",
      "type": "event"
    },
    {
      "anonymous": false,
      "inputs": [
        {
          "indexed": false,
          "internalType": "address",
          "name": "_newDebtTokenAddress",
          "type": "address"
        }
      ],
      "name": "DebtTokenAddressChanged",
      "type": "event"
    },
    {
      "anonymous": false,
      "inputs": [
        {
          "indexed": false,
          "internalType": "address",
          "name": "_newDefaultPoolAddress",
          "type": "address"
        }
      ],
      "name": "DefaultPoolAddressChanged",
      "type": "event"
    },
    {
      "anonymous": false,
      "inputs": [
        {
          "indexed": true,
          "internalType": "address",
          "name": "_depositor",
          "type": "address"
        },
        {
          "indexed": false,
          "internalType": "uint256",
          "name": "_P",
          "type": "uint256"
        },
        {
          "indexed": false,
          "internalType": "uint256",
          "name": "_S",
          "type": "uint256"
        },
        {
          "indexed": false,
          "internalType": "uint256",
          "name": "_G",
          "type": "uint256"
        }
      ],
      "name": "DepositSnapshotUpdated",
      "type": "event"
    },
    {
      "anonymous": false,
      "inputs": [
        {
          "indexed": false,
          "internalType": "uint128",
          "name": "_currentEpoch",
          "type": "uint128"
        }
      ],
      "name": "EpochUpdated",
      "type": "event"
    },
    {
      "anonymous": false,
      "inputs": [
        {
          "indexed": true,
          "internalType": "address",
          "name": "_depositor",
          "type": "address"
        },
        {
          "indexed": false,
          "internalType": "uint256",
          "name": "_FIL",
          "type": "uint256"
        },
        {
          "indexed": false,
          "internalType": "uint256",
          "name": "_debtTokenLoss",
          "type": "uint256"
        }
      ],
      "name": "FILGainWithdrawn",
      "type": "event"
    },
    {
      "anonymous": false,
      "inputs": [
        {
          "indexed": false,
          "internalType": "address",
          "name": "_to",
          "type": "address"
        },
        {
          "indexed": false,
          "internalType": "uint256",
          "name": "_amount",
          "type": "uint256"
        }
      ],
      "name": "FILSent",
      "type": "event"
    },
    {
      "anonymous": false,
      "inputs": [
        {
          "indexed": true,
          "internalType": "address",
          "name": "_frontEnd",
          "type": "address"
        },
        {
          "indexed": false,
          "internalType": "uint256",
          "name": "_kickbackRate",
          "type": "uint256"
        }
      ],
      "name": "FrontEndRegistered",
      "type": "event"
    },
    {
      "anonymous": false,
      "inputs": [
        {
          "indexed": true,
          "internalType": "address",
          "name": "_frontEnd",
          "type": "address"
        },
        {
          "indexed": false,
          "internalType": "uint256",
          "name": "_P",
          "type": "uint256"
        },
        {
          "indexed": false,
          "internalType": "uint256",
          "name": "_G",
          "type": "uint256"
        }
      ],
      "name": "FrontEndSnapshotUpdated",
      "type": "event"
    },
    {
      "anonymous": false,
      "inputs": [
        {
          "indexed": true,
          "internalType": "address",
          "name": "_frontEnd",
          "type": "address"
        },
        {
          "indexed": false,
          "internalType": "uint256",
          "name": "_newFrontEndStake",
          "type": "uint256"
        },
        {
          "indexed": false,
          "internalType": "address",
          "name": "_depositor",
          "type": "address"
        }
      ],
      "name": "FrontEndStakeChanged",
      "type": "event"
    },
    {
      "anonymous": false,
      "inputs": [
        {
          "indexed": true,
          "internalType": "address",
          "name": "_depositor",
          "type": "address"
        },
        {
          "indexed": true,
          "internalType": "address",
          "name": "_frontEnd",
          "type": "address"
        }
      ],
      "name": "FrontEndTagSet",
      "type": "event"
    },
    {
      "anonymous": false,
      "inputs": [
        {
          "indexed": false,
          "internalType": "uint256",
          "name": "_G",
          "type": "uint256"
        },
        {
          "indexed": false,
          "internalType": "uint128",
          "name": "_epoch",
          "type": "uint128"
        },
        {
          "indexed": false,
          "internalType": "uint128",
          "name": "_scale",
          "type": "uint128"
        }
      ],
      "name": "G_Updated",
      "type": "event"
    },
    {
      "anonymous": false,
      "inputs": [
        {
          "indexed": true,
          "internalType": "address",
          "name": "previousOwner",
          "type": "address"
        },
        {
          "indexed": true,
          "internalType": "address",
          "name": "newOwner",
          "type": "address"
        }
      ],
      "name": "OwnershipTransferred",
      "type": "event"
    },
    {
      "anonymous": false,
      "inputs": [
        {
          "indexed": false,
          "internalType": "uint256",
          "name": "_P",
          "type": "uint256"
        }
      ],
      "name": "P_Updated",
      "type": "event"
    },
    {
      "anonymous": false,
      "inputs": [
        {
          "indexed": false,
          "internalType": "address",
          "name": "_newPriceFeedAddress",
          "type": "address"
        }
      ],
      "name": "PriceFeedAddressChanged",
      "type": "event"
    },
    {
      "anonymous": false,
      "inputs": [
        {
          "indexed": true,
          "internalType": "address",
          "name": "_depositor",
          "type": "address"
        },
        {
          "indexed": false,
          "internalType": "uint256",
          "name": "_protocolToken",
          "type": "uint256"
        }
      ],
      "name": "ProtocolTokenPaidToDepositor",
      "type": "event"
    },
    {
      "anonymous": false,
      "inputs": [
        {
          "indexed": true,
          "internalType": "address",
          "name": "_frontEnd",
          "type": "address"
        },
        {
          "indexed": false,
          "internalType": "uint256",
          "name": "_protocolToken",
          "type": "uint256"
        }
      ],
      "name": "ProtocolTokenPaidToFrontEnd",
      "type": "event"
    },
    {
      "anonymous": false,
      "inputs": [
        {
          "indexed": false,
          "internalType": "uint256",
          "name": "_S",
          "type": "uint256"
        },
        {
          "indexed": false,
          "internalType": "uint128",
          "name": "_epoch",
          "type": "uint128"
        },
        {
          "indexed": false,
          "internalType": "uint128",
          "name": "_scale",
          "type": "uint128"
        }
      ],
      "name": "S_Updated",
      "type": "event"
    },
    {
      "anonymous": false,
      "inputs": [
        {
          "indexed": false,
          "internalType": "uint128",
          "name": "_currentScale",
          "type": "uint128"
        }
      ],
      "name": "ScaleUpdated",
      "type": "event"
    },
    {
      "anonymous": false,
      "inputs": [
        {
          "indexed": false,
          "internalType": "address",
          "name": "_newSortedTrovesAddress",
          "type": "address"
        }
      ],
      "name": "SortedTrovesAddressChanged",
      "type": "event"
    },
    {
      "anonymous": false,
      "inputs": [
        {
          "indexed": false,
          "internalType": "uint256",
          "name": "_newBalance",
          "type": "uint256"
        }
      ],
      "name": "StabilityPoolDebtTokenBalanceUpdated",
      "type": "event"
    },
    {
      "anonymous": false,
      "inputs": [
        {
          "indexed": false,
          "internalType": "uint256",
          "name": "_newBalance",
          "type": "uint256"
        }
      ],
      "name": "StabilityPoolFILBalanceUpdated",
      "type": "event"
    },
    {
      "anonymous": false,
      "inputs": [
        {
          "indexed": false,
          "internalType": "address",
          "name": "_newTroveManagerAddress",
          "type": "address"
        }
      ],
      "name": "TroveManagerAddressChanged",
      "type": "event"
    },
    {
      "anonymous": false,
      "inputs": [
        {
          "indexed": true,
          "internalType": "address",
          "name": "_depositor",
          "type": "address"
        },
        {
          "indexed": false,
          "internalType": "uint256",
          "name": "_newDeposit",
          "type": "uint256"
        }
      ],
      "name": "UserDepositChanged",
      "type": "event"
    },
    {
      "inputs": [],
      "name": "BORROWING_FEE_FLOOR",
      "outputs": [
        {
          "internalType": "uint256",
          "name": "",
          "type": "uint256"
        }
      ],
      "stateMutability": "view",
      "type": "function"
    },
    {
      "inputs": [],
      "name": "CCR",
      "outputs": [
        {
          "internalType": "uint256",
          "name": "",
          "type": "uint256"
        }
      ],
      "stateMutability": "view",
      "type": "function"
    },
    {
      "inputs": [],
      "name": "DECIMAL_PRECISION",
      "outputs": [
        {
          "internalType": "uint256",
          "name": "",
          "type": "uint256"
        }
      ],
      "stateMutability": "view",
      "type": "function"
    },
    {
      "inputs": [],
      "name": "GAS_COMPENSATION",
      "outputs": [
        {
          "internalType": "uint256",
          "name": "",
          "type": "uint256"
        }
      ],
      "stateMutability": "view",
      "type": "function"
    },
    {
      "inputs": [],
      "name": "MCR",
      "outputs": [
        {
          "internalType": "uint256",
          "name": "",
          "type": "uint256"
        }
      ],
      "stateMutability": "view",
      "type": "function"
    },
    {
      "inputs": [],
      "name": "MIN_NET_DEBT",
      "outputs": [
        {
          "internalType": "uint256",
          "name": "",
          "type": "uint256"
        }
      ],
      "stateMutability": "view",
      "type": "function"
    },
    {
      "inputs": [],
      "name": "NAME",
      "outputs": [
        {
          "internalType": "string",
          "name": "",
          "type": "string"
        }
      ],
      "stateMutability": "view",
      "type": "function"
    },
    {
      "inputs": [],
      "name": "P",
      "outputs": [
        {
          "internalType": "uint256",
          "name": "",
          "type": "uint256"
        }
      ],
      "stateMutability": "view",
      "type": "function"
    },
    {
      "inputs": [],
      "name": "PERCENT_DIVISOR",
      "outputs": [
        {
          "internalType": "uint256",
          "name": "",
          "type": "uint256"
        }
      ],
      "stateMutability": "view",
      "type": "function"
    },
    {
      "inputs": [],
      "name": "SCALE_FACTOR",
      "outputs": [
        {
          "internalType": "uint256",
          "name": "",
          "type": "uint256"
        }
      ],
      "stateMutability": "view",
      "type": "function"
    },
    {
      "inputs": [],
      "name": "_100pct",
      "outputs": [
        {
          "internalType": "uint256",
          "name": "",
          "type": "uint256"
        }
      ],
      "stateMutability": "view",
      "type": "function"
    },
    {
      "inputs": [],
      "name": "activePool",
      "outputs": [
        {
          "internalType": "contract IActivePool",
          "name": "",
          "type": "address"
        }
      ],
      "stateMutability": "view",
      "type": "function"
    },
    {
      "inputs": [],
      "name": "borrowerOperations",
      "outputs": [
        {
          "internalType": "contract IBorrowerOperations",
          "name": "",
          "type": "address"
        }
      ],
      "stateMutability": "view",
      "type": "function"
    },
    {
      "inputs": [],
      "name": "communityIssuance",
      "outputs": [
        {
          "internalType": "contract ICommunityIssuance",
          "name": "",
          "type": "address"
        }
      ],
      "stateMutability": "view",
      "type": "function"
    },
    {
      "inputs": [],
      "name": "currentEpoch",
      "outputs": [
        {
          "internalType": "uint128",
          "name": "",
          "type": "uint128"
        }
      ],
      "stateMutability": "view",
      "type": "function"
    },
    {
      "inputs": [],
      "name": "currentScale",
      "outputs": [
        {
          "internalType": "uint128",
          "name": "",
          "type": "uint128"
        }
      ],
      "stateMutability": "view",
      "type": "function"
    },
    {
      "inputs": [],
      "name": "debtToken",
      "outputs": [
        {
          "internalType": "contract IDebtToken",
          "name": "",
          "type": "address"
        }
      ],
      "stateMutability": "view",
      "type": "function"
    },
    {
      "inputs": [],
      "name": "defaultPool",
      "outputs": [
        {
          "internalType": "contract IDefaultPool",
          "name": "",
          "type": "address"
        }
      ],
      "stateMutability": "view",
      "type": "function"
    },
    {
      "inputs": [
        {
          "internalType": "address",
          "name": "",
          "type": "address"
        }
      ],
      "name": "depositSnapshots",
      "outputs": [
        {
          "internalType": "uint256",
          "name": "S",
          "type": "uint256"
        },
        {
          "internalType": "uint256",
          "name": "P",
          "type": "uint256"
        },
        {
          "internalType": "uint256",
          "name": "G",
          "type": "uint256"
        },
        {
          "internalType": "uint128",
          "name": "scale",
          "type": "uint128"
        },
        {
          "internalType": "uint128",
          "name": "epoch",
          "type": "uint128"
        }
      ],
      "stateMutability": "view",
      "type": "function"
    },
    {
      "inputs": [
        {
          "internalType": "address",
          "name": "",
          "type": "address"
        }
      ],
      "name": "deposits",
      "outputs": [
        {
          "internalType": "uint256",
          "name": "initialValue",
          "type": "uint256"
        },
        {
          "internalType": "address",
          "name": "frontEndTag",
          "type": "address"
        }
      ],
      "stateMutability": "view",
      "type": "function"
    },
    {
      "inputs": [
        {
          "internalType": "uint128",
          "name": "",
          "type": "uint128"
        },
        {
          "internalType": "uint128",
          "name": "",
          "type": "uint128"
        }
      ],
      "name": "epochToScaleToG",
      "outputs": [
        {
          "internalType": "uint256",
          "name": "",
          "type": "uint256"
        }
      ],
      "stateMutability": "view",
      "type": "function"
    },
    {
      "inputs": [
        {
          "internalType": "uint128",
          "name": "",
          "type": "uint128"
        },
        {
          "internalType": "uint128",
          "name": "",
          "type": "uint128"
        }
      ],
      "name": "epochToScaleToSum",
      "outputs": [
        {
          "internalType": "uint256",
          "name": "",
          "type": "uint256"
        }
      ],
      "stateMutability": "view",
      "type": "function"
    },
    {
      "inputs": [
        {
          "internalType": "address",
          "name": "",
          "type": "address"
        }
      ],
      "name": "frontEndSnapshots",
      "outputs": [
        {
          "internalType": "uint256",
          "name": "S",
          "type": "uint256"
        },
        {
          "internalType": "uint256",
          "name": "P",
          "type": "uint256"
        },
        {
          "internalType": "uint256",
          "name": "G",
          "type": "uint256"
        },
        {
          "internalType": "uint128",
          "name": "scale",
          "type": "uint128"
        },
        {
          "internalType": "uint128",
          "name": "epoch",
          "type": "uint128"
        }
      ],
      "stateMutability": "view",
      "type": "function"
    },
    {
      "inputs": [
        {
          "internalType": "address",
          "name": "",
          "type": "address"
        }
      ],
      "name": "frontEndStakes",
      "outputs": [
        {
          "internalType": "uint256",
          "name": "",
          "type": "uint256"
        }
      ],
      "stateMutability": "view",
      "type": "function"
    },
    {
      "inputs": [
        {
          "internalType": "address",
          "name": "",
          "type": "address"
        }
      ],
      "name": "frontEnds",
      "outputs": [
        {
          "internalType": "uint256",
          "name": "kickbackRate",
          "type": "uint256"
        },
        {
          "internalType": "bool",
          "name": "registered",
          "type": "bool"
        }
      ],
      "stateMutability": "view",
      "type": "function"
    },
    {
      "inputs": [
        {
          "internalType": "address",
          "name": "_depositor",
          "type": "address"
        }
      ],
      "name": "getCompoundedDebtTokenDeposit",
      "outputs": [
        {
          "internalType": "uint256",
          "name": "",
          "type": "uint256"
        }
      ],
      "stateMutability": "view",
      "type": "function"
    },
    {
      "inputs": [
        {
          "internalType": "address",
          "name": "_frontEnd",
          "type": "address"
        }
      ],
      "name": "getCompoundedFrontEndStake",
      "outputs": [
        {
          "internalType": "uint256",
          "name": "",
          "type": "uint256"
        }
      ],
      "stateMutability": "view",
      "type": "function"
    },
    {
      "inputs": [
        {
          "internalType": "address",
          "name": "_depositor",
          "type": "address"
        }
      ],
      "name": "getDepositorFILGain",
      "outputs": [
        {
          "internalType": "uint256",
          "name": "",
          "type": "uint256"
        }
      ],
      "stateMutability": "view",
      "type": "function"
    },
    {
      "inputs": [
        {
          "internalType": "address",
          "name": "_depositor",
          "type": "address"
        }
      ],
      "name": "getDepositorProtocolTokenGain",
      "outputs": [
        {
          "internalType": "uint256",
          "name": "",
          "type": "uint256"
        }
      ],
      "stateMutability": "view",
      "type": "function"
    },
    {
      "inputs": [],
      "name": "getEntireSystemColl",
      "outputs": [
        {
          "internalType": "uint256",
          "name": "entireSystemColl",
          "type": "uint256"
        }
      ],
      "stateMutability": "view",
      "type": "function"
    },
    {
      "inputs": [],
      "name": "getEntireSystemDebt",
      "outputs": [
        {
          "internalType": "uint256",
          "name": "entireSystemDebt",
          "type": "uint256"
        }
      ],
      "stateMutability": "view",
      "type": "function"
    },
    {
      "inputs": [],
      "name": "getFIL",
      "outputs": [
        {
          "internalType": "uint256",
          "name": "",
          "type": "uint256"
        }
      ],
      "stateMutability": "view",
      "type": "function"
    },
    {
      "inputs": [
        {
          "internalType": "address",
          "name": "_frontEnd",
          "type": "address"
        }
      ],
      "name": "getFrontEndProtocolTokenGain",
      "outputs": [
        {
          "internalType": "uint256",
          "name": "",
          "type": "uint256"
        }
      ],
      "stateMutability": "view",
      "type": "function"
    },
    {
      "inputs": [],
      "name": "getTotalDebtTokenDeposits",
      "outputs": [
        {
          "internalType": "uint256",
          "name": "",
          "type": "uint256"
        }
      ],
      "stateMutability": "view",
      "type": "function"
    },
    {
      "inputs": [
        {
          "internalType": "address",
          "name": "_borrowerOperationsAddress",
          "type": "address"
        },
        {
          "internalType": "address",
          "name": "_troveManagerAddress",
          "type": "address"
        },
        {
          "internalType": "address",
          "name": "_activePoolAddress",
          "type": "address"
        },
        {
          "internalType": "address",
          "name": "_debtTokenAddress",
          "type": "address"
        },
        {
          "internalType": "address",
          "name": "_sortedTrovesAddress",
          "type": "address"
        },
        {
          "internalType": "address",
          "name": "_priceFeedAddress",
          "type": "address"
        },
        {
          "internalType": "address",
          "name": "_communityIssuanceAddress",
          "type": "address"
        }
      ],
      "name": "initialize",
      "outputs": [],
      "stateMutability": "nonpayable",
      "type": "function"
    },
    {
      "inputs": [],
      "name": "lastDebtTokenLossError_Offset",
      "outputs": [
        {
          "internalType": "uint256",
          "name": "",
          "type": "uint256"
        }
      ],
      "stateMutability": "view",
      "type": "function"
    },
    {
      "inputs": [],
      "name": "lastFILError_Offset",
      "outputs": [
        {
          "internalType": "uint256",
          "name": "",
          "type": "uint256"
        }
      ],
      "stateMutability": "view",
      "type": "function"
    },
    {
      "inputs": [],
      "name": "lastProtocolTokenError",
      "outputs": [
        {
          "internalType": "uint256",
          "name": "",
          "type": "uint256"
        }
      ],
      "stateMutability": "view",
      "type": "function"
    },
    {
      "inputs": [
        {
          "internalType": "uint256",
          "name": "_debtToOffset",
          "type": "uint256"
        },
        {
          "internalType": "uint256",
          "name": "_collToAdd",
          "type": "uint256"
        }
      ],
      "name": "offset",
      "outputs": [],
      "stateMutability": "nonpayable",
      "type": "function"
    },
    {
      "inputs": [],
      "name": "owner",
      "outputs": [
        {
          "internalType": "address",
          "name": "",
          "type": "address"
        }
      ],
      "stateMutability": "view",
      "type": "function"
    },
    {
      "inputs": [],
      "name": "priceFeed",
      "outputs": [
        {
          "internalType": "contract IPriceFeed",
          "name": "",
          "type": "address"
        }
      ],
      "stateMutability": "view",
      "type": "function"
    },
    {
      "inputs": [
        {
          "internalType": "uint256",
          "name": "_amount",
          "type": "uint256"
        },
        {
          "internalType": "address",
          "name": "_frontEndTag",
          "type": "address"
        }
      ],
      "name": "provideToSP",
      "outputs": [],
      "stateMutability": "nonpayable",
      "type": "function"
    },
    {
      "inputs": [
        {
          "internalType": "uint256",
          "name": "_kickbackRate",
          "type": "uint256"
        }
      ],
      "name": "registerFrontEnd",
      "outputs": [],
      "stateMutability": "nonpayable",
      "type": "function"
    },
    {
      "inputs": [],
      "name": "renounceOwnership",
      "outputs": [],
      "stateMutability": "nonpayable",
      "type": "function"
    },
    {
      "inputs": [
        {
          "internalType": "uint128",
          "name": "_currentScale",
          "type": "uint128"
        }
      ],
      "name": "setCurrentScale",
      "outputs": [],
      "stateMutability": "nonpayable",
      "type": "function"
    },
    {
      "inputs": [
        {
          "internalType": "uint256",
          "name": "_totalDebtTokenDeposits",
          "type": "uint256"
        }
      ],
      "name": "setTotalDeposits",
      "outputs": [],
      "stateMutability": "nonpayable",
      "type": "function"
    },
    {
      "inputs": [],
      "name": "sortedTroves",
      "outputs": [
        {
          "internalType": "contract ISortedTroves",
          "name": "",
          "type": "address"
        }
      ],
      "stateMutability": "view",
      "type": "function"
    },
    {
      "inputs": [
        {
          "internalType": "address",
          "name": "newOwner",
          "type": "address"
        }
      ],
      "name": "transferOwnership",
      "outputs": [],
      "stateMutability": "nonpayable",
      "type": "function"
    },
    {
      "inputs": [],
      "name": "troveManager",
      "outputs": [
        {
          "internalType": "contract ITroveManager",
          "name": "",
          "type": "address"
        }
      ],
      "stateMutability": "view",
      "type": "function"
    },
    {
      "inputs": [],
      "name": "unprotectedPayable",
      "outputs": [],
      "stateMutability": "payable",
      "type": "function"
    },
    {
      "inputs": [
        {
          "internalType": "address",
          "name": "_upperHint",
          "type": "address"
        },
        {
          "internalType": "address",
          "name": "_lowerHint",
          "type": "address"
        }
      ],
      "name": "withdrawFILGainToTrove",
      "outputs": [],
      "stateMutability": "nonpayable",
      "type": "function"
    },
    {
      "inputs": [
        {
          "internalType": "uint256",
          "name": "_amount",
          "type": "uint256"
        }
      ],
      "name": "withdrawFromSP",
      "outputs": [],
      "stateMutability": "nonpayable",
      "type": "function"
    },
    {
      "stateMutability": "payable",
      "type": "receive"
    }
  ],
  "bytecode": "0x60c060405234801561001057600080fd5b50604051613e97380380613e978339818101604052604081101561003357600080fd5b508051602090910151608082905260a0819052613e2a61006d60003980610dc55280613913525080610d66528061383f5250613e2a6000f3fe6080604052600436106102c35760003560e01c8063795d26c311610170578063a7bfff97116100cc578063df9cd84f11610085578063df9cd84f14610a04578063f2fde38b14610a37578063f3af7c3b14610a6a578063f8225a1014610a72578063f8d8989814610a87578063f92d343314610a9c578063fc7e286d14610ab157610304565b8063a7bfff971461091c578063ae91875414610968578063ba9c74851461097d578063c5c3937e146109a7578063ce4b5bbe146109bc578063dae4f5ff146109d157610304565b80638da5cb5b116101295780638da5cb5b1461080357806395ca53be1461081857806395fb16bb14610853578063a20baee6146106bc578063a3f4df7e14610868578063a4e59ac8146108f2578063a7a488841461090757610304565b8063795d26c3146107415780637f7dde4a1461075657806382e0a5741461076b57806386da0824146107a6578063887105d3146107d95780638b8fbd92146107ee57610304565b80634870dd9a1161021f57806367e8fb20116101d857806367e8fb2014610692578063715018a6146106a757806372fe25aa146106bc578063741bef1a146106d157806376671808146106e657806377553ad414610717578063794e57241461072c57610304565b80634870dd9a1461059f57806350f592db146105b4578063556be101146105e75780635733d58f146106115780635d2de642146106265780635f788d651461065957610304565b8063203aae0a1161027c578063203aae0a1461042a57806328a0a04d1461045d5780632e54bf9514610498578063335525ad146104c457806335876476146104f45780633cc74225146105595780633d83908a1461058a57610304565b80630206d7b9146103095780630bdfe4e71461034e5780630d9a6b3514610381578063139f2e8c1461039657806316b9d3c5146103ab5780631bf435551461041557610304565b36610304576102d0610b05565b606c546102dd9034610b50565b606c8190556040805191825251600080516020613bb78339815191529181900360200190a1005b600080fd5b34801561031557600080fd5b5061033c6004803603602081101561032c57600080fd5b50356001600160a01b0316610bb3565b60408051918252519081900360200190f35b34801561035a57600080fd5b5061033c6004803603602081101561037157600080fd5b50356001600160a01b0316610cc1565b34801561038d57600080fd5b5061033c610d5e565b3480156103a257600080fd5b5061033c610d64565b3480156103b757600080fd5b506103de600480360360208110156103ce57600080fd5b50356001600160a01b0316610d88565b604080519586526020860194909452848401929092526001600160801b039081166060850152166080830152519081900360a00190f35b34801561042157600080fd5b5061033c610dc3565b34801561043657600080fd5b5061033c6004803603602081101561044d57600080fd5b50356001600160a01b0316610de7565b34801561046957600080fd5b5061033c6004803603604081101561048057600080fd5b506001600160801b0381358116916020013516610eb8565b3480156104a457600080fd5b506104c2600480360360208110156104bb57600080fd5b5035610ed5565b005b3480156104d057600080fd5b506104c2600480360360408110156104e757600080fd5b508035906020013561104c565b34801561050057600080fd5b506104c2600480360360e081101561051757600080fd5b506001600160a01b038135811691602081013582169160408201358116916060810135821691608082013581169160a081013582169160c090910135166110b0565b34801561056557600080fd5b5061056e611193565b604080516001600160a01b039092168252519081900360200190f35b34801561059657600080fd5b5061056e6111a2565b3480156105ab57600080fd5b5061033c6111b1565b3480156105c057600080fd5b506104c2600480360360208110156105d757600080fd5b50356001600160801b03166111b6565b3480156105f357600080fd5b506104c26004803603602081101561060a57600080fd5b50356111d8565b34801561061d57600080fd5b5061033c61124d565b34801561063257600080fd5b5061033c6004803603602081101561064957600080fd5b50356001600160a01b0316611259565b34801561066557600080fd5b506104c26004803603604081101561067c57600080fd5b50803590602001356001600160a01b031661126b565b34801561069e57600080fd5b5061033c6113da565b3480156106b357600080fd5b506104c26113e0565b3480156106c857600080fd5b5061033c61148c565b3480156106dd57600080fd5b5061056e611498565b3480156106f257600080fd5b506106fb6114a7565b604080516001600160801b039092168252519081900360200190f35b34801561072357600080fd5b5061056e6114bd565b34801561073857600080fd5b5061033c6114cc565b34801561074d57600080fd5b5061033c6114d8565b34801561076257600080fd5b5061056e6115d3565b34801561077757600080fd5b5061033c6004803603604081101561078e57600080fd5b506001600160801b03813581169160200135166115e2565b3480156107b257600080fd5b506103de600480360360208110156107c957600080fd5b50356001600160a01b03166115ff565b3480156107e557600080fd5b5061033c61163a565b3480156107fa57600080fd5b5061033c6116f6565b34801561080f57600080fd5b5061056e6116fc565b34801561082457600080fd5b506104c26004803603604081101561083b57600080fd5b506001600160a01b038135811691602001351661170b565b34801561085f57600080fd5b5061056e61192e565b34801561087457600080fd5b5061087d61193d565b6040805160208082528351818301528351919283929083019185019080838360005b838110156108b757818101518382015260200161089f565b50505050905090810190601f1680156108e45780820380516001836020036101000a031916815260200191505b509250505060405180910390f35b3480156108fe57600080fd5b506106fb611966565b34801561091357600080fd5b5061033c611975565b34801561092857600080fd5b5061094f6004803603602081101561093f57600080fd5b50356001600160a01b031661197b565b6040805192835290151560208301528051918290030190f35b34801561097457600080fd5b5061056e611997565b34801561098957600080fd5b506104c2600480360360208110156109a057600080fd5b50356119a6565b3480156109b357600080fd5b5061033c6119ab565b3480156109c857600080fd5b5061033c6119b1565b3480156109dd57600080fd5b5061033c600480360360208110156109f457600080fd5b50356001600160a01b03166119b9565b348015610a1057600080fd5b5061033c60048036036020811015610a2757600080fd5b50356001600160a01b0316611a4d565b348015610a4357600080fd5b506104c260048036036020811015610a5a57600080fd5b50356001600160a01b0316611ae1565b6104c2611be4565b348015610a7e57600080fd5b5061033c611bf6565b348015610a9357600080fd5b5061056e611bfc565b348015610aa857600080fd5b5061033c611c0b565b348015610abd57600080fd5b50610ae460048036036020811015610ad457600080fd5b50356001600160a01b0316611c16565b604080519283526001600160a01b0390911660208301528051918290030190f35b6000546001600160a01b03163314610b4e5760405162461bcd60e51b8152600401808060200182810382526027815260200180613aa16027913960400191505060405180910390fd5b565b600082820183811015610baa576040805162461bcd60e51b815260206004820152601b60248201527f536166654d6174683a206164646974696f6e206f766572666c6f770000000000604482015290519081900360640190fd5b90505b92915050565b6001600160a01b0381166000908152606e602052604081205480610bdb576000915050610cbc565b6001600160a01b038084166000908152606e6020526040812060010154909116908115610c20576001600160a01b038216600090815260706020526040902054610c2a565b670de0b6b3a76400005b6001600160a01b0386166000908152606f60209081526040808320815160a08101835281548152600182015493810193909352600281015491830191909152600301546001600160801b038082166060840152600160801b909104166080820152919250610cb4670de0b6b3a7640000610cae610ca78886611c38565b8690611d0c565b90611d65565b955050505050505b919050565b6001600160a01b0381166000908152606e602052604081205480610ce9576000915050610cbc565b6001600160a01b0383166000908152606f60209081526040808320815160a08101835281548152600182015493810193909352600281015491830191909152600301546001600160801b038082166060840152600160801b90910416608082015290610d558383611dcc565b95945050505050565b606d5490565b7f000000000000000000000000000000000000000000000000000000000000000081565b6072602052600090815260409020805460018201546002830154600390930154919290916001600160801b0380821691600160801b90041685565b7f000000000000000000000000000000000000000000000000000000000000000081565b6001600160a01b03811660009081526071602052604081205480610e0f576000915050610cbc565b6001600160a01b03831660009081526070602052604081205490610e3b670de0b6b3a764000083611ebc565b6001600160a01b0386166000908152607260209081526040808320815160a08101835281548152600182015493810193909352600281015491830191909152600301546001600160801b038082166060840152600160801b909104166080820152919250610cb4670de0b6b3a7640000610cae610ca78886611c38565b607560209081526000928352604080842090915290825290205481565b8015610ee357610ee3611f19565b336000908152606e6020526040902054610efc816120d6565b606b546001600160a01b0316610f1181612118565b6000610f1c336119b9565b90506000610f2933610cc1565b90506000610f37868361218c565b90506000610f458684611ebc565b336000818152606e60205260409020600101549192506001600160a01b0390911690610f73908790836121a2565b6000610f7e82611a4d565b90506000610f8c8286611ebc565b9050610f98838261232f565b6040805182815233602082015281516001600160a01b03861692600080516020613d91833981519152928290030190a2610fd2338661247b565b6000610fde8787611ebc565b9050610fea3382612501565b6040805182815290513391600080516020613af6833981519152919081900360200190a2604080518981526020810187905281513392600080516020613c50833981519152928290030190a261103f88612687565b5050505050505050505050565b61105461278d565b606d54801580611062575082155b1561106d57506110ac565b606b54611082906001600160a01b0316612118565b6000806110908486856127d6565b9150915061109e828261289f565b6110a88486612b69565b5050505b5050565b600254600160a81b900460ff16806110cb57506110cb612caa565b806110e05750600254600160a01b900460ff16155b61111b5760405162461bcd60e51b815260040180806020018281038252602e815260200180613ac8602e913960400191505060405180910390fd5b600254600160a81b900460ff16158015611152576002805460ff60a01b1960ff60a81b19909116600160a81b1716600160a01b1790555b61115a612cbb565b61116988888888888888612d83565b670de0b6b3a76400006073558015611189576002805460ff60a81b191690555b5050505050505050565b6001546001600160a01b031681565b6068546001600160a01b031681565b60c881565b607480546001600160801b0319166001600160801b0392909216919091179055565b6111e133612fdc565b6111ea33613037565b6111f38161308d565b336000818152607060209081526040918290208481556001908101805460ff19169091179055815184815291517f19bc932fb9e16a8b5a1e41be9f4c2de59d5ddd7567b8b81405f532ca00a9880e9281900390910190a250565b6714d1120d7b16000081565b60716020526000908152604090205481565b611274816130d4565b61127d33612fdc565b61128682613140565b336000908152606e6020526040902054606b546001600160a01b03166112ab81612118565b816112ba576112ba338461317f565b60006112c5336119b9565b905060006112d233610cc1565b905060006112e08583611ebc565b336000818152606e60205260409020600101549192506001600160a01b039091169061130e908690836121a2565b600061131982611a4d565b90506000611327828b610b50565b9050611333838261232f565b6040805182815233602082015281516001600160a01b03861692600080516020613d91833981519152928290030190a261136d338b6131d9565b6000611379868c610b50565b90506113853382612501565b6040805182815290513391600080516020613af6833981519152919081900360200190a2604080518881526020810187905281513392600080516020613c50833981519152928290030190a261103f87612687565b60785481565b6113e861329d565b6001600160a01b03166113f96116fc565b6001600160a01b031614611454576040805162461bcd60e51b815260206004820181905260248201527f4f776e61626c653a2063616c6c6572206973206e6f7420746865206f776e6572604482015290519081900360640190fd5b6035546040516000916001600160a01b031690600080516020613c0a833981519152908390a3603580546001600160a01b0319169055565b670de0b6b3a764000081565b6002546001600160a01b031681565b607454600160801b90046001600160801b031681565b6067546001600160a01b031681565b670f43fc2c04ee000081565b60008054604080516314a6bf0f60e01b8152905183926001600160a01b0316916314a6bf0f916004808301926020929190829003018186803b15801561151d57600080fd5b505afa158015611531573d6000803e3d6000fd5b505050506040513d602081101561154757600080fd5b5051600154604080516314a6bf0f60e01b815290519293506000926001600160a01b03909216916314a6bf0f91600480820192602092909190829003018186803b15801561159457600080fd5b505afa1580156115a8573d6000803e3d6000fd5b505050506040513d60208110156115be57600080fd5b505190506115cc8282610b50565b9250505090565b6000546001600160a01b031681565b607660209081526000928352604080842090915290825290205481565b606f602052600090815260409020805460018201546002830154600390930154919290916001600160801b0380821691600160801b90041685565b60008054604080516362e1c9bf60e11b8152905183926001600160a01b03169163c5c3937e916004808301926020929190829003018186803b15801561167f57600080fd5b505afa158015611693573d6000803e3d6000fd5b505050506040513d60208110156116a957600080fd5b5051600154604080516362e1c9bf60e11b815290519293506000926001600160a01b039092169163c5c3937e91600480820192602092909190829003018186803b15801561159457600080fd5b60735481565b6035546001600160a01b031690565b336000908152606e6020526040902054611724816120d6565b61172d336132a1565b61173633613358565b606b546001600160a01b031661174b81612118565b6000611756336119b9565b9050600061176333610cc1565b905060006117718583611ebc565b336000818152606e60205260409020600101549192506001600160a01b039091169061179f908690836121a2565b60006117aa82611a4d565b9050806117b7838261232f565b6040805182815233602082015281516001600160a01b03861692600080516020613d91833981519152928290030190a26117f13386612501565b604080518781526020810186905281513392600080516020613c50833981519152928290030190a26040805186815290513391600080516020613af6833981519152919081900360200190a2606c5461184a9087611ebc565b606c8190556040805191825251600080516020613bb78339815191529181900360200190a1604080513381526020810188905281517f3b2482b1bf6e751427503c9a8bf79e4dba3e6519259e2220428c2f326cc79c14929181900390910190a160675460408051630721ec6760e11b81523360048201526001600160a01b038d811660248301528c8116604483015291519190921691630e43d8ce91899160648082019260009290919082900301818588803b15801561190957600080fd5b505af115801561191d573d6000803e3d6000fd5b505050505050505050505050505050565b606b546001600160a01b031681565b6040518060400160405280600d81526020016c14dd18589a5b1a5d1e541bdbdb609a1b81525081565b6074546001600160801b031681565b60795481565b6070602052600090815260409020805460019091015460ff1682565b606a546001600160a01b031681565b606d55565b606c5490565b633b9aca0081565b6001600160a01b0381166000908152606e6020526040812054806119e1576000915050610cbc565b6001600160a01b0383166000908152606f60209081526040808320815160a08101835281548152600182015493810193909352600281015491830191909152600301546001600160801b038082166060840152600160801b90910416608082015290610d5583836133a4565b6001600160a01b03811660009081526071602052604081205480611a75576000915050610cbc565b6001600160a01b0383166000908152607260209081526040808320815160a08101835281548152600182015493810193909352600281015491830191909152600301546001600160801b038082166060840152600160801b90910416608082015290610d558383611dcc565b611ae961329d565b6001600160a01b0316611afa6116fc565b6001600160a01b031614611b55576040805162461bcd60e51b815260206004820181905260248201527f4f776e61626c653a2063616c6c6572206973206e6f7420746865206f776e6572604482015290519081900360640190fd5b6001600160a01b038116611b9a5760405162461bcd60e51b8152600401808060200182810382526026815260200180613a356026913960400191505060405180910390fd5b6035546040516001600160a01b03808416921690600080516020613c0a83398151915290600090a3603580546001600160a01b0319166001600160a01b0392909216919091179055565b606c54611bf19034610b50565b606c55565b60775481565b6069546001600160a01b031681565b6611c37937e0800081565b606e60205260009081526040902080546001909101546001600160a01b031682565b608081015160608201516040808401516020808601516001600160801b03808716600090815260768452858120918716815292529281205490949392908590611c819084611ebc565b6001600160801b03808716600090815260766020526040812092935091611cd891633b9aca0091908490611cb8908a16600161341f565b6001600160801b0316815260208101919091526040016000205490611d65565b90506000611cfe670de0b6b3a7640000610cae8681611cf78888610b50565b8f90611d0c565b9a9950505050505050505050565b600082611d1b57506000610bad565b82820282848281611d2857fe5b0414610baa5760405162461bcd60e51b8152600401808060200182810382526021815260200180613b966021913960400191505060405180910390fd5b6000808211611dbb576040805162461bcd60e51b815260206004820152601a60248201527f536166654d6174683a206469766973696f6e206279207a65726f000000000000604482015290519081900360640190fd5b818381611dc457fe5b049392505050565b6020810151606082015160808301516074546000939291906001600160801b03600160801b90910481169082161015611e0b5760009350505050610bad565b6074546000908190611e26906001600160801b03168561346f565b90506001600160801b038116611e5657611e4f85610cae6073548b611d0c90919063ffffffff16565b9150611e8e565b806001600160801b031660011415611e8957611e4f633b9aca00610cae87610cae6073548d611d0c90919063ffffffff16565b600091505b611e9c88633b9aca00611d65565b821015611eb157600095505050505050610bad565b509695505050505050565b600082821115611f13576040805162461bcd60e51b815260206004820152601e60248201527f536166654d6174683a207375627472616374696f6e206f766572666c6f770000604482015290519081900360640190fd5b50900390565b60025460408051630fdb11cf60e01b815290516000926001600160a01b031691630fdb11cf91600480830192602092919082900301818787803b158015611f5f57600080fd5b505af1158015611f73573d6000803e3d6000fd5b505050506040513d6020811015611f8957600080fd5b5051606a5460408051634d62283160e01b815290519293506000926001600160a01b0390921691634d62283191600480820192602092909190829003018186803b158015611fd657600080fd5b505afa158015611fea573d6000803e3d6000fd5b505050506040513d602081101561200057600080fd5b505160685460408051630d293c7160e41b81526001600160a01b038085166004830152602482018790529151939450600093919092169163d293c710916044808301926020929190829003018186803b15801561205c57600080fd5b505afa158015612070573d6000803e3d6000fd5b505050506040513d602081101561208657600080fd5b50519050670f43fc2c04ee00008110156120d15760405162461bcd60e51b8152600401808060200182810382526044815260200180613db16044913960600191505060405180910390fd5b505050565b600081116121155760405162461bcd60e51b8152600401808060200182810382526030815260200180613d616030913960400191505060405180910390fd5b50565b6000816001600160a01b0316632eee8bc96040518163ffffffff1660e01b8152600401602060405180830381600087803b15801561215557600080fd5b505af1158015612169573d6000803e3d6000fd5b505050506040513d602081101561217f57600080fd5b505190506110ac816134c2565b600081831061219b5781610baa565b5090919050565b6001600160a01b0381161561226e5760006121bc82610de7565b9050836001600160a01b0316638352d63683836040518363ffffffff1660e01b815260040180836001600160a01b0316815260200182815260200192505050600060405180830381600087803b15801561221557600080fd5b505af1158015612229573d6000803e3d6000fd5b50506040805184815290516001600160a01b03861693507fc3c43b5355673e1ea1a83122d1de4fde0584a9e8796843b3b7b33ed9b1aece0292509081900360200190a2505b600061227983610bb3565b9050836001600160a01b0316638352d63684836040518363ffffffff1660e01b815260040180836001600160a01b0316815260200182815260200192505050600060405180830381600087803b1580156122d257600080fd5b505af11580156122e6573d6000803e3d6000fd5b50506040805184815290516001600160a01b03871693507fe57aace4a327c35eab9346657e77499888878556a925f2b460c3f1ce23b093f792509081900360200190a250505050565b6001600160a01b0382166000908152607160205260409020819055806123bf576001600160a01b0382166000818152607260209081526040808320838155600181018490556002810184905560030183905580518381529182019290925281517fbb1322f85cc7cc8bac4e172a5bc5dcc0c1959007f9a030032abf9258205f0e45929181900390910190a26110ac565b6074546073546001600160801b03600160801b80840482166000818152607660209081526040808320978616808452978252808320546001600160a01b038b168085526072845293829020600181018990556002810182905560030180546001600160801b0319168a17909716958502959095179095558451868152908101849052845192959491927fbb1322f85cc7cc8bac4e172a5bc5dcc0c1959007f9a030032abf9258205f0e45929181900390910190a2505050505050565b80612485576110ac565b60695460408051631062c15f60e11b81523060048201526001600160a01b03858116602483015260448201859052915191909216916320c582be91606480830192600092919082900301818387803b1580156124e057600080fd5b505af11580156124f4573d6000803e3d6000fd5b505050506110ac816135d7565b6001600160a01b0382166000908152606e60205260409020819055806125af576001600160a01b0382166000818152606e60209081526040808320600190810180546001600160a01b0319169055606f83528184208481559081018490556002810184905560030183905580518381529182018390528181019290925290517f2d6cc0bcdf72c9486f6451bde6b80f44066f4558f77f44dbfedbe7d8b295225a9181900360600190a26110ac565b6074546073546001600160801b03600160801b8084048216600081815260756020908152604080832097861680845297825280832054848452607683528184208985528352818420546001600160a01b038c16808652606f855294839020600181018a90558281556002810182905560030180546001600160801b0319168b179098169686029690961790965580518781529182018690528181018590525192959493927f2d6cc0bcdf72c9486f6451bde6b80f44066f4558f77f44dbfedbe7d8b295225a916060908290030190a250505050505050565b8061269157612115565b606c546000906126a19083611ebc565b606c819055604080518281529051919250600080516020613bb7833981519152919081900360200190a1604080513381526020810184905281517f3b2482b1bf6e751427503c9a8bf79e4dba3e6519259e2220428c2f326cc79c14929181900390910190a1604051600090339084908381818185875af1925050503d8060008114612748576040519150601f19603f3d011682016040523d82523d6000602084013e61274d565b606091505b50509050806120d15760405162461bcd60e51b8152600401808060200182810382526021815260200180613cd16021913960400191505060405180910390fd5b6068546001600160a01b03163314610b4e5760405162461bcd60e51b8152600401808060200182810382526029815260200180613b166029913960400191505060405180910390fd5b60008060006128026078546127fc670de0b6b3a764000089611d0c90919063ffffffff16565b90610b50565b90508385111561280e57fe5b8385141561282b576000607955670de0b6b3a76400009150612873565b60795460009061284d9061284788670de0b6b3a7640000611d0c565b90611ebc565b905061285e60016127fc8388611d65565b925061286e816128478588611d0c565b607955505b61287d8185611d65565b925061289361288c8486611d0c565b8290611ebc565b60785550935093915050565b6073546000670de0b6b3a76400008311156128b657fe5b60006128ca670de0b6b3a764000085611ebc565b6074546001600160801b03600160801b82048116600081815260756020908152604080832094909516808352939052928320549394509092909161290e8988611d0c565b9050600061291c8383610b50565b6001600160801b038086166000818152607560209081526040808320948b16808452948252918290208590558151858152908101929092528181019290925290519192507fe12e2cd2c9afa8069203ca07e7eff1edce4a075686d0736a8e7e0d593597b207919081900360600190a185612a4d576129a46001600160801b038516600161341f565b607480546001600160801b03908116600160801b938216840217918290556040805193909204168252517fb50f0f59e7cb5b421dc77581c3a9919e3806e076e5fa78a874c3f120cb7d874d916020908290030190a1607480546001600160801b0319169055604080516000815290517f1f9dfc70cd666adb18a39d60a797518f7b4febf4b6e24ef37d44f6e1e7219fbe9181900360200190a1670de0b6b3a76400009650612b1b565b633b9aca00612a68670de0b6b3a7640000610cae8b8a611d0c565b1015612b0257612a92670de0b6b3a7640000610cae633b9aca00612a8c8c8b611d0c565b90611d0c565b9650612aa86001600160801b038616600161341f565b607480546001600160801b0319166001600160801b0392831617908190556040805191909216815290517f1f9dfc70cd666adb18a39d60a797518f7b4febf4b6e24ef37d44f6e1e7219fbe916020908290030190a1612b1b565b612b18670de0b6b3a7640000610cae8a89611d0c565b96505b60008711612b2557fe5b60738790556040805188815290517fc1a9618cb59ebca77cbdbc2949f126823c407ff13edb285fd0262519a9c18e8c9181900360200190a150505050505050505050565b6000805460408051632a7ba1f760e01b81526004810185905290516001600160a01b03909216928392632a7ba1f792602480820193929182900301818387803b158015612bb557600080fd5b505af1158015612bc9573d6000803e3d6000fd5b50505050612bd6826135d7565b60695460408051632770a7eb60e21b81523060048201526024810185905290516001600160a01b0390921691639dc29fac9160448082019260009290919082900301818387803b158015612c2957600080fd5b505af1158015612c3d573d6000803e3d6000fd5b505060408051628063a560e01b81523060048201526024810187905290516001600160a01b0385169350628063a59250604480830192600092919082900301818387803b158015612c8d57600080fd5b505af1158015612ca1573d6000803e3d6000fd5b50505050505050565b6000612cb530613627565b15905090565b600254600160a81b900460ff1680612cd65750612cd6612caa565b80612ceb5750600254600160a01b900460ff16155b612d265760405162461bcd60e51b815260040180806020018281038252602e815260200180613ac8602e913960400191505060405180910390fd5b600254600160a81b900460ff16158015612d5d576002805460ff60a01b1960ff60a81b19909116600160a81b1716600160a01b1790555b612d6561362d565b612d6d6136e4565b8015612115576002805460ff60a81b1916905550565b612d8c876137e2565b612d95866137e2565b612d9e856137e2565b612da7846137e2565b612db0836137e2565b612db9826137e2565b612dc2816137e2565b612dcb8661383d565b606780546001600160a01b03199081166001600160a01b038a81169182179093556068805483168a8516179055600080548316898516179055606980548316888516179055606a80548316878516179055600280548316868516179055606b805490921692841692909217905560408051918252517f3ca631ffcd2a9b5d9ae18543fc82f58eb4ca33af9e6ab01b7a8e95331e6ed985916020908290030190a1604080516001600160a01b038816815290517f143219c9e69b09e07e095fcc889b43d8f46ca892bba65f08dc3a0050869a56789181900360200190a1604080516001600160a01b038716815290517f78f058b189175430c48dc02699e3a0031ea4ff781536dc2fab847de4babdd8829181900360200190a1604080516001600160a01b038616815290517f112220fa8dbe96141556e0dc3d74dd95075b323f4f297616048e02d82d7017159181900360200190a1604080516001600160a01b038516815290517f65f4cf077bc01e4742eb5ad98326f6e95b63548ea24b17f8d5e823111fe788009181900360200190a1604080516001600160a01b038416815290517f8c537274438aa850a330284665d81a85dd38267d09e4050d416bfc94142db2649181900360200190a1604080516001600160a01b038316815290517f3055265812fb8447b9ada4a5d804ec43bd528ec40e89c952bbc7b85dc5ac68119181900360200190a150505050505050565b6001600160a01b03811660009081526070602052604090206001015460ff16156121155760405162461bcd60e51b8152600401808060200182810382526039815260200180613c706039913960400191505060405180910390fd5b6001600160a01b0381166000908152606e602052604090205480156110ac5760405162461bcd60e51b8152600401808060200182810382526028815260200180613ca96028913960400191505060405180910390fd5b670de0b6b3a76400008111156121155760405162461bcd60e51b8152600401808060200182810382526033815260200180613bd76033913960400191505060405180910390fd5b6001600160a01b03811660009081526070602052604090206001015460ff168061310557506001600160a01b038116155b6121155760405162461bcd60e51b8152600401808060200182810382526046815260200180613a5b6046913960600191505060405180910390fd5b600081116121155760405162461bcd60e51b8152600401808060200182810382526026815260200180613c2a6026913960400191505060405180910390fd5b6001600160a01b038281166000818152606e602052604080822060010180546001600160a01b0319169486169485179055517f094c08e96a8890877a8390b4f967180a7507ad8622244d05fcd0f9f8e086564e9190a35050565b60695460408051632ee65eeb60e21b81526001600160a01b038581166004830152306024830152604482018590529151919092169163bb997bac91606480830192600092919082900301818387803b15801561323457600080fd5b505af1158015613248573d6000803e3d6000fd5b5050606d546000925061325c915083610b50565b606d8190556040805182815290519192507f8c9268469ff6265448f46f8119962e815f393b25b87bb55bda5e709a412b85d7919081900360200190a1505050565b3390565b606854604080516321e3780160e01b81526001600160a01b038481166004830152915191909216916321e37801916024808301926020929190829003018186803b1580156132ee57600080fd5b505afa158015613302573d6000803e3d6000fd5b505050506040513d602081101561331857600080fd5b50516001146121155760405162461bcd60e51b8152600401808060200182810382526046815260200180613cf26046913960600191505060405180910390fd5b6000613363826119b9565b9050600081116110ac5760405162461bcd60e51b8152600401808060200182810382526031815260200180613b3f6031913960400191505060405180910390fd5b6080810151606082015182516020808501516001600160801b038086166000908152607584526040808220928716825291909352822054919493929185906133ec9084611ebc565b6001600160801b03808716600090815260756020526040812092935091611cd891633b9aca0091908490611cb8908a1660015b60008282016001600160801b038085169082161015610baa5760405162461bcd60e51b8152600401808060200182810382526026815260200180613b706026913960400191505060405180910390fd5b6000826001600160801b0316826001600160801b03161115611f135760405162461bcd60e51b8152600401808060200182810382526029815260200180613d386029913960400191505060405180910390fd5b606d548015806134d0575081155b156134db5750612115565b60006134e783836139e1565b9050600061350060735483611d0c90919063ffffffff16565b6074546001600160801b03600160801b82048116600090815260766020908152604080832093909416825291909152205490915061353e9082610b50565b607480546001600160801b03600160801b808304821660009081526076602081815260408084209686168452958152858320979097559454918204831680825294865283812091909216808352908552908290205482519081529384019290925282810191909152517f2d6127771b164a9cc8827d24b5955db2a77e7a81dac389107ebb8bce9fb649689181900360600190a150505050565b606d546000906135e79083611ebc565b606d8190556040805182815290519192507f8c9268469ff6265448f46f8119962e815f393b25b87bb55bda5e709a412b85d7919081900360200190a15050565b3b151590565b600254600160a81b900460ff16806136485750613648612caa565b8061365d5750600254600160a01b900460ff16155b6136985760405162461bcd60e51b815260040180806020018281038252602e815260200180613ac8602e913960400191505060405180910390fd5b600254600160a81b900460ff16158015612d6d576002805460ff60a01b1960ff60a81b19909116600160a81b1716600160a01b1790558015612115576002805460ff60a81b1916905550565b600254600160a81b900460ff16806136ff57506136ff612caa565b806137145750600254600160a01b900460ff16155b61374f5760405162461bcd60e51b815260040180806020018281038252602e815260200180613ac8602e913960400191505060405180910390fd5b600254600160a81b900460ff16158015613786576002805460ff60a01b1960ff60a81b19909116600160a81b1716600160a01b1790555b600061379061329d565b603580546001600160a01b0319166001600160a01b03831690811790915560405191925090600090600080516020613c0a833981519152908290a3508015612115576002805460ff60a81b1916905550565b6001600160a01b038116612115576040805162461bcd60e51b815260206004820152601e60248201527f4163636f756e742063616e6e6f74206265207a65726f20616464726573730000604482015290519081900360640190fd5b7f0000000000000000000000000000000000000000000000000000000000000000816001600160a01b031663139f2e8c6040518163ffffffff1660e01b815260040160206040518083038186803b15801561389757600080fd5b505afa1580156138ab573d6000803e3d6000fd5b505050506040513d60208110156138c157600080fd5b505114613911576040805162461bcd60e51b815260206004820152601960248201527808e82a6be869e9aa08a9ca682a8929e9c40dad2e6dac2e8c6d603b1b604482015290519081900360640190fd5b7f0000000000000000000000000000000000000000000000000000000000000000816001600160a01b0316631bf435556040518163ffffffff1660e01b815260040160206040518083038186803b15801561396b57600080fd5b505afa15801561397f573d6000803e3d6000fd5b505050506040513d602081101561399557600080fd5b505114612115576040805162461bcd60e51b815260206004820152601560248201527409a929cbe9c8aa8be888a84a840dad2e6dac2e8c6d605b1b604482015290519081900360640190fd5b600080613a056077546127fc670de0b6b3a764000087611d0c90919063ffffffff16565b90506000613a138285611d65565b9050613a29613a228286611d0c565b8390611ebc565b60775594935050505056fe4f776e61626c653a206e6577206f776e657220697320746865207a65726f206164647265737353746162696c697479506f6f6c3a20546167206d757374206265206120726567697374657265642066726f6e7420656e642c206f7220746865207a65726f206164647265737353746162696c697479506f6f6c3a2043616c6c6572206973206e6f7420416374697665506f6f6c496e697469616c697a61626c653a20636f6e747261637420697320616c726561647920696e697469616c697a6564bce78369dccab09eec1986f4d409ab09ffbb47d65423e5148fcf98411c5111c953746162696c697479506f6f6c3a2043616c6c6572206973206e6f742054726f76654d616e6167657253746162696c697479506f6f6c3a2063616c6c6572206d7573742068617665206e6f6e2d7a65726f2046494c204761696e50726f746f636f6c536166654d6174683132383a206164646974696f6e206f766572666c6f77536166654d6174683a206d756c7469706c69636174696f6e206f766572666c6f77d05c60ff21c33fb1103e848d5310f11270e7db91e1b079c4bdd0c6024f83d6c753746162696c697479506f6f6c3a204b69636b6261636b2072617465206d75737420626520696e2072616e6765205b302c315d8be0079c531659141344cd1fd0a4f28419497f9722a3daafe3b4186f6b6457e053746162696c697479506f6f6c3a20416d6f756e74206d757374206265206e6f6e2d7a65726f69e8bca5591c9a2886b122cc27d391b407b746b724f75b996c37903b868c449753746162696c697479506f6f6c3a206d757374206e6f7420616c7265616479206265206120726567697374657265642066726f6e7420656e6453746162696c697479506f6f6c3a2055736572206d7573742068617665206e6f206465706f73697453746162696c697479506f6f6c3a2073656e64696e672046494c206661696c656453746162696c697479506f6f6c3a2063616c6c6572206d757374206861766520616e206163746976652074726f766520746f2077697468647261772046494c4761696e20746f50726f746f636f6c536166654d6174683132383a207375627472616374696f6e206f766572666c6f7753746162696c697479506f6f6c3a2055736572206d75737420686176652061206e6f6e2d7a65726f206465706f73697499920012339b5a3368d3a04b8606ce412c46ed92b7dcd8602d41fc8862cb8f2553746162696c697479506f6f6c3a2043616e6e6f74207769746864726177207768696c65207468657265206172652074726f766573207769746820494352203c204d4352a2646970667358221220f503ff93c14657edacd8cc9d4522accf7b41e70a996fc82c048679896f44889d64736f6c63430007060033",
  "linkReferences": {},
  "deployedLinkReferences": {}
}