{
  "_format": "hh-sol-artifact-1",
  "contractName": "StabilityPoolTester",
  "sourceName": "contracts/TestContracts/StabilityPoolTester.sol",
  "abi": [
    {
      "inputs": [
        {
          "internalType": "uint256",
          "name": "_gasCompensation",
          "type": "uint256"
        },
        {
          "internalType": "uint256",
          "name": "_minNetDebt",
          "type": "uint256"
        }
      ],
      "stateMutability": "nonpayable",
      "type": "constructor"
    },
    {
      "anonymous": false,
      "inputs": [
        {
          "indexed": false,
          "internalType": "address",
          "name": "_newActivePoolAddress",
          "type": "address"
        }
      ],
      "name": "ActivePoolAddressChanged",
      "type": "event"
    },
    {
      "anonymous": false,
      "inputs": [
        {
          "indexed": false,
          "internalType": "address",
          "name": "_newBorrowerOperationsAddress",
          "type": "address"
        }
      ],
      "name": "BorrowerOperationsAddressChanged",
      "type": "event"
    },
    {
      "anonymous": false,
      "inputs": [
        {
          "indexed": false,
          "internalType": "address",
          "name": "_newCommunityIssuanceAddress",
          "type": "address"
        }
      ],
      "name": "CommunityIssuanceAddressChanged",
      "type": "event"
    },
    {
      "anonymous": false,
      "inputs": [
        {
          "indexed": false,
          "internalType": "address",
          "name": "_newDebtTokenAddress",
          "type": "address"
        }
      ],
      "name": "DebtTokenAddressChanged",
      "type": "event"
    },
    {
      "anonymous": false,
      "inputs": [
        {
          "indexed": true,
          "internalType": "address",
          "name": "_depositor",
          "type": "address"
        },
        {
          "indexed": false,
          "internalType": "uint256",
          "name": "_P",
          "type": "uint256"
        },
        {
          "indexed": false,
          "internalType": "uint256",
          "name": "_S",
          "type": "uint256"
        },
        {
          "indexed": false,
          "internalType": "uint256",
          "name": "_G",
          "type": "uint256"
        }
      ],
      "name": "DepositSnapshotUpdated",
      "type": "event"
    },
    {
      "anonymous": false,
      "inputs": [
        {
          "indexed": false,
          "internalType": "uint128",
          "name": "_currentEpoch",
          "type": "uint128"
        }
      ],
      "name": "EpochUpdated",
      "type": "event"
    },
    {
      "anonymous": false,
      "inputs": [
        {
          "indexed": true,
          "internalType": "address",
          "name": "_depositor",
          "type": "address"
        },
        {
          "indexed": false,
          "internalType": "uint256",
          "name": "_FIL",
          "type": "uint256"
        },
        {
          "indexed": false,
          "internalType": "uint256",
          "name": "_debtTokenLoss",
          "type": "uint256"
        }
      ],
      "name": "FILGainWithdrawn",
      "type": "event"
    },
    {
      "anonymous": false,
      "inputs": [
        {
          "indexed": false,
          "internalType": "address",
          "name": "_to",
          "type": "address"
        },
        {
          "indexed": false,
          "internalType": "uint256",
          "name": "_amount",
          "type": "uint256"
        }
      ],
      "name": "FILSent",
      "type": "event"
    },
    {
      "anonymous": false,
      "inputs": [
        {
          "indexed": true,
          "internalType": "address",
          "name": "_frontEnd",
          "type": "address"
        },
        {
          "indexed": false,
          "internalType": "uint256",
          "name": "_kickbackRate",
          "type": "uint256"
        }
      ],
      "name": "FrontEndRegistered",
      "type": "event"
    },
    {
      "anonymous": false,
      "inputs": [
        {
          "indexed": true,
          "internalType": "address",
          "name": "_frontEnd",
          "type": "address"
        },
        {
          "indexed": false,
          "internalType": "uint256",
          "name": "_P",
          "type": "uint256"
        },
        {
          "indexed": false,
          "internalType": "uint256",
          "name": "_G",
          "type": "uint256"
        }
      ],
      "name": "FrontEndSnapshotUpdated",
      "type": "event"
    },
    {
      "anonymous": false,
      "inputs": [
        {
          "indexed": true,
          "internalType": "address",
          "name": "_frontEnd",
          "type": "address"
        },
        {
          "indexed": false,
          "internalType": "uint256",
          "name": "_newFrontEndStake",
          "type": "uint256"
        },
        {
          "indexed": false,
          "internalType": "address",
          "name": "_depositor",
          "type": "address"
        }
      ],
      "name": "FrontEndStakeChanged",
      "type": "event"
    },
    {
      "anonymous": false,
      "inputs": [
        {
          "indexed": true,
          "internalType": "address",
          "name": "_depositor",
          "type": "address"
        },
        {
          "indexed": true,
          "internalType": "address",
          "name": "_frontEnd",
          "type": "address"
        }
      ],
      "name": "FrontEndTagSet",
      "type": "event"
    },
    {
      "anonymous": false,
      "inputs": [
        {
          "indexed": false,
          "internalType": "uint256",
          "name": "_G",
          "type": "uint256"
        },
        {
          "indexed": false,
          "internalType": "uint128",
          "name": "_epoch",
          "type": "uint128"
        },
        {
          "indexed": false,
          "internalType": "uint128",
          "name": "_scale",
          "type": "uint128"
        }
      ],
      "name": "G_Updated",
      "type": "event"
    },
    {
      "anonymous": false,
      "inputs": [
        {
          "indexed": true,
          "internalType": "address",
          "name": "previousOwner",
          "type": "address"
        },
        {
          "indexed": true,
          "internalType": "address",
          "name": "newOwner",
          "type": "address"
        }
      ],
      "name": "OwnershipTransferred",
      "type": "event"
    },
    {
      "anonymous": false,
      "inputs": [
        {
          "indexed": false,
          "internalType": "uint256",
          "name": "_P",
          "type": "uint256"
        }
      ],
      "name": "P_Updated",
      "type": "event"
    },
    {
      "anonymous": false,
      "inputs": [
        {
          "indexed": false,
          "internalType": "address",
          "name": "_newPriceFeedAddress",
          "type": "address"
        }
      ],
      "name": "PriceFeedAddressChanged",
      "type": "event"
    },
    {
      "anonymous": false,
      "inputs": [
        {
          "indexed": true,
          "internalType": "address",
          "name": "_depositor",
          "type": "address"
        },
        {
          "indexed": false,
          "internalType": "uint256",
          "name": "_protocolToken",
          "type": "uint256"
        }
      ],
      "name": "ProtocolTokenPaidToDepositor",
      "type": "event"
    },
    {
      "anonymous": false,
      "inputs": [
        {
          "indexed": true,
          "internalType": "address",
          "name": "_frontEnd",
          "type": "address"
        },
        {
          "indexed": false,
          "internalType": "uint256",
          "name": "_protocolToken",
          "type": "uint256"
        }
      ],
      "name": "ProtocolTokenPaidToFrontEnd",
      "type": "event"
    },
    {
      "anonymous": false,
      "inputs": [
        {
          "indexed": false,
          "internalType": "uint256",
          "name": "_S",
          "type": "uint256"
        },
        {
          "indexed": false,
          "internalType": "uint128",
          "name": "_epoch",
          "type": "uint128"
        },
        {
          "indexed": false,
          "internalType": "uint128",
          "name": "_scale",
          "type": "uint128"
        }
      ],
      "name": "S_Updated",
      "type": "event"
    },
    {
      "anonymous": false,
      "inputs": [
        {
          "indexed": false,
          "internalType": "uint128",
          "name": "_currentScale",
          "type": "uint128"
        }
      ],
      "name": "ScaleUpdated",
      "type": "event"
    },
    {
      "anonymous": false,
      "inputs": [
        {
          "indexed": false,
          "internalType": "address",
          "name": "_newSortedTrovesAddress",
          "type": "address"
        }
      ],
      "name": "SortedTrovesAddressChanged",
      "type": "event"
    },
    {
      "anonymous": false,
      "inputs": [
        {
          "indexed": false,
          "internalType": "uint256",
          "name": "_newBalance",
          "type": "uint256"
        }
      ],
      "name": "StabilityPoolDebtTokenBalanceUpdated",
      "type": "event"
    },
    {
      "anonymous": false,
      "inputs": [
        {
          "indexed": false,
          "internalType": "uint256",
          "name": "_newBalance",
          "type": "uint256"
        }
      ],
      "name": "StabilityPoolFILBalanceUpdated",
      "type": "event"
    },
    {
      "anonymous": false,
      "inputs": [
        {
          "indexed": false,
          "internalType": "address",
          "name": "_newTroveManagerAddress",
          "type": "address"
        }
      ],
      "name": "TroveManagerAddressChanged",
      "type": "event"
    },
    {
      "anonymous": false,
      "inputs": [
        {
          "indexed": true,
          "internalType": "address",
          "name": "_depositor",
          "type": "address"
        },
        {
          "indexed": false,
          "internalType": "uint256",
          "name": "_newDeposit",
          "type": "uint256"
        }
      ],
      "name": "UserDepositChanged",
      "type": "event"
    },
    {
      "inputs": [],
      "name": "BORROWING_FEE_FLOOR",
      "outputs": [
        {
          "internalType": "uint256",
          "name": "",
          "type": "uint256"
        }
      ],
      "stateMutability": "view",
      "type": "function"
    },
    {
      "inputs": [],
      "name": "CCR",
      "outputs": [
        {
          "internalType": "uint256",
          "name": "",
          "type": "uint256"
        }
      ],
      "stateMutability": "view",
      "type": "function"
    },
    {
      "inputs": [],
      "name": "DECIMAL_PRECISION",
      "outputs": [
        {
          "internalType": "uint256",
          "name": "",
          "type": "uint256"
        }
      ],
      "stateMutability": "view",
      "type": "function"
    },
    {
      "inputs": [],
      "name": "GAS_COMPENSATION",
      "outputs": [
        {
          "internalType": "uint256",
          "name": "",
          "type": "uint256"
        }
      ],
      "stateMutability": "view",
      "type": "function"
    },
    {
      "inputs": [],
      "name": "MCR",
      "outputs": [
        {
          "internalType": "uint256",
          "name": "",
          "type": "uint256"
        }
      ],
      "stateMutability": "view",
      "type": "function"
    },
    {
      "inputs": [],
      "name": "MIN_NET_DEBT",
      "outputs": [
        {
          "internalType": "uint256",
          "name": "",
          "type": "uint256"
        }
      ],
      "stateMutability": "view",
      "type": "function"
    },
    {
      "inputs": [],
      "name": "NAME",
      "outputs": [
        {
          "internalType": "string",
          "name": "",
          "type": "string"
        }
      ],
      "stateMutability": "view",
      "type": "function"
    },
    {
      "inputs": [],
      "name": "P",
      "outputs": [
        {
          "internalType": "uint256",
          "name": "",
          "type": "uint256"
        }
      ],
      "stateMutability": "view",
      "type": "function"
    },
    {
      "inputs": [],
      "name": "PERCENT_DIVISOR",
      "outputs": [
        {
          "internalType": "uint256",
          "name": "",
          "type": "uint256"
        }
      ],
      "stateMutability": "view",
      "type": "function"
    },
    {
      "inputs": [],
      "name": "SCALE_FACTOR",
      "outputs": [
        {
          "internalType": "uint256",
          "name": "",
          "type": "uint256"
        }
      ],
      "stateMutability": "view",
      "type": "function"
    },
    {
      "inputs": [],
      "name": "_100pct",
      "outputs": [
        {
          "internalType": "uint256",
          "name": "",
          "type": "uint256"
        }
      ],
      "stateMutability": "view",
      "type": "function"
    },
    {
      "inputs": [],
      "name": "activePool",
      "outputs": [
        {
          "internalType": "contract IActivePool",
          "name": "",
          "type": "address"
        }
      ],
      "stateMutability": "view",
      "type": "function"
    },
    {
      "inputs": [],
      "name": "borrowerOperations",
      "outputs": [
        {
          "internalType": "contract IBorrowerOperations",
          "name": "",
          "type": "address"
        }
      ],
      "stateMutability": "view",
      "type": "function"
    },
    {
      "inputs": [],
      "name": "communityIssuance",
      "outputs": [
        {
          "internalType": "contract ICommunityIssuance",
          "name": "",
          "type": "address"
        }
      ],
      "stateMutability": "view",
      "type": "function"
    },
    {
      "inputs": [],
      "name": "currentEpoch",
      "outputs": [
        {
          "internalType": "uint128",
          "name": "",
          "type": "uint128"
        }
      ],
      "stateMutability": "view",
      "type": "function"
    },
    {
      "inputs": [],
      "name": "currentScale",
      "outputs": [
        {
          "internalType": "uint128",
          "name": "",
          "type": "uint128"
        }
      ],
      "stateMutability": "view",
      "type": "function"
    },
    {
      "inputs": [],
      "name": "debtToken",
      "outputs": [
        {
          "internalType": "contract IDebtToken",
          "name": "",
          "type": "address"
        }
      ],
      "stateMutability": "view",
      "type": "function"
    },
    {
      "inputs": [
        {
          "internalType": "address",
          "name": "",
          "type": "address"
        }
      ],
      "name": "depositSnapshots",
      "outputs": [
        {
          "internalType": "uint256",
          "name": "S",
          "type": "uint256"
        },
        {
          "internalType": "uint256",
          "name": "P",
          "type": "uint256"
        },
        {
          "internalType": "uint256",
          "name": "G",
          "type": "uint256"
        },
        {
          "internalType": "uint128",
          "name": "scale",
          "type": "uint128"
        },
        {
          "internalType": "uint128",
          "name": "epoch",
          "type": "uint128"
        }
      ],
      "stateMutability": "view",
      "type": "function"
    },
    {
      "inputs": [
        {
          "internalType": "address",
          "name": "",
          "type": "address"
        }
      ],
      "name": "deposits",
      "outputs": [
        {
          "internalType": "uint256",
          "name": "initialValue",
          "type": "uint256"
        },
        {
          "internalType": "address",
          "name": "frontEndTag",
          "type": "address"
        }
      ],
      "stateMutability": "view",
      "type": "function"
    },
    {
      "inputs": [
        {
          "internalType": "uint128",
          "name": "",
          "type": "uint128"
        },
        {
          "internalType": "uint128",
          "name": "",
          "type": "uint128"
        }
      ],
      "name": "epochToScaleToG",
      "outputs": [
        {
          "internalType": "uint256",
          "name": "",
          "type": "uint256"
        }
      ],
      "stateMutability": "view",
      "type": "function"
    },
    {
      "inputs": [
        {
          "internalType": "uint128",
          "name": "",
          "type": "uint128"
        },
        {
          "internalType": "uint128",
          "name": "",
          "type": "uint128"
        }
      ],
      "name": "epochToScaleToSum",
      "outputs": [
        {
          "internalType": "uint256",
          "name": "",
          "type": "uint256"
        }
      ],
      "stateMutability": "view",
      "type": "function"
    },
    {
      "inputs": [
        {
          "internalType": "address",
          "name": "",
          "type": "address"
        }
      ],
      "name": "frontEndSnapshots",
      "outputs": [
        {
          "internalType": "uint256",
          "name": "S",
          "type": "uint256"
        },
        {
          "internalType": "uint256",
          "name": "P",
          "type": "uint256"
        },
        {
          "internalType": "uint256",
          "name": "G",
          "type": "uint256"
        },
        {
          "internalType": "uint128",
          "name": "scale",
          "type": "uint128"
        },
        {
          "internalType": "uint128",
          "name": "epoch",
          "type": "uint128"
        }
      ],
      "stateMutability": "view",
      "type": "function"
    },
    {
      "inputs": [
        {
          "internalType": "address",
          "name": "",
          "type": "address"
        }
      ],
      "name": "frontEndStakes",
      "outputs": [
        {
          "internalType": "uint256",
          "name": "",
          "type": "uint256"
        }
      ],
      "stateMutability": "view",
      "type": "function"
    },
    {
      "inputs": [
        {
          "internalType": "address",
          "name": "",
          "type": "address"
        }
      ],
      "name": "frontEnds",
      "outputs": [
        {
          "internalType": "uint256",
          "name": "kickbackRate",
          "type": "uint256"
        },
        {
          "internalType": "bool",
          "name": "registered",
          "type": "bool"
        }
      ],
      "stateMutability": "view",
      "type": "function"
    },
    {
      "inputs": [
        {
          "internalType": "address",
          "name": "_depositor",
          "type": "address"
        }
      ],
      "name": "getCompoundedDebtTokenDeposit",
      "outputs": [
        {
          "internalType": "uint256",
          "name": "",
          "type": "uint256"
        }
      ],
      "stateMutability": "view",
      "type": "function"
    },
    {
      "inputs": [
        {
          "internalType": "address",
          "name": "_frontEnd",
          "type": "address"
        }
      ],
      "name": "getCompoundedFrontEndStake",
      "outputs": [
        {
          "internalType": "uint256",
          "name": "",
          "type": "uint256"
        }
      ],
      "stateMutability": "view",
      "type": "function"
    },
    {
      "inputs": [
        {
          "internalType": "address",
          "name": "_depositor",
          "type": "address"
        }
      ],
      "name": "getDepositorFILGain",
      "outputs": [
        {
          "internalType": "uint256",
          "name": "",
          "type": "uint256"
        }
      ],
      "stateMutability": "view",
      "type": "function"
    },
    {
      "inputs": [
        {
          "internalType": "address",
          "name": "_depositor",
          "type": "address"
        }
      ],
      "name": "getDepositorProtocolTokenGain",
      "outputs": [
        {
          "internalType": "uint256",
          "name": "",
          "type": "uint256"
        }
      ],
      "stateMutability": "view",
      "type": "function"
    },
    {
      "inputs": [],
      "name": "getFIL",
      "outputs": [
        {
          "internalType": "uint256",
          "name": "",
          "type": "uint256"
        }
      ],
      "stateMutability": "view",
      "type": "function"
    },
    {
      "inputs": [
        {
          "internalType": "address",
          "name": "_frontEnd",
          "type": "address"
        }
      ],
      "name": "getFrontEndProtocolTokenGain",
      "outputs": [
        {
          "internalType": "uint256",
          "name": "",
          "type": "uint256"
        }
      ],
      "stateMutability": "view",
      "type": "function"
    },
    {
      "inputs": [],
      "name": "getTotalDebtTokenDeposits",
      "outputs": [
        {
          "internalType": "uint256",
          "name": "",
          "type": "uint256"
        }
      ],
      "stateMutability": "view",
      "type": "function"
    },
    {
      "inputs": [
        {
          "internalType": "address",
          "name": "_borrowerOperationsAddress",
          "type": "address"
        },
        {
          "internalType": "address",
          "name": "_troveManagerAddress",
          "type": "address"
        },
        {
          "internalType": "address",
          "name": "_activePoolAddress",
          "type": "address"
        },
        {
          "internalType": "address",
          "name": "_debtTokenAddress",
          "type": "address"
        },
        {
          "internalType": "address",
          "name": "_sortedTrovesAddress",
          "type": "address"
        },
        {
          "internalType": "address",
          "name": "_priceFeedAddress",
          "type": "address"
        },
        {
          "internalType": "address",
          "name": "_communityIssuanceAddress",
          "type": "address"
        }
      ],
      "name": "initialize",
      "outputs": [],
      "stateMutability": "nonpayable",
      "type": "function"
    },
    {
      "inputs": [],
      "name": "lastDebtTokenLossError_Offset",
      "outputs": [
        {
          "internalType": "uint256",
          "name": "",
          "type": "uint256"
        }
      ],
      "stateMutability": "view",
      "type": "function"
    },
    {
      "inputs": [],
      "name": "lastFILError_Offset",
      "outputs": [
        {
          "internalType": "uint256",
          "name": "",
          "type": "uint256"
        }
      ],
      "stateMutability": "view",
      "type": "function"
    },
    {
      "inputs": [],
      "name": "lastProtocolTokenError",
      "outputs": [
        {
          "internalType": "uint256",
          "name": "",
          "type": "uint256"
        }
      ],
      "stateMutability": "view",
      "type": "function"
    },
    {
      "inputs": [
        {
          "internalType": "uint256",
          "name": "_debtToOffset",
          "type": "uint256"
        },
        {
          "internalType": "uint256",
          "name": "_collToAdd",
          "type": "uint256"
        }
      ],
      "name": "offset",
      "outputs": [],
      "stateMutability": "nonpayable",
      "type": "function"
    },
    {
      "inputs": [],
      "name": "owner",
      "outputs": [
        {
          "internalType": "address",
          "name": "",
          "type": "address"
        }
      ],
      "stateMutability": "view",
      "type": "function"
    },
    {
      "inputs": [],
      "name": "priceFeed",
      "outputs": [
        {
          "internalType": "contract IPriceFeed",
          "name": "",
          "type": "address"
        }
      ],
      "stateMutability": "view",
      "type": "function"
    },
    {
      "inputs": [
        {
          "internalType": "uint256",
          "name": "_amount",
          "type": "uint256"
        },
        {
          "internalType": "address",
          "name": "_frontEndTag",
          "type": "address"
        }
      ],
      "name": "provideToSP",
      "outputs": [],
      "stateMutability": "nonpayable",
      "type": "function"
    },
    {
      "inputs": [
        {
          "internalType": "uint256",
          "name": "_kickbackRate",
          "type": "uint256"
        }
      ],
      "name": "registerFrontEnd",
      "outputs": [],
      "stateMutability": "nonpayable",
      "type": "function"
    },
    {
      "inputs": [],
      "name": "renounceOwnership",
      "outputs": [],
      "stateMutability": "nonpayable",
      "type": "function"
    },
    {
      "inputs": [
        {
          "internalType": "uint128",
          "name": "_currentScale",
          "type": "uint128"
        }
      ],
      "name": "setCurrentScale",
      "outputs": [],
      "stateMutability": "nonpayable",
      "type": "function"
    },
    {
      "inputs": [
        {
          "internalType": "uint256",
          "name": "_totalDebtTokenDeposits",
          "type": "uint256"
        }
      ],
      "name": "setTotalDeposits",
      "outputs": [],
      "stateMutability": "nonpayable",
      "type": "function"
    },
    {
      "inputs": [],
      "name": "sortedTroves",
      "outputs": [
        {
          "internalType": "contract ISortedTroves",
          "name": "",
          "type": "address"
        }
      ],
      "stateMutability": "view",
      "type": "function"
    },
    {
      "inputs": [
        {
          "internalType": "address",
          "name": "newOwner",
          "type": "address"
        }
      ],
      "name": "transferOwnership",
      "outputs": [],
      "stateMutability": "nonpayable",
      "type": "function"
    },
    {
      "inputs": [],
      "name": "troveManager",
      "outputs": [
        {
          "internalType": "contract ITroveManager",
          "name": "",
          "type": "address"
        }
      ],
      "stateMutability": "view",
      "type": "function"
    },
    {
      "inputs": [],
      "name": "unprotectedPayable",
      "outputs": [],
      "stateMutability": "payable",
      "type": "function"
    },
    {
      "inputs": [
        {
          "internalType": "address",
          "name": "_upperHint",
          "type": "address"
        },
        {
          "internalType": "address",
          "name": "_lowerHint",
          "type": "address"
        }
      ],
      "name": "withdrawFILGainToTrove",
      "outputs": [],
      "stateMutability": "nonpayable",
      "type": "function"
    },
    {
      "inputs": [
        {
          "internalType": "uint256",
          "name": "_amount",
          "type": "uint256"
        }
      ],
      "name": "withdrawFromSP",
      "outputs": [],
      "stateMutability": "nonpayable",
      "type": "function"
    },
    {
      "stateMutability": "payable",
      "type": "receive"
    }
  ],
  "bytecode": "0x60c06040523480156200001157600080fd5b5060405162003fcc38038062003fcc833981810160405260408110156200003757600080fd5b508051602090910151608082905260a081905260005482908290610100900460ff16806200006a57506200006a62000100565b8062000079575060005460ff16155b620000b65760405162461bcd60e51b815260040180806020018281038252602e81526020018062003f9e602e913960400191505060405180910390fd5b600054610100900460ff16158015620000e2576000805460ff1961ff0019909116610100171660011790555b8015620000f5576000805461ff00191690555b505050505062000124565b600062000118306200011e60201b62001b3e1760201c565b15905090565b3b151590565b60805160a051613e4c6200015260003980610d655280613915525080610d0652806138415250613e4c6000f3fe6080604052600436106102a25760003560e01c8063794e572411610165578063a7bfff97116100cc578063df9cd84f11610085578063df9cd84f146109a4578063f2fde38b146109d7578063f3af7c3b14610a0a578063f8225a1014610a12578063f8d8989814610a27578063f92d343314610a3c578063fc7e286d14610a51576102e3565b8063a7bfff97146108bc578063ae91875414610908578063ba9c74851461091d578063c5c3937e14610947578063ce4b5bbe1461095c578063dae4f5ff14610971576102e3565b806395ca53be1161011e57806395ca53be146107b857806395fb16bb146107f3578063a20baee614610686578063a3f4df7e14610808578063a4e59ac814610892578063a7a48884146108a7576102e3565b8063794e5724146106f65780637f7dde4a1461070b57806382e0a5741461072057806386da08241461075b5780638b8fbd921461078e5780638da5cb5b146107a3576102e3565b80634870dd9a1161020957806367e8fb20116101c257806367e8fb201461065c578063715018a61461067157806372fe25aa14610686578063741bef1a1461069b57806376671808146106b057806377553ad4146106e1576102e3565b80634870dd9a1461056957806350f592db1461057e578063556be101146105b15780635733d58f146105db5780635d2de642146105f05780635f788d6514610623576102e3565b8063203aae0a1161025b578063203aae0a1461040957806328a0a04d1461043c5780632e54bf9514610477578063335525ad146104a357806335876476146104d35780633d83908a14610538576102e3565b80630206d7b9146102e85780630bdfe4e71461032d5780630d9a6b3514610360578063139f2e8c1461037557806316b9d3c51461038a5780631bf43555146103f4576102e3565b366102e3576102af610aa5565b609e546102bc9034610af0565b609e8190556040805191825251600080516020613bd98339815191529181900360200190a1005b600080fd5b3480156102f457600080fd5b5061031b6004803603602081101561030b57600080fd5b50356001600160a01b0316610b53565b60408051918252519081900360200190f35b34801561033957600080fd5b5061031b6004803603602081101561035057600080fd5b50356001600160a01b0316610c61565b34801561036c57600080fd5b5061031b610cfe565b34801561038157600080fd5b5061031b610d04565b34801561039657600080fd5b506103bd600480360360208110156103ad57600080fd5b50356001600160a01b0316610d28565b604080519586526020860194909452848401929092526001600160801b039081166060850152166080830152519081900360a00190f35b34801561040057600080fd5b5061031b610d63565b34801561041557600080fd5b5061031b6004803603602081101561042c57600080fd5b50356001600160a01b0316610d87565b34801561044857600080fd5b5061031b6004803603604081101561045f57600080fd5b506001600160801b0381358116916020013516610e58565b34801561048357600080fd5b506104a16004803603602081101561049a57600080fd5b5035610e75565b005b3480156104af57600080fd5b506104a1600480360360408110156104c657600080fd5b508035906020013561103c565b3480156104df57600080fd5b506104a1600480360360e08110156104f657600080fd5b506001600160a01b038135811691602081013582169160408201358116916060810135821691608082013581169160a081013582169160c090910135166110f0565b34801561054457600080fd5b5061054d6111c4565b604080516001600160a01b039092168252519081900360200190f35b34801561057557600080fd5b5061031b6111d3565b34801561058a57600080fd5b506104a1600480360360208110156105a157600080fd5b50356001600160801b03166111d8565b3480156105bd57600080fd5b506104a1600480360360208110156105d457600080fd5b50356111fa565b3480156105e757600080fd5b5061031b61126f565b3480156105fc57600080fd5b5061031b6004803603602081101561061357600080fd5b50356001600160a01b031661127b565b34801561062f57600080fd5b506104a16004803603604081101561064657600080fd5b50803590602001356001600160a01b031661128d565b34801561066857600080fd5b5061031b611447565b34801561067d57600080fd5b506104a161144d565b34801561069257600080fd5b5061031b6114f9565b3480156106a757600080fd5b5061054d611505565b3480156106bc57600080fd5b506106c5611514565b604080516001600160801b039092168252519081900360200190f35b3480156106ed57600080fd5b5061054d61152a565b34801561070257600080fd5b5061031b611539565b34801561071757600080fd5b5061054d611545565b34801561072c57600080fd5b5061031b6004803603604081101561074357600080fd5b506001600160801b0381358116916020013516611554565b34801561076757600080fd5b506103bd6004803603602081101561077e57600080fd5b50356001600160a01b0316611571565b34801561079a57600080fd5b5061031b6115ac565b3480156107af57600080fd5b5061054d6115b2565b3480156107c457600080fd5b506104a1600480360360408110156107db57600080fd5b506001600160a01b03813581169160200135166115c1565b3480156107ff57600080fd5b5061054d611834565b34801561081457600080fd5b5061081d611843565b6040805160208082528351818301528351919283929083019185019080838360005b8381101561085757818101518382015260200161083f565b50505050905090810190601f1680156108845780820380516001836020036101000a031916815260200191505b509250505060405180910390f35b34801561089e57600080fd5b506106c561186c565b3480156108b357600080fd5b5061031b61187b565b3480156108c857600080fd5b506108ef600480360360208110156108df57600080fd5b50356001600160a01b0316611881565b6040805192835290151560208301528051918290030190f35b34801561091457600080fd5b5061054d61189d565b34801561092957600080fd5b506104a16004803603602081101561094057600080fd5b50356118ac565b34801561095357600080fd5b5061031b6118b1565b34801561096857600080fd5b5061031b6118b7565b34801561097d57600080fd5b5061031b6004803603602081101561099457600080fd5b50356001600160a01b03166118bf565b3480156109b057600080fd5b5061031b600480360360208110156109c757600080fd5b50356001600160a01b0316611953565b3480156109e357600080fd5b506104a1600480360360208110156109fa57600080fd5b50356001600160a01b03166119e7565b6104a1611aea565b348015610a1e57600080fd5b5061031b611afc565b348015610a3357600080fd5b5061054d611b02565b348015610a4857600080fd5b5061031b611b11565b348015610a5d57600080fd5b50610a8460048036036020811015610a7457600080fd5b50356001600160a01b0316611b1c565b604080519283526001600160a01b0390911660208301528051918290030190f35b6099546001600160a01b03163314610aee5760405162461bcd60e51b8152600401808060200182810382526027815260200180613ac36027913960400191505060405180910390fd5b565b600082820183811015610b4a576040805162461bcd60e51b815260206004820152601b60248201527f536166654d6174683a206164646974696f6e206f766572666c6f770000000000604482015290519081900360640190fd5b90505b92915050565b6001600160a01b038116600090815260a0602052604081205480610b7b576000915050610c5c565b6001600160a01b03808416600090815260a06020526040812060010154909116908115610bc0576001600160a01b038216600090815260a26020526040902054610bca565b670de0b6b3a76400005b6001600160a01b038616600090815260a160209081526040808320815160a08101835281548152600182015493810193909352600281015491830191909152600301546001600160801b038082166060840152600160801b909104166080820152919250610c54670de0b6b3a7640000610c4e610c478886611b44565b8690611c18565b90611c71565b955050505050505b919050565b6001600160a01b038116600090815260a0602052604081205480610c89576000915050610c5c565b6001600160a01b038316600090815260a160209081526040808320815160a08101835281548152600182015493810193909352600281015491830191909152600301546001600160801b038082166060840152600160801b90910416608082015290610cf58383611cd8565b95945050505050565b609f5490565b7f000000000000000000000000000000000000000000000000000000000000000081565b60a4602052600090815260409020805460018201546002830154600390930154919290916001600160801b0380821691600160801b90041685565b7f000000000000000000000000000000000000000000000000000000000000000081565b6001600160a01b038116600090815260a3602052604081205480610daf576000915050610c5c565b6001600160a01b038316600090815260a2602052604081205490610ddb670de0b6b3a764000083611dc8565b6001600160a01b038616600090815260a460209081526040808320815160a08101835281548152600182015493810193909352600281015491830191909152600301546001600160801b038082166060840152600160801b909104166080820152919250610c54670de0b6b3a7640000610c4e610c478886611b44565b60a760209081526000928352604080842090915290825290205481565b60026065541415610ebb576040805162461bcd60e51b815260206004820152601f6024820152600080516020613a37833981519152604482015290519081900360640190fd5b60026065558015610ece57610ece611e25565b33600090815260a06020526040902054610ee781611fe2565b609d546001600160a01b0316610efc81612024565b6000610f07336118bf565b90506000610f1433610c61565b90506000610f22868361209c565b90506000610f308684611dc8565b33600081815260a060205260409020600101549192506001600160a01b0390911690610f5e908790836120b2565b6000610f6982611953565b90506000610f778286611dc8565b9050610f83838261223f565b6040805182815233602082015281516001600160a01b03861692600080516020613db3833981519152928290030190a2610fbd338661238b565b6000610fc98787611dc8565b9050610fd53382612411565b6040805182815290513391600080516020613b18833981519152919081900360200190a2604080518981526020810187905281513392600080516020613c72833981519152928290030190a261102a88612597565b50506001606555505050505050505050565b60026065541415611082576040805162461bcd60e51b815260206004820152601f6024820152600080516020613a37833981519152604482015290519081900360640190fd5b600260655561108f61269d565b609f5480158061109d575082155b156110a857506110e7565b609d546110bd906001600160a01b0316612024565b6000806110cb8486856126e6565b915091506110d982826127af565b6110e38486612a79565b5050505b50506001606555565b600054610100900460ff16806111095750611109612bbc565b80611117575060005460ff16155b6111525760405162461bcd60e51b815260040180806020018281038252602e815260200180613aea602e913960400191505060405180910390fd5b600054610100900460ff1615801561117d576000805460ff1961ff0019909116610100171660011790555b611185612bcd565b61118d612c7e565b61119c88888888888888612d13565b670de0b6b3a764000060a55580156111ba576000805461ff00191690555b5050505050505050565b6098546001600160a01b031681565b60c881565b60a680546001600160801b0319166001600160801b0392909216919091179055565b61120333612f6c565b61120c33612fc7565b6112158161301d565b33600081815260a260209081526040918290208481556001908101805460ff19169091179055815184815291517f19bc932fb9e16a8b5a1e41be9f4c2de59d5ddd7567b8b81405f532ca00a9880e9281900390910190a250565b6714d1120d7b16000081565b60a36020526000908152604090205481565b600260655414156112d3576040805162461bcd60e51b815260206004820152601f6024820152600080516020613a37833981519152604482015290519081900360640190fd5b60026065556112e181613064565b6112ea33612f6c565b6112f3826130d0565b33600090815260a06020526040902054609d546001600160a01b031661131881612024565b8161132757611327338461310f565b6000611332336118bf565b9050600061133f33610c61565b9050600061134d8583611dc8565b33600081815260a060205260409020600101549192506001600160a01b039091169061137b908690836120b2565b600061138682611953565b90506000611394828b610af0565b90506113a0838261223f565b6040805182815233602082015281516001600160a01b03861692600080516020613db3833981519152928290030190a26113da338b613169565b60006113e6868c610af0565b90506113f23382612411565b6040805182815290513391600080516020613b18833981519152919081900360200190a2604080518881526020810187905281513392600080516020613c72833981519152928290030190a261102a87612597565b60aa5481565b61145561322d565b6001600160a01b03166114666115b2565b6001600160a01b0316146114c1576040805162461bcd60e51b815260206004820181905260248201527f4f776e61626c653a2063616c6c6572206973206e6f7420746865206f776e6572604482015290519081900360640190fd5b6033546040516000916001600160a01b031690600080516020613c2c833981519152908390a3603380546001600160a01b0319169055565b670de0b6b3a764000081565b609c546001600160a01b031681565b60a654600160801b90046001600160801b031681565b6097546001600160a01b031681565b670f43fc2c04ee000081565b6099546001600160a01b031681565b60a860209081526000928352604080842090915290825290205481565b60a1602052600090815260409020805460018201546002830154600390930154919290916001600160801b0380821691600160801b90041685565b60a55481565b6033546001600160a01b031690565b60026065541415611607576040805162461bcd60e51b815260206004820152601f6024820152600080516020613a37833981519152604482015290519081900360640190fd5b600260655533600090815260a0602052604090205461162581611fe2565b61162e33613231565b611637336132e8565b609d546001600160a01b031661164c81612024565b6000611657336118bf565b9050600061166433610c61565b905060006116728583611dc8565b33600081815260a060205260409020600101549192506001600160a01b03909116906116a0908690836120b2565b60006116ab82611953565b9050806116b8838261223f565b6040805182815233602082015281516001600160a01b03861692600080516020613db3833981519152928290030190a26116f23386612411565b604080518781526020810186905281513392600080516020613c72833981519152928290030190a26040805186815290513391600080516020613b18833981519152919081900360200190a2609e5461174b9087611dc8565b609e8190556040805191825251600080516020613bd98339815191529181900360200190a1604080513381526020810188905281517f3b2482b1bf6e751427503c9a8bf79e4dba3e6519259e2220428c2f326cc79c14929181900390910190a160975460408051630721ec6760e11b81523360048201526001600160a01b038d811660248301528c8116604483015291519190921691630e43d8ce91899160648082019260009290919082900301818588803b15801561180a57600080fd5b505af115801561181e573d6000803e3d6000fd5b5050600160655550505050505050505050505050565b609d546001600160a01b031681565b6040518060400160405280600d81526020016c14dd18589a5b1a5d1e541bdbdb609a1b81525081565b60a6546001600160801b031681565b60ab5481565b60a2602052600090815260409020805460019091015460ff1682565b609b546001600160a01b031681565b609f55565b609e5490565b633b9aca0081565b6001600160a01b038116600090815260a06020526040812054806118e7576000915050610c5c565b6001600160a01b038316600090815260a160209081526040808320815160a08101835281548152600182015493810193909352600281015491830191909152600301546001600160801b038082166060840152600160801b90910416608082015290610cf58383613334565b6001600160a01b038116600090815260a360205260408120548061197b576000915050610c5c565b6001600160a01b038316600090815260a460209081526040808320815160a08101835281548152600182015493810193909352600281015491830191909152600301546001600160801b038082166060840152600160801b90910416608082015290610cf58383611cd8565b6119ef61322d565b6001600160a01b0316611a006115b2565b6001600160a01b031614611a5b576040805162461bcd60e51b815260206004820181905260248201527f4f776e61626c653a2063616c6c6572206973206e6f7420746865206f776e6572604482015290519081900360640190fd5b6001600160a01b038116611aa05760405162461bcd60e51b8152600401808060200182810382526026815260200180613a576026913960400191505060405180910390fd5b6033546040516001600160a01b03808416921690600080516020613c2c83398151915290600090a3603380546001600160a01b0319166001600160a01b0392909216919091179055565b609e54611af79034610af0565b609e55565b60a95481565b609a546001600160a01b031681565b6611c37937e0800081565b60a060205260009081526040902080546001909101546001600160a01b031682565b3b151590565b608081015160608201516040808401516020808601516001600160801b03808716600090815260a88452858120918716815292529281205490949392908590611b8d9084611dc8565b6001600160801b03808716600090815260a86020526040812092935091611be491633b9aca0091908490611bc4908a1660016133af565b6001600160801b0316815260208101919091526040016000205490611c71565b90506000611c0a670de0b6b3a7640000610c4e8681611c038888610af0565b8f90611c18565b9a9950505050505050505050565b600082611c2757506000610b4d565b82820282848281611c3457fe5b0414610b4a5760405162461bcd60e51b8152600401808060200182810382526021815260200180613bb86021913960400191505060405180910390fd5b6000808211611cc7576040805162461bcd60e51b815260206004820152601a60248201527f536166654d6174683a206469766973696f6e206279207a65726f000000000000604482015290519081900360640190fd5b818381611cd057fe5b049392505050565b60208101516060820151608083015160a6546000939291906001600160801b03600160801b90910481169082161015611d175760009350505050610b4d565b60a6546000908190611d32906001600160801b0316856133ff565b90506001600160801b038116611d6257611d5b85610c4e60a5548b611c1890919063ffffffff16565b9150611d9a565b806001600160801b031660011415611d9557611d5b633b9aca00610c4e87610c4e60a5548d611c1890919063ffffffff16565b600091505b611da888633b9aca00611c71565b821015611dbd57600095505050505050610b4d565b509695505050505050565b600082821115611e1f576040805162461bcd60e51b815260206004820152601e60248201527f536166654d6174683a207375627472616374696f6e206f766572666c6f770000604482015290519081900360640190fd5b50900390565b609c5460408051630fdb11cf60e01b815290516000926001600160a01b031691630fdb11cf91600480830192602092919082900301818787803b158015611e6b57600080fd5b505af1158015611e7f573d6000803e3d6000fd5b505050506040513d6020811015611e9557600080fd5b5051609b5460408051634d62283160e01b815290519293506000926001600160a01b0390921691634d62283191600480820192602092909190829003018186803b158015611ee257600080fd5b505afa158015611ef6573d6000803e3d6000fd5b505050506040513d6020811015611f0c57600080fd5b505160985460408051630d293c7160e41b81526001600160a01b038085166004830152602482018790529151939450600093919092169163d293c710916044808301926020929190829003018186803b158015611f6857600080fd5b505afa158015611f7c573d6000803e3d6000fd5b505050506040513d6020811015611f9257600080fd5b50519050670f43fc2c04ee0000811015611fdd5760405162461bcd60e51b8152600401808060200182810382526044815260200180613dd36044913960600191505060405180910390fd5b505050565b600081116120215760405162461bcd60e51b8152600401808060200182810382526030815260200180613d836030913960400191505060405180910390fd5b50565b6000816001600160a01b0316632eee8bc96040518163ffffffff1660e01b8152600401602060405180830381600087803b15801561206157600080fd5b505af1158015612075573d6000803e3d6000fd5b505050506040513d602081101561208b57600080fd5b5051905061209881613452565b5050565b60008183106120ab5781610b4a565b5090919050565b6001600160a01b0381161561217e5760006120cc82610d87565b9050836001600160a01b0316638352d63683836040518363ffffffff1660e01b815260040180836001600160a01b0316815260200182815260200192505050600060405180830381600087803b15801561212557600080fd5b505af1158015612139573d6000803e3d6000fd5b50506040805184815290516001600160a01b03861693507fc3c43b5355673e1ea1a83122d1de4fde0584a9e8796843b3b7b33ed9b1aece0292509081900360200190a2505b600061218983610b53565b9050836001600160a01b0316638352d63684836040518363ffffffff1660e01b815260040180836001600160a01b0316815260200182815260200192505050600060405180830381600087803b1580156121e257600080fd5b505af11580156121f6573d6000803e3d6000fd5b50506040805184815290516001600160a01b03871693507fe57aace4a327c35eab9346657e77499888878556a925f2b460c3f1ce23b093f792509081900360200190a250505050565b6001600160a01b038216600090815260a360205260409020819055806122cf576001600160a01b038216600081815260a460209081526040808320838155600181018490556002810184905560030183905580518381529182019290925281517fbb1322f85cc7cc8bac4e172a5bc5dcc0c1959007f9a030032abf9258205f0e45929181900390910190a2612098565b60a65460a5546001600160801b03600160801b8084048216600081815260a860209081526040808320978616808452978252808320546001600160a01b038b1680855260a4845293829020600181018990556002810182905560030180546001600160801b0319168a17909716958502959095179095558451868152908101849052845192959491927fbb1322f85cc7cc8bac4e172a5bc5dcc0c1959007f9a030032abf9258205f0e45929181900390910190a2505050505050565b8061239557612098565b609a5460408051631062c15f60e11b81523060048201526001600160a01b03858116602483015260448201859052915191909216916320c582be91606480830192600092919082900301818387803b1580156123f057600080fd5b505af1158015612404573d6000803e3d6000fd5b5050505061209881613567565b6001600160a01b038216600090815260a060205260409020819055806124bf576001600160a01b038216600081815260a060209081526040808320600190810180546001600160a01b031916905560a183528184208481559081018490556002810184905560030183905580518381529182018390528181019290925290517f2d6cc0bcdf72c9486f6451bde6b80f44066f4558f77f44dbfedbe7d8b295225a9181900360600190a2612098565b60a65460a5546001600160801b03600160801b8084048216600081815260a7602090815260408083209786168084529782528083205484845260a883528184208985528352818420546001600160a01b038c1680865260a1855294839020600181018a90558281556002810182905560030180546001600160801b0319168b179098169686029690961790965580518781529182018690528181018590525192959493927f2d6cc0bcdf72c9486f6451bde6b80f44066f4558f77f44dbfedbe7d8b295225a916060908290030190a250505050505050565b806125a157612021565b609e546000906125b19083611dc8565b609e819055604080518281529051919250600080516020613bd9833981519152919081900360200190a1604080513381526020810184905281517f3b2482b1bf6e751427503c9a8bf79e4dba3e6519259e2220428c2f326cc79c14929181900390910190a1604051600090339084908381818185875af1925050503d8060008114612658576040519150601f19603f3d011682016040523d82523d6000602084013e61265d565b606091505b5050905080611fdd5760405162461bcd60e51b8152600401808060200182810382526021815260200180613cf36021913960400191505060405180910390fd5b6098546001600160a01b03163314610aee5760405162461bcd60e51b8152600401808060200182810382526029815260200180613b386029913960400191505060405180910390fd5b600080600061271260aa5461270c670de0b6b3a764000089611c1890919063ffffffff16565b90610af0565b90508385111561271e57fe5b8385141561273b57600060ab55670de0b6b3a76400009150612783565b60ab5460009061275d9061275788670de0b6b3a7640000611c18565b90611dc8565b905061276e600161270c8388611c71565b925061277e816127578588611c18565b60ab55505b61278d8185611c71565b92506127a361279c8486611c18565b8290611dc8565b60aa5550935093915050565b60a5546000670de0b6b3a76400008311156127c657fe5b60006127da670de0b6b3a764000085611dc8565b60a6546001600160801b03600160801b82048116600081815260a76020908152604080832094909516808352939052928320549394509092909161281e8988611c18565b9050600061282c8383610af0565b6001600160801b03808616600081815260a760209081526040808320948b16808452948252918290208590558151858152908101929092528181019290925290519192507fe12e2cd2c9afa8069203ca07e7eff1edce4a075686d0736a8e7e0d593597b207919081900360600190a18561295d576128b46001600160801b03851660016133af565b60a680546001600160801b03908116600160801b938216840217918290556040805193909204168252517fb50f0f59e7cb5b421dc77581c3a9919e3806e076e5fa78a874c3f120cb7d874d916020908290030190a160a680546001600160801b0319169055604080516000815290517f1f9dfc70cd666adb18a39d60a797518f7b4febf4b6e24ef37d44f6e1e7219fbe9181900360200190a1670de0b6b3a76400009650612a2b565b633b9aca00612978670de0b6b3a7640000610c4e8b8a611c18565b1015612a12576129a2670de0b6b3a7640000610c4e633b9aca0061299c8c8b611c18565b90611c18565b96506129b86001600160801b03861660016133af565b60a680546001600160801b0319166001600160801b0392831617908190556040805191909216815290517f1f9dfc70cd666adb18a39d60a797518f7b4febf4b6e24ef37d44f6e1e7219fbe916020908290030190a1612a2b565b612a28670de0b6b3a7640000610c4e8a89611c18565b96505b60008711612a3557fe5b60a58790556040805188815290517fc1a9618cb59ebca77cbdbc2949f126823c407ff13edb285fd0262519a9c18e8c9181900360200190a150505050505050505050565b60995460408051632a7ba1f760e01b81526004810184905290516001600160a01b03909216918291632a7ba1f791602480830192600092919082900301818387803b158015612ac757600080fd5b505af1158015612adb573d6000803e3d6000fd5b50505050612ae882613567565b609a5460408051632770a7eb60e21b81523060048201526024810185905290516001600160a01b0390921691639dc29fac9160448082019260009290919082900301818387803b158015612b3b57600080fd5b505af1158015612b4f573d6000803e3d6000fd5b505060408051628063a560e01b81523060048201526024810187905290516001600160a01b0385169350628063a59250604480830192600092919082900301818387803b158015612b9f57600080fd5b505af1158015612bb3573d6000803e3d6000fd5b50505050505050565b6000612bc730611b3e565b15905090565b600054610100900460ff1680612be65750612be6612bbc565b80612bf4575060005460ff16155b612c2f5760405162461bcd60e51b815260040180806020018281038252602e815260200180613aea602e913960400191505060405180910390fd5b600054610100900460ff16158015612c5a576000805460ff1961ff0019909116610100171660011790555b612c626135b7565b612c6a613657565b8015612021576000805461ff001916905550565b600054610100900460ff1680612c975750612c97612bbc565b80612ca5575060005460ff16155b612ce05760405162461bcd60e51b815260040180806020018281038252602e815260200180613aea602e913960400191505060405180910390fd5b600054610100900460ff16158015612d0b576000805460ff1961ff0019909116610100171660011790555b612c6a61373e565b612d1c876137e4565b612d25866137e4565b612d2e856137e4565b612d37846137e4565b612d40836137e4565b612d49826137e4565b612d52816137e4565b612d5b8661383f565b609780546001600160a01b03199081166001600160a01b038a81169182179093556098805483168a8516179055609980548316898516179055609a80548316888516179055609b80548316878516179055609c80548316868516179055609d805490921692841692909217905560408051918252517f3ca631ffcd2a9b5d9ae18543fc82f58eb4ca33af9e6ab01b7a8e95331e6ed985916020908290030190a1604080516001600160a01b038816815290517f143219c9e69b09e07e095fcc889b43d8f46ca892bba65f08dc3a0050869a56789181900360200190a1604080516001600160a01b038716815290517f78f058b189175430c48dc02699e3a0031ea4ff781536dc2fab847de4babdd8829181900360200190a1604080516001600160a01b038616815290517f112220fa8dbe96141556e0dc3d74dd95075b323f4f297616048e02d82d7017159181900360200190a1604080516001600160a01b038516815290517f65f4cf077bc01e4742eb5ad98326f6e95b63548ea24b17f8d5e823111fe788009181900360200190a1604080516001600160a01b038416815290517f8c537274438aa850a330284665d81a85dd38267d09e4050d416bfc94142db2649181900360200190a1604080516001600160a01b038316815290517f3055265812fb8447b9ada4a5d804ec43bd528ec40e89c952bbc7b85dc5ac68119181900360200190a150505050505050565b6001600160a01b038116600090815260a2602052604090206001015460ff16156120215760405162461bcd60e51b8152600401808060200182810382526039815260200180613c926039913960400191505060405180910390fd5b6001600160a01b038116600090815260a0602052604090205480156120985760405162461bcd60e51b8152600401808060200182810382526028815260200180613ccb6028913960400191505060405180910390fd5b670de0b6b3a76400008111156120215760405162461bcd60e51b8152600401808060200182810382526033815260200180613bf96033913960400191505060405180910390fd5b6001600160a01b038116600090815260a2602052604090206001015460ff168061309557506001600160a01b038116155b6120215760405162461bcd60e51b8152600401808060200182810382526046815260200180613a7d6046913960600191505060405180910390fd5b600081116120215760405162461bcd60e51b8152600401808060200182810382526026815260200180613c4c6026913960400191505060405180910390fd5b6001600160a01b03828116600081815260a0602052604080822060010180546001600160a01b0319169486169485179055517f094c08e96a8890877a8390b4f967180a7507ad8622244d05fcd0f9f8e086564e9190a35050565b609a5460408051632ee65eeb60e21b81526001600160a01b038581166004830152306024830152604482018590529151919092169163bb997bac91606480830192600092919082900301818387803b1580156131c457600080fd5b505af11580156131d8573d6000803e3d6000fd5b5050609f54600092506131ec915083610af0565b609f8190556040805182815290519192507f8c9268469ff6265448f46f8119962e815f393b25b87bb55bda5e709a412b85d7919081900360200190a1505050565b3390565b609854604080516321e3780160e01b81526001600160a01b038481166004830152915191909216916321e37801916024808301926020929190829003018186803b15801561327e57600080fd5b505afa158015613292573d6000803e3d6000fd5b505050506040513d60208110156132a857600080fd5b50516001146120215760405162461bcd60e51b8152600401808060200182810382526046815260200180613d146046913960600191505060405180910390fd5b60006132f3826118bf565b9050600081116120985760405162461bcd60e51b8152600401808060200182810382526031815260200180613b616031913960400191505060405180910390fd5b6080810151606082015182516020808501516001600160801b03808616600090815260a7845260408082209287168252919093528220549194939291859061337c9084611dc8565b6001600160801b03808716600090815260a76020526040812092935091611be491633b9aca0091908490611bc4908a1660015b60008282016001600160801b038085169082161015610b4a5760405162461bcd60e51b8152600401808060200182810382526026815260200180613b926026913960400191505060405180910390fd5b6000826001600160801b0316826001600160801b03161115611e1f5760405162461bcd60e51b8152600401808060200182810382526029815260200180613d5a6029913960400191505060405180910390fd5b609f54801580613460575081155b1561346b5750612021565b600061347783836139e3565b9050600061349060a55483611c1890919063ffffffff16565b60a6546001600160801b03600160801b82048116600090815260a8602090815260408083209390941682529190915220549091506134ce9082610af0565b60a680546001600160801b03600160801b8083048216600090815260a8602081815260408084209686168452958152858320979097559454918204831680825294865283812091909216808352908552908290205482519081529384019290925282810191909152517f2d6127771b164a9cc8827d24b5955db2a77e7a81dac389107ebb8bce9fb649689181900360600190a150505050565b609f546000906135779083611dc8565b609f8190556040805182815290519192507f8c9268469ff6265448f46f8119962e815f393b25b87bb55bda5e709a412b85d7919081900360200190a15050565b600054610100900460ff16806135d057506135d0612bbc565b806135de575060005460ff16155b6136195760405162461bcd60e51b815260040180806020018281038252602e815260200180613aea602e913960400191505060405180910390fd5b600054610100900460ff16158015612c6a576000805460ff1961ff0019909116610100171660011790558015612021576000805461ff001916905550565b600054610100900460ff16806136705750613670612bbc565b8061367e575060005460ff16155b6136b95760405162461bcd60e51b815260040180806020018281038252602e815260200180613aea602e913960400191505060405180910390fd5b600054610100900460ff161580156136e4576000805460ff1961ff0019909116610100171660011790555b60006136ee61322d565b603380546001600160a01b0319166001600160a01b03831690811790915560405191925090600090600080516020613c2c833981519152908290a3508015612021576000805461ff001916905550565b600054610100900460ff16806137575750613757612bbc565b80613765575060005460ff16155b6137a05760405162461bcd60e51b815260040180806020018281038252602e815260200180613aea602e913960400191505060405180910390fd5b600054610100900460ff161580156137cb576000805460ff1961ff0019909116610100171660011790555b60016065558015612021576000805461ff001916905550565b6001600160a01b038116612021576040805162461bcd60e51b815260206004820152601e60248201527f4163636f756e742063616e6e6f74206265207a65726f20616464726573730000604482015290519081900360640190fd5b7f0000000000000000000000000000000000000000000000000000000000000000816001600160a01b031663139f2e8c6040518163ffffffff1660e01b815260040160206040518083038186803b15801561389957600080fd5b505afa1580156138ad573d6000803e3d6000fd5b505050506040513d60208110156138c357600080fd5b505114613913576040805162461bcd60e51b815260206004820152601960248201527808e82a6be869e9aa08a9ca682a8929e9c40dad2e6dac2e8c6d603b1b604482015290519081900360640190fd5b7f0000000000000000000000000000000000000000000000000000000000000000816001600160a01b0316631bf435556040518163ffffffff1660e01b815260040160206040518083038186803b15801561396d57600080fd5b505afa158015613981573d6000803e3d6000fd5b505050506040513d602081101561399757600080fd5b505114612021576040805162461bcd60e51b815260206004820152601560248201527409a929cbe9c8aa8be888a84a840dad2e6dac2e8c6d605b1b604482015290519081900360640190fd5b600080613a0760a95461270c670de0b6b3a764000087611c1890919063ffffffff16565b90506000613a158285611c71565b9050613a2b613a248286611c18565b8390611dc8565b60a95594935050505056fe5265656e7472616e637947756172643a207265656e7472616e742063616c6c004f776e61626c653a206e6577206f776e657220697320746865207a65726f206164647265737353746162696c697479506f6f6c3a20546167206d757374206265206120726567697374657265642066726f6e7420656e642c206f7220746865207a65726f206164647265737353746162696c697479506f6f6c3a2043616c6c6572206973206e6f7420416374697665506f6f6c496e697469616c697a61626c653a20636f6e747261637420697320616c726561647920696e697469616c697a6564bce78369dccab09eec1986f4d409ab09ffbb47d65423e5148fcf98411c5111c953746162696c697479506f6f6c3a2043616c6c6572206973206e6f742054726f76654d616e6167657253746162696c697479506f6f6c3a2063616c6c6572206d7573742068617665206e6f6e2d7a65726f2046494c204761696e50726f746f636f6c536166654d6174683132383a206164646974696f6e206f766572666c6f77536166654d6174683a206d756c7469706c69636174696f6e206f766572666c6f77d05c60ff21c33fb1103e848d5310f11270e7db91e1b079c4bdd0c6024f83d6c753746162696c697479506f6f6c3a204b69636b6261636b2072617465206d75737420626520696e2072616e6765205b302c315d8be0079c531659141344cd1fd0a4f28419497f9722a3daafe3b4186f6b6457e053746162696c697479506f6f6c3a20416d6f756e74206d757374206265206e6f6e2d7a65726f69e8bca5591c9a2886b122cc27d391b407b746b724f75b996c37903b868c449753746162696c697479506f6f6c3a206d757374206e6f7420616c7265616479206265206120726567697374657265642066726f6e7420656e6453746162696c697479506f6f6c3a2055736572206d7573742068617665206e6f206465706f73697453746162696c697479506f6f6c3a2073656e64696e672046494c206661696c656453746162696c697479506f6f6c3a2063616c6c6572206d757374206861766520616e206163746976652074726f766520746f2077697468647261772046494c4761696e20746f50726f746f636f6c536166654d6174683132383a207375627472616374696f6e206f766572666c6f7753746162696c697479506f6f6c3a2055736572206d75737420686176652061206e6f6e2d7a65726f206465706f73697499920012339b5a3368d3a04b8606ce412c46ed92b7dcd8602d41fc8862cb8f2553746162696c697479506f6f6c3a2043616e6e6f74207769746864726177207768696c65207468657265206172652074726f766573207769746820494352203c204d4352a2646970667358221220d2a0c73e097a58ceb22b340c69a17303c0ddf8725f5a717344b370d6ea5ccdda64736f6c63430007060033496e697469616c697a61626c653a20636f6e747261637420697320616c726561647920696e697469616c697a6564",
  "linkReferences": {},
  "deployedLinkReferences": {}
}