{
  "_format": "hh-sol-artifact-1",
  "contractName": "StabilityPool",
  "sourceName": "contracts/StabilityPool.sol",
  "abi": [
    {
      "inputs": [
        {
          "internalType": "uint256",
          "name": "_gasCompensation",
          "type": "uint256"
        },
        {
          "internalType": "uint256",
          "name": "_minNetDebt",
          "type": "uint256"
        }
      ],
      "stateMutability": "nonpayable",
      "type": "constructor"
    },
    {
      "anonymous": false,
      "inputs": [
        {
          "indexed": false,
          "internalType": "address",
          "name": "_newActivePoolAddress",
          "type": "address"
        }
      ],
      "name": "ActivePoolAddressChanged",
      "type": "event"
    },
    {
      "anonymous": false,
      "inputs": [
        {
          "indexed": false,
          "internalType": "address",
          "name": "_newBorrowerOperationsAddress",
          "type": "address"
        }
      ],
      "name": "BorrowerOperationsAddressChanged",
      "type": "event"
    },
    {
      "anonymous": false,
      "inputs": [
        {
          "indexed": false,
          "internalType": "address",
          "name": "_newCommunityIssuanceAddress",
          "type": "address"
        }
      ],
      "name": "CommunityIssuanceAddressChanged",
      "type": "event"
    },
    {
      "anonymous": false,
      "inputs": [
        {
          "indexed": false,
          "internalType": "address",
          "name": "_newDebtTokenAddress",
          "type": "address"
        }
      ],
      "name": "DebtTokenAddressChanged",
      "type": "event"
    },
    {
      "anonymous": false,
      "inputs": [
        {
          "indexed": true,
          "internalType": "address",
          "name": "_depositor",
          "type": "address"
        },
        {
          "indexed": false,
          "internalType": "uint256",
          "name": "_P",
          "type": "uint256"
        },
        {
          "indexed": false,
          "internalType": "uint256",
          "name": "_S",
          "type": "uint256"
        },
        {
          "indexed": false,
          "internalType": "uint256",
          "name": "_G",
          "type": "uint256"
        }
      ],
      "name": "DepositSnapshotUpdated",
      "type": "event"
    },
    {
      "anonymous": false,
      "inputs": [
        {
          "indexed": false,
          "internalType": "uint128",
          "name": "_currentEpoch",
          "type": "uint128"
        }
      ],
      "name": "EpochUpdated",
      "type": "event"
    },
    {
      "anonymous": false,
      "inputs": [
        {
          "indexed": true,
          "internalType": "address",
          "name": "_depositor",
          "type": "address"
        },
        {
          "indexed": false,
          "internalType": "uint256",
          "name": "_FIL",
          "type": "uint256"
        },
        {
          "indexed": false,
          "internalType": "uint256",
          "name": "_debtTokenLoss",
          "type": "uint256"
        }
      ],
      "name": "FILGainWithdrawn",
      "type": "event"
    },
    {
      "anonymous": false,
      "inputs": [
        {
          "indexed": false,
          "internalType": "address",
          "name": "_to",
          "type": "address"
        },
        {
          "indexed": false,
          "internalType": "uint256",
          "name": "_amount",
          "type": "uint256"
        }
      ],
      "name": "FILSent",
      "type": "event"
    },
    {
      "anonymous": false,
      "inputs": [
        {
          "indexed": true,
          "internalType": "address",
          "name": "_frontEnd",
          "type": "address"
        },
        {
          "indexed": false,
          "internalType": "uint256",
          "name": "_kickbackRate",
          "type": "uint256"
        }
      ],
      "name": "FrontEndRegistered",
      "type": "event"
    },
    {
      "anonymous": false,
      "inputs": [
        {
          "indexed": true,
          "internalType": "address",
          "name": "_frontEnd",
          "type": "address"
        },
        {
          "indexed": false,
          "internalType": "uint256",
          "name": "_P",
          "type": "uint256"
        },
        {
          "indexed": false,
          "internalType": "uint256",
          "name": "_G",
          "type": "uint256"
        }
      ],
      "name": "FrontEndSnapshotUpdated",
      "type": "event"
    },
    {
      "anonymous": false,
      "inputs": [
        {
          "indexed": true,
          "internalType": "address",
          "name": "_frontEnd",
          "type": "address"
        },
        {
          "indexed": false,
          "internalType": "uint256",
          "name": "_newFrontEndStake",
          "type": "uint256"
        },
        {
          "indexed": false,
          "internalType": "address",
          "name": "_depositor",
          "type": "address"
        }
      ],
      "name": "FrontEndStakeChanged",
      "type": "event"
    },
    {
      "anonymous": false,
      "inputs": [
        {
          "indexed": true,
          "internalType": "address",
          "name": "_depositor",
          "type": "address"
        },
        {
          "indexed": true,
          "internalType": "address",
          "name": "_frontEnd",
          "type": "address"
        }
      ],
      "name": "FrontEndTagSet",
      "type": "event"
    },
    {
      "anonymous": false,
      "inputs": [
        {
          "indexed": false,
          "internalType": "uint256",
          "name": "_G",
          "type": "uint256"
        },
        {
          "indexed": false,
          "internalType": "uint128",
          "name": "_epoch",
          "type": "uint128"
        },
        {
          "indexed": false,
          "internalType": "uint128",
          "name": "_scale",
          "type": "uint128"
        }
      ],
      "name": "G_Updated",
      "type": "event"
    },
    {
      "anonymous": false,
      "inputs": [
        {
          "indexed": true,
          "internalType": "address",
          "name": "previousOwner",
          "type": "address"
        },
        {
          "indexed": true,
          "internalType": "address",
          "name": "newOwner",
          "type": "address"
        }
      ],
      "name": "OwnershipTransferred",
      "type": "event"
    },
    {
      "anonymous": false,
      "inputs": [
        {
          "indexed": false,
          "internalType": "uint256",
          "name": "_P",
          "type": "uint256"
        }
      ],
      "name": "P_Updated",
      "type": "event"
    },
    {
      "anonymous": false,
      "inputs": [
        {
          "indexed": false,
          "internalType": "address",
          "name": "_newPriceFeedAddress",
          "type": "address"
        }
      ],
      "name": "PriceFeedAddressChanged",
      "type": "event"
    },
    {
      "anonymous": false,
      "inputs": [
        {
          "indexed": true,
          "internalType": "address",
          "name": "_depositor",
          "type": "address"
        },
        {
          "indexed": false,
          "internalType": "uint256",
          "name": "_protocolToken",
          "type": "uint256"
        }
      ],
      "name": "ProtocolTokenPaidToDepositor",
      "type": "event"
    },
    {
      "anonymous": false,
      "inputs": [
        {
          "indexed": true,
          "internalType": "address",
          "name": "_frontEnd",
          "type": "address"
        },
        {
          "indexed": false,
          "internalType": "uint256",
          "name": "_protocolToken",
          "type": "uint256"
        }
      ],
      "name": "ProtocolTokenPaidToFrontEnd",
      "type": "event"
    },
    {
      "anonymous": false,
      "inputs": [
        {
          "indexed": false,
          "internalType": "uint256",
          "name": "_S",
          "type": "uint256"
        },
        {
          "indexed": false,
          "internalType": "uint128",
          "name": "_epoch",
          "type": "uint128"
        },
        {
          "indexed": false,
          "internalType": "uint128",
          "name": "_scale",
          "type": "uint128"
        }
      ],
      "name": "S_Updated",
      "type": "event"
    },
    {
      "anonymous": false,
      "inputs": [
        {
          "indexed": false,
          "internalType": "uint128",
          "name": "_currentScale",
          "type": "uint128"
        }
      ],
      "name": "ScaleUpdated",
      "type": "event"
    },
    {
      "anonymous": false,
      "inputs": [
        {
          "indexed": false,
          "internalType": "address",
          "name": "_newSortedTrovesAddress",
          "type": "address"
        }
      ],
      "name": "SortedTrovesAddressChanged",
      "type": "event"
    },
    {
      "anonymous": false,
      "inputs": [
        {
          "indexed": false,
          "internalType": "uint256",
          "name": "_newBalance",
          "type": "uint256"
        }
      ],
      "name": "StabilityPoolDebtTokenBalanceUpdated",
      "type": "event"
    },
    {
      "anonymous": false,
      "inputs": [
        {
          "indexed": false,
          "internalType": "uint256",
          "name": "_newBalance",
          "type": "uint256"
        }
      ],
      "name": "StabilityPoolFILBalanceUpdated",
      "type": "event"
    },
    {
      "anonymous": false,
      "inputs": [
        {
          "indexed": false,
          "internalType": "address",
          "name": "_newTroveManagerAddress",
          "type": "address"
        }
      ],
      "name": "TroveManagerAddressChanged",
      "type": "event"
    },
    {
      "anonymous": false,
      "inputs": [
        {
          "indexed": true,
          "internalType": "address",
          "name": "_depositor",
          "type": "address"
        },
        {
          "indexed": false,
          "internalType": "uint256",
          "name": "_newDeposit",
          "type": "uint256"
        }
      ],
      "name": "UserDepositChanged",
      "type": "event"
    },
    {
      "inputs": [],
      "name": "BORROWING_FEE_FLOOR",
      "outputs": [
        {
          "internalType": "uint256",
          "name": "",
          "type": "uint256"
        }
      ],
      "stateMutability": "view",
      "type": "function"
    },
    {
      "inputs": [],
      "name": "CCR",
      "outputs": [
        {
          "internalType": "uint256",
          "name": "",
          "type": "uint256"
        }
      ],
      "stateMutability": "view",
      "type": "function"
    },
    {
      "inputs": [],
      "name": "DECIMAL_PRECISION",
      "outputs": [
        {
          "internalType": "uint256",
          "name": "",
          "type": "uint256"
        }
      ],
      "stateMutability": "view",
      "type": "function"
    },
    {
      "inputs": [],
      "name": "GAS_COMPENSATION",
      "outputs": [
        {
          "internalType": "uint256",
          "name": "",
          "type": "uint256"
        }
      ],
      "stateMutability": "view",
      "type": "function"
    },
    {
      "inputs": [],
      "name": "MCR",
      "outputs": [
        {
          "internalType": "uint256",
          "name": "",
          "type": "uint256"
        }
      ],
      "stateMutability": "view",
      "type": "function"
    },
    {
      "inputs": [],
      "name": "MIN_NET_DEBT",
      "outputs": [
        {
          "internalType": "uint256",
          "name": "",
          "type": "uint256"
        }
      ],
      "stateMutability": "view",
      "type": "function"
    },
    {
      "inputs": [],
      "name": "NAME",
      "outputs": [
        {
          "internalType": "string",
          "name": "",
          "type": "string"
        }
      ],
      "stateMutability": "view",
      "type": "function"
    },
    {
      "inputs": [],
      "name": "P",
      "outputs": [
        {
          "internalType": "uint256",
          "name": "",
          "type": "uint256"
        }
      ],
      "stateMutability": "view",
      "type": "function"
    },
    {
      "inputs": [],
      "name": "PERCENT_DIVISOR",
      "outputs": [
        {
          "internalType": "uint256",
          "name": "",
          "type": "uint256"
        }
      ],
      "stateMutability": "view",
      "type": "function"
    },
    {
      "inputs": [],
      "name": "SCALE_FACTOR",
      "outputs": [
        {
          "internalType": "uint256",
          "name": "",
          "type": "uint256"
        }
      ],
      "stateMutability": "view",
      "type": "function"
    },
    {
      "inputs": [],
      "name": "_100pct",
      "outputs": [
        {
          "internalType": "uint256",
          "name": "",
          "type": "uint256"
        }
      ],
      "stateMutability": "view",
      "type": "function"
    },
    {
      "inputs": [],
      "name": "activePool",
      "outputs": [
        {
          "internalType": "contract IActivePool",
          "name": "",
          "type": "address"
        }
      ],
      "stateMutability": "view",
      "type": "function"
    },
    {
      "inputs": [],
      "name": "borrowerOperations",
      "outputs": [
        {
          "internalType": "contract IBorrowerOperations",
          "name": "",
          "type": "address"
        }
      ],
      "stateMutability": "view",
      "type": "function"
    },
    {
      "inputs": [],
      "name": "communityIssuance",
      "outputs": [
        {
          "internalType": "contract ICommunityIssuance",
          "name": "",
          "type": "address"
        }
      ],
      "stateMutability": "view",
      "type": "function"
    },
    {
      "inputs": [],
      "name": "currentEpoch",
      "outputs": [
        {
          "internalType": "uint128",
          "name": "",
          "type": "uint128"
        }
      ],
      "stateMutability": "view",
      "type": "function"
    },
    {
      "inputs": [],
      "name": "currentScale",
      "outputs": [
        {
          "internalType": "uint128",
          "name": "",
          "type": "uint128"
        }
      ],
      "stateMutability": "view",
      "type": "function"
    },
    {
      "inputs": [],
      "name": "debtToken",
      "outputs": [
        {
          "internalType": "contract IDebtToken",
          "name": "",
          "type": "address"
        }
      ],
      "stateMutability": "view",
      "type": "function"
    },
    {
      "inputs": [
        {
          "internalType": "address",
          "name": "",
          "type": "address"
        }
      ],
      "name": "depositSnapshots",
      "outputs": [
        {
          "internalType": "uint256",
          "name": "S",
          "type": "uint256"
        },
        {
          "internalType": "uint256",
          "name": "P",
          "type": "uint256"
        },
        {
          "internalType": "uint256",
          "name": "G",
          "type": "uint256"
        },
        {
          "internalType": "uint128",
          "name": "scale",
          "type": "uint128"
        },
        {
          "internalType": "uint128",
          "name": "epoch",
          "type": "uint128"
        }
      ],
      "stateMutability": "view",
      "type": "function"
    },
    {
      "inputs": [
        {
          "internalType": "address",
          "name": "",
          "type": "address"
        }
      ],
      "name": "deposits",
      "outputs": [
        {
          "internalType": "uint256",
          "name": "initialValue",
          "type": "uint256"
        },
        {
          "internalType": "address",
          "name": "frontEndTag",
          "type": "address"
        }
      ],
      "stateMutability": "view",
      "type": "function"
    },
    {
      "inputs": [
        {
          "internalType": "uint128",
          "name": "",
          "type": "uint128"
        },
        {
          "internalType": "uint128",
          "name": "",
          "type": "uint128"
        }
      ],
      "name": "epochToScaleToG",
      "outputs": [
        {
          "internalType": "uint256",
          "name": "",
          "type": "uint256"
        }
      ],
      "stateMutability": "view",
      "type": "function"
    },
    {
      "inputs": [
        {
          "internalType": "uint128",
          "name": "",
          "type": "uint128"
        },
        {
          "internalType": "uint128",
          "name": "",
          "type": "uint128"
        }
      ],
      "name": "epochToScaleToSum",
      "outputs": [
        {
          "internalType": "uint256",
          "name": "",
          "type": "uint256"
        }
      ],
      "stateMutability": "view",
      "type": "function"
    },
    {
      "inputs": [
        {
          "internalType": "address",
          "name": "",
          "type": "address"
        }
      ],
      "name": "frontEndSnapshots",
      "outputs": [
        {
          "internalType": "uint256",
          "name": "S",
          "type": "uint256"
        },
        {
          "internalType": "uint256",
          "name": "P",
          "type": "uint256"
        },
        {
          "internalType": "uint256",
          "name": "G",
          "type": "uint256"
        },
        {
          "internalType": "uint128",
          "name": "scale",
          "type": "uint128"
        },
        {
          "internalType": "uint128",
          "name": "epoch",
          "type": "uint128"
        }
      ],
      "stateMutability": "view",
      "type": "function"
    },
    {
      "inputs": [
        {
          "internalType": "address",
          "name": "",
          "type": "address"
        }
      ],
      "name": "frontEndStakes",
      "outputs": [
        {
          "internalType": "uint256",
          "name": "",
          "type": "uint256"
        }
      ],
      "stateMutability": "view",
      "type": "function"
    },
    {
      "inputs": [
        {
          "internalType": "address",
          "name": "",
          "type": "address"
        }
      ],
      "name": "frontEnds",
      "outputs": [
        {
          "internalType": "uint256",
          "name": "kickbackRate",
          "type": "uint256"
        },
        {
          "internalType": "bool",
          "name": "registered",
          "type": "bool"
        }
      ],
      "stateMutability": "view",
      "type": "function"
    },
    {
      "inputs": [
        {
          "internalType": "address",
          "name": "_depositor",
          "type": "address"
        }
      ],
      "name": "getCompoundedDebtTokenDeposit",
      "outputs": [
        {
          "internalType": "uint256",
          "name": "",
          "type": "uint256"
        }
      ],
      "stateMutability": "view",
      "type": "function"
    },
    {
      "inputs": [
        {
          "internalType": "address",
          "name": "_frontEnd",
          "type": "address"
        }
      ],
      "name": "getCompoundedFrontEndStake",
      "outputs": [
        {
          "internalType": "uint256",
          "name": "",
          "type": "uint256"
        }
      ],
      "stateMutability": "view",
      "type": "function"
    },
    {
      "inputs": [
        {
          "internalType": "address",
          "name": "_depositor",
          "type": "address"
        }
      ],
      "name": "getDepositorFILGain",
      "outputs": [
        {
          "internalType": "uint256",
          "name": "",
          "type": "uint256"
        }
      ],
      "stateMutability": "view",
      "type": "function"
    },
    {
      "inputs": [
        {
          "internalType": "address",
          "name": "_depositor",
          "type": "address"
        }
      ],
      "name": "getDepositorProtocolTokenGain",
      "outputs": [
        {
          "internalType": "uint256",
          "name": "",
          "type": "uint256"
        }
      ],
      "stateMutability": "view",
      "type": "function"
    },
    {
      "inputs": [],
      "name": "getFIL",
      "outputs": [
        {
          "internalType": "uint256",
          "name": "",
          "type": "uint256"
        }
      ],
      "stateMutability": "view",
      "type": "function"
    },
    {
      "inputs": [
        {
          "internalType": "address",
          "name": "_frontEnd",
          "type": "address"
        }
      ],
      "name": "getFrontEndProtocolTokenGain",
      "outputs": [
        {
          "internalType": "uint256",
          "name": "",
          "type": "uint256"
        }
      ],
      "stateMutability": "view",
      "type": "function"
    },
    {
      "inputs": [],
      "name": "getTotalDebtTokenDeposits",
      "outputs": [
        {
          "internalType": "uint256",
          "name": "",
          "type": "uint256"
        }
      ],
      "stateMutability": "view",
      "type": "function"
    },
    {
      "inputs": [
        {
          "internalType": "address",
          "name": "_borrowerOperationsAddress",
          "type": "address"
        },
        {
          "internalType": "address",
          "name": "_troveManagerAddress",
          "type": "address"
        },
        {
          "internalType": "address",
          "name": "_activePoolAddress",
          "type": "address"
        },
        {
          "internalType": "address",
          "name": "_debtTokenAddress",
          "type": "address"
        },
        {
          "internalType": "address",
          "name": "_sortedTrovesAddress",
          "type": "address"
        },
        {
          "internalType": "address",
          "name": "_priceFeedAddress",
          "type": "address"
        },
        {
          "internalType": "address",
          "name": "_communityIssuanceAddress",
          "type": "address"
        }
      ],
      "name": "initialize",
      "outputs": [],
      "stateMutability": "nonpayable",
      "type": "function"
    },
    {
      "inputs": [],
      "name": "lastDebtTokenLossError_Offset",
      "outputs": [
        {
          "internalType": "uint256",
          "name": "",
          "type": "uint256"
        }
      ],
      "stateMutability": "view",
      "type": "function"
    },
    {
      "inputs": [],
      "name": "lastFILError_Offset",
      "outputs": [
        {
          "internalType": "uint256",
          "name": "",
          "type": "uint256"
        }
      ],
      "stateMutability": "view",
      "type": "function"
    },
    {
      "inputs": [],
      "name": "lastProtocolTokenError",
      "outputs": [
        {
          "internalType": "uint256",
          "name": "",
          "type": "uint256"
        }
      ],
      "stateMutability": "view",
      "type": "function"
    },
    {
      "inputs": [
        {
          "internalType": "uint256",
          "name": "_debtToOffset",
          "type": "uint256"
        },
        {
          "internalType": "uint256",
          "name": "_collToAdd",
          "type": "uint256"
        }
      ],
      "name": "offset",
      "outputs": [],
      "stateMutability": "nonpayable",
      "type": "function"
    },
    {
      "inputs": [],
      "name": "owner",
      "outputs": [
        {
          "internalType": "address",
          "name": "",
          "type": "address"
        }
      ],
      "stateMutability": "view",
      "type": "function"
    },
    {
      "inputs": [],
      "name": "priceFeed",
      "outputs": [
        {
          "internalType": "contract IPriceFeed",
          "name": "",
          "type": "address"
        }
      ],
      "stateMutability": "view",
      "type": "function"
    },
    {
      "inputs": [
        {
          "internalType": "uint256",
          "name": "_amount",
          "type": "uint256"
        },
        {
          "internalType": "address",
          "name": "_frontEndTag",
          "type": "address"
        }
      ],
      "name": "provideToSP",
      "outputs": [],
      "stateMutability": "nonpayable",
      "type": "function"
    },
    {
      "inputs": [
        {
          "internalType": "uint256",
          "name": "_kickbackRate",
          "type": "uint256"
        }
      ],
      "name": "registerFrontEnd",
      "outputs": [],
      "stateMutability": "nonpayable",
      "type": "function"
    },
    {
      "inputs": [],
      "name": "renounceOwnership",
      "outputs": [],
      "stateMutability": "nonpayable",
      "type": "function"
    },
    {
      "inputs": [],
      "name": "sortedTroves",
      "outputs": [
        {
          "internalType": "contract ISortedTroves",
          "name": "",
          "type": "address"
        }
      ],
      "stateMutability": "view",
      "type": "function"
    },
    {
      "inputs": [
        {
          "internalType": "address",
          "name": "newOwner",
          "type": "address"
        }
      ],
      "name": "transferOwnership",
      "outputs": [],
      "stateMutability": "nonpayable",
      "type": "function"
    },
    {
      "inputs": [],
      "name": "troveManager",
      "outputs": [
        {
          "internalType": "contract ITroveManager",
          "name": "",
          "type": "address"
        }
      ],
      "stateMutability": "view",
      "type": "function"
    },
    {
      "inputs": [
        {
          "internalType": "address",
          "name": "_upperHint",
          "type": "address"
        },
        {
          "internalType": "address",
          "name": "_lowerHint",
          "type": "address"
        }
      ],
      "name": "withdrawFILGainToTrove",
      "outputs": [],
      "stateMutability": "nonpayable",
      "type": "function"
    },
    {
      "inputs": [
        {
          "internalType": "uint256",
          "name": "_amount",
          "type": "uint256"
        }
      ],
      "name": "withdrawFromSP",
      "outputs": [],
      "stateMutability": "nonpayable",
      "type": "function"
    },
    {
      "stateMutability": "payable",
      "type": "receive"
    }
  ],
  "bytecode": "0x60c06040523480156200001157600080fd5b5060405162003f0738038062003f07833981810160405260408110156200003757600080fd5b508051602090910151608082905260a0819052600054610100900460ff168062000066575062000066620000fa565b8062000075575060005460ff16155b620000b25760405162461bcd60e51b815260040180806020018281038252602e81526020018062003ed9602e913960400191505060405180910390fd5b600054610100900460ff16158015620000de576000805460ff1961ff0019909116610100171660011790555b8015620000f1576000805461ff00191690555b5050506200011e565b600062000112306200011860201b62001a7f1760201c565b15905090565b3b151590565b60805160a051613d8d6200014c60003980610cdf5280613856525080610c8052806137825250613d8d6000f3fe6080604052600436106102815760003560e01c8063794e57241161014f578063a7a48884116100c1578063df9cd84f1161007a578063df9cd84f14610926578063f2fde38b14610959578063f8225a101461098c578063f8d89898146109a1578063f92d3433146109b6578063fc7e286d146109cb576102c2565b8063a7a4888414610853578063a7bfff9714610868578063ae918754146108b4578063c5c3937e146108c9578063ce4b5bbe146108de578063dae4f5ff146108f3576102c2565b80638da5cb5b116101135780638da5cb5b1461074f57806395ca53be1461076457806395fb16bb1461079f578063a20baee614610632578063a3f4df7e146107b4578063a4e59ac81461083e576102c2565b8063794e5724146106a25780637f7dde4a146106b757806382e0a574146106cc57806386da0824146107075780638b8fbd921461073a576102c2565b80633d83908a116101f357806367e8fb20116101ac57806367e8fb2014610608578063715018a61461061d57806372fe25aa14610632578063741bef1a14610647578063766718081461065c57806377553ad41461068d576102c2565b80633d83908a146105175780634870dd9a14610548578063556be1011461055d5780635733d58f146105875780635d2de6421461059c5780635f788d65146105cf576102c2565b80631bf43555116102455780631bf43555146103d3578063203aae0a146103e857806328a0a04d1461041b5780632e54bf9514610456578063335525ad1461048257806335876476146104b2576102c2565b80630206d7b9146102c75780630bdfe4e71461030c5780630d9a6b351461033f578063139f2e8c1461035457806316b9d3c514610369576102c2565b366102c25761028e610a1f565b609e5461029b9034610a6a565b609e8190556040805191825251600080516020613b1a8339815191529181900360200190a1005b600080fd5b3480156102d357600080fd5b506102fa600480360360208110156102ea57600080fd5b50356001600160a01b0316610acd565b60408051918252519081900360200190f35b34801561031857600080fd5b506102fa6004803603602081101561032f57600080fd5b50356001600160a01b0316610bdb565b34801561034b57600080fd5b506102fa610c78565b34801561036057600080fd5b506102fa610c7e565b34801561037557600080fd5b5061039c6004803603602081101561038c57600080fd5b50356001600160a01b0316610ca2565b604080519586526020860194909452848401929092526001600160801b039081166060850152166080830152519081900360a00190f35b3480156103df57600080fd5b506102fa610cdd565b3480156103f457600080fd5b506102fa6004803603602081101561040b57600080fd5b50356001600160a01b0316610d01565b34801561042757600080fd5b506102fa6004803603604081101561043e57600080fd5b506001600160801b0381358116916020013516610dd2565b34801561046257600080fd5b506104806004803603602081101561047957600080fd5b5035610def565b005b34801561048e57600080fd5b50610480600480360360408110156104a557600080fd5b5080359060200135610fb6565b3480156104be57600080fd5b50610480600480360360e08110156104d557600080fd5b506001600160a01b038135811691602081013582169160408201358116916060810135821691608082013581169160a081013582169160c0909101351661106a565b34801561052357600080fd5b5061052c61113e565b604080516001600160a01b039092168252519081900360200190f35b34801561055457600080fd5b506102fa61114d565b34801561056957600080fd5b506104806004803603602081101561058057600080fd5b5035611152565b34801561059357600080fd5b506102fa6111c7565b3480156105a857600080fd5b506102fa600480360360208110156105bf57600080fd5b50356001600160a01b03166111d3565b3480156105db57600080fd5b50610480600480360360408110156105f257600080fd5b50803590602001356001600160a01b03166111e5565b34801561061457600080fd5b506102fa61139f565b34801561062957600080fd5b506104806113a5565b34801561063e57600080fd5b506102fa611451565b34801561065357600080fd5b5061052c61145d565b34801561066857600080fd5b5061067161146c565b604080516001600160801b039092168252519081900360200190f35b34801561069957600080fd5b5061052c611482565b3480156106ae57600080fd5b506102fa611491565b3480156106c357600080fd5b5061052c61149d565b3480156106d857600080fd5b506102fa600480360360408110156106ef57600080fd5b506001600160801b03813581169160200135166114ac565b34801561071357600080fd5b5061039c6004803603602081101561072a57600080fd5b50356001600160a01b03166114c9565b34801561074657600080fd5b506102fa611504565b34801561075b57600080fd5b5061052c61150a565b34801561077057600080fd5b506104806004803603604081101561078757600080fd5b506001600160a01b0381358116916020013516611519565b3480156107ab57600080fd5b5061052c61178c565b3480156107c057600080fd5b506107c961179b565b6040805160208082528351818301528351919283929083019185019080838360005b838110156108035781810151838201526020016107eb565b50505050905090810190601f1680156108305780820380516001836020036101000a031916815260200191505b509250505060405180910390f35b34801561084a57600080fd5b506106716117c4565b34801561085f57600080fd5b506102fa6117d3565b34801561087457600080fd5b5061089b6004803603602081101561088b57600080fd5b50356001600160a01b03166117d9565b6040805192835290151560208301528051918290030190f35b3480156108c057600080fd5b5061052c6117f5565b3480156108d557600080fd5b506102fa611804565b3480156108ea57600080fd5b506102fa61180a565b3480156108ff57600080fd5b506102fa6004803603602081101561091657600080fd5b50356001600160a01b0316611812565b34801561093257600080fd5b506102fa6004803603602081101561094957600080fd5b50356001600160a01b03166118a6565b34801561096557600080fd5b506104806004803603602081101561097c57600080fd5b50356001600160a01b031661193a565b34801561099857600080fd5b506102fa611a3d565b3480156109ad57600080fd5b5061052c611a43565b3480156109c257600080fd5b506102fa611a52565b3480156109d757600080fd5b506109fe600480360360208110156109ee57600080fd5b50356001600160a01b0316611a5d565b604080519283526001600160a01b0390911660208301528051918290030190f35b6099546001600160a01b03163314610a685760405162461bcd60e51b8152600401808060200182810382526027815260200180613a046027913960400191505060405180910390fd5b565b600082820183811015610ac4576040805162461bcd60e51b815260206004820152601b60248201527f536166654d6174683a206164646974696f6e206f766572666c6f770000000000604482015290519081900360640190fd5b90505b92915050565b6001600160a01b038116600090815260a0602052604081205480610af5576000915050610bd6565b6001600160a01b03808416600090815260a06020526040812060010154909116908115610b3a576001600160a01b038216600090815260a26020526040902054610b44565b670de0b6b3a76400005b6001600160a01b038616600090815260a160209081526040808320815160a08101835281548152600182015493810193909352600281015491830191909152600301546001600160801b038082166060840152600160801b909104166080820152919250610bce670de0b6b3a7640000610bc8610bc18886611a85565b8690611b59565b90611bb2565b955050505050505b919050565b6001600160a01b038116600090815260a0602052604081205480610c03576000915050610bd6565b6001600160a01b038316600090815260a160209081526040808320815160a08101835281548152600182015493810193909352600281015491830191909152600301546001600160801b038082166060840152600160801b90910416608082015290610c6f8383611c19565b95945050505050565b609f5490565b7f000000000000000000000000000000000000000000000000000000000000000081565b60a4602052600090815260409020805460018201546002830154600390930154919290916001600160801b0380821691600160801b90041685565b7f000000000000000000000000000000000000000000000000000000000000000081565b6001600160a01b038116600090815260a3602052604081205480610d29576000915050610bd6565b6001600160a01b038316600090815260a2602052604081205490610d55670de0b6b3a764000083611d09565b6001600160a01b038616600090815260a460209081526040808320815160a08101835281548152600182015493810193909352600281015491830191909152600301546001600160801b038082166060840152600160801b909104166080820152919250610bce670de0b6b3a7640000610bc8610bc18886611a85565b60a760209081526000928352604080842090915290825290205481565b60026065541415610e35576040805162461bcd60e51b815260206004820152601f6024820152600080516020613978833981519152604482015290519081900360640190fd5b60026065558015610e4857610e48611d66565b33600090815260a06020526040902054610e6181611f23565b609d546001600160a01b0316610e7681611f65565b6000610e8133611812565b90506000610e8e33610bdb565b90506000610e9c8683611fdd565b90506000610eaa8684611d09565b33600081815260a060205260409020600101549192506001600160a01b0390911690610ed890879083611ff3565b6000610ee3826118a6565b90506000610ef18286611d09565b9050610efd8382612180565b6040805182815233602082015281516001600160a01b03861692600080516020613cf4833981519152928290030190a2610f3733866122cc565b6000610f438787611d09565b9050610f4f3382612352565b6040805182815290513391600080516020613a59833981519152919081900360200190a2604080518981526020810187905281513392600080516020613bb3833981519152928290030190a2610fa4886124d8565b50506001606555505050505050505050565b60026065541415610ffc576040805162461bcd60e51b815260206004820152601f6024820152600080516020613978833981519152604482015290519081900360640190fd5b60026065556110096125de565b609f54801580611017575082155b156110225750611061565b609d54611037906001600160a01b0316611f65565b600080611045848685612627565b9150915061105382826126f0565b61105d84866129ba565b5050505b50506001606555565b600054610100900460ff16806110835750611083612afd565b80611091575060005460ff16155b6110cc5760405162461bcd60e51b815260040180806020018281038252602e815260200180613a2b602e913960400191505060405180910390fd5b600054610100900460ff161580156110f7576000805460ff1961ff0019909116610100171660011790555b6110ff612b0e565b611107612bbf565b61111688888888888888612c54565b670de0b6b3a764000060a5558015611134576000805461ff00191690555b5050505050505050565b6098546001600160a01b031681565b60c881565b61115b33612ead565b61116433612f08565b61116d81612f5e565b33600081815260a260209081526040918290208481556001908101805460ff19169091179055815184815291517f19bc932fb9e16a8b5a1e41be9f4c2de59d5ddd7567b8b81405f532ca00a9880e9281900390910190a250565b6714d1120d7b16000081565b60a36020526000908152604090205481565b6002606554141561122b576040805162461bcd60e51b815260206004820152601f6024820152600080516020613978833981519152604482015290519081900360640190fd5b600260655561123981612fa5565b61124233612ead565b61124b82613011565b33600090815260a06020526040902054609d546001600160a01b031661127081611f65565b8161127f5761127f3384613050565b600061128a33611812565b9050600061129733610bdb565b905060006112a58583611d09565b33600081815260a060205260409020600101549192506001600160a01b03909116906112d390869083611ff3565b60006112de826118a6565b905060006112ec828b610a6a565b90506112f88382612180565b6040805182815233602082015281516001600160a01b03861692600080516020613cf4833981519152928290030190a2611332338b6130aa565b600061133e868c610a6a565b905061134a3382612352565b6040805182815290513391600080516020613a59833981519152919081900360200190a2604080518881526020810187905281513392600080516020613bb3833981519152928290030190a2610fa4876124d8565b60aa5481565b6113ad61316e565b6001600160a01b03166113be61150a565b6001600160a01b031614611419576040805162461bcd60e51b815260206004820181905260248201527f4f776e61626c653a2063616c6c6572206973206e6f7420746865206f776e6572604482015290519081900360640190fd5b6033546040516000916001600160a01b031690600080516020613b6d833981519152908390a3603380546001600160a01b0319169055565b670de0b6b3a764000081565b609c546001600160a01b031681565b60a654600160801b90046001600160801b031681565b6097546001600160a01b031681565b670f43fc2c04ee000081565b6099546001600160a01b031681565b60a860209081526000928352604080842090915290825290205481565b60a1602052600090815260409020805460018201546002830154600390930154919290916001600160801b0380821691600160801b90041685565b60a55481565b6033546001600160a01b031690565b6002606554141561155f576040805162461bcd60e51b815260206004820152601f6024820152600080516020613978833981519152604482015290519081900360640190fd5b600260655533600090815260a0602052604090205461157d81611f23565b61158633613172565b61158f33613229565b609d546001600160a01b03166115a481611f65565b60006115af33611812565b905060006115bc33610bdb565b905060006115ca8583611d09565b33600081815260a060205260409020600101549192506001600160a01b03909116906115f890869083611ff3565b6000611603826118a6565b9050806116108382612180565b6040805182815233602082015281516001600160a01b03861692600080516020613cf4833981519152928290030190a261164a3386612352565b604080518781526020810186905281513392600080516020613bb3833981519152928290030190a26040805186815290513391600080516020613a59833981519152919081900360200190a2609e546116a39087611d09565b609e8190556040805191825251600080516020613b1a8339815191529181900360200190a1604080513381526020810188905281517f3b2482b1bf6e751427503c9a8bf79e4dba3e6519259e2220428c2f326cc79c14929181900390910190a160975460408051630721ec6760e11b81523360048201526001600160a01b038d811660248301528c8116604483015291519190921691630e43d8ce91899160648082019260009290919082900301818588803b15801561176257600080fd5b505af1158015611776573d6000803e3d6000fd5b5050600160655550505050505050505050505050565b609d546001600160a01b031681565b6040518060400160405280600d81526020016c14dd18589a5b1a5d1e541bdbdb609a1b81525081565b60a6546001600160801b031681565b60ab5481565b60a2602052600090815260409020805460019091015460ff1682565b609b546001600160a01b031681565b609e5490565b633b9aca0081565b6001600160a01b038116600090815260a060205260408120548061183a576000915050610bd6565b6001600160a01b038316600090815260a160209081526040808320815160a08101835281548152600182015493810193909352600281015491830191909152600301546001600160801b038082166060840152600160801b90910416608082015290610c6f8383613275565b6001600160a01b038116600090815260a36020526040812054806118ce576000915050610bd6565b6001600160a01b038316600090815260a460209081526040808320815160a08101835281548152600182015493810193909352600281015491830191909152600301546001600160801b038082166060840152600160801b90910416608082015290610c6f8383611c19565b61194261316e565b6001600160a01b031661195361150a565b6001600160a01b0316146119ae576040805162461bcd60e51b815260206004820181905260248201527f4f776e61626c653a2063616c6c6572206973206e6f7420746865206f776e6572604482015290519081900360640190fd5b6001600160a01b0381166119f35760405162461bcd60e51b81526004018080602001828103825260268152602001806139986026913960400191505060405180910390fd5b6033546040516001600160a01b03808416921690600080516020613b6d83398151915290600090a3603380546001600160a01b0319166001600160a01b0392909216919091179055565b60a95481565b609a546001600160a01b031681565b6611c37937e0800081565b60a060205260009081526040902080546001909101546001600160a01b031682565b3b151590565b608081015160608201516040808401516020808601516001600160801b03808716600090815260a88452858120918716815292529281205490949392908590611ace9084611d09565b6001600160801b03808716600090815260a86020526040812092935091611b2591633b9aca0091908490611b05908a1660016132f0565b6001600160801b0316815260208101919091526040016000205490611bb2565b90506000611b4b670de0b6b3a7640000610bc88681611b448888610a6a565b8f90611b59565b9a9950505050505050505050565b600082611b6857506000610ac7565b82820282848281611b7557fe5b0414610ac45760405162461bcd60e51b8152600401808060200182810382526021815260200180613af96021913960400191505060405180910390fd5b6000808211611c08576040805162461bcd60e51b815260206004820152601a60248201527f536166654d6174683a206469766973696f6e206279207a65726f000000000000604482015290519081900360640190fd5b818381611c1157fe5b049392505050565b60208101516060820151608083015160a6546000939291906001600160801b03600160801b90910481169082161015611c585760009350505050610ac7565b60a6546000908190611c73906001600160801b031685613340565b90506001600160801b038116611ca357611c9c85610bc860a5548b611b5990919063ffffffff16565b9150611cdb565b806001600160801b031660011415611cd657611c9c633b9aca00610bc887610bc860a5548d611b5990919063ffffffff16565b600091505b611ce988633b9aca00611bb2565b821015611cfe57600095505050505050610ac7565b509695505050505050565b600082821115611d60576040805162461bcd60e51b815260206004820152601e60248201527f536166654d6174683a207375627472616374696f6e206f766572666c6f770000604482015290519081900360640190fd5b50900390565b609c5460408051630fdb11cf60e01b815290516000926001600160a01b031691630fdb11cf91600480830192602092919082900301818787803b158015611dac57600080fd5b505af1158015611dc0573d6000803e3d6000fd5b505050506040513d6020811015611dd657600080fd5b5051609b5460408051634d62283160e01b815290519293506000926001600160a01b0390921691634d62283191600480820192602092909190829003018186803b158015611e2357600080fd5b505afa158015611e37573d6000803e3d6000fd5b505050506040513d6020811015611e4d57600080fd5b505160985460408051630d293c7160e41b81526001600160a01b038085166004830152602482018790529151939450600093919092169163d293c710916044808301926020929190829003018186803b158015611ea957600080fd5b505afa158015611ebd573d6000803e3d6000fd5b505050506040513d6020811015611ed357600080fd5b50519050670f43fc2c04ee0000811015611f1e5760405162461bcd60e51b8152600401808060200182810382526044815260200180613d146044913960600191505060405180910390fd5b505050565b60008111611f625760405162461bcd60e51b8152600401808060200182810382526030815260200180613cc46030913960400191505060405180910390fd5b50565b6000816001600160a01b0316632eee8bc96040518163ffffffff1660e01b8152600401602060405180830381600087803b158015611fa257600080fd5b505af1158015611fb6573d6000803e3d6000fd5b505050506040513d6020811015611fcc57600080fd5b50519050611fd981613393565b5050565b6000818310611fec5781610ac4565b5090919050565b6001600160a01b038116156120bf57600061200d82610d01565b9050836001600160a01b0316638352d63683836040518363ffffffff1660e01b815260040180836001600160a01b0316815260200182815260200192505050600060405180830381600087803b15801561206657600080fd5b505af115801561207a573d6000803e3d6000fd5b50506040805184815290516001600160a01b03861693507fc3c43b5355673e1ea1a83122d1de4fde0584a9e8796843b3b7b33ed9b1aece0292509081900360200190a2505b60006120ca83610acd565b9050836001600160a01b0316638352d63684836040518363ffffffff1660e01b815260040180836001600160a01b0316815260200182815260200192505050600060405180830381600087803b15801561212357600080fd5b505af1158015612137573d6000803e3d6000fd5b50506040805184815290516001600160a01b03871693507fe57aace4a327c35eab9346657e77499888878556a925f2b460c3f1ce23b093f792509081900360200190a250505050565b6001600160a01b038216600090815260a36020526040902081905580612210576001600160a01b038216600081815260a460209081526040808320838155600181018490556002810184905560030183905580518381529182019290925281517fbb1322f85cc7cc8bac4e172a5bc5dcc0c1959007f9a030032abf9258205f0e45929181900390910190a2611fd9565b60a65460a5546001600160801b03600160801b8084048216600081815260a860209081526040808320978616808452978252808320546001600160a01b038b1680855260a4845293829020600181018990556002810182905560030180546001600160801b0319168a17909716958502959095179095558451868152908101849052845192959491927fbb1322f85cc7cc8bac4e172a5bc5dcc0c1959007f9a030032abf9258205f0e45929181900390910190a2505050505050565b806122d657611fd9565b609a5460408051631062c15f60e11b81523060048201526001600160a01b03858116602483015260448201859052915191909216916320c582be91606480830192600092919082900301818387803b15801561233157600080fd5b505af1158015612345573d6000803e3d6000fd5b50505050611fd9816134a8565b6001600160a01b038216600090815260a06020526040902081905580612400576001600160a01b038216600081815260a060209081526040808320600190810180546001600160a01b031916905560a183528184208481559081018490556002810184905560030183905580518381529182018390528181019290925290517f2d6cc0bcdf72c9486f6451bde6b80f44066f4558f77f44dbfedbe7d8b295225a9181900360600190a2611fd9565b60a65460a5546001600160801b03600160801b8084048216600081815260a7602090815260408083209786168084529782528083205484845260a883528184208985528352818420546001600160a01b038c1680865260a1855294839020600181018a90558281556002810182905560030180546001600160801b0319168b179098169686029690961790965580518781529182018690528181018590525192959493927f2d6cc0bcdf72c9486f6451bde6b80f44066f4558f77f44dbfedbe7d8b295225a916060908290030190a250505050505050565b806124e257611f62565b609e546000906124f29083611d09565b609e819055604080518281529051919250600080516020613b1a833981519152919081900360200190a1604080513381526020810184905281517f3b2482b1bf6e751427503c9a8bf79e4dba3e6519259e2220428c2f326cc79c14929181900390910190a1604051600090339084908381818185875af1925050503d8060008114612599576040519150601f19603f3d011682016040523d82523d6000602084013e61259e565b606091505b5050905080611f1e5760405162461bcd60e51b8152600401808060200182810382526021815260200180613c346021913960400191505060405180910390fd5b6098546001600160a01b03163314610a685760405162461bcd60e51b8152600401808060200182810382526029815260200180613a796029913960400191505060405180910390fd5b600080600061265360aa5461264d670de0b6b3a764000089611b5990919063ffffffff16565b90610a6a565b90508385111561265f57fe5b8385141561267c57600060ab55670de0b6b3a764000091506126c4565b60ab5460009061269e9061269888670de0b6b3a7640000611b59565b90611d09565b90506126af600161264d8388611bb2565b92506126bf816126988588611b59565b60ab55505b6126ce8185611bb2565b92506126e46126dd8486611b59565b8290611d09565b60aa5550935093915050565b60a5546000670de0b6b3a764000083111561270757fe5b600061271b670de0b6b3a764000085611d09565b60a6546001600160801b03600160801b82048116600081815260a76020908152604080832094909516808352939052928320549394509092909161275f8988611b59565b9050600061276d8383610a6a565b6001600160801b03808616600081815260a760209081526040808320948b16808452948252918290208590558151858152908101929092528181019290925290519192507fe12e2cd2c9afa8069203ca07e7eff1edce4a075686d0736a8e7e0d593597b207919081900360600190a18561289e576127f56001600160801b03851660016132f0565b60a680546001600160801b03908116600160801b938216840217918290556040805193909204168252517fb50f0f59e7cb5b421dc77581c3a9919e3806e076e5fa78a874c3f120cb7d874d916020908290030190a160a680546001600160801b0319169055604080516000815290517f1f9dfc70cd666adb18a39d60a797518f7b4febf4b6e24ef37d44f6e1e7219fbe9181900360200190a1670de0b6b3a7640000965061296c565b633b9aca006128b9670de0b6b3a7640000610bc88b8a611b59565b1015612953576128e3670de0b6b3a7640000610bc8633b9aca006128dd8c8b611b59565b90611b59565b96506128f96001600160801b03861660016132f0565b60a680546001600160801b0319166001600160801b0392831617908190556040805191909216815290517f1f9dfc70cd666adb18a39d60a797518f7b4febf4b6e24ef37d44f6e1e7219fbe916020908290030190a161296c565b612969670de0b6b3a7640000610bc88a89611b59565b96505b6000871161297657fe5b60a58790556040805188815290517fc1a9618cb59ebca77cbdbc2949f126823c407ff13edb285fd0262519a9c18e8c9181900360200190a150505050505050505050565b60995460408051632a7ba1f760e01b81526004810184905290516001600160a01b03909216918291632a7ba1f791602480830192600092919082900301818387803b158015612a0857600080fd5b505af1158015612a1c573d6000803e3d6000fd5b50505050612a29826134a8565b609a5460408051632770a7eb60e21b81523060048201526024810185905290516001600160a01b0390921691639dc29fac9160448082019260009290919082900301818387803b158015612a7c57600080fd5b505af1158015612a90573d6000803e3d6000fd5b505060408051628063a560e01b81523060048201526024810187905290516001600160a01b0385169350628063a59250604480830192600092919082900301818387803b158015612ae057600080fd5b505af1158015612af4573d6000803e3d6000fd5b50505050505050565b6000612b0830611a7f565b15905090565b600054610100900460ff1680612b275750612b27612afd565b80612b35575060005460ff16155b612b705760405162461bcd60e51b815260040180806020018281038252602e815260200180613a2b602e913960400191505060405180910390fd5b600054610100900460ff16158015612b9b576000805460ff1961ff0019909116610100171660011790555b612ba36134f8565b612bab613598565b8015611f62576000805461ff001916905550565b600054610100900460ff1680612bd85750612bd8612afd565b80612be6575060005460ff16155b612c215760405162461bcd60e51b815260040180806020018281038252602e815260200180613a2b602e913960400191505060405180910390fd5b600054610100900460ff16158015612c4c576000805460ff1961ff0019909116610100171660011790555b612bab61367f565b612c5d87613725565b612c6686613725565b612c6f85613725565b612c7884613725565b612c8183613725565b612c8a82613725565b612c9381613725565b612c9c86613780565b609780546001600160a01b03199081166001600160a01b038a81169182179093556098805483168a8516179055609980548316898516179055609a80548316888516179055609b80548316878516179055609c80548316868516179055609d805490921692841692909217905560408051918252517f3ca631ffcd2a9b5d9ae18543fc82f58eb4ca33af9e6ab01b7a8e95331e6ed985916020908290030190a1604080516001600160a01b038816815290517f143219c9e69b09e07e095fcc889b43d8f46ca892bba65f08dc3a0050869a56789181900360200190a1604080516001600160a01b038716815290517f78f058b189175430c48dc02699e3a0031ea4ff781536dc2fab847de4babdd8829181900360200190a1604080516001600160a01b038616815290517f112220fa8dbe96141556e0dc3d74dd95075b323f4f297616048e02d82d7017159181900360200190a1604080516001600160a01b038516815290517f65f4cf077bc01e4742eb5ad98326f6e95b63548ea24b17f8d5e823111fe788009181900360200190a1604080516001600160a01b038416815290517f8c537274438aa850a330284665d81a85dd38267d09e4050d416bfc94142db2649181900360200190a1604080516001600160a01b038316815290517f3055265812fb8447b9ada4a5d804ec43bd528ec40e89c952bbc7b85dc5ac68119181900360200190a150505050505050565b6001600160a01b038116600090815260a2602052604090206001015460ff1615611f625760405162461bcd60e51b8152600401808060200182810382526039815260200180613bd36039913960400191505060405180910390fd5b6001600160a01b038116600090815260a060205260409020548015611fd95760405162461bcd60e51b8152600401808060200182810382526028815260200180613c0c6028913960400191505060405180910390fd5b670de0b6b3a7640000811115611f625760405162461bcd60e51b8152600401808060200182810382526033815260200180613b3a6033913960400191505060405180910390fd5b6001600160a01b038116600090815260a2602052604090206001015460ff1680612fd657506001600160a01b038116155b611f625760405162461bcd60e51b81526004018080602001828103825260468152602001806139be6046913960600191505060405180910390fd5b60008111611f625760405162461bcd60e51b8152600401808060200182810382526026815260200180613b8d6026913960400191505060405180910390fd5b6001600160a01b03828116600081815260a0602052604080822060010180546001600160a01b0319169486169485179055517f094c08e96a8890877a8390b4f967180a7507ad8622244d05fcd0f9f8e086564e9190a35050565b609a5460408051632ee65eeb60e21b81526001600160a01b038581166004830152306024830152604482018590529151919092169163bb997bac91606480830192600092919082900301818387803b15801561310557600080fd5b505af1158015613119573d6000803e3d6000fd5b5050609f546000925061312d915083610a6a565b609f8190556040805182815290519192507f8c9268469ff6265448f46f8119962e815f393b25b87bb55bda5e709a412b85d7919081900360200190a1505050565b3390565b609854604080516321e3780160e01b81526001600160a01b038481166004830152915191909216916321e37801916024808301926020929190829003018186803b1580156131bf57600080fd5b505afa1580156131d3573d6000803e3d6000fd5b505050506040513d60208110156131e957600080fd5b5051600114611f625760405162461bcd60e51b8152600401808060200182810382526046815260200180613c556046913960600191505060405180910390fd5b600061323482611812565b905060008111611fd95760405162461bcd60e51b8152600401808060200182810382526031815260200180613aa26031913960400191505060405180910390fd5b6080810151606082015182516020808501516001600160801b03808616600090815260a784526040808220928716825291909352822054919493929185906132bd9084611d09565b6001600160801b03808716600090815260a76020526040812092935091611b2591633b9aca0091908490611b05908a1660015b60008282016001600160801b038085169082161015610ac45760405162461bcd60e51b8152600401808060200182810382526026815260200180613ad36026913960400191505060405180910390fd5b6000826001600160801b0316826001600160801b03161115611d605760405162461bcd60e51b8152600401808060200182810382526029815260200180613c9b6029913960400191505060405180910390fd5b609f548015806133a1575081155b156133ac5750611f62565b60006133b88383613924565b905060006133d160a55483611b5990919063ffffffff16565b60a6546001600160801b03600160801b82048116600090815260a86020908152604080832093909416825291909152205490915061340f9082610a6a565b60a680546001600160801b03600160801b8083048216600090815260a8602081815260408084209686168452958152858320979097559454918204831680825294865283812091909216808352908552908290205482519081529384019290925282810191909152517f2d6127771b164a9cc8827d24b5955db2a77e7a81dac389107ebb8bce9fb649689181900360600190a150505050565b609f546000906134b89083611d09565b609f8190556040805182815290519192507f8c9268469ff6265448f46f8119962e815f393b25b87bb55bda5e709a412b85d7919081900360200190a15050565b600054610100900460ff16806135115750613511612afd565b8061351f575060005460ff16155b61355a5760405162461bcd60e51b815260040180806020018281038252602e815260200180613a2b602e913960400191505060405180910390fd5b600054610100900460ff16158015612bab576000805460ff1961ff0019909116610100171660011790558015611f62576000805461ff001916905550565b600054610100900460ff16806135b157506135b1612afd565b806135bf575060005460ff16155b6135fa5760405162461bcd60e51b815260040180806020018281038252602e815260200180613a2b602e913960400191505060405180910390fd5b600054610100900460ff16158015613625576000805460ff1961ff0019909116610100171660011790555b600061362f61316e565b603380546001600160a01b0319166001600160a01b03831690811790915560405191925090600090600080516020613b6d833981519152908290a3508015611f62576000805461ff001916905550565b600054610100900460ff16806136985750613698612afd565b806136a6575060005460ff16155b6136e15760405162461bcd60e51b815260040180806020018281038252602e815260200180613a2b602e913960400191505060405180910390fd5b600054610100900460ff1615801561370c576000805460ff1961ff0019909116610100171660011790555b60016065558015611f62576000805461ff001916905550565b6001600160a01b038116611f62576040805162461bcd60e51b815260206004820152601e60248201527f4163636f756e742063616e6e6f74206265207a65726f20616464726573730000604482015290519081900360640190fd5b7f0000000000000000000000000000000000000000000000000000000000000000816001600160a01b031663139f2e8c6040518163ffffffff1660e01b815260040160206040518083038186803b1580156137da57600080fd5b505afa1580156137ee573d6000803e3d6000fd5b505050506040513d602081101561380457600080fd5b505114613854576040805162461bcd60e51b815260206004820152601960248201527808e82a6be869e9aa08a9ca682a8929e9c40dad2e6dac2e8c6d603b1b604482015290519081900360640190fd5b7f0000000000000000000000000000000000000000000000000000000000000000816001600160a01b0316631bf435556040518163ffffffff1660e01b815260040160206040518083038186803b1580156138ae57600080fd5b505afa1580156138c2573d6000803e3d6000fd5b505050506040513d60208110156138d857600080fd5b505114611f62576040805162461bcd60e51b815260206004820152601560248201527409a929cbe9c8aa8be888a84a840dad2e6dac2e8c6d605b1b604482015290519081900360640190fd5b60008061394860a95461264d670de0b6b3a764000087611b5990919063ffffffff16565b905060006139568285611bb2565b905061396c6139658286611b59565b8390611d09565b60a95594935050505056fe5265656e7472616e637947756172643a207265656e7472616e742063616c6c004f776e61626c653a206e6577206f776e657220697320746865207a65726f206164647265737353746162696c697479506f6f6c3a20546167206d757374206265206120726567697374657265642066726f6e7420656e642c206f7220746865207a65726f206164647265737353746162696c697479506f6f6c3a2043616c6c6572206973206e6f7420416374697665506f6f6c496e697469616c697a61626c653a20636f6e747261637420697320616c726561647920696e697469616c697a6564bce78369dccab09eec1986f4d409ab09ffbb47d65423e5148fcf98411c5111c953746162696c697479506f6f6c3a2043616c6c6572206973206e6f742054726f76654d616e6167657253746162696c697479506f6f6c3a2063616c6c6572206d7573742068617665206e6f6e2d7a65726f2046494c204761696e50726f746f636f6c536166654d6174683132383a206164646974696f6e206f766572666c6f77536166654d6174683a206d756c7469706c69636174696f6e206f766572666c6f77d05c60ff21c33fb1103e848d5310f11270e7db91e1b079c4bdd0c6024f83d6c753746162696c697479506f6f6c3a204b69636b6261636b2072617465206d75737420626520696e2072616e6765205b302c315d8be0079c531659141344cd1fd0a4f28419497f9722a3daafe3b4186f6b6457e053746162696c697479506f6f6c3a20416d6f756e74206d757374206265206e6f6e2d7a65726f69e8bca5591c9a2886b122cc27d391b407b746b724f75b996c37903b868c449753746162696c697479506f6f6c3a206d757374206e6f7420616c7265616479206265206120726567697374657265642066726f6e7420656e6453746162696c697479506f6f6c3a2055736572206d7573742068617665206e6f206465706f73697453746162696c697479506f6f6c3a2073656e64696e672046494c206661696c656453746162696c697479506f6f6c3a2063616c6c6572206d757374206861766520616e206163746976652074726f766520746f2077697468647261772046494c4761696e20746f50726f746f636f6c536166654d6174683132383a207375627472616374696f6e206f766572666c6f7753746162696c697479506f6f6c3a2055736572206d75737420686176652061206e6f6e2d7a65726f206465706f73697499920012339b5a3368d3a04b8606ce412c46ed92b7dcd8602d41fc8862cb8f2553746162696c697479506f6f6c3a2043616e6e6f74207769746864726177207768696c65207468657265206172652074726f766573207769746820494352203c204d4352a2646970667358221220f8d0598bc1709c1e26cf2e7c65bb6b556f2c8fa43f472ef63fe55572ce732c8264736f6c63430007060033496e697469616c697a61626c653a20636f6e747261637420697320616c726561647920696e697469616c697a6564",
  "linkReferences": {},
  "deployedLinkReferences": {}
}