{
  "_format": "hh-sol-artifact-1",
  "contractName": "StabilityPool",
  "sourceName": "contracts/StabilityPool.sol",
  "abi": [
    {
      "inputs": [
        {
          "internalType": "uint256",
          "name": "_gasCompensation",
          "type": "uint256"
        },
        {
          "internalType": "uint256",
          "name": "_minNetDebt",
          "type": "uint256"
        }
      ],
      "stateMutability": "nonpayable",
      "type": "constructor"
    },
    {
      "anonymous": false,
      "inputs": [
        {
          "indexed": false,
          "internalType": "address",
          "name": "_newActivePoolAddress",
          "type": "address"
        }
      ],
      "name": "ActivePoolAddressChanged",
      "type": "event"
    },
    {
      "anonymous": false,
      "inputs": [
        {
          "indexed": false,
          "internalType": "address",
          "name": "_newBorrowerOperationsAddress",
          "type": "address"
        }
      ],
      "name": "BorrowerOperationsAddressChanged",
      "type": "event"
    },
    {
      "anonymous": false,
      "inputs": [
        {
          "indexed": false,
          "internalType": "address",
          "name": "_newCommunityIssuanceAddress",
          "type": "address"
        }
      ],
      "name": "CommunityIssuanceAddressChanged",
      "type": "event"
    },
    {
      "anonymous": false,
      "inputs": [
        {
          "indexed": false,
          "internalType": "address",
          "name": "_newDebtTokenAddress",
          "type": "address"
        }
      ],
      "name": "DebtTokenAddressChanged",
      "type": "event"
    },
    {
      "anonymous": false,
      "inputs": [
        {
          "indexed": false,
          "internalType": "address",
          "name": "_newDefaultPoolAddress",
          "type": "address"
        }
      ],
      "name": "DefaultPoolAddressChanged",
      "type": "event"
    },
    {
      "anonymous": false,
      "inputs": [
        {
          "indexed": true,
          "internalType": "address",
          "name": "_depositor",
          "type": "address"
        },
        {
          "indexed": false,
          "internalType": "uint256",
          "name": "_P",
          "type": "uint256"
        },
        {
          "indexed": false,
          "internalType": "uint256",
          "name": "_S",
          "type": "uint256"
        },
        {
          "indexed": false,
          "internalType": "uint256",
          "name": "_G",
          "type": "uint256"
        }
      ],
      "name": "DepositSnapshotUpdated",
      "type": "event"
    },
    {
      "anonymous": false,
      "inputs": [
        {
          "indexed": false,
          "internalType": "uint128",
          "name": "_currentEpoch",
          "type": "uint128"
        }
      ],
      "name": "EpochUpdated",
      "type": "event"
    },
    {
      "anonymous": false,
      "inputs": [
        {
          "indexed": true,
          "internalType": "address",
          "name": "_depositor",
          "type": "address"
        },
        {
          "indexed": false,
          "internalType": "uint256",
          "name": "_FIL",
          "type": "uint256"
        },
        {
          "indexed": false,
          "internalType": "uint256",
          "name": "_debtTokenLoss",
          "type": "uint256"
        }
      ],
      "name": "FILGainWithdrawn",
      "type": "event"
    },
    {
      "anonymous": false,
      "inputs": [
        {
          "indexed": false,
          "internalType": "address",
          "name": "_to",
          "type": "address"
        },
        {
          "indexed": false,
          "internalType": "uint256",
          "name": "_amount",
          "type": "uint256"
        }
      ],
      "name": "FILSent",
      "type": "event"
    },
    {
      "anonymous": false,
      "inputs": [
        {
          "indexed": true,
          "internalType": "address",
          "name": "_frontEnd",
          "type": "address"
        },
        {
          "indexed": false,
          "internalType": "uint256",
          "name": "_kickbackRate",
          "type": "uint256"
        }
      ],
      "name": "FrontEndRegistered",
      "type": "event"
    },
    {
      "anonymous": false,
      "inputs": [
        {
          "indexed": true,
          "internalType": "address",
          "name": "_frontEnd",
          "type": "address"
        },
        {
          "indexed": false,
          "internalType": "uint256",
          "name": "_P",
          "type": "uint256"
        },
        {
          "indexed": false,
          "internalType": "uint256",
          "name": "_G",
          "type": "uint256"
        }
      ],
      "name": "FrontEndSnapshotUpdated",
      "type": "event"
    },
    {
      "anonymous": false,
      "inputs": [
        {
          "indexed": true,
          "internalType": "address",
          "name": "_frontEnd",
          "type": "address"
        },
        {
          "indexed": false,
          "internalType": "uint256",
          "name": "_newFrontEndStake",
          "type": "uint256"
        },
        {
          "indexed": false,
          "internalType": "address",
          "name": "_depositor",
          "type": "address"
        }
      ],
      "name": "FrontEndStakeChanged",
      "type": "event"
    },
    {
      "anonymous": false,
      "inputs": [
        {
          "indexed": true,
          "internalType": "address",
          "name": "_depositor",
          "type": "address"
        },
        {
          "indexed": true,
          "internalType": "address",
          "name": "_frontEnd",
          "type": "address"
        }
      ],
      "name": "FrontEndTagSet",
      "type": "event"
    },
    {
      "anonymous": false,
      "inputs": [
        {
          "indexed": false,
          "internalType": "uint256",
          "name": "_G",
          "type": "uint256"
        },
        {
          "indexed": false,
          "internalType": "uint128",
          "name": "_epoch",
          "type": "uint128"
        },
        {
          "indexed": false,
          "internalType": "uint128",
          "name": "_scale",
          "type": "uint128"
        }
      ],
      "name": "G_Updated",
      "type": "event"
    },
    {
      "anonymous": false,
      "inputs": [
        {
          "indexed": true,
          "internalType": "address",
          "name": "previousOwner",
          "type": "address"
        },
        {
          "indexed": true,
          "internalType": "address",
          "name": "newOwner",
          "type": "address"
        }
      ],
      "name": "OwnershipTransferred",
      "type": "event"
    },
    {
      "anonymous": false,
      "inputs": [
        {
          "indexed": false,
          "internalType": "uint256",
          "name": "_P",
          "type": "uint256"
        }
      ],
      "name": "P_Updated",
      "type": "event"
    },
    {
      "anonymous": false,
      "inputs": [
        {
          "indexed": false,
          "internalType": "address",
          "name": "_newPriceFeedAddress",
          "type": "address"
        }
      ],
      "name": "PriceFeedAddressChanged",
      "type": "event"
    },
    {
      "anonymous": false,
      "inputs": [
        {
          "indexed": true,
          "internalType": "address",
          "name": "_depositor",
          "type": "address"
        },
        {
          "indexed": false,
          "internalType": "uint256",
          "name": "_protocolToken",
          "type": "uint256"
        }
      ],
      "name": "ProtocolTokenPaidToDepositor",
      "type": "event"
    },
    {
      "anonymous": false,
      "inputs": [
        {
          "indexed": true,
          "internalType": "address",
          "name": "_frontEnd",
          "type": "address"
        },
        {
          "indexed": false,
          "internalType": "uint256",
          "name": "_protocolToken",
          "type": "uint256"
        }
      ],
      "name": "ProtocolTokenPaidToFrontEnd",
      "type": "event"
    },
    {
      "anonymous": false,
      "inputs": [
        {
          "indexed": false,
          "internalType": "uint256",
          "name": "_S",
          "type": "uint256"
        },
        {
          "indexed": false,
          "internalType": "uint128",
          "name": "_epoch",
          "type": "uint128"
        },
        {
          "indexed": false,
          "internalType": "uint128",
          "name": "_scale",
          "type": "uint128"
        }
      ],
      "name": "S_Updated",
      "type": "event"
    },
    {
      "anonymous": false,
      "inputs": [
        {
          "indexed": false,
          "internalType": "uint128",
          "name": "_currentScale",
          "type": "uint128"
        }
      ],
      "name": "ScaleUpdated",
      "type": "event"
    },
    {
      "anonymous": false,
      "inputs": [
        {
          "indexed": false,
          "internalType": "address",
          "name": "_newSortedTrovesAddress",
          "type": "address"
        }
      ],
      "name": "SortedTrovesAddressChanged",
      "type": "event"
    },
    {
      "anonymous": false,
      "inputs": [
        {
          "indexed": false,
          "internalType": "uint256",
          "name": "_newBalance",
          "type": "uint256"
        }
      ],
      "name": "StabilityPoolDebtTokenBalanceUpdated",
      "type": "event"
    },
    {
      "anonymous": false,
      "inputs": [
        {
          "indexed": false,
          "internalType": "uint256",
          "name": "_newBalance",
          "type": "uint256"
        }
      ],
      "name": "StabilityPoolFILBalanceUpdated",
      "type": "event"
    },
    {
      "anonymous": false,
      "inputs": [
        {
          "indexed": false,
          "internalType": "address",
          "name": "_newTroveManagerAddress",
          "type": "address"
        }
      ],
      "name": "TroveManagerAddressChanged",
      "type": "event"
    },
    {
      "anonymous": false,
      "inputs": [
        {
          "indexed": true,
          "internalType": "address",
          "name": "_depositor",
          "type": "address"
        },
        {
          "indexed": false,
          "internalType": "uint256",
          "name": "_newDeposit",
          "type": "uint256"
        }
      ],
      "name": "UserDepositChanged",
      "type": "event"
    },
    {
      "inputs": [],
      "name": "BORROWING_FEE_FLOOR",
      "outputs": [
        {
          "internalType": "uint256",
          "name": "",
          "type": "uint256"
        }
      ],
      "stateMutability": "view",
      "type": "function"
    },
    {
      "inputs": [],
      "name": "CCR",
      "outputs": [
        {
          "internalType": "uint256",
          "name": "",
          "type": "uint256"
        }
      ],
      "stateMutability": "view",
      "type": "function"
    },
    {
      "inputs": [],
      "name": "DECIMAL_PRECISION",
      "outputs": [
        {
          "internalType": "uint256",
          "name": "",
          "type": "uint256"
        }
      ],
      "stateMutability": "view",
      "type": "function"
    },
    {
      "inputs": [],
      "name": "GAS_COMPENSATION",
      "outputs": [
        {
          "internalType": "uint256",
          "name": "",
          "type": "uint256"
        }
      ],
      "stateMutability": "view",
      "type": "function"
    },
    {
      "inputs": [],
      "name": "MCR",
      "outputs": [
        {
          "internalType": "uint256",
          "name": "",
          "type": "uint256"
        }
      ],
      "stateMutability": "view",
      "type": "function"
    },
    {
      "inputs": [],
      "name": "MIN_NET_DEBT",
      "outputs": [
        {
          "internalType": "uint256",
          "name": "",
          "type": "uint256"
        }
      ],
      "stateMutability": "view",
      "type": "function"
    },
    {
      "inputs": [],
      "name": "NAME",
      "outputs": [
        {
          "internalType": "string",
          "name": "",
          "type": "string"
        }
      ],
      "stateMutability": "view",
      "type": "function"
    },
    {
      "inputs": [],
      "name": "P",
      "outputs": [
        {
          "internalType": "uint256",
          "name": "",
          "type": "uint256"
        }
      ],
      "stateMutability": "view",
      "type": "function"
    },
    {
      "inputs": [],
      "name": "PERCENT_DIVISOR",
      "outputs": [
        {
          "internalType": "uint256",
          "name": "",
          "type": "uint256"
        }
      ],
      "stateMutability": "view",
      "type": "function"
    },
    {
      "inputs": [],
      "name": "SCALE_FACTOR",
      "outputs": [
        {
          "internalType": "uint256",
          "name": "",
          "type": "uint256"
        }
      ],
      "stateMutability": "view",
      "type": "function"
    },
    {
      "inputs": [],
      "name": "_100pct",
      "outputs": [
        {
          "internalType": "uint256",
          "name": "",
          "type": "uint256"
        }
      ],
      "stateMutability": "view",
      "type": "function"
    },
    {
      "inputs": [],
      "name": "activePool",
      "outputs": [
        {
          "internalType": "contract IActivePool",
          "name": "",
          "type": "address"
        }
      ],
      "stateMutability": "view",
      "type": "function"
    },
    {
      "inputs": [],
      "name": "borrowerOperations",
      "outputs": [
        {
          "internalType": "contract IBorrowerOperations",
          "name": "",
          "type": "address"
        }
      ],
      "stateMutability": "view",
      "type": "function"
    },
    {
      "inputs": [],
      "name": "communityIssuance",
      "outputs": [
        {
          "internalType": "contract ICommunityIssuance",
          "name": "",
          "type": "address"
        }
      ],
      "stateMutability": "view",
      "type": "function"
    },
    {
      "inputs": [],
      "name": "currentEpoch",
      "outputs": [
        {
          "internalType": "uint128",
          "name": "",
          "type": "uint128"
        }
      ],
      "stateMutability": "view",
      "type": "function"
    },
    {
      "inputs": [],
      "name": "currentScale",
      "outputs": [
        {
          "internalType": "uint128",
          "name": "",
          "type": "uint128"
        }
      ],
      "stateMutability": "view",
      "type": "function"
    },
    {
      "inputs": [],
      "name": "debtToken",
      "outputs": [
        {
          "internalType": "contract IDebtToken",
          "name": "",
          "type": "address"
        }
      ],
      "stateMutability": "view",
      "type": "function"
    },
    {
      "inputs": [],
      "name": "defaultPool",
      "outputs": [
        {
          "internalType": "contract IDefaultPool",
          "name": "",
          "type": "address"
        }
      ],
      "stateMutability": "view",
      "type": "function"
    },
    {
      "inputs": [
        {
          "internalType": "address",
          "name": "",
          "type": "address"
        }
      ],
      "name": "depositSnapshots",
      "outputs": [
        {
          "internalType": "uint256",
          "name": "S",
          "type": "uint256"
        },
        {
          "internalType": "uint256",
          "name": "P",
          "type": "uint256"
        },
        {
          "internalType": "uint256",
          "name": "G",
          "type": "uint256"
        },
        {
          "internalType": "uint128",
          "name": "scale",
          "type": "uint128"
        },
        {
          "internalType": "uint128",
          "name": "epoch",
          "type": "uint128"
        }
      ],
      "stateMutability": "view",
      "type": "function"
    },
    {
      "inputs": [
        {
          "internalType": "address",
          "name": "",
          "type": "address"
        }
      ],
      "name": "deposits",
      "outputs": [
        {
          "internalType": "uint256",
          "name": "initialValue",
          "type": "uint256"
        },
        {
          "internalType": "address",
          "name": "frontEndTag",
          "type": "address"
        }
      ],
      "stateMutability": "view",
      "type": "function"
    },
    {
      "inputs": [
        {
          "internalType": "uint128",
          "name": "",
          "type": "uint128"
        },
        {
          "internalType": "uint128",
          "name": "",
          "type": "uint128"
        }
      ],
      "name": "epochToScaleToG",
      "outputs": [
        {
          "internalType": "uint256",
          "name": "",
          "type": "uint256"
        }
      ],
      "stateMutability": "view",
      "type": "function"
    },
    {
      "inputs": [
        {
          "internalType": "uint128",
          "name": "",
          "type": "uint128"
        },
        {
          "internalType": "uint128",
          "name": "",
          "type": "uint128"
        }
      ],
      "name": "epochToScaleToSum",
      "outputs": [
        {
          "internalType": "uint256",
          "name": "",
          "type": "uint256"
        }
      ],
      "stateMutability": "view",
      "type": "function"
    },
    {
      "inputs": [
        {
          "internalType": "address",
          "name": "",
          "type": "address"
        }
      ],
      "name": "frontEndSnapshots",
      "outputs": [
        {
          "internalType": "uint256",
          "name": "S",
          "type": "uint256"
        },
        {
          "internalType": "uint256",
          "name": "P",
          "type": "uint256"
        },
        {
          "internalType": "uint256",
          "name": "G",
          "type": "uint256"
        },
        {
          "internalType": "uint128",
          "name": "scale",
          "type": "uint128"
        },
        {
          "internalType": "uint128",
          "name": "epoch",
          "type": "uint128"
        }
      ],
      "stateMutability": "view",
      "type": "function"
    },
    {
      "inputs": [
        {
          "internalType": "address",
          "name": "",
          "type": "address"
        }
      ],
      "name": "frontEndStakes",
      "outputs": [
        {
          "internalType": "uint256",
          "name": "",
          "type": "uint256"
        }
      ],
      "stateMutability": "view",
      "type": "function"
    },
    {
      "inputs": [
        {
          "internalType": "address",
          "name": "",
          "type": "address"
        }
      ],
      "name": "frontEnds",
      "outputs": [
        {
          "internalType": "uint256",
          "name": "kickbackRate",
          "type": "uint256"
        },
        {
          "internalType": "bool",
          "name": "registered",
          "type": "bool"
        }
      ],
      "stateMutability": "view",
      "type": "function"
    },
    {
      "inputs": [
        {
          "internalType": "address",
          "name": "_depositor",
          "type": "address"
        }
      ],
      "name": "getCompoundedDebtTokenDeposit",
      "outputs": [
        {
          "internalType": "uint256",
          "name": "",
          "type": "uint256"
        }
      ],
      "stateMutability": "view",
      "type": "function"
    },
    {
      "inputs": [
        {
          "internalType": "address",
          "name": "_frontEnd",
          "type": "address"
        }
      ],
      "name": "getCompoundedFrontEndStake",
      "outputs": [
        {
          "internalType": "uint256",
          "name": "",
          "type": "uint256"
        }
      ],
      "stateMutability": "view",
      "type": "function"
    },
    {
      "inputs": [
        {
          "internalType": "address",
          "name": "_depositor",
          "type": "address"
        }
      ],
      "name": "getDepositorFILGain",
      "outputs": [
        {
          "internalType": "uint256",
          "name": "",
          "type": "uint256"
        }
      ],
      "stateMutability": "view",
      "type": "function"
    },
    {
      "inputs": [
        {
          "internalType": "address",
          "name": "_depositor",
          "type": "address"
        }
      ],
      "name": "getDepositorProtocolTokenGain",
      "outputs": [
        {
          "internalType": "uint256",
          "name": "",
          "type": "uint256"
        }
      ],
      "stateMutability": "view",
      "type": "function"
    },
    {
      "inputs": [],
      "name": "getEntireSystemColl",
      "outputs": [
        {
          "internalType": "uint256",
          "name": "entireSystemColl",
          "type": "uint256"
        }
      ],
      "stateMutability": "view",
      "type": "function"
    },
    {
      "inputs": [],
      "name": "getEntireSystemDebt",
      "outputs": [
        {
          "internalType": "uint256",
          "name": "entireSystemDebt",
          "type": "uint256"
        }
      ],
      "stateMutability": "view",
      "type": "function"
    },
    {
      "inputs": [],
      "name": "getFIL",
      "outputs": [
        {
          "internalType": "uint256",
          "name": "",
          "type": "uint256"
        }
      ],
      "stateMutability": "view",
      "type": "function"
    },
    {
      "inputs": [
        {
          "internalType": "address",
          "name": "_frontEnd",
          "type": "address"
        }
      ],
      "name": "getFrontEndProtocolTokenGain",
      "outputs": [
        {
          "internalType": "uint256",
          "name": "",
          "type": "uint256"
        }
      ],
      "stateMutability": "view",
      "type": "function"
    },
    {
      "inputs": [],
      "name": "getTotalDebtTokenDeposits",
      "outputs": [
        {
          "internalType": "uint256",
          "name": "",
          "type": "uint256"
        }
      ],
      "stateMutability": "view",
      "type": "function"
    },
    {
      "inputs": [
        {
          "internalType": "address",
          "name": "_borrowerOperationsAddress",
          "type": "address"
        },
        {
          "internalType": "address",
          "name": "_troveManagerAddress",
          "type": "address"
        },
        {
          "internalType": "address",
          "name": "_activePoolAddress",
          "type": "address"
        },
        {
          "internalType": "address",
          "name": "_debtTokenAddress",
          "type": "address"
        },
        {
          "internalType": "address",
          "name": "_sortedTrovesAddress",
          "type": "address"
        },
        {
          "internalType": "address",
          "name": "_priceFeedAddress",
          "type": "address"
        },
        {
          "internalType": "address",
          "name": "_communityIssuanceAddress",
          "type": "address"
        }
      ],
      "name": "initialize",
      "outputs": [],
      "stateMutability": "nonpayable",
      "type": "function"
    },
    {
      "inputs": [],
      "name": "lastDebtTokenLossError_Offset",
      "outputs": [
        {
          "internalType": "uint256",
          "name": "",
          "type": "uint256"
        }
      ],
      "stateMutability": "view",
      "type": "function"
    },
    {
      "inputs": [],
      "name": "lastFILError_Offset",
      "outputs": [
        {
          "internalType": "uint256",
          "name": "",
          "type": "uint256"
        }
      ],
      "stateMutability": "view",
      "type": "function"
    },
    {
      "inputs": [],
      "name": "lastProtocolTokenError",
      "outputs": [
        {
          "internalType": "uint256",
          "name": "",
          "type": "uint256"
        }
      ],
      "stateMutability": "view",
      "type": "function"
    },
    {
      "inputs": [
        {
          "internalType": "uint256",
          "name": "_debtToOffset",
          "type": "uint256"
        },
        {
          "internalType": "uint256",
          "name": "_collToAdd",
          "type": "uint256"
        }
      ],
      "name": "offset",
      "outputs": [],
      "stateMutability": "nonpayable",
      "type": "function"
    },
    {
      "inputs": [],
      "name": "owner",
      "outputs": [
        {
          "internalType": "address",
          "name": "",
          "type": "address"
        }
      ],
      "stateMutability": "view",
      "type": "function"
    },
    {
      "inputs": [],
      "name": "priceFeed",
      "outputs": [
        {
          "internalType": "contract IPriceFeed",
          "name": "",
          "type": "address"
        }
      ],
      "stateMutability": "view",
      "type": "function"
    },
    {
      "inputs": [
        {
          "internalType": "uint256",
          "name": "_amount",
          "type": "uint256"
        },
        {
          "internalType": "address",
          "name": "_frontEndTag",
          "type": "address"
        }
      ],
      "name": "provideToSP",
      "outputs": [],
      "stateMutability": "nonpayable",
      "type": "function"
    },
    {
      "inputs": [
        {
          "internalType": "uint256",
          "name": "_kickbackRate",
          "type": "uint256"
        }
      ],
      "name": "registerFrontEnd",
      "outputs": [],
      "stateMutability": "nonpayable",
      "type": "function"
    },
    {
      "inputs": [],
      "name": "renounceOwnership",
      "outputs": [],
      "stateMutability": "nonpayable",
      "type": "function"
    },
    {
      "inputs": [],
      "name": "sortedTroves",
      "outputs": [
        {
          "internalType": "contract ISortedTroves",
          "name": "",
          "type": "address"
        }
      ],
      "stateMutability": "view",
      "type": "function"
    },
    {
      "inputs": [
        {
          "internalType": "address",
          "name": "newOwner",
          "type": "address"
        }
      ],
      "name": "transferOwnership",
      "outputs": [],
      "stateMutability": "nonpayable",
      "type": "function"
    },
    {
      "inputs": [],
      "name": "troveManager",
      "outputs": [
        {
          "internalType": "contract ITroveManager",
          "name": "",
          "type": "address"
        }
      ],
      "stateMutability": "view",
      "type": "function"
    },
    {
      "inputs": [
        {
          "internalType": "address",
          "name": "_upperHint",
          "type": "address"
        },
        {
          "internalType": "address",
          "name": "_lowerHint",
          "type": "address"
        }
      ],
      "name": "withdrawFILGainToTrove",
      "outputs": [],
      "stateMutability": "nonpayable",
      "type": "function"
    },
    {
      "inputs": [
        {
          "internalType": "uint256",
          "name": "_amount",
          "type": "uint256"
        }
      ],
      "name": "withdrawFromSP",
      "outputs": [],
      "stateMutability": "nonpayable",
      "type": "function"
    },
    {
      "stateMutability": "payable",
      "type": "receive"
    }
  ],
  "bytecode": "0x60c060405234801561001057600080fd5b50604051613dd8380380613dd88339818101604052604081101561003357600080fd5b508051602090910151608082905260a0819052613d6b61006d60003980610d3f5280613854525080610ce052806137805250613d6b6000f3fe6080604052600436106102a25760003560e01c8063794e572411610165578063a4e59ac8116100cc578063dae4f5ff11610085578063dae4f5ff14610953578063df9cd84f14610986578063f2fde38b146109b9578063f8225a10146109ec578063f8d8989814610a01578063f92d343314610a16578063fc7e286d14610a2b576102e3565b8063a4e59ac81461089e578063a7a48884146108b3578063a7bfff97146108c8578063ae91875414610914578063c5c3937e14610929578063ce4b5bbe1461093e576102e3565b80638b8fbd921161011e5780638b8fbd921461079a5780638da5cb5b146107af57806395ca53be146107c457806395fb16bb146107ff578063a20baee614610668578063a3f4df7e14610814576102e3565b8063794e5724146106d8578063795d26c3146106ed5780637f7dde4a1461070257806382e0a5741461071757806386da082414610752578063887105d314610785576102e3565b80633d83908a1161020957806367e8fb20116101c257806367e8fb201461063e578063715018a61461065357806372fe25aa14610668578063741bef1a1461067d578063766718081461069257806377553ad4146106c3576102e3565b80633d83908a146105695780634870dd9a1461057e578063556be101146105935780635733d58f146105bd5780635d2de642146105d25780635f788d6514610605576102e3565b8063203aae0a1161025b578063203aae0a1461040957806328a0a04d1461043c5780632e54bf9514610477578063335525ad146104a357806335876476146104d35780633cc7422514610538576102e3565b80630206d7b9146102e85780630bdfe4e71461032d5780630d9a6b3514610360578063139f2e8c1461037557806316b9d3c51461038a5780631bf43555146103f4576102e3565b366102e3576102af610a7f565b606c546102bc9034610aca565b606c8190556040805191825251600080516020613af88339815191529181900360200190a1005b600080fd5b3480156102f457600080fd5b5061031b6004803603602081101561030b57600080fd5b50356001600160a01b0316610b2d565b60408051918252519081900360200190f35b34801561033957600080fd5b5061031b6004803603602081101561035057600080fd5b50356001600160a01b0316610c3b565b34801561036c57600080fd5b5061031b610cd8565b34801561038157600080fd5b5061031b610cde565b34801561039657600080fd5b506103bd600480360360208110156103ad57600080fd5b50356001600160a01b0316610d02565b604080519586526020860194909452848401929092526001600160801b039081166060850152166080830152519081900360a00190f35b34801561040057600080fd5b5061031b610d3d565b34801561041557600080fd5b5061031b6004803603602081101561042c57600080fd5b50356001600160a01b0316610d61565b34801561044857600080fd5b5061031b6004803603604081101561045f57600080fd5b506001600160801b0381358116916020013516610e32565b34801561048357600080fd5b506104a16004803603602081101561049a57600080fd5b5035610e4f565b005b3480156104af57600080fd5b506104a1600480360360408110156104c657600080fd5b5080359060200135610fc6565b3480156104df57600080fd5b506104a1600480360360e08110156104f657600080fd5b506001600160a01b038135811691602081013582169160408201358116916060810135821691608082013581169160a081013582169160c0909101351661102a565b34801561054457600080fd5b5061054d61110d565b604080516001600160a01b039092168252519081900360200190f35b34801561057557600080fd5b5061054d61111c565b34801561058a57600080fd5b5061031b61112b565b34801561059f57600080fd5b506104a1600480360360208110156105b657600080fd5b5035611130565b3480156105c957600080fd5b5061031b6111a5565b3480156105de57600080fd5b5061031b600480360360208110156105f557600080fd5b50356001600160a01b03166111b1565b34801561061157600080fd5b506104a16004803603604081101561062857600080fd5b50803590602001356001600160a01b03166111c3565b34801561064a57600080fd5b5061031b611332565b34801561065f57600080fd5b506104a1611338565b34801561067457600080fd5b5061031b6113e4565b34801561068957600080fd5b5061054d6113f0565b34801561069e57600080fd5b506106a76113ff565b604080516001600160801b039092168252519081900360200190f35b3480156106cf57600080fd5b5061054d611415565b3480156106e457600080fd5b5061031b611424565b3480156106f957600080fd5b5061031b611430565b34801561070e57600080fd5b5061054d61152b565b34801561072357600080fd5b5061031b6004803603604081101561073a57600080fd5b506001600160801b038135811691602001351661153a565b34801561075e57600080fd5b506103bd6004803603602081101561077557600080fd5b50356001600160a01b0316611557565b34801561079157600080fd5b5061031b611592565b3480156107a657600080fd5b5061031b61164e565b3480156107bb57600080fd5b5061054d611654565b3480156107d057600080fd5b506104a1600480360360408110156107e757600080fd5b506001600160a01b0381358116916020013516611663565b34801561080b57600080fd5b5061054d611886565b34801561082057600080fd5b50610829611895565b6040805160208082528351818301528351919283929083019185019080838360005b8381101561086357818101518382015260200161084b565b50505050905090810190601f1680156108905780820380516001836020036101000a031916815260200191505b509250505060405180910390f35b3480156108aa57600080fd5b506106a76118be565b3480156108bf57600080fd5b5061031b6118cd565b3480156108d457600080fd5b506108fb600480360360208110156108eb57600080fd5b50356001600160a01b03166118d3565b6040805192835290151560208301528051918290030190f35b34801561092057600080fd5b5061054d6118ef565b34801561093557600080fd5b5061031b6118fe565b34801561094a57600080fd5b5061031b611904565b34801561095f57600080fd5b5061031b6004803603602081101561097657600080fd5b50356001600160a01b031661190c565b34801561099257600080fd5b5061031b600480360360208110156109a957600080fd5b50356001600160a01b03166119a0565b3480156109c557600080fd5b506104a1600480360360208110156109dc57600080fd5b50356001600160a01b0316611a34565b3480156109f857600080fd5b5061031b611b37565b348015610a0d57600080fd5b5061054d611b3d565b348015610a2257600080fd5b5061031b611b4c565b348015610a3757600080fd5b50610a5e60048036036020811015610a4e57600080fd5b50356001600160a01b0316611b57565b604080519283526001600160a01b0390911660208301528051918290030190f35b6000546001600160a01b03163314610ac85760405162461bcd60e51b81526004018080602001828103825260278152602001806139e26027913960400191505060405180910390fd5b565b600082820183811015610b24576040805162461bcd60e51b815260206004820152601b60248201527f536166654d6174683a206164646974696f6e206f766572666c6f770000000000604482015290519081900360640190fd5b90505b92915050565b6001600160a01b0381166000908152606e602052604081205480610b55576000915050610c36565b6001600160a01b038084166000908152606e6020526040812060010154909116908115610b9a576001600160a01b038216600090815260706020526040902054610ba4565b670de0b6b3a76400005b6001600160a01b0386166000908152606f60209081526040808320815160a08101835281548152600182015493810193909352600281015491830191909152600301546001600160801b038082166060840152600160801b909104166080820152919250610c2e670de0b6b3a7640000610c28610c218886611b79565b8690611c4d565b90611ca6565b955050505050505b919050565b6001600160a01b0381166000908152606e602052604081205480610c63576000915050610c36565b6001600160a01b0383166000908152606f60209081526040808320815160a08101835281548152600182015493810193909352600281015491830191909152600301546001600160801b038082166060840152600160801b90910416608082015290610ccf8383611d0d565b95945050505050565b606d5490565b7f000000000000000000000000000000000000000000000000000000000000000081565b6072602052600090815260409020805460018201546002830154600390930154919290916001600160801b0380821691600160801b90041685565b7f000000000000000000000000000000000000000000000000000000000000000081565b6001600160a01b03811660009081526071602052604081205480610d89576000915050610c36565b6001600160a01b03831660009081526070602052604081205490610db5670de0b6b3a764000083611dfd565b6001600160a01b0386166000908152607260209081526040808320815160a08101835281548152600182015493810193909352600281015491830191909152600301546001600160801b038082166060840152600160801b909104166080820152919250610c2e670de0b6b3a7640000610c28610c218886611b79565b607560209081526000928352604080842090915290825290205481565b8015610e5d57610e5d611e5a565b336000908152606e6020526040902054610e7681612017565b606b546001600160a01b0316610e8b81612059565b6000610e963361190c565b90506000610ea333610c3b565b90506000610eb186836120cd565b90506000610ebf8684611dfd565b336000818152606e60205260409020600101549192506001600160a01b0390911690610eed908790836120e3565b6000610ef8826119a0565b90506000610f068286611dfd565b9050610f128382612270565b6040805182815233602082015281516001600160a01b03861692600080516020613cd2833981519152928290030190a2610f4c33866123bc565b6000610f588787611dfd565b9050610f643382612442565b6040805182815290513391600080516020613a37833981519152919081900360200190a2604080518981526020810187905281513392600080516020613b91833981519152928290030190a2610fb9886125c8565b5050505050505050505050565b610fce6126ce565b606d54801580610fdc575082155b15610fe75750611026565b606b54610ffc906001600160a01b0316612059565b60008061100a848685612717565b9150915061101882826127e0565b6110228486612aaa565b5050505b5050565b600254600160a81b900460ff16806110455750611045612beb565b8061105a5750600254600160a01b900460ff16155b6110955760405162461bcd60e51b815260040180806020018281038252602e815260200180613a09602e913960400191505060405180910390fd5b600254600160a81b900460ff161580156110cc576002805460ff60a01b1960ff60a81b19909116600160a81b1716600160a01b1790555b6110d4612bfc565b6110e388888888888888612cc4565b670de0b6b3a76400006073558015611103576002805460ff60a81b191690555b5050505050505050565b6001546001600160a01b031681565b6068546001600160a01b031681565b60c881565b61113933612f1d565b61114233612f78565b61114b81612fce565b336000818152607060209081526040918290208481556001908101805460ff19169091179055815184815291517f19bc932fb9e16a8b5a1e41be9f4c2de59d5ddd7567b8b81405f532ca00a9880e9281900390910190a250565b6714d1120d7b16000081565b60716020526000908152604090205481565b6111cc81613015565b6111d533612f1d565b6111de82613081565b336000908152606e6020526040902054606b546001600160a01b031661120381612059565b816112125761121233846130c0565b600061121d3361190c565b9050600061122a33610c3b565b905060006112388583611dfd565b336000818152606e60205260409020600101549192506001600160a01b0390911690611266908690836120e3565b6000611271826119a0565b9050600061127f828b610aca565b905061128b8382612270565b6040805182815233602082015281516001600160a01b03861692600080516020613cd2833981519152928290030190a26112c5338b61311a565b60006112d1868c610aca565b90506112dd3382612442565b6040805182815290513391600080516020613a37833981519152919081900360200190a2604080518881526020810187905281513392600080516020613b91833981519152928290030190a2610fb9876125c8565b60785481565b6113406131de565b6001600160a01b0316611351611654565b6001600160a01b0316146113ac576040805162461bcd60e51b815260206004820181905260248201527f4f776e61626c653a2063616c6c6572206973206e6f7420746865206f776e6572604482015290519081900360640190fd5b6035546040516000916001600160a01b031690600080516020613b4b833981519152908390a3603580546001600160a01b0319169055565b670de0b6b3a764000081565b6002546001600160a01b031681565b607454600160801b90046001600160801b031681565b6067546001600160a01b031681565b670f43fc2c04ee000081565b60008054604080516314a6bf0f60e01b8152905183926001600160a01b0316916314a6bf0f916004808301926020929190829003018186803b15801561147557600080fd5b505afa158015611489573d6000803e3d6000fd5b505050506040513d602081101561149f57600080fd5b5051600154604080516314a6bf0f60e01b815290519293506000926001600160a01b03909216916314a6bf0f91600480820192602092909190829003018186803b1580156114ec57600080fd5b505afa158015611500573d6000803e3d6000fd5b505050506040513d602081101561151657600080fd5b505190506115248282610aca565b9250505090565b6000546001600160a01b031681565b607660209081526000928352604080842090915290825290205481565b606f602052600090815260409020805460018201546002830154600390930154919290916001600160801b0380821691600160801b90041685565b60008054604080516362e1c9bf60e11b8152905183926001600160a01b03169163c5c3937e916004808301926020929190829003018186803b1580156115d757600080fd5b505afa1580156115eb573d6000803e3d6000fd5b505050506040513d602081101561160157600080fd5b5051600154604080516362e1c9bf60e11b815290519293506000926001600160a01b039092169163c5c3937e91600480820192602092909190829003018186803b1580156114ec57600080fd5b60735481565b6035546001600160a01b031690565b336000908152606e602052604090205461167c81612017565b611685336131e2565b61168e33613299565b606b546001600160a01b03166116a381612059565b60006116ae3361190c565b905060006116bb33610c3b565b905060006116c98583611dfd565b336000818152606e60205260409020600101549192506001600160a01b03909116906116f7908690836120e3565b6000611702826119a0565b90508061170f8382612270565b6040805182815233602082015281516001600160a01b03861692600080516020613cd2833981519152928290030190a26117493386612442565b604080518781526020810186905281513392600080516020613b91833981519152928290030190a26040805186815290513391600080516020613a37833981519152919081900360200190a2606c546117a29087611dfd565b606c8190556040805191825251600080516020613af88339815191529181900360200190a1604080513381526020810188905281517f3b2482b1bf6e751427503c9a8bf79e4dba3e6519259e2220428c2f326cc79c14929181900390910190a160675460408051630721ec6760e11b81523360048201526001600160a01b038d811660248301528c8116604483015291519190921691630e43d8ce91899160648082019260009290919082900301818588803b15801561186157600080fd5b505af1158015611875573d6000803e3d6000fd5b505050505050505050505050505050565b606b546001600160a01b031681565b6040518060400160405280600d81526020016c14dd18589a5b1a5d1e541bdbdb609a1b81525081565b6074546001600160801b031681565b60795481565b6070602052600090815260409020805460019091015460ff1682565b606a546001600160a01b031681565b606c5490565b633b9aca0081565b6001600160a01b0381166000908152606e602052604081205480611934576000915050610c36565b6001600160a01b0383166000908152606f60209081526040808320815160a08101835281548152600182015493810193909352600281015491830191909152600301546001600160801b038082166060840152600160801b90910416608082015290610ccf83836132e5565b6001600160a01b038116600090815260716020526040812054806119c8576000915050610c36565b6001600160a01b0383166000908152607260209081526040808320815160a08101835281548152600182015493810193909352600281015491830191909152600301546001600160801b038082166060840152600160801b90910416608082015290610ccf8383611d0d565b611a3c6131de565b6001600160a01b0316611a4d611654565b6001600160a01b031614611aa8576040805162461bcd60e51b815260206004820181905260248201527f4f776e61626c653a2063616c6c6572206973206e6f7420746865206f776e6572604482015290519081900360640190fd5b6001600160a01b038116611aed5760405162461bcd60e51b81526004018080602001828103825260268152602001806139766026913960400191505060405180910390fd5b6035546040516001600160a01b03808416921690600080516020613b4b83398151915290600090a3603580546001600160a01b0319166001600160a01b0392909216919091179055565b60775481565b6069546001600160a01b031681565b6611c37937e0800081565b606e60205260009081526040902080546001909101546001600160a01b031682565b608081015160608201516040808401516020808601516001600160801b03808716600090815260768452858120918716815292529281205490949392908590611bc29084611dfd565b6001600160801b03808716600090815260766020526040812092935091611c1991633b9aca0091908490611bf9908a166001613360565b6001600160801b0316815260208101919091526040016000205490611ca6565b90506000611c3f670de0b6b3a7640000610c288681611c388888610aca565b8f90611c4d565b9a9950505050505050505050565b600082611c5c57506000610b27565b82820282848281611c6957fe5b0414610b245760405162461bcd60e51b8152600401808060200182810382526021815260200180613ad76021913960400191505060405180910390fd5b6000808211611cfc576040805162461bcd60e51b815260206004820152601a60248201527f536166654d6174683a206469766973696f6e206279207a65726f000000000000604482015290519081900360640190fd5b818381611d0557fe5b049392505050565b6020810151606082015160808301516074546000939291906001600160801b03600160801b90910481169082161015611d4c5760009350505050610b27565b6074546000908190611d67906001600160801b0316856133b0565b90506001600160801b038116611d9757611d9085610c286073548b611c4d90919063ffffffff16565b9150611dcf565b806001600160801b031660011415611dca57611d90633b9aca00610c2887610c286073548d611c4d90919063ffffffff16565b600091505b611ddd88633b9aca00611ca6565b821015611df257600095505050505050610b27565b509695505050505050565b600082821115611e54576040805162461bcd60e51b815260206004820152601e60248201527f536166654d6174683a207375627472616374696f6e206f766572666c6f770000604482015290519081900360640190fd5b50900390565b60025460408051630fdb11cf60e01b815290516000926001600160a01b031691630fdb11cf91600480830192602092919082900301818787803b158015611ea057600080fd5b505af1158015611eb4573d6000803e3d6000fd5b505050506040513d6020811015611eca57600080fd5b5051606a5460408051634d62283160e01b815290519293506000926001600160a01b0390921691634d62283191600480820192602092909190829003018186803b158015611f1757600080fd5b505afa158015611f2b573d6000803e3d6000fd5b505050506040513d6020811015611f4157600080fd5b505160685460408051630d293c7160e41b81526001600160a01b038085166004830152602482018790529151939450600093919092169163d293c710916044808301926020929190829003018186803b158015611f9d57600080fd5b505afa158015611fb1573d6000803e3d6000fd5b505050506040513d6020811015611fc757600080fd5b50519050670f43fc2c04ee00008110156120125760405162461bcd60e51b8152600401808060200182810382526044815260200180613cf26044913960600191505060405180910390fd5b505050565b600081116120565760405162461bcd60e51b8152600401808060200182810382526030815260200180613ca26030913960400191505060405180910390fd5b50565b6000816001600160a01b0316632eee8bc96040518163ffffffff1660e01b8152600401602060405180830381600087803b15801561209657600080fd5b505af11580156120aa573d6000803e3d6000fd5b505050506040513d60208110156120c057600080fd5b5051905061102681613403565b60008183106120dc5781610b24565b5090919050565b6001600160a01b038116156121af5760006120fd82610d61565b9050836001600160a01b0316638352d63683836040518363ffffffff1660e01b815260040180836001600160a01b0316815260200182815260200192505050600060405180830381600087803b15801561215657600080fd5b505af115801561216a573d6000803e3d6000fd5b50506040805184815290516001600160a01b03861693507fc3c43b5355673e1ea1a83122d1de4fde0584a9e8796843b3b7b33ed9b1aece0292509081900360200190a2505b60006121ba83610b2d565b9050836001600160a01b0316638352d63684836040518363ffffffff1660e01b815260040180836001600160a01b0316815260200182815260200192505050600060405180830381600087803b15801561221357600080fd5b505af1158015612227573d6000803e3d6000fd5b50506040805184815290516001600160a01b03871693507fe57aace4a327c35eab9346657e77499888878556a925f2b460c3f1ce23b093f792509081900360200190a250505050565b6001600160a01b038216600090815260716020526040902081905580612300576001600160a01b0382166000818152607260209081526040808320838155600181018490556002810184905560030183905580518381529182019290925281517fbb1322f85cc7cc8bac4e172a5bc5dcc0c1959007f9a030032abf9258205f0e45929181900390910190a2611026565b6074546073546001600160801b03600160801b80840482166000818152607660209081526040808320978616808452978252808320546001600160a01b038b168085526072845293829020600181018990556002810182905560030180546001600160801b0319168a17909716958502959095179095558451868152908101849052845192959491927fbb1322f85cc7cc8bac4e172a5bc5dcc0c1959007f9a030032abf9258205f0e45929181900390910190a2505050505050565b806123c657611026565b60695460408051631062c15f60e11b81523060048201526001600160a01b03858116602483015260448201859052915191909216916320c582be91606480830192600092919082900301818387803b15801561242157600080fd5b505af1158015612435573d6000803e3d6000fd5b5050505061102681613518565b6001600160a01b0382166000908152606e60205260409020819055806124f0576001600160a01b0382166000818152606e60209081526040808320600190810180546001600160a01b0319169055606f83528184208481559081018490556002810184905560030183905580518381529182018390528181019290925290517f2d6cc0bcdf72c9486f6451bde6b80f44066f4558f77f44dbfedbe7d8b295225a9181900360600190a2611026565b6074546073546001600160801b03600160801b8084048216600081815260756020908152604080832097861680845297825280832054848452607683528184208985528352818420546001600160a01b038c16808652606f855294839020600181018a90558281556002810182905560030180546001600160801b0319168b179098169686029690961790965580518781529182018690528181018590525192959493927f2d6cc0bcdf72c9486f6451bde6b80f44066f4558f77f44dbfedbe7d8b295225a916060908290030190a250505050505050565b806125d257612056565b606c546000906125e29083611dfd565b606c819055604080518281529051919250600080516020613af8833981519152919081900360200190a1604080513381526020810184905281517f3b2482b1bf6e751427503c9a8bf79e4dba3e6519259e2220428c2f326cc79c14929181900390910190a1604051600090339084908381818185875af1925050503d8060008114612689576040519150601f19603f3d011682016040523d82523d6000602084013e61268e565b606091505b50509050806120125760405162461bcd60e51b8152600401808060200182810382526021815260200180613c126021913960400191505060405180910390fd5b6068546001600160a01b03163314610ac85760405162461bcd60e51b8152600401808060200182810382526029815260200180613a576029913960400191505060405180910390fd5b600080600061274360785461273d670de0b6b3a764000089611c4d90919063ffffffff16565b90610aca565b90508385111561274f57fe5b8385141561276c576000607955670de0b6b3a764000091506127b4565b60795460009061278e9061278888670de0b6b3a7640000611c4d565b90611dfd565b905061279f600161273d8388611ca6565b92506127af816127888588611c4d565b607955505b6127be8185611ca6565b92506127d46127cd8486611c4d565b8290611dfd565b60785550935093915050565b6073546000670de0b6b3a76400008311156127f757fe5b600061280b670de0b6b3a764000085611dfd565b6074546001600160801b03600160801b82048116600081815260756020908152604080832094909516808352939052928320549394509092909161284f8988611c4d565b9050600061285d8383610aca565b6001600160801b038086166000818152607560209081526040808320948b16808452948252918290208590558151858152908101929092528181019290925290519192507fe12e2cd2c9afa8069203ca07e7eff1edce4a075686d0736a8e7e0d593597b207919081900360600190a18561298e576128e56001600160801b0385166001613360565b607480546001600160801b03908116600160801b938216840217918290556040805193909204168252517fb50f0f59e7cb5b421dc77581c3a9919e3806e076e5fa78a874c3f120cb7d874d916020908290030190a1607480546001600160801b0319169055604080516000815290517f1f9dfc70cd666adb18a39d60a797518f7b4febf4b6e24ef37d44f6e1e7219fbe9181900360200190a1670de0b6b3a76400009650612a5c565b633b9aca006129a9670de0b6b3a7640000610c288b8a611c4d565b1015612a43576129d3670de0b6b3a7640000610c28633b9aca006129cd8c8b611c4d565b90611c4d565b96506129e96001600160801b0386166001613360565b607480546001600160801b0319166001600160801b0392831617908190556040805191909216815290517f1f9dfc70cd666adb18a39d60a797518f7b4febf4b6e24ef37d44f6e1e7219fbe916020908290030190a1612a5c565b612a59670de0b6b3a7640000610c288a89611c4d565b96505b60008711612a6657fe5b60738790556040805188815290517fc1a9618cb59ebca77cbdbc2949f126823c407ff13edb285fd0262519a9c18e8c9181900360200190a150505050505050505050565b6000805460408051632a7ba1f760e01b81526004810185905290516001600160a01b03909216928392632a7ba1f792602480820193929182900301818387803b158015612af657600080fd5b505af1158015612b0a573d6000803e3d6000fd5b50505050612b1782613518565b60695460408051632770a7eb60e21b81523060048201526024810185905290516001600160a01b0390921691639dc29fac9160448082019260009290919082900301818387803b158015612b6a57600080fd5b505af1158015612b7e573d6000803e3d6000fd5b505060408051628063a560e01b81523060048201526024810187905290516001600160a01b0385169350628063a59250604480830192600092919082900301818387803b158015612bce57600080fd5b505af1158015612be2573d6000803e3d6000fd5b50505050505050565b6000612bf630613568565b15905090565b600254600160a81b900460ff1680612c175750612c17612beb565b80612c2c5750600254600160a01b900460ff16155b612c675760405162461bcd60e51b815260040180806020018281038252602e815260200180613a09602e913960400191505060405180910390fd5b600254600160a81b900460ff16158015612c9e576002805460ff60a01b1960ff60a81b19909116600160a81b1716600160a01b1790555b612ca661356e565b612cae613625565b8015612056576002805460ff60a81b1916905550565b612ccd87613723565b612cd686613723565b612cdf85613723565b612ce884613723565b612cf183613723565b612cfa82613723565b612d0381613723565b612d0c8661377e565b606780546001600160a01b03199081166001600160a01b038a81169182179093556068805483168a8516179055600080548316898516179055606980548316888516179055606a80548316878516179055600280548316868516179055606b805490921692841692909217905560408051918252517f3ca631ffcd2a9b5d9ae18543fc82f58eb4ca33af9e6ab01b7a8e95331e6ed985916020908290030190a1604080516001600160a01b038816815290517f143219c9e69b09e07e095fcc889b43d8f46ca892bba65f08dc3a0050869a56789181900360200190a1604080516001600160a01b038716815290517f78f058b189175430c48dc02699e3a0031ea4ff781536dc2fab847de4babdd8829181900360200190a1604080516001600160a01b038616815290517f112220fa8dbe96141556e0dc3d74dd95075b323f4f297616048e02d82d7017159181900360200190a1604080516001600160a01b038516815290517f65f4cf077bc01e4742eb5ad98326f6e95b63548ea24b17f8d5e823111fe788009181900360200190a1604080516001600160a01b038416815290517f8c537274438aa850a330284665d81a85dd38267d09e4050d416bfc94142db2649181900360200190a1604080516001600160a01b038316815290517f3055265812fb8447b9ada4a5d804ec43bd528ec40e89c952bbc7b85dc5ac68119181900360200190a150505050505050565b6001600160a01b03811660009081526070602052604090206001015460ff16156120565760405162461bcd60e51b8152600401808060200182810382526039815260200180613bb16039913960400191505060405180910390fd5b6001600160a01b0381166000908152606e602052604090205480156110265760405162461bcd60e51b8152600401808060200182810382526028815260200180613bea6028913960400191505060405180910390fd5b670de0b6b3a76400008111156120565760405162461bcd60e51b8152600401808060200182810382526033815260200180613b186033913960400191505060405180910390fd5b6001600160a01b03811660009081526070602052604090206001015460ff168061304657506001600160a01b038116155b6120565760405162461bcd60e51b815260040180806020018281038252604681526020018061399c6046913960600191505060405180910390fd5b600081116120565760405162461bcd60e51b8152600401808060200182810382526026815260200180613b6b6026913960400191505060405180910390fd5b6001600160a01b038281166000818152606e602052604080822060010180546001600160a01b0319169486169485179055517f094c08e96a8890877a8390b4f967180a7507ad8622244d05fcd0f9f8e086564e9190a35050565b60695460408051632ee65eeb60e21b81526001600160a01b038581166004830152306024830152604482018590529151919092169163bb997bac91606480830192600092919082900301818387803b15801561317557600080fd5b505af1158015613189573d6000803e3d6000fd5b5050606d546000925061319d915083610aca565b606d8190556040805182815290519192507f8c9268469ff6265448f46f8119962e815f393b25b87bb55bda5e709a412b85d7919081900360200190a1505050565b3390565b606854604080516321e3780160e01b81526001600160a01b038481166004830152915191909216916321e37801916024808301926020929190829003018186803b15801561322f57600080fd5b505afa158015613243573d6000803e3d6000fd5b505050506040513d602081101561325957600080fd5b50516001146120565760405162461bcd60e51b8152600401808060200182810382526046815260200180613c336046913960600191505060405180910390fd5b60006132a48261190c565b9050600081116110265760405162461bcd60e51b8152600401808060200182810382526031815260200180613a806031913960400191505060405180910390fd5b6080810151606082015182516020808501516001600160801b0380861660009081526075845260408082209287168252919093528220549194939291859061332d9084611dfd565b6001600160801b03808716600090815260756020526040812092935091611c1991633b9aca0091908490611bf9908a1660015b60008282016001600160801b038085169082161015610b245760405162461bcd60e51b8152600401808060200182810382526026815260200180613ab16026913960400191505060405180910390fd5b6000826001600160801b0316826001600160801b03161115611e545760405162461bcd60e51b8152600401808060200182810382526029815260200180613c796029913960400191505060405180910390fd5b606d54801580613411575081155b1561341c5750612056565b60006134288383613922565b9050600061344160735483611c4d90919063ffffffff16565b6074546001600160801b03600160801b82048116600090815260766020908152604080832093909416825291909152205490915061347f9082610aca565b607480546001600160801b03600160801b808304821660009081526076602081815260408084209686168452958152858320979097559454918204831680825294865283812091909216808352908552908290205482519081529384019290925282810191909152517f2d6127771b164a9cc8827d24b5955db2a77e7a81dac389107ebb8bce9fb649689181900360600190a150505050565b606d546000906135289083611dfd565b606d8190556040805182815290519192507f8c9268469ff6265448f46f8119962e815f393b25b87bb55bda5e709a412b85d7919081900360200190a15050565b3b151590565b600254600160a81b900460ff16806135895750613589612beb565b8061359e5750600254600160a01b900460ff16155b6135d95760405162461bcd60e51b815260040180806020018281038252602e815260200180613a09602e913960400191505060405180910390fd5b600254600160a81b900460ff16158015612cae576002805460ff60a01b1960ff60a81b19909116600160a81b1716600160a01b1790558015612056576002805460ff60a81b1916905550565b600254600160a81b900460ff16806136405750613640612beb565b806136555750600254600160a01b900460ff16155b6136905760405162461bcd60e51b815260040180806020018281038252602e815260200180613a09602e913960400191505060405180910390fd5b600254600160a81b900460ff161580156136c7576002805460ff60a01b1960ff60a81b19909116600160a81b1716600160a01b1790555b60006136d16131de565b603580546001600160a01b0319166001600160a01b03831690811790915560405191925090600090600080516020613b4b833981519152908290a3508015612056576002805460ff60a81b1916905550565b6001600160a01b038116612056576040805162461bcd60e51b815260206004820152601e60248201527f4163636f756e742063616e6e6f74206265207a65726f20616464726573730000604482015290519081900360640190fd5b7f0000000000000000000000000000000000000000000000000000000000000000816001600160a01b031663139f2e8c6040518163ffffffff1660e01b815260040160206040518083038186803b1580156137d857600080fd5b505afa1580156137ec573d6000803e3d6000fd5b505050506040513d602081101561380257600080fd5b505114613852576040805162461bcd60e51b815260206004820152601960248201527808e82a6be869e9aa08a9ca682a8929e9c40dad2e6dac2e8c6d603b1b604482015290519081900360640190fd5b7f0000000000000000000000000000000000000000000000000000000000000000816001600160a01b0316631bf435556040518163ffffffff1660e01b815260040160206040518083038186803b1580156138ac57600080fd5b505afa1580156138c0573d6000803e3d6000fd5b505050506040513d60208110156138d657600080fd5b505114612056576040805162461bcd60e51b815260206004820152601560248201527409a929cbe9c8aa8be888a84a840dad2e6dac2e8c6d605b1b604482015290519081900360640190fd5b60008061394660775461273d670de0b6b3a764000087611c4d90919063ffffffff16565b905060006139548285611ca6565b905061396a6139638286611c4d565b8390611dfd565b60775594935050505056fe4f776e61626c653a206e6577206f776e657220697320746865207a65726f206164647265737353746162696c697479506f6f6c3a20546167206d757374206265206120726567697374657265642066726f6e7420656e642c206f7220746865207a65726f206164647265737353746162696c697479506f6f6c3a2043616c6c6572206973206e6f7420416374697665506f6f6c496e697469616c697a61626c653a20636f6e747261637420697320616c726561647920696e697469616c697a6564bce78369dccab09eec1986f4d409ab09ffbb47d65423e5148fcf98411c5111c953746162696c697479506f6f6c3a2043616c6c6572206973206e6f742054726f76654d616e6167657253746162696c697479506f6f6c3a2063616c6c6572206d7573742068617665206e6f6e2d7a65726f2046494c204761696e50726f746f636f6c536166654d6174683132383a206164646974696f6e206f766572666c6f77536166654d6174683a206d756c7469706c69636174696f6e206f766572666c6f77d05c60ff21c33fb1103e848d5310f11270e7db91e1b079c4bdd0c6024f83d6c753746162696c697479506f6f6c3a204b69636b6261636b2072617465206d75737420626520696e2072616e6765205b302c315d8be0079c531659141344cd1fd0a4f28419497f9722a3daafe3b4186f6b6457e053746162696c697479506f6f6c3a20416d6f756e74206d757374206265206e6f6e2d7a65726f69e8bca5591c9a2886b122cc27d391b407b746b724f75b996c37903b868c449753746162696c697479506f6f6c3a206d757374206e6f7420616c7265616479206265206120726567697374657265642066726f6e7420656e6453746162696c697479506f6f6c3a2055736572206d7573742068617665206e6f206465706f73697453746162696c697479506f6f6c3a2073656e64696e672046494c206661696c656453746162696c697479506f6f6c3a2063616c6c6572206d757374206861766520616e206163746976652074726f766520746f2077697468647261772046494c4761696e20746f50726f746f636f6c536166654d6174683132383a207375627472616374696f6e206f766572666c6f7753746162696c697479506f6f6c3a2055736572206d75737420686176652061206e6f6e2d7a65726f206465706f73697499920012339b5a3368d3a04b8606ce412c46ed92b7dcd8602d41fc8862cb8f2553746162696c697479506f6f6c3a2043616e6e6f74207769746864726177207768696c65207468657265206172652074726f766573207769746820494352203c204d4352a2646970667358221220e621d0e6ecfebb8d0a35093c75f13b3d40501ab4e2b2a2e2e4cf455f012fa42364736f6c63430007060033",
  "linkReferences": {},
  "deployedLinkReferences": {}
}