{
  "_format": "hh-sol-artifact-1",
  "contractName": "StabilityPoolTester",
  "sourceName": "contracts/TestContracts/StabilityPoolTester.sol",
  "abi": [
    {
      "inputs": [
        {
          "internalType": "uint256",
          "name": "_gasCompensation",
          "type": "uint256"
        },
        {
          "internalType": "uint256",
          "name": "_minNetDebt",
          "type": "uint256"
        }
      ],
      "stateMutability": "nonpayable",
      "type": "constructor"
    },
    {
      "anonymous": false,
      "inputs": [
        {
          "indexed": false,
          "internalType": "address",
          "name": "_newActivePoolAddress",
          "type": "address"
        }
      ],
      "name": "ActivePoolAddressChanged",
      "type": "event"
    },
    {
      "anonymous": false,
      "inputs": [
        {
          "indexed": false,
          "internalType": "address",
          "name": "_newBorrowerOperationsAddress",
          "type": "address"
        }
      ],
      "name": "BorrowerOperationsAddressChanged",
      "type": "event"
    },
    {
      "anonymous": false,
      "inputs": [
        {
          "indexed": false,
          "internalType": "address",
          "name": "_newCommunityIssuanceAddress",
          "type": "address"
        }
      ],
      "name": "CommunityIssuanceAddressChanged",
      "type": "event"
    },
    {
      "anonymous": false,
      "inputs": [
        {
          "indexed": false,
          "internalType": "address",
          "name": "_newDebtTokenAddress",
          "type": "address"
        }
      ],
      "name": "DebtTokenAddressChanged",
      "type": "event"
    },
    {
      "anonymous": false,
      "inputs": [
        {
          "indexed": false,
          "internalType": "address",
          "name": "_newDefaultPoolAddress",
          "type": "address"
        }
      ],
      "name": "DefaultPoolAddressChanged",
      "type": "event"
    },
    {
      "anonymous": false,
      "inputs": [
        {
          "indexed": true,
          "internalType": "address",
          "name": "_depositor",
          "type": "address"
        },
        {
          "indexed": false,
          "internalType": "uint256",
          "name": "_P",
          "type": "uint256"
        },
        {
          "indexed": false,
          "internalType": "uint256",
          "name": "_S",
          "type": "uint256"
        },
        {
          "indexed": false,
          "internalType": "uint256",
          "name": "_G",
          "type": "uint256"
        }
      ],
      "name": "DepositSnapshotUpdated",
      "type": "event"
    },
    {
      "anonymous": false,
      "inputs": [
        {
          "indexed": false,
          "internalType": "uint128",
          "name": "_currentEpoch",
          "type": "uint128"
        }
      ],
      "name": "EpochUpdated",
      "type": "event"
    },
    {
      "anonymous": false,
      "inputs": [
        {
          "indexed": true,
          "internalType": "address",
          "name": "_depositor",
          "type": "address"
        },
        {
          "indexed": false,
          "internalType": "uint256",
          "name": "_FIL",
          "type": "uint256"
        },
        {
          "indexed": false,
          "internalType": "uint256",
          "name": "_debtTokenLoss",
          "type": "uint256"
        }
      ],
      "name": "FILGainWithdrawn",
      "type": "event"
    },
    {
      "anonymous": false,
      "inputs": [
        {
          "indexed": false,
          "internalType": "address",
          "name": "_to",
          "type": "address"
        },
        {
          "indexed": false,
          "internalType": "uint256",
          "name": "_amount",
          "type": "uint256"
        }
      ],
      "name": "FILSent",
      "type": "event"
    },
    {
      "anonymous": false,
      "inputs": [
        {
          "indexed": true,
          "internalType": "address",
          "name": "_frontEnd",
          "type": "address"
        },
        {
          "indexed": false,
          "internalType": "uint256",
          "name": "_kickbackRate",
          "type": "uint256"
        }
      ],
      "name": "FrontEndRegistered",
      "type": "event"
    },
    {
      "anonymous": false,
      "inputs": [
        {
          "indexed": true,
          "internalType": "address",
          "name": "_frontEnd",
          "type": "address"
        },
        {
          "indexed": false,
          "internalType": "uint256",
          "name": "_P",
          "type": "uint256"
        },
        {
          "indexed": false,
          "internalType": "uint256",
          "name": "_G",
          "type": "uint256"
        }
      ],
      "name": "FrontEndSnapshotUpdated",
      "type": "event"
    },
    {
      "anonymous": false,
      "inputs": [
        {
          "indexed": true,
          "internalType": "address",
          "name": "_frontEnd",
          "type": "address"
        },
        {
          "indexed": false,
          "internalType": "uint256",
          "name": "_newFrontEndStake",
          "type": "uint256"
        },
        {
          "indexed": false,
          "internalType": "address",
          "name": "_depositor",
          "type": "address"
        }
      ],
      "name": "FrontEndStakeChanged",
      "type": "event"
    },
    {
      "anonymous": false,
      "inputs": [
        {
          "indexed": true,
          "internalType": "address",
          "name": "_depositor",
          "type": "address"
        },
        {
          "indexed": true,
          "internalType": "address",
          "name": "_frontEnd",
          "type": "address"
        }
      ],
      "name": "FrontEndTagSet",
      "type": "event"
    },
    {
      "anonymous": false,
      "inputs": [
        {
          "indexed": false,
          "internalType": "uint256",
          "name": "_G",
          "type": "uint256"
        },
        {
          "indexed": false,
          "internalType": "uint128",
          "name": "_epoch",
          "type": "uint128"
        },
        {
          "indexed": false,
          "internalType": "uint128",
          "name": "_scale",
          "type": "uint128"
        }
      ],
      "name": "G_Updated",
      "type": "event"
    },
    {
      "anonymous": false,
      "inputs": [
        {
          "indexed": true,
          "internalType": "address",
          "name": "previousOwner",
          "type": "address"
        },
        {
          "indexed": true,
          "internalType": "address",
          "name": "newOwner",
          "type": "address"
        }
      ],
      "name": "OwnershipTransferred",
      "type": "event"
    },
    {
      "anonymous": false,
      "inputs": [
        {
          "indexed": false,
          "internalType": "uint256",
          "name": "_P",
          "type": "uint256"
        }
      ],
      "name": "P_Updated",
      "type": "event"
    },
    {
      "anonymous": false,
      "inputs": [
        {
          "indexed": false,
          "internalType": "address",
          "name": "_newPriceFeedAddress",
          "type": "address"
        }
      ],
      "name": "PriceFeedAddressChanged",
      "type": "event"
    },
    {
      "anonymous": false,
      "inputs": [
        {
          "indexed": true,
          "internalType": "address",
          "name": "_depositor",
          "type": "address"
        },
        {
          "indexed": false,
          "internalType": "uint256",
          "name": "_protocolToken",
          "type": "uint256"
        }
      ],
      "name": "ProtocolTokenPaidToDepositor",
      "type": "event"
    },
    {
      "anonymous": false,
      "inputs": [
        {
          "indexed": true,
          "internalType": "address",
          "name": "_frontEnd",
          "type": "address"
        },
        {
          "indexed": false,
          "internalType": "uint256",
          "name": "_protocolToken",
          "type": "uint256"
        }
      ],
      "name": "ProtocolTokenPaidToFrontEnd",
      "type": "event"
    },
    {
      "anonymous": false,
      "inputs": [
        {
          "indexed": false,
          "internalType": "uint256",
          "name": "_S",
          "type": "uint256"
        },
        {
          "indexed": false,
          "internalType": "uint128",
          "name": "_epoch",
          "type": "uint128"
        },
        {
          "indexed": false,
          "internalType": "uint128",
          "name": "_scale",
          "type": "uint128"
        }
      ],
      "name": "S_Updated",
      "type": "event"
    },
    {
      "anonymous": false,
      "inputs": [
        {
          "indexed": false,
          "internalType": "uint128",
          "name": "_currentScale",
          "type": "uint128"
        }
      ],
      "name": "ScaleUpdated",
      "type": "event"
    },
    {
      "anonymous": false,
      "inputs": [
        {
          "indexed": false,
          "internalType": "address",
          "name": "_newSortedTrovesAddress",
          "type": "address"
        }
      ],
      "name": "SortedTrovesAddressChanged",
      "type": "event"
    },
    {
      "anonymous": false,
      "inputs": [
        {
          "indexed": false,
          "internalType": "uint256",
          "name": "_newBalance",
          "type": "uint256"
        }
      ],
      "name": "StabilityPoolDebtTokenBalanceUpdated",
      "type": "event"
    },
    {
      "anonymous": false,
      "inputs": [
        {
          "indexed": false,
          "internalType": "uint256",
          "name": "_newBalance",
          "type": "uint256"
        }
      ],
      "name": "StabilityPoolFILBalanceUpdated",
      "type": "event"
    },
    {
      "anonymous": false,
      "inputs": [
        {
          "indexed": false,
          "internalType": "address",
          "name": "_newTroveManagerAddress",
          "type": "address"
        }
      ],
      "name": "TroveManagerAddressChanged",
      "type": "event"
    },
    {
      "anonymous": false,
      "inputs": [
        {
          "indexed": true,
          "internalType": "address",
          "name": "_depositor",
          "type": "address"
        },
        {
          "indexed": false,
          "internalType": "uint256",
          "name": "_newDeposit",
          "type": "uint256"
        }
      ],
      "name": "UserDepositChanged",
      "type": "event"
    },
    {
      "inputs": [],
      "name": "BORROWING_FEE_FLOOR",
      "outputs": [
        {
          "internalType": "uint256",
          "name": "",
          "type": "uint256"
        }
      ],
      "stateMutability": "view",
      "type": "function"
    },
    {
      "inputs": [],
      "name": "CCR",
      "outputs": [
        {
          "internalType": "uint256",
          "name": "",
          "type": "uint256"
        }
      ],
      "stateMutability": "view",
      "type": "function"
    },
    {
      "inputs": [],
      "name": "DECIMAL_PRECISION",
      "outputs": [
        {
          "internalType": "uint256",
          "name": "",
          "type": "uint256"
        }
      ],
      "stateMutability": "view",
      "type": "function"
    },
    {
      "inputs": [],
      "name": "GAS_COMPENSATION",
      "outputs": [
        {
          "internalType": "uint256",
          "name": "",
          "type": "uint256"
        }
      ],
      "stateMutability": "view",
      "type": "function"
    },
    {
      "inputs": [],
      "name": "MCR",
      "outputs": [
        {
          "internalType": "uint256",
          "name": "",
          "type": "uint256"
        }
      ],
      "stateMutability": "view",
      "type": "function"
    },
    {
      "inputs": [],
      "name": "MIN_NET_DEBT",
      "outputs": [
        {
          "internalType": "uint256",
          "name": "",
          "type": "uint256"
        }
      ],
      "stateMutability": "view",
      "type": "function"
    },
    {
      "inputs": [],
      "name": "NAME",
      "outputs": [
        {
          "internalType": "string",
          "name": "",
          "type": "string"
        }
      ],
      "stateMutability": "view",
      "type": "function"
    },
    {
      "inputs": [],
      "name": "P",
      "outputs": [
        {
          "internalType": "uint256",
          "name": "",
          "type": "uint256"
        }
      ],
      "stateMutability": "view",
      "type": "function"
    },
    {
      "inputs": [],
      "name": "PERCENT_DIVISOR",
      "outputs": [
        {
          "internalType": "uint256",
          "name": "",
          "type": "uint256"
        }
      ],
      "stateMutability": "view",
      "type": "function"
    },
    {
      "inputs": [],
      "name": "SCALE_FACTOR",
      "outputs": [
        {
          "internalType": "uint256",
          "name": "",
          "type": "uint256"
        }
      ],
      "stateMutability": "view",
      "type": "function"
    },
    {
      "inputs": [],
      "name": "_100pct",
      "outputs": [
        {
          "internalType": "uint256",
          "name": "",
          "type": "uint256"
        }
      ],
      "stateMutability": "view",
      "type": "function"
    },
    {
      "inputs": [],
      "name": "activePool",
      "outputs": [
        {
          "internalType": "contract IActivePool",
          "name": "",
          "type": "address"
        }
      ],
      "stateMutability": "view",
      "type": "function"
    },
    {
      "inputs": [],
      "name": "borrowerOperations",
      "outputs": [
        {
          "internalType": "contract IBorrowerOperations",
          "name": "",
          "type": "address"
        }
      ],
      "stateMutability": "view",
      "type": "function"
    },
    {
      "inputs": [],
      "name": "communityIssuance",
      "outputs": [
        {
          "internalType": "contract ICommunityIssuance",
          "name": "",
          "type": "address"
        }
      ],
      "stateMutability": "view",
      "type": "function"
    },
    {
      "inputs": [],
      "name": "currentEpoch",
      "outputs": [
        {
          "internalType": "uint128",
          "name": "",
          "type": "uint128"
        }
      ],
      "stateMutability": "view",
      "type": "function"
    },
    {
      "inputs": [],
      "name": "currentScale",
      "outputs": [
        {
          "internalType": "uint128",
          "name": "",
          "type": "uint128"
        }
      ],
      "stateMutability": "view",
      "type": "function"
    },
    {
      "inputs": [],
      "name": "debtToken",
      "outputs": [
        {
          "internalType": "contract IDebtToken",
          "name": "",
          "type": "address"
        }
      ],
      "stateMutability": "view",
      "type": "function"
    },
    {
      "inputs": [],
      "name": "defaultPool",
      "outputs": [
        {
          "internalType": "contract IDefaultPool",
          "name": "",
          "type": "address"
        }
      ],
      "stateMutability": "view",
      "type": "function"
    },
    {
      "inputs": [
        {
          "internalType": "address",
          "name": "",
          "type": "address"
        }
      ],
      "name": "depositSnapshots",
      "outputs": [
        {
          "internalType": "uint256",
          "name": "S",
          "type": "uint256"
        },
        {
          "internalType": "uint256",
          "name": "P",
          "type": "uint256"
        },
        {
          "internalType": "uint256",
          "name": "G",
          "type": "uint256"
        },
        {
          "internalType": "uint128",
          "name": "scale",
          "type": "uint128"
        },
        {
          "internalType": "uint128",
          "name": "epoch",
          "type": "uint128"
        }
      ],
      "stateMutability": "view",
      "type": "function"
    },
    {
      "inputs": [
        {
          "internalType": "address",
          "name": "",
          "type": "address"
        }
      ],
      "name": "deposits",
      "outputs": [
        {
          "internalType": "uint256",
          "name": "initialValue",
          "type": "uint256"
        },
        {
          "internalType": "address",
          "name": "frontEndTag",
          "type": "address"
        }
      ],
      "stateMutability": "view",
      "type": "function"
    },
    {
      "inputs": [
        {
          "internalType": "uint128",
          "name": "",
          "type": "uint128"
        },
        {
          "internalType": "uint128",
          "name": "",
          "type": "uint128"
        }
      ],
      "name": "epochToScaleToG",
      "outputs": [
        {
          "internalType": "uint256",
          "name": "",
          "type": "uint256"
        }
      ],
      "stateMutability": "view",
      "type": "function"
    },
    {
      "inputs": [
        {
          "internalType": "uint128",
          "name": "",
          "type": "uint128"
        },
        {
          "internalType": "uint128",
          "name": "",
          "type": "uint128"
        }
      ],
      "name": "epochToScaleToSum",
      "outputs": [
        {
          "internalType": "uint256",
          "name": "",
          "type": "uint256"
        }
      ],
      "stateMutability": "view",
      "type": "function"
    },
    {
      "inputs": [
        {
          "internalType": "address",
          "name": "",
          "type": "address"
        }
      ],
      "name": "frontEndSnapshots",
      "outputs": [
        {
          "internalType": "uint256",
          "name": "S",
          "type": "uint256"
        },
        {
          "internalType": "uint256",
          "name": "P",
          "type": "uint256"
        },
        {
          "internalType": "uint256",
          "name": "G",
          "type": "uint256"
        },
        {
          "internalType": "uint128",
          "name": "scale",
          "type": "uint128"
        },
        {
          "internalType": "uint128",
          "name": "epoch",
          "type": "uint128"
        }
      ],
      "stateMutability": "view",
      "type": "function"
    },
    {
      "inputs": [
        {
          "internalType": "address",
          "name": "",
          "type": "address"
        }
      ],
      "name": "frontEndStakes",
      "outputs": [
        {
          "internalType": "uint256",
          "name": "",
          "type": "uint256"
        }
      ],
      "stateMutability": "view",
      "type": "function"
    },
    {
      "inputs": [
        {
          "internalType": "address",
          "name": "",
          "type": "address"
        }
      ],
      "name": "frontEnds",
      "outputs": [
        {
          "internalType": "uint256",
          "name": "kickbackRate",
          "type": "uint256"
        },
        {
          "internalType": "bool",
          "name": "registered",
          "type": "bool"
        }
      ],
      "stateMutability": "view",
      "type": "function"
    },
    {
      "inputs": [
        {
          "internalType": "address",
          "name": "_depositor",
          "type": "address"
        }
      ],
      "name": "getCompoundedDebtTokenDeposit",
      "outputs": [
        {
          "internalType": "uint256",
          "name": "",
          "type": "uint256"
        }
      ],
      "stateMutability": "view",
      "type": "function"
    },
    {
      "inputs": [
        {
          "internalType": "address",
          "name": "_frontEnd",
          "type": "address"
        }
      ],
      "name": "getCompoundedFrontEndStake",
      "outputs": [
        {
          "internalType": "uint256",
          "name": "",
          "type": "uint256"
        }
      ],
      "stateMutability": "view",
      "type": "function"
    },
    {
      "inputs": [
        {
          "internalType": "address",
          "name": "_depositor",
          "type": "address"
        }
      ],
      "name": "getDepositorFILGain",
      "outputs": [
        {
          "internalType": "uint256",
          "name": "",
          "type": "uint256"
        }
      ],
      "stateMutability": "view",
      "type": "function"
    },
    {
      "inputs": [
        {
          "internalType": "address",
          "name": "_depositor",
          "type": "address"
        }
      ],
      "name": "getDepositorProtocolTokenGain",
      "outputs": [
        {
          "internalType": "uint256",
          "name": "",
          "type": "uint256"
        }
      ],
      "stateMutability": "view",
      "type": "function"
    },
    {
      "inputs": [],
      "name": "getEntireSystemColl",
      "outputs": [
        {
          "internalType": "uint256",
          "name": "entireSystemColl",
          "type": "uint256"
        }
      ],
      "stateMutability": "view",
      "type": "function"
    },
    {
      "inputs": [],
      "name": "getEntireSystemDebt",
      "outputs": [
        {
          "internalType": "uint256",
          "name": "entireSystemDebt",
          "type": "uint256"
        }
      ],
      "stateMutability": "view",
      "type": "function"
    },
    {
      "inputs": [],
      "name": "getFIL",
      "outputs": [
        {
          "internalType": "uint256",
          "name": "",
          "type": "uint256"
        }
      ],
      "stateMutability": "view",
      "type": "function"
    },
    {
      "inputs": [
        {
          "internalType": "address",
          "name": "_frontEnd",
          "type": "address"
        }
      ],
      "name": "getFrontEndProtocolTokenGain",
      "outputs": [
        {
          "internalType": "uint256",
          "name": "",
          "type": "uint256"
        }
      ],
      "stateMutability": "view",
      "type": "function"
    },
    {
      "inputs": [],
      "name": "getTotalDebtTokenDeposits",
      "outputs": [
        {
          "internalType": "uint256",
          "name": "",
          "type": "uint256"
        }
      ],
      "stateMutability": "view",
      "type": "function"
    },
    {
      "inputs": [],
      "name": "isOwner",
      "outputs": [
        {
          "internalType": "bool",
          "name": "",
          "type": "bool"
        }
      ],
      "stateMutability": "view",
      "type": "function"
    },
    {
      "inputs": [],
      "name": "lastDebtTokenLossError_Offset",
      "outputs": [
        {
          "internalType": "uint256",
          "name": "",
          "type": "uint256"
        }
      ],
      "stateMutability": "view",
      "type": "function"
    },
    {
      "inputs": [],
      "name": "lastFILError_Offset",
      "outputs": [
        {
          "internalType": "uint256",
          "name": "",
          "type": "uint256"
        }
      ],
      "stateMutability": "view",
      "type": "function"
    },
    {
      "inputs": [],
      "name": "lastProtocolTokenError",
      "outputs": [
        {
          "internalType": "uint256",
          "name": "",
          "type": "uint256"
        }
      ],
      "stateMutability": "view",
      "type": "function"
    },
    {
      "inputs": [
        {
          "internalType": "uint256",
          "name": "_debtToOffset",
          "type": "uint256"
        },
        {
          "internalType": "uint256",
          "name": "_collToAdd",
          "type": "uint256"
        }
      ],
      "name": "offset",
      "outputs": [],
      "stateMutability": "nonpayable",
      "type": "function"
    },
    {
      "inputs": [],
      "name": "owner",
      "outputs": [
        {
          "internalType": "address",
          "name": "",
          "type": "address"
        }
      ],
      "stateMutability": "view",
      "type": "function"
    },
    {
      "inputs": [],
      "name": "priceFeed",
      "outputs": [
        {
          "internalType": "contract IPriceFeed",
          "name": "",
          "type": "address"
        }
      ],
      "stateMutability": "view",
      "type": "function"
    },
    {
      "inputs": [
        {
          "internalType": "uint256",
          "name": "_amount",
          "type": "uint256"
        },
        {
          "internalType": "address",
          "name": "_frontEndTag",
          "type": "address"
        }
      ],
      "name": "provideToSP",
      "outputs": [],
      "stateMutability": "nonpayable",
      "type": "function"
    },
    {
      "inputs": [
        {
          "internalType": "uint256",
          "name": "_kickbackRate",
          "type": "uint256"
        }
      ],
      "name": "registerFrontEnd",
      "outputs": [],
      "stateMutability": "nonpayable",
      "type": "function"
    },
    {
      "inputs": [
        {
          "internalType": "address",
          "name": "_borrowerOperationsAddress",
          "type": "address"
        },
        {
          "internalType": "address",
          "name": "_troveManagerAddress",
          "type": "address"
        },
        {
          "internalType": "address",
          "name": "_activePoolAddress",
          "type": "address"
        },
        {
          "internalType": "address",
          "name": "_debtTokenAddress",
          "type": "address"
        },
        {
          "internalType": "address",
          "name": "_sortedTrovesAddress",
          "type": "address"
        },
        {
          "internalType": "address",
          "name": "_priceFeedAddress",
          "type": "address"
        },
        {
          "internalType": "address",
          "name": "_communityIssuanceAddress",
          "type": "address"
        }
      ],
      "name": "setAddresses",
      "outputs": [],
      "stateMutability": "nonpayable",
      "type": "function"
    },
    {
      "inputs": [
        {
          "internalType": "uint128",
          "name": "_currentScale",
          "type": "uint128"
        }
      ],
      "name": "setCurrentScale",
      "outputs": [],
      "stateMutability": "nonpayable",
      "type": "function"
    },
    {
      "inputs": [
        {
          "internalType": "uint256",
          "name": "_totalDebtTokenDeposits",
          "type": "uint256"
        }
      ],
      "name": "setTotalDeposits",
      "outputs": [],
      "stateMutability": "nonpayable",
      "type": "function"
    },
    {
      "inputs": [],
      "name": "sortedTroves",
      "outputs": [
        {
          "internalType": "contract ISortedTroves",
          "name": "",
          "type": "address"
        }
      ],
      "stateMutability": "view",
      "type": "function"
    },
    {
      "inputs": [],
      "name": "troveManager",
      "outputs": [
        {
          "internalType": "contract ITroveManager",
          "name": "",
          "type": "address"
        }
      ],
      "stateMutability": "view",
      "type": "function"
    },
    {
      "inputs": [],
      "name": "unprotectedPayable",
      "outputs": [],
      "stateMutability": "payable",
      "type": "function"
    },
    {
      "inputs": [
        {
          "internalType": "address",
          "name": "_upperHint",
          "type": "address"
        },
        {
          "internalType": "address",
          "name": "_lowerHint",
          "type": "address"
        }
      ],
      "name": "withdrawFILGainToTrove",
      "outputs": [],
      "stateMutability": "nonpayable",
      "type": "function"
    },
    {
      "inputs": [
        {
          "internalType": "uint256",
          "name": "_amount",
          "type": "uint256"
        }
      ],
      "name": "withdrawFromSP",
      "outputs": [],
      "stateMutability": "nonpayable",
      "type": "function"
    },
    {
      "stateMutability": "payable",
      "type": "receive"
    }
  ],
  "bytecode": "0x60c0604052670de0b6b3a764000060105534801561001c57600080fd5b50604051613b00380380613b008339818101604052604081101561003f57600080fd5b508051602090910151608082905260a0819052600380546001600160a01b03191633908117909155604051839183916000907f8be0079c531659141344cd1fd0a4f28419497f9722a3daafe3b4186f6b6457e0908290a35050505060805160a051613a396100c760003980610d9b5280613242525080610d3c528061316e5250613a396000f3fe6080604052600436106102b85760003560e01c80637f7dde4a11610170578063a7bfff97116100cc578063df9cd84f11610085578063df9cd84f146109a8578063eaa8ba7f146109db578063f3af7c3b14610a40578063f8225a1014610a48578063f8d8989814610a5d578063f92d343314610a72578063fc7e286d14610a87576102f9565b8063a7bfff97146108c0578063ae9187541461090c578063ba9c748514610921578063c5c3937e1461094b578063ce4b5bbe14610960578063dae4f5ff14610975576102f9565b80638f32d59b116101295780638f32d59b1461079357806395ca53be146107bc57806395fb16bb146107f7578063a20baee614610637578063a3f4df7e1461080c578063a4e59ac814610896578063a7a48884146108ab576102f9565b80637f7dde4a146106d157806382e0a574146106e657806386da082414610721578063887105d3146107545780638b8fbd92146107695780638da5cb5b1461077e576102f9565b80634870dd9a1161021f57806367e8fb20116101d857806367e8fb201461062257806372fe25aa14610637578063741bef1a1461064c578063766718081461066157806377553ad414610692578063794e5724146106a7578063795d26c3146106bc576102f9565b80634870dd9a1461052f57806350f592db14610544578063556be101146105775780635733d58f146105a15780635d2de642146105b65780635f788d65146105e9576102f9565b8063203aae0a11610271578063203aae0a1461041f57806328a0a04d146104525780632e54bf951461048d578063335525ad146104b95780633cc74225146104e95780633d83908a1461051a576102f9565b80630206d7b9146102fe5780630bdfe4e7146103435780630d9a6b3514610376578063139f2e8c1461038b57806316b9d3c5146103a05780631bf435551461040a576102f9565b366102f9576102c5610adb565b6009546102d29034610b26565b600981905560408051918252516000805160206137e68339815191529181900360200190a1005b600080fd5b34801561030a57600080fd5b506103316004803603602081101561032157600080fd5b50356001600160a01b0316610b89565b60408051918252519081900360200190f35b34801561034f57600080fd5b506103316004803603602081101561036657600080fd5b50356001600160a01b0316610c97565b34801561038257600080fd5b50610331610d34565b34801561039757600080fd5b50610331610d3a565b3480156103ac57600080fd5b506103d3600480360360208110156103c357600080fd5b50356001600160a01b0316610d5e565b604080519586526020860194909452848401929092526001600160801b039081166060850152166080830152519081900360a00190f35b34801561041657600080fd5b50610331610d99565b34801561042b57600080fd5b506103316004803603602081101561044257600080fd5b50356001600160a01b0316610dbd565b34801561045e57600080fd5b506103316004803603604081101561047557600080fd5b506001600160801b0381358116916020013516610e8e565b34801561049957600080fd5b506104b7600480360360208110156104b057600080fd5b5035610eab565b005b3480156104c557600080fd5b506104b7600480360360408110156104dc57600080fd5b5080359060200135611022565b3480156104f557600080fd5b506104fe611086565b604080516001600160a01b039092168252519081900360200190f35b34801561052657600080fd5b506104fe611095565b34801561053b57600080fd5b506103316110a4565b34801561055057600080fd5b506104b76004803603602081101561056757600080fd5b50356001600160801b03166110a9565b34801561058357600080fd5b506104b76004803603602081101561059a57600080fd5b50356110cb565b3480156105ad57600080fd5b50610331611140565b3480156105c257600080fd5b50610331600480360360208110156105d957600080fd5b50356001600160a01b031661114c565b3480156105f557600080fd5b506104b76004803603604081101561060c57600080fd5b50803590602001356001600160a01b031661115e565b34801561062e57600080fd5b506103316112cd565b34801561064357600080fd5b506103316112d3565b34801561065857600080fd5b506104fe6112df565b34801561066d57600080fd5b506106766112ee565b604080516001600160801b039092168252519081900360200190f35b34801561069e57600080fd5b506104fe611304565b3480156106b357600080fd5b50610331611313565b3480156106c857600080fd5b5061033161131f565b3480156106dd57600080fd5b506104fe61141a565b3480156106f257600080fd5b506103316004803603604081101561070957600080fd5b506001600160801b0381358116916020013516611429565b34801561072d57600080fd5b506103d36004803603602081101561074457600080fd5b50356001600160a01b0316611446565b34801561076057600080fd5b50610331611481565b34801561077557600080fd5b5061033161153d565b34801561078a57600080fd5b506104fe611543565b34801561079f57600080fd5b506107a8611552565b604080519115158252519081900360200190f35b3480156107c857600080fd5b506104b7600480360360408110156107df57600080fd5b506001600160a01b0381358116916020013516611563565b34801561080357600080fd5b506104fe611787565b34801561081857600080fd5b50610821611796565b6040805160208082528351818301528351919283929083019185019080838360005b8381101561085b578181015183820152602001610843565b50505050905090810190601f1680156108885780820380516001836020036101000a031916815260200191505b509250505060405180910390f35b3480156108a257600080fd5b506106766117bf565b3480156108b757600080fd5b506103316117ce565b3480156108cc57600080fd5b506108f3600480360360208110156108e357600080fd5b50356001600160a01b03166117d4565b6040805192835290151560208301528051918290030190f35b34801561091857600080fd5b506104fe6117f0565b34801561092d57600080fd5b506104b76004803603602081101561094457600080fd5b50356117ff565b34801561095757600080fd5b50610331611804565b34801561096c57600080fd5b5061033161180a565b34801561098157600080fd5b506103316004803603602081101561099857600080fd5b50356001600160a01b0316611812565b3480156109b457600080fd5b50610331600480360360208110156109cb57600080fd5b50356001600160a01b03166118a6565b3480156109e757600080fd5b506104b7600480360360e08110156109fe57600080fd5b506001600160a01b038135811691602081013582169160408201358116916060810135821691608082013581169160a081013582169160c0909101351661193a565b6104b7611bfd565b348015610a5457600080fd5b50610331611c0f565b348015610a6957600080fd5b506104fe611c15565b348015610a7e57600080fd5b50610331611c24565b348015610a9357600080fd5b50610aba60048036036020811015610aaa57600080fd5b50356001600160a01b0316611c2f565b604080519283526001600160a01b0390911660208301528051918290030190f35b6000546001600160a01b03163314610b245760405162461bcd60e51b81526004018080602001828103825260278152602001806136fe6027913960400191505060405180910390fd5b565b600082820183811015610b80576040805162461bcd60e51b815260206004820152601b60248201527f536166654d6174683a206164646974696f6e206f766572666c6f770000000000604482015290519081900360640190fd5b90505b92915050565b6001600160a01b0381166000908152600b602052604081205480610bb1576000915050610c92565b6001600160a01b038084166000908152600b6020526040812060010154909116908115610bf6576001600160a01b0382166000908152600d6020526040902054610c00565b670de0b6b3a76400005b6001600160a01b0386166000908152600c60209081526040808320815160a08101835281548152600182015493810193909352600281015491830191909152600301546001600160801b038082166060840152600160801b909104166080820152919250610c8a670de0b6b3a7640000610c84610c7d8886611c51565b8690611d25565b90611d7e565b955050505050505b919050565b6001600160a01b0381166000908152600b602052604081205480610cbf576000915050610c92565b6001600160a01b0383166000908152600c60209081526040808320815160a08101835281548152600182015493810193909352600281015491830191909152600301546001600160801b038082166060840152600160801b90910416608082015290610d2b8383611dc0565b95945050505050565b600a5490565b7f000000000000000000000000000000000000000000000000000000000000000081565b600f602052600090815260409020805460018201546002830154600390930154919290916001600160801b0380821691600160801b90041685565b7f000000000000000000000000000000000000000000000000000000000000000081565b6001600160a01b0381166000908152600e602052604081205480610de5576000915050610c92565b6001600160a01b0383166000908152600d602052604081205490610e11670de0b6b3a764000083611eb0565b6001600160a01b0386166000908152600f60209081526040808320815160a08101835281548152600182015493810193909352600281015491830191909152600301546001600160801b038082166060840152600160801b909104166080820152919250610c8a670de0b6b3a7640000610c84610c7d8886611c51565b601260209081526000928352604080842090915290825290205481565b8015610eb957610eb9611ef2565b336000908152600b6020526040902054610ed2816120af565b6008546001600160a01b0316610ee7816120f1565b6000610ef233611812565b90506000610eff33610c97565b90506000610f0d8683612165565b90506000610f1b8684611eb0565b336000818152600b60205260409020600101549192506001600160a01b0390911690610f499087908361217b565b6000610f54826118a6565b90506000610f628286611eb0565b9050610f6e8382612308565b6040805182815233602082015281516001600160a01b038616926000805160206139a0833981519152928290030190a2610fa83386612454565b6000610fb48787611eb0565b9050610fc033826124da565b6040805182815290513391600080516020613725833981519152919081900360200190a260408051898152602081018790528151339260008051602061385f833981519152928290030190a261101588612660565b5050505050505050505050565b61102a612766565b600a54801580611038575082155b156110435750611082565b600854611058906001600160a01b03166120f1565b6000806110668486856127af565b915091506110748282612878565b61107e8486612b42565b5050505b5050565b6001546001600160a01b031681565b6005546001600160a01b031681565b60c881565b601180546001600160801b0319166001600160801b0392909216919091179055565b6110d433612c7a565b6110dd33612cd5565b6110e681612d2b565b336000818152600d60209081526040918290208481556001908101805460ff19169091179055815184815291517f19bc932fb9e16a8b5a1e41be9f4c2de59d5ddd7567b8b81405f532ca00a9880e9281900390910190a250565b6714d1120d7b16000081565b600e6020526000908152604090205481565b61116781612d72565b61117033612c7a565b61117982612dde565b336000908152600b60205260409020546008546001600160a01b031661119e816120f1565b816111ad576111ad3384612e1d565b60006111b833611812565b905060006111c533610c97565b905060006111d38583611eb0565b336000818152600b60205260409020600101549192506001600160a01b03909116906112019086908361217b565b600061120c826118a6565b9050600061121a828b610b26565b90506112268382612308565b6040805182815233602082015281516001600160a01b038616926000805160206139a0833981519152928290030190a2611260338b612e77565b600061126c868c610b26565b905061127833826124da565b6040805182815290513391600080516020613725833981519152919081900360200190a260408051888152602081018790528151339260008051602061385f833981519152928290030190a261101587612660565b60155481565b670de0b6b3a764000081565b6002546001600160a01b031681565b601154600160801b90046001600160801b031681565b6004546001600160a01b031681565b670f43fc2c04ee000081565b60008054604080516314a6bf0f60e01b8152905183926001600160a01b0316916314a6bf0f916004808301926020929190829003018186803b15801561136457600080fd5b505afa158015611378573d6000803e3d6000fd5b505050506040513d602081101561138e57600080fd5b5051600154604080516314a6bf0f60e01b815290519293506000926001600160a01b03909216916314a6bf0f91600480820192602092909190829003018186803b1580156113db57600080fd5b505afa1580156113ef573d6000803e3d6000fd5b505050506040513d602081101561140557600080fd5b505190506114138282610b26565b9250505090565b6000546001600160a01b031681565b601360209081526000928352604080842090915290825290205481565b600c602052600090815260409020805460018201546002830154600390930154919290916001600160801b0380821691600160801b90041685565b60008054604080516362e1c9bf60e11b8152905183926001600160a01b03169163c5c3937e916004808301926020929190829003018186803b1580156114c657600080fd5b505afa1580156114da573d6000803e3d6000fd5b505050506040513d60208110156114f057600080fd5b5051600154604080516362e1c9bf60e11b815290519293506000926001600160a01b039092169163c5c3937e91600480820192602092909190829003018186803b1580156113db57600080fd5b60105481565b6003546001600160a01b031690565b6003546001600160a01b0316331490565b336000908152600b602052604090205461157c816120af565b61158533612f3b565b61158e33612ff2565b6008546001600160a01b03166115a3816120f1565b60006115ae33611812565b905060006115bb33610c97565b905060006115c98583611eb0565b336000818152600b60205260409020600101549192506001600160a01b03909116906115f79086908361217b565b6000611602826118a6565b90508061160f8382612308565b6040805182815233602082015281516001600160a01b038616926000805160206139a0833981519152928290030190a261164933866124da565b60408051878152602081018690528151339260008051602061385f833981519152928290030190a26040805186815290513391600080516020613725833981519152919081900360200190a26009546116a29087611eb0565b600981905560408051918252516000805160206137e68339815191529181900360200190a1604080513381526020810188905281517f3b2482b1bf6e751427503c9a8bf79e4dba3e6519259e2220428c2f326cc79c14929181900390910190a16004805460408051630721ec6760e11b815233938101939093526001600160a01b038d811660248501528c811660448501529051911691630e43d8ce91899160648082019260009290919082900301818588803b15801561176257600080fd5b505af1158015611776573d6000803e3d6000fd5b505050505050505050505050505050565b6008546001600160a01b031681565b6040518060400160405280600d81526020016c14dd18589a5b1a5d1e541bdbdb609a1b81525081565b6011546001600160801b031681565b60165481565b600d602052600090815260409020805460019091015460ff1682565b6007546001600160a01b031681565b600a55565b60095490565b633b9aca0081565b6001600160a01b0381166000908152600b60205260408120548061183a576000915050610c92565b6001600160a01b0383166000908152600c60209081526040808320815160a08101835281548152600182015493810193909352600281015491830191909152600301546001600160801b038082166060840152600160801b90910416608082015290610d2b838361303e565b6001600160a01b0381166000908152600e6020526040812054806118ce576000915050610c92565b6001600160a01b0383166000908152600f60209081526040808320815160a08101835281548152600182015493810193909352600281015491830191909152600301546001600160801b038082166060840152600160801b90910416608082015290610d2b8383611dc0565b611942611552565b611993576040805162461bcd60e51b815260206004820181905260248201527f4f776e61626c653a2063616c6c6572206973206e6f7420746865206f776e6572604482015290519081900360640190fd5b61199c876130bd565b6119a5866130bd565b6119ae856130bd565b6119b7846130bd565b6119c0836130bd565b6119c9826130bd565b6119d2816130bd565b6119db8761316c565b6119e48661316c565b600480546001600160a01b03199081166001600160a01b038a81169182179093556005805483168a85161790556000805483168985161790556006805483168885161790556007805483168785161790556002805483168685161790556008805490921692841692909217905560408051918252517f3ca631ffcd2a9b5d9ae18543fc82f58eb4ca33af9e6ab01b7a8e95331e6ed985916020908290030190a1604080516001600160a01b038816815290517f143219c9e69b09e07e095fcc889b43d8f46ca892bba65f08dc3a0050869a56789181900360200190a1604080516001600160a01b038716815290517f78f058b189175430c48dc02699e3a0031ea4ff781536dc2fab847de4babdd8829181900360200190a1604080516001600160a01b038616815290517f112220fa8dbe96141556e0dc3d74dd95075b323f4f297616048e02d82d7017159181900360200190a1604080516001600160a01b038516815290517f65f4cf077bc01e4742eb5ad98326f6e95b63548ea24b17f8d5e823111fe788009181900360200190a1604080516001600160a01b038416815290517f8c537274438aa850a330284665d81a85dd38267d09e4050d416bfc94142db2649181900360200190a1604080516001600160a01b038316815290517f3055265812fb8447b9ada4a5d804ec43bd528ec40e89c952bbc7b85dc5ac68119181900360200190a1611bf4613310565b50505050505050565b600954611c0a9034610b26565b600955565b60145481565b6006546001600160a01b031681565b6611c37937e0800081565b600b60205260009081526040902080546001909101546001600160a01b031682565b608081015160608201516040808401516020808601516001600160801b03808716600090815260138452858120918716815292529281205490949392908590611c9a9084611eb0565b6001600160801b03808716600090815260136020526040812092935091611cf191633b9aca0091908490611cd1908a16600161335a565b6001600160801b0316815260208101919091526040016000205490611d7e565b90506000611d17670de0b6b3a7640000610c848681611d108888610b26565b8f90611d25565b9a9950505050505050505050565b600082611d3457506000610b83565b82820282848281611d4157fe5b0414610b805760405162461bcd60e51b81526004018080602001828103825260218152602001806137c56021913960400191505060405180910390fd5b6000610b8083836040518060400160405280601a81526020017f536166654d6174683a206469766973696f6e206279207a65726f0000000000008152506133aa565b6020810151606082015160808301516011546000939291906001600160801b03600160801b90910481169082161015611dff5760009350505050610b83565b6011546000908190611e1a906001600160801b03168561344c565b90506001600160801b038116611e4a57611e4385610c846010548b611d2590919063ffffffff16565b9150611e82565b806001600160801b031660011415611e7d57611e43633b9aca00610c8487610c846010548d611d2590919063ffffffff16565b600091505b611e9088633b9aca00611d7e565b821015611ea557600095505050505050610b83565b509695505050505050565b6000610b8083836040518060400160405280601e81526020017f536166654d6174683a207375627472616374696f6e206f766572666c6f7700008152506134a5565b60025460408051630fdb11cf60e01b815290516000926001600160a01b031691630fdb11cf91600480830192602092919082900301818787803b158015611f3857600080fd5b505af1158015611f4c573d6000803e3d6000fd5b505050506040513d6020811015611f6257600080fd5b505160075460408051634d62283160e01b815290519293506000926001600160a01b0390921691634d62283191600480820192602092909190829003018186803b158015611faf57600080fd5b505afa158015611fc3573d6000803e3d6000fd5b505050506040513d6020811015611fd957600080fd5b505160055460408051630d293c7160e41b81526001600160a01b038085166004830152602482018790529151939450600093919092169163d293c710916044808301926020929190829003018186803b15801561203557600080fd5b505afa158015612049573d6000803e3d6000fd5b505050506040513d602081101561205f57600080fd5b50519050670f43fc2c04ee00008110156120aa5760405162461bcd60e51b81526004018080602001828103825260448152602001806139c06044913960600191505060405180910390fd5b505050565b600081116120ee5760405162461bcd60e51b81526004018080602001828103825260308152602001806139706030913960400191505060405180910390fd5b50565b6000816001600160a01b0316632eee8bc96040518163ffffffff1660e01b8152600401602060405180830381600087803b15801561212e57600080fd5b505af1158015612142573d6000803e3d6000fd5b505050506040513d602081101561215857600080fd5b50519050611082816134ff565b60008183106121745781610b80565b5090919050565b6001600160a01b0381161561224757600061219582610dbd565b9050836001600160a01b0316638352d63683836040518363ffffffff1660e01b815260040180836001600160a01b0316815260200182815260200192505050600060405180830381600087803b1580156121ee57600080fd5b505af1158015612202573d6000803e3d6000fd5b50506040805184815290516001600160a01b03861693507fc3c43b5355673e1ea1a83122d1de4fde0584a9e8796843b3b7b33ed9b1aece0292509081900360200190a2505b600061225283610b89565b9050836001600160a01b0316638352d63684836040518363ffffffff1660e01b815260040180836001600160a01b0316815260200182815260200192505050600060405180830381600087803b1580156122ab57600080fd5b505af11580156122bf573d6000803e3d6000fd5b50506040805184815290516001600160a01b03871693507fe57aace4a327c35eab9346657e77499888878556a925f2b460c3f1ce23b093f792509081900360200190a250505050565b6001600160a01b0382166000908152600e6020526040902081905580612398576001600160a01b0382166000818152600f60209081526040808320838155600181018490556002810184905560030183905580518381529182019290925281517fbb1322f85cc7cc8bac4e172a5bc5dcc0c1959007f9a030032abf9258205f0e45929181900390910190a2611082565b6011546010546001600160801b03600160801b80840482166000818152601360209081526040808320978616808452978252808320546001600160a01b038b16808552600f845293829020600181018990556002810182905560030180546001600160801b0319168a17909716958502959095179095558451868152908101849052845192959491927fbb1322f85cc7cc8bac4e172a5bc5dcc0c1959007f9a030032abf9258205f0e45929181900390910190a2505050505050565b8061245e57611082565b60065460408051631062c15f60e11b81523060048201526001600160a01b03858116602483015260448201859052915191909216916320c582be91606480830192600092919082900301818387803b1580156124b957600080fd5b505af11580156124cd573d6000803e3d6000fd5b5050505061108281613614565b6001600160a01b0382166000908152600b6020526040902081905580612588576001600160a01b0382166000818152600b60209081526040808320600190810180546001600160a01b0319169055600c83528184208481559081018490556002810184905560030183905580518381529182018390528181019290925290517f2d6cc0bcdf72c9486f6451bde6b80f44066f4558f77f44dbfedbe7d8b295225a9181900360600190a2611082565b6011546010546001600160801b03600160801b8084048216600081815260126020908152604080832097861680845297825280832054848452601383528184208985528352818420546001600160a01b038c16808652600c855294839020600181018a90558281556002810182905560030180546001600160801b0319168b179098169686029690961790965580518781529182018690528181018590525192959493927f2d6cc0bcdf72c9486f6451bde6b80f44066f4558f77f44dbfedbe7d8b295225a916060908290030190a250505050505050565b8061266a576120ee565b60095460009061267a9083611eb0565b60098190556040805182815290519192506000805160206137e6833981519152919081900360200190a1604080513381526020810184905281517f3b2482b1bf6e751427503c9a8bf79e4dba3e6519259e2220428c2f326cc79c14929181900390910190a1604051600090339084908381818185875af1925050503d8060008114612721576040519150601f19603f3d011682016040523d82523d6000602084013e612726565b606091505b50509050806120aa5760405162461bcd60e51b81526004018080602001828103825260218152602001806138e06021913960400191505060405180910390fd5b6005546001600160a01b03163314610b245760405162461bcd60e51b81526004018080602001828103825260298152602001806137456029913960400191505060405180910390fd5b60008060006127db6015546127d5670de0b6b3a764000089611d2590919063ffffffff16565b90610b26565b9050838511156127e757fe5b83851415612804576000601655670de0b6b3a7640000915061284c565b6016546000906128269061282088670de0b6b3a7640000611d25565b90611eb0565b905061283760016127d58388611d7e565b9250612847816128208588611d25565b601655505b6128568185611d7e565b925061286c6128658486611d25565b8290611eb0565b60155550935093915050565b6010546000670de0b6b3a764000083111561288f57fe5b60006128a3670de0b6b3a764000085611eb0565b6011546001600160801b03600160801b8204811660008181526012602090815260408083209490951680835293905292832054939450909290916128e78988611d25565b905060006128f58383610b26565b6001600160801b038086166000818152601260209081526040808320948b16808452948252918290208590558151858152908101929092528181019290925290519192507fe12e2cd2c9afa8069203ca07e7eff1edce4a075686d0736a8e7e0d593597b207919081900360600190a185612a265761297d6001600160801b038516600161335a565b601180546001600160801b03908116600160801b938216840217918290556040805193909204168252517fb50f0f59e7cb5b421dc77581c3a9919e3806e076e5fa78a874c3f120cb7d874d916020908290030190a1601180546001600160801b0319169055604080516000815290517f1f9dfc70cd666adb18a39d60a797518f7b4febf4b6e24ef37d44f6e1e7219fbe9181900360200190a1670de0b6b3a76400009650612af4565b633b9aca00612a41670de0b6b3a7640000610c848b8a611d25565b1015612adb57612a6b670de0b6b3a7640000610c84633b9aca00612a658c8b611d25565b90611d25565b9650612a816001600160801b038616600161335a565b601180546001600160801b0319166001600160801b0392831617908190556040805191909216815290517f1f9dfc70cd666adb18a39d60a797518f7b4febf4b6e24ef37d44f6e1e7219fbe916020908290030190a1612af4565b612af1670de0b6b3a7640000610c848a89611d25565b96505b60008711612afe57fe5b60108790556040805188815290517fc1a9618cb59ebca77cbdbc2949f126823c407ff13edb285fd0262519a9c18e8c9181900360200190a150505050505050505050565b6000805460408051632a7ba1f760e01b81526004810185905290516001600160a01b03909216928392632a7ba1f792602480820193929182900301818387803b158015612b8e57600080fd5b505af1158015612ba2573d6000803e3d6000fd5b50505050612baf82613614565b60065460408051632770a7eb60e21b81523060048201526024810185905290516001600160a01b0390921691639dc29fac9160448082019260009290919082900301818387803b158015612c0257600080fd5b505af1158015612c16573d6000803e3d6000fd5b505060408051628063a560e01b81523060048201526024810187905290516001600160a01b0385169350628063a59250604480830192600092919082900301818387803b158015612c6657600080fd5b505af1158015611bf4573d6000803e3d6000fd5b6001600160a01b0381166000908152600d602052604090206001015460ff16156120ee5760405162461bcd60e51b815260040180806020018281038252603981526020018061387f6039913960400191505060405180910390fd5b6001600160a01b0381166000908152600b602052604090205480156110825760405162461bcd60e51b81526004018080602001828103825260288152602001806138b86028913960400191505060405180910390fd5b670de0b6b3a76400008111156120ee5760405162461bcd60e51b81526004018080602001828103825260338152602001806138066033913960400191505060405180910390fd5b6001600160a01b0381166000908152600d602052604090206001015460ff1680612da357506001600160a01b038116155b6120ee5760405162461bcd60e51b81526004018080602001828103825260468152602001806136b86046913960600191505060405180910390fd5b600081116120ee5760405162461bcd60e51b81526004018080602001828103825260268152602001806138396026913960400191505060405180910390fd5b6001600160a01b038281166000818152600b602052604080822060010180546001600160a01b0319169486169485179055517f094c08e96a8890877a8390b4f967180a7507ad8622244d05fcd0f9f8e086564e9190a35050565b60065460408051632ee65eeb60e21b81526001600160a01b038581166004830152306024830152604482018590529151919092169163bb997bac91606480830192600092919082900301818387803b158015612ed257600080fd5b505af1158015612ee6573d6000803e3d6000fd5b5050600a5460009250612efa915083610b26565b600a8190556040805182815290519192507f8c9268469ff6265448f46f8119962e815f393b25b87bb55bda5e709a412b85d7919081900360200190a1505050565b600554604080516321e3780160e01b81526001600160a01b038481166004830152915191909216916321e37801916024808301926020929190829003018186803b158015612f8857600080fd5b505afa158015612f9c573d6000803e3d6000fd5b505050506040513d6020811015612fb257600080fd5b50516001146120ee5760405162461bcd60e51b81526004018080602001828103825260468152602001806139016046913960600191505060405180910390fd5b6000612ffd82611812565b9050600081116110825760405162461bcd60e51b815260040180806020018281038252603181526020018061376e6031913960400191505060405180910390fd5b6080810151606082015182516020808501516001600160801b038086166000908152601284526040808220928716825291909352822054919493929185906130869084611eb0565b6001600160801b03808716600090815260126020526040812092935091611cf191633b9aca0091908490611cd1908a16600161335a565b6001600160a01b038116613118576040805162461bcd60e51b815260206004820152601e60248201527f4163636f756e742063616e6e6f74206265207a65726f20616464726573730000604482015290519081900360640190fd5b803b80611082576040805162461bcd60e51b815260206004820181905260248201527f4163636f756e7420636f64652073697a652063616e6e6f74206265207a65726f604482015290519081900360640190fd5b7f0000000000000000000000000000000000000000000000000000000000000000816001600160a01b031663139f2e8c6040518163ffffffff1660e01b815260040160206040518083038186803b1580156131c657600080fd5b505afa1580156131da573d6000803e3d6000fd5b505050506040513d60208110156131f057600080fd5b505114613240576040805162461bcd60e51b815260206004820152601960248201527808e82a6be869e9aa08a9ca682a8929e9c40dad2e6dac2e8c6d603b1b604482015290519081900360640190fd5b7f0000000000000000000000000000000000000000000000000000000000000000816001600160a01b0316631bf435556040518163ffffffff1660e01b815260040160206040518083038186803b15801561329a57600080fd5b505afa1580156132ae573d6000803e3d6000fd5b505050506040513d60208110156132c457600080fd5b5051146120ee576040805162461bcd60e51b815260206004820152601560248201527409a929cbe9c8aa8be888a84a840dad2e6dac2e8c6d605b1b604482015290519081900360640190fd5b6003546040516000916001600160a01b0316907f8be0079c531659141344cd1fd0a4f28419497f9722a3daafe3b4186f6b6457e0908390a3600380546001600160a01b0319169055565b60008282016001600160801b038085169082161015610b805760405162461bcd60e51b815260040180806020018281038252602681526020018061379f6026913960400191505060405180910390fd5b600081836134365760405162461bcd60e51b81526004018080602001828103825283818151815260200191508051906020019080838360005b838110156133fb5781810151838201526020016133e3565b50505050905090810190601f1680156134285780820380516001836020036101000a031916815260200191505b509250505060405180910390fd5b50600083858161344257fe5b0495945050505050565b6000826001600160801b0316826001600160801b0316111561349f5760405162461bcd60e51b81526004018080602001828103825260298152602001806139476029913960400191505060405180910390fd5b50900390565b600081848411156134f75760405162461bcd60e51b81526020600482018181528351602484015283519092839260449091019190850190808383600083156133fb5781810151838201526020016133e3565b505050900390565b600a5480158061350d575081155b1561351857506120ee565b60006135248383613664565b9050600061353d60105483611d2590919063ffffffff16565b6011546001600160801b03600160801b82048116600090815260136020908152604080832093909416825291909152205490915061357b9082610b26565b601180546001600160801b03600160801b808304821660009081526013602081815260408084209686168452958152858320979097559454918204831680825294865283812091909216808352908552908290205482519081529384019290925282810191909152517f2d6127771b164a9cc8827d24b5955db2a77e7a81dac389107ebb8bce9fb649689181900360600190a150505050565b600a546000906136249083611eb0565b600a8190556040805182815290519192507f8c9268469ff6265448f46f8119962e815f393b25b87bb55bda5e709a412b85d7919081900360200190a15050565b6000806136886014546127d5670de0b6b3a764000087611d2590919063ffffffff16565b905060006136968285611d7e565b90506136ac6136a58286611d25565b8390611eb0565b60145594935050505056fe53746162696c697479506f6f6c3a20546167206d757374206265206120726567697374657265642066726f6e7420656e642c206f7220746865207a65726f206164647265737353746162696c697479506f6f6c3a2043616c6c6572206973206e6f7420416374697665506f6f6cbce78369dccab09eec1986f4d409ab09ffbb47d65423e5148fcf98411c5111c953746162696c697479506f6f6c3a2043616c6c6572206973206e6f742054726f76654d616e6167657253746162696c697479506f6f6c3a2063616c6c6572206d7573742068617665206e6f6e2d7a65726f2046494c204761696e50726f746f636f6c536166654d6174683132383a206164646974696f6e206f766572666c6f77536166654d6174683a206d756c7469706c69636174696f6e206f766572666c6f77d05c60ff21c33fb1103e848d5310f11270e7db91e1b079c4bdd0c6024f83d6c753746162696c697479506f6f6c3a204b69636b6261636b2072617465206d75737420626520696e2072616e6765205b302c315d53746162696c697479506f6f6c3a20416d6f756e74206d757374206265206e6f6e2d7a65726f69e8bca5591c9a2886b122cc27d391b407b746b724f75b996c37903b868c449753746162696c697479506f6f6c3a206d757374206e6f7420616c7265616479206265206120726567697374657265642066726f6e7420656e6453746162696c697479506f6f6c3a2055736572206d7573742068617665206e6f206465706f73697453746162696c697479506f6f6c3a2073656e64696e672046494c206661696c656453746162696c697479506f6f6c3a2063616c6c6572206d757374206861766520616e206163746976652074726f766520746f2077697468647261772046494c4761696e20746f50726f746f636f6c536166654d6174683132383a207375627472616374696f6e206f766572666c6f7753746162696c697479506f6f6c3a2055736572206d75737420686176652061206e6f6e2d7a65726f206465706f73697499920012339b5a3368d3a04b8606ce412c46ed92b7dcd8602d41fc8862cb8f2553746162696c697479506f6f6c3a2043616e6e6f74207769746864726177207768696c65207468657265206172652074726f766573207769746820494352203c204d4352a26469706673582212208200354a395060adcefc031ca1908ffac19b794576434e86c2807c89213dc5c664736f6c63430007060033",
  "linkReferences": {},
  "deployedLinkReferences": {}
}