{
  "_format": "hh-sol-artifact-1",
  "contractName": "TellorCaller",
  "sourceName": "contracts/Dependencies/TellorCaller.sol",
  "abi": [
    {
      "inputs": [
        {
          "internalType": "address",
          "name": "_tellorMasterAddress",
          "type": "address"
        }
      ],
      "stateMutability": "nonpayable",
      "type": "constructor"
    },
    {
      "inputs": [],
      "name": "DISPUTE_BUFFER",
      "outputs": [
        {
          "internalType": "uint256",
          "name": "",
          "type": "uint256"
        }
      ],
      "stateMutability": "view",
      "type": "function"
    },
    {
      "inputs": [],
      "name": "btcQueryId",
      "outputs": [
        {
          "internalType": "bytes32",
          "name": "",
          "type": "bytes32"
        }
      ],
      "stateMutability": "view",
      "type": "function"
    },
    {
      "inputs": [],
      "name": "getTellorCurrentValue",
      "outputs": [
        {
          "internalType": "bool",
          "name": "ifRetrieve",
          "type": "bool"
        },
        {
          "internalType": "uint256",
          "name": "_value",
          "type": "uint256"
        },
        {
          "internalType": "uint256",
          "name": "timestamp",
          "type": "uint256"
        }
      ],
      "stateMutability": "view",
      "type": "function"
    },
    {
      "inputs": [],
      "name": "tellor",
      "outputs": [
        {
          "internalType": "contract ITellor",
          "name": "",
          "type": "address"
        }
      ],
      "stateMutability": "view",
      "type": "function"
    }
  ],
  "bytecode": "0x60c060405234801561001057600080fd5b5060405161050e38038061050e8339818101604052602081101561003357600080fd5b5051606081811b6001600160601b03191660a0908152604080516020808201839052600394820185905262199a5b60ea1b60808084019190915282840181905293820194909452621d5cd960ea1b60c0808301919091528251808303909101815260e082018352610100820192835260096101408301526853706f74507269636560b81b6101608301526101208201938452805161018083015280516000959194849390926101a090910191908601908083838a5b838110156101005781810151838201526020016100e8565b50505050905090810190601f16801561012d5780820380516001836020036101000a031916815260200191505b5060408051601f19818403018152919052805160209091012060805250505050505060805160a05160601c61039161017d6000398060c1528061011852508060e5528061013f52506103916000f3fe608060405234801561001057600080fd5b506004361061004c5760003560e01c80631959ad5b14610051578063971878f114610075578063994338281461008f578063c1874867146100b7575b600080fd5b6100596100bf565b604080516001600160a01b039092168252519081900360200190f35b61007d6100e3565b60408051918252519081900360200190f35b610097610107565b604080519315158452602084019290925282820152519081900360600190f35b61007d6102f8565b7f000000000000000000000000000000000000000000000000000000000000000081565b7f000000000000000000000000000000000000000000000000000000000000000081565b600080808080806001600160a01b037f00000000000000000000000000000000000000000000000000000000000000001663a792765f7f000000000000000000000000000000000000000000000000000000000000000061016a426104b06102fe565b6040518363ffffffff1660e01b8152600401808381526020018281526020019250505060006040518083038186803b1580156101a557600080fd5b505afa1580156101b9573d6000803e3d6000fd5b505050506040513d6000823e601f3d908101601f1916820160405260608110156101e257600080fd5b81516020830180516040519294929383019291908464010000000082111561020957600080fd5b90830190602082018581111561021e57600080fd5b825164010000000081118282018810171561023857600080fd5b82525081516020918201929091019080838360005b8381101561026557818101518382015260200161024d565b50505050905090810190601f1680156102925780820380516001836020036101000a031916815260200191505b50604052602001519396509194509192505083159050806102b1575080155b806102bb57508151155b156102d1576000955085945092506102f3915050565b8180602001905160208110156102e657600080fd5b5051600196509450925050505b909192565b6104b081565b600082821115610355576040805162461bcd60e51b815260206004820152601e60248201527f536166654d6174683a207375627472616374696f6e206f766572666c6f770000604482015290519081900360640190fd5b5090039056fea2646970667358221220f408497aff84f48ccaeaa2ef58cf39981637c58965cba1e3bf79e53c9e8d193364736f6c63430007060033",
  "linkReferences": {},
  "deployedLinkReferences": {}
}