{
  "_format": "hh-sol-artifact-1",
  "contractName": "TellorCaller",
  "sourceName": "contracts/Dependencies/TellorCaller.sol",
  "abi": [
    {
      "inputs": [
        {
          "internalType": "address",
          "name": "_tellorMasterAddress",
          "type": "address"
        }
      ],
      "stateMutability": "nonpayable",
      "type": "constructor"
    },
    {
      "inputs": [],
      "name": "DISPUTE_BUFFER",
      "outputs": [
        {
          "internalType": "uint256",
          "name": "",
          "type": "uint256"
        }
      ],
      "stateMutability": "view",
      "type": "function"
    },
    {
      "inputs": [],
      "name": "STALENESS_AGE",
      "outputs": [
        {
          "internalType": "uint256",
          "name": "",
          "type": "uint256"
        }
      ],
      "stateMutability": "view",
      "type": "function"
    },
    {
      "inputs": [],
      "name": "btcQueryId",
      "outputs": [
        {
          "internalType": "bytes32",
          "name": "",
          "type": "bytes32"
        }
      ],
      "stateMutability": "view",
      "type": "function"
    },
    {
      "inputs": [],
      "name": "getTellorCurrentValue",
      "outputs": [
        {
          "internalType": "bool",
          "name": "ifRetrieve",
          "type": "bool"
        },
        {
          "internalType": "uint256",
          "name": "_value",
          "type": "uint256"
        },
        {
          "internalType": "uint256",
          "name": "timestamp",
          "type": "uint256"
        }
      ],
      "stateMutability": "view",
      "type": "function"
    },
    {
      "inputs": [],
      "name": "tellor",
      "outputs": [
        {
          "internalType": "contract ITellor",
          "name": "",
          "type": "address"
        }
      ],
      "stateMutability": "view",
      "type": "function"
    }
  ],
  "bytecode": "0x60c060405234801561001057600080fd5b506040516105823803806105828339818101604052602081101561003357600080fd5b5051606081811b6001600160601b03191660a0908152604080516020808201839052600394820185905262199a5b60ea1b60808084019190915282840181905293820194909452621d5cd960ea1b60c0808301919091528251808303909101815260e082018352610100820192835260096101408301526853706f74507269636560b81b6101608301526101208201938452805161018083015280516000959194849390926101a090910191908601908083838a5b838110156101005781810151838201526020016100e8565b50505050905090810190601f16801561012d5780820380516001836020036101000a031916815260200191505b5060408051601f19818403018152919052805160209091012060805250505050505060805160a05160601c61040561017d6000398060d4528061012b52508060f8528061015252506104056000f3fe608060405234801561001057600080fd5b50600436106100575760003560e01c80631959ad5b1461005c578063971878f114610080578063994338281461009a578063c1874867146100c2578063e2870316146100ca575b600080fd5b6100646100d2565b604080516001600160a01b039092168252519081900360200190f35b6100886100f6565b60408051918252519081900360200190f35b6100a261011a565b604080519315158452602084019290925282820152519081900360600190f35b610088610366565b61008861036c565b7f000000000000000000000000000000000000000000000000000000000000000081565b7f000000000000000000000000000000000000000000000000000000000000000081565b600080808080806001600160a01b037f00000000000000000000000000000000000000000000000000000000000000001663a792765f7f000000000000000000000000000000000000000000000000000000000000000061017d426104b0610372565b6040518363ffffffff1660e01b8152600401808381526020018281526020019250505060006040518083038186803b1580156101b857600080fd5b505afa1580156101cc573d6000803e3d6000fd5b505050506040513d6000823e601f3d908101601f1916820160405260608110156101f557600080fd5b81516020830180516040519294929383019291908464010000000082111561021c57600080fd5b90830190602082018581111561023157600080fd5b825164010000000081118282018810171561024b57600080fd5b82525081516020918201929091019080838360005b83811015610278578181015183820152602001610260565b50505050905090810190601f1680156102a55780820380516001836020036101000a031916815260200191505b50604052602001519396509194509192505083159050806102c4575080155b806102ce57508151155b156102e457600095508594509250610361915050565b8180602001905160208110156102f957600080fd5b5051945061a8c061030a4283610372565b1115610358576040805162461bcd60e51b815260206004820152601860248201527754656c6c6f7243616c6c65723a205374616c65507269636560401b604482015290519081900360640190fd5b60019550925050505b909192565b6104b081565b61a8c081565b6000828211156103c9576040805162461bcd60e51b815260206004820152601e60248201527f536166654d6174683a207375627472616374696f6e206f766572666c6f770000604482015290519081900360640190fd5b5090039056fea2646970667358221220ae1b8d344e5199dbbc5786dee507d53fd9dc003a2ec44f02daedd0f0a63ba39a64736f6c63430007060033",
  "linkReferences": {},
  "deployedLinkReferences": {}
}