{
  "_format": "hh-sol-artifact-1",
  "contractName": "TellorCaller",
  "sourceName": "contracts/Dependencies/TellorCaller.sol",
  "abi": [
    {
      "inputs": [
        {
          "internalType": "address",
          "name": "_tellorMasterAddress",
          "type": "address"
        }
      ],
      "stateMutability": "nonpayable",
      "type": "constructor"
    },
    {
      "inputs": [],
      "name": "DISPUTE_BUFFER",
      "outputs": [
        {
          "internalType": "uint256",
          "name": "",
          "type": "uint256"
        }
      ],
      "stateMutability": "view",
      "type": "function"
    },
    {
      "inputs": [],
      "name": "STALENESS_AGE",
      "outputs": [
        {
          "internalType": "uint256",
          "name": "",
          "type": "uint256"
        }
      ],
      "stateMutability": "view",
      "type": "function"
    },
    {
      "inputs": [],
      "name": "btcQueryId",
      "outputs": [
        {
          "internalType": "bytes32",
          "name": "",
          "type": "bytes32"
        }
      ],
      "stateMutability": "view",
      "type": "function"
    },
    {
      "inputs": [],
      "name": "getTellorCurrentValue",
      "outputs": [
        {
          "internalType": "bool",
          "name": "ifRetrieve",
          "type": "bool"
        },
        {
          "internalType": "uint256",
          "name": "_value",
          "type": "uint256"
        },
        {
          "internalType": "uint256",
          "name": "timestamp",
          "type": "uint256"
        }
      ],
      "stateMutability": "view",
      "type": "function"
    },
    {
      "inputs": [],
      "name": "tellor",
      "outputs": [
        {
          "internalType": "contract ITellor",
          "name": "",
          "type": "address"
        }
      ],
      "stateMutability": "view",
      "type": "function"
    }
  ],
  "bytecode": "0x60a060405234801561001057600080fd5b506040516105483803806105488339818101604052602081101561003357600080fd5b5051600080546001600160a01b0319166001600160a01b03831617815560408051602080820183905260036060830181905262199a5b60ea1b60808085019190915283850181905260a0840191909152621d5cd960ea1b60c0808501919091528451808503909101815260e084018552610100840194855260096101408501526853706f74507269636560b81b61016085015261012084019182528051610180850152805190949384936101a090910191908601908083838a5b838110156101055781810151838201526020016100ed565b50505050905090810190601f1680156101325780820380516001836020036101000a031916815260200191505b5060408051601f1981840301815291905280516020909101206080525050505050506080516103d66101726000398060e3528061012352506103d66000f3fe608060405234801561001057600080fd5b50600436106100575760003560e01c80631959ad5b1461005c578063971878f114610080578063994338281461009a578063c1874867146100c2578063e2870316146100ca575b600080fd5b6100646100d2565b604080516001600160a01b039092168252519081900360200190f35b6100886100e1565b60408051918252519081900360200190f35b6100a2610105565b604080519315158452602084019290925282820152519081900360600190f35b610088610337565b61008861033d565b6000546001600160a01b031681565b7f000000000000000000000000000000000000000000000000000000000000000081565b60008054819081908190819081906001600160a01b031663a792765f7f000000000000000000000000000000000000000000000000000000000000000061014e426104b0610343565b6040518363ffffffff1660e01b8152600401808381526020018281526020019250505060006040518083038186803b15801561018957600080fd5b505afa15801561019d573d6000803e3d6000fd5b505050506040513d6000823e601f3d908101601f1916820160405260608110156101c657600080fd5b8151602083018051604051929492938301929190846401000000008211156101ed57600080fd5b90830190602082018581111561020257600080fd5b825164010000000081118282018810171561021c57600080fd5b82525081516020918201929091019080838360005b83811015610249578181015183820152602001610231565b50505050905090810190601f1680156102765780820380516001836020036101000a031916815260200191505b5060405260200151939650919450919250508315905080610295575080155b8061029f57508151155b156102b557600095508594509250610332915050565b8180602001905160208110156102ca57600080fd5b5051945061a8c06102db4283610343565b1115610329576040805162461bcd60e51b815260206004820152601860248201527754656c6c6f7243616c6c65723a205374616c65507269636560401b604482015290519081900360640190fd5b60019550925050505b909192565b6104b081565b61a8c081565b60008282111561039a576040805162461bcd60e51b815260206004820152601e60248201527f536166654d6174683a207375627472616374696f6e206f766572666c6f770000604482015290519081900360640190fd5b5090039056fea264697066735822122047650c0d080491873462153bd23281280f18f2b2f4e0aa7fa3ab92b17341984464736f6c63430007060033",
  "linkReferences": {},
  "deployedLinkReferences": {}
}