{
  "_format": "hh-sol-artifact-1",
  "contractName": "TellorCaller",
  "sourceName": "contracts/Dependencies/TellorCaller.sol",
  "abi": [
    {
      "inputs": [
        {
          "internalType": "address",
          "name": "_tellorMasterAddress",
          "type": "address"
        }
      ],
      "stateMutability": "nonpayable",
      "type": "constructor"
    },
    {
      "inputs": [],
      "name": "DISPUTE_BUFFER",
      "outputs": [
        {
          "internalType": "uint256",
          "name": "",
          "type": "uint256"
        }
      ],
      "stateMutability": "view",
      "type": "function"
    },
    {
      "inputs": [],
      "name": "getTellorCurrentValue",
      "outputs": [
        {
          "internalType": "bool",
          "name": "ifRetrieve",
          "type": "bool"
        },
        {
          "internalType": "uint256",
          "name": "_value",
          "type": "uint256"
        },
        {
          "internalType": "uint256",
          "name": "timestamp",
          "type": "uint256"
        }
      ],
      "stateMutability": "nonpayable",
      "type": "function"
    },
    {
      "inputs": [],
      "name": "lastStoredPrice",
      "outputs": [
        {
          "internalType": "uint256",
          "name": "",
          "type": "uint256"
        }
      ],
      "stateMutability": "view",
      "type": "function"
    },
    {
      "inputs": [],
      "name": "lastStoredTimestamp",
      "outputs": [
        {
          "internalType": "uint256",
          "name": "",
          "type": "uint256"
        }
      ],
      "stateMutability": "view",
      "type": "function"
    },
    {
      "inputs": [],
      "name": "queryId",
      "outputs": [
        {
          "internalType": "bytes32",
          "name": "",
          "type": "bytes32"
        }
      ],
      "stateMutability": "view",
      "type": "function"
    },
    {
      "inputs": [],
      "name": "tellor",
      "outputs": [
        {
          "internalType": "contract ITellor",
          "name": "",
          "type": "address"
        }
      ],
      "stateMutability": "view",
      "type": "function"
    }
  ],
  "bytecode": "0x60c060405234801561001057600080fd5b5060405161056a38038061056a8339818101604052602081101561003357600080fd5b5051606081811b6001600160601b03191660a0908152604080516020808201839052600394820185905262199a5b60ea1b60808084019190915282840181905293820194909452621d5cd960ea1b60c0808301919091528251808303909101815260e082018352610100820192835260096101408301526853706f74507269636560b81b6101608301526101208201938452805161018083015280516000959194849390926101a090910191908601908083838a5b838110156101005781810151838201526020016100e8565b50505050905090810190601f16801561012d5780820380516001836020036101000a031916815260200191505b5060408051601f19818403018152919052805160209091012060805250505050505060805160a05160601c6103ec61017e6000398060e7528061014a525080610117528061017152506103ec6000f3fe608060405234801561001057600080fd5b50600436106100625760003560e01c80631959ad5b14610067578063227ca8221461008b578063307e3db1146100a55780633f1be4d4146100ad57806399433828146100b5578063c1874867146100dd575b600080fd5b61006f6100e5565b604080516001600160a01b039092168252519081900360200190f35b610093610109565b60408051918252519081900360200190f35b61009361010f565b610093610115565b6100bd610139565b604080519315158452602084019290925282820152519081900360600190f35b610093610353565b7f000000000000000000000000000000000000000000000000000000000000000081565b60005481565b60015481565b7f000000000000000000000000000000000000000000000000000000000000000081565b600080808080806001600160a01b037f00000000000000000000000000000000000000000000000000000000000000001663a792765f7f000000000000000000000000000000000000000000000000000000000000000061019c42610384610359565b6040518363ffffffff1660e01b8152600401808381526020018281526020019250505060006040518083038186803b1580156101d757600080fd5b505afa1580156101eb573d6000803e3d6000fd5b505050506040513d6000823e601f3d908101601f19168201604052606081101561021457600080fd5b81516020830180516040519294929383019291908464010000000082111561023b57600080fd5b90830190602082018581111561025057600080fd5b825164010000000081118282018810171561026a57600080fd5b82525081516020918201929091019080838360005b8381101561029757818101518382015260200161027f565b50505050905090810190601f1680156102c45780820380516001836020036101000a031916815260200191505b50604052602001519396509194509192505083159050806102e3575080155b806102ed57508151155b156103035760009550859450925061034e915050565b81806020019051602081101561031857600080fd5b505160005490955081111561033d57600081905560018581559550925061034e915050565b600180546000549550955095505050505b909192565b61038481565b6000828211156103b0576040805162461bcd60e51b815260206004820152601e60248201527f536166654d6174683a207375627472616374696f6e206f766572666c6f770000604482015290519081900360640190fd5b5090039056fea26469706673582212208e56759d26aa213f3f82bf781ea4c60bed54d04b6b437e20ca67057e0b866cfb64736f6c63430007060033",
  "linkReferences": {},
  "deployedLinkReferences": {}
}