{
  "_format": "hh-sol-artifact-1",
  "contractName": "TokenScript",
  "sourceName": "contracts/Proxy/TokenScript.sol",
  "abi": [
    {
      "inputs": [
        {
          "internalType": "address",
          "name": "_tokenAddress",
          "type": "address"
        }
      ],
      "stateMutability": "nonpayable",
      "type": "constructor"
    },
    {
      "inputs": [],
      "name": "NAME",
      "outputs": [
        {
          "internalType": "string",
          "name": "",
          "type": "string"
        }
      ],
      "stateMutability": "view",
      "type": "function"
    },
    {
      "inputs": [
        {
          "internalType": "address",
          "name": "owner",
          "type": "address"
        },
        {
          "internalType": "address",
          "name": "spender",
          "type": "address"
        }
      ],
      "name": "allowance",
      "outputs": [
        {
          "internalType": "uint256",
          "name": "",
          "type": "uint256"
        }
      ],
      "stateMutability": "view",
      "type": "function"
    },
    {
      "inputs": [
        {
          "internalType": "address",
          "name": "spender",
          "type": "address"
        },
        {
          "internalType": "uint256",
          "name": "amount",
          "type": "uint256"
        }
      ],
      "name": "approve",
      "outputs": [
        {
          "internalType": "bool",
          "name": "",
          "type": "bool"
        }
      ],
      "stateMutability": "nonpayable",
      "type": "function"
    },
    {
      "inputs": [
        {
          "internalType": "address",
          "name": "spender",
          "type": "address"
        },
        {
          "internalType": "uint256",
          "name": "subtractedValue",
          "type": "uint256"
        }
      ],
      "name": "decreaseAllowance",
      "outputs": [
        {
          "internalType": "bool",
          "name": "",
          "type": "bool"
        }
      ],
      "stateMutability": "nonpayable",
      "type": "function"
    },
    {
      "inputs": [
        {
          "internalType": "address",
          "name": "spender",
          "type": "address"
        },
        {
          "internalType": "uint256",
          "name": "addedValue",
          "type": "uint256"
        }
      ],
      "name": "increaseAllowance",
      "outputs": [
        {
          "internalType": "bool",
          "name": "",
          "type": "bool"
        }
      ],
      "stateMutability": "nonpayable",
      "type": "function"
    },
    {
      "inputs": [
        {
          "internalType": "address",
          "name": "recipient",
          "type": "address"
        },
        {
          "internalType": "uint256",
          "name": "amount",
          "type": "uint256"
        }
      ],
      "name": "transfer",
      "outputs": [
        {
          "internalType": "bool",
          "name": "",
          "type": "bool"
        }
      ],
      "stateMutability": "nonpayable",
      "type": "function"
    },
    {
      "inputs": [
        {
          "internalType": "address",
          "name": "sender",
          "type": "address"
        },
        {
          "internalType": "address",
          "name": "recipient",
          "type": "address"
        },
        {
          "internalType": "uint256",
          "name": "amount",
          "type": "uint256"
        }
      ],
      "name": "transferFrom",
      "outputs": [
        {
          "internalType": "bool",
          "name": "",
          "type": "bool"
        }
      ],
      "stateMutability": "nonpayable",
      "type": "function"
    }
  ],
  "bytecode": "0x60a060405234801561001057600080fd5b5060405161073f38038061073f8339818101604052602081101561003357600080fd5b505161003e81610053565b60601b6001600160601b031916608052610106565b6001600160a01b0381166100ae576040805162461bcd60e51b815260206004820152601e60248201527f4163636f756e742063616e6e6f74206265207a65726f20616464726573730000604482015290519081900360640190fd5b803b80610102576040805162461bcd60e51b815260206004820181905260248201527f4163636f756e7420636f64652073697a652063616e6e6f74206265207a65726f604482015290519081900360640190fd5b5050565b60805160601c61060361013c6000398061022d528061030b528061038c528061042c52806104a5528061051e52506106036000f3fe608060405234801561001057600080fd5b506004361061006d5760003560e01c8063095ea7b31461007257806323b872dd146100b257806339509351146100e8578063a3f4df7e14610114578063a457c2d714610191578063a9059cbb146101bd578063dd62ed3e146101e9575b600080fd5b61009e6004803603604081101561008857600080fd5b506001600160a01b038135169060200135610229565b604080519115158252519081900360200190f35b61009e600480360360608110156100c857600080fd5b506001600160a01b038135811691602081013590911690604001356102d7565b61009e600480360360408110156100fe57600080fd5b506001600160a01b038135169060200135610388565b61011c610401565b6040805160208082528351818301528351919283929083019185019080838360005b8381101561015657818101518382015260200161013e565b50505050905090810190601f1680156101835780820380516001836020036101000a031916815260200191505b509250505060405180910390f35b61009e600480360360408110156101a757600080fd5b506001600160a01b038135169060200135610428565b61009e600480360360408110156101d357600080fd5b506001600160a01b0381351690602001356104a1565b610217600480360360408110156101ff57600080fd5b506001600160a01b038135811691602001351661051a565b60408051918252519081900360200190f35b60007f00000000000000000000000000000000000000000000000000000000000000006001600160a01b031663095ea7b384846040518363ffffffff1660e01b815260040180836001600160a01b0316815260200182815260200192505050602060405180830381600087803b1580156102a257600080fd5b505af11580156102b6573d6000803e3d6000fd5b505050506040513d60208110156102cc57600080fd5b506001949350505050565b604080516323b872dd60e01b81526001600160a01b03858116600483015284811660248301526044820184905291516000927f000000000000000000000000000000000000000000000000000000000000000016916323b872dd91606480830192602092919082900301818787803b15801561035257600080fd5b505af1158015610366573d6000803e3d6000fd5b505050506040513d602081101561037c57600080fd5b50600195945050505050565b60007f00000000000000000000000000000000000000000000000000000000000000006001600160a01b0316633950935184846040518363ffffffff1660e01b815260040180836001600160a01b0316815260200182815260200192505050602060405180830381600087803b1580156102a257600080fd5b6040518060400160405280600b81526020016a151bdad95b94d8dc9a5c1d60aa1b81525081565b60007f00000000000000000000000000000000000000000000000000000000000000006001600160a01b031663a457c2d784846040518363ffffffff1660e01b815260040180836001600160a01b0316815260200182815260200192505050602060405180830381600087803b1580156102a257600080fd5b60007f00000000000000000000000000000000000000000000000000000000000000006001600160a01b031663a9059cbb84846040518363ffffffff1660e01b815260040180836001600160a01b0316815260200182815260200192505050602060405180830381600087803b1580156102a257600080fd5b60007f00000000000000000000000000000000000000000000000000000000000000006001600160a01b031663dd62ed3e84846040518363ffffffff1660e01b815260040180836001600160a01b03168152602001826001600160a01b031681526020019250505060206040518083038186803b15801561059a57600080fd5b505afa1580156105ae573d6000803e3d6000fd5b505050506040513d60208110156105c457600080fd5b5051939250505056fea26469706673582212200c0f2d8e163d959612a1a6bf3bdbccb9b530ee8af24fcf2a65743b9f2383898764736f6c63430007060033",
  "linkReferences": {},
  "deployedLinkReferences": {}
}