{
  "_format": "hh-sol-artifact-1",
  "contractName": "TokenScript",
  "sourceName": "contracts/Proxy/TokenScript.sol",
  "abi": [
    {
      "inputs": [
        {
          "internalType": "address",
          "name": "_tokenAddress",
          "type": "address"
        }
      ],
      "stateMutability": "nonpayable",
      "type": "constructor"
    },
    {
      "inputs": [],
      "name": "NAME",
      "outputs": [
        {
          "internalType": "string",
          "name": "",
          "type": "string"
        }
      ],
      "stateMutability": "view",
      "type": "function"
    },
    {
      "inputs": [
        {
          "internalType": "address",
          "name": "owner",
          "type": "address"
        },
        {
          "internalType": "address",
          "name": "spender",
          "type": "address"
        }
      ],
      "name": "allowance",
      "outputs": [
        {
          "internalType": "uint256",
          "name": "",
          "type": "uint256"
        }
      ],
      "stateMutability": "view",
      "type": "function"
    },
    {
      "inputs": [
        {
          "internalType": "address",
          "name": "spender",
          "type": "address"
        },
        {
          "internalType": "uint256",
          "name": "amount",
          "type": "uint256"
        }
      ],
      "name": "approve",
      "outputs": [
        {
          "internalType": "bool",
          "name": "",
          "type": "bool"
        }
      ],
      "stateMutability": "nonpayable",
      "type": "function"
    },
    {
      "inputs": [
        {
          "internalType": "address",
          "name": "recipient",
          "type": "address"
        },
        {
          "internalType": "uint256",
          "name": "amount",
          "type": "uint256"
        }
      ],
      "name": "transfer",
      "outputs": [
        {
          "internalType": "bool",
          "name": "",
          "type": "bool"
        }
      ],
      "stateMutability": "nonpayable",
      "type": "function"
    },
    {
      "inputs": [
        {
          "internalType": "address",
          "name": "sender",
          "type": "address"
        },
        {
          "internalType": "address",
          "name": "recipient",
          "type": "address"
        },
        {
          "internalType": "uint256",
          "name": "amount",
          "type": "uint256"
        }
      ],
      "name": "transferFrom",
      "outputs": [
        {
          "internalType": "bool",
          "name": "",
          "type": "bool"
        }
      ],
      "stateMutability": "nonpayable",
      "type": "function"
    }
  ],
  "bytecode": "0x60a060405234801561001057600080fd5b506040516105803803806105808339818101604052602081101561003357600080fd5b505161003e81610053565b60601b6001600160601b0319166080526100b1565b6001600160a01b0381166100ae576040805162461bcd60e51b815260206004820152601e60248201527f4163636f756e742063616e6e6f74206265207a65726f20616464726573730000604482015290519081900360640190fd5b50565b60805160601c6104a36100dd600039806101bf528061029d528061034552806103be52506104a36000f3fe608060405234801561001057600080fd5b50600436106100575760003560e01c8063095ea7b31461005c57806323b872dd1461009c578063a3f4df7e146100d2578063a9059cbb1461014f578063dd62ed3e1461017b575b600080fd5b6100886004803603604081101561007257600080fd5b506001600160a01b0381351690602001356101bb565b604080519115158252519081900360200190f35b610088600480360360608110156100b257600080fd5b506001600160a01b03813581169160208101359091169060400135610269565b6100da61031a565b6040805160208082528351818301528351919283929083019185019080838360005b838110156101145781810151838201526020016100fc565b50505050905090810190601f1680156101415780820380516001836020036101000a031916815260200191505b509250505060405180910390f35b6100886004803603604081101561016557600080fd5b506001600160a01b038135169060200135610341565b6101a96004803603604081101561019157600080fd5b506001600160a01b03813581169160200135166103ba565b60408051918252519081900360200190f35b60007f00000000000000000000000000000000000000000000000000000000000000006001600160a01b031663095ea7b384846040518363ffffffff1660e01b815260040180836001600160a01b0316815260200182815260200192505050602060405180830381600087803b15801561023457600080fd5b505af1158015610248573d6000803e3d6000fd5b505050506040513d602081101561025e57600080fd5b506001949350505050565b604080516323b872dd60e01b81526001600160a01b03858116600483015284811660248301526044820184905291516000927f000000000000000000000000000000000000000000000000000000000000000016916323b872dd91606480830192602092919082900301818787803b1580156102e457600080fd5b505af11580156102f8573d6000803e3d6000fd5b505050506040513d602081101561030e57600080fd5b50600195945050505050565b6040518060400160405280600b81526020016a151bdad95b94d8dc9a5c1d60aa1b81525081565b60007f00000000000000000000000000000000000000000000000000000000000000006001600160a01b031663a9059cbb84846040518363ffffffff1660e01b815260040180836001600160a01b0316815260200182815260200192505050602060405180830381600087803b15801561023457600080fd5b60007f00000000000000000000000000000000000000000000000000000000000000006001600160a01b031663dd62ed3e84846040518363ffffffff1660e01b815260040180836001600160a01b03168152602001826001600160a01b031681526020019250505060206040518083038186803b15801561043a57600080fd5b505afa15801561044e573d6000803e3d6000fd5b505050506040513d602081101561046457600080fd5b5051939250505056fea2646970667358221220910f71931354116656d505e96bfcc4ace91ec145d372c18c203b938efd2a2db564736f6c63430007060033",
  "linkReferences": {},
  "deployedLinkReferences": {}
}