{
  "_format": "hh-sol-artifact-1",
  "contractName": "TroveManagerTester",
  "sourceName": "contracts/TestContracts/CDPManagerTester.sol",
  "abi": [
    {
      "inputs": [
        {
          "internalType": "uint256",
          "name": "_gasCompensation",
          "type": "uint256"
        },
        {
          "internalType": "uint256",
          "name": "_minNetDebt",
          "type": "uint256"
        }
      ],
      "stateMutability": "nonpayable",
      "type": "constructor"
    },
    {
      "anonymous": false,
      "inputs": [
        {
          "indexed": false,
          "internalType": "address",
          "name": "_activePoolAddress",
          "type": "address"
        }
      ],
      "name": "ActivePoolAddressChanged",
      "type": "event"
    },
    {
      "anonymous": false,
      "inputs": [
        {
          "indexed": false,
          "internalType": "uint256",
          "name": "_baseRate",
          "type": "uint256"
        }
      ],
      "name": "BaseRateUpdated",
      "type": "event"
    },
    {
      "anonymous": false,
      "inputs": [
        {
          "indexed": false,
          "internalType": "address",
          "name": "_newBorrowerOperationsAddress",
          "type": "address"
        }
      ],
      "name": "BorrowerOperationsAddressChanged",
      "type": "event"
    },
    {
      "anonymous": false,
      "inputs": [
        {
          "indexed": false,
          "internalType": "address",
          "name": "_collSurplusPoolAddress",
          "type": "address"
        }
      ],
      "name": "CollSurplusPoolAddressChanged",
      "type": "event"
    },
    {
      "anonymous": false,
      "inputs": [
        {
          "indexed": false,
          "internalType": "address",
          "name": "_newDebtTokenAddress",
          "type": "address"
        }
      ],
      "name": "DebtTokenAddressChanged",
      "type": "event"
    },
    {
      "anonymous": false,
      "inputs": [
        {
          "indexed": false,
          "internalType": "address",
          "name": "_defaultPoolAddress",
          "type": "address"
        }
      ],
      "name": "DefaultPoolAddressChanged",
      "type": "event"
    },
    {
      "anonymous": false,
      "inputs": [
        {
          "indexed": false,
          "internalType": "address",
          "name": "_gasPoolAddress",
          "type": "address"
        }
      ],
      "name": "GasPoolAddressChanged",
      "type": "event"
    },
    {
      "anonymous": false,
      "inputs": [
        {
          "indexed": false,
          "internalType": "uint256",
          "name": "_L_FIL",
          "type": "uint256"
        },
        {
          "indexed": false,
          "internalType": "uint256",
          "name": "_L_Debt",
          "type": "uint256"
        }
      ],
      "name": "LTermsUpdated",
      "type": "event"
    },
    {
      "anonymous": false,
      "inputs": [
        {
          "indexed": false,
          "internalType": "uint256",
          "name": "_lastFeeOpTime",
          "type": "uint256"
        }
      ],
      "name": "LastFeeOpTimeUpdated",
      "type": "event"
    },
    {
      "anonymous": false,
      "inputs": [
        {
          "indexed": false,
          "internalType": "uint256",
          "name": "_liquidatedDebt",
          "type": "uint256"
        },
        {
          "indexed": false,
          "internalType": "uint256",
          "name": "_liquidatedColl",
          "type": "uint256"
        },
        {
          "indexed": false,
          "internalType": "uint256",
          "name": "_collGasCompensation",
          "type": "uint256"
        },
        {
          "indexed": false,
          "internalType": "uint256",
          "name": "_debtGasCompensation",
          "type": "uint256"
        }
      ],
      "name": "Liquidation",
      "type": "event"
    },
    {
      "anonymous": false,
      "inputs": [
        {
          "indexed": true,
          "internalType": "address",
          "name": "previousOwner",
          "type": "address"
        },
        {
          "indexed": true,
          "internalType": "address",
          "name": "newOwner",
          "type": "address"
        }
      ],
      "name": "OwnershipTransferred",
      "type": "event"
    },
    {
      "anonymous": false,
      "inputs": [
        {
          "indexed": false,
          "internalType": "address",
          "name": "_newPriceFeedAddress",
          "type": "address"
        }
      ],
      "name": "PriceFeedAddressChanged",
      "type": "event"
    },
    {
      "anonymous": false,
      "inputs": [
        {
          "indexed": false,
          "internalType": "address",
          "name": "_protocolTokenAddress",
          "type": "address"
        }
      ],
      "name": "ProtocolTokenAddressChanged",
      "type": "event"
    },
    {
      "anonymous": false,
      "inputs": [
        {
          "indexed": false,
          "internalType": "address",
          "name": "_protocolTokenStakingAddress",
          "type": "address"
        }
      ],
      "name": "ProtocolTokenStakingAddressChanged",
      "type": "event"
    },
    {
      "anonymous": false,
      "inputs": [
        {
          "indexed": false,
          "internalType": "uint256",
          "name": "_attemptedDebtTokenAmount",
          "type": "uint256"
        },
        {
          "indexed": false,
          "internalType": "uint256",
          "name": "_actualDebtTokenAmount",
          "type": "uint256"
        },
        {
          "indexed": false,
          "internalType": "uint256",
          "name": "_FILSent",
          "type": "uint256"
        },
        {
          "indexed": false,
          "internalType": "uint256",
          "name": "_FILFee",
          "type": "uint256"
        }
      ],
      "name": "Redemption",
      "type": "event"
    },
    {
      "anonymous": false,
      "inputs": [
        {
          "indexed": false,
          "internalType": "address",
          "name": "_sortedTrovesAddress",
          "type": "address"
        }
      ],
      "name": "SortedTrovesAddressChanged",
      "type": "event"
    },
    {
      "anonymous": false,
      "inputs": [
        {
          "indexed": false,
          "internalType": "address",
          "name": "_stabilityPoolAddress",
          "type": "address"
        }
      ],
      "name": "StabilityPoolAddressChanged",
      "type": "event"
    },
    {
      "anonymous": false,
      "inputs": [
        {
          "indexed": false,
          "internalType": "uint256",
          "name": "_totalStakesSnapshot",
          "type": "uint256"
        },
        {
          "indexed": false,
          "internalType": "uint256",
          "name": "_totalCollateralSnapshot",
          "type": "uint256"
        }
      ],
      "name": "SystemSnapshotsUpdated",
      "type": "event"
    },
    {
      "anonymous": false,
      "inputs": [
        {
          "indexed": false,
          "internalType": "uint256",
          "name": "_newTotalStakes",
          "type": "uint256"
        }
      ],
      "name": "TotalStakesUpdated",
      "type": "event"
    },
    {
      "anonymous": false,
      "inputs": [
        {
          "indexed": false,
          "internalType": "address",
          "name": "_borrower",
          "type": "address"
        },
        {
          "indexed": false,
          "internalType": "uint256",
          "name": "_newIndex",
          "type": "uint256"
        }
      ],
      "name": "TroveIndexUpdated",
      "type": "event"
    },
    {
      "anonymous": false,
      "inputs": [
        {
          "indexed": true,
          "internalType": "address",
          "name": "_borrower",
          "type": "address"
        },
        {
          "indexed": false,
          "internalType": "uint256",
          "name": "_debt",
          "type": "uint256"
        },
        {
          "indexed": false,
          "internalType": "uint256",
          "name": "_coll",
          "type": "uint256"
        },
        {
          "indexed": false,
          "internalType": "enum ITroveManager.TroveManagerOperation",
          "name": "_operation",
          "type": "uint8"
        }
      ],
      "name": "TroveLiquidated",
      "type": "event"
    },
    {
      "anonymous": false,
      "inputs": [
        {
          "indexed": false,
          "internalType": "uint256",
          "name": "_L_FIL",
          "type": "uint256"
        },
        {
          "indexed": false,
          "internalType": "uint256",
          "name": "_L_Debt",
          "type": "uint256"
        }
      ],
      "name": "TroveSnapshotsUpdated",
      "type": "event"
    },
    {
      "anonymous": false,
      "inputs": [
        {
          "indexed": true,
          "internalType": "address",
          "name": "_borrower",
          "type": "address"
        },
        {
          "indexed": false,
          "internalType": "uint256",
          "name": "_debt",
          "type": "uint256"
        },
        {
          "indexed": false,
          "internalType": "uint256",
          "name": "_coll",
          "type": "uint256"
        },
        {
          "indexed": false,
          "internalType": "uint256",
          "name": "stake",
          "type": "uint256"
        },
        {
          "indexed": false,
          "internalType": "enum ITroveManager.TroveManagerOperation",
          "name": "_operation",
          "type": "uint8"
        }
      ],
      "name": "TroveUpdated",
      "type": "event"
    },
    {
      "inputs": [],
      "name": "BETA",
      "outputs": [
        {
          "internalType": "uint256",
          "name": "",
          "type": "uint256"
        }
      ],
      "stateMutability": "view",
      "type": "function"
    },
    {
      "inputs": [],
      "name": "BOOTSTRAP_PERIOD",
      "outputs": [
        {
          "internalType": "uint256",
          "name": "",
          "type": "uint256"
        }
      ],
      "stateMutability": "view",
      "type": "function"
    },
    {
      "inputs": [],
      "name": "BORROWING_FEE_FLOOR",
      "outputs": [
        {
          "internalType": "uint256",
          "name": "",
          "type": "uint256"
        }
      ],
      "stateMutability": "view",
      "type": "function"
    },
    {
      "inputs": [],
      "name": "CCR",
      "outputs": [
        {
          "internalType": "uint256",
          "name": "",
          "type": "uint256"
        }
      ],
      "stateMutability": "view",
      "type": "function"
    },
    {
      "inputs": [],
      "name": "DECIMAL_PRECISION",
      "outputs": [
        {
          "internalType": "uint256",
          "name": "",
          "type": "uint256"
        }
      ],
      "stateMutability": "view",
      "type": "function"
    },
    {
      "inputs": [],
      "name": "GAS_COMPENSATION",
      "outputs": [
        {
          "internalType": "uint256",
          "name": "",
          "type": "uint256"
        }
      ],
      "stateMutability": "view",
      "type": "function"
    },
    {
      "inputs": [],
      "name": "L_Debt",
      "outputs": [
        {
          "internalType": "uint256",
          "name": "",
          "type": "uint256"
        }
      ],
      "stateMutability": "view",
      "type": "function"
    },
    {
      "inputs": [],
      "name": "L_FIL",
      "outputs": [
        {
          "internalType": "uint256",
          "name": "",
          "type": "uint256"
        }
      ],
      "stateMutability": "view",
      "type": "function"
    },
    {
      "inputs": [],
      "name": "MAX_BORROWING_FEE",
      "outputs": [
        {
          "internalType": "uint256",
          "name": "",
          "type": "uint256"
        }
      ],
      "stateMutability": "view",
      "type": "function"
    },
    {
      "inputs": [],
      "name": "MCR",
      "outputs": [
        {
          "internalType": "uint256",
          "name": "",
          "type": "uint256"
        }
      ],
      "stateMutability": "view",
      "type": "function"
    },
    {
      "inputs": [],
      "name": "MINUTE_DECAY_FACTOR",
      "outputs": [
        {
          "internalType": "uint256",
          "name": "",
          "type": "uint256"
        }
      ],
      "stateMutability": "view",
      "type": "function"
    },
    {
      "inputs": [],
      "name": "MIN_NET_DEBT",
      "outputs": [
        {
          "internalType": "uint256",
          "name": "",
          "type": "uint256"
        }
      ],
      "stateMutability": "view",
      "type": "function"
    },
    {
      "inputs": [],
      "name": "NAME",
      "outputs": [
        {
          "internalType": "string",
          "name": "",
          "type": "string"
        }
      ],
      "stateMutability": "view",
      "type": "function"
    },
    {
      "inputs": [],
      "name": "PERCENT_DIVISOR",
      "outputs": [
        {
          "internalType": "uint256",
          "name": "",
          "type": "uint256"
        }
      ],
      "stateMutability": "view",
      "type": "function"
    },
    {
      "inputs": [],
      "name": "REDEMPTION_FEE_FLOOR",
      "outputs": [
        {
          "internalType": "uint256",
          "name": "",
          "type": "uint256"
        }
      ],
      "stateMutability": "view",
      "type": "function"
    },
    {
      "inputs": [],
      "name": "SECONDS_IN_ONE_MINUTE",
      "outputs": [
        {
          "internalType": "uint256",
          "name": "",
          "type": "uint256"
        }
      ],
      "stateMutability": "view",
      "type": "function"
    },
    {
      "inputs": [
        {
          "internalType": "uint256",
          "name": "",
          "type": "uint256"
        }
      ],
      "name": "TroveOwners",
      "outputs": [
        {
          "internalType": "address",
          "name": "",
          "type": "address"
        }
      ],
      "stateMutability": "view",
      "type": "function"
    },
    {
      "inputs": [
        {
          "internalType": "address",
          "name": "",
          "type": "address"
        }
      ],
      "name": "Troves",
      "outputs": [
        {
          "internalType": "uint256",
          "name": "debt",
          "type": "uint256"
        },
        {
          "internalType": "uint256",
          "name": "coll",
          "type": "uint256"
        },
        {
          "internalType": "uint256",
          "name": "stake",
          "type": "uint256"
        },
        {
          "internalType": "enum ITroveManager.Status",
          "name": "status",
          "type": "uint8"
        },
        {
          "internalType": "uint128",
          "name": "arrayIndex",
          "type": "uint128"
        }
      ],
      "stateMutability": "view",
      "type": "function"
    },
    {
      "inputs": [],
      "name": "_100pct",
      "outputs": [
        {
          "internalType": "uint256",
          "name": "",
          "type": "uint256"
        }
      ],
      "stateMutability": "view",
      "type": "function"
    },
    {
      "inputs": [],
      "name": "activePool",
      "outputs": [
        {
          "internalType": "contract IActivePool",
          "name": "",
          "type": "address"
        }
      ],
      "stateMutability": "view",
      "type": "function"
    },
    {
      "inputs": [
        {
          "internalType": "address",
          "name": "_borrower",
          "type": "address"
        }
      ],
      "name": "addTroveOwnerToArray",
      "outputs": [
        {
          "internalType": "uint256",
          "name": "index",
          "type": "uint256"
        }
      ],
      "stateMutability": "nonpayable",
      "type": "function"
    },
    {
      "inputs": [
        {
          "internalType": "address",
          "name": "_borrower",
          "type": "address"
        }
      ],
      "name": "applyPendingRewards",
      "outputs": [],
      "stateMutability": "nonpayable",
      "type": "function"
    },
    {
      "inputs": [],
      "name": "baseRate",
      "outputs": [
        {
          "internalType": "uint256",
          "name": "",
          "type": "uint256"
        }
      ],
      "stateMutability": "view",
      "type": "function"
    },
    {
      "inputs": [
        {
          "internalType": "address[]",
          "name": "_troveArray",
          "type": "address[]"
        }
      ],
      "name": "batchLiquidateTroves",
      "outputs": [],
      "stateMutability": "nonpayable",
      "type": "function"
    },
    {
      "inputs": [],
      "name": "borrowerOperationsAddress",
      "outputs": [
        {
          "internalType": "address",
          "name": "",
          "type": "address"
        }
      ],
      "stateMutability": "view",
      "type": "function"
    },
    {
      "inputs": [
        {
          "internalType": "uint256",
          "name": "_FILDrawn",
          "type": "uint256"
        }
      ],
      "name": "callGetRedemptionFee",
      "outputs": [
        {
          "internalType": "uint256",
          "name": "",
          "type": "uint256"
        }
      ],
      "stateMutability": "view",
      "type": "function"
    },
    {
      "inputs": [
        {
          "internalType": "address",
          "name": "_troveOwner",
          "type": "address"
        }
      ],
      "name": "callInternalRemoveTroveOwner",
      "outputs": [],
      "stateMutability": "nonpayable",
      "type": "function"
    },
    {
      "inputs": [
        {
          "internalType": "uint256",
          "name": "_price",
          "type": "uint256"
        }
      ],
      "name": "checkRecoveryMode",
      "outputs": [
        {
          "internalType": "bool",
          "name": "",
          "type": "bool"
        }
      ],
      "stateMutability": "view",
      "type": "function"
    },
    {
      "inputs": [
        {
          "internalType": "address",
          "name": "_borrower",
          "type": "address"
        }
      ],
      "name": "closeTrove",
      "outputs": [],
      "stateMutability": "nonpayable",
      "type": "function"
    },
    {
      "inputs": [],
      "name": "collSurplusPool",
      "outputs": [
        {
          "internalType": "contract ICollSurplusPool",
          "name": "",
          "type": "address"
        }
      ],
      "stateMutability": "view",
      "type": "function"
    },
    {
      "inputs": [
        {
          "internalType": "uint256",
          "name": "_coll",
          "type": "uint256"
        },
        {
          "internalType": "uint256",
          "name": "_debt",
          "type": "uint256"
        },
        {
          "internalType": "uint256",
          "name": "_price",
          "type": "uint256"
        }
      ],
      "name": "computeICR",
      "outputs": [
        {
          "internalType": "uint256",
          "name": "",
          "type": "uint256"
        }
      ],
      "stateMutability": "pure",
      "type": "function"
    },
    {
      "inputs": [],
      "name": "debtToken",
      "outputs": [
        {
          "internalType": "contract IDebtToken",
          "name": "",
          "type": "address"
        }
      ],
      "stateMutability": "view",
      "type": "function"
    },
    {
      "inputs": [],
      "name": "decayBaseRateFromBorrowing",
      "outputs": [],
      "stateMutability": "nonpayable",
      "type": "function"
    },
    {
      "inputs": [
        {
          "internalType": "address",
          "name": "_borrower",
          "type": "address"
        },
        {
          "internalType": "uint256",
          "name": "_collDecrease",
          "type": "uint256"
        }
      ],
      "name": "decreaseTroveColl",
      "outputs": [
        {
          "internalType": "uint256",
          "name": "",
          "type": "uint256"
        }
      ],
      "stateMutability": "nonpayable",
      "type": "function"
    },
    {
      "inputs": [
        {
          "internalType": "address",
          "name": "_borrower",
          "type": "address"
        },
        {
          "internalType": "uint256",
          "name": "_debtDecrease",
          "type": "uint256"
        }
      ],
      "name": "decreaseTroveDebt",
      "outputs": [
        {
          "internalType": "uint256",
          "name": "",
          "type": "uint256"
        }
      ],
      "stateMutability": "nonpayable",
      "type": "function"
    },
    {
      "inputs": [],
      "name": "defaultPool",
      "outputs": [
        {
          "internalType": "contract IDefaultPool",
          "name": "",
          "type": "address"
        }
      ],
      "stateMutability": "view",
      "type": "function"
    },
    {
      "inputs": [],
      "name": "deploymentStartTime",
      "outputs": [
        {
          "internalType": "uint256",
          "name": "",
          "type": "uint256"
        }
      ],
      "stateMutability": "view",
      "type": "function"
    },
    {
      "inputs": [],
      "name": "gasPoolAddress",
      "outputs": [
        {
          "internalType": "address",
          "name": "",
          "type": "address"
        }
      ],
      "stateMutability": "view",
      "type": "function"
    },
    {
      "inputs": [
        {
          "internalType": "uint256",
          "name": "_debtVal",
          "type": "uint256"
        }
      ],
      "name": "getActualDebtFromComposite",
      "outputs": [
        {
          "internalType": "uint256",
          "name": "",
          "type": "uint256"
        }
      ],
      "stateMutability": "view",
      "type": "function"
    },
    {
      "inputs": [
        {
          "internalType": "uint256",
          "name": "_debt",
          "type": "uint256"
        }
      ],
      "name": "getBorrowingFee",
      "outputs": [
        {
          "internalType": "uint256",
          "name": "",
          "type": "uint256"
        }
      ],
      "stateMutability": "view",
      "type": "function"
    },
    {
      "inputs": [
        {
          "internalType": "uint256",
          "name": "_debt",
          "type": "uint256"
        }
      ],
      "name": "getBorrowingFeeWithDecay",
      "outputs": [
        {
          "internalType": "uint256",
          "name": "",
          "type": "uint256"
        }
      ],
      "stateMutability": "view",
      "type": "function"
    },
    {
      "inputs": [],
      "name": "getBorrowingRate",
      "outputs": [
        {
          "internalType": "uint256",
          "name": "",
          "type": "uint256"
        }
      ],
      "stateMutability": "view",
      "type": "function"
    },
    {
      "inputs": [],
      "name": "getBorrowingRateWithDecay",
      "outputs": [
        {
          "internalType": "uint256",
          "name": "",
          "type": "uint256"
        }
      ],
      "stateMutability": "view",
      "type": "function"
    },
    {
      "inputs": [
        {
          "internalType": "uint256",
          "name": "_coll",
          "type": "uint256"
        }
      ],
      "name": "getCollGasCompensation",
      "outputs": [
        {
          "internalType": "uint256",
          "name": "",
          "type": "uint256"
        }
      ],
      "stateMutability": "pure",
      "type": "function"
    },
    {
      "inputs": [
        {
          "internalType": "uint256",
          "name": "_debt",
          "type": "uint256"
        }
      ],
      "name": "getCompositeDebt",
      "outputs": [
        {
          "internalType": "uint256",
          "name": "",
          "type": "uint256"
        }
      ],
      "stateMutability": "view",
      "type": "function"
    },
    {
      "inputs": [
        {
          "internalType": "address",
          "name": "_borrower",
          "type": "address"
        },
        {
          "internalType": "uint256",
          "name": "_price",
          "type": "uint256"
        }
      ],
      "name": "getCurrentICR",
      "outputs": [
        {
          "internalType": "uint256",
          "name": "",
          "type": "uint256"
        }
      ],
      "stateMutability": "view",
      "type": "function"
    },
    {
      "inputs": [
        {
          "internalType": "address",
          "name": "_borrower",
          "type": "address"
        }
      ],
      "name": "getEntireDebtAndColl",
      "outputs": [
        {
          "internalType": "uint256",
          "name": "debt",
          "type": "uint256"
        },
        {
          "internalType": "uint256",
          "name": "coll",
          "type": "uint256"
        },
        {
          "internalType": "uint256",
          "name": "pendingDebtReward",
          "type": "uint256"
        },
        {
          "internalType": "uint256",
          "name": "pendingFILReward",
          "type": "uint256"
        }
      ],
      "stateMutability": "view",
      "type": "function"
    },
    {
      "inputs": [],
      "name": "getEntireSystemColl",
      "outputs": [
        {
          "internalType": "uint256",
          "name": "entireSystemColl",
          "type": "uint256"
        }
      ],
      "stateMutability": "view",
      "type": "function"
    },
    {
      "inputs": [],
      "name": "getEntireSystemDebt",
      "outputs": [
        {
          "internalType": "uint256",
          "name": "entireSystemDebt",
          "type": "uint256"
        }
      ],
      "stateMutability": "view",
      "type": "function"
    },
    {
      "inputs": [],
      "name": "getGasCompensation",
      "outputs": [
        {
          "internalType": "uint256",
          "name": "",
          "type": "uint256"
        }
      ],
      "stateMutability": "view",
      "type": "function"
    },
    {
      "inputs": [
        {
          "internalType": "address",
          "name": "_borrower",
          "type": "address"
        }
      ],
      "name": "getNominalICR",
      "outputs": [
        {
          "internalType": "uint256",
          "name": "",
          "type": "uint256"
        }
      ],
      "stateMutability": "view",
      "type": "function"
    },
    {
      "inputs": [
        {
          "internalType": "address",
          "name": "_borrower",
          "type": "address"
        }
      ],
      "name": "getPendingDebtReward",
      "outputs": [
        {
          "internalType": "uint256",
          "name": "",
          "type": "uint256"
        }
      ],
      "stateMutability": "view",
      "type": "function"
    },
    {
      "inputs": [
        {
          "internalType": "address",
          "name": "_borrower",
          "type": "address"
        }
      ],
      "name": "getPendingFILReward",
      "outputs": [
        {
          "internalType": "uint256",
          "name": "",
          "type": "uint256"
        }
      ],
      "stateMutability": "view",
      "type": "function"
    },
    {
      "inputs": [
        {
          "internalType": "uint256",
          "name": "_FILDrawn",
          "type": "uint256"
        }
      ],
      "name": "getRedemptionFeeWithDecay",
      "outputs": [
        {
          "internalType": "uint256",
          "name": "",
          "type": "uint256"
        }
      ],
      "stateMutability": "view",
      "type": "function"
    },
    {
      "inputs": [],
      "name": "getRedemptionRate",
      "outputs": [
        {
          "internalType": "uint256",
          "name": "",
          "type": "uint256"
        }
      ],
      "stateMutability": "view",
      "type": "function"
    },
    {
      "inputs": [],
      "name": "getRedemptionRateWithDecay",
      "outputs": [
        {
          "internalType": "uint256",
          "name": "",
          "type": "uint256"
        }
      ],
      "stateMutability": "view",
      "type": "function"
    },
    {
      "inputs": [
        {
          "internalType": "uint256",
          "name": "_price",
          "type": "uint256"
        }
      ],
      "name": "getTCR",
      "outputs": [
        {
          "internalType": "uint256",
          "name": "",
          "type": "uint256"
        }
      ],
      "stateMutability": "view",
      "type": "function"
    },
    {
      "inputs": [
        {
          "internalType": "address",
          "name": "_borrower",
          "type": "address"
        }
      ],
      "name": "getTroveColl",
      "outputs": [
        {
          "internalType": "uint256",
          "name": "",
          "type": "uint256"
        }
      ],
      "stateMutability": "view",
      "type": "function"
    },
    {
      "inputs": [
        {
          "internalType": "address",
          "name": "_borrower",
          "type": "address"
        }
      ],
      "name": "getTroveDebt",
      "outputs": [
        {
          "internalType": "uint256",
          "name": "",
          "type": "uint256"
        }
      ],
      "stateMutability": "view",
      "type": "function"
    },
    {
      "inputs": [
        {
          "internalType": "uint256",
          "name": "_index",
          "type": "uint256"
        }
      ],
      "name": "getTroveFromTroveOwnersArray",
      "outputs": [
        {
          "internalType": "address",
          "name": "",
          "type": "address"
        }
      ],
      "stateMutability": "view",
      "type": "function"
    },
    {
      "inputs": [],
      "name": "getTroveOwnersCount",
      "outputs": [
        {
          "internalType": "uint256",
          "name": "",
          "type": "uint256"
        }
      ],
      "stateMutability": "view",
      "type": "function"
    },
    {
      "inputs": [
        {
          "internalType": "address",
          "name": "_borrower",
          "type": "address"
        }
      ],
      "name": "getTroveStake",
      "outputs": [
        {
          "internalType": "uint256",
          "name": "",
          "type": "uint256"
        }
      ],
      "stateMutability": "view",
      "type": "function"
    },
    {
      "inputs": [
        {
          "internalType": "address",
          "name": "_borrower",
          "type": "address"
        }
      ],
      "name": "getTroveStatus",
      "outputs": [
        {
          "internalType": "uint256",
          "name": "",
          "type": "uint256"
        }
      ],
      "stateMutability": "view",
      "type": "function"
    },
    {
      "inputs": [
        {
          "internalType": "address",
          "name": "_borrower",
          "type": "address"
        }
      ],
      "name": "hasPendingRewards",
      "outputs": [
        {
          "internalType": "bool",
          "name": "",
          "type": "bool"
        }
      ],
      "stateMutability": "view",
      "type": "function"
    },
    {
      "inputs": [
        {
          "internalType": "address",
          "name": "_borrower",
          "type": "address"
        },
        {
          "internalType": "uint256",
          "name": "_collIncrease",
          "type": "uint256"
        }
      ],
      "name": "increaseTroveColl",
      "outputs": [
        {
          "internalType": "uint256",
          "name": "",
          "type": "uint256"
        }
      ],
      "stateMutability": "nonpayable",
      "type": "function"
    },
    {
      "inputs": [
        {
          "internalType": "address",
          "name": "_borrower",
          "type": "address"
        },
        {
          "internalType": "uint256",
          "name": "_debtIncrease",
          "type": "uint256"
        }
      ],
      "name": "increaseTroveDebt",
      "outputs": [
        {
          "internalType": "uint256",
          "name": "",
          "type": "uint256"
        }
      ],
      "stateMutability": "nonpayable",
      "type": "function"
    },
    {
      "inputs": [
        {
          "internalType": "address",
          "name": "_borrowerOperationsAddress",
          "type": "address"
        },
        {
          "internalType": "address",
          "name": "_activePoolAddress",
          "type": "address"
        },
        {
          "internalType": "address",
          "name": "_defaultPoolAddress",
          "type": "address"
        },
        {
          "internalType": "address",
          "name": "_stabilityPoolAddress",
          "type": "address"
        },
        {
          "internalType": "address",
          "name": "_gasPoolAddress",
          "type": "address"
        },
        {
          "internalType": "address",
          "name": "_collSurplusPoolAddress",
          "type": "address"
        },
        {
          "internalType": "address",
          "name": "_priceFeedAddress",
          "type": "address"
        },
        {
          "internalType": "address",
          "name": "_debtTokenAddress",
          "type": "address"
        },
        {
          "internalType": "address",
          "name": "_sortedTrovesAddress",
          "type": "address"
        },
        {
          "internalType": "address",
          "name": "_protocolTokenAddress",
          "type": "address"
        },
        {
          "internalType": "address",
          "name": "_protocolTokenStakingAddress",
          "type": "address"
        }
      ],
      "name": "initialize",
      "outputs": [],
      "stateMutability": "nonpayable",
      "type": "function"
    },
    {
      "inputs": [],
      "name": "lastFILError_Redistribution",
      "outputs": [
        {
          "internalType": "uint256",
          "name": "",
          "type": "uint256"
        }
      ],
      "stateMutability": "view",
      "type": "function"
    },
    {
      "inputs": [],
      "name": "lastFeeOperationTime",
      "outputs": [
        {
          "internalType": "uint256",
          "name": "",
          "type": "uint256"
        }
      ],
      "stateMutability": "view",
      "type": "function"
    },
    {
      "inputs": [],
      "name": "lastLDebtError_Redistribution",
      "outputs": [
        {
          "internalType": "uint256",
          "name": "",
          "type": "uint256"
        }
      ],
      "stateMutability": "view",
      "type": "function"
    },
    {
      "inputs": [
        {
          "internalType": "address",
          "name": "_borrower",
          "type": "address"
        }
      ],
      "name": "liquidate",
      "outputs": [],
      "stateMutability": "nonpayable",
      "type": "function"
    },
    {
      "inputs": [
        {
          "internalType": "uint256",
          "name": "_n",
          "type": "uint256"
        }
      ],
      "name": "liquidateTroves",
      "outputs": [],
      "stateMutability": "nonpayable",
      "type": "function"
    },
    {
      "inputs": [],
      "name": "minutesPassedSinceLastFeeOp",
      "outputs": [
        {
          "internalType": "uint256",
          "name": "",
          "type": "uint256"
        }
      ],
      "stateMutability": "view",
      "type": "function"
    },
    {
      "inputs": [],
      "name": "owner",
      "outputs": [
        {
          "internalType": "address",
          "name": "",
          "type": "address"
        }
      ],
      "stateMutability": "view",
      "type": "function"
    },
    {
      "inputs": [],
      "name": "priceFeed",
      "outputs": [
        {
          "internalType": "contract IPriceFeed",
          "name": "",
          "type": "address"
        }
      ],
      "stateMutability": "view",
      "type": "function"
    },
    {
      "inputs": [],
      "name": "protocolToken",
      "outputs": [
        {
          "internalType": "contract IProtocolToken",
          "name": "",
          "type": "address"
        }
      ],
      "stateMutability": "view",
      "type": "function"
    },
    {
      "inputs": [],
      "name": "protocolTokenStaking",
      "outputs": [
        {
          "internalType": "contract IProtocolTokenStaking",
          "name": "",
          "type": "address"
        }
      ],
      "stateMutability": "view",
      "type": "function"
    },
    {
      "inputs": [
        {
          "internalType": "uint256",
          "name": "_debtTokenAmount",
          "type": "uint256"
        },
        {
          "internalType": "address",
          "name": "_firstRedemptionHint",
          "type": "address"
        },
        {
          "internalType": "address",
          "name": "_upperPartialRedemptionHint",
          "type": "address"
        },
        {
          "internalType": "address",
          "name": "_lowerPartialRedemptionHint",
          "type": "address"
        },
        {
          "internalType": "uint256",
          "name": "_partialRedemptionHintNICR",
          "type": "uint256"
        },
        {
          "internalType": "uint256",
          "name": "_maxIterations",
          "type": "uint256"
        },
        {
          "internalType": "uint256",
          "name": "_maxFeePercentage",
          "type": "uint256"
        }
      ],
      "name": "redeemCollateral",
      "outputs": [],
      "stateMutability": "nonpayable",
      "type": "function"
    },
    {
      "inputs": [
        {
          "internalType": "address",
          "name": "_borrower",
          "type": "address"
        }
      ],
      "name": "removeStake",
      "outputs": [],
      "stateMutability": "nonpayable",
      "type": "function"
    },
    {
      "inputs": [],
      "name": "renounceOwnership",
      "outputs": [],
      "stateMutability": "nonpayable",
      "type": "function"
    },
    {
      "inputs": [
        {
          "internalType": "address",
          "name": "",
          "type": "address"
        }
      ],
      "name": "rewardSnapshots",
      "outputs": [
        {
          "internalType": "uint256",
          "name": "FIL",
          "type": "uint256"
        },
        {
          "internalType": "uint256",
          "name": "debt",
          "type": "uint256"
        }
      ],
      "stateMutability": "view",
      "type": "function"
    },
    {
      "inputs": [
        {
          "internalType": "uint256",
          "name": "_baseRate",
          "type": "uint256"
        }
      ],
      "name": "setBaseRate",
      "outputs": [],
      "stateMutability": "nonpayable",
      "type": "function"
    },
    {
      "inputs": [],
      "name": "setLastFeeOpTimeToNow",
      "outputs": [],
      "stateMutability": "nonpayable",
      "type": "function"
    },
    {
      "inputs": [
        {
          "internalType": "address",
          "name": "_borrower",
          "type": "address"
        },
        {
          "internalType": "uint256",
          "name": "_num",
          "type": "uint256"
        }
      ],
      "name": "setTroveStatus",
      "outputs": [],
      "stateMutability": "nonpayable",
      "type": "function"
    },
    {
      "inputs": [],
      "name": "sortedTroves",
      "outputs": [
        {
          "internalType": "contract ISortedTroves",
          "name": "",
          "type": "address"
        }
      ],
      "stateMutability": "view",
      "type": "function"
    },
    {
      "inputs": [],
      "name": "stabilityPool",
      "outputs": [
        {
          "internalType": "contract IStabilityPool",
          "name": "",
          "type": "address"
        }
      ],
      "stateMutability": "view",
      "type": "function"
    },
    {
      "inputs": [],
      "name": "totalCollateralSnapshot",
      "outputs": [
        {
          "internalType": "uint256",
          "name": "",
          "type": "uint256"
        }
      ],
      "stateMutability": "view",
      "type": "function"
    },
    {
      "inputs": [],
      "name": "totalStakes",
      "outputs": [
        {
          "internalType": "uint256",
          "name": "",
          "type": "uint256"
        }
      ],
      "stateMutability": "view",
      "type": "function"
    },
    {
      "inputs": [],
      "name": "totalStakesSnapshot",
      "outputs": [
        {
          "internalType": "uint256",
          "name": "",
          "type": "uint256"
        }
      ],
      "stateMutability": "view",
      "type": "function"
    },
    {
      "inputs": [
        {
          "internalType": "address",
          "name": "newOwner",
          "type": "address"
        }
      ],
      "name": "transferOwnership",
      "outputs": [],
      "stateMutability": "nonpayable",
      "type": "function"
    },
    {
      "inputs": [],
      "name": "unprotectedDecayBaseRateFromBorrowing",
      "outputs": [
        {
          "internalType": "uint256",
          "name": "",
          "type": "uint256"
        }
      ],
      "stateMutability": "nonpayable",
      "type": "function"
    },
    {
      "inputs": [
        {
          "internalType": "address",
          "name": "_borrower",
          "type": "address"
        }
      ],
      "name": "updateStakeAndTotalStakes",
      "outputs": [
        {
          "internalType": "uint256",
          "name": "",
          "type": "uint256"
        }
      ],
      "stateMutability": "nonpayable",
      "type": "function"
    },
    {
      "inputs": [
        {
          "internalType": "address",
          "name": "_borrower",
          "type": "address"
        }
      ],
      "name": "updateTroveRewardSnapshots",
      "outputs": [],
      "stateMutability": "nonpayable",
      "type": "function"
    }
  ],
  "bytecode": "0x60e06040523480156200001157600080fd5b506040516200603838038062006038833981810160405260408110156200003757600080fd5b508051602090910151608082905260a08190524260c0819052615f8d620000ab60003980612a55528061431a52508061100952806147d2525080610f865280611a5652806135f852806136e4528061465352806146f852806147395280614f1e528061536f5280615a455250615f8d6000f3fe608060405234801561001057600080fd5b506004361061050f5760003560e01c8063756b253e116102a4578063c35bc55011610172578063dc62a702116100d9578063f8d8989811610092578063f8d8989814610e86578063f92d343314610757578063fdf27dba14610e8e578063fe2ba84814610e96578063fe9d032314610ebc578063febb33de14610ec45761050f565b8063dc62a70214610dde578063e2ac77b014610e04578063e545242314610e2a578063f2fde38b14610e32578063f36b242514610e58578063f59fac2d14610e605761050f565b8063d380a37c1161012b578063d380a37c14610d42578063d3d6f84314610d4a578063d5b3563514610d76578063d66a255314610d93578063d9a7244414610db9578063da303f1414610dd65761050f565b8063c35bc55014610cd0578063c52861f214610cd8578063c7b5548114610ce0578063cbd138ae14610ce8578063cda775f914610d0e578063d293c71014610d165761050f565b80639976cf4511610216578063b0d8e181116101cf578063b0d8e18114610be3578063b7f8cf9b14610c09578063b82f263d14610c11578063b91af97c14610c2e578063bcd3752614610c7a578063bf9befb114610cc85761050f565b80639976cf4514610b0d578063a0d8d6bc14610b39578063a20baee6146109d5578063a3f4df7e14610b41578063a537896f14610bbe578063ae91875414610bdb5761050f565b8063807d138d11610268578063807d138d14610a9e578063814a0a4514610aa657806382fe3eb914610acf578063887105d314610af55780638da5cb5b14610afd57806396d711ff14610b055761050f565b8063756b253e146109ed57806376902b8314610a0a578063794e572414610a86578063795d26c314610a8e5780637f7dde4a14610a965761050f565b8063477d66cf116103e157806361ec893d116103535780636ef643381161030c5780636ef6433814610935578063715018a6146109a157806372423c17146109a957806372fe25aa146109d557806373098be9146109dd578063741bef1a146109e55761050f565b806361ec893d146108bd578063631203b0146108c557806364cee260146108e2578063653d46e71461090857806366ca4a2114610925578063695b2e341461092d5761050f565b80634ff81443116103a55780634ff814431461082157806352512eaa1461083e57806354062a45146108645780635733d58f146108815780635d6b480f146108895780635dba4c4a146108b55761050f565b8063477d66cf1461079d578063480cd578146107ba5780634870dd9a146107e057806349eefeee146107e85780634e443d9e146107f05761050f565b80631bf435551161048557806326b4d8fd1161043e57806326b4d8fd1461074f57806328d28b5b146107575780632b11551a1461075f5780632f8655681461076757806331eaf05c1461078d5780633cc74225146107955761050f565b80631bf43555146106515780631d08837b146106595780631e8b1c2b146106765780631f68f20a1461071957806321e378011461072157806324092669146107475761050f565b806312610e92116104d757806312610e921461058a578063139f2e8c146105b657806315d549f1146105be5780631673c79a146105e457806318f2817a146106235780631a465fe1146106495761050f565b8063043782fb14610514578063048c661d1461051e578063071a7541146105425780630b0765571461055c578063105bb15c14610582575b600080fd5b61051c610ee1565b005b610526610ee7565b604080516001600160a01b039092168252519081900360200190f35b61054a610ef6565b60408051918252519081900360200190f35b61051c6004803603602081101561057257600080fd5b50356001600160a01b0316610efb565b61054a610f23565b61054a600480360360408110156105a057600080fd5b506001600160a01b038135169060200135610f32565b61054a610f84565b61054a600480360360208110156105d457600080fd5b50356001600160a01b0316610fa8565b61060a600480360360208110156105fa57600080fd5b50356001600160a01b0316610fcc565b6040805192835260208301919091528051918290030190f35b61054a6004803603602081101561063957600080fd5b50356001600160a01b0316610fe5565b610526610ff8565b61054a611007565b61051c6004803603602081101561066f57600080fd5b503561102b565b61051c6004803603602081101561068c57600080fd5b8101906020810181356401000000008111156106a757600080fd5b8201836020820111156106b957600080fd5b803590602001918460208302840111640100000000831117156106db57600080fd5b919080806020026020016040519081016040528093929190818152602001838360200280828437600092019190915250929550611030945050505050565b61054a6113c4565b61054a6004803603602081101561073757600080fd5b50356001600160a01b03166113ca565b61054a6113f4565b61054a611407565b61054a61140d565b61054a61141e565b61051c6004803603602081101561077d57600080fd5b50356001600160a01b031661142b565b61054a611491565b610526611497565b61054a600480360360208110156107b357600080fd5b50356114a6565b61054a600480360360208110156107d057600080fd5b50356001600160a01b03166114b9565b61054a6114d7565b61054a6114dc565b61080d6004803603602081101561080657600080fd5b50356114e2565b604080519115158252519081900360200190f35b61054a6004803603602081101561083757600080fd5b50356114ed565b61054a6004803603602081101561085457600080fd5b50356001600160a01b03166114f8565b61054a6004803603602081101561087a57600080fd5b50356115ac565b61054a6115b7565b61051c6004803603604081101561089f57600080fd5b506001600160a01b0381351690602001356115c3565b61051c61160f565b61054a611675565b61054a600480360360208110156108db57600080fd5b503561167a565b61054a600480360360208110156108f857600080fd5b50356001600160a01b0316611687565b61051c6004803603602081101561091e57600080fd5b50356116a5565b61054a611a42565b61054a611a54565b61095b6004803603602081101561094b57600080fd5b50356001600160a01b0316611a78565b6040518086815260200185815260200184815260200183600481111561097d57fe5b8152602001826001600160801b031681526020019550505050505060405180910390f35b61051c611ab2565b61054a600480360360408110156109bf57600080fd5b506001600160a01b038135169060200135611b5e565b61054a611bb5565b61054a611bc1565b610526611bc7565b61052660048036036020811015610a0357600080fd5b5035611bd6565b61051c6004803603610160811015610a2157600080fd5b506001600160a01b038135811691602081013582169160408201358116916060810135821691608082013581169160a081013582169160c082013581169160e08101358216916101008201358116916101208101358216916101409091013516611c00565b61054a611cdf565b61054a611ceb565b610526611de6565b61054a611df5565b61054a60048036036060811015610abc57600080fd5b5080359060208101359060400135611dfb565b61051c60048036036020811015610ae557600080fd5b50356001600160a01b0316611e12565b61054a611e23565b610526611edf565b61054a611eee565b61054a60048036036040811015610b2357600080fd5b506001600160a01b038135169060200135611ef4565b61054a611f21565b610b49611f27565b6040805160208082528351818301528351919283929083019185019080838360005b83811015610b83578181015183820152602001610b6b565b50505050905090810190601f168015610bb05780820380516001836020036101000a031916815260200191505b509250505060405180910390f35b61054a60048036036020811015610bd457600080fd5b5035611f4f565b610526611f5a565b61054a60048036036020811015610bf957600080fd5b50356001600160a01b0316611f69565b610526611f90565b61054a60048036036020811015610c2757600080fd5b5035611f9f565b610c5460048036036020811015610c4457600080fd5b50356001600160a01b0316611faa565b604080519485526020850193909352838301919091526060830152519081900360800190f35b61051c600480360360e0811015610c9057600080fd5b508035906001600160a01b03602082013581169160408101358216916060820135169060808101359060a08101359060c00135612002565b61054a612765565b61054a61276b565b61054a612772565b61054a612784565b61051c60048036036020811015610cfe57600080fd5b50356001600160a01b0316612790565b6105266127a3565b61054a60048036036040811015610d2c57600080fd5b506001600160a01b0381351690602001356127b2565b61054a6127d1565b61054a60048036036040811015610d6057600080fd5b506001600160a01b0381351690602001356127d7565b61054a60048036036020811015610d8c57600080fd5b5035612807565b61054a60048036036020811015610da957600080fd5b50356001600160a01b031661281a565b61052660048036036020811015610dcf57600080fd5b5035612835565b61054a61285f565b61051c60048036036020811015610df457600080fd5b50356001600160a01b031661288f565b61080d60048036036020811015610e1a57600080fd5b50356001600160a01b031661289c565b6105266128fa565b61051c60048036036020811015610e4857600080fd5b50356001600160a01b0316612909565b61054a612a0c565b61054a60048036036020811015610e7657600080fd5b50356001600160a01b0316612a19565b610526612a44565b61054a612a53565b61051c60048036036020811015610eac57600080fd5b50356001600160a01b0316612a77565b610526612a88565b61054a60048036036020811015610eda57600080fd5b5035612a97565b42607055565b606a546001600160a01b031681565b600281565b610f03612aa2565b600054600154610f20916001600160a01b03908116911683612aed565b50565b6000610f2d612c03565b905090565b6000610f3c612aa2565b6001600160a01b038316600090815260716020526040812054610f5f9084612c1f565b6001600160a01b03851660009081526071602052604090208190559150505b92915050565b7f000000000000000000000000000000000000000000000000000000000000000081565b6000610fb2612aa2565b610fbb82612c7c565b6001600160801b031690505b919050565b6077602052600090815260409020805460019091015482565b6000610fef612aa2565b610f7e82612d16565b606c546001600160a01b031681565b7f000000000000000000000000000000000000000000000000000000000000000081565b606f55565b805161106d5760405162461bcd60e51b8152600401808060200182810382526036815260200180615e136036913960400191505060405180910390fd5b600054600154606a546001600160a01b0392831692918216911661108f615ad3565b611097615b04565b600260009054906101000a90046001600160a01b03166001600160a01b0316630fdb11cf6040518163ffffffff1660e01b8152600401602060405180830381600087803b1580156110e757600080fd5b505af11580156110fb573d6000803e3d6000fd5b505050506040513d602081101561111157600080fd5b5051825260408051630d9a6b3560e01b815290516001600160a01b03851691630d9a6b35916004808301926020929190829003018186803b15801561115557600080fd5b505afa158015611169573d6000803e3d6000fd5b505050506040513d602081101561117f57600080fd5b50516020830152815161119190612db9565b15801560408401526111b9576111b28585846000015185602001518a612dd6565b90506111d1565b6111ce8585846000015185602001518a612ff4565b90505b60008160200151116112145760405162461bcd60e51b8152600401808060200182810382526022815260200180615f076022913960400191505060405180910390fd5b826001600160a01b031663335525ad82608001518360a001516040518363ffffffff1660e01b81526004018083815260200182815260200192505050600060405180830381600087803b15801561126a57600080fd5b505af115801561127e573d6000803e3d6000fd5b5050505061129685858360c001518460e001516130b6565b610100810151156113135760695461010082015160408051628063a560e01b81526001600160a01b03938416600482015260248101929092525191871691628063a59160448082019260009290919082900301818387803b1580156112fa57600080fd5b505af115801561130e573d6000803e3d6000fd5b505050505b611321858260400151613300565b602081015160608301526101008101516040820151825161134d92916113479190612c1f565b90612c1f565b608080840182905260608085015160408086015186840151825193845260208401969096528282015291810193909352517f4152c73dd2614c4f9fc35e8c9cf16013cd588c75b49a4c1673ecffdcbcda94039281900390910190a16113bc853383606001518460400151613441565b505050505050565b606f5481565b6001600160a01b03811660009081526071602052604081206003015460ff166004811115610f7e57fe5b6064670de0b6b3a76400005b0460050281565b607a5481565b6103e8670de0b6b3a7640000611400565b6000610f2d606f5461353a565b61143481613570565b60408051600180825281830190925260009160208083019080368337019050509050818160008151811061146457fe5b60200260200101906001600160a01b031690816001600160a01b03168152505061148d81611030565b5050565b60765481565b6001546001600160a01b031681565b6000610f7e6114b3611a42565b836135d8565b6001600160a01b031660009081526071602052604090206001015490565b60c881565b60785490565b6000610f7e82612db9565b6000610f7e826135f0565b6001600160a01b03811660009081526077602052604081205460755482906115209083612c1f565b9050801580611559575060016001600160a01b03851660009081526071602052604090206003015460ff16600481111561155657fe5b14155b1561156957600092505050610fc7565b6001600160a01b038416600090815260716020526040812060020154906115a2670de0b6b3a764000061159c848661361c565b90613675565b9695505050505050565b6000610f7e826136dc565b6714d1120d7b16000081565b6115cb612aa2565b8060048111156115d757fe5b6001600160a01b0383166000908152607160205260409020600301805460ff1916600183600481111561160657fe5b02179055505050565b611617612aa2565b6000611621613708565b9050670de0b6b3a764000081111561163557fe5b606f8190556040805182815290517fc454ee9b76c52f782a256af821b857ca6e125d1e3333bcede402fec2bed9600c9181900360200190a1610f2061374c565b603c81565b6000610f7e6114b3612a0c565b6001600160a01b031660009081526071602052604090206002015490565b6040805160e081018252600080546001600160a01b0390811683526001548116602084015292820181905260608201819052606e548316608083015260a0820181905260c0820152606a549091166116fb615ad3565b611703615b04565b600260009054906101000a90046001600160a01b03166001600160a01b0316630fdb11cf6040518163ffffffff1660e01b8152600401602060405180830381600087803b15801561175357600080fd5b505af1158015611767573d6000803e3d6000fd5b505050506040513d602081101561177d57600080fd5b5051825260408051630d9a6b3560e01b815290516001600160a01b03851691630d9a6b35916004808301926020929190829003018186803b1580156117c157600080fd5b505afa1580156117d5573d6000803e3d6000fd5b505050506040513d60208110156117eb57600080fd5b5051602083015281516117fd90612db9565b15801560408401526118245761181d8483600001518460200151886137a8565b9050611844565b611841846000015185602001518460000151856020015189613b28565b90505b60008160200151116118875760405162461bcd60e51b8152600401808060200182810382526022815260200180615f076022913960400191505060405180910390fd5b826001600160a01b031663335525ad82608001518360a001516040518363ffffffff1660e01b81526004018083815260200182815260200192505050600060405180830381600087803b1580156118dd57600080fd5b505af11580156118f1573d6000803e3d6000fd5b50505050611911846000015185602001518360c001518460e001516130b6565b6101008101511561199057835160695461010083015160408051628063a560e01b81526001600160a01b0393841660048201526024810192909252519190921691628063a591604480830192600092919082900301818387803b15801561197757600080fd5b505af115801561198b573d6000803e3d6000fd5b505050505b6119a284600001518260400151613300565b60208101516060830152610100810151604082015182516119c892916113479190612c1f565b608080840182905260608085015160408086015186840151825193845260208401969096528282015291810193909352517f4152c73dd2614c4f9fc35e8c9cf16013cd588c75b49a4c1673ecffdcbcda94039281900390910190a1611a3b84600001513383606001518460400151613441565b5050505050565b6000610f2d611a4f613708565b613c54565b7f000000000000000000000000000000000000000000000000000000000000000090565b60716020526000908152604090208054600182015460028301546003909301549192909160ff81169061010090046001600160801b031685565b611aba613c7b565b6001600160a01b0316611acb611edf565b6001600160a01b031614611b26576040805162461bcd60e51b815260206004820181905260248201527f4f776e61626c653a2063616c6c6572206973206e6f7420746865206f776e6572604482015290519081900360640190fd5b6035546040516000916001600160a01b031690600080516020615d98833981519152908390a3603580546001600160a01b0319169055565b6000611b68612aa2565b6001600160a01b038316600090815260716020526040812060010154611b8e9084613c7f565b6001600160a01b038516600090815260716020526040902060010181905591505092915050565b670de0b6b3a764000081565b60755481565b6002546001600160a01b031681565b60788181548110611be657600080fd5b6000918252602090912001546001600160a01b0316905081565b600254600160a81b900460ff1680611c1b5750611c1b613cd9565b80611c305750600254600160a01b900460ff16155b611c6b5760405162461bcd60e51b815260040180806020018281038252602e815260200180615c91602e913960400191505060405180910390fd5b600254600160a81b900460ff16158015611ca2576002805460ff60a01b1960ff60a81b19909116600160a81b1716600160a01b1790555b611caa613cea565b611cbd8c8c8c8c8c8c8c8c8c8c8c613db2565b8015611cd1576002805460ff60a81b191690555b505050505050505050505050565b670f43fc2c04ee000081565b60008054604080516314a6bf0f60e01b8152905183926001600160a01b0316916314a6bf0f916004808301926020929190829003018186803b158015611d3057600080fd5b505afa158015611d44573d6000803e3d6000fd5b505050506040513d6020811015611d5a57600080fd5b5051600154604080516314a6bf0f60e01b815290519293506000926001600160a01b03909216916314a6bf0f91600480820192602092909190829003018186803b158015611da757600080fd5b505afa158015611dbb573d6000803e3d6000fd5b505050506040513d6020811015611dd157600080fd5b50519050611ddf8282613c7f565b9250505090565b6000546001600160a01b031681565b60735481565b6000611e0884848461414a565b90505b9392505050565b611e1a612aa2565b610f2081614174565b60008054604080516362e1c9bf60e11b8152905183926001600160a01b03169163c5c3937e916004808301926020929190829003018186803b158015611e6857600080fd5b505afa158015611e7c573d6000803e3d6000fd5b505050506040513d6020811015611e9257600080fd5b5051600154604080516362e1c9bf60e11b815290519293506000926001600160a01b039092169163c5c3937e91600480820192602092909190829003018186803b158015611da757600080fd5b6035546001600160a01b031690565b60745481565b6000611efe612aa2565b6001600160a01b038316600090815260716020526040812054610f5f9084613c7f565b60795481565b6040518060400160405280600c81526020016b2a3937bb32a6b0b730b3b2b960a11b81525081565b6000610f7e826141df565b606e546001600160a01b031681565b6000806000611f77846141e6565b915091506000611f878383614260565b95945050505050565b6067546001600160a01b031681565b6000610f7e8261428f565b6001600160a01b03811660009081526071602052604081208054600190910154909180611fd685612a19565b9150611fe1856114f8565b9050611fed8483613c7f565b9350611ff98382613c7f565b92509193509193565b6040805160e0810182526000546001600160a01b03908116825260015481166020830152606b54811692820192909252606d5482166060820152606e5482166080820152606954821660a082015260685490911660c0820152612063615b50565b61206c836142bb565b612074614315565b600260009054906101000a90046001600160a01b03166001600160a01b0316630fdb11cf6040518163ffffffff1660e01b8152600401602060405180830381600087803b1580156120c457600080fd5b505af11580156120d8573d6000803e3d6000fd5b505050506040513d60208110156120ee57600080fd5b505160c0820181905261210090614380565b612109896143cf565b6121188260400151338b61440e565b612120611ceb565b60e0820181905260408084015181516370a0823160e01b815233600482015291516001600160a01b03909116916370a08231916024808301926020929190829003018186803b15801561217257600080fd5b505afa158015612186573d6000803e3d6000fd5b505050506040513d602081101561219c57600080fd5b505111156121a657fe5b888152608082015160c08201516000916121c1918b906144c5565b156121cd5750876122ee565b82608001516001600160a01b0316634d6228316040518163ffffffff1660e01b815260040160206040518083038186803b15801561220a57600080fd5b505afa15801561221e573d6000803e3d6000fd5b505050506040513d602081101561223457600080fd5b505190505b6001600160a01b038116158015906122655750670f43fc2c04ee0000612263828460c001516127b2565b105b156122ee5782608001516001600160a01b031663b72703ac826040518263ffffffff1660e01b815260040180826001600160a01b0316815260200191505060206040518083038186803b1580156122bb57600080fd5b505afa1580156122cf573d6000803e3d6000fd5b505050506040513d60208110156122e557600080fd5b50519050612239565b846122f95760001994505b6001600160a01b038116158015906123115750815115155b801561231d5750600085115b1561243057848060019003955050600083608001516001600160a01b031663b72703ac836040518263ffffffff1660e01b815260040180826001600160a01b0316815260200191505060206040518083038186803b15801561237e57600080fd5b505afa158015612392573d6000803e3d6000fd5b505050506040513d60208110156123a857600080fd5b5051845160208601519192506123be9184612aed565b60006123d7858486600001518760c001518e8e8e614626565b90508060400151156123ea575050612430565b805160208501516123fa91613c7f565b602080860191909152810151604085015161241491613c7f565b60408501528051845161242691612c1f565b84525090506122f9565b60008260400151116124735760405162461bcd60e51b8152600401808060200182810382526029815260200180615c686029913960400191505060405180910390fd5b61248a82604001518360c001518460e0015161491a565b5061249882604001516149b0565b6060830181905260408301516124af9190866149bd565b82600001516001600160a01b0316628063a5846060015184606001516040518363ffffffff1660e01b815260040180836001600160a01b0316815260200182815260200192505050600060405180830381600087803b15801561251157600080fd5b505af1158015612525573d6000803e3d6000fd5b5050505082606001516001600160a01b031663c91d2d3883606001516040518263ffffffff1660e01b815260040180828152602001915050600060405180830381600087803b15801561257757600080fd5b505af115801561258b573d6000803e3d6000fd5b50505050606082015160408301516125a291612c1f565b8260800181815250507f43a3f4082a4dbc33d78e317d2497d3a730bc7fc3574159dcea1056e62e5d9ad88a8360200151846040015185606001516040518085815260200184815260200183815260200182815260200194505050505060405180910390a182604001516001600160a01b0316639dc29fac3384602001516040518363ffffffff1660e01b815260040180836001600160a01b0316815260200182815260200192505050600060405180830381600087803b15801561266557600080fd5b505af1158015612679573d6000803e3d6000fd5b5050505082600001516001600160a01b0316632a7ba1f783602001516040518263ffffffff1660e01b815260040180828152602001915050600060405180830381600087803b1580156126cb57600080fd5b505af11580156126df573d6000803e3d6000fd5b5050505082600001516001600160a01b0316628063a53384608001516040518363ffffffff1660e01b815260040180836001600160a01b0316815260200182815260200192505050600060405180830381600087803b15801561274157600080fd5b505af1158015612755573d6000803e3d6000fd5b5050505050505050505050505050565b60725481565b6212750081565b6000610f2d61277f613708565b61353a565b670ddd4b8c6c7d70d881565b612798612aa2565b610f20816002614a2c565b6069546001600160a01b031681565b60008060006127c0856141e6565b9150915060006115a283838761414a565b60705481565b60006127e1612aa2565b6001600160a01b038316600090815260716020526040812060010154611b8e9084612c1f565b6000610f7e612814612772565b83614b45565b6001600160a01b031660009081526071602052604090205490565b60006078828154811061284457fe5b6000918252602090912001546001600160a01b031692915050565b6000612869613708565b606f55670de0b6b3a7640000606f54111561288057fe5b61288861374c565b50606f5490565b60785461148d8282614b9e565b600060016001600160a01b03831660009081526071602052604090206003015460ff1660048111156128ca57fe5b146128d757506000610fc7565b506075546001600160a01b03821660009081526077602052604090205410919050565b606d546001600160a01b031681565b612911613c7b565b6001600160a01b0316612922611edf565b6001600160a01b03161461297d576040805162461bcd60e51b815260206004820181905260248201527f4f776e61626c653a2063616c6c6572206973206e6f7420746865206f776e6572604482015290519081900360640190fd5b6001600160a01b0381166129c25760405162461bcd60e51b8152600401808060200182810382526026815260200180615c426026913960400191505060405180910390fd5b6035546040516001600160a01b03808416921690600080516020615d9883398151915290600090a3603580546001600160a01b0319166001600160a01b0392909216919091179055565b6000610f2d606f54613c54565b6001600160a01b03811660009081526077602052604081206001015460765482906115209083612c1f565b606b546001600160a01b031681565b7f000000000000000000000000000000000000000000000000000000000000000081565b612a7f612aa2565b610f2081614d45565b6068546001600160a01b031681565b6000610f7e826149b0565b6067546001600160a01b03163314612aeb5760405162461bcd60e51b815260040180806020018281038252603b815260200180615dd8603b913960400191505060405180910390fd5b565b612af68161289c565b15612bfe57612b0481613570565b6000612b0f826114f8565b90506000612b1c83612a19565b6001600160a01b038416600090815260716020526040902060010154909150612b459083613c7f565b6001600160a01b0384166000908152607160205260409020600181019190915554612b709082613c7f565b6001600160a01b038416600090815260716020526040902055612b9283614174565b612b9e85858385614d8f565b6001600160a01b0383166000818152607160209081526040808320805460018201546002909201548351918252938101919091528082019290925260608201929092529051600080516020615db88339815191529181900360800190a250505b505050565b6000610f2d603c61159c60705442612c1f90919063ffffffff16565b600082821115612c76576040805162461bcd60e51b815260206004820152601e60248201527f536166654d6174683a207375627472616374696f6e206f766572666c6f770000604482015290519081900360640190fd5b50900390565b607880546001808201835560008381527f8dc6fb69531d98d70dc0420e638d2dfd04e09e1ec783ede9aac77da9c5a0dac490920180546001600160a01b0319166001600160a01b03861617905591549091612cd79190612c1f565b6001600160a01b039290921660009081526071602052604090206003018054610100600160881b0319166101006001600160801b038516021790555090565b6001600160a01b0381166000908152607160205260408120600101548190612d3d90614e91565b6001600160a01b038416600090815260716020526040902060020180549082905560725491925090612d7b908390612d759084612c1f565b90613c7f565b607281905560408051918252517f6bac5e0eb3c44eb03a60ab11ec3a2c051771616aecadbcfff2630aabae5203829181900360200190a15092915050565b600080612dc58361428f565b6714d1120d7b160000119392505050565b612dde615b04565b612de6615b95565b612dee615b04565b84825260006080830152612e00611ceb565b60a0830152612e0d611e23565b60c0830152600060208301525b835182602001511015612fe95783826020015181518110612e3757fe5b6020908102919091018101516001600160a01b03166060840181905260009081526071909152604090206003015460019060ff166004811115612e7657fe5b14612e8057612fd9565b612e8e8260600151876127b2565b60408301526080820151612f8157670f43fc2c04ee0000826040015110158015612eb757508151155b15612ec157612fd9565b6000612ed68360c001518460a001518961414a565b9050612ef38989856060015186604001518760000151868d614ecd565b60808101518451919350612f079190612c1f565b8352608082015160a0840151612f1c91612c1f565b8360a0018181525050612f5182610100015161134784604001516113478660a001518860c00151612c1f90919063ffffffff16565b60c0840152612f60848361520b565b9350612f758360c001518460a00151896152ec565b15608084015250612fd9565b81608001518015612f9d5750670f43fc2c04ee00008260400151105b15612fd957612fb688888460600151856000015161530d565b60808101518351919250612fca9190612c1f565b8252612fd6838261520b565b92505b6020820180516001019052612e1a565b505095945050505050565b612ffc615b04565b613004615b95565b61300c615b04565b848252600060208301525b835182602001511015612fe9578382602001518151811061303457fe5b60209081029190910101516001600160a01b03166060830181905261305990876127b2565b60408301819052670f43fc2c04ee000011156130a65761308388888460600151856000015161530d565b608081015183519192506130979190612c1f565b82526130a3838261520b565b92505b6020820180516001019052613017565b816130c0576132fa565b6079546000906130dc90612d7584670de0b6b3a764000061361c565b90506000613101607a54612d75670de0b6b3a76400008761361c90919063ffffffff16565b9050600061311a6072548461367590919063ffffffff16565b905060006131336072548461367590919063ffffffff16565b905061315461314d6072548461361c90919063ffffffff16565b8590612c1f565b6079556072546131709061316990839061361c565b8490612c1f565b607a556075546131809083613c7f565b6075556076546131909082613c7f565b607681905560755460408051918252602082019290925281517f9f8bc8ab0daf5bceef75ecfd2085d1fcc6548c657ea970d9a23a60610d0737e3929181900390910190a1876001600160a01b0316632a7ba1f7876040518263ffffffff1660e01b815260040180828152602001915050600060405180830381600087803b15801561321a57600080fd5b505af115801561322e573d6000803e3d6000fd5b50505050866001600160a01b0316632b7c7b11876040518263ffffffff1660e01b815260040180828152602001915050600060405180830381600087803b15801561327857600080fd5b505af115801561328c573d6000803e3d6000fd5b50505050876001600160a01b0316628063a588876040518363ffffffff1660e01b815260040180836001600160a01b0316815260200182815260200192505050600060405180830381600087803b1580156132e657600080fd5b505af1158015611cd1573d6000803e3d6000fd5b50505050565b6072546073819055506000826001600160a01b031663c5c3937e6040518163ffffffff1660e01b815260040160206040518083038186803b15801561334457600080fd5b505afa158015613358573d6000803e3d6000fd5b505050506040513d602081101561336e57600080fd5b5051600154604080516362e1c9bf60e11b815290519293506000926001600160a01b039092169163c5c3937e91600480820192602092909190829003018186803b1580156133bb57600080fd5b505afa1580156133cf573d6000803e3d6000fd5b505050506040513d60208110156133e557600080fd5b505190506133f781612d758486612c1f565b607481905560735460408051918252602082019290925281517f51bf4c63ec3cba9d03d43238abbdd979dd91bd16d9895c74ceea9118c7baaf60929181900390910190a150505050565b81156134c057606b5460685460408051631062c15f60e11b81526001600160a01b039283166004820152868316602482015260448101869052905191909216916320c582be91606480830192600092919082900301818387803b1580156134a757600080fd5b505af11580156134bb573d6000803e3d6000fd5b505050505b80156132fa57836001600160a01b0316628063a584836040518363ffffffff1660e01b815260040180836001600160a01b0316815260200182815260200192505050600060405180830381600087803b15801561351c57600080fd5b505af1158015613530573d6000803e3d6000fd5b5050505050505050565b6000610f7e613562836103e8670de0b6b3a76400005b04600502613c7f90919063ffffffff16565b670de0b6b3a7640000615487565b60016001600160a01b03821660009081526071602052604090206003015460ff16600481111561359c57fe5b14610f205760405162461bcd60e51b815260040180806020018281038252602f815260200180615f29602f913960400191505060405180910390fd5b6000611e0b670de0b6b3a764000061159c858561361c565b6000610f7e827f0000000000000000000000000000000000000000000000000000000000000000613c7f565b60008261362b57506000610f7e565b8282028284828161363857fe5b0414611e0b5760405162461bcd60e51b8152600401808060200182810382526021815260200180615d776021913960400191505060405180910390fd5b60008082116136cb576040805162461bcd60e51b815260206004820152601a60248201527f536166654d6174683a206469766973696f6e206279207a65726f000000000000604482015290519081900360640190fd5b8183816136d457fe5b049392505050565b6000610f7e827f0000000000000000000000000000000000000000000000000000000000000000612c1f565b600080613713612c03565b90506000613729670ddd4b8c6c7d70d88361549d565b9050611ddf670de0b6b3a764000061159c83606f5461361c90919063ffffffff16565b600061376360705442612c1f90919063ffffffff16565b9050603c8110610f205742607081905560408051918252517f860f8d2f0c74dd487e89e2883e3b25b8159ce1e1b3433a291cba7b82c508f3bc9181900360200190a150565b6137b0615b04565b6137b8615b95565b6137c0615b04565b848252600060808301526137d2611ceb565b60a08301526137df611e23565b8260c001818152505086608001516001600160a01b0316634d6228316040518163ffffffff1660e01b815260040160206040518083038186803b15801561382557600080fd5b505afa158015613839573d6000803e3d6000fd5b505050506040513d602081101561384f57600080fd5b50516001600160a01b039081166060840152608088015160408051631e22314360e01b815290516000939290921691631e22314391600480820192602092909190829003018186803b1580156138a457600080fd5b505afa1580156138b8573d6000803e3d6000fd5b505050506040513d60208110156138ce57600080fd5b50516000602085015290505b8483602001511080156139035750806001600160a01b031683606001516001600160a01b031614155b15613b1d57600088608001516001600160a01b031663b72703ac85606001516040518263ffffffff1660e01b815260040180826001600160a01b0316815260200191505060206040518083038186803b15801561395f57600080fd5b505afa158015613973573d6000803e3d6000fd5b505050506040513d602081101561398957600080fd5b5051606085015190915061399d90896127b2565b60408501526080840151613a9557670f43fc2c04ee00008460400151101580156139c657508351155b156139d15750613b1d565b60006139e68560c001518660a001518b61414a565b8a5160208c0151606088015160408901518951949550613a0794868f614ecd565b60808101518651919550613a1b9190612c1f565b8552608084015160a0860151613a3091612c1f565b8560a0018181525050613a6584610100015161134786604001516113478860a001518a60c00151612c1f90919063ffffffff16565b60c0860152613a74868561520b565b9550613a898560c001518660a001518b6152ec565b15608086015250613aff565b83608001518015613ab15750670f43fc2c04ee00008460400151105b15613af957613ad289600001518a602001518660600151876000015161530d565b60808101518551919450613ae69190612c1f565b8452613af2858461520b565b9450613aff565b50613b1d565b6001600160a01b0316606084015260208301805160010190526138da565b505050949350505050565b613b30615b04565b613b38615b95565b613b40615b04565b606e54858352600060208401526001600160a01b03165b8483602001511015613c4857806001600160a01b0316634d6228316040518163ffffffff1660e01b815260040160206040518083038186803b158015613b9c57600080fd5b505afa158015613bb0573d6000803e3d6000fd5b505050506040513d6020811015613bc657600080fd5b50516001600160a01b031660608401819052613be290886127b2565b60408401819052670f43fc2c04ee00001115613c3357613c0c89898560600151866000015161530d565b60808101518451919350613c209190612c1f565b8352613c2c848361520b565b9350613c38565b613c48565b6020830180516001019052613b57565b50505095945050505050565b6000610f7e613c6e836103e8670de0b6b3a7640000613550565b66b1a2bc2ec50000615487565b3390565b600082820183811015611e0b576040805162461bcd60e51b815260206004820152601b60248201527f536166654d6174683a206164646974696f6e206f766572666c6f770000000000604482015290519081900360640190fd5b6000613ce43061553c565b15905090565b600254600160a81b900460ff1680613d055750613d05613cd9565b80613d1a5750600254600160a01b900460ff16155b613d555760405162461bcd60e51b815260040180806020018281038252602e815260200180615c91602e913960400191505060405180910390fd5b600254600160a81b900460ff16158015613d8c576002805460ff60a01b1960ff60a81b19909116600160a81b1716600160a01b1790555b613d94615542565b613d9c6155f9565b8015610f20576002805460ff60a81b1916905550565b613dbb8b6156f7565b613dc48a6156f7565b613dcd896156f7565b613dd6886156f7565b613ddf876156f7565b613de8866156f7565b613df1856156f7565b613dfa846156f7565b613e03836156f7565b613e0c826156f7565b613e15816156f7565b606780546001600160a01b03199081166001600160a01b038e81169182179093556000805483168e85161790556001805483168d8516179055606a805483168c85161790556068805483168b85161790556069805483168a8516179055600280548316898516179055606b80548316888516179055606e80548316878516179055606c80548316868516179055606d805490921692841692909217905560408051918252517f3ca631ffcd2a9b5d9ae18543fc82f58eb4ca33af9e6ab01b7a8e95331e6ed985916020908290030190a1604080516001600160a01b038c16815290517f78f058b189175430c48dc02699e3a0031ea4ff781536dc2fab847de4babdd8829181900360200190a1604080516001600160a01b038b16815290517f5ee0cae2f063ed938bb55046f6a932fb6ae792bf43624806bb90abe68a50be9b9181900360200190a1604080516001600160a01b038a16815290517f82966d27eea39b038ee0fa30cd16532bb24f6e65d31cb58fb227aa5766cdcc7f9181900360200190a1604080516001600160a01b038916815290517fcfb07d791fcafc032b35837b50eb84b74df518cf4cc287e8084f47630fa70fa09181900360200190a1604080516001600160a01b038816815290517fe67f36a6e961157d6eff83b91f3af5a62131ceb6f04954ef74f51c1c05e7f88d9181900360200190a1604080516001600160a01b038716815290517f8c537274438aa850a330284665d81a85dd38267d09e4050d416bfc94142db2649181900360200190a1604080516001600160a01b038616815290517f112220fa8dbe96141556e0dc3d74dd95075b323f4f297616048e02d82d7017159181900360200190a1604080516001600160a01b038516815290517f65f4cf077bc01e4742eb5ad98326f6e95b63548ea24b17f8d5e823111fe788009181900360200190a1604080516001600160a01b038416815290517f7b0c6ae24561d189fc90b337cbc97aa15d085bef32931237a762e3e528b285b49181900360200190a1604080516001600160a01b038316815290517ff81a824d1d9030c0365252fb96daf0565f9c2007c88e13001379dda7f06d5d5c9181900360200190a15050505050505050505050565b6000821561416b5760006141628461159c878661361c565b9150611e0b9050565b50600019611e0b565b607580546001600160a01b0383166000908152607760209081526040918290209283556076546001909301839055925481519081529283019190915280517fc437f324d85e369394148dd9d62f98f534b382e01ed3dd2eb98138fb6d3ab49a9281900390910190a150565b60c8900490565b60008060006141f4846114f8565b9050600061420185612a19565b6001600160a01b0386166000908152607160205260408120600101549192509061422b9084613c7f565b6001600160a01b038716600090815260716020526040812054919250906142529084613c7f565b919550909350505050915091565b600081156142865761427f8261159c8568056bc75e2d6310000061361c565b9050610f7e565b50600019610f7e565b60008061429a611e23565b905060006142a6611ceb565b90506142b382828661414a565b949350505050565b6611c37937e0800081108015906142da5750670de0b6b3a76400008111155b610f205760405162461bcd60e51b8152600401808060200182810382526030815260200180615ead6030913960400191505060405180910390fd5b6143427f000000000000000000000000000000000000000000000000000000000000000062127500613c7f565b421015612aeb5760405162461bcd60e51b8152600401808060200182810382526040815260200180615d376040913960400191505060405180910390fd5b670f43fc2c04ee00006143928261428f565b1015610f205760405162461bcd60e51b815260040180806020018281038252602a815260200180615edd602a913960400191505060405180910390fd5b60008111610f205760405162461bcd60e51b815260040180806020018281038252602e815260200180615e49602e913960400191505060405180910390fd5b80836001600160a01b03166370a08231846040518263ffffffff1660e01b815260040180826001600160a01b0316815260200191505060206040518083038186803b15801561445c57600080fd5b505afa158015614470573d6000803e3d6000fd5b505050506040513d602081101561448657600080fd5b50511015612bfe5760405162461bcd60e51b815260040180806020018281038252604e815260200180615cbf604e913960600191505060405180910390fd5b60006001600160a01b03831615806145535750836001600160a01b0316635dbe47e8846040518263ffffffff1660e01b815260040180826001600160a01b0316815260200191505060206040518083038186803b15801561452557600080fd5b505afa158015614539573d6000803e3d6000fd5b505050506040513d602081101561454f57600080fd5b5051155b8061456e5750670f43fc2c04ee000061456c84846127b2565b105b1561457b57506000611e0b565b6000846001600160a01b031663765e0159856040518263ffffffff1660e01b815260040180826001600160a01b0316815260200191505060206040518083038186803b1580156145ca57600080fd5b505afa1580156145de573d6000803e3d6000fd5b505050506040513d60208110156145f457600080fd5b505190506001600160a01b0381161580611f875750670f43fc2c04ee000061461c82856127b2565b1095945050505050565b61462e615bdd565b6001600160a01b03871660009081526071602052604090205461467c908790614677907f0000000000000000000000000000000000000000000000000000000000000000612c1f565b615487565b80825261469790869061159c90670de0b6b3a764000061361c565b60208083019190915281516001600160a01b0389166000908152607190925260408220546146c491612c1f565b6020808401516001600160a01b038b1660009081526071909252604082206001015492935090916146f491612c1f565b90507f00000000000000000000000000000000000000000000000000000000000000008214156147b85761472789614d45565b614732896004614a2c565b61475e8a8a7f000000000000000000000000000000000000000000000000000000000000000084615752565b886001600160a01b0316600080516020615db883398151915260008060006003604051808581526020018481526020018381526020018260038111156147a057fe5b815260200194505050505060405180910390a261490c565b60006147c48284614260565b905084811415806147fc57507f00000000000000000000000000000000000000000000000000000000000000006147fa846136dc565b105b15614810575050600160408301525061490f565b60808b01516040805163015f109360e51b81526001600160a01b038d81166004830152602482018590528a81166044830152898116606483015291519190921691632be2126091608480830192600092919082900301818387803b15801561487757600080fd5b505af115801561488b573d6000803e3d6000fd5b5050506001600160a01b038b166000908152607160205260409020848155600101839055506148b98a612d16565b506001600160a01b038a1660008181526071602090815260409182902060020154825187815291820186905281830152600360608201529051600080516020615db88339815191529181900360800190a2505b50505b979650505050505050565b600080614925613708565b905060006149378461159c888861361c565b90506000614950614949836002613675565b8490613c7f565b905061496481670de0b6b3a7640000615487565b90506000811161497057fe5b606f8190556040805182815290517fc454ee9b76c52f782a256af821b857ca6e125d1e3333bcede402fec2bed9600c9181900360200190a16115a261374c565b6000610f7e61281461141e565b60006149d58361159c86670de0b6b3a764000061361c565b9050818111156132fa576040805162461bcd60e51b815260206004820152601d60248201527f4665652065786365656465642070726f7669646564206d6178696d756d000000604482015290519081900360640190fd5b6000816004811115614a3a57fe5b14158015614a5457506001816004811115614a5157fe5b14155b614a5a57fe5b607854614a66816158f4565b6001600160a01b0383166000908152607160205260409020600301805483919060ff19166001836004811115614a9857fe5b02179055506001600160a01b0383166000908152607160209081526040808320600180820185905590849055607790925282208281550155614ada8382614b9e565b606e5460408051631484968760e11b81526001600160a01b038681166004830152915191909216916329092d0e91602480830192600092919082900301818387803b158015614b2857600080fd5b505af1158015614b3c573d6000803e3d6000fd5b50505050505050565b600080614b5e670de0b6b3a764000061159c868661361c565b9050828110611e0b5760405162461bcd60e51b8152600401808060200182810382526036815260200180615e776036913960400191505060405180910390fd5b6001600160a01b03821660009081526071602052604081206003015460ff1690816004811115614bca57fe5b14158015614be457506001816004811115614be157fe5b14155b614bea57fe5b6001600160a01b03831660009081526071602052604081206003015461010090046001600160801b0316908390614c22826001612c1f565b905080836001600160801b03161115614c3757fe5b600060788281548110614c4657fe5b600091825260209091200154607880546001600160a01b03909216925082916001600160801b038716908110614c7857fe5b600091825260208083209190910180546001600160a01b0319166001600160a01b03948516179055918316808252607183526040918290206003018054610100600160881b0319166101006001600160801b038a169081029190911790915582519182529281019290925280517f02b04ae5f7be9ca7c103293a2aa15f3c339d15d6eda53b721fef7b0e609c831a9281900390910190a16078805480614d1a57fe5b600082815260209020810160001990810180546001600160a01b031916905501905550505050505050565b6001600160a01b038116600090815260716020526040902060020154607254614d6e9082612c1f565b607255506001600160a01b0316600090815260716020526040812060020155565b826001600160a01b0316632a7ba1f7836040518263ffffffff1660e01b815260040180828152602001915050600060405180830381600087803b158015614dd557600080fd5b505af1158015614de9573d6000803e3d6000fd5b50505050836001600160a01b0316632b7c7b11836040518263ffffffff1660e01b815260040180828152602001915050600060405180830381600087803b158015614e3357600080fd5b505af1158015614e47573d6000803e3d6000fd5b50505050826001600160a01b0316638f7be730826040518263ffffffff1660e01b815260040180828152602001915050600060405180830381600087803b15801561351c57600080fd5b60008060745460001415614ea6575081610f7e565b600060735411614eb257fe5b611e0b60745461159c6073548661361c90919063ffffffff16565b614ed5615b04565b614edd615c00565b607854600110614eed575061490f565b614ef687611faa565b60408501526020848101919091528401819052908352614f15906141df565b604083018190527f000000000000000000000000000000000000000000000000000000000000000060608401526020830151614f5091612c1f565b8152670de0b6b3a7640000861161505257614f75898983602001518460400151614d8f565b614f7e87614d45565b60006080830181905260a0830152815160c0830152805160e0830152614fa5876003614a2c565b866001600160a01b0316600080516020615c2283398151915283600001518460200151600260405180848152602001838152602001826003811115614fe657fe5b8152602001935050505060405180910390a2866001600160a01b0316600080516020615db8833981519152600080600060026040518085815260200184815260200183815260200182600381111561503a57fe5b815260200194505050505060405180910390a26151ff565b670de0b6b3a7640000861180156150705750670f43fc2c04ee000086105b156150c057615089898983602001518460400151614d8f565b61509287614d45565b815181516150a19190876159ad565b60e086015260c085015260a08401526080830152614fa5876003614a2c565b670f43fc2c04ee000086101580156150d757508386105b80156150e4575081518510155b156151ee576150fd898983602001518460400151614d8f565b8461510457fe5b61510d87614d45565b6151208260000151836020015185615a07565b915061512d876003614a2c565b610100820151156151ad5760695461010083015160408051633f10abab60e01b81526001600160a01b038b81166004830152602482019390935290519190921691633f10abab91604480830192600092919082900301818387803b15801561519457600080fd5b505af11580156151a8573d6000803e3d6000fd5b505050505b866001600160a01b0316600080516020615c2283398151915283600001518460a00151600260405180848152602001838152602001826003811115614fe657fe5b6151f6615b04565b915061490f9050565b50979650505050505050565b615213615b04565b6040808301519084015161522691613c7f565b60408201526060808301519084015161523e91613c7f565b60608201528151602084015161525391613c7f565b602080830191909152820151835161526a91613c7f565b81526080808301519084015161527f91613c7f565b608082015260a0808301519084015161529791613c7f565b60a082015260c080830151908401516152af91613c7f565b60c082015260e080830151908401516152c791613c7f565b60e082015261010080830151908401516152e091613c7f565b61010082015292915050565b6000806152fa85858561414a565b6714d1120d7b1600001195945050505050565b615315615b04565b61531d615c00565b61532684611faa565b60408501908152602085810192835286019290925291845290519051615350918891889190614d8f565b61535984614d45565b61536682602001516141df565b604083018190527f0000000000000000000000000000000000000000000000000000000000000000606084015260208301516000916153a59190612c1f565b90506153b6836000015182866159ad565b60e087015260c086015260a085015260808401526153d5856003614a2c565b846001600160a01b0316600080516020615c228339815191528460000151856020015160016040518084815260200183815260200182600381111561541657fe5b8152602001935050505060405180910390a2846001600160a01b0316600080516020615db8833981519152600080600060016040518085815260200184815260200183815260200182600381111561546a57fe5b815260200194505050505060405180910390a25050949350505050565b60008183106154965781611e0b565b5090919050565b6000631f5405008211156154b357631f54050091505b816154c75750670de0b6b3a7640000610f7e565b670de0b6b3a764000083835b60018111156155325760028106615502576154ee8283615aa6565b91506154fb816002613675565b905061552d565b61550c8284615aa6565b92506155188283615aa6565b915061552a600261159c836001612c1f565b90505b6154d3565b6115a28284615aa6565b3b151590565b600254600160a81b900460ff168061555d575061555d613cd9565b806155725750600254600160a01b900460ff16155b6155ad5760405162461bcd60e51b815260040180806020018281038252602e815260200180615c91602e913960400191505060405180910390fd5b600254600160a81b900460ff16158015613d9c576002805460ff60a01b1960ff60a81b19909116600160a81b1716600160a01b1790558015610f20576002805460ff60a81b1916905550565b600254600160a81b900460ff16806156145750615614613cd9565b806156295750600254600160a01b900460ff16155b6156645760405162461bcd60e51b815260040180806020018281038252602e815260200180615c91602e913960400191505060405180910390fd5b600254600160a81b900460ff1615801561569b576002805460ff60a01b1960ff60a81b19909116600160a81b1716600160a01b1790555b60006156a5613c7b565b603580546001600160a01b0319166001600160a01b03831690811790915560405191925090600090600080516020615d98833981519152908290a3508015610f20576002805460ff60a81b1916905550565b6001600160a01b038116610f20576040805162461bcd60e51b815260206004820152601e60248201527f4163636f756e742063616e6e6f74206265207a65726f20616464726573730000604482015290519081900360640190fd5b6040808501516068548251632770a7eb60e21b81526001600160a01b039182166004820152602481018690529251911691639dc29fac91604480830192600092919082900301818387803b1580156157a957600080fd5b505af11580156157bd573d6000803e3d6000fd5b5050505083600001516001600160a01b0316632a7ba1f7836040518263ffffffff1660e01b815260040180828152602001915050600060405180830381600087803b15801561580b57600080fd5b505af115801561581f573d6000803e3d6000fd5b505050508360a001516001600160a01b0316633f10abab84836040518363ffffffff1660e01b815260040180836001600160a01b0316815260200182815260200192505050600060405180830381600087803b15801561587e57600080fd5b505af1158015615892573d6000803e3d6000fd5b5050505083600001516001600160a01b0316628063a58560a00151836040518363ffffffff1660e01b815260040180836001600160a01b0316815260200182815260200192505050600060405180830381600087803b15801561351c57600080fd5b6001811180156159725750606e546040805163de8fa43160e01b815290516001926001600160a01b03169163de8fa431916004808301926020929190829003018186803b15801561594457600080fd5b505afa158015615958573d6000803e3d6000fd5b505050506040513d602081101561596e57600080fd5b5051115b610f205760405162461bcd60e51b815260040180806020018281038252602a815260200180615d0d602a913960400191505060405180910390fd5b600080808084156159f1576159c28786615487565b93506159d28761159c888761361c565b92506159de8785612c1f565b91506159ea8684612c1f565b90506159fe565b5060009250829150859050845b93509350935093565b615a0f615b04565b838152602081018390526000615a318361159c87670f43fc2c04ee000061361c565b9050615a3c816141df565b604083018190527f0000000000000000000000000000000000000000000000000000000000000000606084015260808301869052615a7b908290612c1f565b60a0830152615a8a8482612c1f565b61010083015250600060c0820181905260e08201529392505050565b600080615ab3848461361c565b90506142b3670de0b6b3a764000061159c836706f05b59d3b20000613c7f565b6040518060a00160405280600081526020016000815260200160001515815260200160008152602001600081525090565b6040518061012001604052806000815260200160008152602001600081526020016000815260200160008152602001600081526020016000815260200160008152602001600081525090565b60405180610100016040528060008152602001600081526020016000815260200160008152602001600081526020016000815260200160008152602001600081525090565b6040518060e0016040528060008152602001600081526020016000815260200160006001600160a01b0316815260200160001515815260200160008152602001600081525090565b604051806060016040528060008152602001600081526020016000151581525090565b6040518060600160405280600081526020016000815260200160008152509056feea67486ed7ebe3eea8ab3390efd4a3c8aae48be5bea27df104a8af786c4084344f776e61626c653a206e6577206f776e657220697320746865207a65726f206164647265737354726f76654d616e616765723a20556e61626c6520746f2072656465656d20616e7920616d6f756e74496e697469616c697a61626c653a20636f6e747261637420697320616c726561647920696e697469616c697a656454726f76654d616e616765723a2052657175657374656420726564656d7074696f6e20616d6f756e74206d757374206265203c3d20757365722773206465627420746f6b656e2062616c616e636554726f76654d616e616765723a204f6e6c79206f6e652074726f766520696e207468652073797374656d54726f76654d616e616765723a20526564656d7074696f6e7320617265206e6f7420616c6c6f77656420647572696e6720626f6f747374726170207068617365536166654d6174683a206d756c7469706c69636174696f6e206f766572666c6f778be0079c531659141344cd1fd0a4f28419497f9722a3daafe3b4186f6b6457e0c3770d654ed33aeea6bf11ac8ef05d02a6a04ed4686dd2f624d853bbec43cc8b54726f76654d616e616765723a2043616c6c6572206973206e6f742074686520426f72726f7765724f7065726174696f6e7320636f6e747261637454726f76654d616e616765723a2043616c6c646174612061646472657373206172726179206d757374206e6f7420626520656d70747954726f76654d616e616765723a20416d6f756e74206d7573742062652067726561746572207468616e207a65726f54726f76654d616e616765723a2046656520776f756c642065617420757020616c6c2072657475726e656420636f6c6c61746572616c4d6178206665652070657263656e74616765206d757374206265206265747765656e20302e352520616e64203130302554726f76654d616e616765723a2043616e6e6f742072656465656d207768656e20544352203c204d435254726f76654d616e616765723a206e6f7468696e6720746f206c697175696461746554726f76654d616e616765723a2054726f766520646f6573206e6f74206578697374206f7220697320636c6f736564a264697066735822122030c2a2042c8ba47c792efef11918aa05fe2eaee0323f44476dfaae64f8dd5cdd64736f6c63430007060033",
  "linkReferences": {},
  "deployedLinkReferences": {}
}