{
  "_format": "hh-sol-artifact-1",
  "contractName": "TroveManagerTester",
  "sourceName": "contracts/TestContracts/CDPManagerTester.sol",
  "abi": [
    {
      "inputs": [
        {
          "internalType": "uint256",
          "name": "_gasCompensation",
          "type": "uint256"
        },
        {
          "internalType": "uint256",
          "name": "_minNetDebt",
          "type": "uint256"
        }
      ],
      "stateMutability": "nonpayable",
      "type": "constructor"
    },
    {
      "anonymous": false,
      "inputs": [
        {
          "indexed": false,
          "internalType": "address",
          "name": "_activePoolAddress",
          "type": "address"
        }
      ],
      "name": "ActivePoolAddressChanged",
      "type": "event"
    },
    {
      "anonymous": false,
      "inputs": [
        {
          "indexed": false,
          "internalType": "uint256",
          "name": "_baseRate",
          "type": "uint256"
        }
      ],
      "name": "BaseRateUpdated",
      "type": "event"
    },
    {
      "anonymous": false,
      "inputs": [
        {
          "indexed": false,
          "internalType": "address",
          "name": "_newBorrowerOperationsAddress",
          "type": "address"
        }
      ],
      "name": "BorrowerOperationsAddressChanged",
      "type": "event"
    },
    {
      "anonymous": false,
      "inputs": [
        {
          "indexed": false,
          "internalType": "address",
          "name": "_collSurplusPoolAddress",
          "type": "address"
        }
      ],
      "name": "CollSurplusPoolAddressChanged",
      "type": "event"
    },
    {
      "anonymous": false,
      "inputs": [
        {
          "indexed": false,
          "internalType": "address",
          "name": "_newDebtTokenAddress",
          "type": "address"
        }
      ],
      "name": "DebtTokenAddressChanged",
      "type": "event"
    },
    {
      "anonymous": false,
      "inputs": [
        {
          "indexed": false,
          "internalType": "address",
          "name": "_defaultPoolAddress",
          "type": "address"
        }
      ],
      "name": "DefaultPoolAddressChanged",
      "type": "event"
    },
    {
      "anonymous": false,
      "inputs": [
        {
          "indexed": false,
          "internalType": "address",
          "name": "_gasPoolAddress",
          "type": "address"
        }
      ],
      "name": "GasPoolAddressChanged",
      "type": "event"
    },
    {
      "anonymous": false,
      "inputs": [
        {
          "indexed": false,
          "internalType": "uint256",
          "name": "_L_FIL",
          "type": "uint256"
        },
        {
          "indexed": false,
          "internalType": "uint256",
          "name": "_L_Debt",
          "type": "uint256"
        }
      ],
      "name": "LTermsUpdated",
      "type": "event"
    },
    {
      "anonymous": false,
      "inputs": [
        {
          "indexed": false,
          "internalType": "uint256",
          "name": "_lastFeeOpTime",
          "type": "uint256"
        }
      ],
      "name": "LastFeeOpTimeUpdated",
      "type": "event"
    },
    {
      "anonymous": false,
      "inputs": [
        {
          "indexed": false,
          "internalType": "uint256",
          "name": "_liquidatedDebt",
          "type": "uint256"
        },
        {
          "indexed": false,
          "internalType": "uint256",
          "name": "_liquidatedColl",
          "type": "uint256"
        },
        {
          "indexed": false,
          "internalType": "uint256",
          "name": "_collGasCompensation",
          "type": "uint256"
        },
        {
          "indexed": false,
          "internalType": "uint256",
          "name": "_debtGasCompensation",
          "type": "uint256"
        }
      ],
      "name": "Liquidation",
      "type": "event"
    },
    {
      "anonymous": false,
      "inputs": [
        {
          "indexed": true,
          "internalType": "address",
          "name": "previousOwner",
          "type": "address"
        },
        {
          "indexed": true,
          "internalType": "address",
          "name": "newOwner",
          "type": "address"
        }
      ],
      "name": "OwnershipTransferred",
      "type": "event"
    },
    {
      "anonymous": false,
      "inputs": [
        {
          "indexed": false,
          "internalType": "address",
          "name": "_newPriceFeedAddress",
          "type": "address"
        }
      ],
      "name": "PriceFeedAddressChanged",
      "type": "event"
    },
    {
      "anonymous": false,
      "inputs": [
        {
          "indexed": false,
          "internalType": "address",
          "name": "_protocolTokenAddress",
          "type": "address"
        }
      ],
      "name": "ProtocolTokenAddressChanged",
      "type": "event"
    },
    {
      "anonymous": false,
      "inputs": [
        {
          "indexed": false,
          "internalType": "address",
          "name": "_protocolTokenStakingAddress",
          "type": "address"
        }
      ],
      "name": "ProtocolTokenStakingAddressChanged",
      "type": "event"
    },
    {
      "anonymous": false,
      "inputs": [
        {
          "indexed": false,
          "internalType": "uint256",
          "name": "_attemptedDebtTokenAmount",
          "type": "uint256"
        },
        {
          "indexed": false,
          "internalType": "uint256",
          "name": "_actualDebtTokenAmount",
          "type": "uint256"
        },
        {
          "indexed": false,
          "internalType": "uint256",
          "name": "_FILSent",
          "type": "uint256"
        },
        {
          "indexed": false,
          "internalType": "uint256",
          "name": "_FILFee",
          "type": "uint256"
        }
      ],
      "name": "Redemption",
      "type": "event"
    },
    {
      "anonymous": false,
      "inputs": [
        {
          "indexed": false,
          "internalType": "address",
          "name": "_sortedTrovesAddress",
          "type": "address"
        }
      ],
      "name": "SortedTrovesAddressChanged",
      "type": "event"
    },
    {
      "anonymous": false,
      "inputs": [
        {
          "indexed": false,
          "internalType": "address",
          "name": "_stabilityPoolAddress",
          "type": "address"
        }
      ],
      "name": "StabilityPoolAddressChanged",
      "type": "event"
    },
    {
      "anonymous": false,
      "inputs": [
        {
          "indexed": false,
          "internalType": "uint256",
          "name": "_totalStakesSnapshot",
          "type": "uint256"
        },
        {
          "indexed": false,
          "internalType": "uint256",
          "name": "_totalCollateralSnapshot",
          "type": "uint256"
        }
      ],
      "name": "SystemSnapshotsUpdated",
      "type": "event"
    },
    {
      "anonymous": false,
      "inputs": [
        {
          "indexed": false,
          "internalType": "uint256",
          "name": "_newTotalStakes",
          "type": "uint256"
        }
      ],
      "name": "TotalStakesUpdated",
      "type": "event"
    },
    {
      "anonymous": false,
      "inputs": [
        {
          "indexed": false,
          "internalType": "address",
          "name": "_borrower",
          "type": "address"
        },
        {
          "indexed": false,
          "internalType": "uint256",
          "name": "_newIndex",
          "type": "uint256"
        }
      ],
      "name": "TroveIndexUpdated",
      "type": "event"
    },
    {
      "anonymous": false,
      "inputs": [
        {
          "indexed": true,
          "internalType": "address",
          "name": "_borrower",
          "type": "address"
        },
        {
          "indexed": false,
          "internalType": "uint256",
          "name": "_debt",
          "type": "uint256"
        },
        {
          "indexed": false,
          "internalType": "uint256",
          "name": "_coll",
          "type": "uint256"
        },
        {
          "indexed": false,
          "internalType": "enum ITroveManager.TroveManagerOperation",
          "name": "_operation",
          "type": "uint8"
        }
      ],
      "name": "TroveLiquidated",
      "type": "event"
    },
    {
      "anonymous": false,
      "inputs": [
        {
          "indexed": false,
          "internalType": "uint256",
          "name": "_L_FIL",
          "type": "uint256"
        },
        {
          "indexed": false,
          "internalType": "uint256",
          "name": "_L_Debt",
          "type": "uint256"
        }
      ],
      "name": "TroveSnapshotsUpdated",
      "type": "event"
    },
    {
      "anonymous": false,
      "inputs": [
        {
          "indexed": true,
          "internalType": "address",
          "name": "_borrower",
          "type": "address"
        },
        {
          "indexed": false,
          "internalType": "uint256",
          "name": "_debt",
          "type": "uint256"
        },
        {
          "indexed": false,
          "internalType": "uint256",
          "name": "_coll",
          "type": "uint256"
        },
        {
          "indexed": false,
          "internalType": "uint256",
          "name": "stake",
          "type": "uint256"
        },
        {
          "indexed": false,
          "internalType": "enum ITroveManager.TroveManagerOperation",
          "name": "_operation",
          "type": "uint8"
        }
      ],
      "name": "TroveUpdated",
      "type": "event"
    },
    {
      "inputs": [],
      "name": "BETA",
      "outputs": [
        {
          "internalType": "uint256",
          "name": "",
          "type": "uint256"
        }
      ],
      "stateMutability": "view",
      "type": "function"
    },
    {
      "inputs": [],
      "name": "BOOTSTRAP_PERIOD",
      "outputs": [
        {
          "internalType": "uint256",
          "name": "",
          "type": "uint256"
        }
      ],
      "stateMutability": "view",
      "type": "function"
    },
    {
      "inputs": [],
      "name": "BORROWING_FEE_FLOOR",
      "outputs": [
        {
          "internalType": "uint256",
          "name": "",
          "type": "uint256"
        }
      ],
      "stateMutability": "view",
      "type": "function"
    },
    {
      "inputs": [],
      "name": "CCR",
      "outputs": [
        {
          "internalType": "uint256",
          "name": "",
          "type": "uint256"
        }
      ],
      "stateMutability": "view",
      "type": "function"
    },
    {
      "inputs": [],
      "name": "DECIMAL_PRECISION",
      "outputs": [
        {
          "internalType": "uint256",
          "name": "",
          "type": "uint256"
        }
      ],
      "stateMutability": "view",
      "type": "function"
    },
    {
      "inputs": [],
      "name": "GAS_COMPENSATION",
      "outputs": [
        {
          "internalType": "uint256",
          "name": "",
          "type": "uint256"
        }
      ],
      "stateMutability": "view",
      "type": "function"
    },
    {
      "inputs": [],
      "name": "L_Debt",
      "outputs": [
        {
          "internalType": "uint256",
          "name": "",
          "type": "uint256"
        }
      ],
      "stateMutability": "view",
      "type": "function"
    },
    {
      "inputs": [],
      "name": "L_FIL",
      "outputs": [
        {
          "internalType": "uint256",
          "name": "",
          "type": "uint256"
        }
      ],
      "stateMutability": "view",
      "type": "function"
    },
    {
      "inputs": [],
      "name": "MAX_BORROWING_FEE",
      "outputs": [
        {
          "internalType": "uint256",
          "name": "",
          "type": "uint256"
        }
      ],
      "stateMutability": "view",
      "type": "function"
    },
    {
      "inputs": [],
      "name": "MCR",
      "outputs": [
        {
          "internalType": "uint256",
          "name": "",
          "type": "uint256"
        }
      ],
      "stateMutability": "view",
      "type": "function"
    },
    {
      "inputs": [],
      "name": "MINUTE_DECAY_FACTOR",
      "outputs": [
        {
          "internalType": "uint256",
          "name": "",
          "type": "uint256"
        }
      ],
      "stateMutability": "view",
      "type": "function"
    },
    {
      "inputs": [],
      "name": "MIN_NET_DEBT",
      "outputs": [
        {
          "internalType": "uint256",
          "name": "",
          "type": "uint256"
        }
      ],
      "stateMutability": "view",
      "type": "function"
    },
    {
      "inputs": [],
      "name": "NAME",
      "outputs": [
        {
          "internalType": "string",
          "name": "",
          "type": "string"
        }
      ],
      "stateMutability": "view",
      "type": "function"
    },
    {
      "inputs": [],
      "name": "PERCENT_DIVISOR",
      "outputs": [
        {
          "internalType": "uint256",
          "name": "",
          "type": "uint256"
        }
      ],
      "stateMutability": "view",
      "type": "function"
    },
    {
      "inputs": [],
      "name": "REDEMPTION_FEE_FLOOR",
      "outputs": [
        {
          "internalType": "uint256",
          "name": "",
          "type": "uint256"
        }
      ],
      "stateMutability": "view",
      "type": "function"
    },
    {
      "inputs": [],
      "name": "SECONDS_IN_ONE_MINUTE",
      "outputs": [
        {
          "internalType": "uint256",
          "name": "",
          "type": "uint256"
        }
      ],
      "stateMutability": "view",
      "type": "function"
    },
    {
      "inputs": [
        {
          "internalType": "uint256",
          "name": "",
          "type": "uint256"
        }
      ],
      "name": "TroveOwners",
      "outputs": [
        {
          "internalType": "address",
          "name": "",
          "type": "address"
        }
      ],
      "stateMutability": "view",
      "type": "function"
    },
    {
      "inputs": [
        {
          "internalType": "address",
          "name": "",
          "type": "address"
        }
      ],
      "name": "Troves",
      "outputs": [
        {
          "internalType": "uint256",
          "name": "debt",
          "type": "uint256"
        },
        {
          "internalType": "uint256",
          "name": "coll",
          "type": "uint256"
        },
        {
          "internalType": "uint256",
          "name": "stake",
          "type": "uint256"
        },
        {
          "internalType": "enum ITroveManager.Status",
          "name": "status",
          "type": "uint8"
        },
        {
          "internalType": "uint128",
          "name": "arrayIndex",
          "type": "uint128"
        }
      ],
      "stateMutability": "view",
      "type": "function"
    },
    {
      "inputs": [],
      "name": "_100pct",
      "outputs": [
        {
          "internalType": "uint256",
          "name": "",
          "type": "uint256"
        }
      ],
      "stateMutability": "view",
      "type": "function"
    },
    {
      "inputs": [],
      "name": "activePool",
      "outputs": [
        {
          "internalType": "contract IActivePool",
          "name": "",
          "type": "address"
        }
      ],
      "stateMutability": "view",
      "type": "function"
    },
    {
      "inputs": [
        {
          "internalType": "address",
          "name": "_borrower",
          "type": "address"
        }
      ],
      "name": "addTroveOwnerToArray",
      "outputs": [
        {
          "internalType": "uint256",
          "name": "index",
          "type": "uint256"
        }
      ],
      "stateMutability": "nonpayable",
      "type": "function"
    },
    {
      "inputs": [
        {
          "internalType": "address",
          "name": "_borrower",
          "type": "address"
        }
      ],
      "name": "applyPendingRewards",
      "outputs": [],
      "stateMutability": "nonpayable",
      "type": "function"
    },
    {
      "inputs": [],
      "name": "baseRate",
      "outputs": [
        {
          "internalType": "uint256",
          "name": "",
          "type": "uint256"
        }
      ],
      "stateMutability": "view",
      "type": "function"
    },
    {
      "inputs": [
        {
          "internalType": "address[]",
          "name": "_troveArray",
          "type": "address[]"
        }
      ],
      "name": "batchLiquidateTroves",
      "outputs": [],
      "stateMutability": "nonpayable",
      "type": "function"
    },
    {
      "inputs": [],
      "name": "borrowerOperationsAddress",
      "outputs": [
        {
          "internalType": "address",
          "name": "",
          "type": "address"
        }
      ],
      "stateMutability": "view",
      "type": "function"
    },
    {
      "inputs": [
        {
          "internalType": "uint256",
          "name": "_FILDrawn",
          "type": "uint256"
        }
      ],
      "name": "callGetRedemptionFee",
      "outputs": [
        {
          "internalType": "uint256",
          "name": "",
          "type": "uint256"
        }
      ],
      "stateMutability": "view",
      "type": "function"
    },
    {
      "inputs": [
        {
          "internalType": "address",
          "name": "_troveOwner",
          "type": "address"
        }
      ],
      "name": "callInternalRemoveTroveOwner",
      "outputs": [],
      "stateMutability": "nonpayable",
      "type": "function"
    },
    {
      "inputs": [
        {
          "internalType": "uint256",
          "name": "_price",
          "type": "uint256"
        }
      ],
      "name": "checkRecoveryMode",
      "outputs": [
        {
          "internalType": "bool",
          "name": "",
          "type": "bool"
        }
      ],
      "stateMutability": "view",
      "type": "function"
    },
    {
      "inputs": [
        {
          "internalType": "address",
          "name": "_borrower",
          "type": "address"
        }
      ],
      "name": "closeTrove",
      "outputs": [],
      "stateMutability": "nonpayable",
      "type": "function"
    },
    {
      "inputs": [
        {
          "internalType": "uint256",
          "name": "_coll",
          "type": "uint256"
        },
        {
          "internalType": "uint256",
          "name": "_debt",
          "type": "uint256"
        },
        {
          "internalType": "uint256",
          "name": "_price",
          "type": "uint256"
        }
      ],
      "name": "computeICR",
      "outputs": [
        {
          "internalType": "uint256",
          "name": "",
          "type": "uint256"
        }
      ],
      "stateMutability": "pure",
      "type": "function"
    },
    {
      "inputs": [],
      "name": "debtToken",
      "outputs": [
        {
          "internalType": "contract IDebtToken",
          "name": "",
          "type": "address"
        }
      ],
      "stateMutability": "view",
      "type": "function"
    },
    {
      "inputs": [],
      "name": "decayBaseRateFromBorrowing",
      "outputs": [],
      "stateMutability": "nonpayable",
      "type": "function"
    },
    {
      "inputs": [
        {
          "internalType": "address",
          "name": "_borrower",
          "type": "address"
        },
        {
          "internalType": "uint256",
          "name": "_collDecrease",
          "type": "uint256"
        }
      ],
      "name": "decreaseTroveColl",
      "outputs": [
        {
          "internalType": "uint256",
          "name": "",
          "type": "uint256"
        }
      ],
      "stateMutability": "nonpayable",
      "type": "function"
    },
    {
      "inputs": [
        {
          "internalType": "address",
          "name": "_borrower",
          "type": "address"
        },
        {
          "internalType": "uint256",
          "name": "_debtDecrease",
          "type": "uint256"
        }
      ],
      "name": "decreaseTroveDebt",
      "outputs": [
        {
          "internalType": "uint256",
          "name": "",
          "type": "uint256"
        }
      ],
      "stateMutability": "nonpayable",
      "type": "function"
    },
    {
      "inputs": [],
      "name": "defaultPool",
      "outputs": [
        {
          "internalType": "contract IDefaultPool",
          "name": "",
          "type": "address"
        }
      ],
      "stateMutability": "view",
      "type": "function"
    },
    {
      "inputs": [
        {
          "internalType": "uint256",
          "name": "_debtVal",
          "type": "uint256"
        }
      ],
      "name": "getActualDebtFromComposite",
      "outputs": [
        {
          "internalType": "uint256",
          "name": "",
          "type": "uint256"
        }
      ],
      "stateMutability": "view",
      "type": "function"
    },
    {
      "inputs": [
        {
          "internalType": "uint256",
          "name": "_debt",
          "type": "uint256"
        }
      ],
      "name": "getBorrowingFee",
      "outputs": [
        {
          "internalType": "uint256",
          "name": "",
          "type": "uint256"
        }
      ],
      "stateMutability": "view",
      "type": "function"
    },
    {
      "inputs": [
        {
          "internalType": "uint256",
          "name": "_debt",
          "type": "uint256"
        }
      ],
      "name": "getBorrowingFeeWithDecay",
      "outputs": [
        {
          "internalType": "uint256",
          "name": "",
          "type": "uint256"
        }
      ],
      "stateMutability": "view",
      "type": "function"
    },
    {
      "inputs": [],
      "name": "getBorrowingRate",
      "outputs": [
        {
          "internalType": "uint256",
          "name": "",
          "type": "uint256"
        }
      ],
      "stateMutability": "view",
      "type": "function"
    },
    {
      "inputs": [],
      "name": "getBorrowingRateWithDecay",
      "outputs": [
        {
          "internalType": "uint256",
          "name": "",
          "type": "uint256"
        }
      ],
      "stateMutability": "view",
      "type": "function"
    },
    {
      "inputs": [
        {
          "internalType": "uint256",
          "name": "_coll",
          "type": "uint256"
        }
      ],
      "name": "getCollGasCompensation",
      "outputs": [
        {
          "internalType": "uint256",
          "name": "",
          "type": "uint256"
        }
      ],
      "stateMutability": "pure",
      "type": "function"
    },
    {
      "inputs": [
        {
          "internalType": "uint256",
          "name": "_debt",
          "type": "uint256"
        }
      ],
      "name": "getCompositeDebt",
      "outputs": [
        {
          "internalType": "uint256",
          "name": "",
          "type": "uint256"
        }
      ],
      "stateMutability": "view",
      "type": "function"
    },
    {
      "inputs": [
        {
          "internalType": "address",
          "name": "_borrower",
          "type": "address"
        },
        {
          "internalType": "uint256",
          "name": "_price",
          "type": "uint256"
        }
      ],
      "name": "getCurrentICR",
      "outputs": [
        {
          "internalType": "uint256",
          "name": "",
          "type": "uint256"
        }
      ],
      "stateMutability": "view",
      "type": "function"
    },
    {
      "inputs": [
        {
          "internalType": "address",
          "name": "_borrower",
          "type": "address"
        }
      ],
      "name": "getEntireDebtAndColl",
      "outputs": [
        {
          "internalType": "uint256",
          "name": "debt",
          "type": "uint256"
        },
        {
          "internalType": "uint256",
          "name": "coll",
          "type": "uint256"
        },
        {
          "internalType": "uint256",
          "name": "pendingDebtReward",
          "type": "uint256"
        },
        {
          "internalType": "uint256",
          "name": "pendingFILReward",
          "type": "uint256"
        }
      ],
      "stateMutability": "view",
      "type": "function"
    },
    {
      "inputs": [],
      "name": "getEntireSystemColl",
      "outputs": [
        {
          "internalType": "uint256",
          "name": "entireSystemColl",
          "type": "uint256"
        }
      ],
      "stateMutability": "view",
      "type": "function"
    },
    {
      "inputs": [],
      "name": "getEntireSystemDebt",
      "outputs": [
        {
          "internalType": "uint256",
          "name": "entireSystemDebt",
          "type": "uint256"
        }
      ],
      "stateMutability": "view",
      "type": "function"
    },
    {
      "inputs": [],
      "name": "getGasCompensation",
      "outputs": [
        {
          "internalType": "uint256",
          "name": "",
          "type": "uint256"
        }
      ],
      "stateMutability": "view",
      "type": "function"
    },
    {
      "inputs": [
        {
          "internalType": "address",
          "name": "_borrower",
          "type": "address"
        }
      ],
      "name": "getNominalICR",
      "outputs": [
        {
          "internalType": "uint256",
          "name": "",
          "type": "uint256"
        }
      ],
      "stateMutability": "view",
      "type": "function"
    },
    {
      "inputs": [
        {
          "internalType": "address",
          "name": "_borrower",
          "type": "address"
        }
      ],
      "name": "getPendingDebtReward",
      "outputs": [
        {
          "internalType": "uint256",
          "name": "",
          "type": "uint256"
        }
      ],
      "stateMutability": "view",
      "type": "function"
    },
    {
      "inputs": [
        {
          "internalType": "address",
          "name": "_borrower",
          "type": "address"
        }
      ],
      "name": "getPendingFILReward",
      "outputs": [
        {
          "internalType": "uint256",
          "name": "",
          "type": "uint256"
        }
      ],
      "stateMutability": "view",
      "type": "function"
    },
    {
      "inputs": [
        {
          "internalType": "uint256",
          "name": "_FILDrawn",
          "type": "uint256"
        }
      ],
      "name": "getRedemptionFeeWithDecay",
      "outputs": [
        {
          "internalType": "uint256",
          "name": "",
          "type": "uint256"
        }
      ],
      "stateMutability": "view",
      "type": "function"
    },
    {
      "inputs": [],
      "name": "getRedemptionRate",
      "outputs": [
        {
          "internalType": "uint256",
          "name": "",
          "type": "uint256"
        }
      ],
      "stateMutability": "view",
      "type": "function"
    },
    {
      "inputs": [],
      "name": "getRedemptionRateWithDecay",
      "outputs": [
        {
          "internalType": "uint256",
          "name": "",
          "type": "uint256"
        }
      ],
      "stateMutability": "view",
      "type": "function"
    },
    {
      "inputs": [
        {
          "internalType": "uint256",
          "name": "_price",
          "type": "uint256"
        }
      ],
      "name": "getTCR",
      "outputs": [
        {
          "internalType": "uint256",
          "name": "",
          "type": "uint256"
        }
      ],
      "stateMutability": "view",
      "type": "function"
    },
    {
      "inputs": [
        {
          "internalType": "address",
          "name": "_borrower",
          "type": "address"
        }
      ],
      "name": "getTroveColl",
      "outputs": [
        {
          "internalType": "uint256",
          "name": "",
          "type": "uint256"
        }
      ],
      "stateMutability": "view",
      "type": "function"
    },
    {
      "inputs": [
        {
          "internalType": "address",
          "name": "_borrower",
          "type": "address"
        }
      ],
      "name": "getTroveDebt",
      "outputs": [
        {
          "internalType": "uint256",
          "name": "",
          "type": "uint256"
        }
      ],
      "stateMutability": "view",
      "type": "function"
    },
    {
      "inputs": [
        {
          "internalType": "uint256",
          "name": "_index",
          "type": "uint256"
        }
      ],
      "name": "getTroveFromTroveOwnersArray",
      "outputs": [
        {
          "internalType": "address",
          "name": "",
          "type": "address"
        }
      ],
      "stateMutability": "view",
      "type": "function"
    },
    {
      "inputs": [],
      "name": "getTroveOwnersCount",
      "outputs": [
        {
          "internalType": "uint256",
          "name": "",
          "type": "uint256"
        }
      ],
      "stateMutability": "view",
      "type": "function"
    },
    {
      "inputs": [
        {
          "internalType": "address",
          "name": "_borrower",
          "type": "address"
        }
      ],
      "name": "getTroveStake",
      "outputs": [
        {
          "internalType": "uint256",
          "name": "",
          "type": "uint256"
        }
      ],
      "stateMutability": "view",
      "type": "function"
    },
    {
      "inputs": [
        {
          "internalType": "address",
          "name": "_borrower",
          "type": "address"
        }
      ],
      "name": "getTroveStatus",
      "outputs": [
        {
          "internalType": "uint256",
          "name": "",
          "type": "uint256"
        }
      ],
      "stateMutability": "view",
      "type": "function"
    },
    {
      "inputs": [
        {
          "internalType": "address",
          "name": "_borrower",
          "type": "address"
        }
      ],
      "name": "hasPendingRewards",
      "outputs": [
        {
          "internalType": "bool",
          "name": "",
          "type": "bool"
        }
      ],
      "stateMutability": "view",
      "type": "function"
    },
    {
      "inputs": [
        {
          "internalType": "address",
          "name": "_borrower",
          "type": "address"
        },
        {
          "internalType": "uint256",
          "name": "_collIncrease",
          "type": "uint256"
        }
      ],
      "name": "increaseTroveColl",
      "outputs": [
        {
          "internalType": "uint256",
          "name": "",
          "type": "uint256"
        }
      ],
      "stateMutability": "nonpayable",
      "type": "function"
    },
    {
      "inputs": [
        {
          "internalType": "address",
          "name": "_borrower",
          "type": "address"
        },
        {
          "internalType": "uint256",
          "name": "_debtIncrease",
          "type": "uint256"
        }
      ],
      "name": "increaseTroveDebt",
      "outputs": [
        {
          "internalType": "uint256",
          "name": "",
          "type": "uint256"
        }
      ],
      "stateMutability": "nonpayable",
      "type": "function"
    },
    {
      "inputs": [
        {
          "internalType": "address",
          "name": "_borrowerOperationsAddress",
          "type": "address"
        },
        {
          "internalType": "address",
          "name": "_activePoolAddress",
          "type": "address"
        },
        {
          "internalType": "address",
          "name": "_defaultPoolAddress",
          "type": "address"
        },
        {
          "internalType": "address",
          "name": "_stabilityPoolAddress",
          "type": "address"
        },
        {
          "internalType": "address",
          "name": "_gasPoolAddress",
          "type": "address"
        },
        {
          "internalType": "address",
          "name": "_collSurplusPoolAddress",
          "type": "address"
        },
        {
          "internalType": "address",
          "name": "_priceFeedAddress",
          "type": "address"
        },
        {
          "internalType": "address",
          "name": "_debtTokenAddress",
          "type": "address"
        },
        {
          "internalType": "address",
          "name": "_sortedTrovesAddress",
          "type": "address"
        },
        {
          "internalType": "address",
          "name": "_protocolTokenAddress",
          "type": "address"
        },
        {
          "internalType": "address",
          "name": "_protocolTokenStakingAddress",
          "type": "address"
        }
      ],
      "name": "initialize",
      "outputs": [],
      "stateMutability": "nonpayable",
      "type": "function"
    },
    {
      "inputs": [],
      "name": "lastFILError_Redistribution",
      "outputs": [
        {
          "internalType": "uint256",
          "name": "",
          "type": "uint256"
        }
      ],
      "stateMutability": "view",
      "type": "function"
    },
    {
      "inputs": [],
      "name": "lastFeeOperationTime",
      "outputs": [
        {
          "internalType": "uint256",
          "name": "",
          "type": "uint256"
        }
      ],
      "stateMutability": "view",
      "type": "function"
    },
    {
      "inputs": [],
      "name": "lastLDebtError_Redistribution",
      "outputs": [
        {
          "internalType": "uint256",
          "name": "",
          "type": "uint256"
        }
      ],
      "stateMutability": "view",
      "type": "function"
    },
    {
      "inputs": [
        {
          "internalType": "address",
          "name": "_borrower",
          "type": "address"
        }
      ],
      "name": "liquidate",
      "outputs": [],
      "stateMutability": "nonpayable",
      "type": "function"
    },
    {
      "inputs": [
        {
          "internalType": "uint256",
          "name": "_n",
          "type": "uint256"
        }
      ],
      "name": "liquidateTroves",
      "outputs": [],
      "stateMutability": "nonpayable",
      "type": "function"
    },
    {
      "inputs": [],
      "name": "minutesPassedSinceLastFeeOp",
      "outputs": [
        {
          "internalType": "uint256",
          "name": "",
          "type": "uint256"
        }
      ],
      "stateMutability": "view",
      "type": "function"
    },
    {
      "inputs": [],
      "name": "owner",
      "outputs": [
        {
          "internalType": "address",
          "name": "",
          "type": "address"
        }
      ],
      "stateMutability": "view",
      "type": "function"
    },
    {
      "inputs": [],
      "name": "priceFeed",
      "outputs": [
        {
          "internalType": "contract IPriceFeed",
          "name": "",
          "type": "address"
        }
      ],
      "stateMutability": "view",
      "type": "function"
    },
    {
      "inputs": [],
      "name": "protocolToken",
      "outputs": [
        {
          "internalType": "contract IProtocolToken",
          "name": "",
          "type": "address"
        }
      ],
      "stateMutability": "view",
      "type": "function"
    },
    {
      "inputs": [],
      "name": "protocolTokenStaking",
      "outputs": [
        {
          "internalType": "contract IProtocolTokenStaking",
          "name": "",
          "type": "address"
        }
      ],
      "stateMutability": "view",
      "type": "function"
    },
    {
      "inputs": [
        {
          "internalType": "uint256",
          "name": "_debtTokenAmount",
          "type": "uint256"
        },
        {
          "internalType": "address",
          "name": "_firstRedemptionHint",
          "type": "address"
        },
        {
          "internalType": "address",
          "name": "_upperPartialRedemptionHint",
          "type": "address"
        },
        {
          "internalType": "address",
          "name": "_lowerPartialRedemptionHint",
          "type": "address"
        },
        {
          "internalType": "uint256",
          "name": "_partialRedemptionHintNICR",
          "type": "uint256"
        },
        {
          "internalType": "uint256",
          "name": "_maxIterations",
          "type": "uint256"
        },
        {
          "internalType": "uint256",
          "name": "_maxFeePercentage",
          "type": "uint256"
        }
      ],
      "name": "redeemCollateral",
      "outputs": [],
      "stateMutability": "nonpayable",
      "type": "function"
    },
    {
      "inputs": [
        {
          "internalType": "address",
          "name": "_borrower",
          "type": "address"
        }
      ],
      "name": "removeStake",
      "outputs": [],
      "stateMutability": "nonpayable",
      "type": "function"
    },
    {
      "inputs": [],
      "name": "renounceOwnership",
      "outputs": [],
      "stateMutability": "nonpayable",
      "type": "function"
    },
    {
      "inputs": [
        {
          "internalType": "address",
          "name": "",
          "type": "address"
        }
      ],
      "name": "rewardSnapshots",
      "outputs": [
        {
          "internalType": "uint256",
          "name": "FIL",
          "type": "uint256"
        },
        {
          "internalType": "uint256",
          "name": "debt",
          "type": "uint256"
        }
      ],
      "stateMutability": "view",
      "type": "function"
    },
    {
      "inputs": [
        {
          "internalType": "uint256",
          "name": "_baseRate",
          "type": "uint256"
        }
      ],
      "name": "setBaseRate",
      "outputs": [],
      "stateMutability": "nonpayable",
      "type": "function"
    },
    {
      "inputs": [],
      "name": "setLastFeeOpTimeToNow",
      "outputs": [],
      "stateMutability": "nonpayable",
      "type": "function"
    },
    {
      "inputs": [
        {
          "internalType": "address",
          "name": "_borrower",
          "type": "address"
        },
        {
          "internalType": "uint256",
          "name": "_num",
          "type": "uint256"
        }
      ],
      "name": "setTroveStatus",
      "outputs": [],
      "stateMutability": "nonpayable",
      "type": "function"
    },
    {
      "inputs": [],
      "name": "sortedTroves",
      "outputs": [
        {
          "internalType": "contract ISortedTroves",
          "name": "",
          "type": "address"
        }
      ],
      "stateMutability": "view",
      "type": "function"
    },
    {
      "inputs": [],
      "name": "stabilityPool",
      "outputs": [
        {
          "internalType": "contract IStabilityPool",
          "name": "",
          "type": "address"
        }
      ],
      "stateMutability": "view",
      "type": "function"
    },
    {
      "inputs": [],
      "name": "totalCollateralSnapshot",
      "outputs": [
        {
          "internalType": "uint256",
          "name": "",
          "type": "uint256"
        }
      ],
      "stateMutability": "view",
      "type": "function"
    },
    {
      "inputs": [],
      "name": "totalStakes",
      "outputs": [
        {
          "internalType": "uint256",
          "name": "",
          "type": "uint256"
        }
      ],
      "stateMutability": "view",
      "type": "function"
    },
    {
      "inputs": [],
      "name": "totalStakesSnapshot",
      "outputs": [
        {
          "internalType": "uint256",
          "name": "",
          "type": "uint256"
        }
      ],
      "stateMutability": "view",
      "type": "function"
    },
    {
      "inputs": [
        {
          "internalType": "address",
          "name": "newOwner",
          "type": "address"
        }
      ],
      "name": "transferOwnership",
      "outputs": [],
      "stateMutability": "nonpayable",
      "type": "function"
    },
    {
      "inputs": [],
      "name": "unprotectedDecayBaseRateFromBorrowing",
      "outputs": [
        {
          "internalType": "uint256",
          "name": "",
          "type": "uint256"
        }
      ],
      "stateMutability": "nonpayable",
      "type": "function"
    },
    {
      "inputs": [
        {
          "internalType": "address",
          "name": "_borrower",
          "type": "address"
        }
      ],
      "name": "updateStakeAndTotalStakes",
      "outputs": [
        {
          "internalType": "uint256",
          "name": "",
          "type": "uint256"
        }
      ],
      "stateMutability": "nonpayable",
      "type": "function"
    },
    {
      "inputs": [
        {
          "internalType": "address",
          "name": "_borrower",
          "type": "address"
        }
      ],
      "name": "updateTroveRewardSnapshots",
      "outputs": [],
      "stateMutability": "nonpayable",
      "type": "function"
    }
  ],
  "bytecode": "0x60c06040523480156200001157600080fd5b5060405162005fff38038062005fff833981810160405260408110156200003757600080fd5b508051602090910151608082905260a0819052615f656200009a60003980610fd052806147aa525080610f4d5280611a1d528061357d5280613669528061462b52806146d052806147115280614ef652806153475280615a1d5250615f656000f3fe608060405234801561001057600080fd5b50600436106104ee5760003560e01c8063741bef1a1161028e578063bcd3752611610167578063d9a72444116100d9578063f36b242511610092578063f36b242514610e2f578063f59fac2d14610e37578063f8d8989814610e5d578063f92d343314610736578063fe2ba84814610e65578063febb33de14610e8b576104ee565b8063d9a7244414610d90578063da303f1414610dad578063dc62a70214610db5578063e2ac77b014610ddb578063e545242314610e01578063f2fde38b14610e09576104ee565b8063cbd138ae1161012b578063cbd138ae14610cc7578063d293c71014610ced578063d380a37c14610d19578063d3d6f84314610d21578063d5b3563514610d4d578063d66a255314610d6a576104ee565b8063bcd3752614610c59578063bf9befb114610ca7578063c35bc55014610caf578063c52861f214610cb7578063c7b5548114610cbf576104ee565b806396d711ff11610200578063a537896f116101c4578063a537896f14610b9d578063ae91875414610bba578063b0d8e18114610bc2578063b7f8cf9b14610be8578063b82f263d14610bf0578063b91af97c14610c0d576104ee565b806396d711ff14610ae45780639976cf4514610aec578063a0d8d6bc14610b18578063a20baee6146109b4578063a3f4df7e14610b20576104ee565b80637f7dde4a116102525780637f7dde4a14610a75578063807d138d14610a7d578063814a0a4514610a8557806382fe3eb914610aae578063887105d314610ad45780638da5cb5b14610adc576104ee565b8063741bef1a146109c4578063756b253e146109cc57806376902b83146109e9578063794e572414610a65578063795d26c314610a6d576104ee565b80633cc74225116103cb5780635dba4c4a1161033d578063695b2e34116102f6578063695b2e341461090c5780636ef6433814610914578063715018a61461098057806372423c171461098857806372fe25aa146109b457806373098be9146109bc576104ee565b80635dba4c4a1461089457806361ec893d1461089c578063631203b0146108a457806364cee260146108c1578063653d46e7146108e757806366ca4a2114610904576104ee565b80634e443d9e1161038f5780634e443d9e146107cf5780634ff814431461080057806352512eaa1461081d57806354062a45146108435780635733d58f146108605780635d6b480f14610868576104ee565b80633cc7422514610774578063477d66cf1461077c578063480cd578146107995780634870dd9a146107bf57806349eefeee146107c7576104ee565b80631bf43555116104645780632409266911610428578063240926691461072657806326b4d8fd1461072e57806328d28b5b146107365780632b11551a1461073e5780632f8655681461074657806331eaf05c1461076c576104ee565b80631bf43555146106305780631d08837b146106385780631e8b1c2b146106555780631f68f20a146106f857806321e3780114610700576104ee565b806312610e92116104b657806312610e9214610569578063139f2e8c1461059557806315d549f11461059d5780631673c79a146105c357806318f2817a146106025780631a465fe114610628576104ee565b8063043782fb146104f3578063048c661d146104fd578063071a7541146105215780630b0765571461053b578063105bb15c14610561575b600080fd5b6104fb610ea8565b005b610505610eae565b604080516001600160a01b039092168252519081900360200190f35b610529610ebd565b60408051918252519081900360200190f35b6104fb6004803603602081101561055157600080fd5b50356001600160a01b0316610ec2565b610529610eea565b6105296004803603604081101561057f57600080fd5b506001600160a01b038135169060200135610ef9565b610529610f4b565b610529600480360360208110156105b357600080fd5b50356001600160a01b0316610f6f565b6105e9600480360360208110156105d957600080fd5b50356001600160a01b0316610f93565b6040805192835260208301919091528051918290030190f35b6105296004803603602081101561061857600080fd5b50356001600160a01b0316610fac565b610505610fbf565b610529610fce565b6104fb6004803603602081101561064e57600080fd5b5035610ff2565b6104fb6004803603602081101561066b57600080fd5b81019060208101813564010000000081111561068657600080fd5b82018360208201111561069857600080fd5b803590602001918460208302840111640100000000831117156106ba57600080fd5b919080806020026020016040519081016040528093929190818152602001838360200280828437600092019190915250929550610ff7945050505050565b61052961138b565b6105296004803603602081101561071657600080fd5b50356001600160a01b0316611391565b6105296113bb565b6105296113ce565b6105296113d4565b6105296113e5565b6104fb6004803603602081101561075c57600080fd5b50356001600160a01b03166113f2565b610529611458565b61050561145e565b6105296004803603602081101561079257600080fd5b503561146d565b610529600480360360208110156107af57600080fd5b50356001600160a01b0316611480565b61052961149e565b6105296114a3565b6107ec600480360360208110156107e557600080fd5b50356114a9565b604080519115158252519081900360200190f35b6105296004803603602081101561081657600080fd5b50356114b4565b6105296004803603602081101561083357600080fd5b50356001600160a01b03166114bf565b6105296004803603602081101561085957600080fd5b5035611573565b61052961157e565b6104fb6004803603604081101561087e57600080fd5b506001600160a01b03813516906020013561158a565b6104fb6115d6565b61052961163c565b610529600480360360208110156108ba57600080fd5b5035611641565b610529600480360360208110156108d757600080fd5b50356001600160a01b031661164e565b6104fb600480360360208110156108fd57600080fd5b503561166c565b610529611a09565b610529611a1b565b61093a6004803603602081101561092a57600080fd5b50356001600160a01b0316611a3f565b6040518086815260200185815260200184815260200183600481111561095c57fe5b8152602001826001600160801b031681526020019550505050505060405180910390f35b6104fb611a79565b6105296004803603604081101561099e57600080fd5b506001600160a01b038135169060200135611b25565b610529611b7c565b610529611b88565b610505611b8e565b610505600480360360208110156109e257600080fd5b5035611b9d565b6104fb6004803603610160811015610a0057600080fd5b506001600160a01b038135811691602081013582169160408201358116916060810135821691608082013581169160a081013582169160c082013581169160e08101358216916101008201358116916101208101358216916101409091013516611bc7565b610529611ca6565b610529611cb2565b610505611dad565b610529611dbc565b61052960048036036060811015610a9b57600080fd5b5080359060208101359060400135611dc2565b6104fb60048036036020811015610ac457600080fd5b50356001600160a01b0316611dd9565b610529611dea565b610505611ea6565b610529611eb5565b61052960048036036040811015610b0257600080fd5b506001600160a01b038135169060200135611ebb565b610529611ee8565b610b28611eee565b6040805160208082528351818301528351919283929083019185019080838360005b83811015610b62578181015183820152602001610b4a565b50505050905090810190601f168015610b8f5780820380516001836020036101000a031916815260200191505b509250505060405180910390f35b61052960048036036020811015610bb357600080fd5b5035611f16565b610505611f21565b61052960048036036020811015610bd857600080fd5b50356001600160a01b0316611f30565b610505611f57565b61052960048036036020811015610c0657600080fd5b5035611f66565b610c3360048036036020811015610c2357600080fd5b50356001600160a01b0316611f71565b604080519485526020850193909352838301919091526060830152519081900360800190f35b6104fb600480360360e0811015610c6f57600080fd5b508035906001600160a01b03602082013581169160408101358216916060820135169060808101359060a08101359060c00135611fc9565b61052961272c565b610529612732565b610529612739565b61052961274b565b6104fb60048036036020811015610cdd57600080fd5b50356001600160a01b0316612757565b61052960048036036040811015610d0357600080fd5b506001600160a01b03813516906020013561276a565b610529612789565b61052960048036036040811015610d3757600080fd5b506001600160a01b03813516906020013561278f565b61052960048036036020811015610d6357600080fd5b50356127bf565b61052960048036036020811015610d8057600080fd5b50356001600160a01b03166127d2565b61050560048036036020811015610da657600080fd5b50356127ed565b610529612817565b6104fb60048036036020811015610dcb57600080fd5b50356001600160a01b0316612847565b6107ec60048036036020811015610df157600080fd5b50356001600160a01b0316612854565b6105056128b2565b6104fb60048036036020811015610e1f57600080fd5b50356001600160a01b03166128c1565b6105296129c4565b61052960048036036020811015610e4d57600080fd5b50356001600160a01b03166129d1565b6105056129fc565b6104fb60048036036020811015610e7b57600080fd5b50356001600160a01b0316612a0b565b61052960048036036020811015610ea157600080fd5b5035612a1c565b42607055565b6068546001600160a01b031681565b600281565b610eca612a27565b600054600154610ee7916001600160a01b03908116911683612a72565b50565b6000610ef4612b88565b905090565b6000610f03612a27565b6001600160a01b038316600090815260716020526040812054610f269084612ba4565b6001600160a01b03851660009081526071602052604090208190559150505b92915050565b7f000000000000000000000000000000000000000000000000000000000000000081565b6000610f79612a27565b610f8282612c01565b6001600160801b031690505b919050565b6077602052600090815260409020805460019091015482565b6000610fb6612a27565b610f4582612c9b565b606c546001600160a01b031681565b7f000000000000000000000000000000000000000000000000000000000000000081565b606f55565b80516110345760405162461bcd60e51b8152600401808060200182810382526036815260200180615deb6036913960400191505060405180910390fd5b6000546001546068546001600160a01b03928316929182169116611056615aab565b61105e615adc565b600260009054906101000a90046001600160a01b03166001600160a01b0316630fdb11cf6040518163ffffffff1660e01b8152600401602060405180830381600087803b1580156110ae57600080fd5b505af11580156110c2573d6000803e3d6000fd5b505050506040513d60208110156110d857600080fd5b5051825260408051630d9a6b3560e01b815290516001600160a01b03851691630d9a6b35916004808301926020929190829003018186803b15801561111c57600080fd5b505afa158015611130573d6000803e3d6000fd5b505050506040513d602081101561114657600080fd5b50516020830152815161115890612d3e565b1580156040840152611180576111798585846000015185602001518a612d5b565b9050611198565b6111958585846000015185602001518a612f79565b90505b60008160200151116111db5760405162461bcd60e51b8152600401808060200182810382526022815260200180615edf6022913960400191505060405180910390fd5b826001600160a01b031663335525ad82608001518360a001516040518363ffffffff1660e01b81526004018083815260200182815260200192505050600060405180830381600087803b15801561123157600080fd5b505af1158015611245573d6000803e3d6000fd5b5050505061125d85858360c001518460e0015161303b565b610100810151156112da57606a5461010082015160408051628063a560e01b81526001600160a01b03938416600482015260248101929092525191871691628063a59160448082019260009290919082900301818387803b1580156112c157600080fd5b505af11580156112d5573d6000803e3d6000fd5b505050505b6112e8858260400151613285565b6020810151606083015261010081015160408201518251611314929161130e9190612ba4565b90612ba4565b608080840182905260608085015160408086015186840151825193845260208401969096528282015291810193909352517f4152c73dd2614c4f9fc35e8c9cf16013cd588c75b49a4c1673ecffdcbcda94039281900390910190a16113838533836060015184604001516133c6565b505050505050565b606f5481565b6001600160a01b03811660009081526071602052604081206003015460ff166004811115610f4557fe5b6064670de0b6b3a76400005b0460050281565b607a5481565b6103e8670de0b6b3a76400006113c7565b6000610ef4606f546134bf565b6113fb816134f5565b60408051600180825281830190925260009160208083019080368337019050509050818160008151811061142b57fe5b60200260200101906001600160a01b031690816001600160a01b03168152505061145481610ff7565b5050565b60765481565b6001546001600160a01b031681565b6000610f4561147a611a09565b8361355d565b6001600160a01b031660009081526071602052604090206001015490565b60c881565b60785490565b6000610f4582612d3e565b6000610f4582613575565b6001600160a01b03811660009081526077602052604081205460755482906114e79083612ba4565b9050801580611520575060016001600160a01b03851660009081526071602052604090206003015460ff16600481111561151d57fe5b14155b1561153057600092505050610f8e565b6001600160a01b03841660009081526071602052604081206002015490611569670de0b6b3a764000061156384866135a1565b906135fa565b9695505050505050565b6000610f4582613661565b6714d1120d7b16000081565b611592612a27565b80600481111561159e57fe5b6001600160a01b0383166000908152607160205260409020600301805460ff191660018360048111156115cd57fe5b02179055505050565b6115de612a27565b60006115e861368d565b9050670de0b6b3a76400008111156115fc57fe5b606f8190556040805182815290517fc454ee9b76c52f782a256af821b857ca6e125d1e3333bcede402fec2bed9600c9181900360200190a1610ee76136d1565b603c81565b6000610f4561147a6129c4565b6001600160a01b031660009081526071602052604090206002015490565b6040805160e081018252600080546001600160a01b0390811683526001548116602084015292820181905260608201819052606e548316608083015260a0820181905260c08201526068549091166116c2615aab565b6116ca615adc565b600260009054906101000a90046001600160a01b03166001600160a01b0316630fdb11cf6040518163ffffffff1660e01b8152600401602060405180830381600087803b15801561171a57600080fd5b505af115801561172e573d6000803e3d6000fd5b505050506040513d602081101561174457600080fd5b5051825260408051630d9a6b3560e01b815290516001600160a01b03851691630d9a6b35916004808301926020929190829003018186803b15801561178857600080fd5b505afa15801561179c573d6000803e3d6000fd5b505050506040513d60208110156117b257600080fd5b5051602083015281516117c490612d3e565b15801560408401526117eb576117e484836000015184602001518861372d565b905061180b565b611808846000015185602001518460000151856020015189613aad565b90505b600081602001511161184e5760405162461bcd60e51b8152600401808060200182810382526022815260200180615edf6022913960400191505060405180910390fd5b826001600160a01b031663335525ad82608001518360a001516040518363ffffffff1660e01b81526004018083815260200182815260200192505050600060405180830381600087803b1580156118a457600080fd5b505af11580156118b8573d6000803e3d6000fd5b505050506118d8846000015185602001518360c001518460e0015161303b565b61010081015115611957578351606a5461010083015160408051628063a560e01b81526001600160a01b0393841660048201526024810192909252519190921691628063a591604480830192600092919082900301818387803b15801561193e57600080fd5b505af1158015611952573d6000803e3d6000fd5b505050505b61196984600001518260400151613285565b602081015160608301526101008101516040820151825161198f929161130e9190612ba4565b608080840182905260608085015160408086015186840151825193845260208401969096528282015291810193909352517f4152c73dd2614c4f9fc35e8c9cf16013cd588c75b49a4c1673ecffdcbcda94039281900390910190a1611a02846000015133836060015184604001516133c6565b5050505050565b6000610ef4611a1661368d565b613bd9565b7f000000000000000000000000000000000000000000000000000000000000000090565b60716020526000908152604090208054600182015460028301546003909301549192909160ff81169061010090046001600160801b031685565b611a81613c00565b6001600160a01b0316611a92611ea6565b6001600160a01b031614611aed576040805162461bcd60e51b815260206004820181905260248201527f4f776e61626c653a2063616c6c6572206973206e6f7420746865206f776e6572604482015290519081900360640190fd5b6035546040516000916001600160a01b031690600080516020615d70833981519152908390a3603580546001600160a01b0319169055565b6000611b2f612a27565b6001600160a01b038316600090815260716020526040812060010154611b559084613c04565b6001600160a01b038516600090815260716020526040902060010181905591505092915050565b670de0b6b3a764000081565b60755481565b6002546001600160a01b031681565b60788181548110611bad57600080fd5b6000918252602090912001546001600160a01b0316905081565b600254600160a81b900460ff1680611be25750611be2613c5e565b80611bf75750600254600160a01b900460ff16155b611c325760405162461bcd60e51b815260040180806020018281038252602e815260200180615c69602e913960400191505060405180910390fd5b600254600160a81b900460ff16158015611c69576002805460ff60a01b1960ff60a81b19909116600160a81b1716600160a01b1790555b611c71613c6f565b611c848c8c8c8c8c8c8c8c8c8c8c613d37565b8015611c98576002805460ff60a81b191690555b505050505050505050505050565b670f43fc2c04ee000081565b60008054604080516314a6bf0f60e01b8152905183926001600160a01b0316916314a6bf0f916004808301926020929190829003018186803b158015611cf757600080fd5b505afa158015611d0b573d6000803e3d6000fd5b505050506040513d6020811015611d2157600080fd5b5051600154604080516314a6bf0f60e01b815290519293506000926001600160a01b03909216916314a6bf0f91600480820192602092909190829003018186803b158015611d6e57600080fd5b505afa158015611d82573d6000803e3d6000fd5b505050506040513d6020811015611d9857600080fd5b50519050611da68282613c04565b9250505090565b6000546001600160a01b031681565b60735481565b6000611dcf8484846140cf565b90505b9392505050565b611de1612a27565b610ee7816140f9565b60008054604080516362e1c9bf60e11b8152905183926001600160a01b03169163c5c3937e916004808301926020929190829003018186803b158015611e2f57600080fd5b505afa158015611e43573d6000803e3d6000fd5b505050506040513d6020811015611e5957600080fd5b5051600154604080516362e1c9bf60e11b815290519293506000926001600160a01b039092169163c5c3937e91600480820192602092909190829003018186803b158015611d6e57600080fd5b6035546001600160a01b031690565b60745481565b6000611ec5612a27565b6001600160a01b038316600090815260716020526040812054610f269084613c04565b60795481565b6040518060400160405280600c81526020016b2a3937bb32a6b0b730b3b2b960a11b81525081565b6000610f4582614164565b606e546001600160a01b031681565b6000806000611f3e8461416b565b915091506000611f4e83836141e5565b95945050505050565b6067546001600160a01b031681565b6000610f4582614214565b6001600160a01b03811660009081526071602052604081208054600190910154909180611f9d856129d1565b9150611fa8856114bf565b9050611fb48483613c04565b9350611fc08382613c04565b92509193509193565b6040805160e0810182526000546001600160a01b03908116825260015481166020830152606b54811692820192909252606d5482166060820152606e5482166080820152606a54821660a082015260695490911660c082015261202a615b28565b61203383614240565b61203b61429a565b600260009054906101000a90046001600160a01b03166001600160a01b0316630fdb11cf6040518163ffffffff1660e01b8152600401602060405180830381600087803b15801561208b57600080fd5b505af115801561209f573d6000803e3d6000fd5b505050506040513d60208110156120b557600080fd5b505160c082018190526120c790614358565b6120d0896143a7565b6120df8260400151338b6143e6565b6120e7611cb2565b60e0820181905260408084015181516370a0823160e01b815233600482015291516001600160a01b03909116916370a08231916024808301926020929190829003018186803b15801561213957600080fd5b505afa15801561214d573d6000803e3d6000fd5b505050506040513d602081101561216357600080fd5b5051111561216d57fe5b888152608082015160c0820151600091612188918b9061449d565b156121945750876122b5565b82608001516001600160a01b0316634d6228316040518163ffffffff1660e01b815260040160206040518083038186803b1580156121d157600080fd5b505afa1580156121e5573d6000803e3d6000fd5b505050506040513d60208110156121fb57600080fd5b505190505b6001600160a01b0381161580159061222c5750670f43fc2c04ee000061222a828460c0015161276a565b105b156122b55782608001516001600160a01b031663b72703ac826040518263ffffffff1660e01b815260040180826001600160a01b0316815260200191505060206040518083038186803b15801561228257600080fd5b505afa158015612296573d6000803e3d6000fd5b505050506040513d60208110156122ac57600080fd5b50519050612200565b846122c05760001994505b6001600160a01b038116158015906122d85750815115155b80156122e45750600085115b156123f757848060019003955050600083608001516001600160a01b031663b72703ac836040518263ffffffff1660e01b815260040180826001600160a01b0316815260200191505060206040518083038186803b15801561234557600080fd5b505afa158015612359573d6000803e3d6000fd5b505050506040513d602081101561236f57600080fd5b5051845160208601519192506123859184612a72565b600061239e858486600001518760c001518e8e8e6145fe565b90508060400151156123b15750506123f7565b805160208501516123c191613c04565b60208086019190915281015160408501516123db91613c04565b6040850152805184516123ed91612ba4565b84525090506122c0565b600082604001511161243a5760405162461bcd60e51b8152600401808060200182810382526029815260200180615c406029913960400191505060405180910390fd5b61245182604001518360c001518460e001516148f2565b5061245f8260400151614988565b606083018190526040830151612476919086614995565b82600001516001600160a01b0316628063a5846060015184606001516040518363ffffffff1660e01b815260040180836001600160a01b0316815260200182815260200192505050600060405180830381600087803b1580156124d857600080fd5b505af11580156124ec573d6000803e3d6000fd5b5050505082606001516001600160a01b031663c91d2d3883606001516040518263ffffffff1660e01b815260040180828152602001915050600060405180830381600087803b15801561253e57600080fd5b505af1158015612552573d6000803e3d6000fd5b505050506060820151604083015161256991612ba4565b8260800181815250507f43a3f4082a4dbc33d78e317d2497d3a730bc7fc3574159dcea1056e62e5d9ad88a8360200151846040015185606001516040518085815260200184815260200183815260200182815260200194505050505060405180910390a182604001516001600160a01b0316639dc29fac3384602001516040518363ffffffff1660e01b815260040180836001600160a01b0316815260200182815260200192505050600060405180830381600087803b15801561262c57600080fd5b505af1158015612640573d6000803e3d6000fd5b5050505082600001516001600160a01b0316632a7ba1f783602001516040518263ffffffff1660e01b815260040180828152602001915050600060405180830381600087803b15801561269257600080fd5b505af11580156126a6573d6000803e3d6000fd5b5050505082600001516001600160a01b0316628063a53384608001516040518363ffffffff1660e01b815260040180836001600160a01b0316815260200182815260200192505050600060405180830381600087803b15801561270857600080fd5b505af115801561271c573d6000803e3d6000fd5b5050505050505050505050505050565b60725481565b6212750081565b6000610ef461274661368d565b6134bf565b670ddd4b8c6c7d70d881565b61275f612a27565b610ee7816002614a04565b60008060006127788561416b565b9150915060006115698383876140cf565b60705481565b6000612799612a27565b6001600160a01b038316600090815260716020526040812060010154611b559084612ba4565b6000610f456127cc612739565b83614b1d565b6001600160a01b031660009081526071602052604090205490565b6000607882815481106127fc57fe5b6000918252602090912001546001600160a01b031692915050565b600061282161368d565b606f55670de0b6b3a7640000606f54111561283857fe5b6128406136d1565b50606f5490565b6078546114548282614b76565b600060016001600160a01b03831660009081526071602052604090206003015460ff16600481111561288257fe5b1461288f57506000610f8e565b506075546001600160a01b03821660009081526077602052604090205410919050565b606d546001600160a01b031681565b6128c9613c00565b6001600160a01b03166128da611ea6565b6001600160a01b031614612935576040805162461bcd60e51b815260206004820181905260248201527f4f776e61626c653a2063616c6c6572206973206e6f7420746865206f776e6572604482015290519081900360640190fd5b6001600160a01b03811661297a5760405162461bcd60e51b8152600401808060200182810382526026815260200180615c1a6026913960400191505060405180910390fd5b6035546040516001600160a01b03808416921690600080516020615d7083398151915290600090a3603580546001600160a01b0319166001600160a01b0392909216919091179055565b6000610ef4606f54613bd9565b6001600160a01b03811660009081526077602052604081206001015460765482906114e79083612ba4565b606b546001600160a01b031681565b612a13612a27565b610ee781614d1d565b6000610f4582614988565b6067546001600160a01b03163314612a705760405162461bcd60e51b815260040180806020018281038252603b815260200180615db0603b913960400191505060405180910390fd5b565b612a7b81612854565b15612b8357612a89816134f5565b6000612a94826114bf565b90506000612aa1836129d1565b6001600160a01b038416600090815260716020526040902060010154909150612aca9083613c04565b6001600160a01b0384166000908152607160205260409020600181019190915554612af59082613c04565b6001600160a01b038416600090815260716020526040902055612b17836140f9565b612b2385858385614d67565b6001600160a01b0383166000818152607160209081526040808320805460018201546002909201548351918252938101919091528082019290925260608201929092529051600080516020615d908339815191529181900360800190a250505b505050565b6000610ef4603c61156360705442612ba490919063ffffffff16565b600082821115612bfb576040805162461bcd60e51b815260206004820152601e60248201527f536166654d6174683a207375627472616374696f6e206f766572666c6f770000604482015290519081900360640190fd5b50900390565b607880546001808201835560008381527f8dc6fb69531d98d70dc0420e638d2dfd04e09e1ec783ede9aac77da9c5a0dac490920180546001600160a01b0319166001600160a01b03861617905591549091612c5c9190612ba4565b6001600160a01b039290921660009081526071602052604090206003018054610100600160881b0319166101006001600160801b038516021790555090565b6001600160a01b0381166000908152607160205260408120600101548190612cc290614e69565b6001600160a01b038416600090815260716020526040902060020180549082905560725491925090612d00908390612cfa9084612ba4565b90613c04565b607281905560408051918252517f6bac5e0eb3c44eb03a60ab11ec3a2c051771616aecadbcfff2630aabae5203829181900360200190a15092915050565b600080612d4a83614214565b6714d1120d7b160000119392505050565b612d63615adc565b612d6b615b6d565b612d73615adc565b84825260006080830152612d85611cb2565b60a0830152612d92611dea565b60c0830152600060208301525b835182602001511015612f6e5783826020015181518110612dbc57fe5b6020908102919091018101516001600160a01b03166060840181905260009081526071909152604090206003015460019060ff166004811115612dfb57fe5b14612e0557612f5e565b612e1382606001518761276a565b60408301526080820151612f0657670f43fc2c04ee0000826040015110158015612e3c57508151155b15612e4657612f5e565b6000612e5b8360c001518460a00151896140cf565b9050612e788989856060015186604001518760000151868d614ea5565b60808101518451919350612e8c9190612ba4565b8352608082015160a0840151612ea191612ba4565b8360a0018181525050612ed682610100015161130e846040015161130e8660a001518860c00151612ba490919063ffffffff16565b60c0840152612ee584836151e3565b9350612efa8360c001518460a00151896152c4565b15608084015250612f5e565b81608001518015612f225750670f43fc2c04ee00008260400151105b15612f5e57612f3b8888846060015185600001516152e5565b60808101518351919250612f4f9190612ba4565b8252612f5b83826151e3565b92505b6020820180516001019052612d9f565b505095945050505050565b612f81615adc565b612f89615b6d565b612f91615adc565b848252600060208301525b835182602001511015612f6e5783826020015181518110612fb957fe5b60209081029190910101516001600160a01b031660608301819052612fde908761276a565b60408301819052670f43fc2c04ee0000111561302b576130088888846060015185600001516152e5565b6080810151835191925061301c9190612ba4565b825261302883826151e3565b92505b6020820180516001019052612f9c565b816130455761327f565b60795460009061306190612cfa84670de0b6b3a76400006135a1565b90506000613086607a54612cfa670de0b6b3a7640000876135a190919063ffffffff16565b9050600061309f607254846135fa90919063ffffffff16565b905060006130b8607254846135fa90919063ffffffff16565b90506130d96130d2607254846135a190919063ffffffff16565b8590612ba4565b6079556072546130f5906130ee9083906135a1565b8490612ba4565b607a556075546131059083613c04565b6075556076546131159082613c04565b607681905560755460408051918252602082019290925281517f9f8bc8ab0daf5bceef75ecfd2085d1fcc6548c657ea970d9a23a60610d0737e3929181900390910190a1876001600160a01b0316632a7ba1f7876040518263ffffffff1660e01b815260040180828152602001915050600060405180830381600087803b15801561319f57600080fd5b505af11580156131b3573d6000803e3d6000fd5b50505050866001600160a01b0316632b7c7b11876040518263ffffffff1660e01b815260040180828152602001915050600060405180830381600087803b1580156131fd57600080fd5b505af1158015613211573d6000803e3d6000fd5b50505050876001600160a01b0316628063a588876040518363ffffffff1660e01b815260040180836001600160a01b0316815260200182815260200192505050600060405180830381600087803b15801561326b57600080fd5b505af1158015611c98573d6000803e3d6000fd5b50505050565b6072546073819055506000826001600160a01b031663c5c3937e6040518163ffffffff1660e01b815260040160206040518083038186803b1580156132c957600080fd5b505afa1580156132dd573d6000803e3d6000fd5b505050506040513d60208110156132f357600080fd5b5051600154604080516362e1c9bf60e11b815290519293506000926001600160a01b039092169163c5c3937e91600480820192602092909190829003018186803b15801561334057600080fd5b505afa158015613354573d6000803e3d6000fd5b505050506040513d602081101561336a57600080fd5b5051905061337c81612cfa8486612ba4565b607481905560735460408051918252602082019290925281517f51bf4c63ec3cba9d03d43238abbdd979dd91bd16d9895c74ceea9118c7baaf60929181900390910190a150505050565b811561344557606b5460695460408051631062c15f60e11b81526001600160a01b039283166004820152868316602482015260448101869052905191909216916320c582be91606480830192600092919082900301818387803b15801561342c57600080fd5b505af1158015613440573d6000803e3d6000fd5b505050505b801561327f57836001600160a01b0316628063a584836040518363ffffffff1660e01b815260040180836001600160a01b0316815260200182815260200192505050600060405180830381600087803b1580156134a157600080fd5b505af11580156134b5573d6000803e3d6000fd5b5050505050505050565b6000610f456134e7836103e8670de0b6b3a76400005b04600502613c0490919063ffffffff16565b670de0b6b3a764000061545f565b60016001600160a01b03821660009081526071602052604090206003015460ff16600481111561352157fe5b14610ee75760405162461bcd60e51b815260040180806020018281038252602f815260200180615f01602f913960400191505060405180910390fd5b6000611dd2670de0b6b3a764000061156385856135a1565b6000610f45827f0000000000000000000000000000000000000000000000000000000000000000613c04565b6000826135b057506000610f45565b828202828482816135bd57fe5b0414611dd25760405162461bcd60e51b8152600401808060200182810382526021815260200180615d4f6021913960400191505060405180910390fd5b6000808211613650576040805162461bcd60e51b815260206004820152601a60248201527f536166654d6174683a206469766973696f6e206279207a65726f000000000000604482015290519081900360640190fd5b81838161365957fe5b049392505050565b6000610f45827f0000000000000000000000000000000000000000000000000000000000000000612ba4565b600080613698612b88565b905060006136ae670ddd4b8c6c7d70d883615475565b9050611da6670de0b6b3a764000061156383606f546135a190919063ffffffff16565b60006136e860705442612ba490919063ffffffff16565b9050603c8110610ee75742607081905560408051918252517f860f8d2f0c74dd487e89e2883e3b25b8159ce1e1b3433a291cba7b82c508f3bc9181900360200190a150565b613735615adc565b61373d615b6d565b613745615adc565b84825260006080830152613757611cb2565b60a0830152613764611dea565b8260c001818152505086608001516001600160a01b0316634d6228316040518163ffffffff1660e01b815260040160206040518083038186803b1580156137aa57600080fd5b505afa1580156137be573d6000803e3d6000fd5b505050506040513d60208110156137d457600080fd5b50516001600160a01b039081166060840152608088015160408051631e22314360e01b815290516000939290921691631e22314391600480820192602092909190829003018186803b15801561382957600080fd5b505afa15801561383d573d6000803e3d6000fd5b505050506040513d602081101561385357600080fd5b50516000602085015290505b8483602001511080156138885750806001600160a01b031683606001516001600160a01b031614155b15613aa257600088608001516001600160a01b031663b72703ac85606001516040518263ffffffff1660e01b815260040180826001600160a01b0316815260200191505060206040518083038186803b1580156138e457600080fd5b505afa1580156138f8573d6000803e3d6000fd5b505050506040513d602081101561390e57600080fd5b50516060850151909150613922908961276a565b60408501526080840151613a1a57670f43fc2c04ee000084604001511015801561394b57508351155b156139565750613aa2565b600061396b8560c001518660a001518b6140cf565b8a5160208c015160608801516040890151895194955061398c94868f614ea5565b608081015186519195506139a09190612ba4565b8552608084015160a08601516139b591612ba4565b8560a00181815250506139ea84610100015161130e866040015161130e8860a001518a60c00151612ba490919063ffffffff16565b60c08601526139f986856151e3565b9550613a0e8560c001518660a001518b6152c4565b15608086015250613a84565b83608001518015613a365750670f43fc2c04ee00008460400151105b15613a7e57613a5789600001518a60200151866060015187600001516152e5565b60808101518551919450613a6b9190612ba4565b8452613a7785846151e3565b9450613a84565b50613aa2565b6001600160a01b03166060840152602083018051600101905261385f565b505050949350505050565b613ab5615adc565b613abd615b6d565b613ac5615adc565b606e54858352600060208401526001600160a01b03165b8483602001511015613bcd57806001600160a01b0316634d6228316040518163ffffffff1660e01b815260040160206040518083038186803b158015613b2157600080fd5b505afa158015613b35573d6000803e3d6000fd5b505050506040513d6020811015613b4b57600080fd5b50516001600160a01b031660608401819052613b67908861276a565b60408401819052670f43fc2c04ee00001115613bb857613b918989856060015186600001516152e5565b60808101518451919350613ba59190612ba4565b8352613bb184836151e3565b9350613bbd565b613bcd565b6020830180516001019052613adc565b50505095945050505050565b6000610f45613bf3836103e8670de0b6b3a76400006134d5565b66b1a2bc2ec5000061545f565b3390565b600082820183811015611dd2576040805162461bcd60e51b815260206004820152601b60248201527f536166654d6174683a206164646974696f6e206f766572666c6f770000000000604482015290519081900360640190fd5b6000613c6930615514565b15905090565b600254600160a81b900460ff1680613c8a5750613c8a613c5e565b80613c9f5750600254600160a01b900460ff16155b613cda5760405162461bcd60e51b815260040180806020018281038252602e815260200180615c69602e913960400191505060405180910390fd5b600254600160a81b900460ff16158015613d11576002805460ff60a01b1960ff60a81b19909116600160a81b1716600160a01b1790555b613d1961551a565b613d216155d1565b8015610ee7576002805460ff60a81b1916905550565b613d408b6156cf565b613d498a6156cf565b613d52896156cf565b613d5b886156cf565b613d64876156cf565b613d6d866156cf565b613d76856156cf565b613d7f846156cf565b613d88836156cf565b613d91826156cf565b613d9a816156cf565b606780546001600160a01b03199081166001600160a01b038e81169182179093556000805483168e85161790556001805483168d85161790556068805483168c85161790556069805483168b8516179055606a805483168a8516179055600280548316898516179055606b80548316888516179055606e80548316878516179055606c80548316868516179055606d805490921692841692909217905560408051918252517f3ca631ffcd2a9b5d9ae18543fc82f58eb4ca33af9e6ab01b7a8e95331e6ed985916020908290030190a1604080516001600160a01b038c16815290517f78f058b189175430c48dc02699e3a0031ea4ff781536dc2fab847de4babdd8829181900360200190a1604080516001600160a01b038b16815290517f5ee0cae2f063ed938bb55046f6a932fb6ae792bf43624806bb90abe68a50be9b9181900360200190a1604080516001600160a01b038a16815290517f82966d27eea39b038ee0fa30cd16532bb24f6e65d31cb58fb227aa5766cdcc7f9181900360200190a1604080516001600160a01b038916815290517fcfb07d791fcafc032b35837b50eb84b74df518cf4cc287e8084f47630fa70fa09181900360200190a1604080516001600160a01b038816815290517fe67f36a6e961157d6eff83b91f3af5a62131ceb6f04954ef74f51c1c05e7f88d9181900360200190a1604080516001600160a01b038716815290517f8c537274438aa850a330284665d81a85dd38267d09e4050d416bfc94142db2649181900360200190a1604080516001600160a01b038616815290517f112220fa8dbe96141556e0dc3d74dd95075b323f4f297616048e02d82d7017159181900360200190a1604080516001600160a01b038516815290517f65f4cf077bc01e4742eb5ad98326f6e95b63548ea24b17f8d5e823111fe788009181900360200190a1604080516001600160a01b038416815290517f7b0c6ae24561d189fc90b337cbc97aa15d085bef32931237a762e3e528b285b49181900360200190a1604080516001600160a01b038316815290517ff81a824d1d9030c0365252fb96daf0565f9c2007c88e13001379dda7f06d5d5c9181900360200190a15050505050505050505050565b600082156140f05760006140e78461156387866135a1565b9150611dd29050565b50600019611dd2565b607580546001600160a01b0383166000908152607760209081526040918290209283556076546001909301839055925481519081529283019190915280517fc437f324d85e369394148dd9d62f98f534b382e01ed3dd2eb98138fb6d3ab49a9281900390910190a150565b60c8900490565b6000806000614179846114bf565b90506000614186856129d1565b6001600160a01b038616600090815260716020526040812060010154919250906141b09084613c04565b6001600160a01b038716600090815260716020526040812054919250906141d79084613c04565b919550909350505050915091565b6000811561420b57614204826115638568056bc75e2d631000006135a1565b9050610f45565b50600019610f45565b60008061421f611dea565b9050600061422b611cb2565b90506142388282866140cf565b949350505050565b6611c37937e08000811080159061425f5750670de0b6b3a76400008111155b610ee75760405162461bcd60e51b8152600401808060200182810382526030815260200180615e856030913960400191505060405180910390fd5b606c5460408051631e425be160e11b815290516000926001600160a01b031691633c84b7c2916004808301926020929190829003018186803b1580156142df57600080fd5b505afa1580156142f3573d6000803e3d6000fd5b505050506040513d602081101561430957600080fd5b5051905061431a8162127500613c04565b421015610ee75760405162461bcd60e51b8152600401808060200182810382526040815260200180615d0f6040913960400191505060405180910390fd5b670f43fc2c04ee000061436a82614214565b1015610ee75760405162461bcd60e51b815260040180806020018281038252602a815260200180615eb5602a913960400191505060405180910390fd5b60008111610ee75760405162461bcd60e51b815260040180806020018281038252602e815260200180615e21602e913960400191505060405180910390fd5b80836001600160a01b03166370a08231846040518263ffffffff1660e01b815260040180826001600160a01b0316815260200191505060206040518083038186803b15801561443457600080fd5b505afa158015614448573d6000803e3d6000fd5b505050506040513d602081101561445e57600080fd5b50511015612b835760405162461bcd60e51b815260040180806020018281038252604e815260200180615c97604e913960600191505060405180910390fd5b60006001600160a01b038316158061452b5750836001600160a01b0316635dbe47e8846040518263ffffffff1660e01b815260040180826001600160a01b0316815260200191505060206040518083038186803b1580156144fd57600080fd5b505afa158015614511573d6000803e3d6000fd5b505050506040513d602081101561452757600080fd5b5051155b806145465750670f43fc2c04ee0000614544848461276a565b105b1561455357506000611dd2565b6000846001600160a01b031663765e0159856040518263ffffffff1660e01b815260040180826001600160a01b0316815260200191505060206040518083038186803b1580156145a257600080fd5b505afa1580156145b6573d6000803e3d6000fd5b505050506040513d60208110156145cc57600080fd5b505190506001600160a01b0381161580611f4e5750670f43fc2c04ee00006145f4828561276a565b1095945050505050565b614606615bb5565b6001600160a01b03871660009081526071602052604090205461465490879061464f907f0000000000000000000000000000000000000000000000000000000000000000612ba4565b61545f565b80825261466f90869061156390670de0b6b3a76400006135a1565b60208083019190915281516001600160a01b03891660009081526071909252604082205461469c91612ba4565b6020808401516001600160a01b038b1660009081526071909252604082206001015492935090916146cc91612ba4565b90507f0000000000000000000000000000000000000000000000000000000000000000821415614790576146ff89614d1d565b61470a896004614a04565b6147368a8a7f00000000000000000000000000000000000000000000000000000000000000008461572a565b886001600160a01b0316600080516020615d90833981519152600080600060036040518085815260200184815260200183815260200182600381111561477857fe5b815260200194505050505060405180910390a26148e4565b600061479c82846141e5565b905084811415806147d457507f00000000000000000000000000000000000000000000000000000000000000006147d284613661565b105b156147e857505060016040830152506148e7565b60808b01516040805163015f109360e51b81526001600160a01b038d81166004830152602482018590528a81166044830152898116606483015291519190921691632be2126091608480830192600092919082900301818387803b15801561484f57600080fd5b505af1158015614863573d6000803e3d6000fd5b5050506001600160a01b038b166000908152607160205260409020848155600101839055506148918a612c9b565b506001600160a01b038a1660008181526071602090815260409182902060020154825187815291820186905281830152600360608201529051600080516020615d908339815191529181900360800190a2505b50505b979650505050505050565b6000806148fd61368d565b9050600061490f8461156388886135a1565b905060006149286149218360026135fa565b8490613c04565b905061493c81670de0b6b3a764000061545f565b90506000811161494857fe5b606f8190556040805182815290517fc454ee9b76c52f782a256af821b857ca6e125d1e3333bcede402fec2bed9600c9181900360200190a16115696136d1565b6000610f456127cc6113e5565b60006149ad8361156386670de0b6b3a76400006135a1565b90508181111561327f576040805162461bcd60e51b815260206004820152601d60248201527f4665652065786365656465642070726f7669646564206d6178696d756d000000604482015290519081900360640190fd5b6000816004811115614a1257fe5b14158015614a2c57506001816004811115614a2957fe5b14155b614a3257fe5b607854614a3e816158cc565b6001600160a01b0383166000908152607160205260409020600301805483919060ff19166001836004811115614a7057fe5b02179055506001600160a01b0383166000908152607160209081526040808320600180820185905590849055607790925282208281550155614ab28382614b76565b606e5460408051631484968760e11b81526001600160a01b038681166004830152915191909216916329092d0e91602480830192600092919082900301818387803b158015614b0057600080fd5b505af1158015614b14573d6000803e3d6000fd5b50505050505050565b600080614b36670de0b6b3a764000061156386866135a1565b9050828110611dd25760405162461bcd60e51b8152600401808060200182810382526036815260200180615e4f6036913960400191505060405180910390fd5b6001600160a01b03821660009081526071602052604081206003015460ff1690816004811115614ba257fe5b14158015614bbc57506001816004811115614bb957fe5b14155b614bc257fe5b6001600160a01b03831660009081526071602052604081206003015461010090046001600160801b0316908390614bfa826001612ba4565b905080836001600160801b03161115614c0f57fe5b600060788281548110614c1e57fe5b600091825260209091200154607880546001600160a01b03909216925082916001600160801b038716908110614c5057fe5b600091825260208083209190910180546001600160a01b0319166001600160a01b03948516179055918316808252607183526040918290206003018054610100600160881b0319166101006001600160801b038a169081029190911790915582519182529281019290925280517f02b04ae5f7be9ca7c103293a2aa15f3c339d15d6eda53b721fef7b0e609c831a9281900390910190a16078805480614cf257fe5b600082815260209020810160001990810180546001600160a01b031916905501905550505050505050565b6001600160a01b038116600090815260716020526040902060020154607254614d469082612ba4565b607255506001600160a01b0316600090815260716020526040812060020155565b826001600160a01b0316632a7ba1f7836040518263ffffffff1660e01b815260040180828152602001915050600060405180830381600087803b158015614dad57600080fd5b505af1158015614dc1573d6000803e3d6000fd5b50505050836001600160a01b0316632b7c7b11836040518263ffffffff1660e01b815260040180828152602001915050600060405180830381600087803b158015614e0b57600080fd5b505af1158015614e1f573d6000803e3d6000fd5b50505050826001600160a01b0316638f7be730826040518263ffffffff1660e01b815260040180828152602001915050600060405180830381600087803b1580156134a157600080fd5b60008060745460001415614e7e575081610f45565b600060735411614e8a57fe5b611dd2607454611563607354866135a190919063ffffffff16565b614ead615adc565b614eb5615bd8565b607854600110614ec557506148e7565b614ece87611f71565b60408501526020848101919091528401819052908352614eed90614164565b604083018190527f000000000000000000000000000000000000000000000000000000000000000060608401526020830151614f2891612ba4565b8152670de0b6b3a7640000861161502a57614f4d898983602001518460400151614d67565b614f5687614d1d565b60006080830181905260a0830152815160c0830152805160e0830152614f7d876003614a04565b866001600160a01b0316600080516020615bfa83398151915283600001518460200151600260405180848152602001838152602001826003811115614fbe57fe5b8152602001935050505060405180910390a2866001600160a01b0316600080516020615d90833981519152600080600060026040518085815260200184815260200183815260200182600381111561501257fe5b815260200194505050505060405180910390a26151d7565b670de0b6b3a7640000861180156150485750670f43fc2c04ee000086105b1561509857615061898983602001518460400151614d67565b61506a87614d1d565b81518151615079919087615985565b60e086015260c085015260a08401526080830152614f7d876003614a04565b670f43fc2c04ee000086101580156150af57508386105b80156150bc575081518510155b156151c6576150d5898983602001518460400151614d67565b846150dc57fe5b6150e587614d1d565b6150f882600001518360200151856159df565b9150615105876003614a04565b6101008201511561518557606a5461010083015160408051633f10abab60e01b81526001600160a01b038b81166004830152602482019390935290519190921691633f10abab91604480830192600092919082900301818387803b15801561516c57600080fd5b505af1158015615180573d6000803e3d6000fd5b505050505b866001600160a01b0316600080516020615bfa83398151915283600001518460a00151600260405180848152602001838152602001826003811115614fbe57fe5b6151ce615adc565b91506148e79050565b50979650505050505050565b6151eb615adc565b604080830151908401516151fe91613c04565b60408201526060808301519084015161521691613c04565b60608201528151602084015161522b91613c04565b602080830191909152820151835161524291613c04565b81526080808301519084015161525791613c04565b608082015260a0808301519084015161526f91613c04565b60a082015260c0808301519084015161528791613c04565b60c082015260e0808301519084015161529f91613c04565b60e082015261010080830151908401516152b891613c04565b61010082015292915050565b6000806152d28585856140cf565b6714d1120d7b1600001195945050505050565b6152ed615adc565b6152f5615bd8565b6152fe84611f71565b60408501908152602085810192835286019290925291845290519051615328918891889190614d67565b61533184614d1d565b61533e8260200151614164565b604083018190527f00000000000000000000000000000000000000000000000000000000000000006060840152602083015160009161537d9190612ba4565b905061538e83600001518286615985565b60e087015260c086015260a085015260808401526153ad856003614a04565b846001600160a01b0316600080516020615bfa833981519152846000015185602001516001604051808481526020018381526020018260038111156153ee57fe5b8152602001935050505060405180910390a2846001600160a01b0316600080516020615d90833981519152600080600060016040518085815260200184815260200183815260200182600381111561544257fe5b815260200194505050505060405180910390a25050949350505050565b600081831061546e5781611dd2565b5090919050565b6000631f54050082111561548b57631f54050091505b8161549f5750670de0b6b3a7640000610f45565b670de0b6b3a764000083835b600181111561550a57600281066154da576154c68283615a7e565b91506154d38160026135fa565b9050615505565b6154e48284615a7e565b92506154f08283615a7e565b91506155026002611563836001612ba4565b90505b6154ab565b6115698284615a7e565b3b151590565b600254600160a81b900460ff16806155355750615535613c5e565b8061554a5750600254600160a01b900460ff16155b6155855760405162461bcd60e51b815260040180806020018281038252602e815260200180615c69602e913960400191505060405180910390fd5b600254600160a81b900460ff16158015613d21576002805460ff60a01b1960ff60a81b19909116600160a81b1716600160a01b1790558015610ee7576002805460ff60a81b1916905550565b600254600160a81b900460ff16806155ec57506155ec613c5e565b806156015750600254600160a01b900460ff16155b61563c5760405162461bcd60e51b815260040180806020018281038252602e815260200180615c69602e913960400191505060405180910390fd5b600254600160a81b900460ff16158015615673576002805460ff60a01b1960ff60a81b19909116600160a81b1716600160a01b1790555b600061567d613c00565b603580546001600160a01b0319166001600160a01b03831690811790915560405191925090600090600080516020615d70833981519152908290a3508015610ee7576002805460ff60a81b1916905550565b6001600160a01b038116610ee7576040805162461bcd60e51b815260206004820152601e60248201527f4163636f756e742063616e6e6f74206265207a65726f20616464726573730000604482015290519081900360640190fd5b6040808501516069548251632770a7eb60e21b81526001600160a01b039182166004820152602481018690529251911691639dc29fac91604480830192600092919082900301818387803b15801561578157600080fd5b505af1158015615795573d6000803e3d6000fd5b5050505083600001516001600160a01b0316632a7ba1f7836040518263ffffffff1660e01b815260040180828152602001915050600060405180830381600087803b1580156157e357600080fd5b505af11580156157f7573d6000803e3d6000fd5b505050508360a001516001600160a01b0316633f10abab84836040518363ffffffff1660e01b815260040180836001600160a01b0316815260200182815260200192505050600060405180830381600087803b15801561585657600080fd5b505af115801561586a573d6000803e3d6000fd5b5050505083600001516001600160a01b0316628063a58560a00151836040518363ffffffff1660e01b815260040180836001600160a01b0316815260200182815260200192505050600060405180830381600087803b1580156134a157600080fd5b60018111801561594a5750606e546040805163de8fa43160e01b815290516001926001600160a01b03169163de8fa431916004808301926020929190829003018186803b15801561591c57600080fd5b505afa158015615930573d6000803e3d6000fd5b505050506040513d602081101561594657600080fd5b5051115b610ee75760405162461bcd60e51b815260040180806020018281038252602a815260200180615ce5602a913960400191505060405180910390fd5b600080808084156159c95761599a878661545f565b93506159aa8761156388876135a1565b92506159b68785612ba4565b91506159c28684612ba4565b90506159d6565b5060009250829150859050845b93509350935093565b6159e7615adc565b838152602081018390526000615a098361156387670f43fc2c04ee00006135a1565b9050615a1481614164565b604083018190527f0000000000000000000000000000000000000000000000000000000000000000606084015260808301869052615a53908290612ba4565b60a0830152615a628482612ba4565b61010083015250600060c0820181905260e08201529392505050565b600080615a8b84846135a1565b9050614238670de0b6b3a7640000611563836706f05b59d3b20000613c04565b6040518060a00160405280600081526020016000815260200160001515815260200160008152602001600081525090565b6040518061012001604052806000815260200160008152602001600081526020016000815260200160008152602001600081526020016000815260200160008152602001600081525090565b60405180610100016040528060008152602001600081526020016000815260200160008152602001600081526020016000815260200160008152602001600081525090565b6040518060e0016040528060008152602001600081526020016000815260200160006001600160a01b0316815260200160001515815260200160008152602001600081525090565b604051806060016040528060008152602001600081526020016000151581525090565b6040518060600160405280600081526020016000815260200160008152509056feea67486ed7ebe3eea8ab3390efd4a3c8aae48be5bea27df104a8af786c4084344f776e61626c653a206e6577206f776e657220697320746865207a65726f206164647265737354726f76654d616e616765723a20556e61626c6520746f2072656465656d20616e7920616d6f756e74496e697469616c697a61626c653a20636f6e747261637420697320616c726561647920696e697469616c697a656454726f76654d616e616765723a2052657175657374656420726564656d7074696f6e20616d6f756e74206d757374206265203c3d20757365722773206465627420746f6b656e2062616c616e636554726f76654d616e616765723a204f6e6c79206f6e652074726f766520696e207468652073797374656d54726f76654d616e616765723a20526564656d7074696f6e7320617265206e6f7420616c6c6f77656420647572696e6720626f6f747374726170207068617365536166654d6174683a206d756c7469706c69636174696f6e206f766572666c6f778be0079c531659141344cd1fd0a4f28419497f9722a3daafe3b4186f6b6457e0c3770d654ed33aeea6bf11ac8ef05d02a6a04ed4686dd2f624d853bbec43cc8b54726f76654d616e616765723a2043616c6c6572206973206e6f742074686520426f72726f7765724f7065726174696f6e7320636f6e747261637454726f76654d616e616765723a2043616c6c646174612061646472657373206172726179206d757374206e6f7420626520656d70747954726f76654d616e616765723a20416d6f756e74206d7573742062652067726561746572207468616e207a65726f54726f76654d616e616765723a2046656520776f756c642065617420757020616c6c2072657475726e656420636f6c6c61746572616c4d6178206665652070657263656e74616765206d757374206265206265747765656e20302e352520616e64203130302554726f76654d616e616765723a2043616e6e6f742072656465656d207768656e20544352203c204d435254726f76654d616e616765723a206e6f7468696e6720746f206c697175696461746554726f76654d616e616765723a2054726f766520646f6573206e6f74206578697374206f7220697320636c6f736564a264697066735822122018df8cf45f8d90fa069c99cb67ae40691e0db166e9f1b6660a4f4a7f6914a5fb64736f6c63430007060033",
  "linkReferences": {},
  "deployedLinkReferences": {}
}