{
  "_format": "hh-sol-artifact-1",
  "contractName": "TroveManagerTester",
  "sourceName": "contracts/TestContracts/CDPManagerTester.sol",
  "abi": [
    {
      "anonymous": false,
      "inputs": [
        {
          "indexed": false,
          "internalType": "address",
          "name": "_activePoolAddress",
          "type": "address"
        }
      ],
      "name": "ActivePoolAddressChanged",
      "type": "event"
    },
    {
      "anonymous": false,
      "inputs": [
        {
          "indexed": false,
          "internalType": "uint256",
          "name": "_baseRate",
          "type": "uint256"
        }
      ],
      "name": "BaseRateUpdated",
      "type": "event"
    },
    {
      "anonymous": false,
      "inputs": [
        {
          "indexed": false,
          "internalType": "address",
          "name": "_newBorrowerOperationsAddress",
          "type": "address"
        }
      ],
      "name": "BorrowerOperationsAddressChanged",
      "type": "event"
    },
    {
      "anonymous": false,
      "inputs": [
        {
          "indexed": false,
          "internalType": "address",
          "name": "_collSurplusPoolAddress",
          "type": "address"
        }
      ],
      "name": "CollSurplusPoolAddressChanged",
      "type": "event"
    },
    {
      "anonymous": false,
      "inputs": [
        {
          "indexed": false,
          "internalType": "address",
          "name": "_newDebtTokenAddress",
          "type": "address"
        }
      ],
      "name": "DebtTokenAddressChanged",
      "type": "event"
    },
    {
      "anonymous": false,
      "inputs": [
        {
          "indexed": false,
          "internalType": "address",
          "name": "_defaultPoolAddress",
          "type": "address"
        }
      ],
      "name": "DefaultPoolAddressChanged",
      "type": "event"
    },
    {
      "anonymous": false,
      "inputs": [
        {
          "indexed": false,
          "internalType": "address",
          "name": "_gasPoolAddress",
          "type": "address"
        }
      ],
      "name": "GasPoolAddressChanged",
      "type": "event"
    },
    {
      "anonymous": false,
      "inputs": [
        {
          "indexed": false,
          "internalType": "address",
          "name": "_lqtyStakingAddress",
          "type": "address"
        }
      ],
      "name": "LQTYStakingAddressChanged",
      "type": "event"
    },
    {
      "anonymous": false,
      "inputs": [
        {
          "indexed": false,
          "internalType": "address",
          "name": "_lqtyTokenAddress",
          "type": "address"
        }
      ],
      "name": "LQTYTokenAddressChanged",
      "type": "event"
    },
    {
      "anonymous": false,
      "inputs": [
        {
          "indexed": false,
          "internalType": "uint256",
          "name": "_L_FIL",
          "type": "uint256"
        },
        {
          "indexed": false,
          "internalType": "uint256",
          "name": "_L_Debt",
          "type": "uint256"
        }
      ],
      "name": "LTermsUpdated",
      "type": "event"
    },
    {
      "anonymous": false,
      "inputs": [
        {
          "indexed": false,
          "internalType": "uint256",
          "name": "_lastFeeOpTime",
          "type": "uint256"
        }
      ],
      "name": "LastFeeOpTimeUpdated",
      "type": "event"
    },
    {
      "anonymous": false,
      "inputs": [
        {
          "indexed": false,
          "internalType": "uint256",
          "name": "_liquidatedDebt",
          "type": "uint256"
        },
        {
          "indexed": false,
          "internalType": "uint256",
          "name": "_liquidatedColl",
          "type": "uint256"
        },
        {
          "indexed": false,
          "internalType": "uint256",
          "name": "_collGasCompensation",
          "type": "uint256"
        },
        {
          "indexed": false,
          "internalType": "uint256",
          "name": "_debtGasCompensation",
          "type": "uint256"
        }
      ],
      "name": "Liquidation",
      "type": "event"
    },
    {
      "anonymous": false,
      "inputs": [
        {
          "indexed": true,
          "internalType": "address",
          "name": "previousOwner",
          "type": "address"
        },
        {
          "indexed": true,
          "internalType": "address",
          "name": "newOwner",
          "type": "address"
        }
      ],
      "name": "OwnershipTransferred",
      "type": "event"
    },
    {
      "anonymous": false,
      "inputs": [
        {
          "indexed": false,
          "internalType": "address",
          "name": "_newPriceFeedAddress",
          "type": "address"
        }
      ],
      "name": "PriceFeedAddressChanged",
      "type": "event"
    },
    {
      "anonymous": false,
      "inputs": [
        {
          "indexed": false,
          "internalType": "uint256",
          "name": "_attemptedDebtTokenAmount",
          "type": "uint256"
        },
        {
          "indexed": false,
          "internalType": "uint256",
          "name": "_actualDebtTokenAmount",
          "type": "uint256"
        },
        {
          "indexed": false,
          "internalType": "uint256",
          "name": "_FILSent",
          "type": "uint256"
        },
        {
          "indexed": false,
          "internalType": "uint256",
          "name": "_FILFee",
          "type": "uint256"
        }
      ],
      "name": "Redemption",
      "type": "event"
    },
    {
      "anonymous": false,
      "inputs": [
        {
          "indexed": false,
          "internalType": "address",
          "name": "_sortedTrovesAddress",
          "type": "address"
        }
      ],
      "name": "SortedTrovesAddressChanged",
      "type": "event"
    },
    {
      "anonymous": false,
      "inputs": [
        {
          "indexed": false,
          "internalType": "address",
          "name": "_stabilityPoolAddress",
          "type": "address"
        }
      ],
      "name": "StabilityPoolAddressChanged",
      "type": "event"
    },
    {
      "anonymous": false,
      "inputs": [
        {
          "indexed": false,
          "internalType": "uint256",
          "name": "_totalStakesSnapshot",
          "type": "uint256"
        },
        {
          "indexed": false,
          "internalType": "uint256",
          "name": "_totalCollateralSnapshot",
          "type": "uint256"
        }
      ],
      "name": "SystemSnapshotsUpdated",
      "type": "event"
    },
    {
      "anonymous": false,
      "inputs": [
        {
          "indexed": false,
          "internalType": "uint256",
          "name": "_newTotalStakes",
          "type": "uint256"
        }
      ],
      "name": "TotalStakesUpdated",
      "type": "event"
    },
    {
      "anonymous": false,
      "inputs": [
        {
          "indexed": false,
          "internalType": "address",
          "name": "_borrower",
          "type": "address"
        },
        {
          "indexed": false,
          "internalType": "uint256",
          "name": "_newIndex",
          "type": "uint256"
        }
      ],
      "name": "TroveIndexUpdated",
      "type": "event"
    },
    {
      "anonymous": false,
      "inputs": [
        {
          "indexed": true,
          "internalType": "address",
          "name": "_borrower",
          "type": "address"
        },
        {
          "indexed": false,
          "internalType": "uint256",
          "name": "_debt",
          "type": "uint256"
        },
        {
          "indexed": false,
          "internalType": "uint256",
          "name": "_coll",
          "type": "uint256"
        },
        {
          "indexed": false,
          "internalType": "enum TroveManager.TroveManagerOperation",
          "name": "_operation",
          "type": "uint8"
        }
      ],
      "name": "TroveLiquidated",
      "type": "event"
    },
    {
      "anonymous": false,
      "inputs": [
        {
          "indexed": false,
          "internalType": "uint256",
          "name": "_L_FIL",
          "type": "uint256"
        },
        {
          "indexed": false,
          "internalType": "uint256",
          "name": "_L_Debt",
          "type": "uint256"
        }
      ],
      "name": "TroveSnapshotsUpdated",
      "type": "event"
    },
    {
      "anonymous": false,
      "inputs": [
        {
          "indexed": true,
          "internalType": "address",
          "name": "_borrower",
          "type": "address"
        },
        {
          "indexed": false,
          "internalType": "uint256",
          "name": "_debt",
          "type": "uint256"
        },
        {
          "indexed": false,
          "internalType": "uint256",
          "name": "_coll",
          "type": "uint256"
        },
        {
          "indexed": false,
          "internalType": "uint256",
          "name": "_stake",
          "type": "uint256"
        },
        {
          "indexed": false,
          "internalType": "enum TroveManager.TroveManagerOperation",
          "name": "_operation",
          "type": "uint8"
        }
      ],
      "name": "TroveUpdated",
      "type": "event"
    },
    {
      "inputs": [],
      "name": "BETA",
      "outputs": [
        {
          "internalType": "uint256",
          "name": "",
          "type": "uint256"
        }
      ],
      "stateMutability": "view",
      "type": "function"
    },
    {
      "inputs": [],
      "name": "BOOTSTRAP_PERIOD",
      "outputs": [
        {
          "internalType": "uint256",
          "name": "",
          "type": "uint256"
        }
      ],
      "stateMutability": "view",
      "type": "function"
    },
    {
      "inputs": [],
      "name": "BORROWING_FEE_FLOOR",
      "outputs": [
        {
          "internalType": "uint256",
          "name": "",
          "type": "uint256"
        }
      ],
      "stateMutability": "view",
      "type": "function"
    },
    {
      "inputs": [],
      "name": "CCR",
      "outputs": [
        {
          "internalType": "uint256",
          "name": "",
          "type": "uint256"
        }
      ],
      "stateMutability": "view",
      "type": "function"
    },
    {
      "inputs": [],
      "name": "DECIMAL_PRECISION",
      "outputs": [
        {
          "internalType": "uint256",
          "name": "",
          "type": "uint256"
        }
      ],
      "stateMutability": "view",
      "type": "function"
    },
    {
      "inputs": [],
      "name": "GAS_COMPENSATION",
      "outputs": [
        {
          "internalType": "uint256",
          "name": "",
          "type": "uint256"
        }
      ],
      "stateMutability": "view",
      "type": "function"
    },
    {
      "inputs": [],
      "name": "L_Debt",
      "outputs": [
        {
          "internalType": "uint256",
          "name": "",
          "type": "uint256"
        }
      ],
      "stateMutability": "view",
      "type": "function"
    },
    {
      "inputs": [],
      "name": "L_FIL",
      "outputs": [
        {
          "internalType": "uint256",
          "name": "",
          "type": "uint256"
        }
      ],
      "stateMutability": "view",
      "type": "function"
    },
    {
      "inputs": [],
      "name": "MAX_BORROWING_FEE",
      "outputs": [
        {
          "internalType": "uint256",
          "name": "",
          "type": "uint256"
        }
      ],
      "stateMutability": "view",
      "type": "function"
    },
    {
      "inputs": [],
      "name": "MCR",
      "outputs": [
        {
          "internalType": "uint256",
          "name": "",
          "type": "uint256"
        }
      ],
      "stateMutability": "view",
      "type": "function"
    },
    {
      "inputs": [],
      "name": "MINUTE_DECAY_FACTOR",
      "outputs": [
        {
          "internalType": "uint256",
          "name": "",
          "type": "uint256"
        }
      ],
      "stateMutability": "view",
      "type": "function"
    },
    {
      "inputs": [],
      "name": "MIN_NET_DEBT",
      "outputs": [
        {
          "internalType": "uint256",
          "name": "",
          "type": "uint256"
        }
      ],
      "stateMutability": "view",
      "type": "function"
    },
    {
      "inputs": [],
      "name": "NAME",
      "outputs": [
        {
          "internalType": "string",
          "name": "",
          "type": "string"
        }
      ],
      "stateMutability": "view",
      "type": "function"
    },
    {
      "inputs": [],
      "name": "PERCENT_DIVISOR",
      "outputs": [
        {
          "internalType": "uint256",
          "name": "",
          "type": "uint256"
        }
      ],
      "stateMutability": "view",
      "type": "function"
    },
    {
      "inputs": [],
      "name": "REDEMPTION_FEE_FLOOR",
      "outputs": [
        {
          "internalType": "uint256",
          "name": "",
          "type": "uint256"
        }
      ],
      "stateMutability": "view",
      "type": "function"
    },
    {
      "inputs": [],
      "name": "SECONDS_IN_ONE_MINUTE",
      "outputs": [
        {
          "internalType": "uint256",
          "name": "",
          "type": "uint256"
        }
      ],
      "stateMutability": "view",
      "type": "function"
    },
    {
      "inputs": [
        {
          "internalType": "uint256",
          "name": "",
          "type": "uint256"
        }
      ],
      "name": "TroveOwners",
      "outputs": [
        {
          "internalType": "address",
          "name": "",
          "type": "address"
        }
      ],
      "stateMutability": "view",
      "type": "function"
    },
    {
      "inputs": [
        {
          "internalType": "address",
          "name": "",
          "type": "address"
        }
      ],
      "name": "Troves",
      "outputs": [
        {
          "internalType": "uint256",
          "name": "debt",
          "type": "uint256"
        },
        {
          "internalType": "uint256",
          "name": "coll",
          "type": "uint256"
        },
        {
          "internalType": "uint256",
          "name": "stake",
          "type": "uint256"
        },
        {
          "internalType": "enum TroveManager.Status",
          "name": "status",
          "type": "uint8"
        },
        {
          "internalType": "uint128",
          "name": "arrayIndex",
          "type": "uint128"
        }
      ],
      "stateMutability": "view",
      "type": "function"
    },
    {
      "inputs": [],
      "name": "_100pct",
      "outputs": [
        {
          "internalType": "uint256",
          "name": "",
          "type": "uint256"
        }
      ],
      "stateMutability": "view",
      "type": "function"
    },
    {
      "inputs": [],
      "name": "activePool",
      "outputs": [
        {
          "internalType": "contract IActivePool",
          "name": "",
          "type": "address"
        }
      ],
      "stateMutability": "view",
      "type": "function"
    },
    {
      "inputs": [
        {
          "internalType": "address",
          "name": "_borrower",
          "type": "address"
        }
      ],
      "name": "addTroveOwnerToArray",
      "outputs": [
        {
          "internalType": "uint256",
          "name": "index",
          "type": "uint256"
        }
      ],
      "stateMutability": "nonpayable",
      "type": "function"
    },
    {
      "inputs": [
        {
          "internalType": "address",
          "name": "_borrower",
          "type": "address"
        }
      ],
      "name": "applyPendingRewards",
      "outputs": [],
      "stateMutability": "nonpayable",
      "type": "function"
    },
    {
      "inputs": [],
      "name": "baseRate",
      "outputs": [
        {
          "internalType": "uint256",
          "name": "",
          "type": "uint256"
        }
      ],
      "stateMutability": "view",
      "type": "function"
    },
    {
      "inputs": [
        {
          "internalType": "address[]",
          "name": "_troveArray",
          "type": "address[]"
        }
      ],
      "name": "batchLiquidateTroves",
      "outputs": [],
      "stateMutability": "nonpayable",
      "type": "function"
    },
    {
      "inputs": [],
      "name": "borrowerOperationsAddress",
      "outputs": [
        {
          "internalType": "address",
          "name": "",
          "type": "address"
        }
      ],
      "stateMutability": "view",
      "type": "function"
    },
    {
      "inputs": [
        {
          "internalType": "uint256",
          "name": "_FILDrawn",
          "type": "uint256"
        }
      ],
      "name": "callGetRedemptionFee",
      "outputs": [
        {
          "internalType": "uint256",
          "name": "",
          "type": "uint256"
        }
      ],
      "stateMutability": "view",
      "type": "function"
    },
    {
      "inputs": [
        {
          "internalType": "address",
          "name": "_troveOwner",
          "type": "address"
        }
      ],
      "name": "callInternalRemoveTroveOwner",
      "outputs": [],
      "stateMutability": "nonpayable",
      "type": "function"
    },
    {
      "inputs": [
        {
          "internalType": "uint256",
          "name": "_price",
          "type": "uint256"
        }
      ],
      "name": "checkRecoveryMode",
      "outputs": [
        {
          "internalType": "bool",
          "name": "",
          "type": "bool"
        }
      ],
      "stateMutability": "view",
      "type": "function"
    },
    {
      "inputs": [
        {
          "internalType": "address",
          "name": "_borrower",
          "type": "address"
        }
      ],
      "name": "closeTrove",
      "outputs": [],
      "stateMutability": "nonpayable",
      "type": "function"
    },
    {
      "inputs": [
        {
          "internalType": "uint256",
          "name": "_coll",
          "type": "uint256"
        },
        {
          "internalType": "uint256",
          "name": "_debt",
          "type": "uint256"
        },
        {
          "internalType": "uint256",
          "name": "_price",
          "type": "uint256"
        }
      ],
      "name": "computeICR",
      "outputs": [
        {
          "internalType": "uint256",
          "name": "",
          "type": "uint256"
        }
      ],
      "stateMutability": "pure",
      "type": "function"
    },
    {
      "inputs": [],
      "name": "debtToken",
      "outputs": [
        {
          "internalType": "contract IDebtToken",
          "name": "",
          "type": "address"
        }
      ],
      "stateMutability": "view",
      "type": "function"
    },
    {
      "inputs": [],
      "name": "decayBaseRateFromBorrowing",
      "outputs": [],
      "stateMutability": "nonpayable",
      "type": "function"
    },
    {
      "inputs": [
        {
          "internalType": "address",
          "name": "_borrower",
          "type": "address"
        },
        {
          "internalType": "uint256",
          "name": "_collDecrease",
          "type": "uint256"
        }
      ],
      "name": "decreaseTroveColl",
      "outputs": [
        {
          "internalType": "uint256",
          "name": "",
          "type": "uint256"
        }
      ],
      "stateMutability": "nonpayable",
      "type": "function"
    },
    {
      "inputs": [
        {
          "internalType": "address",
          "name": "_borrower",
          "type": "address"
        },
        {
          "internalType": "uint256",
          "name": "_debtDecrease",
          "type": "uint256"
        }
      ],
      "name": "decreaseTroveDebt",
      "outputs": [
        {
          "internalType": "uint256",
          "name": "",
          "type": "uint256"
        }
      ],
      "stateMutability": "nonpayable",
      "type": "function"
    },
    {
      "inputs": [],
      "name": "defaultPool",
      "outputs": [
        {
          "internalType": "contract IDefaultPool",
          "name": "",
          "type": "address"
        }
      ],
      "stateMutability": "view",
      "type": "function"
    },
    {
      "inputs": [
        {
          "internalType": "uint256",
          "name": "_debtVal",
          "type": "uint256"
        }
      ],
      "name": "getActualDebtFromComposite",
      "outputs": [
        {
          "internalType": "uint256",
          "name": "",
          "type": "uint256"
        }
      ],
      "stateMutability": "pure",
      "type": "function"
    },
    {
      "inputs": [
        {
          "internalType": "uint256",
          "name": "_debt",
          "type": "uint256"
        }
      ],
      "name": "getBorrowingFee",
      "outputs": [
        {
          "internalType": "uint256",
          "name": "",
          "type": "uint256"
        }
      ],
      "stateMutability": "view",
      "type": "function"
    },
    {
      "inputs": [
        {
          "internalType": "uint256",
          "name": "_debt",
          "type": "uint256"
        }
      ],
      "name": "getBorrowingFeeWithDecay",
      "outputs": [
        {
          "internalType": "uint256",
          "name": "",
          "type": "uint256"
        }
      ],
      "stateMutability": "view",
      "type": "function"
    },
    {
      "inputs": [],
      "name": "getBorrowingRate",
      "outputs": [
        {
          "internalType": "uint256",
          "name": "",
          "type": "uint256"
        }
      ],
      "stateMutability": "view",
      "type": "function"
    },
    {
      "inputs": [],
      "name": "getBorrowingRateWithDecay",
      "outputs": [
        {
          "internalType": "uint256",
          "name": "",
          "type": "uint256"
        }
      ],
      "stateMutability": "view",
      "type": "function"
    },
    {
      "inputs": [
        {
          "internalType": "uint256",
          "name": "_coll",
          "type": "uint256"
        }
      ],
      "name": "getCollGasCompensation",
      "outputs": [
        {
          "internalType": "uint256",
          "name": "",
          "type": "uint256"
        }
      ],
      "stateMutability": "pure",
      "type": "function"
    },
    {
      "inputs": [
        {
          "internalType": "uint256",
          "name": "_debt",
          "type": "uint256"
        }
      ],
      "name": "getCompositeDebt",
      "outputs": [
        {
          "internalType": "uint256",
          "name": "",
          "type": "uint256"
        }
      ],
      "stateMutability": "pure",
      "type": "function"
    },
    {
      "inputs": [
        {
          "internalType": "address",
          "name": "_borrower",
          "type": "address"
        },
        {
          "internalType": "uint256",
          "name": "_price",
          "type": "uint256"
        }
      ],
      "name": "getCurrentICR",
      "outputs": [
        {
          "internalType": "uint256",
          "name": "",
          "type": "uint256"
        }
      ],
      "stateMutability": "view",
      "type": "function"
    },
    {
      "inputs": [
        {
          "internalType": "address",
          "name": "_borrower",
          "type": "address"
        }
      ],
      "name": "getEntireDebtAndColl",
      "outputs": [
        {
          "internalType": "uint256",
          "name": "debt",
          "type": "uint256"
        },
        {
          "internalType": "uint256",
          "name": "coll",
          "type": "uint256"
        },
        {
          "internalType": "uint256",
          "name": "pendingDebtReward",
          "type": "uint256"
        },
        {
          "internalType": "uint256",
          "name": "pendingFILReward",
          "type": "uint256"
        }
      ],
      "stateMutability": "view",
      "type": "function"
    },
    {
      "inputs": [],
      "name": "getEntireSystemColl",
      "outputs": [
        {
          "internalType": "uint256",
          "name": "entireSystemColl",
          "type": "uint256"
        }
      ],
      "stateMutability": "view",
      "type": "function"
    },
    {
      "inputs": [],
      "name": "getEntireSystemDebt",
      "outputs": [
        {
          "internalType": "uint256",
          "name": "entireSystemDebt",
          "type": "uint256"
        }
      ],
      "stateMutability": "view",
      "type": "function"
    },
    {
      "inputs": [],
      "name": "getGasCompensation",
      "outputs": [
        {
          "internalType": "uint256",
          "name": "",
          "type": "uint256"
        }
      ],
      "stateMutability": "pure",
      "type": "function"
    },
    {
      "inputs": [
        {
          "internalType": "address",
          "name": "_borrower",
          "type": "address"
        }
      ],
      "name": "getNominalICR",
      "outputs": [
        {
          "internalType": "uint256",
          "name": "",
          "type": "uint256"
        }
      ],
      "stateMutability": "view",
      "type": "function"
    },
    {
      "inputs": [
        {
          "internalType": "address",
          "name": "_borrower",
          "type": "address"
        }
      ],
      "name": "getPendingDebtReward",
      "outputs": [
        {
          "internalType": "uint256",
          "name": "",
          "type": "uint256"
        }
      ],
      "stateMutability": "view",
      "type": "function"
    },
    {
      "inputs": [
        {
          "internalType": "address",
          "name": "_borrower",
          "type": "address"
        }
      ],
      "name": "getPendingFILReward",
      "outputs": [
        {
          "internalType": "uint256",
          "name": "",
          "type": "uint256"
        }
      ],
      "stateMutability": "view",
      "type": "function"
    },
    {
      "inputs": [
        {
          "internalType": "uint256",
          "name": "_FILDrawn",
          "type": "uint256"
        }
      ],
      "name": "getRedemptionFeeWithDecay",
      "outputs": [
        {
          "internalType": "uint256",
          "name": "",
          "type": "uint256"
        }
      ],
      "stateMutability": "view",
      "type": "function"
    },
    {
      "inputs": [],
      "name": "getRedemptionRate",
      "outputs": [
        {
          "internalType": "uint256",
          "name": "",
          "type": "uint256"
        }
      ],
      "stateMutability": "view",
      "type": "function"
    },
    {
      "inputs": [],
      "name": "getRedemptionRateWithDecay",
      "outputs": [
        {
          "internalType": "uint256",
          "name": "",
          "type": "uint256"
        }
      ],
      "stateMutability": "view",
      "type": "function"
    },
    {
      "inputs": [
        {
          "internalType": "uint256",
          "name": "_price",
          "type": "uint256"
        }
      ],
      "name": "getTCR",
      "outputs": [
        {
          "internalType": "uint256",
          "name": "",
          "type": "uint256"
        }
      ],
      "stateMutability": "view",
      "type": "function"
    },
    {
      "inputs": [
        {
          "internalType": "address",
          "name": "_borrower",
          "type": "address"
        }
      ],
      "name": "getTroveColl",
      "outputs": [
        {
          "internalType": "uint256",
          "name": "",
          "type": "uint256"
        }
      ],
      "stateMutability": "view",
      "type": "function"
    },
    {
      "inputs": [
        {
          "internalType": "address",
          "name": "_borrower",
          "type": "address"
        }
      ],
      "name": "getTroveDebt",
      "outputs": [
        {
          "internalType": "uint256",
          "name": "",
          "type": "uint256"
        }
      ],
      "stateMutability": "view",
      "type": "function"
    },
    {
      "inputs": [
        {
          "internalType": "uint256",
          "name": "_index",
          "type": "uint256"
        }
      ],
      "name": "getTroveFromTroveOwnersArray",
      "outputs": [
        {
          "internalType": "address",
          "name": "",
          "type": "address"
        }
      ],
      "stateMutability": "view",
      "type": "function"
    },
    {
      "inputs": [],
      "name": "getTroveOwnersCount",
      "outputs": [
        {
          "internalType": "uint256",
          "name": "",
          "type": "uint256"
        }
      ],
      "stateMutability": "view",
      "type": "function"
    },
    {
      "inputs": [
        {
          "internalType": "address",
          "name": "_borrower",
          "type": "address"
        }
      ],
      "name": "getTroveStake",
      "outputs": [
        {
          "internalType": "uint256",
          "name": "",
          "type": "uint256"
        }
      ],
      "stateMutability": "view",
      "type": "function"
    },
    {
      "inputs": [
        {
          "internalType": "address",
          "name": "_borrower",
          "type": "address"
        }
      ],
      "name": "getTroveStatus",
      "outputs": [
        {
          "internalType": "uint256",
          "name": "",
          "type": "uint256"
        }
      ],
      "stateMutability": "view",
      "type": "function"
    },
    {
      "inputs": [
        {
          "internalType": "address",
          "name": "_borrower",
          "type": "address"
        }
      ],
      "name": "hasPendingRewards",
      "outputs": [
        {
          "internalType": "bool",
          "name": "",
          "type": "bool"
        }
      ],
      "stateMutability": "view",
      "type": "function"
    },
    {
      "inputs": [
        {
          "internalType": "address",
          "name": "_borrower",
          "type": "address"
        },
        {
          "internalType": "uint256",
          "name": "_collIncrease",
          "type": "uint256"
        }
      ],
      "name": "increaseTroveColl",
      "outputs": [
        {
          "internalType": "uint256",
          "name": "",
          "type": "uint256"
        }
      ],
      "stateMutability": "nonpayable",
      "type": "function"
    },
    {
      "inputs": [
        {
          "internalType": "address",
          "name": "_borrower",
          "type": "address"
        },
        {
          "internalType": "uint256",
          "name": "_debtIncrease",
          "type": "uint256"
        }
      ],
      "name": "increaseTroveDebt",
      "outputs": [
        {
          "internalType": "uint256",
          "name": "",
          "type": "uint256"
        }
      ],
      "stateMutability": "nonpayable",
      "type": "function"
    },
    {
      "inputs": [],
      "name": "isOwner",
      "outputs": [
        {
          "internalType": "bool",
          "name": "",
          "type": "bool"
        }
      ],
      "stateMutability": "view",
      "type": "function"
    },
    {
      "inputs": [],
      "name": "lastFILError_Redistribution",
      "outputs": [
        {
          "internalType": "uint256",
          "name": "",
          "type": "uint256"
        }
      ],
      "stateMutability": "view",
      "type": "function"
    },
    {
      "inputs": [],
      "name": "lastFeeOperationTime",
      "outputs": [
        {
          "internalType": "uint256",
          "name": "",
          "type": "uint256"
        }
      ],
      "stateMutability": "view",
      "type": "function"
    },
    {
      "inputs": [],
      "name": "lastLDebtError_Redistribution",
      "outputs": [
        {
          "internalType": "uint256",
          "name": "",
          "type": "uint256"
        }
      ],
      "stateMutability": "view",
      "type": "function"
    },
    {
      "inputs": [
        {
          "internalType": "address",
          "name": "_borrower",
          "type": "address"
        }
      ],
      "name": "liquidate",
      "outputs": [],
      "stateMutability": "nonpayable",
      "type": "function"
    },
    {
      "inputs": [
        {
          "internalType": "uint256",
          "name": "_n",
          "type": "uint256"
        }
      ],
      "name": "liquidateTroves",
      "outputs": [],
      "stateMutability": "nonpayable",
      "type": "function"
    },
    {
      "inputs": [],
      "name": "lqtyStaking",
      "outputs": [
        {
          "internalType": "contract ILQTYStaking",
          "name": "",
          "type": "address"
        }
      ],
      "stateMutability": "view",
      "type": "function"
    },
    {
      "inputs": [],
      "name": "lqtyToken",
      "outputs": [
        {
          "internalType": "contract ILQTYToken",
          "name": "",
          "type": "address"
        }
      ],
      "stateMutability": "view",
      "type": "function"
    },
    {
      "inputs": [],
      "name": "minutesPassedSinceLastFeeOp",
      "outputs": [
        {
          "internalType": "uint256",
          "name": "",
          "type": "uint256"
        }
      ],
      "stateMutability": "view",
      "type": "function"
    },
    {
      "inputs": [],
      "name": "owner",
      "outputs": [
        {
          "internalType": "address",
          "name": "",
          "type": "address"
        }
      ],
      "stateMutability": "view",
      "type": "function"
    },
    {
      "inputs": [],
      "name": "priceFeed",
      "outputs": [
        {
          "internalType": "contract IPriceFeed",
          "name": "",
          "type": "address"
        }
      ],
      "stateMutability": "view",
      "type": "function"
    },
    {
      "inputs": [
        {
          "internalType": "uint256",
          "name": "_debtTokenAmount",
          "type": "uint256"
        },
        {
          "internalType": "address",
          "name": "_firstRedemptionHint",
          "type": "address"
        },
        {
          "internalType": "address",
          "name": "_upperPartialRedemptionHint",
          "type": "address"
        },
        {
          "internalType": "address",
          "name": "_lowerPartialRedemptionHint",
          "type": "address"
        },
        {
          "internalType": "uint256",
          "name": "_partialRedemptionHintNICR",
          "type": "uint256"
        },
        {
          "internalType": "uint256",
          "name": "_maxIterations",
          "type": "uint256"
        },
        {
          "internalType": "uint256",
          "name": "_maxFeePercentage",
          "type": "uint256"
        }
      ],
      "name": "redeemCollateral",
      "outputs": [],
      "stateMutability": "nonpayable",
      "type": "function"
    },
    {
      "inputs": [
        {
          "internalType": "address",
          "name": "_borrower",
          "type": "address"
        }
      ],
      "name": "removeStake",
      "outputs": [],
      "stateMutability": "nonpayable",
      "type": "function"
    },
    {
      "inputs": [
        {
          "internalType": "address",
          "name": "",
          "type": "address"
        }
      ],
      "name": "rewardSnapshots",
      "outputs": [
        {
          "internalType": "uint256",
          "name": "FIL",
          "type": "uint256"
        },
        {
          "internalType": "uint256",
          "name": "debt",
          "type": "uint256"
        }
      ],
      "stateMutability": "view",
      "type": "function"
    },
    {
      "inputs": [
        {
          "internalType": "address",
          "name": "_borrowerOperationsAddress",
          "type": "address"
        },
        {
          "internalType": "address",
          "name": "_activePoolAddress",
          "type": "address"
        },
        {
          "internalType": "address",
          "name": "_defaultPoolAddress",
          "type": "address"
        },
        {
          "internalType": "address",
          "name": "_stabilityPoolAddress",
          "type": "address"
        },
        {
          "internalType": "address",
          "name": "_gasPoolAddress",
          "type": "address"
        },
        {
          "internalType": "address",
          "name": "_collSurplusPoolAddress",
          "type": "address"
        },
        {
          "internalType": "address",
          "name": "_priceFeedAddress",
          "type": "address"
        },
        {
          "internalType": "address",
          "name": "_debtTokenAddress",
          "type": "address"
        },
        {
          "internalType": "address",
          "name": "_sortedTrovesAddress",
          "type": "address"
        },
        {
          "internalType": "address",
          "name": "_lqtyTokenAddress",
          "type": "address"
        },
        {
          "internalType": "address",
          "name": "_lqtyStakingAddress",
          "type": "address"
        }
      ],
      "name": "setAddresses",
      "outputs": [],
      "stateMutability": "nonpayable",
      "type": "function"
    },
    {
      "inputs": [
        {
          "internalType": "uint256",
          "name": "_baseRate",
          "type": "uint256"
        }
      ],
      "name": "setBaseRate",
      "outputs": [],
      "stateMutability": "nonpayable",
      "type": "function"
    },
    {
      "inputs": [],
      "name": "setLastFeeOpTimeToNow",
      "outputs": [],
      "stateMutability": "nonpayable",
      "type": "function"
    },
    {
      "inputs": [
        {
          "internalType": "address",
          "name": "_borrower",
          "type": "address"
        },
        {
          "internalType": "uint256",
          "name": "_num",
          "type": "uint256"
        }
      ],
      "name": "setTroveStatus",
      "outputs": [],
      "stateMutability": "nonpayable",
      "type": "function"
    },
    {
      "inputs": [],
      "name": "sortedTroves",
      "outputs": [
        {
          "internalType": "contract ISortedTroves",
          "name": "",
          "type": "address"
        }
      ],
      "stateMutability": "view",
      "type": "function"
    },
    {
      "inputs": [],
      "name": "stabilityPool",
      "outputs": [
        {
          "internalType": "contract IStabilityPool",
          "name": "",
          "type": "address"
        }
      ],
      "stateMutability": "view",
      "type": "function"
    },
    {
      "inputs": [],
      "name": "totalCollateralSnapshot",
      "outputs": [
        {
          "internalType": "uint256",
          "name": "",
          "type": "uint256"
        }
      ],
      "stateMutability": "view",
      "type": "function"
    },
    {
      "inputs": [],
      "name": "totalStakes",
      "outputs": [
        {
          "internalType": "uint256",
          "name": "",
          "type": "uint256"
        }
      ],
      "stateMutability": "view",
      "type": "function"
    },
    {
      "inputs": [],
      "name": "totalStakesSnapshot",
      "outputs": [
        {
          "internalType": "uint256",
          "name": "",
          "type": "uint256"
        }
      ],
      "stateMutability": "view",
      "type": "function"
    },
    {
      "inputs": [],
      "name": "unprotectedDecayBaseRateFromBorrowing",
      "outputs": [
        {
          "internalType": "uint256",
          "name": "",
          "type": "uint256"
        }
      ],
      "stateMutability": "nonpayable",
      "type": "function"
    },
    {
      "inputs": [
        {
          "internalType": "address",
          "name": "_borrower",
          "type": "address"
        }
      ],
      "name": "updateStakeAndTotalStakes",
      "outputs": [
        {
          "internalType": "uint256",
          "name": "",
          "type": "uint256"
        }
      ],
      "stateMutability": "nonpayable",
      "type": "function"
    },
    {
      "inputs": [
        {
          "internalType": "address",
          "name": "_borrower",
          "type": "address"
        }
      ],
      "name": "updateTroveRewardSnapshots",
      "outputs": [],
      "stateMutability": "nonpayable",
      "type": "function"
    }
  ],
  "bytecode": "0x608060405234801561001057600080fd5b50600380546001600160a01b031916339081179091556040516000907f8be0079c531659141344cd1fd0a4f28419497f9722a3daafe3b4186f6b6457e0908290a3615ce380620000616000396000f3fe608060405234801561001057600080fd5b50600436106104e35760003560e01c8063741bef1a1161028e578063b82f263d11610167578063d5b35635116100d9578063f36b242511610092578063f36b242514610e01578063f59fac2d14610e09578063f8d8989814610e2f578063f92d34331461072b578063fe2ba84814610e37578063febb33de14610e5d576104e3565b8063d5b3563514610d4d578063d66a255314610d6a578063d9a7244414610d90578063da303f1414610dad578063dc62a70214610db5578063e2ac77b014610ddb576104e3565b8063c52861f21161012b578063c52861f214610cb7578063c7b5548114610cbf578063cbd138ae14610cc7578063d293c71014610ced578063d380a37c14610d19578063d3d6f84314610d21576104e3565b8063b82f263d14610bf0578063b91af97c14610c0d578063bcd3752614610c59578063bf9befb114610ca7578063c35bc55014610caf576104e3565b80638f32d59b11610200578063a3a64017116101c4578063a3a6401714610b18578063a3f4df7e14610b20578063a537896f14610b9d578063ae91875414610bba578063b0d8e18114610bc2578063b7f8cf9b14610be8576104e3565b80638f32d59b14610ad457806396d711ff14610adc5780639976cf4514610ae4578063a0d8d6bc14610b10578063a20baee6146109a4576104e3565b80637f7dde4a116102525780637f7dde4a14610a65578063807d138d14610a6d578063814a0a4514610a7557806382fe3eb914610a9e578063887105d314610ac45780638da5cb5b14610acc576104e3565b8063741bef1a146109b4578063756b253e146109bc578063794e5724146109d9578063795d26c3146109e15780637985c5e4146109e9576104e3565b80633cc74225116103c05780635dba4c4a1161033257806366ca4a21116102f657806366ca4a21146108f9578063695b2e34146109015780636ef643381461090957806372423c171461097857806372fe25aa146109a457806373098be9146109ac576104e3565b80635dba4c4a1461088957806361ec893d14610891578063631203b01461089957806364cee260146108b6578063653d46e7146108dc576104e3565b80634e443d9e116103845780634e443d9e146107c45780634ff81443146107f557806352512eaa1461081257806354062a45146108385780635733d58f146108555780635d6b480f1461085d576104e3565b80633cc7422514610769578063477d66cf14610771578063480cd5781461078e5780634870dd9a146107b457806349eefeee146107bc576104e3565b80631d08837b11610459578063240926691161041d578063240926691461071b57806326b4d8fd1461072357806328d28b5b1461072b5780632b11551a146107335780632f8655681461073b57806331eaf05c14610761576104e3565b80631d08837b146106255780631e8b1c2b146106425780631f68f20a146106e55780631f7af3c3146106ed57806321e37801146106f5576104e3565b806312610e92116104ab57806312610e921461055e578063139f2e8c1461058a57806315d549f1146105925780631673c79a146105b857806318f2817a146105f75780631bf435551461061d576104e3565b8063043782fb146104e8578063048c661d146104f2578063071a7541146105165780630b07655714610530578063105bb15c14610556575b600080fd5b6104f0610e7a565b005b6104fa610e80565b604080516001600160a01b039092168252519081900360200190f35b61051e610e8f565b60408051918252519081900360200190f35b6104f06004803603602081101561054657600080fd5b50356001600160a01b0316610e94565b61051e610ebc565b61051e6004803603604081101561057457600080fd5b506001600160a01b038135169060200135610ecb565b61051e610f23565b61051e600480360360208110156105a857600080fd5b50356001600160a01b0316610f30565b6105de600480360360208110156105ce57600080fd5b50356001600160a01b0316610f54565b6040805192835260208301919091528051918290030190f35b61051e6004803603602081101561060d57600080fd5b50356001600160a01b0316610f6d565b61051e610f80565b6104f06004803603602081101561063b57600080fd5b5035610f8d565b6104f06004803603602081101561065857600080fd5b81019060208101813564010000000081111561067357600080fd5b82018360208201111561068557600080fd5b803590602001918460208302840111640100000000831117156106a757600080fd5b919080806020026020016040519081016040528093929190818152602001838360200280828437600092019190915250929550610f92945050505050565b61051e611332565b6104fa611338565b61051e6004803603602081101561070b57600080fd5b50356001600160a01b0316611347565b61051e611371565b61051e611384565b61051e61138a565b61051e61139b565b6104f06004803603602081101561075157600080fd5b50356001600160a01b03166113a8565b61051e61140e565b6104fa611414565b61051e6004803603602081101561078757600080fd5b5035611423565b61051e600480360360208110156107a457600080fd5b50356001600160a01b0316611436565b61051e611454565b61051e611459565b6107e1600480360360208110156107da57600080fd5b503561145f565b604080519115158252519081900360200190f35b61051e6004803603602081101561080b57600080fd5b503561146a565b61051e6004803603602081101561082857600080fd5b50356001600160a01b0316611475565b61051e6004803603602081101561084e57600080fd5b503561153b565b61051e611546565b6104f06004803603604081101561087357600080fd5b506001600160a01b038135169060200135611552565b6104f061159e565b61051e611604565b61051e600480360360208110156108af57600080fd5b5035611609565b61051e600480360360208110156108cc57600080fd5b50356001600160a01b0316611616565b6104f0600480360360208110156108f257600080fd5b5035611634565b61051e6119e0565b61051e6119f2565b61092f6004803603602081101561091f57600080fd5b50356001600160a01b03166119ff565b6040518086815260200185815260200184815260200183600481111561095157fe5b60ff1681526001600160801b03909216602083015250604080519182900301945092505050f35b61051e6004803603604081101561098e57600080fd5b506001600160a01b038135169060200135611a39565b61051e611a96565b61051e611aa2565b6104fa611aa8565b6104fa600480360360208110156109d257600080fd5b5035611ab7565b61051e611ade565b61051e611aea565b6104f06004803603610160811015610a0057600080fd5b506001600160a01b038135811691602081013582169160408201358116916060810135821691608082013581169160a081013582169160c082013581169160e08101358216916101008201358116916101208101358216916101409091013516611beb565b6104fa611fe4565b61051e611ff3565b61051e60048036036060811015610a8b57600080fd5b5080359060208101359060400135611ff9565b6104f060048036036020811015610ab457600080fd5b50356001600160a01b0316612010565b61051e612021565b6104fa6120dd565b6107e16120ec565b61051e6120fd565b61051e60048036036040811015610afa57600080fd5b506001600160a01b038135169060200135612103565b61051e612136565b6104fa61213c565b610b2861214b565b6040805160208082528351818301528351919283929083019185019080838360005b83811015610b62578181015183820152602001610b4a565b50505050905090810190601f168015610b8f5780820380516001836020036101000a031916815260200191505b509250505060405180910390f35b61051e60048036036020811015610bb357600080fd5b5035612173565b6104fa61217e565b61051e60048036036020811015610bd857600080fd5b50356001600160a01b031661218d565b6104fa6121b4565b61051e60048036036020811015610c0657600080fd5b50356121c3565b610c3360048036036020811015610c2357600080fd5b50356001600160a01b03166121ce565b604080519485526020850193909352838301919091526060830152519081900360800190f35b6104f0600480360360e0811015610c6f57600080fd5b508035906001600160a01b03602082013581169160408101358216916060820135169060808101359060a08101359060c00135612232565b61051e6129d1565b61051e6129d7565b61051e6129de565b61051e6129f0565b6104f060048036036020811015610cdd57600080fd5b50356001600160a01b03166129fc565b61051e60048036036040811015610d0357600080fd5b506001600160a01b038135169060200135612a0f565b61051e612a2e565b61051e60048036036040811015610d3757600080fd5b506001600160a01b038135169060200135612a34565b61051e60048036036020811015610d6357600080fd5b5035612a6a565b61051e60048036036020811015610d8057600080fd5b50356001600160a01b0316612a7d565b6104fa60048036036020811015610da657600080fd5b5035612a98565b61051e612ac2565b6104f060048036036020811015610dcb57600080fd5b50356001600160a01b0316612af2565b6107e160048036036020811015610df157600080fd5b50356001600160a01b0316612aff565b61051e612b5d565b61051e60048036036020811015610e1f57600080fd5b50356001600160a01b0316612b6a565b6104fa612b9b565b6104f060048036036020811015610e4d57600080fd5b50356001600160a01b0316612baa565b61051e60048036036020811015610e7357600080fd5b5035612bbb565b42600d55565b6005546001600160a01b031681565b600281565b610e9c612bcc565b600054600154610eb9916001600160a01b03908116911683612c17565b50565b6000610ec6612d39565b905090565b6000610ed5612bcc565b6001600160a01b0383166000908152600e6020526040812054610efe908463ffffffff612d5516565b6001600160a01b0385166000908152600e602052604090208190559150505b92915050565b680ad78ebc5ac620000081565b6000610f3a612bcc565b610f4382612d97565b6001600160801b031690505b919050565b6014602052600090815260409020805460019091015482565b6000610f77612bcc565b610f1d82612e31565b686194049f30f720000081565b600c55565b8051610fcf5760405162461bcd60e51b8152600401808060200182810382526036815260200180615b696036913960400191505060405180910390fd5b6000546001546005546001600160a01b03928316929182169116610ff1615861565b610ff9615892565b600260009054906101000a90046001600160a01b03166001600160a01b0316630fdb11cf6040518163ffffffff1660e01b8152600401602060405180830381600087803b15801561104957600080fd5b505af115801561105d573d6000803e3d6000fd5b505050506040513d602081101561107357600080fd5b5051825260408051630d9a6b3560e01b815290516001600160a01b03851691630d9a6b35916004808301926020929190829003018186803b1580156110b757600080fd5b505afa1580156110cb573d6000803e3d6000fd5b505050506040513d60208110156110e157600080fd5b5051602083015281516110f390612ee0565b158015604084015261111b576111148585846000015185602001518a612efd565b9050611133565b6111308585846000015185602001518a61312d565b90505b60008160200151116111765760405162461bcd60e51b8152600401808060200182810382526022815260200180615c5d6022913960400191505060405180910390fd5b826001600160a01b031663335525ad82608001518360a001516040518363ffffffff1660e01b81526004018083815260200182815260200192505050600060405180830381600087803b1580156111cc57600080fd5b505af11580156111e0573d6000803e3d6000fd5b505050506111f885858360c001518460e001516131f5565b610100810151156112755760075461010082015160408051628063a560e01b81526001600160a01b03938416600482015260248101929092525191871691628063a59160448082019260009290919082900301818387803b15801561125c57600080fd5b505af1158015611270573d6000803e3d6000fd5b505050505b611283858260400151613475565b60208101516060830152610100810151604082015182516112bb92916112af919063ffffffff612d5516565b9063ffffffff612d5516565b608080840182905260608085015160408086015186840151825193845260208401969096528282015291810193909352517f4152c73dd2614c4f9fc35e8c9cf16013cd588c75b49a4c1673ecffdcbcda94039281900390910190a161132a8533836060015184604001516135bc565b505050505050565b600c5481565b6009546001600160a01b031681565b6001600160a01b0381166000908152600e602052604081206003015460ff166004811115610f1d57fe5b6064670de0b6b3a76400005b0460050281565b60175481565b6103e8670de0b6b3a764000061137d565b6000610ec6600c546136be565b6113b1816136f4565b6040805160018082528183019092526060916020808301908036833701905050905081816000815181106113e157fe5b60200260200101906001600160a01b031690816001600160a01b03168152505061140a81610f92565b5050565b60135481565b6001546001600160a01b031681565b6000610f1d6114306119e0565b8361375c565b6001600160a01b03166000908152600e602052604090206001015490565b60c881565b60155490565b6000610f1d82612ee0565b6000610f1d8261377a565b6001600160a01b03811660009081526014602052604081205460125482906114a3908363ffffffff612d5516565b90508015806114dc575060016001600160a01b0385166000908152600e602052604090206003015460ff1660048111156114d957fe5b14155b156114ec57600092505050610f4f565b6001600160a01b0384166000908152600e602052604081206002015490611531670de0b6b3a7640000611525848663ffffffff61379516565b9063ffffffff6137ee16565b9695505050505050565b6000610f1d82613830565b6714d1120d7b16000081565b61155a612bcc565b80600481111561156657fe5b6001600160a01b0383166000908152600e60205260409020600301805460ff1916600183600481111561159557fe5b02179055505050565b6115a6612bcc565b60006115b061384b565b9050670de0b6b3a76400008111156115c457fe5b600c8190556040805182815290517fc454ee9b76c52f782a256af821b857ca6e125d1e3333bcede402fec2bed9600c9181900360200190a1610eb961388f565b603c81565b6000610f1d611430612b5d565b6001600160a01b03166000908152600e602052604090206002015490565b61163c6158de565b506040805160e081018252600080546001600160a01b0390811683526001548116602084015292820181905260608201819052600b548316608083015260a0820181905260c0820152600554909116611693615861565b61169b615892565b600260009054906101000a90046001600160a01b03166001600160a01b0316630fdb11cf6040518163ffffffff1660e01b8152600401602060405180830381600087803b1580156116eb57600080fd5b505af11580156116ff573d6000803e3d6000fd5b505050506040513d602081101561171557600080fd5b5051825260408051630d9a6b3560e01b815290516001600160a01b03851691630d9a6b35916004808301926020929190829003018186803b15801561175957600080fd5b505afa15801561176d573d6000803e3d6000fd5b505050506040513d602081101561178357600080fd5b50516020830152815161179590612ee0565b15801560408401526117bc576117b58483600001518460200151886138eb565b90506117dc565b6117d9846000015185602001518460000151856020015189613c86565b90505b600081602001511161181f5760405162461bcd60e51b8152600401808060200182810382526022815260200180615c5d6022913960400191505060405180910390fd5b826001600160a01b031663335525ad82608001518360a001516040518363ffffffff1660e01b81526004018083815260200182815260200192505050600060405180830381600087803b15801561187557600080fd5b505af1158015611889573d6000803e3d6000fd5b505050506118a9846000015185602001518360c001518460e001516131f5565b6101008101511561192857835160075461010083015160408051628063a560e01b81526001600160a01b0393841660048201526024810192909252519190921691628063a591604480830192600092919082900301818387803b15801561190f57600080fd5b505af1158015611923573d6000803e3d6000fd5b505050505b61193a84600001518260400151613475565b602081015160608301526101008101516040820151825161196692916112af919063ffffffff612d5516565b608080840182905260608085015160408086015186840151825193845260208401969096528282015291810193909352517f4152c73dd2614c4f9fc35e8c9cf16013cd588c75b49a4c1673ecffdcbcda94039281900390910190a16119d9846000015133836060015184604001516135bc565b5050505050565b6000610ec66119ed61384b565b613db8565b680ad78ebc5ac620000090565b600e6020526000908152604090208054600182015460028301546003909301549192909160ff81169061010090046001600160801b031685565b6000611a43612bcc565b6001600160a01b0383166000908152600e6020526040812060010154611a6f908463ffffffff613ddf16565b6001600160a01b0385166000908152600e6020526040902060010181905591505092915050565b670de0b6b3a764000081565b60125481565b6002546001600160a01b031681565b60158181548110611ac457fe5b6000918252602090912001546001600160a01b0316905081565b670f43fc2c04ee000081565b60008054604080516314a6bf0f60e01b8152905183926001600160a01b0316916314a6bf0f916004808301926020929190829003018186803b158015611b2f57600080fd5b505afa158015611b43573d6000803e3d6000fd5b505050506040513d6020811015611b5957600080fd5b5051600154604080516314a6bf0f60e01b815290519293506000926001600160a01b03909216916314a6bf0f91600480820192602092909190829003018186803b158015611ba657600080fd5b505afa158015611bba573d6000803e3d6000fd5b505050506040513d6020811015611bd057600080fd5b50519050611be4828263ffffffff613ddf16565b9250505090565b611bf36120ec565b611c44576040805162461bcd60e51b815260206004820181905260248201527f4f776e61626c653a2063616c6c6572206973206e6f7420746865206f776e6572604482015290519081900360640190fd5b611c4d8b613e39565b611c568a613e39565b611c5f89613e39565b611c6888613e39565b611c7187613e39565b611c7a86613e39565b611c8385613e39565b611c8c84613e39565b611c9583613e39565b611c9e82613e39565b611ca781613e39565b600480546001600160a01b03199081166001600160a01b038e81169182179093556000805483168e85161790556001805483168d85161790556005805483168c85161790556006805483168b85161790556007805483168a8516179055600280548316898516179055600880548316888516179055600b80548316878516179055600980548316868516179055600a805490921692841692909217905560408051918252517f3ca631ffcd2a9b5d9ae18543fc82f58eb4ca33af9e6ab01b7a8e95331e6ed985916020908290030190a1604080516001600160a01b038c16815290517f78f058b189175430c48dc02699e3a0031ea4ff781536dc2fab847de4babdd8829181900360200190a1604080516001600160a01b038b16815290517f5ee0cae2f063ed938bb55046f6a932fb6ae792bf43624806bb90abe68a50be9b9181900360200190a1604080516001600160a01b038a16815290517f82966d27eea39b038ee0fa30cd16532bb24f6e65d31cb58fb227aa5766cdcc7f9181900360200190a1604080516001600160a01b038916815290517fcfb07d791fcafc032b35837b50eb84b74df518cf4cc287e8084f47630fa70fa09181900360200190a1604080516001600160a01b038816815290517fe67f36a6e961157d6eff83b91f3af5a62131ceb6f04954ef74f51c1c05e7f88d9181900360200190a1604080516001600160a01b038716815290517f8c537274438aa850a330284665d81a85dd38267d09e4050d416bfc94142db2649181900360200190a1604080516001600160a01b038616815290517f112220fa8dbe96141556e0dc3d74dd95075b323f4f297616048e02d82d7017159181900360200190a1604080516001600160a01b038516815290517f65f4cf077bc01e4742eb5ad98326f6e95b63548ea24b17f8d5e823111fe788009181900360200190a1604080516001600160a01b038416815290517f2ac6e99201ddc1b6eac6f8f28662d1ecafee131f6eb98c29de54528a9888a7d19181900360200190a1604080516001600160a01b038316815290517f756ebc192164c295bba134b5aacd72cc7aff8098a670d1f0a5f6b3a0b4ce67079181900360200190a1611fd7613ee8565b5050505050505050505050565b6000546001600160a01b031681565b60105481565b6000612006848484613f32565b90505b9392505050565b612018612bcc565b610eb981613f62565b60008054604080516362e1c9bf60e11b8152905183926001600160a01b03169163c5c3937e916004808301926020929190829003018186803b15801561206657600080fd5b505afa15801561207a573d6000803e3d6000fd5b505050506040513d602081101561209057600080fd5b5051600154604080516362e1c9bf60e11b815290519293506000926001600160a01b039092169163c5c3937e91600480820192602092909190829003018186803b158015611ba657600080fd5b6003546001600160a01b031690565b6003546001600160a01b0316331490565b60115481565b600061210d612bcc565b6001600160a01b0383166000908152600e6020526040812054610efe908463ffffffff613ddf16565b60165481565b600a546001600160a01b031681565b6040518060400160405280600c81526020016b2a3937bb32a6b0b730b3b2b960a11b81525081565b6000610f1d82613fcd565b600b546001600160a01b031681565b600080600061219b84613fd4565b9150915060006121ab838361405a565b95945050505050565b6004546001600160a01b031681565b6000610f1d8261408f565b6001600160a01b0381166000908152600e6020526040812080546001909101549091806121fa85612b6a565b915061220585611475565b9050612217848363ffffffff613ddf16565b9350612229838263ffffffff613ddf16565b92509193509193565b61223a6158de565b506040805160e0810182526000546001600160a01b03908116825260015481166020830152600854811692820192909252600a5482166060820152600b5482166080820152600754821660a082015260065490911660c082015261229c61591a565b6122a5836140bb565b6122ad614115565b600260009054906101000a90046001600160a01b03166001600160a01b0316630fdb11cf6040518163ffffffff1660e01b8152600401602060405180830381600087803b1580156122fd57600080fd5b505af1158015612311573d6000803e3d6000fd5b505050506040513d602081101561232757600080fd5b505160c08201819052612339906141d9565b61234289614228565b6123518260400151338b614267565b612359611aea565b60e0820181905260408084015181516370a0823160e01b815233600482015291516001600160a01b03909116916370a08231916024808301926020929190829003018186803b1580156123ab57600080fd5b505afa1580156123bf573d6000803e3d6000fd5b505050506040513d60208110156123d557600080fd5b505111156123df57fe5b888152608082015160c08201516000916123fa918b90614327565b15612406575087612530565b82608001516001600160a01b0316634d6228316040518163ffffffff1660e01b815260040160206040518083038186803b15801561244357600080fd5b505afa158015612457573d6000803e3d6000fd5b505050506040513d602081101561246d57600080fd5b505190505b6001600160a01b0381161580159061249e5750670f43fc2c04ee000061249c828460c00151612a0f565b105b156125305782608001516001600160a01b031663b72703ac826040518263ffffffff1660e01b815260040180826001600160a01b03166001600160a01b0316815260200191505060206040518083038186803b1580156124fd57600080fd5b505afa158015612511573d6000803e3d6000fd5b505050506040513d602081101561252757600080fd5b50519050612472565b8461253b5760001994505b6001600160a01b038116158015906125535750815115155b801561255f5750600085115b1561269357848060019003955050600083608001516001600160a01b031663b72703ac836040518263ffffffff1660e01b815260040180826001600160a01b03166001600160a01b0316815260200191505060206040518083038186803b1580156125c957600080fd5b505afa1580156125dd573d6000803e3d6000fd5b505050506040513d60208110156125f357600080fd5b5051845160208601519192506126099184612c17565b61261161595f565b612628858486600001518760c001518e8e8e61449a565b905080604001511561263b575050612693565b805160208501516126519163ffffffff613ddf16565b60208086019190915281015160408501516126719163ffffffff613ddf16565b6040850152805184516126899163ffffffff612d5516565b845250905061253b565b60008260400151116126d65760405162461bcd60e51b8152600401808060200182810382526029815260200180615a0c6029913960400191505060405180910390fd5b6126ed82604001518360c001518460e0015161474d565b506126fb82604001516147f5565b606083018190526040830151612712919086614802565b82600001516001600160a01b0316628063a5846060015184606001516040518363ffffffff1660e01b815260040180836001600160a01b03166001600160a01b0316815260200182815260200192505050600060405180830381600087803b15801561277d57600080fd5b505af1158015612791573d6000803e3d6000fd5b5050505082606001516001600160a01b031663c91d2d3883606001516040518263ffffffff1660e01b815260040180828152602001915050600060405180830381600087803b1580156127e357600080fd5b505af11580156127f7573d6000803e3d6000fd5b505050506060820151604083015161280e91612d55565b8260800181815250507f43a3f4082a4dbc33d78e317d2497d3a730bc7fc3574159dcea1056e62e5d9ad88a8360200151846040015185606001516040518085815260200184815260200183815260200182815260200194505050505060405180910390a182604001516001600160a01b0316639dc29fac3384602001516040518363ffffffff1660e01b815260040180836001600160a01b03166001600160a01b0316815260200182815260200192505050600060405180830381600087803b1580156128da57600080fd5b505af11580156128ee573d6000803e3d6000fd5b5050505082600001516001600160a01b0316632a7ba1f783602001516040518263ffffffff1660e01b815260040180828152602001915050600060405180830381600087803b15801561294057600080fd5b505af1158015612954573d6000803e3d6000fd5b50508451608085015160408051628063a560e01b81523360048201526024810192909252516001600160a01b039092169350628063a5925060448082019260009290919082900301818387803b1580156129ad57600080fd5b505af11580156129c1573d6000803e3d6000fd5b5050505050505050505050505050565b600f5481565b6212750081565b6000610ec66129eb61384b565b6136be565b670ddd4b8c6c7d70d881565b612a04612bcc565b610eb9816002614877565b6000806000612a1d85613fd4565b915091506000611531838387613f32565b600d5481565b6000612a3e612bcc565b6001600160a01b0383166000908152600e6020526040812060010154611a6f908463ffffffff612d5516565b6000610f1d612a776129de565b83614990565b6001600160a01b03166000908152600e602052604090205490565b600060158281548110612aa757fe5b6000918252602090912001546001600160a01b031692915050565b6000612acc61384b565b600c55670de0b6b3a7640000600c541115612ae357fe5b612aeb61388f565b50600c5490565b60155461140a82826149ef565b600060016001600160a01b0383166000908152600e602052604090206003015460ff166004811115612b2d57fe5b14612b3a57506000610f4f565b506012546001600160a01b03821660009081526014602052604090205410919050565b6000610ec6600c54613db8565b6001600160a01b03811660009081526014602052604081206001015460135482906114a3908363ffffffff612d5516565b6008546001600160a01b031681565b612bb2612bcc565b610eb981614b96565b6000612bc6826147f5565b50919050565b6004546001600160a01b03163314612c155760405162461bcd60e51b815260040180806020018281038252603b815260200180615b2e603b913960400191505060405180910390fd5b565b612c2081612aff565b15612d3457612c2e816136f4565b6000612c3982611475565b90506000612c4683612b6a565b6001600160a01b0384166000908152600e6020526040902060010154909150612c75908363ffffffff613ddf16565b6001600160a01b0384166000908152600e60205260409020600181019190915554612ca6908263ffffffff613ddf16565b6001600160a01b0384166000908152600e6020526040902055612cc883613f62565b612cd485858385614be6565b6001600160a01b0383166000818152600e60209081526040808320805460018201546002909201548351918252938101919091528082019290925260608201929092529051600080516020615b0e8339815191529181900360800190a250505b505050565b6000610ec6603c611525600d5442612d5590919063ffffffff16565b600061200983836040518060400160405280601e81526020017f536166654d6174683a207375627472616374696f6e206f766572666c6f770000815250614ce8565b601580546001808201835560008381527f55f448fdea98c4d29eb340757ef0a66cd03dbb9538908a6a81d96026b71ec47590920180546001600160a01b0319166001600160a01b03861617905591549091612df29190612d55565b6001600160a01b03929092166000908152600e602052604090206003018054610100600160881b0319166101006001600160801b038516021790555090565b6001600160a01b0381166000908152600e60205260408120600101548190612e5890614d7f565b6001600160a01b0384166000908152600e60205260409020600201805490829055600f5491925090612ea2908390612e96908463ffffffff612d5516565b9063ffffffff613ddf16565b600f81905560408051918252517f6bac5e0eb3c44eb03a60ab11ec3a2c051771616aecadbcfff2630aabae5203829181900360200190a15092915050565b600080612eec8361408f565b6714d1120d7b160000119392505050565b612f05615892565b612f0d615982565b612f15615892565b84825260006080830152612f27611aea565b60a0830152612f34612021565b60c0830152600060208301525b8351826020015110156131225783826020015181518110612f5e57fe5b6020908102919091018101516001600160a01b0316606084018190526000908152600e909152604090206003015460019060ff166004811115612f9d57fe5b14612fa757613112565b612fb5826060015187612a0f565b604083015260808201516130b457670f43fc2c04ee0000826040015110158015612fde57508151155b15612fe857613112565b6000612ffd8360c001518460a0015189613f32565b905061301a8989856060015186604001518760000151868d614dbb565b60808101518451919350613034919063ffffffff612d5516565b8352608082015160a084015161304f9163ffffffff612d5516565b8360a00181815250506130848261010001516112af84604001516112af8660a001518860c00151612d5590919063ffffffff16565b60c084015261309384836150ee565b93506130a88360c001518460a0015189615205565b15608084015250613112565b816080015180156130d05750670f43fc2c04ee00008260400151105b15613112576130e9888884606001518560000151615226565b60808101518351919250613103919063ffffffff612d5516565b825261310f83826150ee565b92505b6020820180516001019052612f41565b505095945050505050565b613135615892565b61313d615982565b613145615892565b848252600060208301525b835182602001511015613122578382602001518151811061316d57fe5b60209081029190910101516001600160a01b0316606083018190526131929087612a0f565b60408301819052670f43fc2c04ee000011156131e5576131bc888884606001518560000151615226565b608081015183519192506131d6919063ffffffff612d5516565b82526131e283826150ee565b92505b6020820180516001019052613150565b816131ff5761346f565b60165460009061322190612e9684670de0b6b3a764000063ffffffff61379516565b90506000613246601754612e96670de0b6b3a76400008761379590919063ffffffff16565b9050600061325f600f54846137ee90919063ffffffff16565b90506000613278600f54846137ee90919063ffffffff16565b905061329f613292600f548461379590919063ffffffff16565b859063ffffffff612d5516565b601655600f546132c7906132ba90839063ffffffff61379516565b849063ffffffff612d5516565b6017556012546132dd908363ffffffff613ddf16565b6012556013546132f3908263ffffffff613ddf16565b601381905560125460408051918252602082019290925281517f9f8bc8ab0daf5bceef75ecfd2085d1fcc6548c657ea970d9a23a60610d0737e3929181900390910190a1876001600160a01b0316632a7ba1f7876040518263ffffffff1660e01b815260040180828152602001915050600060405180830381600087803b15801561337d57600080fd5b505af1158015613391573d6000803e3d6000fd5b50505050866001600160a01b0316632b7c7b11876040518263ffffffff1660e01b815260040180828152602001915050600060405180830381600087803b1580156133db57600080fd5b505af11580156133ef573d6000803e3d6000fd5b50505050876001600160a01b0316628063a588876040518363ffffffff1660e01b815260040180836001600160a01b03166001600160a01b0316815260200182815260200192505050600060405180830381600087803b15801561345257600080fd5b505af1158015613466573d6000803e3d6000fd5b50505050505050505b50505050565b600f546010819055506000826001600160a01b031663c5c3937e6040518163ffffffff1660e01b815260040160206040518083038186803b1580156134b957600080fd5b505afa1580156134cd573d6000803e3d6000fd5b505050506040513d60208110156134e357600080fd5b5051600154604080516362e1c9bf60e11b815290519293506000926001600160a01b039092169163c5c3937e91600480820192602092909190829003018186803b15801561353057600080fd5b505afa158015613544573d6000803e3d6000fd5b505050506040513d602081101561355a57600080fd5b5051905061357281612e96848663ffffffff612d5516565b601181905560105460408051918252602082019290925281517f51bf4c63ec3cba9d03d43238abbdd979dd91bd16d9895c74ceea9118c7baaf60929181900390910190a150505050565b811561363b5760085460065460408051631062c15f60e11b81526001600160a01b039283166004820152868316602482015260448101869052905191909216916320c582be91606480830192600092919082900301818387803b15801561362257600080fd5b505af1158015613636573d6000803e3d6000fd5b505050505b801561346f57836001600160a01b0316628063a584836040518363ffffffff1660e01b815260040180836001600160a01b03166001600160a01b0316815260200182815260200192505050600060405180830381600087803b1580156136a057600080fd5b505af11580156136b4573d6000803e3d6000fd5b5050505050505050565b6000610f1d6136e6836103e8670de0b6b3a76400005b04600502613ddf90919063ffffffff16565b670de0b6b3a7640000615395565b60016001600160a01b0382166000908152600e602052604090206003015460ff16600481111561372057fe5b14610eb95760405162461bcd60e51b815260040180806020018281038252602f815260200180615c7f602f913960400191505060405180910390fd5b6000612009670de0b6b3a7640000611525858563ffffffff61379516565b6000610f1d82680ad78ebc5ac620000063ffffffff613ddf16565b6000826137a457506000610f1d565b828202828482816137b157fe5b04146120095760405162461bcd60e51b8152600401808060200182810382526021815260200180615aed6021913960400191505060405180910390fd5b600061200983836040518060400160405280601a81526020017f536166654d6174683a206469766973696f6e206279207a65726f0000000000008152506153ab565b6000610f1d82680ad78ebc5ac620000063ffffffff612d5516565b600080613856612d39565b9050600061386c670ddd4b8c6c7d70d883615410565b9050611be4670de0b6b3a764000061152583600c5461379590919063ffffffff16565b60006138a6600d5442612d5590919063ffffffff16565b9050603c8110610eb95742600d81905560408051918252517f860f8d2f0c74dd487e89e2883e3b25b8159ce1e1b3433a291cba7b82c508f3bc9181900360200190a150565b6138f3615892565b6138fb615982565b613903615892565b84825260006080830152613915611aea565b60a0830152613922612021565b8260c001818152505086608001516001600160a01b0316634d6228316040518163ffffffff1660e01b815260040160206040518083038186803b15801561396857600080fd5b505afa15801561397c573d6000803e3d6000fd5b505050506040513d602081101561399257600080fd5b50516001600160a01b039081166060840152608088015160408051631e22314360e01b815290516000939290921691631e22314391600480820192602092909190829003018186803b1580156139e757600080fd5b505afa1580156139fb573d6000803e3d6000fd5b505050506040513d6020811015613a1157600080fd5b50516000602085015290505b848360200151108015613a465750806001600160a01b031683606001516001600160a01b031614155b15613c7b57600088608001516001600160a01b031663b72703ac85606001516040518263ffffffff1660e01b815260040180826001600160a01b03166001600160a01b0316815260200191505060206040518083038186803b158015613aab57600080fd5b505afa158015613abf573d6000803e3d6000fd5b505050506040513d6020811015613ad557600080fd5b50516060850151909150613ae99089612a0f565b60408501526080840151613bed57670f43fc2c04ee0000846040015110158015613b1257508351155b15613b1d5750613c7b565b6000613b328560c001518660a001518b613f32565b8a5160208c0151606088015160408901518951949550613b5394868f614dbb565b60808101518651919550613b6d919063ffffffff612d5516565b8552608084015160a0860151613b889163ffffffff612d5516565b8560a0018181525050613bbd8461010001516112af86604001516112af8860a001518a60c00151612d5590919063ffffffff16565b60c0860152613bcc86856150ee565b9550613be18560c001518660a001518b615205565b15608086015250613c5d565b83608001518015613c095750670f43fc2c04ee00008460400151105b15613c5757613c2a89600001518a6020015186606001518760000151615226565b60808101518551919450613c44919063ffffffff612d5516565b8452613c5085846150ee565b9450613c5d565b50613c7b565b6001600160a01b031660608401526020830180516001019052613a1d565b505050949350505050565b613c8e615892565b613c96615982565b613c9e615892565b600b54858352600060208401526001600160a01b03165b8483602001511015613dac57806001600160a01b0316634d6228316040518163ffffffff1660e01b815260040160206040518083038186803b158015613cfa57600080fd5b505afa158015613d0e573d6000803e3d6000fd5b505050506040513d6020811015613d2457600080fd5b50516001600160a01b031660608401819052613d409088612a0f565b60408401819052670f43fc2c04ee00001115613d9757613d6a898985606001518660000151615226565b60808101518451919350613d84919063ffffffff612d5516565b8352613d9084836150ee565b9350613d9c565b613dac565b6020830180516001019052613cb5565b50505095945050505050565b6000610f1d613dd2836103e8670de0b6b3a76400006136d4565b66b1a2bc2ec50000615395565b600082820183811015612009576040805162461bcd60e51b815260206004820152601b60248201527f536166654d6174683a206164646974696f6e206f766572666c6f770000000000604482015290519081900360640190fd5b6001600160a01b038116613e94576040805162461bcd60e51b815260206004820152601e60248201527f4163636f756e742063616e6e6f74206265207a65726f20616464726573730000604482015290519081900360640190fd5b803b8061140a576040805162461bcd60e51b815260206004820181905260248201527f4163636f756e7420636f64652073697a652063616e6e6f74206265207a65726f604482015290519081900360640190fd5b6003546040516000916001600160a01b0316907f8be0079c531659141344cd1fd0a4f28419497f9722a3daafe3b4186f6b6457e0908390a3600380546001600160a01b0319169055565b60008215613f59576000613f5084611525878663ffffffff61379516565b91506120099050565b50600019612009565b601280546001600160a01b0383166000908152601460209081526040918290209283556013546001909301839055925481519081529283019190915280517fc437f324d85e369394148dd9d62f98f534b382e01ed3dd2eb98138fb6d3ab49a9281900390910190a150565b60c8900490565b6000806000613fe284611475565b90506000613fef85612b6a565b6001600160a01b0386166000908152600e60205260408120600101549192509061401f908463ffffffff613ddf16565b6001600160a01b0387166000908152600e60205260408120549192509061404c908463ffffffff613ddf16565b919550909350505050915091565b600081156140865761407f826115258568056bc75e2d6310000063ffffffff61379516565b9050610f1d565b50600019610f1d565b60008061409a612021565b905060006140a6611aea565b90506140b3828286613f32565b949350505050565b6611c37937e0800081108015906140da5750670de0b6b3a76400008111155b610eb95760405162461bcd60e51b8152600401808060200182810382526030815260200180615c036030913960400191505060405180910390fd5b60095460408051631e425be160e11b815290516000926001600160a01b031691633c84b7c2916004808301926020929190829003018186803b15801561415a57600080fd5b505afa15801561416e573d6000803e3d6000fd5b505050506040513d602081101561418457600080fd5b5051905061419b816212750063ffffffff613ddf16565b421015610eb95760405162461bcd60e51b8152600401808060200182810382526040815260200180615aad6040913960400191505060405180910390fd5b670f43fc2c04ee00006141eb8261408f565b1015610eb95760405162461bcd60e51b815260040180806020018281038252602a815260200180615c33602a913960400191505060405180910390fd5b60008111610eb95760405162461bcd60e51b815260040180806020018281038252602e815260200180615b9f602e913960400191505060405180910390fd5b80836001600160a01b03166370a08231846040518263ffffffff1660e01b815260040180826001600160a01b03166001600160a01b0316815260200191505060206040518083038186803b1580156142be57600080fd5b505afa1580156142d2573d6000803e3d6000fd5b505050506040513d60208110156142e857600080fd5b50511015612d345760405162461bcd60e51b815260040180806020018281038252604e815260200180615a35604e913960600191505060405180910390fd5b60006001600160a01b03831615806143be5750836001600160a01b0316635dbe47e8846040518263ffffffff1660e01b815260040180826001600160a01b03166001600160a01b0316815260200191505060206040518083038186803b15801561439057600080fd5b505afa1580156143a4573d6000803e3d6000fd5b505050506040513d60208110156143ba57600080fd5b5051155b806143d95750670f43fc2c04ee00006143d78484612a0f565b105b156143e657506000612009565b6000846001600160a01b031663765e0159856040518263ffffffff1660e01b815260040180826001600160a01b03166001600160a01b0316815260200191505060206040518083038186803b15801561443e57600080fd5b505afa158015614452573d6000803e3d6000fd5b505050506040513d602081101561446857600080fd5b505190506001600160a01b03811615806121ab5750670f43fc2c04ee00006144908285612a0f565b1095945050505050565b6144a261595f565b6001600160a01b0387166000908152600e60205260409020546144df9087906144da90680ad78ebc5ac620000063ffffffff612d5516565b615395565b80825261450090869061152590670de0b6b3a764000063ffffffff61379516565b60208083019190915281516001600160a01b0389166000908152600e90925260408220546145339163ffffffff612d5516565b6020808401516001600160a01b038b166000908152600e909252604082206001015492935090916145699163ffffffff612d5516565b9050680ad78ebc5ac62000008214156146025761458589614b96565b614590896004614877565b6145a58a8a680ad78ebc5ac6200000846154bb565b886001600160a01b0316600080516020615b0e83398151915260008060006003604051808581526020018481526020018381526020018260038111156145e757fe5b60ff16815260200194505050505060405180910390a261473f565b600061460e828461405a565b9050848114158061462f5750686194049f30f720000061462d84613830565b105b156146435750506001604083015250614742565b60808b01516040805163015f109360e51b81526001600160a01b038d81166004830152602482018590528a81166044830152898116606483015291519190921691632be2126091608480830192600092919082900301818387803b1580156146aa57600080fd5b505af11580156146be573d6000803e3d6000fd5b5050506001600160a01b038b166000908152600e60205260409020848155600101839055506146ec8a612e31565b506001600160a01b038a166000818152600e602090815260409182902060020154825187815291820186905281830152600360608201529051600080516020615b0e8339815191529181900360800190a2505b50505b979650505050505050565b60008061475861384b565b9050600061477084611525888863ffffffff61379516565b9050600061479561478883600263ffffffff6137ee16565b849063ffffffff613ddf16565b90506147a981670de0b6b3a7640000615395565b9050600081116147b557fe5b600c8190556040805182815290517fc454ee9b76c52f782a256af821b857ca6e125d1e3333bcede402fec2bed9600c9181900360200190a161153161388f565b6000610f1d612a7761139b565b60006148208361152586670de0b6b3a764000063ffffffff61379516565b90508181111561346f576040805162461bcd60e51b815260206004820152601d60248201527f4665652065786365656465642070726f7669646564206d6178696d756d000000604482015290519081900360640190fd5b600081600481111561488557fe5b1415801561489f5750600181600481111561489c57fe5b14155b6148a557fe5b6015546148b18161566f565b6001600160a01b0383166000908152600e60205260409020600301805483919060ff191660018360048111156148e357fe5b02179055506001600160a01b0383166000908152600e6020908152604080832060018082018590559084905560149092528220828155015561492583826149ef565b600b5460408051631484968760e11b81526001600160a01b038681166004830152915191909216916329092d0e91602480830192600092919082900301818387803b15801561497357600080fd5b505af1158015614987573d6000803e3d6000fd5b50505050505050565b6000806149af670de0b6b3a7640000611525868663ffffffff61379516565b90508281106120095760405162461bcd60e51b8152600401808060200182810382526036815260200180615bcd6036913960400191505060405180910390fd5b6001600160a01b0382166000908152600e602052604081206003015460ff1690816004811115614a1b57fe5b14158015614a3557506001816004811115614a3257fe5b14155b614a3b57fe5b6001600160a01b0383166000908152600e602052604081206003015461010090046001600160801b0316908390614a73826001612d55565b905080836001600160801b03161115614a8857fe5b600060158281548110614a9757fe5b600091825260209091200154601580546001600160a01b03909216925082916001600160801b038716908110614ac957fe5b600091825260208083209190910180546001600160a01b0319166001600160a01b03948516179055918316808252600e83526040918290206003018054610100600160881b0319166101006001600160801b038a169081029190911790915582519182529281019290925280517f02b04ae5f7be9ca7c103293a2aa15f3c339d15d6eda53b721fef7b0e609c831a9281900390910190a16015805480614b6b57fe5b600082815260209020810160001990810180546001600160a01b031916905501905550505050505050565b6001600160a01b0381166000908152600e6020526040902060020154600f54614bc5908263ffffffff612d5516565b600f55506001600160a01b03166000908152600e6020526040812060020155565b826001600160a01b0316632a7ba1f7836040518263ffffffff1660e01b815260040180828152602001915050600060405180830381600087803b158015614c2c57600080fd5b505af1158015614c40573d6000803e3d6000fd5b50505050836001600160a01b0316632b7c7b11836040518263ffffffff1660e01b815260040180828152602001915050600060405180830381600087803b158015614c8a57600080fd5b505af1158015614c9e573d6000803e3d6000fd5b50505050826001600160a01b0316638f7be730826040518263ffffffff1660e01b815260040180828152602001915050600060405180830381600087803b1580156136a057600080fd5b60008184841115614d775760405162461bcd60e51b81526004018080602001828103825283818151815260200191508051906020019080838360005b83811015614d3c578181015183820152602001614d24565b50505050905090810190601f168015614d695780820380516001836020036101000a031916815260200191505b509250505060405180910390fd5b505050900390565b60008060115460001415614d94575081610f1d565b600060105411614da057fe5b6120096011546115256010548661379590919063ffffffff16565b614dc3615892565b614dcb6159ca565b601554600110614ddb5750614742565b614de4876121ce565b60408501526020848101919091528401819052908352614e0390613fcd565b60408301819052680ad78ebc5ac620000060608401526020830151614e2d9163ffffffff612d5516565b8152670de0b6b3a76400008611614f3557614e52898983602001518460400151614be6565b614e5b87614b96565b60006080830181905260a0830152815160c0830152805160e0830152614e82876003614877565b866001600160a01b03166000805160206159ec83398151915283600001518460200151600260405180848152602001838152602001826003811115614ec357fe5b60ff168152602001935050505060405180910390a2866001600160a01b0316600080516020615b0e8339815191526000806000600260405180858152602001848152602001838152602001826003811115614f1a57fe5b60ff16815260200194505050505060405180910390a26150e2565b670de0b6b3a764000086118015614f535750670f43fc2c04ee000086105b15614fa357614f6c898983602001518460400151614be6565b614f7587614b96565b81518151614f84919087615728565b60e086015260c085015260a08401526080830152614e82876003614877565b670f43fc2c04ee00008610158015614fba57508386105b8015614fc7575081518510155b156150d157614fe0898983602001518460400151614be6565b84614fe757fe5b614ff087614b96565b6150038260000151836020015185615794565b9150615010876003614877565b610100820151156150905760075461010083015160408051633f10abab60e01b81526001600160a01b038b81166004830152602482019390935290519190921691633f10abab91604480830192600092919082900301818387803b15801561507757600080fd5b505af115801561508b573d6000803e3d6000fd5b505050505b866001600160a01b03166000805160206159ec83398151915283600001518460a00151600260405180848152602001838152602001826003811115614ec357fe5b6150d9615892565b91506147429050565b50979650505050505050565b6150f6615892565b6040808301519084015161510f9163ffffffff613ddf16565b60408201526060808301519084015161512d9163ffffffff613ddf16565b6060820152815160208401516151489163ffffffff613ddf16565b60208083019190915282015183516151659163ffffffff613ddf16565b8152608080830151908401516151809163ffffffff613ddf16565b608082015260a0808301519084015161519e9163ffffffff613ddf16565b60a082015260c080830151908401516151bc9163ffffffff613ddf16565b60c082015260e080830151908401516151da9163ffffffff613ddf16565b60e082015261010080830151908401516151f99163ffffffff613ddf16565b61010082015292915050565b600080615213858585613f32565b6714d1120d7b1600001195945050505050565b61522e615892565b6152366159ca565b61523f846121ce565b60408501908152602085810192835286019290925291845290519051615269918891889190614be6565b61527284614b96565b61527f8260200151613fcd565b60408301819052680ad78ebc5ac6200000606084015260208301516000916152ad919063ffffffff612d5516565b90506152be83600001518286615728565b60e087015260c086015260a085015260808401526152dd856003614877565b846001600160a01b03166000805160206159ec8339815191528460000151856020015160016040518084815260200183815260200182600381111561531e57fe5b60ff168152602001935050505060405180910390a2846001600160a01b0316600080516020615b0e833981519152600080600060016040518085815260200184815260200183815260200182600381111561537557fe5b60ff16815260200194505050505060405180910390a25050949350505050565b60008183106153a45781612009565b5090919050565b600081836153fa5760405162461bcd60e51b8152602060048201818152835160248401528351909283926044909101919085019080838360008315614d3c578181015183820152602001614d24565b50600083858161540657fe5b0495945050505050565b6000631f54050082111561542657631f54050091505b8161543a5750670de0b6b3a7640000610f1d565b670de0b6b3a764000083835b60018111156154b1576002810661547b57615461828361582e565b915061547481600263ffffffff6137ee16565b90506154ac565b615485828461582e565b9250615491828361582e565b91506154a9600261152583600163ffffffff612d5516565b90505b615446565b611531828461582e565b6040808501516006548251632770a7eb60e21b81526001600160a01b039182166004820152602481018690529251911691639dc29fac91604480830192600092919082900301818387803b15801561551257600080fd5b505af1158015615526573d6000803e3d6000fd5b5050505083600001516001600160a01b0316632a7ba1f7836040518263ffffffff1660e01b815260040180828152602001915050600060405180830381600087803b15801561557457600080fd5b505af1158015615588573d6000803e3d6000fd5b505050508360a001516001600160a01b0316633f10abab84836040518363ffffffff1660e01b815260040180836001600160a01b03166001600160a01b0316815260200182815260200192505050600060405180830381600087803b1580156155f057600080fd5b505af1158015615604573d6000803e3d6000fd5b5050505083600001516001600160a01b0316628063a58560a00151836040518363ffffffff1660e01b815260040180836001600160a01b03166001600160a01b0316815260200182815260200192505050600060405180830381600087803b1580156136a057600080fd5b6001811180156156ed5750600b546040805163de8fa43160e01b815290516001926001600160a01b03169163de8fa431916004808301926020929190829003018186803b1580156156bf57600080fd5b505afa1580156156d3573d6000803e3d6000fd5b505050506040513d60208110156156e957600080fd5b5051115b610eb95760405162461bcd60e51b815260040180806020018281038252602a815260200180615a83602a913960400191505060405180910390fd5b6000808080841561577e5761573d8786615395565b935061575387611525888763ffffffff61379516565b9250615765878563ffffffff612d5516565b9150615777868463ffffffff612d5516565b905061578b565b5060009250829150859050845b93509350935093565b61579c615892565b8381526020810183905260006157c48361152587670f43fc2c04ee000063ffffffff61379516565b90506157cf81613fcd565b60408301819052680ad78ebc5ac62000006060840152608083018690526157fd90829063ffffffff612d5516565b60a0830152615812848263ffffffff612d5516565b61010083015250600060c0820181905260e08201529392505050565b600080615841848463ffffffff61379516565b90506140b3670de0b6b3a7640000611525836706f05b59d3b20000613ddf565b6040518060a00160405280600081526020016000815260200160001515815260200160008152602001600081525090565b6040518061012001604052806000815260200160008152602001600081526020016000815260200160008152602001600081526020016000815260200160008152602001600081525090565b6040805160e081018252600080825260208201819052918101829052606081018290526080810182905260a0810182905260c081019190915290565b60405180610100016040528060008152602001600081526020016000815260200160008152602001600081526020016000815260200160008152602001600081525090565b604051806060016040528060008152602001600081526020016000151581525090565b6040518060e0016040528060008152602001600081526020016000815260200160006001600160a01b0316815260200160001515815260200160008152602001600081525090565b6040518060600160405280600081526020016000815260200160008152509056feea67486ed7ebe3eea8ab3390efd4a3c8aae48be5bea27df104a8af786c40843454726f76654d616e616765723a20556e61626c6520746f2072656465656d20616e7920616d6f756e7454726f76654d616e616765723a2052657175657374656420726564656d7074696f6e20616d6f756e74206d757374206265203c3d20757365722773206465627420746f6b656e2062616c616e636554726f76654d616e616765723a204f6e6c79206f6e652074726f766520696e207468652073797374656d54726f76654d616e616765723a20526564656d7074696f6e7320617265206e6f7420616c6c6f77656420647572696e6720626f6f747374726170207068617365536166654d6174683a206d756c7469706c69636174696f6e206f766572666c6f77c3770d654ed33aeea6bf11ac8ef05d02a6a04ed4686dd2f624d853bbec43cc8b54726f76654d616e616765723a2043616c6c6572206973206e6f742074686520426f72726f7765724f7065726174696f6e7320636f6e747261637454726f76654d616e616765723a2043616c6c646174612061646472657373206172726179206d757374206e6f7420626520656d70747954726f76654d616e616765723a20416d6f756e74206d7573742062652067726561746572207468616e207a65726f54726f76654d616e616765723a2046656520776f756c642065617420757020616c6c2072657475726e656420636f6c6c61746572616c4d6178206665652070657263656e74616765206d757374206265206265747765656e20302e352520616e64203130302554726f76654d616e616765723a2043616e6e6f742072656465656d207768656e20544352203c204d435254726f76654d616e616765723a206e6f7468696e6720746f206c697175696461746554726f76654d616e616765723a2054726f766520646f6573206e6f74206578697374206f7220697320636c6f736564a26469706673582212202bb4d3f02cb214aa1653b1c0465d81d1983471211cfc9b54cf9df8bf8818066d64736f6c634300060b0033",
  "linkReferences": {},
  "deployedLinkReferences": {}
}