{
  "_format": "hh-sol-artifact-1",
  "contractName": "TroveManagerTester",
  "sourceName": "contracts/TestContracts/CDPManagerTester.sol",
  "abi": [
    {
      "inputs": [
        {
          "internalType": "uint256",
          "name": "_gasCompensation",
          "type": "uint256"
        },
        {
          "internalType": "uint256",
          "name": "_minNetDebt",
          "type": "uint256"
        }
      ],
      "stateMutability": "nonpayable",
      "type": "constructor"
    },
    {
      "anonymous": false,
      "inputs": [
        {
          "indexed": false,
          "internalType": "address",
          "name": "_activePoolAddress",
          "type": "address"
        }
      ],
      "name": "ActivePoolAddressChanged",
      "type": "event"
    },
    {
      "anonymous": false,
      "inputs": [
        {
          "indexed": false,
          "internalType": "uint256",
          "name": "_baseRate",
          "type": "uint256"
        }
      ],
      "name": "BaseRateUpdated",
      "type": "event"
    },
    {
      "anonymous": false,
      "inputs": [
        {
          "indexed": false,
          "internalType": "address",
          "name": "_newBorrowerOperationsAddress",
          "type": "address"
        }
      ],
      "name": "BorrowerOperationsAddressChanged",
      "type": "event"
    },
    {
      "anonymous": false,
      "inputs": [
        {
          "indexed": false,
          "internalType": "address",
          "name": "_collSurplusPoolAddress",
          "type": "address"
        }
      ],
      "name": "CollSurplusPoolAddressChanged",
      "type": "event"
    },
    {
      "anonymous": false,
      "inputs": [
        {
          "indexed": false,
          "internalType": "address",
          "name": "_newDebtTokenAddress",
          "type": "address"
        }
      ],
      "name": "DebtTokenAddressChanged",
      "type": "event"
    },
    {
      "anonymous": false,
      "inputs": [
        {
          "indexed": false,
          "internalType": "address",
          "name": "_defaultPoolAddress",
          "type": "address"
        }
      ],
      "name": "DefaultPoolAddressChanged",
      "type": "event"
    },
    {
      "anonymous": false,
      "inputs": [
        {
          "indexed": false,
          "internalType": "address",
          "name": "_gasPoolAddress",
          "type": "address"
        }
      ],
      "name": "GasPoolAddressChanged",
      "type": "event"
    },
    {
      "anonymous": false,
      "inputs": [
        {
          "indexed": false,
          "internalType": "uint256",
          "name": "_L_FIL",
          "type": "uint256"
        },
        {
          "indexed": false,
          "internalType": "uint256",
          "name": "_L_Debt",
          "type": "uint256"
        }
      ],
      "name": "LTermsUpdated",
      "type": "event"
    },
    {
      "anonymous": false,
      "inputs": [
        {
          "indexed": false,
          "internalType": "uint256",
          "name": "_lastFeeOpTime",
          "type": "uint256"
        }
      ],
      "name": "LastFeeOpTimeUpdated",
      "type": "event"
    },
    {
      "anonymous": false,
      "inputs": [
        {
          "indexed": false,
          "internalType": "uint256",
          "name": "_liquidatedDebt",
          "type": "uint256"
        },
        {
          "indexed": false,
          "internalType": "uint256",
          "name": "_liquidatedColl",
          "type": "uint256"
        },
        {
          "indexed": false,
          "internalType": "uint256",
          "name": "_collGasCompensation",
          "type": "uint256"
        },
        {
          "indexed": false,
          "internalType": "uint256",
          "name": "_debtGasCompensation",
          "type": "uint256"
        }
      ],
      "name": "Liquidation",
      "type": "event"
    },
    {
      "anonymous": false,
      "inputs": [
        {
          "indexed": true,
          "internalType": "address",
          "name": "previousOwner",
          "type": "address"
        },
        {
          "indexed": true,
          "internalType": "address",
          "name": "newOwner",
          "type": "address"
        }
      ],
      "name": "OwnershipTransferred",
      "type": "event"
    },
    {
      "anonymous": false,
      "inputs": [
        {
          "indexed": false,
          "internalType": "address",
          "name": "_newPriceFeedAddress",
          "type": "address"
        }
      ],
      "name": "PriceFeedAddressChanged",
      "type": "event"
    },
    {
      "anonymous": false,
      "inputs": [
        {
          "indexed": false,
          "internalType": "address",
          "name": "_protocolTokenAddress",
          "type": "address"
        }
      ],
      "name": "ProtocolTokenAddressChanged",
      "type": "event"
    },
    {
      "anonymous": false,
      "inputs": [
        {
          "indexed": false,
          "internalType": "address",
          "name": "_protocolTokenStakingAddress",
          "type": "address"
        }
      ],
      "name": "ProtocolTokenStakingAddressChanged",
      "type": "event"
    },
    {
      "anonymous": false,
      "inputs": [
        {
          "indexed": false,
          "internalType": "uint256",
          "name": "_attemptedDebtTokenAmount",
          "type": "uint256"
        },
        {
          "indexed": false,
          "internalType": "uint256",
          "name": "_actualDebtTokenAmount",
          "type": "uint256"
        },
        {
          "indexed": false,
          "internalType": "uint256",
          "name": "_FILSent",
          "type": "uint256"
        },
        {
          "indexed": false,
          "internalType": "uint256",
          "name": "_FILFee",
          "type": "uint256"
        }
      ],
      "name": "Redemption",
      "type": "event"
    },
    {
      "anonymous": false,
      "inputs": [
        {
          "indexed": false,
          "internalType": "address",
          "name": "_sortedTrovesAddress",
          "type": "address"
        }
      ],
      "name": "SortedTrovesAddressChanged",
      "type": "event"
    },
    {
      "anonymous": false,
      "inputs": [
        {
          "indexed": false,
          "internalType": "address",
          "name": "_stabilityPoolAddress",
          "type": "address"
        }
      ],
      "name": "StabilityPoolAddressChanged",
      "type": "event"
    },
    {
      "anonymous": false,
      "inputs": [
        {
          "indexed": false,
          "internalType": "uint256",
          "name": "_totalStakesSnapshot",
          "type": "uint256"
        },
        {
          "indexed": false,
          "internalType": "uint256",
          "name": "_totalCollateralSnapshot",
          "type": "uint256"
        }
      ],
      "name": "SystemSnapshotsUpdated",
      "type": "event"
    },
    {
      "anonymous": false,
      "inputs": [
        {
          "indexed": false,
          "internalType": "uint256",
          "name": "_newTotalStakes",
          "type": "uint256"
        }
      ],
      "name": "TotalStakesUpdated",
      "type": "event"
    },
    {
      "anonymous": false,
      "inputs": [
        {
          "indexed": false,
          "internalType": "address",
          "name": "_borrower",
          "type": "address"
        },
        {
          "indexed": false,
          "internalType": "uint256",
          "name": "_newIndex",
          "type": "uint256"
        }
      ],
      "name": "TroveIndexUpdated",
      "type": "event"
    },
    {
      "anonymous": false,
      "inputs": [
        {
          "indexed": true,
          "internalType": "address",
          "name": "_borrower",
          "type": "address"
        },
        {
          "indexed": false,
          "internalType": "uint256",
          "name": "_debt",
          "type": "uint256"
        },
        {
          "indexed": false,
          "internalType": "uint256",
          "name": "_coll",
          "type": "uint256"
        },
        {
          "indexed": false,
          "internalType": "enum ITroveManager.TroveManagerOperation",
          "name": "_operation",
          "type": "uint8"
        }
      ],
      "name": "TroveLiquidated",
      "type": "event"
    },
    {
      "anonymous": false,
      "inputs": [
        {
          "indexed": false,
          "internalType": "uint256",
          "name": "_L_FIL",
          "type": "uint256"
        },
        {
          "indexed": false,
          "internalType": "uint256",
          "name": "_L_Debt",
          "type": "uint256"
        }
      ],
      "name": "TroveSnapshotsUpdated",
      "type": "event"
    },
    {
      "anonymous": false,
      "inputs": [
        {
          "indexed": true,
          "internalType": "address",
          "name": "_borrower",
          "type": "address"
        },
        {
          "indexed": false,
          "internalType": "uint256",
          "name": "_debt",
          "type": "uint256"
        },
        {
          "indexed": false,
          "internalType": "uint256",
          "name": "_coll",
          "type": "uint256"
        },
        {
          "indexed": false,
          "internalType": "uint256",
          "name": "stake",
          "type": "uint256"
        },
        {
          "indexed": false,
          "internalType": "enum ITroveManager.TroveManagerOperation",
          "name": "_operation",
          "type": "uint8"
        }
      ],
      "name": "TroveUpdated",
      "type": "event"
    },
    {
      "inputs": [],
      "name": "BETA",
      "outputs": [
        {
          "internalType": "uint256",
          "name": "",
          "type": "uint256"
        }
      ],
      "stateMutability": "view",
      "type": "function"
    },
    {
      "inputs": [],
      "name": "BOOTSTRAP_PERIOD",
      "outputs": [
        {
          "internalType": "uint256",
          "name": "",
          "type": "uint256"
        }
      ],
      "stateMutability": "view",
      "type": "function"
    },
    {
      "inputs": [],
      "name": "BORROWING_FEE_FLOOR",
      "outputs": [
        {
          "internalType": "uint256",
          "name": "",
          "type": "uint256"
        }
      ],
      "stateMutability": "view",
      "type": "function"
    },
    {
      "inputs": [],
      "name": "CCR",
      "outputs": [
        {
          "internalType": "uint256",
          "name": "",
          "type": "uint256"
        }
      ],
      "stateMutability": "view",
      "type": "function"
    },
    {
      "inputs": [],
      "name": "DECIMAL_PRECISION",
      "outputs": [
        {
          "internalType": "uint256",
          "name": "",
          "type": "uint256"
        }
      ],
      "stateMutability": "view",
      "type": "function"
    },
    {
      "inputs": [],
      "name": "GAS_COMPENSATION",
      "outputs": [
        {
          "internalType": "uint256",
          "name": "",
          "type": "uint256"
        }
      ],
      "stateMutability": "view",
      "type": "function"
    },
    {
      "inputs": [],
      "name": "L_Debt",
      "outputs": [
        {
          "internalType": "uint256",
          "name": "",
          "type": "uint256"
        }
      ],
      "stateMutability": "view",
      "type": "function"
    },
    {
      "inputs": [],
      "name": "L_FIL",
      "outputs": [
        {
          "internalType": "uint256",
          "name": "",
          "type": "uint256"
        }
      ],
      "stateMutability": "view",
      "type": "function"
    },
    {
      "inputs": [],
      "name": "MAX_BORROWING_FEE",
      "outputs": [
        {
          "internalType": "uint256",
          "name": "",
          "type": "uint256"
        }
      ],
      "stateMutability": "view",
      "type": "function"
    },
    {
      "inputs": [],
      "name": "MCR",
      "outputs": [
        {
          "internalType": "uint256",
          "name": "",
          "type": "uint256"
        }
      ],
      "stateMutability": "view",
      "type": "function"
    },
    {
      "inputs": [],
      "name": "MINUTE_DECAY_FACTOR",
      "outputs": [
        {
          "internalType": "uint256",
          "name": "",
          "type": "uint256"
        }
      ],
      "stateMutability": "view",
      "type": "function"
    },
    {
      "inputs": [],
      "name": "MIN_NET_DEBT",
      "outputs": [
        {
          "internalType": "uint256",
          "name": "",
          "type": "uint256"
        }
      ],
      "stateMutability": "view",
      "type": "function"
    },
    {
      "inputs": [],
      "name": "NAME",
      "outputs": [
        {
          "internalType": "string",
          "name": "",
          "type": "string"
        }
      ],
      "stateMutability": "view",
      "type": "function"
    },
    {
      "inputs": [],
      "name": "PERCENT_DIVISOR",
      "outputs": [
        {
          "internalType": "uint256",
          "name": "",
          "type": "uint256"
        }
      ],
      "stateMutability": "view",
      "type": "function"
    },
    {
      "inputs": [],
      "name": "REDEMPTION_FEE_FLOOR",
      "outputs": [
        {
          "internalType": "uint256",
          "name": "",
          "type": "uint256"
        }
      ],
      "stateMutability": "view",
      "type": "function"
    },
    {
      "inputs": [],
      "name": "SECONDS_IN_ONE_MINUTE",
      "outputs": [
        {
          "internalType": "uint256",
          "name": "",
          "type": "uint256"
        }
      ],
      "stateMutability": "view",
      "type": "function"
    },
    {
      "inputs": [
        {
          "internalType": "uint256",
          "name": "",
          "type": "uint256"
        }
      ],
      "name": "TroveOwners",
      "outputs": [
        {
          "internalType": "address",
          "name": "",
          "type": "address"
        }
      ],
      "stateMutability": "view",
      "type": "function"
    },
    {
      "inputs": [
        {
          "internalType": "address",
          "name": "",
          "type": "address"
        }
      ],
      "name": "Troves",
      "outputs": [
        {
          "internalType": "uint256",
          "name": "debt",
          "type": "uint256"
        },
        {
          "internalType": "uint256",
          "name": "coll",
          "type": "uint256"
        },
        {
          "internalType": "uint256",
          "name": "stake",
          "type": "uint256"
        },
        {
          "internalType": "enum ITroveManager.Status",
          "name": "status",
          "type": "uint8"
        },
        {
          "internalType": "uint128",
          "name": "arrayIndex",
          "type": "uint128"
        }
      ],
      "stateMutability": "view",
      "type": "function"
    },
    {
      "inputs": [],
      "name": "_100pct",
      "outputs": [
        {
          "internalType": "uint256",
          "name": "",
          "type": "uint256"
        }
      ],
      "stateMutability": "view",
      "type": "function"
    },
    {
      "inputs": [],
      "name": "activePool",
      "outputs": [
        {
          "internalType": "contract IActivePool",
          "name": "",
          "type": "address"
        }
      ],
      "stateMutability": "view",
      "type": "function"
    },
    {
      "inputs": [
        {
          "internalType": "address",
          "name": "_borrower",
          "type": "address"
        }
      ],
      "name": "addTroveOwnerToArray",
      "outputs": [
        {
          "internalType": "uint256",
          "name": "index",
          "type": "uint256"
        }
      ],
      "stateMutability": "nonpayable",
      "type": "function"
    },
    {
      "inputs": [
        {
          "internalType": "address",
          "name": "_borrower",
          "type": "address"
        }
      ],
      "name": "applyPendingRewards",
      "outputs": [],
      "stateMutability": "nonpayable",
      "type": "function"
    },
    {
      "inputs": [],
      "name": "baseRate",
      "outputs": [
        {
          "internalType": "uint256",
          "name": "",
          "type": "uint256"
        }
      ],
      "stateMutability": "view",
      "type": "function"
    },
    {
      "inputs": [
        {
          "internalType": "address[]",
          "name": "_troveArray",
          "type": "address[]"
        }
      ],
      "name": "batchLiquidateTroves",
      "outputs": [],
      "stateMutability": "nonpayable",
      "type": "function"
    },
    {
      "inputs": [],
      "name": "borrowerOperationsAddress",
      "outputs": [
        {
          "internalType": "address",
          "name": "",
          "type": "address"
        }
      ],
      "stateMutability": "view",
      "type": "function"
    },
    {
      "inputs": [
        {
          "internalType": "uint256",
          "name": "_FILDrawn",
          "type": "uint256"
        }
      ],
      "name": "callGetRedemptionFee",
      "outputs": [
        {
          "internalType": "uint256",
          "name": "",
          "type": "uint256"
        }
      ],
      "stateMutability": "view",
      "type": "function"
    },
    {
      "inputs": [
        {
          "internalType": "address",
          "name": "_troveOwner",
          "type": "address"
        }
      ],
      "name": "callInternalRemoveTroveOwner",
      "outputs": [],
      "stateMutability": "nonpayable",
      "type": "function"
    },
    {
      "inputs": [
        {
          "internalType": "uint256",
          "name": "_price",
          "type": "uint256"
        }
      ],
      "name": "checkRecoveryMode",
      "outputs": [
        {
          "internalType": "bool",
          "name": "",
          "type": "bool"
        }
      ],
      "stateMutability": "view",
      "type": "function"
    },
    {
      "inputs": [
        {
          "internalType": "address",
          "name": "_borrower",
          "type": "address"
        }
      ],
      "name": "closeTrove",
      "outputs": [],
      "stateMutability": "nonpayable",
      "type": "function"
    },
    {
      "inputs": [
        {
          "internalType": "uint256",
          "name": "_coll",
          "type": "uint256"
        },
        {
          "internalType": "uint256",
          "name": "_debt",
          "type": "uint256"
        },
        {
          "internalType": "uint256",
          "name": "_price",
          "type": "uint256"
        }
      ],
      "name": "computeICR",
      "outputs": [
        {
          "internalType": "uint256",
          "name": "",
          "type": "uint256"
        }
      ],
      "stateMutability": "pure",
      "type": "function"
    },
    {
      "inputs": [],
      "name": "debtToken",
      "outputs": [
        {
          "internalType": "contract IDebtToken",
          "name": "",
          "type": "address"
        }
      ],
      "stateMutability": "view",
      "type": "function"
    },
    {
      "inputs": [],
      "name": "decayBaseRateFromBorrowing",
      "outputs": [],
      "stateMutability": "nonpayable",
      "type": "function"
    },
    {
      "inputs": [
        {
          "internalType": "address",
          "name": "_borrower",
          "type": "address"
        },
        {
          "internalType": "uint256",
          "name": "_collDecrease",
          "type": "uint256"
        }
      ],
      "name": "decreaseTroveColl",
      "outputs": [
        {
          "internalType": "uint256",
          "name": "",
          "type": "uint256"
        }
      ],
      "stateMutability": "nonpayable",
      "type": "function"
    },
    {
      "inputs": [
        {
          "internalType": "address",
          "name": "_borrower",
          "type": "address"
        },
        {
          "internalType": "uint256",
          "name": "_debtDecrease",
          "type": "uint256"
        }
      ],
      "name": "decreaseTroveDebt",
      "outputs": [
        {
          "internalType": "uint256",
          "name": "",
          "type": "uint256"
        }
      ],
      "stateMutability": "nonpayable",
      "type": "function"
    },
    {
      "inputs": [],
      "name": "defaultPool",
      "outputs": [
        {
          "internalType": "contract IDefaultPool",
          "name": "",
          "type": "address"
        }
      ],
      "stateMutability": "view",
      "type": "function"
    },
    {
      "inputs": [
        {
          "internalType": "uint256",
          "name": "_debtVal",
          "type": "uint256"
        }
      ],
      "name": "getActualDebtFromComposite",
      "outputs": [
        {
          "internalType": "uint256",
          "name": "",
          "type": "uint256"
        }
      ],
      "stateMutability": "view",
      "type": "function"
    },
    {
      "inputs": [
        {
          "internalType": "uint256",
          "name": "_debt",
          "type": "uint256"
        }
      ],
      "name": "getBorrowingFee",
      "outputs": [
        {
          "internalType": "uint256",
          "name": "",
          "type": "uint256"
        }
      ],
      "stateMutability": "view",
      "type": "function"
    },
    {
      "inputs": [
        {
          "internalType": "uint256",
          "name": "_debt",
          "type": "uint256"
        }
      ],
      "name": "getBorrowingFeeWithDecay",
      "outputs": [
        {
          "internalType": "uint256",
          "name": "",
          "type": "uint256"
        }
      ],
      "stateMutability": "view",
      "type": "function"
    },
    {
      "inputs": [],
      "name": "getBorrowingRate",
      "outputs": [
        {
          "internalType": "uint256",
          "name": "",
          "type": "uint256"
        }
      ],
      "stateMutability": "view",
      "type": "function"
    },
    {
      "inputs": [],
      "name": "getBorrowingRateWithDecay",
      "outputs": [
        {
          "internalType": "uint256",
          "name": "",
          "type": "uint256"
        }
      ],
      "stateMutability": "view",
      "type": "function"
    },
    {
      "inputs": [
        {
          "internalType": "uint256",
          "name": "_coll",
          "type": "uint256"
        }
      ],
      "name": "getCollGasCompensation",
      "outputs": [
        {
          "internalType": "uint256",
          "name": "",
          "type": "uint256"
        }
      ],
      "stateMutability": "pure",
      "type": "function"
    },
    {
      "inputs": [
        {
          "internalType": "uint256",
          "name": "_debt",
          "type": "uint256"
        }
      ],
      "name": "getCompositeDebt",
      "outputs": [
        {
          "internalType": "uint256",
          "name": "",
          "type": "uint256"
        }
      ],
      "stateMutability": "view",
      "type": "function"
    },
    {
      "inputs": [
        {
          "internalType": "address",
          "name": "_borrower",
          "type": "address"
        },
        {
          "internalType": "uint256",
          "name": "_price",
          "type": "uint256"
        }
      ],
      "name": "getCurrentICR",
      "outputs": [
        {
          "internalType": "uint256",
          "name": "",
          "type": "uint256"
        }
      ],
      "stateMutability": "view",
      "type": "function"
    },
    {
      "inputs": [
        {
          "internalType": "address",
          "name": "_borrower",
          "type": "address"
        }
      ],
      "name": "getEntireDebtAndColl",
      "outputs": [
        {
          "internalType": "uint256",
          "name": "debt",
          "type": "uint256"
        },
        {
          "internalType": "uint256",
          "name": "coll",
          "type": "uint256"
        },
        {
          "internalType": "uint256",
          "name": "pendingDebtReward",
          "type": "uint256"
        },
        {
          "internalType": "uint256",
          "name": "pendingFILReward",
          "type": "uint256"
        }
      ],
      "stateMutability": "view",
      "type": "function"
    },
    {
      "inputs": [],
      "name": "getEntireSystemColl",
      "outputs": [
        {
          "internalType": "uint256",
          "name": "entireSystemColl",
          "type": "uint256"
        }
      ],
      "stateMutability": "view",
      "type": "function"
    },
    {
      "inputs": [],
      "name": "getEntireSystemDebt",
      "outputs": [
        {
          "internalType": "uint256",
          "name": "entireSystemDebt",
          "type": "uint256"
        }
      ],
      "stateMutability": "view",
      "type": "function"
    },
    {
      "inputs": [],
      "name": "getGasCompensation",
      "outputs": [
        {
          "internalType": "uint256",
          "name": "",
          "type": "uint256"
        }
      ],
      "stateMutability": "view",
      "type": "function"
    },
    {
      "inputs": [
        {
          "internalType": "address",
          "name": "_borrower",
          "type": "address"
        }
      ],
      "name": "getNominalICR",
      "outputs": [
        {
          "internalType": "uint256",
          "name": "",
          "type": "uint256"
        }
      ],
      "stateMutability": "view",
      "type": "function"
    },
    {
      "inputs": [
        {
          "internalType": "address",
          "name": "_borrower",
          "type": "address"
        }
      ],
      "name": "getPendingDebtReward",
      "outputs": [
        {
          "internalType": "uint256",
          "name": "",
          "type": "uint256"
        }
      ],
      "stateMutability": "view",
      "type": "function"
    },
    {
      "inputs": [
        {
          "internalType": "address",
          "name": "_borrower",
          "type": "address"
        }
      ],
      "name": "getPendingFILReward",
      "outputs": [
        {
          "internalType": "uint256",
          "name": "",
          "type": "uint256"
        }
      ],
      "stateMutability": "view",
      "type": "function"
    },
    {
      "inputs": [
        {
          "internalType": "uint256",
          "name": "_FILDrawn",
          "type": "uint256"
        }
      ],
      "name": "getRedemptionFeeWithDecay",
      "outputs": [
        {
          "internalType": "uint256",
          "name": "",
          "type": "uint256"
        }
      ],
      "stateMutability": "view",
      "type": "function"
    },
    {
      "inputs": [],
      "name": "getRedemptionRate",
      "outputs": [
        {
          "internalType": "uint256",
          "name": "",
          "type": "uint256"
        }
      ],
      "stateMutability": "view",
      "type": "function"
    },
    {
      "inputs": [],
      "name": "getRedemptionRateWithDecay",
      "outputs": [
        {
          "internalType": "uint256",
          "name": "",
          "type": "uint256"
        }
      ],
      "stateMutability": "view",
      "type": "function"
    },
    {
      "inputs": [
        {
          "internalType": "uint256",
          "name": "_price",
          "type": "uint256"
        }
      ],
      "name": "getTCR",
      "outputs": [
        {
          "internalType": "uint256",
          "name": "",
          "type": "uint256"
        }
      ],
      "stateMutability": "view",
      "type": "function"
    },
    {
      "inputs": [
        {
          "internalType": "address",
          "name": "_borrower",
          "type": "address"
        }
      ],
      "name": "getTroveColl",
      "outputs": [
        {
          "internalType": "uint256",
          "name": "",
          "type": "uint256"
        }
      ],
      "stateMutability": "view",
      "type": "function"
    },
    {
      "inputs": [
        {
          "internalType": "address",
          "name": "_borrower",
          "type": "address"
        }
      ],
      "name": "getTroveDebt",
      "outputs": [
        {
          "internalType": "uint256",
          "name": "",
          "type": "uint256"
        }
      ],
      "stateMutability": "view",
      "type": "function"
    },
    {
      "inputs": [
        {
          "internalType": "uint256",
          "name": "_index",
          "type": "uint256"
        }
      ],
      "name": "getTroveFromTroveOwnersArray",
      "outputs": [
        {
          "internalType": "address",
          "name": "",
          "type": "address"
        }
      ],
      "stateMutability": "view",
      "type": "function"
    },
    {
      "inputs": [],
      "name": "getTroveOwnersCount",
      "outputs": [
        {
          "internalType": "uint256",
          "name": "",
          "type": "uint256"
        }
      ],
      "stateMutability": "view",
      "type": "function"
    },
    {
      "inputs": [
        {
          "internalType": "address",
          "name": "_borrower",
          "type": "address"
        }
      ],
      "name": "getTroveStake",
      "outputs": [
        {
          "internalType": "uint256",
          "name": "",
          "type": "uint256"
        }
      ],
      "stateMutability": "view",
      "type": "function"
    },
    {
      "inputs": [
        {
          "internalType": "address",
          "name": "_borrower",
          "type": "address"
        }
      ],
      "name": "getTroveStatus",
      "outputs": [
        {
          "internalType": "uint256",
          "name": "",
          "type": "uint256"
        }
      ],
      "stateMutability": "view",
      "type": "function"
    },
    {
      "inputs": [
        {
          "internalType": "address",
          "name": "_borrower",
          "type": "address"
        }
      ],
      "name": "hasPendingRewards",
      "outputs": [
        {
          "internalType": "bool",
          "name": "",
          "type": "bool"
        }
      ],
      "stateMutability": "view",
      "type": "function"
    },
    {
      "inputs": [
        {
          "internalType": "address",
          "name": "_borrower",
          "type": "address"
        },
        {
          "internalType": "uint256",
          "name": "_collIncrease",
          "type": "uint256"
        }
      ],
      "name": "increaseTroveColl",
      "outputs": [
        {
          "internalType": "uint256",
          "name": "",
          "type": "uint256"
        }
      ],
      "stateMutability": "nonpayable",
      "type": "function"
    },
    {
      "inputs": [
        {
          "internalType": "address",
          "name": "_borrower",
          "type": "address"
        },
        {
          "internalType": "uint256",
          "name": "_debtIncrease",
          "type": "uint256"
        }
      ],
      "name": "increaseTroveDebt",
      "outputs": [
        {
          "internalType": "uint256",
          "name": "",
          "type": "uint256"
        }
      ],
      "stateMutability": "nonpayable",
      "type": "function"
    },
    {
      "inputs": [],
      "name": "isOwner",
      "outputs": [
        {
          "internalType": "bool",
          "name": "",
          "type": "bool"
        }
      ],
      "stateMutability": "view",
      "type": "function"
    },
    {
      "inputs": [],
      "name": "lastFILError_Redistribution",
      "outputs": [
        {
          "internalType": "uint256",
          "name": "",
          "type": "uint256"
        }
      ],
      "stateMutability": "view",
      "type": "function"
    },
    {
      "inputs": [],
      "name": "lastFeeOperationTime",
      "outputs": [
        {
          "internalType": "uint256",
          "name": "",
          "type": "uint256"
        }
      ],
      "stateMutability": "view",
      "type": "function"
    },
    {
      "inputs": [],
      "name": "lastLDebtError_Redistribution",
      "outputs": [
        {
          "internalType": "uint256",
          "name": "",
          "type": "uint256"
        }
      ],
      "stateMutability": "view",
      "type": "function"
    },
    {
      "inputs": [
        {
          "internalType": "address",
          "name": "_borrower",
          "type": "address"
        }
      ],
      "name": "liquidate",
      "outputs": [],
      "stateMutability": "nonpayable",
      "type": "function"
    },
    {
      "inputs": [
        {
          "internalType": "uint256",
          "name": "_n",
          "type": "uint256"
        }
      ],
      "name": "liquidateTroves",
      "outputs": [],
      "stateMutability": "nonpayable",
      "type": "function"
    },
    {
      "inputs": [],
      "name": "minutesPassedSinceLastFeeOp",
      "outputs": [
        {
          "internalType": "uint256",
          "name": "",
          "type": "uint256"
        }
      ],
      "stateMutability": "view",
      "type": "function"
    },
    {
      "inputs": [],
      "name": "owner",
      "outputs": [
        {
          "internalType": "address",
          "name": "",
          "type": "address"
        }
      ],
      "stateMutability": "view",
      "type": "function"
    },
    {
      "inputs": [],
      "name": "priceFeed",
      "outputs": [
        {
          "internalType": "contract IPriceFeed",
          "name": "",
          "type": "address"
        }
      ],
      "stateMutability": "view",
      "type": "function"
    },
    {
      "inputs": [],
      "name": "protocolToken",
      "outputs": [
        {
          "internalType": "contract IProtocolToken",
          "name": "",
          "type": "address"
        }
      ],
      "stateMutability": "view",
      "type": "function"
    },
    {
      "inputs": [],
      "name": "protocolTokenStaking",
      "outputs": [
        {
          "internalType": "contract IProtocolTokenStaking",
          "name": "",
          "type": "address"
        }
      ],
      "stateMutability": "view",
      "type": "function"
    },
    {
      "inputs": [
        {
          "internalType": "uint256",
          "name": "_debtTokenAmount",
          "type": "uint256"
        },
        {
          "internalType": "address",
          "name": "_firstRedemptionHint",
          "type": "address"
        },
        {
          "internalType": "address",
          "name": "_upperPartialRedemptionHint",
          "type": "address"
        },
        {
          "internalType": "address",
          "name": "_lowerPartialRedemptionHint",
          "type": "address"
        },
        {
          "internalType": "uint256",
          "name": "_partialRedemptionHintNICR",
          "type": "uint256"
        },
        {
          "internalType": "uint256",
          "name": "_maxIterations",
          "type": "uint256"
        },
        {
          "internalType": "uint256",
          "name": "_maxFeePercentage",
          "type": "uint256"
        }
      ],
      "name": "redeemCollateral",
      "outputs": [],
      "stateMutability": "nonpayable",
      "type": "function"
    },
    {
      "inputs": [
        {
          "internalType": "address",
          "name": "_borrower",
          "type": "address"
        }
      ],
      "name": "removeStake",
      "outputs": [],
      "stateMutability": "nonpayable",
      "type": "function"
    },
    {
      "inputs": [
        {
          "internalType": "address",
          "name": "",
          "type": "address"
        }
      ],
      "name": "rewardSnapshots",
      "outputs": [
        {
          "internalType": "uint256",
          "name": "FIL",
          "type": "uint256"
        },
        {
          "internalType": "uint256",
          "name": "debt",
          "type": "uint256"
        }
      ],
      "stateMutability": "view",
      "type": "function"
    },
    {
      "inputs": [
        {
          "internalType": "address",
          "name": "_borrowerOperationsAddress",
          "type": "address"
        },
        {
          "internalType": "address",
          "name": "_activePoolAddress",
          "type": "address"
        },
        {
          "internalType": "address",
          "name": "_defaultPoolAddress",
          "type": "address"
        },
        {
          "internalType": "address",
          "name": "_stabilityPoolAddress",
          "type": "address"
        },
        {
          "internalType": "address",
          "name": "_gasPoolAddress",
          "type": "address"
        },
        {
          "internalType": "address",
          "name": "_collSurplusPoolAddress",
          "type": "address"
        },
        {
          "internalType": "address",
          "name": "_priceFeedAddress",
          "type": "address"
        },
        {
          "internalType": "address",
          "name": "_debtTokenAddress",
          "type": "address"
        },
        {
          "internalType": "address",
          "name": "_sortedTrovesAddress",
          "type": "address"
        },
        {
          "internalType": "address",
          "name": "_protocolTokenAddress",
          "type": "address"
        },
        {
          "internalType": "address",
          "name": "_protocolTokenStakingAddress",
          "type": "address"
        }
      ],
      "name": "setAddresses",
      "outputs": [],
      "stateMutability": "nonpayable",
      "type": "function"
    },
    {
      "inputs": [
        {
          "internalType": "uint256",
          "name": "_baseRate",
          "type": "uint256"
        }
      ],
      "name": "setBaseRate",
      "outputs": [],
      "stateMutability": "nonpayable",
      "type": "function"
    },
    {
      "inputs": [],
      "name": "setLastFeeOpTimeToNow",
      "outputs": [],
      "stateMutability": "nonpayable",
      "type": "function"
    },
    {
      "inputs": [
        {
          "internalType": "address",
          "name": "_borrower",
          "type": "address"
        },
        {
          "internalType": "uint256",
          "name": "_num",
          "type": "uint256"
        }
      ],
      "name": "setTroveStatus",
      "outputs": [],
      "stateMutability": "nonpayable",
      "type": "function"
    },
    {
      "inputs": [],
      "name": "sortedTroves",
      "outputs": [
        {
          "internalType": "contract ISortedTroves",
          "name": "",
          "type": "address"
        }
      ],
      "stateMutability": "view",
      "type": "function"
    },
    {
      "inputs": [],
      "name": "stabilityPool",
      "outputs": [
        {
          "internalType": "contract IStabilityPool",
          "name": "",
          "type": "address"
        }
      ],
      "stateMutability": "view",
      "type": "function"
    },
    {
      "inputs": [],
      "name": "totalCollateralSnapshot",
      "outputs": [
        {
          "internalType": "uint256",
          "name": "",
          "type": "uint256"
        }
      ],
      "stateMutability": "view",
      "type": "function"
    },
    {
      "inputs": [],
      "name": "totalStakes",
      "outputs": [
        {
          "internalType": "uint256",
          "name": "",
          "type": "uint256"
        }
      ],
      "stateMutability": "view",
      "type": "function"
    },
    {
      "inputs": [],
      "name": "totalStakesSnapshot",
      "outputs": [
        {
          "internalType": "uint256",
          "name": "",
          "type": "uint256"
        }
      ],
      "stateMutability": "view",
      "type": "function"
    },
    {
      "inputs": [],
      "name": "unprotectedDecayBaseRateFromBorrowing",
      "outputs": [
        {
          "internalType": "uint256",
          "name": "",
          "type": "uint256"
        }
      ],
      "stateMutability": "nonpayable",
      "type": "function"
    },
    {
      "inputs": [
        {
          "internalType": "address",
          "name": "_borrower",
          "type": "address"
        }
      ],
      "name": "updateStakeAndTotalStakes",
      "outputs": [
        {
          "internalType": "uint256",
          "name": "",
          "type": "uint256"
        }
      ],
      "stateMutability": "nonpayable",
      "type": "function"
    },
    {
      "inputs": [
        {
          "internalType": "address",
          "name": "_borrower",
          "type": "address"
        }
      ],
      "name": "updateTroveRewardSnapshots",
      "outputs": [],
      "stateMutability": "nonpayable",
      "type": "function"
    }
  ],
  "bytecode": "0x60c06040523480156200001157600080fd5b5060405162005e1738038062005e17833981810160405260408110156200003757600080fd5b508051602090910151608082905260a0819052600380546001600160a01b03191633908117909155604051839183916000907f8be0079c531659141344cd1fd0a4f28419497f9722a3daafe3b4186f6b6457e0908290a35050505060805160a051615d25620000f260003980610f9f5280613f0552806146f8525080610f1c52806119ec52806136c8528061378f5280613e315280614579528061461e528061465f5280614edb528061532c52806158515250615d256000f3fe608060405234801561001057600080fd5b50600436106104e35760003560e01c8063741bef1a1161028e578063b91af97c11610167578063d66a2553116100d9578063f36b242511610092578063f36b242514610dfe578063f59fac2d14610e06578063f8d8989814610e2c578063f92d34331461072b578063fe2ba84814610e34578063febb33de14610e5a576104e3565b8063d66a255314610d5f578063d9a7244414610d85578063da303f1414610da2578063dc62a70214610daa578063e2ac77b014610dd0578063e545242314610df6576104e3565b8063c7b554811161012b578063c7b5548114610cb4578063cbd138ae14610cbc578063d293c71014610ce2578063d380a37c14610d0e578063d3d6f84314610d16578063d5b3563514610d42576104e3565b8063b91af97c14610c02578063bcd3752614610c4e578063bf9befb114610c9c578063c35bc55014610ca4578063c52861f214610cac576104e3565b80638f32d59b11610200578063a3f4df7e116101c4578063a3f4df7e14610b15578063a537896f14610b92578063ae91875414610baf578063b0d8e18114610bb7578063b7f8cf9b14610bdd578063b82f263d14610be5576104e3565b80638f32d59b14610ad157806396d711ff14610ad95780639976cf4514610ae1578063a0d8d6bc14610b0d578063a20baee6146109a1576104e3565b80637f7dde4a116102525780637f7dde4a14610a62578063807d138d14610a6a578063814a0a4514610a7257806382fe3eb914610a9b578063887105d314610ac15780638da5cb5b14610ac9576104e3565b8063741bef1a146109b1578063756b253e146109b9578063794e5724146109d6578063795d26c3146109de5780637985c5e4146109e6576104e3565b80633cc74225116103c05780635dba4c4a1161033257806366ca4a21116102f657806366ca4a21146108f9578063695b2e34146109015780636ef643381461090957806372423c171461097557806372fe25aa146109a157806373098be9146109a9576104e3565b80635dba4c4a1461088957806361ec893d14610891578063631203b01461089957806364cee260146108b6578063653d46e7146108dc576104e3565b80634e443d9e116103845780634e443d9e146107c45780634ff81443146107f557806352512eaa1461081257806354062a45146108385780635733d58f146108555780635d6b480f1461085d576104e3565b80633cc7422514610769578063477d66cf14610771578063480cd5781461078e5780634870dd9a146107b457806349eefeee146107bc576104e3565b80631bf4355511610459578063240926691161041d578063240926691461071b57806326b4d8fd1461072357806328d28b5b1461072b5780632b11551a146107335780632f8655681461073b57806331eaf05c14610761576104e3565b80631bf43555146106255780631d08837b1461062d5780631e8b1c2b1461064a5780631f68f20a146106ed57806321e37801146106f5576104e3565b806312610e92116104ab57806312610e921461055e578063139f2e8c1461058a57806315d549f1146105925780631673c79a146105b857806318f2817a146105f75780631a465fe11461061d576104e3565b8063043782fb146104e8578063048c661d146104f2578063071a7541146105165780630b07655714610530578063105bb15c14610556575b600080fd5b6104f0610e77565b005b6104fa610e7d565b604080516001600160a01b039092168252519081900360200190f35b61051e610e8c565b60408051918252519081900360200190f35b6104f06004803603602081101561054657600080fd5b50356001600160a01b0316610e91565b61051e610eb9565b61051e6004803603604081101561057457600080fd5b506001600160a01b038135169060200135610ec8565b61051e610f1a565b61051e600480360360208110156105a857600080fd5b50356001600160a01b0316610f3e565b6105de600480360360208110156105ce57600080fd5b50356001600160a01b0316610f62565b6040805192835260208301919091528051918290030190f35b61051e6004803603602081101561060d57600080fd5b50356001600160a01b0316610f7b565b6104fa610f8e565b61051e610f9d565b6104f06004803603602081101561064357600080fd5b5035610fc1565b6104f06004803603602081101561066057600080fd5b81019060208101813564010000000081111561067b57600080fd5b82018360208201111561068d57600080fd5b803590602001918460208302840111640100000000831117156106af57600080fd5b919080806020026020016040519081016040528093929190818152602001838360200280828437600092019190915250929550610fc6945050505050565b61051e61135a565b61051e6004803603602081101561070b57600080fd5b50356001600160a01b0316611360565b61051e61138a565b61051e61139d565b61051e6113a3565b61051e6113b4565b6104f06004803603602081101561075157600080fd5b50356001600160a01b03166113c1565b61051e611427565b6104fa61142d565b61051e6004803603602081101561078757600080fd5b503561143c565b61051e600480360360208110156107a457600080fd5b50356001600160a01b031661144f565b61051e61146d565b61051e611472565b6107e1600480360360208110156107da57600080fd5b5035611478565b604080519115158252519081900360200190f35b61051e6004803603602081101561080b57600080fd5b5035611483565b61051e6004803603602081101561082857600080fd5b50356001600160a01b031661148e565b61051e6004803603602081101561084e57600080fd5b5035611542565b61051e61154d565b6104f06004803603604081101561087357600080fd5b506001600160a01b038135169060200135611559565b6104f06115a5565b61051e61160b565b61051e600480360360208110156108af57600080fd5b5035611610565b61051e600480360360208110156108cc57600080fd5b50356001600160a01b031661161d565b6104f0600480360360208110156108f257600080fd5b503561163b565b61051e6119d8565b61051e6119ea565b61092f6004803603602081101561091f57600080fd5b50356001600160a01b0316611a0e565b6040518086815260200185815260200184815260200183600481111561095157fe5b8152602001826001600160801b031681526020019550505050505060405180910390f35b61051e6004803603604081101561098b57600080fd5b506001600160a01b038135169060200135611a48565b61051e611a9f565b61051e611aab565b6104fa611ab1565b6104fa600480360360208110156109cf57600080fd5b5035611ac0565b61051e611aea565b61051e611af6565b6104f060048036036101608110156109fd57600080fd5b506001600160a01b038135811691602081013582169160408201358116916060810135821691608082013581169160a081013582169160c082013581169160e08101358216916101008201358116916101208101358216916101409091013516611bf1565b6104fa611ffc565b61051e61200b565b61051e60048036036060811015610a8857600080fd5b5080359060208101359060400135612011565b6104f060048036036020811015610ab157600080fd5b50356001600160a01b0316612028565b61051e612039565b6104fa6120f5565b6107e1612104565b61051e612115565b61051e60048036036040811015610af757600080fd5b506001600160a01b03813516906020013561211b565b61051e612148565b610b1d61214e565b6040805160208082528351818301528351919283929083019185019080838360005b83811015610b57578181015183820152602001610b3f565b50505050905090810190601f168015610b845780820380516001836020036101000a031916815260200191505b509250505060405180910390f35b61051e60048036036020811015610ba857600080fd5b5035612176565b6104fa612181565b61051e60048036036020811015610bcd57600080fd5b50356001600160a01b0316612190565b6104fa6121b7565b61051e60048036036020811015610bfb57600080fd5b50356121c6565b610c2860048036036020811015610c1857600080fd5b50356001600160a01b03166121d1565b604080519485526020850193909352838301919091526060830152519081900360800190f35b6104f0600480360360e0811015610c6457600080fd5b508035906001600160a01b03602082013581169160408101358216916060820135169060808101359060a08101359060c00135612229565b61051e61298c565b61051e612992565b61051e612999565b61051e6129ab565b6104f060048036036020811015610cd257600080fd5b50356001600160a01b03166129b7565b61051e60048036036040811015610cf857600080fd5b506001600160a01b0381351690602001356129ca565b61051e6129e9565b61051e60048036036040811015610d2c57600080fd5b506001600160a01b0381351690602001356129ef565b61051e60048036036020811015610d5857600080fd5b5035612a1f565b61051e60048036036020811015610d7557600080fd5b50356001600160a01b0316612a32565b6104fa60048036036020811015610d9b57600080fd5b5035612a4d565b61051e612a77565b6104f060048036036020811015610dc057600080fd5b50356001600160a01b0316612aa7565b6107e160048036036020811015610de657600080fd5b50356001600160a01b0316612ab4565b6104fa612b12565b61051e612b21565b61051e60048036036020811015610e1c57600080fd5b50356001600160a01b0316612b2e565b6104fa612b59565b6104f060048036036020811015610e4a57600080fd5b50356001600160a01b0316612b68565b61051e60048036036020811015610e7057600080fd5b5035612b79565b42600d55565b6005546001600160a01b031681565b600281565b610e99612b84565b600054600154610eb6916001600160a01b03908116911683612bcf565b50565b6000610ec3612ce5565b905090565b6000610ed2612b84565b6001600160a01b0383166000908152600e6020526040812054610ef59084612d01565b6001600160a01b0385166000908152600e602052604090208190559150505b92915050565b7f000000000000000000000000000000000000000000000000000000000000000081565b6000610f48612b84565b610f5182612d43565b6001600160801b031690505b919050565b6014602052600090815260409020805460019091015482565b6000610f85612b84565b610f1482612ddd565b6009546001600160a01b031681565b7f000000000000000000000000000000000000000000000000000000000000000081565b600c55565b80516110035760405162461bcd60e51b8152600401808060200182810382526036815260200180615bab6036913960400191505060405180910390fd5b6000546001546005546001600160a01b039283169291821691166110256158df565b61102d615910565b600260009054906101000a90046001600160a01b03166001600160a01b0316630fdb11cf6040518163ffffffff1660e01b8152600401602060405180830381600087803b15801561107d57600080fd5b505af1158015611091573d6000803e3d6000fd5b505050506040513d60208110156110a757600080fd5b5051825260408051630d9a6b3560e01b815290516001600160a01b03851691630d9a6b35916004808301926020929190829003018186803b1580156110eb57600080fd5b505afa1580156110ff573d6000803e3d6000fd5b505050506040513d602081101561111557600080fd5b50516020830152815161112790612e80565b158015604084015261114f576111488585846000015185602001518a612e9d565b9050611167565b6111648585846000015185602001518a6130bb565b90505b60008160200151116111aa5760405162461bcd60e51b8152600401808060200182810382526022815260200180615c9f6022913960400191505060405180910390fd5b826001600160a01b031663335525ad82608001518360a001516040518363ffffffff1660e01b81526004018083815260200182815260200192505050600060405180830381600087803b15801561120057600080fd5b505af1158015611214573d6000803e3d6000fd5b5050505061122c85858360c001518460e0015161317d565b610100810151156112a95760075461010082015160408051628063a560e01b81526001600160a01b03938416600482015260248101929092525191871691628063a59160448082019260009290919082900301818387803b15801561129057600080fd5b505af11580156112a4573d6000803e3d6000fd5b505050505b6112b78582604001516133d0565b60208101516060830152610100810151604082015182516112e392916112dd9190612d01565b90612d01565b608080840182905260608085015160408086015186840151825193845260208401969096528282015291810193909352517f4152c73dd2614c4f9fc35e8c9cf16013cd588c75b49a4c1673ecffdcbcda94039281900390910190a1611352853383606001518460400151613511565b505050505050565b600c5481565b6001600160a01b0381166000908152600e602052604081206003015460ff166004811115610f1457fe5b6064670de0b6b3a76400005b0460050281565b60175481565b6103e8670de0b6b3a7640000611396565b6000610ec3600c5461360a565b6113ca81613640565b6040805160018082528183019092526000916020808301908036833701905050905081816000815181106113fa57fe5b60200260200101906001600160a01b031690816001600160a01b03168152505061142381610fc6565b5050565b60135481565b6001546001600160a01b031681565b6000610f146114496119d8565b836136a8565b6001600160a01b03166000908152600e602052604090206001015490565b60c881565b60155490565b6000610f1482612e80565b6000610f14826136c0565b6001600160a01b03811660009081526014602052604081205460125482906114b69083612d01565b90508015806114ef575060016001600160a01b0385166000908152600e602052604090206003015460ff1660048111156114ec57fe5b14155b156114ff57600092505050610f5d565b6001600160a01b0384166000908152600e602052604081206002015490611538670de0b6b3a764000061153284866136ec565b90613745565b9695505050505050565b6000610f1482613787565b6714d1120d7b16000081565b611561612b84565b80600481111561156d57fe5b6001600160a01b0383166000908152600e60205260409020600301805460ff1916600183600481111561159c57fe5b02179055505050565b6115ad612b84565b60006115b76137b3565b9050670de0b6b3a76400008111156115cb57fe5b600c8190556040805182815290517fc454ee9b76c52f782a256af821b857ca6e125d1e3333bcede402fec2bed9600c9181900360200190a1610eb66137f7565b603c81565b6000610f14611449612b21565b6001600160a01b03166000908152600e602052604090206002015490565b6040805160e081018252600080546001600160a01b0390811683526001548116602084015292820181905260608201819052600b548316608083015260a0820181905260c08201526005549091166116916158df565b611699615910565b600260009054906101000a90046001600160a01b03166001600160a01b0316630fdb11cf6040518163ffffffff1660e01b8152600401602060405180830381600087803b1580156116e957600080fd5b505af11580156116fd573d6000803e3d6000fd5b505050506040513d602081101561171357600080fd5b5051825260408051630d9a6b3560e01b815290516001600160a01b03851691630d9a6b35916004808301926020929190829003018186803b15801561175757600080fd5b505afa15801561176b573d6000803e3d6000fd5b505050506040513d602081101561178157600080fd5b50516020830152815161179390612e80565b15801560408401526117ba576117b3848360000151846020015188613853565b90506117da565b6117d7846000015185602001518460000151856020015189613bd3565b90505b600081602001511161181d5760405162461bcd60e51b8152600401808060200182810382526022815260200180615c9f6022913960400191505060405180910390fd5b826001600160a01b031663335525ad82608001518360a001516040518363ffffffff1660e01b81526004018083815260200182815260200192505050600060405180830381600087803b15801561187357600080fd5b505af1158015611887573d6000803e3d6000fd5b505050506118a7846000015185602001518360c001518460e0015161317d565b6101008101511561192657835160075461010083015160408051628063a560e01b81526001600160a01b0393841660048201526024810192909252519190921691628063a591604480830192600092919082900301818387803b15801561190d57600080fd5b505af1158015611921573d6000803e3d6000fd5b505050505b611938846000015182604001516133d0565b602081015160608301526101008101516040820151825161195e92916112dd9190612d01565b608080840182905260608085015160408086015186840151825193845260208401969096528282015291810193909352517f4152c73dd2614c4f9fc35e8c9cf16013cd588c75b49a4c1673ecffdcbcda94039281900390910190a16119d184600001513383606001518460400151613511565b5050505050565b6000610ec36119e56137b3565b613cff565b7f000000000000000000000000000000000000000000000000000000000000000090565b600e6020526000908152604090208054600182015460028301546003909301549192909160ff81169061010090046001600160801b031685565b6000611a52612b84565b6001600160a01b0383166000908152600e6020526040812060010154611a789084613d26565b6001600160a01b0385166000908152600e6020526040902060010181905591505092915050565b670de0b6b3a764000081565b60125481565b6002546001600160a01b031681565b60158181548110611ad057600080fd5b6000918252602090912001546001600160a01b0316905081565b670f43fc2c04ee000081565b60008054604080516314a6bf0f60e01b8152905183926001600160a01b0316916314a6bf0f916004808301926020929190829003018186803b158015611b3b57600080fd5b505afa158015611b4f573d6000803e3d6000fd5b505050506040513d6020811015611b6557600080fd5b5051600154604080516314a6bf0f60e01b815290519293506000926001600160a01b03909216916314a6bf0f91600480820192602092909190829003018186803b158015611bb257600080fd5b505afa158015611bc6573d6000803e3d6000fd5b505050506040513d6020811015611bdc57600080fd5b50519050611bea8282613d26565b9250505090565b611bf9612104565b611c4a576040805162461bcd60e51b815260206004820181905260248201527f4f776e61626c653a2063616c6c6572206973206e6f7420746865206f776e6572604482015290519081900360640190fd5b611c538b613d80565b611c5c8a613d80565b611c6589613d80565b611c6e88613d80565b611c7787613d80565b611c8086613d80565b611c8985613d80565b611c9284613d80565b611c9b83613d80565b611ca482613d80565b611cad81613d80565b611cb68b613e2f565b611cbf88613e2f565b600480546001600160a01b03199081166001600160a01b038e81169182179093556000805483168e85161790556001805483168d85161790556005805483168c85161790556006805483168b85161790556007805483168a8516179055600280548316898516179055600880548316888516179055600b80548316878516179055600980548316868516179055600a805490921692841692909217905560408051918252517f3ca631ffcd2a9b5d9ae18543fc82f58eb4ca33af9e6ab01b7a8e95331e6ed985916020908290030190a1604080516001600160a01b038c16815290517f78f058b189175430c48dc02699e3a0031ea4ff781536dc2fab847de4babdd8829181900360200190a1604080516001600160a01b038b16815290517f5ee0cae2f063ed938bb55046f6a932fb6ae792bf43624806bb90abe68a50be9b9181900360200190a1604080516001600160a01b038a16815290517f82966d27eea39b038ee0fa30cd16532bb24f6e65d31cb58fb227aa5766cdcc7f9181900360200190a1604080516001600160a01b038916815290517fcfb07d791fcafc032b35837b50eb84b74df518cf4cc287e8084f47630fa70fa09181900360200190a1604080516001600160a01b038816815290517fe67f36a6e961157d6eff83b91f3af5a62131ceb6f04954ef74f51c1c05e7f88d9181900360200190a1604080516001600160a01b038716815290517f8c537274438aa850a330284665d81a85dd38267d09e4050d416bfc94142db2649181900360200190a1604080516001600160a01b038616815290517f112220fa8dbe96141556e0dc3d74dd95075b323f4f297616048e02d82d7017159181900360200190a1604080516001600160a01b038516815290517f65f4cf077bc01e4742eb5ad98326f6e95b63548ea24b17f8d5e823111fe788009181900360200190a1604080516001600160a01b038416815290517f7b0c6ae24561d189fc90b337cbc97aa15d085bef32931237a762e3e528b285b49181900360200190a1604080516001600160a01b038316815290517ff81a824d1d9030c0365252fb96daf0565f9c2007c88e13001379dda7f06d5d5c9181900360200190a1611fef613fd3565b5050505050505050505050565b6000546001600160a01b031681565b60105481565b600061201e84848461401d565b90505b9392505050565b612030612b84565b610eb681614047565b60008054604080516362e1c9bf60e11b8152905183926001600160a01b03169163c5c3937e916004808301926020929190829003018186803b15801561207e57600080fd5b505afa158015612092573d6000803e3d6000fd5b505050506040513d60208110156120a857600080fd5b5051600154604080516362e1c9bf60e11b815290519293506000926001600160a01b039092169163c5c3937e91600480820192602092909190829003018186803b158015611bb257600080fd5b6003546001600160a01b031690565b6003546001600160a01b0316331490565b60115481565b6000612125612b84565b6001600160a01b0383166000908152600e6020526040812054610ef59084613d26565b60165481565b6040518060400160405280600c81526020016b2a3937bb32a6b0b730b3b2b960a11b81525081565b6000610f14826140b2565b600b546001600160a01b031681565b600080600061219e846140b9565b9150915060006121ae8383614133565b95945050505050565b6004546001600160a01b031681565b6000610f1482614162565b6001600160a01b0381166000908152600e6020526040812080546001909101549091806121fd85612b2e565b91506122088561148e565b90506122148483613d26565b93506122208382613d26565b92509193509193565b6040805160e0810182526000546001600160a01b03908116825260015481166020830152600854811692820192909252600a5482166060820152600b5482166080820152600754821660a082015260065490911660c082015261228a61595c565b6122938361418e565b61229b6141e8565b600260009054906101000a90046001600160a01b03166001600160a01b0316630fdb11cf6040518163ffffffff1660e01b8152600401602060405180830381600087803b1580156122eb57600080fd5b505af11580156122ff573d6000803e3d6000fd5b505050506040513d602081101561231557600080fd5b505160c08201819052612327906142a6565b612330896142f5565b61233f8260400151338b614334565b612347611af6565b60e0820181905260408084015181516370a0823160e01b815233600482015291516001600160a01b03909116916370a08231916024808301926020929190829003018186803b15801561239957600080fd5b505afa1580156123ad573d6000803e3d6000fd5b505050506040513d60208110156123c357600080fd5b505111156123cd57fe5b888152608082015160c08201516000916123e8918b906143eb565b156123f4575087612515565b82608001516001600160a01b0316634d6228316040518163ffffffff1660e01b815260040160206040518083038186803b15801561243157600080fd5b505afa158015612445573d6000803e3d6000fd5b505050506040513d602081101561245b57600080fd5b505190505b6001600160a01b0381161580159061248c5750670f43fc2c04ee000061248a828460c001516129ca565b105b156125155782608001516001600160a01b031663b72703ac826040518263ffffffff1660e01b815260040180826001600160a01b0316815260200191505060206040518083038186803b1580156124e257600080fd5b505afa1580156124f6573d6000803e3d6000fd5b505050506040513d602081101561250c57600080fd5b50519050612460565b846125205760001994505b6001600160a01b038116158015906125385750815115155b80156125445750600085115b1561265757848060019003955050600083608001516001600160a01b031663b72703ac836040518263ffffffff1660e01b815260040180826001600160a01b0316815260200191505060206040518083038186803b1580156125a557600080fd5b505afa1580156125b9573d6000803e3d6000fd5b505050506040513d60208110156125cf57600080fd5b5051845160208601519192506125e59184612bcf565b60006125fe858486600001518760c001518e8e8e61454c565b9050806040015115612611575050612657565b8051602085015161262191613d26565b602080860191909152810151604085015161263b91613d26565b60408501528051845161264d91612d01565b8452509050612520565b600082604001511161269a5760405162461bcd60e51b8152600401808060200182810382526029815260200180615a4e6029913960400191505060405180910390fd5b6126b182604001518360c001518460e00151614840565b506126bf82604001516148d6565b6060830181905260408301516126d69190866148e3565b82600001516001600160a01b0316628063a5846060015184606001516040518363ffffffff1660e01b815260040180836001600160a01b0316815260200182815260200192505050600060405180830381600087803b15801561273857600080fd5b505af115801561274c573d6000803e3d6000fd5b5050505082606001516001600160a01b031663c91d2d3883606001516040518263ffffffff1660e01b815260040180828152602001915050600060405180830381600087803b15801561279e57600080fd5b505af11580156127b2573d6000803e3d6000fd5b50505050606082015160408301516127c991612d01565b8260800181815250507f43a3f4082a4dbc33d78e317d2497d3a730bc7fc3574159dcea1056e62e5d9ad88a8360200151846040015185606001516040518085815260200184815260200183815260200182815260200194505050505060405180910390a182604001516001600160a01b0316639dc29fac3384602001516040518363ffffffff1660e01b815260040180836001600160a01b0316815260200182815260200192505050600060405180830381600087803b15801561288c57600080fd5b505af11580156128a0573d6000803e3d6000fd5b5050505082600001516001600160a01b0316632a7ba1f783602001516040518263ffffffff1660e01b815260040180828152602001915050600060405180830381600087803b1580156128f257600080fd5b505af1158015612906573d6000803e3d6000fd5b5050505082600001516001600160a01b0316628063a53384608001516040518363ffffffff1660e01b815260040180836001600160a01b0316815260200182815260200192505050600060405180830381600087803b15801561296857600080fd5b505af115801561297c573d6000803e3d6000fd5b5050505050505050505050505050565b600f5481565b6212750081565b6000610ec36129a66137b3565b61360a565b670ddd4b8c6c7d70d881565b6129bf612b84565b610eb6816002614952565b60008060006129d8856140b9565b91509150600061153883838761401d565b600d5481565b60006129f9612b84565b6001600160a01b0383166000908152600e6020526040812060010154611a789084612d01565b6000610f14612a2c612999565b83614a6b565b6001600160a01b03166000908152600e602052604090205490565b600060158281548110612a5c57fe5b6000918252602090912001546001600160a01b031692915050565b6000612a816137b3565b600c55670de0b6b3a7640000600c541115612a9857fe5b612aa06137f7565b50600c5490565b6015546114238282614ac4565b600060016001600160a01b0383166000908152600e602052604090206003015460ff166004811115612ae257fe5b14612aef57506000610f5d565b506012546001600160a01b03821660009081526014602052604090205410919050565b600a546001600160a01b031681565b6000610ec3600c54613cff565b6001600160a01b03811660009081526014602052604081206001015460135482906114b69083612d01565b6008546001600160a01b031681565b612b70612b84565b610eb681614c6b565b6000610f14826148d6565b6004546001600160a01b03163314612bcd5760405162461bcd60e51b815260040180806020018281038252603b815260200180615b70603b913960400191505060405180910390fd5b565b612bd881612ab4565b15612ce057612be681613640565b6000612bf18261148e565b90506000612bfe83612b2e565b6001600160a01b0384166000908152600e6020526040902060010154909150612c279083613d26565b6001600160a01b0384166000908152600e60205260409020600181019190915554612c529082613d26565b6001600160a01b0384166000908152600e6020526040902055612c7483614047565b612c8085858385614cb5565b6001600160a01b0383166000818152600e60209081526040808320805460018201546002909201548351918252938101919091528082019290925260608201929092529051600080516020615b508339815191529181900360800190a250505b505050565b6000610ec3603c611532600d5442612d0190919063ffffffff16565b600061202183836040518060400160405280601e81526020017f536166654d6174683a207375627472616374696f6e206f766572666c6f770000815250614db7565b601580546001808201835560008381527f55f448fdea98c4d29eb340757ef0a66cd03dbb9538908a6a81d96026b71ec47590920180546001600160a01b0319166001600160a01b03861617905591549091612d9e9190612d01565b6001600160a01b03929092166000908152600e602052604090206003018054610100600160881b0319166101006001600160801b038516021790555090565b6001600160a01b0381166000908152600e60205260408120600101548190612e0490614e4e565b6001600160a01b0384166000908152600e60205260409020600201805490829055600f5491925090612e42908390612e3c9084612d01565b90613d26565b600f81905560408051918252517f6bac5e0eb3c44eb03a60ab11ec3a2c051771616aecadbcfff2630aabae5203829181900360200190a15092915050565b600080612e8c83614162565b6714d1120d7b160000119392505050565b612ea5615910565b612ead6159a1565b612eb5615910565b84825260006080830152612ec7611af6565b60a0830152612ed4612039565b60c0830152600060208301525b8351826020015110156130b05783826020015181518110612efe57fe5b6020908102919091018101516001600160a01b0316606084018190526000908152600e909152604090206003015460019060ff166004811115612f3d57fe5b14612f47576130a0565b612f558260600151876129ca565b6040830152608082015161304857670f43fc2c04ee0000826040015110158015612f7e57508151155b15612f88576130a0565b6000612f9d8360c001518460a001518961401d565b9050612fba8989856060015186604001518760000151868d614e8a565b60808101518451919350612fce9190612d01565b8352608082015160a0840151612fe391612d01565b8360a00181815250506130188261010001516112dd84604001516112dd8660a001518860c00151612d0190919063ffffffff16565b60c084015261302784836151c8565b935061303c8360c001518460a00151896152a9565b156080840152506130a0565b816080015180156130645750670f43fc2c04ee00008260400151105b156130a05761307d8888846060015185600001516152ca565b608081015183519192506130919190612d01565b825261309d83826151c8565b92505b6020820180516001019052612ee1565b505095945050505050565b6130c3615910565b6130cb6159a1565b6130d3615910565b848252600060208301525b8351826020015110156130b057838260200151815181106130fb57fe5b60209081029190910101516001600160a01b03166060830181905261312090876129ca565b60408301819052670f43fc2c04ee0000111561316d5761314a8888846060015185600001516152ca565b6080810151835191925061315e9190612d01565b825261316a83826151c8565b92505b60208201805160010190526130de565b81613187576133ca565b6016546000906131a390612e3c84670de0b6b3a76400006136ec565b905060006131c8601754612e3c670de0b6b3a7640000876136ec90919063ffffffff16565b905060006131e1600f548461374590919063ffffffff16565b905060006131fa600f548461374590919063ffffffff16565b905061321b613214600f54846136ec90919063ffffffff16565b8590612d01565b601655600f54613237906132309083906136ec565b8490612d01565b6017556012546132479083613d26565b6012556013546132579082613d26565b601381905560125460408051918252602082019290925281517f9f8bc8ab0daf5bceef75ecfd2085d1fcc6548c657ea970d9a23a60610d0737e3929181900390910190a1876001600160a01b0316632a7ba1f7876040518263ffffffff1660e01b815260040180828152602001915050600060405180830381600087803b1580156132e157600080fd5b505af11580156132f5573d6000803e3d6000fd5b50505050866001600160a01b0316632b7c7b11876040518263ffffffff1660e01b815260040180828152602001915050600060405180830381600087803b15801561333f57600080fd5b505af1158015613353573d6000803e3d6000fd5b50505050876001600160a01b0316628063a588876040518363ffffffff1660e01b815260040180836001600160a01b0316815260200182815260200192505050600060405180830381600087803b1580156133ad57600080fd5b505af11580156133c1573d6000803e3d6000fd5b50505050505050505b50505050565b600f546010819055506000826001600160a01b031663c5c3937e6040518163ffffffff1660e01b815260040160206040518083038186803b15801561341457600080fd5b505afa158015613428573d6000803e3d6000fd5b505050506040513d602081101561343e57600080fd5b5051600154604080516362e1c9bf60e11b815290519293506000926001600160a01b039092169163c5c3937e91600480820192602092909190829003018186803b15801561348b57600080fd5b505afa15801561349f573d6000803e3d6000fd5b505050506040513d60208110156134b557600080fd5b505190506134c781612e3c8486612d01565b601181905560105460408051918252602082019290925281517f51bf4c63ec3cba9d03d43238abbdd979dd91bd16d9895c74ceea9118c7baaf60929181900390910190a150505050565b81156135905760085460065460408051631062c15f60e11b81526001600160a01b039283166004820152868316602482015260448101869052905191909216916320c582be91606480830192600092919082900301818387803b15801561357757600080fd5b505af115801561358b573d6000803e3d6000fd5b505050505b80156133ca57836001600160a01b0316628063a584836040518363ffffffff1660e01b815260040180836001600160a01b0316815260200182815260200192505050600060405180830381600087803b1580156135ec57600080fd5b505af1158015613600573d6000803e3d6000fd5b5050505050505050565b6000610f14613632836103e8670de0b6b3a76400005b04600502613d2690919063ffffffff16565b670de0b6b3a7640000615444565b60016001600160a01b0382166000908152600e602052604090206003015460ff16600481111561366c57fe5b14610eb65760405162461bcd60e51b815260040180806020018281038252602f815260200180615cc1602f913960400191505060405180910390fd5b6000612021670de0b6b3a764000061153285856136ec565b6000610f14827f0000000000000000000000000000000000000000000000000000000000000000613d26565b6000826136fb57506000610f14565b8282028284828161370857fe5b04146120215760405162461bcd60e51b8152600401808060200182810382526021815260200180615b2f6021913960400191505060405180910390fd5b600061202183836040518060400160405280601a81526020017f536166654d6174683a206469766973696f6e206279207a65726f00000000000081525061545a565b6000610f14827f0000000000000000000000000000000000000000000000000000000000000000612d01565b6000806137be612ce5565b905060006137d4670ddd4b8c6c7d70d8836154bf565b9050611bea670de0b6b3a764000061153283600c546136ec90919063ffffffff16565b600061380e600d5442612d0190919063ffffffff16565b9050603c8110610eb65742600d81905560408051918252517f860f8d2f0c74dd487e89e2883e3b25b8159ce1e1b3433a291cba7b82c508f3bc9181900360200190a150565b61385b615910565b6138636159a1565b61386b615910565b8482526000608083015261387d611af6565b60a083015261388a612039565b8260c001818152505086608001516001600160a01b0316634d6228316040518163ffffffff1660e01b815260040160206040518083038186803b1580156138d057600080fd5b505afa1580156138e4573d6000803e3d6000fd5b505050506040513d60208110156138fa57600080fd5b50516001600160a01b039081166060840152608088015160408051631e22314360e01b815290516000939290921691631e22314391600480820192602092909190829003018186803b15801561394f57600080fd5b505afa158015613963573d6000803e3d6000fd5b505050506040513d602081101561397957600080fd5b50516000602085015290505b8483602001511080156139ae5750806001600160a01b031683606001516001600160a01b031614155b15613bc857600088608001516001600160a01b031663b72703ac85606001516040518263ffffffff1660e01b815260040180826001600160a01b0316815260200191505060206040518083038186803b158015613a0a57600080fd5b505afa158015613a1e573d6000803e3d6000fd5b505050506040513d6020811015613a3457600080fd5b50516060850151909150613a4890896129ca565b60408501526080840151613b4057670f43fc2c04ee0000846040015110158015613a7157508351155b15613a7c5750613bc8565b6000613a918560c001518660a001518b61401d565b8a5160208c0151606088015160408901518951949550613ab294868f614e8a565b60808101518651919550613ac69190612d01565b8552608084015160a0860151613adb91612d01565b8560a0018181525050613b108461010001516112dd86604001516112dd8860a001518a60c00151612d0190919063ffffffff16565b60c0860152613b1f86856151c8565b9550613b348560c001518660a001518b6152a9565b15608086015250613baa565b83608001518015613b5c5750670f43fc2c04ee00008460400151105b15613ba457613b7d89600001518a60200151866060015187600001516152ca565b60808101518551919450613b919190612d01565b8452613b9d85846151c8565b9450613baa565b50613bc8565b6001600160a01b031660608401526020830180516001019052613985565b505050949350505050565b613bdb615910565b613be36159a1565b613beb615910565b600b54858352600060208401526001600160a01b03165b8483602001511015613cf357806001600160a01b0316634d6228316040518163ffffffff1660e01b815260040160206040518083038186803b158015613c4757600080fd5b505afa158015613c5b573d6000803e3d6000fd5b505050506040513d6020811015613c7157600080fd5b50516001600160a01b031660608401819052613c8d90886129ca565b60408401819052670f43fc2c04ee00001115613cde57613cb78989856060015186600001516152ca565b60808101518451919350613ccb9190612d01565b8352613cd784836151c8565b9350613ce3565b613cf3565b6020830180516001019052613c02565b50505095945050505050565b6000610f14613d19836103e8670de0b6b3a7640000613620565b66b1a2bc2ec50000615444565b600082820183811015612021576040805162461bcd60e51b815260206004820152601b60248201527f536166654d6174683a206164646974696f6e206f766572666c6f770000000000604482015290519081900360640190fd5b6001600160a01b038116613ddb576040805162461bcd60e51b815260206004820152601e60248201527f4163636f756e742063616e6e6f74206265207a65726f20616464726573730000604482015290519081900360640190fd5b803b80611423576040805162461bcd60e51b815260206004820181905260248201527f4163636f756e7420636f64652073697a652063616e6e6f74206265207a65726f604482015290519081900360640190fd5b7f0000000000000000000000000000000000000000000000000000000000000000816001600160a01b031663139f2e8c6040518163ffffffff1660e01b815260040160206040518083038186803b158015613e8957600080fd5b505afa158015613e9d573d6000803e3d6000fd5b505050506040513d6020811015613eb357600080fd5b505114613f03576040805162461bcd60e51b815260206004820152601960248201527808e82a6be869e9aa08a9ca682a8929e9c40dad2e6dac2e8c6d603b1b604482015290519081900360640190fd5b7f0000000000000000000000000000000000000000000000000000000000000000816001600160a01b0316631bf435556040518163ffffffff1660e01b815260040160206040518083038186803b158015613f5d57600080fd5b505afa158015613f71573d6000803e3d6000fd5b505050506040513d6020811015613f8757600080fd5b505114610eb6576040805162461bcd60e51b815260206004820152601560248201527409a929cbe9c8aa8be888a84a840dad2e6dac2e8c6d605b1b604482015290519081900360640190fd5b6003546040516000916001600160a01b0316907f8be0079c531659141344cd1fd0a4f28419497f9722a3daafe3b4186f6b6457e0908390a3600380546001600160a01b0319169055565b6000821561403e5760006140358461153287866136ec565b91506120219050565b50600019612021565b601280546001600160a01b0383166000908152601460209081526040918290209283556013546001909301839055925481519081529283019190915280517fc437f324d85e369394148dd9d62f98f534b382e01ed3dd2eb98138fb6d3ab49a9281900390910190a150565b60c8900490565b60008060006140c78461148e565b905060006140d485612b2e565b6001600160a01b0386166000908152600e6020526040812060010154919250906140fe9084613d26565b6001600160a01b0387166000908152600e6020526040812054919250906141259084613d26565b919550909350505050915091565b6000811561415957614152826115328568056bc75e2d631000006136ec565b9050610f14565b50600019610f14565b60008061416d612039565b90506000614179611af6565b905061418682828661401d565b949350505050565b6611c37937e0800081108015906141ad5750670de0b6b3a76400008111155b610eb65760405162461bcd60e51b8152600401808060200182810382526030815260200180615c456030913960400191505060405180910390fd5b60095460408051631e425be160e11b815290516000926001600160a01b031691633c84b7c2916004808301926020929190829003018186803b15801561422d57600080fd5b505afa158015614241573d6000803e3d6000fd5b505050506040513d602081101561425757600080fd5b505190506142688162127500613d26565b421015610eb65760405162461bcd60e51b8152600401808060200182810382526040815260200180615aef6040913960400191505060405180910390fd5b670f43fc2c04ee00006142b882614162565b1015610eb65760405162461bcd60e51b815260040180806020018281038252602a815260200180615c75602a913960400191505060405180910390fd5b60008111610eb65760405162461bcd60e51b815260040180806020018281038252602e815260200180615be1602e913960400191505060405180910390fd5b80836001600160a01b03166370a08231846040518263ffffffff1660e01b815260040180826001600160a01b0316815260200191505060206040518083038186803b15801561438257600080fd5b505afa158015614396573d6000803e3d6000fd5b505050506040513d60208110156143ac57600080fd5b50511015612ce05760405162461bcd60e51b815260040180806020018281038252604e815260200180615a77604e913960600191505060405180910390fd5b60006001600160a01b03831615806144795750836001600160a01b0316635dbe47e8846040518263ffffffff1660e01b815260040180826001600160a01b0316815260200191505060206040518083038186803b15801561444b57600080fd5b505afa15801561445f573d6000803e3d6000fd5b505050506040513d602081101561447557600080fd5b5051155b806144945750670f43fc2c04ee000061449284846129ca565b105b156144a157506000612021565b6000846001600160a01b031663765e0159856040518263ffffffff1660e01b815260040180826001600160a01b0316815260200191505060206040518083038186803b1580156144f057600080fd5b505afa158015614504573d6000803e3d6000fd5b505050506040513d602081101561451a57600080fd5b505190506001600160a01b03811615806121ae5750670f43fc2c04ee000061454282856129ca565b1095945050505050565b6145546159e9565b6001600160a01b0387166000908152600e60205260409020546145a290879061459d907f0000000000000000000000000000000000000000000000000000000000000000612d01565b615444565b8082526145bd90869061153290670de0b6b3a76400006136ec565b60208083019190915281516001600160a01b0389166000908152600e90925260408220546145ea91612d01565b6020808401516001600160a01b038b166000908152600e9092526040822060010154929350909161461a91612d01565b90507f00000000000000000000000000000000000000000000000000000000000000008214156146de5761464d89614c6b565b614658896004614952565b6146848a8a7f00000000000000000000000000000000000000000000000000000000000000008461555e565b886001600160a01b0316600080516020615b5083398151915260008060006003604051808581526020018481526020018381526020018260038111156146c657fe5b815260200194505050505060405180910390a2614832565b60006146ea8284614133565b9050848114158061472257507f000000000000000000000000000000000000000000000000000000000000000061472084613787565b105b156147365750506001604083015250614835565b60808b01516040805163015f109360e51b81526001600160a01b038d81166004830152602482018590528a81166044830152898116606483015291519190921691632be2126091608480830192600092919082900301818387803b15801561479d57600080fd5b505af11580156147b1573d6000803e3d6000fd5b5050506001600160a01b038b166000908152600e60205260409020848155600101839055506147df8a612ddd565b506001600160a01b038a166000818152600e602090815260409182902060020154825187815291820186905281830152600360608201529051600080516020615b508339815191529181900360800190a2505b50505b979650505050505050565b60008061484b6137b3565b9050600061485d8461153288886136ec565b9050600061487661486f836002613745565b8490613d26565b905061488a81670de0b6b3a7640000615444565b90506000811161489657fe5b600c8190556040805182815290517fc454ee9b76c52f782a256af821b857ca6e125d1e3333bcede402fec2bed9600c9181900360200190a16115386137f7565b6000610f14612a2c6113b4565b60006148fb8361153286670de0b6b3a76400006136ec565b9050818111156133ca576040805162461bcd60e51b815260206004820152601d60248201527f4665652065786365656465642070726f7669646564206d6178696d756d000000604482015290519081900360640190fd5b600081600481111561496057fe5b1415801561497a5750600181600481111561497757fe5b14155b61498057fe5b60155461498c81615700565b6001600160a01b0383166000908152600e60205260409020600301805483919060ff191660018360048111156149be57fe5b02179055506001600160a01b0383166000908152600e60209081526040808320600180820185905590849055601490925282208281550155614a008382614ac4565b600b5460408051631484968760e11b81526001600160a01b038681166004830152915191909216916329092d0e91602480830192600092919082900301818387803b158015614a4e57600080fd5b505af1158015614a62573d6000803e3d6000fd5b50505050505050565b600080614a84670de0b6b3a764000061153286866136ec565b90508281106120215760405162461bcd60e51b8152600401808060200182810382526036815260200180615c0f6036913960400191505060405180910390fd5b6001600160a01b0382166000908152600e602052604081206003015460ff1690816004811115614af057fe5b14158015614b0a57506001816004811115614b0757fe5b14155b614b1057fe5b6001600160a01b0383166000908152600e602052604081206003015461010090046001600160801b0316908390614b48826001612d01565b905080836001600160801b03161115614b5d57fe5b600060158281548110614b6c57fe5b600091825260209091200154601580546001600160a01b03909216925082916001600160801b038716908110614b9e57fe5b600091825260208083209190910180546001600160a01b0319166001600160a01b03948516179055918316808252600e83526040918290206003018054610100600160881b0319166101006001600160801b038a169081029190911790915582519182529281019290925280517f02b04ae5f7be9ca7c103293a2aa15f3c339d15d6eda53b721fef7b0e609c831a9281900390910190a16015805480614c4057fe5b600082815260209020810160001990810180546001600160a01b031916905501905550505050505050565b6001600160a01b0381166000908152600e6020526040902060020154600f54614c949082612d01565b600f55506001600160a01b03166000908152600e6020526040812060020155565b826001600160a01b0316632a7ba1f7836040518263ffffffff1660e01b815260040180828152602001915050600060405180830381600087803b158015614cfb57600080fd5b505af1158015614d0f573d6000803e3d6000fd5b50505050836001600160a01b0316632b7c7b11836040518263ffffffff1660e01b815260040180828152602001915050600060405180830381600087803b158015614d5957600080fd5b505af1158015614d6d573d6000803e3d6000fd5b50505050826001600160a01b0316638f7be730826040518263ffffffff1660e01b815260040180828152602001915050600060405180830381600087803b1580156135ec57600080fd5b60008184841115614e465760405162461bcd60e51b81526004018080602001828103825283818151815260200191508051906020019080838360005b83811015614e0b578181015183820152602001614df3565b50505050905090810190601f168015614e385780820380516001836020036101000a031916815260200191505b509250505060405180910390fd5b505050900390565b60008060115460001415614e63575081610f14565b600060105411614e6f57fe5b612021601154611532601054866136ec90919063ffffffff16565b614e92615910565b614e9a615a0c565b601554600110614eaa5750614835565b614eb3876121d1565b60408501526020848101919091528401819052908352614ed2906140b2565b604083018190527f000000000000000000000000000000000000000000000000000000000000000060608401526020830151614f0d91612d01565b8152670de0b6b3a7640000861161500f57614f32898983602001518460400151614cb5565b614f3b87614c6b565b60006080830181905260a0830152815160c0830152805160e0830152614f62876003614952565b866001600160a01b0316600080516020615a2e83398151915283600001518460200151600260405180848152602001838152602001826003811115614fa357fe5b8152602001935050505060405180910390a2866001600160a01b0316600080516020615b508339815191526000806000600260405180858152602001848152602001838152602001826003811115614ff757fe5b815260200194505050505060405180910390a26151bc565b670de0b6b3a76400008611801561502d5750670f43fc2c04ee000086105b1561507d57615046898983602001518460400151614cb5565b61504f87614c6b565b8151815161505e9190876157b9565b60e086015260c085015260a08401526080830152614f62876003614952565b670f43fc2c04ee0000861015801561509457508386105b80156150a1575081518510155b156151ab576150ba898983602001518460400151614cb5565b846150c157fe5b6150ca87614c6b565b6150dd8260000151836020015185615813565b91506150ea876003614952565b6101008201511561516a5760075461010083015160408051633f10abab60e01b81526001600160a01b038b81166004830152602482019390935290519190921691633f10abab91604480830192600092919082900301818387803b15801561515157600080fd5b505af1158015615165573d6000803e3d6000fd5b505050505b866001600160a01b0316600080516020615a2e83398151915283600001518460a00151600260405180848152602001838152602001826003811115614fa357fe5b6151b3615910565b91506148359050565b50979650505050505050565b6151d0615910565b604080830151908401516151e391613d26565b6040820152606080830151908401516151fb91613d26565b60608201528151602084015161521091613d26565b602080830191909152820151835161522791613d26565b81526080808301519084015161523c91613d26565b608082015260a0808301519084015161525491613d26565b60a082015260c0808301519084015161526c91613d26565b60c082015260e0808301519084015161528491613d26565b60e0820152610100808301519084015161529d91613d26565b61010082015292915050565b6000806152b785858561401d565b6714d1120d7b1600001195945050505050565b6152d2615910565b6152da615a0c565b6152e3846121d1565b6040850190815260208581019283528601929092529184529051905161530d918891889190614cb5565b61531684614c6b565b61532382602001516140b2565b604083018190527f0000000000000000000000000000000000000000000000000000000000000000606084015260208301516000916153629190612d01565b9050615373836000015182866157b9565b60e087015260c086015260a08501526080840152615392856003614952565b846001600160a01b0316600080516020615a2e833981519152846000015185602001516001604051808481526020018381526020018260038111156153d357fe5b8152602001935050505060405180910390a2846001600160a01b0316600080516020615b50833981519152600080600060016040518085815260200184815260200183815260200182600381111561542757fe5b815260200194505050505060405180910390a25050949350505050565b60008183106154535781612021565b5090919050565b600081836154a95760405162461bcd60e51b8152602060048201818152835160248401528351909283926044909101919085019080838360008315614e0b578181015183820152602001614df3565b5060008385816154b557fe5b0495945050505050565b6000631f5405008211156154d557631f54050091505b816154e95750670de0b6b3a7640000610f14565b670de0b6b3a764000083835b600181111561555457600281066155245761551082836158b2565b915061551d816002613745565b905061554f565b61552e82846158b2565b925061553a82836158b2565b915061554c6002611532836001612d01565b90505b6154f5565b61153882846158b2565b6040808501516006548251632770a7eb60e21b81526001600160a01b039182166004820152602481018690529251911691639dc29fac91604480830192600092919082900301818387803b1580156155b557600080fd5b505af11580156155c9573d6000803e3d6000fd5b5050505083600001516001600160a01b0316632a7ba1f7836040518263ffffffff1660e01b815260040180828152602001915050600060405180830381600087803b15801561561757600080fd5b505af115801561562b573d6000803e3d6000fd5b505050508360a001516001600160a01b0316633f10abab84836040518363ffffffff1660e01b815260040180836001600160a01b0316815260200182815260200192505050600060405180830381600087803b15801561568a57600080fd5b505af115801561569e573d6000803e3d6000fd5b5050505083600001516001600160a01b0316628063a58560a00151836040518363ffffffff1660e01b815260040180836001600160a01b0316815260200182815260200192505050600060405180830381600087803b1580156135ec57600080fd5b60018111801561577e5750600b546040805163de8fa43160e01b815290516001926001600160a01b03169163de8fa431916004808301926020929190829003018186803b15801561575057600080fd5b505afa158015615764573d6000803e3d6000fd5b505050506040513d602081101561577a57600080fd5b5051115b610eb65760405162461bcd60e51b815260040180806020018281038252602a815260200180615ac5602a913960400191505060405180910390fd5b600080808084156157fd576157ce8786615444565b93506157de8761153288876136ec565b92506157ea8785612d01565b91506157f68684612d01565b905061580a565b5060009250829150859050845b93509350935093565b61581b615910565b83815260208101839052600061583d8361153287670f43fc2c04ee00006136ec565b9050615848816140b2565b604083018190527f0000000000000000000000000000000000000000000000000000000000000000606084015260808301869052615887908290612d01565b60a08301526158968482612d01565b61010083015250600060c0820181905260e08201529392505050565b6000806158bf84846136ec565b9050614186670de0b6b3a7640000611532836706f05b59d3b20000613d26565b6040518060a00160405280600081526020016000815260200160001515815260200160008152602001600081525090565b6040518061012001604052806000815260200160008152602001600081526020016000815260200160008152602001600081526020016000815260200160008152602001600081525090565b60405180610100016040528060008152602001600081526020016000815260200160008152602001600081526020016000815260200160008152602001600081525090565b6040518060e0016040528060008152602001600081526020016000815260200160006001600160a01b0316815260200160001515815260200160008152602001600081525090565b604051806060016040528060008152602001600081526020016000151581525090565b6040518060600160405280600081526020016000815260200160008152509056feea67486ed7ebe3eea8ab3390efd4a3c8aae48be5bea27df104a8af786c40843454726f76654d616e616765723a20556e61626c6520746f2072656465656d20616e7920616d6f756e7454726f76654d616e616765723a2052657175657374656420726564656d7074696f6e20616d6f756e74206d757374206265203c3d20757365722773206465627420746f6b656e2062616c616e636554726f76654d616e616765723a204f6e6c79206f6e652074726f766520696e207468652073797374656d54726f76654d616e616765723a20526564656d7074696f6e7320617265206e6f7420616c6c6f77656420647572696e6720626f6f747374726170207068617365536166654d6174683a206d756c7469706c69636174696f6e206f766572666c6f77c3770d654ed33aeea6bf11ac8ef05d02a6a04ed4686dd2f624d853bbec43cc8b54726f76654d616e616765723a2043616c6c6572206973206e6f742074686520426f72726f7765724f7065726174696f6e7320636f6e747261637454726f76654d616e616765723a2043616c6c646174612061646472657373206172726179206d757374206e6f7420626520656d70747954726f76654d616e616765723a20416d6f756e74206d7573742062652067726561746572207468616e207a65726f54726f76654d616e616765723a2046656520776f756c642065617420757020616c6c2072657475726e656420636f6c6c61746572616c4d6178206665652070657263656e74616765206d757374206265206265747765656e20302e352520616e64203130302554726f76654d616e616765723a2043616e6e6f742072656465656d207768656e20544352203c204d435254726f76654d616e616765723a206e6f7468696e6720746f206c697175696461746554726f76654d616e616765723a2054726f766520646f6573206e6f74206578697374206f7220697320636c6f736564a2646970667358221220caa8b39d9ffe4d7541e9a6b37bc4ae5a7164942eb44bca66c3d1a8ed4cd4e0e864736f6c63430007060033",
  "linkReferences": {},
  "deployedLinkReferences": {}
}