{
  "_format": "hh-sol-artifact-1",
  "contractName": "TroveManager",
  "sourceName": "contracts/TroveManager.sol",
  "abi": [
    {
      "inputs": [
        {
          "internalType": "uint256",
          "name": "_gasCompensation",
          "type": "uint256"
        },
        {
          "internalType": "uint256",
          "name": "_minNetDebt",
          "type": "uint256"
        },
        {
          "internalType": "uint256",
          "name": "_bootstrapPeriod",
          "type": "uint256"
        }
      ],
      "stateMutability": "nonpayable",
      "type": "constructor"
    },
    {
      "anonymous": false,
      "inputs": [
        {
          "indexed": false,
          "internalType": "address",
          "name": "_activePoolAddress",
          "type": "address"
        }
      ],
      "name": "ActivePoolAddressChanged",
      "type": "event"
    },
    {
      "anonymous": false,
      "inputs": [
        {
          "indexed": false,
          "internalType": "uint256",
          "name": "_baseRate",
          "type": "uint256"
        }
      ],
      "name": "BaseRateUpdated",
      "type": "event"
    },
    {
      "anonymous": false,
      "inputs": [
        {
          "indexed": false,
          "internalType": "address",
          "name": "_newBorrowerOperationsAddress",
          "type": "address"
        }
      ],
      "name": "BorrowerOperationsAddressChanged",
      "type": "event"
    },
    {
      "anonymous": false,
      "inputs": [
        {
          "indexed": false,
          "internalType": "address",
          "name": "_collSurplusPoolAddress",
          "type": "address"
        }
      ],
      "name": "CollSurplusPoolAddressChanged",
      "type": "event"
    },
    {
      "anonymous": false,
      "inputs": [
        {
          "indexed": false,
          "internalType": "address",
          "name": "_newDebtTokenAddress",
          "type": "address"
        }
      ],
      "name": "DebtTokenAddressChanged",
      "type": "event"
    },
    {
      "anonymous": false,
      "inputs": [
        {
          "indexed": false,
          "internalType": "address",
          "name": "_defaultPoolAddress",
          "type": "address"
        }
      ],
      "name": "DefaultPoolAddressChanged",
      "type": "event"
    },
    {
      "anonymous": false,
      "inputs": [
        {
          "indexed": false,
          "internalType": "address",
          "name": "_gasPoolAddress",
          "type": "address"
        }
      ],
      "name": "GasPoolAddressChanged",
      "type": "event"
    },
    {
      "anonymous": false,
      "inputs": [
        {
          "indexed": false,
          "internalType": "uint256",
          "name": "_L_FIL",
          "type": "uint256"
        },
        {
          "indexed": false,
          "internalType": "uint256",
          "name": "_L_Debt",
          "type": "uint256"
        }
      ],
      "name": "LTermsUpdated",
      "type": "event"
    },
    {
      "anonymous": false,
      "inputs": [
        {
          "indexed": false,
          "internalType": "uint256",
          "name": "_lastFeeOpTime",
          "type": "uint256"
        }
      ],
      "name": "LastFeeOpTimeUpdated",
      "type": "event"
    },
    {
      "anonymous": false,
      "inputs": [
        {
          "indexed": false,
          "internalType": "uint256",
          "name": "_liquidatedDebt",
          "type": "uint256"
        },
        {
          "indexed": false,
          "internalType": "uint256",
          "name": "_liquidatedColl",
          "type": "uint256"
        },
        {
          "indexed": false,
          "internalType": "uint256",
          "name": "_collGasCompensation",
          "type": "uint256"
        },
        {
          "indexed": false,
          "internalType": "uint256",
          "name": "_debtGasCompensation",
          "type": "uint256"
        }
      ],
      "name": "Liquidation",
      "type": "event"
    },
    {
      "anonymous": false,
      "inputs": [
        {
          "indexed": true,
          "internalType": "address",
          "name": "previousOwner",
          "type": "address"
        },
        {
          "indexed": true,
          "internalType": "address",
          "name": "newOwner",
          "type": "address"
        }
      ],
      "name": "OwnershipTransferred",
      "type": "event"
    },
    {
      "anonymous": false,
      "inputs": [
        {
          "indexed": false,
          "internalType": "address",
          "name": "_newPriceFeedAddress",
          "type": "address"
        }
      ],
      "name": "PriceFeedAddressChanged",
      "type": "event"
    },
    {
      "anonymous": false,
      "inputs": [
        {
          "indexed": false,
          "internalType": "address",
          "name": "_protocolTokenAddress",
          "type": "address"
        }
      ],
      "name": "ProtocolTokenAddressChanged",
      "type": "event"
    },
    {
      "anonymous": false,
      "inputs": [
        {
          "indexed": false,
          "internalType": "address",
          "name": "_protocolTokenStakingAddress",
          "type": "address"
        }
      ],
      "name": "ProtocolTokenStakingAddressChanged",
      "type": "event"
    },
    {
      "anonymous": false,
      "inputs": [
        {
          "indexed": false,
          "internalType": "uint256",
          "name": "_attemptedDebtTokenAmount",
          "type": "uint256"
        },
        {
          "indexed": false,
          "internalType": "uint256",
          "name": "_actualDebtTokenAmount",
          "type": "uint256"
        },
        {
          "indexed": false,
          "internalType": "uint256",
          "name": "_FILSent",
          "type": "uint256"
        },
        {
          "indexed": false,
          "internalType": "uint256",
          "name": "_FILFee",
          "type": "uint256"
        }
      ],
      "name": "Redemption",
      "type": "event"
    },
    {
      "anonymous": false,
      "inputs": [
        {
          "indexed": false,
          "internalType": "address",
          "name": "_sortedTrovesAddress",
          "type": "address"
        }
      ],
      "name": "SortedTrovesAddressChanged",
      "type": "event"
    },
    {
      "anonymous": false,
      "inputs": [
        {
          "indexed": false,
          "internalType": "address",
          "name": "_stabilityPoolAddress",
          "type": "address"
        }
      ],
      "name": "StabilityPoolAddressChanged",
      "type": "event"
    },
    {
      "anonymous": false,
      "inputs": [
        {
          "indexed": false,
          "internalType": "uint256",
          "name": "_totalStakesSnapshot",
          "type": "uint256"
        },
        {
          "indexed": false,
          "internalType": "uint256",
          "name": "_totalCollateralSnapshot",
          "type": "uint256"
        }
      ],
      "name": "SystemSnapshotsUpdated",
      "type": "event"
    },
    {
      "anonymous": false,
      "inputs": [
        {
          "indexed": false,
          "internalType": "uint256",
          "name": "_newTotalStakes",
          "type": "uint256"
        }
      ],
      "name": "TotalStakesUpdated",
      "type": "event"
    },
    {
      "anonymous": false,
      "inputs": [
        {
          "indexed": false,
          "internalType": "address",
          "name": "_borrower",
          "type": "address"
        },
        {
          "indexed": false,
          "internalType": "uint256",
          "name": "_newIndex",
          "type": "uint256"
        }
      ],
      "name": "TroveIndexUpdated",
      "type": "event"
    },
    {
      "anonymous": false,
      "inputs": [
        {
          "indexed": true,
          "internalType": "address",
          "name": "_borrower",
          "type": "address"
        },
        {
          "indexed": false,
          "internalType": "uint256",
          "name": "_debt",
          "type": "uint256"
        },
        {
          "indexed": false,
          "internalType": "uint256",
          "name": "_coll",
          "type": "uint256"
        },
        {
          "indexed": false,
          "internalType": "enum ITroveManager.TroveManagerOperation",
          "name": "_operation",
          "type": "uint8"
        }
      ],
      "name": "TroveLiquidated",
      "type": "event"
    },
    {
      "anonymous": false,
      "inputs": [
        {
          "indexed": false,
          "internalType": "uint256",
          "name": "_L_FIL",
          "type": "uint256"
        },
        {
          "indexed": false,
          "internalType": "uint256",
          "name": "_L_Debt",
          "type": "uint256"
        }
      ],
      "name": "TroveSnapshotsUpdated",
      "type": "event"
    },
    {
      "anonymous": false,
      "inputs": [
        {
          "indexed": true,
          "internalType": "address",
          "name": "_borrower",
          "type": "address"
        },
        {
          "indexed": false,
          "internalType": "uint256",
          "name": "_debt",
          "type": "uint256"
        },
        {
          "indexed": false,
          "internalType": "uint256",
          "name": "_coll",
          "type": "uint256"
        },
        {
          "indexed": false,
          "internalType": "uint256",
          "name": "stake",
          "type": "uint256"
        },
        {
          "indexed": false,
          "internalType": "enum ITroveManager.TroveManagerOperation",
          "name": "_operation",
          "type": "uint8"
        }
      ],
      "name": "TroveUpdated",
      "type": "event"
    },
    {
      "inputs": [],
      "name": "BETA",
      "outputs": [
        {
          "internalType": "uint256",
          "name": "",
          "type": "uint256"
        }
      ],
      "stateMutability": "view",
      "type": "function"
    },
    {
      "inputs": [],
      "name": "BOOTSTRAP_PERIOD",
      "outputs": [
        {
          "internalType": "uint256",
          "name": "",
          "type": "uint256"
        }
      ],
      "stateMutability": "view",
      "type": "function"
    },
    {
      "inputs": [],
      "name": "BORROWING_FEE_FLOOR",
      "outputs": [
        {
          "internalType": "uint256",
          "name": "",
          "type": "uint256"
        }
      ],
      "stateMutability": "view",
      "type": "function"
    },
    {
      "inputs": [],
      "name": "CCR",
      "outputs": [
        {
          "internalType": "uint256",
          "name": "",
          "type": "uint256"
        }
      ],
      "stateMutability": "view",
      "type": "function"
    },
    {
      "inputs": [],
      "name": "DECIMAL_PRECISION",
      "outputs": [
        {
          "internalType": "uint256",
          "name": "",
          "type": "uint256"
        }
      ],
      "stateMutability": "view",
      "type": "function"
    },
    {
      "inputs": [],
      "name": "GAS_COMPENSATION",
      "outputs": [
        {
          "internalType": "uint256",
          "name": "",
          "type": "uint256"
        }
      ],
      "stateMutability": "view",
      "type": "function"
    },
    {
      "inputs": [],
      "name": "L_Debt",
      "outputs": [
        {
          "internalType": "uint256",
          "name": "",
          "type": "uint256"
        }
      ],
      "stateMutability": "view",
      "type": "function"
    },
    {
      "inputs": [],
      "name": "L_FIL",
      "outputs": [
        {
          "internalType": "uint256",
          "name": "",
          "type": "uint256"
        }
      ],
      "stateMutability": "view",
      "type": "function"
    },
    {
      "inputs": [],
      "name": "MAX_BORROWING_FEE",
      "outputs": [
        {
          "internalType": "uint256",
          "name": "",
          "type": "uint256"
        }
      ],
      "stateMutability": "view",
      "type": "function"
    },
    {
      "inputs": [],
      "name": "MCR",
      "outputs": [
        {
          "internalType": "uint256",
          "name": "",
          "type": "uint256"
        }
      ],
      "stateMutability": "view",
      "type": "function"
    },
    {
      "inputs": [],
      "name": "MINUTE_DECAY_FACTOR",
      "outputs": [
        {
          "internalType": "uint256",
          "name": "",
          "type": "uint256"
        }
      ],
      "stateMutability": "view",
      "type": "function"
    },
    {
      "inputs": [],
      "name": "MIN_NET_DEBT",
      "outputs": [
        {
          "internalType": "uint256",
          "name": "",
          "type": "uint256"
        }
      ],
      "stateMutability": "view",
      "type": "function"
    },
    {
      "inputs": [],
      "name": "NAME",
      "outputs": [
        {
          "internalType": "string",
          "name": "",
          "type": "string"
        }
      ],
      "stateMutability": "view",
      "type": "function"
    },
    {
      "inputs": [],
      "name": "PERCENT_DIVISOR",
      "outputs": [
        {
          "internalType": "uint256",
          "name": "",
          "type": "uint256"
        }
      ],
      "stateMutability": "view",
      "type": "function"
    },
    {
      "inputs": [],
      "name": "REDEMPTION_FEE_FLOOR",
      "outputs": [
        {
          "internalType": "uint256",
          "name": "",
          "type": "uint256"
        }
      ],
      "stateMutability": "view",
      "type": "function"
    },
    {
      "inputs": [],
      "name": "SECONDS_IN_ONE_MINUTE",
      "outputs": [
        {
          "internalType": "uint256",
          "name": "",
          "type": "uint256"
        }
      ],
      "stateMutability": "view",
      "type": "function"
    },
    {
      "inputs": [
        {
          "internalType": "uint256",
          "name": "",
          "type": "uint256"
        }
      ],
      "name": "TroveOwners",
      "outputs": [
        {
          "internalType": "address",
          "name": "",
          "type": "address"
        }
      ],
      "stateMutability": "view",
      "type": "function"
    },
    {
      "inputs": [
        {
          "internalType": "address",
          "name": "",
          "type": "address"
        }
      ],
      "name": "Troves",
      "outputs": [
        {
          "internalType": "uint256",
          "name": "debt",
          "type": "uint256"
        },
        {
          "internalType": "uint256",
          "name": "coll",
          "type": "uint256"
        },
        {
          "internalType": "uint256",
          "name": "stake",
          "type": "uint256"
        },
        {
          "internalType": "enum ITroveManager.Status",
          "name": "status",
          "type": "uint8"
        },
        {
          "internalType": "uint128",
          "name": "arrayIndex",
          "type": "uint128"
        }
      ],
      "stateMutability": "view",
      "type": "function"
    },
    {
      "inputs": [],
      "name": "_100pct",
      "outputs": [
        {
          "internalType": "uint256",
          "name": "",
          "type": "uint256"
        }
      ],
      "stateMutability": "view",
      "type": "function"
    },
    {
      "inputs": [],
      "name": "activePool",
      "outputs": [
        {
          "internalType": "contract IActivePool",
          "name": "",
          "type": "address"
        }
      ],
      "stateMutability": "view",
      "type": "function"
    },
    {
      "inputs": [
        {
          "internalType": "address",
          "name": "_borrower",
          "type": "address"
        }
      ],
      "name": "addTroveOwnerToArray",
      "outputs": [
        {
          "internalType": "uint256",
          "name": "index",
          "type": "uint256"
        }
      ],
      "stateMutability": "nonpayable",
      "type": "function"
    },
    {
      "inputs": [
        {
          "internalType": "address",
          "name": "_borrower",
          "type": "address"
        }
      ],
      "name": "applyPendingRewards",
      "outputs": [],
      "stateMutability": "nonpayable",
      "type": "function"
    },
    {
      "inputs": [],
      "name": "baseRate",
      "outputs": [
        {
          "internalType": "uint256",
          "name": "",
          "type": "uint256"
        }
      ],
      "stateMutability": "view",
      "type": "function"
    },
    {
      "inputs": [
        {
          "internalType": "address[]",
          "name": "_troveArray",
          "type": "address[]"
        }
      ],
      "name": "batchLiquidateTroves",
      "outputs": [],
      "stateMutability": "nonpayable",
      "type": "function"
    },
    {
      "inputs": [],
      "name": "borrowerOperationsAddress",
      "outputs": [
        {
          "internalType": "address",
          "name": "",
          "type": "address"
        }
      ],
      "stateMutability": "view",
      "type": "function"
    },
    {
      "inputs": [
        {
          "internalType": "uint256",
          "name": "_price",
          "type": "uint256"
        }
      ],
      "name": "checkRecoveryMode",
      "outputs": [
        {
          "internalType": "bool",
          "name": "",
          "type": "bool"
        }
      ],
      "stateMutability": "view",
      "type": "function"
    },
    {
      "inputs": [
        {
          "internalType": "address",
          "name": "_borrower",
          "type": "address"
        }
      ],
      "name": "closeTrove",
      "outputs": [],
      "stateMutability": "nonpayable",
      "type": "function"
    },
    {
      "inputs": [],
      "name": "collSurplusPool",
      "outputs": [
        {
          "internalType": "contract ICollSurplusPool",
          "name": "",
          "type": "address"
        }
      ],
      "stateMutability": "view",
      "type": "function"
    },
    {
      "inputs": [],
      "name": "debtToken",
      "outputs": [
        {
          "internalType": "contract IDebtToken",
          "name": "",
          "type": "address"
        }
      ],
      "stateMutability": "view",
      "type": "function"
    },
    {
      "inputs": [],
      "name": "decayBaseRateFromBorrowing",
      "outputs": [],
      "stateMutability": "nonpayable",
      "type": "function"
    },
    {
      "inputs": [
        {
          "internalType": "address",
          "name": "_borrower",
          "type": "address"
        },
        {
          "internalType": "uint256",
          "name": "_collDecrease",
          "type": "uint256"
        }
      ],
      "name": "decreaseTroveColl",
      "outputs": [
        {
          "internalType": "uint256",
          "name": "",
          "type": "uint256"
        }
      ],
      "stateMutability": "nonpayable",
      "type": "function"
    },
    {
      "inputs": [
        {
          "internalType": "address",
          "name": "_borrower",
          "type": "address"
        },
        {
          "internalType": "uint256",
          "name": "_debtDecrease",
          "type": "uint256"
        }
      ],
      "name": "decreaseTroveDebt",
      "outputs": [
        {
          "internalType": "uint256",
          "name": "",
          "type": "uint256"
        }
      ],
      "stateMutability": "nonpayable",
      "type": "function"
    },
    {
      "inputs": [],
      "name": "defaultPool",
      "outputs": [
        {
          "internalType": "contract IDefaultPool",
          "name": "",
          "type": "address"
        }
      ],
      "stateMutability": "view",
      "type": "function"
    },
    {
      "inputs": [],
      "name": "deploymentStartTime",
      "outputs": [
        {
          "internalType": "uint256",
          "name": "",
          "type": "uint256"
        }
      ],
      "stateMutability": "view",
      "type": "function"
    },
    {
      "inputs": [],
      "name": "gasPoolAddress",
      "outputs": [
        {
          "internalType": "address",
          "name": "",
          "type": "address"
        }
      ],
      "stateMutability": "view",
      "type": "function"
    },
    {
      "inputs": [
        {
          "internalType": "uint256",
          "name": "_debt",
          "type": "uint256"
        }
      ],
      "name": "getBorrowingFee",
      "outputs": [
        {
          "internalType": "uint256",
          "name": "",
          "type": "uint256"
        }
      ],
      "stateMutability": "view",
      "type": "function"
    },
    {
      "inputs": [
        {
          "internalType": "uint256",
          "name": "_debt",
          "type": "uint256"
        }
      ],
      "name": "getBorrowingFeeWithDecay",
      "outputs": [
        {
          "internalType": "uint256",
          "name": "",
          "type": "uint256"
        }
      ],
      "stateMutability": "view",
      "type": "function"
    },
    {
      "inputs": [],
      "name": "getBorrowingRate",
      "outputs": [
        {
          "internalType": "uint256",
          "name": "",
          "type": "uint256"
        }
      ],
      "stateMutability": "view",
      "type": "function"
    },
    {
      "inputs": [],
      "name": "getBorrowingRateWithDecay",
      "outputs": [
        {
          "internalType": "uint256",
          "name": "",
          "type": "uint256"
        }
      ],
      "stateMutability": "view",
      "type": "function"
    },
    {
      "inputs": [
        {
          "internalType": "address",
          "name": "_borrower",
          "type": "address"
        },
        {
          "internalType": "uint256",
          "name": "_price",
          "type": "uint256"
        }
      ],
      "name": "getCurrentICR",
      "outputs": [
        {
          "internalType": "uint256",
          "name": "",
          "type": "uint256"
        }
      ],
      "stateMutability": "view",
      "type": "function"
    },
    {
      "inputs": [
        {
          "internalType": "address",
          "name": "_borrower",
          "type": "address"
        }
      ],
      "name": "getEntireDebtAndColl",
      "outputs": [
        {
          "internalType": "uint256",
          "name": "debt",
          "type": "uint256"
        },
        {
          "internalType": "uint256",
          "name": "coll",
          "type": "uint256"
        },
        {
          "internalType": "uint256",
          "name": "pendingDebtReward",
          "type": "uint256"
        },
        {
          "internalType": "uint256",
          "name": "pendingFILReward",
          "type": "uint256"
        }
      ],
      "stateMutability": "view",
      "type": "function"
    },
    {
      "inputs": [],
      "name": "getEntireSystemColl",
      "outputs": [
        {
          "internalType": "uint256",
          "name": "entireSystemColl",
          "type": "uint256"
        }
      ],
      "stateMutability": "view",
      "type": "function"
    },
    {
      "inputs": [],
      "name": "getEntireSystemDebt",
      "outputs": [
        {
          "internalType": "uint256",
          "name": "entireSystemDebt",
          "type": "uint256"
        }
      ],
      "stateMutability": "view",
      "type": "function"
    },
    {
      "inputs": [
        {
          "internalType": "address",
          "name": "_borrower",
          "type": "address"
        }
      ],
      "name": "getNominalICR",
      "outputs": [
        {
          "internalType": "uint256",
          "name": "",
          "type": "uint256"
        }
      ],
      "stateMutability": "view",
      "type": "function"
    },
    {
      "inputs": [
        {
          "internalType": "address",
          "name": "_borrower",
          "type": "address"
        }
      ],
      "name": "getPendingDebtReward",
      "outputs": [
        {
          "internalType": "uint256",
          "name": "",
          "type": "uint256"
        }
      ],
      "stateMutability": "view",
      "type": "function"
    },
    {
      "inputs": [
        {
          "internalType": "address",
          "name": "_borrower",
          "type": "address"
        }
      ],
      "name": "getPendingFILReward",
      "outputs": [
        {
          "internalType": "uint256",
          "name": "",
          "type": "uint256"
        }
      ],
      "stateMutability": "view",
      "type": "function"
    },
    {
      "inputs": [
        {
          "internalType": "uint256",
          "name": "_FILDrawn",
          "type": "uint256"
        }
      ],
      "name": "getRedemptionFeeWithDecay",
      "outputs": [
        {
          "internalType": "uint256",
          "name": "",
          "type": "uint256"
        }
      ],
      "stateMutability": "view",
      "type": "function"
    },
    {
      "inputs": [],
      "name": "getRedemptionRate",
      "outputs": [
        {
          "internalType": "uint256",
          "name": "",
          "type": "uint256"
        }
      ],
      "stateMutability": "view",
      "type": "function"
    },
    {
      "inputs": [],
      "name": "getRedemptionRateWithDecay",
      "outputs": [
        {
          "internalType": "uint256",
          "name": "",
          "type": "uint256"
        }
      ],
      "stateMutability": "view",
      "type": "function"
    },
    {
      "inputs": [
        {
          "internalType": "uint256",
          "name": "_price",
          "type": "uint256"
        }
      ],
      "name": "getTCR",
      "outputs": [
        {
          "internalType": "uint256",
          "name": "",
          "type": "uint256"
        }
      ],
      "stateMutability": "view",
      "type": "function"
    },
    {
      "inputs": [
        {
          "internalType": "address",
          "name": "_borrower",
          "type": "address"
        }
      ],
      "name": "getTroveColl",
      "outputs": [
        {
          "internalType": "uint256",
          "name": "",
          "type": "uint256"
        }
      ],
      "stateMutability": "view",
      "type": "function"
    },
    {
      "inputs": [
        {
          "internalType": "address",
          "name": "_borrower",
          "type": "address"
        }
      ],
      "name": "getTroveDebt",
      "outputs": [
        {
          "internalType": "uint256",
          "name": "",
          "type": "uint256"
        }
      ],
      "stateMutability": "view",
      "type": "function"
    },
    {
      "inputs": [
        {
          "internalType": "uint256",
          "name": "_index",
          "type": "uint256"
        }
      ],
      "name": "getTroveFromTroveOwnersArray",
      "outputs": [
        {
          "internalType": "address",
          "name": "",
          "type": "address"
        }
      ],
      "stateMutability": "view",
      "type": "function"
    },
    {
      "inputs": [],
      "name": "getTroveOwnersCount",
      "outputs": [
        {
          "internalType": "uint256",
          "name": "",
          "type": "uint256"
        }
      ],
      "stateMutability": "view",
      "type": "function"
    },
    {
      "inputs": [
        {
          "internalType": "address",
          "name": "_borrower",
          "type": "address"
        }
      ],
      "name": "getTroveStake",
      "outputs": [
        {
          "internalType": "uint256",
          "name": "",
          "type": "uint256"
        }
      ],
      "stateMutability": "view",
      "type": "function"
    },
    {
      "inputs": [
        {
          "internalType": "address",
          "name": "_borrower",
          "type": "address"
        }
      ],
      "name": "getTroveStatus",
      "outputs": [
        {
          "internalType": "uint256",
          "name": "",
          "type": "uint256"
        }
      ],
      "stateMutability": "view",
      "type": "function"
    },
    {
      "inputs": [
        {
          "internalType": "address",
          "name": "_borrower",
          "type": "address"
        }
      ],
      "name": "hasPendingRewards",
      "outputs": [
        {
          "internalType": "bool",
          "name": "",
          "type": "bool"
        }
      ],
      "stateMutability": "view",
      "type": "function"
    },
    {
      "inputs": [
        {
          "internalType": "address",
          "name": "_borrower",
          "type": "address"
        },
        {
          "internalType": "uint256",
          "name": "_collIncrease",
          "type": "uint256"
        }
      ],
      "name": "increaseTroveColl",
      "outputs": [
        {
          "internalType": "uint256",
          "name": "",
          "type": "uint256"
        }
      ],
      "stateMutability": "nonpayable",
      "type": "function"
    },
    {
      "inputs": [
        {
          "internalType": "address",
          "name": "_borrower",
          "type": "address"
        },
        {
          "internalType": "uint256",
          "name": "_debtIncrease",
          "type": "uint256"
        }
      ],
      "name": "increaseTroveDebt",
      "outputs": [
        {
          "internalType": "uint256",
          "name": "",
          "type": "uint256"
        }
      ],
      "stateMutability": "nonpayable",
      "type": "function"
    },
    {
      "inputs": [
        {
          "internalType": "address",
          "name": "_borrowerOperationsAddress",
          "type": "address"
        },
        {
          "internalType": "address",
          "name": "_activePoolAddress",
          "type": "address"
        },
        {
          "internalType": "address",
          "name": "_defaultPoolAddress",
          "type": "address"
        },
        {
          "internalType": "address",
          "name": "_stabilityPoolAddress",
          "type": "address"
        },
        {
          "internalType": "address",
          "name": "_gasPoolAddress",
          "type": "address"
        },
        {
          "internalType": "address",
          "name": "_collSurplusPoolAddress",
          "type": "address"
        },
        {
          "internalType": "address",
          "name": "_priceFeedAddress",
          "type": "address"
        },
        {
          "internalType": "address",
          "name": "_debtTokenAddress",
          "type": "address"
        },
        {
          "internalType": "address",
          "name": "_sortedTrovesAddress",
          "type": "address"
        },
        {
          "internalType": "address",
          "name": "_protocolTokenAddress",
          "type": "address"
        },
        {
          "internalType": "address",
          "name": "_protocolTokenStakingAddress",
          "type": "address"
        }
      ],
      "name": "initialize",
      "outputs": [],
      "stateMutability": "nonpayable",
      "type": "function"
    },
    {
      "inputs": [],
      "name": "lastFILError_Redistribution",
      "outputs": [
        {
          "internalType": "uint256",
          "name": "",
          "type": "uint256"
        }
      ],
      "stateMutability": "view",
      "type": "function"
    },
    {
      "inputs": [],
      "name": "lastFeeOperationTime",
      "outputs": [
        {
          "internalType": "uint256",
          "name": "",
          "type": "uint256"
        }
      ],
      "stateMutability": "view",
      "type": "function"
    },
    {
      "inputs": [],
      "name": "lastLDebtError_Redistribution",
      "outputs": [
        {
          "internalType": "uint256",
          "name": "",
          "type": "uint256"
        }
      ],
      "stateMutability": "view",
      "type": "function"
    },
    {
      "inputs": [
        {
          "internalType": "address",
          "name": "_borrower",
          "type": "address"
        }
      ],
      "name": "liquidate",
      "outputs": [],
      "stateMutability": "nonpayable",
      "type": "function"
    },
    {
      "inputs": [
        {
          "internalType": "uint256",
          "name": "_n",
          "type": "uint256"
        }
      ],
      "name": "liquidateTroves",
      "outputs": [],
      "stateMutability": "nonpayable",
      "type": "function"
    },
    {
      "inputs": [],
      "name": "owner",
      "outputs": [
        {
          "internalType": "address",
          "name": "",
          "type": "address"
        }
      ],
      "stateMutability": "view",
      "type": "function"
    },
    {
      "inputs": [],
      "name": "priceFeed",
      "outputs": [
        {
          "internalType": "contract IPriceFeed",
          "name": "",
          "type": "address"
        }
      ],
      "stateMutability": "view",
      "type": "function"
    },
    {
      "inputs": [],
      "name": "protocolToken",
      "outputs": [
        {
          "internalType": "contract IProtocolToken",
          "name": "",
          "type": "address"
        }
      ],
      "stateMutability": "view",
      "type": "function"
    },
    {
      "inputs": [],
      "name": "protocolTokenStaking",
      "outputs": [
        {
          "internalType": "contract IProtocolTokenStaking",
          "name": "",
          "type": "address"
        }
      ],
      "stateMutability": "view",
      "type": "function"
    },
    {
      "inputs": [
        {
          "internalType": "uint256",
          "name": "_debtTokenAmount",
          "type": "uint256"
        },
        {
          "internalType": "address",
          "name": "_firstRedemptionHint",
          "type": "address"
        },
        {
          "internalType": "address",
          "name": "_upperPartialRedemptionHint",
          "type": "address"
        },
        {
          "internalType": "address",
          "name": "_lowerPartialRedemptionHint",
          "type": "address"
        },
        {
          "internalType": "uint256",
          "name": "_partialRedemptionHintNICR",
          "type": "uint256"
        },
        {
          "internalType": "uint256",
          "name": "_maxIterations",
          "type": "uint256"
        },
        {
          "internalType": "uint256",
          "name": "_maxFeePercentage",
          "type": "uint256"
        }
      ],
      "name": "redeemCollateral",
      "outputs": [],
      "stateMutability": "nonpayable",
      "type": "function"
    },
    {
      "inputs": [
        {
          "internalType": "address",
          "name": "_borrower",
          "type": "address"
        }
      ],
      "name": "removeStake",
      "outputs": [],
      "stateMutability": "nonpayable",
      "type": "function"
    },
    {
      "inputs": [],
      "name": "renounceOwnership",
      "outputs": [],
      "stateMutability": "nonpayable",
      "type": "function"
    },
    {
      "inputs": [
        {
          "internalType": "address",
          "name": "",
          "type": "address"
        }
      ],
      "name": "rewardSnapshots",
      "outputs": [
        {
          "internalType": "uint256",
          "name": "FIL",
          "type": "uint256"
        },
        {
          "internalType": "uint256",
          "name": "debt",
          "type": "uint256"
        }
      ],
      "stateMutability": "view",
      "type": "function"
    },
    {
      "inputs": [
        {
          "internalType": "address",
          "name": "_borrower",
          "type": "address"
        },
        {
          "internalType": "uint256",
          "name": "_num",
          "type": "uint256"
        }
      ],
      "name": "setTroveStatus",
      "outputs": [],
      "stateMutability": "nonpayable",
      "type": "function"
    },
    {
      "inputs": [],
      "name": "sortedTroves",
      "outputs": [
        {
          "internalType": "contract ISortedTroves",
          "name": "",
          "type": "address"
        }
      ],
      "stateMutability": "view",
      "type": "function"
    },
    {
      "inputs": [],
      "name": "stabilityPool",
      "outputs": [
        {
          "internalType": "contract IStabilityPool",
          "name": "",
          "type": "address"
        }
      ],
      "stateMutability": "view",
      "type": "function"
    },
    {
      "inputs": [],
      "name": "totalCollateralSnapshot",
      "outputs": [
        {
          "internalType": "uint256",
          "name": "",
          "type": "uint256"
        }
      ],
      "stateMutability": "view",
      "type": "function"
    },
    {
      "inputs": [],
      "name": "totalStakes",
      "outputs": [
        {
          "internalType": "uint256",
          "name": "",
          "type": "uint256"
        }
      ],
      "stateMutability": "view",
      "type": "function"
    },
    {
      "inputs": [],
      "name": "totalStakesSnapshot",
      "outputs": [
        {
          "internalType": "uint256",
          "name": "",
          "type": "uint256"
        }
      ],
      "stateMutability": "view",
      "type": "function"
    },
    {
      "inputs": [
        {
          "internalType": "address",
          "name": "newOwner",
          "type": "address"
        }
      ],
      "name": "transferOwnership",
      "outputs": [],
      "stateMutability": "nonpayable",
      "type": "function"
    },
    {
      "inputs": [
        {
          "internalType": "address",
          "name": "_borrower",
          "type": "address"
        }
      ],
      "name": "updateStakeAndTotalStakes",
      "outputs": [
        {
          "internalType": "uint256",
          "name": "",
          "type": "uint256"
        }
      ],
      "stateMutability": "nonpayable",
      "type": "function"
    },
    {
      "inputs": [
        {
          "internalType": "address",
          "name": "_borrower",
          "type": "address"
        }
      ],
      "name": "updateTroveRewardSnapshots",
      "outputs": [],
      "stateMutability": "nonpayable",
      "type": "function"
    }
  ],
  "bytecode": "0x6101006040523480156200001257600080fd5b5060405162005e2b38038062005e2b833981810160405260608110156200003857600080fd5b5080516020820151604090920151608082905260a083905260e08190524260c081905291929190615d70620000bb60003980612583528061408852508061284b5280614067525080610e7b528061453c525080610df852806143bd528061446252806144a35280614b0b5280614f5c528061550552806158285250615d706000f3fe608060405234801561001057600080fd5b50600436106104965760003560e01c806376902b8311610262578063c35bc55011610151578063d9a72444116100ce578063f59fac2d11610092578063f59fac2d14610d04578063f8d8989814610d2a578063f92d3433146106b1578063fdf27dba14610d32578063fe2ba84814610d3a578063fe9d032314610d6057610496565b8063d9a7244414610c8b578063e2ac77b014610ca8578063e545242314610cce578063f2fde38b14610cd6578063f36b242514610cfc57610496565b8063d293c71011610115578063d293c71014610be8578063d380a37c14610c14578063d3d6f84314610c1c578063d5b3563514610c48578063d66a255314610c6557610496565b8063c35bc55014610ba2578063c52861f214610baa578063c7b5548114610bb2578063cbd138ae14610bba578063cda775f914610be057610496565b8063a0d8d6bc116101df578063b7f8cf9b116101a3578063b7f8cf9b14610adb578063b82f263d14610ae3578063b91af97c14610b00578063bcd3752614610b4c578063bf9befb114610b9a57610496565b8063a0d8d6bc14610a28578063a20baee6146108ed578063a3f4df7e14610a30578063ae91875414610aad578063b0d8e18114610ab557610496565b806382fe3eb91161022657806382fe3eb9146109be578063887105d3146109e45780638da5cb5b146109ec57806396d711ff146109f45780639976cf45146109fc57610496565b806376902b8314610922578063794e57241461099e578063795d26c3146109a65780637f7dde4a146109ae578063807d138d146109b657610496565b8063477d66cf11610389578063631203b011610306578063715018a6116102ca578063715018a6146108b957806372423c17146108c157806372fe25aa146108ed57806373098be9146108f5578063741bef1a146108fd578063756b253e1461090557610496565b8063631203b0146107e557806364cee26014610802578063653d46e71461082857806366ca4a21146108455780636ef643381461084d57610496565b806352512eaa1161034d57806352512eaa1461077b5780635733d58f146107a15780635d6b480f146107a95780635dba4c4a146107d557806361ec893d146107dd57610496565b8063477d66cf146106f7578063480cd578146107145780634870dd9a1461073a57806349eefeee146107425780634e443d9e1461074a57610496565b80631e8b1c2b1161041757806328d28b5b116103db57806328d28b5b146106b15780632b11551a146106b95780632f865568146106c157806331eaf05c146106e75780633cc74225146106ef57610496565b80631e8b1c2b146105d05780631f68f20a1461067357806321e378011461067b57806324092669146106a157806326b4d8fd146106a957610496565b806315d549f11161045e57806315d549f1146105355780631673c79a1461055b57806318f2817a1461059a5780631a465fe1146105c05780631bf43555146105c857610496565b8063048c661d1461049b578063071a7541146104bf5780630b076557146104d957806312610e9214610501578063139f2e8c1461052d575b600080fd5b6104a3610d68565b604080516001600160a01b039092168252519081900360200190f35b6104c7610d77565b60408051918252519081900360200190f35b6104ff600480360360208110156104ef57600080fd5b50356001600160a01b0316610d7c565b005b6104c76004803603604081101561051757600080fd5b506001600160a01b038135169060200135610da4565b6104c7610df6565b6104c76004803603602081101561054b57600080fd5b50356001600160a01b0316610e1a565b6105816004803603602081101561057157600080fd5b50356001600160a01b0316610e3e565b6040805192835260208301919091528051918290030190f35b6104c7600480360360208110156105b057600080fd5b50356001600160a01b0316610e57565b6104a3610e6a565b6104c7610e79565b6104ff600480360360208110156105e657600080fd5b81019060208101813564010000000081111561060157600080fd5b82018360208201111561061357600080fd5b8035906020019184602083028401116401000000008311171561063557600080fd5b919080806020026020016040519081016040528093929190818152602001838360200280828437600092019190915250929550610e9d945050505050565b6104c7611231565b6104c76004803603602081101561069157600080fd5b50356001600160a01b0316611237565b6104c7611261565b6104c7611274565b6104c761127a565b6104c761128b565b6104ff600480360360208110156106d757600080fd5b50356001600160a01b031661129d565b6104c7611303565b6104a3611309565b6104c76004803603602081101561070d57600080fd5b5035611318565b6104c76004803603602081101561072a57600080fd5b50356001600160a01b031661132b565b6104c7611349565b6104c761134e565b6107676004803603602081101561076057600080fd5b5035611354565b604080519115158252519081900360200190f35b6104c76004803603602081101561079157600080fd5b50356001600160a01b031661135f565b6104c7611413565b6104ff600480360360408110156107bf57600080fd5b506001600160a01b03813516906020013561141f565b6104ff61146b565b6104c76114d1565b6104c7600480360360208110156107fb57600080fd5b50356114d6565b6104c76004803603602081101561081857600080fd5b50356001600160a01b03166114e3565b6104ff6004803603602081101561083e57600080fd5b5035611501565b6104c761189e565b6108736004803603602081101561086357600080fd5b50356001600160a01b03166118b0565b6040518086815260200185815260200184815260200183600481111561089557fe5b8152602001826001600160801b031681526020019550505050505060405180910390f35b6104ff6118ea565b6104c7600480360360408110156108d757600080fd5b506001600160a01b038135169060200135611996565b6104c76119ed565b6104c76119f9565b6104a36119ff565b6104a36004803603602081101561091b57600080fd5b5035611a0e565b6104ff600480360361016081101561093957600080fd5b506001600160a01b038135811691602081013582169160408201358116916060810135821691608082013581169160a081013582169160c082013581169160e08101358216916101008201358116916101208101358216916101409091013516611a38565b6104c7611b17565b6104c7611b23565b6104a3611c1e565b6104c7611c2d565b6104ff600480360360208110156109d457600080fd5b50356001600160a01b0316611c33565b6104c7611c44565b6104a3611d00565b6104c7611d0f565b6104c760048036036040811015610a1257600080fd5b506001600160a01b038135169060200135611d15565b6104c7611d42565b610a38611d48565b6040805160208082528351818301528351919283929083019185019080838360005b83811015610a72578181015183820152602001610a5a565b50505050905090810190601f168015610a9f5780820380516001836020036101000a031916815260200191505b509250505060405180910390f35b6104a3611d70565b6104c760048036036020811015610acb57600080fd5b50356001600160a01b0316611d7f565b6104a3611da6565b6104c760048036036020811015610af957600080fd5b5035611db5565b610b2660048036036020811015610b1657600080fd5b50356001600160a01b0316611dc0565b604080519485526020850193909352838301919091526060830152519081900360800190f35b6104ff600480360360e0811015610b6257600080fd5b508035906001600160a01b03602082013581169160408101358216916060820135169060808101359060a08101359060c00135611e18565b6104c761257b565b6104c7612581565b6104c76125a5565b6104c76125b7565b6104ff60048036036020811015610bd057600080fd5b50356001600160a01b03166125c3565b6104a36125d6565b6104c760048036036040811015610bfe57600080fd5b506001600160a01b0381351690602001356125e5565b6104c7612604565b6104c760048036036040811015610c3257600080fd5b506001600160a01b03813516906020013561260a565b6104c760048036036020811015610c5e57600080fd5b503561263a565b6104c760048036036020811015610c7b57600080fd5b50356001600160a01b031661264d565b6104a360048036036020811015610ca157600080fd5b5035612668565b61076760048036036020811015610cbe57600080fd5b50356001600160a01b0316612692565b6104a36126f0565b6104ff60048036036020811015610cec57600080fd5b50356001600160a01b03166126ff565b6104c7612802565b6104c760048036036020811015610d1a57600080fd5b50356001600160a01b031661280f565b6104a361283a565b6104c7612849565b6104ff60048036036020811015610d5057600080fd5b50356001600160a01b031661286d565b6104a361287e565b606a546001600160a01b031681565b600281565b610d8461288d565b600054600154610da1916001600160a01b039081169116836128d8565b50565b6000610dae61288d565b6001600160a01b038316600090815260716020526040812054610dd190846129ee565b6001600160a01b03851660009081526071602052604090208190559150505b92915050565b7f000000000000000000000000000000000000000000000000000000000000000081565b6000610e2461288d565b610e2d82612a4b565b6001600160801b031690505b919050565b6077602052600090815260409020805460019091015482565b6000610e6161288d565b610df082612ae5565b606c546001600160a01b031681565b7f000000000000000000000000000000000000000000000000000000000000000081565b8051610eda5760405162461bcd60e51b8152600401808060200182810382526036815260200180615bf66036913960400191505060405180910390fd5b600054600154606a546001600160a01b03928316929182169116610efc6158b6565b610f046158e7565b600260009054906101000a90046001600160a01b03166001600160a01b0316630fdb11cf6040518163ffffffff1660e01b8152600401602060405180830381600087803b158015610f5457600080fd5b505af1158015610f68573d6000803e3d6000fd5b505050506040513d6020811015610f7e57600080fd5b5051825260408051630d9a6b3560e01b815290516001600160a01b03851691630d9a6b35916004808301926020929190829003018186803b158015610fc257600080fd5b505afa158015610fd6573d6000803e3d6000fd5b505050506040513d6020811015610fec57600080fd5b505160208301528151610ffe90612b88565b15801560408401526110265761101f8585846000015185602001518a612ba5565b905061103e565b61103b8585846000015185602001518a612dc3565b90505b60008160200151116110815760405162461bcd60e51b8152600401808060200182810382526022815260200180615cea6022913960400191505060405180910390fd5b826001600160a01b031663335525ad82608001518360a001516040518363ffffffff1660e01b81526004018083815260200182815260200192505050600060405180830381600087803b1580156110d757600080fd5b505af11580156110eb573d6000803e3d6000fd5b5050505061110385858360c001518460e00151612e85565b610100810151156111805760695461010082015160408051628063a560e01b81526001600160a01b03938416600482015260248101929092525191871691628063a59160448082019260009290919082900301818387803b15801561116757600080fd5b505af115801561117b573d6000803e3d6000fd5b505050505b61118e8582604001516130cf565b60208101516060830152610100810151604082015182516111ba92916111b491906129ee565b906129ee565b608080840182905260608085015160408086015186840151825193845260208401969096528282015291810193909352517f4152c73dd2614c4f9fc35e8c9cf16013cd588c75b49a4c1673ecffdcbcda94039281900390910190a1611229853383606001518460400151613210565b505050505050565b606f5481565b6001600160a01b03811660009081526071602052604081206003015460ff166004811115610df057fe5b6064670de0b6b3a76400005b0460050281565b607a5481565b6103e8670de0b6b3a764000061126d565b6000611298606f54613309565b905090565b6112a68161333f565b6040805160018082528183019092526000916020808301908036833701905050905081816000815181106112d657fe5b60200260200101906001600160a01b031690816001600160a01b0316815250506112ff81610e9d565b5050565b60765481565b6001546001600160a01b031681565b6000610df061132561189e565b836133a7565b6001600160a01b031660009081526071602052604090206001015490565b60c881565b60785490565b6000610df082612b88565b6001600160a01b038116600090815260776020526040812054607554829061138790836129ee565b90508015806113c0575060016001600160a01b03851660009081526071602052604090206003015460ff1660048111156113bd57fe5b14155b156113d057600092505050610e39565b6001600160a01b03841660009081526071602052604081206002015490611409670de0b6b3a764000061140384866133c6565b9061341f565b9695505050505050565b6714d1120d7b16000081565b61142761288d565b80600481111561143357fe5b6001600160a01b0383166000908152607160205260409020600301805460ff1916600183600481111561146257fe5b02179055505050565b61147361288d565b600061147d613486565b9050670de0b6b3a764000081111561149157fe5b606f8190556040805182815290517fc454ee9b76c52f782a256af821b857ca6e125d1e3333bcede402fec2bed9600c9181900360200190a1610da16134ca565b603c81565b6000610df0611325612802565b6001600160a01b031660009081526071602052604090206002015490565b6040805160e081018252600080546001600160a01b0390811683526001548116602084015292820181905260608201819052606e548316608083015260a0820181905260c0820152606a549091166115576158b6565b61155f6158e7565b600260009054906101000a90046001600160a01b03166001600160a01b0316630fdb11cf6040518163ffffffff1660e01b8152600401602060405180830381600087803b1580156115af57600080fd5b505af11580156115c3573d6000803e3d6000fd5b505050506040513d60208110156115d957600080fd5b5051825260408051630d9a6b3560e01b815290516001600160a01b03851691630d9a6b35916004808301926020929190829003018186803b15801561161d57600080fd5b505afa158015611631573d6000803e3d6000fd5b505050506040513d602081101561164757600080fd5b50516020830152815161165990612b88565b158015604084015261168057611679848360000151846020015188613526565b90506116a0565b61169d8460000151856020015184600001518560200151896138a6565b90505b60008160200151116116e35760405162461bcd60e51b8152600401808060200182810382526022815260200180615cea6022913960400191505060405180910390fd5b826001600160a01b031663335525ad82608001518360a001516040518363ffffffff1660e01b81526004018083815260200182815260200192505050600060405180830381600087803b15801561173957600080fd5b505af115801561174d573d6000803e3d6000fd5b5050505061176d846000015185602001518360c001518460e00151612e85565b610100810151156117ec57835160695461010083015160408051628063a560e01b81526001600160a01b0393841660048201526024810192909252519190921691628063a591604480830192600092919082900301818387803b1580156117d357600080fd5b505af11580156117e7573d6000803e3d6000fd5b505050505b6117fe846000015182604001516130cf565b602081015160608301526101008101516040820151825161182492916111b491906129ee565b608080840182905260608085015160408086015186840151825193845260208401969096528282015291810193909352517f4152c73dd2614c4f9fc35e8c9cf16013cd588c75b49a4c1673ecffdcbcda94039281900390910190a161189784600001513383606001518460400151613210565b5050505050565b60006112986118ab613486565b6139d2565b60716020526000908152604090208054600182015460028301546003909301549192909160ff81169061010090046001600160801b031685565b6118f26139f9565b6001600160a01b0316611903611d00565b6001600160a01b03161461195e576040805162461bcd60e51b815260206004820181905260248201527f4f776e61626c653a2063616c6c6572206973206e6f7420746865206f776e6572604482015290519081900360640190fd5b6035546040516000916001600160a01b031690600080516020615b7b833981519152908390a3603580546001600160a01b0319169055565b60006119a061288d565b6001600160a01b0383166000908152607160205260408120600101546119c690846139fd565b6001600160a01b038516600090815260716020526040902060010181905591505092915050565b670de0b6b3a764000081565b60755481565b6002546001600160a01b031681565b60788181548110611a1e57600080fd5b6000918252602090912001546001600160a01b0316905081565b600254600160a81b900460ff1680611a535750611a53613a57565b80611a685750600254600160a01b900460ff16155b611aa35760405162461bcd60e51b815260040180806020018281038252602e815260200180615a74602e913960400191505060405180910390fd5b600254600160a81b900460ff16158015611ada576002805460ff60a01b1960ff60a81b19909116600160a81b1716600160a01b1790555b611ae2613a68565b611af58c8c8c8c8c8c8c8c8c8c8c613b30565b8015611b09576002805460ff60a81b191690555b505050505050505050505050565b670f43fc2c04ee000081565b60008054604080516314a6bf0f60e01b8152905183926001600160a01b0316916314a6bf0f916004808301926020929190829003018186803b158015611b6857600080fd5b505afa158015611b7c573d6000803e3d6000fd5b505050506040513d6020811015611b9257600080fd5b5051600154604080516314a6bf0f60e01b815290519293506000926001600160a01b03909216916314a6bf0f91600480820192602092909190829003018186803b158015611bdf57600080fd5b505afa158015611bf3573d6000803e3d6000fd5b505050506040513d6020811015611c0957600080fd5b50519050611c1782826139fd565b9250505090565b6000546001600160a01b031681565b60735481565b611c3b61288d565b610da181613ec8565b60008054604080516362e1c9bf60e11b8152905183926001600160a01b03169163c5c3937e916004808301926020929190829003018186803b158015611c8957600080fd5b505afa158015611c9d573d6000803e3d6000fd5b505050506040513d6020811015611cb357600080fd5b5051600154604080516362e1c9bf60e11b815290519293506000926001600160a01b039092169163c5c3937e91600480820192602092909190829003018186803b158015611bdf57600080fd5b6035546001600160a01b031690565b60745481565b6000611d1f61288d565b6001600160a01b038316600090815260716020526040812054610dd190846139fd565b60795481565b6040518060400160405280600c81526020016b2a3937bb32a6b0b730b3b2b960a11b81525081565b606e546001600160a01b031681565b6000806000611d8d84613f33565b915091506000611d9d8383613fad565b95945050505050565b6067546001600160a01b031681565b6000610df082613fdc565b6001600160a01b03811660009081526071602052604081208054600190910154909180611dec8561280f565b9150611df78561135f565b9050611e0384836139fd565b9350611e0f83826139fd565b92509193509193565b6040805160e0810182526000546001600160a01b03908116825260015481166020830152606b54811692820192909252606d5482166060820152606e5482166080820152606954821660a082015260685490911660c0820152611e79615933565b611e8283614008565b611e8a614062565b600260009054906101000a90046001600160a01b03166001600160a01b0316630fdb11cf6040518163ffffffff1660e01b8152600401602060405180830381600087803b158015611eda57600080fd5b505af1158015611eee573d6000803e3d6000fd5b505050506040513d6020811015611f0457600080fd5b505160c08201819052611f16906140ea565b611f1f89614139565b611f2e8260400151338b614178565b611f36611b23565b60e0820181905260408084015181516370a0823160e01b815233600482015291516001600160a01b03909116916370a08231916024808301926020929190829003018186803b158015611f8857600080fd5b505afa158015611f9c573d6000803e3d6000fd5b505050506040513d6020811015611fb257600080fd5b50511115611fbc57fe5b888152608082015160c0820151600091611fd7918b9061422f565b15611fe3575087612104565b82608001516001600160a01b0316634d6228316040518163ffffffff1660e01b815260040160206040518083038186803b15801561202057600080fd5b505afa158015612034573d6000803e3d6000fd5b505050506040513d602081101561204a57600080fd5b505190505b6001600160a01b0381161580159061207b5750670f43fc2c04ee0000612079828460c001516125e5565b105b156121045782608001516001600160a01b031663b72703ac826040518263ffffffff1660e01b815260040180826001600160a01b0316815260200191505060206040518083038186803b1580156120d157600080fd5b505afa1580156120e5573d6000803e3d6000fd5b505050506040513d60208110156120fb57600080fd5b5051905061204f565b8461210f5760001994505b6001600160a01b038116158015906121275750815115155b80156121335750600085115b1561224657848060019003955050600083608001516001600160a01b031663b72703ac836040518263ffffffff1660e01b815260040180826001600160a01b0316815260200191505060206040518083038186803b15801561219457600080fd5b505afa1580156121a8573d6000803e3d6000fd5b505050506040513d60208110156121be57600080fd5b5051845160208601519192506121d491846128d8565b60006121ed858486600001518760c001518e8e8e614390565b9050806040015115612200575050612246565b80516020850151612210916139fd565b602080860191909152810151604085015161222a916139fd565b60408501528051845161223c916129ee565b845250905061210f565b60008260400151116122895760405162461bcd60e51b8152600401808060200182810382526029815260200180615a4b6029913960400191505060405180910390fd5b6122a082604001518360c001518460e00151614684565b506122ae826040015161471a565b6060830181905260408301516122c5919086614727565b82600001516001600160a01b0316628063a5846060015184606001516040518363ffffffff1660e01b815260040180836001600160a01b0316815260200182815260200192505050600060405180830381600087803b15801561232757600080fd5b505af115801561233b573d6000803e3d6000fd5b5050505082606001516001600160a01b031663c91d2d3883606001516040518263ffffffff1660e01b815260040180828152602001915050600060405180830381600087803b15801561238d57600080fd5b505af11580156123a1573d6000803e3d6000fd5b50505050606082015160408301516123b8916129ee565b8260800181815250507f43a3f4082a4dbc33d78e317d2497d3a730bc7fc3574159dcea1056e62e5d9ad88a8360200151846040015185606001516040518085815260200184815260200183815260200182815260200194505050505060405180910390a182604001516001600160a01b0316639dc29fac3384602001516040518363ffffffff1660e01b815260040180836001600160a01b0316815260200182815260200192505050600060405180830381600087803b15801561247b57600080fd5b505af115801561248f573d6000803e3d6000fd5b5050505082600001516001600160a01b0316632a7ba1f783602001516040518263ffffffff1660e01b815260040180828152602001915050600060405180830381600087803b1580156124e157600080fd5b505af11580156124f5573d6000803e3d6000fd5b5050505082600001516001600160a01b0316628063a53384608001516040518363ffffffff1660e01b815260040180836001600160a01b0316815260200182815260200192505050600060405180830381600087803b15801561255757600080fd5b505af115801561256b573d6000803e3d6000fd5b5050505050505050505050505050565b60725481565b7f000000000000000000000000000000000000000000000000000000000000000081565b60006112986125b2613486565b613309565b670ddd4b8c6c7d70d881565b6125cb61288d565b610da1816002614796565b6069546001600160a01b031681565b60008060006125f385613f33565b9150915060006114098383876148af565b60705481565b600061261461288d565b6001600160a01b0383166000908152607160205260408120600101546119c690846129ee565b6000610df06126476125a5565b836148d9565b6001600160a01b031660009081526071602052604090205490565b60006078828154811061267757fe5b6000918252602090912001546001600160a01b031692915050565b600060016001600160a01b03831660009081526071602052604090206003015460ff1660048111156126c057fe5b146126cd57506000610e39565b506075546001600160a01b03821660009081526077602052604090205410919050565b606d546001600160a01b031681565b6127076139f9565b6001600160a01b0316612718611d00565b6001600160a01b031614612773576040805162461bcd60e51b815260206004820181905260248201527f4f776e61626c653a2063616c6c6572206973206e6f7420746865206f776e6572604482015290519081900360640190fd5b6001600160a01b0381166127b85760405162461bcd60e51b8152600401808060200182810382526026815260200180615a256026913960400191505060405180910390fd5b6035546040516001600160a01b03808416921690600080516020615b7b83398151915290600090a3603580546001600160a01b0319166001600160a01b0392909216919091179055565b6000611298606f546139d2565b6001600160a01b038116600090815260776020526040812060010154607654829061138790836129ee565b606b546001600160a01b031681565b7f000000000000000000000000000000000000000000000000000000000000000081565b61287561288d565b610da181614932565b6068546001600160a01b031681565b6067546001600160a01b031633146128d65760405162461bcd60e51b815260040180806020018281038252603b815260200180615bbb603b913960400191505060405180910390fd5b565b6128e181612692565b156129e9576128ef8161333f565b60006128fa8261135f565b905060006129078361280f565b6001600160a01b03841660009081526071602052604090206001015490915061293090836139fd565b6001600160a01b038416600090815260716020526040902060018101919091555461295b90826139fd565b6001600160a01b03841660009081526071602052604090205561297d83613ec8565b6129898585838561497c565b6001600160a01b0383166000818152607160209081526040808320805460018201546002909201548351918252938101919091528082019290925260608201929092529051600080516020615b9b8339815191529181900360800190a250505b505050565b600082821115612a45576040805162461bcd60e51b815260206004820152601e60248201527f536166654d6174683a207375627472616374696f6e206f766572666c6f770000604482015290519081900360640190fd5b50900390565b607880546001808201835560008381527f8dc6fb69531d98d70dc0420e638d2dfd04e09e1ec783ede9aac77da9c5a0dac490920180546001600160a01b0319166001600160a01b03861617905591549091612aa691906129ee565b6001600160a01b039290921660009081526071602052604090206003018054610100600160881b0319166101006001600160801b038516021790555090565b6001600160a01b0381166000908152607160205260408120600101548190612b0c90614a7e565b6001600160a01b038416600090815260716020526040902060020180549082905560725491925090612b4a908390612b4490846129ee565b906139fd565b607281905560408051918252517f6bac5e0eb3c44eb03a60ab11ec3a2c051771616aecadbcfff2630aabae5203829181900360200190a15092915050565b600080612b9483613fdc565b6714d1120d7b160000119392505050565b612bad6158e7565b612bb5615978565b612bbd6158e7565b84825260006080830152612bcf611b23565b60a0830152612bdc611c44565b60c0830152600060208301525b835182602001511015612db85783826020015181518110612c0657fe5b6020908102919091018101516001600160a01b03166060840181905260009081526071909152604090206003015460019060ff166004811115612c4557fe5b14612c4f57612da8565b612c5d8260600151876125e5565b60408301526080820151612d5057670f43fc2c04ee0000826040015110158015612c8657508151155b15612c9057612da8565b6000612ca58360c001518460a00151896148af565b9050612cc28989856060015186604001518760000151868d614aba565b60808101518451919350612cd691906129ee565b8352608082015160a0840151612ceb916129ee565b8360a0018181525050612d208261010001516111b484604001516111b48660a001518860c001516129ee90919063ffffffff16565b60c0840152612d2f8483614df8565b9350612d448360c001518460a0015189614ed9565b15608084015250612da8565b81608001518015612d6c5750670f43fc2c04ee00008260400151105b15612da857612d85888884606001518560000151614efa565b60808101518351919250612d9991906129ee565b8252612da58382614df8565b92505b6020820180516001019052612be9565b505095945050505050565b612dcb6158e7565b612dd3615978565b612ddb6158e7565b848252600060208301525b835182602001511015612db85783826020015181518110612e0357fe5b60209081029190910101516001600160a01b031660608301819052612e2890876125e5565b60408301819052670f43fc2c04ee00001115612e7557612e52888884606001518560000151614efa565b60808101518351919250612e6691906129ee565b8252612e728382614df8565b92505b6020820180516001019052612de6565b81612e8f576130c9565b607954600090612eab90612b4484670de0b6b3a76400006133c6565b90506000612ed0607a54612b44670de0b6b3a7640000876133c690919063ffffffff16565b90506000612ee96072548461341f90919063ffffffff16565b90506000612f026072548461341f90919063ffffffff16565b9050612f23612f1c607254846133c690919063ffffffff16565b85906129ee565b607955607254612f3f90612f389083906133c6565b84906129ee565b607a55607554612f4f90836139fd565b607555607654612f5f90826139fd565b607681905560755460408051918252602082019290925281517f9f8bc8ab0daf5bceef75ecfd2085d1fcc6548c657ea970d9a23a60610d0737e3929181900390910190a1876001600160a01b0316632a7ba1f7876040518263ffffffff1660e01b815260040180828152602001915050600060405180830381600087803b158015612fe957600080fd5b505af1158015612ffd573d6000803e3d6000fd5b50505050866001600160a01b0316632b7c7b11876040518263ffffffff1660e01b815260040180828152602001915050600060405180830381600087803b15801561304757600080fd5b505af115801561305b573d6000803e3d6000fd5b50505050876001600160a01b0316628063a588876040518363ffffffff1660e01b815260040180836001600160a01b0316815260200182815260200192505050600060405180830381600087803b1580156130b557600080fd5b505af1158015611b09573d6000803e3d6000fd5b50505050565b6072546073819055506000826001600160a01b031663c5c3937e6040518163ffffffff1660e01b815260040160206040518083038186803b15801561311357600080fd5b505afa158015613127573d6000803e3d6000fd5b505050506040513d602081101561313d57600080fd5b5051600154604080516362e1c9bf60e11b815290519293506000926001600160a01b039092169163c5c3937e91600480820192602092909190829003018186803b15801561318a57600080fd5b505afa15801561319e573d6000803e3d6000fd5b505050506040513d60208110156131b457600080fd5b505190506131c681612b4484866129ee565b607481905560735460408051918252602082019290925281517f51bf4c63ec3cba9d03d43238abbdd979dd91bd16d9895c74ceea9118c7baaf60929181900390910190a150505050565b811561328f57606b5460685460408051631062c15f60e11b81526001600160a01b039283166004820152868316602482015260448101869052905191909216916320c582be91606480830192600092919082900301818387803b15801561327657600080fd5b505af115801561328a573d6000803e3d6000fd5b505050505b80156130c957836001600160a01b0316628063a584836040518363ffffffff1660e01b815260040180836001600160a01b0316815260200182815260200192505050600060405180830381600087803b1580156132eb57600080fd5b505af11580156132ff573d6000803e3d6000fd5b5050505050505050565b6000610df0613331836103e8670de0b6b3a76400005b046005026139fd90919063ffffffff16565b670de0b6b3a7640000615074565b60016001600160a01b03821660009081526071602052604090206003015460ff16600481111561336b57fe5b14610da15760405162461bcd60e51b815260040180806020018281038252602f815260200180615d0c602f913960400191505060405180910390fd5b60006133bf670de0b6b3a764000061140385856133c6565b9392505050565b6000826133d557506000610df0565b828202828482816133e257fe5b04146133bf5760405162461bcd60e51b8152600401808060200182810382526021815260200180615b5a6021913960400191505060405180910390fd5b6000808211613475576040805162461bcd60e51b815260206004820152601a60248201527f536166654d6174683a206469766973696f6e206279207a65726f000000000000604482015290519081900360640190fd5b81838161347e57fe5b049392505050565b60008061349161508a565b905060006134a7670ddd4b8c6c7d70d8836150a6565b9050611c17670de0b6b3a764000061140383606f546133c690919063ffffffff16565b60006134e1607054426129ee90919063ffffffff16565b9050603c8110610da15742607081905560408051918252517f860f8d2f0c74dd487e89e2883e3b25b8159ce1e1b3433a291cba7b82c508f3bc9181900360200190a150565b61352e6158e7565b613536615978565b61353e6158e7565b84825260006080830152613550611b23565b60a083015261355d611c44565b8260c001818152505086608001516001600160a01b0316634d6228316040518163ffffffff1660e01b815260040160206040518083038186803b1580156135a357600080fd5b505afa1580156135b7573d6000803e3d6000fd5b505050506040513d60208110156135cd57600080fd5b50516001600160a01b039081166060840152608088015160408051631e22314360e01b815290516000939290921691631e22314391600480820192602092909190829003018186803b15801561362257600080fd5b505afa158015613636573d6000803e3d6000fd5b505050506040513d602081101561364c57600080fd5b50516000602085015290505b8483602001511080156136815750806001600160a01b031683606001516001600160a01b031614155b1561389b57600088608001516001600160a01b031663b72703ac85606001516040518263ffffffff1660e01b815260040180826001600160a01b0316815260200191505060206040518083038186803b1580156136dd57600080fd5b505afa1580156136f1573d6000803e3d6000fd5b505050506040513d602081101561370757600080fd5b5051606085015190915061371b90896125e5565b6040850152608084015161381357670f43fc2c04ee000084604001511015801561374457508351155b1561374f575061389b565b60006137648560c001518660a001518b6148af565b8a5160208c015160608801516040890151895194955061378594868f614aba565b6080810151865191955061379991906129ee565b8552608084015160a08601516137ae916129ee565b8560a00181815250506137e38461010001516111b486604001516111b48860a001518a60c001516129ee90919063ffffffff16565b60c08601526137f28685614df8565b95506138078560c001518660a001518b614ed9565b1560808601525061387d565b8360800151801561382f5750670f43fc2c04ee00008460400151105b156138775761385089600001518a6020015186606001518760000151614efa565b6080810151855191945061386491906129ee565b84526138708584614df8565b945061387d565b5061389b565b6001600160a01b031660608401526020830180516001019052613658565b505050949350505050565b6138ae6158e7565b6138b6615978565b6138be6158e7565b606e54858352600060208401526001600160a01b03165b84836020015110156139c657806001600160a01b0316634d6228316040518163ffffffff1660e01b815260040160206040518083038186803b15801561391a57600080fd5b505afa15801561392e573d6000803e3d6000fd5b505050506040513d602081101561394457600080fd5b50516001600160a01b03166060840181905261396090886125e5565b60408401819052670f43fc2c04ee000011156139b15761398a898985606001518660000151614efa565b6080810151845191935061399e91906129ee565b83526139aa8483614df8565b93506139b6565b6139c6565b60208301805160010190526138d5565b50505095945050505050565b6000610df06139ec836103e8670de0b6b3a764000061331f565b66b1a2bc2ec50000615074565b3390565b6000828201838110156133bf576040805162461bcd60e51b815260206004820152601b60248201527f536166654d6174683a206164646974696f6e206f766572666c6f770000000000604482015290519081900360640190fd5b6000613a6230615145565b15905090565b600254600160a81b900460ff1680613a835750613a83613a57565b80613a985750600254600160a01b900460ff16155b613ad35760405162461bcd60e51b815260040180806020018281038252602e815260200180615a74602e913960400191505060405180910390fd5b600254600160a81b900460ff16158015613b0a576002805460ff60a01b1960ff60a81b19909116600160a81b1716600160a01b1790555b613b1261514b565b613b1a615202565b8015610da1576002805460ff60a81b1916905550565b613b398b615300565b613b428a615300565b613b4b89615300565b613b5488615300565b613b5d87615300565b613b6686615300565b613b6f85615300565b613b7884615300565b613b8183615300565b613b8a82615300565b613b9381615300565b606780546001600160a01b03199081166001600160a01b038e81169182179093556000805483168e85161790556001805483168d8516179055606a805483168c85161790556068805483168b85161790556069805483168a8516179055600280548316898516179055606b80548316888516179055606e80548316878516179055606c80548316868516179055606d805490921692841692909217905560408051918252517f3ca631ffcd2a9b5d9ae18543fc82f58eb4ca33af9e6ab01b7a8e95331e6ed985916020908290030190a1604080516001600160a01b038c16815290517f78f058b189175430c48dc02699e3a0031ea4ff781536dc2fab847de4babdd8829181900360200190a1604080516001600160a01b038b16815290517f5ee0cae2f063ed938bb55046f6a932fb6ae792bf43624806bb90abe68a50be9b9181900360200190a1604080516001600160a01b038a16815290517f82966d27eea39b038ee0fa30cd16532bb24f6e65d31cb58fb227aa5766cdcc7f9181900360200190a1604080516001600160a01b038916815290517fcfb07d791fcafc032b35837b50eb84b74df518cf4cc287e8084f47630fa70fa09181900360200190a1604080516001600160a01b038816815290517fe67f36a6e961157d6eff83b91f3af5a62131ceb6f04954ef74f51c1c05e7f88d9181900360200190a1604080516001600160a01b038716815290517f8c537274438aa850a330284665d81a85dd38267d09e4050d416bfc94142db2649181900360200190a1604080516001600160a01b038616815290517f112220fa8dbe96141556e0dc3d74dd95075b323f4f297616048e02d82d7017159181900360200190a1604080516001600160a01b038516815290517f65f4cf077bc01e4742eb5ad98326f6e95b63548ea24b17f8d5e823111fe788009181900360200190a1604080516001600160a01b038416815290517f7b0c6ae24561d189fc90b337cbc97aa15d085bef32931237a762e3e528b285b49181900360200190a1604080516001600160a01b038316815290517ff81a824d1d9030c0365252fb96daf0565f9c2007c88e13001379dda7f06d5d5c9181900360200190a15050505050505050505050565b607580546001600160a01b0383166000908152607760209081526040918290209283556076546001909301839055925481519081529283019190915280517fc437f324d85e369394148dd9d62f98f534b382e01ed3dd2eb98138fb6d3ab49a9281900390910190a150565b6000806000613f418461135f565b90506000613f4e8561280f565b6001600160a01b03861660009081526071602052604081206001015491925090613f7890846139fd565b6001600160a01b03871660009081526071602052604081205491925090613f9f90846139fd565b919550909350505050915091565b60008115613fd357613fcc826114038568056bc75e2d631000006133c6565b9050610df0565b50600019610df0565b600080613fe7611c44565b90506000613ff3611b23565b90506140008282866148af565b949350505050565b6611c37937e0800081108015906140275750670de0b6b3a76400008111155b610da15760405162461bcd60e51b8152600401808060200182810382526030815260200180615c906030913960400191505060405180910390fd5b6140ac7f00000000000000000000000000000000000000000000000000000000000000007f00000000000000000000000000000000000000000000000000000000000000006139fd565b4210156128d65760405162461bcd60e51b8152600401808060200182810382526040815260200180615b1a6040913960400191505060405180910390fd5b670f43fc2c04ee00006140fc82613fdc565b1015610da15760405162461bcd60e51b815260040180806020018281038252602a815260200180615cc0602a913960400191505060405180910390fd5b60008111610da15760405162461bcd60e51b815260040180806020018281038252602e815260200180615c2c602e913960400191505060405180910390fd5b80836001600160a01b03166370a08231846040518263ffffffff1660e01b815260040180826001600160a01b0316815260200191505060206040518083038186803b1580156141c657600080fd5b505afa1580156141da573d6000803e3d6000fd5b505050506040513d60208110156141f057600080fd5b505110156129e95760405162461bcd60e51b815260040180806020018281038252604e815260200180615aa2604e913960600191505060405180910390fd5b60006001600160a01b03831615806142bd5750836001600160a01b0316635dbe47e8846040518263ffffffff1660e01b815260040180826001600160a01b0316815260200191505060206040518083038186803b15801561428f57600080fd5b505afa1580156142a3573d6000803e3d6000fd5b505050506040513d60208110156142b957600080fd5b5051155b806142d85750670f43fc2c04ee00006142d684846125e5565b105b156142e5575060006133bf565b6000846001600160a01b031663765e0159856040518263ffffffff1660e01b815260040180826001600160a01b0316815260200191505060206040518083038186803b15801561433457600080fd5b505afa158015614348573d6000803e3d6000fd5b505050506040513d602081101561435e57600080fd5b505190506001600160a01b0381161580611d9d5750670f43fc2c04ee000061438682856125e5565b1095945050505050565b6143986159c0565b6001600160a01b0387166000908152607160205260409020546143e69087906143e1907f00000000000000000000000000000000000000000000000000000000000000006129ee565b615074565b80825261440190869061140390670de0b6b3a76400006133c6565b60208083019190915281516001600160a01b03891660009081526071909252604082205461442e916129ee565b6020808401516001600160a01b038b16600090815260719092526040822060010154929350909161445e916129ee565b90507f00000000000000000000000000000000000000000000000000000000000000008214156145225761449189614932565b61449c896004614796565b6144c88a8a7f00000000000000000000000000000000000000000000000000000000000000008461535b565b886001600160a01b0316600080516020615b9b833981519152600080600060036040518085815260200184815260200183815260200182600381111561450a57fe5b815260200194505050505060405180910390a2614676565b600061452e8284613fad565b9050848114158061456657507f0000000000000000000000000000000000000000000000000000000000000000614564846154fd565b105b1561457a5750506001604083015250614679565b60808b01516040805163015f109360e51b81526001600160a01b038d81166004830152602482018590528a81166044830152898116606483015291519190921691632be2126091608480830192600092919082900301818387803b1580156145e157600080fd5b505af11580156145f5573d6000803e3d6000fd5b5050506001600160a01b038b166000908152607160205260409020848155600101839055506146238a612ae5565b506001600160a01b038a1660008181526071602090815260409182902060020154825187815291820186905281830152600360608201529051600080516020615b9b8339815191529181900360800190a2505b50505b979650505050505050565b60008061468f613486565b905060006146a18461140388886133c6565b905060006146ba6146b383600261341f565b84906139fd565b90506146ce81670de0b6b3a7640000615074565b9050600081116146da57fe5b606f8190556040805182815290517fc454ee9b76c52f782a256af821b857ca6e125d1e3333bcede402fec2bed9600c9181900360200190a16114096134ca565b6000610df061264761128b565b600061473f8361140386670de0b6b3a76400006133c6565b9050818111156130c9576040805162461bcd60e51b815260206004820152601d60248201527f4665652065786365656465642070726f7669646564206d6178696d756d000000604482015290519081900360640190fd5b60008160048111156147a457fe5b141580156147be575060018160048111156147bb57fe5b14155b6147c457fe5b6078546147d081615529565b6001600160a01b0383166000908152607160205260409020600301805483919060ff1916600183600481111561480257fe5b02179055506001600160a01b038316600090815260716020908152604080832060018082018590559084905560779092528220828155015561484483826155e2565b606e5460408051631484968760e11b81526001600160a01b038681166004830152915191909216916329092d0e91602480830192600092919082900301818387803b15801561489257600080fd5b505af11580156148a6573d6000803e3d6000fd5b50505050505050565b600082156148d05760006148c78461140387866133c6565b91506133bf9050565b506000196133bf565b6000806148f2670de0b6b3a764000061140386866133c6565b90508281106133bf5760405162461bcd60e51b8152600401808060200182810382526036815260200180615c5a6036913960400191505060405180910390fd5b6001600160a01b03811660009081526071602052604090206002015460725461495b90826129ee565b607255506001600160a01b0316600090815260716020526040812060020155565b826001600160a01b0316632a7ba1f7836040518263ffffffff1660e01b815260040180828152602001915050600060405180830381600087803b1580156149c257600080fd5b505af11580156149d6573d6000803e3d6000fd5b50505050836001600160a01b0316632b7c7b11836040518263ffffffff1660e01b815260040180828152602001915050600060405180830381600087803b158015614a2057600080fd5b505af1158015614a34573d6000803e3d6000fd5b50505050826001600160a01b0316638f7be730826040518263ffffffff1660e01b815260040180828152602001915050600060405180830381600087803b1580156132eb57600080fd5b60008060745460001415614a93575081610df0565b600060735411614a9f57fe5b6133bf607454611403607354866133c690919063ffffffff16565b614ac26158e7565b614aca6159e3565b607854600110614ada5750614679565b614ae387611dc0565b60408501526020848101919091528401819052908352614b0290615789565b604083018190527f000000000000000000000000000000000000000000000000000000000000000060608401526020830151614b3d916129ee565b8152670de0b6b3a76400008611614c3f57614b6289898360200151846040015161497c565b614b6b87614932565b60006080830181905260a0830152815160c0830152805160e0830152614b92876003614796565b866001600160a01b0316600080516020615a0583398151915283600001518460200151600260405180848152602001838152602001826003811115614bd357fe5b8152602001935050505060405180910390a2866001600160a01b0316600080516020615b9b8339815191526000806000600260405180858152602001848152602001838152602001826003811115614c2757fe5b815260200194505050505060405180910390a2614dec565b670de0b6b3a764000086118015614c5d5750670f43fc2c04ee000086105b15614cad57614c7689898360200151846040015161497c565b614c7f87614932565b81518151614c8e919087615790565b60e086015260c085015260a08401526080830152614b92876003614796565b670f43fc2c04ee00008610158015614cc457508386105b8015614cd1575081518510155b15614ddb57614cea89898360200151846040015161497c565b84614cf157fe5b614cfa87614932565b614d0d82600001518360200151856157ea565b9150614d1a876003614796565b61010082015115614d9a5760695461010083015160408051633f10abab60e01b81526001600160a01b038b81166004830152602482019390935290519190921691633f10abab91604480830192600092919082900301818387803b158015614d8157600080fd5b505af1158015614d95573d6000803e3d6000fd5b505050505b866001600160a01b0316600080516020615a0583398151915283600001518460a00151600260405180848152602001838152602001826003811115614bd357fe5b614de36158e7565b91506146799050565b50979650505050505050565b614e006158e7565b60408083015190840151614e13916139fd565b604082015260608083015190840151614e2b916139fd565b606082015281516020840151614e40916139fd565b6020808301919091528201518351614e57916139fd565b815260808083015190840151614e6c916139fd565b608082015260a08083015190840151614e84916139fd565b60a082015260c08083015190840151614e9c916139fd565b60c082015260e08083015190840151614eb4916139fd565b60e08201526101008083015190840151614ecd916139fd565b61010082015292915050565b600080614ee78585856148af565b6714d1120d7b1600001195945050505050565b614f026158e7565b614f0a6159e3565b614f1384611dc0565b60408501908152602085810192835286019290925291845290519051614f3d91889188919061497c565b614f4684614932565b614f538260200151615789565b604083018190527f000000000000000000000000000000000000000000000000000000000000000060608401526020830151600091614f9291906129ee565b9050614fa383600001518286615790565b60e087015260c086015260a08501526080840152614fc2856003614796565b846001600160a01b0316600080516020615a058339815191528460000151856020015160016040518084815260200183815260200182600381111561500357fe5b8152602001935050505060405180910390a2846001600160a01b0316600080516020615b9b833981519152600080600060016040518085815260200184815260200183815260200182600381111561505757fe5b815260200194505050505060405180910390a25050949350505050565b600081831061508357816133bf565b5090919050565b6000611298603c611403607054426129ee90919063ffffffff16565b6000631f5405008211156150bc57631f54050091505b816150d05750670de0b6b3a7640000610df0565b670de0b6b3a764000083835b600181111561513b576002810661510b576150f78283615889565b915061510481600261341f565b9050615136565b6151158284615889565b92506151218283615889565b915061513360026114038360016129ee565b90505b6150dc565b6114098284615889565b3b151590565b600254600160a81b900460ff16806151665750615166613a57565b8061517b5750600254600160a01b900460ff16155b6151b65760405162461bcd60e51b815260040180806020018281038252602e815260200180615a74602e913960400191505060405180910390fd5b600254600160a81b900460ff16158015613b1a576002805460ff60a01b1960ff60a81b19909116600160a81b1716600160a01b1790558015610da1576002805460ff60a81b1916905550565b600254600160a81b900460ff168061521d575061521d613a57565b806152325750600254600160a01b900460ff16155b61526d5760405162461bcd60e51b815260040180806020018281038252602e815260200180615a74602e913960400191505060405180910390fd5b600254600160a81b900460ff161580156152a4576002805460ff60a01b1960ff60a81b19909116600160a81b1716600160a01b1790555b60006152ae6139f9565b603580546001600160a01b0319166001600160a01b03831690811790915560405191925090600090600080516020615b7b833981519152908290a3508015610da1576002805460ff60a81b1916905550565b6001600160a01b038116610da1576040805162461bcd60e51b815260206004820152601e60248201527f4163636f756e742063616e6e6f74206265207a65726f20616464726573730000604482015290519081900360640190fd5b6040808501516068548251632770a7eb60e21b81526001600160a01b039182166004820152602481018690529251911691639dc29fac91604480830192600092919082900301818387803b1580156153b257600080fd5b505af11580156153c6573d6000803e3d6000fd5b5050505083600001516001600160a01b0316632a7ba1f7836040518263ffffffff1660e01b815260040180828152602001915050600060405180830381600087803b15801561541457600080fd5b505af1158015615428573d6000803e3d6000fd5b505050508360a001516001600160a01b0316633f10abab84836040518363ffffffff1660e01b815260040180836001600160a01b0316815260200182815260200192505050600060405180830381600087803b15801561548757600080fd5b505af115801561549b573d6000803e3d6000fd5b5050505083600001516001600160a01b0316628063a58560a00151836040518363ffffffff1660e01b815260040180836001600160a01b0316815260200182815260200192505050600060405180830381600087803b1580156132eb57600080fd5b6000610df0827f00000000000000000000000000000000000000000000000000000000000000006129ee565b6001811180156155a75750606e546040805163de8fa43160e01b815290516001926001600160a01b03169163de8fa431916004808301926020929190829003018186803b15801561557957600080fd5b505afa15801561558d573d6000803e3d6000fd5b505050506040513d60208110156155a357600080fd5b5051115b610da15760405162461bcd60e51b815260040180806020018281038252602a815260200180615af0602a913960400191505060405180910390fd5b6001600160a01b03821660009081526071602052604081206003015460ff169081600481111561560e57fe5b141580156156285750600181600481111561562557fe5b14155b61562e57fe5b6001600160a01b03831660009081526071602052604081206003015461010090046001600160801b03169083906156668260016129ee565b905080836001600160801b0316111561567b57fe5b60006078828154811061568a57fe5b600091825260209091200154607880546001600160a01b03909216925082916001600160801b0387169081106156bc57fe5b600091825260208083209190910180546001600160a01b0319166001600160a01b03948516179055918316808252607183526040918290206003018054610100600160881b0319166101006001600160801b038a169081029190911790915582519182529281019290925280517f02b04ae5f7be9ca7c103293a2aa15f3c339d15d6eda53b721fef7b0e609c831a9281900390910190a1607880548061575e57fe5b600082815260209020810160001990810180546001600160a01b031916905501905550505050505050565b60c8900490565b600080808084156157d4576157a58786615074565b93506157b58761140388876133c6565b92506157c187856129ee565b91506157cd86846129ee565b90506157e1565b5060009250829150859050845b93509350935093565b6157f26158e7565b8381526020810183905260006158148361140387670f43fc2c04ee00006133c6565b905061581f81615789565b604083018190527f000000000000000000000000000000000000000000000000000000000000000060608401526080830186905261585e9082906129ee565b60a083015261586d84826129ee565b61010083015250600060c0820181905260e08201529392505050565b60008061589684846133c6565b9050614000670de0b6b3a7640000611403836706f05b59d3b200006139fd565b6040518060a00160405280600081526020016000815260200160001515815260200160008152602001600081525090565b6040518061012001604052806000815260200160008152602001600081526020016000815260200160008152602001600081526020016000815260200160008152602001600081525090565b60405180610100016040528060008152602001600081526020016000815260200160008152602001600081526020016000815260200160008152602001600081525090565b6040518060e0016040528060008152602001600081526020016000815260200160006001600160a01b0316815260200160001515815260200160008152602001600081525090565b604051806060016040528060008152602001600081526020016000151581525090565b6040518060600160405280600081526020016000815260200160008152509056feea67486ed7ebe3eea8ab3390efd4a3c8aae48be5bea27df104a8af786c4084344f776e61626c653a206e6577206f776e657220697320746865207a65726f206164647265737354726f76654d616e616765723a20556e61626c6520746f2072656465656d20616e7920616d6f756e74496e697469616c697a61626c653a20636f6e747261637420697320616c726561647920696e697469616c697a656454726f76654d616e616765723a2052657175657374656420726564656d7074696f6e20616d6f756e74206d757374206265203c3d20757365722773206465627420746f6b656e2062616c616e636554726f76654d616e616765723a204f6e6c79206f6e652074726f766520696e207468652073797374656d54726f76654d616e616765723a20526564656d7074696f6e7320617265206e6f7420616c6c6f77656420647572696e6720626f6f747374726170207068617365536166654d6174683a206d756c7469706c69636174696f6e206f766572666c6f778be0079c531659141344cd1fd0a4f28419497f9722a3daafe3b4186f6b6457e0c3770d654ed33aeea6bf11ac8ef05d02a6a04ed4686dd2f624d853bbec43cc8b54726f76654d616e616765723a2043616c6c6572206973206e6f742074686520426f72726f7765724f7065726174696f6e7320636f6e747261637454726f76654d616e616765723a2043616c6c646174612061646472657373206172726179206d757374206e6f7420626520656d70747954726f76654d616e616765723a20416d6f756e74206d7573742062652067726561746572207468616e207a65726f54726f76654d616e616765723a2046656520776f756c642065617420757020616c6c2072657475726e656420636f6c6c61746572616c4d6178206665652070657263656e74616765206d757374206265206265747765656e20302e352520616e64203130302554726f76654d616e616765723a2043616e6e6f742072656465656d207768656e20544352203c204d435254726f76654d616e616765723a206e6f7468696e6720746f206c697175696461746554726f76654d616e616765723a2054726f766520646f6573206e6f74206578697374206f7220697320636c6f736564a264697066735822122099331b174a1f4ade4105af15d87ff789ddd02adc667d3c06e629a093911794fe64736f6c63430007060033",
  "linkReferences": {},
  "deployedLinkReferences": {}
}