{
  "_format": "hh-sol-artifact-1",
  "contractName": "TroveManagerTester",
  "sourceName": "contracts/TestContracts/CDPManagerTester.sol",
  "abi": [
    {
      "inputs": [
        {
          "internalType": "uint256",
          "name": "_gasCompensation",
          "type": "uint256"
        },
        {
          "internalType": "uint256",
          "name": "_minNetDebt",
          "type": "uint256"
        },
        {
          "internalType": "uint256",
          "name": "_bootstrapPeriod",
          "type": "uint256"
        }
      ],
      "stateMutability": "nonpayable",
      "type": "constructor"
    },
    {
      "anonymous": false,
      "inputs": [
        {
          "indexed": false,
          "internalType": "address",
          "name": "_activePoolAddress",
          "type": "address"
        }
      ],
      "name": "ActivePoolAddressChanged",
      "type": "event"
    },
    {
      "anonymous": false,
      "inputs": [
        {
          "indexed": false,
          "internalType": "uint256",
          "name": "_baseRate",
          "type": "uint256"
        }
      ],
      "name": "BaseRateUpdated",
      "type": "event"
    },
    {
      "anonymous": false,
      "inputs": [
        {
          "indexed": false,
          "internalType": "address",
          "name": "_newBorrowerOperationsAddress",
          "type": "address"
        }
      ],
      "name": "BorrowerOperationsAddressChanged",
      "type": "event"
    },
    {
      "anonymous": false,
      "inputs": [
        {
          "indexed": false,
          "internalType": "address",
          "name": "_collSurplusPoolAddress",
          "type": "address"
        }
      ],
      "name": "CollSurplusPoolAddressChanged",
      "type": "event"
    },
    {
      "anonymous": false,
      "inputs": [
        {
          "indexed": false,
          "internalType": "address",
          "name": "_newDebtTokenAddress",
          "type": "address"
        }
      ],
      "name": "DebtTokenAddressChanged",
      "type": "event"
    },
    {
      "anonymous": false,
      "inputs": [
        {
          "indexed": false,
          "internalType": "address",
          "name": "_defaultPoolAddress",
          "type": "address"
        }
      ],
      "name": "DefaultPoolAddressChanged",
      "type": "event"
    },
    {
      "anonymous": false,
      "inputs": [
        {
          "indexed": false,
          "internalType": "address",
          "name": "_gasPoolAddress",
          "type": "address"
        }
      ],
      "name": "GasPoolAddressChanged",
      "type": "event"
    },
    {
      "anonymous": false,
      "inputs": [
        {
          "indexed": false,
          "internalType": "uint256",
          "name": "_L_FIL",
          "type": "uint256"
        },
        {
          "indexed": false,
          "internalType": "uint256",
          "name": "_L_Debt",
          "type": "uint256"
        }
      ],
      "name": "LTermsUpdated",
      "type": "event"
    },
    {
      "anonymous": false,
      "inputs": [
        {
          "indexed": false,
          "internalType": "uint256",
          "name": "_lastFeeOpTime",
          "type": "uint256"
        }
      ],
      "name": "LastFeeOpTimeUpdated",
      "type": "event"
    },
    {
      "anonymous": false,
      "inputs": [
        {
          "indexed": false,
          "internalType": "uint256",
          "name": "_liquidatedDebt",
          "type": "uint256"
        },
        {
          "indexed": false,
          "internalType": "uint256",
          "name": "_liquidatedColl",
          "type": "uint256"
        },
        {
          "indexed": false,
          "internalType": "uint256",
          "name": "_collGasCompensation",
          "type": "uint256"
        },
        {
          "indexed": false,
          "internalType": "uint256",
          "name": "_debtGasCompensation",
          "type": "uint256"
        }
      ],
      "name": "Liquidation",
      "type": "event"
    },
    {
      "anonymous": false,
      "inputs": [
        {
          "indexed": true,
          "internalType": "address",
          "name": "previousOwner",
          "type": "address"
        },
        {
          "indexed": true,
          "internalType": "address",
          "name": "newOwner",
          "type": "address"
        }
      ],
      "name": "OwnershipTransferred",
      "type": "event"
    },
    {
      "anonymous": false,
      "inputs": [
        {
          "indexed": false,
          "internalType": "address",
          "name": "_newPriceFeedAddress",
          "type": "address"
        }
      ],
      "name": "PriceFeedAddressChanged",
      "type": "event"
    },
    {
      "anonymous": false,
      "inputs": [
        {
          "indexed": false,
          "internalType": "address",
          "name": "_protocolTokenStakingAddress",
          "type": "address"
        }
      ],
      "name": "ProtocolTokenStakingAddressChanged",
      "type": "event"
    },
    {
      "anonymous": false,
      "inputs": [
        {
          "indexed": false,
          "internalType": "uint256",
          "name": "_attemptedDebtTokenAmount",
          "type": "uint256"
        },
        {
          "indexed": false,
          "internalType": "uint256",
          "name": "_actualDebtTokenAmount",
          "type": "uint256"
        },
        {
          "indexed": false,
          "internalType": "uint256",
          "name": "_FILSent",
          "type": "uint256"
        },
        {
          "indexed": false,
          "internalType": "uint256",
          "name": "_FILFee",
          "type": "uint256"
        }
      ],
      "name": "Redemption",
      "type": "event"
    },
    {
      "anonymous": false,
      "inputs": [
        {
          "indexed": false,
          "internalType": "address",
          "name": "_sortedTrovesAddress",
          "type": "address"
        }
      ],
      "name": "SortedTrovesAddressChanged",
      "type": "event"
    },
    {
      "anonymous": false,
      "inputs": [
        {
          "indexed": false,
          "internalType": "address",
          "name": "_stabilityPoolAddress",
          "type": "address"
        }
      ],
      "name": "StabilityPoolAddressChanged",
      "type": "event"
    },
    {
      "anonymous": false,
      "inputs": [
        {
          "indexed": false,
          "internalType": "uint256",
          "name": "_totalStakesSnapshot",
          "type": "uint256"
        },
        {
          "indexed": false,
          "internalType": "uint256",
          "name": "_totalCollateralSnapshot",
          "type": "uint256"
        }
      ],
      "name": "SystemSnapshotsUpdated",
      "type": "event"
    },
    {
      "anonymous": false,
      "inputs": [
        {
          "indexed": false,
          "internalType": "uint256",
          "name": "_newTotalStakes",
          "type": "uint256"
        }
      ],
      "name": "TotalStakesUpdated",
      "type": "event"
    },
    {
      "anonymous": false,
      "inputs": [
        {
          "indexed": false,
          "internalType": "address",
          "name": "_borrower",
          "type": "address"
        },
        {
          "indexed": false,
          "internalType": "uint256",
          "name": "_newIndex",
          "type": "uint256"
        }
      ],
      "name": "TroveIndexUpdated",
      "type": "event"
    },
    {
      "anonymous": false,
      "inputs": [
        {
          "indexed": true,
          "internalType": "address",
          "name": "_borrower",
          "type": "address"
        },
        {
          "indexed": false,
          "internalType": "uint256",
          "name": "_debt",
          "type": "uint256"
        },
        {
          "indexed": false,
          "internalType": "uint256",
          "name": "_coll",
          "type": "uint256"
        },
        {
          "indexed": false,
          "internalType": "enum ITroveManager.TroveManagerOperation",
          "name": "_operation",
          "type": "uint8"
        }
      ],
      "name": "TroveLiquidated",
      "type": "event"
    },
    {
      "anonymous": false,
      "inputs": [
        {
          "indexed": false,
          "internalType": "uint256",
          "name": "_L_FIL",
          "type": "uint256"
        },
        {
          "indexed": false,
          "internalType": "uint256",
          "name": "_L_Debt",
          "type": "uint256"
        }
      ],
      "name": "TroveSnapshotsUpdated",
      "type": "event"
    },
    {
      "anonymous": false,
      "inputs": [
        {
          "indexed": true,
          "internalType": "address",
          "name": "_borrower",
          "type": "address"
        },
        {
          "indexed": false,
          "internalType": "uint256",
          "name": "_debt",
          "type": "uint256"
        },
        {
          "indexed": false,
          "internalType": "uint256",
          "name": "_coll",
          "type": "uint256"
        },
        {
          "indexed": false,
          "internalType": "uint256",
          "name": "stake",
          "type": "uint256"
        },
        {
          "indexed": false,
          "internalType": "enum ITroveManager.TroveManagerOperation",
          "name": "_operation",
          "type": "uint8"
        }
      ],
      "name": "TroveUpdated",
      "type": "event"
    },
    {
      "inputs": [],
      "name": "BETA",
      "outputs": [
        {
          "internalType": "uint256",
          "name": "",
          "type": "uint256"
        }
      ],
      "stateMutability": "view",
      "type": "function"
    },
    {
      "inputs": [],
      "name": "BOOTSTRAP_PERIOD",
      "outputs": [
        {
          "internalType": "uint256",
          "name": "",
          "type": "uint256"
        }
      ],
      "stateMutability": "view",
      "type": "function"
    },
    {
      "inputs": [],
      "name": "BORROWING_FEE_FLOOR",
      "outputs": [
        {
          "internalType": "uint256",
          "name": "",
          "type": "uint256"
        }
      ],
      "stateMutability": "view",
      "type": "function"
    },
    {
      "inputs": [],
      "name": "CCR",
      "outputs": [
        {
          "internalType": "uint256",
          "name": "",
          "type": "uint256"
        }
      ],
      "stateMutability": "view",
      "type": "function"
    },
    {
      "inputs": [],
      "name": "DECIMAL_PRECISION",
      "outputs": [
        {
          "internalType": "uint256",
          "name": "",
          "type": "uint256"
        }
      ],
      "stateMutability": "view",
      "type": "function"
    },
    {
      "inputs": [],
      "name": "GAS_COMPENSATION",
      "outputs": [
        {
          "internalType": "uint256",
          "name": "",
          "type": "uint256"
        }
      ],
      "stateMutability": "view",
      "type": "function"
    },
    {
      "inputs": [],
      "name": "L_Debt",
      "outputs": [
        {
          "internalType": "uint256",
          "name": "",
          "type": "uint256"
        }
      ],
      "stateMutability": "view",
      "type": "function"
    },
    {
      "inputs": [],
      "name": "L_FIL",
      "outputs": [
        {
          "internalType": "uint256",
          "name": "",
          "type": "uint256"
        }
      ],
      "stateMutability": "view",
      "type": "function"
    },
    {
      "inputs": [],
      "name": "MAX_BORROWING_FEE",
      "outputs": [
        {
          "internalType": "uint256",
          "name": "",
          "type": "uint256"
        }
      ],
      "stateMutability": "view",
      "type": "function"
    },
    {
      "inputs": [],
      "name": "MCR",
      "outputs": [
        {
          "internalType": "uint256",
          "name": "",
          "type": "uint256"
        }
      ],
      "stateMutability": "view",
      "type": "function"
    },
    {
      "inputs": [],
      "name": "MINUTE_DECAY_FACTOR",
      "outputs": [
        {
          "internalType": "uint256",
          "name": "",
          "type": "uint256"
        }
      ],
      "stateMutability": "view",
      "type": "function"
    },
    {
      "inputs": [],
      "name": "MIN_NET_DEBT",
      "outputs": [
        {
          "internalType": "uint256",
          "name": "",
          "type": "uint256"
        }
      ],
      "stateMutability": "view",
      "type": "function"
    },
    {
      "inputs": [],
      "name": "NAME",
      "outputs": [
        {
          "internalType": "string",
          "name": "",
          "type": "string"
        }
      ],
      "stateMutability": "view",
      "type": "function"
    },
    {
      "inputs": [],
      "name": "PERCENT_DIVISOR",
      "outputs": [
        {
          "internalType": "uint256",
          "name": "",
          "type": "uint256"
        }
      ],
      "stateMutability": "view",
      "type": "function"
    },
    {
      "inputs": [],
      "name": "REDEMPTION_FEE_FLOOR",
      "outputs": [
        {
          "internalType": "uint256",
          "name": "",
          "type": "uint256"
        }
      ],
      "stateMutability": "view",
      "type": "function"
    },
    {
      "inputs": [],
      "name": "SECONDS_IN_ONE_MINUTE",
      "outputs": [
        {
          "internalType": "uint256",
          "name": "",
          "type": "uint256"
        }
      ],
      "stateMutability": "view",
      "type": "function"
    },
    {
      "inputs": [
        {
          "internalType": "uint256",
          "name": "",
          "type": "uint256"
        }
      ],
      "name": "TroveOwners",
      "outputs": [
        {
          "internalType": "address",
          "name": "",
          "type": "address"
        }
      ],
      "stateMutability": "view",
      "type": "function"
    },
    {
      "inputs": [
        {
          "internalType": "address",
          "name": "",
          "type": "address"
        }
      ],
      "name": "Troves",
      "outputs": [
        {
          "internalType": "uint256",
          "name": "debt",
          "type": "uint256"
        },
        {
          "internalType": "uint256",
          "name": "coll",
          "type": "uint256"
        },
        {
          "internalType": "uint256",
          "name": "stake",
          "type": "uint256"
        },
        {
          "internalType": "enum ITroveManager.Status",
          "name": "status",
          "type": "uint8"
        },
        {
          "internalType": "uint128",
          "name": "arrayIndex",
          "type": "uint128"
        }
      ],
      "stateMutability": "view",
      "type": "function"
    },
    {
      "inputs": [],
      "name": "_100pct",
      "outputs": [
        {
          "internalType": "uint256",
          "name": "",
          "type": "uint256"
        }
      ],
      "stateMutability": "view",
      "type": "function"
    },
    {
      "inputs": [],
      "name": "activePool",
      "outputs": [
        {
          "internalType": "contract IActivePool",
          "name": "",
          "type": "address"
        }
      ],
      "stateMutability": "view",
      "type": "function"
    },
    {
      "inputs": [
        {
          "internalType": "address",
          "name": "_borrower",
          "type": "address"
        }
      ],
      "name": "addTroveOwnerToArray",
      "outputs": [
        {
          "internalType": "uint256",
          "name": "index",
          "type": "uint256"
        }
      ],
      "stateMutability": "nonpayable",
      "type": "function"
    },
    {
      "inputs": [
        {
          "internalType": "address",
          "name": "_borrower",
          "type": "address"
        }
      ],
      "name": "applyPendingRewards",
      "outputs": [],
      "stateMutability": "nonpayable",
      "type": "function"
    },
    {
      "inputs": [],
      "name": "baseRate",
      "outputs": [
        {
          "internalType": "uint256",
          "name": "",
          "type": "uint256"
        }
      ],
      "stateMutability": "view",
      "type": "function"
    },
    {
      "inputs": [
        {
          "internalType": "address[]",
          "name": "_troveArray",
          "type": "address[]"
        }
      ],
      "name": "batchLiquidateTroves",
      "outputs": [],
      "stateMutability": "nonpayable",
      "type": "function"
    },
    {
      "inputs": [],
      "name": "borrowerOperationsAddress",
      "outputs": [
        {
          "internalType": "address",
          "name": "",
          "type": "address"
        }
      ],
      "stateMutability": "view",
      "type": "function"
    },
    {
      "inputs": [
        {
          "internalType": "uint256",
          "name": "_FILDrawn",
          "type": "uint256"
        }
      ],
      "name": "callGetRedemptionFee",
      "outputs": [
        {
          "internalType": "uint256",
          "name": "",
          "type": "uint256"
        }
      ],
      "stateMutability": "view",
      "type": "function"
    },
    {
      "inputs": [
        {
          "internalType": "address",
          "name": "_troveOwner",
          "type": "address"
        }
      ],
      "name": "callInternalRemoveTroveOwner",
      "outputs": [],
      "stateMutability": "nonpayable",
      "type": "function"
    },
    {
      "inputs": [
        {
          "internalType": "uint256",
          "name": "_price",
          "type": "uint256"
        }
      ],
      "name": "checkRecoveryMode",
      "outputs": [
        {
          "internalType": "bool",
          "name": "",
          "type": "bool"
        }
      ],
      "stateMutability": "view",
      "type": "function"
    },
    {
      "inputs": [
        {
          "internalType": "address",
          "name": "_borrower",
          "type": "address"
        }
      ],
      "name": "closeTrove",
      "outputs": [],
      "stateMutability": "nonpayable",
      "type": "function"
    },
    {
      "inputs": [],
      "name": "collSurplusPool",
      "outputs": [
        {
          "internalType": "contract ICollSurplusPool",
          "name": "",
          "type": "address"
        }
      ],
      "stateMutability": "view",
      "type": "function"
    },
    {
      "inputs": [
        {
          "internalType": "uint256",
          "name": "_coll",
          "type": "uint256"
        },
        {
          "internalType": "uint256",
          "name": "_debt",
          "type": "uint256"
        },
        {
          "internalType": "uint256",
          "name": "_price",
          "type": "uint256"
        }
      ],
      "name": "computeICR",
      "outputs": [
        {
          "internalType": "uint256",
          "name": "",
          "type": "uint256"
        }
      ],
      "stateMutability": "pure",
      "type": "function"
    },
    {
      "inputs": [],
      "name": "debtToken",
      "outputs": [
        {
          "internalType": "contract IDebtToken",
          "name": "",
          "type": "address"
        }
      ],
      "stateMutability": "view",
      "type": "function"
    },
    {
      "inputs": [],
      "name": "decayBaseRateFromBorrowing",
      "outputs": [],
      "stateMutability": "nonpayable",
      "type": "function"
    },
    {
      "inputs": [
        {
          "internalType": "address",
          "name": "_borrower",
          "type": "address"
        },
        {
          "internalType": "uint256",
          "name": "_collDecrease",
          "type": "uint256"
        }
      ],
      "name": "decreaseTroveColl",
      "outputs": [
        {
          "internalType": "uint256",
          "name": "",
          "type": "uint256"
        }
      ],
      "stateMutability": "nonpayable",
      "type": "function"
    },
    {
      "inputs": [
        {
          "internalType": "address",
          "name": "_borrower",
          "type": "address"
        },
        {
          "internalType": "uint256",
          "name": "_debtDecrease",
          "type": "uint256"
        }
      ],
      "name": "decreaseTroveDebt",
      "outputs": [
        {
          "internalType": "uint256",
          "name": "",
          "type": "uint256"
        }
      ],
      "stateMutability": "nonpayable",
      "type": "function"
    },
    {
      "inputs": [],
      "name": "defaultPool",
      "outputs": [
        {
          "internalType": "contract IDefaultPool",
          "name": "",
          "type": "address"
        }
      ],
      "stateMutability": "view",
      "type": "function"
    },
    {
      "inputs": [],
      "name": "deploymentStartTime",
      "outputs": [
        {
          "internalType": "uint256",
          "name": "",
          "type": "uint256"
        }
      ],
      "stateMutability": "view",
      "type": "function"
    },
    {
      "inputs": [],
      "name": "gasPoolAddress",
      "outputs": [
        {
          "internalType": "address",
          "name": "",
          "type": "address"
        }
      ],
      "stateMutability": "view",
      "type": "function"
    },
    {
      "inputs": [
        {
          "internalType": "uint256",
          "name": "_debtVal",
          "type": "uint256"
        }
      ],
      "name": "getActualDebtFromComposite",
      "outputs": [
        {
          "internalType": "uint256",
          "name": "",
          "type": "uint256"
        }
      ],
      "stateMutability": "view",
      "type": "function"
    },
    {
      "inputs": [
        {
          "internalType": "uint256",
          "name": "_debt",
          "type": "uint256"
        }
      ],
      "name": "getBorrowingFee",
      "outputs": [
        {
          "internalType": "uint256",
          "name": "",
          "type": "uint256"
        }
      ],
      "stateMutability": "view",
      "type": "function"
    },
    {
      "inputs": [
        {
          "internalType": "uint256",
          "name": "_debt",
          "type": "uint256"
        }
      ],
      "name": "getBorrowingFeeWithDecay",
      "outputs": [
        {
          "internalType": "uint256",
          "name": "",
          "type": "uint256"
        }
      ],
      "stateMutability": "view",
      "type": "function"
    },
    {
      "inputs": [],
      "name": "getBorrowingRate",
      "outputs": [
        {
          "internalType": "uint256",
          "name": "",
          "type": "uint256"
        }
      ],
      "stateMutability": "view",
      "type": "function"
    },
    {
      "inputs": [],
      "name": "getBorrowingRateWithDecay",
      "outputs": [
        {
          "internalType": "uint256",
          "name": "",
          "type": "uint256"
        }
      ],
      "stateMutability": "view",
      "type": "function"
    },
    {
      "inputs": [
        {
          "internalType": "uint256",
          "name": "_coll",
          "type": "uint256"
        }
      ],
      "name": "getCollGasCompensation",
      "outputs": [
        {
          "internalType": "uint256",
          "name": "",
          "type": "uint256"
        }
      ],
      "stateMutability": "pure",
      "type": "function"
    },
    {
      "inputs": [
        {
          "internalType": "uint256",
          "name": "_debt",
          "type": "uint256"
        }
      ],
      "name": "getCompositeDebt",
      "outputs": [
        {
          "internalType": "uint256",
          "name": "",
          "type": "uint256"
        }
      ],
      "stateMutability": "view",
      "type": "function"
    },
    {
      "inputs": [
        {
          "internalType": "address",
          "name": "_borrower",
          "type": "address"
        },
        {
          "internalType": "uint256",
          "name": "_price",
          "type": "uint256"
        }
      ],
      "name": "getCurrentICR",
      "outputs": [
        {
          "internalType": "uint256",
          "name": "",
          "type": "uint256"
        }
      ],
      "stateMutability": "view",
      "type": "function"
    },
    {
      "inputs": [
        {
          "internalType": "address",
          "name": "_borrower",
          "type": "address"
        }
      ],
      "name": "getEntireDebtAndColl",
      "outputs": [
        {
          "internalType": "uint256",
          "name": "debt",
          "type": "uint256"
        },
        {
          "internalType": "uint256",
          "name": "coll",
          "type": "uint256"
        },
        {
          "internalType": "uint256",
          "name": "pendingDebtReward",
          "type": "uint256"
        },
        {
          "internalType": "uint256",
          "name": "pendingFILReward",
          "type": "uint256"
        }
      ],
      "stateMutability": "view",
      "type": "function"
    },
    {
      "inputs": [],
      "name": "getEntireSystemColl",
      "outputs": [
        {
          "internalType": "uint256",
          "name": "entireSystemColl",
          "type": "uint256"
        }
      ],
      "stateMutability": "view",
      "type": "function"
    },
    {
      "inputs": [],
      "name": "getEntireSystemDebt",
      "outputs": [
        {
          "internalType": "uint256",
          "name": "entireSystemDebt",
          "type": "uint256"
        }
      ],
      "stateMutability": "view",
      "type": "function"
    },
    {
      "inputs": [],
      "name": "getGasCompensation",
      "outputs": [
        {
          "internalType": "uint256",
          "name": "",
          "type": "uint256"
        }
      ],
      "stateMutability": "view",
      "type": "function"
    },
    {
      "inputs": [
        {
          "internalType": "address",
          "name": "_borrower",
          "type": "address"
        }
      ],
      "name": "getNominalICR",
      "outputs": [
        {
          "internalType": "uint256",
          "name": "",
          "type": "uint256"
        }
      ],
      "stateMutability": "view",
      "type": "function"
    },
    {
      "inputs": [
        {
          "internalType": "address",
          "name": "_borrower",
          "type": "address"
        }
      ],
      "name": "getPendingDebtReward",
      "outputs": [
        {
          "internalType": "uint256",
          "name": "",
          "type": "uint256"
        }
      ],
      "stateMutability": "view",
      "type": "function"
    },
    {
      "inputs": [
        {
          "internalType": "address",
          "name": "_borrower",
          "type": "address"
        }
      ],
      "name": "getPendingFILReward",
      "outputs": [
        {
          "internalType": "uint256",
          "name": "",
          "type": "uint256"
        }
      ],
      "stateMutability": "view",
      "type": "function"
    },
    {
      "inputs": [
        {
          "internalType": "uint256",
          "name": "_FILDrawn",
          "type": "uint256"
        }
      ],
      "name": "getRedemptionFeeWithDecay",
      "outputs": [
        {
          "internalType": "uint256",
          "name": "",
          "type": "uint256"
        }
      ],
      "stateMutability": "view",
      "type": "function"
    },
    {
      "inputs": [],
      "name": "getRedemptionRate",
      "outputs": [
        {
          "internalType": "uint256",
          "name": "",
          "type": "uint256"
        }
      ],
      "stateMutability": "view",
      "type": "function"
    },
    {
      "inputs": [],
      "name": "getRedemptionRateWithDecay",
      "outputs": [
        {
          "internalType": "uint256",
          "name": "",
          "type": "uint256"
        }
      ],
      "stateMutability": "view",
      "type": "function"
    },
    {
      "inputs": [
        {
          "internalType": "uint256",
          "name": "_price",
          "type": "uint256"
        }
      ],
      "name": "getTCR",
      "outputs": [
        {
          "internalType": "uint256",
          "name": "",
          "type": "uint256"
        }
      ],
      "stateMutability": "view",
      "type": "function"
    },
    {
      "inputs": [
        {
          "internalType": "address",
          "name": "_borrower",
          "type": "address"
        }
      ],
      "name": "getTroveColl",
      "outputs": [
        {
          "internalType": "uint256",
          "name": "",
          "type": "uint256"
        }
      ],
      "stateMutability": "view",
      "type": "function"
    },
    {
      "inputs": [
        {
          "internalType": "address",
          "name": "_borrower",
          "type": "address"
        }
      ],
      "name": "getTroveDebt",
      "outputs": [
        {
          "internalType": "uint256",
          "name": "",
          "type": "uint256"
        }
      ],
      "stateMutability": "view",
      "type": "function"
    },
    {
      "inputs": [
        {
          "internalType": "uint256",
          "name": "_index",
          "type": "uint256"
        }
      ],
      "name": "getTroveFromTroveOwnersArray",
      "outputs": [
        {
          "internalType": "address",
          "name": "",
          "type": "address"
        }
      ],
      "stateMutability": "view",
      "type": "function"
    },
    {
      "inputs": [],
      "name": "getTroveOwnersCount",
      "outputs": [
        {
          "internalType": "uint256",
          "name": "",
          "type": "uint256"
        }
      ],
      "stateMutability": "view",
      "type": "function"
    },
    {
      "inputs": [
        {
          "internalType": "address",
          "name": "_borrower",
          "type": "address"
        }
      ],
      "name": "getTroveStake",
      "outputs": [
        {
          "internalType": "uint256",
          "name": "",
          "type": "uint256"
        }
      ],
      "stateMutability": "view",
      "type": "function"
    },
    {
      "inputs": [
        {
          "internalType": "address",
          "name": "_borrower",
          "type": "address"
        }
      ],
      "name": "getTroveStatus",
      "outputs": [
        {
          "internalType": "uint256",
          "name": "",
          "type": "uint256"
        }
      ],
      "stateMutability": "view",
      "type": "function"
    },
    {
      "inputs": [
        {
          "internalType": "address",
          "name": "_borrower",
          "type": "address"
        }
      ],
      "name": "hasPendingRewards",
      "outputs": [
        {
          "internalType": "bool",
          "name": "",
          "type": "bool"
        }
      ],
      "stateMutability": "view",
      "type": "function"
    },
    {
      "inputs": [
        {
          "internalType": "address",
          "name": "_borrower",
          "type": "address"
        },
        {
          "internalType": "uint256",
          "name": "_collIncrease",
          "type": "uint256"
        }
      ],
      "name": "increaseTroveColl",
      "outputs": [
        {
          "internalType": "uint256",
          "name": "",
          "type": "uint256"
        }
      ],
      "stateMutability": "nonpayable",
      "type": "function"
    },
    {
      "inputs": [
        {
          "internalType": "address",
          "name": "_borrower",
          "type": "address"
        },
        {
          "internalType": "uint256",
          "name": "_debtIncrease",
          "type": "uint256"
        }
      ],
      "name": "increaseTroveDebt",
      "outputs": [
        {
          "internalType": "uint256",
          "name": "",
          "type": "uint256"
        }
      ],
      "stateMutability": "nonpayable",
      "type": "function"
    },
    {
      "inputs": [
        {
          "internalType": "address",
          "name": "_borrowerOperationsAddress",
          "type": "address"
        },
        {
          "internalType": "address",
          "name": "_activePoolAddress",
          "type": "address"
        },
        {
          "internalType": "address",
          "name": "_defaultPoolAddress",
          "type": "address"
        },
        {
          "internalType": "address",
          "name": "_stabilityPoolAddress",
          "type": "address"
        },
        {
          "internalType": "address",
          "name": "_gasPoolAddress",
          "type": "address"
        },
        {
          "internalType": "address",
          "name": "_collSurplusPoolAddress",
          "type": "address"
        },
        {
          "internalType": "address",
          "name": "_priceFeedAddress",
          "type": "address"
        },
        {
          "internalType": "address",
          "name": "_debtTokenAddress",
          "type": "address"
        },
        {
          "internalType": "address",
          "name": "_sortedTrovesAddress",
          "type": "address"
        },
        {
          "internalType": "address",
          "name": "_protocolTokenStakingAddress",
          "type": "address"
        }
      ],
      "name": "initialize",
      "outputs": [],
      "stateMutability": "nonpayable",
      "type": "function"
    },
    {
      "inputs": [],
      "name": "lastFILError_Redistribution",
      "outputs": [
        {
          "internalType": "uint256",
          "name": "",
          "type": "uint256"
        }
      ],
      "stateMutability": "view",
      "type": "function"
    },
    {
      "inputs": [],
      "name": "lastFeeOperationTime",
      "outputs": [
        {
          "internalType": "uint256",
          "name": "",
          "type": "uint256"
        }
      ],
      "stateMutability": "view",
      "type": "function"
    },
    {
      "inputs": [],
      "name": "lastLDebtError_Redistribution",
      "outputs": [
        {
          "internalType": "uint256",
          "name": "",
          "type": "uint256"
        }
      ],
      "stateMutability": "view",
      "type": "function"
    },
    {
      "inputs": [
        {
          "internalType": "address",
          "name": "_borrower",
          "type": "address"
        }
      ],
      "name": "liquidate",
      "outputs": [],
      "stateMutability": "nonpayable",
      "type": "function"
    },
    {
      "inputs": [
        {
          "internalType": "uint256",
          "name": "_n",
          "type": "uint256"
        }
      ],
      "name": "liquidateTroves",
      "outputs": [],
      "stateMutability": "nonpayable",
      "type": "function"
    },
    {
      "inputs": [],
      "name": "minutesPassedSinceLastFeeOp",
      "outputs": [
        {
          "internalType": "uint256",
          "name": "",
          "type": "uint256"
        }
      ],
      "stateMutability": "view",
      "type": "function"
    },
    {
      "inputs": [],
      "name": "owner",
      "outputs": [
        {
          "internalType": "address",
          "name": "",
          "type": "address"
        }
      ],
      "stateMutability": "view",
      "type": "function"
    },
    {
      "inputs": [],
      "name": "priceFeed",
      "outputs": [
        {
          "internalType": "contract IPriceFeed",
          "name": "",
          "type": "address"
        }
      ],
      "stateMutability": "view",
      "type": "function"
    },
    {
      "inputs": [],
      "name": "protocolTokenStaking",
      "outputs": [
        {
          "internalType": "contract IProtocolTokenStaking",
          "name": "",
          "type": "address"
        }
      ],
      "stateMutability": "view",
      "type": "function"
    },
    {
      "inputs": [
        {
          "internalType": "uint256",
          "name": "_debtTokenAmount",
          "type": "uint256"
        },
        {
          "internalType": "address",
          "name": "_firstRedemptionHint",
          "type": "address"
        },
        {
          "internalType": "address",
          "name": "_upperPartialRedemptionHint",
          "type": "address"
        },
        {
          "internalType": "address",
          "name": "_lowerPartialRedemptionHint",
          "type": "address"
        },
        {
          "internalType": "uint256",
          "name": "_partialRedemptionHintNICR",
          "type": "uint256"
        },
        {
          "internalType": "uint256",
          "name": "_maxIterations",
          "type": "uint256"
        },
        {
          "internalType": "uint256",
          "name": "_maxFeePercentage",
          "type": "uint256"
        }
      ],
      "name": "redeemCollateral",
      "outputs": [],
      "stateMutability": "nonpayable",
      "type": "function"
    },
    {
      "inputs": [
        {
          "internalType": "address",
          "name": "_borrower",
          "type": "address"
        }
      ],
      "name": "removeStake",
      "outputs": [],
      "stateMutability": "nonpayable",
      "type": "function"
    },
    {
      "inputs": [],
      "name": "renounceOwnership",
      "outputs": [],
      "stateMutability": "nonpayable",
      "type": "function"
    },
    {
      "inputs": [
        {
          "internalType": "address",
          "name": "",
          "type": "address"
        }
      ],
      "name": "rewardSnapshots",
      "outputs": [
        {
          "internalType": "uint256",
          "name": "FIL",
          "type": "uint256"
        },
        {
          "internalType": "uint256",
          "name": "debt",
          "type": "uint256"
        }
      ],
      "stateMutability": "view",
      "type": "function"
    },
    {
      "inputs": [
        {
          "internalType": "uint256",
          "name": "_baseRate",
          "type": "uint256"
        }
      ],
      "name": "setBaseRate",
      "outputs": [],
      "stateMutability": "nonpayable",
      "type": "function"
    },
    {
      "inputs": [],
      "name": "setLastFeeOpTimeToNow",
      "outputs": [],
      "stateMutability": "nonpayable",
      "type": "function"
    },
    {
      "inputs": [
        {
          "internalType": "address",
          "name": "_borrower",
          "type": "address"
        },
        {
          "internalType": "uint256",
          "name": "_num",
          "type": "uint256"
        }
      ],
      "name": "setTroveStatus",
      "outputs": [],
      "stateMutability": "nonpayable",
      "type": "function"
    },
    {
      "inputs": [],
      "name": "sortedTroves",
      "outputs": [
        {
          "internalType": "contract ISortedTroves",
          "name": "",
          "type": "address"
        }
      ],
      "stateMutability": "view",
      "type": "function"
    },
    {
      "inputs": [],
      "name": "stabilityPool",
      "outputs": [
        {
          "internalType": "contract IStabilityPool",
          "name": "",
          "type": "address"
        }
      ],
      "stateMutability": "view",
      "type": "function"
    },
    {
      "inputs": [],
      "name": "totalCollateralSnapshot",
      "outputs": [
        {
          "internalType": "uint256",
          "name": "",
          "type": "uint256"
        }
      ],
      "stateMutability": "view",
      "type": "function"
    },
    {
      "inputs": [],
      "name": "totalStakes",
      "outputs": [
        {
          "internalType": "uint256",
          "name": "",
          "type": "uint256"
        }
      ],
      "stateMutability": "view",
      "type": "function"
    },
    {
      "inputs": [],
      "name": "totalStakesSnapshot",
      "outputs": [
        {
          "internalType": "uint256",
          "name": "",
          "type": "uint256"
        }
      ],
      "stateMutability": "view",
      "type": "function"
    },
    {
      "inputs": [
        {
          "internalType": "address",
          "name": "newOwner",
          "type": "address"
        }
      ],
      "name": "transferOwnership",
      "outputs": [],
      "stateMutability": "nonpayable",
      "type": "function"
    },
    {
      "inputs": [],
      "name": "unprotectedDecayBaseRateFromBorrowing",
      "outputs": [
        {
          "internalType": "uint256",
          "name": "",
          "type": "uint256"
        }
      ],
      "stateMutability": "nonpayable",
      "type": "function"
    },
    {
      "inputs": [
        {
          "internalType": "address",
          "name": "_borrower",
          "type": "address"
        }
      ],
      "name": "updateStakeAndTotalStakes",
      "outputs": [
        {
          "internalType": "uint256",
          "name": "",
          "type": "uint256"
        }
      ],
      "stateMutability": "nonpayable",
      "type": "function"
    },
    {
      "inputs": [
        {
          "internalType": "address",
          "name": "_borrower",
          "type": "address"
        }
      ],
      "name": "updateTroveRewardSnapshots",
      "outputs": [],
      "stateMutability": "nonpayable",
      "type": "function"
    }
  ],
  "bytecode": "0x6101006040523480156200001257600080fd5b50604051620062a9380380620062a9833981810160405260608110156200003857600080fd5b5080516020820151604090920151608082905260a083905260e08190524260c0819052919291906161e4620000c56000398061283e5280613fc1525080612b435280613fa0525080610fdc5280614475525080610f685280611ac952806136ef52806137db52806142f6528061439b52806143dc528061509852806154e95280615c7c52506161e46000f3fe608060405234801561001057600080fd5b50600436106105045760003560e01c8063794e572411610299578063c52861f211610167578063dc62a702116100d9578063f8d8989811610092578063f8d8989814610e68578063f92d343314610744578063fdf27dba14610e70578063fe2ba84814610e78578063fe9d032314610e9e578063febb33de14610ea657610504565b8063dc62a70214610dc0578063e2ac77b014610de6578063e545242314610e0c578063f2fde38b14610e14578063f36b242514610e3a578063f59fac2d14610e4257610504565b8063d380a37c1161012b578063d380a37c14610d24578063d3d6f84314610d2c578063d5b3563514610d58578063d66a255314610d75578063d9a7244414610d9b578063da303f1414610db857610504565b8063c52861f214610cba578063c7b5548114610cc2578063cbd138ae14610cca578063cda775f914610cf0578063d293c71014610cf857610504565b8063a20baee61161020b578063b82f263d116101c4578063b82f263d14610b82578063b91af97c14610b9f578063bcd3752614610beb578063bf9befb114610c39578063c306b37814610c41578063c35bc55014610cb257610504565b8063a20baee6146109c2578063a3f4df7e14610ab2578063a537896f14610b2f578063ae91875414610b4c578063b0d8e18114610b54578063b7f8cf9b14610b7a57610504565b806382fe3eb91161025d57806382fe3eb914610a40578063887105d314610a665780638da5cb5b14610a6e57806396d711ff14610a765780639976cf4514610a7e578063a0d8d6bc14610aaa57610504565b8063794e5724146109f7578063795d26c3146109ff5780637f7dde4a14610a07578063807d138d14610a0f578063814a0a4514610a1757610504565b8063480cd578116103d6578063631203b011610348578063715018a611610301578063715018a61461098e57806372423c171461099657806372fe25aa146109c257806373098be9146109ca578063741bef1a146109d2578063756b253e146109da57610504565b8063631203b0146108b257806364cee260146108cf578063653d46e7146108f557806366ca4a2114610912578063695b2e341461091a5780636ef643381461092257610504565b806352512eaa1161039a57806352512eaa1461082b57806354062a45146108515780635733d58f1461086e5780635d6b480f146108765780635dba4c4a146108a257806361ec893d146108aa57610504565b8063480cd578146107a75780634870dd9a146107cd57806349eefeee146107d55780634e443d9e146107dd5780634ff814431461080e57610504565b80631d08837b1161047a57806328d28b5b1161043357806328d28b5b146107445780632b11551a1461074c5780632f8655681461075457806331eaf05c1461077a5780633cc7422514610782578063477d66cf1461078a57610504565b80631d08837b146106465780631e8b1c2b146106635780631f68f20a1461070657806321e378011461070e578063240926691461073457806326b4d8fd1461073c57610504565b806312610e92116104cc57806312610e921461057f578063139f2e8c146105ab57806315d549f1146105b35780631673c79a146105d957806318f2817a146106185780631bf435551461063e57610504565b8063043782fb14610509578063048c661d14610513578063071a7541146105375780630b07655714610551578063105bb15c14610577575b600080fd5b610511610ec3565b005b61051b610ec9565b604080516001600160a01b039092168252519081900360200190f35b61053f610ed8565b60408051918252519081900360200190f35b6105116004803603602081101561056757600080fd5b50356001600160a01b0316610edd565b61053f610f05565b61053f6004803603604081101561059557600080fd5b506001600160a01b038135169060200135610f14565b61053f610f66565b61053f600480360360208110156105c957600080fd5b50356001600160a01b0316610f8a565b6105ff600480360360208110156105ef57600080fd5b50356001600160a01b0316610fae565b6040805192835260208301919091528051918290030190f35b61053f6004803603602081101561062e57600080fd5b50356001600160a01b0316610fc7565b61053f610fda565b6105116004803603602081101561065c57600080fd5b5035610ffe565b6105116004803603602081101561067957600080fd5b81019060208101813564010000000081111561069457600080fd5b8201836020820111156106a657600080fd5b803590602001918460208302840111640100000000831117156106c857600080fd5b919080806020026020016040519081016040528093929190818152602001838360200280828437600092019190915250929550611003945050505050565b61053f6113e7565b61053f6004803603602081101561072457600080fd5b50356001600160a01b03166113ed565b61053f611417565b61053f61142a565b61053f611430565b61053f611441565b6105116004803603602081101561076a57600080fd5b50356001600160a01b031661144e565b61053f6114b4565b61051b6114ba565b61053f600480360360208110156107a057600080fd5b50356114c9565b61053f600480360360208110156107bd57600080fd5b50356001600160a01b03166114dc565b61053f6114fa565b61053f6114ff565b6107fa600480360360208110156107f357600080fd5b5035611505565b604080519115158252519081900360200190f35b61053f6004803603602081101561082457600080fd5b5035611510565b61053f6004803603602081101561084157600080fd5b50356001600160a01b031661151b565b61053f6004803603602081101561086757600080fd5b50356115cf565b61053f6115da565b6105116004803603604081101561088c57600080fd5b506001600160a01b0381351690602001356115e6565b610511611632565b61053f611698565b61053f600480360360208110156108c857600080fd5b503561169d565b61053f600480360360208110156108e557600080fd5b50356001600160a01b03166116aa565b6105116004803603602081101561090b57600080fd5b50356116c8565b61053f611ab5565b61053f611ac7565b6109486004803603602081101561093857600080fd5b50356001600160a01b0316611aeb565b6040518086815260200185815260200184815260200183600481111561096a57fe5b8152602001826001600160801b031681526020019550505050505060405180910390f35b610511611b25565b61053f600480360360408110156109ac57600080fd5b506001600160a01b038135169060200135611bd1565b61053f611c28565b61053f611c34565b61051b611c3a565b61051b600480360360208110156109f057600080fd5b5035611c49565b61053f611c73565b61053f611c7f565b61051b611d7a565b61053f611d89565b61053f60048036036060811015610a2d57600080fd5b5080359060208101359060400135611d8f565b61051160048036036020811015610a5657600080fd5b50356001600160a01b0316611da6565b61053f611db7565b61051b611e73565b61053f611e82565b61053f60048036036040811015610a9457600080fd5b506001600160a01b038135169060200135611e88565b61053f611eb5565b610aba611ebb565b6040805160208082528351818301528351919283929083019185019080838360005b83811015610af4578181015183820152602001610adc565b50505050905090810190601f168015610b215780820380516001836020036101000a031916815260200191505b509250505060405180910390f35b61053f60048036036020811015610b4557600080fd5b5035611ee3565b61051b611eee565b61053f60048036036020811015610b6a57600080fd5b50356001600160a01b0316611efd565b61051b611f24565b61053f60048036036020811015610b9857600080fd5b5035611f33565b610bc560048036036020811015610bb557600080fd5b50356001600160a01b0316611f3e565b604080519485526020850193909352838301919091526060830152519081900360800190f35b610511600480360360e0811015610c0157600080fd5b508035906001600160a01b03602082013581169160408101358216916060820135169060808101359060a08101359060c00135611f96565b61053f612749565b6105116004803603610140811015610c5857600080fd5b506001600160a01b038135811691602081013582169160408201358116916060810135821691608082013581169160a081013582169160c082013581169160e081013582169161010082013581169161012001351661274f565b61053f61283c565b61053f612860565b61053f612872565b61051160048036036020811015610ce057600080fd5b50356001600160a01b031661287e565b61051b612891565b61053f60048036036040811015610d0e57600080fd5b506001600160a01b0381351690602001356128a0565b61053f6128bf565b61053f60048036036040811015610d4257600080fd5b506001600160a01b0381351690602001356128c5565b61053f60048036036020811015610d6e57600080fd5b50356128f5565b61053f60048036036020811015610d8b57600080fd5b50356001600160a01b0316612908565b61051b60048036036020811015610db157600080fd5b5035612923565b61053f61294d565b61051160048036036020811015610dd657600080fd5b50356001600160a01b031661297d565b6107fa60048036036020811015610dfc57600080fd5b50356001600160a01b031661298a565b61051b6129e8565b61051160048036036020811015610e2a57600080fd5b50356001600160a01b03166129f7565b61053f612afa565b61053f60048036036020811015610e5857600080fd5b50356001600160a01b0316612b07565b61051b612b32565b61053f612b41565b61051160048036036020811015610e8e57600080fd5b50356001600160a01b0316612b65565b61051b612b76565b61053f60048036036020811015610ebc57600080fd5b5035612b85565b4260a155565b609b546001600160a01b031681565b600281565b610ee5612b90565b600054600154610f02916001600160a01b03908116911683612bdb565b50565b6000610f0f612cf1565b905090565b6000610f1e612b90565b6001600160a01b038316600090815260a26020526040812054610f419084612d0d565b6001600160a01b038516600090815260a2602052604090208190559150505b92915050565b7f000000000000000000000000000000000000000000000000000000000000000081565b6000610f94612b90565b610f9d82612d6a565b6001600160801b031690505b919050565b60a8602052600090815260409020805460019091015482565b6000610fd1612b90565b610f6082612e04565b7f000000000000000000000000000000000000000000000000000000000000000081565b60a055565b60026066541415611049576040805162461bcd60e51b815260206004820152601f6024820152600080516020615e79833981519152604482015290519081900360640190fd5b6002606655805161108b5760405162461bcd60e51b815260040180806020018281038252603681526020018061606a6036913960400191505060405180910390fd5b600054600154609b546001600160a01b039283169291821691166110ad615d0a565b6110b5615d3b565b609d60009054906101000a90046001600160a01b03166001600160a01b0316630fdb11cf6040518163ffffffff1660e01b8152600401602060405180830381600087803b15801561110557600080fd5b505af1158015611119573d6000803e3d6000fd5b505050506040513d602081101561112f57600080fd5b5051825260408051630d9a6b3560e01b815290516001600160a01b03851691630d9a6b35916004808301926020929190829003018186803b15801561117357600080fd5b505afa158015611187573d6000803e3d6000fd5b505050506040513d602081101561119d57600080fd5b5051602083015281516111af90612ea7565b15801560408401526111d7576111d08585846000015185602001518a612ec4565b90506111ef565b6111ec8585846000015185602001518a6130e2565b90505b60008160200151116112325760405162461bcd60e51b815260040180806020018281038252602281526020018061615e6022913960400191505060405180910390fd5b826001600160a01b031663335525ad82608001518360a001516040518363ffffffff1660e01b81526004018083815260200182815260200192505050600060405180830381600087803b15801561128857600080fd5b505af115801561129c573d6000803e3d6000fd5b505050506112b485858360c001518460e001516131a4565b6101008101511561133157609a5461010082015160408051628063a560e01b81526001600160a01b03938416600482015260248101929092525191871691628063a59160448082019260009290919082900301818387803b15801561131857600080fd5b505af115801561132c573d6000803e3d6000fd5b505050505b61133f8582604001516133f7565b602081015160608301526101008101516040820151825161136b92916113659190612d0d565b90612d0d565b608080840182905260608085015160408086015186840151825193845260208401969096528282015291810193909352517f4152c73dd2614c4f9fc35e8c9cf16013cd588c75b49a4c1673ecffdcbcda94039281900390910190a16113da853383606001518460400151613538565b5050600160665550505050565b60a05481565b6001600160a01b038116600090815260a2602052604081206003015460ff166004811115610f6057fe5b6064670de0b6b3a76400005b0460050281565b60ab5481565b6103e8670de0b6b3a7640000611423565b6000610f0f60a054613631565b61145781613667565b60408051600180825281830190925260009160208083019080368337019050509050818160008151811061148757fe5b60200260200101906001600160a01b031690816001600160a01b0316815250506114b081611003565b5050565b60a75481565b6001546001600160a01b031681565b6000610f606114d6611ab5565b836136cf565b6001600160a01b0316600090815260a2602052604090206001015490565b60c881565b60a95490565b6000610f6082612ea7565b6000610f60826136e7565b6001600160a01b038116600090815260a8602052604081205460a65482906115439083612d0d565b905080158061157c575060016001600160a01b038516600090815260a2602052604090206003015460ff16600481111561157957fe5b14155b1561158c57600092505050610fa9565b6001600160a01b038416600090815260a26020526040812060020154906115c5670de0b6b3a76400006115bf8486613713565b9061376c565b9695505050505050565b6000610f60826137d3565b6714d1120d7b16000081565b6115ee612b90565b8060048111156115fa57fe5b6001600160a01b038316600090815260a260205260409020600301805460ff1916600183600481111561162957fe5b02179055505050565b61163a612b90565b60006116446137ff565b9050670de0b6b3a764000081111561165857fe5b60a08190556040805182815290517fc454ee9b76c52f782a256af821b857ca6e125d1e3333bcede402fec2bed9600c9181900360200190a1610f02613843565b603c81565b6000610f606114d6612afa565b6001600160a01b0316600090815260a2602052604090206002015490565b6002606654141561170e576040805162461bcd60e51b815260206004820152601f6024820152600080516020615e79833981519152604482015290519081900360640190fd5b60026066556040805160e081018252600080546001600160a01b0390811683526001548116602084015292820181905260608201819052609f548316608083015260a0820181905260c0820152609b54909116611769615d0a565b611771615d3b565b609d60009054906101000a90046001600160a01b03166001600160a01b0316630fdb11cf6040518163ffffffff1660e01b8152600401602060405180830381600087803b1580156117c157600080fd5b505af11580156117d5573d6000803e3d6000fd5b505050506040513d60208110156117eb57600080fd5b5051825260408051630d9a6b3560e01b815290516001600160a01b03851691630d9a6b35916004808301926020929190829003018186803b15801561182f57600080fd5b505afa158015611843573d6000803e3d6000fd5b505050506040513d602081101561185957600080fd5b50516020830152815161186b90612ea7565b15801560408401526118925761188b84836000015184602001518861389f565b90506118b2565b6118af846000015185602001518460000151856020015189613c1f565b90505b60008160200151116118f55760405162461bcd60e51b815260040180806020018281038252602281526020018061615e6022913960400191505060405180910390fd5b826001600160a01b031663335525ad82608001518360a001516040518363ffffffff1660e01b81526004018083815260200182815260200192505050600060405180830381600087803b15801561194b57600080fd5b505af115801561195f573d6000803e3d6000fd5b5050505061197f846000015185602001518360c001518460e001516131a4565b610100810151156119fe578351609a5461010083015160408051628063a560e01b81526001600160a01b0393841660048201526024810192909252519190921691628063a591604480830192600092919082900301818387803b1580156119e557600080fd5b505af11580156119f9573d6000803e3d6000fd5b505050505b611a10846000015182604001516133f7565b6020810151606083015261010081015160408201518251611a3692916113659190612d0d565b608080840182905260608085015160408086015186840151825193845260208401969096528282015291810193909352517f4152c73dd2614c4f9fc35e8c9cf16013cd588c75b49a4c1673ecffdcbcda94039281900390910190a1611aa984600001513383606001518460400151613538565b50506001606655505050565b6000610f0f611ac26137ff565b613d4b565b7f000000000000000000000000000000000000000000000000000000000000000090565b60a26020526000908152604090208054600182015460028301546003909301549192909160ff81169061010090046001600160801b031685565b611b2d613d72565b6001600160a01b0316611b3e611e73565b6001600160a01b031614611b99576040805162461bcd60e51b815260206004820181905260248201527f4f776e61626c653a2063616c6c6572206973206e6f7420746865206f776e6572604482015290519081900360640190fd5b6034546040516000916001600160a01b031690600080516020615fef833981519152908390a3603480546001600160a01b0319169055565b6000611bdb612b90565b6001600160a01b038316600090815260a26020526040812060010154611c019084613d76565b6001600160a01b038516600090815260a26020526040902060010181905591505092915050565b670de0b6b3a764000081565b60a65481565b609d546001600160a01b031681565b60a98181548110611c5957600080fd5b6000918252602090912001546001600160a01b0316905081565b670f43fc2c04ee000081565b60008054604080516314a6bf0f60e01b8152905183926001600160a01b0316916314a6bf0f916004808301926020929190829003018186803b158015611cc457600080fd5b505afa158015611cd8573d6000803e3d6000fd5b505050506040513d6020811015611cee57600080fd5b5051600154604080516314a6bf0f60e01b815290519293506000926001600160a01b03909216916314a6bf0f91600480820192602092909190829003018186803b158015611d3b57600080fd5b505afa158015611d4f573d6000803e3d6000fd5b505050506040513d6020811015611d6557600080fd5b50519050611d738282613d76565b9250505090565b6000546001600160a01b031681565b60a45481565b6000611d9c848484613dd0565b90505b9392505050565b611dae612b90565b610f0281613dfa565b60008054604080516362e1c9bf60e11b8152905183926001600160a01b03169163c5c3937e916004808301926020929190829003018186803b158015611dfc57600080fd5b505afa158015611e10573d6000803e3d6000fd5b505050506040513d6020811015611e2657600080fd5b5051600154604080516362e1c9bf60e11b815290519293506000926001600160a01b039092169163c5c3937e91600480820192602092909190829003018186803b158015611d3b57600080fd5b6034546001600160a01b031690565b60a55481565b6000611e92612b90565b6001600160a01b038316600090815260a26020526040812054610f419084613d76565b60aa5481565b6040518060400160405280600c81526020016b2a3937bb32a6b0b730b3b2b960a11b81525081565b6000610f6082613e65565b609f546001600160a01b031681565b6000806000611f0b84613e6c565b915091506000611f1b8383613ee6565b95945050505050565b6098546001600160a01b031681565b6000610f6082613f15565b6001600160a01b038116600090815260a2602052604081208054600190910154909180611f6a85612b07565b9150611f758561151b565b9050611f818483613d76565b9350611f8d8382613d76565b92509193509193565b60026066541415611fdc576040805162461bcd60e51b815260206004820152601f6024820152600080516020615e79833981519152604482015290519081900360640190fd5b60026066556040805160e0810182526000546001600160a01b03908116825260015481166020830152609c54811692820192909252609e5482166060820152609f5482166080820152609a54821660a082015260995490911660c0820152612042615d87565b61204b83613f41565b612053613f9b565b609d60009054906101000a90046001600160a01b03166001600160a01b0316630fdb11cf6040518163ffffffff1660e01b8152600401602060405180830381600087803b1580156120a357600080fd5b505af11580156120b7573d6000803e3d6000fd5b505050506040513d60208110156120cd57600080fd5b505160c082018190526120df90614023565b6120e889614072565b6120f78260400151338b6140b1565b6120ff611c7f565b60e0820181905260408084015181516370a0823160e01b815233600482015291516001600160a01b03909116916370a08231916024808301926020929190829003018186803b15801561215157600080fd5b505afa158015612165573d6000803e3d6000fd5b505050506040513d602081101561217b57600080fd5b5051111561218557fe5b888152608082015160c08201516000916121a0918b90614168565b156121ac5750876122cd565b82608001516001600160a01b0316634d6228316040518163ffffffff1660e01b815260040160206040518083038186803b1580156121e957600080fd5b505afa1580156121fd573d6000803e3d6000fd5b505050506040513d602081101561221357600080fd5b505190505b6001600160a01b038116158015906122445750670f43fc2c04ee0000612242828460c001516128a0565b105b156122cd5782608001516001600160a01b031663b72703ac826040518263ffffffff1660e01b815260040180826001600160a01b0316815260200191505060206040518083038186803b15801561229a57600080fd5b505afa1580156122ae573d6000803e3d6000fd5b505050506040513d60208110156122c457600080fd5b50519050612218565b846122d85760001994505b6001600160a01b038116158015906122f05750815115155b80156122fc5750600085115b1561240f57848060019003955050600083608001516001600160a01b031663b72703ac836040518263ffffffff1660e01b815260040180826001600160a01b0316815260200191505060206040518083038186803b15801561235d57600080fd5b505afa158015612371573d6000803e3d6000fd5b505050506040513d602081101561238757600080fd5b50518451602086015191925061239d9184612bdb565b60006123b6858486600001518760c001518e8e8e6142c9565b90508060400151156123c957505061240f565b805160208501516123d991613d76565b60208086019190915281015160408501516123f391613d76565b60408501528051845161240591612d0d565b84525090506122d8565b60008260400151116124525760405162461bcd60e51b8152600401808060200182810382526029815260200180615ebf6029913960400191505060405180910390fd5b61246982604001518360c001518460e001516145bd565b506124778260400151614653565b60608301819052604083015161248e919086614660565b82600001516001600160a01b0316628063a5846060015184606001516040518363ffffffff1660e01b815260040180836001600160a01b0316815260200182815260200192505050600060405180830381600087803b1580156124f057600080fd5b505af1158015612504573d6000803e3d6000fd5b5050505082606001516001600160a01b031663c91d2d3883606001516040518263ffffffff1660e01b815260040180828152602001915050600060405180830381600087803b15801561255657600080fd5b505af115801561256a573d6000803e3d6000fd5b505050506060820151604083015161258191612d0d565b8260800181815250507f43a3f4082a4dbc33d78e317d2497d3a730bc7fc3574159dcea1056e62e5d9ad88a8360200151846040015185606001516040518085815260200184815260200183815260200182815260200194505050505060405180910390a182604001516001600160a01b0316639dc29fac3384602001516040518363ffffffff1660e01b815260040180836001600160a01b0316815260200182815260200192505050600060405180830381600087803b15801561264457600080fd5b505af1158015612658573d6000803e3d6000fd5b5050505082600001516001600160a01b0316632a7ba1f783602001516040518263ffffffff1660e01b815260040180828152602001915050600060405180830381600087803b1580156126aa57600080fd5b505af11580156126be573d6000803e3d6000fd5b5050505082600001516001600160a01b0316628063a53384608001516040518363ffffffff1660e01b815260040180836001600160a01b0316815260200182815260200192505050600060405180830381600087803b15801561272057600080fd5b505af1158015612734573d6000803e3d6000fd5b50506001606655505050505050505050505050565b60a35481565b600154600160a81b900460ff168061276a575061276a6146cf565b8061277f5750600154600160a01b900460ff16155b6127ba5760405162461bcd60e51b815260040180806020018281038252602e815260200180615ee8602e913960400191505060405180910390fd5b600154600160a81b900460ff161580156127f1576001805460ff60a01b1960ff60a81b19909116600160a81b1716600160a01b1790555b6127f96146e0565b6128016147a8565b61280b8a8a614852565b61281b8b89898989898989614904565b801561282f576001805460ff60a81b191690555b5050505050505050505050565b7f000000000000000000000000000000000000000000000000000000000000000081565b6000610f0f61286d6137ff565b613631565b670ddd4b8c6c7d70d881565b612886612b90565b610f02816002614ba6565b609a546001600160a01b031681565b60008060006128ae85613e6c565b9150915060006115c5838387613dd0565b60a15481565b60006128cf612b90565b6001600160a01b038316600090815260a26020526040812060010154611c019084612d0d565b6000610f60612902612860565b83614cbf565b6001600160a01b0316600090815260a2602052604090205490565b600060a9828154811061293257fe5b6000918252602090912001546001600160a01b031692915050565b60006129576137ff565b60a055670de0b6b3a764000060a054111561296e57fe5b612976613843565b5060a05490565b60a9546114b08282614d18565b600060016001600160a01b038316600090815260a2602052604090206003015460ff1660048111156129b857fe5b146129c557506000610fa9565b5060a6546001600160a01b038216600090815260a8602052604090205410919050565b609e546001600160a01b031681565b6129ff613d72565b6001600160a01b0316612a10611e73565b6001600160a01b031614612a6b576040805162461bcd60e51b815260206004820181905260248201527f4f776e61626c653a2063616c6c6572206973206e6f7420746865206f776e6572604482015290519081900360640190fd5b6001600160a01b038116612ab05760405162461bcd60e51b8152600401808060200182810382526026815260200180615e996026913960400191505060405180910390fd5b6034546040516001600160a01b03808416921690600080516020615fef83398151915290600090a3603480546001600160a01b0319166001600160a01b0392909216919091179055565b6000610f0f60a054613d4b565b6001600160a01b038116600090815260a8602052604081206001015460a75482906115439083612d0d565b609c546001600160a01b031681565b7f000000000000000000000000000000000000000000000000000000000000000081565b612b6d612b90565b610f0281614ebf565b6099546001600160a01b031681565b6000610f6082614653565b6098546001600160a01b03163314612bd95760405162461bcd60e51b815260040180806020018281038252603b81526020018061602f603b913960400191505060405180910390fd5b565b612be48161298a565b15612cec57612bf281613667565b6000612bfd8261151b565b90506000612c0a83612b07565b6001600160a01b038416600090815260a26020526040902060010154909150612c339083613d76565b6001600160a01b038416600090815260a260205260409020600181019190915554612c5e9082613d76565b6001600160a01b038416600090815260a26020526040902055612c8083613dfa565b612c8c85858385614f09565b6001600160a01b038316600081815260a26020908152604080832080546001820154600290920154835191825293810191909152808201929092526060820192909252905160008051602061600f8339815191529181900360800190a250505b505050565b6000610f0f603c6115bf60a15442612d0d90919063ffffffff16565b600082821115612d64576040805162461bcd60e51b815260206004820152601e60248201527f536166654d6174683a207375627472616374696f6e206f766572666c6f770000604482015290519081900360640190fd5b50900390565b60a980546001808201835560008381527fdc471888e6136f84c49e531e9c9240dc4e3fba66da9d3a49e2af6202133683e090920180546001600160a01b0319166001600160a01b03861617905591549091612dc59190612d0d565b6001600160a01b0392909216600090815260a2602052604090206003018054610100600160881b0319166101006001600160801b038516021790555090565b6001600160a01b038116600090815260a260205260408120600101548190612e2b9061500b565b6001600160a01b038416600090815260a26020526040902060020180549082905560a35491925090612e69908390612e639084612d0d565b90613d76565b60a381905560408051918252517f6bac5e0eb3c44eb03a60ab11ec3a2c051771616aecadbcfff2630aabae5203829181900360200190a15092915050565b600080612eb383613f15565b6714d1120d7b160000119392505050565b612ecc615d3b565b612ed4615dcc565b612edc615d3b565b84825260006080830152612eee611c7f565b60a0830152612efb611db7565b60c0830152600060208301525b8351826020015110156130d75783826020015181518110612f2557fe5b6020908102919091018101516001600160a01b031660608401819052600090815260a2909152604090206003015460019060ff166004811115612f6457fe5b14612f6e576130c7565b612f7c8260600151876128a0565b6040830152608082015161306f57670f43fc2c04ee0000826040015110158015612fa557508151155b15612faf576130c7565b6000612fc48360c001518460a0015189613dd0565b9050612fe18989856060015186604001518760000151868d615047565b60808101518451919350612ff59190612d0d565b8352608082015160a084015161300a91612d0d565b8360a001818152505061303f82610100015161136584604001516113658660a001518860c00151612d0d90919063ffffffff16565b60c084015261304e8483615385565b93506130638360c001518460a0015189615466565b156080840152506130c7565b8160800151801561308b5750670f43fc2c04ee00008260400151105b156130c7576130a4888884606001518560000151615487565b608081015183519192506130b89190612d0d565b82526130c48382615385565b92505b6020820180516001019052612f08565b505095945050505050565b6130ea615d3b565b6130f2615dcc565b6130fa615d3b565b848252600060208301525b8351826020015110156130d7578382602001518151811061312257fe5b60209081029190910101516001600160a01b03166060830181905261314790876128a0565b60408301819052670f43fc2c04ee0000111561319457613171888884606001518560000151615487565b608081015183519192506131859190612d0d565b82526131918382615385565b92505b6020820180516001019052613105565b816131ae576133f1565b60aa546000906131ca90612e6384670de0b6b3a7640000613713565b905060006131ef60ab54612e63670de0b6b3a76400008761371390919063ffffffff16565b9050600061320860a3548461376c90919063ffffffff16565b9050600061322160a3548461376c90919063ffffffff16565b905061324261323b60a3548461371390919063ffffffff16565b8590612d0d565b60aa5560a35461325e90613257908390613713565b8490612d0d565b60ab5560a65461326e9083613d76565b60a65560a75461327e9082613d76565b60a781905560a65460408051918252602082019290925281517f9f8bc8ab0daf5bceef75ecfd2085d1fcc6548c657ea970d9a23a60610d0737e3929181900390910190a1876001600160a01b0316632a7ba1f7876040518263ffffffff1660e01b815260040180828152602001915050600060405180830381600087803b15801561330857600080fd5b505af115801561331c573d6000803e3d6000fd5b50505050866001600160a01b0316632b7c7b11876040518263ffffffff1660e01b815260040180828152602001915050600060405180830381600087803b15801561336657600080fd5b505af115801561337a573d6000803e3d6000fd5b50505050876001600160a01b0316628063a588876040518363ffffffff1660e01b815260040180836001600160a01b0316815260200182815260200192505050600060405180830381600087803b1580156133d457600080fd5b505af11580156133e8573d6000803e3d6000fd5b50505050505050505b50505050565b60a35460a4819055506000826001600160a01b031663c5c3937e6040518163ffffffff1660e01b815260040160206040518083038186803b15801561343b57600080fd5b505afa15801561344f573d6000803e3d6000fd5b505050506040513d602081101561346557600080fd5b5051600154604080516362e1c9bf60e11b815290519293506000926001600160a01b039092169163c5c3937e91600480820192602092909190829003018186803b1580156134b257600080fd5b505afa1580156134c6573d6000803e3d6000fd5b505050506040513d60208110156134dc57600080fd5b505190506134ee81612e638486612d0d565b60a581905560a45460408051918252602082019290925281517f51bf4c63ec3cba9d03d43238abbdd979dd91bd16d9895c74ceea9118c7baaf60929181900390910190a150505050565b81156135b757609c5460995460408051631062c15f60e11b81526001600160a01b039283166004820152868316602482015260448101869052905191909216916320c582be91606480830192600092919082900301818387803b15801561359e57600080fd5b505af11580156135b2573d6000803e3d6000fd5b505050505b80156133f157836001600160a01b0316628063a584836040518363ffffffff1660e01b815260040180836001600160a01b0316815260200182815260200192505050600060405180830381600087803b15801561361357600080fd5b505af1158015613627573d6000803e3d6000fd5b5050505050505050565b6000610f60613659836103e8670de0b6b3a76400005b04600502613d7690919063ffffffff16565b670de0b6b3a7640000615601565b60016001600160a01b038216600090815260a2602052604090206003015460ff16600481111561369357fe5b14610f025760405162461bcd60e51b815260040180806020018281038252602f815260200180616180602f913960400191505060405180910390fd5b6000611d9f670de0b6b3a76400006115bf8585613713565b6000610f60827f0000000000000000000000000000000000000000000000000000000000000000613d76565b60008261372257506000610f60565b8282028284828161372f57fe5b0414611d9f5760405162461bcd60e51b8152600401808060200182810382526021815260200180615fce6021913960400191505060405180910390fd5b60008082116137c2576040805162461bcd60e51b815260206004820152601a60248201527f536166654d6174683a206469766973696f6e206279207a65726f000000000000604482015290519081900360640190fd5b8183816137cb57fe5b049392505050565b6000610f60827f0000000000000000000000000000000000000000000000000000000000000000612d0d565b60008061380a612cf1565b90506000613820670ddd4b8c6c7d70d883615617565b9050611d73670de0b6b3a76400006115bf8360a05461371390919063ffffffff16565b600061385a60a15442612d0d90919063ffffffff16565b9050603c8110610f02574260a181905560408051918252517f860f8d2f0c74dd487e89e2883e3b25b8159ce1e1b3433a291cba7b82c508f3bc9181900360200190a150565b6138a7615d3b565b6138af615dcc565b6138b7615d3b565b848252600060808301526138c9611c7f565b60a08301526138d6611db7565b8260c001818152505086608001516001600160a01b0316634d6228316040518163ffffffff1660e01b815260040160206040518083038186803b15801561391c57600080fd5b505afa158015613930573d6000803e3d6000fd5b505050506040513d602081101561394657600080fd5b50516001600160a01b039081166060840152608088015160408051631e22314360e01b815290516000939290921691631e22314391600480820192602092909190829003018186803b15801561399b57600080fd5b505afa1580156139af573d6000803e3d6000fd5b505050506040513d60208110156139c557600080fd5b50516000602085015290505b8483602001511080156139fa5750806001600160a01b031683606001516001600160a01b031614155b15613c1457600088608001516001600160a01b031663b72703ac85606001516040518263ffffffff1660e01b815260040180826001600160a01b0316815260200191505060206040518083038186803b158015613a5657600080fd5b505afa158015613a6a573d6000803e3d6000fd5b505050506040513d6020811015613a8057600080fd5b50516060850151909150613a9490896128a0565b60408501526080840151613b8c57670f43fc2c04ee0000846040015110158015613abd57508351155b15613ac85750613c14565b6000613add8560c001518660a001518b613dd0565b8a5160208c0151606088015160408901518951949550613afe94868f615047565b60808101518651919550613b129190612d0d565b8552608084015160a0860151613b2791612d0d565b8560a0018181525050613b5c84610100015161136586604001516113658860a001518a60c00151612d0d90919063ffffffff16565b60c0860152613b6b8685615385565b9550613b808560c001518660a001518b615466565b15608086015250613bf6565b83608001518015613ba85750670f43fc2c04ee00008460400151105b15613bf057613bc989600001518a6020015186606001518760000151615487565b60808101518551919450613bdd9190612d0d565b8452613be98584615385565b9450613bf6565b50613c14565b6001600160a01b0316606084015260208301805160010190526139d1565b505050949350505050565b613c27615d3b565b613c2f615dcc565b613c37615d3b565b609f54858352600060208401526001600160a01b03165b8483602001511015613d3f57806001600160a01b0316634d6228316040518163ffffffff1660e01b815260040160206040518083038186803b158015613c9357600080fd5b505afa158015613ca7573d6000803e3d6000fd5b505050506040513d6020811015613cbd57600080fd5b50516001600160a01b031660608401819052613cd990886128a0565b60408401819052670f43fc2c04ee00001115613d2a57613d03898985606001518660000151615487565b60808101518451919350613d179190612d0d565b8352613d238483615385565b9350613d2f565b613d3f565b6020830180516001019052613c4e565b50505095945050505050565b6000610f60613d65836103e8670de0b6b3a7640000613647565b66b1a2bc2ec50000615601565b3390565b600082820183811015611d9f576040805162461bcd60e51b815260206004820152601b60248201527f536166654d6174683a206164646974696f6e206f766572666c6f770000000000604482015290519081900360640190fd5b60008215613df1576000613de8846115bf8786613713565b9150611d9f9050565b50600019611d9f565b60a680546001600160a01b038316600090815260a8602090815260409182902092835560a7546001909301839055925481519081529283019190915280517fc437f324d85e369394148dd9d62f98f534b382e01ed3dd2eb98138fb6d3ab49a9281900390910190a150565b60c8900490565b6000806000613e7a8461151b565b90506000613e8785612b07565b6001600160a01b038616600090815260a2602052604081206001015491925090613eb19084613d76565b6001600160a01b038716600090815260a2602052604081205491925090613ed89084613d76565b919550909350505050915091565b60008115613f0c57613f05826115bf8568056bc75e2d63100000613713565b9050610f60565b50600019610f60565b600080613f20611db7565b90506000613f2c611c7f565b9050613f39828286613dd0565b949350505050565b6611c37937e080008110801590613f605750670de0b6b3a76400008111155b610f025760405162461bcd60e51b81526004018080602001828103825260308152602001806161046030913960400191505060405180910390fd5b613fe57f00000000000000000000000000000000000000000000000000000000000000007f0000000000000000000000000000000000000000000000000000000000000000613d76565b421015612bd95760405162461bcd60e51b8152600401808060200182810382526040815260200180615f8e6040913960400191505060405180910390fd5b670f43fc2c04ee000061403582613f15565b1015610f025760405162461bcd60e51b815260040180806020018281038252602a815260200180616134602a913960400191505060405180910390fd5b60008111610f025760405162461bcd60e51b815260040180806020018281038252602e8152602001806160a0602e913960400191505060405180910390fd5b80836001600160a01b03166370a08231846040518263ffffffff1660e01b815260040180826001600160a01b0316815260200191505060206040518083038186803b1580156140ff57600080fd5b505afa158015614113573d6000803e3d6000fd5b505050506040513d602081101561412957600080fd5b50511015612cec5760405162461bcd60e51b815260040180806020018281038252604e815260200180615f16604e913960600191505060405180910390fd5b60006001600160a01b03831615806141f65750836001600160a01b0316635dbe47e8846040518263ffffffff1660e01b815260040180826001600160a01b0316815260200191505060206040518083038186803b1580156141c857600080fd5b505afa1580156141dc573d6000803e3d6000fd5b505050506040513d60208110156141f257600080fd5b5051155b806142115750670f43fc2c04ee000061420f84846128a0565b105b1561421e57506000611d9f565b6000846001600160a01b031663765e0159856040518263ffffffff1660e01b815260040180826001600160a01b0316815260200191505060206040518083038186803b15801561426d57600080fd5b505afa158015614281573d6000803e3d6000fd5b505050506040513d602081101561429757600080fd5b505190506001600160a01b0381161580611f1b5750670f43fc2c04ee00006142bf82856128a0565b1095945050505050565b6142d1615e14565b6001600160a01b038716600090815260a2602052604090205461431f90879061431a907f0000000000000000000000000000000000000000000000000000000000000000612d0d565b615601565b80825261433a9086906115bf90670de0b6b3a7640000613713565b60208083019190915281516001600160a01b038916600090815260a2909252604082205461436791612d0d565b6020808401516001600160a01b038b16600090815260a29092526040822060010154929350909161439791612d0d565b90507f000000000000000000000000000000000000000000000000000000000000000082141561445b576143ca89614ebf565b6143d5896004614ba6565b6144018a8a7f0000000000000000000000000000000000000000000000000000000000000000846156b6565b886001600160a01b031660008051602061600f833981519152600080600060036040518085815260200184815260200183815260200182600381111561444357fe5b815260200194505050505060405180910390a26145af565b60006144678284613ee6565b9050848114158061449f57507f000000000000000000000000000000000000000000000000000000000000000061449d846137d3565b105b156144b357505060016040830152506145b2565b60808b01516040805163015f109360e51b81526001600160a01b038d81166004830152602482018590528a81166044830152898116606483015291519190921691632be2126091608480830192600092919082900301818387803b15801561451a57600080fd5b505af115801561452e573d6000803e3d6000fd5b5050506001600160a01b038b16600090815260a2602052604090208481556001018390555061455c8a612e04565b506001600160a01b038a16600081815260a260209081526040918290206002015482518781529182018690528183015260036060820152905160008051602061600f8339815191529181900360800190a2505b50505b979650505050505050565b6000806145c86137ff565b905060006145da846115bf8888613713565b905060006145f36145ec83600261376c565b8490613d76565b905061460781670de0b6b3a7640000615601565b90506000811161461357fe5b60a08190556040805182815290517fc454ee9b76c52f782a256af821b857ca6e125d1e3333bcede402fec2bed9600c9181900360200190a16115c5613843565b6000610f60612902611441565b6000614678836115bf86670de0b6b3a7640000613713565b9050818111156133f1576040805162461bcd60e51b815260206004820152601d60248201527f4665652065786365656465642070726f7669646564206d6178696d756d000000604482015290519081900360640190fd5b60006146da30615858565b15905090565b600154600160a81b900460ff16806146fb57506146fb6146cf565b806147105750600154600160a01b900460ff16155b61474b5760405162461bcd60e51b815260040180806020018281038252602e815260200180615ee8602e913960400191505060405180910390fd5b600154600160a81b900460ff16158015614782576001805460ff60a01b1960ff60a81b19909116600160a81b1716600160a01b1790555b61478a61585e565b614792615915565b8015610f02576001805460ff60a81b1916905550565b600154600160a81b900460ff16806147c357506147c36146cf565b806147d85750600154600160a01b900460ff16155b6148135760405162461bcd60e51b815260040180806020018281038252602e815260200180615ee8602e913960400191505060405180910390fd5b600154600160a81b900460ff1615801561484a576001805460ff60a01b1960ff60a81b19909116600160a81b1716600160a01b1790555b614792615a13565b61485b82615ad0565b61486481615ad0565b600080546001600160a01b038085166001600160a01b03199283168117909355600180549185169190921617905560408051918252517f78f058b189175430c48dc02699e3a0031ea4ff781536dc2fab847de4babdd8829181900360200190a1604080516001600160a01b038316815290517f5ee0cae2f063ed938bb55046f6a932fb6ae792bf43624806bb90abe68a50be9b9181900360200190a15050565b61490d88615ad0565b61491687615ad0565b61491f86615ad0565b61492885615ad0565b61493184615ad0565b61493a83615ad0565b61494382615ad0565b61494c81615ad0565b609880546001600160a01b03199081166001600160a01b038b8116918217909355609b805483168b85161790556099805483168a8516179055609a80548316898516179055609d80548316888516179055609c80548316878516179055609f80548316868516179055609e805490921692841692909217905560408051918252517f3ca631ffcd2a9b5d9ae18543fc82f58eb4ca33af9e6ab01b7a8e95331e6ed985916020908290030190a1604080516001600160a01b038916815290517f82966d27eea39b038ee0fa30cd16532bb24f6e65d31cb58fb227aa5766cdcc7f9181900360200190a1604080516001600160a01b038816815290517fcfb07d791fcafc032b35837b50eb84b74df518cf4cc287e8084f47630fa70fa09181900360200190a1604080516001600160a01b038716815290517fe67f36a6e961157d6eff83b91f3af5a62131ceb6f04954ef74f51c1c05e7f88d9181900360200190a1604080516001600160a01b038616815290517f8c537274438aa850a330284665d81a85dd38267d09e4050d416bfc94142db2649181900360200190a1604080516001600160a01b038516815290517f112220fa8dbe96141556e0dc3d74dd95075b323f4f297616048e02d82d7017159181900360200190a1604080516001600160a01b038416815290517f65f4cf077bc01e4742eb5ad98326f6e95b63548ea24b17f8d5e823111fe788009181900360200190a1604080516001600160a01b038316815290517ff81a824d1d9030c0365252fb96daf0565f9c2007c88e13001379dda7f06d5d5c9181900360200190a15050505050505050565b6000816004811115614bb457fe5b14158015614bce57506001816004811115614bcb57fe5b14155b614bd457fe5b60a954614be081615b2b565b6001600160a01b038316600090815260a260205260409020600301805483919060ff19166001836004811115614c1257fe5b02179055506001600160a01b038316600090815260a26020908152604080832060018082018590559084905560a890925282208281550155614c548382614d18565b609f5460408051631484968760e11b81526001600160a01b038681166004830152915191909216916329092d0e91602480830192600092919082900301818387803b158015614ca257600080fd5b505af1158015614cb6573d6000803e3d6000fd5b50505050505050565b600080614cd8670de0b6b3a76400006115bf8686613713565b9050828110611d9f5760405162461bcd60e51b81526004018080602001828103825260368152602001806160ce6036913960400191505060405180910390fd5b6001600160a01b038216600090815260a2602052604081206003015460ff1690816004811115614d4457fe5b14158015614d5e57506001816004811115614d5b57fe5b14155b614d6457fe5b6001600160a01b038316600090815260a2602052604081206003015461010090046001600160801b0316908390614d9c826001612d0d565b905080836001600160801b03161115614db157fe5b600060a98281548110614dc057fe5b60009182526020909120015460a980546001600160a01b03909216925082916001600160801b038716908110614df257fe5b600091825260208083209190910180546001600160a01b0319166001600160a01b0394851617905591831680825260a283526040918290206003018054610100600160881b0319166101006001600160801b038a169081029190911790915582519182529281019290925280517f02b04ae5f7be9ca7c103293a2aa15f3c339d15d6eda53b721fef7b0e609c831a9281900390910190a160a9805480614e9457fe5b600082815260209020810160001990810180546001600160a01b031916905501905550505050505050565b6001600160a01b038116600090815260a2602052604090206002015460a354614ee89082612d0d565b60a355506001600160a01b0316600090815260a26020526040812060020155565b826001600160a01b0316632a7ba1f7836040518263ffffffff1660e01b815260040180828152602001915050600060405180830381600087803b158015614f4f57600080fd5b505af1158015614f63573d6000803e3d6000fd5b50505050836001600160a01b0316632b7c7b11836040518263ffffffff1660e01b815260040180828152602001915050600060405180830381600087803b158015614fad57600080fd5b505af1158015614fc1573d6000803e3d6000fd5b50505050826001600160a01b0316638f7be730826040518263ffffffff1660e01b815260040180828152602001915050600060405180830381600087803b15801561361357600080fd5b60008060a55460001415615020575081610f60565b600060a4541161502c57fe5b611d9f60a5546115bf60a4548661371390919063ffffffff16565b61504f615d3b565b615057615e37565b60a95460011061506757506145b2565b61507087611f3e565b6040850152602084810191909152840181905290835261508f90613e65565b604083018190527f0000000000000000000000000000000000000000000000000000000000000000606084015260208301516150ca91612d0d565b8152670de0b6b3a764000086116151cc576150ef898983602001518460400151614f09565b6150f887614ebf565b60006080830181905260a0830152815160c0830152805160e083015261511f876003614ba6565b866001600160a01b0316600080516020615e598339815191528360000151846020015160026040518084815260200183815260200182600381111561516057fe5b8152602001935050505060405180910390a2866001600160a01b031660008051602061600f83398151915260008060006002604051808581526020018481526020018381526020018260038111156151b457fe5b815260200194505050505060405180910390a2615379565b670de0b6b3a7640000861180156151ea5750670f43fc2c04ee000086105b1561523a57615203898983602001518460400151614f09565b61520c87614ebf565b8151815161521b919087615be4565b60e086015260c085015260a0840152608083015261511f876003614ba6565b670f43fc2c04ee0000861015801561525157508386105b801561525e575081518510155b1561536857615277898983602001518460400151614f09565b8461527e57fe5b61528787614ebf565b61529a8260000151836020015185615c3e565b91506152a7876003614ba6565b6101008201511561532757609a5461010083015160408051633f10abab60e01b81526001600160a01b038b81166004830152602482019390935290519190921691633f10abab91604480830192600092919082900301818387803b15801561530e57600080fd5b505af1158015615322573d6000803e3d6000fd5b505050505b866001600160a01b0316600080516020615e5983398151915283600001518460a0015160026040518084815260200183815260200182600381111561516057fe5b615370615d3b565b91506145b29050565b50979650505050505050565b61538d615d3b565b604080830151908401516153a091613d76565b6040820152606080830151908401516153b891613d76565b6060820152815160208401516153cd91613d76565b60208083019190915282015183516153e491613d76565b8152608080830151908401516153f991613d76565b608082015260a0808301519084015161541191613d76565b60a082015260c0808301519084015161542991613d76565b60c082015260e0808301519084015161544191613d76565b60e0820152610100808301519084015161545a91613d76565b61010082015292915050565b600080615474858585613dd0565b6714d1120d7b1600001195945050505050565b61548f615d3b565b615497615e37565b6154a084611f3e565b604085019081526020858101928352860192909252918452905190516154ca918891889190614f09565b6154d384614ebf565b6154e08260200151613e65565b604083018190527f00000000000000000000000000000000000000000000000000000000000000006060840152602083015160009161551f9190612d0d565b905061553083600001518286615be4565b60e087015260c086015260a0850152608084015261554f856003614ba6565b846001600160a01b0316600080516020615e598339815191528460000151856020015160016040518084815260200183815260200182600381111561559057fe5b8152602001935050505060405180910390a2846001600160a01b031660008051602061600f83398151915260008060006001604051808581526020018481526020018381526020018260038111156155e457fe5b815260200194505050505060405180910390a25050949350505050565b60008183106156105781611d9f565b5090919050565b6000631f54050082111561562d57631f54050091505b816156415750670de0b6b3a7640000610f60565b670de0b6b3a764000083835b60018111156156ac576002810661567c576156688283615cdd565b915061567581600261376c565b90506156a7565b6156868284615cdd565b92506156928283615cdd565b91506156a460026115bf836001612d0d565b90505b61564d565b6115c58284615cdd565b6040808501516099548251632770a7eb60e21b81526001600160a01b039182166004820152602481018690529251911691639dc29fac91604480830192600092919082900301818387803b15801561570d57600080fd5b505af1158015615721573d6000803e3d6000fd5b5050505083600001516001600160a01b0316632a7ba1f7836040518263ffffffff1660e01b815260040180828152602001915050600060405180830381600087803b15801561576f57600080fd5b505af1158015615783573d6000803e3d6000fd5b505050508360a001516001600160a01b0316633f10abab84836040518363ffffffff1660e01b815260040180836001600160a01b0316815260200182815260200192505050600060405180830381600087803b1580156157e257600080fd5b505af11580156157f6573d6000803e3d6000fd5b5050505083600001516001600160a01b0316628063a58560a00151836040518363ffffffff1660e01b815260040180836001600160a01b0316815260200182815260200192505050600060405180830381600087803b15801561361357600080fd5b3b151590565b600154600160a81b900460ff168061587957506158796146cf565b8061588e5750600154600160a01b900460ff16155b6158c95760405162461bcd60e51b815260040180806020018281038252602e815260200180615ee8602e913960400191505060405180910390fd5b600154600160a81b900460ff16158015614792576001805460ff60a01b1960ff60a81b19909116600160a81b1716600160a01b1790558015610f02576001805460ff60a81b1916905550565b600154600160a81b900460ff168061593057506159306146cf565b806159455750600154600160a01b900460ff16155b6159805760405162461bcd60e51b815260040180806020018281038252602e815260200180615ee8602e913960400191505060405180910390fd5b600154600160a81b900460ff161580156159b7576001805460ff60a01b1960ff60a81b19909116600160a81b1716600160a01b1790555b60006159c1613d72565b603480546001600160a01b0319166001600160a01b03831690811790915560405191925090600090600080516020615fef833981519152908290a3508015610f02576001805460ff60a81b1916905550565b600154600160a81b900460ff1680615a2e5750615a2e6146cf565b80615a435750600154600160a01b900460ff16155b615a7e5760405162461bcd60e51b815260040180806020018281038252602e815260200180615ee8602e913960400191505060405180910390fd5b600154600160a81b900460ff16158015615ab5576001805460ff60a01b1960ff60a81b19909116600160a81b1716600160a01b1790555b60016066558015610f02576001805460ff60a81b1916905550565b6001600160a01b038116610f02576040805162461bcd60e51b815260206004820152601e60248201527f4163636f756e742063616e6e6f74206265207a65726f20616464726573730000604482015290519081900360640190fd5b600181118015615ba95750609f546040805163de8fa43160e01b815290516001926001600160a01b03169163de8fa431916004808301926020929190829003018186803b158015615b7b57600080fd5b505afa158015615b8f573d6000803e3d6000fd5b505050506040513d6020811015615ba557600080fd5b5051115b610f025760405162461bcd60e51b815260040180806020018281038252602a815260200180615f64602a913960400191505060405180910390fd5b60008080808415615c2857615bf98786615601565b9350615c09876115bf8887613713565b9250615c158785612d0d565b9150615c218684612d0d565b9050615c35565b5060009250829150859050845b93509350935093565b615c46615d3b565b838152602081018390526000615c68836115bf87670f43fc2c04ee0000613713565b9050615c7381613e65565b604083018190527f0000000000000000000000000000000000000000000000000000000000000000606084015260808301869052615cb2908290612d0d565b60a0830152615cc18482612d0d565b61010083015250600060c0820181905260e08201529392505050565b600080615cea8484613713565b9050613f39670de0b6b3a76400006115bf836706f05b59d3b20000613d76565b6040518060a00160405280600081526020016000815260200160001515815260200160008152602001600081525090565b6040518061012001604052806000815260200160008152602001600081526020016000815260200160008152602001600081526020016000815260200160008152602001600081525090565b60405180610100016040528060008152602001600081526020016000815260200160008152602001600081526020016000815260200160008152602001600081525090565b6040518060e0016040528060008152602001600081526020016000815260200160006001600160a01b0316815260200160001515815260200160008152602001600081525090565b604051806060016040528060008152602001600081526020016000151581525090565b6040518060600160405280600081526020016000815260200160008152509056feea67486ed7ebe3eea8ab3390efd4a3c8aae48be5bea27df104a8af786c4084345265656e7472616e637947756172643a207265656e7472616e742063616c6c004f776e61626c653a206e6577206f776e657220697320746865207a65726f206164647265737354726f76654d616e616765723a20556e61626c6520746f2072656465656d20616e7920616d6f756e74496e697469616c697a61626c653a20636f6e747261637420697320616c726561647920696e697469616c697a656454726f76654d616e616765723a2052657175657374656420726564656d7074696f6e20616d6f756e74206d757374206265203c3d20757365722773206465627420746f6b656e2062616c616e636554726f76654d616e616765723a204f6e6c79206f6e652074726f766520696e207468652073797374656d54726f76654d616e616765723a20526564656d7074696f6e7320617265206e6f7420616c6c6f77656420647572696e6720626f6f747374726170207068617365536166654d6174683a206d756c7469706c69636174696f6e206f766572666c6f778be0079c531659141344cd1fd0a4f28419497f9722a3daafe3b4186f6b6457e0c3770d654ed33aeea6bf11ac8ef05d02a6a04ed4686dd2f624d853bbec43cc8b54726f76654d616e616765723a2043616c6c6572206973206e6f742074686520426f72726f7765724f7065726174696f6e7320636f6e747261637454726f76654d616e616765723a2043616c6c646174612061646472657373206172726179206d757374206e6f7420626520656d70747954726f76654d616e616765723a20416d6f756e74206d7573742062652067726561746572207468616e207a65726f54726f76654d616e616765723a2046656520776f756c642065617420757020616c6c2072657475726e656420636f6c6c61746572616c4d6178206665652070657263656e74616765206d757374206265206265747765656e20302e352520616e64203130302554726f76654d616e616765723a2043616e6e6f742072656465656d207768656e20544352203c204d435254726f76654d616e616765723a206e6f7468696e6720746f206c697175696461746554726f76654d616e616765723a2054726f766520646f6573206e6f74206578697374206f7220697320636c6f736564a2646970667358221220a293e691901365a85abe7e82979bec4d8ee03cee6636109acd8c06e89e2c808364736f6c63430007060033",
  "linkReferences": {},
  "deployedLinkReferences": {}
}