{
  "_format": "hh-sol-artifact-1",
  "contractName": "TroveManager",
  "sourceName": "contracts/TroveManager.sol",
  "abi": [
    {
      "inputs": [
        {
          "internalType": "uint256",
          "name": "_gasCompensation",
          "type": "uint256"
        },
        {
          "internalType": "uint256",
          "name": "_minNetDebt",
          "type": "uint256"
        },
        {
          "internalType": "uint256",
          "name": "_bootstrapPeriod",
          "type": "uint256"
        }
      ],
      "stateMutability": "nonpayable",
      "type": "constructor"
    },
    {
      "anonymous": false,
      "inputs": [
        {
          "indexed": false,
          "internalType": "address",
          "name": "_activePoolAddress",
          "type": "address"
        }
      ],
      "name": "ActivePoolAddressChanged",
      "type": "event"
    },
    {
      "anonymous": false,
      "inputs": [
        {
          "indexed": false,
          "internalType": "uint256",
          "name": "_baseRate",
          "type": "uint256"
        }
      ],
      "name": "BaseRateUpdated",
      "type": "event"
    },
    {
      "anonymous": false,
      "inputs": [
        {
          "indexed": false,
          "internalType": "address",
          "name": "_newBorrowerOperationsAddress",
          "type": "address"
        }
      ],
      "name": "BorrowerOperationsAddressChanged",
      "type": "event"
    },
    {
      "anonymous": false,
      "inputs": [
        {
          "indexed": false,
          "internalType": "address",
          "name": "_collSurplusPoolAddress",
          "type": "address"
        }
      ],
      "name": "CollSurplusPoolAddressChanged",
      "type": "event"
    },
    {
      "anonymous": false,
      "inputs": [
        {
          "indexed": false,
          "internalType": "address",
          "name": "_newDebtTokenAddress",
          "type": "address"
        }
      ],
      "name": "DebtTokenAddressChanged",
      "type": "event"
    },
    {
      "anonymous": false,
      "inputs": [
        {
          "indexed": false,
          "internalType": "address",
          "name": "_defaultPoolAddress",
          "type": "address"
        }
      ],
      "name": "DefaultPoolAddressChanged",
      "type": "event"
    },
    {
      "anonymous": false,
      "inputs": [
        {
          "indexed": false,
          "internalType": "address",
          "name": "_gasPoolAddress",
          "type": "address"
        }
      ],
      "name": "GasPoolAddressChanged",
      "type": "event"
    },
    {
      "anonymous": false,
      "inputs": [
        {
          "indexed": false,
          "internalType": "uint256",
          "name": "_L_FIL",
          "type": "uint256"
        },
        {
          "indexed": false,
          "internalType": "uint256",
          "name": "_L_Debt",
          "type": "uint256"
        }
      ],
      "name": "LTermsUpdated",
      "type": "event"
    },
    {
      "anonymous": false,
      "inputs": [
        {
          "indexed": false,
          "internalType": "uint256",
          "name": "_lastFeeOpTime",
          "type": "uint256"
        }
      ],
      "name": "LastFeeOpTimeUpdated",
      "type": "event"
    },
    {
      "anonymous": false,
      "inputs": [
        {
          "indexed": false,
          "internalType": "uint256",
          "name": "_liquidatedDebt",
          "type": "uint256"
        },
        {
          "indexed": false,
          "internalType": "uint256",
          "name": "_liquidatedColl",
          "type": "uint256"
        },
        {
          "indexed": false,
          "internalType": "uint256",
          "name": "_collGasCompensation",
          "type": "uint256"
        },
        {
          "indexed": false,
          "internalType": "uint256",
          "name": "_debtGasCompensation",
          "type": "uint256"
        }
      ],
      "name": "Liquidation",
      "type": "event"
    },
    {
      "anonymous": false,
      "inputs": [
        {
          "indexed": true,
          "internalType": "address",
          "name": "previousOwner",
          "type": "address"
        },
        {
          "indexed": true,
          "internalType": "address",
          "name": "newOwner",
          "type": "address"
        }
      ],
      "name": "OwnershipTransferred",
      "type": "event"
    },
    {
      "anonymous": false,
      "inputs": [
        {
          "indexed": false,
          "internalType": "address",
          "name": "_newPriceFeedAddress",
          "type": "address"
        }
      ],
      "name": "PriceFeedAddressChanged",
      "type": "event"
    },
    {
      "anonymous": false,
      "inputs": [
        {
          "indexed": false,
          "internalType": "address",
          "name": "_protocolTokenStakingAddress",
          "type": "address"
        }
      ],
      "name": "ProtocolTokenStakingAddressChanged",
      "type": "event"
    },
    {
      "anonymous": false,
      "inputs": [
        {
          "indexed": false,
          "internalType": "uint256",
          "name": "_attemptedDebtTokenAmount",
          "type": "uint256"
        },
        {
          "indexed": false,
          "internalType": "uint256",
          "name": "_actualDebtTokenAmount",
          "type": "uint256"
        },
        {
          "indexed": false,
          "internalType": "uint256",
          "name": "_FILSent",
          "type": "uint256"
        },
        {
          "indexed": false,
          "internalType": "uint256",
          "name": "_FILFee",
          "type": "uint256"
        }
      ],
      "name": "Redemption",
      "type": "event"
    },
    {
      "anonymous": false,
      "inputs": [
        {
          "indexed": false,
          "internalType": "address",
          "name": "_sortedTrovesAddress",
          "type": "address"
        }
      ],
      "name": "SortedTrovesAddressChanged",
      "type": "event"
    },
    {
      "anonymous": false,
      "inputs": [
        {
          "indexed": false,
          "internalType": "address",
          "name": "_stabilityPoolAddress",
          "type": "address"
        }
      ],
      "name": "StabilityPoolAddressChanged",
      "type": "event"
    },
    {
      "anonymous": false,
      "inputs": [
        {
          "indexed": false,
          "internalType": "uint256",
          "name": "_totalStakesSnapshot",
          "type": "uint256"
        },
        {
          "indexed": false,
          "internalType": "uint256",
          "name": "_totalCollateralSnapshot",
          "type": "uint256"
        }
      ],
      "name": "SystemSnapshotsUpdated",
      "type": "event"
    },
    {
      "anonymous": false,
      "inputs": [
        {
          "indexed": false,
          "internalType": "uint256",
          "name": "_newTotalStakes",
          "type": "uint256"
        }
      ],
      "name": "TotalStakesUpdated",
      "type": "event"
    },
    {
      "anonymous": false,
      "inputs": [
        {
          "indexed": false,
          "internalType": "address",
          "name": "_borrower",
          "type": "address"
        },
        {
          "indexed": false,
          "internalType": "uint256",
          "name": "_newIndex",
          "type": "uint256"
        }
      ],
      "name": "TroveIndexUpdated",
      "type": "event"
    },
    {
      "anonymous": false,
      "inputs": [
        {
          "indexed": true,
          "internalType": "address",
          "name": "_borrower",
          "type": "address"
        },
        {
          "indexed": false,
          "internalType": "uint256",
          "name": "_debt",
          "type": "uint256"
        },
        {
          "indexed": false,
          "internalType": "uint256",
          "name": "_coll",
          "type": "uint256"
        },
        {
          "indexed": false,
          "internalType": "enum ITroveManager.TroveManagerOperation",
          "name": "_operation",
          "type": "uint8"
        }
      ],
      "name": "TroveLiquidated",
      "type": "event"
    },
    {
      "anonymous": false,
      "inputs": [
        {
          "indexed": false,
          "internalType": "uint256",
          "name": "_L_FIL",
          "type": "uint256"
        },
        {
          "indexed": false,
          "internalType": "uint256",
          "name": "_L_Debt",
          "type": "uint256"
        }
      ],
      "name": "TroveSnapshotsUpdated",
      "type": "event"
    },
    {
      "anonymous": false,
      "inputs": [
        {
          "indexed": true,
          "internalType": "address",
          "name": "_borrower",
          "type": "address"
        },
        {
          "indexed": false,
          "internalType": "uint256",
          "name": "_debt",
          "type": "uint256"
        },
        {
          "indexed": false,
          "internalType": "uint256",
          "name": "_coll",
          "type": "uint256"
        },
        {
          "indexed": false,
          "internalType": "uint256",
          "name": "stake",
          "type": "uint256"
        },
        {
          "indexed": false,
          "internalType": "enum ITroveManager.TroveManagerOperation",
          "name": "_operation",
          "type": "uint8"
        }
      ],
      "name": "TroveUpdated",
      "type": "event"
    },
    {
      "inputs": [],
      "name": "BETA",
      "outputs": [
        {
          "internalType": "uint256",
          "name": "",
          "type": "uint256"
        }
      ],
      "stateMutability": "view",
      "type": "function"
    },
    {
      "inputs": [],
      "name": "BOOTSTRAP_PERIOD",
      "outputs": [
        {
          "internalType": "uint256",
          "name": "",
          "type": "uint256"
        }
      ],
      "stateMutability": "view",
      "type": "function"
    },
    {
      "inputs": [],
      "name": "BORROWING_FEE_FLOOR",
      "outputs": [
        {
          "internalType": "uint256",
          "name": "",
          "type": "uint256"
        }
      ],
      "stateMutability": "view",
      "type": "function"
    },
    {
      "inputs": [],
      "name": "CCR",
      "outputs": [
        {
          "internalType": "uint256",
          "name": "",
          "type": "uint256"
        }
      ],
      "stateMutability": "view",
      "type": "function"
    },
    {
      "inputs": [],
      "name": "DECIMAL_PRECISION",
      "outputs": [
        {
          "internalType": "uint256",
          "name": "",
          "type": "uint256"
        }
      ],
      "stateMutability": "view",
      "type": "function"
    },
    {
      "inputs": [],
      "name": "GAS_COMPENSATION",
      "outputs": [
        {
          "internalType": "uint256",
          "name": "",
          "type": "uint256"
        }
      ],
      "stateMutability": "view",
      "type": "function"
    },
    {
      "inputs": [],
      "name": "L_Debt",
      "outputs": [
        {
          "internalType": "uint256",
          "name": "",
          "type": "uint256"
        }
      ],
      "stateMutability": "view",
      "type": "function"
    },
    {
      "inputs": [],
      "name": "L_FIL",
      "outputs": [
        {
          "internalType": "uint256",
          "name": "",
          "type": "uint256"
        }
      ],
      "stateMutability": "view",
      "type": "function"
    },
    {
      "inputs": [],
      "name": "MAX_BORROWING_FEE",
      "outputs": [
        {
          "internalType": "uint256",
          "name": "",
          "type": "uint256"
        }
      ],
      "stateMutability": "view",
      "type": "function"
    },
    {
      "inputs": [],
      "name": "MCR",
      "outputs": [
        {
          "internalType": "uint256",
          "name": "",
          "type": "uint256"
        }
      ],
      "stateMutability": "view",
      "type": "function"
    },
    {
      "inputs": [],
      "name": "MINUTE_DECAY_FACTOR",
      "outputs": [
        {
          "internalType": "uint256",
          "name": "",
          "type": "uint256"
        }
      ],
      "stateMutability": "view",
      "type": "function"
    },
    {
      "inputs": [],
      "name": "MIN_NET_DEBT",
      "outputs": [
        {
          "internalType": "uint256",
          "name": "",
          "type": "uint256"
        }
      ],
      "stateMutability": "view",
      "type": "function"
    },
    {
      "inputs": [],
      "name": "NAME",
      "outputs": [
        {
          "internalType": "string",
          "name": "",
          "type": "string"
        }
      ],
      "stateMutability": "view",
      "type": "function"
    },
    {
      "inputs": [],
      "name": "PERCENT_DIVISOR",
      "outputs": [
        {
          "internalType": "uint256",
          "name": "",
          "type": "uint256"
        }
      ],
      "stateMutability": "view",
      "type": "function"
    },
    {
      "inputs": [],
      "name": "REDEMPTION_FEE_FLOOR",
      "outputs": [
        {
          "internalType": "uint256",
          "name": "",
          "type": "uint256"
        }
      ],
      "stateMutability": "view",
      "type": "function"
    },
    {
      "inputs": [],
      "name": "SECONDS_IN_ONE_MINUTE",
      "outputs": [
        {
          "internalType": "uint256",
          "name": "",
          "type": "uint256"
        }
      ],
      "stateMutability": "view",
      "type": "function"
    },
    {
      "inputs": [
        {
          "internalType": "uint256",
          "name": "",
          "type": "uint256"
        }
      ],
      "name": "TroveOwners",
      "outputs": [
        {
          "internalType": "address",
          "name": "",
          "type": "address"
        }
      ],
      "stateMutability": "view",
      "type": "function"
    },
    {
      "inputs": [
        {
          "internalType": "address",
          "name": "",
          "type": "address"
        }
      ],
      "name": "Troves",
      "outputs": [
        {
          "internalType": "uint256",
          "name": "debt",
          "type": "uint256"
        },
        {
          "internalType": "uint256",
          "name": "coll",
          "type": "uint256"
        },
        {
          "internalType": "uint256",
          "name": "stake",
          "type": "uint256"
        },
        {
          "internalType": "enum ITroveManager.Status",
          "name": "status",
          "type": "uint8"
        },
        {
          "internalType": "uint128",
          "name": "arrayIndex",
          "type": "uint128"
        }
      ],
      "stateMutability": "view",
      "type": "function"
    },
    {
      "inputs": [],
      "name": "_100pct",
      "outputs": [
        {
          "internalType": "uint256",
          "name": "",
          "type": "uint256"
        }
      ],
      "stateMutability": "view",
      "type": "function"
    },
    {
      "inputs": [],
      "name": "activePool",
      "outputs": [
        {
          "internalType": "contract IActivePool",
          "name": "",
          "type": "address"
        }
      ],
      "stateMutability": "view",
      "type": "function"
    },
    {
      "inputs": [
        {
          "internalType": "address",
          "name": "_borrower",
          "type": "address"
        }
      ],
      "name": "addTroveOwnerToArray",
      "outputs": [
        {
          "internalType": "uint256",
          "name": "index",
          "type": "uint256"
        }
      ],
      "stateMutability": "nonpayable",
      "type": "function"
    },
    {
      "inputs": [
        {
          "internalType": "address",
          "name": "_borrower",
          "type": "address"
        }
      ],
      "name": "applyPendingRewards",
      "outputs": [],
      "stateMutability": "nonpayable",
      "type": "function"
    },
    {
      "inputs": [],
      "name": "baseRate",
      "outputs": [
        {
          "internalType": "uint256",
          "name": "",
          "type": "uint256"
        }
      ],
      "stateMutability": "view",
      "type": "function"
    },
    {
      "inputs": [
        {
          "internalType": "address[]",
          "name": "_troveArray",
          "type": "address[]"
        }
      ],
      "name": "batchLiquidateTroves",
      "outputs": [],
      "stateMutability": "nonpayable",
      "type": "function"
    },
    {
      "inputs": [],
      "name": "borrowerOperationsAddress",
      "outputs": [
        {
          "internalType": "address",
          "name": "",
          "type": "address"
        }
      ],
      "stateMutability": "view",
      "type": "function"
    },
    {
      "inputs": [
        {
          "internalType": "uint256",
          "name": "_price",
          "type": "uint256"
        }
      ],
      "name": "checkRecoveryMode",
      "outputs": [
        {
          "internalType": "bool",
          "name": "",
          "type": "bool"
        }
      ],
      "stateMutability": "view",
      "type": "function"
    },
    {
      "inputs": [
        {
          "internalType": "address",
          "name": "_borrower",
          "type": "address"
        }
      ],
      "name": "closeTrove",
      "outputs": [],
      "stateMutability": "nonpayable",
      "type": "function"
    },
    {
      "inputs": [],
      "name": "collSurplusPool",
      "outputs": [
        {
          "internalType": "contract ICollSurplusPool",
          "name": "",
          "type": "address"
        }
      ],
      "stateMutability": "view",
      "type": "function"
    },
    {
      "inputs": [],
      "name": "debtToken",
      "outputs": [
        {
          "internalType": "contract IDebtToken",
          "name": "",
          "type": "address"
        }
      ],
      "stateMutability": "view",
      "type": "function"
    },
    {
      "inputs": [],
      "name": "decayBaseRateFromBorrowing",
      "outputs": [],
      "stateMutability": "nonpayable",
      "type": "function"
    },
    {
      "inputs": [
        {
          "internalType": "address",
          "name": "_borrower",
          "type": "address"
        },
        {
          "internalType": "uint256",
          "name": "_collDecrease",
          "type": "uint256"
        }
      ],
      "name": "decreaseTroveColl",
      "outputs": [
        {
          "internalType": "uint256",
          "name": "",
          "type": "uint256"
        }
      ],
      "stateMutability": "nonpayable",
      "type": "function"
    },
    {
      "inputs": [
        {
          "internalType": "address",
          "name": "_borrower",
          "type": "address"
        },
        {
          "internalType": "uint256",
          "name": "_debtDecrease",
          "type": "uint256"
        }
      ],
      "name": "decreaseTroveDebt",
      "outputs": [
        {
          "internalType": "uint256",
          "name": "",
          "type": "uint256"
        }
      ],
      "stateMutability": "nonpayable",
      "type": "function"
    },
    {
      "inputs": [],
      "name": "defaultPool",
      "outputs": [
        {
          "internalType": "contract IDefaultPool",
          "name": "",
          "type": "address"
        }
      ],
      "stateMutability": "view",
      "type": "function"
    },
    {
      "inputs": [],
      "name": "deploymentStartTime",
      "outputs": [
        {
          "internalType": "uint256",
          "name": "",
          "type": "uint256"
        }
      ],
      "stateMutability": "view",
      "type": "function"
    },
    {
      "inputs": [],
      "name": "gasPoolAddress",
      "outputs": [
        {
          "internalType": "address",
          "name": "",
          "type": "address"
        }
      ],
      "stateMutability": "view",
      "type": "function"
    },
    {
      "inputs": [
        {
          "internalType": "uint256",
          "name": "_debt",
          "type": "uint256"
        }
      ],
      "name": "getBorrowingFee",
      "outputs": [
        {
          "internalType": "uint256",
          "name": "",
          "type": "uint256"
        }
      ],
      "stateMutability": "view",
      "type": "function"
    },
    {
      "inputs": [
        {
          "internalType": "uint256",
          "name": "_debt",
          "type": "uint256"
        }
      ],
      "name": "getBorrowingFeeWithDecay",
      "outputs": [
        {
          "internalType": "uint256",
          "name": "",
          "type": "uint256"
        }
      ],
      "stateMutability": "view",
      "type": "function"
    },
    {
      "inputs": [],
      "name": "getBorrowingRate",
      "outputs": [
        {
          "internalType": "uint256",
          "name": "",
          "type": "uint256"
        }
      ],
      "stateMutability": "view",
      "type": "function"
    },
    {
      "inputs": [],
      "name": "getBorrowingRateWithDecay",
      "outputs": [
        {
          "internalType": "uint256",
          "name": "",
          "type": "uint256"
        }
      ],
      "stateMutability": "view",
      "type": "function"
    },
    {
      "inputs": [
        {
          "internalType": "address",
          "name": "_borrower",
          "type": "address"
        },
        {
          "internalType": "uint256",
          "name": "_price",
          "type": "uint256"
        }
      ],
      "name": "getCurrentICR",
      "outputs": [
        {
          "internalType": "uint256",
          "name": "",
          "type": "uint256"
        }
      ],
      "stateMutability": "view",
      "type": "function"
    },
    {
      "inputs": [
        {
          "internalType": "address",
          "name": "_borrower",
          "type": "address"
        }
      ],
      "name": "getEntireDebtAndColl",
      "outputs": [
        {
          "internalType": "uint256",
          "name": "debt",
          "type": "uint256"
        },
        {
          "internalType": "uint256",
          "name": "coll",
          "type": "uint256"
        },
        {
          "internalType": "uint256",
          "name": "pendingDebtReward",
          "type": "uint256"
        },
        {
          "internalType": "uint256",
          "name": "pendingFILReward",
          "type": "uint256"
        }
      ],
      "stateMutability": "view",
      "type": "function"
    },
    {
      "inputs": [],
      "name": "getEntireSystemColl",
      "outputs": [
        {
          "internalType": "uint256",
          "name": "entireSystemColl",
          "type": "uint256"
        }
      ],
      "stateMutability": "view",
      "type": "function"
    },
    {
      "inputs": [],
      "name": "getEntireSystemDebt",
      "outputs": [
        {
          "internalType": "uint256",
          "name": "entireSystemDebt",
          "type": "uint256"
        }
      ],
      "stateMutability": "view",
      "type": "function"
    },
    {
      "inputs": [
        {
          "internalType": "address",
          "name": "_borrower",
          "type": "address"
        }
      ],
      "name": "getNominalICR",
      "outputs": [
        {
          "internalType": "uint256",
          "name": "",
          "type": "uint256"
        }
      ],
      "stateMutability": "view",
      "type": "function"
    },
    {
      "inputs": [
        {
          "internalType": "address",
          "name": "_borrower",
          "type": "address"
        }
      ],
      "name": "getPendingDebtReward",
      "outputs": [
        {
          "internalType": "uint256",
          "name": "",
          "type": "uint256"
        }
      ],
      "stateMutability": "view",
      "type": "function"
    },
    {
      "inputs": [
        {
          "internalType": "address",
          "name": "_borrower",
          "type": "address"
        }
      ],
      "name": "getPendingFILReward",
      "outputs": [
        {
          "internalType": "uint256",
          "name": "",
          "type": "uint256"
        }
      ],
      "stateMutability": "view",
      "type": "function"
    },
    {
      "inputs": [
        {
          "internalType": "uint256",
          "name": "_FILDrawn",
          "type": "uint256"
        }
      ],
      "name": "getRedemptionFeeWithDecay",
      "outputs": [
        {
          "internalType": "uint256",
          "name": "",
          "type": "uint256"
        }
      ],
      "stateMutability": "view",
      "type": "function"
    },
    {
      "inputs": [],
      "name": "getRedemptionRate",
      "outputs": [
        {
          "internalType": "uint256",
          "name": "",
          "type": "uint256"
        }
      ],
      "stateMutability": "view",
      "type": "function"
    },
    {
      "inputs": [],
      "name": "getRedemptionRateWithDecay",
      "outputs": [
        {
          "internalType": "uint256",
          "name": "",
          "type": "uint256"
        }
      ],
      "stateMutability": "view",
      "type": "function"
    },
    {
      "inputs": [
        {
          "internalType": "uint256",
          "name": "_price",
          "type": "uint256"
        }
      ],
      "name": "getTCR",
      "outputs": [
        {
          "internalType": "uint256",
          "name": "",
          "type": "uint256"
        }
      ],
      "stateMutability": "view",
      "type": "function"
    },
    {
      "inputs": [
        {
          "internalType": "address",
          "name": "_borrower",
          "type": "address"
        }
      ],
      "name": "getTroveColl",
      "outputs": [
        {
          "internalType": "uint256",
          "name": "",
          "type": "uint256"
        }
      ],
      "stateMutability": "view",
      "type": "function"
    },
    {
      "inputs": [
        {
          "internalType": "address",
          "name": "_borrower",
          "type": "address"
        }
      ],
      "name": "getTroveDebt",
      "outputs": [
        {
          "internalType": "uint256",
          "name": "",
          "type": "uint256"
        }
      ],
      "stateMutability": "view",
      "type": "function"
    },
    {
      "inputs": [
        {
          "internalType": "uint256",
          "name": "_index",
          "type": "uint256"
        }
      ],
      "name": "getTroveFromTroveOwnersArray",
      "outputs": [
        {
          "internalType": "address",
          "name": "",
          "type": "address"
        }
      ],
      "stateMutability": "view",
      "type": "function"
    },
    {
      "inputs": [],
      "name": "getTroveOwnersCount",
      "outputs": [
        {
          "internalType": "uint256",
          "name": "",
          "type": "uint256"
        }
      ],
      "stateMutability": "view",
      "type": "function"
    },
    {
      "inputs": [
        {
          "internalType": "address",
          "name": "_borrower",
          "type": "address"
        }
      ],
      "name": "getTroveStake",
      "outputs": [
        {
          "internalType": "uint256",
          "name": "",
          "type": "uint256"
        }
      ],
      "stateMutability": "view",
      "type": "function"
    },
    {
      "inputs": [
        {
          "internalType": "address",
          "name": "_borrower",
          "type": "address"
        }
      ],
      "name": "getTroveStatus",
      "outputs": [
        {
          "internalType": "uint256",
          "name": "",
          "type": "uint256"
        }
      ],
      "stateMutability": "view",
      "type": "function"
    },
    {
      "inputs": [
        {
          "internalType": "address",
          "name": "_borrower",
          "type": "address"
        }
      ],
      "name": "hasPendingRewards",
      "outputs": [
        {
          "internalType": "bool",
          "name": "",
          "type": "bool"
        }
      ],
      "stateMutability": "view",
      "type": "function"
    },
    {
      "inputs": [
        {
          "internalType": "address",
          "name": "_borrower",
          "type": "address"
        },
        {
          "internalType": "uint256",
          "name": "_collIncrease",
          "type": "uint256"
        }
      ],
      "name": "increaseTroveColl",
      "outputs": [
        {
          "internalType": "uint256",
          "name": "",
          "type": "uint256"
        }
      ],
      "stateMutability": "nonpayable",
      "type": "function"
    },
    {
      "inputs": [
        {
          "internalType": "address",
          "name": "_borrower",
          "type": "address"
        },
        {
          "internalType": "uint256",
          "name": "_debtIncrease",
          "type": "uint256"
        }
      ],
      "name": "increaseTroveDebt",
      "outputs": [
        {
          "internalType": "uint256",
          "name": "",
          "type": "uint256"
        }
      ],
      "stateMutability": "nonpayable",
      "type": "function"
    },
    {
      "inputs": [
        {
          "internalType": "address",
          "name": "_borrowerOperationsAddress",
          "type": "address"
        },
        {
          "internalType": "address",
          "name": "_activePoolAddress",
          "type": "address"
        },
        {
          "internalType": "address",
          "name": "_defaultPoolAddress",
          "type": "address"
        },
        {
          "internalType": "address",
          "name": "_stabilityPoolAddress",
          "type": "address"
        },
        {
          "internalType": "address",
          "name": "_gasPoolAddress",
          "type": "address"
        },
        {
          "internalType": "address",
          "name": "_collSurplusPoolAddress",
          "type": "address"
        },
        {
          "internalType": "address",
          "name": "_priceFeedAddress",
          "type": "address"
        },
        {
          "internalType": "address",
          "name": "_debtTokenAddress",
          "type": "address"
        },
        {
          "internalType": "address",
          "name": "_sortedTrovesAddress",
          "type": "address"
        },
        {
          "internalType": "address",
          "name": "_protocolTokenStakingAddress",
          "type": "address"
        }
      ],
      "name": "initialize",
      "outputs": [],
      "stateMutability": "nonpayable",
      "type": "function"
    },
    {
      "inputs": [],
      "name": "lastFILError_Redistribution",
      "outputs": [
        {
          "internalType": "uint256",
          "name": "",
          "type": "uint256"
        }
      ],
      "stateMutability": "view",
      "type": "function"
    },
    {
      "inputs": [],
      "name": "lastFeeOperationTime",
      "outputs": [
        {
          "internalType": "uint256",
          "name": "",
          "type": "uint256"
        }
      ],
      "stateMutability": "view",
      "type": "function"
    },
    {
      "inputs": [],
      "name": "lastLDebtError_Redistribution",
      "outputs": [
        {
          "internalType": "uint256",
          "name": "",
          "type": "uint256"
        }
      ],
      "stateMutability": "view",
      "type": "function"
    },
    {
      "inputs": [
        {
          "internalType": "address",
          "name": "_borrower",
          "type": "address"
        }
      ],
      "name": "liquidate",
      "outputs": [],
      "stateMutability": "nonpayable",
      "type": "function"
    },
    {
      "inputs": [
        {
          "internalType": "uint256",
          "name": "_n",
          "type": "uint256"
        }
      ],
      "name": "liquidateTroves",
      "outputs": [],
      "stateMutability": "nonpayable",
      "type": "function"
    },
    {
      "inputs": [],
      "name": "owner",
      "outputs": [
        {
          "internalType": "address",
          "name": "",
          "type": "address"
        }
      ],
      "stateMutability": "view",
      "type": "function"
    },
    {
      "inputs": [],
      "name": "priceFeed",
      "outputs": [
        {
          "internalType": "contract IPriceFeed",
          "name": "",
          "type": "address"
        }
      ],
      "stateMutability": "view",
      "type": "function"
    },
    {
      "inputs": [],
      "name": "protocolTokenStaking",
      "outputs": [
        {
          "internalType": "contract IProtocolTokenStaking",
          "name": "",
          "type": "address"
        }
      ],
      "stateMutability": "view",
      "type": "function"
    },
    {
      "inputs": [
        {
          "internalType": "uint256",
          "name": "_debtTokenAmount",
          "type": "uint256"
        },
        {
          "internalType": "address",
          "name": "_firstRedemptionHint",
          "type": "address"
        },
        {
          "internalType": "address",
          "name": "_upperPartialRedemptionHint",
          "type": "address"
        },
        {
          "internalType": "address",
          "name": "_lowerPartialRedemptionHint",
          "type": "address"
        },
        {
          "internalType": "uint256",
          "name": "_partialRedemptionHintNICR",
          "type": "uint256"
        },
        {
          "internalType": "uint256",
          "name": "_maxIterations",
          "type": "uint256"
        },
        {
          "internalType": "uint256",
          "name": "_maxFeePercentage",
          "type": "uint256"
        }
      ],
      "name": "redeemCollateral",
      "outputs": [],
      "stateMutability": "nonpayable",
      "type": "function"
    },
    {
      "inputs": [
        {
          "internalType": "address",
          "name": "_borrower",
          "type": "address"
        }
      ],
      "name": "removeStake",
      "outputs": [],
      "stateMutability": "nonpayable",
      "type": "function"
    },
    {
      "inputs": [],
      "name": "renounceOwnership",
      "outputs": [],
      "stateMutability": "nonpayable",
      "type": "function"
    },
    {
      "inputs": [
        {
          "internalType": "address",
          "name": "",
          "type": "address"
        }
      ],
      "name": "rewardSnapshots",
      "outputs": [
        {
          "internalType": "uint256",
          "name": "FIL",
          "type": "uint256"
        },
        {
          "internalType": "uint256",
          "name": "debt",
          "type": "uint256"
        }
      ],
      "stateMutability": "view",
      "type": "function"
    },
    {
      "inputs": [
        {
          "internalType": "address",
          "name": "_borrower",
          "type": "address"
        },
        {
          "internalType": "uint256",
          "name": "_num",
          "type": "uint256"
        }
      ],
      "name": "setTroveStatus",
      "outputs": [],
      "stateMutability": "nonpayable",
      "type": "function"
    },
    {
      "inputs": [],
      "name": "sortedTroves",
      "outputs": [
        {
          "internalType": "contract ISortedTroves",
          "name": "",
          "type": "address"
        }
      ],
      "stateMutability": "view",
      "type": "function"
    },
    {
      "inputs": [],
      "name": "stabilityPool",
      "outputs": [
        {
          "internalType": "contract IStabilityPool",
          "name": "",
          "type": "address"
        }
      ],
      "stateMutability": "view",
      "type": "function"
    },
    {
      "inputs": [],
      "name": "totalCollateralSnapshot",
      "outputs": [
        {
          "internalType": "uint256",
          "name": "",
          "type": "uint256"
        }
      ],
      "stateMutability": "view",
      "type": "function"
    },
    {
      "inputs": [],
      "name": "totalStakes",
      "outputs": [
        {
          "internalType": "uint256",
          "name": "",
          "type": "uint256"
        }
      ],
      "stateMutability": "view",
      "type": "function"
    },
    {
      "inputs": [],
      "name": "totalStakesSnapshot",
      "outputs": [
        {
          "internalType": "uint256",
          "name": "",
          "type": "uint256"
        }
      ],
      "stateMutability": "view",
      "type": "function"
    },
    {
      "inputs": [
        {
          "internalType": "address",
          "name": "newOwner",
          "type": "address"
        }
      ],
      "name": "transferOwnership",
      "outputs": [],
      "stateMutability": "nonpayable",
      "type": "function"
    },
    {
      "inputs": [
        {
          "internalType": "address",
          "name": "_borrower",
          "type": "address"
        }
      ],
      "name": "updateStakeAndTotalStakes",
      "outputs": [
        {
          "internalType": "uint256",
          "name": "",
          "type": "uint256"
        }
      ],
      "stateMutability": "nonpayable",
      "type": "function"
    },
    {
      "inputs": [
        {
          "internalType": "address",
          "name": "_borrower",
          "type": "address"
        }
      ],
      "name": "updateTroveRewardSnapshots",
      "outputs": [],
      "stateMutability": "nonpayable",
      "type": "function"
    }
  ],
  "bytecode": "0x6101006040523480156200001257600080fd5b506040516200604838038062006048833981810160405260608110156200003857600080fd5b5080516020820151604090920151608082905260a083905260e08190524260c081905291929190615f8d620000bb600039806126545280613cf152508061291c5280613cd0525080610e4e52806141a5525080610dda528061402652806140cb528061410c5280614c4b528061509c528061542f5280615a255250615f8d6000f3fe608060405234801561001057600080fd5b506004361061048b5760003560e01c8063794e572411610262578063c35bc55011610151578063d9a72444116100ce578063f59fac2d11610092578063f59fac2d14610ce6578063f8d8989814610d0c578063f92d34331461069e578063fdf27dba14610d14578063fe2ba84814610d1c578063fe9d032314610d425761048b565b8063d9a7244414610c6d578063e2ac77b014610c8a578063e545242314610cb0578063f2fde38b14610cb8578063f36b242514610cde5761048b565b8063d293c71011610115578063d293c71014610bca578063d380a37c14610bf6578063d3d6f84314610bfe578063d5b3563514610c2a578063d66a255314610c475761048b565b8063c35bc55014610b84578063c52861f214610b8c578063c7b5548114610b94578063cbd138ae14610b9c578063cda775f914610bc25761048b565b8063a20baee6116101df578063b82f263d116101a3578063b82f263d14610a54578063b91af97c14610a71578063bcd3752614610abd578063bf9befb114610b0b578063c306b37814610b135761048b565b8063a20baee6146108da578063a3f4df7e146109a1578063ae91875414610a1e578063b0d8e18114610a26578063b7f8cf9b14610a4c5761048b565b8063887105d311610226578063887105d3146109555780638da5cb5b1461095d57806396d711ff146109655780639976cf451461096d578063a0d8d6bc146109995761048b565b8063794e57241461090f578063795d26c3146109175780637f7dde4a1461091f578063807d138d1461092757806382fe3eb91461092f5761048b565b8063480cd5781161037e57806364cee260116102fb57806372423c17116102bf57806372423c17146108ae57806372fe25aa146108da57806373098be9146108e2578063741bef1a146108ea578063756b253e146108f25761048b565b806364cee260146107ef578063653d46e71461081557806366ca4a21146108325780636ef643381461083a578063715018a6146108a65761048b565b80635733d58f116103425780635733d58f1461078e5780635d6b480f146107965780635dba4c4a146107c257806361ec893d146107ca578063631203b0146107d25761048b565b8063480cd578146107015780634870dd9a1461072757806349eefeee1461072f5780634e443d9e1461073757806352512eaa146107685761048b565b80631f68f20a1161040c5780632b11551a116103d05780632b11551a146106a65780632f865568146106ae57806331eaf05c146106d45780633cc74225146106dc578063477d66cf146106e45761048b565b80631f68f20a1461066057806321e3780114610668578063240926691461068e57806326b4d8fd1461069657806328d28b5b1461069e5761048b565b806315d549f11161045357806315d549f11461052a5780631673c79a1461055057806318f2817a1461058f5780631bf43555146105b55780631e8b1c2b146105bd5761048b565b8063048c661d14610490578063071a7541146104b45780630b076557146104ce57806312610e92146104f6578063139f2e8c14610522575b600080fd5b610498610d4a565b604080516001600160a01b039092168252519081900360200190f35b6104bc610d59565b60408051918252519081900360200190f35b6104f4600480360360208110156104e457600080fd5b50356001600160a01b0316610d5e565b005b6104bc6004803603604081101561050c57600080fd5b506001600160a01b038135169060200135610d86565b6104bc610dd8565b6104bc6004803603602081101561054057600080fd5b50356001600160a01b0316610dfc565b6105766004803603602081101561056657600080fd5b50356001600160a01b0316610e20565b6040805192835260208301919091528051918290030190f35b6104bc600480360360208110156105a557600080fd5b50356001600160a01b0316610e39565b6104bc610e4c565b6104f4600480360360208110156105d357600080fd5b8101906020810181356401000000008111156105ee57600080fd5b82018360208201111561060057600080fd5b8035906020019184602083028401116401000000008311171561062257600080fd5b919080806020026020016040519081016040528093929190818152602001838360200280828437600092019190915250929550610e70945050505050565b6104bc611254565b6104bc6004803603602081101561067e57600080fd5b50356001600160a01b031661125a565b6104bc611284565b6104bc611297565b6104bc61129d565b6104bc6112ae565b6104f4600480360360208110156106c457600080fd5b50356001600160a01b03166112c0565b6104bc611326565b61049861132c565b6104bc600480360360208110156106fa57600080fd5b503561133b565b6104bc6004803603602081101561071757600080fd5b50356001600160a01b031661134e565b6104bc61136c565b6104bc611371565b6107546004803603602081101561074d57600080fd5b5035611377565b604080519115158252519081900360200190f35b6104bc6004803603602081101561077e57600080fd5b50356001600160a01b0316611382565b6104bc611436565b6104f4600480360360408110156107ac57600080fd5b506001600160a01b038135169060200135611442565b6104f461148e565b6104bc6114f4565b6104bc600480360360208110156107e857600080fd5b50356114f9565b6104bc6004803603602081101561080557600080fd5b50356001600160a01b0316611506565b6104f46004803603602081101561082b57600080fd5b5035611524565b6104bc611911565b6108606004803603602081101561085057600080fd5b50356001600160a01b0316611923565b6040518086815260200185815260200184815260200183600481111561088257fe5b8152602001826001600160801b031681526020019550505050505060405180910390f35b6104f461195d565b6104bc600480360360408110156108c457600080fd5b506001600160a01b038135169060200135611a09565b6104bc611a60565b6104bc611a6c565b610498611a72565b6104986004803603602081101561090857600080fd5b5035611a81565b6104bc611aab565b6104bc611ab7565b610498611bb2565b6104bc611bc1565b6104f46004803603602081101561094557600080fd5b50356001600160a01b0316611bc7565b6104bc611bd8565b610498611c94565b6104bc611ca3565b6104bc6004803603604081101561098357600080fd5b506001600160a01b038135169060200135611ca9565b6104bc611cd6565b6109a9611cdc565b6040805160208082528351818301528351919283929083019185019080838360005b838110156109e35781810151838201526020016109cb565b50505050905090810190601f168015610a105780820380516001836020036101000a031916815260200191505b509250505060405180910390f35b610498611d04565b6104bc60048036036020811015610a3c57600080fd5b50356001600160a01b0316611d13565b610498611d3a565b6104bc60048036036020811015610a6a57600080fd5b5035611d49565b610a9760048036036020811015610a8757600080fd5b50356001600160a01b0316611d54565b604080519485526020850193909352838301919091526060830152519081900360800190f35b6104f4600480360360e0811015610ad357600080fd5b508035906001600160a01b03602082013581169160408101358216916060820135169060808101359060a08101359060c00135611dac565b6104bc61255f565b6104f46004803603610140811015610b2a57600080fd5b506001600160a01b038135811691602081013582169160408201358116916060810135821691608082013581169160a081013582169160c082013581169160e0810135821691610100820135811691610120013516612565565b6104bc612652565b6104bc612676565b6104bc612688565b6104f460048036036020811015610bb257600080fd5b50356001600160a01b0316612694565b6104986126a7565b6104bc60048036036040811015610be057600080fd5b506001600160a01b0381351690602001356126b6565b6104bc6126d5565b6104bc60048036036040811015610c1457600080fd5b506001600160a01b0381351690602001356126db565b6104bc60048036036020811015610c4057600080fd5b503561270b565b6104bc60048036036020811015610c5d57600080fd5b50356001600160a01b031661271e565b61049860048036036020811015610c8357600080fd5b5035612739565b61075460048036036020811015610ca057600080fd5b50356001600160a01b0316612763565b6104986127c1565b6104f460048036036020811015610cce57600080fd5b50356001600160a01b03166127d0565b6104bc6128d3565b6104bc60048036036020811015610cfc57600080fd5b50356001600160a01b03166128e0565b61049861290b565b6104bc61291a565b6104f460048036036020811015610d3257600080fd5b50356001600160a01b031661293e565b61049861294f565b609b546001600160a01b031681565b600281565b610d6661295e565b600054600154610d83916001600160a01b039081169116836129a9565b50565b6000610d9061295e565b6001600160a01b038316600090815260a26020526040812054610db39084612abf565b6001600160a01b038516600090815260a2602052604090208190559150505b92915050565b7f000000000000000000000000000000000000000000000000000000000000000081565b6000610e0661295e565b610e0f82612b1c565b6001600160801b031690505b919050565b60a8602052600090815260409020805460019091015482565b6000610e4361295e565b610dd282612bb6565b7f000000000000000000000000000000000000000000000000000000000000000081565b60026066541415610eb6576040805162461bcd60e51b815260206004820152601f6024820152600080516020615c22833981519152604482015290519081900360640190fd5b60026066558051610ef85760405162461bcd60e51b8152600401808060200182810382526036815260200180615e136036913960400191505060405180910390fd5b600054600154609b546001600160a01b03928316929182169116610f1a615ab3565b610f22615ae4565b609d60009054906101000a90046001600160a01b03166001600160a01b0316630fdb11cf6040518163ffffffff1660e01b8152600401602060405180830381600087803b158015610f7257600080fd5b505af1158015610f86573d6000803e3d6000fd5b505050506040513d6020811015610f9c57600080fd5b5051825260408051630d9a6b3560e01b815290516001600160a01b03851691630d9a6b35916004808301926020929190829003018186803b158015610fe057600080fd5b505afa158015610ff4573d6000803e3d6000fd5b505050506040513d602081101561100a57600080fd5b50516020830152815161101c90612c59565b15801560408401526110445761103d8585846000015185602001518a612c76565b905061105c565b6110598585846000015185602001518a612e94565b90505b600081602001511161109f5760405162461bcd60e51b8152600401808060200182810382526022815260200180615f076022913960400191505060405180910390fd5b826001600160a01b031663335525ad82608001518360a001516040518363ffffffff1660e01b81526004018083815260200182815260200192505050600060405180830381600087803b1580156110f557600080fd5b505af1158015611109573d6000803e3d6000fd5b5050505061112185858360c001518460e00151612f56565b6101008101511561119e57609a5461010082015160408051628063a560e01b81526001600160a01b03938416600482015260248101929092525191871691628063a59160448082019260009290919082900301818387803b15801561118557600080fd5b505af1158015611199573d6000803e3d6000fd5b505050505b6111ac8582604001516131a9565b60208101516060830152610100810151604082015182516111d892916111d29190612abf565b90612abf565b608080840182905260608085015160408086015186840151825193845260208401969096528282015291810193909352517f4152c73dd2614c4f9fc35e8c9cf16013cd588c75b49a4c1673ecffdcbcda94039281900390910190a16112478533836060015184604001516132ea565b5050600160665550505050565b60a05481565b6001600160a01b038116600090815260a2602052604081206003015460ff166004811115610dd257fe5b6064670de0b6b3a76400005b0460050281565b60ab5481565b6103e8670de0b6b3a7640000611290565b60006112bb60a0546133e3565b905090565b6112c981613419565b6040805160018082528183019092526000916020808301908036833701905050905081816000815181106112f957fe5b60200260200101906001600160a01b031690816001600160a01b03168152505061132281610e70565b5050565b60a75481565b6001546001600160a01b031681565b6000610dd2611348611911565b83613481565b6001600160a01b0316600090815260a2602052604090206001015490565b60c881565b60a95490565b6000610dd282612c59565b6001600160a01b038116600090815260a8602052604081205460a65482906113aa9083612abf565b90508015806113e3575060016001600160a01b038516600090815260a2602052604090206003015460ff1660048111156113e057fe5b14155b156113f357600092505050610e1b565b6001600160a01b038416600090815260a260205260408120600201549061142c670de0b6b3a764000061142684866134a0565b906134f9565b9695505050505050565b6714d1120d7b16000081565b61144a61295e565b80600481111561145657fe5b6001600160a01b038316600090815260a260205260409020600301805460ff1916600183600481111561148557fe5b02179055505050565b61149661295e565b60006114a0613560565b9050670de0b6b3a76400008111156114b457fe5b60a08190556040805182815290517fc454ee9b76c52f782a256af821b857ca6e125d1e3333bcede402fec2bed9600c9181900360200190a1610d836135a4565b603c81565b6000610dd26113486128d3565b6001600160a01b0316600090815260a2602052604090206002015490565b6002606654141561156a576040805162461bcd60e51b815260206004820152601f6024820152600080516020615c22833981519152604482015290519081900360640190fd5b60026066556040805160e081018252600080546001600160a01b0390811683526001548116602084015292820181905260608201819052609f548316608083015260a0820181905260c0820152609b549091166115c5615ab3565b6115cd615ae4565b609d60009054906101000a90046001600160a01b03166001600160a01b0316630fdb11cf6040518163ffffffff1660e01b8152600401602060405180830381600087803b15801561161d57600080fd5b505af1158015611631573d6000803e3d6000fd5b505050506040513d602081101561164757600080fd5b5051825260408051630d9a6b3560e01b815290516001600160a01b03851691630d9a6b35916004808301926020929190829003018186803b15801561168b57600080fd5b505afa15801561169f573d6000803e3d6000fd5b505050506040513d60208110156116b557600080fd5b5051602083015281516116c790612c59565b15801560408401526116ee576116e7848360000151846020015188613600565b905061170e565b61170b846000015185602001518460000151856020015189613980565b90505b60008160200151116117515760405162461bcd60e51b8152600401808060200182810382526022815260200180615f076022913960400191505060405180910390fd5b826001600160a01b031663335525ad82608001518360a001516040518363ffffffff1660e01b81526004018083815260200182815260200192505050600060405180830381600087803b1580156117a757600080fd5b505af11580156117bb573d6000803e3d6000fd5b505050506117db846000015185602001518360c001518460e00151612f56565b6101008101511561185a578351609a5461010083015160408051628063a560e01b81526001600160a01b0393841660048201526024810192909252519190921691628063a591604480830192600092919082900301818387803b15801561184157600080fd5b505af1158015611855573d6000803e3d6000fd5b505050505b61186c846000015182604001516131a9565b602081015160608301526101008101516040820151825161189292916111d29190612abf565b608080840182905260608085015160408086015186840151825193845260208401969096528282015291810193909352517f4152c73dd2614c4f9fc35e8c9cf16013cd588c75b49a4c1673ecffdcbcda94039281900390910190a1611905846000015133836060015184604001516132ea565b50506001606655505050565b60006112bb61191e613560565b613aac565b60a26020526000908152604090208054600182015460028301546003909301549192909160ff81169061010090046001600160801b031685565b611965613ad3565b6001600160a01b0316611976611c94565b6001600160a01b0316146119d1576040805162461bcd60e51b815260206004820181905260248201527f4f776e61626c653a2063616c6c6572206973206e6f7420746865206f776e6572604482015290519081900360640190fd5b6034546040516000916001600160a01b031690600080516020615d98833981519152908390a3603480546001600160a01b0319169055565b6000611a1361295e565b6001600160a01b038316600090815260a26020526040812060010154611a399084613ad7565b6001600160a01b038516600090815260a26020526040902060010181905591505092915050565b670de0b6b3a764000081565b60a65481565b609d546001600160a01b031681565b60a98181548110611a9157600080fd5b6000918252602090912001546001600160a01b0316905081565b670f43fc2c04ee000081565b60008054604080516314a6bf0f60e01b8152905183926001600160a01b0316916314a6bf0f916004808301926020929190829003018186803b158015611afc57600080fd5b505afa158015611b10573d6000803e3d6000fd5b505050506040513d6020811015611b2657600080fd5b5051600154604080516314a6bf0f60e01b815290519293506000926001600160a01b03909216916314a6bf0f91600480820192602092909190829003018186803b158015611b7357600080fd5b505afa158015611b87573d6000803e3d6000fd5b505050506040513d6020811015611b9d57600080fd5b50519050611bab8282613ad7565b9250505090565b6000546001600160a01b031681565b60a45481565b611bcf61295e565b610d8381613b31565b60008054604080516362e1c9bf60e11b8152905183926001600160a01b03169163c5c3937e916004808301926020929190829003018186803b158015611c1d57600080fd5b505afa158015611c31573d6000803e3d6000fd5b505050506040513d6020811015611c4757600080fd5b5051600154604080516362e1c9bf60e11b815290519293506000926001600160a01b039092169163c5c3937e91600480820192602092909190829003018186803b158015611b7357600080fd5b6034546001600160a01b031690565b60a55481565b6000611cb361295e565b6001600160a01b038316600090815260a26020526040812054610db39084613ad7565b60aa5481565b6040518060400160405280600c81526020016b2a3937bb32a6b0b730b3b2b960a11b81525081565b609f546001600160a01b031681565b6000806000611d2184613b9c565b915091506000611d318383613c16565b95945050505050565b6098546001600160a01b031681565b6000610dd282613c45565b6001600160a01b038116600090815260a2602052604081208054600190910154909180611d80856128e0565b9150611d8b85611382565b9050611d978483613ad7565b9350611da38382613ad7565b92509193509193565b60026066541415611df2576040805162461bcd60e51b815260206004820152601f6024820152600080516020615c22833981519152604482015290519081900360640190fd5b60026066556040805160e0810182526000546001600160a01b03908116825260015481166020830152609c54811692820192909252609e5482166060820152609f5482166080820152609a54821660a082015260995490911660c0820152611e58615b30565b611e6183613c71565b611e69613ccb565b609d60009054906101000a90046001600160a01b03166001600160a01b0316630fdb11cf6040518163ffffffff1660e01b8152600401602060405180830381600087803b158015611eb957600080fd5b505af1158015611ecd573d6000803e3d6000fd5b505050506040513d6020811015611ee357600080fd5b505160c08201819052611ef590613d53565b611efe89613da2565b611f0d8260400151338b613de1565b611f15611ab7565b60e0820181905260408084015181516370a0823160e01b815233600482015291516001600160a01b03909116916370a08231916024808301926020929190829003018186803b158015611f6757600080fd5b505afa158015611f7b573d6000803e3d6000fd5b505050506040513d6020811015611f9157600080fd5b50511115611f9b57fe5b888152608082015160c0820151600091611fb6918b90613e98565b15611fc25750876120e3565b82608001516001600160a01b0316634d6228316040518163ffffffff1660e01b815260040160206040518083038186803b158015611fff57600080fd5b505afa158015612013573d6000803e3d6000fd5b505050506040513d602081101561202957600080fd5b505190505b6001600160a01b0381161580159061205a5750670f43fc2c04ee0000612058828460c001516126b6565b105b156120e35782608001516001600160a01b031663b72703ac826040518263ffffffff1660e01b815260040180826001600160a01b0316815260200191505060206040518083038186803b1580156120b057600080fd5b505afa1580156120c4573d6000803e3d6000fd5b505050506040513d60208110156120da57600080fd5b5051905061202e565b846120ee5760001994505b6001600160a01b038116158015906121065750815115155b80156121125750600085115b1561222557848060019003955050600083608001516001600160a01b031663b72703ac836040518263ffffffff1660e01b815260040180826001600160a01b0316815260200191505060206040518083038186803b15801561217357600080fd5b505afa158015612187573d6000803e3d6000fd5b505050506040513d602081101561219d57600080fd5b5051845160208601519192506121b391846129a9565b60006121cc858486600001518760c001518e8e8e613ff9565b90508060400151156121df575050612225565b805160208501516121ef91613ad7565b602080860191909152810151604085015161220991613ad7565b60408501528051845161221b91612abf565b84525090506120ee565b60008260400151116122685760405162461bcd60e51b8152600401808060200182810382526029815260200180615c686029913960400191505060405180910390fd5b61227f82604001518360c001518460e001516142ed565b5061228d8260400151614383565b6060830181905260408301516122a4919086614390565b82600001516001600160a01b0316628063a5846060015184606001516040518363ffffffff1660e01b815260040180836001600160a01b0316815260200182815260200192505050600060405180830381600087803b15801561230657600080fd5b505af115801561231a573d6000803e3d6000fd5b5050505082606001516001600160a01b031663c91d2d3883606001516040518263ffffffff1660e01b815260040180828152602001915050600060405180830381600087803b15801561236c57600080fd5b505af1158015612380573d6000803e3d6000fd5b505050506060820151604083015161239791612abf565b8260800181815250507f43a3f4082a4dbc33d78e317d2497d3a730bc7fc3574159dcea1056e62e5d9ad88a8360200151846040015185606001516040518085815260200184815260200183815260200182815260200194505050505060405180910390a182604001516001600160a01b0316639dc29fac3384602001516040518363ffffffff1660e01b815260040180836001600160a01b0316815260200182815260200192505050600060405180830381600087803b15801561245a57600080fd5b505af115801561246e573d6000803e3d6000fd5b5050505082600001516001600160a01b0316632a7ba1f783602001516040518263ffffffff1660e01b815260040180828152602001915050600060405180830381600087803b1580156124c057600080fd5b505af11580156124d4573d6000803e3d6000fd5b5050505082600001516001600160a01b0316628063a53384608001516040518363ffffffff1660e01b815260040180836001600160a01b0316815260200182815260200192505050600060405180830381600087803b15801561253657600080fd5b505af115801561254a573d6000803e3d6000fd5b50506001606655505050505050505050505050565b60a35481565b600154600160a81b900460ff168061258057506125806143ff565b806125955750600154600160a01b900460ff16155b6125d05760405162461bcd60e51b815260040180806020018281038252602e815260200180615c91602e913960400191505060405180910390fd5b600154600160a81b900460ff16158015612607576001805460ff60a01b1960ff60a81b19909116600160a81b1716600160a01b1790555b61260f614410565b6126176144d8565b6126218a8a614582565b6126318b89898989898989614634565b8015612645576001805460ff60a81b191690555b5050505050505050505050565b7f000000000000000000000000000000000000000000000000000000000000000081565b60006112bb612683613560565b6133e3565b670ddd4b8c6c7d70d881565b61269c61295e565b610d838160026148d6565b609a546001600160a01b031681565b60008060006126c485613b9c565b91509150600061142c8383876149ef565b60a15481565b60006126e561295e565b6001600160a01b038316600090815260a26020526040812060010154611a399084612abf565b6000610dd2612718612676565b83614a19565b6001600160a01b0316600090815260a2602052604090205490565b600060a9828154811061274857fe5b6000918252602090912001546001600160a01b031692915050565b600060016001600160a01b038316600090815260a2602052604090206003015460ff16600481111561279157fe5b1461279e57506000610e1b565b5060a6546001600160a01b038216600090815260a8602052604090205410919050565b609e546001600160a01b031681565b6127d8613ad3565b6001600160a01b03166127e9611c94565b6001600160a01b031614612844576040805162461bcd60e51b815260206004820181905260248201527f4f776e61626c653a2063616c6c6572206973206e6f7420746865206f776e6572604482015290519081900360640190fd5b6001600160a01b0381166128895760405162461bcd60e51b8152600401808060200182810382526026815260200180615c426026913960400191505060405180910390fd5b6034546040516001600160a01b03808416921690600080516020615d9883398151915290600090a3603480546001600160a01b0319166001600160a01b0392909216919091179055565b60006112bb60a054613aac565b6001600160a01b038116600090815260a8602052604081206001015460a75482906113aa9083612abf565b609c546001600160a01b031681565b7f000000000000000000000000000000000000000000000000000000000000000081565b61294661295e565b610d8381614a72565b6099546001600160a01b031681565b6098546001600160a01b031633146129a75760405162461bcd60e51b815260040180806020018281038252603b815260200180615dd8603b913960400191505060405180910390fd5b565b6129b281612763565b15612aba576129c081613419565b60006129cb82611382565b905060006129d8836128e0565b6001600160a01b038416600090815260a26020526040902060010154909150612a019083613ad7565b6001600160a01b038416600090815260a260205260409020600181019190915554612a2c9082613ad7565b6001600160a01b038416600090815260a26020526040902055612a4e83613b31565b612a5a85858385614abc565b6001600160a01b038316600081815260a260209081526040808320805460018201546002909201548351918252938101919091528082019290925260608201929092529051600080516020615db88339815191529181900360800190a250505b505050565b600082821115612b16576040805162461bcd60e51b815260206004820152601e60248201527f536166654d6174683a207375627472616374696f6e206f766572666c6f770000604482015290519081900360640190fd5b50900390565b60a980546001808201835560008381527fdc471888e6136f84c49e531e9c9240dc4e3fba66da9d3a49e2af6202133683e090920180546001600160a01b0319166001600160a01b03861617905591549091612b779190612abf565b6001600160a01b0392909216600090815260a2602052604090206003018054610100600160881b0319166101006001600160801b038516021790555090565b6001600160a01b038116600090815260a260205260408120600101548190612bdd90614bbe565b6001600160a01b038416600090815260a26020526040902060020180549082905560a35491925090612c1b908390612c159084612abf565b90613ad7565b60a381905560408051918252517f6bac5e0eb3c44eb03a60ab11ec3a2c051771616aecadbcfff2630aabae5203829181900360200190a15092915050565b600080612c6583613c45565b6714d1120d7b160000119392505050565b612c7e615ae4565b612c86615b75565b612c8e615ae4565b84825260006080830152612ca0611ab7565b60a0830152612cad611bd8565b60c0830152600060208301525b835182602001511015612e895783826020015181518110612cd757fe5b6020908102919091018101516001600160a01b031660608401819052600090815260a2909152604090206003015460019060ff166004811115612d1657fe5b14612d2057612e79565b612d2e8260600151876126b6565b60408301526080820151612e2157670f43fc2c04ee0000826040015110158015612d5757508151155b15612d6157612e79565b6000612d768360c001518460a00151896149ef565b9050612d938989856060015186604001518760000151868d614bfa565b60808101518451919350612da79190612abf565b8352608082015160a0840151612dbc91612abf565b8360a0018181525050612df18261010001516111d284604001516111d28660a001518860c00151612abf90919063ffffffff16565b60c0840152612e008483614f38565b9350612e158360c001518460a0015189615019565b15608084015250612e79565b81608001518015612e3d5750670f43fc2c04ee00008260400151105b15612e7957612e5688888460600151856000015161503a565b60808101518351919250612e6a9190612abf565b8252612e768382614f38565b92505b6020820180516001019052612cba565b505095945050505050565b612e9c615ae4565b612ea4615b75565b612eac615ae4565b848252600060208301525b835182602001511015612e895783826020015181518110612ed457fe5b60209081029190910101516001600160a01b031660608301819052612ef990876126b6565b60408301819052670f43fc2c04ee00001115612f4657612f2388888460600151856000015161503a565b60808101518351919250612f379190612abf565b8252612f438382614f38565b92505b6020820180516001019052612eb7565b81612f60576131a3565b60aa54600090612f7c90612c1584670de0b6b3a76400006134a0565b90506000612fa160ab54612c15670de0b6b3a7640000876134a090919063ffffffff16565b90506000612fba60a354846134f990919063ffffffff16565b90506000612fd360a354846134f990919063ffffffff16565b9050612ff4612fed60a354846134a090919063ffffffff16565b8590612abf565b60aa5560a354613010906130099083906134a0565b8490612abf565b60ab5560a6546130209083613ad7565b60a65560a7546130309082613ad7565b60a781905560a65460408051918252602082019290925281517f9f8bc8ab0daf5bceef75ecfd2085d1fcc6548c657ea970d9a23a60610d0737e3929181900390910190a1876001600160a01b0316632a7ba1f7876040518263ffffffff1660e01b815260040180828152602001915050600060405180830381600087803b1580156130ba57600080fd5b505af11580156130ce573d6000803e3d6000fd5b50505050866001600160a01b0316632b7c7b11876040518263ffffffff1660e01b815260040180828152602001915050600060405180830381600087803b15801561311857600080fd5b505af115801561312c573d6000803e3d6000fd5b50505050876001600160a01b0316628063a588876040518363ffffffff1660e01b815260040180836001600160a01b0316815260200182815260200192505050600060405180830381600087803b15801561318657600080fd5b505af115801561319a573d6000803e3d6000fd5b50505050505050505b50505050565b60a35460a4819055506000826001600160a01b031663c5c3937e6040518163ffffffff1660e01b815260040160206040518083038186803b1580156131ed57600080fd5b505afa158015613201573d6000803e3d6000fd5b505050506040513d602081101561321757600080fd5b5051600154604080516362e1c9bf60e11b815290519293506000926001600160a01b039092169163c5c3937e91600480820192602092909190829003018186803b15801561326457600080fd5b505afa158015613278573d6000803e3d6000fd5b505050506040513d602081101561328e57600080fd5b505190506132a081612c158486612abf565b60a581905560a45460408051918252602082019290925281517f51bf4c63ec3cba9d03d43238abbdd979dd91bd16d9895c74ceea9118c7baaf60929181900390910190a150505050565b811561336957609c5460995460408051631062c15f60e11b81526001600160a01b039283166004820152868316602482015260448101869052905191909216916320c582be91606480830192600092919082900301818387803b15801561335057600080fd5b505af1158015613364573d6000803e3d6000fd5b505050505b80156131a357836001600160a01b0316628063a584836040518363ffffffff1660e01b815260040180836001600160a01b0316815260200182815260200192505050600060405180830381600087803b1580156133c557600080fd5b505af11580156133d9573d6000803e3d6000fd5b5050505050505050565b6000610dd261340b836103e8670de0b6b3a76400005b04600502613ad790919063ffffffff16565b670de0b6b3a76400006151b4565b60016001600160a01b038216600090815260a2602052604090206003015460ff16600481111561344557fe5b14610d835760405162461bcd60e51b815260040180806020018281038252602f815260200180615f29602f913960400191505060405180910390fd5b6000613499670de0b6b3a764000061142685856134a0565b9392505050565b6000826134af57506000610dd2565b828202828482816134bc57fe5b04146134995760405162461bcd60e51b8152600401808060200182810382526021815260200180615d776021913960400191505060405180910390fd5b600080821161354f576040805162461bcd60e51b815260206004820152601a60248201527f536166654d6174683a206469766973696f6e206279207a65726f000000000000604482015290519081900360640190fd5b81838161355857fe5b049392505050565b60008061356b6151ca565b90506000613581670ddd4b8c6c7d70d8836151e6565b9050611bab670de0b6b3a76400006114268360a0546134a090919063ffffffff16565b60006135bb60a15442612abf90919063ffffffff16565b9050603c8110610d83574260a181905560408051918252517f860f8d2f0c74dd487e89e2883e3b25b8159ce1e1b3433a291cba7b82c508f3bc9181900360200190a150565b613608615ae4565b613610615b75565b613618615ae4565b8482526000608083015261362a611ab7565b60a0830152613637611bd8565b8260c001818152505086608001516001600160a01b0316634d6228316040518163ffffffff1660e01b815260040160206040518083038186803b15801561367d57600080fd5b505afa158015613691573d6000803e3d6000fd5b505050506040513d60208110156136a757600080fd5b50516001600160a01b039081166060840152608088015160408051631e22314360e01b815290516000939290921691631e22314391600480820192602092909190829003018186803b1580156136fc57600080fd5b505afa158015613710573d6000803e3d6000fd5b505050506040513d602081101561372657600080fd5b50516000602085015290505b84836020015110801561375b5750806001600160a01b031683606001516001600160a01b031614155b1561397557600088608001516001600160a01b031663b72703ac85606001516040518263ffffffff1660e01b815260040180826001600160a01b0316815260200191505060206040518083038186803b1580156137b757600080fd5b505afa1580156137cb573d6000803e3d6000fd5b505050506040513d60208110156137e157600080fd5b505160608501519091506137f590896126b6565b604085015260808401516138ed57670f43fc2c04ee000084604001511015801561381e57508351155b156138295750613975565b600061383e8560c001518660a001518b6149ef565b8a5160208c015160608801516040890151895194955061385f94868f614bfa565b608081015186519195506138739190612abf565b8552608084015160a086015161388891612abf565b8560a00181815250506138bd8461010001516111d286604001516111d28860a001518a60c00151612abf90919063ffffffff16565b60c08601526138cc8685614f38565b95506138e18560c001518660a001518b615019565b15608086015250613957565b836080015180156139095750670f43fc2c04ee00008460400151105b156139515761392a89600001518a602001518660600151876000015161503a565b6080810151855191945061393e9190612abf565b845261394a8584614f38565b9450613957565b50613975565b6001600160a01b031660608401526020830180516001019052613732565b505050949350505050565b613988615ae4565b613990615b75565b613998615ae4565b609f54858352600060208401526001600160a01b03165b8483602001511015613aa057806001600160a01b0316634d6228316040518163ffffffff1660e01b815260040160206040518083038186803b1580156139f457600080fd5b505afa158015613a08573d6000803e3d6000fd5b505050506040513d6020811015613a1e57600080fd5b50516001600160a01b031660608401819052613a3a90886126b6565b60408401819052670f43fc2c04ee00001115613a8b57613a6489898560600151866000015161503a565b60808101518451919350613a789190612abf565b8352613a848483614f38565b9350613a90565b613aa0565b60208301805160010190526139af565b50505095945050505050565b6000610dd2613ac6836103e8670de0b6b3a76400006133f9565b66b1a2bc2ec500006151b4565b3390565b600082820183811015613499576040805162461bcd60e51b815260206004820152601b60248201527f536166654d6174683a206164646974696f6e206f766572666c6f770000000000604482015290519081900360640190fd5b60a680546001600160a01b038316600090815260a8602090815260409182902092835560a7546001909301839055925481519081529283019190915280517fc437f324d85e369394148dd9d62f98f534b382e01ed3dd2eb98138fb6d3ab49a9281900390910190a150565b6000806000613baa84611382565b90506000613bb7856128e0565b6001600160a01b038616600090815260a2602052604081206001015491925090613be19084613ad7565b6001600160a01b038716600090815260a2602052604081205491925090613c089084613ad7565b919550909350505050915091565b60008115613c3c57613c35826114268568056bc75e2d631000006134a0565b9050610dd2565b50600019610dd2565b600080613c50611bd8565b90506000613c5c611ab7565b9050613c698282866149ef565b949350505050565b6611c37937e080008110801590613c905750670de0b6b3a76400008111155b610d835760405162461bcd60e51b8152600401808060200182810382526030815260200180615ead6030913960400191505060405180910390fd5b613d157f00000000000000000000000000000000000000000000000000000000000000007f0000000000000000000000000000000000000000000000000000000000000000613ad7565b4210156129a75760405162461bcd60e51b8152600401808060200182810382526040815260200180615d376040913960400191505060405180910390fd5b670f43fc2c04ee0000613d6582613c45565b1015610d835760405162461bcd60e51b815260040180806020018281038252602a815260200180615edd602a913960400191505060405180910390fd5b60008111610d835760405162461bcd60e51b815260040180806020018281038252602e815260200180615e49602e913960400191505060405180910390fd5b80836001600160a01b03166370a08231846040518263ffffffff1660e01b815260040180826001600160a01b0316815260200191505060206040518083038186803b158015613e2f57600080fd5b505afa158015613e43573d6000803e3d6000fd5b505050506040513d6020811015613e5957600080fd5b50511015612aba5760405162461bcd60e51b815260040180806020018281038252604e815260200180615cbf604e913960600191505060405180910390fd5b60006001600160a01b0383161580613f265750836001600160a01b0316635dbe47e8846040518263ffffffff1660e01b815260040180826001600160a01b0316815260200191505060206040518083038186803b158015613ef857600080fd5b505afa158015613f0c573d6000803e3d6000fd5b505050506040513d6020811015613f2257600080fd5b5051155b80613f415750670f43fc2c04ee0000613f3f84846126b6565b105b15613f4e57506000613499565b6000846001600160a01b031663765e0159856040518263ffffffff1660e01b815260040180826001600160a01b0316815260200191505060206040518083038186803b158015613f9d57600080fd5b505afa158015613fb1573d6000803e3d6000fd5b505050506040513d6020811015613fc757600080fd5b505190506001600160a01b0381161580611d315750670f43fc2c04ee0000613fef82856126b6565b1095945050505050565b614001615bbd565b6001600160a01b038716600090815260a2602052604090205461404f90879061404a907f0000000000000000000000000000000000000000000000000000000000000000612abf565b6151b4565b80825261406a90869061142690670de0b6b3a76400006134a0565b60208083019190915281516001600160a01b038916600090815260a2909252604082205461409791612abf565b6020808401516001600160a01b038b16600090815260a2909252604082206001015492935090916140c791612abf565b90507f000000000000000000000000000000000000000000000000000000000000000082141561418b576140fa89614a72565b6141058960046148d6565b6141318a8a7f000000000000000000000000000000000000000000000000000000000000000084615285565b886001600160a01b0316600080516020615db8833981519152600080600060036040518085815260200184815260200183815260200182600381111561417357fe5b815260200194505050505060405180910390a26142df565b60006141978284613c16565b905084811415806141cf57507f00000000000000000000000000000000000000000000000000000000000000006141cd84615427565b105b156141e357505060016040830152506142e2565b60808b01516040805163015f109360e51b81526001600160a01b038d81166004830152602482018590528a81166044830152898116606483015291519190921691632be2126091608480830192600092919082900301818387803b15801561424a57600080fd5b505af115801561425e573d6000803e3d6000fd5b5050506001600160a01b038b16600090815260a2602052604090208481556001018390555061428c8a612bb6565b506001600160a01b038a16600081815260a2602090815260409182902060020154825187815291820186905281830152600360608201529051600080516020615db88339815191529181900360800190a2505b50505b979650505050505050565b6000806142f8613560565b9050600061430a8461142688886134a0565b9050600061432361431c8360026134f9565b8490613ad7565b905061433781670de0b6b3a76400006151b4565b90506000811161434357fe5b60a08190556040805182815290517fc454ee9b76c52f782a256af821b857ca6e125d1e3333bcede402fec2bed9600c9181900360200190a161142c6135a4565b6000610dd26127186112ae565b60006143a88361142686670de0b6b3a76400006134a0565b9050818111156131a3576040805162461bcd60e51b815260206004820152601d60248201527f4665652065786365656465642070726f7669646564206d6178696d756d000000604482015290519081900360640190fd5b600061440a30615453565b15905090565b600154600160a81b900460ff168061442b575061442b6143ff565b806144405750600154600160a01b900460ff16155b61447b5760405162461bcd60e51b815260040180806020018281038252602e815260200180615c91602e913960400191505060405180910390fd5b600154600160a81b900460ff161580156144b2576001805460ff60a01b1960ff60a81b19909116600160a81b1716600160a01b1790555b6144ba615459565b6144c2615510565b8015610d83576001805460ff60a81b1916905550565b600154600160a81b900460ff16806144f357506144f36143ff565b806145085750600154600160a01b900460ff16155b6145435760405162461bcd60e51b815260040180806020018281038252602e815260200180615c91602e913960400191505060405180910390fd5b600154600160a81b900460ff1615801561457a576001805460ff60a01b1960ff60a81b19909116600160a81b1716600160a01b1790555b6144c261560e565b61458b826156cb565b614594816156cb565b600080546001600160a01b038085166001600160a01b03199283168117909355600180549185169190921617905560408051918252517f78f058b189175430c48dc02699e3a0031ea4ff781536dc2fab847de4babdd8829181900360200190a1604080516001600160a01b038316815290517f5ee0cae2f063ed938bb55046f6a932fb6ae792bf43624806bb90abe68a50be9b9181900360200190a15050565b61463d886156cb565b614646876156cb565b61464f866156cb565b614658856156cb565b614661846156cb565b61466a836156cb565b614673826156cb565b61467c816156cb565b609880546001600160a01b03199081166001600160a01b038b8116918217909355609b805483168b85161790556099805483168a8516179055609a80548316898516179055609d80548316888516179055609c80548316878516179055609f80548316868516179055609e805490921692841692909217905560408051918252517f3ca631ffcd2a9b5d9ae18543fc82f58eb4ca33af9e6ab01b7a8e95331e6ed985916020908290030190a1604080516001600160a01b038916815290517f82966d27eea39b038ee0fa30cd16532bb24f6e65d31cb58fb227aa5766cdcc7f9181900360200190a1604080516001600160a01b038816815290517fcfb07d791fcafc032b35837b50eb84b74df518cf4cc287e8084f47630fa70fa09181900360200190a1604080516001600160a01b038716815290517fe67f36a6e961157d6eff83b91f3af5a62131ceb6f04954ef74f51c1c05e7f88d9181900360200190a1604080516001600160a01b038616815290517f8c537274438aa850a330284665d81a85dd38267d09e4050d416bfc94142db2649181900360200190a1604080516001600160a01b038516815290517f112220fa8dbe96141556e0dc3d74dd95075b323f4f297616048e02d82d7017159181900360200190a1604080516001600160a01b038416815290517f65f4cf077bc01e4742eb5ad98326f6e95b63548ea24b17f8d5e823111fe788009181900360200190a1604080516001600160a01b038316815290517ff81a824d1d9030c0365252fb96daf0565f9c2007c88e13001379dda7f06d5d5c9181900360200190a15050505050505050565b60008160048111156148e457fe5b141580156148fe575060018160048111156148fb57fe5b14155b61490457fe5b60a95461491081615726565b6001600160a01b038316600090815260a260205260409020600301805483919060ff1916600183600481111561494257fe5b02179055506001600160a01b038316600090815260a26020908152604080832060018082018590559084905560a89092528220828155015561498483826157df565b609f5460408051631484968760e11b81526001600160a01b038681166004830152915191909216916329092d0e91602480830192600092919082900301818387803b1580156149d257600080fd5b505af11580156149e6573d6000803e3d6000fd5b50505050505050565b60008215614a10576000614a078461142687866134a0565b91506134999050565b50600019613499565b600080614a32670de0b6b3a764000061142686866134a0565b90508281106134995760405162461bcd60e51b8152600401808060200182810382526036815260200180615e776036913960400191505060405180910390fd5b6001600160a01b038116600090815260a2602052604090206002015460a354614a9b9082612abf565b60a355506001600160a01b0316600090815260a26020526040812060020155565b826001600160a01b0316632a7ba1f7836040518263ffffffff1660e01b815260040180828152602001915050600060405180830381600087803b158015614b0257600080fd5b505af1158015614b16573d6000803e3d6000fd5b50505050836001600160a01b0316632b7c7b11836040518263ffffffff1660e01b815260040180828152602001915050600060405180830381600087803b158015614b6057600080fd5b505af1158015614b74573d6000803e3d6000fd5b50505050826001600160a01b0316638f7be730826040518263ffffffff1660e01b815260040180828152602001915050600060405180830381600087803b1580156133c557600080fd5b60008060a55460001415614bd3575081610dd2565b600060a45411614bdf57fe5b61349960a55461142660a454866134a090919063ffffffff16565b614c02615ae4565b614c0a615be0565b60a954600110614c1a57506142e2565b614c2387611d54565b60408501526020848101919091528401819052908352614c4290615986565b604083018190527f000000000000000000000000000000000000000000000000000000000000000060608401526020830151614c7d91612abf565b8152670de0b6b3a76400008611614d7f57614ca2898983602001518460400151614abc565b614cab87614a72565b60006080830181905260a0830152815160c0830152805160e0830152614cd28760036148d6565b866001600160a01b0316600080516020615c0283398151915283600001518460200151600260405180848152602001838152602001826003811115614d1357fe5b8152602001935050505060405180910390a2866001600160a01b0316600080516020615db88339815191526000806000600260405180858152602001848152602001838152602001826003811115614d6757fe5b815260200194505050505060405180910390a2614f2c565b670de0b6b3a764000086118015614d9d5750670f43fc2c04ee000086105b15614ded57614db6898983602001518460400151614abc565b614dbf87614a72565b81518151614dce91908761598d565b60e086015260c085015260a08401526080830152614cd28760036148d6565b670f43fc2c04ee00008610158015614e0457508386105b8015614e11575081518510155b15614f1b57614e2a898983602001518460400151614abc565b84614e3157fe5b614e3a87614a72565b614e4d82600001518360200151856159e7565b9150614e5a8760036148d6565b61010082015115614eda57609a5461010083015160408051633f10abab60e01b81526001600160a01b038b81166004830152602482019390935290519190921691633f10abab91604480830192600092919082900301818387803b158015614ec157600080fd5b505af1158015614ed5573d6000803e3d6000fd5b505050505b866001600160a01b0316600080516020615c0283398151915283600001518460a00151600260405180848152602001838152602001826003811115614d1357fe5b614f23615ae4565b91506142e29050565b50979650505050505050565b614f40615ae4565b60408083015190840151614f5391613ad7565b604082015260608083015190840151614f6b91613ad7565b606082015281516020840151614f8091613ad7565b6020808301919091528201518351614f9791613ad7565b815260808083015190840151614fac91613ad7565b608082015260a08083015190840151614fc491613ad7565b60a082015260c08083015190840151614fdc91613ad7565b60c082015260e08083015190840151614ff491613ad7565b60e0820152610100808301519084015161500d91613ad7565b61010082015292915050565b6000806150278585856149ef565b6714d1120d7b1600001195945050505050565b615042615ae4565b61504a615be0565b61505384611d54565b6040850190815260208581019283528601929092529184529051905161507d918891889190614abc565b61508684614a72565b6150938260200151615986565b604083018190527f0000000000000000000000000000000000000000000000000000000000000000606084015260208301516000916150d29190612abf565b90506150e38360000151828661598d565b60e087015260c086015260a085015260808401526151028560036148d6565b846001600160a01b0316600080516020615c028339815191528460000151856020015160016040518084815260200183815260200182600381111561514357fe5b8152602001935050505060405180910390a2846001600160a01b0316600080516020615db8833981519152600080600060016040518085815260200184815260200183815260200182600381111561519757fe5b815260200194505050505060405180910390a25050949350505050565b60008183106151c35781613499565b5090919050565b60006112bb603c61142660a15442612abf90919063ffffffff16565b6000631f5405008211156151fc57631f54050091505b816152105750670de0b6b3a7640000610dd2565b670de0b6b3a764000083835b600181111561527b576002810661524b576152378283615a86565b91506152448160026134f9565b9050615276565b6152558284615a86565b92506152618283615a86565b91506152736002611426836001612abf565b90505b61521c565b61142c8284615a86565b6040808501516099548251632770a7eb60e21b81526001600160a01b039182166004820152602481018690529251911691639dc29fac91604480830192600092919082900301818387803b1580156152dc57600080fd5b505af11580156152f0573d6000803e3d6000fd5b5050505083600001516001600160a01b0316632a7ba1f7836040518263ffffffff1660e01b815260040180828152602001915050600060405180830381600087803b15801561533e57600080fd5b505af1158015615352573d6000803e3d6000fd5b505050508360a001516001600160a01b0316633f10abab84836040518363ffffffff1660e01b815260040180836001600160a01b0316815260200182815260200192505050600060405180830381600087803b1580156153b157600080fd5b505af11580156153c5573d6000803e3d6000fd5b5050505083600001516001600160a01b0316628063a58560a00151836040518363ffffffff1660e01b815260040180836001600160a01b0316815260200182815260200192505050600060405180830381600087803b1580156133c557600080fd5b6000610dd2827f0000000000000000000000000000000000000000000000000000000000000000612abf565b3b151590565b600154600160a81b900460ff168061547457506154746143ff565b806154895750600154600160a01b900460ff16155b6154c45760405162461bcd60e51b815260040180806020018281038252602e815260200180615c91602e913960400191505060405180910390fd5b600154600160a81b900460ff161580156144c2576001805460ff60a01b1960ff60a81b19909116600160a81b1716600160a01b1790558015610d83576001805460ff60a81b1916905550565b600154600160a81b900460ff168061552b575061552b6143ff565b806155405750600154600160a01b900460ff16155b61557b5760405162461bcd60e51b815260040180806020018281038252602e815260200180615c91602e913960400191505060405180910390fd5b600154600160a81b900460ff161580156155b2576001805460ff60a01b1960ff60a81b19909116600160a81b1716600160a01b1790555b60006155bc613ad3565b603480546001600160a01b0319166001600160a01b03831690811790915560405191925090600090600080516020615d98833981519152908290a3508015610d83576001805460ff60a81b1916905550565b600154600160a81b900460ff168061562957506156296143ff565b8061563e5750600154600160a01b900460ff16155b6156795760405162461bcd60e51b815260040180806020018281038252602e815260200180615c91602e913960400191505060405180910390fd5b600154600160a81b900460ff161580156156b0576001805460ff60a01b1960ff60a81b19909116600160a81b1716600160a01b1790555b60016066558015610d83576001805460ff60a81b1916905550565b6001600160a01b038116610d83576040805162461bcd60e51b815260206004820152601e60248201527f4163636f756e742063616e6e6f74206265207a65726f20616464726573730000604482015290519081900360640190fd5b6001811180156157a45750609f546040805163de8fa43160e01b815290516001926001600160a01b03169163de8fa431916004808301926020929190829003018186803b15801561577657600080fd5b505afa15801561578a573d6000803e3d6000fd5b505050506040513d60208110156157a057600080fd5b5051115b610d835760405162461bcd60e51b815260040180806020018281038252602a815260200180615d0d602a913960400191505060405180910390fd5b6001600160a01b038216600090815260a2602052604081206003015460ff169081600481111561580b57fe5b141580156158255750600181600481111561582257fe5b14155b61582b57fe5b6001600160a01b038316600090815260a2602052604081206003015461010090046001600160801b0316908390615863826001612abf565b905080836001600160801b0316111561587857fe5b600060a9828154811061588757fe5b60009182526020909120015460a980546001600160a01b03909216925082916001600160801b0387169081106158b957fe5b600091825260208083209190910180546001600160a01b0319166001600160a01b0394851617905591831680825260a283526040918290206003018054610100600160881b0319166101006001600160801b038a169081029190911790915582519182529281019290925280517f02b04ae5f7be9ca7c103293a2aa15f3c339d15d6eda53b721fef7b0e609c831a9281900390910190a160a980548061595b57fe5b600082815260209020810160001990810180546001600160a01b031916905501905550505050505050565b60c8900490565b600080808084156159d1576159a287866151b4565b93506159b28761142688876134a0565b92506159be8785612abf565b91506159ca8684612abf565b90506159de565b5060009250829150859050845b93509350935093565b6159ef615ae4565b838152602081018390526000615a118361142687670f43fc2c04ee00006134a0565b9050615a1c81615986565b604083018190527f0000000000000000000000000000000000000000000000000000000000000000606084015260808301869052615a5b908290612abf565b60a0830152615a6a8482612abf565b61010083015250600060c0820181905260e08201529392505050565b600080615a9384846134a0565b9050613c69670de0b6b3a7640000611426836706f05b59d3b20000613ad7565b6040518060a00160405280600081526020016000815260200160001515815260200160008152602001600081525090565b6040518061012001604052806000815260200160008152602001600081526020016000815260200160008152602001600081526020016000815260200160008152602001600081525090565b60405180610100016040528060008152602001600081526020016000815260200160008152602001600081526020016000815260200160008152602001600081525090565b6040518060e0016040528060008152602001600081526020016000815260200160006001600160a01b0316815260200160001515815260200160008152602001600081525090565b604051806060016040528060008152602001600081526020016000151581525090565b6040518060600160405280600081526020016000815260200160008152509056feea67486ed7ebe3eea8ab3390efd4a3c8aae48be5bea27df104a8af786c4084345265656e7472616e637947756172643a207265656e7472616e742063616c6c004f776e61626c653a206e6577206f776e657220697320746865207a65726f206164647265737354726f76654d616e616765723a20556e61626c6520746f2072656465656d20616e7920616d6f756e74496e697469616c697a61626c653a20636f6e747261637420697320616c726561647920696e697469616c697a656454726f76654d616e616765723a2052657175657374656420726564656d7074696f6e20616d6f756e74206d757374206265203c3d20757365722773206465627420746f6b656e2062616c616e636554726f76654d616e616765723a204f6e6c79206f6e652074726f766520696e207468652073797374656d54726f76654d616e616765723a20526564656d7074696f6e7320617265206e6f7420616c6c6f77656420647572696e6720626f6f747374726170207068617365536166654d6174683a206d756c7469706c69636174696f6e206f766572666c6f778be0079c531659141344cd1fd0a4f28419497f9722a3daafe3b4186f6b6457e0c3770d654ed33aeea6bf11ac8ef05d02a6a04ed4686dd2f624d853bbec43cc8b54726f76654d616e616765723a2043616c6c6572206973206e6f742074686520426f72726f7765724f7065726174696f6e7320636f6e747261637454726f76654d616e616765723a2043616c6c646174612061646472657373206172726179206d757374206e6f7420626520656d70747954726f76654d616e616765723a20416d6f756e74206d7573742062652067726561746572207468616e207a65726f54726f76654d616e616765723a2046656520776f756c642065617420757020616c6c2072657475726e656420636f6c6c61746572616c4d6178206665652070657263656e74616765206d757374206265206265747765656e20302e352520616e64203130302554726f76654d616e616765723a2043616e6e6f742072656465656d207768656e20544352203c204d435254726f76654d616e616765723a206e6f7468696e6720746f206c697175696461746554726f76654d616e616765723a2054726f766520646f6573206e6f74206578697374206f7220697320636c6f736564a2646970667358221220389f68c53361c45569b8b73ecc75526d07370e8bdfd90c403489e395b8c975ef64736f6c63430007060033",
  "linkReferences": {},
  "deployedLinkReferences": {}
}