{
  "_format": "hh-sol-artifact-1",
  "contractName": "TroveManager",
  "sourceName": "contracts/TroveManager.sol",
  "abi": [
    {
      "inputs": [
        {
          "internalType": "uint256",
          "name": "_gasCompensation",
          "type": "uint256"
        },
        {
          "internalType": "uint256",
          "name": "_minNetDebt",
          "type": "uint256"
        }
      ],
      "stateMutability": "nonpayable",
      "type": "constructor"
    },
    {
      "anonymous": false,
      "inputs": [
        {
          "indexed": false,
          "internalType": "address",
          "name": "_activePoolAddress",
          "type": "address"
        }
      ],
      "name": "ActivePoolAddressChanged",
      "type": "event"
    },
    {
      "anonymous": false,
      "inputs": [
        {
          "indexed": false,
          "internalType": "uint256",
          "name": "_baseRate",
          "type": "uint256"
        }
      ],
      "name": "BaseRateUpdated",
      "type": "event"
    },
    {
      "anonymous": false,
      "inputs": [
        {
          "indexed": false,
          "internalType": "address",
          "name": "_newBorrowerOperationsAddress",
          "type": "address"
        }
      ],
      "name": "BorrowerOperationsAddressChanged",
      "type": "event"
    },
    {
      "anonymous": false,
      "inputs": [
        {
          "indexed": false,
          "internalType": "address",
          "name": "_collSurplusPoolAddress",
          "type": "address"
        }
      ],
      "name": "CollSurplusPoolAddressChanged",
      "type": "event"
    },
    {
      "anonymous": false,
      "inputs": [
        {
          "indexed": false,
          "internalType": "address",
          "name": "_newDebtTokenAddress",
          "type": "address"
        }
      ],
      "name": "DebtTokenAddressChanged",
      "type": "event"
    },
    {
      "anonymous": false,
      "inputs": [
        {
          "indexed": false,
          "internalType": "address",
          "name": "_defaultPoolAddress",
          "type": "address"
        }
      ],
      "name": "DefaultPoolAddressChanged",
      "type": "event"
    },
    {
      "anonymous": false,
      "inputs": [
        {
          "indexed": false,
          "internalType": "address",
          "name": "_gasPoolAddress",
          "type": "address"
        }
      ],
      "name": "GasPoolAddressChanged",
      "type": "event"
    },
    {
      "anonymous": false,
      "inputs": [
        {
          "indexed": false,
          "internalType": "uint256",
          "name": "_L_FIL",
          "type": "uint256"
        },
        {
          "indexed": false,
          "internalType": "uint256",
          "name": "_L_Debt",
          "type": "uint256"
        }
      ],
      "name": "LTermsUpdated",
      "type": "event"
    },
    {
      "anonymous": false,
      "inputs": [
        {
          "indexed": false,
          "internalType": "uint256",
          "name": "_lastFeeOpTime",
          "type": "uint256"
        }
      ],
      "name": "LastFeeOpTimeUpdated",
      "type": "event"
    },
    {
      "anonymous": false,
      "inputs": [
        {
          "indexed": false,
          "internalType": "uint256",
          "name": "_liquidatedDebt",
          "type": "uint256"
        },
        {
          "indexed": false,
          "internalType": "uint256",
          "name": "_liquidatedColl",
          "type": "uint256"
        },
        {
          "indexed": false,
          "internalType": "uint256",
          "name": "_collGasCompensation",
          "type": "uint256"
        },
        {
          "indexed": false,
          "internalType": "uint256",
          "name": "_debtGasCompensation",
          "type": "uint256"
        }
      ],
      "name": "Liquidation",
      "type": "event"
    },
    {
      "anonymous": false,
      "inputs": [
        {
          "indexed": true,
          "internalType": "address",
          "name": "previousOwner",
          "type": "address"
        },
        {
          "indexed": true,
          "internalType": "address",
          "name": "newOwner",
          "type": "address"
        }
      ],
      "name": "OwnershipTransferred",
      "type": "event"
    },
    {
      "anonymous": false,
      "inputs": [
        {
          "indexed": false,
          "internalType": "address",
          "name": "_newPriceFeedAddress",
          "type": "address"
        }
      ],
      "name": "PriceFeedAddressChanged",
      "type": "event"
    },
    {
      "anonymous": false,
      "inputs": [
        {
          "indexed": false,
          "internalType": "address",
          "name": "_protocolTokenAddress",
          "type": "address"
        }
      ],
      "name": "ProtocolTokenAddressChanged",
      "type": "event"
    },
    {
      "anonymous": false,
      "inputs": [
        {
          "indexed": false,
          "internalType": "address",
          "name": "_protocolTokenStakingAddress",
          "type": "address"
        }
      ],
      "name": "ProtocolTokenStakingAddressChanged",
      "type": "event"
    },
    {
      "anonymous": false,
      "inputs": [
        {
          "indexed": false,
          "internalType": "uint256",
          "name": "_attemptedDebtTokenAmount",
          "type": "uint256"
        },
        {
          "indexed": false,
          "internalType": "uint256",
          "name": "_actualDebtTokenAmount",
          "type": "uint256"
        },
        {
          "indexed": false,
          "internalType": "uint256",
          "name": "_FILSent",
          "type": "uint256"
        },
        {
          "indexed": false,
          "internalType": "uint256",
          "name": "_FILFee",
          "type": "uint256"
        }
      ],
      "name": "Redemption",
      "type": "event"
    },
    {
      "anonymous": false,
      "inputs": [
        {
          "indexed": false,
          "internalType": "address",
          "name": "_sortedTrovesAddress",
          "type": "address"
        }
      ],
      "name": "SortedTrovesAddressChanged",
      "type": "event"
    },
    {
      "anonymous": false,
      "inputs": [
        {
          "indexed": false,
          "internalType": "address",
          "name": "_stabilityPoolAddress",
          "type": "address"
        }
      ],
      "name": "StabilityPoolAddressChanged",
      "type": "event"
    },
    {
      "anonymous": false,
      "inputs": [
        {
          "indexed": false,
          "internalType": "uint256",
          "name": "_totalStakesSnapshot",
          "type": "uint256"
        },
        {
          "indexed": false,
          "internalType": "uint256",
          "name": "_totalCollateralSnapshot",
          "type": "uint256"
        }
      ],
      "name": "SystemSnapshotsUpdated",
      "type": "event"
    },
    {
      "anonymous": false,
      "inputs": [
        {
          "indexed": false,
          "internalType": "uint256",
          "name": "_newTotalStakes",
          "type": "uint256"
        }
      ],
      "name": "TotalStakesUpdated",
      "type": "event"
    },
    {
      "anonymous": false,
      "inputs": [
        {
          "indexed": false,
          "internalType": "address",
          "name": "_borrower",
          "type": "address"
        },
        {
          "indexed": false,
          "internalType": "uint256",
          "name": "_newIndex",
          "type": "uint256"
        }
      ],
      "name": "TroveIndexUpdated",
      "type": "event"
    },
    {
      "anonymous": false,
      "inputs": [
        {
          "indexed": true,
          "internalType": "address",
          "name": "_borrower",
          "type": "address"
        },
        {
          "indexed": false,
          "internalType": "uint256",
          "name": "_debt",
          "type": "uint256"
        },
        {
          "indexed": false,
          "internalType": "uint256",
          "name": "_coll",
          "type": "uint256"
        },
        {
          "indexed": false,
          "internalType": "enum ITroveManager.TroveManagerOperation",
          "name": "_operation",
          "type": "uint8"
        }
      ],
      "name": "TroveLiquidated",
      "type": "event"
    },
    {
      "anonymous": false,
      "inputs": [
        {
          "indexed": false,
          "internalType": "uint256",
          "name": "_L_FIL",
          "type": "uint256"
        },
        {
          "indexed": false,
          "internalType": "uint256",
          "name": "_L_Debt",
          "type": "uint256"
        }
      ],
      "name": "TroveSnapshotsUpdated",
      "type": "event"
    },
    {
      "anonymous": false,
      "inputs": [
        {
          "indexed": true,
          "internalType": "address",
          "name": "_borrower",
          "type": "address"
        },
        {
          "indexed": false,
          "internalType": "uint256",
          "name": "_debt",
          "type": "uint256"
        },
        {
          "indexed": false,
          "internalType": "uint256",
          "name": "_coll",
          "type": "uint256"
        },
        {
          "indexed": false,
          "internalType": "uint256",
          "name": "stake",
          "type": "uint256"
        },
        {
          "indexed": false,
          "internalType": "enum ITroveManager.TroveManagerOperation",
          "name": "_operation",
          "type": "uint8"
        }
      ],
      "name": "TroveUpdated",
      "type": "event"
    },
    {
      "inputs": [],
      "name": "BETA",
      "outputs": [
        {
          "internalType": "uint256",
          "name": "",
          "type": "uint256"
        }
      ],
      "stateMutability": "view",
      "type": "function"
    },
    {
      "inputs": [],
      "name": "BOOTSTRAP_PERIOD",
      "outputs": [
        {
          "internalType": "uint256",
          "name": "",
          "type": "uint256"
        }
      ],
      "stateMutability": "view",
      "type": "function"
    },
    {
      "inputs": [],
      "name": "BORROWING_FEE_FLOOR",
      "outputs": [
        {
          "internalType": "uint256",
          "name": "",
          "type": "uint256"
        }
      ],
      "stateMutability": "view",
      "type": "function"
    },
    {
      "inputs": [],
      "name": "CCR",
      "outputs": [
        {
          "internalType": "uint256",
          "name": "",
          "type": "uint256"
        }
      ],
      "stateMutability": "view",
      "type": "function"
    },
    {
      "inputs": [],
      "name": "DECIMAL_PRECISION",
      "outputs": [
        {
          "internalType": "uint256",
          "name": "",
          "type": "uint256"
        }
      ],
      "stateMutability": "view",
      "type": "function"
    },
    {
      "inputs": [],
      "name": "GAS_COMPENSATION",
      "outputs": [
        {
          "internalType": "uint256",
          "name": "",
          "type": "uint256"
        }
      ],
      "stateMutability": "view",
      "type": "function"
    },
    {
      "inputs": [],
      "name": "L_Debt",
      "outputs": [
        {
          "internalType": "uint256",
          "name": "",
          "type": "uint256"
        }
      ],
      "stateMutability": "view",
      "type": "function"
    },
    {
      "inputs": [],
      "name": "L_FIL",
      "outputs": [
        {
          "internalType": "uint256",
          "name": "",
          "type": "uint256"
        }
      ],
      "stateMutability": "view",
      "type": "function"
    },
    {
      "inputs": [],
      "name": "MAX_BORROWING_FEE",
      "outputs": [
        {
          "internalType": "uint256",
          "name": "",
          "type": "uint256"
        }
      ],
      "stateMutability": "view",
      "type": "function"
    },
    {
      "inputs": [],
      "name": "MCR",
      "outputs": [
        {
          "internalType": "uint256",
          "name": "",
          "type": "uint256"
        }
      ],
      "stateMutability": "view",
      "type": "function"
    },
    {
      "inputs": [],
      "name": "MINUTE_DECAY_FACTOR",
      "outputs": [
        {
          "internalType": "uint256",
          "name": "",
          "type": "uint256"
        }
      ],
      "stateMutability": "view",
      "type": "function"
    },
    {
      "inputs": [],
      "name": "MIN_NET_DEBT",
      "outputs": [
        {
          "internalType": "uint256",
          "name": "",
          "type": "uint256"
        }
      ],
      "stateMutability": "view",
      "type": "function"
    },
    {
      "inputs": [],
      "name": "NAME",
      "outputs": [
        {
          "internalType": "string",
          "name": "",
          "type": "string"
        }
      ],
      "stateMutability": "view",
      "type": "function"
    },
    {
      "inputs": [],
      "name": "PERCENT_DIVISOR",
      "outputs": [
        {
          "internalType": "uint256",
          "name": "",
          "type": "uint256"
        }
      ],
      "stateMutability": "view",
      "type": "function"
    },
    {
      "inputs": [],
      "name": "REDEMPTION_FEE_FLOOR",
      "outputs": [
        {
          "internalType": "uint256",
          "name": "",
          "type": "uint256"
        }
      ],
      "stateMutability": "view",
      "type": "function"
    },
    {
      "inputs": [],
      "name": "SECONDS_IN_ONE_MINUTE",
      "outputs": [
        {
          "internalType": "uint256",
          "name": "",
          "type": "uint256"
        }
      ],
      "stateMutability": "view",
      "type": "function"
    },
    {
      "inputs": [
        {
          "internalType": "uint256",
          "name": "",
          "type": "uint256"
        }
      ],
      "name": "TroveOwners",
      "outputs": [
        {
          "internalType": "address",
          "name": "",
          "type": "address"
        }
      ],
      "stateMutability": "view",
      "type": "function"
    },
    {
      "inputs": [
        {
          "internalType": "address",
          "name": "",
          "type": "address"
        }
      ],
      "name": "Troves",
      "outputs": [
        {
          "internalType": "uint256",
          "name": "debt",
          "type": "uint256"
        },
        {
          "internalType": "uint256",
          "name": "coll",
          "type": "uint256"
        },
        {
          "internalType": "uint256",
          "name": "stake",
          "type": "uint256"
        },
        {
          "internalType": "enum ITroveManager.Status",
          "name": "status",
          "type": "uint8"
        },
        {
          "internalType": "uint128",
          "name": "arrayIndex",
          "type": "uint128"
        }
      ],
      "stateMutability": "view",
      "type": "function"
    },
    {
      "inputs": [],
      "name": "_100pct",
      "outputs": [
        {
          "internalType": "uint256",
          "name": "",
          "type": "uint256"
        }
      ],
      "stateMutability": "view",
      "type": "function"
    },
    {
      "inputs": [],
      "name": "activePool",
      "outputs": [
        {
          "internalType": "contract IActivePool",
          "name": "",
          "type": "address"
        }
      ],
      "stateMutability": "view",
      "type": "function"
    },
    {
      "inputs": [
        {
          "internalType": "address",
          "name": "_borrower",
          "type": "address"
        }
      ],
      "name": "addTroveOwnerToArray",
      "outputs": [
        {
          "internalType": "uint256",
          "name": "index",
          "type": "uint256"
        }
      ],
      "stateMutability": "nonpayable",
      "type": "function"
    },
    {
      "inputs": [
        {
          "internalType": "address",
          "name": "_borrower",
          "type": "address"
        }
      ],
      "name": "applyPendingRewards",
      "outputs": [],
      "stateMutability": "nonpayable",
      "type": "function"
    },
    {
      "inputs": [],
      "name": "baseRate",
      "outputs": [
        {
          "internalType": "uint256",
          "name": "",
          "type": "uint256"
        }
      ],
      "stateMutability": "view",
      "type": "function"
    },
    {
      "inputs": [
        {
          "internalType": "address[]",
          "name": "_troveArray",
          "type": "address[]"
        }
      ],
      "name": "batchLiquidateTroves",
      "outputs": [],
      "stateMutability": "nonpayable",
      "type": "function"
    },
    {
      "inputs": [],
      "name": "borrowerOperationsAddress",
      "outputs": [
        {
          "internalType": "address",
          "name": "",
          "type": "address"
        }
      ],
      "stateMutability": "view",
      "type": "function"
    },
    {
      "inputs": [
        {
          "internalType": "uint256",
          "name": "_price",
          "type": "uint256"
        }
      ],
      "name": "checkRecoveryMode",
      "outputs": [
        {
          "internalType": "bool",
          "name": "",
          "type": "bool"
        }
      ],
      "stateMutability": "view",
      "type": "function"
    },
    {
      "inputs": [
        {
          "internalType": "address",
          "name": "_borrower",
          "type": "address"
        }
      ],
      "name": "closeTrove",
      "outputs": [],
      "stateMutability": "nonpayable",
      "type": "function"
    },
    {
      "inputs": [],
      "name": "debtToken",
      "outputs": [
        {
          "internalType": "contract IDebtToken",
          "name": "",
          "type": "address"
        }
      ],
      "stateMutability": "view",
      "type": "function"
    },
    {
      "inputs": [],
      "name": "decayBaseRateFromBorrowing",
      "outputs": [],
      "stateMutability": "nonpayable",
      "type": "function"
    },
    {
      "inputs": [
        {
          "internalType": "address",
          "name": "_borrower",
          "type": "address"
        },
        {
          "internalType": "uint256",
          "name": "_collDecrease",
          "type": "uint256"
        }
      ],
      "name": "decreaseTroveColl",
      "outputs": [
        {
          "internalType": "uint256",
          "name": "",
          "type": "uint256"
        }
      ],
      "stateMutability": "nonpayable",
      "type": "function"
    },
    {
      "inputs": [
        {
          "internalType": "address",
          "name": "_borrower",
          "type": "address"
        },
        {
          "internalType": "uint256",
          "name": "_debtDecrease",
          "type": "uint256"
        }
      ],
      "name": "decreaseTroveDebt",
      "outputs": [
        {
          "internalType": "uint256",
          "name": "",
          "type": "uint256"
        }
      ],
      "stateMutability": "nonpayable",
      "type": "function"
    },
    {
      "inputs": [],
      "name": "defaultPool",
      "outputs": [
        {
          "internalType": "contract IDefaultPool",
          "name": "",
          "type": "address"
        }
      ],
      "stateMutability": "view",
      "type": "function"
    },
    {
      "inputs": [
        {
          "internalType": "uint256",
          "name": "_debt",
          "type": "uint256"
        }
      ],
      "name": "getBorrowingFee",
      "outputs": [
        {
          "internalType": "uint256",
          "name": "",
          "type": "uint256"
        }
      ],
      "stateMutability": "view",
      "type": "function"
    },
    {
      "inputs": [
        {
          "internalType": "uint256",
          "name": "_debt",
          "type": "uint256"
        }
      ],
      "name": "getBorrowingFeeWithDecay",
      "outputs": [
        {
          "internalType": "uint256",
          "name": "",
          "type": "uint256"
        }
      ],
      "stateMutability": "view",
      "type": "function"
    },
    {
      "inputs": [],
      "name": "getBorrowingRate",
      "outputs": [
        {
          "internalType": "uint256",
          "name": "",
          "type": "uint256"
        }
      ],
      "stateMutability": "view",
      "type": "function"
    },
    {
      "inputs": [],
      "name": "getBorrowingRateWithDecay",
      "outputs": [
        {
          "internalType": "uint256",
          "name": "",
          "type": "uint256"
        }
      ],
      "stateMutability": "view",
      "type": "function"
    },
    {
      "inputs": [
        {
          "internalType": "address",
          "name": "_borrower",
          "type": "address"
        },
        {
          "internalType": "uint256",
          "name": "_price",
          "type": "uint256"
        }
      ],
      "name": "getCurrentICR",
      "outputs": [
        {
          "internalType": "uint256",
          "name": "",
          "type": "uint256"
        }
      ],
      "stateMutability": "view",
      "type": "function"
    },
    {
      "inputs": [
        {
          "internalType": "address",
          "name": "_borrower",
          "type": "address"
        }
      ],
      "name": "getEntireDebtAndColl",
      "outputs": [
        {
          "internalType": "uint256",
          "name": "debt",
          "type": "uint256"
        },
        {
          "internalType": "uint256",
          "name": "coll",
          "type": "uint256"
        },
        {
          "internalType": "uint256",
          "name": "pendingDebtReward",
          "type": "uint256"
        },
        {
          "internalType": "uint256",
          "name": "pendingFILReward",
          "type": "uint256"
        }
      ],
      "stateMutability": "view",
      "type": "function"
    },
    {
      "inputs": [],
      "name": "getEntireSystemColl",
      "outputs": [
        {
          "internalType": "uint256",
          "name": "entireSystemColl",
          "type": "uint256"
        }
      ],
      "stateMutability": "view",
      "type": "function"
    },
    {
      "inputs": [],
      "name": "getEntireSystemDebt",
      "outputs": [
        {
          "internalType": "uint256",
          "name": "entireSystemDebt",
          "type": "uint256"
        }
      ],
      "stateMutability": "view",
      "type": "function"
    },
    {
      "inputs": [
        {
          "internalType": "address",
          "name": "_borrower",
          "type": "address"
        }
      ],
      "name": "getNominalICR",
      "outputs": [
        {
          "internalType": "uint256",
          "name": "",
          "type": "uint256"
        }
      ],
      "stateMutability": "view",
      "type": "function"
    },
    {
      "inputs": [
        {
          "internalType": "address",
          "name": "_borrower",
          "type": "address"
        }
      ],
      "name": "getPendingDebtReward",
      "outputs": [
        {
          "internalType": "uint256",
          "name": "",
          "type": "uint256"
        }
      ],
      "stateMutability": "view",
      "type": "function"
    },
    {
      "inputs": [
        {
          "internalType": "address",
          "name": "_borrower",
          "type": "address"
        }
      ],
      "name": "getPendingFILReward",
      "outputs": [
        {
          "internalType": "uint256",
          "name": "",
          "type": "uint256"
        }
      ],
      "stateMutability": "view",
      "type": "function"
    },
    {
      "inputs": [
        {
          "internalType": "uint256",
          "name": "_FILDrawn",
          "type": "uint256"
        }
      ],
      "name": "getRedemptionFeeWithDecay",
      "outputs": [
        {
          "internalType": "uint256",
          "name": "",
          "type": "uint256"
        }
      ],
      "stateMutability": "view",
      "type": "function"
    },
    {
      "inputs": [],
      "name": "getRedemptionRate",
      "outputs": [
        {
          "internalType": "uint256",
          "name": "",
          "type": "uint256"
        }
      ],
      "stateMutability": "view",
      "type": "function"
    },
    {
      "inputs": [],
      "name": "getRedemptionRateWithDecay",
      "outputs": [
        {
          "internalType": "uint256",
          "name": "",
          "type": "uint256"
        }
      ],
      "stateMutability": "view",
      "type": "function"
    },
    {
      "inputs": [
        {
          "internalType": "uint256",
          "name": "_price",
          "type": "uint256"
        }
      ],
      "name": "getTCR",
      "outputs": [
        {
          "internalType": "uint256",
          "name": "",
          "type": "uint256"
        }
      ],
      "stateMutability": "view",
      "type": "function"
    },
    {
      "inputs": [
        {
          "internalType": "address",
          "name": "_borrower",
          "type": "address"
        }
      ],
      "name": "getTroveColl",
      "outputs": [
        {
          "internalType": "uint256",
          "name": "",
          "type": "uint256"
        }
      ],
      "stateMutability": "view",
      "type": "function"
    },
    {
      "inputs": [
        {
          "internalType": "address",
          "name": "_borrower",
          "type": "address"
        }
      ],
      "name": "getTroveDebt",
      "outputs": [
        {
          "internalType": "uint256",
          "name": "",
          "type": "uint256"
        }
      ],
      "stateMutability": "view",
      "type": "function"
    },
    {
      "inputs": [
        {
          "internalType": "uint256",
          "name": "_index",
          "type": "uint256"
        }
      ],
      "name": "getTroveFromTroveOwnersArray",
      "outputs": [
        {
          "internalType": "address",
          "name": "",
          "type": "address"
        }
      ],
      "stateMutability": "view",
      "type": "function"
    },
    {
      "inputs": [],
      "name": "getTroveOwnersCount",
      "outputs": [
        {
          "internalType": "uint256",
          "name": "",
          "type": "uint256"
        }
      ],
      "stateMutability": "view",
      "type": "function"
    },
    {
      "inputs": [
        {
          "internalType": "address",
          "name": "_borrower",
          "type": "address"
        }
      ],
      "name": "getTroveStake",
      "outputs": [
        {
          "internalType": "uint256",
          "name": "",
          "type": "uint256"
        }
      ],
      "stateMutability": "view",
      "type": "function"
    },
    {
      "inputs": [
        {
          "internalType": "address",
          "name": "_borrower",
          "type": "address"
        }
      ],
      "name": "getTroveStatus",
      "outputs": [
        {
          "internalType": "uint256",
          "name": "",
          "type": "uint256"
        }
      ],
      "stateMutability": "view",
      "type": "function"
    },
    {
      "inputs": [
        {
          "internalType": "address",
          "name": "_borrower",
          "type": "address"
        }
      ],
      "name": "hasPendingRewards",
      "outputs": [
        {
          "internalType": "bool",
          "name": "",
          "type": "bool"
        }
      ],
      "stateMutability": "view",
      "type": "function"
    },
    {
      "inputs": [
        {
          "internalType": "address",
          "name": "_borrower",
          "type": "address"
        },
        {
          "internalType": "uint256",
          "name": "_collIncrease",
          "type": "uint256"
        }
      ],
      "name": "increaseTroveColl",
      "outputs": [
        {
          "internalType": "uint256",
          "name": "",
          "type": "uint256"
        }
      ],
      "stateMutability": "nonpayable",
      "type": "function"
    },
    {
      "inputs": [
        {
          "internalType": "address",
          "name": "_borrower",
          "type": "address"
        },
        {
          "internalType": "uint256",
          "name": "_debtIncrease",
          "type": "uint256"
        }
      ],
      "name": "increaseTroveDebt",
      "outputs": [
        {
          "internalType": "uint256",
          "name": "",
          "type": "uint256"
        }
      ],
      "stateMutability": "nonpayable",
      "type": "function"
    },
    {
      "inputs": [
        {
          "internalType": "address",
          "name": "_borrowerOperationsAddress",
          "type": "address"
        },
        {
          "internalType": "address",
          "name": "_activePoolAddress",
          "type": "address"
        },
        {
          "internalType": "address",
          "name": "_defaultPoolAddress",
          "type": "address"
        },
        {
          "internalType": "address",
          "name": "_stabilityPoolAddress",
          "type": "address"
        },
        {
          "internalType": "address",
          "name": "_gasPoolAddress",
          "type": "address"
        },
        {
          "internalType": "address",
          "name": "_collSurplusPoolAddress",
          "type": "address"
        },
        {
          "internalType": "address",
          "name": "_priceFeedAddress",
          "type": "address"
        },
        {
          "internalType": "address",
          "name": "_debtTokenAddress",
          "type": "address"
        },
        {
          "internalType": "address",
          "name": "_sortedTrovesAddress",
          "type": "address"
        },
        {
          "internalType": "address",
          "name": "_protocolTokenAddress",
          "type": "address"
        },
        {
          "internalType": "address",
          "name": "_protocolTokenStakingAddress",
          "type": "address"
        }
      ],
      "name": "initialize",
      "outputs": [],
      "stateMutability": "nonpayable",
      "type": "function"
    },
    {
      "inputs": [],
      "name": "lastFILError_Redistribution",
      "outputs": [
        {
          "internalType": "uint256",
          "name": "",
          "type": "uint256"
        }
      ],
      "stateMutability": "view",
      "type": "function"
    },
    {
      "inputs": [],
      "name": "lastFeeOperationTime",
      "outputs": [
        {
          "internalType": "uint256",
          "name": "",
          "type": "uint256"
        }
      ],
      "stateMutability": "view",
      "type": "function"
    },
    {
      "inputs": [],
      "name": "lastLDebtError_Redistribution",
      "outputs": [
        {
          "internalType": "uint256",
          "name": "",
          "type": "uint256"
        }
      ],
      "stateMutability": "view",
      "type": "function"
    },
    {
      "inputs": [
        {
          "internalType": "address",
          "name": "_borrower",
          "type": "address"
        }
      ],
      "name": "liquidate",
      "outputs": [],
      "stateMutability": "nonpayable",
      "type": "function"
    },
    {
      "inputs": [
        {
          "internalType": "uint256",
          "name": "_n",
          "type": "uint256"
        }
      ],
      "name": "liquidateTroves",
      "outputs": [],
      "stateMutability": "nonpayable",
      "type": "function"
    },
    {
      "inputs": [],
      "name": "owner",
      "outputs": [
        {
          "internalType": "address",
          "name": "",
          "type": "address"
        }
      ],
      "stateMutability": "view",
      "type": "function"
    },
    {
      "inputs": [],
      "name": "priceFeed",
      "outputs": [
        {
          "internalType": "contract IPriceFeed",
          "name": "",
          "type": "address"
        }
      ],
      "stateMutability": "view",
      "type": "function"
    },
    {
      "inputs": [],
      "name": "protocolToken",
      "outputs": [
        {
          "internalType": "contract IProtocolToken",
          "name": "",
          "type": "address"
        }
      ],
      "stateMutability": "view",
      "type": "function"
    },
    {
      "inputs": [],
      "name": "protocolTokenStaking",
      "outputs": [
        {
          "internalType": "contract IProtocolTokenStaking",
          "name": "",
          "type": "address"
        }
      ],
      "stateMutability": "view",
      "type": "function"
    },
    {
      "inputs": [
        {
          "internalType": "uint256",
          "name": "_debtTokenAmount",
          "type": "uint256"
        },
        {
          "internalType": "address",
          "name": "_firstRedemptionHint",
          "type": "address"
        },
        {
          "internalType": "address",
          "name": "_upperPartialRedemptionHint",
          "type": "address"
        },
        {
          "internalType": "address",
          "name": "_lowerPartialRedemptionHint",
          "type": "address"
        },
        {
          "internalType": "uint256",
          "name": "_partialRedemptionHintNICR",
          "type": "uint256"
        },
        {
          "internalType": "uint256",
          "name": "_maxIterations",
          "type": "uint256"
        },
        {
          "internalType": "uint256",
          "name": "_maxFeePercentage",
          "type": "uint256"
        }
      ],
      "name": "redeemCollateral",
      "outputs": [],
      "stateMutability": "nonpayable",
      "type": "function"
    },
    {
      "inputs": [
        {
          "internalType": "address",
          "name": "_borrower",
          "type": "address"
        }
      ],
      "name": "removeStake",
      "outputs": [],
      "stateMutability": "nonpayable",
      "type": "function"
    },
    {
      "inputs": [],
      "name": "renounceOwnership",
      "outputs": [],
      "stateMutability": "nonpayable",
      "type": "function"
    },
    {
      "inputs": [
        {
          "internalType": "address",
          "name": "",
          "type": "address"
        }
      ],
      "name": "rewardSnapshots",
      "outputs": [
        {
          "internalType": "uint256",
          "name": "FIL",
          "type": "uint256"
        },
        {
          "internalType": "uint256",
          "name": "debt",
          "type": "uint256"
        }
      ],
      "stateMutability": "view",
      "type": "function"
    },
    {
      "inputs": [
        {
          "internalType": "address",
          "name": "_borrower",
          "type": "address"
        },
        {
          "internalType": "uint256",
          "name": "_num",
          "type": "uint256"
        }
      ],
      "name": "setTroveStatus",
      "outputs": [],
      "stateMutability": "nonpayable",
      "type": "function"
    },
    {
      "inputs": [],
      "name": "sortedTroves",
      "outputs": [
        {
          "internalType": "contract ISortedTroves",
          "name": "",
          "type": "address"
        }
      ],
      "stateMutability": "view",
      "type": "function"
    },
    {
      "inputs": [],
      "name": "stabilityPool",
      "outputs": [
        {
          "internalType": "contract IStabilityPool",
          "name": "",
          "type": "address"
        }
      ],
      "stateMutability": "view",
      "type": "function"
    },
    {
      "inputs": [],
      "name": "totalCollateralSnapshot",
      "outputs": [
        {
          "internalType": "uint256",
          "name": "",
          "type": "uint256"
        }
      ],
      "stateMutability": "view",
      "type": "function"
    },
    {
      "inputs": [],
      "name": "totalStakes",
      "outputs": [
        {
          "internalType": "uint256",
          "name": "",
          "type": "uint256"
        }
      ],
      "stateMutability": "view",
      "type": "function"
    },
    {
      "inputs": [],
      "name": "totalStakesSnapshot",
      "outputs": [
        {
          "internalType": "uint256",
          "name": "",
          "type": "uint256"
        }
      ],
      "stateMutability": "view",
      "type": "function"
    },
    {
      "inputs": [
        {
          "internalType": "address",
          "name": "newOwner",
          "type": "address"
        }
      ],
      "name": "transferOwnership",
      "outputs": [],
      "stateMutability": "nonpayable",
      "type": "function"
    },
    {
      "inputs": [
        {
          "internalType": "address",
          "name": "_borrower",
          "type": "address"
        }
      ],
      "name": "updateStakeAndTotalStakes",
      "outputs": [
        {
          "internalType": "uint256",
          "name": "",
          "type": "uint256"
        }
      ],
      "stateMutability": "nonpayable",
      "type": "function"
    },
    {
      "inputs": [
        {
          "internalType": "address",
          "name": "_borrower",
          "type": "address"
        }
      ],
      "name": "updateTroveRewardSnapshots",
      "outputs": [],
      "stateMutability": "nonpayable",
      "type": "function"
    }
  ],
  "bytecode": "0x60c06040523480156200001157600080fd5b5060405162005d8e38038062005d8e833981810160405260408110156200003757600080fd5b508051602090910151608082905260a0819052615cfe6200009060003980610e3252806144ca525080610daf528061434b52806143f052806144315280614a995280614eea528061549352806157b65250615cfe6000f3fe608060405234801561001057600080fd5b50600436106104655760003560e01c8063741bef1a11610257578063bcd3752611610146578063d66a2553116100c3578063f36b242511610087578063f36b242514610cc3578063f59fac2d14610ccb578063f8d8989814610cf1578063f92d343314610680578063fe2ba84814610cf957610465565b8063d66a255314610c2c578063d9a7244414610c52578063e2ac77b014610c6f578063e545242314610c95578063f2fde38b14610c9d57610465565b8063cbd138ae1161010a578063cbd138ae14610b89578063d293c71014610baf578063d380a37c14610bdb578063d3d6f84314610be3578063d5b3563514610c0f57610465565b8063bcd3752614610b1b578063bf9befb114610b69578063c35bc55014610b71578063c52861f214610b79578063c7b5548114610b8157610465565b806396d711ff116101d4578063ae91875411610198578063ae91875414610a7c578063b0d8e18114610a84578063b7f8cf9b14610aaa578063b82f263d14610ab2578063b91af97c14610acf57610465565b806396d711ff146109c35780639976cf45146109cb578063a0d8d6bc146109f7578063a20baee6146108bc578063a3f4df7e146109ff57610465565b80637f7dde4a1161021b5780637f7dde4a1461097d578063807d138d1461098557806382fe3eb91461098d578063887105d3146109b35780638da5cb5b146109bb57610465565b8063741bef1a146108cc578063756b253e146108d457806376902b83146108f1578063794e57241461096d578063795d26c31461097557610465565b80633cc742251161037357806361ec893d116102f05780636ef64338116102b45780636ef643381461081c578063715018a61461088857806372423c171461089057806372fe25aa146108bc57806373098be9146108c457610465565b806361ec893d146107ac578063631203b0146107b457806364cee260146107d1578063653d46e7146107f757806366ca4a211461081457610465565b80634e443d9e116103375780634e443d9e1461071957806352512eaa1461074a5780635733d58f146107705780635d6b480f146107785780635dba4c4a146107a457610465565b80633cc74225146106be578063477d66cf146106c6578063480cd578146106e35780634870dd9a1461070957806349eefeee1461071157610465565b80631bf435551161040157806326b4d8fd116103c557806326b4d8fd1461067857806328d28b5b146106805780632b11551a146106885780632f8655681461069057806331eaf05c146106b657610465565b80631bf43555146105975780631e8b1c2b1461059f5780631f68f20a1461064257806321e378011461064a578063240926691461067057610465565b8063048c661d1461046a578063071a75411461048e5780630b076557146104a857806312610e92146104d0578063139f2e8c146104fc57806315d549f1146105045780631673c79a1461052a57806318f2817a146105695780631a465fe11461058f575b600080fd5b610472610d1f565b604080516001600160a01b039092168252519081900360200190f35b610496610d2e565b60408051918252519081900360200190f35b6104ce600480360360208110156104be57600080fd5b50356001600160a01b0316610d33565b005b610496600480360360408110156104e657600080fd5b506001600160a01b038135169060200135610d5b565b610496610dad565b6104966004803603602081101561051a57600080fd5b50356001600160a01b0316610dd1565b6105506004803603602081101561054057600080fd5b50356001600160a01b0316610df5565b6040805192835260208301919091528051918290030190f35b6104966004803603602081101561057f57600080fd5b50356001600160a01b0316610e0e565b610472610e21565b610496610e30565b6104ce600480360360208110156105b557600080fd5b8101906020810181356401000000008111156105d057600080fd5b8201836020820111156105e257600080fd5b8035906020019184602083028401116401000000008311171561060457600080fd5b919080806020026020016040519081016040528093929190818152602001838360200280828437600092019190915250929550610e54945050505050565b6104966111e8565b6104966004803603602081101561066057600080fd5b50356001600160a01b03166111ee565b610496611218565b61049661122b565b610496611231565b610496611242565b6104ce600480360360208110156106a657600080fd5b50356001600160a01b0316611254565b6104966112ba565b6104726112c0565b610496600480360360208110156106dc57600080fd5b50356112cf565b610496600480360360208110156106f957600080fd5b50356001600160a01b03166112e2565b610496611300565b610496611305565b6107366004803603602081101561072f57600080fd5b503561130b565b604080519115158252519081900360200190f35b6104966004803603602081101561076057600080fd5b50356001600160a01b0316611316565b6104966113ca565b6104ce6004803603604081101561078e57600080fd5b506001600160a01b0381351690602001356113d6565b6104ce611422565b610496611488565b610496600480360360208110156107ca57600080fd5b503561148d565b610496600480360360208110156107e757600080fd5b50356001600160a01b031661149a565b6104ce6004803603602081101561080d57600080fd5b50356114b8565b610496611855565b6108426004803603602081101561083257600080fd5b50356001600160a01b0316611867565b6040518086815260200185815260200184815260200183600481111561086457fe5b8152602001826001600160801b031681526020019550505050505060405180910390f35b6104ce6118a1565b610496600480360360408110156108a657600080fd5b506001600160a01b03813516906020013561194d565b6104966119a4565b6104966119b0565b6104726119b6565b610472600480360360208110156108ea57600080fd5b50356119c5565b6104ce600480360361016081101561090857600080fd5b506001600160a01b038135811691602081013582169160408201358116916060810135821691608082013581169160a081013582169160c082013581169160e081013582169161010082013581169161012081013582169161014090910135166119ef565b610496611ace565b610496611ada565b610472611bd5565b610496611be4565b6104ce600480360360208110156109a357600080fd5b50356001600160a01b0316611bea565b610496611bfb565b610472611cb7565b610496611cc6565b610496600480360360408110156109e157600080fd5b506001600160a01b038135169060200135611ccc565b610496611cf9565b610a07611cff565b6040805160208082528351818301528351919283929083019185019080838360005b83811015610a41578181015183820152602001610a29565b50505050905090810190601f168015610a6e5780820380516001836020036101000a031916815260200191505b509250505060405180910390f35b610472611d27565b61049660048036036020811015610a9a57600080fd5b50356001600160a01b0316611d36565b610472611d5d565b61049660048036036020811015610ac857600080fd5b5035611d6c565b610af560048036036020811015610ae557600080fd5b50356001600160a01b0316611d77565b604080519485526020850193909352838301919091526060830152519081900360800190f35b6104ce600480360360e0811015610b3157600080fd5b508035906001600160a01b03602082013581169160408101358216916060820135169060808101359060a08101359060c00135611dcf565b610496612532565b610496612538565b61049661253f565b610496612551565b6104ce60048036036020811015610b9f57600080fd5b50356001600160a01b031661255d565b61049660048036036040811015610bc557600080fd5b506001600160a01b038135169060200135612570565b61049661258f565b61049660048036036040811015610bf957600080fd5b506001600160a01b038135169060200135612595565b61049660048036036020811015610c2557600080fd5b50356125c5565b61049660048036036020811015610c4257600080fd5b50356001600160a01b03166125d8565b61047260048036036020811015610c6857600080fd5b50356125f3565b61073660048036036020811015610c8557600080fd5b50356001600160a01b031661261d565b61047261267b565b6104ce60048036036020811015610cb357600080fd5b50356001600160a01b031661268a565b61049661278d565b61049660048036036020811015610ce157600080fd5b50356001600160a01b031661279a565b6104726127c5565b6104ce60048036036020811015610d0f57600080fd5b50356001600160a01b03166127d4565b6068546001600160a01b031681565b600281565b610d3b6127e5565b600054600154610d58916001600160a01b03908116911683612830565b50565b6000610d656127e5565b6001600160a01b038316600090815260716020526040812054610d889084612946565b6001600160a01b03851660009081526071602052604090208190559150505b92915050565b7f000000000000000000000000000000000000000000000000000000000000000081565b6000610ddb6127e5565b610de4826129a3565b6001600160801b031690505b919050565b6077602052600090815260409020805460019091015482565b6000610e186127e5565b610da782612a3d565b606c546001600160a01b031681565b7f000000000000000000000000000000000000000000000000000000000000000081565b8051610e915760405162461bcd60e51b8152600401808060200182810382526036815260200180615b846036913960400191505060405180910390fd5b6000546001546068546001600160a01b03928316929182169116610eb3615844565b610ebb615875565b600260009054906101000a90046001600160a01b03166001600160a01b0316630fdb11cf6040518163ffffffff1660e01b8152600401602060405180830381600087803b158015610f0b57600080fd5b505af1158015610f1f573d6000803e3d6000fd5b505050506040513d6020811015610f3557600080fd5b5051825260408051630d9a6b3560e01b815290516001600160a01b03851691630d9a6b35916004808301926020929190829003018186803b158015610f7957600080fd5b505afa158015610f8d573d6000803e3d6000fd5b505050506040513d6020811015610fa357600080fd5b505160208301528151610fb590612ae0565b1580156040840152610fdd57610fd68585846000015185602001518a612afd565b9050610ff5565b610ff28585846000015185602001518a612d1b565b90505b60008160200151116110385760405162461bcd60e51b8152600401808060200182810382526022815260200180615c786022913960400191505060405180910390fd5b826001600160a01b031663335525ad82608001518360a001516040518363ffffffff1660e01b81526004018083815260200182815260200192505050600060405180830381600087803b15801561108e57600080fd5b505af11580156110a2573d6000803e3d6000fd5b505050506110ba85858360c001518460e00151612ddd565b6101008101511561113757606a5461010082015160408051628063a560e01b81526001600160a01b03938416600482015260248101929092525191871691628063a59160448082019260009290919082900301818387803b15801561111e57600080fd5b505af1158015611132573d6000803e3d6000fd5b505050505b611145858260400151613027565b6020810151606083015261010081015160408201518251611171929161116b9190612946565b90612946565b608080840182905260608085015160408086015186840151825193845260208401969096528282015291810193909352517f4152c73dd2614c4f9fc35e8c9cf16013cd588c75b49a4c1673ecffdcbcda94039281900390910190a16111e0853383606001518460400151613168565b505050505050565b606f5481565b6001600160a01b03811660009081526071602052604081206003015460ff166004811115610da757fe5b6064670de0b6b3a76400005b0460050281565b607a5481565b6103e8670de0b6b3a7640000611224565b600061124f606f54613261565b905090565b61125d81613297565b60408051600180825281830190925260009160208083019080368337019050509050818160008151811061128d57fe5b60200260200101906001600160a01b031690816001600160a01b0316815250506112b681610e54565b5050565b60765481565b6001546001600160a01b031681565b6000610da76112dc611855565b836132ff565b6001600160a01b031660009081526071602052604090206001015490565b60c881565b60785490565b6000610da782612ae0565b6001600160a01b038116600090815260776020526040812054607554829061133e9083612946565b9050801580611377575060016001600160a01b03851660009081526071602052604090206003015460ff16600481111561137457fe5b14155b1561138757600092505050610df0565b6001600160a01b038416600090815260716020526040812060020154906113c0670de0b6b3a76400006113ba848661331e565b90613377565b9695505050505050565b6714d1120d7b16000081565b6113de6127e5565b8060048111156113ea57fe5b6001600160a01b0383166000908152607160205260409020600301805460ff1916600183600481111561141957fe5b02179055505050565b61142a6127e5565b60006114346133de565b9050670de0b6b3a764000081111561144857fe5b606f8190556040805182815290517fc454ee9b76c52f782a256af821b857ca6e125d1e3333bcede402fec2bed9600c9181900360200190a1610d58613422565b603c81565b6000610da76112dc61278d565b6001600160a01b031660009081526071602052604090206002015490565b6040805160e081018252600080546001600160a01b0390811683526001548116602084015292820181905260608201819052606e548316608083015260a0820181905260c082015260685490911661150e615844565b611516615875565b600260009054906101000a90046001600160a01b03166001600160a01b0316630fdb11cf6040518163ffffffff1660e01b8152600401602060405180830381600087803b15801561156657600080fd5b505af115801561157a573d6000803e3d6000fd5b505050506040513d602081101561159057600080fd5b5051825260408051630d9a6b3560e01b815290516001600160a01b03851691630d9a6b35916004808301926020929190829003018186803b1580156115d457600080fd5b505afa1580156115e8573d6000803e3d6000fd5b505050506040513d60208110156115fe57600080fd5b50516020830152815161161090612ae0565b15801560408401526116375761163084836000015184602001518861347e565b9050611657565b6116548460000151856020015184600001518560200151896137fe565b90505b600081602001511161169a5760405162461bcd60e51b8152600401808060200182810382526022815260200180615c786022913960400191505060405180910390fd5b826001600160a01b031663335525ad82608001518360a001516040518363ffffffff1660e01b81526004018083815260200182815260200192505050600060405180830381600087803b1580156116f057600080fd5b505af1158015611704573d6000803e3d6000fd5b50505050611724846000015185602001518360c001518460e00151612ddd565b610100810151156117a3578351606a5461010083015160408051628063a560e01b81526001600160a01b0393841660048201526024810192909252519190921691628063a591604480830192600092919082900301818387803b15801561178a57600080fd5b505af115801561179e573d6000803e3d6000fd5b505050505b6117b584600001518260400151613027565b60208101516060830152610100810151604082015182516117db929161116b9190612946565b608080840182905260608085015160408086015186840151825193845260208401969096528282015291810193909352517f4152c73dd2614c4f9fc35e8c9cf16013cd588c75b49a4c1673ecffdcbcda94039281900390910190a161184e84600001513383606001518460400151613168565b5050505050565b600061124f6118626133de565b61392a565b60716020526000908152604090208054600182015460028301546003909301549192909160ff81169061010090046001600160801b031685565b6118a9613951565b6001600160a01b03166118ba611cb7565b6001600160a01b031614611915576040805162461bcd60e51b815260206004820181905260248201527f4f776e61626c653a2063616c6c6572206973206e6f7420746865206f776e6572604482015290519081900360640190fd5b6035546040516000916001600160a01b031690600080516020615b09833981519152908390a3603580546001600160a01b0319169055565b60006119576127e5565b6001600160a01b03831660009081526071602052604081206001015461197d9084613955565b6001600160a01b038516600090815260716020526040902060010181905591505092915050565b670de0b6b3a764000081565b60755481565b6002546001600160a01b031681565b607881815481106119d557600080fd5b6000918252602090912001546001600160a01b0316905081565b600254600160a81b900460ff1680611a0a5750611a0a6139af565b80611a1f5750600254600160a01b900460ff16155b611a5a5760405162461bcd60e51b815260040180806020018281038252602e815260200180615a02602e913960400191505060405180910390fd5b600254600160a81b900460ff16158015611a91576002805460ff60a01b1960ff60a81b19909116600160a81b1716600160a01b1790555b611a996139c0565b611aac8c8c8c8c8c8c8c8c8c8c8c613a88565b8015611ac0576002805460ff60a81b191690555b505050505050505050505050565b670f43fc2c04ee000081565b60008054604080516314a6bf0f60e01b8152905183926001600160a01b0316916314a6bf0f916004808301926020929190829003018186803b158015611b1f57600080fd5b505afa158015611b33573d6000803e3d6000fd5b505050506040513d6020811015611b4957600080fd5b5051600154604080516314a6bf0f60e01b815290519293506000926001600160a01b03909216916314a6bf0f91600480820192602092909190829003018186803b158015611b9657600080fd5b505afa158015611baa573d6000803e3d6000fd5b505050506040513d6020811015611bc057600080fd5b50519050611bce8282613955565b9250505090565b6000546001600160a01b031681565b60735481565b611bf26127e5565b610d5881613e20565b60008054604080516362e1c9bf60e11b8152905183926001600160a01b03169163c5c3937e916004808301926020929190829003018186803b158015611c4057600080fd5b505afa158015611c54573d6000803e3d6000fd5b505050506040513d6020811015611c6a57600080fd5b5051600154604080516362e1c9bf60e11b815290519293506000926001600160a01b039092169163c5c3937e91600480820192602092909190829003018186803b158015611b9657600080fd5b6035546001600160a01b031690565b60745481565b6000611cd66127e5565b6001600160a01b038316600090815260716020526040812054610d889084613955565b60795481565b6040518060400160405280600c81526020016b2a3937bb32a6b0b730b3b2b960a11b81525081565b606e546001600160a01b031681565b6000806000611d4484613e8b565b915091506000611d548383613f05565b95945050505050565b6067546001600160a01b031681565b6000610da782613f34565b6001600160a01b03811660009081526071602052604081208054600190910154909180611da38561279a565b9150611dae85611316565b9050611dba8483613955565b9350611dc68382613955565b92509193509193565b6040805160e0810182526000546001600160a01b03908116825260015481166020830152606b54811692820192909252606d5482166060820152606e5482166080820152606a54821660a082015260695490911660c0820152611e306158c1565b611e3983613f60565b611e41613fba565b600260009054906101000a90046001600160a01b03166001600160a01b0316630fdb11cf6040518163ffffffff1660e01b8152600401602060405180830381600087803b158015611e9157600080fd5b505af1158015611ea5573d6000803e3d6000fd5b505050506040513d6020811015611ebb57600080fd5b505160c08201819052611ecd90614078565b611ed6896140c7565b611ee58260400151338b614106565b611eed611ada565b60e0820181905260408084015181516370a0823160e01b815233600482015291516001600160a01b03909116916370a08231916024808301926020929190829003018186803b158015611f3f57600080fd5b505afa158015611f53573d6000803e3d6000fd5b505050506040513d6020811015611f6957600080fd5b50511115611f7357fe5b888152608082015160c0820151600091611f8e918b906141bd565b15611f9a5750876120bb565b82608001516001600160a01b0316634d6228316040518163ffffffff1660e01b815260040160206040518083038186803b158015611fd757600080fd5b505afa158015611feb573d6000803e3d6000fd5b505050506040513d602081101561200157600080fd5b505190505b6001600160a01b038116158015906120325750670f43fc2c04ee0000612030828460c00151612570565b105b156120bb5782608001516001600160a01b031663b72703ac826040518263ffffffff1660e01b815260040180826001600160a01b0316815260200191505060206040518083038186803b15801561208857600080fd5b505afa15801561209c573d6000803e3d6000fd5b505050506040513d60208110156120b257600080fd5b50519050612006565b846120c65760001994505b6001600160a01b038116158015906120de5750815115155b80156120ea5750600085115b156121fd57848060019003955050600083608001516001600160a01b031663b72703ac836040518263ffffffff1660e01b815260040180826001600160a01b0316815260200191505060206040518083038186803b15801561214b57600080fd5b505afa15801561215f573d6000803e3d6000fd5b505050506040513d602081101561217557600080fd5b50518451602086015191925061218b9184612830565b60006121a4858486600001518760c001518e8e8e61431e565b90508060400151156121b75750506121fd565b805160208501516121c791613955565b60208086019190915281015160408501516121e191613955565b6040850152805184516121f391612946565b84525090506120c6565b60008260400151116122405760405162461bcd60e51b81526004018080602001828103825260298152602001806159d96029913960400191505060405180910390fd5b61225782604001518360c001518460e00151614612565b5061226582604001516146a8565b60608301819052604083015161227c9190866146b5565b82600001516001600160a01b0316628063a5846060015184606001516040518363ffffffff1660e01b815260040180836001600160a01b0316815260200182815260200192505050600060405180830381600087803b1580156122de57600080fd5b505af11580156122f2573d6000803e3d6000fd5b5050505082606001516001600160a01b031663c91d2d3883606001516040518263ffffffff1660e01b815260040180828152602001915050600060405180830381600087803b15801561234457600080fd5b505af1158015612358573d6000803e3d6000fd5b505050506060820151604083015161236f91612946565b8260800181815250507f43a3f4082a4dbc33d78e317d2497d3a730bc7fc3574159dcea1056e62e5d9ad88a8360200151846040015185606001516040518085815260200184815260200183815260200182815260200194505050505060405180910390a182604001516001600160a01b0316639dc29fac3384602001516040518363ffffffff1660e01b815260040180836001600160a01b0316815260200182815260200192505050600060405180830381600087803b15801561243257600080fd5b505af1158015612446573d6000803e3d6000fd5b5050505082600001516001600160a01b0316632a7ba1f783602001516040518263ffffffff1660e01b815260040180828152602001915050600060405180830381600087803b15801561249857600080fd5b505af11580156124ac573d6000803e3d6000fd5b5050505082600001516001600160a01b0316628063a53384608001516040518363ffffffff1660e01b815260040180836001600160a01b0316815260200182815260200192505050600060405180830381600087803b15801561250e57600080fd5b505af1158015612522573d6000803e3d6000fd5b5050505050505050505050505050565b60725481565b6212750081565b600061124f61254c6133de565b613261565b670ddd4b8c6c7d70d881565b6125656127e5565b610d58816002614724565b600080600061257e85613e8b565b9150915060006113c083838761483d565b60705481565b600061259f6127e5565b6001600160a01b03831660009081526071602052604081206001015461197d9084612946565b6000610da76125d261253f565b83614867565b6001600160a01b031660009081526071602052604090205490565b60006078828154811061260257fe5b6000918252602090912001546001600160a01b031692915050565b600060016001600160a01b03831660009081526071602052604090206003015460ff16600481111561264b57fe5b1461265857506000610df0565b506075546001600160a01b03821660009081526077602052604090205410919050565b606d546001600160a01b031681565b612692613951565b6001600160a01b03166126a3611cb7565b6001600160a01b0316146126fe576040805162461bcd60e51b815260206004820181905260248201527f4f776e61626c653a2063616c6c6572206973206e6f7420746865206f776e6572604482015290519081900360640190fd5b6001600160a01b0381166127435760405162461bcd60e51b81526004018080602001828103825260268152602001806159b36026913960400191505060405180910390fd5b6035546040516001600160a01b03808416921690600080516020615b0983398151915290600090a3603580546001600160a01b0319166001600160a01b0392909216919091179055565b600061124f606f5461392a565b6001600160a01b038116600090815260776020526040812060010154607654829061133e9083612946565b606b546001600160a01b031681565b6127dc6127e5565b610d58816148c0565b6067546001600160a01b0316331461282e5760405162461bcd60e51b815260040180806020018281038252603b815260200180615b49603b913960400191505060405180910390fd5b565b6128398161261d565b156129415761284781613297565b600061285282611316565b9050600061285f8361279a565b6001600160a01b0384166000908152607160205260409020600101549091506128889083613955565b6001600160a01b03841660009081526071602052604090206001810191909155546128b39082613955565b6001600160a01b0384166000908152607160205260409020556128d583613e20565b6128e18585838561490a565b6001600160a01b0383166000818152607160209081526040808320805460018201546002909201548351918252938101919091528082019290925260608201929092529051600080516020615b298339815191529181900360800190a250505b505050565b60008282111561299d576040805162461bcd60e51b815260206004820152601e60248201527f536166654d6174683a207375627472616374696f6e206f766572666c6f770000604482015290519081900360640190fd5b50900390565b607880546001808201835560008381527f8dc6fb69531d98d70dc0420e638d2dfd04e09e1ec783ede9aac77da9c5a0dac490920180546001600160a01b0319166001600160a01b038616179055915490916129fe9190612946565b6001600160a01b039290921660009081526071602052604090206003018054610100600160881b0319166101006001600160801b038516021790555090565b6001600160a01b0381166000908152607160205260408120600101548190612a6490614a0c565b6001600160a01b038416600090815260716020526040902060020180549082905560725491925090612aa2908390612a9c9084612946565b90613955565b607281905560408051918252517f6bac5e0eb3c44eb03a60ab11ec3a2c051771616aecadbcfff2630aabae5203829181900360200190a15092915050565b600080612aec83613f34565b6714d1120d7b160000119392505050565b612b05615875565b612b0d615906565b612b15615875565b84825260006080830152612b27611ada565b60a0830152612b34611bfb565b60c0830152600060208301525b835182602001511015612d105783826020015181518110612b5e57fe5b6020908102919091018101516001600160a01b03166060840181905260009081526071909152604090206003015460019060ff166004811115612b9d57fe5b14612ba757612d00565b612bb5826060015187612570565b60408301526080820151612ca857670f43fc2c04ee0000826040015110158015612bde57508151155b15612be857612d00565b6000612bfd8360c001518460a001518961483d565b9050612c1a8989856060015186604001518760000151868d614a48565b60808101518451919350612c2e9190612946565b8352608082015160a0840151612c4391612946565b8360a0018181525050612c7882610100015161116b846040015161116b8660a001518860c0015161294690919063ffffffff16565b60c0840152612c878483614d86565b9350612c9c8360c001518460a0015189614e67565b15608084015250612d00565b81608001518015612cc45750670f43fc2c04ee00008260400151105b15612d0057612cdd888884606001518560000151614e88565b60808101518351919250612cf19190612946565b8252612cfd8382614d86565b92505b6020820180516001019052612b41565b505095945050505050565b612d23615875565b612d2b615906565b612d33615875565b848252600060208301525b835182602001511015612d105783826020015181518110612d5b57fe5b60209081029190910101516001600160a01b031660608301819052612d809087612570565b60408301819052670f43fc2c04ee00001115612dcd57612daa888884606001518560000151614e88565b60808101518351919250612dbe9190612946565b8252612dca8382614d86565b92505b6020820180516001019052612d3e565b81612de757613021565b607954600090612e0390612a9c84670de0b6b3a764000061331e565b90506000612e28607a54612a9c670de0b6b3a76400008761331e90919063ffffffff16565b90506000612e416072548461337790919063ffffffff16565b90506000612e5a6072548461337790919063ffffffff16565b9050612e7b612e746072548461331e90919063ffffffff16565b8590612946565b607955607254612e9790612e9090839061331e565b8490612946565b607a55607554612ea79083613955565b607555607654612eb79082613955565b607681905560755460408051918252602082019290925281517f9f8bc8ab0daf5bceef75ecfd2085d1fcc6548c657ea970d9a23a60610d0737e3929181900390910190a1876001600160a01b0316632a7ba1f7876040518263ffffffff1660e01b815260040180828152602001915050600060405180830381600087803b158015612f4157600080fd5b505af1158015612f55573d6000803e3d6000fd5b50505050866001600160a01b0316632b7c7b11876040518263ffffffff1660e01b815260040180828152602001915050600060405180830381600087803b158015612f9f57600080fd5b505af1158015612fb3573d6000803e3d6000fd5b50505050876001600160a01b0316628063a588876040518363ffffffff1660e01b815260040180836001600160a01b0316815260200182815260200192505050600060405180830381600087803b15801561300d57600080fd5b505af1158015611ac0573d6000803e3d6000fd5b50505050565b6072546073819055506000826001600160a01b031663c5c3937e6040518163ffffffff1660e01b815260040160206040518083038186803b15801561306b57600080fd5b505afa15801561307f573d6000803e3d6000fd5b505050506040513d602081101561309557600080fd5b5051600154604080516362e1c9bf60e11b815290519293506000926001600160a01b039092169163c5c3937e91600480820192602092909190829003018186803b1580156130e257600080fd5b505afa1580156130f6573d6000803e3d6000fd5b505050506040513d602081101561310c57600080fd5b5051905061311e81612a9c8486612946565b607481905560735460408051918252602082019290925281517f51bf4c63ec3cba9d03d43238abbdd979dd91bd16d9895c74ceea9118c7baaf60929181900390910190a150505050565b81156131e757606b5460695460408051631062c15f60e11b81526001600160a01b039283166004820152868316602482015260448101869052905191909216916320c582be91606480830192600092919082900301818387803b1580156131ce57600080fd5b505af11580156131e2573d6000803e3d6000fd5b505050505b801561302157836001600160a01b0316628063a584836040518363ffffffff1660e01b815260040180836001600160a01b0316815260200182815260200192505050600060405180830381600087803b15801561324357600080fd5b505af1158015613257573d6000803e3d6000fd5b5050505050505050565b6000610da7613289836103e8670de0b6b3a76400005b0460050261395590919063ffffffff16565b670de0b6b3a7640000615002565b60016001600160a01b03821660009081526071602052604090206003015460ff1660048111156132c357fe5b14610d585760405162461bcd60e51b815260040180806020018281038252602f815260200180615c9a602f913960400191505060405180910390fd5b6000613317670de0b6b3a76400006113ba858561331e565b9392505050565b60008261332d57506000610da7565b8282028284828161333a57fe5b04146133175760405162461bcd60e51b8152600401808060200182810382526021815260200180615ae86021913960400191505060405180910390fd5b60008082116133cd576040805162461bcd60e51b815260206004820152601a60248201527f536166654d6174683a206469766973696f6e206279207a65726f000000000000604482015290519081900360640190fd5b8183816133d657fe5b049392505050565b6000806133e9615018565b905060006133ff670ddd4b8c6c7d70d883615034565b9050611bce670de0b6b3a76400006113ba83606f5461331e90919063ffffffff16565b60006134396070544261294690919063ffffffff16565b9050603c8110610d585742607081905560408051918252517f860f8d2f0c74dd487e89e2883e3b25b8159ce1e1b3433a291cba7b82c508f3bc9181900360200190a150565b613486615875565b61348e615906565b613496615875565b848252600060808301526134a8611ada565b60a08301526134b5611bfb565b8260c001818152505086608001516001600160a01b0316634d6228316040518163ffffffff1660e01b815260040160206040518083038186803b1580156134fb57600080fd5b505afa15801561350f573d6000803e3d6000fd5b505050506040513d602081101561352557600080fd5b50516001600160a01b039081166060840152608088015160408051631e22314360e01b815290516000939290921691631e22314391600480820192602092909190829003018186803b15801561357a57600080fd5b505afa15801561358e573d6000803e3d6000fd5b505050506040513d60208110156135a457600080fd5b50516000602085015290505b8483602001511080156135d95750806001600160a01b031683606001516001600160a01b031614155b156137f357600088608001516001600160a01b031663b72703ac85606001516040518263ffffffff1660e01b815260040180826001600160a01b0316815260200191505060206040518083038186803b15801561363557600080fd5b505afa158015613649573d6000803e3d6000fd5b505050506040513d602081101561365f57600080fd5b505160608501519091506136739089612570565b6040850152608084015161376b57670f43fc2c04ee000084604001511015801561369c57508351155b156136a757506137f3565b60006136bc8560c001518660a001518b61483d565b8a5160208c01516060880151604089015189519495506136dd94868f614a48565b608081015186519195506136f19190612946565b8552608084015160a086015161370691612946565b8560a001818152505061373b84610100015161116b866040015161116b8860a001518a60c0015161294690919063ffffffff16565b60c086015261374a8685614d86565b955061375f8560c001518660a001518b614e67565b156080860152506137d5565b836080015180156137875750670f43fc2c04ee00008460400151105b156137cf576137a889600001518a6020015186606001518760000151614e88565b608081015185519194506137bc9190612946565b84526137c88584614d86565b94506137d5565b506137f3565b6001600160a01b0316606084015260208301805160010190526135b0565b505050949350505050565b613806615875565b61380e615906565b613816615875565b606e54858352600060208401526001600160a01b03165b848360200151101561391e57806001600160a01b0316634d6228316040518163ffffffff1660e01b815260040160206040518083038186803b15801561387257600080fd5b505afa158015613886573d6000803e3d6000fd5b505050506040513d602081101561389c57600080fd5b50516001600160a01b0316606084018190526138b89088612570565b60408401819052670f43fc2c04ee00001115613909576138e2898985606001518660000151614e88565b608081015184519193506138f69190612946565b83526139028483614d86565b935061390e565b61391e565b602083018051600101905261382d565b50505095945050505050565b6000610da7613944836103e8670de0b6b3a7640000613277565b66b1a2bc2ec50000615002565b3390565b600082820183811015613317576040805162461bcd60e51b815260206004820152601b60248201527f536166654d6174683a206164646974696f6e206f766572666c6f770000000000604482015290519081900360640190fd5b60006139ba306150d3565b15905090565b600254600160a81b900460ff16806139db57506139db6139af565b806139f05750600254600160a01b900460ff16155b613a2b5760405162461bcd60e51b815260040180806020018281038252602e815260200180615a02602e913960400191505060405180910390fd5b600254600160a81b900460ff16158015613a62576002805460ff60a01b1960ff60a81b19909116600160a81b1716600160a01b1790555b613a6a6150d9565b613a72615190565b8015610d58576002805460ff60a81b1916905550565b613a918b61528e565b613a9a8a61528e565b613aa38961528e565b613aac8861528e565b613ab58761528e565b613abe8661528e565b613ac78561528e565b613ad08461528e565b613ad98361528e565b613ae28261528e565b613aeb8161528e565b606780546001600160a01b03199081166001600160a01b038e81169182179093556000805483168e85161790556001805483168d85161790556068805483168c85161790556069805483168b8516179055606a805483168a8516179055600280548316898516179055606b80548316888516179055606e80548316878516179055606c80548316868516179055606d805490921692841692909217905560408051918252517f3ca631ffcd2a9b5d9ae18543fc82f58eb4ca33af9e6ab01b7a8e95331e6ed985916020908290030190a1604080516001600160a01b038c16815290517f78f058b189175430c48dc02699e3a0031ea4ff781536dc2fab847de4babdd8829181900360200190a1604080516001600160a01b038b16815290517f5ee0cae2f063ed938bb55046f6a932fb6ae792bf43624806bb90abe68a50be9b9181900360200190a1604080516001600160a01b038a16815290517f82966d27eea39b038ee0fa30cd16532bb24f6e65d31cb58fb227aa5766cdcc7f9181900360200190a1604080516001600160a01b038916815290517fcfb07d791fcafc032b35837b50eb84b74df518cf4cc287e8084f47630fa70fa09181900360200190a1604080516001600160a01b038816815290517fe67f36a6e961157d6eff83b91f3af5a62131ceb6f04954ef74f51c1c05e7f88d9181900360200190a1604080516001600160a01b038716815290517f8c537274438aa850a330284665d81a85dd38267d09e4050d416bfc94142db2649181900360200190a1604080516001600160a01b038616815290517f112220fa8dbe96141556e0dc3d74dd95075b323f4f297616048e02d82d7017159181900360200190a1604080516001600160a01b038516815290517f65f4cf077bc01e4742eb5ad98326f6e95b63548ea24b17f8d5e823111fe788009181900360200190a1604080516001600160a01b038416815290517f7b0c6ae24561d189fc90b337cbc97aa15d085bef32931237a762e3e528b285b49181900360200190a1604080516001600160a01b038316815290517ff81a824d1d9030c0365252fb96daf0565f9c2007c88e13001379dda7f06d5d5c9181900360200190a15050505050505050505050565b607580546001600160a01b0383166000908152607760209081526040918290209283556076546001909301839055925481519081529283019190915280517fc437f324d85e369394148dd9d62f98f534b382e01ed3dd2eb98138fb6d3ab49a9281900390910190a150565b6000806000613e9984611316565b90506000613ea68561279a565b6001600160a01b03861660009081526071602052604081206001015491925090613ed09084613955565b6001600160a01b03871660009081526071602052604081205491925090613ef79084613955565b919550909350505050915091565b60008115613f2b57613f24826113ba8568056bc75e2d6310000061331e565b9050610da7565b50600019610da7565b600080613f3f611bfb565b90506000613f4b611ada565b9050613f5882828661483d565b949350505050565b6611c37937e080008110801590613f7f5750670de0b6b3a76400008111155b610d585760405162461bcd60e51b8152600401808060200182810382526030815260200180615c1e6030913960400191505060405180910390fd5b606c5460408051631e425be160e11b815290516000926001600160a01b031691633c84b7c2916004808301926020929190829003018186803b158015613fff57600080fd5b505afa158015614013573d6000803e3d6000fd5b505050506040513d602081101561402957600080fd5b5051905061403a8162127500613955565b421015610d585760405162461bcd60e51b8152600401808060200182810382526040815260200180615aa86040913960400191505060405180910390fd5b670f43fc2c04ee000061408a82613f34565b1015610d585760405162461bcd60e51b815260040180806020018281038252602a815260200180615c4e602a913960400191505060405180910390fd5b60008111610d585760405162461bcd60e51b815260040180806020018281038252602e815260200180615bba602e913960400191505060405180910390fd5b80836001600160a01b03166370a08231846040518263ffffffff1660e01b815260040180826001600160a01b0316815260200191505060206040518083038186803b15801561415457600080fd5b505afa158015614168573d6000803e3d6000fd5b505050506040513d602081101561417e57600080fd5b505110156129415760405162461bcd60e51b815260040180806020018281038252604e815260200180615a30604e913960600191505060405180910390fd5b60006001600160a01b038316158061424b5750836001600160a01b0316635dbe47e8846040518263ffffffff1660e01b815260040180826001600160a01b0316815260200191505060206040518083038186803b15801561421d57600080fd5b505afa158015614231573d6000803e3d6000fd5b505050506040513d602081101561424757600080fd5b5051155b806142665750670f43fc2c04ee00006142648484612570565b105b1561427357506000613317565b6000846001600160a01b031663765e0159856040518263ffffffff1660e01b815260040180826001600160a01b0316815260200191505060206040518083038186803b1580156142c257600080fd5b505afa1580156142d6573d6000803e3d6000fd5b505050506040513d60208110156142ec57600080fd5b505190506001600160a01b0381161580611d545750670f43fc2c04ee00006143148285612570565b1095945050505050565b61432661594e565b6001600160a01b03871660009081526071602052604090205461437490879061436f907f0000000000000000000000000000000000000000000000000000000000000000612946565b615002565b80825261438f9086906113ba90670de0b6b3a764000061331e565b60208083019190915281516001600160a01b0389166000908152607190925260408220546143bc91612946565b6020808401516001600160a01b038b1660009081526071909252604082206001015492935090916143ec91612946565b90507f00000000000000000000000000000000000000000000000000000000000000008214156144b05761441f896148c0565b61442a896004614724565b6144568a8a7f0000000000000000000000000000000000000000000000000000000000000000846152e9565b886001600160a01b0316600080516020615b29833981519152600080600060036040518085815260200184815260200183815260200182600381111561449857fe5b815260200194505050505060405180910390a2614604565b60006144bc8284613f05565b905084811415806144f457507f00000000000000000000000000000000000000000000000000000000000000006144f28461548b565b105b156145085750506001604083015250614607565b60808b01516040805163015f109360e51b81526001600160a01b038d81166004830152602482018590528a81166044830152898116606483015291519190921691632be2126091608480830192600092919082900301818387803b15801561456f57600080fd5b505af1158015614583573d6000803e3d6000fd5b5050506001600160a01b038b166000908152607160205260409020848155600101839055506145b18a612a3d565b506001600160a01b038a1660008181526071602090815260409182902060020154825187815291820186905281830152600360608201529051600080516020615b298339815191529181900360800190a2505b50505b979650505050505050565b60008061461d6133de565b9050600061462f846113ba888861331e565b90506000614648614641836002613377565b8490613955565b905061465c81670de0b6b3a7640000615002565b90506000811161466857fe5b606f8190556040805182815290517fc454ee9b76c52f782a256af821b857ca6e125d1e3333bcede402fec2bed9600c9181900360200190a16113c0613422565b6000610da76125d2611242565b60006146cd836113ba86670de0b6b3a764000061331e565b905081811115613021576040805162461bcd60e51b815260206004820152601d60248201527f4665652065786365656465642070726f7669646564206d6178696d756d000000604482015290519081900360640190fd5b600081600481111561473257fe5b1415801561474c5750600181600481111561474957fe5b14155b61475257fe5b60785461475e816154b7565b6001600160a01b0383166000908152607160205260409020600301805483919060ff1916600183600481111561479057fe5b02179055506001600160a01b03831660009081526071602090815260408083206001808201859055908490556077909252822082815501556147d28382615570565b606e5460408051631484968760e11b81526001600160a01b038681166004830152915191909216916329092d0e91602480830192600092919082900301818387803b15801561482057600080fd5b505af1158015614834573d6000803e3d6000fd5b50505050505050565b6000821561485e576000614855846113ba878661331e565b91506133179050565b50600019613317565b600080614880670de0b6b3a76400006113ba868661331e565b90508281106133175760405162461bcd60e51b8152600401808060200182810382526036815260200180615be86036913960400191505060405180910390fd5b6001600160a01b0381166000908152607160205260409020600201546072546148e99082612946565b607255506001600160a01b0316600090815260716020526040812060020155565b826001600160a01b0316632a7ba1f7836040518263ffffffff1660e01b815260040180828152602001915050600060405180830381600087803b15801561495057600080fd5b505af1158015614964573d6000803e3d6000fd5b50505050836001600160a01b0316632b7c7b11836040518263ffffffff1660e01b815260040180828152602001915050600060405180830381600087803b1580156149ae57600080fd5b505af11580156149c2573d6000803e3d6000fd5b50505050826001600160a01b0316638f7be730826040518263ffffffff1660e01b815260040180828152602001915050600060405180830381600087803b15801561324357600080fd5b60008060745460001415614a21575081610da7565b600060735411614a2d57fe5b6133176074546113ba6073548661331e90919063ffffffff16565b614a50615875565b614a58615971565b607854600110614a685750614607565b614a7187611d77565b60408501526020848101919091528401819052908352614a9090615717565b604083018190527f000000000000000000000000000000000000000000000000000000000000000060608401526020830151614acb91612946565b8152670de0b6b3a76400008611614bcd57614af089898360200151846040015161490a565b614af9876148c0565b60006080830181905260a0830152815160c0830152805160e0830152614b20876003614724565b866001600160a01b031660008051602061599383398151915283600001518460200151600260405180848152602001838152602001826003811115614b6157fe5b8152602001935050505060405180910390a2866001600160a01b0316600080516020615b298339815191526000806000600260405180858152602001848152602001838152602001826003811115614bb557fe5b815260200194505050505060405180910390a2614d7a565b670de0b6b3a764000086118015614beb5750670f43fc2c04ee000086105b15614c3b57614c0489898360200151846040015161490a565b614c0d876148c0565b81518151614c1c91908761571e565b60e086015260c085015260a08401526080830152614b20876003614724565b670f43fc2c04ee00008610158015614c5257508386105b8015614c5f575081518510155b15614d6957614c7889898360200151846040015161490a565b84614c7f57fe5b614c88876148c0565b614c9b8260000151836020015185615778565b9150614ca8876003614724565b61010082015115614d2857606a5461010083015160408051633f10abab60e01b81526001600160a01b038b81166004830152602482019390935290519190921691633f10abab91604480830192600092919082900301818387803b158015614d0f57600080fd5b505af1158015614d23573d6000803e3d6000fd5b505050505b866001600160a01b031660008051602061599383398151915283600001518460a00151600260405180848152602001838152602001826003811115614b6157fe5b614d71615875565b91506146079050565b50979650505050505050565b614d8e615875565b60408083015190840151614da191613955565b604082015260608083015190840151614db991613955565b606082015281516020840151614dce91613955565b6020808301919091528201518351614de591613955565b815260808083015190840151614dfa91613955565b608082015260a08083015190840151614e1291613955565b60a082015260c08083015190840151614e2a91613955565b60c082015260e08083015190840151614e4291613955565b60e08201526101008083015190840151614e5b91613955565b61010082015292915050565b600080614e7585858561483d565b6714d1120d7b1600001195945050505050565b614e90615875565b614e98615971565b614ea184611d77565b60408501908152602085810192835286019290925291845290519051614ecb91889188919061490a565b614ed4846148c0565b614ee18260200151615717565b604083018190527f000000000000000000000000000000000000000000000000000000000000000060608401526020830151600091614f209190612946565b9050614f318360000151828661571e565b60e087015260c086015260a08501526080840152614f50856003614724565b846001600160a01b031660008051602061599383398151915284600001518560200151600160405180848152602001838152602001826003811115614f9157fe5b8152602001935050505060405180910390a2846001600160a01b0316600080516020615b298339815191526000806000600160405180858152602001848152602001838152602001826003811115614fe557fe5b815260200194505050505060405180910390a25050949350505050565b60008183106150115781613317565b5090919050565b600061124f603c6113ba6070544261294690919063ffffffff16565b6000631f54050082111561504a57631f54050091505b8161505e5750670de0b6b3a7640000610da7565b670de0b6b3a764000083835b60018111156150c95760028106615099576150858283615817565b9150615092816002613377565b90506150c4565b6150a38284615817565b92506150af8283615817565b91506150c160026113ba836001612946565b90505b61506a565b6113c08284615817565b3b151590565b600254600160a81b900460ff16806150f457506150f46139af565b806151095750600254600160a01b900460ff16155b6151445760405162461bcd60e51b815260040180806020018281038252602e815260200180615a02602e913960400191505060405180910390fd5b600254600160a81b900460ff16158015613a72576002805460ff60a01b1960ff60a81b19909116600160a81b1716600160a01b1790558015610d58576002805460ff60a81b1916905550565b600254600160a81b900460ff16806151ab57506151ab6139af565b806151c05750600254600160a01b900460ff16155b6151fb5760405162461bcd60e51b815260040180806020018281038252602e815260200180615a02602e913960400191505060405180910390fd5b600254600160a81b900460ff16158015615232576002805460ff60a01b1960ff60a81b19909116600160a81b1716600160a01b1790555b600061523c613951565b603580546001600160a01b0319166001600160a01b03831690811790915560405191925090600090600080516020615b09833981519152908290a3508015610d58576002805460ff60a81b1916905550565b6001600160a01b038116610d58576040805162461bcd60e51b815260206004820152601e60248201527f4163636f756e742063616e6e6f74206265207a65726f20616464726573730000604482015290519081900360640190fd5b6040808501516069548251632770a7eb60e21b81526001600160a01b039182166004820152602481018690529251911691639dc29fac91604480830192600092919082900301818387803b15801561534057600080fd5b505af1158015615354573d6000803e3d6000fd5b5050505083600001516001600160a01b0316632a7ba1f7836040518263ffffffff1660e01b815260040180828152602001915050600060405180830381600087803b1580156153a257600080fd5b505af11580156153b6573d6000803e3d6000fd5b505050508360a001516001600160a01b0316633f10abab84836040518363ffffffff1660e01b815260040180836001600160a01b0316815260200182815260200192505050600060405180830381600087803b15801561541557600080fd5b505af1158015615429573d6000803e3d6000fd5b5050505083600001516001600160a01b0316628063a58560a00151836040518363ffffffff1660e01b815260040180836001600160a01b0316815260200182815260200192505050600060405180830381600087803b15801561324357600080fd5b6000610da7827f0000000000000000000000000000000000000000000000000000000000000000612946565b6001811180156155355750606e546040805163de8fa43160e01b815290516001926001600160a01b03169163de8fa431916004808301926020929190829003018186803b15801561550757600080fd5b505afa15801561551b573d6000803e3d6000fd5b505050506040513d602081101561553157600080fd5b5051115b610d585760405162461bcd60e51b815260040180806020018281038252602a815260200180615a7e602a913960400191505060405180910390fd5b6001600160a01b03821660009081526071602052604081206003015460ff169081600481111561559c57fe5b141580156155b6575060018160048111156155b357fe5b14155b6155bc57fe5b6001600160a01b03831660009081526071602052604081206003015461010090046001600160801b03169083906155f4826001612946565b905080836001600160801b0316111561560957fe5b60006078828154811061561857fe5b600091825260209091200154607880546001600160a01b03909216925082916001600160801b03871690811061564a57fe5b600091825260208083209190910180546001600160a01b0319166001600160a01b03948516179055918316808252607183526040918290206003018054610100600160881b0319166101006001600160801b038a169081029190911790915582519182529281019290925280517f02b04ae5f7be9ca7c103293a2aa15f3c339d15d6eda53b721fef7b0e609c831a9281900390910190a160788054806156ec57fe5b600082815260209020810160001990810180546001600160a01b031916905501905550505050505050565b60c8900490565b60008080808415615762576157338786615002565b9350615743876113ba888761331e565b925061574f8785612946565b915061575b8684612946565b905061576f565b5060009250829150859050845b93509350935093565b615780615875565b8381526020810183905260006157a2836113ba87670f43fc2c04ee000061331e565b90506157ad81615717565b604083018190527f00000000000000000000000000000000000000000000000000000000000000006060840152608083018690526157ec908290612946565b60a08301526157fb8482612946565b61010083015250600060c0820181905260e08201529392505050565b600080615824848461331e565b9050613f58670de0b6b3a76400006113ba836706f05b59d3b20000613955565b6040518060a00160405280600081526020016000815260200160001515815260200160008152602001600081525090565b6040518061012001604052806000815260200160008152602001600081526020016000815260200160008152602001600081526020016000815260200160008152602001600081525090565b60405180610100016040528060008152602001600081526020016000815260200160008152602001600081526020016000815260200160008152602001600081525090565b6040518060e0016040528060008152602001600081526020016000815260200160006001600160a01b0316815260200160001515815260200160008152602001600081525090565b604051806060016040528060008152602001600081526020016000151581525090565b6040518060600160405280600081526020016000815260200160008152509056feea67486ed7ebe3eea8ab3390efd4a3c8aae48be5bea27df104a8af786c4084344f776e61626c653a206e6577206f776e657220697320746865207a65726f206164647265737354726f76654d616e616765723a20556e61626c6520746f2072656465656d20616e7920616d6f756e74496e697469616c697a61626c653a20636f6e747261637420697320616c726561647920696e697469616c697a656454726f76654d616e616765723a2052657175657374656420726564656d7074696f6e20616d6f756e74206d757374206265203c3d20757365722773206465627420746f6b656e2062616c616e636554726f76654d616e616765723a204f6e6c79206f6e652074726f766520696e207468652073797374656d54726f76654d616e616765723a20526564656d7074696f6e7320617265206e6f7420616c6c6f77656420647572696e6720626f6f747374726170207068617365536166654d6174683a206d756c7469706c69636174696f6e206f766572666c6f778be0079c531659141344cd1fd0a4f28419497f9722a3daafe3b4186f6b6457e0c3770d654ed33aeea6bf11ac8ef05d02a6a04ed4686dd2f624d853bbec43cc8b54726f76654d616e616765723a2043616c6c6572206973206e6f742074686520426f72726f7765724f7065726174696f6e7320636f6e747261637454726f76654d616e616765723a2043616c6c646174612061646472657373206172726179206d757374206e6f7420626520656d70747954726f76654d616e616765723a20416d6f756e74206d7573742062652067726561746572207468616e207a65726f54726f76654d616e616765723a2046656520776f756c642065617420757020616c6c2072657475726e656420636f6c6c61746572616c4d6178206665652070657263656e74616765206d757374206265206265747765656e20302e352520616e64203130302554726f76654d616e616765723a2043616e6e6f742072656465656d207768656e20544352203c204d435254726f76654d616e616765723a206e6f7468696e6720746f206c697175696461746554726f76654d616e616765723a2054726f766520646f6573206e6f74206578697374206f7220697320636c6f736564a2646970667358221220f9f60ce79b38ee4cff920f4a265724b1187ccfef700ab60a07202bf2066593fe64736f6c63430007060033",
  "linkReferences": {},
  "deployedLinkReferences": {}
}