{
  "_format": "hh-sol-artifact-1",
  "contractName": "TroveManager",
  "sourceName": "contracts/TroveManager.sol",
  "abi": [
    {
      "inputs": [
        {
          "internalType": "uint256",
          "name": "_gasCompensation",
          "type": "uint256"
        },
        {
          "internalType": "uint256",
          "name": "_minNetDebt",
          "type": "uint256"
        },
        {
          "internalType": "uint256",
          "name": "_bootstrapPeriod",
          "type": "uint256"
        }
      ],
      "stateMutability": "nonpayable",
      "type": "constructor"
    },
    {
      "anonymous": false,
      "inputs": [
        {
          "indexed": false,
          "internalType": "address",
          "name": "_activePoolAddress",
          "type": "address"
        }
      ],
      "name": "ActivePoolAddressChanged",
      "type": "event"
    },
    {
      "anonymous": false,
      "inputs": [
        {
          "indexed": false,
          "internalType": "uint256",
          "name": "_baseRate",
          "type": "uint256"
        }
      ],
      "name": "BaseRateUpdated",
      "type": "event"
    },
    {
      "anonymous": false,
      "inputs": [
        {
          "indexed": false,
          "internalType": "address",
          "name": "_newBorrowerOperationsAddress",
          "type": "address"
        }
      ],
      "name": "BorrowerOperationsAddressChanged",
      "type": "event"
    },
    {
      "anonymous": false,
      "inputs": [
        {
          "indexed": false,
          "internalType": "address",
          "name": "_collSurplusPoolAddress",
          "type": "address"
        }
      ],
      "name": "CollSurplusPoolAddressChanged",
      "type": "event"
    },
    {
      "anonymous": false,
      "inputs": [
        {
          "indexed": false,
          "internalType": "address",
          "name": "_newDebtTokenAddress",
          "type": "address"
        }
      ],
      "name": "DebtTokenAddressChanged",
      "type": "event"
    },
    {
      "anonymous": false,
      "inputs": [
        {
          "indexed": false,
          "internalType": "address",
          "name": "_defaultPoolAddress",
          "type": "address"
        }
      ],
      "name": "DefaultPoolAddressChanged",
      "type": "event"
    },
    {
      "anonymous": false,
      "inputs": [
        {
          "indexed": false,
          "internalType": "address",
          "name": "_gasPoolAddress",
          "type": "address"
        }
      ],
      "name": "GasPoolAddressChanged",
      "type": "event"
    },
    {
      "anonymous": false,
      "inputs": [
        {
          "indexed": false,
          "internalType": "uint256",
          "name": "_L_FIL",
          "type": "uint256"
        },
        {
          "indexed": false,
          "internalType": "uint256",
          "name": "_L_Debt",
          "type": "uint256"
        }
      ],
      "name": "LTermsUpdated",
      "type": "event"
    },
    {
      "anonymous": false,
      "inputs": [
        {
          "indexed": false,
          "internalType": "uint256",
          "name": "_lastFeeOpTime",
          "type": "uint256"
        }
      ],
      "name": "LastFeeOpTimeUpdated",
      "type": "event"
    },
    {
      "anonymous": false,
      "inputs": [
        {
          "indexed": false,
          "internalType": "uint256",
          "name": "_liquidatedDebt",
          "type": "uint256"
        },
        {
          "indexed": false,
          "internalType": "uint256",
          "name": "_liquidatedColl",
          "type": "uint256"
        },
        {
          "indexed": false,
          "internalType": "uint256",
          "name": "_collGasCompensation",
          "type": "uint256"
        },
        {
          "indexed": false,
          "internalType": "uint256",
          "name": "_debtGasCompensation",
          "type": "uint256"
        }
      ],
      "name": "Liquidation",
      "type": "event"
    },
    {
      "anonymous": false,
      "inputs": [
        {
          "indexed": true,
          "internalType": "address",
          "name": "previousOwner",
          "type": "address"
        },
        {
          "indexed": true,
          "internalType": "address",
          "name": "newOwner",
          "type": "address"
        }
      ],
      "name": "OwnershipTransferred",
      "type": "event"
    },
    {
      "anonymous": false,
      "inputs": [
        {
          "indexed": false,
          "internalType": "address",
          "name": "_newPriceFeedAddress",
          "type": "address"
        }
      ],
      "name": "PriceFeedAddressChanged",
      "type": "event"
    },
    {
      "anonymous": false,
      "inputs": [
        {
          "indexed": false,
          "internalType": "address",
          "name": "_protocolTokenStakingAddress",
          "type": "address"
        }
      ],
      "name": "ProtocolTokenStakingAddressChanged",
      "type": "event"
    },
    {
      "anonymous": false,
      "inputs": [
        {
          "indexed": false,
          "internalType": "uint256",
          "name": "_attemptedDebtTokenAmount",
          "type": "uint256"
        },
        {
          "indexed": false,
          "internalType": "uint256",
          "name": "_actualDebtTokenAmount",
          "type": "uint256"
        },
        {
          "indexed": false,
          "internalType": "uint256",
          "name": "_FILSent",
          "type": "uint256"
        },
        {
          "indexed": false,
          "internalType": "uint256",
          "name": "_FILFee",
          "type": "uint256"
        }
      ],
      "name": "Redemption",
      "type": "event"
    },
    {
      "anonymous": false,
      "inputs": [
        {
          "indexed": false,
          "internalType": "address",
          "name": "_sortedTrovesAddress",
          "type": "address"
        }
      ],
      "name": "SortedTrovesAddressChanged",
      "type": "event"
    },
    {
      "anonymous": false,
      "inputs": [
        {
          "indexed": false,
          "internalType": "address",
          "name": "_stabilityPoolAddress",
          "type": "address"
        }
      ],
      "name": "StabilityPoolAddressChanged",
      "type": "event"
    },
    {
      "anonymous": false,
      "inputs": [
        {
          "indexed": false,
          "internalType": "uint256",
          "name": "_totalStakesSnapshot",
          "type": "uint256"
        },
        {
          "indexed": false,
          "internalType": "uint256",
          "name": "_totalCollateralSnapshot",
          "type": "uint256"
        }
      ],
      "name": "SystemSnapshotsUpdated",
      "type": "event"
    },
    {
      "anonymous": false,
      "inputs": [
        {
          "indexed": false,
          "internalType": "uint256",
          "name": "_newTotalStakes",
          "type": "uint256"
        }
      ],
      "name": "TotalStakesUpdated",
      "type": "event"
    },
    {
      "anonymous": false,
      "inputs": [
        {
          "indexed": false,
          "internalType": "address",
          "name": "_borrower",
          "type": "address"
        },
        {
          "indexed": false,
          "internalType": "uint256",
          "name": "_newIndex",
          "type": "uint256"
        }
      ],
      "name": "TroveIndexUpdated",
      "type": "event"
    },
    {
      "anonymous": false,
      "inputs": [
        {
          "indexed": true,
          "internalType": "address",
          "name": "_borrower",
          "type": "address"
        },
        {
          "indexed": false,
          "internalType": "uint256",
          "name": "_debt",
          "type": "uint256"
        },
        {
          "indexed": false,
          "internalType": "uint256",
          "name": "_coll",
          "type": "uint256"
        },
        {
          "indexed": false,
          "internalType": "enum ITroveManager.TroveManagerOperation",
          "name": "_operation",
          "type": "uint8"
        }
      ],
      "name": "TroveLiquidated",
      "type": "event"
    },
    {
      "anonymous": false,
      "inputs": [
        {
          "indexed": false,
          "internalType": "uint256",
          "name": "_L_FIL",
          "type": "uint256"
        },
        {
          "indexed": false,
          "internalType": "uint256",
          "name": "_L_Debt",
          "type": "uint256"
        }
      ],
      "name": "TroveSnapshotsUpdated",
      "type": "event"
    },
    {
      "anonymous": false,
      "inputs": [
        {
          "indexed": true,
          "internalType": "address",
          "name": "_borrower",
          "type": "address"
        },
        {
          "indexed": false,
          "internalType": "uint256",
          "name": "_debt",
          "type": "uint256"
        },
        {
          "indexed": false,
          "internalType": "uint256",
          "name": "_coll",
          "type": "uint256"
        },
        {
          "indexed": false,
          "internalType": "uint256",
          "name": "stake",
          "type": "uint256"
        },
        {
          "indexed": false,
          "internalType": "enum ITroveManager.TroveManagerOperation",
          "name": "_operation",
          "type": "uint8"
        }
      ],
      "name": "TroveUpdated",
      "type": "event"
    },
    {
      "inputs": [],
      "name": "BETA",
      "outputs": [
        {
          "internalType": "uint256",
          "name": "",
          "type": "uint256"
        }
      ],
      "stateMutability": "view",
      "type": "function"
    },
    {
      "inputs": [],
      "name": "BOOTSTRAP_PERIOD",
      "outputs": [
        {
          "internalType": "uint256",
          "name": "",
          "type": "uint256"
        }
      ],
      "stateMutability": "view",
      "type": "function"
    },
    {
      "inputs": [],
      "name": "BORROWING_FEE_FLOOR",
      "outputs": [
        {
          "internalType": "uint256",
          "name": "",
          "type": "uint256"
        }
      ],
      "stateMutability": "view",
      "type": "function"
    },
    {
      "inputs": [],
      "name": "CCR",
      "outputs": [
        {
          "internalType": "uint256",
          "name": "",
          "type": "uint256"
        }
      ],
      "stateMutability": "view",
      "type": "function"
    },
    {
      "inputs": [],
      "name": "DECIMAL_PRECISION",
      "outputs": [
        {
          "internalType": "uint256",
          "name": "",
          "type": "uint256"
        }
      ],
      "stateMutability": "view",
      "type": "function"
    },
    {
      "inputs": [],
      "name": "GAS_COMPENSATION",
      "outputs": [
        {
          "internalType": "uint256",
          "name": "",
          "type": "uint256"
        }
      ],
      "stateMutability": "view",
      "type": "function"
    },
    {
      "inputs": [],
      "name": "L_Debt",
      "outputs": [
        {
          "internalType": "uint256",
          "name": "",
          "type": "uint256"
        }
      ],
      "stateMutability": "view",
      "type": "function"
    },
    {
      "inputs": [],
      "name": "L_FIL",
      "outputs": [
        {
          "internalType": "uint256",
          "name": "",
          "type": "uint256"
        }
      ],
      "stateMutability": "view",
      "type": "function"
    },
    {
      "inputs": [],
      "name": "MAX_BORROWING_FEE",
      "outputs": [
        {
          "internalType": "uint256",
          "name": "",
          "type": "uint256"
        }
      ],
      "stateMutability": "view",
      "type": "function"
    },
    {
      "inputs": [],
      "name": "MCR",
      "outputs": [
        {
          "internalType": "uint256",
          "name": "",
          "type": "uint256"
        }
      ],
      "stateMutability": "view",
      "type": "function"
    },
    {
      "inputs": [],
      "name": "MINUTE_DECAY_FACTOR",
      "outputs": [
        {
          "internalType": "uint256",
          "name": "",
          "type": "uint256"
        }
      ],
      "stateMutability": "view",
      "type": "function"
    },
    {
      "inputs": [],
      "name": "MIN_NET_DEBT",
      "outputs": [
        {
          "internalType": "uint256",
          "name": "",
          "type": "uint256"
        }
      ],
      "stateMutability": "view",
      "type": "function"
    },
    {
      "inputs": [],
      "name": "NAME",
      "outputs": [
        {
          "internalType": "string",
          "name": "",
          "type": "string"
        }
      ],
      "stateMutability": "view",
      "type": "function"
    },
    {
      "inputs": [],
      "name": "PERCENT_DIVISOR",
      "outputs": [
        {
          "internalType": "uint256",
          "name": "",
          "type": "uint256"
        }
      ],
      "stateMutability": "view",
      "type": "function"
    },
    {
      "inputs": [],
      "name": "REDEMPTION_FEE_FLOOR",
      "outputs": [
        {
          "internalType": "uint256",
          "name": "",
          "type": "uint256"
        }
      ],
      "stateMutability": "view",
      "type": "function"
    },
    {
      "inputs": [
        {
          "internalType": "uint256",
          "name": "",
          "type": "uint256"
        }
      ],
      "name": "TroveOwners",
      "outputs": [
        {
          "internalType": "address",
          "name": "",
          "type": "address"
        }
      ],
      "stateMutability": "view",
      "type": "function"
    },
    {
      "inputs": [
        {
          "internalType": "address",
          "name": "",
          "type": "address"
        }
      ],
      "name": "Troves",
      "outputs": [
        {
          "internalType": "uint256",
          "name": "debt",
          "type": "uint256"
        },
        {
          "internalType": "uint256",
          "name": "coll",
          "type": "uint256"
        },
        {
          "internalType": "uint256",
          "name": "stake",
          "type": "uint256"
        },
        {
          "internalType": "enum ITroveManager.Status",
          "name": "status",
          "type": "uint8"
        },
        {
          "internalType": "uint128",
          "name": "arrayIndex",
          "type": "uint128"
        }
      ],
      "stateMutability": "view",
      "type": "function"
    },
    {
      "inputs": [],
      "name": "_100pct",
      "outputs": [
        {
          "internalType": "uint256",
          "name": "",
          "type": "uint256"
        }
      ],
      "stateMutability": "view",
      "type": "function"
    },
    {
      "inputs": [],
      "name": "activePool",
      "outputs": [
        {
          "internalType": "contract IActivePool",
          "name": "",
          "type": "address"
        }
      ],
      "stateMutability": "view",
      "type": "function"
    },
    {
      "inputs": [
        {
          "internalType": "address",
          "name": "_borrower",
          "type": "address"
        }
      ],
      "name": "addTroveOwnerToArray",
      "outputs": [
        {
          "internalType": "uint256",
          "name": "index",
          "type": "uint256"
        }
      ],
      "stateMutability": "nonpayable",
      "type": "function"
    },
    {
      "inputs": [
        {
          "internalType": "address",
          "name": "_borrower",
          "type": "address"
        }
      ],
      "name": "applyPendingRewards",
      "outputs": [],
      "stateMutability": "nonpayable",
      "type": "function"
    },
    {
      "inputs": [],
      "name": "baseRate",
      "outputs": [
        {
          "internalType": "uint256",
          "name": "",
          "type": "uint256"
        }
      ],
      "stateMutability": "view",
      "type": "function"
    },
    {
      "inputs": [
        {
          "internalType": "address[]",
          "name": "_troveArray",
          "type": "address[]"
        }
      ],
      "name": "batchLiquidateTroves",
      "outputs": [],
      "stateMutability": "nonpayable",
      "type": "function"
    },
    {
      "inputs": [],
      "name": "borrowerOperationsAddress",
      "outputs": [
        {
          "internalType": "address",
          "name": "",
          "type": "address"
        }
      ],
      "stateMutability": "view",
      "type": "function"
    },
    {
      "inputs": [
        {
          "internalType": "uint256",
          "name": "_price",
          "type": "uint256"
        }
      ],
      "name": "checkRecoveryMode",
      "outputs": [
        {
          "internalType": "bool",
          "name": "",
          "type": "bool"
        }
      ],
      "stateMutability": "view",
      "type": "function"
    },
    {
      "inputs": [
        {
          "internalType": "address",
          "name": "_borrower",
          "type": "address"
        }
      ],
      "name": "closeTrove",
      "outputs": [],
      "stateMutability": "nonpayable",
      "type": "function"
    },
    {
      "inputs": [],
      "name": "collSurplusPool",
      "outputs": [
        {
          "internalType": "contract ICollSurplusPool",
          "name": "",
          "type": "address"
        }
      ],
      "stateMutability": "view",
      "type": "function"
    },
    {
      "inputs": [],
      "name": "debtToken",
      "outputs": [
        {
          "internalType": "contract IDebtToken",
          "name": "",
          "type": "address"
        }
      ],
      "stateMutability": "view",
      "type": "function"
    },
    {
      "inputs": [],
      "name": "decayBaseRateFromBorrowing",
      "outputs": [],
      "stateMutability": "nonpayable",
      "type": "function"
    },
    {
      "inputs": [
        {
          "internalType": "address",
          "name": "_borrower",
          "type": "address"
        },
        {
          "internalType": "uint256",
          "name": "_collDecrease",
          "type": "uint256"
        }
      ],
      "name": "decreaseTroveColl",
      "outputs": [
        {
          "internalType": "uint256",
          "name": "",
          "type": "uint256"
        }
      ],
      "stateMutability": "nonpayable",
      "type": "function"
    },
    {
      "inputs": [
        {
          "internalType": "address",
          "name": "_borrower",
          "type": "address"
        },
        {
          "internalType": "uint256",
          "name": "_debtDecrease",
          "type": "uint256"
        }
      ],
      "name": "decreaseTroveDebt",
      "outputs": [
        {
          "internalType": "uint256",
          "name": "",
          "type": "uint256"
        }
      ],
      "stateMutability": "nonpayable",
      "type": "function"
    },
    {
      "inputs": [],
      "name": "defaultPool",
      "outputs": [
        {
          "internalType": "contract IDefaultPool",
          "name": "",
          "type": "address"
        }
      ],
      "stateMutability": "view",
      "type": "function"
    },
    {
      "inputs": [],
      "name": "deploymentStartTime",
      "outputs": [
        {
          "internalType": "uint256",
          "name": "",
          "type": "uint256"
        }
      ],
      "stateMutability": "view",
      "type": "function"
    },
    {
      "inputs": [],
      "name": "gasPoolAddress",
      "outputs": [
        {
          "internalType": "address",
          "name": "",
          "type": "address"
        }
      ],
      "stateMutability": "view",
      "type": "function"
    },
    {
      "inputs": [
        {
          "internalType": "uint256",
          "name": "_debt",
          "type": "uint256"
        }
      ],
      "name": "getBorrowingFee",
      "outputs": [
        {
          "internalType": "uint256",
          "name": "",
          "type": "uint256"
        }
      ],
      "stateMutability": "view",
      "type": "function"
    },
    {
      "inputs": [
        {
          "internalType": "uint256",
          "name": "_debt",
          "type": "uint256"
        }
      ],
      "name": "getBorrowingFeeWithDecay",
      "outputs": [
        {
          "internalType": "uint256",
          "name": "",
          "type": "uint256"
        }
      ],
      "stateMutability": "view",
      "type": "function"
    },
    {
      "inputs": [],
      "name": "getBorrowingRate",
      "outputs": [
        {
          "internalType": "uint256",
          "name": "",
          "type": "uint256"
        }
      ],
      "stateMutability": "view",
      "type": "function"
    },
    {
      "inputs": [],
      "name": "getBorrowingRateWithDecay",
      "outputs": [
        {
          "internalType": "uint256",
          "name": "",
          "type": "uint256"
        }
      ],
      "stateMutability": "view",
      "type": "function"
    },
    {
      "inputs": [
        {
          "internalType": "address",
          "name": "_borrower",
          "type": "address"
        },
        {
          "internalType": "uint256",
          "name": "_price",
          "type": "uint256"
        }
      ],
      "name": "getCurrentICR",
      "outputs": [
        {
          "internalType": "uint256",
          "name": "",
          "type": "uint256"
        }
      ],
      "stateMutability": "view",
      "type": "function"
    },
    {
      "inputs": [
        {
          "internalType": "address",
          "name": "_borrower",
          "type": "address"
        }
      ],
      "name": "getEntireDebtAndColl",
      "outputs": [
        {
          "internalType": "uint256",
          "name": "debt",
          "type": "uint256"
        },
        {
          "internalType": "uint256",
          "name": "coll",
          "type": "uint256"
        },
        {
          "internalType": "uint256",
          "name": "pendingDebtReward",
          "type": "uint256"
        },
        {
          "internalType": "uint256",
          "name": "pendingFILReward",
          "type": "uint256"
        }
      ],
      "stateMutability": "view",
      "type": "function"
    },
    {
      "inputs": [],
      "name": "getEntireSystemColl",
      "outputs": [
        {
          "internalType": "uint256",
          "name": "entireSystemColl",
          "type": "uint256"
        }
      ],
      "stateMutability": "view",
      "type": "function"
    },
    {
      "inputs": [],
      "name": "getEntireSystemDebt",
      "outputs": [
        {
          "internalType": "uint256",
          "name": "entireSystemDebt",
          "type": "uint256"
        }
      ],
      "stateMutability": "view",
      "type": "function"
    },
    {
      "inputs": [
        {
          "internalType": "address",
          "name": "_borrower",
          "type": "address"
        }
      ],
      "name": "getNominalICR",
      "outputs": [
        {
          "internalType": "uint256",
          "name": "",
          "type": "uint256"
        }
      ],
      "stateMutability": "view",
      "type": "function"
    },
    {
      "inputs": [
        {
          "internalType": "address",
          "name": "_borrower",
          "type": "address"
        }
      ],
      "name": "getPendingDebtReward",
      "outputs": [
        {
          "internalType": "uint256",
          "name": "",
          "type": "uint256"
        }
      ],
      "stateMutability": "view",
      "type": "function"
    },
    {
      "inputs": [
        {
          "internalType": "address",
          "name": "_borrower",
          "type": "address"
        }
      ],
      "name": "getPendingFILReward",
      "outputs": [
        {
          "internalType": "uint256",
          "name": "",
          "type": "uint256"
        }
      ],
      "stateMutability": "view",
      "type": "function"
    },
    {
      "inputs": [
        {
          "internalType": "uint256",
          "name": "_FILDrawn",
          "type": "uint256"
        }
      ],
      "name": "getRedemptionFeeWithDecay",
      "outputs": [
        {
          "internalType": "uint256",
          "name": "",
          "type": "uint256"
        }
      ],
      "stateMutability": "view",
      "type": "function"
    },
    {
      "inputs": [],
      "name": "getRedemptionRate",
      "outputs": [
        {
          "internalType": "uint256",
          "name": "",
          "type": "uint256"
        }
      ],
      "stateMutability": "view",
      "type": "function"
    },
    {
      "inputs": [],
      "name": "getRedemptionRateWithDecay",
      "outputs": [
        {
          "internalType": "uint256",
          "name": "",
          "type": "uint256"
        }
      ],
      "stateMutability": "view",
      "type": "function"
    },
    {
      "inputs": [
        {
          "internalType": "uint256",
          "name": "_price",
          "type": "uint256"
        }
      ],
      "name": "getTCR",
      "outputs": [
        {
          "internalType": "uint256",
          "name": "",
          "type": "uint256"
        }
      ],
      "stateMutability": "view",
      "type": "function"
    },
    {
      "inputs": [
        {
          "internalType": "address",
          "name": "_borrower",
          "type": "address"
        }
      ],
      "name": "getTroveColl",
      "outputs": [
        {
          "internalType": "uint256",
          "name": "",
          "type": "uint256"
        }
      ],
      "stateMutability": "view",
      "type": "function"
    },
    {
      "inputs": [
        {
          "internalType": "address",
          "name": "_borrower",
          "type": "address"
        }
      ],
      "name": "getTroveDebt",
      "outputs": [
        {
          "internalType": "uint256",
          "name": "",
          "type": "uint256"
        }
      ],
      "stateMutability": "view",
      "type": "function"
    },
    {
      "inputs": [
        {
          "internalType": "uint256",
          "name": "_index",
          "type": "uint256"
        }
      ],
      "name": "getTroveFromTroveOwnersArray",
      "outputs": [
        {
          "internalType": "address",
          "name": "",
          "type": "address"
        }
      ],
      "stateMutability": "view",
      "type": "function"
    },
    {
      "inputs": [],
      "name": "getTroveOwnersCount",
      "outputs": [
        {
          "internalType": "uint256",
          "name": "",
          "type": "uint256"
        }
      ],
      "stateMutability": "view",
      "type": "function"
    },
    {
      "inputs": [
        {
          "internalType": "address",
          "name": "_borrower",
          "type": "address"
        }
      ],
      "name": "getTroveStake",
      "outputs": [
        {
          "internalType": "uint256",
          "name": "",
          "type": "uint256"
        }
      ],
      "stateMutability": "view",
      "type": "function"
    },
    {
      "inputs": [
        {
          "internalType": "address",
          "name": "_borrower",
          "type": "address"
        }
      ],
      "name": "getTroveStatus",
      "outputs": [
        {
          "internalType": "uint256",
          "name": "",
          "type": "uint256"
        }
      ],
      "stateMutability": "view",
      "type": "function"
    },
    {
      "inputs": [
        {
          "internalType": "address",
          "name": "_borrower",
          "type": "address"
        }
      ],
      "name": "hasPendingRewards",
      "outputs": [
        {
          "internalType": "bool",
          "name": "",
          "type": "bool"
        }
      ],
      "stateMutability": "view",
      "type": "function"
    },
    {
      "inputs": [
        {
          "internalType": "address",
          "name": "_borrower",
          "type": "address"
        },
        {
          "internalType": "uint256",
          "name": "_collIncrease",
          "type": "uint256"
        }
      ],
      "name": "increaseTroveColl",
      "outputs": [
        {
          "internalType": "uint256",
          "name": "",
          "type": "uint256"
        }
      ],
      "stateMutability": "nonpayable",
      "type": "function"
    },
    {
      "inputs": [
        {
          "internalType": "address",
          "name": "_borrower",
          "type": "address"
        },
        {
          "internalType": "uint256",
          "name": "_debtIncrease",
          "type": "uint256"
        }
      ],
      "name": "increaseTroveDebt",
      "outputs": [
        {
          "internalType": "uint256",
          "name": "",
          "type": "uint256"
        }
      ],
      "stateMutability": "nonpayable",
      "type": "function"
    },
    {
      "inputs": [
        {
          "internalType": "address",
          "name": "_borrowerOperationsAddress",
          "type": "address"
        },
        {
          "internalType": "address",
          "name": "_activePoolAddress",
          "type": "address"
        },
        {
          "internalType": "address",
          "name": "_defaultPoolAddress",
          "type": "address"
        },
        {
          "internalType": "address",
          "name": "_stabilityPoolAddress",
          "type": "address"
        },
        {
          "internalType": "address",
          "name": "_gasPoolAddress",
          "type": "address"
        },
        {
          "internalType": "address",
          "name": "_collSurplusPoolAddress",
          "type": "address"
        },
        {
          "internalType": "address",
          "name": "_priceFeedAddress",
          "type": "address"
        },
        {
          "internalType": "address",
          "name": "_debtTokenAddress",
          "type": "address"
        },
        {
          "internalType": "address",
          "name": "_sortedTrovesAddress",
          "type": "address"
        },
        {
          "internalType": "address",
          "name": "_protocolTokenStakingAddress",
          "type": "address"
        }
      ],
      "name": "initialize",
      "outputs": [],
      "stateMutability": "nonpayable",
      "type": "function"
    },
    {
      "inputs": [],
      "name": "lastFILError_Redistribution",
      "outputs": [
        {
          "internalType": "uint256",
          "name": "",
          "type": "uint256"
        }
      ],
      "stateMutability": "view",
      "type": "function"
    },
    {
      "inputs": [],
      "name": "lastFeeOperationTime",
      "outputs": [
        {
          "internalType": "uint256",
          "name": "",
          "type": "uint256"
        }
      ],
      "stateMutability": "view",
      "type": "function"
    },
    {
      "inputs": [],
      "name": "lastLDebtError_Redistribution",
      "outputs": [
        {
          "internalType": "uint256",
          "name": "",
          "type": "uint256"
        }
      ],
      "stateMutability": "view",
      "type": "function"
    },
    {
      "inputs": [
        {
          "internalType": "address",
          "name": "_borrower",
          "type": "address"
        }
      ],
      "name": "liquidate",
      "outputs": [],
      "stateMutability": "nonpayable",
      "type": "function"
    },
    {
      "inputs": [
        {
          "internalType": "uint256",
          "name": "_n",
          "type": "uint256"
        }
      ],
      "name": "liquidateTroves",
      "outputs": [],
      "stateMutability": "nonpayable",
      "type": "function"
    },
    {
      "inputs": [],
      "name": "owner",
      "outputs": [
        {
          "internalType": "address",
          "name": "",
          "type": "address"
        }
      ],
      "stateMutability": "view",
      "type": "function"
    },
    {
      "inputs": [],
      "name": "priceFeed",
      "outputs": [
        {
          "internalType": "contract IPriceFeed",
          "name": "",
          "type": "address"
        }
      ],
      "stateMutability": "view",
      "type": "function"
    },
    {
      "inputs": [],
      "name": "protocolTokenStaking",
      "outputs": [
        {
          "internalType": "contract IProtocolTokenStaking",
          "name": "",
          "type": "address"
        }
      ],
      "stateMutability": "view",
      "type": "function"
    },
    {
      "inputs": [
        {
          "internalType": "uint256",
          "name": "_debtTokenAmount",
          "type": "uint256"
        },
        {
          "internalType": "address",
          "name": "_firstRedemptionHint",
          "type": "address"
        },
        {
          "internalType": "address",
          "name": "_upperPartialRedemptionHint",
          "type": "address"
        },
        {
          "internalType": "address",
          "name": "_lowerPartialRedemptionHint",
          "type": "address"
        },
        {
          "internalType": "uint256",
          "name": "_partialRedemptionHintNICR",
          "type": "uint256"
        },
        {
          "internalType": "uint256",
          "name": "_maxIterations",
          "type": "uint256"
        },
        {
          "internalType": "uint256",
          "name": "_maxFeePercentage",
          "type": "uint256"
        }
      ],
      "name": "redeemCollateral",
      "outputs": [],
      "stateMutability": "nonpayable",
      "type": "function"
    },
    {
      "inputs": [
        {
          "internalType": "address",
          "name": "_borrower",
          "type": "address"
        }
      ],
      "name": "removeStake",
      "outputs": [],
      "stateMutability": "nonpayable",
      "type": "function"
    },
    {
      "inputs": [],
      "name": "renounceOwnership",
      "outputs": [],
      "stateMutability": "nonpayable",
      "type": "function"
    },
    {
      "inputs": [
        {
          "internalType": "address",
          "name": "",
          "type": "address"
        }
      ],
      "name": "rewardSnapshots",
      "outputs": [
        {
          "internalType": "uint256",
          "name": "FIL",
          "type": "uint256"
        },
        {
          "internalType": "uint256",
          "name": "debt",
          "type": "uint256"
        }
      ],
      "stateMutability": "view",
      "type": "function"
    },
    {
      "inputs": [
        {
          "internalType": "address",
          "name": "_borrower",
          "type": "address"
        },
        {
          "internalType": "uint256",
          "name": "_num",
          "type": "uint256"
        }
      ],
      "name": "setTroveStatus",
      "outputs": [],
      "stateMutability": "nonpayable",
      "type": "function"
    },
    {
      "inputs": [],
      "name": "sortedTroves",
      "outputs": [
        {
          "internalType": "contract ISortedTroves",
          "name": "",
          "type": "address"
        }
      ],
      "stateMutability": "view",
      "type": "function"
    },
    {
      "inputs": [],
      "name": "stabilityPool",
      "outputs": [
        {
          "internalType": "contract IStabilityPool",
          "name": "",
          "type": "address"
        }
      ],
      "stateMutability": "view",
      "type": "function"
    },
    {
      "inputs": [],
      "name": "totalCollateralSnapshot",
      "outputs": [
        {
          "internalType": "uint256",
          "name": "",
          "type": "uint256"
        }
      ],
      "stateMutability": "view",
      "type": "function"
    },
    {
      "inputs": [],
      "name": "totalStakes",
      "outputs": [
        {
          "internalType": "uint256",
          "name": "",
          "type": "uint256"
        }
      ],
      "stateMutability": "view",
      "type": "function"
    },
    {
      "inputs": [],
      "name": "totalStakesSnapshot",
      "outputs": [
        {
          "internalType": "uint256",
          "name": "",
          "type": "uint256"
        }
      ],
      "stateMutability": "view",
      "type": "function"
    },
    {
      "inputs": [
        {
          "internalType": "address",
          "name": "newOwner",
          "type": "address"
        }
      ],
      "name": "transferOwnership",
      "outputs": [],
      "stateMutability": "nonpayable",
      "type": "function"
    },
    {
      "inputs": [
        {
          "internalType": "address",
          "name": "_borrower",
          "type": "address"
        }
      ],
      "name": "updateStakeAndTotalStakes",
      "outputs": [
        {
          "internalType": "uint256",
          "name": "",
          "type": "uint256"
        }
      ],
      "stateMutability": "nonpayable",
      "type": "function"
    },
    {
      "inputs": [
        {
          "internalType": "address",
          "name": "_borrower",
          "type": "address"
        }
      ],
      "name": "updateTroveRewardSnapshots",
      "outputs": [],
      "stateMutability": "nonpayable",
      "type": "function"
    }
  ],
  "bytecode": "0x6101006040523480156200001257600080fd5b50604051620060b4380380620060b4833981810160405260608110156200003857600080fd5b5080516020820151604090920151608082905260a0839052603254919291610100900460ff16806200006f57506200006f6200010d565b806200007e575060325460ff16155b620000bb5760405162461bcd60e51b815260040180806020018281038252602e81526020018062006086602e913960400191505060405180910390fd5b603254610100900460ff16158015620000e7576032805460ff1961ff0019909116610100171660011790555b60e08290524260c052801562000103576032805461ff00191690555b5050505062000131565b600062000125306200012b60201b6200292f1760201c565b15905090565b3b151590565b60805160a05160c05160e051615eed62000199600039806126255280613cc85250806128ed5280613ca7525080610e3b528061417c525080610dc75280613ffd52806140a252806140e35280614bf6528061504752806153da52806159855250615eed6000f3fe608060405234801561001057600080fd5b50600436106104805760003560e01c8063795d26c311610257578063c52861f211610146578063e2ac77b0116100c3578063f8d8989811610087578063f8d8989814610cf9578063f92d343314610693578063fdf27dba14610d01578063fe2ba84814610d09578063fe9d032314610d2f57610480565b8063e2ac77b014610c77578063e545242314610c9d578063f2fde38b14610ca5578063f36b242514610ccb578063f59fac2d14610cd357610480565b8063d380a37c1161010a578063d380a37c14610be3578063d3d6f84314610beb578063d5b3563514610c17578063d66a255314610c34578063d9a7244414610c5a57610480565b8063c52861f214610b79578063c7b5548114610b81578063cbd138ae14610b89578063cda775f914610baf578063d293c71014610bb757610480565b8063a3f4df7e116101d4578063b91af97c11610198578063b91af97c14610a5e578063bcd3752614610aaa578063bf9befb114610af8578063c306b37814610b00578063c35bc55014610b7157610480565b8063a3f4df7e1461098e578063ae91875414610a0b578063b0d8e18114610a13578063b7f8cf9b14610a39578063b82f263d14610a4157610480565b80638da5cb5b1161021b5780638da5cb5b1461094a57806396d711ff146109525780639976cf451461095a578063a0d8d6bc14610986578063a20baee6146108c757610480565b8063795d26c3146109045780637f7dde4a1461090c578063807d138d1461091457806382fe3eb91461091c578063887105d31461094257610480565b8063480cd57811610373578063653d46e7116102f057806372fe25aa116102b457806372fe25aa146108c757806373098be9146108cf578063741bef1a146108d7578063756b253e146108df578063794e5724146108fc57610480565b8063653d46e71461080257806366ca4a211461081f5780636ef6433814610827578063715018a61461089357806372423c171461089b57610480565b80635733d58f116103375780635733d58f146107835780635d6b480f1461078b5780635dba4c4a146107b7578063631203b0146107bf57806364cee260146107dc57610480565b8063480cd578146106f65780634870dd9a1461071c57806349eefeee146107245780634e443d9e1461072c57806352512eaa1461075d57610480565b80631f68f20a116104015780632b11551a116103c55780632b11551a1461069b5780632f865568146106a357806331eaf05c146106c95780633cc74225146106d1578063477d66cf146106d957610480565b80631f68f20a1461065557806321e378011461065d578063240926691461068357806326b4d8fd1461068b57806328d28b5b1461069357610480565b806315d549f11161044857806315d549f11461051f5780631673c79a1461054557806318f2817a146105845780631bf43555146105aa5780631e8b1c2b146105b257610480565b8063048c661d14610485578063071a7541146104a95780630b076557146104c357806312610e92146104eb578063139f2e8c14610517575b600080fd5b61048d610d37565b604080516001600160a01b039092168252519081900360200190f35b6104b1610d46565b60408051918252519081900360200190f35b6104e9600480360360208110156104d957600080fd5b50356001600160a01b0316610d4b565b005b6104b16004803603604081101561050157600080fd5b506001600160a01b038135169060200135610d73565b6104b1610dc5565b6104b16004803603602081101561053557600080fd5b50356001600160a01b0316610de9565b61056b6004803603602081101561055b57600080fd5b50356001600160a01b0316610e0d565b6040805192835260208301919091528051918290030190f35b6104b16004803603602081101561059a57600080fd5b50356001600160a01b0316610e26565b6104b1610e39565b6104e9600480360360208110156105c857600080fd5b8101906020810181356401000000008111156105e357600080fd5b8201836020820111156105f557600080fd5b8035906020019184602083028401116401000000008311171561061757600080fd5b919080806020026020016040519081016040528093929190818152602001838360200280828437600092019190915250929550610e5d945050505050565b6104b1611241565b6104b16004803603602081101561067357600080fd5b50356001600160a01b0316611247565b6104b1611271565b6104b1611284565b6104b161128a565b6104b161129b565b6104e9600480360360208110156106b957600080fd5b50356001600160a01b03166112ad565b6104b1611313565b61048d611319565b6104b1600480360360208110156106ef57600080fd5b5035611328565b6104b16004803603602081101561070c57600080fd5b50356001600160a01b031661133b565b6104b1611359565b6104b161135e565b6107496004803603602081101561074257600080fd5b5035611364565b604080519115158252519081900360200190f35b6104b16004803603602081101561077357600080fd5b50356001600160a01b031661136f565b6104b1611423565b6104e9600480360360408110156107a157600080fd5b506001600160a01b03813516906020013561142f565b6104e961147b565b6104b1600480360360208110156107d557600080fd5b50356114e1565b6104b1600480360360208110156107f257600080fd5b50356001600160a01b03166114ee565b6104e96004803603602081101561081857600080fd5b503561150c565b6104b16118f9565b61084d6004803603602081101561083d57600080fd5b50356001600160a01b031661190b565b6040518086815260200185815260200184815260200183600481111561086f57fe5b8152602001826001600160801b031681526020019550505050505060405180910390f35b6104e9611945565b6104b1600480360360408110156108b157600080fd5b506001600160a01b0381351690602001356119f1565b6104b1611a48565b6104b1611a54565b61048d611a5a565b61048d600480360360208110156108f557600080fd5b5035611a69565b6104b1611a93565b6104b1611a9f565b61048d611b9a565b6104b1611ba9565b6104e96004803603602081101561093257600080fd5b50356001600160a01b0316611baf565b6104b1611bc0565b61048d611c7c565b6104b1611c8b565b6104b16004803603604081101561097057600080fd5b506001600160a01b038135169060200135611c91565b6104b1611cbe565b610996611cc4565b6040805160208082528351818301528351919283929083019185019080838360005b838110156109d05781810151838201526020016109b8565b50505050905090810190601f1680156109fd5780820380516001836020036101000a031916815260200191505b509250505060405180910390f35b61048d611cec565b6104b160048036036020811015610a2957600080fd5b50356001600160a01b0316611cfb565b61048d611d22565b6104b160048036036020811015610a5757600080fd5b5035611d31565b610a8460048036036020811015610a7457600080fd5b50356001600160a01b0316611d3c565b604080519485526020850193909352838301919091526060830152519081900360800190f35b6104e9600480360360e0811015610ac057600080fd5b508035906001600160a01b03602082013581169160408101358216916060820135169060808101359060a08101359060c00135611d94565b6104b1612547565b6104e96004803603610140811015610b1757600080fd5b506001600160a01b038135811691602081013582169160408201358116916060810135821691608082013581169160a081013582169160c082013581169160e081013582169161010082013581169161012001351661254d565b6104b1612623565b6104b1612647565b6104b1612659565b6104e960048036036020811015610b9f57600080fd5b50356001600160a01b0316612665565b61048d612678565b6104b160048036036040811015610bcd57600080fd5b506001600160a01b038135169060200135612687565b6104b16126a6565b6104b160048036036040811015610c0157600080fd5b506001600160a01b0381351690602001356126ac565b6104b160048036036020811015610c2d57600080fd5b50356126dc565b6104b160048036036020811015610c4a57600080fd5b50356001600160a01b03166126ef565b61048d60048036036020811015610c7057600080fd5b503561270a565b61074960048036036020811015610c8d57600080fd5b50356001600160a01b0316612734565b61048d612792565b6104e960048036036020811015610cbb57600080fd5b50356001600160a01b03166127a1565b6104b16128a4565b6104b160048036036020811015610ce957600080fd5b50356001600160a01b03166128b1565b61048d6128dc565b6104b16128eb565b6104e960048036036020811015610d1f57600080fd5b50356001600160a01b031661290f565b61048d612920565b60cc546001600160a01b031681565b600281565b610d53612935565b600054600154610d70916001600160a01b03908116911683612980565b50565b6000610d7d612935565b6001600160a01b038316600090815260d36020526040812054610da09084612a96565b6001600160a01b038516600090815260d3602052604090208190559150505b92915050565b7f000000000000000000000000000000000000000000000000000000000000000081565b6000610df3612935565b610dfc82612af3565b6001600160801b031690505b919050565b60d9602052600090815260409020805460019091015482565b6000610e30612935565b610dbf82612b8d565b7f000000000000000000000000000000000000000000000000000000000000000081565b60026097541415610ea3576040805162461bcd60e51b815260206004820152601f6024820152600080516020615b82833981519152604482015290519081900360640190fd5b60026097558051610ee55760405162461bcd60e51b8152600401808060200182810382526036815260200180615d736036913960400191505060405180910390fd5b60005460015460cc546001600160a01b03928316929182169116610f07615a13565b610f0f615a44565b60ce60009054906101000a90046001600160a01b03166001600160a01b0316630fdb11cf6040518163ffffffff1660e01b8152600401602060405180830381600087803b158015610f5f57600080fd5b505af1158015610f73573d6000803e3d6000fd5b505050506040513d6020811015610f8957600080fd5b5051825260408051630d9a6b3560e01b815290516001600160a01b03851691630d9a6b35916004808301926020929190829003018186803b158015610fcd57600080fd5b505afa158015610fe1573d6000803e3d6000fd5b505050506040513d6020811015610ff757600080fd5b50516020830152815161100990612c30565b15801560408401526110315761102a8585846000015185602001518a612c4d565b9050611049565b6110468585846000015185602001518a612e6b565b90505b600081602001511161108c5760405162461bcd60e51b8152600401808060200182810382526022815260200180615e676022913960400191505060405180910390fd5b826001600160a01b031663335525ad82608001518360a001516040518363ffffffff1660e01b81526004018083815260200182815260200192505050600060405180830381600087803b1580156110e257600080fd5b505af11580156110f6573d6000803e3d6000fd5b5050505061110e85858360c001518460e00151612f2d565b6101008101511561118b5760cb5461010082015160408051628063a560e01b81526001600160a01b03938416600482015260248101929092525191871691628063a59160448082019260009290919082900301818387803b15801561117257600080fd5b505af1158015611186573d6000803e3d6000fd5b505050505b611199858260400151613180565b60208101516060830152610100810151604082015182516111c592916111bf9190612a96565b90612a96565b608080840182905260608085015160408086015186840151825193845260208401969096528282015291810193909352517f4152c73dd2614c4f9fc35e8c9cf16013cd588c75b49a4c1673ecffdcbcda94039281900390910190a16112348533836060015184604001516132c1565b5050600160975550505050565b60d15481565b6001600160a01b038116600090815260d3602052604081206003015460ff166004811115610dbf57fe5b6064670de0b6b3a76400005b0460050281565b60dc5481565b6103e8670de0b6b3a764000061127d565b60006112a860d1546133ba565b905090565b6112b6816133f0565b6040805160018082528183019092526000916020808301908036833701905050905081816000815181106112e657fe5b60200260200101906001600160a01b031690816001600160a01b03168152505061130f81610e5d565b5050565b60d85481565b6001546001600160a01b031681565b6000610dbf6113356118f9565b83613458565b6001600160a01b0316600090815260d3602052604090206001015490565b60c881565b60da5490565b6000610dbf82612c30565b6001600160a01b038116600090815260d9602052604081205460d75482906113979083612a96565b90508015806113d0575060016001600160a01b038516600090815260d3602052604090206003015460ff1660048111156113cd57fe5b14155b156113e057600092505050610e08565b6001600160a01b038416600090815260d3602052604081206002015490611419670de0b6b3a76400006114138486613477565b906134d0565b9695505050505050565b6714d1120d7b16000081565b611437612935565b80600481111561144357fe5b6001600160a01b038316600090815260d360205260409020600301805460ff1916600183600481111561147257fe5b02179055505050565b611483612935565b600061148d613537565b9050670de0b6b3a76400008111156114a157fe5b60d18190556040805182815290517fc454ee9b76c52f782a256af821b857ca6e125d1e3333bcede402fec2bed9600c9181900360200190a1610d7061357b565b6000610dbf6113356128a4565b6001600160a01b0316600090815260d3602052604090206002015490565b60026097541415611552576040805162461bcd60e51b815260206004820152601f6024820152600080516020615b82833981519152604482015290519081900360640190fd5b60026097556040805160e081018252600080546001600160a01b039081168352600154811660208401529282018190526060820181905260d0548316608083015260a0820181905260c082015260cc549091166115ad615a13565b6115b5615a44565b60ce60009054906101000a90046001600160a01b03166001600160a01b0316630fdb11cf6040518163ffffffff1660e01b8152600401602060405180830381600087803b15801561160557600080fd5b505af1158015611619573d6000803e3d6000fd5b505050506040513d602081101561162f57600080fd5b5051825260408051630d9a6b3560e01b815290516001600160a01b03851691630d9a6b35916004808301926020929190829003018186803b15801561167357600080fd5b505afa158015611687573d6000803e3d6000fd5b505050506040513d602081101561169d57600080fd5b5051602083015281516116af90612c30565b15801560408401526116d6576116cf8483600001518460200151886135d7565b90506116f6565b6116f3846000015185602001518460000151856020015189613957565b90505b60008160200151116117395760405162461bcd60e51b8152600401808060200182810382526022815260200180615e676022913960400191505060405180910390fd5b826001600160a01b031663335525ad82608001518360a001516040518363ffffffff1660e01b81526004018083815260200182815260200192505050600060405180830381600087803b15801561178f57600080fd5b505af11580156117a3573d6000803e3d6000fd5b505050506117c3846000015185602001518360c001518460e00151612f2d565b6101008101511561184257835160cb5461010083015160408051628063a560e01b81526001600160a01b0393841660048201526024810192909252519190921691628063a591604480830192600092919082900301818387803b15801561182957600080fd5b505af115801561183d573d6000803e3d6000fd5b505050505b61185484600001518260400151613180565b602081015160608301526101008101516040820151825161187a92916111bf9190612a96565b608080840182905260608085015160408086015186840151825193845260208401969096528282015291810193909352517f4152c73dd2614c4f9fc35e8c9cf16013cd588c75b49a4c1673ecffdcbcda94039281900390910190a16118ed846000015133836060015184604001516132c1565b50506001609755505050565b60006112a8611906613537565b613a83565b60d36020526000908152604090208054600182015460028301546003909301549192909160ff81169061010090046001600160801b031685565b61194d613aaa565b6001600160a01b031661195e611c7c565b6001600160a01b0316146119b9576040805162461bcd60e51b815260206004820181905260248201527f4f776e61626c653a2063616c6c6572206973206e6f7420746865206f776e6572604482015290519081900360640190fd5b6065546040516000916001600160a01b031690600080516020615cf8833981519152908390a3606580546001600160a01b0319169055565b60006119fb612935565b6001600160a01b038316600090815260d36020526040812060010154611a219084613aae565b6001600160a01b038516600090815260d36020526040902060010181905591505092915050565b670de0b6b3a764000081565b60d75481565b60ce546001600160a01b031681565b60da8181548110611a7957600080fd5b6000918252602090912001546001600160a01b0316905081565b670f43fc2c04ee000081565b60008054604080516314a6bf0f60e01b8152905183926001600160a01b0316916314a6bf0f916004808301926020929190829003018186803b158015611ae457600080fd5b505afa158015611af8573d6000803e3d6000fd5b505050506040513d6020811015611b0e57600080fd5b5051600154604080516314a6bf0f60e01b815290519293506000926001600160a01b03909216916314a6bf0f91600480820192602092909190829003018186803b158015611b5b57600080fd5b505afa158015611b6f573d6000803e3d6000fd5b505050506040513d6020811015611b8557600080fd5b50519050611b938282613aae565b9250505090565b6000546001600160a01b031681565b60d55481565b611bb7612935565b610d7081613b08565b60008054604080516362e1c9bf60e11b8152905183926001600160a01b03169163c5c3937e916004808301926020929190829003018186803b158015611c0557600080fd5b505afa158015611c19573d6000803e3d6000fd5b505050506040513d6020811015611c2f57600080fd5b5051600154604080516362e1c9bf60e11b815290519293506000926001600160a01b039092169163c5c3937e91600480820192602092909190829003018186803b158015611b5b57600080fd5b6065546001600160a01b031690565b60d65481565b6000611c9b612935565b6001600160a01b038316600090815260d36020526040812054610da09084613aae565b60db5481565b6040518060400160405280600c81526020016b2a3937bb32a6b0b730b3b2b960a11b81525081565b60d0546001600160a01b031681565b6000806000611d0984613b73565b915091506000611d198383613bed565b95945050505050565b60c9546001600160a01b031681565b6000610dbf82613c1c565b6001600160a01b038116600090815260d3602052604081208054600190910154909180611d68856128b1565b9150611d738561136f565b9050611d7f8483613aae565b9350611d8b8382613aae565b92509193509193565b60026097541415611dda576040805162461bcd60e51b815260206004820152601f6024820152600080516020615b82833981519152604482015290519081900360640190fd5b60026097556040805160e0810182526000546001600160a01b0390811682526001548116602083015260cd5481169282019290925260cf548216606082015260d0548216608082015260cb54821660a082015260ca5490911660c0820152611e40615a90565b611e4983613c48565b611e51613ca2565b60ce60009054906101000a90046001600160a01b03166001600160a01b0316630fdb11cf6040518163ffffffff1660e01b8152600401602060405180830381600087803b158015611ea157600080fd5b505af1158015611eb5573d6000803e3d6000fd5b505050506040513d6020811015611ecb57600080fd5b505160c08201819052611edd90613d2a565b611ee689613d79565b611ef58260400151338b613db8565b611efd611a9f565b60e0820181905260408084015181516370a0823160e01b815233600482015291516001600160a01b03909116916370a08231916024808301926020929190829003018186803b158015611f4f57600080fd5b505afa158015611f63573d6000803e3d6000fd5b505050506040513d6020811015611f7957600080fd5b50511115611f8357fe5b888152608082015160c0820151600091611f9e918b90613e6f565b15611faa5750876120cb565b82608001516001600160a01b0316634d6228316040518163ffffffff1660e01b815260040160206040518083038186803b158015611fe757600080fd5b505afa158015611ffb573d6000803e3d6000fd5b505050506040513d602081101561201157600080fd5b505190505b6001600160a01b038116158015906120425750670f43fc2c04ee0000612040828460c00151612687565b105b156120cb5782608001516001600160a01b031663b72703ac826040518263ffffffff1660e01b815260040180826001600160a01b0316815260200191505060206040518083038186803b15801561209857600080fd5b505afa1580156120ac573d6000803e3d6000fd5b505050506040513d60208110156120c257600080fd5b50519050612016565b846120d65760001994505b6001600160a01b038116158015906120ee5750815115155b80156120fa5750600085115b1561220d57848060019003955050600083608001516001600160a01b031663b72703ac836040518263ffffffff1660e01b815260040180826001600160a01b0316815260200191505060206040518083038186803b15801561215b57600080fd5b505afa15801561216f573d6000803e3d6000fd5b505050506040513d602081101561218557600080fd5b50518451602086015191925061219b9184612980565b60006121b4858486600001518760c001518e8e8e613fd0565b90508060400151156121c757505061220d565b805160208501516121d791613aae565b60208086019190915281015160408501516121f191613aae565b60408501528051845161220391612a96565b84525090506120d6565b60008260400151116122505760405162461bcd60e51b8152600401808060200182810382526029815260200180615bc86029913960400191505060405180910390fd5b61226782604001518360c001518460e001516142c4565b50612275826040015161435a565b60608301819052604083015161228c919086614367565b82600001516001600160a01b0316628063a5846060015184606001516040518363ffffffff1660e01b815260040180836001600160a01b0316815260200182815260200192505050600060405180830381600087803b1580156122ee57600080fd5b505af1158015612302573d6000803e3d6000fd5b5050505082606001516001600160a01b031663c91d2d3883606001516040518263ffffffff1660e01b815260040180828152602001915050600060405180830381600087803b15801561235457600080fd5b505af1158015612368573d6000803e3d6000fd5b505050506060820151604083015161237f91612a96565b8260800181815250507f43a3f4082a4dbc33d78e317d2497d3a730bc7fc3574159dcea1056e62e5d9ad88a8360200151846040015185606001516040518085815260200184815260200183815260200182815260200194505050505060405180910390a182604001516001600160a01b0316639dc29fac3384602001516040518363ffffffff1660e01b815260040180836001600160a01b0316815260200182815260200192505050600060405180830381600087803b15801561244257600080fd5b505af1158015612456573d6000803e3d6000fd5b5050505082600001516001600160a01b0316632a7ba1f783602001516040518263ffffffff1660e01b815260040180828152602001915050600060405180830381600087803b1580156124a857600080fd5b505af11580156124bc573d6000803e3d6000fd5b5050505082600001516001600160a01b0316628063a53384608001516040518363ffffffff1660e01b815260040180836001600160a01b0316815260200182815260200192505050600060405180830381600087803b15801561251e57600080fd5b505af1158015612532573d6000803e3d6000fd5b50506001609755505050505050505050505050565b60d45481565b603254610100900460ff168061256657506125666143d6565b80612574575060325460ff16155b6125af5760405162461bcd60e51b815260040180806020018281038252602e815260200180615bf1602e913960400191505060405180910390fd5b603254610100900460ff161580156125da576032805460ff1961ff0019909116610100171660011790555b6125e26143e7565b6125ea614498565b6125f48a8a61452d565b6126048b898989898989896145df565b8015612616576032805461ff00191690555b5050505050505050505050565b7f000000000000000000000000000000000000000000000000000000000000000081565b60006112a8612654613537565b6133ba565b670ddd4b8c6c7d70d881565b61266d612935565b610d70816002614881565b60cb546001600160a01b031681565b600080600061269585613b73565b91509150600061141983838761499a565b60d25481565b60006126b6612935565b6001600160a01b038316600090815260d36020526040812060010154611a219084612a96565b6000610dbf6126e9612647565b836149c4565b6001600160a01b0316600090815260d3602052604090205490565b600060da828154811061271957fe5b6000918252602090912001546001600160a01b031692915050565b600060016001600160a01b038316600090815260d3602052604090206003015460ff16600481111561276257fe5b1461276f57506000610e08565b5060d7546001600160a01b038216600090815260d9602052604090205410919050565b60cf546001600160a01b031681565b6127a9613aaa565b6001600160a01b03166127ba611c7c565b6001600160a01b031614612815576040805162461bcd60e51b815260206004820181905260248201527f4f776e61626c653a2063616c6c6572206973206e6f7420746865206f776e6572604482015290519081900360640190fd5b6001600160a01b03811661285a5760405162461bcd60e51b8152600401808060200182810382526026815260200180615ba26026913960400191505060405180910390fd5b6065546040516001600160a01b03808416921690600080516020615cf883398151915290600090a3606580546001600160a01b0319166001600160a01b0392909216919091179055565b60006112a860d154613a83565b6001600160a01b038116600090815260d9602052604081206001015460d85482906113979083612a96565b60cd546001600160a01b031681565b7f000000000000000000000000000000000000000000000000000000000000000081565b612917612935565b610d7081614a1d565b60ca546001600160a01b031681565b3b151590565b60c9546001600160a01b0316331461297e5760405162461bcd60e51b815260040180806020018281038252603b815260200180615d38603b913960400191505060405180910390fd5b565b61298981612734565b15612a9157612997816133f0565b60006129a28261136f565b905060006129af836128b1565b6001600160a01b038416600090815260d360205260409020600101549091506129d89083613aae565b6001600160a01b038416600090815260d360205260409020600181019190915554612a039082613aae565b6001600160a01b038416600090815260d36020526040902055612a2583613b08565b612a3185858385614a67565b6001600160a01b038316600081815260d360209081526040808320805460018201546002909201548351918252938101919091528082019290925260608201929092529051600080516020615d188339815191529181900360800190a250505b505050565b600082821115612aed576040805162461bcd60e51b815260206004820152601e60248201527f536166654d6174683a207375627472616374696f6e206f766572666c6f770000604482015290519081900360640190fd5b50900390565b60da80546001808201835560008381527fb3d6e86317c38844915b053a0c35ff2fc103b684e96cef2918ab06844eb51aaf90920180546001600160a01b0319166001600160a01b03861617905591549091612b4e9190612a96565b6001600160a01b0392909216600090815260d3602052604090206003018054610100600160881b0319166101006001600160801b038516021790555090565b6001600160a01b038116600090815260d360205260408120600101548190612bb490614b69565b6001600160a01b038416600090815260d36020526040902060020180549082905560d45491925090612bf2908390612bec9084612a96565b90613aae565b60d481905560408051918252517f6bac5e0eb3c44eb03a60ab11ec3a2c051771616aecadbcfff2630aabae5203829181900360200190a15092915050565b600080612c3c83613c1c565b6714d1120d7b160000119392505050565b612c55615a44565b612c5d615ad5565b612c65615a44565b84825260006080830152612c77611a9f565b60a0830152612c84611bc0565b60c0830152600060208301525b835182602001511015612e605783826020015181518110612cae57fe5b6020908102919091018101516001600160a01b031660608401819052600090815260d3909152604090206003015460019060ff166004811115612ced57fe5b14612cf757612e50565b612d05826060015187612687565b60408301526080820151612df857670f43fc2c04ee0000826040015110158015612d2e57508151155b15612d3857612e50565b6000612d4d8360c001518460a001518961499a565b9050612d6a8989856060015186604001518760000151868d614ba5565b60808101518451919350612d7e9190612a96565b8352608082015160a0840151612d9391612a96565b8360a0018181525050612dc88261010001516111bf84604001516111bf8660a001518860c00151612a9690919063ffffffff16565b60c0840152612dd78483614ee3565b9350612dec8360c001518460a0015189614fc4565b15608084015250612e50565b81608001518015612e145750670f43fc2c04ee00008260400151105b15612e5057612e2d888884606001518560000151614fe5565b60808101518351919250612e419190612a96565b8252612e4d8382614ee3565b92505b6020820180516001019052612c91565b505095945050505050565b612e73615a44565b612e7b615ad5565b612e83615a44565b848252600060208301525b835182602001511015612e605783826020015181518110612eab57fe5b60209081029190910101516001600160a01b031660608301819052612ed09087612687565b60408301819052670f43fc2c04ee00001115612f1d57612efa888884606001518560000151614fe5565b60808101518351919250612f0e9190612a96565b8252612f1a8382614ee3565b92505b6020820180516001019052612e8e565b81612f375761317a565b60db54600090612f5390612bec84670de0b6b3a7640000613477565b90506000612f7860dc54612bec670de0b6b3a76400008761347790919063ffffffff16565b90506000612f9160d454846134d090919063ffffffff16565b90506000612faa60d454846134d090919063ffffffff16565b9050612fcb612fc460d4548461347790919063ffffffff16565b8590612a96565b60db5560d454612fe790612fe0908390613477565b8490612a96565b60dc5560d754612ff79083613aae565b60d75560d8546130079082613aae565b60d881905560d75460408051918252602082019290925281517f9f8bc8ab0daf5bceef75ecfd2085d1fcc6548c657ea970d9a23a60610d0737e3929181900390910190a1876001600160a01b0316632a7ba1f7876040518263ffffffff1660e01b815260040180828152602001915050600060405180830381600087803b15801561309157600080fd5b505af11580156130a5573d6000803e3d6000fd5b50505050866001600160a01b0316632b7c7b11876040518263ffffffff1660e01b815260040180828152602001915050600060405180830381600087803b1580156130ef57600080fd5b505af1158015613103573d6000803e3d6000fd5b50505050876001600160a01b0316628063a588876040518363ffffffff1660e01b815260040180836001600160a01b0316815260200182815260200192505050600060405180830381600087803b15801561315d57600080fd5b505af1158015613171573d6000803e3d6000fd5b50505050505050505b50505050565b60d45460d5819055506000826001600160a01b031663c5c3937e6040518163ffffffff1660e01b815260040160206040518083038186803b1580156131c457600080fd5b505afa1580156131d8573d6000803e3d6000fd5b505050506040513d60208110156131ee57600080fd5b5051600154604080516362e1c9bf60e11b815290519293506000926001600160a01b039092169163c5c3937e91600480820192602092909190829003018186803b15801561323b57600080fd5b505afa15801561324f573d6000803e3d6000fd5b505050506040513d602081101561326557600080fd5b5051905061327781612bec8486612a96565b60d681905560d55460408051918252602082019290925281517f51bf4c63ec3cba9d03d43238abbdd979dd91bd16d9895c74ceea9118c7baaf60929181900390910190a150505050565b81156133405760cd5460ca5460408051631062c15f60e11b81526001600160a01b039283166004820152868316602482015260448101869052905191909216916320c582be91606480830192600092919082900301818387803b15801561332757600080fd5b505af115801561333b573d6000803e3d6000fd5b505050505b801561317a57836001600160a01b0316628063a584836040518363ffffffff1660e01b815260040180836001600160a01b0316815260200182815260200192505050600060405180830381600087803b15801561339c57600080fd5b505af11580156133b0573d6000803e3d6000fd5b5050505050505050565b6000610dbf6133e2836103e8670de0b6b3a76400005b04600502613aae90919063ffffffff16565b670de0b6b3a764000061515f565b60016001600160a01b038216600090815260d3602052604090206003015460ff16600481111561341c57fe5b14610d705760405162461bcd60e51b815260040180806020018281038252602f815260200180615e89602f913960400191505060405180910390fd5b6000613470670de0b6b3a76400006114138585613477565b9392505050565b60008261348657506000610dbf565b8282028284828161349357fe5b04146134705760405162461bcd60e51b8152600401808060200182810382526021815260200180615cd76021913960400191505060405180910390fd5b6000808211613526576040805162461bcd60e51b815260206004820152601a60248201527f536166654d6174683a206469766973696f6e206279207a65726f000000000000604482015290519081900360640190fd5b81838161352f57fe5b049392505050565b600080613542615175565b90506000613558670ddd4b8c6c7d70d883615191565b9050611b93670de0b6b3a76400006114138360d15461347790919063ffffffff16565b600061359260d25442612a9690919063ffffffff16565b9050603c8110610d70574260d281905560408051918252517f860f8d2f0c74dd487e89e2883e3b25b8159ce1e1b3433a291cba7b82c508f3bc9181900360200190a150565b6135df615a44565b6135e7615ad5565b6135ef615a44565b84825260006080830152613601611a9f565b60a083015261360e611bc0565b8260c001818152505086608001516001600160a01b0316634d6228316040518163ffffffff1660e01b815260040160206040518083038186803b15801561365457600080fd5b505afa158015613668573d6000803e3d6000fd5b505050506040513d602081101561367e57600080fd5b50516001600160a01b039081166060840152608088015160408051631e22314360e01b815290516000939290921691631e22314391600480820192602092909190829003018186803b1580156136d357600080fd5b505afa1580156136e7573d6000803e3d6000fd5b505050506040513d60208110156136fd57600080fd5b50516000602085015290505b8483602001511080156137325750806001600160a01b031683606001516001600160a01b031614155b1561394c57600088608001516001600160a01b031663b72703ac85606001516040518263ffffffff1660e01b815260040180826001600160a01b0316815260200191505060206040518083038186803b15801561378e57600080fd5b505afa1580156137a2573d6000803e3d6000fd5b505050506040513d60208110156137b857600080fd5b505160608501519091506137cc9089612687565b604085015260808401516138c457670f43fc2c04ee00008460400151101580156137f557508351155b15613800575061394c565b60006138158560c001518660a001518b61499a565b8a5160208c015160608801516040890151895194955061383694868f614ba5565b6080810151865191955061384a9190612a96565b8552608084015160a086015161385f91612a96565b8560a00181815250506138948461010001516111bf86604001516111bf8860a001518a60c00151612a9690919063ffffffff16565b60c08601526138a38685614ee3565b95506138b88560c001518660a001518b614fc4565b1560808601525061392e565b836080015180156138e05750670f43fc2c04ee00008460400151105b156139285761390189600001518a6020015186606001518760000151614fe5565b608081015185519194506139159190612a96565b84526139218584614ee3565b945061392e565b5061394c565b6001600160a01b031660608401526020830180516001019052613709565b505050949350505050565b61395f615a44565b613967615ad5565b61396f615a44565b60d054858352600060208401526001600160a01b03165b8483602001511015613a7757806001600160a01b0316634d6228316040518163ffffffff1660e01b815260040160206040518083038186803b1580156139cb57600080fd5b505afa1580156139df573d6000803e3d6000fd5b505050506040513d60208110156139f557600080fd5b50516001600160a01b031660608401819052613a119088612687565b60408401819052670f43fc2c04ee00001115613a6257613a3b898985606001518660000151614fe5565b60808101518451919350613a4f9190612a96565b8352613a5b8483614ee3565b9350613a67565b613a77565b6020830180516001019052613986565b50505095945050505050565b6000610dbf613a9d836103e8670de0b6b3a76400006133d0565b66b1a2bc2ec5000061515f565b3390565b600082820183811015613470576040805162461bcd60e51b815260206004820152601b60248201527f536166654d6174683a206164646974696f6e206f766572666c6f770000000000604482015290519081900360640190fd5b60d780546001600160a01b038316600090815260d9602090815260409182902092835560d8546001909301839055925481519081529283019190915280517fc437f324d85e369394148dd9d62f98f534b382e01ed3dd2eb98138fb6d3ab49a9281900390910190a150565b6000806000613b818461136f565b90506000613b8e856128b1565b6001600160a01b038616600090815260d3602052604081206001015491925090613bb89084613aae565b6001600160a01b038716600090815260d3602052604081205491925090613bdf9084613aae565b919550909350505050915091565b60008115613c1357613c0c826114138568056bc75e2d63100000613477565b9050610dbf565b50600019610dbf565b600080613c27611bc0565b90506000613c33611a9f565b9050613c4082828661499a565b949350505050565b6611c37937e080008110801590613c675750670de0b6b3a76400008111155b610d705760405162461bcd60e51b8152600401808060200182810382526030815260200180615e0d6030913960400191505060405180910390fd5b613cec7f00000000000000000000000000000000000000000000000000000000000000007f0000000000000000000000000000000000000000000000000000000000000000613aae565b42101561297e5760405162461bcd60e51b8152600401808060200182810382526040815260200180615c976040913960400191505060405180910390fd5b670f43fc2c04ee0000613d3c82613c1c565b1015610d705760405162461bcd60e51b815260040180806020018281038252602a815260200180615e3d602a913960400191505060405180910390fd5b60008111610d705760405162461bcd60e51b815260040180806020018281038252602e815260200180615da9602e913960400191505060405180910390fd5b80836001600160a01b03166370a08231846040518263ffffffff1660e01b815260040180826001600160a01b0316815260200191505060206040518083038186803b158015613e0657600080fd5b505afa158015613e1a573d6000803e3d6000fd5b505050506040513d6020811015613e3057600080fd5b50511015612a915760405162461bcd60e51b815260040180806020018281038252604e815260200180615c1f604e913960600191505060405180910390fd5b60006001600160a01b0383161580613efd5750836001600160a01b0316635dbe47e8846040518263ffffffff1660e01b815260040180826001600160a01b0316815260200191505060206040518083038186803b158015613ecf57600080fd5b505afa158015613ee3573d6000803e3d6000fd5b505050506040513d6020811015613ef957600080fd5b5051155b80613f185750670f43fc2c04ee0000613f168484612687565b105b15613f2557506000613470565b6000846001600160a01b031663765e0159856040518263ffffffff1660e01b815260040180826001600160a01b0316815260200191505060206040518083038186803b158015613f7457600080fd5b505afa158015613f88573d6000803e3d6000fd5b505050506040513d6020811015613f9e57600080fd5b505190506001600160a01b0381161580611d195750670f43fc2c04ee0000613fc68285612687565b1095945050505050565b613fd8615b1d565b6001600160a01b038716600090815260d36020526040902054614026908790614021907f0000000000000000000000000000000000000000000000000000000000000000612a96565b61515f565b80825261404190869061141390670de0b6b3a7640000613477565b60208083019190915281516001600160a01b038916600090815260d3909252604082205461406e91612a96565b6020808401516001600160a01b038b16600090815260d39092526040822060010154929350909161409e91612a96565b90507f0000000000000000000000000000000000000000000000000000000000000000821415614162576140d189614a1d565b6140dc896004614881565b6141088a8a7f000000000000000000000000000000000000000000000000000000000000000084615230565b886001600160a01b0316600080516020615d18833981519152600080600060036040518085815260200184815260200183815260200182600381111561414a57fe5b815260200194505050505060405180910390a26142b6565b600061416e8284613bed565b905084811415806141a657507f00000000000000000000000000000000000000000000000000000000000000006141a4846153d2565b105b156141ba57505060016040830152506142b9565b60808b01516040805163015f109360e51b81526001600160a01b038d81166004830152602482018590528a81166044830152898116606483015291519190921691632be2126091608480830192600092919082900301818387803b15801561422157600080fd5b505af1158015614235573d6000803e3d6000fd5b5050506001600160a01b038b16600090815260d360205260409020848155600101839055506142638a612b8d565b506001600160a01b038a16600081815260d3602090815260409182902060020154825187815291820186905281830152600360608201529051600080516020615d188339815191529181900360800190a2505b50505b979650505050505050565b6000806142cf613537565b905060006142e1846114138888613477565b905060006142fa6142f38360026134d0565b8490613aae565b905061430e81670de0b6b3a764000061515f565b90506000811161431a57fe5b60d18190556040805182815290517fc454ee9b76c52f782a256af821b857ca6e125d1e3333bcede402fec2bed9600c9181900360200190a161141961357b565b6000610dbf6126e961129b565b600061437f8361141386670de0b6b3a7640000613477565b90508181111561317a576040805162461bcd60e51b815260206004820152601d60248201527f4665652065786365656465642070726f7669646564206d6178696d756d000000604482015290519081900360640190fd5b60006143e13061292f565b15905090565b603254610100900460ff168061440057506144006143d6565b8061440e575060325460ff16155b6144495760405162461bcd60e51b815260040180806020018281038252602e815260200180615bf1602e913960400191505060405180910390fd5b603254610100900460ff16158015614474576032805460ff1961ff0019909116610100171660011790555b61447c6153fe565b61448461549e565b8015610d70576032805461ff001916905550565b603254610100900460ff16806144b157506144b16143d6565b806144bf575060325460ff16155b6144fa5760405162461bcd60e51b815260040180806020018281038252602e815260200180615bf1602e913960400191505060405180910390fd5b603254610100900460ff16158015614525576032805460ff1961ff0019909116610100171660011790555b614484615585565b6145368261562b565b61453f8161562b565b600080546001600160a01b038085166001600160a01b03199283168117909355600180549185169190921617905560408051918252517f78f058b189175430c48dc02699e3a0031ea4ff781536dc2fab847de4babdd8829181900360200190a1604080516001600160a01b038316815290517f5ee0cae2f063ed938bb55046f6a932fb6ae792bf43624806bb90abe68a50be9b9181900360200190a15050565b6145e88861562b565b6145f18761562b565b6145fa8661562b565b6146038561562b565b61460c8461562b565b6146158361562b565b61461e8261562b565b6146278161562b565b60c980546001600160a01b03199081166001600160a01b038b811691821790935560cc805483168b851617905560ca805483168a851617905560cb8054831689851617905560ce8054831688851617905560cd8054831687851617905560d08054831686851617905560cf805490921692841692909217905560408051918252517f3ca631ffcd2a9b5d9ae18543fc82f58eb4ca33af9e6ab01b7a8e95331e6ed985916020908290030190a1604080516001600160a01b038916815290517f82966d27eea39b038ee0fa30cd16532bb24f6e65d31cb58fb227aa5766cdcc7f9181900360200190a1604080516001600160a01b038816815290517fcfb07d791fcafc032b35837b50eb84b74df518cf4cc287e8084f47630fa70fa09181900360200190a1604080516001600160a01b038716815290517fe67f36a6e961157d6eff83b91f3af5a62131ceb6f04954ef74f51c1c05e7f88d9181900360200190a1604080516001600160a01b038616815290517f8c537274438aa850a330284665d81a85dd38267d09e4050d416bfc94142db2649181900360200190a1604080516001600160a01b038516815290517f112220fa8dbe96141556e0dc3d74dd95075b323f4f297616048e02d82d7017159181900360200190a1604080516001600160a01b038416815290517f65f4cf077bc01e4742eb5ad98326f6e95b63548ea24b17f8d5e823111fe788009181900360200190a1604080516001600160a01b038316815290517ff81a824d1d9030c0365252fb96daf0565f9c2007c88e13001379dda7f06d5d5c9181900360200190a15050505050505050565b600081600481111561488f57fe5b141580156148a9575060018160048111156148a657fe5b14155b6148af57fe5b60da546148bb81615686565b6001600160a01b038316600090815260d360205260409020600301805483919060ff191660018360048111156148ed57fe5b02179055506001600160a01b038316600090815260d36020908152604080832060018082018590559084905560d99092528220828155015561492f838261573f565b60d05460408051631484968760e11b81526001600160a01b038681166004830152915191909216916329092d0e91602480830192600092919082900301818387803b15801561497d57600080fd5b505af1158015614991573d6000803e3d6000fd5b50505050505050565b600082156149bb5760006149b2846114138786613477565b91506134709050565b50600019613470565b6000806149dd670de0b6b3a76400006114138686613477565b90508281106134705760405162461bcd60e51b8152600401808060200182810382526036815260200180615dd76036913960400191505060405180910390fd5b6001600160a01b038116600090815260d3602052604090206002015460d454614a469082612a96565b60d455506001600160a01b0316600090815260d36020526040812060020155565b826001600160a01b0316632a7ba1f7836040518263ffffffff1660e01b815260040180828152602001915050600060405180830381600087803b158015614aad57600080fd5b505af1158015614ac1573d6000803e3d6000fd5b50505050836001600160a01b0316632b7c7b11836040518263ffffffff1660e01b815260040180828152602001915050600060405180830381600087803b158015614b0b57600080fd5b505af1158015614b1f573d6000803e3d6000fd5b50505050826001600160a01b0316638f7be730826040518263ffffffff1660e01b815260040180828152602001915050600060405180830381600087803b15801561339c57600080fd5b60008060d65460001415614b7e575081610dbf565b600060d55411614b8a57fe5b61347060d65461141360d5548661347790919063ffffffff16565b614bad615a44565b614bb5615b40565b60da54600110614bc557506142b9565b614bce87611d3c565b60408501526020848101919091528401819052908352614bed906158e6565b604083018190527f000000000000000000000000000000000000000000000000000000000000000060608401526020830151614c2891612a96565b8152670de0b6b3a76400008611614d2a57614c4d898983602001518460400151614a67565b614c5687614a1d565b60006080830181905260a0830152815160c0830152805160e0830152614c7d876003614881565b866001600160a01b0316600080516020615b6283398151915283600001518460200151600260405180848152602001838152602001826003811115614cbe57fe5b8152602001935050505060405180910390a2866001600160a01b0316600080516020615d188339815191526000806000600260405180858152602001848152602001838152602001826003811115614d1257fe5b815260200194505050505060405180910390a2614ed7565b670de0b6b3a764000086118015614d485750670f43fc2c04ee000086105b15614d9857614d61898983602001518460400151614a67565b614d6a87614a1d565b81518151614d799190876158ed565b60e086015260c085015260a08401526080830152614c7d876003614881565b670f43fc2c04ee00008610158015614daf57508386105b8015614dbc575081518510155b15614ec657614dd5898983602001518460400151614a67565b84614ddc57fe5b614de587614a1d565b614df88260000151836020015185615947565b9150614e05876003614881565b61010082015115614e855760cb5461010083015160408051633f10abab60e01b81526001600160a01b038b81166004830152602482019390935290519190921691633f10abab91604480830192600092919082900301818387803b158015614e6c57600080fd5b505af1158015614e80573d6000803e3d6000fd5b505050505b866001600160a01b0316600080516020615b6283398151915283600001518460a00151600260405180848152602001838152602001826003811115614cbe57fe5b614ece615a44565b91506142b99050565b50979650505050505050565b614eeb615a44565b60408083015190840151614efe91613aae565b604082015260608083015190840151614f1691613aae565b606082015281516020840151614f2b91613aae565b6020808301919091528201518351614f4291613aae565b815260808083015190840151614f5791613aae565b608082015260a08083015190840151614f6f91613aae565b60a082015260c08083015190840151614f8791613aae565b60c082015260e08083015190840151614f9f91613aae565b60e08201526101008083015190840151614fb891613aae565b61010082015292915050565b600080614fd285858561499a565b6714d1120d7b1600001195945050505050565b614fed615a44565b614ff5615b40565b614ffe84611d3c565b60408501908152602085810192835286019290925291845290519051615028918891889190614a67565b61503184614a1d565b61503e82602001516158e6565b604083018190527f00000000000000000000000000000000000000000000000000000000000000006060840152602083015160009161507d9190612a96565b905061508e836000015182866158ed565b60e087015260c086015260a085015260808401526150ad856003614881565b846001600160a01b0316600080516020615b62833981519152846000015185602001516001604051808481526020018381526020018260038111156150ee57fe5b8152602001935050505060405180910390a2846001600160a01b0316600080516020615d18833981519152600080600060016040518085815260200184815260200183815260200182600381111561514257fe5b815260200194505050505060405180910390a25050949350505050565b600081831061516e5781613470565b5090919050565b60006112a8603c61141360d25442612a9690919063ffffffff16565b6000631f5405008211156151a757631f54050091505b816151bb5750670de0b6b3a7640000610dbf565b670de0b6b3a764000083835b600181111561522657600281066151f6576151e282836159e6565b91506151ef8160026134d0565b9050615221565b61520082846159e6565b925061520c82836159e6565b915061521e6002611413836001612a96565b90505b6151c7565b61141982846159e6565b60408085015160ca548251632770a7eb60e21b81526001600160a01b039182166004820152602481018690529251911691639dc29fac91604480830192600092919082900301818387803b15801561528757600080fd5b505af115801561529b573d6000803e3d6000fd5b5050505083600001516001600160a01b0316632a7ba1f7836040518263ffffffff1660e01b815260040180828152602001915050600060405180830381600087803b1580156152e957600080fd5b505af11580156152fd573d6000803e3d6000fd5b505050508360a001516001600160a01b0316633f10abab84836040518363ffffffff1660e01b815260040180836001600160a01b0316815260200182815260200192505050600060405180830381600087803b15801561535c57600080fd5b505af1158015615370573d6000803e3d6000fd5b5050505083600001516001600160a01b0316628063a58560a00151836040518363ffffffff1660e01b815260040180836001600160a01b0316815260200182815260200192505050600060405180830381600087803b15801561339c57600080fd5b6000610dbf827f0000000000000000000000000000000000000000000000000000000000000000612a96565b603254610100900460ff168061541757506154176143d6565b80615425575060325460ff16155b6154605760405162461bcd60e51b815260040180806020018281038252602e815260200180615bf1602e913960400191505060405180910390fd5b603254610100900460ff16158015614484576032805460ff1961ff0019909116610100171660011790558015610d70576032805461ff001916905550565b603254610100900460ff16806154b757506154b76143d6565b806154c5575060325460ff16155b6155005760405162461bcd60e51b815260040180806020018281038252602e815260200180615bf1602e913960400191505060405180910390fd5b603254610100900460ff1615801561552b576032805460ff1961ff0019909116610100171660011790555b6000615535613aaa565b606580546001600160a01b0319166001600160a01b03831690811790915560405191925090600090600080516020615cf8833981519152908290a3508015610d70576032805461ff001916905550565b603254610100900460ff168061559e575061559e6143d6565b806155ac575060325460ff16155b6155e75760405162461bcd60e51b815260040180806020018281038252602e815260200180615bf1602e913960400191505060405180910390fd5b603254610100900460ff16158015615612576032805460ff1961ff0019909116610100171660011790555b60016097558015610d70576032805461ff001916905550565b6001600160a01b038116610d70576040805162461bcd60e51b815260206004820152601e60248201527f4163636f756e742063616e6e6f74206265207a65726f20616464726573730000604482015290519081900360640190fd5b600181118015615704575060d0546040805163de8fa43160e01b815290516001926001600160a01b03169163de8fa431916004808301926020929190829003018186803b1580156156d657600080fd5b505afa1580156156ea573d6000803e3d6000fd5b505050506040513d602081101561570057600080fd5b5051115b610d705760405162461bcd60e51b815260040180806020018281038252602a815260200180615c6d602a913960400191505060405180910390fd5b6001600160a01b038216600090815260d3602052604081206003015460ff169081600481111561576b57fe5b141580156157855750600181600481111561578257fe5b14155b61578b57fe5b6001600160a01b038316600090815260d3602052604081206003015461010090046001600160801b03169083906157c3826001612a96565b905080836001600160801b031611156157d857fe5b600060da82815481106157e757fe5b60009182526020909120015460da80546001600160a01b03909216925082916001600160801b03871690811061581957fe5b600091825260208083209190910180546001600160a01b0319166001600160a01b0394851617905591831680825260d383526040918290206003018054610100600160881b0319166101006001600160801b038a169081029190911790915582519182529281019290925280517f02b04ae5f7be9ca7c103293a2aa15f3c339d15d6eda53b721fef7b0e609c831a9281900390910190a160da8054806158bb57fe5b600082815260209020810160001990810180546001600160a01b031916905501905550505050505050565b60c8900490565b6000808080841561593157615902878661515f565b9350615912876114138887613477565b925061591e8785612a96565b915061592a8684612a96565b905061593e565b5060009250829150859050845b93509350935093565b61594f615a44565b8381526020810183905260006159718361141387670f43fc2c04ee0000613477565b905061597c816158e6565b604083018190527f00000000000000000000000000000000000000000000000000000000000000006060840152608083018690526159bb908290612a96565b60a08301526159ca8482612a96565b61010083015250600060c0820181905260e08201529392505050565b6000806159f38484613477565b9050613c40670de0b6b3a7640000611413836706f05b59d3b20000613aae565b6040518060a00160405280600081526020016000815260200160001515815260200160008152602001600081525090565b6040518061012001604052806000815260200160008152602001600081526020016000815260200160008152602001600081526020016000815260200160008152602001600081525090565b60405180610100016040528060008152602001600081526020016000815260200160008152602001600081526020016000815260200160008152602001600081525090565b6040518060e0016040528060008152602001600081526020016000815260200160006001600160a01b0316815260200160001515815260200160008152602001600081525090565b604051806060016040528060008152602001600081526020016000151581525090565b6040518060600160405280600081526020016000815260200160008152509056feea67486ed7ebe3eea8ab3390efd4a3c8aae48be5bea27df104a8af786c4084345265656e7472616e637947756172643a207265656e7472616e742063616c6c004f776e61626c653a206e6577206f776e657220697320746865207a65726f206164647265737354726f76654d616e616765723a20556e61626c6520746f2072656465656d20616e7920616d6f756e74496e697469616c697a61626c653a20636f6e747261637420697320616c726561647920696e697469616c697a656454726f76654d616e616765723a2052657175657374656420726564656d7074696f6e20616d6f756e74206d757374206265203c3d20757365722773206465627420746f6b656e2062616c616e636554726f76654d616e616765723a204f6e6c79206f6e652074726f766520696e207468652073797374656d54726f76654d616e616765723a20526564656d7074696f6e7320617265206e6f7420616c6c6f77656420647572696e6720626f6f747374726170207068617365536166654d6174683a206d756c7469706c69636174696f6e206f766572666c6f778be0079c531659141344cd1fd0a4f28419497f9722a3daafe3b4186f6b6457e0c3770d654ed33aeea6bf11ac8ef05d02a6a04ed4686dd2f624d853bbec43cc8b54726f76654d616e616765723a2043616c6c6572206973206e6f742074686520426f72726f7765724f7065726174696f6e7320636f6e747261637454726f76654d616e616765723a2043616c6c646174612061646472657373206172726179206d757374206e6f7420626520656d70747954726f76654d616e616765723a20416d6f756e74206d7573742062652067726561746572207468616e207a65726f54726f76654d616e616765723a2046656520776f756c642065617420757020616c6c2072657475726e656420636f6c6c61746572616c4d6178206665652070657263656e74616765206d757374206265206265747765656e20302e352520616e64203130302554726f76654d616e616765723a2043616e6e6f742072656465656d207768656e20544352203c204d435254726f76654d616e616765723a206e6f7468696e6720746f206c697175696461746554726f76654d616e616765723a2054726f766520646f6573206e6f74206578697374206f7220697320636c6f736564a26469706673582212203e74d20c0ffab0f7076b27aace98a7f74a307c4252b9b185a00ee539413bacb364736f6c63430007060033496e697469616c697a61626c653a20636f6e747261637420697320616c726561647920696e697469616c697a6564",
  "linkReferences": {},
  "deployedLinkReferences": {}
}