{
  "_format": "hh-sol-artifact-1",
  "contractName": "TroveManager",
  "sourceName": "contracts/TroveManager.sol",
  "abi": [
    {
      "inputs": [
        {
          "internalType": "uint256",
          "name": "_gasCompensation",
          "type": "uint256"
        },
        {
          "internalType": "uint256",
          "name": "_minNetDebt",
          "type": "uint256"
        }
      ],
      "stateMutability": "nonpayable",
      "type": "constructor"
    },
    {
      "anonymous": false,
      "inputs": [
        {
          "indexed": false,
          "internalType": "address",
          "name": "_activePoolAddress",
          "type": "address"
        }
      ],
      "name": "ActivePoolAddressChanged",
      "type": "event"
    },
    {
      "anonymous": false,
      "inputs": [
        {
          "indexed": false,
          "internalType": "uint256",
          "name": "_baseRate",
          "type": "uint256"
        }
      ],
      "name": "BaseRateUpdated",
      "type": "event"
    },
    {
      "anonymous": false,
      "inputs": [
        {
          "indexed": false,
          "internalType": "address",
          "name": "_newBorrowerOperationsAddress",
          "type": "address"
        }
      ],
      "name": "BorrowerOperationsAddressChanged",
      "type": "event"
    },
    {
      "anonymous": false,
      "inputs": [
        {
          "indexed": false,
          "internalType": "address",
          "name": "_collSurplusPoolAddress",
          "type": "address"
        }
      ],
      "name": "CollSurplusPoolAddressChanged",
      "type": "event"
    },
    {
      "anonymous": false,
      "inputs": [
        {
          "indexed": false,
          "internalType": "address",
          "name": "_newDebtTokenAddress",
          "type": "address"
        }
      ],
      "name": "DebtTokenAddressChanged",
      "type": "event"
    },
    {
      "anonymous": false,
      "inputs": [
        {
          "indexed": false,
          "internalType": "address",
          "name": "_defaultPoolAddress",
          "type": "address"
        }
      ],
      "name": "DefaultPoolAddressChanged",
      "type": "event"
    },
    {
      "anonymous": false,
      "inputs": [
        {
          "indexed": false,
          "internalType": "address",
          "name": "_gasPoolAddress",
          "type": "address"
        }
      ],
      "name": "GasPoolAddressChanged",
      "type": "event"
    },
    {
      "anonymous": false,
      "inputs": [
        {
          "indexed": false,
          "internalType": "uint256",
          "name": "_L_FIL",
          "type": "uint256"
        },
        {
          "indexed": false,
          "internalType": "uint256",
          "name": "_L_Debt",
          "type": "uint256"
        }
      ],
      "name": "LTermsUpdated",
      "type": "event"
    },
    {
      "anonymous": false,
      "inputs": [
        {
          "indexed": false,
          "internalType": "uint256",
          "name": "_lastFeeOpTime",
          "type": "uint256"
        }
      ],
      "name": "LastFeeOpTimeUpdated",
      "type": "event"
    },
    {
      "anonymous": false,
      "inputs": [
        {
          "indexed": false,
          "internalType": "uint256",
          "name": "_liquidatedDebt",
          "type": "uint256"
        },
        {
          "indexed": false,
          "internalType": "uint256",
          "name": "_liquidatedColl",
          "type": "uint256"
        },
        {
          "indexed": false,
          "internalType": "uint256",
          "name": "_collGasCompensation",
          "type": "uint256"
        },
        {
          "indexed": false,
          "internalType": "uint256",
          "name": "_debtGasCompensation",
          "type": "uint256"
        }
      ],
      "name": "Liquidation",
      "type": "event"
    },
    {
      "anonymous": false,
      "inputs": [
        {
          "indexed": true,
          "internalType": "address",
          "name": "previousOwner",
          "type": "address"
        },
        {
          "indexed": true,
          "internalType": "address",
          "name": "newOwner",
          "type": "address"
        }
      ],
      "name": "OwnershipTransferred",
      "type": "event"
    },
    {
      "anonymous": false,
      "inputs": [
        {
          "indexed": false,
          "internalType": "address",
          "name": "_newPriceFeedAddress",
          "type": "address"
        }
      ],
      "name": "PriceFeedAddressChanged",
      "type": "event"
    },
    {
      "anonymous": false,
      "inputs": [
        {
          "indexed": false,
          "internalType": "address",
          "name": "_protocolTokenAddress",
          "type": "address"
        }
      ],
      "name": "ProtocolTokenAddressChanged",
      "type": "event"
    },
    {
      "anonymous": false,
      "inputs": [
        {
          "indexed": false,
          "internalType": "address",
          "name": "_protocolTokenStakingAddress",
          "type": "address"
        }
      ],
      "name": "ProtocolTokenStakingAddressChanged",
      "type": "event"
    },
    {
      "anonymous": false,
      "inputs": [
        {
          "indexed": false,
          "internalType": "uint256",
          "name": "_attemptedDebtTokenAmount",
          "type": "uint256"
        },
        {
          "indexed": false,
          "internalType": "uint256",
          "name": "_actualDebtTokenAmount",
          "type": "uint256"
        },
        {
          "indexed": false,
          "internalType": "uint256",
          "name": "_FILSent",
          "type": "uint256"
        },
        {
          "indexed": false,
          "internalType": "uint256",
          "name": "_FILFee",
          "type": "uint256"
        }
      ],
      "name": "Redemption",
      "type": "event"
    },
    {
      "anonymous": false,
      "inputs": [
        {
          "indexed": false,
          "internalType": "address",
          "name": "_sortedTrovesAddress",
          "type": "address"
        }
      ],
      "name": "SortedTrovesAddressChanged",
      "type": "event"
    },
    {
      "anonymous": false,
      "inputs": [
        {
          "indexed": false,
          "internalType": "address",
          "name": "_stabilityPoolAddress",
          "type": "address"
        }
      ],
      "name": "StabilityPoolAddressChanged",
      "type": "event"
    },
    {
      "anonymous": false,
      "inputs": [
        {
          "indexed": false,
          "internalType": "uint256",
          "name": "_totalStakesSnapshot",
          "type": "uint256"
        },
        {
          "indexed": false,
          "internalType": "uint256",
          "name": "_totalCollateralSnapshot",
          "type": "uint256"
        }
      ],
      "name": "SystemSnapshotsUpdated",
      "type": "event"
    },
    {
      "anonymous": false,
      "inputs": [
        {
          "indexed": false,
          "internalType": "uint256",
          "name": "_newTotalStakes",
          "type": "uint256"
        }
      ],
      "name": "TotalStakesUpdated",
      "type": "event"
    },
    {
      "anonymous": false,
      "inputs": [
        {
          "indexed": false,
          "internalType": "address",
          "name": "_borrower",
          "type": "address"
        },
        {
          "indexed": false,
          "internalType": "uint256",
          "name": "_newIndex",
          "type": "uint256"
        }
      ],
      "name": "TroveIndexUpdated",
      "type": "event"
    },
    {
      "anonymous": false,
      "inputs": [
        {
          "indexed": true,
          "internalType": "address",
          "name": "_borrower",
          "type": "address"
        },
        {
          "indexed": false,
          "internalType": "uint256",
          "name": "_debt",
          "type": "uint256"
        },
        {
          "indexed": false,
          "internalType": "uint256",
          "name": "_coll",
          "type": "uint256"
        },
        {
          "indexed": false,
          "internalType": "enum ITroveManager.TroveManagerOperation",
          "name": "_operation",
          "type": "uint8"
        }
      ],
      "name": "TroveLiquidated",
      "type": "event"
    },
    {
      "anonymous": false,
      "inputs": [
        {
          "indexed": false,
          "internalType": "uint256",
          "name": "_L_FIL",
          "type": "uint256"
        },
        {
          "indexed": false,
          "internalType": "uint256",
          "name": "_L_Debt",
          "type": "uint256"
        }
      ],
      "name": "TroveSnapshotsUpdated",
      "type": "event"
    },
    {
      "anonymous": false,
      "inputs": [
        {
          "indexed": true,
          "internalType": "address",
          "name": "_borrower",
          "type": "address"
        },
        {
          "indexed": false,
          "internalType": "uint256",
          "name": "_debt",
          "type": "uint256"
        },
        {
          "indexed": false,
          "internalType": "uint256",
          "name": "_coll",
          "type": "uint256"
        },
        {
          "indexed": false,
          "internalType": "uint256",
          "name": "stake",
          "type": "uint256"
        },
        {
          "indexed": false,
          "internalType": "enum ITroveManager.TroveManagerOperation",
          "name": "_operation",
          "type": "uint8"
        }
      ],
      "name": "TroveUpdated",
      "type": "event"
    },
    {
      "inputs": [],
      "name": "BETA",
      "outputs": [
        {
          "internalType": "uint256",
          "name": "",
          "type": "uint256"
        }
      ],
      "stateMutability": "view",
      "type": "function"
    },
    {
      "inputs": [],
      "name": "BOOTSTRAP_PERIOD",
      "outputs": [
        {
          "internalType": "uint256",
          "name": "",
          "type": "uint256"
        }
      ],
      "stateMutability": "view",
      "type": "function"
    },
    {
      "inputs": [],
      "name": "BORROWING_FEE_FLOOR",
      "outputs": [
        {
          "internalType": "uint256",
          "name": "",
          "type": "uint256"
        }
      ],
      "stateMutability": "view",
      "type": "function"
    },
    {
      "inputs": [],
      "name": "CCR",
      "outputs": [
        {
          "internalType": "uint256",
          "name": "",
          "type": "uint256"
        }
      ],
      "stateMutability": "view",
      "type": "function"
    },
    {
      "inputs": [],
      "name": "DECIMAL_PRECISION",
      "outputs": [
        {
          "internalType": "uint256",
          "name": "",
          "type": "uint256"
        }
      ],
      "stateMutability": "view",
      "type": "function"
    },
    {
      "inputs": [],
      "name": "GAS_COMPENSATION",
      "outputs": [
        {
          "internalType": "uint256",
          "name": "",
          "type": "uint256"
        }
      ],
      "stateMutability": "view",
      "type": "function"
    },
    {
      "inputs": [],
      "name": "L_Debt",
      "outputs": [
        {
          "internalType": "uint256",
          "name": "",
          "type": "uint256"
        }
      ],
      "stateMutability": "view",
      "type": "function"
    },
    {
      "inputs": [],
      "name": "L_FIL",
      "outputs": [
        {
          "internalType": "uint256",
          "name": "",
          "type": "uint256"
        }
      ],
      "stateMutability": "view",
      "type": "function"
    },
    {
      "inputs": [],
      "name": "MAX_BORROWING_FEE",
      "outputs": [
        {
          "internalType": "uint256",
          "name": "",
          "type": "uint256"
        }
      ],
      "stateMutability": "view",
      "type": "function"
    },
    {
      "inputs": [],
      "name": "MCR",
      "outputs": [
        {
          "internalType": "uint256",
          "name": "",
          "type": "uint256"
        }
      ],
      "stateMutability": "view",
      "type": "function"
    },
    {
      "inputs": [],
      "name": "MINUTE_DECAY_FACTOR",
      "outputs": [
        {
          "internalType": "uint256",
          "name": "",
          "type": "uint256"
        }
      ],
      "stateMutability": "view",
      "type": "function"
    },
    {
      "inputs": [],
      "name": "MIN_NET_DEBT",
      "outputs": [
        {
          "internalType": "uint256",
          "name": "",
          "type": "uint256"
        }
      ],
      "stateMutability": "view",
      "type": "function"
    },
    {
      "inputs": [],
      "name": "NAME",
      "outputs": [
        {
          "internalType": "string",
          "name": "",
          "type": "string"
        }
      ],
      "stateMutability": "view",
      "type": "function"
    },
    {
      "inputs": [],
      "name": "PERCENT_DIVISOR",
      "outputs": [
        {
          "internalType": "uint256",
          "name": "",
          "type": "uint256"
        }
      ],
      "stateMutability": "view",
      "type": "function"
    },
    {
      "inputs": [],
      "name": "REDEMPTION_FEE_FLOOR",
      "outputs": [
        {
          "internalType": "uint256",
          "name": "",
          "type": "uint256"
        }
      ],
      "stateMutability": "view",
      "type": "function"
    },
    {
      "inputs": [],
      "name": "SECONDS_IN_ONE_MINUTE",
      "outputs": [
        {
          "internalType": "uint256",
          "name": "",
          "type": "uint256"
        }
      ],
      "stateMutability": "view",
      "type": "function"
    },
    {
      "inputs": [
        {
          "internalType": "uint256",
          "name": "",
          "type": "uint256"
        }
      ],
      "name": "TroveOwners",
      "outputs": [
        {
          "internalType": "address",
          "name": "",
          "type": "address"
        }
      ],
      "stateMutability": "view",
      "type": "function"
    },
    {
      "inputs": [
        {
          "internalType": "address",
          "name": "",
          "type": "address"
        }
      ],
      "name": "Troves",
      "outputs": [
        {
          "internalType": "uint256",
          "name": "debt",
          "type": "uint256"
        },
        {
          "internalType": "uint256",
          "name": "coll",
          "type": "uint256"
        },
        {
          "internalType": "uint256",
          "name": "stake",
          "type": "uint256"
        },
        {
          "internalType": "enum ITroveManager.Status",
          "name": "status",
          "type": "uint8"
        },
        {
          "internalType": "uint128",
          "name": "arrayIndex",
          "type": "uint128"
        }
      ],
      "stateMutability": "view",
      "type": "function"
    },
    {
      "inputs": [],
      "name": "_100pct",
      "outputs": [
        {
          "internalType": "uint256",
          "name": "",
          "type": "uint256"
        }
      ],
      "stateMutability": "view",
      "type": "function"
    },
    {
      "inputs": [],
      "name": "activePool",
      "outputs": [
        {
          "internalType": "contract IActivePool",
          "name": "",
          "type": "address"
        }
      ],
      "stateMutability": "view",
      "type": "function"
    },
    {
      "inputs": [
        {
          "internalType": "address",
          "name": "_borrower",
          "type": "address"
        }
      ],
      "name": "addTroveOwnerToArray",
      "outputs": [
        {
          "internalType": "uint256",
          "name": "index",
          "type": "uint256"
        }
      ],
      "stateMutability": "nonpayable",
      "type": "function"
    },
    {
      "inputs": [
        {
          "internalType": "address",
          "name": "_borrower",
          "type": "address"
        }
      ],
      "name": "applyPendingRewards",
      "outputs": [],
      "stateMutability": "nonpayable",
      "type": "function"
    },
    {
      "inputs": [],
      "name": "baseRate",
      "outputs": [
        {
          "internalType": "uint256",
          "name": "",
          "type": "uint256"
        }
      ],
      "stateMutability": "view",
      "type": "function"
    },
    {
      "inputs": [
        {
          "internalType": "address[]",
          "name": "_troveArray",
          "type": "address[]"
        }
      ],
      "name": "batchLiquidateTroves",
      "outputs": [],
      "stateMutability": "nonpayable",
      "type": "function"
    },
    {
      "inputs": [],
      "name": "borrowerOperationsAddress",
      "outputs": [
        {
          "internalType": "address",
          "name": "",
          "type": "address"
        }
      ],
      "stateMutability": "view",
      "type": "function"
    },
    {
      "inputs": [
        {
          "internalType": "uint256",
          "name": "_price",
          "type": "uint256"
        }
      ],
      "name": "checkRecoveryMode",
      "outputs": [
        {
          "internalType": "bool",
          "name": "",
          "type": "bool"
        }
      ],
      "stateMutability": "view",
      "type": "function"
    },
    {
      "inputs": [
        {
          "internalType": "address",
          "name": "_borrower",
          "type": "address"
        }
      ],
      "name": "closeTrove",
      "outputs": [],
      "stateMutability": "nonpayable",
      "type": "function"
    },
    {
      "inputs": [],
      "name": "debtToken",
      "outputs": [
        {
          "internalType": "contract IDebtToken",
          "name": "",
          "type": "address"
        }
      ],
      "stateMutability": "view",
      "type": "function"
    },
    {
      "inputs": [],
      "name": "decayBaseRateFromBorrowing",
      "outputs": [],
      "stateMutability": "nonpayable",
      "type": "function"
    },
    {
      "inputs": [
        {
          "internalType": "address",
          "name": "_borrower",
          "type": "address"
        },
        {
          "internalType": "uint256",
          "name": "_collDecrease",
          "type": "uint256"
        }
      ],
      "name": "decreaseTroveColl",
      "outputs": [
        {
          "internalType": "uint256",
          "name": "",
          "type": "uint256"
        }
      ],
      "stateMutability": "nonpayable",
      "type": "function"
    },
    {
      "inputs": [
        {
          "internalType": "address",
          "name": "_borrower",
          "type": "address"
        },
        {
          "internalType": "uint256",
          "name": "_debtDecrease",
          "type": "uint256"
        }
      ],
      "name": "decreaseTroveDebt",
      "outputs": [
        {
          "internalType": "uint256",
          "name": "",
          "type": "uint256"
        }
      ],
      "stateMutability": "nonpayable",
      "type": "function"
    },
    {
      "inputs": [],
      "name": "defaultPool",
      "outputs": [
        {
          "internalType": "contract IDefaultPool",
          "name": "",
          "type": "address"
        }
      ],
      "stateMutability": "view",
      "type": "function"
    },
    {
      "inputs": [
        {
          "internalType": "uint256",
          "name": "_debt",
          "type": "uint256"
        }
      ],
      "name": "getBorrowingFee",
      "outputs": [
        {
          "internalType": "uint256",
          "name": "",
          "type": "uint256"
        }
      ],
      "stateMutability": "view",
      "type": "function"
    },
    {
      "inputs": [
        {
          "internalType": "uint256",
          "name": "_debt",
          "type": "uint256"
        }
      ],
      "name": "getBorrowingFeeWithDecay",
      "outputs": [
        {
          "internalType": "uint256",
          "name": "",
          "type": "uint256"
        }
      ],
      "stateMutability": "view",
      "type": "function"
    },
    {
      "inputs": [],
      "name": "getBorrowingRate",
      "outputs": [
        {
          "internalType": "uint256",
          "name": "",
          "type": "uint256"
        }
      ],
      "stateMutability": "view",
      "type": "function"
    },
    {
      "inputs": [],
      "name": "getBorrowingRateWithDecay",
      "outputs": [
        {
          "internalType": "uint256",
          "name": "",
          "type": "uint256"
        }
      ],
      "stateMutability": "view",
      "type": "function"
    },
    {
      "inputs": [
        {
          "internalType": "address",
          "name": "_borrower",
          "type": "address"
        },
        {
          "internalType": "uint256",
          "name": "_price",
          "type": "uint256"
        }
      ],
      "name": "getCurrentICR",
      "outputs": [
        {
          "internalType": "uint256",
          "name": "",
          "type": "uint256"
        }
      ],
      "stateMutability": "view",
      "type": "function"
    },
    {
      "inputs": [
        {
          "internalType": "address",
          "name": "_borrower",
          "type": "address"
        }
      ],
      "name": "getEntireDebtAndColl",
      "outputs": [
        {
          "internalType": "uint256",
          "name": "debt",
          "type": "uint256"
        },
        {
          "internalType": "uint256",
          "name": "coll",
          "type": "uint256"
        },
        {
          "internalType": "uint256",
          "name": "pendingDebtReward",
          "type": "uint256"
        },
        {
          "internalType": "uint256",
          "name": "pendingFILReward",
          "type": "uint256"
        }
      ],
      "stateMutability": "view",
      "type": "function"
    },
    {
      "inputs": [],
      "name": "getEntireSystemColl",
      "outputs": [
        {
          "internalType": "uint256",
          "name": "entireSystemColl",
          "type": "uint256"
        }
      ],
      "stateMutability": "view",
      "type": "function"
    },
    {
      "inputs": [],
      "name": "getEntireSystemDebt",
      "outputs": [
        {
          "internalType": "uint256",
          "name": "entireSystemDebt",
          "type": "uint256"
        }
      ],
      "stateMutability": "view",
      "type": "function"
    },
    {
      "inputs": [
        {
          "internalType": "address",
          "name": "_borrower",
          "type": "address"
        }
      ],
      "name": "getNominalICR",
      "outputs": [
        {
          "internalType": "uint256",
          "name": "",
          "type": "uint256"
        }
      ],
      "stateMutability": "view",
      "type": "function"
    },
    {
      "inputs": [
        {
          "internalType": "address",
          "name": "_borrower",
          "type": "address"
        }
      ],
      "name": "getPendingDebtReward",
      "outputs": [
        {
          "internalType": "uint256",
          "name": "",
          "type": "uint256"
        }
      ],
      "stateMutability": "view",
      "type": "function"
    },
    {
      "inputs": [
        {
          "internalType": "address",
          "name": "_borrower",
          "type": "address"
        }
      ],
      "name": "getPendingFILReward",
      "outputs": [
        {
          "internalType": "uint256",
          "name": "",
          "type": "uint256"
        }
      ],
      "stateMutability": "view",
      "type": "function"
    },
    {
      "inputs": [
        {
          "internalType": "uint256",
          "name": "_FILDrawn",
          "type": "uint256"
        }
      ],
      "name": "getRedemptionFeeWithDecay",
      "outputs": [
        {
          "internalType": "uint256",
          "name": "",
          "type": "uint256"
        }
      ],
      "stateMutability": "view",
      "type": "function"
    },
    {
      "inputs": [],
      "name": "getRedemptionRate",
      "outputs": [
        {
          "internalType": "uint256",
          "name": "",
          "type": "uint256"
        }
      ],
      "stateMutability": "view",
      "type": "function"
    },
    {
      "inputs": [],
      "name": "getRedemptionRateWithDecay",
      "outputs": [
        {
          "internalType": "uint256",
          "name": "",
          "type": "uint256"
        }
      ],
      "stateMutability": "view",
      "type": "function"
    },
    {
      "inputs": [
        {
          "internalType": "uint256",
          "name": "_price",
          "type": "uint256"
        }
      ],
      "name": "getTCR",
      "outputs": [
        {
          "internalType": "uint256",
          "name": "",
          "type": "uint256"
        }
      ],
      "stateMutability": "view",
      "type": "function"
    },
    {
      "inputs": [
        {
          "internalType": "address",
          "name": "_borrower",
          "type": "address"
        }
      ],
      "name": "getTroveColl",
      "outputs": [
        {
          "internalType": "uint256",
          "name": "",
          "type": "uint256"
        }
      ],
      "stateMutability": "view",
      "type": "function"
    },
    {
      "inputs": [
        {
          "internalType": "address",
          "name": "_borrower",
          "type": "address"
        }
      ],
      "name": "getTroveDebt",
      "outputs": [
        {
          "internalType": "uint256",
          "name": "",
          "type": "uint256"
        }
      ],
      "stateMutability": "view",
      "type": "function"
    },
    {
      "inputs": [
        {
          "internalType": "uint256",
          "name": "_index",
          "type": "uint256"
        }
      ],
      "name": "getTroveFromTroveOwnersArray",
      "outputs": [
        {
          "internalType": "address",
          "name": "",
          "type": "address"
        }
      ],
      "stateMutability": "view",
      "type": "function"
    },
    {
      "inputs": [],
      "name": "getTroveOwnersCount",
      "outputs": [
        {
          "internalType": "uint256",
          "name": "",
          "type": "uint256"
        }
      ],
      "stateMutability": "view",
      "type": "function"
    },
    {
      "inputs": [
        {
          "internalType": "address",
          "name": "_borrower",
          "type": "address"
        }
      ],
      "name": "getTroveStake",
      "outputs": [
        {
          "internalType": "uint256",
          "name": "",
          "type": "uint256"
        }
      ],
      "stateMutability": "view",
      "type": "function"
    },
    {
      "inputs": [
        {
          "internalType": "address",
          "name": "_borrower",
          "type": "address"
        }
      ],
      "name": "getTroveStatus",
      "outputs": [
        {
          "internalType": "uint256",
          "name": "",
          "type": "uint256"
        }
      ],
      "stateMutability": "view",
      "type": "function"
    },
    {
      "inputs": [
        {
          "internalType": "address",
          "name": "_borrower",
          "type": "address"
        }
      ],
      "name": "hasPendingRewards",
      "outputs": [
        {
          "internalType": "bool",
          "name": "",
          "type": "bool"
        }
      ],
      "stateMutability": "view",
      "type": "function"
    },
    {
      "inputs": [
        {
          "internalType": "address",
          "name": "_borrower",
          "type": "address"
        },
        {
          "internalType": "uint256",
          "name": "_collIncrease",
          "type": "uint256"
        }
      ],
      "name": "increaseTroveColl",
      "outputs": [
        {
          "internalType": "uint256",
          "name": "",
          "type": "uint256"
        }
      ],
      "stateMutability": "nonpayable",
      "type": "function"
    },
    {
      "inputs": [
        {
          "internalType": "address",
          "name": "_borrower",
          "type": "address"
        },
        {
          "internalType": "uint256",
          "name": "_debtIncrease",
          "type": "uint256"
        }
      ],
      "name": "increaseTroveDebt",
      "outputs": [
        {
          "internalType": "uint256",
          "name": "",
          "type": "uint256"
        }
      ],
      "stateMutability": "nonpayable",
      "type": "function"
    },
    {
      "inputs": [],
      "name": "isOwner",
      "outputs": [
        {
          "internalType": "bool",
          "name": "",
          "type": "bool"
        }
      ],
      "stateMutability": "view",
      "type": "function"
    },
    {
      "inputs": [],
      "name": "lastFILError_Redistribution",
      "outputs": [
        {
          "internalType": "uint256",
          "name": "",
          "type": "uint256"
        }
      ],
      "stateMutability": "view",
      "type": "function"
    },
    {
      "inputs": [],
      "name": "lastFeeOperationTime",
      "outputs": [
        {
          "internalType": "uint256",
          "name": "",
          "type": "uint256"
        }
      ],
      "stateMutability": "view",
      "type": "function"
    },
    {
      "inputs": [],
      "name": "lastLDebtError_Redistribution",
      "outputs": [
        {
          "internalType": "uint256",
          "name": "",
          "type": "uint256"
        }
      ],
      "stateMutability": "view",
      "type": "function"
    },
    {
      "inputs": [
        {
          "internalType": "address",
          "name": "_borrower",
          "type": "address"
        }
      ],
      "name": "liquidate",
      "outputs": [],
      "stateMutability": "nonpayable",
      "type": "function"
    },
    {
      "inputs": [
        {
          "internalType": "uint256",
          "name": "_n",
          "type": "uint256"
        }
      ],
      "name": "liquidateTroves",
      "outputs": [],
      "stateMutability": "nonpayable",
      "type": "function"
    },
    {
      "inputs": [],
      "name": "owner",
      "outputs": [
        {
          "internalType": "address",
          "name": "",
          "type": "address"
        }
      ],
      "stateMutability": "view",
      "type": "function"
    },
    {
      "inputs": [],
      "name": "priceFeed",
      "outputs": [
        {
          "internalType": "contract IPriceFeed",
          "name": "",
          "type": "address"
        }
      ],
      "stateMutability": "view",
      "type": "function"
    },
    {
      "inputs": [],
      "name": "protocolToken",
      "outputs": [
        {
          "internalType": "contract IProtocolToken",
          "name": "",
          "type": "address"
        }
      ],
      "stateMutability": "view",
      "type": "function"
    },
    {
      "inputs": [],
      "name": "protocolTokenStaking",
      "outputs": [
        {
          "internalType": "contract IProtocolTokenStaking",
          "name": "",
          "type": "address"
        }
      ],
      "stateMutability": "view",
      "type": "function"
    },
    {
      "inputs": [
        {
          "internalType": "uint256",
          "name": "_debtTokenAmount",
          "type": "uint256"
        },
        {
          "internalType": "address",
          "name": "_firstRedemptionHint",
          "type": "address"
        },
        {
          "internalType": "address",
          "name": "_upperPartialRedemptionHint",
          "type": "address"
        },
        {
          "internalType": "address",
          "name": "_lowerPartialRedemptionHint",
          "type": "address"
        },
        {
          "internalType": "uint256",
          "name": "_partialRedemptionHintNICR",
          "type": "uint256"
        },
        {
          "internalType": "uint256",
          "name": "_maxIterations",
          "type": "uint256"
        },
        {
          "internalType": "uint256",
          "name": "_maxFeePercentage",
          "type": "uint256"
        }
      ],
      "name": "redeemCollateral",
      "outputs": [],
      "stateMutability": "nonpayable",
      "type": "function"
    },
    {
      "inputs": [
        {
          "internalType": "address",
          "name": "_borrower",
          "type": "address"
        }
      ],
      "name": "removeStake",
      "outputs": [],
      "stateMutability": "nonpayable",
      "type": "function"
    },
    {
      "inputs": [
        {
          "internalType": "address",
          "name": "",
          "type": "address"
        }
      ],
      "name": "rewardSnapshots",
      "outputs": [
        {
          "internalType": "uint256",
          "name": "FIL",
          "type": "uint256"
        },
        {
          "internalType": "uint256",
          "name": "debt",
          "type": "uint256"
        }
      ],
      "stateMutability": "view",
      "type": "function"
    },
    {
      "inputs": [
        {
          "internalType": "address",
          "name": "_borrowerOperationsAddress",
          "type": "address"
        },
        {
          "internalType": "address",
          "name": "_activePoolAddress",
          "type": "address"
        },
        {
          "internalType": "address",
          "name": "_defaultPoolAddress",
          "type": "address"
        },
        {
          "internalType": "address",
          "name": "_stabilityPoolAddress",
          "type": "address"
        },
        {
          "internalType": "address",
          "name": "_gasPoolAddress",
          "type": "address"
        },
        {
          "internalType": "address",
          "name": "_collSurplusPoolAddress",
          "type": "address"
        },
        {
          "internalType": "address",
          "name": "_priceFeedAddress",
          "type": "address"
        },
        {
          "internalType": "address",
          "name": "_debtTokenAddress",
          "type": "address"
        },
        {
          "internalType": "address",
          "name": "_sortedTrovesAddress",
          "type": "address"
        },
        {
          "internalType": "address",
          "name": "_protocolTokenAddress",
          "type": "address"
        },
        {
          "internalType": "address",
          "name": "_protocolTokenStakingAddress",
          "type": "address"
        }
      ],
      "name": "setAddresses",
      "outputs": [],
      "stateMutability": "nonpayable",
      "type": "function"
    },
    {
      "inputs": [
        {
          "internalType": "address",
          "name": "_borrower",
          "type": "address"
        },
        {
          "internalType": "uint256",
          "name": "_num",
          "type": "uint256"
        }
      ],
      "name": "setTroveStatus",
      "outputs": [],
      "stateMutability": "nonpayable",
      "type": "function"
    },
    {
      "inputs": [],
      "name": "sortedTroves",
      "outputs": [
        {
          "internalType": "contract ISortedTroves",
          "name": "",
          "type": "address"
        }
      ],
      "stateMutability": "view",
      "type": "function"
    },
    {
      "inputs": [],
      "name": "stabilityPool",
      "outputs": [
        {
          "internalType": "contract IStabilityPool",
          "name": "",
          "type": "address"
        }
      ],
      "stateMutability": "view",
      "type": "function"
    },
    {
      "inputs": [],
      "name": "totalCollateralSnapshot",
      "outputs": [
        {
          "internalType": "uint256",
          "name": "",
          "type": "uint256"
        }
      ],
      "stateMutability": "view",
      "type": "function"
    },
    {
      "inputs": [],
      "name": "totalStakes",
      "outputs": [
        {
          "internalType": "uint256",
          "name": "",
          "type": "uint256"
        }
      ],
      "stateMutability": "view",
      "type": "function"
    },
    {
      "inputs": [],
      "name": "totalStakesSnapshot",
      "outputs": [
        {
          "internalType": "uint256",
          "name": "",
          "type": "uint256"
        }
      ],
      "stateMutability": "view",
      "type": "function"
    },
    {
      "inputs": [
        {
          "internalType": "address",
          "name": "_borrower",
          "type": "address"
        }
      ],
      "name": "updateStakeAndTotalStakes",
      "outputs": [
        {
          "internalType": "uint256",
          "name": "",
          "type": "uint256"
        }
      ],
      "stateMutability": "nonpayable",
      "type": "function"
    },
    {
      "inputs": [
        {
          "internalType": "address",
          "name": "_borrower",
          "type": "address"
        }
      ],
      "name": "updateTroveRewardSnapshots",
      "outputs": [],
      "stateMutability": "nonpayable",
      "type": "function"
    }
  ],
  "bytecode": "0x60c06040523480156200001157600080fd5b5060405162005b8c38038062005b8c833981810160405260408110156200003757600080fd5b508051602090910151608082905260a0819052600380546001600160a01b031916339081179091556040516000907f8be0079c531659141344cd1fd0a4f28419497f9722a3daafe3b4186f6b6457e0908290a3505060805160a051615aaa620000e260003980610df15280613c425280614404525080610d6e5280613b6e5280614285528061432a528061436b5280614a6a5280614ebb52806152b352806155d65250615aaa6000f3fe608060405234801561001057600080fd5b506004361061044a5760003560e01c8063756b253e1161023c578063b91af97c11610146578063d5b35635116100c3578063f36b242511610087578063f36b242514610c82578063f59fac2d14610c8a578063f8d8989814610cb0578063f92d343314610665578063fe2ba84814610cb85761044a565b8063d5b3563514610bf4578063d66a255314610c11578063d9a7244414610c37578063e2ac77b014610c54578063e545242314610c7a5761044a565b8063c7b554811161010a578063c7b5548114610b66578063cbd138ae14610b6e578063d293c71014610b94578063d380a37c14610bc0578063d3d6f84314610bc85761044a565b8063b91af97c14610ab4578063bcd3752614610b00578063bf9befb114610b4e578063c35bc55014610b56578063c52861f214610b5e5761044a565b80638f32d59b116101d4578063a3f4df7e11610198578063a3f4df7e146109e4578063ae91875414610a61578063b0d8e18114610a69578063b7f8cf9b14610a8f578063b82f263d14610a975761044a565b80638f32d59b146109a057806396d711ff146109a85780639976cf45146109b0578063a0d8d6bc146109dc578063a20baee6146108995761044a565b8063756b253e146108b1578063794e5724146108ce578063795d26c3146108d65780637985c5e4146108de5780637f7dde4a1461095a578063807d138d1461096257806382fe3eb91461096a578063887105d3146109905780638da5cb5b146109985761044a565b80633cc742251161035857806361ec893d116102d55780636ef64338116102995780636ef643381461080157806372423c171461086d57806372fe25aa1461089957806373098be9146108a1578063741bef1a146108a95761044a565b806361ec893d14610791578063631203b01461079957806364cee260146107b6578063653d46e7146107dc57806366ca4a21146107f95761044a565b80634e443d9e1161031c5780634e443d9e146106fe57806352512eaa1461072f5780635733d58f146107555780635d6b480f1461075d5780635dba4c4a146107895761044a565b80633cc74225146106a3578063477d66cf146106ab578063480cd578146106c85780634870dd9a146106ee57806349eefeee146106f65761044a565b80631bf43555116103e657806326b4d8fd116103aa57806326b4d8fd1461065d57806328d28b5b146106655780632b11551a1461066d5780632f8655681461067557806331eaf05c1461069b5761044a565b80631bf435551461057c5780631e8b1c2b146105845780631f68f20a1461062757806321e378011461062f57806324092669146106555761044a565b8063048c661d1461044f578063071a7541146104735780630b0765571461048d57806312610e92146104b5578063139f2e8c146104e157806315d549f1146104e95780631673c79a1461050f57806318f2817a1461054e5780631a465fe114610574575b600080fd5b610457610cde565b604080516001600160a01b039092168252519081900360200190f35b61047b610ced565b60408051918252519081900360200190f35b6104b3600480360360208110156104a357600080fd5b50356001600160a01b0316610cf2565b005b61047b600480360360408110156104cb57600080fd5b506001600160a01b038135169060200135610d1a565b61047b610d6c565b61047b600480360360208110156104ff57600080fd5b50356001600160a01b0316610d90565b6105356004803603602081101561052557600080fd5b50356001600160a01b0316610db4565b6040805192835260208301919091528051918290030190f35b61047b6004803603602081101561056457600080fd5b50356001600160a01b0316610dcd565b610457610de0565b61047b610def565b6104b36004803603602081101561059a57600080fd5b8101906020810181356401000000008111156105b557600080fd5b8201836020820111156105c757600080fd5b803590602001918460208302840111640100000000831117156105e957600080fd5b919080806020026020016040519081016040528093929190818152602001838360200280828437600092019190915250929550610e13945050505050565b61047b6111a7565b61047b6004803603602081101561064557600080fd5b50356001600160a01b03166111ad565b61047b6111d7565b61047b6111ea565b61047b6111f0565b61047b611201565b6104b36004803603602081101561068b57600080fd5b50356001600160a01b0316611213565b61047b611279565b61045761127f565b61047b600480360360208110156106c157600080fd5b503561128e565b61047b600480360360208110156106de57600080fd5b50356001600160a01b03166112a1565b61047b6112bf565b61047b6112c4565b61071b6004803603602081101561071457600080fd5b50356112ca565b604080519115158252519081900360200190f35b61047b6004803603602081101561074557600080fd5b50356001600160a01b03166112d5565b61047b611389565b6104b36004803603604081101561077357600080fd5b506001600160a01b038135169060200135611395565b6104b36113e1565b61047b611447565b61047b600480360360208110156107af57600080fd5b503561144c565b61047b600480360360208110156107cc57600080fd5b50356001600160a01b0316611459565b6104b3600480360360208110156107f257600080fd5b5035611477565b61047b611814565b6108276004803603602081101561081757600080fd5b50356001600160a01b0316611826565b6040518086815260200185815260200184815260200183600481111561084957fe5b8152602001826001600160801b031681526020019550505050505060405180910390f35b61047b6004803603604081101561088357600080fd5b506001600160a01b038135169060200135611860565b61047b6118b7565b61047b6118c3565b6104576118c9565b610457600480360360208110156108c757600080fd5b50356118d8565b61047b611902565b61047b61190e565b6104b360048036036101608110156108f557600080fd5b506001600160a01b038135811691602081013582169160408201358116916060810135821691608082013581169160a081013582169160c082013581169160e08101358216916101008201358116916101208101358216916101409091013516611a09565b610457611e14565b61047b611e23565b6104b36004803603602081101561098057600080fd5b50356001600160a01b0316611e29565b61047b611e3a565b610457611ef6565b61071b611f05565b61047b611f16565b61047b600480360360408110156109c657600080fd5b506001600160a01b038135169060200135611f1c565b61047b611f49565b6109ec611f4f565b6040805160208082528351818301528351919283929083019185019080838360005b83811015610a26578181015183820152602001610a0e565b50505050905090810190601f168015610a535780820380516001836020036101000a031916815260200191505b509250505060405180910390f35b610457611f77565b61047b60048036036020811015610a7f57600080fd5b50356001600160a01b0316611f86565b610457611fad565b61047b60048036036020811015610aad57600080fd5b5035611fbc565b610ada60048036036020811015610aca57600080fd5b50356001600160a01b0316611fc7565b604080519485526020850193909352838301919091526060830152519081900360800190f35b6104b3600480360360e0811015610b1657600080fd5b508035906001600160a01b03602082013581169160408101358216916060820135169060808101359060a08101359060c0013561201f565b61047b612782565b61047b612788565b61047b61278f565b61047b6127a1565b6104b360048036036020811015610b8457600080fd5b50356001600160a01b03166127ad565b61047b60048036036040811015610baa57600080fd5b506001600160a01b0381351690602001356127c0565b61047b6127df565b61047b60048036036040811015610bde57600080fd5b506001600160a01b0381351690602001356127e5565b61047b60048036036020811015610c0a57600080fd5b5035612815565b61047b60048036036020811015610c2757600080fd5b50356001600160a01b0316612828565b61045760048036036020811015610c4d57600080fd5b5035612843565b61071b60048036036020811015610c6a57600080fd5b50356001600160a01b031661286d565b6104576128cb565b61047b6128da565b61047b60048036036020811015610ca057600080fd5b50356001600160a01b03166128e7565b610457612912565b6104b360048036036020811015610cce57600080fd5b50356001600160a01b0316612921565b6005546001600160a01b031681565b600281565b610cfa612932565b600054600154610d17916001600160a01b0390811691168361297d565b50565b6000610d24612932565b6001600160a01b0383166000908152600e6020526040812054610d479084612a93565b6001600160a01b0385166000908152600e602052604090208190559150505b92915050565b7f000000000000000000000000000000000000000000000000000000000000000081565b6000610d9a612932565b610da382612adc565b6001600160801b031690505b919050565b6014602052600090815260409020805460019091015482565b6000610dd7612932565b610d6682612b76565b6009546001600160a01b031681565b7f000000000000000000000000000000000000000000000000000000000000000081565b8051610e505760405162461bcd60e51b81526004018080602001828103825260368152602001806159306036913960400191505060405180910390fd5b6000546001546005546001600160a01b03928316929182169116610e72615664565b610e7a615695565b600260009054906101000a90046001600160a01b03166001600160a01b0316630fdb11cf6040518163ffffffff1660e01b8152600401602060405180830381600087803b158015610eca57600080fd5b505af1158015610ede573d6000803e3d6000fd5b505050506040513d6020811015610ef457600080fd5b5051825260408051630d9a6b3560e01b815290516001600160a01b03851691630d9a6b35916004808301926020929190829003018186803b158015610f3857600080fd5b505afa158015610f4c573d6000803e3d6000fd5b505050506040513d6020811015610f6257600080fd5b505160208301528151610f7490612c19565b1580156040840152610f9c57610f958585846000015185602001518a612c36565b9050610fb4565b610fb18585846000015185602001518a612e54565b90505b6000816020015111610ff75760405162461bcd60e51b8152600401808060200182810382526022815260200180615a246022913960400191505060405180910390fd5b826001600160a01b031663335525ad82608001518360a001516040518363ffffffff1660e01b81526004018083815260200182815260200192505050600060405180830381600087803b15801561104d57600080fd5b505af1158015611061573d6000803e3d6000fd5b5050505061107985858360c001518460e00151612f16565b610100810151156110f65760075461010082015160408051628063a560e01b81526001600160a01b03938416600482015260248101929092525191871691628063a59160448082019260009290919082900301818387803b1580156110dd57600080fd5b505af11580156110f1573d6000803e3d6000fd5b505050505b611104858260400151613169565b6020810151606083015261010081015160408201518251611130929161112a9190612a93565b90612a93565b608080840182905260608085015160408086015186840151825193845260208401969096528282015291810193909352517f4152c73dd2614c4f9fc35e8c9cf16013cd588c75b49a4c1673ecffdcbcda94039281900390910190a161119f8533836060015184604001516132aa565b505050505050565b600c5481565b6001600160a01b0381166000908152600e602052604081206003015460ff166004811115610d6657fe5b6064670de0b6b3a76400005b0460050281565b60175481565b6103e8670de0b6b3a76400006111e3565b600061120e600c546133a3565b905090565b61121c816133d9565b60408051600180825281830190925260009160208083019080368337019050509050818160008151811061124c57fe5b60200260200101906001600160a01b031690816001600160a01b03168152505061127581610e13565b5050565b60135481565b6001546001600160a01b031681565b6000610d6661129b611814565b83613441565b6001600160a01b03166000908152600e602052604090206001015490565b60c881565b60155490565b6000610d6682612c19565b6001600160a01b03811660009081526014602052604081205460125482906112fd9083612a93565b9050801580611336575060016001600160a01b0385166000908152600e602052604090206003015460ff16600481111561133357fe5b14155b1561134657600092505050610daf565b6001600160a01b0384166000908152600e60205260408120600201549061137f670de0b6b3a76400006113798486613455565b906134ae565b9695505050505050565b6714d1120d7b16000081565b61139d612932565b8060048111156113a957fe5b6001600160a01b0383166000908152600e60205260409020600301805460ff191660018360048111156113d857fe5b02179055505050565b6113e9612932565b60006113f36134f0565b9050670de0b6b3a764000081111561140757fe5b600c8190556040805182815290517fc454ee9b76c52f782a256af821b857ca6e125d1e3333bcede402fec2bed9600c9181900360200190a1610d17613534565b603c81565b6000610d6661129b6128da565b6001600160a01b03166000908152600e602052604090206002015490565b6040805160e081018252600080546001600160a01b0390811683526001548116602084015292820181905260608201819052600b548316608083015260a0820181905260c08201526005549091166114cd615664565b6114d5615695565b600260009054906101000a90046001600160a01b03166001600160a01b0316630fdb11cf6040518163ffffffff1660e01b8152600401602060405180830381600087803b15801561152557600080fd5b505af1158015611539573d6000803e3d6000fd5b505050506040513d602081101561154f57600080fd5b5051825260408051630d9a6b3560e01b815290516001600160a01b03851691630d9a6b35916004808301926020929190829003018186803b15801561159357600080fd5b505afa1580156115a7573d6000803e3d6000fd5b505050506040513d60208110156115bd57600080fd5b5051602083015281516115cf90612c19565b15801560408401526115f6576115ef848360000151846020015188613590565b9050611616565b611613846000015185602001518460000151856020015189613910565b90505b60008160200151116116595760405162461bcd60e51b8152600401808060200182810382526022815260200180615a246022913960400191505060405180910390fd5b826001600160a01b031663335525ad82608001518360a001516040518363ffffffff1660e01b81526004018083815260200182815260200192505050600060405180830381600087803b1580156116af57600080fd5b505af11580156116c3573d6000803e3d6000fd5b505050506116e3846000015185602001518360c001518460e00151612f16565b6101008101511561176257835160075461010083015160408051628063a560e01b81526001600160a01b0393841660048201526024810192909252519190921691628063a591604480830192600092919082900301818387803b15801561174957600080fd5b505af115801561175d573d6000803e3d6000fd5b505050505b61177484600001518260400151613169565b602081015160608301526101008101516040820151825161179a929161112a9190612a93565b608080840182905260608085015160408086015186840151825193845260208401969096528282015291810193909352517f4152c73dd2614c4f9fc35e8c9cf16013cd588c75b49a4c1673ecffdcbcda94039281900390910190a161180d846000015133836060015184604001516132aa565b5050505050565b600061120e6118216134f0565b613a3c565b600e6020526000908152604090208054600182015460028301546003909301549192909160ff81169061010090046001600160801b031685565b600061186a612932565b6001600160a01b0383166000908152600e60205260408120600101546118909084613a63565b6001600160a01b0385166000908152600e6020526040902060010181905591505092915050565b670de0b6b3a764000081565b60125481565b6002546001600160a01b031681565b601581815481106118e857600080fd5b6000918252602090912001546001600160a01b0316905081565b670f43fc2c04ee000081565b60008054604080516314a6bf0f60e01b8152905183926001600160a01b0316916314a6bf0f916004808301926020929190829003018186803b15801561195357600080fd5b505afa158015611967573d6000803e3d6000fd5b505050506040513d602081101561197d57600080fd5b5051600154604080516314a6bf0f60e01b815290519293506000926001600160a01b03909216916314a6bf0f91600480820192602092909190829003018186803b1580156119ca57600080fd5b505afa1580156119de573d6000803e3d6000fd5b505050506040513d60208110156119f457600080fd5b50519050611a028282613a63565b9250505090565b611a11611f05565b611a62576040805162461bcd60e51b815260206004820181905260248201527f4f776e61626c653a2063616c6c6572206973206e6f7420746865206f776e6572604482015290519081900360640190fd5b611a6b8b613abd565b611a748a613abd565b611a7d89613abd565b611a8688613abd565b611a8f87613abd565b611a9886613abd565b611aa185613abd565b611aaa84613abd565b611ab383613abd565b611abc82613abd565b611ac581613abd565b611ace8b613b6c565b611ad788613b6c565b600480546001600160a01b03199081166001600160a01b038e81169182179093556000805483168e85161790556001805483168d85161790556005805483168c85161790556006805483168b85161790556007805483168a8516179055600280548316898516179055600880548316888516179055600b80548316878516179055600980548316868516179055600a805490921692841692909217905560408051918252517f3ca631ffcd2a9b5d9ae18543fc82f58eb4ca33af9e6ab01b7a8e95331e6ed985916020908290030190a1604080516001600160a01b038c16815290517f78f058b189175430c48dc02699e3a0031ea4ff781536dc2fab847de4babdd8829181900360200190a1604080516001600160a01b038b16815290517f5ee0cae2f063ed938bb55046f6a932fb6ae792bf43624806bb90abe68a50be9b9181900360200190a1604080516001600160a01b038a16815290517f82966d27eea39b038ee0fa30cd16532bb24f6e65d31cb58fb227aa5766cdcc7f9181900360200190a1604080516001600160a01b038916815290517fcfb07d791fcafc032b35837b50eb84b74df518cf4cc287e8084f47630fa70fa09181900360200190a1604080516001600160a01b038816815290517fe67f36a6e961157d6eff83b91f3af5a62131ceb6f04954ef74f51c1c05e7f88d9181900360200190a1604080516001600160a01b038716815290517f8c537274438aa850a330284665d81a85dd38267d09e4050d416bfc94142db2649181900360200190a1604080516001600160a01b038616815290517f112220fa8dbe96141556e0dc3d74dd95075b323f4f297616048e02d82d7017159181900360200190a1604080516001600160a01b038516815290517f65f4cf077bc01e4742eb5ad98326f6e95b63548ea24b17f8d5e823111fe788009181900360200190a1604080516001600160a01b038416815290517f7b0c6ae24561d189fc90b337cbc97aa15d085bef32931237a762e3e528b285b49181900360200190a1604080516001600160a01b038316815290517ff81a824d1d9030c0365252fb96daf0565f9c2007c88e13001379dda7f06d5d5c9181900360200190a1611e07613d10565b5050505050505050505050565b6000546001600160a01b031681565b60105481565b611e31612932565b610d1781613d5a565b60008054604080516362e1c9bf60e11b8152905183926001600160a01b03169163c5c3937e916004808301926020929190829003018186803b158015611e7f57600080fd5b505afa158015611e93573d6000803e3d6000fd5b505050506040513d6020811015611ea957600080fd5b5051600154604080516362e1c9bf60e11b815290519293506000926001600160a01b039092169163c5c3937e91600480820192602092909190829003018186803b1580156119ca57600080fd5b6003546001600160a01b031690565b6003546001600160a01b0316331490565b60115481565b6000611f26612932565b6001600160a01b0383166000908152600e6020526040812054610d479084613a63565b60165481565b6040518060400160405280600c81526020016b2a3937bb32a6b0b730b3b2b960a11b81525081565b600b546001600160a01b031681565b6000806000611f9484613dc5565b915091506000611fa48383613e3f565b95945050505050565b6004546001600160a01b031681565b6000610d6682613e6e565b6001600160a01b0381166000908152600e602052604081208054600190910154909180611ff3856128e7565b9150611ffe856112d5565b905061200a8483613a63565b93506120168382613a63565b92509193509193565b6040805160e0810182526000546001600160a01b03908116825260015481166020830152600854811692820192909252600a5482166060820152600b5482166080820152600754821660a082015260065490911660c08201526120806156e1565b61208983613e9a565b612091613ef4565b600260009054906101000a90046001600160a01b03166001600160a01b0316630fdb11cf6040518163ffffffff1660e01b8152600401602060405180830381600087803b1580156120e157600080fd5b505af11580156120f5573d6000803e3d6000fd5b505050506040513d602081101561210b57600080fd5b505160c0820181905261211d90613fb2565b61212689614001565b6121358260400151338b614040565b61213d61190e565b60e0820181905260408084015181516370a0823160e01b815233600482015291516001600160a01b03909116916370a08231916024808301926020929190829003018186803b15801561218f57600080fd5b505afa1580156121a3573d6000803e3d6000fd5b505050506040513d60208110156121b957600080fd5b505111156121c357fe5b888152608082015160c08201516000916121de918b906140f7565b156121ea57508761230b565b82608001516001600160a01b0316634d6228316040518163ffffffff1660e01b815260040160206040518083038186803b15801561222757600080fd5b505afa15801561223b573d6000803e3d6000fd5b505050506040513d602081101561225157600080fd5b505190505b6001600160a01b038116158015906122825750670f43fc2c04ee0000612280828460c001516127c0565b105b1561230b5782608001516001600160a01b031663b72703ac826040518263ffffffff1660e01b815260040180826001600160a01b0316815260200191505060206040518083038186803b1580156122d857600080fd5b505afa1580156122ec573d6000803e3d6000fd5b505050506040513d602081101561230257600080fd5b50519050612256565b846123165760001994505b6001600160a01b0381161580159061232e5750815115155b801561233a5750600085115b1561244d57848060019003955050600083608001516001600160a01b031663b72703ac836040518263ffffffff1660e01b815260040180826001600160a01b0316815260200191505060206040518083038186803b15801561239b57600080fd5b505afa1580156123af573d6000803e3d6000fd5b505050506040513d60208110156123c557600080fd5b5051845160208601519192506123db918461297d565b60006123f4858486600001518760c001518e8e8e614258565b905080604001511561240757505061244d565b8051602085015161241791613a63565b602080860191909152810151604085015161243191613a63565b60408501528051845161244391612a93565b8452509050612316565b60008260400151116124905760405162461bcd60e51b81526004018080602001828103825260298152602001806157d36029913960400191505060405180910390fd5b6124a782604001518360c001518460e0015161454c565b506124b582604001516145e2565b6060830181905260408301516124cc9190866145ef565b82600001516001600160a01b0316628063a5846060015184606001516040518363ffffffff1660e01b815260040180836001600160a01b0316815260200182815260200192505050600060405180830381600087803b15801561252e57600080fd5b505af1158015612542573d6000803e3d6000fd5b5050505082606001516001600160a01b031663c91d2d3883606001516040518263ffffffff1660e01b815260040180828152602001915050600060405180830381600087803b15801561259457600080fd5b505af11580156125a8573d6000803e3d6000fd5b50505050606082015160408301516125bf91612a93565b8260800181815250507f43a3f4082a4dbc33d78e317d2497d3a730bc7fc3574159dcea1056e62e5d9ad88a8360200151846040015185606001516040518085815260200184815260200183815260200182815260200194505050505060405180910390a182604001516001600160a01b0316639dc29fac3384602001516040518363ffffffff1660e01b815260040180836001600160a01b0316815260200182815260200192505050600060405180830381600087803b15801561268257600080fd5b505af1158015612696573d6000803e3d6000fd5b5050505082600001516001600160a01b0316632a7ba1f783602001516040518263ffffffff1660e01b815260040180828152602001915050600060405180830381600087803b1580156126e857600080fd5b505af11580156126fc573d6000803e3d6000fd5b5050505082600001516001600160a01b0316628063a53384608001516040518363ffffffff1660e01b815260040180836001600160a01b0316815260200182815260200192505050600060405180830381600087803b15801561275e57600080fd5b505af1158015612772573d6000803e3d6000fd5b5050505050505050505050505050565b600f5481565b6212750081565b600061120e61279c6134f0565b6133a3565b670ddd4b8c6c7d70d881565b6127b5612932565b610d1781600261465e565b60008060006127ce85613dc5565b91509150600061137f838387614777565b600d5481565b60006127ef612932565b6001600160a01b0383166000908152600e60205260408120600101546118909084612a93565b6000610d6661282261278f565b836147a1565b6001600160a01b03166000908152600e602052604090205490565b60006015828154811061285257fe5b6000918252602090912001546001600160a01b031692915050565b600060016001600160a01b0383166000908152600e602052604090206003015460ff16600481111561289b57fe5b146128a857506000610daf565b506012546001600160a01b03821660009081526014602052604090205410919050565b600a546001600160a01b031681565b600061120e600c54613a3c565b6001600160a01b03811660009081526014602052604081206001015460135482906112fd9083612a93565b6008546001600160a01b031681565b612929612932565b610d17816147fa565b6004546001600160a01b0316331461297b5760405162461bcd60e51b815260040180806020018281038252603b8152602001806158f5603b913960400191505060405180910390fd5b565b6129868161286d565b15612a8e57612994816133d9565b600061299f826112d5565b905060006129ac836128e7565b6001600160a01b0384166000908152600e60205260409020600101549091506129d59083613a63565b6001600160a01b0384166000908152600e60205260409020600181019190915554612a009082613a63565b6001600160a01b0384166000908152600e6020526040902055612a2283613d5a565b612a2e85858385614844565b6001600160a01b0383166000818152600e602090815260408083208054600182015460029092015483519182529381019190915280820192909252606082019290925290516000805160206158d58339815191529181900360800190a250505b505050565b6000612ad583836040518060400160405280601e81526020017f536166654d6174683a207375627472616374696f6e206f766572666c6f770000815250614946565b9392505050565b601580546001808201835560008381527f55f448fdea98c4d29eb340757ef0a66cd03dbb9538908a6a81d96026b71ec47590920180546001600160a01b0319166001600160a01b03861617905591549091612b379190612a93565b6001600160a01b03929092166000908152600e602052604090206003018054610100600160881b0319166101006001600160801b038516021790555090565b6001600160a01b0381166000908152600e60205260408120600101548190612b9d906149dd565b6001600160a01b0384166000908152600e60205260409020600201805490829055600f5491925090612bdb908390612bd59084612a93565b90613a63565b600f81905560408051918252517f6bac5e0eb3c44eb03a60ab11ec3a2c051771616aecadbcfff2630aabae5203829181900360200190a15092915050565b600080612c2583613e6e565b6714d1120d7b160000119392505050565b612c3e615695565b612c46615726565b612c4e615695565b84825260006080830152612c6061190e565b60a0830152612c6d611e3a565b60c0830152600060208301525b835182602001511015612e495783826020015181518110612c9757fe5b6020908102919091018101516001600160a01b0316606084018190526000908152600e909152604090206003015460019060ff166004811115612cd657fe5b14612ce057612e39565b612cee8260600151876127c0565b60408301526080820151612de157670f43fc2c04ee0000826040015110158015612d1757508151155b15612d2157612e39565b6000612d368360c001518460a0015189614777565b9050612d538989856060015186604001518760000151868d614a19565b60808101518451919350612d679190612a93565b8352608082015160a0840151612d7c91612a93565b8360a0018181525050612db182610100015161112a846040015161112a8660a001518860c00151612a9390919063ffffffff16565b60c0840152612dc08483614d57565b9350612dd58360c001518460a0015189614e38565b15608084015250612e39565b81608001518015612dfd5750670f43fc2c04ee00008260400151105b15612e3957612e16888884606001518560000151614e59565b60808101518351919250612e2a9190612a93565b8252612e368382614d57565b92505b6020820180516001019052612c7a565b505095945050505050565b612e5c615695565b612e64615726565b612e6c615695565b848252600060208301525b835182602001511015612e495783826020015181518110612e9457fe5b60209081029190910101516001600160a01b031660608301819052612eb990876127c0565b60408301819052670f43fc2c04ee00001115612f0657612ee3888884606001518560000151614e59565b60808101518351919250612ef79190612a93565b8252612f038382614d57565b92505b6020820180516001019052612e77565b81612f2057613163565b601654600090612f3c90612bd584670de0b6b3a7640000613455565b90506000612f61601754612bd5670de0b6b3a76400008761345590919063ffffffff16565b90506000612f7a600f54846134ae90919063ffffffff16565b90506000612f93600f54846134ae90919063ffffffff16565b9050612fb4612fad600f548461345590919063ffffffff16565b8590612a93565b601655600f54612fd090612fc9908390613455565b8490612a93565b601755601254612fe09083613a63565b601255601354612ff09082613a63565b601381905560125460408051918252602082019290925281517f9f8bc8ab0daf5bceef75ecfd2085d1fcc6548c657ea970d9a23a60610d0737e3929181900390910190a1876001600160a01b0316632a7ba1f7876040518263ffffffff1660e01b815260040180828152602001915050600060405180830381600087803b15801561307a57600080fd5b505af115801561308e573d6000803e3d6000fd5b50505050866001600160a01b0316632b7c7b11876040518263ffffffff1660e01b815260040180828152602001915050600060405180830381600087803b1580156130d857600080fd5b505af11580156130ec573d6000803e3d6000fd5b50505050876001600160a01b0316628063a588876040518363ffffffff1660e01b815260040180836001600160a01b0316815260200182815260200192505050600060405180830381600087803b15801561314657600080fd5b505af115801561315a573d6000803e3d6000fd5b50505050505050505b50505050565b600f546010819055506000826001600160a01b031663c5c3937e6040518163ffffffff1660e01b815260040160206040518083038186803b1580156131ad57600080fd5b505afa1580156131c1573d6000803e3d6000fd5b505050506040513d60208110156131d757600080fd5b5051600154604080516362e1c9bf60e11b815290519293506000926001600160a01b039092169163c5c3937e91600480820192602092909190829003018186803b15801561322457600080fd5b505afa158015613238573d6000803e3d6000fd5b505050506040513d602081101561324e57600080fd5b5051905061326081612bd58486612a93565b601181905560105460408051918252602082019290925281517f51bf4c63ec3cba9d03d43238abbdd979dd91bd16d9895c74ceea9118c7baaf60929181900390910190a150505050565b81156133295760085460065460408051631062c15f60e11b81526001600160a01b039283166004820152868316602482015260448101869052905191909216916320c582be91606480830192600092919082900301818387803b15801561331057600080fd5b505af1158015613324573d6000803e3d6000fd5b505050505b801561316357836001600160a01b0316628063a584836040518363ffffffff1660e01b815260040180836001600160a01b0316815260200182815260200192505050600060405180830381600087803b15801561338557600080fd5b505af1158015613399573d6000803e3d6000fd5b5050505050505050565b6000610d666133cb836103e8670de0b6b3a76400005b04600502613a6390919063ffffffff16565b670de0b6b3a7640000614fd3565b60016001600160a01b0382166000908152600e602052604090206003015460ff16600481111561340557fe5b14610d175760405162461bcd60e51b815260040180806020018281038252602f815260200180615a46602f913960400191505060405180910390fd5b6000612ad5670de0b6b3a764000061137985855b60008261346457506000610d66565b8282028284828161347157fe5b0414612ad55760405162461bcd60e51b81526004018080602001828103825260218152602001806158b46021913960400191505060405180910390fd5b6000612ad583836040518060400160405280601a81526020017f536166654d6174683a206469766973696f6e206279207a65726f000000000000815250614fe9565b6000806134fb61504e565b90506000613511670ddd4b8c6c7d70d88361506a565b9050611a02670de0b6b3a764000061137983600c5461345590919063ffffffff16565b600061354b600d5442612a9390919063ffffffff16565b9050603c8110610d175742600d81905560408051918252517f860f8d2f0c74dd487e89e2883e3b25b8159ce1e1b3433a291cba7b82c508f3bc9181900360200190a150565b613598615695565b6135a0615726565b6135a8615695565b848252600060808301526135ba61190e565b60a08301526135c7611e3a565b8260c001818152505086608001516001600160a01b0316634d6228316040518163ffffffff1660e01b815260040160206040518083038186803b15801561360d57600080fd5b505afa158015613621573d6000803e3d6000fd5b505050506040513d602081101561363757600080fd5b50516001600160a01b039081166060840152608088015160408051631e22314360e01b815290516000939290921691631e22314391600480820192602092909190829003018186803b15801561368c57600080fd5b505afa1580156136a0573d6000803e3d6000fd5b505050506040513d60208110156136b657600080fd5b50516000602085015290505b8483602001511080156136eb5750806001600160a01b031683606001516001600160a01b031614155b1561390557600088608001516001600160a01b031663b72703ac85606001516040518263ffffffff1660e01b815260040180826001600160a01b0316815260200191505060206040518083038186803b15801561374757600080fd5b505afa15801561375b573d6000803e3d6000fd5b505050506040513d602081101561377157600080fd5b5051606085015190915061378590896127c0565b6040850152608084015161387d57670f43fc2c04ee00008460400151101580156137ae57508351155b156137b95750613905565b60006137ce8560c001518660a001518b614777565b8a5160208c01516060880151604089015189519495506137ef94868f614a19565b608081015186519195506138039190612a93565b8552608084015160a086015161381891612a93565b8560a001818152505061384d84610100015161112a866040015161112a8860a001518a60c00151612a9390919063ffffffff16565b60c086015261385c8685614d57565b95506138718560c001518660a001518b614e38565b156080860152506138e7565b836080015180156138995750670f43fc2c04ee00008460400151105b156138e1576138ba89600001518a6020015186606001518760000151614e59565b608081015185519194506138ce9190612a93565b84526138da8584614d57565b94506138e7565b50613905565b6001600160a01b0316606084015260208301805160010190526136c2565b505050949350505050565b613918615695565b613920615726565b613928615695565b600b54858352600060208401526001600160a01b03165b8483602001511015613a3057806001600160a01b0316634d6228316040518163ffffffff1660e01b815260040160206040518083038186803b15801561398457600080fd5b505afa158015613998573d6000803e3d6000fd5b505050506040513d60208110156139ae57600080fd5b50516001600160a01b0316606084018190526139ca90886127c0565b60408401819052670f43fc2c04ee00001115613a1b576139f4898985606001518660000151614e59565b60808101518451919350613a089190612a93565b8352613a148483614d57565b9350613a20565b613a30565b602083018051600101905261393f565b50505095945050505050565b6000610d66613a56836103e8670de0b6b3a76400006133b9565b66b1a2bc2ec50000614fd3565b600082820183811015612ad5576040805162461bcd60e51b815260206004820152601b60248201527f536166654d6174683a206164646974696f6e206f766572666c6f770000000000604482015290519081900360640190fd5b6001600160a01b038116613b18576040805162461bcd60e51b815260206004820152601e60248201527f4163636f756e742063616e6e6f74206265207a65726f20616464726573730000604482015290519081900360640190fd5b803b80611275576040805162461bcd60e51b815260206004820181905260248201527f4163636f756e7420636f64652073697a652063616e6e6f74206265207a65726f604482015290519081900360640190fd5b7f0000000000000000000000000000000000000000000000000000000000000000816001600160a01b031663139f2e8c6040518163ffffffff1660e01b815260040160206040518083038186803b158015613bc657600080fd5b505afa158015613bda573d6000803e3d6000fd5b505050506040513d6020811015613bf057600080fd5b505114613c40576040805162461bcd60e51b815260206004820152601960248201527808e82a6be869e9aa08a9ca682a8929e9c40dad2e6dac2e8c6d603b1b604482015290519081900360640190fd5b7f0000000000000000000000000000000000000000000000000000000000000000816001600160a01b0316631bf435556040518163ffffffff1660e01b815260040160206040518083038186803b158015613c9a57600080fd5b505afa158015613cae573d6000803e3d6000fd5b505050506040513d6020811015613cc457600080fd5b505114610d17576040805162461bcd60e51b815260206004820152601560248201527409a929cbe9c8aa8be888a84a840dad2e6dac2e8c6d605b1b604482015290519081900360640190fd5b6003546040516000916001600160a01b0316907f8be0079c531659141344cd1fd0a4f28419497f9722a3daafe3b4186f6b6457e0908390a3600380546001600160a01b0319169055565b601280546001600160a01b0383166000908152601460209081526040918290209283556013546001909301839055925481519081529283019190915280517fc437f324d85e369394148dd9d62f98f534b382e01ed3dd2eb98138fb6d3ab49a9281900390910190a150565b6000806000613dd3846112d5565b90506000613de0856128e7565b6001600160a01b0386166000908152600e602052604081206001015491925090613e0a9084613a63565b6001600160a01b0387166000908152600e602052604081205491925090613e319084613a63565b919550909350505050915091565b60008115613e6557613e5e826113798568056bc75e2d63100000613455565b9050610d66565b50600019610d66565b600080613e79611e3a565b90506000613e8561190e565b9050613e92828286614777565b949350505050565b6611c37937e080008110801590613eb95750670de0b6b3a76400008111155b610d175760405162461bcd60e51b81526004018080602001828103825260308152602001806159ca6030913960400191505060405180910390fd5b60095460408051631e425be160e11b815290516000926001600160a01b031691633c84b7c2916004808301926020929190829003018186803b158015613f3957600080fd5b505afa158015613f4d573d6000803e3d6000fd5b505050506040513d6020811015613f6357600080fd5b50519050613f748162127500613a63565b421015610d175760405162461bcd60e51b81526004018080602001828103825260408152602001806158746040913960400191505060405180910390fd5b670f43fc2c04ee0000613fc482613e6e565b1015610d175760405162461bcd60e51b815260040180806020018281038252602a8152602001806159fa602a913960400191505060405180910390fd5b60008111610d175760405162461bcd60e51b815260040180806020018281038252602e815260200180615966602e913960400191505060405180910390fd5b80836001600160a01b03166370a08231846040518263ffffffff1660e01b815260040180826001600160a01b0316815260200191505060206040518083038186803b15801561408e57600080fd5b505afa1580156140a2573d6000803e3d6000fd5b505050506040513d60208110156140b857600080fd5b50511015612a8e5760405162461bcd60e51b815260040180806020018281038252604e8152602001806157fc604e913960600191505060405180910390fd5b60006001600160a01b03831615806141855750836001600160a01b0316635dbe47e8846040518263ffffffff1660e01b815260040180826001600160a01b0316815260200191505060206040518083038186803b15801561415757600080fd5b505afa15801561416b573d6000803e3d6000fd5b505050506040513d602081101561418157600080fd5b5051155b806141a05750670f43fc2c04ee000061419e84846127c0565b105b156141ad57506000612ad5565b6000846001600160a01b031663765e0159856040518263ffffffff1660e01b815260040180826001600160a01b0316815260200191505060206040518083038186803b1580156141fc57600080fd5b505afa158015614210573d6000803e3d6000fd5b505050506040513d602081101561422657600080fd5b505190506001600160a01b0381161580611fa45750670f43fc2c04ee000061424e82856127c0565b1095945050505050565b61426061576e565b6001600160a01b0387166000908152600e60205260409020546142ae9087906142a9907f0000000000000000000000000000000000000000000000000000000000000000612a93565b614fd3565b8082526142c990869061137990670de0b6b3a7640000613455565b60208083019190915281516001600160a01b0389166000908152600e90925260408220546142f691612a93565b6020808401516001600160a01b038b166000908152600e9092526040822060010154929350909161432691612a93565b90507f00000000000000000000000000000000000000000000000000000000000000008214156143ea57614359896147fa565b61436489600461465e565b6143908a8a7f000000000000000000000000000000000000000000000000000000000000000084615109565b886001600160a01b03166000805160206158d583398151915260008060006003604051808581526020018481526020018381526020018260038111156143d257fe5b815260200194505050505060405180910390a261453e565b60006143f68284613e3f565b9050848114158061442e57507f000000000000000000000000000000000000000000000000000000000000000061442c846152ab565b105b156144425750506001604083015250614541565b60808b01516040805163015f109360e51b81526001600160a01b038d81166004830152602482018590528a81166044830152898116606483015291519190921691632be2126091608480830192600092919082900301818387803b1580156144a957600080fd5b505af11580156144bd573d6000803e3d6000fd5b5050506001600160a01b038b166000908152600e60205260409020848155600101839055506144eb8a612b76565b506001600160a01b038a166000818152600e6020908152604091829020600201548251878152918201869052818301526003606082015290516000805160206158d58339815191529181900360800190a2505b50505b979650505050505050565b6000806145576134f0565b90506000614569846113798888613455565b9050600061458261457b8360026134ae565b8490613a63565b905061459681670de0b6b3a7640000614fd3565b9050600081116145a257fe5b600c8190556040805182815290517fc454ee9b76c52f782a256af821b857ca6e125d1e3333bcede402fec2bed9600c9181900360200190a161137f613534565b6000610d66612822611201565b60006146078361137986670de0b6b3a7640000613455565b905081811115613163576040805162461bcd60e51b815260206004820152601d60248201527f4665652065786365656465642070726f7669646564206d6178696d756d000000604482015290519081900360640190fd5b600081600481111561466c57fe5b141580156146865750600181600481111561468357fe5b14155b61468c57fe5b601554614698816152d7565b6001600160a01b0383166000908152600e60205260409020600301805483919060ff191660018360048111156146ca57fe5b02179055506001600160a01b0383166000908152600e6020908152604080832060018082018590559084905560149092528220828155015561470c8382615390565b600b5460408051631484968760e11b81526001600160a01b038681166004830152915191909216916329092d0e91602480830192600092919082900301818387803b15801561475a57600080fd5b505af115801561476e573d6000803e3d6000fd5b50505050505050565b6000821561479857600061478f846113798786613455565b9150612ad59050565b50600019612ad5565b6000806147ba670de0b6b3a76400006113798686613455565b9050828110612ad55760405162461bcd60e51b81526004018080602001828103825260368152602001806159946036913960400191505060405180910390fd5b6001600160a01b0381166000908152600e6020526040902060020154600f546148239082612a93565b600f55506001600160a01b03166000908152600e6020526040812060020155565b826001600160a01b0316632a7ba1f7836040518263ffffffff1660e01b815260040180828152602001915050600060405180830381600087803b15801561488a57600080fd5b505af115801561489e573d6000803e3d6000fd5b50505050836001600160a01b0316632b7c7b11836040518263ffffffff1660e01b815260040180828152602001915050600060405180830381600087803b1580156148e857600080fd5b505af11580156148fc573d6000803e3d6000fd5b50505050826001600160a01b0316638f7be730826040518263ffffffff1660e01b815260040180828152602001915050600060405180830381600087803b15801561338557600080fd5b600081848411156149d55760405162461bcd60e51b81526004018080602001828103825283818151815260200191508051906020019080838360005b8381101561499a578181015183820152602001614982565b50505050905090810190601f1680156149c75780820380516001836020036101000a031916815260200191505b509250505060405180910390fd5b505050900390565b600080601154600014156149f2575081610d66565b6000601054116149fe57fe5b612ad56011546113796010548661345590919063ffffffff16565b614a21615695565b614a29615791565b601554600110614a395750614541565b614a4287611fc7565b60408501526020848101919091528401819052908352614a6190615537565b604083018190527f000000000000000000000000000000000000000000000000000000000000000060608401526020830151614a9c91612a93565b8152670de0b6b3a76400008611614b9e57614ac1898983602001518460400151614844565b614aca876147fa565b60006080830181905260a0830152815160c0830152805160e0830152614af187600361465e565b866001600160a01b03166000805160206157b383398151915283600001518460200151600260405180848152602001838152602001826003811115614b3257fe5b8152602001935050505060405180910390a2866001600160a01b03166000805160206158d58339815191526000806000600260405180858152602001848152602001838152602001826003811115614b8657fe5b815260200194505050505060405180910390a2614d4b565b670de0b6b3a764000086118015614bbc5750670f43fc2c04ee000086105b15614c0c57614bd5898983602001518460400151614844565b614bde876147fa565b81518151614bed91908761553e565b60e086015260c085015260a08401526080830152614af187600361465e565b670f43fc2c04ee00008610158015614c2357508386105b8015614c30575081518510155b15614d3a57614c49898983602001518460400151614844565b84614c5057fe5b614c59876147fa565b614c6c8260000151836020015185615598565b9150614c7987600361465e565b61010082015115614cf95760075461010083015160408051633f10abab60e01b81526001600160a01b038b81166004830152602482019390935290519190921691633f10abab91604480830192600092919082900301818387803b158015614ce057600080fd5b505af1158015614cf4573d6000803e3d6000fd5b505050505b866001600160a01b03166000805160206157b383398151915283600001518460a00151600260405180848152602001838152602001826003811115614b3257fe5b614d42615695565b91506145419050565b50979650505050505050565b614d5f615695565b60408083015190840151614d7291613a63565b604082015260608083015190840151614d8a91613a63565b606082015281516020840151614d9f91613a63565b6020808301919091528201518351614db691613a63565b815260808083015190840151614dcb91613a63565b608082015260a08083015190840151614de391613a63565b60a082015260c08083015190840151614dfb91613a63565b60c082015260e08083015190840151614e1391613a63565b60e08201526101008083015190840151614e2c91613a63565b61010082015292915050565b600080614e46858585614777565b6714d1120d7b1600001195945050505050565b614e61615695565b614e69615791565b614e7284611fc7565b60408501908152602085810192835286019290925291845290519051614e9c918891889190614844565b614ea5846147fa565b614eb28260200151615537565b604083018190527f000000000000000000000000000000000000000000000000000000000000000060608401526020830151600091614ef19190612a93565b9050614f028360000151828661553e565b60e087015260c086015260a08501526080840152614f2185600361465e565b846001600160a01b03166000805160206157b383398151915284600001518560200151600160405180848152602001838152602001826003811115614f6257fe5b8152602001935050505060405180910390a2846001600160a01b03166000805160206158d58339815191526000806000600160405180858152602001848152602001838152602001826003811115614fb657fe5b815260200194505050505060405180910390a25050949350505050565b6000818310614fe25781612ad5565b5090919050565b600081836150385760405162461bcd60e51b815260206004820181815283516024840152835190928392604490910191908501908083836000831561499a578181015183820152602001614982565b50600083858161504457fe5b0495945050505050565b600061120e603c611379600d5442612a9390919063ffffffff16565b6000631f54050082111561508057631f54050091505b816150945750670de0b6b3a7640000610d66565b670de0b6b3a764000083835b60018111156150ff57600281066150cf576150bb8283615637565b91506150c88160026134ae565b90506150fa565b6150d98284615637565b92506150e58283615637565b91506150f76002611379836001612a93565b90505b6150a0565b61137f8284615637565b6040808501516006548251632770a7eb60e21b81526001600160a01b039182166004820152602481018690529251911691639dc29fac91604480830192600092919082900301818387803b15801561516057600080fd5b505af1158015615174573d6000803e3d6000fd5b5050505083600001516001600160a01b0316632a7ba1f7836040518263ffffffff1660e01b815260040180828152602001915050600060405180830381600087803b1580156151c257600080fd5b505af11580156151d6573d6000803e3d6000fd5b505050508360a001516001600160a01b0316633f10abab84836040518363ffffffff1660e01b815260040180836001600160a01b0316815260200182815260200192505050600060405180830381600087803b15801561523557600080fd5b505af1158015615249573d6000803e3d6000fd5b5050505083600001516001600160a01b0316628063a58560a00151836040518363ffffffff1660e01b815260040180836001600160a01b0316815260200182815260200192505050600060405180830381600087803b15801561338557600080fd5b6000610d66827f0000000000000000000000000000000000000000000000000000000000000000612a93565b6001811180156153555750600b546040805163de8fa43160e01b815290516001926001600160a01b03169163de8fa431916004808301926020929190829003018186803b15801561532757600080fd5b505afa15801561533b573d6000803e3d6000fd5b505050506040513d602081101561535157600080fd5b5051115b610d175760405162461bcd60e51b815260040180806020018281038252602a81526020018061584a602a913960400191505060405180910390fd5b6001600160a01b0382166000908152600e602052604081206003015460ff16908160048111156153bc57fe5b141580156153d6575060018160048111156153d357fe5b14155b6153dc57fe5b6001600160a01b0383166000908152600e602052604081206003015461010090046001600160801b0316908390615414826001612a93565b905080836001600160801b0316111561542957fe5b60006015828154811061543857fe5b600091825260209091200154601580546001600160a01b03909216925082916001600160801b03871690811061546a57fe5b600091825260208083209190910180546001600160a01b0319166001600160a01b03948516179055918316808252600e83526040918290206003018054610100600160881b0319166101006001600160801b038a169081029190911790915582519182529281019290925280517f02b04ae5f7be9ca7c103293a2aa15f3c339d15d6eda53b721fef7b0e609c831a9281900390910190a1601580548061550c57fe5b600082815260209020810160001990810180546001600160a01b031916905501905550505050505050565b60c8900490565b60008080808415615582576155538786614fd3565b9350615563876113798887613455565b925061556f8785612a93565b915061557b8684612a93565b905061558f565b5060009250829150859050845b93509350935093565b6155a0615695565b8381526020810183905260006155c28361137987670f43fc2c04ee0000613455565b90506155cd81615537565b604083018190527f000000000000000000000000000000000000000000000000000000000000000060608401526080830186905261560c908290612a93565b60a083015261561b8482612a93565b61010083015250600060c0820181905260e08201529392505050565b6000806156448484613455565b9050613e92670de0b6b3a7640000611379836706f05b59d3b20000613a63565b6040518060a00160405280600081526020016000815260200160001515815260200160008152602001600081525090565b6040518061012001604052806000815260200160008152602001600081526020016000815260200160008152602001600081526020016000815260200160008152602001600081525090565b60405180610100016040528060008152602001600081526020016000815260200160008152602001600081526020016000815260200160008152602001600081525090565b6040518060e0016040528060008152602001600081526020016000815260200160006001600160a01b0316815260200160001515815260200160008152602001600081525090565b604051806060016040528060008152602001600081526020016000151581525090565b6040518060600160405280600081526020016000815260200160008152509056feea67486ed7ebe3eea8ab3390efd4a3c8aae48be5bea27df104a8af786c40843454726f76654d616e616765723a20556e61626c6520746f2072656465656d20616e7920616d6f756e7454726f76654d616e616765723a2052657175657374656420726564656d7074696f6e20616d6f756e74206d757374206265203c3d20757365722773206465627420746f6b656e2062616c616e636554726f76654d616e616765723a204f6e6c79206f6e652074726f766520696e207468652073797374656d54726f76654d616e616765723a20526564656d7074696f6e7320617265206e6f7420616c6c6f77656420647572696e6720626f6f747374726170207068617365536166654d6174683a206d756c7469706c69636174696f6e206f766572666c6f77c3770d654ed33aeea6bf11ac8ef05d02a6a04ed4686dd2f624d853bbec43cc8b54726f76654d616e616765723a2043616c6c6572206973206e6f742074686520426f72726f7765724f7065726174696f6e7320636f6e747261637454726f76654d616e616765723a2043616c6c646174612061646472657373206172726179206d757374206e6f7420626520656d70747954726f76654d616e616765723a20416d6f756e74206d7573742062652067726561746572207468616e207a65726f54726f76654d616e616765723a2046656520776f756c642065617420757020616c6c2072657475726e656420636f6c6c61746572616c4d6178206665652070657263656e74616765206d757374206265206265747765656e20302e352520616e64203130302554726f76654d616e616765723a2043616e6e6f742072656465656d207768656e20544352203c204d435254726f76654d616e616765723a206e6f7468696e6720746f206c697175696461746554726f76654d616e616765723a2054726f766520646f6573206e6f74206578697374206f7220697320636c6f736564a26469706673582212208ee3e65ed1b471d1525323ecfa901df649d62ddda64e276ba8e3021d6324cbdc64736f6c63430007060033",
  "linkReferences": {},
  "deployedLinkReferences": {}
}