{
  "_format": "hh-sol-artifact-1",
  "contractName": "TroveManager",
  "sourceName": "contracts/TroveManager.sol",
  "abi": [
    {
      "anonymous": false,
      "inputs": [
        {
          "indexed": false,
          "internalType": "address",
          "name": "_activePoolAddress",
          "type": "address"
        }
      ],
      "name": "ActivePoolAddressChanged",
      "type": "event"
    },
    {
      "anonymous": false,
      "inputs": [
        {
          "indexed": false,
          "internalType": "uint256",
          "name": "_baseRate",
          "type": "uint256"
        }
      ],
      "name": "BaseRateUpdated",
      "type": "event"
    },
    {
      "anonymous": false,
      "inputs": [
        {
          "indexed": false,
          "internalType": "address",
          "name": "_newBorrowerOperationsAddress",
          "type": "address"
        }
      ],
      "name": "BorrowerOperationsAddressChanged",
      "type": "event"
    },
    {
      "anonymous": false,
      "inputs": [
        {
          "indexed": false,
          "internalType": "address",
          "name": "_collSurplusPoolAddress",
          "type": "address"
        }
      ],
      "name": "CollSurplusPoolAddressChanged",
      "type": "event"
    },
    {
      "anonymous": false,
      "inputs": [
        {
          "indexed": false,
          "internalType": "address",
          "name": "_newDebtTokenAddress",
          "type": "address"
        }
      ],
      "name": "DebtTokenAddressChanged",
      "type": "event"
    },
    {
      "anonymous": false,
      "inputs": [
        {
          "indexed": false,
          "internalType": "address",
          "name": "_defaultPoolAddress",
          "type": "address"
        }
      ],
      "name": "DefaultPoolAddressChanged",
      "type": "event"
    },
    {
      "anonymous": false,
      "inputs": [
        {
          "indexed": false,
          "internalType": "address",
          "name": "_gasPoolAddress",
          "type": "address"
        }
      ],
      "name": "GasPoolAddressChanged",
      "type": "event"
    },
    {
      "anonymous": false,
      "inputs": [
        {
          "indexed": false,
          "internalType": "address",
          "name": "_lqtyStakingAddress",
          "type": "address"
        }
      ],
      "name": "LQTYStakingAddressChanged",
      "type": "event"
    },
    {
      "anonymous": false,
      "inputs": [
        {
          "indexed": false,
          "internalType": "address",
          "name": "_lqtyTokenAddress",
          "type": "address"
        }
      ],
      "name": "LQTYTokenAddressChanged",
      "type": "event"
    },
    {
      "anonymous": false,
      "inputs": [
        {
          "indexed": false,
          "internalType": "uint256",
          "name": "_L_FIL",
          "type": "uint256"
        },
        {
          "indexed": false,
          "internalType": "uint256",
          "name": "_L_Debt",
          "type": "uint256"
        }
      ],
      "name": "LTermsUpdated",
      "type": "event"
    },
    {
      "anonymous": false,
      "inputs": [
        {
          "indexed": false,
          "internalType": "uint256",
          "name": "_lastFeeOpTime",
          "type": "uint256"
        }
      ],
      "name": "LastFeeOpTimeUpdated",
      "type": "event"
    },
    {
      "anonymous": false,
      "inputs": [
        {
          "indexed": false,
          "internalType": "uint256",
          "name": "_liquidatedDebt",
          "type": "uint256"
        },
        {
          "indexed": false,
          "internalType": "uint256",
          "name": "_liquidatedColl",
          "type": "uint256"
        },
        {
          "indexed": false,
          "internalType": "uint256",
          "name": "_collGasCompensation",
          "type": "uint256"
        },
        {
          "indexed": false,
          "internalType": "uint256",
          "name": "_debtGasCompensation",
          "type": "uint256"
        }
      ],
      "name": "Liquidation",
      "type": "event"
    },
    {
      "anonymous": false,
      "inputs": [
        {
          "indexed": true,
          "internalType": "address",
          "name": "previousOwner",
          "type": "address"
        },
        {
          "indexed": true,
          "internalType": "address",
          "name": "newOwner",
          "type": "address"
        }
      ],
      "name": "OwnershipTransferred",
      "type": "event"
    },
    {
      "anonymous": false,
      "inputs": [
        {
          "indexed": false,
          "internalType": "address",
          "name": "_newPriceFeedAddress",
          "type": "address"
        }
      ],
      "name": "PriceFeedAddressChanged",
      "type": "event"
    },
    {
      "anonymous": false,
      "inputs": [
        {
          "indexed": false,
          "internalType": "uint256",
          "name": "_attemptedDebtTokenAmount",
          "type": "uint256"
        },
        {
          "indexed": false,
          "internalType": "uint256",
          "name": "_actualDebtTokenAmount",
          "type": "uint256"
        },
        {
          "indexed": false,
          "internalType": "uint256",
          "name": "_FILSent",
          "type": "uint256"
        },
        {
          "indexed": false,
          "internalType": "uint256",
          "name": "_FILFee",
          "type": "uint256"
        }
      ],
      "name": "Redemption",
      "type": "event"
    },
    {
      "anonymous": false,
      "inputs": [
        {
          "indexed": false,
          "internalType": "address",
          "name": "_sortedTrovesAddress",
          "type": "address"
        }
      ],
      "name": "SortedTrovesAddressChanged",
      "type": "event"
    },
    {
      "anonymous": false,
      "inputs": [
        {
          "indexed": false,
          "internalType": "address",
          "name": "_stabilityPoolAddress",
          "type": "address"
        }
      ],
      "name": "StabilityPoolAddressChanged",
      "type": "event"
    },
    {
      "anonymous": false,
      "inputs": [
        {
          "indexed": false,
          "internalType": "uint256",
          "name": "_totalStakesSnapshot",
          "type": "uint256"
        },
        {
          "indexed": false,
          "internalType": "uint256",
          "name": "_totalCollateralSnapshot",
          "type": "uint256"
        }
      ],
      "name": "SystemSnapshotsUpdated",
      "type": "event"
    },
    {
      "anonymous": false,
      "inputs": [
        {
          "indexed": false,
          "internalType": "uint256",
          "name": "_newTotalStakes",
          "type": "uint256"
        }
      ],
      "name": "TotalStakesUpdated",
      "type": "event"
    },
    {
      "anonymous": false,
      "inputs": [
        {
          "indexed": false,
          "internalType": "address",
          "name": "_borrower",
          "type": "address"
        },
        {
          "indexed": false,
          "internalType": "uint256",
          "name": "_newIndex",
          "type": "uint256"
        }
      ],
      "name": "TroveIndexUpdated",
      "type": "event"
    },
    {
      "anonymous": false,
      "inputs": [
        {
          "indexed": true,
          "internalType": "address",
          "name": "_borrower",
          "type": "address"
        },
        {
          "indexed": false,
          "internalType": "uint256",
          "name": "_debt",
          "type": "uint256"
        },
        {
          "indexed": false,
          "internalType": "uint256",
          "name": "_coll",
          "type": "uint256"
        },
        {
          "indexed": false,
          "internalType": "enum TroveManager.TroveManagerOperation",
          "name": "_operation",
          "type": "uint8"
        }
      ],
      "name": "TroveLiquidated",
      "type": "event"
    },
    {
      "anonymous": false,
      "inputs": [
        {
          "indexed": false,
          "internalType": "uint256",
          "name": "_L_FIL",
          "type": "uint256"
        },
        {
          "indexed": false,
          "internalType": "uint256",
          "name": "_L_Debt",
          "type": "uint256"
        }
      ],
      "name": "TroveSnapshotsUpdated",
      "type": "event"
    },
    {
      "anonymous": false,
      "inputs": [
        {
          "indexed": true,
          "internalType": "address",
          "name": "_borrower",
          "type": "address"
        },
        {
          "indexed": false,
          "internalType": "uint256",
          "name": "_debt",
          "type": "uint256"
        },
        {
          "indexed": false,
          "internalType": "uint256",
          "name": "_coll",
          "type": "uint256"
        },
        {
          "indexed": false,
          "internalType": "uint256",
          "name": "_stake",
          "type": "uint256"
        },
        {
          "indexed": false,
          "internalType": "enum TroveManager.TroveManagerOperation",
          "name": "_operation",
          "type": "uint8"
        }
      ],
      "name": "TroveUpdated",
      "type": "event"
    },
    {
      "inputs": [],
      "name": "BETA",
      "outputs": [
        {
          "internalType": "uint256",
          "name": "",
          "type": "uint256"
        }
      ],
      "stateMutability": "view",
      "type": "function"
    },
    {
      "inputs": [],
      "name": "BOOTSTRAP_PERIOD",
      "outputs": [
        {
          "internalType": "uint256",
          "name": "",
          "type": "uint256"
        }
      ],
      "stateMutability": "view",
      "type": "function"
    },
    {
      "inputs": [],
      "name": "BORROWING_FEE_FLOOR",
      "outputs": [
        {
          "internalType": "uint256",
          "name": "",
          "type": "uint256"
        }
      ],
      "stateMutability": "view",
      "type": "function"
    },
    {
      "inputs": [],
      "name": "CCR",
      "outputs": [
        {
          "internalType": "uint256",
          "name": "",
          "type": "uint256"
        }
      ],
      "stateMutability": "view",
      "type": "function"
    },
    {
      "inputs": [],
      "name": "DECIMAL_PRECISION",
      "outputs": [
        {
          "internalType": "uint256",
          "name": "",
          "type": "uint256"
        }
      ],
      "stateMutability": "view",
      "type": "function"
    },
    {
      "inputs": [],
      "name": "GAS_COMPENSATION",
      "outputs": [
        {
          "internalType": "uint256",
          "name": "",
          "type": "uint256"
        }
      ],
      "stateMutability": "view",
      "type": "function"
    },
    {
      "inputs": [],
      "name": "L_Debt",
      "outputs": [
        {
          "internalType": "uint256",
          "name": "",
          "type": "uint256"
        }
      ],
      "stateMutability": "view",
      "type": "function"
    },
    {
      "inputs": [],
      "name": "L_FIL",
      "outputs": [
        {
          "internalType": "uint256",
          "name": "",
          "type": "uint256"
        }
      ],
      "stateMutability": "view",
      "type": "function"
    },
    {
      "inputs": [],
      "name": "MAX_BORROWING_FEE",
      "outputs": [
        {
          "internalType": "uint256",
          "name": "",
          "type": "uint256"
        }
      ],
      "stateMutability": "view",
      "type": "function"
    },
    {
      "inputs": [],
      "name": "MCR",
      "outputs": [
        {
          "internalType": "uint256",
          "name": "",
          "type": "uint256"
        }
      ],
      "stateMutability": "view",
      "type": "function"
    },
    {
      "inputs": [],
      "name": "MINUTE_DECAY_FACTOR",
      "outputs": [
        {
          "internalType": "uint256",
          "name": "",
          "type": "uint256"
        }
      ],
      "stateMutability": "view",
      "type": "function"
    },
    {
      "inputs": [],
      "name": "MIN_NET_DEBT",
      "outputs": [
        {
          "internalType": "uint256",
          "name": "",
          "type": "uint256"
        }
      ],
      "stateMutability": "view",
      "type": "function"
    },
    {
      "inputs": [],
      "name": "NAME",
      "outputs": [
        {
          "internalType": "string",
          "name": "",
          "type": "string"
        }
      ],
      "stateMutability": "view",
      "type": "function"
    },
    {
      "inputs": [],
      "name": "PERCENT_DIVISOR",
      "outputs": [
        {
          "internalType": "uint256",
          "name": "",
          "type": "uint256"
        }
      ],
      "stateMutability": "view",
      "type": "function"
    },
    {
      "inputs": [],
      "name": "REDEMPTION_FEE_FLOOR",
      "outputs": [
        {
          "internalType": "uint256",
          "name": "",
          "type": "uint256"
        }
      ],
      "stateMutability": "view",
      "type": "function"
    },
    {
      "inputs": [],
      "name": "SECONDS_IN_ONE_MINUTE",
      "outputs": [
        {
          "internalType": "uint256",
          "name": "",
          "type": "uint256"
        }
      ],
      "stateMutability": "view",
      "type": "function"
    },
    {
      "inputs": [
        {
          "internalType": "uint256",
          "name": "",
          "type": "uint256"
        }
      ],
      "name": "TroveOwners",
      "outputs": [
        {
          "internalType": "address",
          "name": "",
          "type": "address"
        }
      ],
      "stateMutability": "view",
      "type": "function"
    },
    {
      "inputs": [
        {
          "internalType": "address",
          "name": "",
          "type": "address"
        }
      ],
      "name": "Troves",
      "outputs": [
        {
          "internalType": "uint256",
          "name": "debt",
          "type": "uint256"
        },
        {
          "internalType": "uint256",
          "name": "coll",
          "type": "uint256"
        },
        {
          "internalType": "uint256",
          "name": "stake",
          "type": "uint256"
        },
        {
          "internalType": "enum TroveManager.Status",
          "name": "status",
          "type": "uint8"
        },
        {
          "internalType": "uint128",
          "name": "arrayIndex",
          "type": "uint128"
        }
      ],
      "stateMutability": "view",
      "type": "function"
    },
    {
      "inputs": [],
      "name": "_100pct",
      "outputs": [
        {
          "internalType": "uint256",
          "name": "",
          "type": "uint256"
        }
      ],
      "stateMutability": "view",
      "type": "function"
    },
    {
      "inputs": [],
      "name": "activePool",
      "outputs": [
        {
          "internalType": "contract IActivePool",
          "name": "",
          "type": "address"
        }
      ],
      "stateMutability": "view",
      "type": "function"
    },
    {
      "inputs": [
        {
          "internalType": "address",
          "name": "_borrower",
          "type": "address"
        }
      ],
      "name": "addTroveOwnerToArray",
      "outputs": [
        {
          "internalType": "uint256",
          "name": "index",
          "type": "uint256"
        }
      ],
      "stateMutability": "nonpayable",
      "type": "function"
    },
    {
      "inputs": [
        {
          "internalType": "address",
          "name": "_borrower",
          "type": "address"
        }
      ],
      "name": "applyPendingRewards",
      "outputs": [],
      "stateMutability": "nonpayable",
      "type": "function"
    },
    {
      "inputs": [],
      "name": "baseRate",
      "outputs": [
        {
          "internalType": "uint256",
          "name": "",
          "type": "uint256"
        }
      ],
      "stateMutability": "view",
      "type": "function"
    },
    {
      "inputs": [
        {
          "internalType": "address[]",
          "name": "_troveArray",
          "type": "address[]"
        }
      ],
      "name": "batchLiquidateTroves",
      "outputs": [],
      "stateMutability": "nonpayable",
      "type": "function"
    },
    {
      "inputs": [],
      "name": "borrowerOperationsAddress",
      "outputs": [
        {
          "internalType": "address",
          "name": "",
          "type": "address"
        }
      ],
      "stateMutability": "view",
      "type": "function"
    },
    {
      "inputs": [
        {
          "internalType": "uint256",
          "name": "_price",
          "type": "uint256"
        }
      ],
      "name": "checkRecoveryMode",
      "outputs": [
        {
          "internalType": "bool",
          "name": "",
          "type": "bool"
        }
      ],
      "stateMutability": "view",
      "type": "function"
    },
    {
      "inputs": [
        {
          "internalType": "address",
          "name": "_borrower",
          "type": "address"
        }
      ],
      "name": "closeTrove",
      "outputs": [],
      "stateMutability": "nonpayable",
      "type": "function"
    },
    {
      "inputs": [],
      "name": "debtToken",
      "outputs": [
        {
          "internalType": "contract IDebtToken",
          "name": "",
          "type": "address"
        }
      ],
      "stateMutability": "view",
      "type": "function"
    },
    {
      "inputs": [],
      "name": "decayBaseRateFromBorrowing",
      "outputs": [],
      "stateMutability": "nonpayable",
      "type": "function"
    },
    {
      "inputs": [
        {
          "internalType": "address",
          "name": "_borrower",
          "type": "address"
        },
        {
          "internalType": "uint256",
          "name": "_collDecrease",
          "type": "uint256"
        }
      ],
      "name": "decreaseTroveColl",
      "outputs": [
        {
          "internalType": "uint256",
          "name": "",
          "type": "uint256"
        }
      ],
      "stateMutability": "nonpayable",
      "type": "function"
    },
    {
      "inputs": [
        {
          "internalType": "address",
          "name": "_borrower",
          "type": "address"
        },
        {
          "internalType": "uint256",
          "name": "_debtDecrease",
          "type": "uint256"
        }
      ],
      "name": "decreaseTroveDebt",
      "outputs": [
        {
          "internalType": "uint256",
          "name": "",
          "type": "uint256"
        }
      ],
      "stateMutability": "nonpayable",
      "type": "function"
    },
    {
      "inputs": [],
      "name": "defaultPool",
      "outputs": [
        {
          "internalType": "contract IDefaultPool",
          "name": "",
          "type": "address"
        }
      ],
      "stateMutability": "view",
      "type": "function"
    },
    {
      "inputs": [
        {
          "internalType": "uint256",
          "name": "_debt",
          "type": "uint256"
        }
      ],
      "name": "getBorrowingFee",
      "outputs": [
        {
          "internalType": "uint256",
          "name": "",
          "type": "uint256"
        }
      ],
      "stateMutability": "view",
      "type": "function"
    },
    {
      "inputs": [
        {
          "internalType": "uint256",
          "name": "_debt",
          "type": "uint256"
        }
      ],
      "name": "getBorrowingFeeWithDecay",
      "outputs": [
        {
          "internalType": "uint256",
          "name": "",
          "type": "uint256"
        }
      ],
      "stateMutability": "view",
      "type": "function"
    },
    {
      "inputs": [],
      "name": "getBorrowingRate",
      "outputs": [
        {
          "internalType": "uint256",
          "name": "",
          "type": "uint256"
        }
      ],
      "stateMutability": "view",
      "type": "function"
    },
    {
      "inputs": [],
      "name": "getBorrowingRateWithDecay",
      "outputs": [
        {
          "internalType": "uint256",
          "name": "",
          "type": "uint256"
        }
      ],
      "stateMutability": "view",
      "type": "function"
    },
    {
      "inputs": [
        {
          "internalType": "address",
          "name": "_borrower",
          "type": "address"
        },
        {
          "internalType": "uint256",
          "name": "_price",
          "type": "uint256"
        }
      ],
      "name": "getCurrentICR",
      "outputs": [
        {
          "internalType": "uint256",
          "name": "",
          "type": "uint256"
        }
      ],
      "stateMutability": "view",
      "type": "function"
    },
    {
      "inputs": [
        {
          "internalType": "address",
          "name": "_borrower",
          "type": "address"
        }
      ],
      "name": "getEntireDebtAndColl",
      "outputs": [
        {
          "internalType": "uint256",
          "name": "debt",
          "type": "uint256"
        },
        {
          "internalType": "uint256",
          "name": "coll",
          "type": "uint256"
        },
        {
          "internalType": "uint256",
          "name": "pendingDebtReward",
          "type": "uint256"
        },
        {
          "internalType": "uint256",
          "name": "pendingFILReward",
          "type": "uint256"
        }
      ],
      "stateMutability": "view",
      "type": "function"
    },
    {
      "inputs": [],
      "name": "getEntireSystemColl",
      "outputs": [
        {
          "internalType": "uint256",
          "name": "entireSystemColl",
          "type": "uint256"
        }
      ],
      "stateMutability": "view",
      "type": "function"
    },
    {
      "inputs": [],
      "name": "getEntireSystemDebt",
      "outputs": [
        {
          "internalType": "uint256",
          "name": "entireSystemDebt",
          "type": "uint256"
        }
      ],
      "stateMutability": "view",
      "type": "function"
    },
    {
      "inputs": [
        {
          "internalType": "address",
          "name": "_borrower",
          "type": "address"
        }
      ],
      "name": "getNominalICR",
      "outputs": [
        {
          "internalType": "uint256",
          "name": "",
          "type": "uint256"
        }
      ],
      "stateMutability": "view",
      "type": "function"
    },
    {
      "inputs": [
        {
          "internalType": "address",
          "name": "_borrower",
          "type": "address"
        }
      ],
      "name": "getPendingDebtReward",
      "outputs": [
        {
          "internalType": "uint256",
          "name": "",
          "type": "uint256"
        }
      ],
      "stateMutability": "view",
      "type": "function"
    },
    {
      "inputs": [
        {
          "internalType": "address",
          "name": "_borrower",
          "type": "address"
        }
      ],
      "name": "getPendingFILReward",
      "outputs": [
        {
          "internalType": "uint256",
          "name": "",
          "type": "uint256"
        }
      ],
      "stateMutability": "view",
      "type": "function"
    },
    {
      "inputs": [
        {
          "internalType": "uint256",
          "name": "_FILDrawn",
          "type": "uint256"
        }
      ],
      "name": "getRedemptionFeeWithDecay",
      "outputs": [
        {
          "internalType": "uint256",
          "name": "",
          "type": "uint256"
        }
      ],
      "stateMutability": "view",
      "type": "function"
    },
    {
      "inputs": [],
      "name": "getRedemptionRate",
      "outputs": [
        {
          "internalType": "uint256",
          "name": "",
          "type": "uint256"
        }
      ],
      "stateMutability": "view",
      "type": "function"
    },
    {
      "inputs": [],
      "name": "getRedemptionRateWithDecay",
      "outputs": [
        {
          "internalType": "uint256",
          "name": "",
          "type": "uint256"
        }
      ],
      "stateMutability": "view",
      "type": "function"
    },
    {
      "inputs": [
        {
          "internalType": "uint256",
          "name": "_price",
          "type": "uint256"
        }
      ],
      "name": "getTCR",
      "outputs": [
        {
          "internalType": "uint256",
          "name": "",
          "type": "uint256"
        }
      ],
      "stateMutability": "view",
      "type": "function"
    },
    {
      "inputs": [
        {
          "internalType": "address",
          "name": "_borrower",
          "type": "address"
        }
      ],
      "name": "getTroveColl",
      "outputs": [
        {
          "internalType": "uint256",
          "name": "",
          "type": "uint256"
        }
      ],
      "stateMutability": "view",
      "type": "function"
    },
    {
      "inputs": [
        {
          "internalType": "address",
          "name": "_borrower",
          "type": "address"
        }
      ],
      "name": "getTroveDebt",
      "outputs": [
        {
          "internalType": "uint256",
          "name": "",
          "type": "uint256"
        }
      ],
      "stateMutability": "view",
      "type": "function"
    },
    {
      "inputs": [
        {
          "internalType": "uint256",
          "name": "_index",
          "type": "uint256"
        }
      ],
      "name": "getTroveFromTroveOwnersArray",
      "outputs": [
        {
          "internalType": "address",
          "name": "",
          "type": "address"
        }
      ],
      "stateMutability": "view",
      "type": "function"
    },
    {
      "inputs": [],
      "name": "getTroveOwnersCount",
      "outputs": [
        {
          "internalType": "uint256",
          "name": "",
          "type": "uint256"
        }
      ],
      "stateMutability": "view",
      "type": "function"
    },
    {
      "inputs": [
        {
          "internalType": "address",
          "name": "_borrower",
          "type": "address"
        }
      ],
      "name": "getTroveStake",
      "outputs": [
        {
          "internalType": "uint256",
          "name": "",
          "type": "uint256"
        }
      ],
      "stateMutability": "view",
      "type": "function"
    },
    {
      "inputs": [
        {
          "internalType": "address",
          "name": "_borrower",
          "type": "address"
        }
      ],
      "name": "getTroveStatus",
      "outputs": [
        {
          "internalType": "uint256",
          "name": "",
          "type": "uint256"
        }
      ],
      "stateMutability": "view",
      "type": "function"
    },
    {
      "inputs": [
        {
          "internalType": "address",
          "name": "_borrower",
          "type": "address"
        }
      ],
      "name": "hasPendingRewards",
      "outputs": [
        {
          "internalType": "bool",
          "name": "",
          "type": "bool"
        }
      ],
      "stateMutability": "view",
      "type": "function"
    },
    {
      "inputs": [
        {
          "internalType": "address",
          "name": "_borrower",
          "type": "address"
        },
        {
          "internalType": "uint256",
          "name": "_collIncrease",
          "type": "uint256"
        }
      ],
      "name": "increaseTroveColl",
      "outputs": [
        {
          "internalType": "uint256",
          "name": "",
          "type": "uint256"
        }
      ],
      "stateMutability": "nonpayable",
      "type": "function"
    },
    {
      "inputs": [
        {
          "internalType": "address",
          "name": "_borrower",
          "type": "address"
        },
        {
          "internalType": "uint256",
          "name": "_debtIncrease",
          "type": "uint256"
        }
      ],
      "name": "increaseTroveDebt",
      "outputs": [
        {
          "internalType": "uint256",
          "name": "",
          "type": "uint256"
        }
      ],
      "stateMutability": "nonpayable",
      "type": "function"
    },
    {
      "inputs": [],
      "name": "isOwner",
      "outputs": [
        {
          "internalType": "bool",
          "name": "",
          "type": "bool"
        }
      ],
      "stateMutability": "view",
      "type": "function"
    },
    {
      "inputs": [],
      "name": "lastFILError_Redistribution",
      "outputs": [
        {
          "internalType": "uint256",
          "name": "",
          "type": "uint256"
        }
      ],
      "stateMutability": "view",
      "type": "function"
    },
    {
      "inputs": [],
      "name": "lastFeeOperationTime",
      "outputs": [
        {
          "internalType": "uint256",
          "name": "",
          "type": "uint256"
        }
      ],
      "stateMutability": "view",
      "type": "function"
    },
    {
      "inputs": [],
      "name": "lastLDebtError_Redistribution",
      "outputs": [
        {
          "internalType": "uint256",
          "name": "",
          "type": "uint256"
        }
      ],
      "stateMutability": "view",
      "type": "function"
    },
    {
      "inputs": [
        {
          "internalType": "address",
          "name": "_borrower",
          "type": "address"
        }
      ],
      "name": "liquidate",
      "outputs": [],
      "stateMutability": "nonpayable",
      "type": "function"
    },
    {
      "inputs": [
        {
          "internalType": "uint256",
          "name": "_n",
          "type": "uint256"
        }
      ],
      "name": "liquidateTroves",
      "outputs": [],
      "stateMutability": "nonpayable",
      "type": "function"
    },
    {
      "inputs": [],
      "name": "lqtyStaking",
      "outputs": [
        {
          "internalType": "contract ILQTYStaking",
          "name": "",
          "type": "address"
        }
      ],
      "stateMutability": "view",
      "type": "function"
    },
    {
      "inputs": [],
      "name": "lqtyToken",
      "outputs": [
        {
          "internalType": "contract ILQTYToken",
          "name": "",
          "type": "address"
        }
      ],
      "stateMutability": "view",
      "type": "function"
    },
    {
      "inputs": [],
      "name": "owner",
      "outputs": [
        {
          "internalType": "address",
          "name": "",
          "type": "address"
        }
      ],
      "stateMutability": "view",
      "type": "function"
    },
    {
      "inputs": [],
      "name": "priceFeed",
      "outputs": [
        {
          "internalType": "contract IPriceFeed",
          "name": "",
          "type": "address"
        }
      ],
      "stateMutability": "view",
      "type": "function"
    },
    {
      "inputs": [
        {
          "internalType": "uint256",
          "name": "_debtTokenAmount",
          "type": "uint256"
        },
        {
          "internalType": "address",
          "name": "_firstRedemptionHint",
          "type": "address"
        },
        {
          "internalType": "address",
          "name": "_upperPartialRedemptionHint",
          "type": "address"
        },
        {
          "internalType": "address",
          "name": "_lowerPartialRedemptionHint",
          "type": "address"
        },
        {
          "internalType": "uint256",
          "name": "_partialRedemptionHintNICR",
          "type": "uint256"
        },
        {
          "internalType": "uint256",
          "name": "_maxIterations",
          "type": "uint256"
        },
        {
          "internalType": "uint256",
          "name": "_maxFeePercentage",
          "type": "uint256"
        }
      ],
      "name": "redeemCollateral",
      "outputs": [],
      "stateMutability": "nonpayable",
      "type": "function"
    },
    {
      "inputs": [
        {
          "internalType": "address",
          "name": "_borrower",
          "type": "address"
        }
      ],
      "name": "removeStake",
      "outputs": [],
      "stateMutability": "nonpayable",
      "type": "function"
    },
    {
      "inputs": [
        {
          "internalType": "address",
          "name": "",
          "type": "address"
        }
      ],
      "name": "rewardSnapshots",
      "outputs": [
        {
          "internalType": "uint256",
          "name": "FIL",
          "type": "uint256"
        },
        {
          "internalType": "uint256",
          "name": "debt",
          "type": "uint256"
        }
      ],
      "stateMutability": "view",
      "type": "function"
    },
    {
      "inputs": [
        {
          "internalType": "address",
          "name": "_borrowerOperationsAddress",
          "type": "address"
        },
        {
          "internalType": "address",
          "name": "_activePoolAddress",
          "type": "address"
        },
        {
          "internalType": "address",
          "name": "_defaultPoolAddress",
          "type": "address"
        },
        {
          "internalType": "address",
          "name": "_stabilityPoolAddress",
          "type": "address"
        },
        {
          "internalType": "address",
          "name": "_gasPoolAddress",
          "type": "address"
        },
        {
          "internalType": "address",
          "name": "_collSurplusPoolAddress",
          "type": "address"
        },
        {
          "internalType": "address",
          "name": "_priceFeedAddress",
          "type": "address"
        },
        {
          "internalType": "address",
          "name": "_debtTokenAddress",
          "type": "address"
        },
        {
          "internalType": "address",
          "name": "_sortedTrovesAddress",
          "type": "address"
        },
        {
          "internalType": "address",
          "name": "_lqtyTokenAddress",
          "type": "address"
        },
        {
          "internalType": "address",
          "name": "_lqtyStakingAddress",
          "type": "address"
        }
      ],
      "name": "setAddresses",
      "outputs": [],
      "stateMutability": "nonpayable",
      "type": "function"
    },
    {
      "inputs": [
        {
          "internalType": "address",
          "name": "_borrower",
          "type": "address"
        },
        {
          "internalType": "uint256",
          "name": "_num",
          "type": "uint256"
        }
      ],
      "name": "setTroveStatus",
      "outputs": [],
      "stateMutability": "nonpayable",
      "type": "function"
    },
    {
      "inputs": [],
      "name": "sortedTroves",
      "outputs": [
        {
          "internalType": "contract ISortedTroves",
          "name": "",
          "type": "address"
        }
      ],
      "stateMutability": "view",
      "type": "function"
    },
    {
      "inputs": [],
      "name": "stabilityPool",
      "outputs": [
        {
          "internalType": "contract IStabilityPool",
          "name": "",
          "type": "address"
        }
      ],
      "stateMutability": "view",
      "type": "function"
    },
    {
      "inputs": [],
      "name": "totalCollateralSnapshot",
      "outputs": [
        {
          "internalType": "uint256",
          "name": "",
          "type": "uint256"
        }
      ],
      "stateMutability": "view",
      "type": "function"
    },
    {
      "inputs": [],
      "name": "totalStakes",
      "outputs": [
        {
          "internalType": "uint256",
          "name": "",
          "type": "uint256"
        }
      ],
      "stateMutability": "view",
      "type": "function"
    },
    {
      "inputs": [],
      "name": "totalStakesSnapshot",
      "outputs": [
        {
          "internalType": "uint256",
          "name": "",
          "type": "uint256"
        }
      ],
      "stateMutability": "view",
      "type": "function"
    },
    {
      "inputs": [
        {
          "internalType": "address",
          "name": "_borrower",
          "type": "address"
        }
      ],
      "name": "updateStakeAndTotalStakes",
      "outputs": [
        {
          "internalType": "uint256",
          "name": "",
          "type": "uint256"
        }
      ],
      "stateMutability": "nonpayable",
      "type": "function"
    },
    {
      "inputs": [
        {
          "internalType": "address",
          "name": "_borrower",
          "type": "address"
        }
      ],
      "name": "updateTroveRewardSnapshots",
      "outputs": [],
      "stateMutability": "nonpayable",
      "type": "function"
    }
  ],
  "bytecode": "0x608060405234801561001057600080fd5b50600380546001600160a01b031916339081179091556040516000907f8be0079c531659141344cd1fd0a4f28419497f9722a3daafe3b4186f6b6457e0908290a3615a8e80620000616000396000f3fe608060405234801561001057600080fd5b506004361061044a5760003560e01c8063756b253e1161023c578063b82f263d11610146578063d3d6f843116100c3578063f36b242511610087578063f36b242514610c85578063f59fac2d14610c8d578063f8d8989814610cb3578063f92d343314610665578063fe2ba84814610cbb5761044a565b8063d3d6f84314610bd3578063d5b3563514610bff578063d66a255314610c1c578063d9a7244414610c42578063e2ac77b014610c5f5761044a565b8063c52861f21161010a578063c52861f214610b69578063c7b5548114610b71578063cbd138ae14610b79578063d293c71014610b9f578063d380a37c14610bcb5761044a565b8063b82f263d14610aa2578063b91af97c14610abf578063bcd3752614610b0b578063bf9befb114610b59578063c35bc55014610b615761044a565b80638f32d59b116101d4578063a3a6401711610198578063a3a64017146109e7578063a3f4df7e146109ef578063ae91875414610a6c578063b0d8e18114610a74578063b7f8cf9b14610a9a5761044a565b80638f32d59b146109a357806396d711ff146109ab5780639976cf45146109b3578063a0d8d6bc146109df578063a20baee61461089c5761044a565b8063756b253e146108b4578063794e5724146108d1578063795d26c3146108d95780637985c5e4146108e15780637f7dde4a1461095d578063807d138d1461096557806382fe3eb91461096d578063887105d3146109935780638da5cb5b1461099b5761044a565b80633cc742251161035857806361ec893d116102d55780636ef64338116102995780636ef643381461080157806372423c171461087057806372fe25aa1461089c57806373098be9146108a4578063741bef1a146108ac5761044a565b806361ec893d14610791578063631203b01461079957806364cee260146107b6578063653d46e7146107dc57806366ca4a21146107f95761044a565b80634e443d9e1161031c5780634e443d9e146106fe57806352512eaa1461072f5780635733d58f146107555780635d6b480f1461075d5780635dba4c4a146107895761044a565b80633cc74225146106a3578063477d66cf146106ab578063480cd578146106c85780634870dd9a146106ee57806349eefeee146106f65761044a565b80631e8b1c2b116103e657806326b4d8fd116103aa57806326b4d8fd1461065d57806328d28b5b146106655780632b11551a1461066d5780632f8655681461067557806331eaf05c1461069b5761044a565b80631e8b1c2b1461057c5780631f68f20a1461061f5780631f7af3c31461062757806321e378011461062f57806324092669146106555761044a565b8063048c661d1461044f578063071a7541146104735780630b0765571461048d57806312610e92146104b5578063139f2e8c146104e157806315d549f1146104e95780631673c79a1461050f57806318f2817a1461054e5780631bf4355514610574575b600080fd5b610457610ce1565b604080516001600160a01b039092168252519081900360200190f35b61047b610cf0565b60408051918252519081900360200190f35b6104b3600480360360208110156104a357600080fd5b50356001600160a01b0316610cf5565b005b61047b600480360360408110156104cb57600080fd5b506001600160a01b038135169060200135610d1d565b61047b610d75565b61047b600480360360208110156104ff57600080fd5b50356001600160a01b0316610d82565b6105356004803603602081101561052557600080fd5b50356001600160a01b0316610da6565b6040805192835260208301919091528051918290030190f35b61047b6004803603602081101561056457600080fd5b50356001600160a01b0316610dbf565b61047b610dd2565b6104b36004803603602081101561059257600080fd5b8101906020810181356401000000008111156105ad57600080fd5b8201836020820111156105bf57600080fd5b803590602001918460208302840111640100000000831117156105e157600080fd5b919080806020026020016040519081016040528093929190818152602001838360200280828437600092019190915250929550610ddf945050505050565b61047b61117f565b610457611185565b61047b6004803603602081101561064557600080fd5b50356001600160a01b0316611194565b61047b6111be565b61047b6111d1565b61047b6111d7565b61047b6111e8565b6104b36004803603602081101561068b57600080fd5b50356001600160a01b03166111fa565b61047b611260565b610457611266565b61047b600480360360208110156106c157600080fd5b5035611275565b61047b600480360360208110156106de57600080fd5b50356001600160a01b0316611288565b61047b6112a6565b61047b6112ab565b61071b6004803603602081101561071457600080fd5b50356112b1565b604080519115158252519081900360200190f35b61047b6004803603602081101561074557600080fd5b50356001600160a01b03166112bc565b61047b611382565b6104b36004803603604081101561077357600080fd5b506001600160a01b03813516906020013561138e565b6104b36113da565b61047b611440565b61047b600480360360208110156107af57600080fd5b5035611445565b61047b600480360360208110156107cc57600080fd5b50356001600160a01b0316611452565b6104b3600480360360208110156107f257600080fd5b5035611470565b61047b61181c565b6108276004803603602081101561081757600080fd5b50356001600160a01b031661182e565b6040518086815260200185815260200184815260200183600481111561084957fe5b60ff1681526001600160801b03909216602083015250604080519182900301945092505050f35b61047b6004803603604081101561088657600080fd5b506001600160a01b038135169060200135611868565b61047b6118c5565b61047b6118d1565b6104576118d7565b610457600480360360208110156108ca57600080fd5b50356118e6565b61047b61190d565b61047b611919565b6104b360048036036101608110156108f857600080fd5b506001600160a01b038135811691602081013582169160408201358116916060810135821691608082013581169160a081013582169160c082013581169160e08101358216916101008201358116916101208101358216916101409091013516611a1a565b610457611e13565b61047b611e22565b6104b36004803603602081101561098357600080fd5b50356001600160a01b0316611e28565b61047b611e39565b610457611ef5565b61071b611f04565b61047b611f15565b61047b600480360360408110156109c957600080fd5b506001600160a01b038135169060200135611f1b565b61047b611f4e565b610457611f54565b6109f7611f63565b6040805160208082528351818301528351919283929083019185019080838360005b83811015610a31578181015183820152602001610a19565b50505050905090810190601f168015610a5e5780820380516001836020036101000a031916815260200191505b509250505060405180910390f35b610457611f8b565b61047b60048036036020811015610a8a57600080fd5b50356001600160a01b0316611f9a565b610457611fc1565b61047b60048036036020811015610ab857600080fd5b5035611fd0565b610ae560048036036020811015610ad557600080fd5b50356001600160a01b0316611fdb565b604080519485526020850193909352838301919091526060830152519081900360800190f35b6104b3600480360360e0811015610b2157600080fd5b508035906001600160a01b03602082013581169160408101358216916060820135169060808101359060a08101359060c0013561203f565b61047b6127de565b61047b6127e4565b61047b6127eb565b61047b6127fd565b6104b360048036036020811015610b8f57600080fd5b50356001600160a01b0316612809565b61047b60048036036040811015610bb557600080fd5b506001600160a01b03813516906020013561281c565b61047b61283b565b61047b60048036036040811015610be957600080fd5b506001600160a01b038135169060200135612841565b61047b60048036036020811015610c1557600080fd5b5035612877565b61047b60048036036020811015610c3257600080fd5b50356001600160a01b031661288a565b61045760048036036020811015610c5857600080fd5b50356128a5565b61071b60048036036020811015610c7557600080fd5b50356001600160a01b03166128cf565b61047b61292d565b61047b60048036036020811015610ca357600080fd5b50356001600160a01b031661293a565b61045761296b565b6104b360048036036020811015610cd157600080fd5b50356001600160a01b031661297a565b6005546001600160a01b031681565b600281565b610cfd61298b565b600054600154610d1a916001600160a01b039081169116836129d6565b50565b6000610d2761298b565b6001600160a01b0383166000908152600e6020526040812054610d50908463ffffffff612af816565b6001600160a01b0385166000908152600e602052604090208190559150505b92915050565b680ad78ebc5ac620000081565b6000610d8c61298b565b610d9582612b41565b6001600160801b031690505b919050565b6014602052600090815260409020805460019091015482565b6000610dc961298b565b610d6f82612bdb565b686194049f30f720000081565b8051610e1c5760405162461bcd60e51b81526004018080602001828103825260368152602001806159146036913960400191505060405180910390fd5b6000546001546005546001600160a01b03928316929182169116610e3e61560c565b610e4661563d565b600260009054906101000a90046001600160a01b03166001600160a01b0316630fdb11cf6040518163ffffffff1660e01b8152600401602060405180830381600087803b158015610e9657600080fd5b505af1158015610eaa573d6000803e3d6000fd5b505050506040513d6020811015610ec057600080fd5b5051825260408051630d9a6b3560e01b815290516001600160a01b03851691630d9a6b35916004808301926020929190829003018186803b158015610f0457600080fd5b505afa158015610f18573d6000803e3d6000fd5b505050506040513d6020811015610f2e57600080fd5b505160208301528151610f4090612c8a565b1580156040840152610f6857610f618585846000015185602001518a612ca7565b9050610f80565b610f7d8585846000015185602001518a612ed7565b90505b6000816020015111610fc35760405162461bcd60e51b8152600401808060200182810382526022815260200180615a086022913960400191505060405180910390fd5b826001600160a01b031663335525ad82608001518360a001516040518363ffffffff1660e01b81526004018083815260200182815260200192505050600060405180830381600087803b15801561101957600080fd5b505af115801561102d573d6000803e3d6000fd5b5050505061104585858360c001518460e00151612f9f565b610100810151156110c25760075461010082015160408051628063a560e01b81526001600160a01b03938416600482015260248101929092525191871691628063a59160448082019260009290919082900301818387803b1580156110a957600080fd5b505af11580156110bd573d6000803e3d6000fd5b505050505b6110d085826040015161321f565b602081015160608301526101008101516040820151825161110892916110fc919063ffffffff612af816565b9063ffffffff612af816565b608080840182905260608085015160408086015186840151825193845260208401969096528282015291810193909352517f4152c73dd2614c4f9fc35e8c9cf16013cd588c75b49a4c1673ecffdcbcda94039281900390910190a1611177853383606001518460400151613366565b505050505050565b600c5481565b6009546001600160a01b031681565b6001600160a01b0381166000908152600e602052604081206003015460ff166004811115610d6f57fe5b6064670de0b6b3a76400005b0460050281565b60175481565b6103e8670de0b6b3a76400006111ca565b60006111f5600c54613468565b905090565b6112038161349e565b60408051600180825281830190925260609160208083019080368337019050509050818160008151811061123357fe5b60200260200101906001600160a01b031690816001600160a01b03168152505061125c81610ddf565b5050565b60135481565b6001546001600160a01b031681565b6000610d6f61128261181c565b83613506565b6001600160a01b03166000908152600e602052604090206001015490565b60c881565b60155490565b6000610d6f82612c8a565b6001600160a01b03811660009081526014602052604081205460125482906112ea908363ffffffff612af816565b9050801580611323575060016001600160a01b0385166000908152600e602052604090206003015460ff16600481111561132057fe5b14155b1561133357600092505050610da1565b6001600160a01b0384166000908152600e602052604081206002015490611378670de0b6b3a764000061136c848663ffffffff61352416565b9063ffffffff61357d16565b9695505050505050565b6714d1120d7b16000081565b61139661298b565b8060048111156113a257fe5b6001600160a01b0383166000908152600e60205260409020600301805460ff191660018360048111156113d157fe5b02179055505050565b6113e261298b565b60006113ec6135bf565b9050670de0b6b3a764000081111561140057fe5b600c8190556040805182815290517fc454ee9b76c52f782a256af821b857ca6e125d1e3333bcede402fec2bed9600c9181900360200190a1610d1a613603565b603c81565b6000610d6f61128261292d565b6001600160a01b03166000908152600e602052604090206002015490565b611478615689565b506040805160e081018252600080546001600160a01b0390811683526001548116602084015292820181905260608201819052600b548316608083015260a0820181905260c08201526005549091166114cf61560c565b6114d761563d565b600260009054906101000a90046001600160a01b03166001600160a01b0316630fdb11cf6040518163ffffffff1660e01b8152600401602060405180830381600087803b15801561152757600080fd5b505af115801561153b573d6000803e3d6000fd5b505050506040513d602081101561155157600080fd5b5051825260408051630d9a6b3560e01b815290516001600160a01b03851691630d9a6b35916004808301926020929190829003018186803b15801561159557600080fd5b505afa1580156115a9573d6000803e3d6000fd5b505050506040513d60208110156115bf57600080fd5b5051602083015281516115d190612c8a565b15801560408401526115f8576115f184836000015184602001518861365f565b9050611618565b6116158460000151856020015184600001518560200151896139fa565b90505b600081602001511161165b5760405162461bcd60e51b8152600401808060200182810382526022815260200180615a086022913960400191505060405180910390fd5b826001600160a01b031663335525ad82608001518360a001516040518363ffffffff1660e01b81526004018083815260200182815260200192505050600060405180830381600087803b1580156116b157600080fd5b505af11580156116c5573d6000803e3d6000fd5b505050506116e5846000015185602001518360c001518460e00151612f9f565b6101008101511561176457835160075461010083015160408051628063a560e01b81526001600160a01b0393841660048201526024810192909252519190921691628063a591604480830192600092919082900301818387803b15801561174b57600080fd5b505af115801561175f573d6000803e3d6000fd5b505050505b6117768460000151826040015161321f565b60208101516060830152610100810151604082015182516117a292916110fc919063ffffffff612af816565b608080840182905260608085015160408086015186840151825193845260208401969096528282015291810193909352517f4152c73dd2614c4f9fc35e8c9cf16013cd588c75b49a4c1673ecffdcbcda94039281900390910190a161181584600001513383606001518460400151613366565b5050505050565b60006111f56118296135bf565b613b2c565b600e6020526000908152604090208054600182015460028301546003909301549192909160ff81169061010090046001600160801b031685565b600061187261298b565b6001600160a01b0383166000908152600e602052604081206001015461189e908463ffffffff613b5316565b6001600160a01b0385166000908152600e6020526040902060010181905591505092915050565b670de0b6b3a764000081565b60125481565b6002546001600160a01b031681565b601581815481106118f357fe5b6000918252602090912001546001600160a01b0316905081565b670f43fc2c04ee000081565b60008054604080516314a6bf0f60e01b8152905183926001600160a01b0316916314a6bf0f916004808301926020929190829003018186803b15801561195e57600080fd5b505afa158015611972573d6000803e3d6000fd5b505050506040513d602081101561198857600080fd5b5051600154604080516314a6bf0f60e01b815290519293506000926001600160a01b03909216916314a6bf0f91600480820192602092909190829003018186803b1580156119d557600080fd5b505afa1580156119e9573d6000803e3d6000fd5b505050506040513d60208110156119ff57600080fd5b50519050611a13828263ffffffff613b5316565b9250505090565b611a22611f04565b611a73576040805162461bcd60e51b815260206004820181905260248201527f4f776e61626c653a2063616c6c6572206973206e6f7420746865206f776e6572604482015290519081900360640190fd5b611a7c8b613bad565b611a858a613bad565b611a8e89613bad565b611a9788613bad565b611aa087613bad565b611aa986613bad565b611ab285613bad565b611abb84613bad565b611ac483613bad565b611acd82613bad565b611ad681613bad565b600480546001600160a01b03199081166001600160a01b038e81169182179093556000805483168e85161790556001805483168d85161790556005805483168c85161790556006805483168b85161790556007805483168a8516179055600280548316898516179055600880548316888516179055600b80548316878516179055600980548316868516179055600a805490921692841692909217905560408051918252517f3ca631ffcd2a9b5d9ae18543fc82f58eb4ca33af9e6ab01b7a8e95331e6ed985916020908290030190a1604080516001600160a01b038c16815290517f78f058b189175430c48dc02699e3a0031ea4ff781536dc2fab847de4babdd8829181900360200190a1604080516001600160a01b038b16815290517f5ee0cae2f063ed938bb55046f6a932fb6ae792bf43624806bb90abe68a50be9b9181900360200190a1604080516001600160a01b038a16815290517f82966d27eea39b038ee0fa30cd16532bb24f6e65d31cb58fb227aa5766cdcc7f9181900360200190a1604080516001600160a01b038916815290517fcfb07d791fcafc032b35837b50eb84b74df518cf4cc287e8084f47630fa70fa09181900360200190a1604080516001600160a01b038816815290517fe67f36a6e961157d6eff83b91f3af5a62131ceb6f04954ef74f51c1c05e7f88d9181900360200190a1604080516001600160a01b038716815290517f8c537274438aa850a330284665d81a85dd38267d09e4050d416bfc94142db2649181900360200190a1604080516001600160a01b038616815290517f112220fa8dbe96141556e0dc3d74dd95075b323f4f297616048e02d82d7017159181900360200190a1604080516001600160a01b038516815290517f65f4cf077bc01e4742eb5ad98326f6e95b63548ea24b17f8d5e823111fe788009181900360200190a1604080516001600160a01b038416815290517f2ac6e99201ddc1b6eac6f8f28662d1ecafee131f6eb98c29de54528a9888a7d19181900360200190a1604080516001600160a01b038316815290517f756ebc192164c295bba134b5aacd72cc7aff8098a670d1f0a5f6b3a0b4ce67079181900360200190a1611e06613c5c565b5050505050505050505050565b6000546001600160a01b031681565b60105481565b611e3061298b565b610d1a81613ca6565b60008054604080516362e1c9bf60e11b8152905183926001600160a01b03169163c5c3937e916004808301926020929190829003018186803b158015611e7e57600080fd5b505afa158015611e92573d6000803e3d6000fd5b505050506040513d6020811015611ea857600080fd5b5051600154604080516362e1c9bf60e11b815290519293506000926001600160a01b039092169163c5c3937e91600480820192602092909190829003018186803b1580156119d557600080fd5b6003546001600160a01b031690565b6003546001600160a01b0316331490565b60115481565b6000611f2561298b565b6001600160a01b0383166000908152600e6020526040812054610d50908463ffffffff613b5316565b60165481565b600a546001600160a01b031681565b6040518060400160405280600c81526020016b2a3937bb32a6b0b730b3b2b960a11b81525081565b600b546001600160a01b031681565b6000806000611fa884613d11565b915091506000611fb88383613d97565b95945050505050565b6004546001600160a01b031681565b6000610d6f82613dcc565b6001600160a01b0381166000908152600e6020526040812080546001909101549091806120078561293a565b9150612012856112bc565b9050612024848363ffffffff613b5316565b9350612036838263ffffffff613b5316565b92509193509193565b612047615689565b506040805160e0810182526000546001600160a01b03908116825260015481166020830152600854811692820192909252600a5482166060820152600b5482166080820152600754821660a082015260065490911660c08201526120a96156c5565b6120b283613df8565b6120ba613e52565b600260009054906101000a90046001600160a01b03166001600160a01b0316630fdb11cf6040518163ffffffff1660e01b8152600401602060405180830381600087803b15801561210a57600080fd5b505af115801561211e573d6000803e3d6000fd5b505050506040513d602081101561213457600080fd5b505160c0820181905261214690613f16565b61214f89613f65565b61215e8260400151338b613fa4565b612166611919565b60e0820181905260408084015181516370a0823160e01b815233600482015291516001600160a01b03909116916370a08231916024808301926020929190829003018186803b1580156121b857600080fd5b505afa1580156121cc573d6000803e3d6000fd5b505050506040513d60208110156121e257600080fd5b505111156121ec57fe5b888152608082015160c0820151600091612207918b90614064565b1561221357508761233d565b82608001516001600160a01b0316634d6228316040518163ffffffff1660e01b815260040160206040518083038186803b15801561225057600080fd5b505afa158015612264573d6000803e3d6000fd5b505050506040513d602081101561227a57600080fd5b505190505b6001600160a01b038116158015906122ab5750670f43fc2c04ee00006122a9828460c0015161281c565b105b1561233d5782608001516001600160a01b031663b72703ac826040518263ffffffff1660e01b815260040180826001600160a01b03166001600160a01b0316815260200191505060206040518083038186803b15801561230a57600080fd5b505afa15801561231e573d6000803e3d6000fd5b505050506040513d602081101561233457600080fd5b5051905061227f565b846123485760001994505b6001600160a01b038116158015906123605750815115155b801561236c5750600085115b156124a057848060019003955050600083608001516001600160a01b031663b72703ac836040518263ffffffff1660e01b815260040180826001600160a01b03166001600160a01b0316815260200191505060206040518083038186803b1580156123d657600080fd5b505afa1580156123ea573d6000803e3d6000fd5b505050506040513d602081101561240057600080fd5b50518451602086015191925061241691846129d6565b61241e61570a565b612435858486600001518760c001518e8e8e6141d7565b90508060400151156124485750506124a0565b8051602085015161245e9163ffffffff613b5316565b602080860191909152810151604085015161247e9163ffffffff613b5316565b6040850152805184516124969163ffffffff612af816565b8452509050612348565b60008260400151116124e35760405162461bcd60e51b81526004018080602001828103825260298152602001806157b76029913960400191505060405180910390fd5b6124fa82604001518360c001518460e0015161448a565b506125088260400151614532565b60608301819052604083015161251f91908661453f565b82600001516001600160a01b0316628063a5846060015184606001516040518363ffffffff1660e01b815260040180836001600160a01b03166001600160a01b0316815260200182815260200192505050600060405180830381600087803b15801561258a57600080fd5b505af115801561259e573d6000803e3d6000fd5b5050505082606001516001600160a01b031663c91d2d3883606001516040518263ffffffff1660e01b815260040180828152602001915050600060405180830381600087803b1580156125f057600080fd5b505af1158015612604573d6000803e3d6000fd5b505050506060820151604083015161261b91612af8565b8260800181815250507f43a3f4082a4dbc33d78e317d2497d3a730bc7fc3574159dcea1056e62e5d9ad88a8360200151846040015185606001516040518085815260200184815260200183815260200182815260200194505050505060405180910390a182604001516001600160a01b0316639dc29fac3384602001516040518363ffffffff1660e01b815260040180836001600160a01b03166001600160a01b0316815260200182815260200192505050600060405180830381600087803b1580156126e757600080fd5b505af11580156126fb573d6000803e3d6000fd5b5050505082600001516001600160a01b0316632a7ba1f783602001516040518263ffffffff1660e01b815260040180828152602001915050600060405180830381600087803b15801561274d57600080fd5b505af1158015612761573d6000803e3d6000fd5b50508451608085015160408051628063a560e01b81523360048201526024810192909252516001600160a01b039092169350628063a5925060448082019260009290919082900301818387803b1580156127ba57600080fd5b505af11580156127ce573d6000803e3d6000fd5b5050505050505050505050505050565b600f5481565b6212750081565b60006111f56127f86135bf565b613468565b670ddd4b8c6c7d70d881565b61281161298b565b610d1a8160026145b4565b600080600061282a85613d11565b9150915060006113788383876146cd565b600d5481565b600061284b61298b565b6001600160a01b0383166000908152600e602052604081206001015461189e908463ffffffff612af816565b6000610d6f6128846127eb565b836146fd565b6001600160a01b03166000908152600e602052604090205490565b6000601582815481106128b457fe5b6000918252602090912001546001600160a01b031692915050565b600060016001600160a01b0383166000908152600e602052604090206003015460ff1660048111156128fd57fe5b1461290a57506000610da1565b506012546001600160a01b03821660009081526014602052604090205410919050565b60006111f5600c54613b2c565b6001600160a01b03811660009081526014602052604081206001015460135482906112ea908363ffffffff612af816565b6008546001600160a01b031681565b61298261298b565b610d1a8161475c565b6004546001600160a01b031633146129d45760405162461bcd60e51b815260040180806020018281038252603b8152602001806158d9603b913960400191505060405180910390fd5b565b6129df816128cf565b15612af3576129ed8161349e565b60006129f8826112bc565b90506000612a058361293a565b6001600160a01b0384166000908152600e6020526040902060010154909150612a34908363ffffffff613b5316565b6001600160a01b0384166000908152600e60205260409020600181019190915554612a65908263ffffffff613b5316565b6001600160a01b0384166000908152600e6020526040902055612a8783613ca6565b612a93858583856147ac565b6001600160a01b0383166000818152600e602090815260408083208054600182015460029092015483519182529381019190915280820192909252606082019290925290516000805160206158b98339815191529181900360800190a250505b505050565b6000612b3a83836040518060400160405280601e81526020017f536166654d6174683a207375627472616374696f6e206f766572666c6f7700008152506148ae565b9392505050565b601580546001808201835560008381527f55f448fdea98c4d29eb340757ef0a66cd03dbb9538908a6a81d96026b71ec47590920180546001600160a01b0319166001600160a01b03861617905591549091612b9c9190612af8565b6001600160a01b03929092166000908152600e602052604090206003018054610100600160881b0319166101006001600160801b038516021790555090565b6001600160a01b0381166000908152600e60205260408120600101548190612c0290614945565b6001600160a01b0384166000908152600e60205260409020600201805490829055600f5491925090612c4c908390612c40908463ffffffff612af816565b9063ffffffff613b5316565b600f81905560408051918252517f6bac5e0eb3c44eb03a60ab11ec3a2c051771616aecadbcfff2630aabae5203829181900360200190a15092915050565b600080612c9683613dcc565b6714d1120d7b160000119392505050565b612caf61563d565b612cb761572d565b612cbf61563d565b84825260006080830152612cd1611919565b60a0830152612cde611e39565b60c0830152600060208301525b835182602001511015612ecc5783826020015181518110612d0857fe5b6020908102919091018101516001600160a01b0316606084018190526000908152600e909152604090206003015460019060ff166004811115612d4757fe5b14612d5157612ebc565b612d5f82606001518761281c565b60408301526080820151612e5e57670f43fc2c04ee0000826040015110158015612d8857508151155b15612d9257612ebc565b6000612da78360c001518460a00151896146cd565b9050612dc48989856060015186604001518760000151868d614981565b60808101518451919350612dde919063ffffffff612af816565b8352608082015160a0840151612df99163ffffffff612af816565b8360a0018181525050612e2e8261010001516110fc84604001516110fc8660a001518860c00151612af890919063ffffffff16565b60c0840152612e3d8483614cb4565b9350612e528360c001518460a0015189614dcb565b15608084015250612ebc565b81608001518015612e7a5750670f43fc2c04ee00008260400151105b15612ebc57612e93888884606001518560000151614dec565b60808101518351919250612ead919063ffffffff612af816565b8252612eb98382614cb4565b92505b6020820180516001019052612ceb565b505095945050505050565b612edf61563d565b612ee761572d565b612eef61563d565b848252600060208301525b835182602001511015612ecc5783826020015181518110612f1757fe5b60209081029190910101516001600160a01b031660608301819052612f3c908761281c565b60408301819052670f43fc2c04ee00001115612f8f57612f66888884606001518560000151614dec565b60808101518351919250612f80919063ffffffff612af816565b8252612f8c8382614cb4565b92505b6020820180516001019052612efa565b81612fa957613219565b601654600090612fcb90612c4084670de0b6b3a764000063ffffffff61352416565b90506000612ff0601754612c40670de0b6b3a76400008761352490919063ffffffff16565b90506000613009600f548461357d90919063ffffffff16565b90506000613022600f548461357d90919063ffffffff16565b905061304961303c600f548461352490919063ffffffff16565b859063ffffffff612af816565b601655600f546130719061306490839063ffffffff61352416565b849063ffffffff612af816565b601755601254613087908363ffffffff613b5316565b60125560135461309d908263ffffffff613b5316565b601381905560125460408051918252602082019290925281517f9f8bc8ab0daf5bceef75ecfd2085d1fcc6548c657ea970d9a23a60610d0737e3929181900390910190a1876001600160a01b0316632a7ba1f7876040518263ffffffff1660e01b815260040180828152602001915050600060405180830381600087803b15801561312757600080fd5b505af115801561313b573d6000803e3d6000fd5b50505050866001600160a01b0316632b7c7b11876040518263ffffffff1660e01b815260040180828152602001915050600060405180830381600087803b15801561318557600080fd5b505af1158015613199573d6000803e3d6000fd5b50505050876001600160a01b0316628063a588876040518363ffffffff1660e01b815260040180836001600160a01b03166001600160a01b0316815260200182815260200192505050600060405180830381600087803b1580156131fc57600080fd5b505af1158015613210573d6000803e3d6000fd5b50505050505050505b50505050565b600f546010819055506000826001600160a01b031663c5c3937e6040518163ffffffff1660e01b815260040160206040518083038186803b15801561326357600080fd5b505afa158015613277573d6000803e3d6000fd5b505050506040513d602081101561328d57600080fd5b5051600154604080516362e1c9bf60e11b815290519293506000926001600160a01b039092169163c5c3937e91600480820192602092909190829003018186803b1580156132da57600080fd5b505afa1580156132ee573d6000803e3d6000fd5b505050506040513d602081101561330457600080fd5b5051905061331c81612c40848663ffffffff612af816565b601181905560105460408051918252602082019290925281517f51bf4c63ec3cba9d03d43238abbdd979dd91bd16d9895c74ceea9118c7baaf60929181900390910190a150505050565b81156133e55760085460065460408051631062c15f60e11b81526001600160a01b039283166004820152868316602482015260448101869052905191909216916320c582be91606480830192600092919082900301818387803b1580156133cc57600080fd5b505af11580156133e0573d6000803e3d6000fd5b505050505b801561321957836001600160a01b0316628063a584836040518363ffffffff1660e01b815260040180836001600160a01b03166001600160a01b0316815260200182815260200192505050600060405180830381600087803b15801561344a57600080fd5b505af115801561345e573d6000803e3d6000fd5b5050505050505050565b6000610d6f613490836103e8670de0b6b3a76400005b04600502613b5390919063ffffffff16565b670de0b6b3a7640000614f5b565b60016001600160a01b0382166000908152600e602052604090206003015460ff1660048111156134ca57fe5b14610d1a5760405162461bcd60e51b815260040180806020018281038252602f815260200180615a2a602f913960400191505060405180910390fd5b6000612b3a670de0b6b3a764000061136c858563ffffffff61352416565b60008261353357506000610d6f565b8282028284828161354057fe5b0414612b3a5760405162461bcd60e51b81526004018080602001828103825260218152602001806158986021913960400191505060405180910390fd5b6000612b3a83836040518060400160405280601a81526020017f536166654d6174683a206469766973696f6e206279207a65726f000000000000815250614f71565b6000806135ca614fd6565b905060006135e0670ddd4b8c6c7d70d883614ff2565b9050611a13670de0b6b3a764000061136c83600c5461352490919063ffffffff16565b600061361a600d5442612af890919063ffffffff16565b9050603c8110610d1a5742600d81905560408051918252517f860f8d2f0c74dd487e89e2883e3b25b8159ce1e1b3433a291cba7b82c508f3bc9181900360200190a150565b61366761563d565b61366f61572d565b61367761563d565b84825260006080830152613689611919565b60a0830152613696611e39565b8260c001818152505086608001516001600160a01b0316634d6228316040518163ffffffff1660e01b815260040160206040518083038186803b1580156136dc57600080fd5b505afa1580156136f0573d6000803e3d6000fd5b505050506040513d602081101561370657600080fd5b50516001600160a01b039081166060840152608088015160408051631e22314360e01b815290516000939290921691631e22314391600480820192602092909190829003018186803b15801561375b57600080fd5b505afa15801561376f573d6000803e3d6000fd5b505050506040513d602081101561378557600080fd5b50516000602085015290505b8483602001511080156137ba5750806001600160a01b031683606001516001600160a01b031614155b156139ef57600088608001516001600160a01b031663b72703ac85606001516040518263ffffffff1660e01b815260040180826001600160a01b03166001600160a01b0316815260200191505060206040518083038186803b15801561381f57600080fd5b505afa158015613833573d6000803e3d6000fd5b505050506040513d602081101561384957600080fd5b5051606085015190915061385d908961281c565b6040850152608084015161396157670f43fc2c04ee000084604001511015801561388657508351155b1561389157506139ef565b60006138a68560c001518660a001518b6146cd565b8a5160208c01516060880151604089015189519495506138c794868f614981565b608081015186519195506138e1919063ffffffff612af816565b8552608084015160a08601516138fc9163ffffffff612af816565b8560a00181815250506139318461010001516110fc86604001516110fc8860a001518a60c00151612af890919063ffffffff16565b60c08601526139408685614cb4565b95506139558560c001518660a001518b614dcb565b156080860152506139d1565b8360800151801561397d5750670f43fc2c04ee00008460400151105b156139cb5761399e89600001518a6020015186606001518760000151614dec565b608081015185519194506139b8919063ffffffff612af816565b84526139c48584614cb4565b94506139d1565b506139ef565b6001600160a01b031660608401526020830180516001019052613791565b505050949350505050565b613a0261563d565b613a0a61572d565b613a1261563d565b600b54858352600060208401526001600160a01b03165b8483602001511015613b2057806001600160a01b0316634d6228316040518163ffffffff1660e01b815260040160206040518083038186803b158015613a6e57600080fd5b505afa158015613a82573d6000803e3d6000fd5b505050506040513d6020811015613a9857600080fd5b50516001600160a01b031660608401819052613ab4908861281c565b60408401819052670f43fc2c04ee00001115613b0b57613ade898985606001518660000151614dec565b60808101518451919350613af8919063ffffffff612af816565b8352613b048483614cb4565b9350613b10565b613b20565b6020830180516001019052613a29565b50505095945050505050565b6000610d6f613b46836103e8670de0b6b3a764000061347e565b66b1a2bc2ec50000614f5b565b600082820183811015612b3a576040805162461bcd60e51b815260206004820152601b60248201527f536166654d6174683a206164646974696f6e206f766572666c6f770000000000604482015290519081900360640190fd5b6001600160a01b038116613c08576040805162461bcd60e51b815260206004820152601e60248201527f4163636f756e742063616e6e6f74206265207a65726f20616464726573730000604482015290519081900360640190fd5b803b8061125c576040805162461bcd60e51b815260206004820181905260248201527f4163636f756e7420636f64652073697a652063616e6e6f74206265207a65726f604482015290519081900360640190fd5b6003546040516000916001600160a01b0316907f8be0079c531659141344cd1fd0a4f28419497f9722a3daafe3b4186f6b6457e0908390a3600380546001600160a01b0319169055565b601280546001600160a01b0383166000908152601460209081526040918290209283556013546001909301839055925481519081529283019190915280517fc437f324d85e369394148dd9d62f98f534b382e01ed3dd2eb98138fb6d3ab49a9281900390910190a150565b6000806000613d1f846112bc565b90506000613d2c8561293a565b6001600160a01b0386166000908152600e602052604081206001015491925090613d5c908463ffffffff613b5316565b6001600160a01b0387166000908152600e602052604081205491925090613d89908463ffffffff613b5316565b919550909350505050915091565b60008115613dc357613dbc8261136c8568056bc75e2d6310000063ffffffff61352416565b9050610d6f565b50600019610d6f565b600080613dd7611e39565b90506000613de3611919565b9050613df08282866146cd565b949350505050565b6611c37937e080008110801590613e175750670de0b6b3a76400008111155b610d1a5760405162461bcd60e51b81526004018080602001828103825260308152602001806159ae6030913960400191505060405180910390fd5b60095460408051631e425be160e11b815290516000926001600160a01b031691633c84b7c2916004808301926020929190829003018186803b158015613e9757600080fd5b505afa158015613eab573d6000803e3d6000fd5b505050506040513d6020811015613ec157600080fd5b50519050613ed8816212750063ffffffff613b5316565b421015610d1a5760405162461bcd60e51b81526004018080602001828103825260408152602001806158586040913960400191505060405180910390fd5b670f43fc2c04ee0000613f2882613dcc565b1015610d1a5760405162461bcd60e51b815260040180806020018281038252602a8152602001806159de602a913960400191505060405180910390fd5b60008111610d1a5760405162461bcd60e51b815260040180806020018281038252602e81526020018061594a602e913960400191505060405180910390fd5b80836001600160a01b03166370a08231846040518263ffffffff1660e01b815260040180826001600160a01b03166001600160a01b0316815260200191505060206040518083038186803b158015613ffb57600080fd5b505afa15801561400f573d6000803e3d6000fd5b505050506040513d602081101561402557600080fd5b50511015612af35760405162461bcd60e51b815260040180806020018281038252604e8152602001806157e0604e913960600191505060405180910390fd5b60006001600160a01b03831615806140fb5750836001600160a01b0316635dbe47e8846040518263ffffffff1660e01b815260040180826001600160a01b03166001600160a01b0316815260200191505060206040518083038186803b1580156140cd57600080fd5b505afa1580156140e1573d6000803e3d6000fd5b505050506040513d60208110156140f757600080fd5b5051155b806141165750670f43fc2c04ee0000614114848461281c565b105b1561412357506000612b3a565b6000846001600160a01b031663765e0159856040518263ffffffff1660e01b815260040180826001600160a01b03166001600160a01b0316815260200191505060206040518083038186803b15801561417b57600080fd5b505afa15801561418f573d6000803e3d6000fd5b505050506040513d60208110156141a557600080fd5b505190506001600160a01b0381161580611fb85750670f43fc2c04ee00006141cd828561281c565b1095945050505050565b6141df61570a565b6001600160a01b0387166000908152600e602052604090205461421c90879061421790680ad78ebc5ac620000063ffffffff612af816565b614f5b565b80825261423d90869061136c90670de0b6b3a764000063ffffffff61352416565b60208083019190915281516001600160a01b0389166000908152600e90925260408220546142709163ffffffff612af816565b6020808401516001600160a01b038b166000908152600e909252604082206001015492935090916142a69163ffffffff612af816565b9050680ad78ebc5ac620000082141561433f576142c28961475c565b6142cd8960046145b4565b6142e28a8a680ad78ebc5ac62000008461509d565b886001600160a01b03166000805160206158b9833981519152600080600060036040518085815260200184815260200183815260200182600381111561432457fe5b60ff16815260200194505050505060405180910390a261447c565b600061434b8284613d97565b9050848114158061436c5750686194049f30f720000061436a84615251565b105b15614380575050600160408301525061447f565b60808b01516040805163015f109360e51b81526001600160a01b038d81166004830152602482018590528a81166044830152898116606483015291519190921691632be2126091608480830192600092919082900301818387803b1580156143e757600080fd5b505af11580156143fb573d6000803e3d6000fd5b5050506001600160a01b038b166000908152600e60205260409020848155600101839055506144298a612bdb565b506001600160a01b038a166000818152600e6020908152604091829020600201548251878152918201869052818301526003606082015290516000805160206158b98339815191529181900360800190a2505b50505b979650505050505050565b6000806144956135bf565b905060006144ad8461136c888863ffffffff61352416565b905060006144d26144c583600263ffffffff61357d16565b849063ffffffff613b5316565b90506144e681670de0b6b3a7640000614f5b565b9050600081116144f257fe5b600c8190556040805182815290517fc454ee9b76c52f782a256af821b857ca6e125d1e3333bcede402fec2bed9600c9181900360200190a1611378613603565b6000610d6f6128846111e8565b600061455d8361136c86670de0b6b3a764000063ffffffff61352416565b905081811115613219576040805162461bcd60e51b815260206004820152601d60248201527f4665652065786365656465642070726f7669646564206d6178696d756d000000604482015290519081900360640190fd5b60008160048111156145c257fe5b141580156145dc575060018160048111156145d957fe5b14155b6145e257fe5b6015546145ee8161526c565b6001600160a01b0383166000908152600e60205260409020600301805483919060ff1916600183600481111561462057fe5b02179055506001600160a01b0383166000908152600e602090815260408083206001808201859055908490556014909252822082815501556146628382615325565b600b5460408051631484968760e11b81526001600160a01b038681166004830152915191909216916329092d0e91602480830192600092919082900301818387803b1580156146b057600080fd5b505af11580156146c4573d6000803e3d6000fd5b50505050505050565b600082156146f45760006146eb8461136c878663ffffffff61352416565b9150612b3a9050565b50600019612b3a565b60008061471c670de0b6b3a764000061136c868663ffffffff61352416565b9050828110612b3a5760405162461bcd60e51b81526004018080602001828103825260368152602001806159786036913960400191505060405180910390fd5b6001600160a01b0381166000908152600e6020526040902060020154600f5461478b908263ffffffff612af816565b600f55506001600160a01b03166000908152600e6020526040812060020155565b826001600160a01b0316632a7ba1f7836040518263ffffffff1660e01b815260040180828152602001915050600060405180830381600087803b1580156147f257600080fd5b505af1158015614806573d6000803e3d6000fd5b50505050836001600160a01b0316632b7c7b11836040518263ffffffff1660e01b815260040180828152602001915050600060405180830381600087803b15801561485057600080fd5b505af1158015614864573d6000803e3d6000fd5b50505050826001600160a01b0316638f7be730826040518263ffffffff1660e01b815260040180828152602001915050600060405180830381600087803b15801561344a57600080fd5b6000818484111561493d5760405162461bcd60e51b81526004018080602001828103825283818151815260200191508051906020019080838360005b838110156149025781810151838201526020016148ea565b50505050905090810190601f16801561492f5780820380516001836020036101000a031916815260200191505b509250505060405180910390fd5b505050900390565b6000806011546000141561495a575081610d6f565b60006010541161496657fe5b612b3a60115461136c6010548661352490919063ffffffff16565b61498961563d565b614991615775565b6015546001106149a1575061447f565b6149aa87611fdb565b604085015260208481019190915284018190529083526149c9906154cc565b60408301819052680ad78ebc5ac6200000606084015260208301516149f39163ffffffff612af816565b8152670de0b6b3a76400008611614afb57614a188989836020015184604001516147ac565b614a218761475c565b60006080830181905260a0830152815160c0830152805160e0830152614a488760036145b4565b866001600160a01b031660008051602061579783398151915283600001518460200151600260405180848152602001838152602001826003811115614a8957fe5b60ff168152602001935050505060405180910390a2866001600160a01b03166000805160206158b98339815191526000806000600260405180858152602001848152602001838152602001826003811115614ae057fe5b60ff16815260200194505050505060405180910390a2614ca8565b670de0b6b3a764000086118015614b195750670f43fc2c04ee000086105b15614b6957614b328989836020015184604001516147ac565b614b3b8761475c565b81518151614b4a9190876154d3565b60e086015260c085015260a08401526080830152614a488760036145b4565b670f43fc2c04ee00008610158015614b8057508386105b8015614b8d575081518510155b15614c9757614ba68989836020015184604001516147ac565b84614bad57fe5b614bb68761475c565b614bc9826000015183602001518561553f565b9150614bd68760036145b4565b61010082015115614c565760075461010083015160408051633f10abab60e01b81526001600160a01b038b81166004830152602482019390935290519190921691633f10abab91604480830192600092919082900301818387803b158015614c3d57600080fd5b505af1158015614c51573d6000803e3d6000fd5b505050505b866001600160a01b031660008051602061579783398151915283600001518460a00151600260405180848152602001838152602001826003811115614a8957fe5b614c9f61563d565b915061447f9050565b50979650505050505050565b614cbc61563d565b60408083015190840151614cd59163ffffffff613b5316565b604082015260608083015190840151614cf39163ffffffff613b5316565b606082015281516020840151614d0e9163ffffffff613b5316565b6020808301919091528201518351614d2b9163ffffffff613b5316565b815260808083015190840151614d469163ffffffff613b5316565b608082015260a08083015190840151614d649163ffffffff613b5316565b60a082015260c08083015190840151614d829163ffffffff613b5316565b60c082015260e08083015190840151614da09163ffffffff613b5316565b60e08201526101008083015190840151614dbf9163ffffffff613b5316565b61010082015292915050565b600080614dd98585856146cd565b6714d1120d7b1600001195945050505050565b614df461563d565b614dfc615775565b614e0584611fdb565b60408501908152602085810192835286019290925291845290519051614e2f9188918891906147ac565b614e388461475c565b614e4582602001516154cc565b60408301819052680ad78ebc5ac620000060608401526020830151600091614e73919063ffffffff612af816565b9050614e84836000015182866154d3565b60e087015260c086015260a08501526080840152614ea38560036145b4565b846001600160a01b031660008051602061579783398151915284600001518560200151600160405180848152602001838152602001826003811115614ee457fe5b60ff168152602001935050505060405180910390a2846001600160a01b03166000805160206158b98339815191526000806000600160405180858152602001848152602001838152602001826003811115614f3b57fe5b60ff16815260200194505050505060405180910390a25050949350505050565b6000818310614f6a5781612b3a565b5090919050565b60008183614fc05760405162461bcd60e51b81526020600482018181528351602484015283519092839260449091019190850190808383600083156149025781810151838201526020016148ea565b506000838581614fcc57fe5b0495945050505050565b60006111f5603c61136c600d5442612af890919063ffffffff16565b6000631f54050082111561500857631f54050091505b8161501c5750670de0b6b3a7640000610d6f565b670de0b6b3a764000083835b6001811115615093576002810661505d5761504382836155d9565b915061505681600263ffffffff61357d16565b905061508e565b61506782846155d9565b925061507382836155d9565b915061508b600261136c83600163ffffffff612af816565b90505b615028565b61137882846155d9565b6040808501516006548251632770a7eb60e21b81526001600160a01b039182166004820152602481018690529251911691639dc29fac91604480830192600092919082900301818387803b1580156150f457600080fd5b505af1158015615108573d6000803e3d6000fd5b5050505083600001516001600160a01b0316632a7ba1f7836040518263ffffffff1660e01b815260040180828152602001915050600060405180830381600087803b15801561515657600080fd5b505af115801561516a573d6000803e3d6000fd5b505050508360a001516001600160a01b0316633f10abab84836040518363ffffffff1660e01b815260040180836001600160a01b03166001600160a01b0316815260200182815260200192505050600060405180830381600087803b1580156151d257600080fd5b505af11580156151e6573d6000803e3d6000fd5b5050505083600001516001600160a01b0316628063a58560a00151836040518363ffffffff1660e01b815260040180836001600160a01b03166001600160a01b0316815260200182815260200192505050600060405180830381600087803b15801561344a57600080fd5b6000610d6f82680ad78ebc5ac620000063ffffffff612af816565b6001811180156152ea5750600b546040805163de8fa43160e01b815290516001926001600160a01b03169163de8fa431916004808301926020929190829003018186803b1580156152bc57600080fd5b505afa1580156152d0573d6000803e3d6000fd5b505050506040513d60208110156152e657600080fd5b5051115b610d1a5760405162461bcd60e51b815260040180806020018281038252602a81526020018061582e602a913960400191505060405180910390fd5b6001600160a01b0382166000908152600e602052604081206003015460ff169081600481111561535157fe5b1415801561536b5750600181600481111561536857fe5b14155b61537157fe5b6001600160a01b0383166000908152600e602052604081206003015461010090046001600160801b03169083906153a9826001612af8565b905080836001600160801b031611156153be57fe5b6000601582815481106153cd57fe5b600091825260209091200154601580546001600160a01b03909216925082916001600160801b0387169081106153ff57fe5b600091825260208083209190910180546001600160a01b0319166001600160a01b03948516179055918316808252600e83526040918290206003018054610100600160881b0319166101006001600160801b038a169081029190911790915582519182529281019290925280517f02b04ae5f7be9ca7c103293a2aa15f3c339d15d6eda53b721fef7b0e609c831a9281900390910190a160158054806154a157fe5b600082815260209020810160001990810180546001600160a01b031916905501905550505050505050565b60c8900490565b60008080808415615529576154e88786614f5b565b93506154fe8761136c888763ffffffff61352416565b9250615510878563ffffffff612af816565b9150615522868463ffffffff612af816565b9050615536565b5060009250829150859050845b93509350935093565b61554761563d565b83815260208101839052600061556f8361136c87670f43fc2c04ee000063ffffffff61352416565b905061557a816154cc565b60408301819052680ad78ebc5ac62000006060840152608083018690526155a890829063ffffffff612af816565b60a08301526155bd848263ffffffff612af816565b61010083015250600060c0820181905260e08201529392505050565b6000806155ec848463ffffffff61352416565b9050613df0670de0b6b3a764000061136c836706f05b59d3b20000613b53565b6040518060a00160405280600081526020016000815260200160001515815260200160008152602001600081525090565b6040518061012001604052806000815260200160008152602001600081526020016000815260200160008152602001600081526020016000815260200160008152602001600081525090565b6040805160e081018252600080825260208201819052918101829052606081018290526080810182905260a0810182905260c081019190915290565b60405180610100016040528060008152602001600081526020016000815260200160008152602001600081526020016000815260200160008152602001600081525090565b604051806060016040528060008152602001600081526020016000151581525090565b6040518060e0016040528060008152602001600081526020016000815260200160006001600160a01b0316815260200160001515815260200160008152602001600081525090565b6040518060600160405280600081526020016000815260200160008152509056feea67486ed7ebe3eea8ab3390efd4a3c8aae48be5bea27df104a8af786c40843454726f76654d616e616765723a20556e61626c6520746f2072656465656d20616e7920616d6f756e7454726f76654d616e616765723a2052657175657374656420726564656d7074696f6e20616d6f756e74206d757374206265203c3d20757365722773206465627420746f6b656e2062616c616e636554726f76654d616e616765723a204f6e6c79206f6e652074726f766520696e207468652073797374656d54726f76654d616e616765723a20526564656d7074696f6e7320617265206e6f7420616c6c6f77656420647572696e6720626f6f747374726170207068617365536166654d6174683a206d756c7469706c69636174696f6e206f766572666c6f77c3770d654ed33aeea6bf11ac8ef05d02a6a04ed4686dd2f624d853bbec43cc8b54726f76654d616e616765723a2043616c6c6572206973206e6f742074686520426f72726f7765724f7065726174696f6e7320636f6e747261637454726f76654d616e616765723a2043616c6c646174612061646472657373206172726179206d757374206e6f7420626520656d70747954726f76654d616e616765723a20416d6f756e74206d7573742062652067726561746572207468616e207a65726f54726f76654d616e616765723a2046656520776f756c642065617420757020616c6c2072657475726e656420636f6c6c61746572616c4d6178206665652070657263656e74616765206d757374206265206265747765656e20302e352520616e64203130302554726f76654d616e616765723a2043616e6e6f742072656465656d207768656e20544352203c204d435254726f76654d616e616765723a206e6f7468696e6720746f206c697175696461746554726f76654d616e616765723a2054726f766520646f6573206e6f74206578697374206f7220697320636c6f736564a26469706673582212207d9ad0e7900a7d8908740821195f2495b34f21741f4812c6481e79c2f4f252ad64736f6c634300060b0033",
  "linkReferences": {},
  "deployedLinkReferences": {}
}