{
  "_format": "hh-sol-artifact-1",
  "contractName": "TroveManager",
  "sourceName": "contracts/TroveManager.sol",
  "abi": [
    {
      "inputs": [
        {
          "internalType": "uint256",
          "name": "_gasCompensation",
          "type": "uint256"
        },
        {
          "internalType": "uint256",
          "name": "_minNetDebt",
          "type": "uint256"
        }
      ],
      "stateMutability": "nonpayable",
      "type": "constructor"
    },
    {
      "anonymous": false,
      "inputs": [
        {
          "indexed": false,
          "internalType": "address",
          "name": "_activePoolAddress",
          "type": "address"
        }
      ],
      "name": "ActivePoolAddressChanged",
      "type": "event"
    },
    {
      "anonymous": false,
      "inputs": [
        {
          "indexed": false,
          "internalType": "uint256",
          "name": "_baseRate",
          "type": "uint256"
        }
      ],
      "name": "BaseRateUpdated",
      "type": "event"
    },
    {
      "anonymous": false,
      "inputs": [
        {
          "indexed": false,
          "internalType": "address",
          "name": "_newBorrowerOperationsAddress",
          "type": "address"
        }
      ],
      "name": "BorrowerOperationsAddressChanged",
      "type": "event"
    },
    {
      "anonymous": false,
      "inputs": [
        {
          "indexed": false,
          "internalType": "address",
          "name": "_collSurplusPoolAddress",
          "type": "address"
        }
      ],
      "name": "CollSurplusPoolAddressChanged",
      "type": "event"
    },
    {
      "anonymous": false,
      "inputs": [
        {
          "indexed": false,
          "internalType": "address",
          "name": "_newDebtTokenAddress",
          "type": "address"
        }
      ],
      "name": "DebtTokenAddressChanged",
      "type": "event"
    },
    {
      "anonymous": false,
      "inputs": [
        {
          "indexed": false,
          "internalType": "address",
          "name": "_defaultPoolAddress",
          "type": "address"
        }
      ],
      "name": "DefaultPoolAddressChanged",
      "type": "event"
    },
    {
      "anonymous": false,
      "inputs": [
        {
          "indexed": false,
          "internalType": "address",
          "name": "_gasPoolAddress",
          "type": "address"
        }
      ],
      "name": "GasPoolAddressChanged",
      "type": "event"
    },
    {
      "anonymous": false,
      "inputs": [
        {
          "indexed": false,
          "internalType": "uint256",
          "name": "_L_FIL",
          "type": "uint256"
        },
        {
          "indexed": false,
          "internalType": "uint256",
          "name": "_L_Debt",
          "type": "uint256"
        }
      ],
      "name": "LTermsUpdated",
      "type": "event"
    },
    {
      "anonymous": false,
      "inputs": [
        {
          "indexed": false,
          "internalType": "uint256",
          "name": "_lastFeeOpTime",
          "type": "uint256"
        }
      ],
      "name": "LastFeeOpTimeUpdated",
      "type": "event"
    },
    {
      "anonymous": false,
      "inputs": [
        {
          "indexed": false,
          "internalType": "uint256",
          "name": "_liquidatedDebt",
          "type": "uint256"
        },
        {
          "indexed": false,
          "internalType": "uint256",
          "name": "_liquidatedColl",
          "type": "uint256"
        },
        {
          "indexed": false,
          "internalType": "uint256",
          "name": "_collGasCompensation",
          "type": "uint256"
        },
        {
          "indexed": false,
          "internalType": "uint256",
          "name": "_debtGasCompensation",
          "type": "uint256"
        }
      ],
      "name": "Liquidation",
      "type": "event"
    },
    {
      "anonymous": false,
      "inputs": [
        {
          "indexed": true,
          "internalType": "address",
          "name": "previousOwner",
          "type": "address"
        },
        {
          "indexed": true,
          "internalType": "address",
          "name": "newOwner",
          "type": "address"
        }
      ],
      "name": "OwnershipTransferred",
      "type": "event"
    },
    {
      "anonymous": false,
      "inputs": [
        {
          "indexed": false,
          "internalType": "address",
          "name": "_newPriceFeedAddress",
          "type": "address"
        }
      ],
      "name": "PriceFeedAddressChanged",
      "type": "event"
    },
    {
      "anonymous": false,
      "inputs": [
        {
          "indexed": false,
          "internalType": "address",
          "name": "_protocolTokenAddress",
          "type": "address"
        }
      ],
      "name": "ProtocolTokenAddressChanged",
      "type": "event"
    },
    {
      "anonymous": false,
      "inputs": [
        {
          "indexed": false,
          "internalType": "address",
          "name": "_protocolTokenStakingAddress",
          "type": "address"
        }
      ],
      "name": "ProtocolTokenStakingAddressChanged",
      "type": "event"
    },
    {
      "anonymous": false,
      "inputs": [
        {
          "indexed": false,
          "internalType": "uint256",
          "name": "_attemptedDebtTokenAmount",
          "type": "uint256"
        },
        {
          "indexed": false,
          "internalType": "uint256",
          "name": "_actualDebtTokenAmount",
          "type": "uint256"
        },
        {
          "indexed": false,
          "internalType": "uint256",
          "name": "_FILSent",
          "type": "uint256"
        },
        {
          "indexed": false,
          "internalType": "uint256",
          "name": "_FILFee",
          "type": "uint256"
        }
      ],
      "name": "Redemption",
      "type": "event"
    },
    {
      "anonymous": false,
      "inputs": [
        {
          "indexed": false,
          "internalType": "address",
          "name": "_sortedTrovesAddress",
          "type": "address"
        }
      ],
      "name": "SortedTrovesAddressChanged",
      "type": "event"
    },
    {
      "anonymous": false,
      "inputs": [
        {
          "indexed": false,
          "internalType": "address",
          "name": "_stabilityPoolAddress",
          "type": "address"
        }
      ],
      "name": "StabilityPoolAddressChanged",
      "type": "event"
    },
    {
      "anonymous": false,
      "inputs": [
        {
          "indexed": false,
          "internalType": "uint256",
          "name": "_totalStakesSnapshot",
          "type": "uint256"
        },
        {
          "indexed": false,
          "internalType": "uint256",
          "name": "_totalCollateralSnapshot",
          "type": "uint256"
        }
      ],
      "name": "SystemSnapshotsUpdated",
      "type": "event"
    },
    {
      "anonymous": false,
      "inputs": [
        {
          "indexed": false,
          "internalType": "uint256",
          "name": "_newTotalStakes",
          "type": "uint256"
        }
      ],
      "name": "TotalStakesUpdated",
      "type": "event"
    },
    {
      "anonymous": false,
      "inputs": [
        {
          "indexed": false,
          "internalType": "address",
          "name": "_borrower",
          "type": "address"
        },
        {
          "indexed": false,
          "internalType": "uint256",
          "name": "_newIndex",
          "type": "uint256"
        }
      ],
      "name": "TroveIndexUpdated",
      "type": "event"
    },
    {
      "anonymous": false,
      "inputs": [
        {
          "indexed": true,
          "internalType": "address",
          "name": "_borrower",
          "type": "address"
        },
        {
          "indexed": false,
          "internalType": "uint256",
          "name": "_debt",
          "type": "uint256"
        },
        {
          "indexed": false,
          "internalType": "uint256",
          "name": "_coll",
          "type": "uint256"
        },
        {
          "indexed": false,
          "internalType": "enum ITroveManager.TroveManagerOperation",
          "name": "_operation",
          "type": "uint8"
        }
      ],
      "name": "TroveLiquidated",
      "type": "event"
    },
    {
      "anonymous": false,
      "inputs": [
        {
          "indexed": false,
          "internalType": "uint256",
          "name": "_L_FIL",
          "type": "uint256"
        },
        {
          "indexed": false,
          "internalType": "uint256",
          "name": "_L_Debt",
          "type": "uint256"
        }
      ],
      "name": "TroveSnapshotsUpdated",
      "type": "event"
    },
    {
      "anonymous": false,
      "inputs": [
        {
          "indexed": true,
          "internalType": "address",
          "name": "_borrower",
          "type": "address"
        },
        {
          "indexed": false,
          "internalType": "uint256",
          "name": "_debt",
          "type": "uint256"
        },
        {
          "indexed": false,
          "internalType": "uint256",
          "name": "_coll",
          "type": "uint256"
        },
        {
          "indexed": false,
          "internalType": "uint256",
          "name": "stake",
          "type": "uint256"
        },
        {
          "indexed": false,
          "internalType": "enum ITroveManager.TroveManagerOperation",
          "name": "_operation",
          "type": "uint8"
        }
      ],
      "name": "TroveUpdated",
      "type": "event"
    },
    {
      "inputs": [],
      "name": "BETA",
      "outputs": [
        {
          "internalType": "uint256",
          "name": "",
          "type": "uint256"
        }
      ],
      "stateMutability": "view",
      "type": "function"
    },
    {
      "inputs": [],
      "name": "BOOTSTRAP_PERIOD",
      "outputs": [
        {
          "internalType": "uint256",
          "name": "",
          "type": "uint256"
        }
      ],
      "stateMutability": "view",
      "type": "function"
    },
    {
      "inputs": [],
      "name": "BORROWING_FEE_FLOOR",
      "outputs": [
        {
          "internalType": "uint256",
          "name": "",
          "type": "uint256"
        }
      ],
      "stateMutability": "view",
      "type": "function"
    },
    {
      "inputs": [],
      "name": "CCR",
      "outputs": [
        {
          "internalType": "uint256",
          "name": "",
          "type": "uint256"
        }
      ],
      "stateMutability": "view",
      "type": "function"
    },
    {
      "inputs": [],
      "name": "DECIMAL_PRECISION",
      "outputs": [
        {
          "internalType": "uint256",
          "name": "",
          "type": "uint256"
        }
      ],
      "stateMutability": "view",
      "type": "function"
    },
    {
      "inputs": [],
      "name": "GAS_COMPENSATION",
      "outputs": [
        {
          "internalType": "uint256",
          "name": "",
          "type": "uint256"
        }
      ],
      "stateMutability": "view",
      "type": "function"
    },
    {
      "inputs": [],
      "name": "L_Debt",
      "outputs": [
        {
          "internalType": "uint256",
          "name": "",
          "type": "uint256"
        }
      ],
      "stateMutability": "view",
      "type": "function"
    },
    {
      "inputs": [],
      "name": "L_FIL",
      "outputs": [
        {
          "internalType": "uint256",
          "name": "",
          "type": "uint256"
        }
      ],
      "stateMutability": "view",
      "type": "function"
    },
    {
      "inputs": [],
      "name": "MAX_BORROWING_FEE",
      "outputs": [
        {
          "internalType": "uint256",
          "name": "",
          "type": "uint256"
        }
      ],
      "stateMutability": "view",
      "type": "function"
    },
    {
      "inputs": [],
      "name": "MCR",
      "outputs": [
        {
          "internalType": "uint256",
          "name": "",
          "type": "uint256"
        }
      ],
      "stateMutability": "view",
      "type": "function"
    },
    {
      "inputs": [],
      "name": "MINUTE_DECAY_FACTOR",
      "outputs": [
        {
          "internalType": "uint256",
          "name": "",
          "type": "uint256"
        }
      ],
      "stateMutability": "view",
      "type": "function"
    },
    {
      "inputs": [],
      "name": "MIN_NET_DEBT",
      "outputs": [
        {
          "internalType": "uint256",
          "name": "",
          "type": "uint256"
        }
      ],
      "stateMutability": "view",
      "type": "function"
    },
    {
      "inputs": [],
      "name": "NAME",
      "outputs": [
        {
          "internalType": "string",
          "name": "",
          "type": "string"
        }
      ],
      "stateMutability": "view",
      "type": "function"
    },
    {
      "inputs": [],
      "name": "PERCENT_DIVISOR",
      "outputs": [
        {
          "internalType": "uint256",
          "name": "",
          "type": "uint256"
        }
      ],
      "stateMutability": "view",
      "type": "function"
    },
    {
      "inputs": [],
      "name": "REDEMPTION_FEE_FLOOR",
      "outputs": [
        {
          "internalType": "uint256",
          "name": "",
          "type": "uint256"
        }
      ],
      "stateMutability": "view",
      "type": "function"
    },
    {
      "inputs": [],
      "name": "SECONDS_IN_ONE_MINUTE",
      "outputs": [
        {
          "internalType": "uint256",
          "name": "",
          "type": "uint256"
        }
      ],
      "stateMutability": "view",
      "type": "function"
    },
    {
      "inputs": [
        {
          "internalType": "uint256",
          "name": "",
          "type": "uint256"
        }
      ],
      "name": "TroveOwners",
      "outputs": [
        {
          "internalType": "address",
          "name": "",
          "type": "address"
        }
      ],
      "stateMutability": "view",
      "type": "function"
    },
    {
      "inputs": [
        {
          "internalType": "address",
          "name": "",
          "type": "address"
        }
      ],
      "name": "Troves",
      "outputs": [
        {
          "internalType": "uint256",
          "name": "debt",
          "type": "uint256"
        },
        {
          "internalType": "uint256",
          "name": "coll",
          "type": "uint256"
        },
        {
          "internalType": "uint256",
          "name": "stake",
          "type": "uint256"
        },
        {
          "internalType": "enum ITroveManager.Status",
          "name": "status",
          "type": "uint8"
        },
        {
          "internalType": "uint128",
          "name": "arrayIndex",
          "type": "uint128"
        }
      ],
      "stateMutability": "view",
      "type": "function"
    },
    {
      "inputs": [],
      "name": "_100pct",
      "outputs": [
        {
          "internalType": "uint256",
          "name": "",
          "type": "uint256"
        }
      ],
      "stateMutability": "view",
      "type": "function"
    },
    {
      "inputs": [],
      "name": "activePool",
      "outputs": [
        {
          "internalType": "contract IActivePool",
          "name": "",
          "type": "address"
        }
      ],
      "stateMutability": "view",
      "type": "function"
    },
    {
      "inputs": [
        {
          "internalType": "address",
          "name": "_borrower",
          "type": "address"
        }
      ],
      "name": "addTroveOwnerToArray",
      "outputs": [
        {
          "internalType": "uint256",
          "name": "index",
          "type": "uint256"
        }
      ],
      "stateMutability": "nonpayable",
      "type": "function"
    },
    {
      "inputs": [
        {
          "internalType": "address",
          "name": "_borrower",
          "type": "address"
        }
      ],
      "name": "applyPendingRewards",
      "outputs": [],
      "stateMutability": "nonpayable",
      "type": "function"
    },
    {
      "inputs": [],
      "name": "baseRate",
      "outputs": [
        {
          "internalType": "uint256",
          "name": "",
          "type": "uint256"
        }
      ],
      "stateMutability": "view",
      "type": "function"
    },
    {
      "inputs": [
        {
          "internalType": "address[]",
          "name": "_troveArray",
          "type": "address[]"
        }
      ],
      "name": "batchLiquidateTroves",
      "outputs": [],
      "stateMutability": "nonpayable",
      "type": "function"
    },
    {
      "inputs": [],
      "name": "borrowerOperationsAddress",
      "outputs": [
        {
          "internalType": "address",
          "name": "",
          "type": "address"
        }
      ],
      "stateMutability": "view",
      "type": "function"
    },
    {
      "inputs": [
        {
          "internalType": "uint256",
          "name": "_price",
          "type": "uint256"
        }
      ],
      "name": "checkRecoveryMode",
      "outputs": [
        {
          "internalType": "bool",
          "name": "",
          "type": "bool"
        }
      ],
      "stateMutability": "view",
      "type": "function"
    },
    {
      "inputs": [
        {
          "internalType": "address",
          "name": "_borrower",
          "type": "address"
        }
      ],
      "name": "closeTrove",
      "outputs": [],
      "stateMutability": "nonpayable",
      "type": "function"
    },
    {
      "inputs": [],
      "name": "collSurplusPool",
      "outputs": [
        {
          "internalType": "contract ICollSurplusPool",
          "name": "",
          "type": "address"
        }
      ],
      "stateMutability": "view",
      "type": "function"
    },
    {
      "inputs": [],
      "name": "debtToken",
      "outputs": [
        {
          "internalType": "contract IDebtToken",
          "name": "",
          "type": "address"
        }
      ],
      "stateMutability": "view",
      "type": "function"
    },
    {
      "inputs": [],
      "name": "decayBaseRateFromBorrowing",
      "outputs": [],
      "stateMutability": "nonpayable",
      "type": "function"
    },
    {
      "inputs": [
        {
          "internalType": "address",
          "name": "_borrower",
          "type": "address"
        },
        {
          "internalType": "uint256",
          "name": "_collDecrease",
          "type": "uint256"
        }
      ],
      "name": "decreaseTroveColl",
      "outputs": [
        {
          "internalType": "uint256",
          "name": "",
          "type": "uint256"
        }
      ],
      "stateMutability": "nonpayable",
      "type": "function"
    },
    {
      "inputs": [
        {
          "internalType": "address",
          "name": "_borrower",
          "type": "address"
        },
        {
          "internalType": "uint256",
          "name": "_debtDecrease",
          "type": "uint256"
        }
      ],
      "name": "decreaseTroveDebt",
      "outputs": [
        {
          "internalType": "uint256",
          "name": "",
          "type": "uint256"
        }
      ],
      "stateMutability": "nonpayable",
      "type": "function"
    },
    {
      "inputs": [],
      "name": "defaultPool",
      "outputs": [
        {
          "internalType": "contract IDefaultPool",
          "name": "",
          "type": "address"
        }
      ],
      "stateMutability": "view",
      "type": "function"
    },
    {
      "inputs": [],
      "name": "deploymentStartTime",
      "outputs": [
        {
          "internalType": "uint256",
          "name": "",
          "type": "uint256"
        }
      ],
      "stateMutability": "view",
      "type": "function"
    },
    {
      "inputs": [],
      "name": "gasPoolAddress",
      "outputs": [
        {
          "internalType": "address",
          "name": "",
          "type": "address"
        }
      ],
      "stateMutability": "view",
      "type": "function"
    },
    {
      "inputs": [
        {
          "internalType": "uint256",
          "name": "_debt",
          "type": "uint256"
        }
      ],
      "name": "getBorrowingFee",
      "outputs": [
        {
          "internalType": "uint256",
          "name": "",
          "type": "uint256"
        }
      ],
      "stateMutability": "view",
      "type": "function"
    },
    {
      "inputs": [
        {
          "internalType": "uint256",
          "name": "_debt",
          "type": "uint256"
        }
      ],
      "name": "getBorrowingFeeWithDecay",
      "outputs": [
        {
          "internalType": "uint256",
          "name": "",
          "type": "uint256"
        }
      ],
      "stateMutability": "view",
      "type": "function"
    },
    {
      "inputs": [],
      "name": "getBorrowingRate",
      "outputs": [
        {
          "internalType": "uint256",
          "name": "",
          "type": "uint256"
        }
      ],
      "stateMutability": "view",
      "type": "function"
    },
    {
      "inputs": [],
      "name": "getBorrowingRateWithDecay",
      "outputs": [
        {
          "internalType": "uint256",
          "name": "",
          "type": "uint256"
        }
      ],
      "stateMutability": "view",
      "type": "function"
    },
    {
      "inputs": [
        {
          "internalType": "address",
          "name": "_borrower",
          "type": "address"
        },
        {
          "internalType": "uint256",
          "name": "_price",
          "type": "uint256"
        }
      ],
      "name": "getCurrentICR",
      "outputs": [
        {
          "internalType": "uint256",
          "name": "",
          "type": "uint256"
        }
      ],
      "stateMutability": "view",
      "type": "function"
    },
    {
      "inputs": [
        {
          "internalType": "address",
          "name": "_borrower",
          "type": "address"
        }
      ],
      "name": "getEntireDebtAndColl",
      "outputs": [
        {
          "internalType": "uint256",
          "name": "debt",
          "type": "uint256"
        },
        {
          "internalType": "uint256",
          "name": "coll",
          "type": "uint256"
        },
        {
          "internalType": "uint256",
          "name": "pendingDebtReward",
          "type": "uint256"
        },
        {
          "internalType": "uint256",
          "name": "pendingFILReward",
          "type": "uint256"
        }
      ],
      "stateMutability": "view",
      "type": "function"
    },
    {
      "inputs": [],
      "name": "getEntireSystemColl",
      "outputs": [
        {
          "internalType": "uint256",
          "name": "entireSystemColl",
          "type": "uint256"
        }
      ],
      "stateMutability": "view",
      "type": "function"
    },
    {
      "inputs": [],
      "name": "getEntireSystemDebt",
      "outputs": [
        {
          "internalType": "uint256",
          "name": "entireSystemDebt",
          "type": "uint256"
        }
      ],
      "stateMutability": "view",
      "type": "function"
    },
    {
      "inputs": [
        {
          "internalType": "address",
          "name": "_borrower",
          "type": "address"
        }
      ],
      "name": "getNominalICR",
      "outputs": [
        {
          "internalType": "uint256",
          "name": "",
          "type": "uint256"
        }
      ],
      "stateMutability": "view",
      "type": "function"
    },
    {
      "inputs": [
        {
          "internalType": "address",
          "name": "_borrower",
          "type": "address"
        }
      ],
      "name": "getPendingDebtReward",
      "outputs": [
        {
          "internalType": "uint256",
          "name": "",
          "type": "uint256"
        }
      ],
      "stateMutability": "view",
      "type": "function"
    },
    {
      "inputs": [
        {
          "internalType": "address",
          "name": "_borrower",
          "type": "address"
        }
      ],
      "name": "getPendingFILReward",
      "outputs": [
        {
          "internalType": "uint256",
          "name": "",
          "type": "uint256"
        }
      ],
      "stateMutability": "view",
      "type": "function"
    },
    {
      "inputs": [
        {
          "internalType": "uint256",
          "name": "_FILDrawn",
          "type": "uint256"
        }
      ],
      "name": "getRedemptionFeeWithDecay",
      "outputs": [
        {
          "internalType": "uint256",
          "name": "",
          "type": "uint256"
        }
      ],
      "stateMutability": "view",
      "type": "function"
    },
    {
      "inputs": [],
      "name": "getRedemptionRate",
      "outputs": [
        {
          "internalType": "uint256",
          "name": "",
          "type": "uint256"
        }
      ],
      "stateMutability": "view",
      "type": "function"
    },
    {
      "inputs": [],
      "name": "getRedemptionRateWithDecay",
      "outputs": [
        {
          "internalType": "uint256",
          "name": "",
          "type": "uint256"
        }
      ],
      "stateMutability": "view",
      "type": "function"
    },
    {
      "inputs": [
        {
          "internalType": "uint256",
          "name": "_price",
          "type": "uint256"
        }
      ],
      "name": "getTCR",
      "outputs": [
        {
          "internalType": "uint256",
          "name": "",
          "type": "uint256"
        }
      ],
      "stateMutability": "view",
      "type": "function"
    },
    {
      "inputs": [
        {
          "internalType": "address",
          "name": "_borrower",
          "type": "address"
        }
      ],
      "name": "getTroveColl",
      "outputs": [
        {
          "internalType": "uint256",
          "name": "",
          "type": "uint256"
        }
      ],
      "stateMutability": "view",
      "type": "function"
    },
    {
      "inputs": [
        {
          "internalType": "address",
          "name": "_borrower",
          "type": "address"
        }
      ],
      "name": "getTroveDebt",
      "outputs": [
        {
          "internalType": "uint256",
          "name": "",
          "type": "uint256"
        }
      ],
      "stateMutability": "view",
      "type": "function"
    },
    {
      "inputs": [
        {
          "internalType": "uint256",
          "name": "_index",
          "type": "uint256"
        }
      ],
      "name": "getTroveFromTroveOwnersArray",
      "outputs": [
        {
          "internalType": "address",
          "name": "",
          "type": "address"
        }
      ],
      "stateMutability": "view",
      "type": "function"
    },
    {
      "inputs": [],
      "name": "getTroveOwnersCount",
      "outputs": [
        {
          "internalType": "uint256",
          "name": "",
          "type": "uint256"
        }
      ],
      "stateMutability": "view",
      "type": "function"
    },
    {
      "inputs": [
        {
          "internalType": "address",
          "name": "_borrower",
          "type": "address"
        }
      ],
      "name": "getTroveStake",
      "outputs": [
        {
          "internalType": "uint256",
          "name": "",
          "type": "uint256"
        }
      ],
      "stateMutability": "view",
      "type": "function"
    },
    {
      "inputs": [
        {
          "internalType": "address",
          "name": "_borrower",
          "type": "address"
        }
      ],
      "name": "getTroveStatus",
      "outputs": [
        {
          "internalType": "uint256",
          "name": "",
          "type": "uint256"
        }
      ],
      "stateMutability": "view",
      "type": "function"
    },
    {
      "inputs": [
        {
          "internalType": "address",
          "name": "_borrower",
          "type": "address"
        }
      ],
      "name": "hasPendingRewards",
      "outputs": [
        {
          "internalType": "bool",
          "name": "",
          "type": "bool"
        }
      ],
      "stateMutability": "view",
      "type": "function"
    },
    {
      "inputs": [
        {
          "internalType": "address",
          "name": "_borrower",
          "type": "address"
        },
        {
          "internalType": "uint256",
          "name": "_collIncrease",
          "type": "uint256"
        }
      ],
      "name": "increaseTroveColl",
      "outputs": [
        {
          "internalType": "uint256",
          "name": "",
          "type": "uint256"
        }
      ],
      "stateMutability": "nonpayable",
      "type": "function"
    },
    {
      "inputs": [
        {
          "internalType": "address",
          "name": "_borrower",
          "type": "address"
        },
        {
          "internalType": "uint256",
          "name": "_debtIncrease",
          "type": "uint256"
        }
      ],
      "name": "increaseTroveDebt",
      "outputs": [
        {
          "internalType": "uint256",
          "name": "",
          "type": "uint256"
        }
      ],
      "stateMutability": "nonpayable",
      "type": "function"
    },
    {
      "inputs": [
        {
          "internalType": "address",
          "name": "_borrowerOperationsAddress",
          "type": "address"
        },
        {
          "internalType": "address",
          "name": "_activePoolAddress",
          "type": "address"
        },
        {
          "internalType": "address",
          "name": "_defaultPoolAddress",
          "type": "address"
        },
        {
          "internalType": "address",
          "name": "_stabilityPoolAddress",
          "type": "address"
        },
        {
          "internalType": "address",
          "name": "_gasPoolAddress",
          "type": "address"
        },
        {
          "internalType": "address",
          "name": "_collSurplusPoolAddress",
          "type": "address"
        },
        {
          "internalType": "address",
          "name": "_priceFeedAddress",
          "type": "address"
        },
        {
          "internalType": "address",
          "name": "_debtTokenAddress",
          "type": "address"
        },
        {
          "internalType": "address",
          "name": "_sortedTrovesAddress",
          "type": "address"
        },
        {
          "internalType": "address",
          "name": "_protocolTokenAddress",
          "type": "address"
        },
        {
          "internalType": "address",
          "name": "_protocolTokenStakingAddress",
          "type": "address"
        }
      ],
      "name": "initialize",
      "outputs": [],
      "stateMutability": "nonpayable",
      "type": "function"
    },
    {
      "inputs": [],
      "name": "lastFILError_Redistribution",
      "outputs": [
        {
          "internalType": "uint256",
          "name": "",
          "type": "uint256"
        }
      ],
      "stateMutability": "view",
      "type": "function"
    },
    {
      "inputs": [],
      "name": "lastFeeOperationTime",
      "outputs": [
        {
          "internalType": "uint256",
          "name": "",
          "type": "uint256"
        }
      ],
      "stateMutability": "view",
      "type": "function"
    },
    {
      "inputs": [],
      "name": "lastLDebtError_Redistribution",
      "outputs": [
        {
          "internalType": "uint256",
          "name": "",
          "type": "uint256"
        }
      ],
      "stateMutability": "view",
      "type": "function"
    },
    {
      "inputs": [
        {
          "internalType": "address",
          "name": "_borrower",
          "type": "address"
        }
      ],
      "name": "liquidate",
      "outputs": [],
      "stateMutability": "nonpayable",
      "type": "function"
    },
    {
      "inputs": [
        {
          "internalType": "uint256",
          "name": "_n",
          "type": "uint256"
        }
      ],
      "name": "liquidateTroves",
      "outputs": [],
      "stateMutability": "nonpayable",
      "type": "function"
    },
    {
      "inputs": [],
      "name": "owner",
      "outputs": [
        {
          "internalType": "address",
          "name": "",
          "type": "address"
        }
      ],
      "stateMutability": "view",
      "type": "function"
    },
    {
      "inputs": [],
      "name": "priceFeed",
      "outputs": [
        {
          "internalType": "contract IPriceFeed",
          "name": "",
          "type": "address"
        }
      ],
      "stateMutability": "view",
      "type": "function"
    },
    {
      "inputs": [],
      "name": "protocolToken",
      "outputs": [
        {
          "internalType": "contract IProtocolToken",
          "name": "",
          "type": "address"
        }
      ],
      "stateMutability": "view",
      "type": "function"
    },
    {
      "inputs": [],
      "name": "protocolTokenStaking",
      "outputs": [
        {
          "internalType": "contract IProtocolTokenStaking",
          "name": "",
          "type": "address"
        }
      ],
      "stateMutability": "view",
      "type": "function"
    },
    {
      "inputs": [
        {
          "internalType": "uint256",
          "name": "_debtTokenAmount",
          "type": "uint256"
        },
        {
          "internalType": "address",
          "name": "_firstRedemptionHint",
          "type": "address"
        },
        {
          "internalType": "address",
          "name": "_upperPartialRedemptionHint",
          "type": "address"
        },
        {
          "internalType": "address",
          "name": "_lowerPartialRedemptionHint",
          "type": "address"
        },
        {
          "internalType": "uint256",
          "name": "_partialRedemptionHintNICR",
          "type": "uint256"
        },
        {
          "internalType": "uint256",
          "name": "_maxIterations",
          "type": "uint256"
        },
        {
          "internalType": "uint256",
          "name": "_maxFeePercentage",
          "type": "uint256"
        }
      ],
      "name": "redeemCollateral",
      "outputs": [],
      "stateMutability": "nonpayable",
      "type": "function"
    },
    {
      "inputs": [
        {
          "internalType": "address",
          "name": "_borrower",
          "type": "address"
        }
      ],
      "name": "removeStake",
      "outputs": [],
      "stateMutability": "nonpayable",
      "type": "function"
    },
    {
      "inputs": [],
      "name": "renounceOwnership",
      "outputs": [],
      "stateMutability": "nonpayable",
      "type": "function"
    },
    {
      "inputs": [
        {
          "internalType": "address",
          "name": "",
          "type": "address"
        }
      ],
      "name": "rewardSnapshots",
      "outputs": [
        {
          "internalType": "uint256",
          "name": "FIL",
          "type": "uint256"
        },
        {
          "internalType": "uint256",
          "name": "debt",
          "type": "uint256"
        }
      ],
      "stateMutability": "view",
      "type": "function"
    },
    {
      "inputs": [
        {
          "internalType": "address",
          "name": "_borrower",
          "type": "address"
        },
        {
          "internalType": "uint256",
          "name": "_num",
          "type": "uint256"
        }
      ],
      "name": "setTroveStatus",
      "outputs": [],
      "stateMutability": "nonpayable",
      "type": "function"
    },
    {
      "inputs": [],
      "name": "sortedTroves",
      "outputs": [
        {
          "internalType": "contract ISortedTroves",
          "name": "",
          "type": "address"
        }
      ],
      "stateMutability": "view",
      "type": "function"
    },
    {
      "inputs": [],
      "name": "stabilityPool",
      "outputs": [
        {
          "internalType": "contract IStabilityPool",
          "name": "",
          "type": "address"
        }
      ],
      "stateMutability": "view",
      "type": "function"
    },
    {
      "inputs": [],
      "name": "totalCollateralSnapshot",
      "outputs": [
        {
          "internalType": "uint256",
          "name": "",
          "type": "uint256"
        }
      ],
      "stateMutability": "view",
      "type": "function"
    },
    {
      "inputs": [],
      "name": "totalStakes",
      "outputs": [
        {
          "internalType": "uint256",
          "name": "",
          "type": "uint256"
        }
      ],
      "stateMutability": "view",
      "type": "function"
    },
    {
      "inputs": [],
      "name": "totalStakesSnapshot",
      "outputs": [
        {
          "internalType": "uint256",
          "name": "",
          "type": "uint256"
        }
      ],
      "stateMutability": "view",
      "type": "function"
    },
    {
      "inputs": [
        {
          "internalType": "address",
          "name": "newOwner",
          "type": "address"
        }
      ],
      "name": "transferOwnership",
      "outputs": [],
      "stateMutability": "nonpayable",
      "type": "function"
    },
    {
      "inputs": [
        {
          "internalType": "address",
          "name": "_borrower",
          "type": "address"
        }
      ],
      "name": "updateStakeAndTotalStakes",
      "outputs": [
        {
          "internalType": "uint256",
          "name": "",
          "type": "uint256"
        }
      ],
      "stateMutability": "nonpayable",
      "type": "function"
    },
    {
      "inputs": [
        {
          "internalType": "address",
          "name": "_borrower",
          "type": "address"
        }
      ],
      "name": "updateTroveRewardSnapshots",
      "outputs": [],
      "stateMutability": "nonpayable",
      "type": "function"
    }
  ],
  "bytecode": "0x60e06040523480156200001157600080fd5b5060405162005dd738038062005dd7833981810160405260408110156200003757600080fd5b508051602090910151608082905260a08190524260c0819052615d36620000a16000398061282e528061404a525080610e7b5280614502525080610df85280614383528061442852806144695280614ad15280614f2252806154cb52806157ee5250615d366000f3fe608060405234801561001057600080fd5b50600436106104965760003560e01c806376902b8311610262578063c35bc55011610151578063d9a72444116100ce578063f59fac2d11610092578063f59fac2d14610d04578063f8d8989814610d2a578063f92d3433146106b1578063fdf27dba14610d32578063fe2ba84814610d3a578063fe9d032314610d6057610496565b8063d9a7244414610c8b578063e2ac77b014610ca8578063e545242314610cce578063f2fde38b14610cd6578063f36b242514610cfc57610496565b8063d293c71011610115578063d293c71014610be8578063d380a37c14610c14578063d3d6f84314610c1c578063d5b3563514610c48578063d66a255314610c6557610496565b8063c35bc55014610ba2578063c52861f214610baa578063c7b5548114610bb2578063cbd138ae14610bba578063cda775f914610be057610496565b8063a0d8d6bc116101df578063b7f8cf9b116101a3578063b7f8cf9b14610adb578063b82f263d14610ae3578063b91af97c14610b00578063bcd3752614610b4c578063bf9befb114610b9a57610496565b8063a0d8d6bc14610a28578063a20baee6146108ed578063a3f4df7e14610a30578063ae91875414610aad578063b0d8e18114610ab557610496565b806382fe3eb91161022657806382fe3eb9146109be578063887105d3146109e45780638da5cb5b146109ec57806396d711ff146109f45780639976cf45146109fc57610496565b806376902b8314610922578063794e57241461099e578063795d26c3146109a65780637f7dde4a146109ae578063807d138d146109b657610496565b8063477d66cf11610389578063631203b011610306578063715018a6116102ca578063715018a6146108b957806372423c17146108c157806372fe25aa146108ed57806373098be9146108f5578063741bef1a146108fd578063756b253e1461090557610496565b8063631203b0146107e557806364cee26014610802578063653d46e71461082857806366ca4a21146108455780636ef643381461084d57610496565b806352512eaa1161034d57806352512eaa1461077b5780635733d58f146107a15780635d6b480f146107a95780635dba4c4a146107d557806361ec893d146107dd57610496565b8063477d66cf146106f7578063480cd578146107145780634870dd9a1461073a57806349eefeee146107425780634e443d9e1461074a57610496565b80631e8b1c2b1161041757806328d28b5b116103db57806328d28b5b146106b15780632b11551a146106b95780632f865568146106c157806331eaf05c146106e75780633cc74225146106ef57610496565b80631e8b1c2b146105d05780631f68f20a1461067357806321e378011461067b57806324092669146106a157806326b4d8fd146106a957610496565b806315d549f11161045e57806315d549f1146105355780631673c79a1461055b57806318f2817a1461059a5780631a465fe1146105c05780631bf43555146105c857610496565b8063048c661d1461049b578063071a7541146104bf5780630b076557146104d957806312610e9214610501578063139f2e8c1461052d575b600080fd5b6104a3610d68565b604080516001600160a01b039092168252519081900360200190f35b6104c7610d77565b60408051918252519081900360200190f35b6104ff600480360360208110156104ef57600080fd5b50356001600160a01b0316610d7c565b005b6104c76004803603604081101561051757600080fd5b506001600160a01b038135169060200135610da4565b6104c7610df6565b6104c76004803603602081101561054b57600080fd5b50356001600160a01b0316610e1a565b6105816004803603602081101561057157600080fd5b50356001600160a01b0316610e3e565b6040805192835260208301919091528051918290030190f35b6104c7600480360360208110156105b057600080fd5b50356001600160a01b0316610e57565b6104a3610e6a565b6104c7610e79565b6104ff600480360360208110156105e657600080fd5b81019060208101813564010000000081111561060157600080fd5b82018360208201111561061357600080fd5b8035906020019184602083028401116401000000008311171561063557600080fd5b919080806020026020016040519081016040528093929190818152602001838360200280828437600092019190915250929550610e9d945050505050565b6104c7611231565b6104c76004803603602081101561069157600080fd5b50356001600160a01b0316611237565b6104c7611261565b6104c7611274565b6104c761127a565b6104c761128b565b6104ff600480360360208110156106d757600080fd5b50356001600160a01b031661129d565b6104c7611303565b6104a3611309565b6104c76004803603602081101561070d57600080fd5b5035611318565b6104c76004803603602081101561072a57600080fd5b50356001600160a01b031661132b565b6104c7611349565b6104c761134e565b6107676004803603602081101561076057600080fd5b5035611354565b604080519115158252519081900360200190f35b6104c76004803603602081101561079157600080fd5b50356001600160a01b031661135f565b6104c7611413565b6104ff600480360360408110156107bf57600080fd5b506001600160a01b03813516906020013561141f565b6104ff61146b565b6104c76114d1565b6104c7600480360360208110156107fb57600080fd5b50356114d6565b6104c76004803603602081101561081857600080fd5b50356001600160a01b03166114e3565b6104ff6004803603602081101561083e57600080fd5b5035611501565b6104c761189e565b6108736004803603602081101561086357600080fd5b50356001600160a01b03166118b0565b6040518086815260200185815260200184815260200183600481111561089557fe5b8152602001826001600160801b031681526020019550505050505060405180910390f35b6104ff6118ea565b6104c7600480360360408110156108d757600080fd5b506001600160a01b038135169060200135611996565b6104c76119ed565b6104c76119f9565b6104a36119ff565b6104a36004803603602081101561091b57600080fd5b5035611a0e565b6104ff600480360361016081101561093957600080fd5b506001600160a01b038135811691602081013582169160408201358116916060810135821691608082013581169160a081013582169160c082013581169160e08101358216916101008201358116916101208101358216916101409091013516611a38565b6104c7611b17565b6104c7611b23565b6104a3611c1e565b6104c7611c2d565b6104ff600480360360208110156109d457600080fd5b50356001600160a01b0316611c33565b6104c7611c44565b6104a3611d00565b6104c7611d0f565b6104c760048036036040811015610a1257600080fd5b506001600160a01b038135169060200135611d15565b6104c7611d42565b610a38611d48565b6040805160208082528351818301528351919283929083019185019080838360005b83811015610a72578181015183820152602001610a5a565b50505050905090810190601f168015610a9f5780820380516001836020036101000a031916815260200191505b509250505060405180910390f35b6104a3611d70565b6104c760048036036020811015610acb57600080fd5b50356001600160a01b0316611d7f565b6104a3611da6565b6104c760048036036020811015610af957600080fd5b5035611db5565b610b2660048036036020811015610b1657600080fd5b50356001600160a01b0316611dc0565b604080519485526020850193909352838301919091526060830152519081900360800190f35b6104ff600480360360e0811015610b6257600080fd5b508035906001600160a01b03602082013581169160408101358216916060820135169060808101359060a08101359060c00135611e18565b6104c761257b565b6104c7612581565b6104c7612588565b6104c761259a565b6104ff60048036036020811015610bd057600080fd5b50356001600160a01b03166125a6565b6104a36125b9565b6104c760048036036040811015610bfe57600080fd5b506001600160a01b0381351690602001356125c8565b6104c76125e7565b6104c760048036036040811015610c3257600080fd5b506001600160a01b0381351690602001356125ed565b6104c760048036036020811015610c5e57600080fd5b503561261d565b6104c760048036036020811015610c7b57600080fd5b50356001600160a01b0316612630565b6104a360048036036020811015610ca157600080fd5b503561264b565b61076760048036036020811015610cbe57600080fd5b50356001600160a01b0316612675565b6104a36126d3565b6104ff60048036036020811015610cec57600080fd5b50356001600160a01b03166126e2565b6104c76127e5565b6104c760048036036020811015610d1a57600080fd5b50356001600160a01b03166127f2565b6104a361281d565b6104c761282c565b6104ff60048036036020811015610d5057600080fd5b50356001600160a01b0316612850565b6104a3612861565b606a546001600160a01b031681565b600281565b610d84612870565b600054600154610da1916001600160a01b039081169116836128bb565b50565b6000610dae612870565b6001600160a01b038316600090815260716020526040812054610dd190846129d1565b6001600160a01b03851660009081526071602052604090208190559150505b92915050565b7f000000000000000000000000000000000000000000000000000000000000000081565b6000610e24612870565b610e2d82612a2e565b6001600160801b031690505b919050565b6077602052600090815260409020805460019091015482565b6000610e61612870565b610df082612ac8565b606c546001600160a01b031681565b7f000000000000000000000000000000000000000000000000000000000000000081565b8051610eda5760405162461bcd60e51b8152600401808060200182810382526036815260200180615bbc6036913960400191505060405180910390fd5b600054600154606a546001600160a01b03928316929182169116610efc61587c565b610f046158ad565b600260009054906101000a90046001600160a01b03166001600160a01b0316630fdb11cf6040518163ffffffff1660e01b8152600401602060405180830381600087803b158015610f5457600080fd5b505af1158015610f68573d6000803e3d6000fd5b505050506040513d6020811015610f7e57600080fd5b5051825260408051630d9a6b3560e01b815290516001600160a01b03851691630d9a6b35916004808301926020929190829003018186803b158015610fc257600080fd5b505afa158015610fd6573d6000803e3d6000fd5b505050506040513d6020811015610fec57600080fd5b505160208301528151610ffe90612b6b565b15801560408401526110265761101f8585846000015185602001518a612b88565b905061103e565b61103b8585846000015185602001518a612da6565b90505b60008160200151116110815760405162461bcd60e51b8152600401808060200182810382526022815260200180615cb06022913960400191505060405180910390fd5b826001600160a01b031663335525ad82608001518360a001516040518363ffffffff1660e01b81526004018083815260200182815260200192505050600060405180830381600087803b1580156110d757600080fd5b505af11580156110eb573d6000803e3d6000fd5b5050505061110385858360c001518460e00151612e68565b610100810151156111805760695461010082015160408051628063a560e01b81526001600160a01b03938416600482015260248101929092525191871691628063a59160448082019260009290919082900301818387803b15801561116757600080fd5b505af115801561117b573d6000803e3d6000fd5b505050505b61118e8582604001516130b2565b60208101516060830152610100810151604082015182516111ba92916111b491906129d1565b906129d1565b608080840182905260608085015160408086015186840151825193845260208401969096528282015291810193909352517f4152c73dd2614c4f9fc35e8c9cf16013cd588c75b49a4c1673ecffdcbcda94039281900390910190a16112298533836060015184604001516131f3565b505050505050565b606f5481565b6001600160a01b03811660009081526071602052604081206003015460ff166004811115610df057fe5b6064670de0b6b3a76400005b0460050281565b607a5481565b6103e8670de0b6b3a764000061126d565b6000611298606f546132ec565b905090565b6112a681613322565b6040805160018082528183019092526000916020808301908036833701905050905081816000815181106112d657fe5b60200260200101906001600160a01b031690816001600160a01b0316815250506112ff81610e9d565b5050565b60765481565b6001546001600160a01b031681565b6000610df061132561189e565b8361338a565b6001600160a01b031660009081526071602052604090206001015490565b60c881565b60785490565b6000610df082612b6b565b6001600160a01b038116600090815260776020526040812054607554829061138790836129d1565b90508015806113c0575060016001600160a01b03851660009081526071602052604090206003015460ff1660048111156113bd57fe5b14155b156113d057600092505050610e39565b6001600160a01b03841660009081526071602052604081206002015490611409670de0b6b3a764000061140384866133a9565b90613402565b9695505050505050565b6714d1120d7b16000081565b611427612870565b80600481111561143357fe5b6001600160a01b0383166000908152607160205260409020600301805460ff1916600183600481111561146257fe5b02179055505050565b611473612870565b600061147d613469565b9050670de0b6b3a764000081111561149157fe5b606f8190556040805182815290517fc454ee9b76c52f782a256af821b857ca6e125d1e3333bcede402fec2bed9600c9181900360200190a1610da16134ad565b603c81565b6000610df06113256127e5565b6001600160a01b031660009081526071602052604090206002015490565b6040805160e081018252600080546001600160a01b0390811683526001548116602084015292820181905260608201819052606e548316608083015260a0820181905260c0820152606a5490911661155761587c565b61155f6158ad565b600260009054906101000a90046001600160a01b03166001600160a01b0316630fdb11cf6040518163ffffffff1660e01b8152600401602060405180830381600087803b1580156115af57600080fd5b505af11580156115c3573d6000803e3d6000fd5b505050506040513d60208110156115d957600080fd5b5051825260408051630d9a6b3560e01b815290516001600160a01b03851691630d9a6b35916004808301926020929190829003018186803b15801561161d57600080fd5b505afa158015611631573d6000803e3d6000fd5b505050506040513d602081101561164757600080fd5b50516020830152815161165990612b6b565b158015604084015261168057611679848360000151846020015188613509565b90506116a0565b61169d846000015185602001518460000151856020015189613889565b90505b60008160200151116116e35760405162461bcd60e51b8152600401808060200182810382526022815260200180615cb06022913960400191505060405180910390fd5b826001600160a01b031663335525ad82608001518360a001516040518363ffffffff1660e01b81526004018083815260200182815260200192505050600060405180830381600087803b15801561173957600080fd5b505af115801561174d573d6000803e3d6000fd5b5050505061176d846000015185602001518360c001518460e00151612e68565b610100810151156117ec57835160695461010083015160408051628063a560e01b81526001600160a01b0393841660048201526024810192909252519190921691628063a591604480830192600092919082900301818387803b1580156117d357600080fd5b505af11580156117e7573d6000803e3d6000fd5b505050505b6117fe846000015182604001516130b2565b602081015160608301526101008101516040820151825161182492916111b491906129d1565b608080840182905260608085015160408086015186840151825193845260208401969096528282015291810193909352517f4152c73dd2614c4f9fc35e8c9cf16013cd588c75b49a4c1673ecffdcbcda94039281900390910190a1611897846000015133836060015184604001516131f3565b5050505050565b60006112986118ab613469565b6139b5565b60716020526000908152604090208054600182015460028301546003909301549192909160ff81169061010090046001600160801b031685565b6118f26139dc565b6001600160a01b0316611903611d00565b6001600160a01b03161461195e576040805162461bcd60e51b815260206004820181905260248201527f4f776e61626c653a2063616c6c6572206973206e6f7420746865206f776e6572604482015290519081900360640190fd5b6035546040516000916001600160a01b031690600080516020615b41833981519152908390a3603580546001600160a01b0319169055565b60006119a0612870565b6001600160a01b0383166000908152607160205260408120600101546119c690846139e0565b6001600160a01b038516600090815260716020526040902060010181905591505092915050565b670de0b6b3a764000081565b60755481565b6002546001600160a01b031681565b60788181548110611a1e57600080fd5b6000918252602090912001546001600160a01b0316905081565b600254600160a81b900460ff1680611a535750611a53613a3a565b80611a685750600254600160a01b900460ff16155b611aa35760405162461bcd60e51b815260040180806020018281038252602e815260200180615a3a602e913960400191505060405180910390fd5b600254600160a81b900460ff16158015611ada576002805460ff60a01b1960ff60a81b19909116600160a81b1716600160a01b1790555b611ae2613a4b565b611af58c8c8c8c8c8c8c8c8c8c8c613b13565b8015611b09576002805460ff60a81b191690555b505050505050505050505050565b670f43fc2c04ee000081565b60008054604080516314a6bf0f60e01b8152905183926001600160a01b0316916314a6bf0f916004808301926020929190829003018186803b158015611b6857600080fd5b505afa158015611b7c573d6000803e3d6000fd5b505050506040513d6020811015611b9257600080fd5b5051600154604080516314a6bf0f60e01b815290519293506000926001600160a01b03909216916314a6bf0f91600480820192602092909190829003018186803b158015611bdf57600080fd5b505afa158015611bf3573d6000803e3d6000fd5b505050506040513d6020811015611c0957600080fd5b50519050611c1782826139e0565b9250505090565b6000546001600160a01b031681565b60735481565b611c3b612870565b610da181613eab565b60008054604080516362e1c9bf60e11b8152905183926001600160a01b03169163c5c3937e916004808301926020929190829003018186803b158015611c8957600080fd5b505afa158015611c9d573d6000803e3d6000fd5b505050506040513d6020811015611cb357600080fd5b5051600154604080516362e1c9bf60e11b815290519293506000926001600160a01b039092169163c5c3937e91600480820192602092909190829003018186803b158015611bdf57600080fd5b6035546001600160a01b031690565b60745481565b6000611d1f612870565b6001600160a01b038316600090815260716020526040812054610dd190846139e0565b60795481565b6040518060400160405280600c81526020016b2a3937bb32a6b0b730b3b2b960a11b81525081565b606e546001600160a01b031681565b6000806000611d8d84613f16565b915091506000611d9d8383613f90565b95945050505050565b6067546001600160a01b031681565b6000610df082613fbf565b6001600160a01b03811660009081526071602052604081208054600190910154909180611dec856127f2565b9150611df78561135f565b9050611e0384836139e0565b9350611e0f83826139e0565b92509193509193565b6040805160e0810182526000546001600160a01b03908116825260015481166020830152606b54811692820192909252606d5482166060820152606e5482166080820152606954821660a082015260685490911660c0820152611e796158f9565b611e8283613feb565b611e8a614045565b600260009054906101000a90046001600160a01b03166001600160a01b0316630fdb11cf6040518163ffffffff1660e01b8152600401602060405180830381600087803b158015611eda57600080fd5b505af1158015611eee573d6000803e3d6000fd5b505050506040513d6020811015611f0457600080fd5b505160c08201819052611f16906140b0565b611f1f896140ff565b611f2e8260400151338b61413e565b611f36611b23565b60e0820181905260408084015181516370a0823160e01b815233600482015291516001600160a01b03909116916370a08231916024808301926020929190829003018186803b158015611f8857600080fd5b505afa158015611f9c573d6000803e3d6000fd5b505050506040513d6020811015611fb257600080fd5b50511115611fbc57fe5b888152608082015160c0820151600091611fd7918b906141f5565b15611fe3575087612104565b82608001516001600160a01b0316634d6228316040518163ffffffff1660e01b815260040160206040518083038186803b15801561202057600080fd5b505afa158015612034573d6000803e3d6000fd5b505050506040513d602081101561204a57600080fd5b505190505b6001600160a01b0381161580159061207b5750670f43fc2c04ee0000612079828460c001516125c8565b105b156121045782608001516001600160a01b031663b72703ac826040518263ffffffff1660e01b815260040180826001600160a01b0316815260200191505060206040518083038186803b1580156120d157600080fd5b505afa1580156120e5573d6000803e3d6000fd5b505050506040513d60208110156120fb57600080fd5b5051905061204f565b8461210f5760001994505b6001600160a01b038116158015906121275750815115155b80156121335750600085115b1561224657848060019003955050600083608001516001600160a01b031663b72703ac836040518263ffffffff1660e01b815260040180826001600160a01b0316815260200191505060206040518083038186803b15801561219457600080fd5b505afa1580156121a8573d6000803e3d6000fd5b505050506040513d60208110156121be57600080fd5b5051845160208601519192506121d491846128bb565b60006121ed858486600001518760c001518e8e8e614356565b9050806040015115612200575050612246565b80516020850151612210916139e0565b602080860191909152810151604085015161222a916139e0565b60408501528051845161223c916129d1565b845250905061210f565b60008260400151116122895760405162461bcd60e51b8152600401808060200182810382526029815260200180615a116029913960400191505060405180910390fd5b6122a082604001518360c001518460e0015161464a565b506122ae82604001516146e0565b6060830181905260408301516122c59190866146ed565b82600001516001600160a01b0316628063a5846060015184606001516040518363ffffffff1660e01b815260040180836001600160a01b0316815260200182815260200192505050600060405180830381600087803b15801561232757600080fd5b505af115801561233b573d6000803e3d6000fd5b5050505082606001516001600160a01b031663c91d2d3883606001516040518263ffffffff1660e01b815260040180828152602001915050600060405180830381600087803b15801561238d57600080fd5b505af11580156123a1573d6000803e3d6000fd5b50505050606082015160408301516123b8916129d1565b8260800181815250507f43a3f4082a4dbc33d78e317d2497d3a730bc7fc3574159dcea1056e62e5d9ad88a8360200151846040015185606001516040518085815260200184815260200183815260200182815260200194505050505060405180910390a182604001516001600160a01b0316639dc29fac3384602001516040518363ffffffff1660e01b815260040180836001600160a01b0316815260200182815260200192505050600060405180830381600087803b15801561247b57600080fd5b505af115801561248f573d6000803e3d6000fd5b5050505082600001516001600160a01b0316632a7ba1f783602001516040518263ffffffff1660e01b815260040180828152602001915050600060405180830381600087803b1580156124e157600080fd5b505af11580156124f5573d6000803e3d6000fd5b5050505082600001516001600160a01b0316628063a53384608001516040518363ffffffff1660e01b815260040180836001600160a01b0316815260200182815260200192505050600060405180830381600087803b15801561255757600080fd5b505af115801561256b573d6000803e3d6000fd5b5050505050505050505050505050565b60725481565b6212750081565b6000611298612595613469565b6132ec565b670ddd4b8c6c7d70d881565b6125ae612870565b610da181600261475c565b6069546001600160a01b031681565b60008060006125d685613f16565b915091506000611409838387614875565b60705481565b60006125f7612870565b6001600160a01b0383166000908152607160205260408120600101546119c690846129d1565b6000610df061262a612588565b8361489f565b6001600160a01b031660009081526071602052604090205490565b60006078828154811061265a57fe5b6000918252602090912001546001600160a01b031692915050565b600060016001600160a01b03831660009081526071602052604090206003015460ff1660048111156126a357fe5b146126b057506000610e39565b506075546001600160a01b03821660009081526077602052604090205410919050565b606d546001600160a01b031681565b6126ea6139dc565b6001600160a01b03166126fb611d00565b6001600160a01b031614612756576040805162461bcd60e51b815260206004820181905260248201527f4f776e61626c653a2063616c6c6572206973206e6f7420746865206f776e6572604482015290519081900360640190fd5b6001600160a01b03811661279b5760405162461bcd60e51b81526004018080602001828103825260268152602001806159eb6026913960400191505060405180910390fd5b6035546040516001600160a01b03808416921690600080516020615b4183398151915290600090a3603580546001600160a01b0319166001600160a01b0392909216919091179055565b6000611298606f546139b5565b6001600160a01b038116600090815260776020526040812060010154607654829061138790836129d1565b606b546001600160a01b031681565b7f000000000000000000000000000000000000000000000000000000000000000081565b612858612870565b610da1816148f8565b6068546001600160a01b031681565b6067546001600160a01b031633146128b95760405162461bcd60e51b815260040180806020018281038252603b815260200180615b81603b913960400191505060405180910390fd5b565b6128c481612675565b156129cc576128d281613322565b60006128dd8261135f565b905060006128ea836127f2565b6001600160a01b03841660009081526071602052604090206001015490915061291390836139e0565b6001600160a01b038416600090815260716020526040902060018101919091555461293e90826139e0565b6001600160a01b03841660009081526071602052604090205561296083613eab565b61296c85858385614942565b6001600160a01b0383166000818152607160209081526040808320805460018201546002909201548351918252938101919091528082019290925260608201929092529051600080516020615b618339815191529181900360800190a250505b505050565b600082821115612a28576040805162461bcd60e51b815260206004820152601e60248201527f536166654d6174683a207375627472616374696f6e206f766572666c6f770000604482015290519081900360640190fd5b50900390565b607880546001808201835560008381527f8dc6fb69531d98d70dc0420e638d2dfd04e09e1ec783ede9aac77da9c5a0dac490920180546001600160a01b0319166001600160a01b03861617905591549091612a8991906129d1565b6001600160a01b039290921660009081526071602052604090206003018054610100600160881b0319166101006001600160801b038516021790555090565b6001600160a01b0381166000908152607160205260408120600101548190612aef90614a44565b6001600160a01b038416600090815260716020526040902060020180549082905560725491925090612b2d908390612b2790846129d1565b906139e0565b607281905560408051918252517f6bac5e0eb3c44eb03a60ab11ec3a2c051771616aecadbcfff2630aabae5203829181900360200190a15092915050565b600080612b7783613fbf565b6714d1120d7b160000119392505050565b612b906158ad565b612b9861593e565b612ba06158ad565b84825260006080830152612bb2611b23565b60a0830152612bbf611c44565b60c0830152600060208301525b835182602001511015612d9b5783826020015181518110612be957fe5b6020908102919091018101516001600160a01b03166060840181905260009081526071909152604090206003015460019060ff166004811115612c2857fe5b14612c3257612d8b565b612c408260600151876125c8565b60408301526080820151612d3357670f43fc2c04ee0000826040015110158015612c6957508151155b15612c7357612d8b565b6000612c888360c001518460a0015189614875565b9050612ca58989856060015186604001518760000151868d614a80565b60808101518451919350612cb991906129d1565b8352608082015160a0840151612cce916129d1565b8360a0018181525050612d038261010001516111b484604001516111b48660a001518860c001516129d190919063ffffffff16565b60c0840152612d128483614dbe565b9350612d278360c001518460a0015189614e9f565b15608084015250612d8b565b81608001518015612d4f5750670f43fc2c04ee00008260400151105b15612d8b57612d68888884606001518560000151614ec0565b60808101518351919250612d7c91906129d1565b8252612d888382614dbe565b92505b6020820180516001019052612bcc565b505095945050505050565b612dae6158ad565b612db661593e565b612dbe6158ad565b848252600060208301525b835182602001511015612d9b5783826020015181518110612de657fe5b60209081029190910101516001600160a01b031660608301819052612e0b90876125c8565b60408301819052670f43fc2c04ee00001115612e5857612e35888884606001518560000151614ec0565b60808101518351919250612e4991906129d1565b8252612e558382614dbe565b92505b6020820180516001019052612dc9565b81612e72576130ac565b607954600090612e8e90612b2784670de0b6b3a76400006133a9565b90506000612eb3607a54612b27670de0b6b3a7640000876133a990919063ffffffff16565b90506000612ecc6072548461340290919063ffffffff16565b90506000612ee56072548461340290919063ffffffff16565b9050612f06612eff607254846133a990919063ffffffff16565b85906129d1565b607955607254612f2290612f1b9083906133a9565b84906129d1565b607a55607554612f3290836139e0565b607555607654612f4290826139e0565b607681905560755460408051918252602082019290925281517f9f8bc8ab0daf5bceef75ecfd2085d1fcc6548c657ea970d9a23a60610d0737e3929181900390910190a1876001600160a01b0316632a7ba1f7876040518263ffffffff1660e01b815260040180828152602001915050600060405180830381600087803b158015612fcc57600080fd5b505af1158015612fe0573d6000803e3d6000fd5b50505050866001600160a01b0316632b7c7b11876040518263ffffffff1660e01b815260040180828152602001915050600060405180830381600087803b15801561302a57600080fd5b505af115801561303e573d6000803e3d6000fd5b50505050876001600160a01b0316628063a588876040518363ffffffff1660e01b815260040180836001600160a01b0316815260200182815260200192505050600060405180830381600087803b15801561309857600080fd5b505af1158015611b09573d6000803e3d6000fd5b50505050565b6072546073819055506000826001600160a01b031663c5c3937e6040518163ffffffff1660e01b815260040160206040518083038186803b1580156130f657600080fd5b505afa15801561310a573d6000803e3d6000fd5b505050506040513d602081101561312057600080fd5b5051600154604080516362e1c9bf60e11b815290519293506000926001600160a01b039092169163c5c3937e91600480820192602092909190829003018186803b15801561316d57600080fd5b505afa158015613181573d6000803e3d6000fd5b505050506040513d602081101561319757600080fd5b505190506131a981612b2784866129d1565b607481905560735460408051918252602082019290925281517f51bf4c63ec3cba9d03d43238abbdd979dd91bd16d9895c74ceea9118c7baaf60929181900390910190a150505050565b811561327257606b5460685460408051631062c15f60e11b81526001600160a01b039283166004820152868316602482015260448101869052905191909216916320c582be91606480830192600092919082900301818387803b15801561325957600080fd5b505af115801561326d573d6000803e3d6000fd5b505050505b80156130ac57836001600160a01b0316628063a584836040518363ffffffff1660e01b815260040180836001600160a01b0316815260200182815260200192505050600060405180830381600087803b1580156132ce57600080fd5b505af11580156132e2573d6000803e3d6000fd5b5050505050505050565b6000610df0613314836103e8670de0b6b3a76400005b046005026139e090919063ffffffff16565b670de0b6b3a764000061503a565b60016001600160a01b03821660009081526071602052604090206003015460ff16600481111561334e57fe5b14610da15760405162461bcd60e51b815260040180806020018281038252602f815260200180615cd2602f913960400191505060405180910390fd5b60006133a2670de0b6b3a764000061140385856133a9565b9392505050565b6000826133b857506000610df0565b828202828482816133c557fe5b04146133a25760405162461bcd60e51b8152600401808060200182810382526021815260200180615b206021913960400191505060405180910390fd5b6000808211613458576040805162461bcd60e51b815260206004820152601a60248201527f536166654d6174683a206469766973696f6e206279207a65726f000000000000604482015290519081900360640190fd5b81838161346157fe5b049392505050565b600080613474615050565b9050600061348a670ddd4b8c6c7d70d88361506c565b9050611c17670de0b6b3a764000061140383606f546133a990919063ffffffff16565b60006134c4607054426129d190919063ffffffff16565b9050603c8110610da15742607081905560408051918252517f860f8d2f0c74dd487e89e2883e3b25b8159ce1e1b3433a291cba7b82c508f3bc9181900360200190a150565b6135116158ad565b61351961593e565b6135216158ad565b84825260006080830152613533611b23565b60a0830152613540611c44565b8260c001818152505086608001516001600160a01b0316634d6228316040518163ffffffff1660e01b815260040160206040518083038186803b15801561358657600080fd5b505afa15801561359a573d6000803e3d6000fd5b505050506040513d60208110156135b057600080fd5b50516001600160a01b039081166060840152608088015160408051631e22314360e01b815290516000939290921691631e22314391600480820192602092909190829003018186803b15801561360557600080fd5b505afa158015613619573d6000803e3d6000fd5b505050506040513d602081101561362f57600080fd5b50516000602085015290505b8483602001511080156136645750806001600160a01b031683606001516001600160a01b031614155b1561387e57600088608001516001600160a01b031663b72703ac85606001516040518263ffffffff1660e01b815260040180826001600160a01b0316815260200191505060206040518083038186803b1580156136c057600080fd5b505afa1580156136d4573d6000803e3d6000fd5b505050506040513d60208110156136ea57600080fd5b505160608501519091506136fe90896125c8565b604085015260808401516137f657670f43fc2c04ee000084604001511015801561372757508351155b15613732575061387e565b60006137478560c001518660a001518b614875565b8a5160208c015160608801516040890151895194955061376894868f614a80565b6080810151865191955061377c91906129d1565b8552608084015160a0860151613791916129d1565b8560a00181815250506137c68461010001516111b486604001516111b48860a001518a60c001516129d190919063ffffffff16565b60c08601526137d58685614dbe565b95506137ea8560c001518660a001518b614e9f565b15608086015250613860565b836080015180156138125750670f43fc2c04ee00008460400151105b1561385a5761383389600001518a6020015186606001518760000151614ec0565b6080810151855191945061384791906129d1565b84526138538584614dbe565b9450613860565b5061387e565b6001600160a01b03166060840152602083018051600101905261363b565b505050949350505050565b6138916158ad565b61389961593e565b6138a16158ad565b606e54858352600060208401526001600160a01b03165b84836020015110156139a957806001600160a01b0316634d6228316040518163ffffffff1660e01b815260040160206040518083038186803b1580156138fd57600080fd5b505afa158015613911573d6000803e3d6000fd5b505050506040513d602081101561392757600080fd5b50516001600160a01b03166060840181905261394390886125c8565b60408401819052670f43fc2c04ee000011156139945761396d898985606001518660000151614ec0565b6080810151845191935061398191906129d1565b835261398d8483614dbe565b9350613999565b6139a9565b60208301805160010190526138b8565b50505095945050505050565b6000610df06139cf836103e8670de0b6b3a7640000613302565b66b1a2bc2ec5000061503a565b3390565b6000828201838110156133a2576040805162461bcd60e51b815260206004820152601b60248201527f536166654d6174683a206164646974696f6e206f766572666c6f770000000000604482015290519081900360640190fd5b6000613a453061510b565b15905090565b600254600160a81b900460ff1680613a665750613a66613a3a565b80613a7b5750600254600160a01b900460ff16155b613ab65760405162461bcd60e51b815260040180806020018281038252602e815260200180615a3a602e913960400191505060405180910390fd5b600254600160a81b900460ff16158015613aed576002805460ff60a01b1960ff60a81b19909116600160a81b1716600160a01b1790555b613af5615111565b613afd6151c8565b8015610da1576002805460ff60a81b1916905550565b613b1c8b6152c6565b613b258a6152c6565b613b2e896152c6565b613b37886152c6565b613b40876152c6565b613b49866152c6565b613b52856152c6565b613b5b846152c6565b613b64836152c6565b613b6d826152c6565b613b76816152c6565b606780546001600160a01b03199081166001600160a01b038e81169182179093556000805483168e85161790556001805483168d8516179055606a805483168c85161790556068805483168b85161790556069805483168a8516179055600280548316898516179055606b80548316888516179055606e80548316878516179055606c80548316868516179055606d805490921692841692909217905560408051918252517f3ca631ffcd2a9b5d9ae18543fc82f58eb4ca33af9e6ab01b7a8e95331e6ed985916020908290030190a1604080516001600160a01b038c16815290517f78f058b189175430c48dc02699e3a0031ea4ff781536dc2fab847de4babdd8829181900360200190a1604080516001600160a01b038b16815290517f5ee0cae2f063ed938bb55046f6a932fb6ae792bf43624806bb90abe68a50be9b9181900360200190a1604080516001600160a01b038a16815290517f82966d27eea39b038ee0fa30cd16532bb24f6e65d31cb58fb227aa5766cdcc7f9181900360200190a1604080516001600160a01b038916815290517fcfb07d791fcafc032b35837b50eb84b74df518cf4cc287e8084f47630fa70fa09181900360200190a1604080516001600160a01b038816815290517fe67f36a6e961157d6eff83b91f3af5a62131ceb6f04954ef74f51c1c05e7f88d9181900360200190a1604080516001600160a01b038716815290517f8c537274438aa850a330284665d81a85dd38267d09e4050d416bfc94142db2649181900360200190a1604080516001600160a01b038616815290517f112220fa8dbe96141556e0dc3d74dd95075b323f4f297616048e02d82d7017159181900360200190a1604080516001600160a01b038516815290517f65f4cf077bc01e4742eb5ad98326f6e95b63548ea24b17f8d5e823111fe788009181900360200190a1604080516001600160a01b038416815290517f7b0c6ae24561d189fc90b337cbc97aa15d085bef32931237a762e3e528b285b49181900360200190a1604080516001600160a01b038316815290517ff81a824d1d9030c0365252fb96daf0565f9c2007c88e13001379dda7f06d5d5c9181900360200190a15050505050505050505050565b607580546001600160a01b0383166000908152607760209081526040918290209283556076546001909301839055925481519081529283019190915280517fc437f324d85e369394148dd9d62f98f534b382e01ed3dd2eb98138fb6d3ab49a9281900390910190a150565b6000806000613f248461135f565b90506000613f31856127f2565b6001600160a01b03861660009081526071602052604081206001015491925090613f5b90846139e0565b6001600160a01b03871660009081526071602052604081205491925090613f8290846139e0565b919550909350505050915091565b60008115613fb657613faf826114038568056bc75e2d631000006133a9565b9050610df0565b50600019610df0565b600080613fca611c44565b90506000613fd6611b23565b9050613fe3828286614875565b949350505050565b6611c37937e08000811080159061400a5750670de0b6b3a76400008111155b610da15760405162461bcd60e51b8152600401808060200182810382526030815260200180615c566030913960400191505060405180910390fd5b6140727f0000000000000000000000000000000000000000000000000000000000000000621275006139e0565b4210156128b95760405162461bcd60e51b8152600401808060200182810382526040815260200180615ae06040913960400191505060405180910390fd5b670f43fc2c04ee00006140c282613fbf565b1015610da15760405162461bcd60e51b815260040180806020018281038252602a815260200180615c86602a913960400191505060405180910390fd5b60008111610da15760405162461bcd60e51b815260040180806020018281038252602e815260200180615bf2602e913960400191505060405180910390fd5b80836001600160a01b03166370a08231846040518263ffffffff1660e01b815260040180826001600160a01b0316815260200191505060206040518083038186803b15801561418c57600080fd5b505afa1580156141a0573d6000803e3d6000fd5b505050506040513d60208110156141b657600080fd5b505110156129cc5760405162461bcd60e51b815260040180806020018281038252604e815260200180615a68604e913960600191505060405180910390fd5b60006001600160a01b03831615806142835750836001600160a01b0316635dbe47e8846040518263ffffffff1660e01b815260040180826001600160a01b0316815260200191505060206040518083038186803b15801561425557600080fd5b505afa158015614269573d6000803e3d6000fd5b505050506040513d602081101561427f57600080fd5b5051155b8061429e5750670f43fc2c04ee000061429c84846125c8565b105b156142ab575060006133a2565b6000846001600160a01b031663765e0159856040518263ffffffff1660e01b815260040180826001600160a01b0316815260200191505060206040518083038186803b1580156142fa57600080fd5b505afa15801561430e573d6000803e3d6000fd5b505050506040513d602081101561432457600080fd5b505190506001600160a01b0381161580611d9d5750670f43fc2c04ee000061434c82856125c8565b1095945050505050565b61435e615986565b6001600160a01b0387166000908152607160205260409020546143ac9087906143a7907f00000000000000000000000000000000000000000000000000000000000000006129d1565b61503a565b8082526143c790869061140390670de0b6b3a76400006133a9565b60208083019190915281516001600160a01b0389166000908152607190925260408220546143f4916129d1565b6020808401516001600160a01b038b166000908152607190925260408220600101549293509091614424916129d1565b90507f00000000000000000000000000000000000000000000000000000000000000008214156144e857614457896148f8565b61446289600461475c565b61448e8a8a7f000000000000000000000000000000000000000000000000000000000000000084615321565b886001600160a01b0316600080516020615b6183398151915260008060006003604051808581526020018481526020018381526020018260038111156144d057fe5b815260200194505050505060405180910390a261463c565b60006144f48284613f90565b9050848114158061452c57507f000000000000000000000000000000000000000000000000000000000000000061452a846154c3565b105b15614540575050600160408301525061463f565b60808b01516040805163015f109360e51b81526001600160a01b038d81166004830152602482018590528a81166044830152898116606483015291519190921691632be2126091608480830192600092919082900301818387803b1580156145a757600080fd5b505af11580156145bb573d6000803e3d6000fd5b5050506001600160a01b038b166000908152607160205260409020848155600101839055506145e98a612ac8565b506001600160a01b038a1660008181526071602090815260409182902060020154825187815291820186905281830152600360608201529051600080516020615b618339815191529181900360800190a2505b50505b979650505050505050565b600080614655613469565b905060006146678461140388886133a9565b90506000614680614679836002613402565b84906139e0565b905061469481670de0b6b3a764000061503a565b9050600081116146a057fe5b606f8190556040805182815290517fc454ee9b76c52f782a256af821b857ca6e125d1e3333bcede402fec2bed9600c9181900360200190a16114096134ad565b6000610df061262a61128b565b60006147058361140386670de0b6b3a76400006133a9565b9050818111156130ac576040805162461bcd60e51b815260206004820152601d60248201527f4665652065786365656465642070726f7669646564206d6178696d756d000000604482015290519081900360640190fd5b600081600481111561476a57fe5b141580156147845750600181600481111561478157fe5b14155b61478a57fe5b607854614796816154ef565b6001600160a01b0383166000908152607160205260409020600301805483919060ff191660018360048111156147c857fe5b02179055506001600160a01b038316600090815260716020908152604080832060018082018590559084905560779092528220828155015561480a83826155a8565b606e5460408051631484968760e11b81526001600160a01b038681166004830152915191909216916329092d0e91602480830192600092919082900301818387803b15801561485857600080fd5b505af115801561486c573d6000803e3d6000fd5b50505050505050565b6000821561489657600061488d8461140387866133a9565b91506133a29050565b506000196133a2565b6000806148b8670de0b6b3a764000061140386866133a9565b90508281106133a25760405162461bcd60e51b8152600401808060200182810382526036815260200180615c206036913960400191505060405180910390fd5b6001600160a01b03811660009081526071602052604090206002015460725461492190826129d1565b607255506001600160a01b0316600090815260716020526040812060020155565b826001600160a01b0316632a7ba1f7836040518263ffffffff1660e01b815260040180828152602001915050600060405180830381600087803b15801561498857600080fd5b505af115801561499c573d6000803e3d6000fd5b50505050836001600160a01b0316632b7c7b11836040518263ffffffff1660e01b815260040180828152602001915050600060405180830381600087803b1580156149e657600080fd5b505af11580156149fa573d6000803e3d6000fd5b50505050826001600160a01b0316638f7be730826040518263ffffffff1660e01b815260040180828152602001915050600060405180830381600087803b1580156132ce57600080fd5b60008060745460001415614a59575081610df0565b600060735411614a6557fe5b6133a2607454611403607354866133a990919063ffffffff16565b614a886158ad565b614a906159a9565b607854600110614aa0575061463f565b614aa987611dc0565b60408501526020848101919091528401819052908352614ac89061574f565b604083018190527f000000000000000000000000000000000000000000000000000000000000000060608401526020830151614b03916129d1565b8152670de0b6b3a76400008611614c0557614b28898983602001518460400151614942565b614b31876148f8565b60006080830181905260a0830152815160c0830152805160e0830152614b5887600361475c565b866001600160a01b03166000805160206159cb83398151915283600001518460200151600260405180848152602001838152602001826003811115614b9957fe5b8152602001935050505060405180910390a2866001600160a01b0316600080516020615b618339815191526000806000600260405180858152602001848152602001838152602001826003811115614bed57fe5b815260200194505050505060405180910390a2614db2565b670de0b6b3a764000086118015614c235750670f43fc2c04ee000086105b15614c7357614c3c898983602001518460400151614942565b614c45876148f8565b81518151614c54919087615756565b60e086015260c085015260a08401526080830152614b5887600361475c565b670f43fc2c04ee00008610158015614c8a57508386105b8015614c97575081518510155b15614da157614cb0898983602001518460400151614942565b84614cb757fe5b614cc0876148f8565b614cd382600001518360200151856157b0565b9150614ce087600361475c565b61010082015115614d605760695461010083015160408051633f10abab60e01b81526001600160a01b038b81166004830152602482019390935290519190921691633f10abab91604480830192600092919082900301818387803b158015614d4757600080fd5b505af1158015614d5b573d6000803e3d6000fd5b505050505b866001600160a01b03166000805160206159cb83398151915283600001518460a00151600260405180848152602001838152602001826003811115614b9957fe5b614da96158ad565b915061463f9050565b50979650505050505050565b614dc66158ad565b60408083015190840151614dd9916139e0565b604082015260608083015190840151614df1916139e0565b606082015281516020840151614e06916139e0565b6020808301919091528201518351614e1d916139e0565b815260808083015190840151614e32916139e0565b608082015260a08083015190840151614e4a916139e0565b60a082015260c08083015190840151614e62916139e0565b60c082015260e08083015190840151614e7a916139e0565b60e08201526101008083015190840151614e93916139e0565b61010082015292915050565b600080614ead858585614875565b6714d1120d7b1600001195945050505050565b614ec86158ad565b614ed06159a9565b614ed984611dc0565b60408501908152602085810192835286019290925291845290519051614f03918891889190614942565b614f0c846148f8565b614f19826020015161574f565b604083018190527f000000000000000000000000000000000000000000000000000000000000000060608401526020830151600091614f5891906129d1565b9050614f6983600001518286615756565b60e087015260c086015260a08501526080840152614f8885600361475c565b846001600160a01b03166000805160206159cb83398151915284600001518560200151600160405180848152602001838152602001826003811115614fc957fe5b8152602001935050505060405180910390a2846001600160a01b0316600080516020615b61833981519152600080600060016040518085815260200184815260200183815260200182600381111561501d57fe5b815260200194505050505060405180910390a25050949350505050565b600081831061504957816133a2565b5090919050565b6000611298603c611403607054426129d190919063ffffffff16565b6000631f54050082111561508257631f54050091505b816150965750670de0b6b3a7640000610df0565b670de0b6b3a764000083835b600181111561510157600281066150d1576150bd828361584f565b91506150ca816002613402565b90506150fc565b6150db828461584f565b92506150e7828361584f565b91506150f960026114038360016129d1565b90505b6150a2565b611409828461584f565b3b151590565b600254600160a81b900460ff168061512c575061512c613a3a565b806151415750600254600160a01b900460ff16155b61517c5760405162461bcd60e51b815260040180806020018281038252602e815260200180615a3a602e913960400191505060405180910390fd5b600254600160a81b900460ff16158015613afd576002805460ff60a01b1960ff60a81b19909116600160a81b1716600160a01b1790558015610da1576002805460ff60a81b1916905550565b600254600160a81b900460ff16806151e357506151e3613a3a565b806151f85750600254600160a01b900460ff16155b6152335760405162461bcd60e51b815260040180806020018281038252602e815260200180615a3a602e913960400191505060405180910390fd5b600254600160a81b900460ff1615801561526a576002805460ff60a01b1960ff60a81b19909116600160a81b1716600160a01b1790555b60006152746139dc565b603580546001600160a01b0319166001600160a01b03831690811790915560405191925090600090600080516020615b41833981519152908290a3508015610da1576002805460ff60a81b1916905550565b6001600160a01b038116610da1576040805162461bcd60e51b815260206004820152601e60248201527f4163636f756e742063616e6e6f74206265207a65726f20616464726573730000604482015290519081900360640190fd5b6040808501516068548251632770a7eb60e21b81526001600160a01b039182166004820152602481018690529251911691639dc29fac91604480830192600092919082900301818387803b15801561537857600080fd5b505af115801561538c573d6000803e3d6000fd5b5050505083600001516001600160a01b0316632a7ba1f7836040518263ffffffff1660e01b815260040180828152602001915050600060405180830381600087803b1580156153da57600080fd5b505af11580156153ee573d6000803e3d6000fd5b505050508360a001516001600160a01b0316633f10abab84836040518363ffffffff1660e01b815260040180836001600160a01b0316815260200182815260200192505050600060405180830381600087803b15801561544d57600080fd5b505af1158015615461573d6000803e3d6000fd5b5050505083600001516001600160a01b0316628063a58560a00151836040518363ffffffff1660e01b815260040180836001600160a01b0316815260200182815260200192505050600060405180830381600087803b1580156132ce57600080fd5b6000610df0827f00000000000000000000000000000000000000000000000000000000000000006129d1565b60018111801561556d5750606e546040805163de8fa43160e01b815290516001926001600160a01b03169163de8fa431916004808301926020929190829003018186803b15801561553f57600080fd5b505afa158015615553573d6000803e3d6000fd5b505050506040513d602081101561556957600080fd5b5051115b610da15760405162461bcd60e51b815260040180806020018281038252602a815260200180615ab6602a913960400191505060405180910390fd5b6001600160a01b03821660009081526071602052604081206003015460ff16908160048111156155d457fe5b141580156155ee575060018160048111156155eb57fe5b14155b6155f457fe5b6001600160a01b03831660009081526071602052604081206003015461010090046001600160801b031690839061562c8260016129d1565b905080836001600160801b0316111561564157fe5b60006078828154811061565057fe5b600091825260209091200154607880546001600160a01b03909216925082916001600160801b03871690811061568257fe5b600091825260208083209190910180546001600160a01b0319166001600160a01b03948516179055918316808252607183526040918290206003018054610100600160881b0319166101006001600160801b038a169081029190911790915582519182529281019290925280517f02b04ae5f7be9ca7c103293a2aa15f3c339d15d6eda53b721fef7b0e609c831a9281900390910190a1607880548061572457fe5b600082815260209020810160001990810180546001600160a01b031916905501905550505050505050565b60c8900490565b6000808080841561579a5761576b878661503a565b935061577b8761140388876133a9565b925061578787856129d1565b915061579386846129d1565b90506157a7565b5060009250829150859050845b93509350935093565b6157b86158ad565b8381526020810183905260006157da8361140387670f43fc2c04ee00006133a9565b90506157e58161574f565b604083018190527f00000000000000000000000000000000000000000000000000000000000000006060840152608083018690526158249082906129d1565b60a083015261583384826129d1565b61010083015250600060c0820181905260e08201529392505050565b60008061585c84846133a9565b9050613fe3670de0b6b3a7640000611403836706f05b59d3b200006139e0565b6040518060a00160405280600081526020016000815260200160001515815260200160008152602001600081525090565b6040518061012001604052806000815260200160008152602001600081526020016000815260200160008152602001600081526020016000815260200160008152602001600081525090565b60405180610100016040528060008152602001600081526020016000815260200160008152602001600081526020016000815260200160008152602001600081525090565b6040518060e0016040528060008152602001600081526020016000815260200160006001600160a01b0316815260200160001515815260200160008152602001600081525090565b604051806060016040528060008152602001600081526020016000151581525090565b6040518060600160405280600081526020016000815260200160008152509056feea67486ed7ebe3eea8ab3390efd4a3c8aae48be5bea27df104a8af786c4084344f776e61626c653a206e6577206f776e657220697320746865207a65726f206164647265737354726f76654d616e616765723a20556e61626c6520746f2072656465656d20616e7920616d6f756e74496e697469616c697a61626c653a20636f6e747261637420697320616c726561647920696e697469616c697a656454726f76654d616e616765723a2052657175657374656420726564656d7074696f6e20616d6f756e74206d757374206265203c3d20757365722773206465627420746f6b656e2062616c616e636554726f76654d616e616765723a204f6e6c79206f6e652074726f766520696e207468652073797374656d54726f76654d616e616765723a20526564656d7074696f6e7320617265206e6f7420616c6c6f77656420647572696e6720626f6f747374726170207068617365536166654d6174683a206d756c7469706c69636174696f6e206f766572666c6f778be0079c531659141344cd1fd0a4f28419497f9722a3daafe3b4186f6b6457e0c3770d654ed33aeea6bf11ac8ef05d02a6a04ed4686dd2f624d853bbec43cc8b54726f76654d616e616765723a2043616c6c6572206973206e6f742074686520426f72726f7765724f7065726174696f6e7320636f6e747261637454726f76654d616e616765723a2043616c6c646174612061646472657373206172726179206d757374206e6f7420626520656d70747954726f76654d616e616765723a20416d6f756e74206d7573742062652067726561746572207468616e207a65726f54726f76654d616e616765723a2046656520776f756c642065617420757020616c6c2072657475726e656420636f6c6c61746572616c4d6178206665652070657263656e74616765206d757374206265206265747765656e20302e352520616e64203130302554726f76654d616e616765723a2043616e6e6f742072656465656d207768656e20544352203c204d435254726f76654d616e616765723a206e6f7468696e6720746f206c697175696461746554726f76654d616e616765723a2054726f766520646f6573206e6f74206578697374206f7220697320636c6f736564a26469706673582212205173511855974eb905c8c6fed8f7aa742103854d39fb75c0a62b4801aade574b64736f6c63430007060033",
  "linkReferences": {},
  "deployedLinkReferences": {}
}