{
  "_format": "hh-sol-artifact-1",
  "contractName": "TroveManagerTester",
  "sourceName": "contracts/TestContracts/CDPManagerTester.sol",
  "abi": [
    {
      "inputs": [
        {
          "internalType": "uint256",
          "name": "_gasCompensation",
          "type": "uint256"
        },
        {
          "internalType": "uint256",
          "name": "_minNetDebt",
          "type": "uint256"
        },
        {
          "internalType": "uint256",
          "name": "_bootstrapPeriod",
          "type": "uint256"
        }
      ],
      "stateMutability": "nonpayable",
      "type": "constructor"
    },
    {
      "anonymous": false,
      "inputs": [
        {
          "indexed": false,
          "internalType": "address",
          "name": "_activePoolAddress",
          "type": "address"
        }
      ],
      "name": "ActivePoolAddressChanged",
      "type": "event"
    },
    {
      "anonymous": false,
      "inputs": [
        {
          "indexed": false,
          "internalType": "uint256",
          "name": "_baseRate",
          "type": "uint256"
        }
      ],
      "name": "BaseRateUpdated",
      "type": "event"
    },
    {
      "anonymous": false,
      "inputs": [
        {
          "indexed": false,
          "internalType": "address",
          "name": "_newBorrowerOperationsAddress",
          "type": "address"
        }
      ],
      "name": "BorrowerOperationsAddressChanged",
      "type": "event"
    },
    {
      "anonymous": false,
      "inputs": [
        {
          "indexed": false,
          "internalType": "address",
          "name": "_collSurplusPoolAddress",
          "type": "address"
        }
      ],
      "name": "CollSurplusPoolAddressChanged",
      "type": "event"
    },
    {
      "anonymous": false,
      "inputs": [
        {
          "indexed": false,
          "internalType": "address",
          "name": "_newDebtTokenAddress",
          "type": "address"
        }
      ],
      "name": "DebtTokenAddressChanged",
      "type": "event"
    },
    {
      "anonymous": false,
      "inputs": [
        {
          "indexed": false,
          "internalType": "address",
          "name": "_defaultPoolAddress",
          "type": "address"
        }
      ],
      "name": "DefaultPoolAddressChanged",
      "type": "event"
    },
    {
      "anonymous": false,
      "inputs": [
        {
          "indexed": false,
          "internalType": "address",
          "name": "_gasPoolAddress",
          "type": "address"
        }
      ],
      "name": "GasPoolAddressChanged",
      "type": "event"
    },
    {
      "anonymous": false,
      "inputs": [
        {
          "indexed": false,
          "internalType": "uint256",
          "name": "_L_FIL",
          "type": "uint256"
        },
        {
          "indexed": false,
          "internalType": "uint256",
          "name": "_L_Debt",
          "type": "uint256"
        }
      ],
      "name": "LTermsUpdated",
      "type": "event"
    },
    {
      "anonymous": false,
      "inputs": [
        {
          "indexed": false,
          "internalType": "uint256",
          "name": "_lastFeeOpTime",
          "type": "uint256"
        }
      ],
      "name": "LastFeeOpTimeUpdated",
      "type": "event"
    },
    {
      "anonymous": false,
      "inputs": [
        {
          "indexed": false,
          "internalType": "uint256",
          "name": "_liquidatedDebt",
          "type": "uint256"
        },
        {
          "indexed": false,
          "internalType": "uint256",
          "name": "_liquidatedColl",
          "type": "uint256"
        },
        {
          "indexed": false,
          "internalType": "uint256",
          "name": "_collGasCompensation",
          "type": "uint256"
        },
        {
          "indexed": false,
          "internalType": "uint256",
          "name": "_debtGasCompensation",
          "type": "uint256"
        }
      ],
      "name": "Liquidation",
      "type": "event"
    },
    {
      "anonymous": false,
      "inputs": [
        {
          "indexed": true,
          "internalType": "address",
          "name": "previousOwner",
          "type": "address"
        },
        {
          "indexed": true,
          "internalType": "address",
          "name": "newOwner",
          "type": "address"
        }
      ],
      "name": "OwnershipTransferred",
      "type": "event"
    },
    {
      "anonymous": false,
      "inputs": [
        {
          "indexed": false,
          "internalType": "address",
          "name": "_newPriceFeedAddress",
          "type": "address"
        }
      ],
      "name": "PriceFeedAddressChanged",
      "type": "event"
    },
    {
      "anonymous": false,
      "inputs": [
        {
          "indexed": false,
          "internalType": "address",
          "name": "_protocolTokenAddress",
          "type": "address"
        }
      ],
      "name": "ProtocolTokenAddressChanged",
      "type": "event"
    },
    {
      "anonymous": false,
      "inputs": [
        {
          "indexed": false,
          "internalType": "address",
          "name": "_protocolTokenStakingAddress",
          "type": "address"
        }
      ],
      "name": "ProtocolTokenStakingAddressChanged",
      "type": "event"
    },
    {
      "anonymous": false,
      "inputs": [
        {
          "indexed": false,
          "internalType": "uint256",
          "name": "_attemptedDebtTokenAmount",
          "type": "uint256"
        },
        {
          "indexed": false,
          "internalType": "uint256",
          "name": "_actualDebtTokenAmount",
          "type": "uint256"
        },
        {
          "indexed": false,
          "internalType": "uint256",
          "name": "_FILSent",
          "type": "uint256"
        },
        {
          "indexed": false,
          "internalType": "uint256",
          "name": "_FILFee",
          "type": "uint256"
        }
      ],
      "name": "Redemption",
      "type": "event"
    },
    {
      "anonymous": false,
      "inputs": [
        {
          "indexed": false,
          "internalType": "address",
          "name": "_sortedTrovesAddress",
          "type": "address"
        }
      ],
      "name": "SortedTrovesAddressChanged",
      "type": "event"
    },
    {
      "anonymous": false,
      "inputs": [
        {
          "indexed": false,
          "internalType": "address",
          "name": "_stabilityPoolAddress",
          "type": "address"
        }
      ],
      "name": "StabilityPoolAddressChanged",
      "type": "event"
    },
    {
      "anonymous": false,
      "inputs": [
        {
          "indexed": false,
          "internalType": "uint256",
          "name": "_totalStakesSnapshot",
          "type": "uint256"
        },
        {
          "indexed": false,
          "internalType": "uint256",
          "name": "_totalCollateralSnapshot",
          "type": "uint256"
        }
      ],
      "name": "SystemSnapshotsUpdated",
      "type": "event"
    },
    {
      "anonymous": false,
      "inputs": [
        {
          "indexed": false,
          "internalType": "uint256",
          "name": "_newTotalStakes",
          "type": "uint256"
        }
      ],
      "name": "TotalStakesUpdated",
      "type": "event"
    },
    {
      "anonymous": false,
      "inputs": [
        {
          "indexed": false,
          "internalType": "address",
          "name": "_borrower",
          "type": "address"
        },
        {
          "indexed": false,
          "internalType": "uint256",
          "name": "_newIndex",
          "type": "uint256"
        }
      ],
      "name": "TroveIndexUpdated",
      "type": "event"
    },
    {
      "anonymous": false,
      "inputs": [
        {
          "indexed": true,
          "internalType": "address",
          "name": "_borrower",
          "type": "address"
        },
        {
          "indexed": false,
          "internalType": "uint256",
          "name": "_debt",
          "type": "uint256"
        },
        {
          "indexed": false,
          "internalType": "uint256",
          "name": "_coll",
          "type": "uint256"
        },
        {
          "indexed": false,
          "internalType": "enum ITroveManager.TroveManagerOperation",
          "name": "_operation",
          "type": "uint8"
        }
      ],
      "name": "TroveLiquidated",
      "type": "event"
    },
    {
      "anonymous": false,
      "inputs": [
        {
          "indexed": false,
          "internalType": "uint256",
          "name": "_L_FIL",
          "type": "uint256"
        },
        {
          "indexed": false,
          "internalType": "uint256",
          "name": "_L_Debt",
          "type": "uint256"
        }
      ],
      "name": "TroveSnapshotsUpdated",
      "type": "event"
    },
    {
      "anonymous": false,
      "inputs": [
        {
          "indexed": true,
          "internalType": "address",
          "name": "_borrower",
          "type": "address"
        },
        {
          "indexed": false,
          "internalType": "uint256",
          "name": "_debt",
          "type": "uint256"
        },
        {
          "indexed": false,
          "internalType": "uint256",
          "name": "_coll",
          "type": "uint256"
        },
        {
          "indexed": false,
          "internalType": "uint256",
          "name": "stake",
          "type": "uint256"
        },
        {
          "indexed": false,
          "internalType": "enum ITroveManager.TroveManagerOperation",
          "name": "_operation",
          "type": "uint8"
        }
      ],
      "name": "TroveUpdated",
      "type": "event"
    },
    {
      "inputs": [],
      "name": "BETA",
      "outputs": [
        {
          "internalType": "uint256",
          "name": "",
          "type": "uint256"
        }
      ],
      "stateMutability": "view",
      "type": "function"
    },
    {
      "inputs": [],
      "name": "BOOTSTRAP_PERIOD",
      "outputs": [
        {
          "internalType": "uint256",
          "name": "",
          "type": "uint256"
        }
      ],
      "stateMutability": "view",
      "type": "function"
    },
    {
      "inputs": [],
      "name": "BORROWING_FEE_FLOOR",
      "outputs": [
        {
          "internalType": "uint256",
          "name": "",
          "type": "uint256"
        }
      ],
      "stateMutability": "view",
      "type": "function"
    },
    {
      "inputs": [],
      "name": "CCR",
      "outputs": [
        {
          "internalType": "uint256",
          "name": "",
          "type": "uint256"
        }
      ],
      "stateMutability": "view",
      "type": "function"
    },
    {
      "inputs": [],
      "name": "DECIMAL_PRECISION",
      "outputs": [
        {
          "internalType": "uint256",
          "name": "",
          "type": "uint256"
        }
      ],
      "stateMutability": "view",
      "type": "function"
    },
    {
      "inputs": [],
      "name": "GAS_COMPENSATION",
      "outputs": [
        {
          "internalType": "uint256",
          "name": "",
          "type": "uint256"
        }
      ],
      "stateMutability": "view",
      "type": "function"
    },
    {
      "inputs": [],
      "name": "L_Debt",
      "outputs": [
        {
          "internalType": "uint256",
          "name": "",
          "type": "uint256"
        }
      ],
      "stateMutability": "view",
      "type": "function"
    },
    {
      "inputs": [],
      "name": "L_FIL",
      "outputs": [
        {
          "internalType": "uint256",
          "name": "",
          "type": "uint256"
        }
      ],
      "stateMutability": "view",
      "type": "function"
    },
    {
      "inputs": [],
      "name": "MAX_BORROWING_FEE",
      "outputs": [
        {
          "internalType": "uint256",
          "name": "",
          "type": "uint256"
        }
      ],
      "stateMutability": "view",
      "type": "function"
    },
    {
      "inputs": [],
      "name": "MCR",
      "outputs": [
        {
          "internalType": "uint256",
          "name": "",
          "type": "uint256"
        }
      ],
      "stateMutability": "view",
      "type": "function"
    },
    {
      "inputs": [],
      "name": "MINUTE_DECAY_FACTOR",
      "outputs": [
        {
          "internalType": "uint256",
          "name": "",
          "type": "uint256"
        }
      ],
      "stateMutability": "view",
      "type": "function"
    },
    {
      "inputs": [],
      "name": "MIN_NET_DEBT",
      "outputs": [
        {
          "internalType": "uint256",
          "name": "",
          "type": "uint256"
        }
      ],
      "stateMutability": "view",
      "type": "function"
    },
    {
      "inputs": [],
      "name": "NAME",
      "outputs": [
        {
          "internalType": "string",
          "name": "",
          "type": "string"
        }
      ],
      "stateMutability": "view",
      "type": "function"
    },
    {
      "inputs": [],
      "name": "PERCENT_DIVISOR",
      "outputs": [
        {
          "internalType": "uint256",
          "name": "",
          "type": "uint256"
        }
      ],
      "stateMutability": "view",
      "type": "function"
    },
    {
      "inputs": [],
      "name": "REDEMPTION_FEE_FLOOR",
      "outputs": [
        {
          "internalType": "uint256",
          "name": "",
          "type": "uint256"
        }
      ],
      "stateMutability": "view",
      "type": "function"
    },
    {
      "inputs": [],
      "name": "SECONDS_IN_ONE_MINUTE",
      "outputs": [
        {
          "internalType": "uint256",
          "name": "",
          "type": "uint256"
        }
      ],
      "stateMutability": "view",
      "type": "function"
    },
    {
      "inputs": [
        {
          "internalType": "uint256",
          "name": "",
          "type": "uint256"
        }
      ],
      "name": "TroveOwners",
      "outputs": [
        {
          "internalType": "address",
          "name": "",
          "type": "address"
        }
      ],
      "stateMutability": "view",
      "type": "function"
    },
    {
      "inputs": [
        {
          "internalType": "address",
          "name": "",
          "type": "address"
        }
      ],
      "name": "Troves",
      "outputs": [
        {
          "internalType": "uint256",
          "name": "debt",
          "type": "uint256"
        },
        {
          "internalType": "uint256",
          "name": "coll",
          "type": "uint256"
        },
        {
          "internalType": "uint256",
          "name": "stake",
          "type": "uint256"
        },
        {
          "internalType": "enum ITroveManager.Status",
          "name": "status",
          "type": "uint8"
        },
        {
          "internalType": "uint128",
          "name": "arrayIndex",
          "type": "uint128"
        }
      ],
      "stateMutability": "view",
      "type": "function"
    },
    {
      "inputs": [],
      "name": "_100pct",
      "outputs": [
        {
          "internalType": "uint256",
          "name": "",
          "type": "uint256"
        }
      ],
      "stateMutability": "view",
      "type": "function"
    },
    {
      "inputs": [],
      "name": "activePool",
      "outputs": [
        {
          "internalType": "contract IActivePool",
          "name": "",
          "type": "address"
        }
      ],
      "stateMutability": "view",
      "type": "function"
    },
    {
      "inputs": [
        {
          "internalType": "address",
          "name": "_borrower",
          "type": "address"
        }
      ],
      "name": "addTroveOwnerToArray",
      "outputs": [
        {
          "internalType": "uint256",
          "name": "index",
          "type": "uint256"
        }
      ],
      "stateMutability": "nonpayable",
      "type": "function"
    },
    {
      "inputs": [
        {
          "internalType": "address",
          "name": "_borrower",
          "type": "address"
        }
      ],
      "name": "applyPendingRewards",
      "outputs": [],
      "stateMutability": "nonpayable",
      "type": "function"
    },
    {
      "inputs": [],
      "name": "baseRate",
      "outputs": [
        {
          "internalType": "uint256",
          "name": "",
          "type": "uint256"
        }
      ],
      "stateMutability": "view",
      "type": "function"
    },
    {
      "inputs": [
        {
          "internalType": "address[]",
          "name": "_troveArray",
          "type": "address[]"
        }
      ],
      "name": "batchLiquidateTroves",
      "outputs": [],
      "stateMutability": "nonpayable",
      "type": "function"
    },
    {
      "inputs": [],
      "name": "borrowerOperationsAddress",
      "outputs": [
        {
          "internalType": "address",
          "name": "",
          "type": "address"
        }
      ],
      "stateMutability": "view",
      "type": "function"
    },
    {
      "inputs": [
        {
          "internalType": "uint256",
          "name": "_FILDrawn",
          "type": "uint256"
        }
      ],
      "name": "callGetRedemptionFee",
      "outputs": [
        {
          "internalType": "uint256",
          "name": "",
          "type": "uint256"
        }
      ],
      "stateMutability": "view",
      "type": "function"
    },
    {
      "inputs": [
        {
          "internalType": "address",
          "name": "_troveOwner",
          "type": "address"
        }
      ],
      "name": "callInternalRemoveTroveOwner",
      "outputs": [],
      "stateMutability": "nonpayable",
      "type": "function"
    },
    {
      "inputs": [
        {
          "internalType": "uint256",
          "name": "_price",
          "type": "uint256"
        }
      ],
      "name": "checkRecoveryMode",
      "outputs": [
        {
          "internalType": "bool",
          "name": "",
          "type": "bool"
        }
      ],
      "stateMutability": "view",
      "type": "function"
    },
    {
      "inputs": [
        {
          "internalType": "address",
          "name": "_borrower",
          "type": "address"
        }
      ],
      "name": "closeTrove",
      "outputs": [],
      "stateMutability": "nonpayable",
      "type": "function"
    },
    {
      "inputs": [],
      "name": "collSurplusPool",
      "outputs": [
        {
          "internalType": "contract ICollSurplusPool",
          "name": "",
          "type": "address"
        }
      ],
      "stateMutability": "view",
      "type": "function"
    },
    {
      "inputs": [
        {
          "internalType": "uint256",
          "name": "_coll",
          "type": "uint256"
        },
        {
          "internalType": "uint256",
          "name": "_debt",
          "type": "uint256"
        },
        {
          "internalType": "uint256",
          "name": "_price",
          "type": "uint256"
        }
      ],
      "name": "computeICR",
      "outputs": [
        {
          "internalType": "uint256",
          "name": "",
          "type": "uint256"
        }
      ],
      "stateMutability": "pure",
      "type": "function"
    },
    {
      "inputs": [],
      "name": "debtToken",
      "outputs": [
        {
          "internalType": "contract IDebtToken",
          "name": "",
          "type": "address"
        }
      ],
      "stateMutability": "view",
      "type": "function"
    },
    {
      "inputs": [],
      "name": "decayBaseRateFromBorrowing",
      "outputs": [],
      "stateMutability": "nonpayable",
      "type": "function"
    },
    {
      "inputs": [
        {
          "internalType": "address",
          "name": "_borrower",
          "type": "address"
        },
        {
          "internalType": "uint256",
          "name": "_collDecrease",
          "type": "uint256"
        }
      ],
      "name": "decreaseTroveColl",
      "outputs": [
        {
          "internalType": "uint256",
          "name": "",
          "type": "uint256"
        }
      ],
      "stateMutability": "nonpayable",
      "type": "function"
    },
    {
      "inputs": [
        {
          "internalType": "address",
          "name": "_borrower",
          "type": "address"
        },
        {
          "internalType": "uint256",
          "name": "_debtDecrease",
          "type": "uint256"
        }
      ],
      "name": "decreaseTroveDebt",
      "outputs": [
        {
          "internalType": "uint256",
          "name": "",
          "type": "uint256"
        }
      ],
      "stateMutability": "nonpayable",
      "type": "function"
    },
    {
      "inputs": [],
      "name": "defaultPool",
      "outputs": [
        {
          "internalType": "contract IDefaultPool",
          "name": "",
          "type": "address"
        }
      ],
      "stateMutability": "view",
      "type": "function"
    },
    {
      "inputs": [],
      "name": "deploymentStartTime",
      "outputs": [
        {
          "internalType": "uint256",
          "name": "",
          "type": "uint256"
        }
      ],
      "stateMutability": "view",
      "type": "function"
    },
    {
      "inputs": [],
      "name": "gasPoolAddress",
      "outputs": [
        {
          "internalType": "address",
          "name": "",
          "type": "address"
        }
      ],
      "stateMutability": "view",
      "type": "function"
    },
    {
      "inputs": [
        {
          "internalType": "uint256",
          "name": "_debtVal",
          "type": "uint256"
        }
      ],
      "name": "getActualDebtFromComposite",
      "outputs": [
        {
          "internalType": "uint256",
          "name": "",
          "type": "uint256"
        }
      ],
      "stateMutability": "view",
      "type": "function"
    },
    {
      "inputs": [
        {
          "internalType": "uint256",
          "name": "_debt",
          "type": "uint256"
        }
      ],
      "name": "getBorrowingFee",
      "outputs": [
        {
          "internalType": "uint256",
          "name": "",
          "type": "uint256"
        }
      ],
      "stateMutability": "view",
      "type": "function"
    },
    {
      "inputs": [
        {
          "internalType": "uint256",
          "name": "_debt",
          "type": "uint256"
        }
      ],
      "name": "getBorrowingFeeWithDecay",
      "outputs": [
        {
          "internalType": "uint256",
          "name": "",
          "type": "uint256"
        }
      ],
      "stateMutability": "view",
      "type": "function"
    },
    {
      "inputs": [],
      "name": "getBorrowingRate",
      "outputs": [
        {
          "internalType": "uint256",
          "name": "",
          "type": "uint256"
        }
      ],
      "stateMutability": "view",
      "type": "function"
    },
    {
      "inputs": [],
      "name": "getBorrowingRateWithDecay",
      "outputs": [
        {
          "internalType": "uint256",
          "name": "",
          "type": "uint256"
        }
      ],
      "stateMutability": "view",
      "type": "function"
    },
    {
      "inputs": [
        {
          "internalType": "uint256",
          "name": "_coll",
          "type": "uint256"
        }
      ],
      "name": "getCollGasCompensation",
      "outputs": [
        {
          "internalType": "uint256",
          "name": "",
          "type": "uint256"
        }
      ],
      "stateMutability": "pure",
      "type": "function"
    },
    {
      "inputs": [
        {
          "internalType": "uint256",
          "name": "_debt",
          "type": "uint256"
        }
      ],
      "name": "getCompositeDebt",
      "outputs": [
        {
          "internalType": "uint256",
          "name": "",
          "type": "uint256"
        }
      ],
      "stateMutability": "view",
      "type": "function"
    },
    {
      "inputs": [
        {
          "internalType": "address",
          "name": "_borrower",
          "type": "address"
        },
        {
          "internalType": "uint256",
          "name": "_price",
          "type": "uint256"
        }
      ],
      "name": "getCurrentICR",
      "outputs": [
        {
          "internalType": "uint256",
          "name": "",
          "type": "uint256"
        }
      ],
      "stateMutability": "view",
      "type": "function"
    },
    {
      "inputs": [
        {
          "internalType": "address",
          "name": "_borrower",
          "type": "address"
        }
      ],
      "name": "getEntireDebtAndColl",
      "outputs": [
        {
          "internalType": "uint256",
          "name": "debt",
          "type": "uint256"
        },
        {
          "internalType": "uint256",
          "name": "coll",
          "type": "uint256"
        },
        {
          "internalType": "uint256",
          "name": "pendingDebtReward",
          "type": "uint256"
        },
        {
          "internalType": "uint256",
          "name": "pendingFILReward",
          "type": "uint256"
        }
      ],
      "stateMutability": "view",
      "type": "function"
    },
    {
      "inputs": [],
      "name": "getEntireSystemColl",
      "outputs": [
        {
          "internalType": "uint256",
          "name": "entireSystemColl",
          "type": "uint256"
        }
      ],
      "stateMutability": "view",
      "type": "function"
    },
    {
      "inputs": [],
      "name": "getEntireSystemDebt",
      "outputs": [
        {
          "internalType": "uint256",
          "name": "entireSystemDebt",
          "type": "uint256"
        }
      ],
      "stateMutability": "view",
      "type": "function"
    },
    {
      "inputs": [],
      "name": "getGasCompensation",
      "outputs": [
        {
          "internalType": "uint256",
          "name": "",
          "type": "uint256"
        }
      ],
      "stateMutability": "view",
      "type": "function"
    },
    {
      "inputs": [
        {
          "internalType": "address",
          "name": "_borrower",
          "type": "address"
        }
      ],
      "name": "getNominalICR",
      "outputs": [
        {
          "internalType": "uint256",
          "name": "",
          "type": "uint256"
        }
      ],
      "stateMutability": "view",
      "type": "function"
    },
    {
      "inputs": [
        {
          "internalType": "address",
          "name": "_borrower",
          "type": "address"
        }
      ],
      "name": "getPendingDebtReward",
      "outputs": [
        {
          "internalType": "uint256",
          "name": "",
          "type": "uint256"
        }
      ],
      "stateMutability": "view",
      "type": "function"
    },
    {
      "inputs": [
        {
          "internalType": "address",
          "name": "_borrower",
          "type": "address"
        }
      ],
      "name": "getPendingFILReward",
      "outputs": [
        {
          "internalType": "uint256",
          "name": "",
          "type": "uint256"
        }
      ],
      "stateMutability": "view",
      "type": "function"
    },
    {
      "inputs": [
        {
          "internalType": "uint256",
          "name": "_FILDrawn",
          "type": "uint256"
        }
      ],
      "name": "getRedemptionFeeWithDecay",
      "outputs": [
        {
          "internalType": "uint256",
          "name": "",
          "type": "uint256"
        }
      ],
      "stateMutability": "view",
      "type": "function"
    },
    {
      "inputs": [],
      "name": "getRedemptionRate",
      "outputs": [
        {
          "internalType": "uint256",
          "name": "",
          "type": "uint256"
        }
      ],
      "stateMutability": "view",
      "type": "function"
    },
    {
      "inputs": [],
      "name": "getRedemptionRateWithDecay",
      "outputs": [
        {
          "internalType": "uint256",
          "name": "",
          "type": "uint256"
        }
      ],
      "stateMutability": "view",
      "type": "function"
    },
    {
      "inputs": [
        {
          "internalType": "uint256",
          "name": "_price",
          "type": "uint256"
        }
      ],
      "name": "getTCR",
      "outputs": [
        {
          "internalType": "uint256",
          "name": "",
          "type": "uint256"
        }
      ],
      "stateMutability": "view",
      "type": "function"
    },
    {
      "inputs": [
        {
          "internalType": "address",
          "name": "_borrower",
          "type": "address"
        }
      ],
      "name": "getTroveColl",
      "outputs": [
        {
          "internalType": "uint256",
          "name": "",
          "type": "uint256"
        }
      ],
      "stateMutability": "view",
      "type": "function"
    },
    {
      "inputs": [
        {
          "internalType": "address",
          "name": "_borrower",
          "type": "address"
        }
      ],
      "name": "getTroveDebt",
      "outputs": [
        {
          "internalType": "uint256",
          "name": "",
          "type": "uint256"
        }
      ],
      "stateMutability": "view",
      "type": "function"
    },
    {
      "inputs": [
        {
          "internalType": "uint256",
          "name": "_index",
          "type": "uint256"
        }
      ],
      "name": "getTroveFromTroveOwnersArray",
      "outputs": [
        {
          "internalType": "address",
          "name": "",
          "type": "address"
        }
      ],
      "stateMutability": "view",
      "type": "function"
    },
    {
      "inputs": [],
      "name": "getTroveOwnersCount",
      "outputs": [
        {
          "internalType": "uint256",
          "name": "",
          "type": "uint256"
        }
      ],
      "stateMutability": "view",
      "type": "function"
    },
    {
      "inputs": [
        {
          "internalType": "address",
          "name": "_borrower",
          "type": "address"
        }
      ],
      "name": "getTroveStake",
      "outputs": [
        {
          "internalType": "uint256",
          "name": "",
          "type": "uint256"
        }
      ],
      "stateMutability": "view",
      "type": "function"
    },
    {
      "inputs": [
        {
          "internalType": "address",
          "name": "_borrower",
          "type": "address"
        }
      ],
      "name": "getTroveStatus",
      "outputs": [
        {
          "internalType": "uint256",
          "name": "",
          "type": "uint256"
        }
      ],
      "stateMutability": "view",
      "type": "function"
    },
    {
      "inputs": [
        {
          "internalType": "address",
          "name": "_borrower",
          "type": "address"
        }
      ],
      "name": "hasPendingRewards",
      "outputs": [
        {
          "internalType": "bool",
          "name": "",
          "type": "bool"
        }
      ],
      "stateMutability": "view",
      "type": "function"
    },
    {
      "inputs": [
        {
          "internalType": "address",
          "name": "_borrower",
          "type": "address"
        },
        {
          "internalType": "uint256",
          "name": "_collIncrease",
          "type": "uint256"
        }
      ],
      "name": "increaseTroveColl",
      "outputs": [
        {
          "internalType": "uint256",
          "name": "",
          "type": "uint256"
        }
      ],
      "stateMutability": "nonpayable",
      "type": "function"
    },
    {
      "inputs": [
        {
          "internalType": "address",
          "name": "_borrower",
          "type": "address"
        },
        {
          "internalType": "uint256",
          "name": "_debtIncrease",
          "type": "uint256"
        }
      ],
      "name": "increaseTroveDebt",
      "outputs": [
        {
          "internalType": "uint256",
          "name": "",
          "type": "uint256"
        }
      ],
      "stateMutability": "nonpayable",
      "type": "function"
    },
    {
      "inputs": [
        {
          "internalType": "address",
          "name": "_borrowerOperationsAddress",
          "type": "address"
        },
        {
          "internalType": "address",
          "name": "_activePoolAddress",
          "type": "address"
        },
        {
          "internalType": "address",
          "name": "_defaultPoolAddress",
          "type": "address"
        },
        {
          "internalType": "address",
          "name": "_stabilityPoolAddress",
          "type": "address"
        },
        {
          "internalType": "address",
          "name": "_gasPoolAddress",
          "type": "address"
        },
        {
          "internalType": "address",
          "name": "_collSurplusPoolAddress",
          "type": "address"
        },
        {
          "internalType": "address",
          "name": "_priceFeedAddress",
          "type": "address"
        },
        {
          "internalType": "address",
          "name": "_debtTokenAddress",
          "type": "address"
        },
        {
          "internalType": "address",
          "name": "_sortedTrovesAddress",
          "type": "address"
        },
        {
          "internalType": "address",
          "name": "_protocolTokenAddress",
          "type": "address"
        },
        {
          "internalType": "address",
          "name": "_protocolTokenStakingAddress",
          "type": "address"
        }
      ],
      "name": "initialize",
      "outputs": [],
      "stateMutability": "nonpayable",
      "type": "function"
    },
    {
      "inputs": [],
      "name": "lastFILError_Redistribution",
      "outputs": [
        {
          "internalType": "uint256",
          "name": "",
          "type": "uint256"
        }
      ],
      "stateMutability": "view",
      "type": "function"
    },
    {
      "inputs": [],
      "name": "lastFeeOperationTime",
      "outputs": [
        {
          "internalType": "uint256",
          "name": "",
          "type": "uint256"
        }
      ],
      "stateMutability": "view",
      "type": "function"
    },
    {
      "inputs": [],
      "name": "lastLDebtError_Redistribution",
      "outputs": [
        {
          "internalType": "uint256",
          "name": "",
          "type": "uint256"
        }
      ],
      "stateMutability": "view",
      "type": "function"
    },
    {
      "inputs": [
        {
          "internalType": "address",
          "name": "_borrower",
          "type": "address"
        }
      ],
      "name": "liquidate",
      "outputs": [],
      "stateMutability": "nonpayable",
      "type": "function"
    },
    {
      "inputs": [
        {
          "internalType": "uint256",
          "name": "_n",
          "type": "uint256"
        }
      ],
      "name": "liquidateTroves",
      "outputs": [],
      "stateMutability": "nonpayable",
      "type": "function"
    },
    {
      "inputs": [],
      "name": "minutesPassedSinceLastFeeOp",
      "outputs": [
        {
          "internalType": "uint256",
          "name": "",
          "type": "uint256"
        }
      ],
      "stateMutability": "view",
      "type": "function"
    },
    {
      "inputs": [],
      "name": "owner",
      "outputs": [
        {
          "internalType": "address",
          "name": "",
          "type": "address"
        }
      ],
      "stateMutability": "view",
      "type": "function"
    },
    {
      "inputs": [],
      "name": "priceFeed",
      "outputs": [
        {
          "internalType": "contract IPriceFeed",
          "name": "",
          "type": "address"
        }
      ],
      "stateMutability": "view",
      "type": "function"
    },
    {
      "inputs": [],
      "name": "protocolToken",
      "outputs": [
        {
          "internalType": "contract IProtocolToken",
          "name": "",
          "type": "address"
        }
      ],
      "stateMutability": "view",
      "type": "function"
    },
    {
      "inputs": [],
      "name": "protocolTokenStaking",
      "outputs": [
        {
          "internalType": "contract IProtocolTokenStaking",
          "name": "",
          "type": "address"
        }
      ],
      "stateMutability": "view",
      "type": "function"
    },
    {
      "inputs": [
        {
          "internalType": "uint256",
          "name": "_debtTokenAmount",
          "type": "uint256"
        },
        {
          "internalType": "address",
          "name": "_firstRedemptionHint",
          "type": "address"
        },
        {
          "internalType": "address",
          "name": "_upperPartialRedemptionHint",
          "type": "address"
        },
        {
          "internalType": "address",
          "name": "_lowerPartialRedemptionHint",
          "type": "address"
        },
        {
          "internalType": "uint256",
          "name": "_partialRedemptionHintNICR",
          "type": "uint256"
        },
        {
          "internalType": "uint256",
          "name": "_maxIterations",
          "type": "uint256"
        },
        {
          "internalType": "uint256",
          "name": "_maxFeePercentage",
          "type": "uint256"
        }
      ],
      "name": "redeemCollateral",
      "outputs": [],
      "stateMutability": "nonpayable",
      "type": "function"
    },
    {
      "inputs": [
        {
          "internalType": "address",
          "name": "_borrower",
          "type": "address"
        }
      ],
      "name": "removeStake",
      "outputs": [],
      "stateMutability": "nonpayable",
      "type": "function"
    },
    {
      "inputs": [],
      "name": "renounceOwnership",
      "outputs": [],
      "stateMutability": "nonpayable",
      "type": "function"
    },
    {
      "inputs": [
        {
          "internalType": "address",
          "name": "",
          "type": "address"
        }
      ],
      "name": "rewardSnapshots",
      "outputs": [
        {
          "internalType": "uint256",
          "name": "FIL",
          "type": "uint256"
        },
        {
          "internalType": "uint256",
          "name": "debt",
          "type": "uint256"
        }
      ],
      "stateMutability": "view",
      "type": "function"
    },
    {
      "inputs": [
        {
          "internalType": "uint256",
          "name": "_baseRate",
          "type": "uint256"
        }
      ],
      "name": "setBaseRate",
      "outputs": [],
      "stateMutability": "nonpayable",
      "type": "function"
    },
    {
      "inputs": [],
      "name": "setLastFeeOpTimeToNow",
      "outputs": [],
      "stateMutability": "nonpayable",
      "type": "function"
    },
    {
      "inputs": [
        {
          "internalType": "address",
          "name": "_borrower",
          "type": "address"
        },
        {
          "internalType": "uint256",
          "name": "_num",
          "type": "uint256"
        }
      ],
      "name": "setTroveStatus",
      "outputs": [],
      "stateMutability": "nonpayable",
      "type": "function"
    },
    {
      "inputs": [],
      "name": "sortedTroves",
      "outputs": [
        {
          "internalType": "contract ISortedTroves",
          "name": "",
          "type": "address"
        }
      ],
      "stateMutability": "view",
      "type": "function"
    },
    {
      "inputs": [],
      "name": "stabilityPool",
      "outputs": [
        {
          "internalType": "contract IStabilityPool",
          "name": "",
          "type": "address"
        }
      ],
      "stateMutability": "view",
      "type": "function"
    },
    {
      "inputs": [],
      "name": "totalCollateralSnapshot",
      "outputs": [
        {
          "internalType": "uint256",
          "name": "",
          "type": "uint256"
        }
      ],
      "stateMutability": "view",
      "type": "function"
    },
    {
      "inputs": [],
      "name": "totalStakes",
      "outputs": [
        {
          "internalType": "uint256",
          "name": "",
          "type": "uint256"
        }
      ],
      "stateMutability": "view",
      "type": "function"
    },
    {
      "inputs": [],
      "name": "totalStakesSnapshot",
      "outputs": [
        {
          "internalType": "uint256",
          "name": "",
          "type": "uint256"
        }
      ],
      "stateMutability": "view",
      "type": "function"
    },
    {
      "inputs": [
        {
          "internalType": "address",
          "name": "newOwner",
          "type": "address"
        }
      ],
      "name": "transferOwnership",
      "outputs": [],
      "stateMutability": "nonpayable",
      "type": "function"
    },
    {
      "inputs": [],
      "name": "unprotectedDecayBaseRateFromBorrowing",
      "outputs": [
        {
          "internalType": "uint256",
          "name": "",
          "type": "uint256"
        }
      ],
      "stateMutability": "nonpayable",
      "type": "function"
    },
    {
      "inputs": [
        {
          "internalType": "address",
          "name": "_borrower",
          "type": "address"
        }
      ],
      "name": "updateStakeAndTotalStakes",
      "outputs": [
        {
          "internalType": "uint256",
          "name": "",
          "type": "uint256"
        }
      ],
      "stateMutability": "nonpayable",
      "type": "function"
    },
    {
      "inputs": [
        {
          "internalType": "address",
          "name": "_borrower",
          "type": "address"
        }
      ],
      "name": "updateTroveRewardSnapshots",
      "outputs": [],
      "stateMutability": "nonpayable",
      "type": "function"
    }
  ],
  "bytecode": "0x6101006040523480156200001257600080fd5b506040516200608c3803806200608c833981810160405260608110156200003857600080fd5b5080516020820151604090920151608082905260a083905260e08190524260c081905291929190615fc7620000c56000398061276d5280614358525080612a725280614337525080611009528061480c525080610f865280611a5652806136155280613701528061468d528061473252806147735280614f5852806153a95280615a7f5250615fc76000f3fe608060405234801561001057600080fd5b506004361061050f5760003560e01c8063756b253e116102a4578063c35bc55011610172578063dc62a702116100d9578063f8d8989811610092578063f8d8989814610e86578063f92d343314610757578063fdf27dba14610e8e578063fe2ba84814610e96578063fe9d032314610ebc578063febb33de14610ec45761050f565b8063dc62a70214610dde578063e2ac77b014610e04578063e545242314610e2a578063f2fde38b14610e32578063f36b242514610e58578063f59fac2d14610e605761050f565b8063d380a37c1161012b578063d380a37c14610d42578063d3d6f84314610d4a578063d5b3563514610d76578063d66a255314610d93578063d9a7244414610db9578063da303f1414610dd65761050f565b8063c35bc55014610cd0578063c52861f214610cd8578063c7b5548114610ce0578063cbd138ae14610ce8578063cda775f914610d0e578063d293c71014610d165761050f565b80639976cf4511610216578063b0d8e181116101cf578063b0d8e18114610be3578063b7f8cf9b14610c09578063b82f263d14610c11578063b91af97c14610c2e578063bcd3752614610c7a578063bf9befb114610cc85761050f565b80639976cf4514610b0d578063a0d8d6bc14610b39578063a20baee6146109d5578063a3f4df7e14610b41578063a537896f14610bbe578063ae91875414610bdb5761050f565b8063807d138d11610268578063807d138d14610a9e578063814a0a4514610aa657806382fe3eb914610acf578063887105d314610af55780638da5cb5b14610afd57806396d711ff14610b055761050f565b8063756b253e146109ed57806376902b8314610a0a578063794e572414610a86578063795d26c314610a8e5780637f7dde4a14610a965761050f565b8063477d66cf116103e157806361ec893d116103535780636ef643381161030c5780636ef6433814610935578063715018a6146109a157806372423c17146109a957806372fe25aa146109d557806373098be9146109dd578063741bef1a146109e55761050f565b806361ec893d146108bd578063631203b0146108c557806364cee260146108e2578063653d46e71461090857806366ca4a2114610925578063695b2e341461092d5761050f565b80634ff81443116103a55780634ff814431461082157806352512eaa1461083e57806354062a45146108645780635733d58f146108815780635d6b480f146108895780635dba4c4a146108b55761050f565b8063477d66cf1461079d578063480cd578146107ba5780634870dd9a146107e057806349eefeee146107e85780634e443d9e146107f05761050f565b80631bf435551161048557806326b4d8fd1161043e57806326b4d8fd1461074f57806328d28b5b146107575780632b11551a1461075f5780632f8655681461076757806331eaf05c1461078d5780633cc74225146107955761050f565b80631bf43555146106515780631d08837b146106595780631e8b1c2b146106765780631f68f20a1461071957806321e378011461072157806324092669146107475761050f565b806312610e92116104d757806312610e921461058a578063139f2e8c146105b657806315d549f1146105be5780631673c79a146105e457806318f2817a146106235780631a465fe1146106495761050f565b8063043782fb14610514578063048c661d1461051e578063071a7541146105425780630b0765571461055c578063105bb15c14610582575b600080fd5b61051c610ee1565b005b610526610ee7565b604080516001600160a01b039092168252519081900360200190f35b61054a610ef6565b60408051918252519081900360200190f35b61051c6004803603602081101561057257600080fd5b50356001600160a01b0316610efb565b61054a610f23565b61054a600480360360408110156105a057600080fd5b506001600160a01b038135169060200135610f32565b61054a610f84565b61054a600480360360208110156105d457600080fd5b50356001600160a01b0316610fa8565b61060a600480360360208110156105fa57600080fd5b50356001600160a01b0316610fcc565b6040805192835260208301919091528051918290030190f35b61054a6004803603602081101561063957600080fd5b50356001600160a01b0316610fe5565b610526610ff8565b61054a611007565b61051c6004803603602081101561066f57600080fd5b503561102b565b61051c6004803603602081101561068c57600080fd5b8101906020810181356401000000008111156106a757600080fd5b8201836020820111156106b957600080fd5b803590602001918460208302840111640100000000831117156106db57600080fd5b919080806020026020016040519081016040528093929190818152602001838360200280828437600092019190915250929550611030945050505050565b61054a6113c4565b61054a6004803603602081101561073757600080fd5b50356001600160a01b03166113ca565b61054a6113f4565b61054a611407565b61054a61140d565b61054a61141e565b61051c6004803603602081101561077d57600080fd5b50356001600160a01b031661142b565b61054a611491565b610526611497565b61054a600480360360208110156107b357600080fd5b50356114a6565b61054a600480360360208110156107d057600080fd5b50356001600160a01b03166114b9565b61054a6114d7565b61054a6114dc565b61080d6004803603602081101561080657600080fd5b50356114e2565b604080519115158252519081900360200190f35b61054a6004803603602081101561083757600080fd5b50356114ed565b61054a6004803603602081101561085457600080fd5b50356001600160a01b03166114f8565b61054a6004803603602081101561087a57600080fd5b50356115ac565b61054a6115b7565b61051c6004803603604081101561089f57600080fd5b506001600160a01b0381351690602001356115c3565b61051c61160f565b61054a611675565b61054a600480360360208110156108db57600080fd5b503561167a565b61054a600480360360208110156108f857600080fd5b50356001600160a01b0316611687565b61051c6004803603602081101561091e57600080fd5b50356116a5565b61054a611a42565b61054a611a54565b61095b6004803603602081101561094b57600080fd5b50356001600160a01b0316611a78565b6040518086815260200185815260200184815260200183600481111561097d57fe5b8152602001826001600160801b031681526020019550505050505060405180910390f35b61051c611ab2565b61054a600480360360408110156109bf57600080fd5b506001600160a01b038135169060200135611b5e565b61054a611bb5565b61054a611bc1565b610526611bc7565b61052660048036036020811015610a0357600080fd5b5035611bd6565b61051c6004803603610160811015610a2157600080fd5b506001600160a01b038135811691602081013582169160408201358116916060810135821691608082013581169160a081013582169160c082013581169160e08101358216916101008201358116916101208101358216916101409091013516611c00565b61054a611cdf565b61054a611ceb565b610526611de6565b61054a611df5565b61054a60048036036060811015610abc57600080fd5b5080359060208101359060400135611dfb565b61051c60048036036020811015610ae557600080fd5b50356001600160a01b0316611e12565b61054a611e23565b610526611edf565b61054a611eee565b61054a60048036036040811015610b2357600080fd5b506001600160a01b038135169060200135611ef4565b61054a611f21565b610b49611f27565b6040805160208082528351818301528351919283929083019185019080838360005b83811015610b83578181015183820152602001610b6b565b50505050905090810190601f168015610bb05780820380516001836020036101000a031916815260200191505b509250505060405180910390f35b61054a60048036036020811015610bd457600080fd5b5035611f4f565b610526611f5a565b61054a60048036036020811015610bf957600080fd5b50356001600160a01b0316611f69565b610526611f90565b61054a60048036036020811015610c2757600080fd5b5035611f9f565b610c5460048036036020811015610c4457600080fd5b50356001600160a01b0316611faa565b604080519485526020850193909352838301919091526060830152519081900360800190f35b61051c600480360360e0811015610c9057600080fd5b508035906001600160a01b03602082013581169160408101358216916060820135169060808101359060a08101359060c00135612002565b61054a612765565b61054a61276b565b61054a61278f565b61054a6127a1565b61051c60048036036020811015610cfe57600080fd5b50356001600160a01b03166127ad565b6105266127c0565b61054a60048036036040811015610d2c57600080fd5b506001600160a01b0381351690602001356127cf565b61054a6127ee565b61054a60048036036040811015610d6057600080fd5b506001600160a01b0381351690602001356127f4565b61054a60048036036020811015610d8c57600080fd5b5035612824565b61054a60048036036020811015610da957600080fd5b50356001600160a01b0316612837565b61052660048036036020811015610dcf57600080fd5b5035612852565b61054a61287c565b61051c60048036036020811015610df457600080fd5b50356001600160a01b03166128ac565b61080d60048036036020811015610e1a57600080fd5b50356001600160a01b03166128b9565b610526612917565b61051c60048036036020811015610e4857600080fd5b50356001600160a01b0316612926565b61054a612a29565b61054a60048036036020811015610e7657600080fd5b50356001600160a01b0316612a36565b610526612a61565b61054a612a70565b61051c60048036036020811015610eac57600080fd5b50356001600160a01b0316612a94565b610526612aa5565b61054a60048036036020811015610eda57600080fd5b5035612ab4565b42607055565b606a546001600160a01b031681565b600281565b610f03612abf565b600054600154610f20916001600160a01b03908116911683612b0a565b50565b6000610f2d612c20565b905090565b6000610f3c612abf565b6001600160a01b038316600090815260716020526040812054610f5f9084612c3c565b6001600160a01b03851660009081526071602052604090208190559150505b92915050565b7f000000000000000000000000000000000000000000000000000000000000000081565b6000610fb2612abf565b610fbb82612c99565b6001600160801b031690505b919050565b6077602052600090815260409020805460019091015482565b6000610fef612abf565b610f7e82612d33565b606c546001600160a01b031681565b7f000000000000000000000000000000000000000000000000000000000000000081565b606f55565b805161106d5760405162461bcd60e51b8152600401808060200182810382526036815260200180615e4d6036913960400191505060405180910390fd5b600054600154606a546001600160a01b0392831692918216911661108f615b0d565b611097615b3e565b600260009054906101000a90046001600160a01b03166001600160a01b0316630fdb11cf6040518163ffffffff1660e01b8152600401602060405180830381600087803b1580156110e757600080fd5b505af11580156110fb573d6000803e3d6000fd5b505050506040513d602081101561111157600080fd5b5051825260408051630d9a6b3560e01b815290516001600160a01b03851691630d9a6b35916004808301926020929190829003018186803b15801561115557600080fd5b505afa158015611169573d6000803e3d6000fd5b505050506040513d602081101561117f57600080fd5b50516020830152815161119190612dd6565b15801560408401526111b9576111b28585846000015185602001518a612df3565b90506111d1565b6111ce8585846000015185602001518a613011565b90505b60008160200151116112145760405162461bcd60e51b8152600401808060200182810382526022815260200180615f416022913960400191505060405180910390fd5b826001600160a01b031663335525ad82608001518360a001516040518363ffffffff1660e01b81526004018083815260200182815260200192505050600060405180830381600087803b15801561126a57600080fd5b505af115801561127e573d6000803e3d6000fd5b5050505061129685858360c001518460e001516130d3565b610100810151156113135760695461010082015160408051628063a560e01b81526001600160a01b03938416600482015260248101929092525191871691628063a59160448082019260009290919082900301818387803b1580156112fa57600080fd5b505af115801561130e573d6000803e3d6000fd5b505050505b61132185826040015161331d565b602081015160608301526101008101516040820151825161134d92916113479190612c3c565b90612c3c565b608080840182905260608085015160408086015186840151825193845260208401969096528282015291810193909352517f4152c73dd2614c4f9fc35e8c9cf16013cd588c75b49a4c1673ecffdcbcda94039281900390910190a16113bc85338360600151846040015161345e565b505050505050565b606f5481565b6001600160a01b03811660009081526071602052604081206003015460ff166004811115610f7e57fe5b6064670de0b6b3a76400005b0460050281565b607a5481565b6103e8670de0b6b3a7640000611400565b6000610f2d606f54613557565b6114348161358d565b60408051600180825281830190925260009160208083019080368337019050509050818160008151811061146457fe5b60200260200101906001600160a01b031690816001600160a01b03168152505061148d81611030565b5050565b60765481565b6001546001600160a01b031681565b6000610f7e6114b3611a42565b836135f5565b6001600160a01b031660009081526071602052604090206001015490565b60c881565b60785490565b6000610f7e82612dd6565b6000610f7e8261360d565b6001600160a01b03811660009081526077602052604081205460755482906115209083612c3c565b9050801580611559575060016001600160a01b03851660009081526071602052604090206003015460ff16600481111561155657fe5b14155b1561156957600092505050610fc7565b6001600160a01b038416600090815260716020526040812060020154906115a2670de0b6b3a764000061159c8486613639565b90613692565b9695505050505050565b6000610f7e826136f9565b6714d1120d7b16000081565b6115cb612abf565b8060048111156115d757fe5b6001600160a01b0383166000908152607160205260409020600301805460ff1916600183600481111561160657fe5b02179055505050565b611617612abf565b6000611621613725565b9050670de0b6b3a764000081111561163557fe5b606f8190556040805182815290517fc454ee9b76c52f782a256af821b857ca6e125d1e3333bcede402fec2bed9600c9181900360200190a1610f20613769565b603c81565b6000610f7e6114b3612a29565b6001600160a01b031660009081526071602052604090206002015490565b6040805160e081018252600080546001600160a01b0390811683526001548116602084015292820181905260608201819052606e548316608083015260a0820181905260c0820152606a549091166116fb615b0d565b611703615b3e565b600260009054906101000a90046001600160a01b03166001600160a01b0316630fdb11cf6040518163ffffffff1660e01b8152600401602060405180830381600087803b15801561175357600080fd5b505af1158015611767573d6000803e3d6000fd5b505050506040513d602081101561177d57600080fd5b5051825260408051630d9a6b3560e01b815290516001600160a01b03851691630d9a6b35916004808301926020929190829003018186803b1580156117c157600080fd5b505afa1580156117d5573d6000803e3d6000fd5b505050506040513d60208110156117eb57600080fd5b5051602083015281516117fd90612dd6565b15801560408401526118245761181d8483600001518460200151886137c5565b9050611844565b611841846000015185602001518460000151856020015189613b45565b90505b60008160200151116118875760405162461bcd60e51b8152600401808060200182810382526022815260200180615f416022913960400191505060405180910390fd5b826001600160a01b031663335525ad82608001518360a001516040518363ffffffff1660e01b81526004018083815260200182815260200192505050600060405180830381600087803b1580156118dd57600080fd5b505af11580156118f1573d6000803e3d6000fd5b50505050611911846000015185602001518360c001518460e001516130d3565b6101008101511561199057835160695461010083015160408051628063a560e01b81526001600160a01b0393841660048201526024810192909252519190921691628063a591604480830192600092919082900301818387803b15801561197757600080fd5b505af115801561198b573d6000803e3d6000fd5b505050505b6119a28460000151826040015161331d565b60208101516060830152610100810151604082015182516119c892916113479190612c3c565b608080840182905260608085015160408086015186840151825193845260208401969096528282015291810193909352517f4152c73dd2614c4f9fc35e8c9cf16013cd588c75b49a4c1673ecffdcbcda94039281900390910190a1611a3b8460000151338360600151846040015161345e565b5050505050565b6000610f2d611a4f613725565b613c71565b7f000000000000000000000000000000000000000000000000000000000000000090565b60716020526000908152604090208054600182015460028301546003909301549192909160ff81169061010090046001600160801b031685565b611aba613c98565b6001600160a01b0316611acb611edf565b6001600160a01b031614611b26576040805162461bcd60e51b815260206004820181905260248201527f4f776e61626c653a2063616c6c6572206973206e6f7420746865206f776e6572604482015290519081900360640190fd5b6035546040516000916001600160a01b031690600080516020615dd2833981519152908390a3603580546001600160a01b0319169055565b6000611b68612abf565b6001600160a01b038316600090815260716020526040812060010154611b8e9084613c9c565b6001600160a01b038516600090815260716020526040902060010181905591505092915050565b670de0b6b3a764000081565b60755481565b6002546001600160a01b031681565b60788181548110611be657600080fd5b6000918252602090912001546001600160a01b0316905081565b600254600160a81b900460ff1680611c1b5750611c1b613cf6565b80611c305750600254600160a01b900460ff16155b611c6b5760405162461bcd60e51b815260040180806020018281038252602e815260200180615ccb602e913960400191505060405180910390fd5b600254600160a81b900460ff16158015611ca2576002805460ff60a01b1960ff60a81b19909116600160a81b1716600160a01b1790555b611caa613d07565b611cbd8c8c8c8c8c8c8c8c8c8c8c613dcf565b8015611cd1576002805460ff60a81b191690555b505050505050505050505050565b670f43fc2c04ee000081565b60008054604080516314a6bf0f60e01b8152905183926001600160a01b0316916314a6bf0f916004808301926020929190829003018186803b158015611d3057600080fd5b505afa158015611d44573d6000803e3d6000fd5b505050506040513d6020811015611d5a57600080fd5b5051600154604080516314a6bf0f60e01b815290519293506000926001600160a01b03909216916314a6bf0f91600480820192602092909190829003018186803b158015611da757600080fd5b505afa158015611dbb573d6000803e3d6000fd5b505050506040513d6020811015611dd157600080fd5b50519050611ddf8282613c9c565b9250505090565b6000546001600160a01b031681565b60735481565b6000611e08848484614167565b90505b9392505050565b611e1a612abf565b610f2081614191565b60008054604080516362e1c9bf60e11b8152905183926001600160a01b03169163c5c3937e916004808301926020929190829003018186803b158015611e6857600080fd5b505afa158015611e7c573d6000803e3d6000fd5b505050506040513d6020811015611e9257600080fd5b5051600154604080516362e1c9bf60e11b815290519293506000926001600160a01b039092169163c5c3937e91600480820192602092909190829003018186803b158015611da757600080fd5b6035546001600160a01b031690565b60745481565b6000611efe612abf565b6001600160a01b038316600090815260716020526040812054610f5f9084613c9c565b60795481565b6040518060400160405280600c81526020016b2a3937bb32a6b0b730b3b2b960a11b81525081565b6000610f7e826141fc565b606e546001600160a01b031681565b6000806000611f7784614203565b915091506000611f87838361427d565b95945050505050565b6067546001600160a01b031681565b6000610f7e826142ac565b6001600160a01b03811660009081526071602052604081208054600190910154909180611fd685612a36565b9150611fe1856114f8565b9050611fed8483613c9c565b9350611ff98382613c9c565b92509193509193565b6040805160e0810182526000546001600160a01b03908116825260015481166020830152606b54811692820192909252606d5482166060820152606e5482166080820152606954821660a082015260685490911660c0820152612063615b8a565b61206c836142d8565b612074614332565b600260009054906101000a90046001600160a01b03166001600160a01b0316630fdb11cf6040518163ffffffff1660e01b8152600401602060405180830381600087803b1580156120c457600080fd5b505af11580156120d8573d6000803e3d6000fd5b505050506040513d60208110156120ee57600080fd5b505160c08201819052612100906143ba565b61210989614409565b6121188260400151338b614448565b612120611ceb565b60e0820181905260408084015181516370a0823160e01b815233600482015291516001600160a01b03909116916370a08231916024808301926020929190829003018186803b15801561217257600080fd5b505afa158015612186573d6000803e3d6000fd5b505050506040513d602081101561219c57600080fd5b505111156121a657fe5b888152608082015160c08201516000916121c1918b906144ff565b156121cd5750876122ee565b82608001516001600160a01b0316634d6228316040518163ffffffff1660e01b815260040160206040518083038186803b15801561220a57600080fd5b505afa15801561221e573d6000803e3d6000fd5b505050506040513d602081101561223457600080fd5b505190505b6001600160a01b038116158015906122655750670f43fc2c04ee0000612263828460c001516127cf565b105b156122ee5782608001516001600160a01b031663b72703ac826040518263ffffffff1660e01b815260040180826001600160a01b0316815260200191505060206040518083038186803b1580156122bb57600080fd5b505afa1580156122cf573d6000803e3d6000fd5b505050506040513d60208110156122e557600080fd5b50519050612239565b846122f95760001994505b6001600160a01b038116158015906123115750815115155b801561231d5750600085115b1561243057848060019003955050600083608001516001600160a01b031663b72703ac836040518263ffffffff1660e01b815260040180826001600160a01b0316815260200191505060206040518083038186803b15801561237e57600080fd5b505afa158015612392573d6000803e3d6000fd5b505050506040513d60208110156123a857600080fd5b5051845160208601519192506123be9184612b0a565b60006123d7858486600001518760c001518e8e8e614660565b90508060400151156123ea575050612430565b805160208501516123fa91613c9c565b602080860191909152810151604085015161241491613c9c565b60408501528051845161242691612c3c565b84525090506122f9565b60008260400151116124735760405162461bcd60e51b8152600401808060200182810382526029815260200180615ca26029913960400191505060405180910390fd5b61248a82604001518360c001518460e00151614954565b5061249882604001516149ea565b6060830181905260408301516124af9190866149f7565b82600001516001600160a01b0316628063a5846060015184606001516040518363ffffffff1660e01b815260040180836001600160a01b0316815260200182815260200192505050600060405180830381600087803b15801561251157600080fd5b505af1158015612525573d6000803e3d6000fd5b5050505082606001516001600160a01b031663c91d2d3883606001516040518263ffffffff1660e01b815260040180828152602001915050600060405180830381600087803b15801561257757600080fd5b505af115801561258b573d6000803e3d6000fd5b50505050606082015160408301516125a291612c3c565b8260800181815250507f43a3f4082a4dbc33d78e317d2497d3a730bc7fc3574159dcea1056e62e5d9ad88a8360200151846040015185606001516040518085815260200184815260200183815260200182815260200194505050505060405180910390a182604001516001600160a01b0316639dc29fac3384602001516040518363ffffffff1660e01b815260040180836001600160a01b0316815260200182815260200192505050600060405180830381600087803b15801561266557600080fd5b505af1158015612679573d6000803e3d6000fd5b5050505082600001516001600160a01b0316632a7ba1f783602001516040518263ffffffff1660e01b815260040180828152602001915050600060405180830381600087803b1580156126cb57600080fd5b505af11580156126df573d6000803e3d6000fd5b5050505082600001516001600160a01b0316628063a53384608001516040518363ffffffff1660e01b815260040180836001600160a01b0316815260200182815260200192505050600060405180830381600087803b15801561274157600080fd5b505af1158015612755573d6000803e3d6000fd5b5050505050505050505050505050565b60725481565b7f000000000000000000000000000000000000000000000000000000000000000081565b6000610f2d61279c613725565b613557565b670ddd4b8c6c7d70d881565b6127b5612abf565b610f20816002614a66565b6069546001600160a01b031681565b60008060006127dd85614203565b9150915060006115a2838387614167565b60705481565b60006127fe612abf565b6001600160a01b038316600090815260716020526040812060010154611b8e9084612c3c565b6000610f7e61283161278f565b83614b7f565b6001600160a01b031660009081526071602052604090205490565b60006078828154811061286157fe5b6000918252602090912001546001600160a01b031692915050565b6000612886613725565b606f55670de0b6b3a7640000606f54111561289d57fe5b6128a5613769565b50606f5490565b60785461148d8282614bd8565b600060016001600160a01b03831660009081526071602052604090206003015460ff1660048111156128e757fe5b146128f457506000610fc7565b506075546001600160a01b03821660009081526077602052604090205410919050565b606d546001600160a01b031681565b61292e613c98565b6001600160a01b031661293f611edf565b6001600160a01b03161461299a576040805162461bcd60e51b815260206004820181905260248201527f4f776e61626c653a2063616c6c6572206973206e6f7420746865206f776e6572604482015290519081900360640190fd5b6001600160a01b0381166129df5760405162461bcd60e51b8152600401808060200182810382526026815260200180615c7c6026913960400191505060405180910390fd5b6035546040516001600160a01b03808416921690600080516020615dd283398151915290600090a3603580546001600160a01b0319166001600160a01b0392909216919091179055565b6000610f2d606f54613c71565b6001600160a01b03811660009081526077602052604081206001015460765482906115209083612c3c565b606b546001600160a01b031681565b7f000000000000000000000000000000000000000000000000000000000000000081565b612a9c612abf565b610f2081614d7f565b6068546001600160a01b031681565b6000610f7e826149ea565b6067546001600160a01b03163314612b085760405162461bcd60e51b815260040180806020018281038252603b815260200180615e12603b913960400191505060405180910390fd5b565b612b13816128b9565b15612c1b57612b218161358d565b6000612b2c826114f8565b90506000612b3983612a36565b6001600160a01b038416600090815260716020526040902060010154909150612b629083613c9c565b6001600160a01b0384166000908152607160205260409020600181019190915554612b8d9082613c9c565b6001600160a01b038416600090815260716020526040902055612baf83614191565b612bbb85858385614dc9565b6001600160a01b0383166000818152607160209081526040808320805460018201546002909201548351918252938101919091528082019290925260608201929092529051600080516020615df28339815191529181900360800190a250505b505050565b6000610f2d603c61159c60705442612c3c90919063ffffffff16565b600082821115612c93576040805162461bcd60e51b815260206004820152601e60248201527f536166654d6174683a207375627472616374696f6e206f766572666c6f770000604482015290519081900360640190fd5b50900390565b607880546001808201835560008381527f8dc6fb69531d98d70dc0420e638d2dfd04e09e1ec783ede9aac77da9c5a0dac490920180546001600160a01b0319166001600160a01b03861617905591549091612cf49190612c3c565b6001600160a01b039290921660009081526071602052604090206003018054610100600160881b0319166101006001600160801b038516021790555090565b6001600160a01b0381166000908152607160205260408120600101548190612d5a90614ecb565b6001600160a01b038416600090815260716020526040902060020180549082905560725491925090612d98908390612d929084612c3c565b90613c9c565b607281905560408051918252517f6bac5e0eb3c44eb03a60ab11ec3a2c051771616aecadbcfff2630aabae5203829181900360200190a15092915050565b600080612de2836142ac565b6714d1120d7b160000119392505050565b612dfb615b3e565b612e03615bcf565b612e0b615b3e565b84825260006080830152612e1d611ceb565b60a0830152612e2a611e23565b60c0830152600060208301525b8351826020015110156130065783826020015181518110612e5457fe5b6020908102919091018101516001600160a01b03166060840181905260009081526071909152604090206003015460019060ff166004811115612e9357fe5b14612e9d57612ff6565b612eab8260600151876127cf565b60408301526080820151612f9e57670f43fc2c04ee0000826040015110158015612ed457508151155b15612ede57612ff6565b6000612ef38360c001518460a0015189614167565b9050612f108989856060015186604001518760000151868d614f07565b60808101518451919350612f249190612c3c565b8352608082015160a0840151612f3991612c3c565b8360a0018181525050612f6e82610100015161134784604001516113478660a001518860c00151612c3c90919063ffffffff16565b60c0840152612f7d8483615245565b9350612f928360c001518460a0015189615326565b15608084015250612ff6565b81608001518015612fba5750670f43fc2c04ee00008260400151105b15612ff657612fd3888884606001518560000151615347565b60808101518351919250612fe79190612c3c565b8252612ff38382615245565b92505b6020820180516001019052612e37565b505095945050505050565b613019615b3e565b613021615bcf565b613029615b3e565b848252600060208301525b835182602001511015613006578382602001518151811061305157fe5b60209081029190910101516001600160a01b03166060830181905261307690876127cf565b60408301819052670f43fc2c04ee000011156130c3576130a0888884606001518560000151615347565b608081015183519192506130b49190612c3c565b82526130c08382615245565b92505b6020820180516001019052613034565b816130dd57613317565b6079546000906130f990612d9284670de0b6b3a7640000613639565b9050600061311e607a54612d92670de0b6b3a76400008761363990919063ffffffff16565b905060006131376072548461369290919063ffffffff16565b905060006131506072548461369290919063ffffffff16565b905061317161316a6072548461363990919063ffffffff16565b8590612c3c565b60795560725461318d90613186908390613639565b8490612c3c565b607a5560755461319d9083613c9c565b6075556076546131ad9082613c9c565b607681905560755460408051918252602082019290925281517f9f8bc8ab0daf5bceef75ecfd2085d1fcc6548c657ea970d9a23a60610d0737e3929181900390910190a1876001600160a01b0316632a7ba1f7876040518263ffffffff1660e01b815260040180828152602001915050600060405180830381600087803b15801561323757600080fd5b505af115801561324b573d6000803e3d6000fd5b50505050866001600160a01b0316632b7c7b11876040518263ffffffff1660e01b815260040180828152602001915050600060405180830381600087803b15801561329557600080fd5b505af11580156132a9573d6000803e3d6000fd5b50505050876001600160a01b0316628063a588876040518363ffffffff1660e01b815260040180836001600160a01b0316815260200182815260200192505050600060405180830381600087803b15801561330357600080fd5b505af1158015611cd1573d6000803e3d6000fd5b50505050565b6072546073819055506000826001600160a01b031663c5c3937e6040518163ffffffff1660e01b815260040160206040518083038186803b15801561336157600080fd5b505afa158015613375573d6000803e3d6000fd5b505050506040513d602081101561338b57600080fd5b5051600154604080516362e1c9bf60e11b815290519293506000926001600160a01b039092169163c5c3937e91600480820192602092909190829003018186803b1580156133d857600080fd5b505afa1580156133ec573d6000803e3d6000fd5b505050506040513d602081101561340257600080fd5b5051905061341481612d928486612c3c565b607481905560735460408051918252602082019290925281517f51bf4c63ec3cba9d03d43238abbdd979dd91bd16d9895c74ceea9118c7baaf60929181900390910190a150505050565b81156134dd57606b5460685460408051631062c15f60e11b81526001600160a01b039283166004820152868316602482015260448101869052905191909216916320c582be91606480830192600092919082900301818387803b1580156134c457600080fd5b505af11580156134d8573d6000803e3d6000fd5b505050505b801561331757836001600160a01b0316628063a584836040518363ffffffff1660e01b815260040180836001600160a01b0316815260200182815260200192505050600060405180830381600087803b15801561353957600080fd5b505af115801561354d573d6000803e3d6000fd5b5050505050505050565b6000610f7e61357f836103e8670de0b6b3a76400005b04600502613c9c90919063ffffffff16565b670de0b6b3a76400006154c1565b60016001600160a01b03821660009081526071602052604090206003015460ff1660048111156135b957fe5b14610f205760405162461bcd60e51b815260040180806020018281038252602f815260200180615f63602f913960400191505060405180910390fd5b6000611e0b670de0b6b3a764000061159c8585613639565b6000610f7e827f0000000000000000000000000000000000000000000000000000000000000000613c9c565b60008261364857506000610f7e565b8282028284828161365557fe5b0414611e0b5760405162461bcd60e51b8152600401808060200182810382526021815260200180615db16021913960400191505060405180910390fd5b60008082116136e8576040805162461bcd60e51b815260206004820152601a60248201527f536166654d6174683a206469766973696f6e206279207a65726f000000000000604482015290519081900360640190fd5b8183816136f157fe5b049392505050565b6000610f7e827f0000000000000000000000000000000000000000000000000000000000000000612c3c565b600080613730612c20565b90506000613746670ddd4b8c6c7d70d8836154d7565b9050611ddf670de0b6b3a764000061159c83606f5461363990919063ffffffff16565b600061378060705442612c3c90919063ffffffff16565b9050603c8110610f205742607081905560408051918252517f860f8d2f0c74dd487e89e2883e3b25b8159ce1e1b3433a291cba7b82c508f3bc9181900360200190a150565b6137cd615b3e565b6137d5615bcf565b6137dd615b3e565b848252600060808301526137ef611ceb565b60a08301526137fc611e23565b8260c001818152505086608001516001600160a01b0316634d6228316040518163ffffffff1660e01b815260040160206040518083038186803b15801561384257600080fd5b505afa158015613856573d6000803e3d6000fd5b505050506040513d602081101561386c57600080fd5b50516001600160a01b039081166060840152608088015160408051631e22314360e01b815290516000939290921691631e22314391600480820192602092909190829003018186803b1580156138c157600080fd5b505afa1580156138d5573d6000803e3d6000fd5b505050506040513d60208110156138eb57600080fd5b50516000602085015290505b8483602001511080156139205750806001600160a01b031683606001516001600160a01b031614155b15613b3a57600088608001516001600160a01b031663b72703ac85606001516040518263ffffffff1660e01b815260040180826001600160a01b0316815260200191505060206040518083038186803b15801561397c57600080fd5b505afa158015613990573d6000803e3d6000fd5b505050506040513d60208110156139a657600080fd5b505160608501519091506139ba90896127cf565b60408501526080840151613ab257670f43fc2c04ee00008460400151101580156139e357508351155b156139ee5750613b3a565b6000613a038560c001518660a001518b614167565b8a5160208c0151606088015160408901518951949550613a2494868f614f07565b60808101518651919550613a389190612c3c565b8552608084015160a0860151613a4d91612c3c565b8560a0018181525050613a8284610100015161134786604001516113478860a001518a60c00151612c3c90919063ffffffff16565b60c0860152613a918685615245565b9550613aa68560c001518660a001518b615326565b15608086015250613b1c565b83608001518015613ace5750670f43fc2c04ee00008460400151105b15613b1657613aef89600001518a6020015186606001518760000151615347565b60808101518551919450613b039190612c3c565b8452613b0f8584615245565b9450613b1c565b50613b3a565b6001600160a01b0316606084015260208301805160010190526138f7565b505050949350505050565b613b4d615b3e565b613b55615bcf565b613b5d615b3e565b606e54858352600060208401526001600160a01b03165b8483602001511015613c6557806001600160a01b0316634d6228316040518163ffffffff1660e01b815260040160206040518083038186803b158015613bb957600080fd5b505afa158015613bcd573d6000803e3d6000fd5b505050506040513d6020811015613be357600080fd5b50516001600160a01b031660608401819052613bff90886127cf565b60408401819052670f43fc2c04ee00001115613c5057613c29898985606001518660000151615347565b60808101518451919350613c3d9190612c3c565b8352613c498483615245565b9350613c55565b613c65565b6020830180516001019052613b74565b50505095945050505050565b6000610f7e613c8b836103e8670de0b6b3a764000061356d565b66b1a2bc2ec500006154c1565b3390565b600082820183811015611e0b576040805162461bcd60e51b815260206004820152601b60248201527f536166654d6174683a206164646974696f6e206f766572666c6f770000000000604482015290519081900360640190fd5b6000613d0130615576565b15905090565b600254600160a81b900460ff1680613d225750613d22613cf6565b80613d375750600254600160a01b900460ff16155b613d725760405162461bcd60e51b815260040180806020018281038252602e815260200180615ccb602e913960400191505060405180910390fd5b600254600160a81b900460ff16158015613da9576002805460ff60a01b1960ff60a81b19909116600160a81b1716600160a01b1790555b613db161557c565b613db9615633565b8015610f20576002805460ff60a81b1916905550565b613dd88b615731565b613de18a615731565b613dea89615731565b613df388615731565b613dfc87615731565b613e0586615731565b613e0e85615731565b613e1784615731565b613e2083615731565b613e2982615731565b613e3281615731565b606780546001600160a01b03199081166001600160a01b038e81169182179093556000805483168e85161790556001805483168d8516179055606a805483168c85161790556068805483168b85161790556069805483168a8516179055600280548316898516179055606b80548316888516179055606e80548316878516179055606c80548316868516179055606d805490921692841692909217905560408051918252517f3ca631ffcd2a9b5d9ae18543fc82f58eb4ca33af9e6ab01b7a8e95331e6ed985916020908290030190a1604080516001600160a01b038c16815290517f78f058b189175430c48dc02699e3a0031ea4ff781536dc2fab847de4babdd8829181900360200190a1604080516001600160a01b038b16815290517f5ee0cae2f063ed938bb55046f6a932fb6ae792bf43624806bb90abe68a50be9b9181900360200190a1604080516001600160a01b038a16815290517f82966d27eea39b038ee0fa30cd16532bb24f6e65d31cb58fb227aa5766cdcc7f9181900360200190a1604080516001600160a01b038916815290517fcfb07d791fcafc032b35837b50eb84b74df518cf4cc287e8084f47630fa70fa09181900360200190a1604080516001600160a01b038816815290517fe67f36a6e961157d6eff83b91f3af5a62131ceb6f04954ef74f51c1c05e7f88d9181900360200190a1604080516001600160a01b038716815290517f8c537274438aa850a330284665d81a85dd38267d09e4050d416bfc94142db2649181900360200190a1604080516001600160a01b038616815290517f112220fa8dbe96141556e0dc3d74dd95075b323f4f297616048e02d82d7017159181900360200190a1604080516001600160a01b038516815290517f65f4cf077bc01e4742eb5ad98326f6e95b63548ea24b17f8d5e823111fe788009181900360200190a1604080516001600160a01b038416815290517f7b0c6ae24561d189fc90b337cbc97aa15d085bef32931237a762e3e528b285b49181900360200190a1604080516001600160a01b038316815290517ff81a824d1d9030c0365252fb96daf0565f9c2007c88e13001379dda7f06d5d5c9181900360200190a15050505050505050505050565b6000821561418857600061417f8461159c8786613639565b9150611e0b9050565b50600019611e0b565b607580546001600160a01b0383166000908152607760209081526040918290209283556076546001909301839055925481519081529283019190915280517fc437f324d85e369394148dd9d62f98f534b382e01ed3dd2eb98138fb6d3ab49a9281900390910190a150565b60c8900490565b6000806000614211846114f8565b9050600061421e85612a36565b6001600160a01b038616600090815260716020526040812060010154919250906142489084613c9c565b6001600160a01b0387166000908152607160205260408120549192509061426f9084613c9c565b919550909350505050915091565b600081156142a35761429c8261159c8568056bc75e2d63100000613639565b9050610f7e565b50600019610f7e565b6000806142b7611e23565b905060006142c3611ceb565b90506142d0828286614167565b949350505050565b6611c37937e0800081108015906142f75750670de0b6b3a76400008111155b610f205760405162461bcd60e51b8152600401808060200182810382526030815260200180615ee76030913960400191505060405180910390fd5b61437c7f00000000000000000000000000000000000000000000000000000000000000007f0000000000000000000000000000000000000000000000000000000000000000613c9c565b421015612b085760405162461bcd60e51b8152600401808060200182810382526040815260200180615d716040913960400191505060405180910390fd5b670f43fc2c04ee00006143cc826142ac565b1015610f205760405162461bcd60e51b815260040180806020018281038252602a815260200180615f17602a913960400191505060405180910390fd5b60008111610f205760405162461bcd60e51b815260040180806020018281038252602e815260200180615e83602e913960400191505060405180910390fd5b80836001600160a01b03166370a08231846040518263ffffffff1660e01b815260040180826001600160a01b0316815260200191505060206040518083038186803b15801561449657600080fd5b505afa1580156144aa573d6000803e3d6000fd5b505050506040513d60208110156144c057600080fd5b50511015612c1b5760405162461bcd60e51b815260040180806020018281038252604e815260200180615cf9604e913960600191505060405180910390fd5b60006001600160a01b038316158061458d5750836001600160a01b0316635dbe47e8846040518263ffffffff1660e01b815260040180826001600160a01b0316815260200191505060206040518083038186803b15801561455f57600080fd5b505afa158015614573573d6000803e3d6000fd5b505050506040513d602081101561458957600080fd5b5051155b806145a85750670f43fc2c04ee00006145a684846127cf565b105b156145b557506000611e0b565b6000846001600160a01b031663765e0159856040518263ffffffff1660e01b815260040180826001600160a01b0316815260200191505060206040518083038186803b15801561460457600080fd5b505afa158015614618573d6000803e3d6000fd5b505050506040513d602081101561462e57600080fd5b505190506001600160a01b0381161580611f875750670f43fc2c04ee000061465682856127cf565b1095945050505050565b614668615c17565b6001600160a01b0387166000908152607160205260409020546146b69087906146b1907f0000000000000000000000000000000000000000000000000000000000000000612c3c565b6154c1565b8082526146d190869061159c90670de0b6b3a7640000613639565b60208083019190915281516001600160a01b0389166000908152607190925260408220546146fe91612c3c565b6020808401516001600160a01b038b16600090815260719092526040822060010154929350909161472e91612c3c565b90507f00000000000000000000000000000000000000000000000000000000000000008214156147f25761476189614d7f565b61476c896004614a66565b6147988a8a7f00000000000000000000000000000000000000000000000000000000000000008461578c565b886001600160a01b0316600080516020615df283398151915260008060006003604051808581526020018481526020018381526020018260038111156147da57fe5b815260200194505050505060405180910390a2614946565b60006147fe828461427d565b9050848114158061483657507f0000000000000000000000000000000000000000000000000000000000000000614834846136f9565b105b1561484a5750506001604083015250614949565b60808b01516040805163015f109360e51b81526001600160a01b038d81166004830152602482018590528a81166044830152898116606483015291519190921691632be2126091608480830192600092919082900301818387803b1580156148b157600080fd5b505af11580156148c5573d6000803e3d6000fd5b5050506001600160a01b038b166000908152607160205260409020848155600101839055506148f38a612d33565b506001600160a01b038a1660008181526071602090815260409182902060020154825187815291820186905281830152600360608201529051600080516020615df28339815191529181900360800190a2505b50505b979650505050505050565b60008061495f613725565b905060006149718461159c8888613639565b9050600061498a614983836002613692565b8490613c9c565b905061499e81670de0b6b3a76400006154c1565b9050600081116149aa57fe5b606f8190556040805182815290517fc454ee9b76c52f782a256af821b857ca6e125d1e3333bcede402fec2bed9600c9181900360200190a16115a2613769565b6000610f7e61283161141e565b6000614a0f8361159c86670de0b6b3a7640000613639565b905081811115613317576040805162461bcd60e51b815260206004820152601d60248201527f4665652065786365656465642070726f7669646564206d6178696d756d000000604482015290519081900360640190fd5b6000816004811115614a7457fe5b14158015614a8e57506001816004811115614a8b57fe5b14155b614a9457fe5b607854614aa08161592e565b6001600160a01b0383166000908152607160205260409020600301805483919060ff19166001836004811115614ad257fe5b02179055506001600160a01b0383166000908152607160209081526040808320600180820185905590849055607790925282208281550155614b148382614bd8565b606e5460408051631484968760e11b81526001600160a01b038681166004830152915191909216916329092d0e91602480830192600092919082900301818387803b158015614b6257600080fd5b505af1158015614b76573d6000803e3d6000fd5b50505050505050565b600080614b98670de0b6b3a764000061159c8686613639565b9050828110611e0b5760405162461bcd60e51b8152600401808060200182810382526036815260200180615eb16036913960400191505060405180910390fd5b6001600160a01b03821660009081526071602052604081206003015460ff1690816004811115614c0457fe5b14158015614c1e57506001816004811115614c1b57fe5b14155b614c2457fe5b6001600160a01b03831660009081526071602052604081206003015461010090046001600160801b0316908390614c5c826001612c3c565b905080836001600160801b03161115614c7157fe5b600060788281548110614c8057fe5b600091825260209091200154607880546001600160a01b03909216925082916001600160801b038716908110614cb257fe5b600091825260208083209190910180546001600160a01b0319166001600160a01b03948516179055918316808252607183526040918290206003018054610100600160881b0319166101006001600160801b038a169081029190911790915582519182529281019290925280517f02b04ae5f7be9ca7c103293a2aa15f3c339d15d6eda53b721fef7b0e609c831a9281900390910190a16078805480614d5457fe5b600082815260209020810160001990810180546001600160a01b031916905501905550505050505050565b6001600160a01b038116600090815260716020526040902060020154607254614da89082612c3c565b607255506001600160a01b0316600090815260716020526040812060020155565b826001600160a01b0316632a7ba1f7836040518263ffffffff1660e01b815260040180828152602001915050600060405180830381600087803b158015614e0f57600080fd5b505af1158015614e23573d6000803e3d6000fd5b50505050836001600160a01b0316632b7c7b11836040518263ffffffff1660e01b815260040180828152602001915050600060405180830381600087803b158015614e6d57600080fd5b505af1158015614e81573d6000803e3d6000fd5b50505050826001600160a01b0316638f7be730826040518263ffffffff1660e01b815260040180828152602001915050600060405180830381600087803b15801561353957600080fd5b60008060745460001415614ee0575081610f7e565b600060735411614eec57fe5b611e0b60745461159c6073548661363990919063ffffffff16565b614f0f615b3e565b614f17615c3a565b607854600110614f275750614949565b614f3087611faa565b60408501526020848101919091528401819052908352614f4f906141fc565b604083018190527f000000000000000000000000000000000000000000000000000000000000000060608401526020830151614f8a91612c3c565b8152670de0b6b3a7640000861161508c57614faf898983602001518460400151614dc9565b614fb887614d7f565b60006080830181905260a0830152815160c0830152805160e0830152614fdf876003614a66565b866001600160a01b0316600080516020615c5c8339815191528360000151846020015160026040518084815260200183815260200182600381111561502057fe5b8152602001935050505060405180910390a2866001600160a01b0316600080516020615df2833981519152600080600060026040518085815260200184815260200183815260200182600381111561507457fe5b815260200194505050505060405180910390a2615239565b670de0b6b3a7640000861180156150aa5750670f43fc2c04ee000086105b156150fa576150c3898983602001518460400151614dc9565b6150cc87614d7f565b815181516150db9190876159e7565b60e086015260c085015260a08401526080830152614fdf876003614a66565b670f43fc2c04ee0000861015801561511157508386105b801561511e575081518510155b1561522857615137898983602001518460400151614dc9565b8461513e57fe5b61514787614d7f565b61515a8260000151836020015185615a41565b9150615167876003614a66565b610100820151156151e75760695461010083015160408051633f10abab60e01b81526001600160a01b038b81166004830152602482019390935290519190921691633f10abab91604480830192600092919082900301818387803b1580156151ce57600080fd5b505af11580156151e2573d6000803e3d6000fd5b505050505b866001600160a01b0316600080516020615c5c83398151915283600001518460a0015160026040518084815260200183815260200182600381111561502057fe5b615230615b3e565b91506149499050565b50979650505050505050565b61524d615b3e565b6040808301519084015161526091613c9c565b60408201526060808301519084015161527891613c9c565b60608201528151602084015161528d91613c9c565b60208083019190915282015183516152a491613c9c565b8152608080830151908401516152b991613c9c565b608082015260a080830151908401516152d191613c9c565b60a082015260c080830151908401516152e991613c9c565b60c082015260e0808301519084015161530191613c9c565b60e0820152610100808301519084015161531a91613c9c565b61010082015292915050565b600080615334858585614167565b6714d1120d7b1600001195945050505050565b61534f615b3e565b615357615c3a565b61536084611faa565b6040850190815260208581019283528601929092529184529051905161538a918891889190614dc9565b61539384614d7f565b6153a082602001516141fc565b604083018190527f0000000000000000000000000000000000000000000000000000000000000000606084015260208301516000916153df9190612c3c565b90506153f0836000015182866159e7565b60e087015260c086015260a0850152608084015261540f856003614a66565b846001600160a01b0316600080516020615c5c8339815191528460000151856020015160016040518084815260200183815260200182600381111561545057fe5b8152602001935050505060405180910390a2846001600160a01b0316600080516020615df283398151915260008060006001604051808581526020018481526020018381526020018260038111156154a457fe5b815260200194505050505060405180910390a25050949350505050565b60008183106154d05781611e0b565b5090919050565b6000631f5405008211156154ed57631f54050091505b816155015750670de0b6b3a7640000610f7e565b670de0b6b3a764000083835b600181111561556c576002810661553c576155288283615ae0565b9150615535816002613692565b9050615567565b6155468284615ae0565b92506155528283615ae0565b9150615564600261159c836001612c3c565b90505b61550d565b6115a28284615ae0565b3b151590565b600254600160a81b900460ff16806155975750615597613cf6565b806155ac5750600254600160a01b900460ff16155b6155e75760405162461bcd60e51b815260040180806020018281038252602e815260200180615ccb602e913960400191505060405180910390fd5b600254600160a81b900460ff16158015613db9576002805460ff60a01b1960ff60a81b19909116600160a81b1716600160a01b1790558015610f20576002805460ff60a81b1916905550565b600254600160a81b900460ff168061564e575061564e613cf6565b806156635750600254600160a01b900460ff16155b61569e5760405162461bcd60e51b815260040180806020018281038252602e815260200180615ccb602e913960400191505060405180910390fd5b600254600160a81b900460ff161580156156d5576002805460ff60a01b1960ff60a81b19909116600160a81b1716600160a01b1790555b60006156df613c98565b603580546001600160a01b0319166001600160a01b03831690811790915560405191925090600090600080516020615dd2833981519152908290a3508015610f20576002805460ff60a81b1916905550565b6001600160a01b038116610f20576040805162461bcd60e51b815260206004820152601e60248201527f4163636f756e742063616e6e6f74206265207a65726f20616464726573730000604482015290519081900360640190fd5b6040808501516068548251632770a7eb60e21b81526001600160a01b039182166004820152602481018690529251911691639dc29fac91604480830192600092919082900301818387803b1580156157e357600080fd5b505af11580156157f7573d6000803e3d6000fd5b5050505083600001516001600160a01b0316632a7ba1f7836040518263ffffffff1660e01b815260040180828152602001915050600060405180830381600087803b15801561584557600080fd5b505af1158015615859573d6000803e3d6000fd5b505050508360a001516001600160a01b0316633f10abab84836040518363ffffffff1660e01b815260040180836001600160a01b0316815260200182815260200192505050600060405180830381600087803b1580156158b857600080fd5b505af11580156158cc573d6000803e3d6000fd5b5050505083600001516001600160a01b0316628063a58560a00151836040518363ffffffff1660e01b815260040180836001600160a01b0316815260200182815260200192505050600060405180830381600087803b15801561353957600080fd5b6001811180156159ac5750606e546040805163de8fa43160e01b815290516001926001600160a01b03169163de8fa431916004808301926020929190829003018186803b15801561597e57600080fd5b505afa158015615992573d6000803e3d6000fd5b505050506040513d60208110156159a857600080fd5b5051115b610f205760405162461bcd60e51b815260040180806020018281038252602a815260200180615d47602a913960400191505060405180910390fd5b60008080808415615a2b576159fc87866154c1565b9350615a0c8761159c8887613639565b9250615a188785612c3c565b9150615a248684612c3c565b9050615a38565b5060009250829150859050845b93509350935093565b615a49615b3e565b838152602081018390526000615a6b8361159c87670f43fc2c04ee0000613639565b9050615a76816141fc565b604083018190527f0000000000000000000000000000000000000000000000000000000000000000606084015260808301869052615ab5908290612c3c565b60a0830152615ac48482612c3c565b61010083015250600060c0820181905260e08201529392505050565b600080615aed8484613639565b90506142d0670de0b6b3a764000061159c836706f05b59d3b20000613c9c565b6040518060a00160405280600081526020016000815260200160001515815260200160008152602001600081525090565b6040518061012001604052806000815260200160008152602001600081526020016000815260200160008152602001600081526020016000815260200160008152602001600081525090565b60405180610100016040528060008152602001600081526020016000815260200160008152602001600081526020016000815260200160008152602001600081525090565b6040518060e0016040528060008152602001600081526020016000815260200160006001600160a01b0316815260200160001515815260200160008152602001600081525090565b604051806060016040528060008152602001600081526020016000151581525090565b6040518060600160405280600081526020016000815260200160008152509056feea67486ed7ebe3eea8ab3390efd4a3c8aae48be5bea27df104a8af786c4084344f776e61626c653a206e6577206f776e657220697320746865207a65726f206164647265737354726f76654d616e616765723a20556e61626c6520746f2072656465656d20616e7920616d6f756e74496e697469616c697a61626c653a20636f6e747261637420697320616c726561647920696e697469616c697a656454726f76654d616e616765723a2052657175657374656420726564656d7074696f6e20616d6f756e74206d757374206265203c3d20757365722773206465627420746f6b656e2062616c616e636554726f76654d616e616765723a204f6e6c79206f6e652074726f766520696e207468652073797374656d54726f76654d616e616765723a20526564656d7074696f6e7320617265206e6f7420616c6c6f77656420647572696e6720626f6f747374726170207068617365536166654d6174683a206d756c7469706c69636174696f6e206f766572666c6f778be0079c531659141344cd1fd0a4f28419497f9722a3daafe3b4186f6b6457e0c3770d654ed33aeea6bf11ac8ef05d02a6a04ed4686dd2f624d853bbec43cc8b54726f76654d616e616765723a2043616c6c6572206973206e6f742074686520426f72726f7765724f7065726174696f6e7320636f6e747261637454726f76654d616e616765723a2043616c6c646174612061646472657373206172726179206d757374206e6f7420626520656d70747954726f76654d616e616765723a20416d6f756e74206d7573742062652067726561746572207468616e207a65726f54726f76654d616e616765723a2046656520776f756c642065617420757020616c6c2072657475726e656420636f6c6c61746572616c4d6178206665652070657263656e74616765206d757374206265206265747765656e20302e352520616e64203130302554726f76654d616e616765723a2043616e6e6f742072656465656d207768656e20544352203c204d435254726f76654d616e616765723a206e6f7468696e6720746f206c697175696461746554726f76654d616e616765723a2054726f766520646f6573206e6f74206578697374206f7220697320636c6f736564a264697066735822122018c0eb555de0075e961db84f2f984a3bafb36d59fc8aa2194f995ee2b94dc42964736f6c63430007060033",
  "linkReferences": {},
  "deployedLinkReferences": {}
}