{
  "_format": "hh-sol-artifact-1",
  "contractName": "Unipool",
  "sourceName": "contracts/LPRewards/Unipool.sol",
  "abi": [
    {
      "anonymous": false,
      "inputs": [
        {
          "indexed": true,
          "internalType": "address",
          "name": "previousOwner",
          "type": "address"
        },
        {
          "indexed": true,
          "internalType": "address",
          "name": "newOwner",
          "type": "address"
        }
      ],
      "name": "OwnershipTransferred",
      "type": "event"
    },
    {
      "anonymous": false,
      "inputs": [
        {
          "indexed": false,
          "internalType": "address",
          "name": "_protocolTokenAddress",
          "type": "address"
        }
      ],
      "name": "ProtocolTokenAddressChanged",
      "type": "event"
    },
    {
      "anonymous": false,
      "inputs": [
        {
          "indexed": false,
          "internalType": "uint256",
          "name": "reward",
          "type": "uint256"
        }
      ],
      "name": "RewardAdded",
      "type": "event"
    },
    {
      "anonymous": false,
      "inputs": [
        {
          "indexed": true,
          "internalType": "address",
          "name": "user",
          "type": "address"
        },
        {
          "indexed": false,
          "internalType": "uint256",
          "name": "reward",
          "type": "uint256"
        }
      ],
      "name": "RewardPaid",
      "type": "event"
    },
    {
      "anonymous": false,
      "inputs": [
        {
          "indexed": true,
          "internalType": "address",
          "name": "user",
          "type": "address"
        },
        {
          "indexed": false,
          "internalType": "uint256",
          "name": "amount",
          "type": "uint256"
        }
      ],
      "name": "Staked",
      "type": "event"
    },
    {
      "anonymous": false,
      "inputs": [
        {
          "indexed": false,
          "internalType": "address",
          "name": "_uniTokenAddress",
          "type": "address"
        }
      ],
      "name": "UniTokenAddressChanged",
      "type": "event"
    },
    {
      "anonymous": false,
      "inputs": [
        {
          "indexed": true,
          "internalType": "address",
          "name": "user",
          "type": "address"
        },
        {
          "indexed": false,
          "internalType": "uint256",
          "name": "amount",
          "type": "uint256"
        }
      ],
      "name": "Withdrawn",
      "type": "event"
    },
    {
      "inputs": [],
      "name": "NAME",
      "outputs": [
        {
          "internalType": "string",
          "name": "",
          "type": "string"
        }
      ],
      "stateMutability": "view",
      "type": "function"
    },
    {
      "inputs": [
        {
          "internalType": "address",
          "name": "account",
          "type": "address"
        }
      ],
      "name": "balanceOf",
      "outputs": [
        {
          "internalType": "uint256",
          "name": "",
          "type": "uint256"
        }
      ],
      "stateMutability": "view",
      "type": "function"
    },
    {
      "inputs": [],
      "name": "claimReward",
      "outputs": [],
      "stateMutability": "nonpayable",
      "type": "function"
    },
    {
      "inputs": [],
      "name": "duration",
      "outputs": [
        {
          "internalType": "uint256",
          "name": "",
          "type": "uint256"
        }
      ],
      "stateMutability": "view",
      "type": "function"
    },
    {
      "inputs": [
        {
          "internalType": "address",
          "name": "account",
          "type": "address"
        }
      ],
      "name": "earned",
      "outputs": [
        {
          "internalType": "uint256",
          "name": "",
          "type": "uint256"
        }
      ],
      "stateMutability": "view",
      "type": "function"
    },
    {
      "inputs": [],
      "name": "initialReward",
      "outputs": [
        {
          "internalType": "uint256",
          "name": "",
          "type": "uint256"
        }
      ],
      "stateMutability": "view",
      "type": "function"
    },
    {
      "inputs": [],
      "name": "initialize",
      "outputs": [],
      "stateMutability": "nonpayable",
      "type": "function"
    },
    {
      "inputs": [],
      "name": "lastTimeRewardApplicable",
      "outputs": [
        {
          "internalType": "uint256",
          "name": "",
          "type": "uint256"
        }
      ],
      "stateMutability": "view",
      "type": "function"
    },
    {
      "inputs": [],
      "name": "lastUpdateTime",
      "outputs": [
        {
          "internalType": "uint256",
          "name": "",
          "type": "uint256"
        }
      ],
      "stateMutability": "view",
      "type": "function"
    },
    {
      "inputs": [],
      "name": "owner",
      "outputs": [
        {
          "internalType": "address",
          "name": "",
          "type": "address"
        }
      ],
      "stateMutability": "view",
      "type": "function"
    },
    {
      "inputs": [],
      "name": "periodFinish",
      "outputs": [
        {
          "internalType": "uint256",
          "name": "",
          "type": "uint256"
        }
      ],
      "stateMutability": "view",
      "type": "function"
    },
    {
      "inputs": [],
      "name": "protocolToken",
      "outputs": [
        {
          "internalType": "contract IProtocolToken",
          "name": "",
          "type": "address"
        }
      ],
      "stateMutability": "view",
      "type": "function"
    },
    {
      "inputs": [],
      "name": "renounceOwnership",
      "outputs": [],
      "stateMutability": "nonpayable",
      "type": "function"
    },
    {
      "inputs": [],
      "name": "rewardPerToken",
      "outputs": [
        {
          "internalType": "uint256",
          "name": "",
          "type": "uint256"
        }
      ],
      "stateMutability": "view",
      "type": "function"
    },
    {
      "inputs": [],
      "name": "rewardPerTokenStored",
      "outputs": [
        {
          "internalType": "uint256",
          "name": "",
          "type": "uint256"
        }
      ],
      "stateMutability": "view",
      "type": "function"
    },
    {
      "inputs": [],
      "name": "rewardRate",
      "outputs": [
        {
          "internalType": "uint256",
          "name": "",
          "type": "uint256"
        }
      ],
      "stateMutability": "view",
      "type": "function"
    },
    {
      "inputs": [
        {
          "internalType": "address",
          "name": "",
          "type": "address"
        }
      ],
      "name": "rewards",
      "outputs": [
        {
          "internalType": "uint256",
          "name": "",
          "type": "uint256"
        }
      ],
      "stateMutability": "view",
      "type": "function"
    },
    {
      "inputs": [
        {
          "internalType": "address",
          "name": "_protocolTokenAddress",
          "type": "address"
        },
        {
          "internalType": "address",
          "name": "_uniTokenAddress",
          "type": "address"
        },
        {
          "internalType": "uint256",
          "name": "_duration",
          "type": "uint256"
        }
      ],
      "name": "setParams",
      "outputs": [],
      "stateMutability": "nonpayable",
      "type": "function"
    },
    {
      "inputs": [
        {
          "internalType": "uint256",
          "name": "amount",
          "type": "uint256"
        }
      ],
      "name": "stake",
      "outputs": [],
      "stateMutability": "nonpayable",
      "type": "function"
    },
    {
      "inputs": [],
      "name": "totalSupply",
      "outputs": [
        {
          "internalType": "uint256",
          "name": "",
          "type": "uint256"
        }
      ],
      "stateMutability": "view",
      "type": "function"
    },
    {
      "inputs": [
        {
          "internalType": "address",
          "name": "newOwner",
          "type": "address"
        }
      ],
      "name": "transferOwnership",
      "outputs": [],
      "stateMutability": "nonpayable",
      "type": "function"
    },
    {
      "inputs": [],
      "name": "uniToken",
      "outputs": [
        {
          "internalType": "contract IERC20",
          "name": "",
          "type": "address"
        }
      ],
      "stateMutability": "view",
      "type": "function"
    },
    {
      "inputs": [
        {
          "internalType": "address",
          "name": "",
          "type": "address"
        }
      ],
      "name": "userRewardPerTokenPaid",
      "outputs": [
        {
          "internalType": "uint256",
          "name": "",
          "type": "uint256"
        }
      ],
      "stateMutability": "view",
      "type": "function"
    },
    {
      "inputs": [
        {
          "internalType": "uint256",
          "name": "amount",
          "type": "uint256"
        }
      ],
      "name": "withdraw",
      "outputs": [],
      "stateMutability": "nonpayable",
      "type": "function"
    },
    {
      "inputs": [],
      "name": "withdrawAndClaim",
      "outputs": [],
      "stateMutability": "nonpayable",
      "type": "function"
    }
  ],
  "bytecode": "0x608060405234801561001057600080fd5b50611760806100206000396000f3fe608060405234801561001057600080fd5b50600436106101625760003560e01c806385ce4fee116100ce578063b88a802f11610087578063b88a802f1461036c578063c8f33c9114610374578063cd3daf9d1461037c578063d443772414610384578063df136d651461038c578063ebe2b12b14610394578063f2fde38b1461039c57610162565b806385ce4fee146102945780638b8763471461029c5780638da5cb5b146102c2578063a3f4df7e146102ca578063a694fc3a14610347578063abee967c1461036457610162565b8063509db2f611610120578063509db2f61461021857806370a082311461024e578063715018a6146102745780637b0a47ee1461027c57806380faa57d146102845780638129fc1c1461028c57610162565b80628cc262146101675780630700037d1461019f5780630fb5a6b4146101c557806318160ddd146101cd5780631a465fe1146101d55780632e1a7d4d146101f9575b600080fd5b61018d6004803603602081101561017d57600080fd5b50356001600160a01b03166103c2565b60408051918252519081900360200190f35b61018d600480360360208110156101b557600080fd5b50356001600160a01b0316610430565b61018d610442565b61018d610448565b6101dd61044f565b604080516001600160a01b039092168252519081900360200190f35b6102166004803603602081101561020f57600080fd5b503561045e565b005b6102166004803603606081101561022e57600080fd5b506001600160a01b03813581169160208101359091169060400135610539565b61018d6004803603602081101561026457600080fd5b50356001600160a01b03166106d6565b6102166106f1565b61018d61078b565b61018d610791565b6102166107a4565b6101dd610858565b61018d600480360360208110156102b257600080fd5b50356001600160a01b0316610867565b6101dd610879565b6102d2610888565b6040805160208082528351818301528351919283929083019185019080838360005b8381101561030c5781810151838201526020016102f4565b50505050905090810190601f1680156103395780820380516001836020036101000a031916815260200191505b509250505060405180910390f35b6102166004803603602081101561035d57600080fd5b50356108ab565b61018d61098b565b610216610991565b61018d610b08565b61018d610b0e565b610216610b5c565b61018d610b77565b61018d610b7d565b610216600480360360208110156103b257600080fd5b50356001600160a01b0316610b83565b6001600160a01b038116600090815260706020908152604080832054606f90925282205461042a919061042490670de0b6b3a76400009061041e9061040f90610409610b0e565b90610c74565b610418886106d6565b90610cd1565b90610d31565b90610d98565b92915050565b60706020526000908152604090205481565b60685481565b6001545b90565b6069546001600160a01b031681565b600081116104a7576040805162461bcd60e51b8152602060048201526011602482015270043616e6e6f74207769746864726177203607c1b604482015290519081900360640190fd5b6000546001600160a01b03166104ee5760405162461bcd60e51b81526004018080602001828103825260298152602001806115fd6029913960400191505060405180910390fd5b6104f733610df2565b61050081610e41565b60408051828152905133917f7084f5476618d8e60b11ef0d7d3f06914655adb8793e28ff7f018d4c76d505d5919081900360200190a250565b610541610e96565b6001600160a01b0316610552610879565b6001600160a01b03161461059b576040805162461bcd60e51b815260206004820181905260248201526000805160206116c1833981519152604482015290519081900360640190fd5b6105a483610e9a565b6105ad82610e9a565b600080546001600160a01b038085166001600160a01b03199283161790925560698054868416921691909117908190556068839055604080516370a0823160e01b815230600482015290516106599392909216916370a0823191602480820192602092909190829003018186803b15801561062757600080fd5b505afa15801561063b573d6000803e3d6000fd5b505050506040513d602081101561065157600080fd5b505182610ef5565b604080516001600160a01b038516815290517f7b0c6ae24561d189fc90b337cbc97aa15d085bef32931237a762e3e528b285b49181900360200190a1604080516001600160a01b038416815290517f15cb6984f76cb781da2b25c2024a3eaf5011914976381f844e09724cc9e21e949181900360200190a1505050565b6001600160a01b031660009081526002602052604090205490565b6106f9610e96565b6001600160a01b031661070a610879565b6001600160a01b031614610753576040805162461bcd60e51b815260206004820181905260248201526000805160206116c1833981519152604482015290519081900360640190fd5b6036546040516000916001600160a01b0316906000805160206116e1833981519152908390a3603680546001600160a01b0319169055565b606b5481565b600061079f42606a54610f6d565b905090565b600354610100900460ff16806107bd57506107bd610f83565b806107cb575060035460ff16155b6108065760405162461bcd60e51b815260040180806020018281038252602e815260200180611672602e913960400191505060405180910390fd5b600354610100900460ff16158015610831576003805460ff1961ff0019909116610100171660011790555b610839610f94565b6000606a819055606b558015610855576003805461ff00191690555b50565b6000546001600160a01b031681565b606f6020526000908152604090205481565b6036546001600160a01b031690565b60405180604001604052806007815260200166155b9a5c1bdbdb60ca1b81525081565b600081116108f1576040805162461bcd60e51b815260206004820152600e60248201526d043616e6e6f74207374616b6520360941b604482015290519081900360640190fd5b6000546001600160a01b03166109385760405162461bcd60e51b81526004018080602001828103825260298152602001806115fd6029913960400191505060405180910390fd5b610940611045565b61094933610df2565b61095281611083565b60408051828152905133917f9e71bc8eea02a63969f509818f2dafb9254532904319f9dbda79b67bd34a5f3d919081900360200190a250565b606c5481565b6000546001600160a01b03166109d85760405162461bcd60e51b81526004018080602001828103825260298152602001806115fd6029913960400191505060405180910390fd5b6109e0611045565b6109e933610df2565b60006109f4336103c2565b905060008111610a3e576040805162461bcd60e51b815260206004820152601060248201526f4e6f7468696e6720746f20636c61696d60801b604482015290519081900360640190fd5b336000818152607060209081526040808320839055606954815163a9059cbb60e01b815260048101959095526024850186905290516001600160a01b039091169363a9059cbb9360448083019493928390030190829087803b158015610aa357600080fd5b505af1158015610ab7573d6000803e3d6000fd5b505050506040513d6020811015610acd57600080fd5b505060408051828152905133917fe2403640ba68fed3a2f88b7557551d1993f84b99bb10ff833f0cf8db0c5e0486919081900360200190a250565b606d5481565b6000610b18610448565b610b255750606e5461044c565b61079f610b53610b33610448565b61041e670de0b6b3a7640000610418606b54610418606d54610409610791565b606e5490610d98565b610b6d610b68336106d6565b61045e565b610b75610991565b565b606e5481565b606a5481565b610b8b610e96565b6001600160a01b0316610b9c610879565b6001600160a01b031614610be5576040805162461bcd60e51b815260206004820181905260248201526000805160206116c1833981519152604482015290519081900360640190fd5b6001600160a01b038116610c2a5760405162461bcd60e51b81526004018080602001828103825260268152602001806116266026913960400191505060405180910390fd5b6036546040516001600160a01b038084169216906000805160206116e183398151915290600090a3603680546001600160a01b0319166001600160a01b0392909216919091179055565b600082821115610ccb576040805162461bcd60e51b815260206004820152601e60248201527f536166654d6174683a207375627472616374696f6e206f766572666c6f770000604482015290519081900360640190fd5b50900390565b600082610ce05750600061042a565b82820282848281610ced57fe5b0414610d2a5760405162461bcd60e51b81526004018080602001828103825260218152602001806116a06021913960400191505060405180910390fd5b9392505050565b6000808211610d87576040805162461bcd60e51b815260206004820152601a60248201527f536166654d6174683a206469766973696f6e206279207a65726f000000000000604482015290519081900360640190fd5b818381610d9057fe5b049392505050565b600082820183811015610d2a576040805162461bcd60e51b815260206004820152601b60248201527f536166654d6174683a206164646974696f6e206f766572666c6f770000000000604482015290519081900360640190fd5b610dfa6110d9565b6001600160a01b038116610e0a57fe5b610e13816103c2565b6001600160a01b03909116600090815260706020908152604080832093909355606e54606f90915291902055565b600154610e4e9082610c74565b60015533600090815260026020526040902054610e6b9082610c74565b336000818152600260205260408120929092559054610855916001600160a01b0390911690836110f1565b3390565b6001600160a01b038116610855576040805162461bcd60e51b815260206004820152601e60248201527f4163636f756e742063616e6e6f74206265207a65726f20616464726573730000604482015290519081900360640190fd5b60008211610eff57fe5b606a5415610f0957fe5b610f116110d9565b606c829055610f208282610d31565b606b5542606d819055610f339082610d98565b606a556040805183815290517fde88a922e0d3b88b24e9623efeb464919c6bf9f66857a65e2bfcf2ce87a9433d9181900360200190a15050565b6000818310610f7c5781610d2a565b5090919050565b6000610f8e30611148565b15905090565b600354610100900460ff1680610fad5750610fad610f83565b80610fbb575060035460ff16155b610ff65760405162461bcd60e51b815260040180806020018281038252602e815260200180611672602e913960400191505060405180910390fd5b600354610100900460ff16158015611021576003805460ff1961ff0019909116610100171660011790555b61102961114e565b6110316111ee565b8015610855576003805461ff001916905550565b61104d610448565b610b75576000606a541161105d57fe5b61107e611075606d5442610c7490919063ffffffff16565b606a5490610d98565b606a55565b6001546110909082610d98565b600155336000908152600260205260409020546110ad9082610d98565b336000818152600260205260408120929092559054610855916001600160a01b039091169030846112d5565b6110e1610b0e565b606e556110ec610791565b606d55565b604080516001600160a01b038416602482015260448082018490528251808303909101815260649091019091526020810180516001600160e01b031663a9059cbb60e01b179052611143908490611335565b505050565b3b151590565b600354610100900460ff16806111675750611167610f83565b80611175575060035460ff16155b6111b05760405162461bcd60e51b815260040180806020018281038252602e815260200180611672602e913960400191505060405180910390fd5b600354610100900460ff16158015611031576003805460ff1961ff0019909116610100171660011790558015610855576003805461ff001916905550565b600354610100900460ff16806112075750611207610f83565b80611215575060035460ff16155b6112505760405162461bcd60e51b815260040180806020018281038252602e815260200180611672602e913960400191505060405180910390fd5b600354610100900460ff1615801561127b576003805460ff1961ff0019909116610100171660011790555b6000611285610e96565b603680546001600160a01b0319166001600160a01b038316908117909155604051919250906000906000805160206116e1833981519152908290a3508015610855576003805461ff001916905550565b604080516001600160a01b0380861660248301528416604482015260648082018490528251808303909101815260849091019091526020810180516001600160e01b03166323b872dd60e01b17905261132f908590611335565b50505050565b600061138a826040518060400160405280602081526020017f5361666545524332303a206c6f772d6c6576656c2063616c6c206661696c6564815250856001600160a01b03166113e69092919063ffffffff16565b805190915015611143578080602001905160208110156113a957600080fd5b50516111435760405162461bcd60e51b815260040180806020018281038252602a815260200180611701602a913960400191505060405180910390fd5b60606113f584846000856113fd565b949350505050565b60608247101561143e5760405162461bcd60e51b815260040180806020018281038252602681526020018061164c6026913960400191505060405180910390fd5b61144785611148565b611498576040805162461bcd60e51b815260206004820152601d60248201527f416464726573733a2063616c6c20746f206e6f6e2d636f6e7472616374000000604482015290519081900360640190fd5b600080866001600160a01b031685876040518082805190602001908083835b602083106114d65780518252601f1990920191602091820191016114b7565b6001836020036101000a03801982511681845116808217855250505050505090500191505060006040518083038185875af1925050503d8060008114611538576040519150601f19603f3d011682016040523d82523d6000602084013e61153d565b606091505b509150915061154d828286611558565b979650505050505050565b60608315611567575081610d2a565b8251156115775782518084602001fd5b8160405162461bcd60e51b81526004018080602001828103825283818151815260200191508051906020019080838360005b838110156115c15781810151838201526020016115a9565b50505050905090810190601f1680156115ee5780820380516001836020036101000a031916815260200191505b509250505060405180910390fdfe4c697175696469747920506f6f6c20546f6b656e20686173206e6f74206265656e20736574207965744f776e61626c653a206e6577206f776e657220697320746865207a65726f2061646472657373416464726573733a20696e73756666696369656e742062616c616e636520666f722063616c6c496e697469616c697a61626c653a20636f6e747261637420697320616c726561647920696e697469616c697a6564536166654d6174683a206d756c7469706c69636174696f6e206f766572666c6f774f776e61626c653a2063616c6c6572206973206e6f7420746865206f776e65728be0079c531659141344cd1fd0a4f28419497f9722a3daafe3b4186f6b6457e05361666545524332303a204552433230206f7065726174696f6e20646964206e6f742073756363656564a264697066735822122068746402e33e6b6a0c99ba16956cba9a19f3d18e0ec3965f636874d88f69374364736f6c63430007060033",
  "linkReferences": {},
  "deployedLinkReferences": {}
}