{
  "_format": "hh-sol-artifact-1",
  "contractName": "Unipool",
  "sourceName": "contracts/LPRewards/Unipool.sol",
  "abi": [
    {
      "inputs": [],
      "stateMutability": "nonpayable",
      "type": "constructor"
    },
    {
      "anonymous": false,
      "inputs": [
        {
          "indexed": true,
          "internalType": "address",
          "name": "previousOwner",
          "type": "address"
        },
        {
          "indexed": true,
          "internalType": "address",
          "name": "newOwner",
          "type": "address"
        }
      ],
      "name": "OwnershipTransferred",
      "type": "event"
    },
    {
      "anonymous": false,
      "inputs": [
        {
          "indexed": false,
          "internalType": "address",
          "name": "_protocolTokenAddress",
          "type": "address"
        }
      ],
      "name": "ProtocolTokenAddressChanged",
      "type": "event"
    },
    {
      "anonymous": false,
      "inputs": [
        {
          "indexed": false,
          "internalType": "uint256",
          "name": "reward",
          "type": "uint256"
        }
      ],
      "name": "RewardAdded",
      "type": "event"
    },
    {
      "anonymous": false,
      "inputs": [
        {
          "indexed": true,
          "internalType": "address",
          "name": "user",
          "type": "address"
        },
        {
          "indexed": false,
          "internalType": "uint256",
          "name": "reward",
          "type": "uint256"
        }
      ],
      "name": "RewardPaid",
      "type": "event"
    },
    {
      "anonymous": false,
      "inputs": [
        {
          "indexed": true,
          "internalType": "address",
          "name": "user",
          "type": "address"
        },
        {
          "indexed": false,
          "internalType": "uint256",
          "name": "amount",
          "type": "uint256"
        }
      ],
      "name": "Staked",
      "type": "event"
    },
    {
      "anonymous": false,
      "inputs": [
        {
          "indexed": false,
          "internalType": "address",
          "name": "_uniTokenAddress",
          "type": "address"
        }
      ],
      "name": "UniTokenAddressChanged",
      "type": "event"
    },
    {
      "anonymous": false,
      "inputs": [
        {
          "indexed": true,
          "internalType": "address",
          "name": "user",
          "type": "address"
        },
        {
          "indexed": false,
          "internalType": "uint256",
          "name": "amount",
          "type": "uint256"
        }
      ],
      "name": "Withdrawn",
      "type": "event"
    },
    {
      "inputs": [],
      "name": "NAME",
      "outputs": [
        {
          "internalType": "string",
          "name": "",
          "type": "string"
        }
      ],
      "stateMutability": "view",
      "type": "function"
    },
    {
      "inputs": [
        {
          "internalType": "address",
          "name": "account",
          "type": "address"
        }
      ],
      "name": "balanceOf",
      "outputs": [
        {
          "internalType": "uint256",
          "name": "",
          "type": "uint256"
        }
      ],
      "stateMutability": "view",
      "type": "function"
    },
    {
      "inputs": [],
      "name": "claimReward",
      "outputs": [],
      "stateMutability": "nonpayable",
      "type": "function"
    },
    {
      "inputs": [],
      "name": "duration",
      "outputs": [
        {
          "internalType": "uint256",
          "name": "",
          "type": "uint256"
        }
      ],
      "stateMutability": "view",
      "type": "function"
    },
    {
      "inputs": [
        {
          "internalType": "address",
          "name": "account",
          "type": "address"
        }
      ],
      "name": "earned",
      "outputs": [
        {
          "internalType": "uint256",
          "name": "",
          "type": "uint256"
        }
      ],
      "stateMutability": "view",
      "type": "function"
    },
    {
      "inputs": [],
      "name": "initialReward",
      "outputs": [
        {
          "internalType": "uint256",
          "name": "",
          "type": "uint256"
        }
      ],
      "stateMutability": "view",
      "type": "function"
    },
    {
      "inputs": [],
      "name": "initialize",
      "outputs": [],
      "stateMutability": "nonpayable",
      "type": "function"
    },
    {
      "inputs": [],
      "name": "lastTimeRewardApplicable",
      "outputs": [
        {
          "internalType": "uint256",
          "name": "",
          "type": "uint256"
        }
      ],
      "stateMutability": "view",
      "type": "function"
    },
    {
      "inputs": [],
      "name": "lastUpdateTime",
      "outputs": [
        {
          "internalType": "uint256",
          "name": "",
          "type": "uint256"
        }
      ],
      "stateMutability": "view",
      "type": "function"
    },
    {
      "inputs": [],
      "name": "owner",
      "outputs": [
        {
          "internalType": "address",
          "name": "",
          "type": "address"
        }
      ],
      "stateMutability": "view",
      "type": "function"
    },
    {
      "inputs": [],
      "name": "periodFinish",
      "outputs": [
        {
          "internalType": "uint256",
          "name": "",
          "type": "uint256"
        }
      ],
      "stateMutability": "view",
      "type": "function"
    },
    {
      "inputs": [],
      "name": "protocolToken",
      "outputs": [
        {
          "internalType": "contract IProtocolToken",
          "name": "",
          "type": "address"
        }
      ],
      "stateMutability": "view",
      "type": "function"
    },
    {
      "inputs": [],
      "name": "renounceOwnership",
      "outputs": [],
      "stateMutability": "nonpayable",
      "type": "function"
    },
    {
      "inputs": [],
      "name": "rewardPerToken",
      "outputs": [
        {
          "internalType": "uint256",
          "name": "",
          "type": "uint256"
        }
      ],
      "stateMutability": "view",
      "type": "function"
    },
    {
      "inputs": [],
      "name": "rewardPerTokenStored",
      "outputs": [
        {
          "internalType": "uint256",
          "name": "",
          "type": "uint256"
        }
      ],
      "stateMutability": "view",
      "type": "function"
    },
    {
      "inputs": [],
      "name": "rewardRate",
      "outputs": [
        {
          "internalType": "uint256",
          "name": "",
          "type": "uint256"
        }
      ],
      "stateMutability": "view",
      "type": "function"
    },
    {
      "inputs": [
        {
          "internalType": "address",
          "name": "",
          "type": "address"
        }
      ],
      "name": "rewards",
      "outputs": [
        {
          "internalType": "uint256",
          "name": "",
          "type": "uint256"
        }
      ],
      "stateMutability": "view",
      "type": "function"
    },
    {
      "inputs": [
        {
          "internalType": "address",
          "name": "_protocolTokenAddress",
          "type": "address"
        },
        {
          "internalType": "address",
          "name": "_uniTokenAddress",
          "type": "address"
        },
        {
          "internalType": "uint256",
          "name": "_duration",
          "type": "uint256"
        }
      ],
      "name": "setParams",
      "outputs": [],
      "stateMutability": "nonpayable",
      "type": "function"
    },
    {
      "inputs": [
        {
          "internalType": "uint256",
          "name": "amount",
          "type": "uint256"
        }
      ],
      "name": "stake",
      "outputs": [],
      "stateMutability": "nonpayable",
      "type": "function"
    },
    {
      "inputs": [],
      "name": "totalSupply",
      "outputs": [
        {
          "internalType": "uint256",
          "name": "",
          "type": "uint256"
        }
      ],
      "stateMutability": "view",
      "type": "function"
    },
    {
      "inputs": [
        {
          "internalType": "address",
          "name": "newOwner",
          "type": "address"
        }
      ],
      "name": "transferOwnership",
      "outputs": [],
      "stateMutability": "nonpayable",
      "type": "function"
    },
    {
      "inputs": [],
      "name": "uniToken",
      "outputs": [
        {
          "internalType": "contract IERC20",
          "name": "",
          "type": "address"
        }
      ],
      "stateMutability": "view",
      "type": "function"
    },
    {
      "inputs": [
        {
          "internalType": "address",
          "name": "",
          "type": "address"
        }
      ],
      "name": "userRewardPerTokenPaid",
      "outputs": [
        {
          "internalType": "uint256",
          "name": "",
          "type": "uint256"
        }
      ],
      "stateMutability": "view",
      "type": "function"
    },
    {
      "inputs": [
        {
          "internalType": "uint256",
          "name": "amount",
          "type": "uint256"
        }
      ],
      "name": "withdraw",
      "outputs": [],
      "stateMutability": "nonpayable",
      "type": "function"
    },
    {
      "inputs": [],
      "name": "withdrawAndClaim",
      "outputs": [],
      "stateMutability": "nonpayable",
      "type": "function"
    }
  ],
  "bytecode": "0x60806040523480156200001157600080fd5b50603254610100900460ff16806200002e57506200002e620000c0565b806200003d575060325460ff16155b6200007a5760405162461bcd60e51b815260040180806020018281038252602e81526020018062001854602e913960400191505060405180910390fd5b603254610100900460ff16158015620000a6576032805460ff1961ff0019909116610100171660011790555b8015620000b9576032805461ff00191690555b50620000e4565b6000620000d830620000de60201b62000c741760201c565b15905090565b3b151590565b61176080620000f46000396000f3fe608060405234801561001057600080fd5b50600436106101625760003560e01c806385ce4fee116100ce578063b88a802f11610087578063b88a802f1461036c578063c8f33c9114610374578063cd3daf9d1461037c578063d443772414610384578063df136d651461038c578063ebe2b12b14610394578063f2fde38b1461039c57610162565b806385ce4fee146102945780638b8763471461029c5780638da5cb5b146102c2578063a3f4df7e146102ca578063a694fc3a14610347578063abee967c1461036457610162565b8063509db2f611610120578063509db2f61461021857806370a082311461024e578063715018a6146102745780637b0a47ee1461027c57806380faa57d146102845780638129fc1c1461028c57610162565b80628cc262146101675780630700037d1461019f5780630fb5a6b4146101c557806318160ddd146101cd5780631a465fe1146101d55780632e1a7d4d146101f9575b600080fd5b61018d6004803603602081101561017d57600080fd5b50356001600160a01b03166103c2565b60408051918252519081900360200190f35b61018d600480360360208110156101b557600080fd5b50356001600160a01b0316610430565b61018d610442565b61018d610448565b6101dd61044f565b604080516001600160a01b039092168252519081900360200190f35b6102166004803603602081101561020f57600080fd5b503561045e565b005b6102166004803603606081101561022e57600080fd5b506001600160a01b03813581169160208101359091169060400135610539565b61018d6004803603602081101561026457600080fd5b50356001600160a01b03166106d6565b6102166106f1565b61018d61078b565b61018d610791565b6102166107a4565b6101dd610858565b61018d600480360360208110156102b257600080fd5b50356001600160a01b0316610867565b6101dd610879565b6102d2610888565b6040805160208082528351818301528351919283929083019185019080838360005b8381101561030c5781810151838201526020016102f4565b50505050905090810190601f1680156103395780820380516001836020036101000a031916815260200191505b509250505060405180910390f35b6102166004803603602081101561035d57600080fd5b50356108ab565b61018d61098b565b610216610991565b61018d610b08565b61018d610b0e565b610216610b5c565b61018d610b77565b61018d610b7d565b610216600480360360208110156103b257600080fd5b50356001600160a01b0316610b83565b6001600160a01b0381166000908152609f6020908152604080832054609e90925282205461042a919061042490670de0b6b3a76400009061041e9061040f90610409610b0e565b90610c7a565b610418886106d6565b90610cd7565b90610d37565b90610d9e565b92915050565b609f6020526000908152604090205481565b60975481565b6001545b90565b6098546001600160a01b031681565b600081116104a7576040805162461bcd60e51b8152602060048201526011602482015270043616e6e6f74207769746864726177203607c1b604482015290519081900360640190fd5b6000546001600160a01b03166104ee5760405162461bcd60e51b81526004018080602001828103825260298152602001806115fd6029913960400191505060405180910390fd5b6104f733610df8565b61050081610e47565b60408051828152905133917f7084f5476618d8e60b11ef0d7d3f06914655adb8793e28ff7f018d4c76d505d5919081900360200190a250565b610541610e9c565b6001600160a01b0316610552610879565b6001600160a01b03161461059b576040805162461bcd60e51b815260206004820181905260248201526000805160206116c1833981519152604482015290519081900360640190fd5b6105a483610ea0565b6105ad82610ea0565b600080546001600160a01b038085166001600160a01b03199283161790925560988054868416921691909117908190556097839055604080516370a0823160e01b815230600482015290516106599392909216916370a0823191602480820192602092909190829003018186803b15801561062757600080fd5b505afa15801561063b573d6000803e3d6000fd5b505050506040513d602081101561065157600080fd5b505182610efb565b604080516001600160a01b038516815290517f7b0c6ae24561d189fc90b337cbc97aa15d085bef32931237a762e3e528b285b49181900360200190a1604080516001600160a01b038416815290517f15cb6984f76cb781da2b25c2024a3eaf5011914976381f844e09724cc9e21e949181900360200190a1505050565b6001600160a01b031660009081526002602052604090205490565b6106f9610e9c565b6001600160a01b031661070a610879565b6001600160a01b031614610753576040805162461bcd60e51b815260206004820181905260248201526000805160206116c1833981519152604482015290519081900360640190fd5b6065546040516000916001600160a01b0316906000805160206116e1833981519152908390a3606580546001600160a01b0319169055565b609a5481565b600061079f42609954610f73565b905090565b603254610100900460ff16806107bd57506107bd610f89565b806107cb575060325460ff16155b6108065760405162461bcd60e51b815260040180806020018281038252602e815260200180611672602e913960400191505060405180910390fd5b603254610100900460ff16158015610831576032805460ff1961ff0019909116610100171660011790555b610839610f9a565b60006099819055609a558015610855576032805461ff00191690555b50565b6000546001600160a01b031681565b609e6020526000908152604090205481565b6065546001600160a01b031690565b60405180604001604052806007815260200166155b9a5c1bdbdb60ca1b81525081565b600081116108f1576040805162461bcd60e51b815260206004820152600e60248201526d043616e6e6f74207374616b6520360941b604482015290519081900360640190fd5b6000546001600160a01b03166109385760405162461bcd60e51b81526004018080602001828103825260298152602001806115fd6029913960400191505060405180910390fd5b61094061104b565b61094933610df8565b61095281611089565b60408051828152905133917f9e71bc8eea02a63969f509818f2dafb9254532904319f9dbda79b67bd34a5f3d919081900360200190a250565b609b5481565b6000546001600160a01b03166109d85760405162461bcd60e51b81526004018080602001828103825260298152602001806115fd6029913960400191505060405180910390fd5b6109e061104b565b6109e933610df8565b60006109f4336103c2565b905060008111610a3e576040805162461bcd60e51b815260206004820152601060248201526f4e6f7468696e6720746f20636c61696d60801b604482015290519081900360640190fd5b336000818152609f60209081526040808320839055609854815163a9059cbb60e01b815260048101959095526024850186905290516001600160a01b039091169363a9059cbb9360448083019493928390030190829087803b158015610aa357600080fd5b505af1158015610ab7573d6000803e3d6000fd5b505050506040513d6020811015610acd57600080fd5b505060408051828152905133917fe2403640ba68fed3a2f88b7557551d1993f84b99bb10ff833f0cf8db0c5e0486919081900360200190a250565b609c5481565b6000610b18610448565b610b255750609d5461044c565b61079f610b53610b33610448565b61041e670de0b6b3a7640000610418609a54610418609c54610409610791565b609d5490610d9e565b610b6d610b68336106d6565b61045e565b610b75610991565b565b609d5481565b60995481565b610b8b610e9c565b6001600160a01b0316610b9c610879565b6001600160a01b031614610be5576040805162461bcd60e51b815260206004820181905260248201526000805160206116c1833981519152604482015290519081900360640190fd5b6001600160a01b038116610c2a5760405162461bcd60e51b81526004018080602001828103825260268152602001806116266026913960400191505060405180910390fd5b6065546040516001600160a01b038084169216906000805160206116e183398151915290600090a3606580546001600160a01b0319166001600160a01b0392909216919091179055565b3b151590565b600082821115610cd1576040805162461bcd60e51b815260206004820152601e60248201527f536166654d6174683a207375627472616374696f6e206f766572666c6f770000604482015290519081900360640190fd5b50900390565b600082610ce65750600061042a565b82820282848281610cf357fe5b0414610d305760405162461bcd60e51b81526004018080602001828103825260218152602001806116a06021913960400191505060405180910390fd5b9392505050565b6000808211610d8d576040805162461bcd60e51b815260206004820152601a60248201527f536166654d6174683a206469766973696f6e206279207a65726f000000000000604482015290519081900360640190fd5b818381610d9657fe5b049392505050565b600082820183811015610d30576040805162461bcd60e51b815260206004820152601b60248201527f536166654d6174683a206164646974696f6e206f766572666c6f770000000000604482015290519081900360640190fd5b610e006110df565b6001600160a01b038116610e1057fe5b610e19816103c2565b6001600160a01b039091166000908152609f6020908152604080832093909355609d54609e90915291902055565b600154610e549082610c7a565b60015533600090815260026020526040902054610e719082610c7a565b336000818152600260205260408120929092559054610855916001600160a01b0390911690836110f7565b3390565b6001600160a01b038116610855576040805162461bcd60e51b815260206004820152601e60248201527f4163636f756e742063616e6e6f74206265207a65726f20616464726573730000604482015290519081900360640190fd5b60008211610f0557fe5b60995415610f0f57fe5b610f176110df565b609b829055610f268282610d37565b609a5542609c819055610f399082610d9e565b6099556040805183815290517fde88a922e0d3b88b24e9623efeb464919c6bf9f66857a65e2bfcf2ce87a9433d9181900360200190a15050565b6000818310610f825781610d30565b5090919050565b6000610f9430610c74565b15905090565b603254610100900460ff1680610fb35750610fb3610f89565b80610fc1575060325460ff16155b610ffc5760405162461bcd60e51b815260040180806020018281038252602e815260200180611672602e913960400191505060405180910390fd5b603254610100900460ff16158015611027576032805460ff1961ff0019909116610100171660011790555b61102f61114e565b6110376111ee565b8015610855576032805461ff001916905550565b611053610448565b610b755760006099541161106357fe5b61108461107b609c5442610c7a90919063ffffffff16565b60995490610d9e565b609955565b6001546110969082610d9e565b600155336000908152600260205260409020546110b39082610d9e565b336000818152600260205260408120929092559054610855916001600160a01b039091169030846112d5565b6110e7610b0e565b609d556110f2610791565b609c55565b604080516001600160a01b038416602482015260448082018490528251808303909101815260649091019091526020810180516001600160e01b031663a9059cbb60e01b179052611149908490611335565b505050565b603254610100900460ff16806111675750611167610f89565b80611175575060325460ff16155b6111b05760405162461bcd60e51b815260040180806020018281038252602e815260200180611672602e913960400191505060405180910390fd5b603254610100900460ff16158015611037576032805460ff1961ff0019909116610100171660011790558015610855576032805461ff001916905550565b603254610100900460ff16806112075750611207610f89565b80611215575060325460ff16155b6112505760405162461bcd60e51b815260040180806020018281038252602e815260200180611672602e913960400191505060405180910390fd5b603254610100900460ff1615801561127b576032805460ff1961ff0019909116610100171660011790555b6000611285610e9c565b606580546001600160a01b0319166001600160a01b038316908117909155604051919250906000906000805160206116e1833981519152908290a3508015610855576032805461ff001916905550565b604080516001600160a01b0380861660248301528416604482015260648082018490528251808303909101815260849091019091526020810180516001600160e01b03166323b872dd60e01b17905261132f908590611335565b50505050565b600061138a826040518060400160405280602081526020017f5361666545524332303a206c6f772d6c6576656c2063616c6c206661696c6564815250856001600160a01b03166113e69092919063ffffffff16565b805190915015611149578080602001905160208110156113a957600080fd5b50516111495760405162461bcd60e51b815260040180806020018281038252602a815260200180611701602a913960400191505060405180910390fd5b60606113f584846000856113fd565b949350505050565b60608247101561143e5760405162461bcd60e51b815260040180806020018281038252602681526020018061164c6026913960400191505060405180910390fd5b61144785610c74565b611498576040805162461bcd60e51b815260206004820152601d60248201527f416464726573733a2063616c6c20746f206e6f6e2d636f6e7472616374000000604482015290519081900360640190fd5b600080866001600160a01b031685876040518082805190602001908083835b602083106114d65780518252601f1990920191602091820191016114b7565b6001836020036101000a03801982511681845116808217855250505050505090500191505060006040518083038185875af1925050503d8060008114611538576040519150601f19603f3d011682016040523d82523d6000602084013e61153d565b606091505b509150915061154d828286611558565b979650505050505050565b60608315611567575081610d30565b8251156115775782518084602001fd5b8160405162461bcd60e51b81526004018080602001828103825283818151815260200191508051906020019080838360005b838110156115c15781810151838201526020016115a9565b50505050905090810190601f1680156115ee5780820380516001836020036101000a031916815260200191505b509250505060405180910390fdfe4c697175696469747920506f6f6c20546f6b656e20686173206e6f74206265656e20736574207965744f776e61626c653a206e6577206f776e657220697320746865207a65726f2061646472657373416464726573733a20696e73756666696369656e742062616c616e636520666f722063616c6c496e697469616c697a61626c653a20636f6e747261637420697320616c726561647920696e697469616c697a6564536166654d6174683a206d756c7469706c69636174696f6e206f766572666c6f774f776e61626c653a2063616c6c6572206973206e6f7420746865206f776e65728be0079c531659141344cd1fd0a4f28419497f9722a3daafe3b4186f6b6457e05361666545524332303a204552433230206f7065726174696f6e20646964206e6f742073756363656564a2646970667358221220e1ac198bc3e064ca26163e4c6e9f1930eda108ccc6d0825cfbfab5e0c385be6c64736f6c63430007060033496e697469616c697a61626c653a20636f6e747261637420697320616c726561647920696e697469616c697a6564",
  "linkReferences": {},
  "deployedLinkReferences": {}
}