{
  "_format": "hh-sol-artifact-1",
  "contractName": "Unipool",
  "sourceName": "contracts/LPRewards/Unipool.sol",
  "abi": [
    {
      "anonymous": false,
      "inputs": [
        {
          "indexed": true,
          "internalType": "address",
          "name": "previousOwner",
          "type": "address"
        },
        {
          "indexed": true,
          "internalType": "address",
          "name": "newOwner",
          "type": "address"
        }
      ],
      "name": "OwnershipTransferred",
      "type": "event"
    },
    {
      "anonymous": false,
      "inputs": [
        {
          "indexed": false,
          "internalType": "address",
          "name": "_protocolTokenAddress",
          "type": "address"
        }
      ],
      "name": "ProtocolTokenAddressChanged",
      "type": "event"
    },
    {
      "anonymous": false,
      "inputs": [
        {
          "indexed": false,
          "internalType": "uint256",
          "name": "reward",
          "type": "uint256"
        }
      ],
      "name": "RewardAdded",
      "type": "event"
    },
    {
      "anonymous": false,
      "inputs": [
        {
          "indexed": true,
          "internalType": "address",
          "name": "user",
          "type": "address"
        },
        {
          "indexed": false,
          "internalType": "uint256",
          "name": "reward",
          "type": "uint256"
        }
      ],
      "name": "RewardPaid",
      "type": "event"
    },
    {
      "anonymous": false,
      "inputs": [
        {
          "indexed": true,
          "internalType": "address",
          "name": "user",
          "type": "address"
        },
        {
          "indexed": false,
          "internalType": "uint256",
          "name": "amount",
          "type": "uint256"
        }
      ],
      "name": "Staked",
      "type": "event"
    },
    {
      "anonymous": false,
      "inputs": [
        {
          "indexed": false,
          "internalType": "address",
          "name": "_uniTokenAddress",
          "type": "address"
        }
      ],
      "name": "UniTokenAddressChanged",
      "type": "event"
    },
    {
      "anonymous": false,
      "inputs": [
        {
          "indexed": true,
          "internalType": "address",
          "name": "user",
          "type": "address"
        },
        {
          "indexed": false,
          "internalType": "uint256",
          "name": "amount",
          "type": "uint256"
        }
      ],
      "name": "Withdrawn",
      "type": "event"
    },
    {
      "inputs": [],
      "name": "NAME",
      "outputs": [
        {
          "internalType": "string",
          "name": "",
          "type": "string"
        }
      ],
      "stateMutability": "view",
      "type": "function"
    },
    {
      "inputs": [
        {
          "internalType": "address",
          "name": "account",
          "type": "address"
        }
      ],
      "name": "balanceOf",
      "outputs": [
        {
          "internalType": "uint256",
          "name": "",
          "type": "uint256"
        }
      ],
      "stateMutability": "view",
      "type": "function"
    },
    {
      "inputs": [],
      "name": "claimReward",
      "outputs": [],
      "stateMutability": "nonpayable",
      "type": "function"
    },
    {
      "inputs": [],
      "name": "duration",
      "outputs": [
        {
          "internalType": "uint256",
          "name": "",
          "type": "uint256"
        }
      ],
      "stateMutability": "view",
      "type": "function"
    },
    {
      "inputs": [
        {
          "internalType": "address",
          "name": "account",
          "type": "address"
        }
      ],
      "name": "earned",
      "outputs": [
        {
          "internalType": "uint256",
          "name": "",
          "type": "uint256"
        }
      ],
      "stateMutability": "view",
      "type": "function"
    },
    {
      "inputs": [],
      "name": "initialize",
      "outputs": [],
      "stateMutability": "nonpayable",
      "type": "function"
    },
    {
      "inputs": [],
      "name": "lastTimeRewardApplicable",
      "outputs": [
        {
          "internalType": "uint256",
          "name": "",
          "type": "uint256"
        }
      ],
      "stateMutability": "view",
      "type": "function"
    },
    {
      "inputs": [],
      "name": "lastUpdateTime",
      "outputs": [
        {
          "internalType": "uint256",
          "name": "",
          "type": "uint256"
        }
      ],
      "stateMutability": "view",
      "type": "function"
    },
    {
      "inputs": [],
      "name": "owner",
      "outputs": [
        {
          "internalType": "address",
          "name": "",
          "type": "address"
        }
      ],
      "stateMutability": "view",
      "type": "function"
    },
    {
      "inputs": [],
      "name": "periodFinish",
      "outputs": [
        {
          "internalType": "uint256",
          "name": "",
          "type": "uint256"
        }
      ],
      "stateMutability": "view",
      "type": "function"
    },
    {
      "inputs": [],
      "name": "protocolToken",
      "outputs": [
        {
          "internalType": "contract IProtocolToken",
          "name": "",
          "type": "address"
        }
      ],
      "stateMutability": "view",
      "type": "function"
    },
    {
      "inputs": [],
      "name": "renounceOwnership",
      "outputs": [],
      "stateMutability": "nonpayable",
      "type": "function"
    },
    {
      "inputs": [],
      "name": "rewardPerToken",
      "outputs": [
        {
          "internalType": "uint256",
          "name": "",
          "type": "uint256"
        }
      ],
      "stateMutability": "view",
      "type": "function"
    },
    {
      "inputs": [],
      "name": "rewardPerTokenStored",
      "outputs": [
        {
          "internalType": "uint256",
          "name": "",
          "type": "uint256"
        }
      ],
      "stateMutability": "view",
      "type": "function"
    },
    {
      "inputs": [],
      "name": "rewardRate",
      "outputs": [
        {
          "internalType": "uint256",
          "name": "",
          "type": "uint256"
        }
      ],
      "stateMutability": "view",
      "type": "function"
    },
    {
      "inputs": [
        {
          "internalType": "address",
          "name": "",
          "type": "address"
        }
      ],
      "name": "rewards",
      "outputs": [
        {
          "internalType": "uint256",
          "name": "",
          "type": "uint256"
        }
      ],
      "stateMutability": "view",
      "type": "function"
    },
    {
      "inputs": [
        {
          "internalType": "address",
          "name": "_protocolTokenAddress",
          "type": "address"
        },
        {
          "internalType": "address",
          "name": "_uniTokenAddress",
          "type": "address"
        },
        {
          "internalType": "uint256",
          "name": "_duration",
          "type": "uint256"
        }
      ],
      "name": "setParams",
      "outputs": [],
      "stateMutability": "nonpayable",
      "type": "function"
    },
    {
      "inputs": [
        {
          "internalType": "uint256",
          "name": "amount",
          "type": "uint256"
        }
      ],
      "name": "stake",
      "outputs": [],
      "stateMutability": "nonpayable",
      "type": "function"
    },
    {
      "inputs": [],
      "name": "totalSupply",
      "outputs": [
        {
          "internalType": "uint256",
          "name": "",
          "type": "uint256"
        }
      ],
      "stateMutability": "view",
      "type": "function"
    },
    {
      "inputs": [
        {
          "internalType": "address",
          "name": "newOwner",
          "type": "address"
        }
      ],
      "name": "transferOwnership",
      "outputs": [],
      "stateMutability": "nonpayable",
      "type": "function"
    },
    {
      "inputs": [],
      "name": "uniToken",
      "outputs": [
        {
          "internalType": "contract IERC20",
          "name": "",
          "type": "address"
        }
      ],
      "stateMutability": "view",
      "type": "function"
    },
    {
      "inputs": [
        {
          "internalType": "address",
          "name": "",
          "type": "address"
        }
      ],
      "name": "userRewardPerTokenPaid",
      "outputs": [
        {
          "internalType": "uint256",
          "name": "",
          "type": "uint256"
        }
      ],
      "stateMutability": "view",
      "type": "function"
    },
    {
      "inputs": [
        {
          "internalType": "uint256",
          "name": "amount",
          "type": "uint256"
        }
      ],
      "name": "withdraw",
      "outputs": [],
      "stateMutability": "nonpayable",
      "type": "function"
    },
    {
      "inputs": [],
      "name": "withdrawAndClaim",
      "outputs": [],
      "stateMutability": "nonpayable",
      "type": "function"
    }
  ],
  "bytecode": "0x608060405234801561001057600080fd5b5061171e806100206000396000f3fe608060405234801561001057600080fd5b50600436106101575760003560e01c806385ce4fee116100c3578063c8f33c911161007c578063c8f33c9114610361578063cd3daf9d14610369578063d443772414610371578063df136d6514610379578063ebe2b12b14610381578063f2fde38b1461038957610157565b806385ce4fee146102895780638b876347146102915780638da5cb5b146102b7578063a3f4df7e146102bf578063a694fc3a1461033c578063b88a802f1461035957610157565b8063509db2f611610115578063509db2f61461020d57806370a0823114610243578063715018a6146102695780637b0a47ee1461027157806380faa57d146102795780638129fc1c1461028157610157565b80628cc2621461015c5780630700037d146101945780630fb5a6b4146101ba57806318160ddd146101c25780631a465fe1146101ca5780632e1a7d4d146101ee575b600080fd5b6101826004803603602081101561017257600080fd5b50356001600160a01b03166103af565b60408051918252519081900360200190f35b610182600480360360208110156101aa57600080fd5b50356001600160a01b031661041d565b61018261042f565b610182610435565b6101d261043c565b604080516001600160a01b039092168252519081900360200190f35b61020b6004803603602081101561020457600080fd5b503561044b565b005b61020b6004803603606081101561022357600080fd5b506001600160a01b03813581169160208101359091169060400135610526565b6101826004803603602081101561025957600080fd5b50356001600160a01b03166106bd565b61020b6106d8565b610182610772565b610182610778565b61020b61078b565b6101d261079f565b610182600480360360208110156102a757600080fd5b50356001600160a01b03166107ae565b6101d26107c0565b6102c76107cf565b6040805160208082528351818301528351919283929083019185019080838360005b838110156103015781810151838201526020016102e9565b50505050905090810190601f16801561032e5780820380516001836020036101000a031916815260200191505b509250505060405180910390f35b61020b6004803603602081101561035257600080fd5b50356107f2565b61020b6108d2565b610182610a49565b610182610a4f565b61020b610a9d565b610182610ab8565b610182610abe565b61020b6004803603602081101561039f57600080fd5b50356001600160a01b0316610ac4565b6001600160a01b0381166000908152606f6020908152604080832054606e909252822054610417919061041190670de0b6b3a76400009061040b906103fc906103f6610a4f565b90610bb5565b610405886106bd565b90610c12565b90610c72565b90610cd9565b92915050565b606f6020526000908152604090205481565b60685481565b6001545b90565b6069546001600160a01b031681565b60008111610494576040805162461bcd60e51b8152602060048201526011602482015270043616e6e6f74207769746864726177203607c1b604482015290519081900360640190fd5b6000546001600160a01b03166104db5760405162461bcd60e51b81526004018080602001828103825260298152602001806115bb6029913960400191505060405180910390fd5b6104e433610d33565b6104ed81610d82565b60408051828152905133917f7084f5476618d8e60b11ef0d7d3f06914655adb8793e28ff7f018d4c76d505d5919081900360200190a250565b61052e610dda565b6001600160a01b031661053f6107c0565b6001600160a01b031614610588576040805162461bcd60e51b8152602060048201819052602482015260008051602061167f833981519152604482015290519081900360640190fd5b61059183610dde565b61059a82610dde565b600080546001600160a01b038085166001600160a01b0319928316179092556069805486841692169190911790819055606883905560408051630974f55960e41b8152905161064093929092169163974f559091600480820192602092909190829003018186803b15801561060e57600080fd5b505afa158015610622573d6000803e3d6000fd5b505050506040513d602081101561063857600080fd5b505182610e39565b604080516001600160a01b038516815290517f7b0c6ae24561d189fc90b337cbc97aa15d085bef32931237a762e3e528b285b49181900360200190a1604080516001600160a01b038416815290517f15cb6984f76cb781da2b25c2024a3eaf5011914976381f844e09724cc9e21e949181900360200190a1505050565b6001600160a01b031660009081526002602052604090205490565b6106e0610dda565b6001600160a01b03166106f16107c0565b6001600160a01b03161461073a576040805162461bcd60e51b8152602060048201819052602482015260008051602061167f833981519152604482015290519081900360640190fd5b6036546040516000916001600160a01b03169060008051602061169f833981519152908390a3603680546001600160a01b0319169055565b606b5481565b600061078642606a54610f2b565b905090565b610793610f41565b6000606a819055606b55565b6000546001600160a01b031681565b606e6020526000908152604090205481565b6036546001600160a01b031690565b60405180604001604052806007815260200166155b9a5c1bdbdb60ca1b81525081565b60008111610838576040805162461bcd60e51b815260206004820152600e60248201526d043616e6e6f74207374616b6520360941b604482015290519081900360640190fd5b6000546001600160a01b031661087f5760405162461bcd60e51b81526004018080602001828103825260298152602001806115bb6029913960400191505060405180910390fd5b610887610ff2565b61089033610d33565b61089981611030565b60408051828152905133917f9e71bc8eea02a63969f509818f2dafb9254532904319f9dbda79b67bd34a5f3d919081900360200190a250565b6000546001600160a01b03166109195760405162461bcd60e51b81526004018080602001828103825260298152602001806115bb6029913960400191505060405180910390fd5b610921610ff2565b61092a33610d33565b6000610935336103af565b90506000811161097f576040805162461bcd60e51b815260206004820152601060248201526f4e6f7468696e6720746f20636c61696d60801b604482015290519081900360640190fd5b336000818152606f60209081526040808320839055606954815163a9059cbb60e01b815260048101959095526024850186905290516001600160a01b039091169363a9059cbb9360448083019493928390030190829087803b1580156109e457600080fd5b505af11580156109f8573d6000803e3d6000fd5b505050506040513d6020811015610a0e57600080fd5b505060408051828152905133917fe2403640ba68fed3a2f88b7557551d1993f84b99bb10ff833f0cf8db0c5e0486919081900360200190a250565b606c5481565b6000610a59610435565b610a665750606d54610439565b610786610a94610a74610435565b61040b670de0b6b3a7640000610405606b54610405606c546103f6610778565b606d5490610cd9565b610aae610aa9336106bd565b61044b565b610ab66108d2565b565b606d5481565b606a5481565b610acc610dda565b6001600160a01b0316610add6107c0565b6001600160a01b031614610b26576040805162461bcd60e51b8152602060048201819052602482015260008051602061167f833981519152604482015290519081900360640190fd5b6001600160a01b038116610b6b5760405162461bcd60e51b81526004018080602001828103825260268152602001806115e46026913960400191505060405180910390fd5b6036546040516001600160a01b0380841692169060008051602061169f83398151915290600090a3603680546001600160a01b0319166001600160a01b0392909216919091179055565b600082821115610c0c576040805162461bcd60e51b815260206004820152601e60248201527f536166654d6174683a207375627472616374696f6e206f766572666c6f770000604482015290519081900360640190fd5b50900390565b600082610c2157506000610417565b82820282848281610c2e57fe5b0414610c6b5760405162461bcd60e51b815260040180806020018281038252602181526020018061165e6021913960400191505060405180910390fd5b9392505050565b6000808211610cc8576040805162461bcd60e51b815260206004820152601a60248201527f536166654d6174683a206469766973696f6e206279207a65726f000000000000604482015290519081900360640190fd5b818381610cd157fe5b049392505050565b600082820183811015610c6b576040805162461bcd60e51b815260206004820152601b60248201527f536166654d6174683a206164646974696f6e206f766572666c6f770000000000604482015290519081900360640190fd5b610d3b611086565b6001600160a01b038116610d4b57fe5b610d54816103af565b6001600160a01b039091166000908152606f6020908152604080832093909355606d54606e90915291902055565b600154610d8f9082610bb5565b60015533600090815260026020526040902054610dac9082610bb5565b336000818152600260205260408120929092559054610dd7916001600160a01b03909116908361109e565b50565b3390565b6001600160a01b038116610dd7576040805162461bcd60e51b815260206004820152601e60248201527f4163636f756e742063616e6e6f74206265207a65726f20616464726573730000604482015290519081900360640190fd5b60008211610e4357fe5b606954604080516370a0823160e01b815230600482015290516001600160a01b03909216916370a0823191602480820192602092909190829003018186803b158015610e8e57600080fd5b505afa158015610ea2573d6000803e3d6000fd5b505050506040513d6020811015610eb857600080fd5b50518214610ec257fe5b606a5415610ecc57fe5b610ed4611086565b610ede8282610c72565b606b5542606c819055610ef19082610cd9565b606a556040805183815290517fde88a922e0d3b88b24e9623efeb464919c6bf9f66857a65e2bfcf2ce87a9433d9181900360200190a15050565b6000818310610f3a5781610c6b565b5090919050565b600354610100900460ff1680610f5a5750610f5a6110f5565b80610f68575060035460ff16155b610fa35760405162461bcd60e51b815260040180806020018281038252602e815260200180611630602e913960400191505060405180910390fd5b600354610100900460ff16158015610fce576003805460ff1961ff0019909116610100171660011790555b610fd6611106565b610fde6111a6565b8015610dd7576003805461ff001916905550565b610ffa610435565b610ab6576000606a541161100a57fe5b61102b611022606c5442610bb590919063ffffffff16565b606a5490610cd9565b606a55565b60015461103d9082610cd9565b6001553360009081526002602052604090205461105a9082610cd9565b336000818152600260205260408120929092559054610dd7916001600160a01b0390911690308461128d565b61108e610a4f565b606d55611099610778565b606c55565b604080516001600160a01b038416602482015260448082018490528251808303909101815260649091019091526020810180516001600160e01b031663a9059cbb60e01b1790526110f09084906112ed565b505050565b60006111003061139e565b15905090565b600354610100900460ff168061111f575061111f6110f5565b8061112d575060035460ff16155b6111685760405162461bcd60e51b815260040180806020018281038252602e815260200180611630602e913960400191505060405180910390fd5b600354610100900460ff16158015610fde576003805460ff1961ff0019909116610100171660011790558015610dd7576003805461ff001916905550565b600354610100900460ff16806111bf57506111bf6110f5565b806111cd575060035460ff16155b6112085760405162461bcd60e51b815260040180806020018281038252602e815260200180611630602e913960400191505060405180910390fd5b600354610100900460ff16158015611233576003805460ff1961ff0019909116610100171660011790555b600061123d610dda565b603680546001600160a01b0319166001600160a01b0383169081179091556040519192509060009060008051602061169f833981519152908290a3508015610dd7576003805461ff001916905550565b604080516001600160a01b0380861660248301528416604482015260648082018490528251808303909101815260849091019091526020810180516001600160e01b03166323b872dd60e01b1790526112e79085906112ed565b50505050565b6000611342826040518060400160405280602081526020017f5361666545524332303a206c6f772d6c6576656c2063616c6c206661696c6564815250856001600160a01b03166113a49092919063ffffffff16565b8051909150156110f05780806020019051602081101561136157600080fd5b50516110f05760405162461bcd60e51b815260040180806020018281038252602a8152602001806116bf602a913960400191505060405180910390fd5b3b151590565b60606113b384846000856113bb565b949350505050565b6060824710156113fc5760405162461bcd60e51b815260040180806020018281038252602681526020018061160a6026913960400191505060405180910390fd5b6114058561139e565b611456576040805162461bcd60e51b815260206004820152601d60248201527f416464726573733a2063616c6c20746f206e6f6e2d636f6e7472616374000000604482015290519081900360640190fd5b600080866001600160a01b031685876040518082805190602001908083835b602083106114945780518252601f199092019160209182019101611475565b6001836020036101000a03801982511681845116808217855250505050505090500191505060006040518083038185875af1925050503d80600081146114f6576040519150601f19603f3d011682016040523d82523d6000602084013e6114fb565b606091505b509150915061150b828286611516565b979650505050505050565b60608315611525575081610c6b565b8251156115355782518084602001fd5b8160405162461bcd60e51b81526004018080602001828103825283818151815260200191508051906020019080838360005b8381101561157f578181015183820152602001611567565b50505050905090810190601f1680156115ac5780820380516001836020036101000a031916815260200191505b509250505060405180910390fdfe4c697175696469747920506f6f6c20546f6b656e20686173206e6f74206265656e20736574207965744f776e61626c653a206e6577206f776e657220697320746865207a65726f2061646472657373416464726573733a20696e73756666696369656e742062616c616e636520666f722063616c6c496e697469616c697a61626c653a20636f6e747261637420697320616c726561647920696e697469616c697a6564536166654d6174683a206d756c7469706c69636174696f6e206f766572666c6f774f776e61626c653a2063616c6c6572206973206e6f7420746865206f776e65728be0079c531659141344cd1fd0a4f28419497f9722a3daafe3b4186f6b6457e05361666545524332303a204552433230206f7065726174696f6e20646964206e6f742073756363656564a26469706673582212202b43450198853edeb190a6ed45f43a0146cc179f353b2014f04e87424e68e0c464736f6c63430007060033",
  "linkReferences": {},
  "deployedLinkReferences": {}
}